{
	"Group Projects/Group Project # 3_Rock_Paper_scissors/Starter code/test_game.sol": {
		"CoinFlip": {
			"abi": [
				{
					"inputs": [],
					"name": "BET_MAX",
					"outputs": [
						{
							"internalType": "uint256",
							"name": "",
							"type": "uint256"
						}
					],
					"stateMutability": "view",
					"type": "function"
				},
				{
					"inputs": [],
					"name": "BET_MIN",
					"outputs": [
						{
							"internalType": "uint256",
							"name": "",
							"type": "uint256"
						}
					],
					"stateMutability": "view",
					"type": "function"
				},
				{
					"inputs": [],
					"name": "getContractBalance",
					"outputs": [
						{
							"internalType": "uint256",
							"name": "",
							"type": "uint256"
						}
					],
					"stateMutability": "view",
					"type": "function"
				},
				{
					"inputs": [],
					"name": "getOutcome",
					"outputs": [
						{
							"internalType": "uint256",
							"name": "",
							"type": "uint256"
						}
					],
					"stateMutability": "nonpayable",
					"type": "function"
				},
				{
					"inputs": [],
					"name": "housePlayed",
					"outputs": [
						{
							"internalType": "uint256",
							"name": "",
							"type": "uint256"
						}
					],
					"stateMutability": "view",
					"type": "function"
				},
				{
					"inputs": [],
					"name": "initialBet",
					"outputs": [
						{
							"internalType": "uint256",
							"name": "",
							"type": "uint256"
						}
					],
					"stateMutability": "view",
					"type": "function"
				},
				{
					"inputs": [],
					"name": "outcome",
					"outputs": [
						{
							"internalType": "uint256",
							"name": "",
							"type": "uint256"
						}
					],
					"stateMutability": "view",
					"type": "function"
				},
				{
					"inputs": [],
					"name": "paid",
					"outputs": [
						{
							"internalType": "uint256",
							"name": "",
							"type": "uint256"
						}
					],
					"stateMutability": "view",
					"type": "function"
				},
				{
					"inputs": [],
					"name": "playerChoice",
					"outputs": [
						{
							"internalType": "uint256",
							"name": "",
							"type": "uint256"
						}
					],
					"stateMutability": "view",
					"type": "function"
				},
				{
					"inputs": [
						{
							"internalType": "uint256",
							"name": "choice",
							"type": "uint256"
						}
					],
					"name": "playerChooses",
					"outputs": [],
					"stateMutability": "nonpayable",
					"type": "function"
				},
				{
					"inputs": [],
					"name": "playerPlayed",
					"outputs": [
						{
							"internalType": "uint256",
							"name": "",
							"type": "uint256"
						}
					],
					"stateMutability": "view",
					"type": "function"
				},
				{
					"inputs": [],
					"name": "randomNum",
					"outputs": [
						{
							"internalType": "uint256",
							"name": "",
							"type": "uint256"
						}
					],
					"stateMutability": "view",
					"type": "function"
				},
				{
					"inputs": [],
					"name": "register",
					"outputs": [],
					"stateMutability": "payable",
					"type": "function"
				},
				{
					"inputs": [],
					"name": "reset_contract",
					"outputs": [],
					"stateMutability": "nonpayable",
					"type": "function"
				},
				{
					"inputs": [],
					"name": "whoAmI",
					"outputs": [
						{
							"internalType": "uint256",
							"name": "",
							"type": "uint256"
						}
					],
					"stateMutability": "view",
					"type": "function"
				}
			],
			"devdoc": {
				"kind": "dev",
				"methods": {},
				"version": 1
			},
			"evm": {
				"assembly": "    /* \"Group Projects/Group Project # 3_Rock_Paper_scissors/Starter code/test_game.sol\":26:4938  contract CoinFlip {... */\n  mstore(0x40, 0x80)\n    /* \"Group Projects/Group Project # 3_Rock_Paper_scissors/Starter code/test_game.sol\":330:331  0 */\n  0x00\n    /* \"Group Projects/Group Project # 3_Rock_Paper_scissors/Starter code/test_game.sol\":304:331  uint public housePlayed = 0 */\n  0x03\n  sstore\n    /* \"Group Projects/Group Project # 3_Rock_Paper_scissors/Starter code/test_game.sol\":364:365  0 */\n  0x00\n    /* \"Group Projects/Group Project # 3_Rock_Paper_scissors/Starter code/test_game.sol\":337:365  uint public playerPlayed = 0 */\n  0x04\n  sstore\n    /* \"Group Projects/Group Project # 3_Rock_Paper_scissors/Starter code/test_game.sol\":398:399  0 */\n  0x00\n    /* \"Group Projects/Group Project # 3_Rock_Paper_scissors/Starter code/test_game.sol\":371:399  uint public playerChoice = 0 */\n  0x05\n  sstore\n    /* \"Group Projects/Group Project # 3_Rock_Paper_scissors/Starter code/test_game.sol\":432:433  0 */\n  0x00\n    /* \"Group Projects/Group Project # 3_Rock_Paper_scissors/Starter code/test_game.sol\":405:433  uint public paid         = 0 */\n  0x06\n  sstore\n    /* \"Group Projects/Group Project # 3_Rock_Paper_scissors/Starter code/test_game.sol\":26:4938  contract CoinFlip {... */\n  callvalue\n  dup1\n  iszero\n  tag_1\n  jumpi\n  0x00\n  dup1\n  revert\ntag_1:\n  pop\n  dataSize(sub_0)\n  dup1\n  dataOffset(sub_0)\n  0x00\n  codecopy\n  0x00\n  return\nstop\n\nsub_0: assembly {\n        /* \"Group Projects/Group Project # 3_Rock_Paper_scissors/Starter code/test_game.sol\":26:4938  contract CoinFlip {... */\n      mstore(0x40, 0x80)\n      jumpi(tag_1, lt(calldatasize, 0x04))\n      shr(0xe0, calldataload(0x00))\n      dup1\n      0x7e7e4b47\n      gt\n      tag_17\n      jumpi\n      dup1\n      0xda91254c\n      gt\n      tag_18\n      jumpi\n      dup1\n      0xda91254c\n      eq\n      tag_13\n      jumpi\n      dup1\n      0xe92788d6\n      eq\n      tag_14\n      jumpi\n      dup1\n      0xf630aa65\n      eq\n      tag_15\n      jumpi\n      dup1\n      0xfc98f42e\n      eq\n      tag_16\n      jumpi\n      jump(tag_1)\n    tag_18:\n      dup1\n      0x7e7e4b47\n      eq\n      tag_9\n      jumpi\n      dup1\n      0x8e687aed\n      eq\n      tag_10\n      jumpi\n      dup1\n      0xadef7cdd\n      eq\n      tag_11\n      jumpi\n      dup1\n      0xd0017a0c\n      eq\n      tag_12\n      jumpi\n      jump(tag_1)\n    tag_17:\n      dup1\n      0x27793f87\n      gt\n      tag_19\n      jumpi\n      dup1\n      0x27793f87\n      eq\n      tag_5\n      jumpi\n      dup1\n      0x295b4e17\n      eq\n      tag_6\n      jumpi\n      dup1\n      0x4e22fb5b\n      eq\n      tag_7\n      jumpi\n      dup1\n      0x6f9fb98a\n      eq\n      tag_8\n      jumpi\n      jump(tag_1)\n    tag_19:\n      dup1\n      0x1aa3a008\n      eq\n      tag_2\n      jumpi\n      dup1\n      0x1d73c64c\n      eq\n      tag_3\n      jumpi\n      dup1\n      0x2626ab08\n      eq\n      tag_4\n      jumpi\n    tag_1:\n      0x00\n      dup1\n      revert\n        /* \"Group Projects/Group Project # 3_Rock_Paper_scissors/Starter code/test_game.sol\":1057:1492  function register() public payable validBet notAlreadyRegistered {... */\n    tag_2:\n      tag_20\n      tag_21\n      jump\t// in\n    tag_20:\n      stop\n        /* \"Group Projects/Group Project # 3_Rock_Paper_scissors/Starter code/test_game.sol\":174:196  uint public initialBet */\n    tag_3:\n      callvalue\n      dup1\n      iszero\n      tag_22\n      jumpi\n      0x00\n      dup1\n      revert\n    tag_22:\n      pop\n      tag_23\n      tag_24\n      jump\t// in\n    tag_23:\n      mload(0x40)\n      tag_25\n      swap2\n      swap1\n      tag_26\n      jump\t// in\n    tag_25:\n      mload(0x40)\n      dup1\n      swap2\n      sub\n      swap1\n      return\n        /* \"Group Projects/Group Project # 3_Rock_Paper_scissors/Starter code/test_game.sol\":51:94  uint constant public BET_MIN        = 1 wei */\n    tag_4:\n      callvalue\n      dup1\n      iszero\n      tag_27\n      jumpi\n      0x00\n      dup1\n      revert\n    tag_27:\n      pop\n      tag_28\n      tag_29\n      jump\t// in\n    tag_28:\n      mload(0x40)\n      tag_30\n      swap2\n      swap1\n      tag_26\n      jump\t// in\n    tag_30:\n      mload(0x40)\n      dup1\n      swap2\n      sub\n      swap1\n      return\n        /* \"Group Projects/Group Project # 3_Rock_Paper_scissors/Starter code/test_game.sol\":252:271  uint public outcome */\n    tag_5:\n      callvalue\n      dup1\n      iszero\n      tag_31\n      jumpi\n      0x00\n      dup1\n      revert\n    tag_31:\n      pop\n      tag_32\n      tag_33\n      jump\t// in\n    tag_32:\n      mload(0x40)\n      tag_34\n      swap2\n      swap1\n      tag_26\n      jump\t// in\n    tag_34:\n      mload(0x40)\n      dup1\n      swap2\n      sub\n      swap1\n      return\n        /* \"Group Projects/Group Project # 3_Rock_Paper_scissors/Starter code/test_game.sol\":405:433  uint public paid         = 0 */\n    tag_6:\n      callvalue\n      dup1\n      iszero\n      tag_35\n      jumpi\n      0x00\n      dup1\n      revert\n    tag_35:\n      pop\n      tag_36\n      tag_37\n      jump\t// in\n    tag_36:\n      mload(0x40)\n      tag_38\n      swap2\n      swap1\n      tag_26\n      jump\t// in\n    tag_38:\n      mload(0x40)\n      dup1\n      swap2\n      sub\n      swap1\n      return\n        /* \"Group Projects/Group Project # 3_Rock_Paper_scissors/Starter code/test_game.sol\":4630:4936  function reset_contract() public game_has_outcome {... */\n    tag_7:\n      callvalue\n      dup1\n      iszero\n      tag_39\n      jumpi\n      0x00\n      dup1\n      revert\n    tag_39:\n      pop\n      tag_40\n      tag_41\n      jump\t// in\n    tag_40:\n      stop\n        /* \"Group Projects/Group Project # 3_Rock_Paper_scissors/Starter code/test_game.sol\":4221:4323  function getContractBalance() public view returns (uint) {... */\n    tag_8:\n      callvalue\n      dup1\n      iszero\n      tag_42\n      jumpi\n      0x00\n      dup1\n      revert\n    tag_42:\n      pop\n      tag_43\n      tag_44\n      jump\t// in\n    tag_43:\n      mload(0x40)\n      tag_45\n      swap2\n      swap1\n      tag_26\n      jump\t// in\n    tag_45:\n      mload(0x40)\n      dup1\n      swap2\n      sub\n      swap1\n      return\n        /* \"Group Projects/Group Project # 3_Rock_Paper_scissors/Starter code/test_game.sol\":2372:3705  function getOutcome() public has_player_played returns (uint) {... */\n    tag_9:\n      callvalue\n      dup1\n      iszero\n      tag_46\n      jumpi\n      0x00\n      dup1\n      revert\n    tag_46:\n      pop\n      tag_47\n      tag_48\n      jump\t// in\n    tag_47:\n      mload(0x40)\n      tag_49\n      swap2\n      swap1\n      tag_26\n      jump\t// in\n    tag_49:\n      mload(0x40)\n      dup1\n      swap2\n      sub\n      swap1\n      return\n        /* \"Group Projects/Group Project # 3_Rock_Paper_scissors/Starter code/test_game.sol\":337:365  uint public playerPlayed = 0 */\n    tag_10:\n      callvalue\n      dup1\n      iszero\n      tag_50\n      jumpi\n      0x00\n      dup1\n      revert\n    tag_50:\n      pop\n      tag_51\n      tag_52\n      jump\t// in\n    tag_51:\n      mload(0x40)\n      tag_53\n      swap2\n      swap1\n      tag_26\n      jump\t// in\n    tag_53:\n      mload(0x40)\n      dup1\n      swap2\n      sub\n      swap1\n      return\n        /* \"Group Projects/Group Project # 3_Rock_Paper_scissors/Starter code/test_game.sol\":371:399  uint public playerChoice = 0 */\n    tag_11:\n      callvalue\n      dup1\n      iszero\n      tag_54\n      jumpi\n      0x00\n      dup1\n      revert\n    tag_54:\n      pop\n      tag_55\n      tag_56\n      jump\t// in\n    tag_55:\n      mload(0x40)\n      tag_57\n      swap2\n      swap1\n      tag_26\n      jump\t// in\n    tag_57:\n      mload(0x40)\n      dup1\n      swap2\n      sub\n      swap1\n      return\n        /* \"Group Projects/Group Project # 3_Rock_Paper_scissors/Starter code/test_game.sol\":122:168  uint constant public BET_MAX        = 10 ether */\n    tag_12:\n      callvalue\n      dup1\n      iszero\n      tag_58\n      jumpi\n      0x00\n      dup1\n      revert\n    tag_58:\n      pop\n      tag_59\n      tag_60\n      jump\t// in\n    tag_59:\n      mload(0x40)\n      tag_61\n      swap2\n      swap1\n      tag_26\n      jump\t// in\n    tag_61:\n      mload(0x40)\n      dup1\n      swap2\n      sub\n      swap1\n      return\n        /* \"Group Projects/Group Project # 3_Rock_Paper_scissors/Starter code/test_game.sol\":4355:4541  function whoAmI() public view returns (uint) {... */\n    tag_13:\n      callvalue\n      dup1\n      iszero\n      tag_62\n      jumpi\n      0x00\n      dup1\n      revert\n    tag_62:\n      pop\n      tag_63\n      tag_64\n      jump\t// in\n    tag_63:\n      mload(0x40)\n      tag_65\n      swap2\n      swap1\n      tag_26\n      jump\t// in\n    tag_65:\n      mload(0x40)\n      dup1\n      swap2\n      sub\n      swap1\n      return\n        /* \"Group Projects/Group Project # 3_Rock_Paper_scissors/Starter code/test_game.sol\":2080:2222  function playerChooses(uint choice) public player_never_played is_caller_player is_legal_play(choice) {... */\n    tag_14:\n      callvalue\n      dup1\n      iszero\n      tag_66\n      jumpi\n      0x00\n      dup1\n      revert\n    tag_66:\n      pop\n      tag_67\n      0x04\n      dup1\n      calldatasize\n      sub\n      dup2\n      add\n      swap1\n      tag_68\n      swap2\n      swap1\n      tag_69\n      jump\t// in\n    tag_68:\n      tag_70\n      jump\t// in\n    tag_67:\n      stop\n        /* \"Group Projects/Group Project # 3_Rock_Paper_scissors/Starter code/test_game.sol\":277:298  uint public randomNum */\n    tag_15:\n      callvalue\n      dup1\n      iszero\n      tag_71\n      jumpi\n      0x00\n      dup1\n      revert\n    tag_71:\n      pop\n      tag_72\n      tag_73\n      jump\t// in\n    tag_72:\n      mload(0x40)\n      tag_74\n      swap2\n      swap1\n      tag_26\n      jump\t// in\n    tag_74:\n      mload(0x40)\n      dup1\n      swap2\n      sub\n      swap1\n      return\n        /* \"Group Projects/Group Project # 3_Rock_Paper_scissors/Starter code/test_game.sol\":304:331  uint public housePlayed = 0 */\n    tag_16:\n      callvalue\n      dup1\n      iszero\n      tag_75\n      jumpi\n      0x00\n      dup1\n      revert\n    tag_75:\n      pop\n      tag_76\n      tag_77\n      jump\t// in\n    tag_76:\n      mload(0x40)\n      tag_78\n      swap2\n      swap1\n      tag_26\n      jump\t// in\n    tag_78:\n      mload(0x40)\n      dup1\n      swap2\n      sub\n      swap1\n      return\n        /* \"Group Projects/Group Project # 3_Rock_Paper_scissors/Starter code/test_game.sol\":1057:1492  function register() public payable validBet notAlreadyRegistered {... */\n    tag_21:\n        /* \"Group Projects/Group Project # 3_Rock_Paper_scissors/Starter code/test_game.sol\":89:94  1 wei */\n      0x01\n        /* \"Group Projects/Group Project # 3_Rock_Paper_scissors/Starter code/test_game.sol\":806:815  msg.value */\n      callvalue\n        /* \"Group Projects/Group Project # 3_Rock_Paper_scissors/Starter code/test_game.sol\":806:826  msg.value >= BET_MIN */\n      lt\n      iszero\n        /* \"Group Projects/Group Project # 3_Rock_Paper_scissors/Starter code/test_game.sol\":798:827  require(msg.value >= BET_MIN) */\n      tag_80\n      jumpi\n      0x00\n      dup1\n      revert\n    tag_80:\n        /* \"Group Projects/Group Project # 3_Rock_Paper_scissors/Starter code/test_game.sol\":160:168  10 ether */\n      0x8ac7230489e80000\n        /* \"Group Projects/Group Project # 3_Rock_Paper_scissors/Starter code/test_game.sol\":845:854  msg.value */\n      callvalue\n        /* \"Group Projects/Group Project # 3_Rock_Paper_scissors/Starter code/test_game.sol\":845:865  msg.value <= BET_MAX */\n      gt\n      iszero\n        /* \"Group Projects/Group Project # 3_Rock_Paper_scissors/Starter code/test_game.sol\":837:866  require(msg.value <= BET_MAX) */\n      tag_81\n      jumpi\n      0x00\n      dup1\n      revert\n    tag_81:\n        /* \"Group Projects/Group Project # 3_Rock_Paper_scissors/Starter code/test_game.sol\":898:899  0 */\n      0x00\n        /* \"Group Projects/Group Project # 3_Rock_Paper_scissors/Starter code/test_game.sol\":884:894  initialBet */\n      dup1\n      sload\n        /* \"Group Projects/Group Project # 3_Rock_Paper_scissors/Starter code/test_game.sol\":884:899  initialBet == 0 */\n      eq\n        /* \"Group Projects/Group Project # 3_Rock_Paper_scissors/Starter code/test_game.sol\":884:926  initialBet == 0 || msg.value >= initialBet */\n      dup1\n      tag_82\n      jumpi\n      pop\n        /* \"Group Projects/Group Project # 3_Rock_Paper_scissors/Starter code/test_game.sol\":916:926  initialBet */\n      sload(0x00)\n        /* \"Group Projects/Group Project # 3_Rock_Paper_scissors/Starter code/test_game.sol\":903:912  msg.value */\n      callvalue\n        /* \"Group Projects/Group Project # 3_Rock_Paper_scissors/Starter code/test_game.sol\":903:926  msg.value >= initialBet */\n      lt\n      iszero\n        /* \"Group Projects/Group Project # 3_Rock_Paper_scissors/Starter code/test_game.sol\":884:926  initialBet == 0 || msg.value >= initialBet */\n    tag_82:\n        /* \"Group Projects/Group Project # 3_Rock_Paper_scissors/Starter code/test_game.sol\":876:927  require(initialBet == 0 || msg.value >= initialBet) */\n      tag_83\n      jumpi\n      0x00\n      dup1\n      revert\n    tag_83:\n        /* \"Group Projects/Group Project # 3_Rock_Paper_scissors/Starter code/test_game.sol\":1015:1022  playerA */\n      0x07\n      0x00\n      swap1\n      sload\n      swap1\n      0x0100\n      exp\n      swap1\n      div\n      0xffffffffffffffffffffffffffffffffffffffff\n      and\n        /* \"Group Projects/Group Project # 3_Rock_Paper_scissors/Starter code/test_game.sol\":1001:1022  msg.sender != playerA */\n      0xffffffffffffffffffffffffffffffffffffffff\n      and\n        /* \"Group Projects/Group Project # 3_Rock_Paper_scissors/Starter code/test_game.sol\":1001:1011  msg.sender */\n      caller\n        /* \"Group Projects/Group Project # 3_Rock_Paper_scissors/Starter code/test_game.sol\":1001:1022  msg.sender != playerA */\n      0xffffffffffffffffffffffffffffffffffffffff\n      and\n      sub\n        /* \"Group Projects/Group Project # 3_Rock_Paper_scissors/Starter code/test_game.sol\":993:1023  require(msg.sender != playerA) */\n      tag_85\n      jumpi\n      0x00\n      dup1\n      revert\n    tag_85:\n        /* \"Group Projects/Group Project # 3_Rock_Paper_scissors/Starter code/test_game.sol\":1168:1171  0x0 */\n      0x00\n        /* \"Group Projects/Group Project # 3_Rock_Paper_scissors/Starter code/test_game.sol\":1145:1172  HouseWallet == address(0x0) */\n      0xffffffffffffffffffffffffffffffffffffffff\n      and\n        /* \"Group Projects/Group Project # 3_Rock_Paper_scissors/Starter code/test_game.sol\":1145:1156  HouseWallet */\n      0x08\n      0x00\n      swap1\n      sload\n      swap1\n      0x0100\n      exp\n      swap1\n      div\n      0xffffffffffffffffffffffffffffffffffffffff\n      and\n        /* \"Group Projects/Group Project # 3_Rock_Paper_scissors/Starter code/test_game.sol\":1145:1172  HouseWallet == address(0x0) */\n      0xffffffffffffffffffffffffffffffffffffffff\n      and\n      sub\n        /* \"Group Projects/Group Project # 3_Rock_Paper_scissors/Starter code/test_game.sol\":1141:1467  if (HouseWallet == address(0x0)) {... */\n      tag_87\n      jumpi\n        /* \"Group Projects/Group Project # 3_Rock_Paper_scissors/Starter code/test_game.sol\":1202:1212  msg.sender */\n      caller\n        /* \"Group Projects/Group Project # 3_Rock_Paper_scissors/Starter code/test_game.sol\":1188:1199  HouseWallet */\n      0x08\n      0x00\n        /* \"Group Projects/Group Project # 3_Rock_Paper_scissors/Starter code/test_game.sol\":1188:1212  HouseWallet = msg.sender */\n      0x0100\n      exp\n      dup2\n      sload\n      dup2\n      0xffffffffffffffffffffffffffffffffffffffff\n      mul\n      not\n      and\n      swap1\n      dup4\n      0xffffffffffffffffffffffffffffffffffffffff\n      and\n      mul\n      or\n      swap1\n      sstore\n      pop\n        /* \"Group Projects/Group Project # 3_Rock_Paper_scissors/Starter code/test_game.sol\":1240:1249  msg.value */\n      callvalue\n        /* \"Group Projects/Group Project # 3_Rock_Paper_scissors/Starter code/test_game.sol\":1226:1237  housePlayed */\n      0x03\n        /* \"Group Projects/Group Project # 3_Rock_Paper_scissors/Starter code/test_game.sol\":1226:1249  housePlayed = msg.value */\n      dup2\n      swap1\n      sstore\n      pop\n        /* \"Group Projects/Group Project # 3_Rock_Paper_scissors/Starter code/test_game.sol\":1141:1467  if (HouseWallet == address(0x0)) {... */\n      jump(tag_88)\n    tag_87:\n        /* \"Group Projects/Group Project # 3_Rock_Paper_scissors/Starter code/test_game.sol\":1300:1303  0x0 */\n      0x00\n        /* \"Group Projects/Group Project # 3_Rock_Paper_scissors/Starter code/test_game.sol\":1281:1304  playerA == address(0x0) */\n      0xffffffffffffffffffffffffffffffffffffffff\n      and\n        /* \"Group Projects/Group Project # 3_Rock_Paper_scissors/Starter code/test_game.sol\":1281:1288  playerA */\n      0x07\n      0x00\n      swap1\n      sload\n      swap1\n      0x0100\n      exp\n      swap1\n      div\n      0xffffffffffffffffffffffffffffffffffffffff\n      and\n        /* \"Group Projects/Group Project # 3_Rock_Paper_scissors/Starter code/test_game.sol\":1281:1304  playerA == address(0x0) */\n      0xffffffffffffffffffffffffffffffffffffffff\n      and\n      eq\n        /* \"Group Projects/Group Project # 3_Rock_Paper_scissors/Starter code/test_game.sol\":1281:1335  playerA == address(0x0) && HouseWallet != address(0x0) */\n      dup1\n      iszero\n      tag_89\n      jumpi\n      pop\n        /* \"Group Projects/Group Project # 3_Rock_Paper_scissors/Starter code/test_game.sol\":1331:1334  0x0 */\n      0x00\n        /* \"Group Projects/Group Project # 3_Rock_Paper_scissors/Starter code/test_game.sol\":1308:1335  HouseWallet != address(0x0) */\n      0xffffffffffffffffffffffffffffffffffffffff\n      and\n        /* \"Group Projects/Group Project # 3_Rock_Paper_scissors/Starter code/test_game.sol\":1308:1319  HouseWallet */\n      0x08\n      0x00\n      swap1\n      sload\n      swap1\n      0x0100\n      exp\n      swap1\n      div\n      0xffffffffffffffffffffffffffffffffffffffff\n      and\n        /* \"Group Projects/Group Project # 3_Rock_Paper_scissors/Starter code/test_game.sol\":1308:1335  HouseWallet != address(0x0) */\n      0xffffffffffffffffffffffffffffffffffffffff\n      and\n      eq\n      iszero\n        /* \"Group Projects/Group Project # 3_Rock_Paper_scissors/Starter code/test_game.sol\":1281:1335  playerA == address(0x0) && HouseWallet != address(0x0) */\n    tag_89:\n        /* \"Group Projects/Group Project # 3_Rock_Paper_scissors/Starter code/test_game.sol\":1276:1467  if ( playerA == address(0x0) && HouseWallet != address(0x0) ) {... */\n      iszero\n      tag_90\n      jumpi\n        /* \"Group Projects/Group Project # 3_Rock_Paper_scissors/Starter code/test_game.sol\":1365:1375  msg.sender */\n      caller\n        /* \"Group Projects/Group Project # 3_Rock_Paper_scissors/Starter code/test_game.sol\":1352:1359  playerA */\n      0x07\n      0x00\n        /* \"Group Projects/Group Project # 3_Rock_Paper_scissors/Starter code/test_game.sol\":1352:1375  playerA    = msg.sender */\n      0x0100\n      exp\n      dup2\n      sload\n      dup2\n      0xffffffffffffffffffffffffffffffffffffffff\n      mul\n      not\n      and\n      swap1\n      dup4\n      0xffffffffffffffffffffffffffffffffffffffff\n      and\n      mul\n      or\n      swap1\n      sstore\n      pop\n        /* \"Group Projects/Group Project # 3_Rock_Paper_scissors/Starter code/test_game.sol\":1402:1411  msg.value */\n      callvalue\n        /* \"Group Projects/Group Project # 3_Rock_Paper_scissors/Starter code/test_game.sol\":1389:1399  initialBet */\n      0x00\n        /* \"Group Projects/Group Project # 3_Rock_Paper_scissors/Starter code/test_game.sol\":1389:1411  initialBet = msg.value */\n      dup2\n      swap1\n      sstore\n      pop\n        /* \"Group Projects/Group Project # 3_Rock_Paper_scissors/Starter code/test_game.sol\":1440:1449  msg.value */\n      callvalue\n        /* \"Group Projects/Group Project # 3_Rock_Paper_scissors/Starter code/test_game.sol\":1425:1437  playerPlayed */\n      0x04\n        /* \"Group Projects/Group Project # 3_Rock_Paper_scissors/Starter code/test_game.sol\":1425:1449  playerPlayed = msg.value */\n      dup2\n      swap1\n      sstore\n      pop\n        /* \"Group Projects/Group Project # 3_Rock_Paper_scissors/Starter code/test_game.sol\":1276:1467  if ( playerA == address(0x0) && HouseWallet != address(0x0) ) {... */\n    tag_90:\n        /* \"Group Projects/Group Project # 3_Rock_Paper_scissors/Starter code/test_game.sol\":1141:1467  if (HouseWallet == address(0x0)) {... */\n    tag_88:\n        /* \"Group Projects/Group Project # 3_Rock_Paper_scissors/Starter code/test_game.sol\":1057:1492  function register() public payable validBet notAlreadyRegistered {... */\n      jump\t// out\n        /* \"Group Projects/Group Project # 3_Rock_Paper_scissors/Starter code/test_game.sol\":174:196  uint public initialBet */\n    tag_24:\n      sload(0x00)\n      dup2\n      jump\t// out\n        /* \"Group Projects/Group Project # 3_Rock_Paper_scissors/Starter code/test_game.sol\":51:94  uint constant public BET_MIN        = 1 wei */\n    tag_29:\n        /* \"Group Projects/Group Project # 3_Rock_Paper_scissors/Starter code/test_game.sol\":89:94  1 wei */\n      0x01\n        /* \"Group Projects/Group Project # 3_Rock_Paper_scissors/Starter code/test_game.sol\":51:94  uint constant public BET_MIN        = 1 wei */\n      dup2\n      jump\t// out\n        /* \"Group Projects/Group Project # 3_Rock_Paper_scissors/Starter code/test_game.sol\":252:271  uint public outcome */\n    tag_33:\n      sload(0x01)\n      dup2\n      jump\t// out\n        /* \"Group Projects/Group Project # 3_Rock_Paper_scissors/Starter code/test_game.sol\":405:433  uint public paid         = 0 */\n    tag_37:\n      sload(0x06)\n      dup2\n      jump\t// out\n        /* \"Group Projects/Group Project # 3_Rock_Paper_scissors/Starter code/test_game.sol\":4630:4936  function reset_contract() public game_has_outcome {... */\n    tag_41:\n        /* \"Group Projects/Group Project # 3_Rock_Paper_scissors/Starter code/test_game.sol\":4604:4605  0 */\n      0x00\n        /* \"Group Projects/Group Project # 3_Rock_Paper_scissors/Starter code/test_game.sol\":4594:4601  outcome */\n      sload(0x01)\n        /* \"Group Projects/Group Project # 3_Rock_Paper_scissors/Starter code/test_game.sol\":4594:4605  outcome > 0 */\n      gt\n        /* \"Group Projects/Group Project # 3_Rock_Paper_scissors/Starter code/test_game.sol\":4586:4606  require(outcome > 0) */\n      tag_92\n      jumpi\n      0x00\n      dup1\n      revert\n    tag_92:\n        /* \"Group Projects/Group Project # 3_Rock_Paper_scissors/Starter code/test_game.sol\":4709:4710  0 */\n      0x00\n        /* \"Group Projects/Group Project # 3_Rock_Paper_scissors/Starter code/test_game.sol\":4691:4701  initialBet */\n      dup1\n        /* \"Group Projects/Group Project # 3_Rock_Paper_scissors/Starter code/test_game.sol\":4691:4710  initialBet      = 0 */\n      dup2\n      swap1\n      sstore\n      pop\n        /* \"Group Projects/Group Project # 3_Rock_Paper_scissors/Starter code/test_game.sol\":4746:4749  0x0 */\n      0x00\n        /* \"Group Projects/Group Project # 3_Rock_Paper_scissors/Starter code/test_game.sol\":4720:4727  playerA */\n      0x07\n      0x00\n        /* \"Group Projects/Group Project # 3_Rock_Paper_scissors/Starter code/test_game.sol\":4720:4750  playerA         = address(0x0) */\n      0x0100\n      exp\n      dup2\n      sload\n      dup2\n      0xffffffffffffffffffffffffffffffffffffffff\n      mul\n      not\n      and\n      swap1\n      dup4\n      0xffffffffffffffffffffffffffffffffffffffff\n      and\n      mul\n      or\n      swap1\n      sstore\n      pop\n        /* \"Group Projects/Group Project # 3_Rock_Paper_scissors/Starter code/test_game.sol\":4786:4789  0x0 */\n      0x00\n        /* \"Group Projects/Group Project # 3_Rock_Paper_scissors/Starter code/test_game.sol\":4760:4771  HouseWallet */\n      0x08\n      0x00\n        /* \"Group Projects/Group Project # 3_Rock_Paper_scissors/Starter code/test_game.sol\":4760:4790  HouseWallet     = address(0x0) */\n      0x0100\n      exp\n      dup2\n      sload\n      dup2\n      0xffffffffffffffffffffffffffffffffffffffff\n      mul\n      not\n      and\n      swap1\n      dup4\n      0xffffffffffffffffffffffffffffffffffffffff\n      and\n      mul\n      or\n      swap1\n      sstore\n      pop\n        /* \"Group Projects/Group Project # 3_Rock_Paper_scissors/Starter code/test_game.sol\":4818:4819  0 */\n      0x00\n        /* \"Group Projects/Group Project # 3_Rock_Paper_scissors/Starter code/test_game.sol\":4800:4807  outcome */\n      0x01\n        /* \"Group Projects/Group Project # 3_Rock_Paper_scissors/Starter code/test_game.sol\":4800:4819  outcome         = 0 */\n      dup2\n      swap1\n      sstore\n      pop\n        /* \"Group Projects/Group Project # 3_Rock_Paper_scissors/Starter code/test_game.sol\":4847:4848  0 */\n      0x00\n        /* \"Group Projects/Group Project # 3_Rock_Paper_scissors/Starter code/test_game.sol\":4829:4833  paid */\n      0x06\n        /* \"Group Projects/Group Project # 3_Rock_Paper_scissors/Starter code/test_game.sol\":4829:4848  paid            = 0 */\n      dup2\n      swap1\n      sstore\n      pop\n        /* \"Group Projects/Group Project # 3_Rock_Paper_scissors/Starter code/test_game.sol\":4865:4866  0 */\n      0x00\n        /* \"Group Projects/Group Project # 3_Rock_Paper_scissors/Starter code/test_game.sol\":4852:4861  randomNum */\n      0x02\n        /* \"Group Projects/Group Project # 3_Rock_Paper_scissors/Starter code/test_game.sol\":4852:4866  randomNum\t\t= 0 */\n      dup2\n      swap1\n      sstore\n      pop\n        /* \"Group Projects/Group Project # 3_Rock_Paper_scissors/Starter code/test_game.sol\":4885:4886  0 */\n      0x00\n        /* \"Group Projects/Group Project # 3_Rock_Paper_scissors/Starter code/test_game.sol\":4870:4882  playerChoice */\n      0x05\n        /* \"Group Projects/Group Project # 3_Rock_Paper_scissors/Starter code/test_game.sol\":4870:4886  playerChoice\t= 0 */\n      dup2\n      swap1\n      sstore\n      pop\n        /* \"Group Projects/Group Project # 3_Rock_Paper_scissors/Starter code/test_game.sol\":4911:4912  0 */\n      0x00\n        /* \"Group Projects/Group Project # 3_Rock_Paper_scissors/Starter code/test_game.sol\":4893:4904  housePlayed */\n      0x03\n        /* \"Group Projects/Group Project # 3_Rock_Paper_scissors/Starter code/test_game.sol\":4893:4912  housePlayed     = 0 */\n      dup2\n      swap1\n      sstore\n      pop\n        /* \"Group Projects/Group Project # 3_Rock_Paper_scissors/Starter code/test_game.sol\":4931:4932  0 */\n      0x00\n        /* \"Group Projects/Group Project # 3_Rock_Paper_scissors/Starter code/test_game.sol\":4916:4928  playerPlayed */\n      0x04\n        /* \"Group Projects/Group Project # 3_Rock_Paper_scissors/Starter code/test_game.sol\":4916:4932  playerPlayed\t= 0 */\n      dup2\n      swap1\n      sstore\n      pop\n        /* \"Group Projects/Group Project # 3_Rock_Paper_scissors/Starter code/test_game.sol\":4630:4936  function reset_contract() public game_has_outcome {... */\n      jump\t// out\n        /* \"Group Projects/Group Project # 3_Rock_Paper_scissors/Starter code/test_game.sol\":4221:4323  function getContractBalance() public view returns (uint) {... */\n    tag_44:\n        /* \"Group Projects/Group Project # 3_Rock_Paper_scissors/Starter code/test_game.sol\":4272:4276  uint */\n      0x00\n        /* \"Group Projects/Group Project # 3_Rock_Paper_scissors/Starter code/test_game.sol\":4295:4316  address(this).balance */\n      selfbalance\n        /* \"Group Projects/Group Project # 3_Rock_Paper_scissors/Starter code/test_game.sol\":4288:4316  return address(this).balance */\n      swap1\n      pop\n        /* \"Group Projects/Group Project # 3_Rock_Paper_scissors/Starter code/test_game.sol\":4221:4323  function getContractBalance() public view returns (uint) {... */\n      swap1\n      jump\t// out\n        /* \"Group Projects/Group Project # 3_Rock_Paper_scissors/Starter code/test_game.sol\":2372:3705  function getOutcome() public has_player_played returns (uint) {... */\n    tag_48:\n        /* \"Group Projects/Group Project # 3_Rock_Paper_scissors/Starter code/test_game.sol\":2428:2432  uint */\n      0x00\n        /* \"Group Projects/Group Project # 3_Rock_Paper_scissors/Starter code/test_game.sol\":2297:2298  0 */\n      dup1\n        /* \"Group Projects/Group Project # 3_Rock_Paper_scissors/Starter code/test_game.sol\":2282:2294  playerChoice */\n      sload(0x05)\n        /* \"Group Projects/Group Project # 3_Rock_Paper_scissors/Starter code/test_game.sol\":2282:2298  playerChoice > 0 */\n      gt\n        /* \"Group Projects/Group Project # 3_Rock_Paper_scissors/Starter code/test_game.sol\":2274:2348  require(playerChoice > 0, \"Player has to play before you can get outcome\") */\n      tag_96\n      jumpi\n      mload(0x40)\n      0x08c379a000000000000000000000000000000000000000000000000000000000\n      dup2\n      mstore\n      0x04\n      add\n      tag_97\n      swap1\n      tag_98\n      jump\t// in\n    tag_97:\n      mload(0x40)\n      dup1\n      swap2\n      sub\n      swap1\n      revert\n    tag_96:\n        /* \"Group Projects/Group Project # 3_Rock_Paper_scissors/Starter code/test_game.sol\":2500:2506  999999 */\n      0x0f423f\n        /* \"Group Projects/Group Project # 3_Rock_Paper_scissors/Starter code/test_game.sol\":2494:2495  1 */\n      0x01\n        /* \"Group Projects/Group Project # 3_Rock_Paper_scissors/Starter code/test_game.sol\":2481:2493  block.number */\n      number\n        /* \"Group Projects/Group Project # 3_Rock_Paper_scissors/Starter code/test_game.sol\":2481:2495  block.number-1 */\n      tag_100\n      swap2\n      swap1\n      tag_101\n      jump\t// in\n    tag_100:\n        /* \"Group Projects/Group Project # 3_Rock_Paper_scissors/Starter code/test_game.sol\":2471:2496  blockhash(block.number-1) */\n      blockhash\n        /* \"Group Projects/Group Project # 3_Rock_Paper_scissors/Starter code/test_game.sol\":2466:2497  uint(blockhash(block.number-1)) */\n      0x00\n      shr\n        /* \"Group Projects/Group Project # 3_Rock_Paper_scissors/Starter code/test_game.sol\":2466:2506  uint(blockhash(block.number-1)) % 999999 */\n      tag_102\n      swap2\n      swap1\n      tag_103\n      jump\t// in\n    tag_102:\n        /* \"Group Projects/Group Project # 3_Rock_Paper_scissors/Starter code/test_game.sol\":2454:2463  randomNum */\n      0x02\n        /* \"Group Projects/Group Project # 3_Rock_Paper_scissors/Starter code/test_game.sol\":2454:2506  randomNum = uint(blockhash(block.number-1)) % 999999 */\n      dup2\n      swap1\n      sstore\n      pop\n        /* \"Group Projects/Group Project # 3_Rock_Paper_scissors/Starter code/test_game.sol\":2547:2548  0 */\n      0x00\n        /* \"Group Projects/Group Project # 3_Rock_Paper_scissors/Starter code/test_game.sol\":2542:2543  2 */\n      0x02\n        /* \"Group Projects/Group Project # 3_Rock_Paper_scissors/Starter code/test_game.sol\":2530:2539  randomNum */\n      dup1\n      sload\n        /* \"Group Projects/Group Project # 3_Rock_Paper_scissors/Starter code/test_game.sol\":2530:2543  randomNum % 2 */\n      tag_104\n      swap2\n      swap1\n      tag_103\n      jump\t// in\n    tag_104:\n        /* \"Group Projects/Group Project # 3_Rock_Paper_scissors/Starter code/test_game.sol\":2530:2548  randomNum % 2 == 0 */\n      sub\n        /* \"Group Projects/Group Project # 3_Rock_Paper_scissors/Starter code/test_game.sol\":2526:2916  if (randomNum % 2 == 0) {... */\n      tag_105\n      jumpi\n        /* \"Group Projects/Group Project # 3_Rock_Paper_scissors/Starter code/test_game.sol\":2587:2588  2 */\n      0x02\n        /* \"Group Projects/Group Project # 3_Rock_Paper_scissors/Starter code/test_game.sol\":2577:2584  outcome */\n      0x01\n        /* \"Group Projects/Group Project # 3_Rock_Paper_scissors/Starter code/test_game.sol\":2577:2588  outcome = 2 */\n      dup2\n      swap1\n      sstore\n      pop\n        /* \"Group Projects/Group Project # 3_Rock_Paper_scissors/Starter code/test_game.sol\":2622:2623  2 */\n      0x02\n        /* \"Group Projects/Group Project # 3_Rock_Paper_scissors/Starter code/test_game.sol\":2606:2618  playerChoice */\n      sload(0x05)\n        /* \"Group Projects/Group Project # 3_Rock_Paper_scissors/Starter code/test_game.sol\":2606:2623  playerChoice == 2 */\n      sub\n        /* \"Group Projects/Group Project # 3_Rock_Paper_scissors/Starter code/test_game.sol\":2602:2905  if (playerChoice == 2) {... */\n      tag_106\n      jumpi\n        /* \"Group Projects/Group Project # 3_Rock_Paper_scissors/Starter code/test_game.sol\":2651:2652  1 */\n      0x01\n        /* \"Group Projects/Group Project # 3_Rock_Paper_scissors/Starter code/test_game.sol\":2644:2648  paid */\n      0x06\n        /* \"Group Projects/Group Project # 3_Rock_Paper_scissors/Starter code/test_game.sol\":2644:2652  paid = 1 */\n      dup2\n      swap1\n      sstore\n      pop\n        /* \"Group Projects/Group Project # 3_Rock_Paper_scissors/Starter code/test_game.sol\":2690:2697  playerA */\n      0x07\n      0x00\n      swap1\n      sload\n      swap1\n      0x0100\n      exp\n      swap1\n      div\n      0xffffffffffffffffffffffffffffffffffffffff\n      and\n        /* \"Group Projects/Group Project # 3_Rock_Paper_scissors/Starter code/test_game.sol\":2682:2707  payable(playerA).transfer */\n      0xffffffffffffffffffffffffffffffffffffffff\n      and\n        /* \"Group Projects/Group Project # 3_Rock_Paper_scissors/Starter code/test_game.sol\":2682:2730  payable(playerA).transfer(address(this).balance) */\n      0x08fc\n        /* \"Group Projects/Group Project # 3_Rock_Paper_scissors/Starter code/test_game.sol\":2708:2729  address(this).balance */\n      selfbalance\n        /* \"Group Projects/Group Project # 3_Rock_Paper_scissors/Starter code/test_game.sol\":2682:2730  payable(playerA).transfer(address(this).balance) */\n      swap1\n      dup2\n      iszero\n      mul\n      swap1\n      mload(0x40)\n      0x00\n      mload(0x40)\n      dup1\n      dup4\n      sub\n      dup2\n      dup6\n      dup9\n      dup9\n      call\n      swap4\n      pop\n      pop\n      pop\n      pop\n      iszero\n      dup1\n      iszero\n      tag_108\n      jumpi\n      returndatasize\n      0x00\n      dup1\n      returndatacopy\n      revert(0x00, returndatasize)\n    tag_108:\n      pop\n        /* \"Group Projects/Group Project # 3_Rock_Paper_scissors/Starter code/test_game.sol\":2870:2877  reset() */\n      tag_109\n        /* \"Group Projects/Group Project # 3_Rock_Paper_scissors/Starter code/test_game.sol\":2870:2875  reset */\n      tag_110\n        /* \"Group Projects/Group Project # 3_Rock_Paper_scissors/Starter code/test_game.sol\":2870:2877  reset() */\n      jump\t// in\n    tag_109:\n        /* \"Group Projects/Group Project # 3_Rock_Paper_scissors/Starter code/test_game.sol\":2602:2905  if (playerChoice == 2) {... */\n    tag_106:\n        /* \"Group Projects/Group Project # 3_Rock_Paper_scissors/Starter code/test_game.sol\":2526:2916  if (randomNum % 2 == 0) {... */\n    tag_105:\n        /* \"Group Projects/Group Project # 3_Rock_Paper_scissors/Starter code/test_game.sol\":2947:2948  1 */\n      0x01\n        /* \"Group Projects/Group Project # 3_Rock_Paper_scissors/Starter code/test_game.sol\":2942:2943  2 */\n      0x02\n        /* \"Group Projects/Group Project # 3_Rock_Paper_scissors/Starter code/test_game.sol\":2930:2939  randomNum */\n      dup1\n      sload\n        /* \"Group Projects/Group Project # 3_Rock_Paper_scissors/Starter code/test_game.sol\":2930:2943  randomNum % 2 */\n      tag_111\n      swap2\n      swap1\n      tag_103\n      jump\t// in\n    tag_111:\n        /* \"Group Projects/Group Project # 3_Rock_Paper_scissors/Starter code/test_game.sol\":2930:2948  randomNum % 2 == 1 */\n      sub\n        /* \"Group Projects/Group Project # 3_Rock_Paper_scissors/Starter code/test_game.sol\":2926:3376  if (randomNum % 2 == 1) {... */\n      tag_112\n      jumpi\n        /* \"Group Projects/Group Project # 3_Rock_Paper_scissors/Starter code/test_game.sol\":2975:2976  1 */\n      0x01\n        /* \"Group Projects/Group Project # 3_Rock_Paper_scissors/Starter code/test_game.sol\":2965:2972  outcome */\n      dup1\n        /* \"Group Projects/Group Project # 3_Rock_Paper_scissors/Starter code/test_game.sol\":2965:2976  outcome = 1 */\n      dup2\n      swap1\n      sstore\n      pop\n        /* \"Group Projects/Group Project # 3_Rock_Paper_scissors/Starter code/test_game.sol\":3010:3011  1 */\n      0x01\n        /* \"Group Projects/Group Project # 3_Rock_Paper_scissors/Starter code/test_game.sol\":2994:3006  playerChoice */\n      sload(0x05)\n        /* \"Group Projects/Group Project # 3_Rock_Paper_scissors/Starter code/test_game.sol\":2994:3011  playerChoice == 1 */\n      sub\n        /* \"Group Projects/Group Project # 3_Rock_Paper_scissors/Starter code/test_game.sol\":2990:3365  if (playerChoice == 1) {... */\n      tag_113\n      jumpi\n        /* \"Group Projects/Group Project # 3_Rock_Paper_scissors/Starter code/test_game.sol\":3039:3040  1 */\n      0x01\n        /* \"Group Projects/Group Project # 3_Rock_Paper_scissors/Starter code/test_game.sol\":3032:3036  paid */\n      0x06\n        /* \"Group Projects/Group Project # 3_Rock_Paper_scissors/Starter code/test_game.sol\":3032:3040  paid = 1 */\n      dup2\n      swap1\n      sstore\n      pop\n        /* \"Group Projects/Group Project # 3_Rock_Paper_scissors/Starter code/test_game.sol\":3150:3157  playerA */\n      0x07\n      0x00\n      swap1\n      sload\n      swap1\n      0x0100\n      exp\n      swap1\n      div\n      0xffffffffffffffffffffffffffffffffffffffff\n      and\n        /* \"Group Projects/Group Project # 3_Rock_Paper_scissors/Starter code/test_game.sol\":3142:3167  payable(playerA).transfer */\n      0xffffffffffffffffffffffffffffffffffffffff\n      and\n        /* \"Group Projects/Group Project # 3_Rock_Paper_scissors/Starter code/test_game.sol\":3142:3190  payable(playerA).transfer(address(this).balance) */\n      0x08fc\n        /* \"Group Projects/Group Project # 3_Rock_Paper_scissors/Starter code/test_game.sol\":3168:3189  address(this).balance */\n      selfbalance\n        /* \"Group Projects/Group Project # 3_Rock_Paper_scissors/Starter code/test_game.sol\":3142:3190  payable(playerA).transfer(address(this).balance) */\n      swap1\n      dup2\n      iszero\n      mul\n      swap1\n      mload(0x40)\n      0x00\n      mload(0x40)\n      dup1\n      dup4\n      sub\n      dup2\n      dup6\n      dup9\n      dup9\n      call\n      swap4\n      pop\n      pop\n      pop\n      pop\n      iszero\n      dup1\n      iszero\n      tag_115\n      jumpi\n      returndatasize\n      0x00\n      dup1\n      returndatacopy\n      revert(0x00, returndatasize)\n    tag_115:\n      pop\n        /* \"Group Projects/Group Project # 3_Rock_Paper_scissors/Starter code/test_game.sol\":3330:3337  reset() */\n      tag_116\n        /* \"Group Projects/Group Project # 3_Rock_Paper_scissors/Starter code/test_game.sol\":3330:3335  reset */\n      tag_110\n        /* \"Group Projects/Group Project # 3_Rock_Paper_scissors/Starter code/test_game.sol\":3330:3337  reset() */\n      jump\t// in\n    tag_116:\n        /* \"Group Projects/Group Project # 3_Rock_Paper_scissors/Starter code/test_game.sol\":2990:3365  if (playerChoice == 1) {... */\n    tag_113:\n        /* \"Group Projects/Group Project # 3_Rock_Paper_scissors/Starter code/test_game.sol\":2926:3376  if (randomNum % 2 == 1) {... */\n    tag_112:\n        /* \"Group Projects/Group Project # 3_Rock_Paper_scissors/Starter code/test_game.sol\":3410:3411  0 */\n      0x00\n        /* \"Group Projects/Group Project # 3_Rock_Paper_scissors/Starter code/test_game.sol\":3402:3406  paid */\n      sload(0x06)\n        /* \"Group Projects/Group Project # 3_Rock_Paper_scissors/Starter code/test_game.sol\":3402:3411  paid == 0 */\n      sub\n        /* \"Group Projects/Group Project # 3_Rock_Paper_scissors/Starter code/test_game.sol\":3398:3690  if (paid == 0) {... */\n      tag_117\n      jumpi\n        /* \"Group Projects/Group Project # 3_Rock_Paper_scissors/Starter code/test_game.sol\":3528:3529  1 */\n      0x01\n        /* \"Group Projects/Group Project # 3_Rock_Paper_scissors/Starter code/test_game.sol\":3521:3525  paid */\n      0x06\n        /* \"Group Projects/Group Project # 3_Rock_Paper_scissors/Starter code/test_game.sol\":3521:3529  paid = 1 */\n      dup2\n      swap1\n      sstore\n      pop\n        /* \"Group Projects/Group Project # 3_Rock_Paper_scissors/Starter code/test_game.sol\":3542:3553  HouseWallet */\n      0x08\n      0x00\n      swap1\n      sload\n      swap1\n      0x0100\n      exp\n      swap1\n      div\n      0xffffffffffffffffffffffffffffffffffffffff\n      and\n        /* \"Group Projects/Group Project # 3_Rock_Paper_scissors/Starter code/test_game.sol\":3534:3563  payable(HouseWallet).transfer */\n      0xffffffffffffffffffffffffffffffffffffffff\n      and\n        /* \"Group Projects/Group Project # 3_Rock_Paper_scissors/Starter code/test_game.sol\":3534:3586  payable(HouseWallet).transfer(address(this).balance) */\n      0x08fc\n        /* \"Group Projects/Group Project # 3_Rock_Paper_scissors/Starter code/test_game.sol\":3564:3585  address(this).balance */\n      selfbalance\n        /* \"Group Projects/Group Project # 3_Rock_Paper_scissors/Starter code/test_game.sol\":3534:3586  payable(HouseWallet).transfer(address(this).balance) */\n      swap1\n      dup2\n      iszero\n      mul\n      swap1\n      mload(0x40)\n      0x00\n      mload(0x40)\n      dup1\n      dup4\n      sub\n      dup2\n      dup6\n      dup9\n      dup9\n      call\n      swap4\n      pop\n      pop\n      pop\n      pop\n      iszero\n      dup1\n      iszero\n      tag_119\n      jumpi\n      returndatasize\n      0x00\n      dup1\n      returndatacopy\n      revert(0x00, returndatasize)\n    tag_119:\n      pop\n        /* \"Group Projects/Group Project # 3_Rock_Paper_scissors/Starter code/test_game.sol\":3659:3666  reset() */\n      tag_120\n        /* \"Group Projects/Group Project # 3_Rock_Paper_scissors/Starter code/test_game.sol\":3659:3664  reset */\n      tag_110\n        /* \"Group Projects/Group Project # 3_Rock_Paper_scissors/Starter code/test_game.sol\":3659:3666  reset() */\n      jump\t// in\n    tag_120:\n        /* \"Group Projects/Group Project # 3_Rock_Paper_scissors/Starter code/test_game.sol\":3398:3690  if (paid == 0) {... */\n    tag_117:\n        /* \"Group Projects/Group Project # 3_Rock_Paper_scissors/Starter code/test_game.sol\":2372:3705  function getOutcome() public has_player_played returns (uint) {... */\n      swap1\n      jump\t// out\n        /* \"Group Projects/Group Project # 3_Rock_Paper_scissors/Starter code/test_game.sol\":337:365  uint public playerPlayed = 0 */\n    tag_52:\n      sload(0x04)\n      dup2\n      jump\t// out\n        /* \"Group Projects/Group Project # 3_Rock_Paper_scissors/Starter code/test_game.sol\":371:399  uint public playerChoice = 0 */\n    tag_56:\n      sload(0x05)\n      dup2\n      jump\t// out\n        /* \"Group Projects/Group Project # 3_Rock_Paper_scissors/Starter code/test_game.sol\":122:168  uint constant public BET_MAX        = 10 ether */\n    tag_60:\n        /* \"Group Projects/Group Project # 3_Rock_Paper_scissors/Starter code/test_game.sol\":160:168  10 ether */\n      0x8ac7230489e80000\n        /* \"Group Projects/Group Project # 3_Rock_Paper_scissors/Starter code/test_game.sol\":122:168  uint constant public BET_MAX        = 10 ether */\n      dup2\n      jump\t// out\n        /* \"Group Projects/Group Project # 3_Rock_Paper_scissors/Starter code/test_game.sol\":4355:4541  function whoAmI() public view returns (uint) {... */\n    tag_64:\n        /* \"Group Projects/Group Project # 3_Rock_Paper_scissors/Starter code/test_game.sol\":4394:4398  uint */\n      0x00\n        /* \"Group Projects/Group Project # 3_Rock_Paper_scissors/Starter code/test_game.sol\":4428:4435  playerA */\n      0x07\n      0x00\n      swap1\n      sload\n      swap1\n      0x0100\n      exp\n      swap1\n      div\n      0xffffffffffffffffffffffffffffffffffffffff\n      and\n        /* \"Group Projects/Group Project # 3_Rock_Paper_scissors/Starter code/test_game.sol\":4414:4435  msg.sender == playerA */\n      0xffffffffffffffffffffffffffffffffffffffff\n      and\n        /* \"Group Projects/Group Project # 3_Rock_Paper_scissors/Starter code/test_game.sol\":4414:4424  msg.sender */\n      caller\n        /* \"Group Projects/Group Project # 3_Rock_Paper_scissors/Starter code/test_game.sol\":4414:4435  msg.sender == playerA */\n      0xffffffffffffffffffffffffffffffffffffffff\n      and\n      sub\n        /* \"Group Projects/Group Project # 3_Rock_Paper_scissors/Starter code/test_game.sol\":4410:4470  if (msg.sender == playerA) {... */\n      tag_122\n      jumpi\n        /* \"Group Projects/Group Project # 3_Rock_Paper_scissors/Starter code/test_game.sol\":4458:4459  1 */\n      0x01\n        /* \"Group Projects/Group Project # 3_Rock_Paper_scissors/Starter code/test_game.sol\":4451:4459  return 1 */\n      swap1\n      pop\n      jump(tag_121)\n        /* \"Group Projects/Group Project # 3_Rock_Paper_scissors/Starter code/test_game.sol\":4410:4470  if (msg.sender == playerA) {... */\n    tag_122:\n        /* \"Group Projects/Group Project # 3_Rock_Paper_scissors/Starter code/test_game.sol\":4489:4500  HouseWallet */\n      0x08\n      0x00\n      swap1\n      sload\n      swap1\n      0x0100\n      exp\n      swap1\n      div\n      0xffffffffffffffffffffffffffffffffffffffff\n      and\n        /* \"Group Projects/Group Project # 3_Rock_Paper_scissors/Starter code/test_game.sol\":4475:4500  msg.sender == HouseWallet */\n      0xffffffffffffffffffffffffffffffffffffffff\n      and\n        /* \"Group Projects/Group Project # 3_Rock_Paper_scissors/Starter code/test_game.sol\":4475:4485  msg.sender */\n      caller\n        /* \"Group Projects/Group Project # 3_Rock_Paper_scissors/Starter code/test_game.sol\":4475:4500  msg.sender == HouseWallet */\n      0xffffffffffffffffffffffffffffffffffffffff\n      and\n      sub\n        /* \"Group Projects/Group Project # 3_Rock_Paper_scissors/Starter code/test_game.sol\":4471:4535  if (msg.sender == HouseWallet) {... */\n      tag_123\n      jumpi\n        /* \"Group Projects/Group Project # 3_Rock_Paper_scissors/Starter code/test_game.sol\":4523:4524  0 */\n      0x00\n        /* \"Group Projects/Group Project # 3_Rock_Paper_scissors/Starter code/test_game.sol\":4516:4524  return 0 */\n      swap1\n      pop\n      jump(tag_121)\n        /* \"Group Projects/Group Project # 3_Rock_Paper_scissors/Starter code/test_game.sol\":4471:4535  if (msg.sender == HouseWallet) {... */\n    tag_123:\n        /* \"Group Projects/Group Project # 3_Rock_Paper_scissors/Starter code/test_game.sol\":4355:4541  function whoAmI() public view returns (uint) {... */\n    tag_121:\n      swap1\n      jump\t// out\n        /* \"Group Projects/Group Project # 3_Rock_Paper_scissors/Starter code/test_game.sol\":2080:2222  function playerChooses(uint choice) public player_never_played is_caller_player is_legal_play(choice) {... */\n    tag_70:\n        /* \"Group Projects/Group Project # 3_Rock_Paper_scissors/Starter code/test_game.sol\":2054:2055  1 */\n      0x01\n        /* \"Group Projects/Group Project # 3_Rock_Paper_scissors/Starter code/test_game.sol\":2039:2051  playerChoice */\n      sload(0x05)\n        /* \"Group Projects/Group Project # 3_Rock_Paper_scissors/Starter code/test_game.sol\":2039:2055  playerChoice < 1 */\n      lt\n        /* \"Group Projects/Group Project # 3_Rock_Paper_scissors/Starter code/test_game.sol\":2031:2056  require(playerChoice < 1) */\n      tag_125\n      jumpi\n      0x00\n      dup1\n      revert\n    tag_125:\n        /* \"Group Projects/Group Project # 3_Rock_Paper_scissors/Starter code/test_game.sol\":1820:1827  playerA */\n      0x07\n      0x00\n      swap1\n      sload\n      swap1\n      0x0100\n      exp\n      swap1\n      div\n      0xffffffffffffffffffffffffffffffffffffffff\n      and\n        /* \"Group Projects/Group Project # 3_Rock_Paper_scissors/Starter code/test_game.sol\":1806:1827  msg.sender == playerA */\n      0xffffffffffffffffffffffffffffffffffffffff\n      and\n        /* \"Group Projects/Group Project # 3_Rock_Paper_scissors/Starter code/test_game.sol\":1806:1816  msg.sender */\n      caller\n        /* \"Group Projects/Group Project # 3_Rock_Paper_scissors/Starter code/test_game.sol\":1806:1827  msg.sender == playerA */\n      0xffffffffffffffffffffffffffffffffffffffff\n      and\n      eq\n        /* \"Group Projects/Group Project # 3_Rock_Paper_scissors/Starter code/test_game.sol\":1798:1828  require(msg.sender == playerA) */\n      tag_127\n      jumpi\n      0x00\n      dup1\n      revert\n    tag_127:\n        /* \"Group Projects/Group Project # 3_Rock_Paper_scissors/Starter code/test_game.sol\":2174:2180  choice */\n      dup1\n        /* \"Group Projects/Group Project # 3_Rock_Paper_scissors/Starter code/test_game.sol\":1924:1925  0 */\n      0x00\n        /* \"Group Projects/Group Project # 3_Rock_Paper_scissors/Starter code/test_game.sol\":1915:1921  choice */\n      dup2\n        /* \"Group Projects/Group Project # 3_Rock_Paper_scissors/Starter code/test_game.sol\":1915:1925  choice > 0 */\n      gt\n        /* \"Group Projects/Group Project # 3_Rock_Paper_scissors/Starter code/test_game.sol\":1907:1926  require(choice > 0) */\n      tag_129\n      jumpi\n      0x00\n      dup1\n      revert\n    tag_129:\n        /* \"Group Projects/Group Project # 3_Rock_Paper_scissors/Starter code/test_game.sol\":1953:1954  3 */\n      0x03\n        /* \"Group Projects/Group Project # 3_Rock_Paper_scissors/Starter code/test_game.sol\":1944:1950  choice */\n      dup2\n        /* \"Group Projects/Group Project # 3_Rock_Paper_scissors/Starter code/test_game.sol\":1944:1954  choice < 3 */\n      lt\n        /* \"Group Projects/Group Project # 3_Rock_Paper_scissors/Starter code/test_game.sol\":1936:1955  require(choice < 3) */\n      tag_130\n      jumpi\n      0x00\n      dup1\n      revert\n    tag_130:\n        /* \"Group Projects/Group Project # 3_Rock_Paper_scissors/Starter code/test_game.sol\":2208:2214  choice */\n      dup2\n        /* \"Group Projects/Group Project # 3_Rock_Paper_scissors/Starter code/test_game.sol\":2193:2205  playerChoice */\n      0x05\n        /* \"Group Projects/Group Project # 3_Rock_Paper_scissors/Starter code/test_game.sol\":2193:2214  playerChoice = choice */\n      dup2\n      swap1\n      sstore\n      pop\n        /* \"Group Projects/Group Project # 3_Rock_Paper_scissors/Starter code/test_game.sol\":1838:1839  _ */\n      pop\n        /* \"Group Projects/Group Project # 3_Rock_Paper_scissors/Starter code/test_game.sol\":2080:2222  function playerChooses(uint choice) public player_never_played is_caller_player is_legal_play(choice) {... */\n      pop\n      jump\t// out\n        /* \"Group Projects/Group Project # 3_Rock_Paper_scissors/Starter code/test_game.sol\":277:298  uint public randomNum */\n    tag_73:\n      sload(0x02)\n      dup2\n      jump\t// out\n        /* \"Group Projects/Group Project # 3_Rock_Paper_scissors/Starter code/test_game.sol\":304:331  uint public housePlayed = 0 */\n    tag_77:\n      sload(0x03)\n      dup2\n      jump\t// out\n        /* \"Group Projects/Group Project # 3_Rock_Paper_scissors/Starter code/test_game.sol\":3739:3938  function reset() private {... */\n    tag_110:\n        /* \"Group Projects/Group Project # 3_Rock_Paper_scissors/Starter code/test_game.sol\":3801:3802  0 */\n      0x00\n        /* \"Group Projects/Group Project # 3_Rock_Paper_scissors/Starter code/test_game.sol\":3783:3793  initialBet */\n      dup1\n        /* \"Group Projects/Group Project # 3_Rock_Paper_scissors/Starter code/test_game.sol\":3783:3802  initialBet      = 0 */\n      dup2\n      swap1\n      sstore\n      pop\n        /* \"Group Projects/Group Project # 3_Rock_Paper_scissors/Starter code/test_game.sol\":3838:3841  0x0 */\n      0x00\n        /* \"Group Projects/Group Project # 3_Rock_Paper_scissors/Starter code/test_game.sol\":3812:3819  playerA */\n      0x07\n      0x00\n        /* \"Group Projects/Group Project # 3_Rock_Paper_scissors/Starter code/test_game.sol\":3812:3842  playerA         = address(0x0) */\n      0x0100\n      exp\n      dup2\n      sload\n      dup2\n      0xffffffffffffffffffffffffffffffffffffffff\n      mul\n      not\n      and\n      swap1\n      dup4\n      0xffffffffffffffffffffffffffffffffffffffff\n      and\n      mul\n      or\n      swap1\n      sstore\n      pop\n        /* \"Group Projects/Group Project # 3_Rock_Paper_scissors/Starter code/test_game.sol\":3878:3881  0x0 */\n      0x00\n        /* \"Group Projects/Group Project # 3_Rock_Paper_scissors/Starter code/test_game.sol\":3852:3863  HouseWallet */\n      0x08\n      0x00\n        /* \"Group Projects/Group Project # 3_Rock_Paper_scissors/Starter code/test_game.sol\":3852:3882  HouseWallet     = address(0x0) */\n      0x0100\n      exp\n      dup2\n      sload\n      dup2\n      0xffffffffffffffffffffffffffffffffffffffff\n      mul\n      not\n      and\n      swap1\n      dup4\n      0xffffffffffffffffffffffffffffffffffffffff\n      and\n      mul\n      or\n      swap1\n      sstore\n      pop\n        /* \"Group Projects/Group Project # 3_Rock_Paper_scissors/Starter code/test_game.sol\":3907:3908  0 */\n      0x00\n        /* \"Group Projects/Group Project # 3_Rock_Paper_scissors/Starter code/test_game.sol\":3889:3900  housePlayed */\n      0x03\n        /* \"Group Projects/Group Project # 3_Rock_Paper_scissors/Starter code/test_game.sol\":3889:3908  housePlayed     = 0 */\n      dup2\n      swap1\n      sstore\n      pop\n        /* \"Group Projects/Group Project # 3_Rock_Paper_scissors/Starter code/test_game.sol\":3927:3928  0 */\n      0x00\n        /* \"Group Projects/Group Project # 3_Rock_Paper_scissors/Starter code/test_game.sol\":3912:3924  playerPlayed */\n      0x04\n        /* \"Group Projects/Group Project # 3_Rock_Paper_scissors/Starter code/test_game.sol\":3912:3928  playerPlayed\t= 0 */\n      dup2\n      swap1\n      sstore\n      pop\n        /* \"Group Projects/Group Project # 3_Rock_Paper_scissors/Starter code/test_game.sol\":3739:3938  function reset() private {... */\n      jump\t// out\n        /* \"#utility.yul\":7:84   */\n    tag_133:\n        /* \"#utility.yul\":44:51   */\n      0x00\n        /* \"#utility.yul\":73:78   */\n      dup2\n        /* \"#utility.yul\":62:78   */\n      swap1\n      pop\n        /* \"#utility.yul\":7:84   */\n      swap2\n      swap1\n      pop\n      jump\t// out\n        /* \"#utility.yul\":90:208   */\n    tag_134:\n        /* \"#utility.yul\":177:201   */\n      tag_148\n        /* \"#utility.yul\":195:200   */\n      dup2\n        /* \"#utility.yul\":177:201   */\n      tag_133\n      jump\t// in\n    tag_148:\n        /* \"#utility.yul\":172:175   */\n      dup3\n        /* \"#utility.yul\":165:202   */\n      mstore\n        /* \"#utility.yul\":90:208   */\n      pop\n      pop\n      jump\t// out\n        /* \"#utility.yul\":214:436   */\n    tag_26:\n        /* \"#utility.yul\":307:311   */\n      0x00\n        /* \"#utility.yul\":345:347   */\n      0x20\n        /* \"#utility.yul\":334:343   */\n      dup3\n        /* \"#utility.yul\":330:348   */\n      add\n        /* \"#utility.yul\":322:348   */\n      swap1\n      pop\n        /* \"#utility.yul\":358:429   */\n      tag_150\n        /* \"#utility.yul\":426:427   */\n      0x00\n        /* \"#utility.yul\":415:424   */\n      dup4\n        /* \"#utility.yul\":411:428   */\n      add\n        /* \"#utility.yul\":402:408   */\n      dup5\n        /* \"#utility.yul\":358:429   */\n      tag_134\n      jump\t// in\n    tag_150:\n        /* \"#utility.yul\":214:436   */\n      swap3\n      swap2\n      pop\n      pop\n      jump\t// out\n        /* \"#utility.yul\":523:640   */\n    tag_136:\n        /* \"#utility.yul\":632:633   */\n      0x00\n        /* \"#utility.yul\":629:630   */\n      dup1\n        /* \"#utility.yul\":622:634   */\n      revert\n        /* \"#utility.yul\":769:891   */\n    tag_138:\n        /* \"#utility.yul\":842:866   */\n      tag_155\n        /* \"#utility.yul\":860:865   */\n      dup2\n        /* \"#utility.yul\":842:866   */\n      tag_133\n      jump\t// in\n    tag_155:\n        /* \"#utility.yul\":835:840   */\n      dup2\n        /* \"#utility.yul\":832:867   */\n      eq\n        /* \"#utility.yul\":822:885   */\n      tag_156\n      jumpi\n        /* \"#utility.yul\":881:882   */\n      0x00\n        /* \"#utility.yul\":878:879   */\n      dup1\n        /* \"#utility.yul\":871:883   */\n      revert\n        /* \"#utility.yul\":822:885   */\n    tag_156:\n        /* \"#utility.yul\":769:891   */\n      pop\n      jump\t// out\n        /* \"#utility.yul\":897:1036   */\n    tag_139:\n        /* \"#utility.yul\":943:948   */\n      0x00\n        /* \"#utility.yul\":981:987   */\n      dup2\n        /* \"#utility.yul\":968:988   */\n      calldataload\n        /* \"#utility.yul\":959:988   */\n      swap1\n      pop\n        /* \"#utility.yul\":997:1030   */\n      tag_158\n        /* \"#utility.yul\":1024:1029   */\n      dup2\n        /* \"#utility.yul\":997:1030   */\n      tag_138\n      jump\t// in\n    tag_158:\n        /* \"#utility.yul\":897:1036   */\n      swap3\n      swap2\n      pop\n      pop\n      jump\t// out\n        /* \"#utility.yul\":1042:1371   */\n    tag_69:\n        /* \"#utility.yul\":1101:1107   */\n      0x00\n        /* \"#utility.yul\":1150:1152   */\n      0x20\n        /* \"#utility.yul\":1138:1147   */\n      dup3\n        /* \"#utility.yul\":1129:1136   */\n      dup5\n        /* \"#utility.yul\":1125:1148   */\n      sub\n        /* \"#utility.yul\":1121:1153   */\n      slt\n        /* \"#utility.yul\":1118:1237   */\n      iszero\n      tag_160\n      jumpi\n        /* \"#utility.yul\":1156:1235   */\n      tag_161\n      tag_136\n      jump\t// in\n    tag_161:\n        /* \"#utility.yul\":1118:1237   */\n    tag_160:\n        /* \"#utility.yul\":1276:1277   */\n      0x00\n        /* \"#utility.yul\":1301:1354   */\n      tag_162\n        /* \"#utility.yul\":1346:1353   */\n      dup5\n        /* \"#utility.yul\":1337:1343   */\n      dup3\n        /* \"#utility.yul\":1326:1335   */\n      dup6\n        /* \"#utility.yul\":1322:1344   */\n      add\n        /* \"#utility.yul\":1301:1354   */\n      tag_139\n      jump\t// in\n    tag_162:\n        /* \"#utility.yul\":1291:1354   */\n      swap2\n      pop\n        /* \"#utility.yul\":1247:1364   */\n      pop\n        /* \"#utility.yul\":1042:1371   */\n      swap3\n      swap2\n      pop\n      pop\n      jump\t// out\n        /* \"#utility.yul\":1377:1546   */\n    tag_140:\n        /* \"#utility.yul\":1461:1472   */\n      0x00\n        /* \"#utility.yul\":1495:1501   */\n      dup3\n        /* \"#utility.yul\":1490:1493   */\n      dup3\n        /* \"#utility.yul\":1483:1502   */\n      mstore\n        /* \"#utility.yul\":1535:1539   */\n      0x20\n        /* \"#utility.yul\":1530:1533   */\n      dup3\n        /* \"#utility.yul\":1526:1540   */\n      add\n        /* \"#utility.yul\":1511:1540   */\n      swap1\n      pop\n        /* \"#utility.yul\":1377:1546   */\n      swap3\n      swap2\n      pop\n      pop\n      jump\t// out\n        /* \"#utility.yul\":1552:1784   */\n    tag_141:\n        /* \"#utility.yul\":1692:1726   */\n      0x506c617965722068617320746f20706c6179206265666f726520796f75206361\n        /* \"#utility.yul\":1688:1689   */\n      0x00\n        /* \"#utility.yul\":1680:1686   */\n      dup3\n        /* \"#utility.yul\":1676:1690   */\n      add\n        /* \"#utility.yul\":1669:1727   */\n      mstore\n        /* \"#utility.yul\":1761:1776   */\n      0x6e20676574206f7574636f6d6500000000000000000000000000000000000000\n        /* \"#utility.yul\":1756:1758   */\n      0x20\n        /* \"#utility.yul\":1748:1754   */\n      dup3\n        /* \"#utility.yul\":1744:1759   */\n      add\n        /* \"#utility.yul\":1737:1777   */\n      mstore\n        /* \"#utility.yul\":1552:1784   */\n      pop\n      jump\t// out\n        /* \"#utility.yul\":1790:2156   */\n    tag_142:\n        /* \"#utility.yul\":1932:1935   */\n      0x00\n        /* \"#utility.yul\":1953:2020   */\n      tag_166\n        /* \"#utility.yul\":2017:2019   */\n      0x2d\n        /* \"#utility.yul\":2012:2015   */\n      dup4\n        /* \"#utility.yul\":1953:2020   */\n      tag_140\n      jump\t// in\n    tag_166:\n        /* \"#utility.yul\":1946:2020   */\n      swap2\n      pop\n        /* \"#utility.yul\":2029:2122   */\n      tag_167\n        /* \"#utility.yul\":2118:2121   */\n      dup3\n        /* \"#utility.yul\":2029:2122   */\n      tag_141\n      jump\t// in\n    tag_167:\n        /* \"#utility.yul\":2147:2149   */\n      0x40\n        /* \"#utility.yul\":2142:2145   */\n      dup3\n        /* \"#utility.yul\":2138:2150   */\n      add\n        /* \"#utility.yul\":2131:2150   */\n      swap1\n      pop\n        /* \"#utility.yul\":1790:2156   */\n      swap2\n      swap1\n      pop\n      jump\t// out\n        /* \"#utility.yul\":2162:2581   */\n    tag_98:\n        /* \"#utility.yul\":2328:2332   */\n      0x00\n        /* \"#utility.yul\":2366:2368   */\n      0x20\n        /* \"#utility.yul\":2355:2364   */\n      dup3\n        /* \"#utility.yul\":2351:2369   */\n      add\n        /* \"#utility.yul\":2343:2369   */\n      swap1\n      pop\n        /* \"#utility.yul\":2415:2424   */\n      dup2\n        /* \"#utility.yul\":2409:2413   */\n      dup2\n        /* \"#utility.yul\":2405:2425   */\n      sub\n        /* \"#utility.yul\":2401:2402   */\n      0x00\n        /* \"#utility.yul\":2390:2399   */\n      dup4\n        /* \"#utility.yul\":2386:2403   */\n      add\n        /* \"#utility.yul\":2379:2426   */\n      mstore\n        /* \"#utility.yul\":2443:2574   */\n      tag_169\n        /* \"#utility.yul\":2569:2573   */\n      dup2\n        /* \"#utility.yul\":2443:2574   */\n      tag_142\n      jump\t// in\n    tag_169:\n        /* \"#utility.yul\":2435:2574   */\n      swap1\n      pop\n        /* \"#utility.yul\":2162:2581   */\n      swap2\n      swap1\n      pop\n      jump\t// out\n        /* \"#utility.yul\":2587:2767   */\n    tag_143:\n        /* \"#utility.yul\":2635:2712   */\n      0x4e487b7100000000000000000000000000000000000000000000000000000000\n        /* \"#utility.yul\":2632:2633   */\n      0x00\n        /* \"#utility.yul\":2625:2713   */\n      mstore\n        /* \"#utility.yul\":2732:2736   */\n      0x11\n        /* \"#utility.yul\":2729:2730   */\n      0x04\n        /* \"#utility.yul\":2722:2737   */\n      mstore\n        /* \"#utility.yul\":2756:2760   */\n      0x24\n        /* \"#utility.yul\":2753:2754   */\n      0x00\n        /* \"#utility.yul\":2746:2761   */\n      revert\n        /* \"#utility.yul\":2773:2967   */\n    tag_101:\n        /* \"#utility.yul\":2813:2817   */\n      0x00\n        /* \"#utility.yul\":2833:2853   */\n      tag_172\n        /* \"#utility.yul\":2851:2852   */\n      dup3\n        /* \"#utility.yul\":2833:2853   */\n      tag_133\n      jump\t// in\n    tag_172:\n        /* \"#utility.yul\":2828:2853   */\n      swap2\n      pop\n        /* \"#utility.yul\":2867:2887   */\n      tag_173\n        /* \"#utility.yul\":2885:2886   */\n      dup4\n        /* \"#utility.yul\":2867:2887   */\n      tag_133\n      jump\t// in\n    tag_173:\n        /* \"#utility.yul\":2862:2887   */\n      swap3\n      pop\n        /* \"#utility.yul\":2911:2912   */\n      dup3\n        /* \"#utility.yul\":2908:2909   */\n      dup3\n        /* \"#utility.yul\":2904:2913   */\n      sub\n        /* \"#utility.yul\":2896:2913   */\n      swap1\n      pop\n        /* \"#utility.yul\":2935:2936   */\n      dup2\n        /* \"#utility.yul\":2929:2933   */\n      dup2\n        /* \"#utility.yul\":2926:2937   */\n      gt\n        /* \"#utility.yul\":2923:2960   */\n      iszero\n      tag_174\n      jumpi\n        /* \"#utility.yul\":2940:2958   */\n      tag_175\n      tag_143\n      jump\t// in\n    tag_175:\n        /* \"#utility.yul\":2923:2960   */\n    tag_174:\n        /* \"#utility.yul\":2773:2967   */\n      swap3\n      swap2\n      pop\n      pop\n      jump\t// out\n        /* \"#utility.yul\":2973:3153   */\n    tag_144:\n        /* \"#utility.yul\":3021:3098   */\n      0x4e487b7100000000000000000000000000000000000000000000000000000000\n        /* \"#utility.yul\":3018:3019   */\n      0x00\n        /* \"#utility.yul\":3011:3099   */\n      mstore\n        /* \"#utility.yul\":3118:3122   */\n      0x12\n        /* \"#utility.yul\":3115:3116   */\n      0x04\n        /* \"#utility.yul\":3108:3123   */\n      mstore\n        /* \"#utility.yul\":3142:3146   */\n      0x24\n        /* \"#utility.yul\":3139:3140   */\n      0x00\n        /* \"#utility.yul\":3132:3147   */\n      revert\n        /* \"#utility.yul\":3159:3335   */\n    tag_103:\n        /* \"#utility.yul\":3191:3192   */\n      0x00\n        /* \"#utility.yul\":3208:3228   */\n      tag_178\n        /* \"#utility.yul\":3226:3227   */\n      dup3\n        /* \"#utility.yul\":3208:3228   */\n      tag_133\n      jump\t// in\n    tag_178:\n        /* \"#utility.yul\":3203:3228   */\n      swap2\n      pop\n        /* \"#utility.yul\":3242:3262   */\n      tag_179\n        /* \"#utility.yul\":3260:3261   */\n      dup4\n        /* \"#utility.yul\":3242:3262   */\n      tag_133\n      jump\t// in\n    tag_179:\n        /* \"#utility.yul\":3237:3262   */\n      swap3\n      pop\n        /* \"#utility.yul\":3281:3282   */\n      dup3\n        /* \"#utility.yul\":3271:3306   */\n      tag_180\n      jumpi\n        /* \"#utility.yul\":3286:3304   */\n      tag_181\n      tag_144\n      jump\t// in\n    tag_181:\n        /* \"#utility.yul\":3271:3306   */\n    tag_180:\n        /* \"#utility.yul\":3327:3328   */\n      dup3\n        /* \"#utility.yul\":3324:3325   */\n      dup3\n        /* \"#utility.yul\":3320:3329   */\n      mod\n        /* \"#utility.yul\":3315:3329   */\n      swap1\n      pop\n        /* \"#utility.yul\":3159:3335   */\n      swap3\n      swap2\n      pop\n      pop\n      jump\t// out\n\n    auxdata: 0xa2646970667358221220fa74783274b6180dc588b23aa846fc8f7f1c6b14a8cec55435ee9f1122e6347664736f6c63430008110033\n}\n",
				"bytecode": {
					"linkReferences": {},
					"object": "6080604052600060035560006004556000600555600060065534801561002457600080fd5b50610cdb806100346000396000f3fe6080604052600436106100e85760003560e01c80637e7e4b471161008a578063da91254c11610059578063da91254c14610291578063e92788d6146102bc578063f630aa65146102e5578063fc98f42e14610310576100e8565b80637e7e4b47146101e55780638e687aed14610210578063adef7cdd1461023b578063d0017a0c14610266576100e8565b806327793f87116100c657806327793f871461014d578063295b4e17146101785780634e22fb5b146101a35780636f9fb98a146101ba576100e8565b80631aa3a008146100ed5780631d73c64c146100f75780632626ab0814610122575b600080fd5b6100f561033b565b005b34801561010357600080fd5b5061010c61057b565b6040516101199190610ac6565b60405180910390f35b34801561012e57600080fd5b50610137610581565b6040516101449190610ac6565b60405180910390f35b34801561015957600080fd5b50610162610586565b60405161016f9190610ac6565b60405180910390f35b34801561018457600080fd5b5061018d61058c565b60405161019a9190610ac6565b60405180910390f35b3480156101af57600080fd5b506101b8610592565b005b3480156101c657600080fd5b506101cf61065e565b6040516101dc9190610ac6565b60405180910390f35b3480156101f157600080fd5b506101fa610666565b6040516102079190610ac6565b60405180910390f35b34801561021c57600080fd5b5061022561089b565b6040516102329190610ac6565b60405180910390f35b34801561024757600080fd5b506102506108a1565b60405161025d9190610ac6565b60405180910390f35b34801561027257600080fd5b5061027b6108a7565b6040516102889190610ac6565b60405180910390f35b34801561029d57600080fd5b506102a66108b3565b6040516102b39190610ac6565b60405180910390f35b3480156102c857600080fd5b506102e360048036038101906102de9190610b12565b610975565b005b3480156102f157600080fd5b506102fa610a04565b6040516103079190610ac6565b60405180910390f35b34801561031c57600080fd5b50610325610a0a565b6040516103329190610ac6565b60405180910390f35b600134101561034957600080fd5b678ac7230489e8000034111561035e57600080fd5b60008054148061037057506000543410155b61037957600080fd5b600760009054906101000a900473ffffffffffffffffffffffffffffffffffffffff1673ffffffffffffffffffffffffffffffffffffffff163373ffffffffffffffffffffffffffffffffffffffff16036103d357600080fd5b600073ffffffffffffffffffffffffffffffffffffffff16600860009054906101000a900473ffffffffffffffffffffffffffffffffffffffff1673ffffffffffffffffffffffffffffffffffffffff16036104765733600860006101000a81548173ffffffffffffffffffffffffffffffffffffffff021916908373ffffffffffffffffffffffffffffffffffffffff16021790555034600381905550610579565b600073ffffffffffffffffffffffffffffffffffffffff16600760009054906101000a900473ffffffffffffffffffffffffffffffffffffffff1673ffffffffffffffffffffffffffffffffffffffff161480156105235750600073ffffffffffffffffffffffffffffffffffffffff16600860009054906101000a900473ffffffffffffffffffffffffffffffffffffffff1673ffffffffffffffffffffffffffffffffffffffff1614155b156105785733600760006101000a81548173ffffffffffffffffffffffffffffffffffffffff021916908373ffffffffffffffffffffffffffffffffffffffff16021790555034600081905550346004819055505b5b565b60005481565b600181565b60015481565b60065481565b6000600154116105a157600080fd5b600080819055506000600760006101000a81548173ffffffffffffffffffffffffffffffffffffffff021916908373ffffffffffffffffffffffffffffffffffffffff1602179055506000600860006101000a81548173ffffffffffffffffffffffffffffffffffffffff021916908373ffffffffffffffffffffffffffffffffffffffff160217905550600060018190555060006006819055506000600281905550600060058190555060006003819055506000600481905550565b600047905090565b600080600554116106ac576040517f08c379a00000000000000000000000000000000000000000000000000000000081526004016106a390610bc2565b60405180910390fd5b620f423f6001436106bd9190610c11565b4060001c6106cb9190610c74565b6002819055506000600280546106e19190610c74565b03610773576002600181905550600260055403610772576001600681905550600760009054906101000a900473ffffffffffffffffffffffffffffffffffffffff1673ffffffffffffffffffffffffffffffffffffffff166108fc479081150290604051600060405180830381858888f19350505050158015610768573d6000803e3d6000fd5b50610771610a10565b5b5b6001600280546107839190610c74565b036108145760018081905550600160055403610813576001600681905550600760009054906101000a900473ffffffffffffffffffffffffffffffffffffffff1673ffffffffffffffffffffffffffffffffffffffff166108fc479081150290604051600060405180830381858888f19350505050158015610809573d6000803e3d6000fd5b50610812610a10565b5b5b600060065403610898576001600681905550600860009054906101000a900473ffffffffffffffffffffffffffffffffffffffff1673ffffffffffffffffffffffffffffffffffffffff166108fc479081150290604051600060405180830381858888f1935050505015801561088e573d6000803e3d6000fd5b50610897610a10565b5b90565b60045481565b60055481565b678ac7230489e8000081565b6000600760009054906101000a900473ffffffffffffffffffffffffffffffffffffffff1673ffffffffffffffffffffffffffffffffffffffff163373ffffffffffffffffffffffffffffffffffffffff16036109135760019050610972565b600860009054906101000a900473ffffffffffffffffffffffffffffffffffffffff1673ffffffffffffffffffffffffffffffffffffffff163373ffffffffffffffffffffffffffffffffffffffff16036109715760009050610972565b5b90565b60016005541061098457600080fd5b600760009054906101000a900473ffffffffffffffffffffffffffffffffffffffff1673ffffffffffffffffffffffffffffffffffffffff163373ffffffffffffffffffffffffffffffffffffffff16146109de57600080fd5b80600081116109ec57600080fd5b600381106109f957600080fd5b816005819055505050565b60025481565b60035481565b600080819055506000600760006101000a81548173ffffffffffffffffffffffffffffffffffffffff021916908373ffffffffffffffffffffffffffffffffffffffff1602179055506000600860006101000a81548173ffffffffffffffffffffffffffffffffffffffff021916908373ffffffffffffffffffffffffffffffffffffffff16021790555060006003819055506000600481905550565b6000819050919050565b610ac081610aad565b82525050565b6000602082019050610adb6000830184610ab7565b92915050565b600080fd5b610aef81610aad565b8114610afa57600080fd5b50565b600081359050610b0c81610ae6565b92915050565b600060208284031215610b2857610b27610ae1565b5b6000610b3684828501610afd565b91505092915050565b600082825260208201905092915050565b7f506c617965722068617320746f20706c6179206265666f726520796f7520636160008201527f6e20676574206f7574636f6d6500000000000000000000000000000000000000602082015250565b6000610bac602d83610b3f565b9150610bb782610b50565b604082019050919050565b60006020820190508181036000830152610bdb81610b9f565b9050919050565b7f4e487b7100000000000000000000000000000000000000000000000000000000600052601160045260246000fd5b6000610c1c82610aad565b9150610c2783610aad565b9250828203905081811115610c3f57610c3e610be2565b5b92915050565b7f4e487b7100000000000000000000000000000000000000000000000000000000600052601260045260246000fd5b6000610c7f82610aad565b9150610c8a83610aad565b925082610c9a57610c99610c45565b5b82820690509291505056fea2646970667358221220fa74783274b6180dc588b23aa846fc8f7f1c6b14a8cec55435ee9f1122e6347664736f6c63430008110033",
					"opcodes": "PUSH1 0x80 PUSH1 0x40 MSTORE PUSH1 0x0 PUSH1 0x3 SSTORE PUSH1 0x0 PUSH1 0x4 SSTORE PUSH1 0x0 PUSH1 0x5 SSTORE PUSH1 0x0 PUSH1 0x6 SSTORE CALLVALUE DUP1 ISZERO PUSH2 0x24 JUMPI PUSH1 0x0 DUP1 REVERT JUMPDEST POP PUSH2 0xCDB DUP1 PUSH2 0x34 PUSH1 0x0 CODECOPY PUSH1 0x0 RETURN INVALID PUSH1 0x80 PUSH1 0x40 MSTORE PUSH1 0x4 CALLDATASIZE LT PUSH2 0xE8 JUMPI PUSH1 0x0 CALLDATALOAD PUSH1 0xE0 SHR DUP1 PUSH4 0x7E7E4B47 GT PUSH2 0x8A JUMPI DUP1 PUSH4 0xDA91254C GT PUSH2 0x59 JUMPI DUP1 PUSH4 0xDA91254C EQ PUSH2 0x291 JUMPI DUP1 PUSH4 0xE92788D6 EQ PUSH2 0x2BC JUMPI DUP1 PUSH4 0xF630AA65 EQ PUSH2 0x2E5 JUMPI DUP1 PUSH4 0xFC98F42E EQ PUSH2 0x310 JUMPI PUSH2 0xE8 JUMP JUMPDEST DUP1 PUSH4 0x7E7E4B47 EQ PUSH2 0x1E5 JUMPI DUP1 PUSH4 0x8E687AED EQ PUSH2 0x210 JUMPI DUP1 PUSH4 0xADEF7CDD EQ PUSH2 0x23B JUMPI DUP1 PUSH4 0xD0017A0C EQ PUSH2 0x266 JUMPI PUSH2 0xE8 JUMP JUMPDEST DUP1 PUSH4 0x27793F87 GT PUSH2 0xC6 JUMPI DUP1 PUSH4 0x27793F87 EQ PUSH2 0x14D JUMPI DUP1 PUSH4 0x295B4E17 EQ PUSH2 0x178 JUMPI DUP1 PUSH4 0x4E22FB5B EQ PUSH2 0x1A3 JUMPI DUP1 PUSH4 0x6F9FB98A EQ PUSH2 0x1BA JUMPI PUSH2 0xE8 JUMP JUMPDEST DUP1 PUSH4 0x1AA3A008 EQ PUSH2 0xED JUMPI DUP1 PUSH4 0x1D73C64C EQ PUSH2 0xF7 JUMPI DUP1 PUSH4 0x2626AB08 EQ PUSH2 0x122 JUMPI JUMPDEST PUSH1 0x0 DUP1 REVERT JUMPDEST PUSH2 0xF5 PUSH2 0x33B JUMP JUMPDEST STOP JUMPDEST CALLVALUE DUP1 ISZERO PUSH2 0x103 JUMPI PUSH1 0x0 DUP1 REVERT JUMPDEST POP PUSH2 0x10C PUSH2 0x57B JUMP JUMPDEST PUSH1 0x40 MLOAD PUSH2 0x119 SWAP2 SWAP1 PUSH2 0xAC6 JUMP JUMPDEST PUSH1 0x40 MLOAD DUP1 SWAP2 SUB SWAP1 RETURN JUMPDEST CALLVALUE DUP1 ISZERO PUSH2 0x12E JUMPI PUSH1 0x0 DUP1 REVERT JUMPDEST POP PUSH2 0x137 PUSH2 0x581 JUMP JUMPDEST PUSH1 0x40 MLOAD PUSH2 0x144 SWAP2 SWAP1 PUSH2 0xAC6 JUMP JUMPDEST PUSH1 0x40 MLOAD DUP1 SWAP2 SUB SWAP1 RETURN JUMPDEST CALLVALUE DUP1 ISZERO PUSH2 0x159 JUMPI PUSH1 0x0 DUP1 REVERT JUMPDEST POP PUSH2 0x162 PUSH2 0x586 JUMP JUMPDEST PUSH1 0x40 MLOAD PUSH2 0x16F SWAP2 SWAP1 PUSH2 0xAC6 JUMP JUMPDEST PUSH1 0x40 MLOAD DUP1 SWAP2 SUB SWAP1 RETURN JUMPDEST CALLVALUE DUP1 ISZERO PUSH2 0x184 JUMPI PUSH1 0x0 DUP1 REVERT JUMPDEST POP PUSH2 0x18D PUSH2 0x58C JUMP JUMPDEST PUSH1 0x40 MLOAD PUSH2 0x19A SWAP2 SWAP1 PUSH2 0xAC6 JUMP JUMPDEST PUSH1 0x40 MLOAD DUP1 SWAP2 SUB SWAP1 RETURN JUMPDEST CALLVALUE DUP1 ISZERO PUSH2 0x1AF JUMPI PUSH1 0x0 DUP1 REVERT JUMPDEST POP PUSH2 0x1B8 PUSH2 0x592 JUMP JUMPDEST STOP JUMPDEST CALLVALUE DUP1 ISZERO PUSH2 0x1C6 JUMPI PUSH1 0x0 DUP1 REVERT JUMPDEST POP PUSH2 0x1CF PUSH2 0x65E JUMP JUMPDEST PUSH1 0x40 MLOAD PUSH2 0x1DC SWAP2 SWAP1 PUSH2 0xAC6 JUMP JUMPDEST PUSH1 0x40 MLOAD DUP1 SWAP2 SUB SWAP1 RETURN JUMPDEST CALLVALUE DUP1 ISZERO PUSH2 0x1F1 JUMPI PUSH1 0x0 DUP1 REVERT JUMPDEST POP PUSH2 0x1FA PUSH2 0x666 JUMP JUMPDEST PUSH1 0x40 MLOAD PUSH2 0x207 SWAP2 SWAP1 PUSH2 0xAC6 JUMP JUMPDEST PUSH1 0x40 MLOAD DUP1 SWAP2 SUB SWAP1 RETURN JUMPDEST CALLVALUE DUP1 ISZERO PUSH2 0x21C JUMPI PUSH1 0x0 DUP1 REVERT JUMPDEST POP PUSH2 0x225 PUSH2 0x89B JUMP JUMPDEST PUSH1 0x40 MLOAD PUSH2 0x232 SWAP2 SWAP1 PUSH2 0xAC6 JUMP JUMPDEST PUSH1 0x40 MLOAD DUP1 SWAP2 SUB SWAP1 RETURN JUMPDEST CALLVALUE DUP1 ISZERO PUSH2 0x247 JUMPI PUSH1 0x0 DUP1 REVERT JUMPDEST POP PUSH2 0x250 PUSH2 0x8A1 JUMP JUMPDEST PUSH1 0x40 MLOAD PUSH2 0x25D SWAP2 SWAP1 PUSH2 0xAC6 JUMP JUMPDEST PUSH1 0x40 MLOAD DUP1 SWAP2 SUB SWAP1 RETURN JUMPDEST CALLVALUE DUP1 ISZERO PUSH2 0x272 JUMPI PUSH1 0x0 DUP1 REVERT JUMPDEST POP PUSH2 0x27B PUSH2 0x8A7 JUMP JUMPDEST PUSH1 0x40 MLOAD PUSH2 0x288 SWAP2 SWAP1 PUSH2 0xAC6 JUMP JUMPDEST PUSH1 0x40 MLOAD DUP1 SWAP2 SUB SWAP1 RETURN JUMPDEST CALLVALUE DUP1 ISZERO PUSH2 0x29D JUMPI PUSH1 0x0 DUP1 REVERT JUMPDEST POP PUSH2 0x2A6 PUSH2 0x8B3 JUMP JUMPDEST PUSH1 0x40 MLOAD PUSH2 0x2B3 SWAP2 SWAP1 PUSH2 0xAC6 JUMP JUMPDEST PUSH1 0x40 MLOAD DUP1 SWAP2 SUB SWAP1 RETURN JUMPDEST CALLVALUE DUP1 ISZERO PUSH2 0x2C8 JUMPI PUSH1 0x0 DUP1 REVERT JUMPDEST POP PUSH2 0x2E3 PUSH1 0x4 DUP1 CALLDATASIZE SUB DUP2 ADD SWAP1 PUSH2 0x2DE SWAP2 SWAP1 PUSH2 0xB12 JUMP JUMPDEST PUSH2 0x975 JUMP JUMPDEST STOP JUMPDEST CALLVALUE DUP1 ISZERO PUSH2 0x2F1 JUMPI PUSH1 0x0 DUP1 REVERT JUMPDEST POP PUSH2 0x2FA PUSH2 0xA04 JUMP JUMPDEST PUSH1 0x40 MLOAD PUSH2 0x307 SWAP2 SWAP1 PUSH2 0xAC6 JUMP JUMPDEST PUSH1 0x40 MLOAD DUP1 SWAP2 SUB SWAP1 RETURN JUMPDEST CALLVALUE DUP1 ISZERO PUSH2 0x31C JUMPI PUSH1 0x0 DUP1 REVERT JUMPDEST POP PUSH2 0x325 PUSH2 0xA0A JUMP JUMPDEST PUSH1 0x40 MLOAD PUSH2 0x332 SWAP2 SWAP1 PUSH2 0xAC6 JUMP JUMPDEST PUSH1 0x40 MLOAD DUP1 SWAP2 SUB SWAP1 RETURN JUMPDEST PUSH1 0x1 CALLVALUE LT ISZERO PUSH2 0x349 JUMPI PUSH1 0x0 DUP1 REVERT JUMPDEST PUSH8 0x8AC7230489E80000 CALLVALUE GT ISZERO PUSH2 0x35E JUMPI PUSH1 0x0 DUP1 REVERT JUMPDEST PUSH1 0x0 DUP1 SLOAD EQ DUP1 PUSH2 0x370 JUMPI POP PUSH1 0x0 SLOAD CALLVALUE LT ISZERO JUMPDEST PUSH2 0x379 JUMPI PUSH1 0x0 DUP1 REVERT JUMPDEST PUSH1 0x7 PUSH1 0x0 SWAP1 SLOAD SWAP1 PUSH2 0x100 EXP SWAP1 DIV PUSH20 0xFFFFFFFFFFFFFFFFFFFFFFFFFFFFFFFFFFFFFFFF AND PUSH20 0xFFFFFFFFFFFFFFFFFFFFFFFFFFFFFFFFFFFFFFFF AND CALLER PUSH20 0xFFFFFFFFFFFFFFFFFFFFFFFFFFFFFFFFFFFFFFFF AND SUB PUSH2 0x3D3 JUMPI PUSH1 0x0 DUP1 REVERT JUMPDEST PUSH1 0x0 PUSH20 0xFFFFFFFFFFFFFFFFFFFFFFFFFFFFFFFFFFFFFFFF AND PUSH1 0x8 PUSH1 0x0 SWAP1 SLOAD SWAP1 PUSH2 0x100 EXP SWAP1 DIV PUSH20 0xFFFFFFFFFFFFFFFFFFFFFFFFFFFFFFFFFFFFFFFF AND PUSH20 0xFFFFFFFFFFFFFFFFFFFFFFFFFFFFFFFFFFFFFFFF AND SUB PUSH2 0x476 JUMPI CALLER PUSH1 0x8 PUSH1 0x0 PUSH2 0x100 EXP DUP2 SLOAD DUP2 PUSH20 0xFFFFFFFFFFFFFFFFFFFFFFFFFFFFFFFFFFFFFFFF MUL NOT AND SWAP1 DUP4 PUSH20 0xFFFFFFFFFFFFFFFFFFFFFFFFFFFFFFFFFFFFFFFF AND MUL OR SWAP1 SSTORE POP CALLVALUE PUSH1 0x3 DUP2 SWAP1 SSTORE POP PUSH2 0x579 JUMP JUMPDEST PUSH1 0x0 PUSH20 0xFFFFFFFFFFFFFFFFFFFFFFFFFFFFFFFFFFFFFFFF AND PUSH1 0x7 PUSH1 0x0 SWAP1 SLOAD SWAP1 PUSH2 0x100 EXP SWAP1 DIV PUSH20 0xFFFFFFFFFFFFFFFFFFFFFFFFFFFFFFFFFFFFFFFF AND PUSH20 0xFFFFFFFFFFFFFFFFFFFFFFFFFFFFFFFFFFFFFFFF AND EQ DUP1 ISZERO PUSH2 0x523 JUMPI POP PUSH1 0x0 PUSH20 0xFFFFFFFFFFFFFFFFFFFFFFFFFFFFFFFFFFFFFFFF AND PUSH1 0x8 PUSH1 0x0 SWAP1 SLOAD SWAP1 PUSH2 0x100 EXP SWAP1 DIV PUSH20 0xFFFFFFFFFFFFFFFFFFFFFFFFFFFFFFFFFFFFFFFF AND PUSH20 0xFFFFFFFFFFFFFFFFFFFFFFFFFFFFFFFFFFFFFFFF AND EQ ISZERO JUMPDEST ISZERO PUSH2 0x578 JUMPI CALLER PUSH1 0x7 PUSH1 0x0 PUSH2 0x100 EXP DUP2 SLOAD DUP2 PUSH20 0xFFFFFFFFFFFFFFFFFFFFFFFFFFFFFFFFFFFFFFFF MUL NOT AND SWAP1 DUP4 PUSH20 0xFFFFFFFFFFFFFFFFFFFFFFFFFFFFFFFFFFFFFFFF AND MUL OR SWAP1 SSTORE POP CALLVALUE PUSH1 0x0 DUP2 SWAP1 SSTORE POP CALLVALUE PUSH1 0x4 DUP2 SWAP1 SSTORE POP JUMPDEST JUMPDEST JUMP JUMPDEST PUSH1 0x0 SLOAD DUP2 JUMP JUMPDEST PUSH1 0x1 DUP2 JUMP JUMPDEST PUSH1 0x1 SLOAD DUP2 JUMP JUMPDEST PUSH1 0x6 SLOAD DUP2 JUMP JUMPDEST PUSH1 0x0 PUSH1 0x1 SLOAD GT PUSH2 0x5A1 JUMPI PUSH1 0x0 DUP1 REVERT JUMPDEST PUSH1 0x0 DUP1 DUP2 SWAP1 SSTORE POP PUSH1 0x0 PUSH1 0x7 PUSH1 0x0 PUSH2 0x100 EXP DUP2 SLOAD DUP2 PUSH20 0xFFFFFFFFFFFFFFFFFFFFFFFFFFFFFFFFFFFFFFFF MUL NOT AND SWAP1 DUP4 PUSH20 0xFFFFFFFFFFFFFFFFFFFFFFFFFFFFFFFFFFFFFFFF AND MUL OR SWAP1 SSTORE POP PUSH1 0x0 PUSH1 0x8 PUSH1 0x0 PUSH2 0x100 EXP DUP2 SLOAD DUP2 PUSH20 0xFFFFFFFFFFFFFFFFFFFFFFFFFFFFFFFFFFFFFFFF MUL NOT AND SWAP1 DUP4 PUSH20 0xFFFFFFFFFFFFFFFFFFFFFFFFFFFFFFFFFFFFFFFF AND MUL OR SWAP1 SSTORE POP PUSH1 0x0 PUSH1 0x1 DUP2 SWAP1 SSTORE POP PUSH1 0x0 PUSH1 0x6 DUP2 SWAP1 SSTORE POP PUSH1 0x0 PUSH1 0x2 DUP2 SWAP1 SSTORE POP PUSH1 0x0 PUSH1 0x5 DUP2 SWAP1 SSTORE POP PUSH1 0x0 PUSH1 0x3 DUP2 SWAP1 SSTORE POP PUSH1 0x0 PUSH1 0x4 DUP2 SWAP1 SSTORE POP JUMP JUMPDEST PUSH1 0x0 SELFBALANCE SWAP1 POP SWAP1 JUMP JUMPDEST PUSH1 0x0 DUP1 PUSH1 0x5 SLOAD GT PUSH2 0x6AC JUMPI PUSH1 0x40 MLOAD PUSH32 0x8C379A000000000000000000000000000000000000000000000000000000000 DUP2 MSTORE PUSH1 0x4 ADD PUSH2 0x6A3 SWAP1 PUSH2 0xBC2 JUMP JUMPDEST PUSH1 0x40 MLOAD DUP1 SWAP2 SUB SWAP1 REVERT JUMPDEST PUSH3 0xF423F PUSH1 0x1 NUMBER PUSH2 0x6BD SWAP2 SWAP1 PUSH2 0xC11 JUMP JUMPDEST BLOCKHASH PUSH1 0x0 SHR PUSH2 0x6CB SWAP2 SWAP1 PUSH2 0xC74 JUMP JUMPDEST PUSH1 0x2 DUP2 SWAP1 SSTORE POP PUSH1 0x0 PUSH1 0x2 DUP1 SLOAD PUSH2 0x6E1 SWAP2 SWAP1 PUSH2 0xC74 JUMP JUMPDEST SUB PUSH2 0x773 JUMPI PUSH1 0x2 PUSH1 0x1 DUP2 SWAP1 SSTORE POP PUSH1 0x2 PUSH1 0x5 SLOAD SUB PUSH2 0x772 JUMPI PUSH1 0x1 PUSH1 0x6 DUP2 SWAP1 SSTORE POP PUSH1 0x7 PUSH1 0x0 SWAP1 SLOAD SWAP1 PUSH2 0x100 EXP SWAP1 DIV PUSH20 0xFFFFFFFFFFFFFFFFFFFFFFFFFFFFFFFFFFFFFFFF AND PUSH20 0xFFFFFFFFFFFFFFFFFFFFFFFFFFFFFFFFFFFFFFFF AND PUSH2 0x8FC SELFBALANCE SWAP1 DUP2 ISZERO MUL SWAP1 PUSH1 0x40 MLOAD PUSH1 0x0 PUSH1 0x40 MLOAD DUP1 DUP4 SUB DUP2 DUP6 DUP9 DUP9 CALL SWAP4 POP POP POP POP ISZERO DUP1 ISZERO PUSH2 0x768 JUMPI RETURNDATASIZE PUSH1 0x0 DUP1 RETURNDATACOPY RETURNDATASIZE PUSH1 0x0 REVERT JUMPDEST POP PUSH2 0x771 PUSH2 0xA10 JUMP JUMPDEST JUMPDEST JUMPDEST PUSH1 0x1 PUSH1 0x2 DUP1 SLOAD PUSH2 0x783 SWAP2 SWAP1 PUSH2 0xC74 JUMP JUMPDEST SUB PUSH2 0x814 JUMPI PUSH1 0x1 DUP1 DUP2 SWAP1 SSTORE POP PUSH1 0x1 PUSH1 0x5 SLOAD SUB PUSH2 0x813 JUMPI PUSH1 0x1 PUSH1 0x6 DUP2 SWAP1 SSTORE POP PUSH1 0x7 PUSH1 0x0 SWAP1 SLOAD SWAP1 PUSH2 0x100 EXP SWAP1 DIV PUSH20 0xFFFFFFFFFFFFFFFFFFFFFFFFFFFFFFFFFFFFFFFF AND PUSH20 0xFFFFFFFFFFFFFFFFFFFFFFFFFFFFFFFFFFFFFFFF AND PUSH2 0x8FC SELFBALANCE SWAP1 DUP2 ISZERO MUL SWAP1 PUSH1 0x40 MLOAD PUSH1 0x0 PUSH1 0x40 MLOAD DUP1 DUP4 SUB DUP2 DUP6 DUP9 DUP9 CALL SWAP4 POP POP POP POP ISZERO DUP1 ISZERO PUSH2 0x809 JUMPI RETURNDATASIZE PUSH1 0x0 DUP1 RETURNDATACOPY RETURNDATASIZE PUSH1 0x0 REVERT JUMPDEST POP PUSH2 0x812 PUSH2 0xA10 JUMP JUMPDEST JUMPDEST JUMPDEST PUSH1 0x0 PUSH1 0x6 SLOAD SUB PUSH2 0x898 JUMPI PUSH1 0x1 PUSH1 0x6 DUP2 SWAP1 SSTORE POP PUSH1 0x8 PUSH1 0x0 SWAP1 SLOAD SWAP1 PUSH2 0x100 EXP SWAP1 DIV PUSH20 0xFFFFFFFFFFFFFFFFFFFFFFFFFFFFFFFFFFFFFFFF AND PUSH20 0xFFFFFFFFFFFFFFFFFFFFFFFFFFFFFFFFFFFFFFFF AND PUSH2 0x8FC SELFBALANCE SWAP1 DUP2 ISZERO MUL SWAP1 PUSH1 0x40 MLOAD PUSH1 0x0 PUSH1 0x40 MLOAD DUP1 DUP4 SUB DUP2 DUP6 DUP9 DUP9 CALL SWAP4 POP POP POP POP ISZERO DUP1 ISZERO PUSH2 0x88E JUMPI RETURNDATASIZE PUSH1 0x0 DUP1 RETURNDATACOPY RETURNDATASIZE PUSH1 0x0 REVERT JUMPDEST POP PUSH2 0x897 PUSH2 0xA10 JUMP JUMPDEST JUMPDEST SWAP1 JUMP JUMPDEST PUSH1 0x4 SLOAD DUP2 JUMP JUMPDEST PUSH1 0x5 SLOAD DUP2 JUMP JUMPDEST PUSH8 0x8AC7230489E80000 DUP2 JUMP JUMPDEST PUSH1 0x0 PUSH1 0x7 PUSH1 0x0 SWAP1 SLOAD SWAP1 PUSH2 0x100 EXP SWAP1 DIV PUSH20 0xFFFFFFFFFFFFFFFFFFFFFFFFFFFFFFFFFFFFFFFF AND PUSH20 0xFFFFFFFFFFFFFFFFFFFFFFFFFFFFFFFFFFFFFFFF AND CALLER PUSH20 0xFFFFFFFFFFFFFFFFFFFFFFFFFFFFFFFFFFFFFFFF AND SUB PUSH2 0x913 JUMPI PUSH1 0x1 SWAP1 POP PUSH2 0x972 JUMP JUMPDEST PUSH1 0x8 PUSH1 0x0 SWAP1 SLOAD SWAP1 PUSH2 0x100 EXP SWAP1 DIV PUSH20 0xFFFFFFFFFFFFFFFFFFFFFFFFFFFFFFFFFFFFFFFF AND PUSH20 0xFFFFFFFFFFFFFFFFFFFFFFFFFFFFFFFFFFFFFFFF AND CALLER PUSH20 0xFFFFFFFFFFFFFFFFFFFFFFFFFFFFFFFFFFFFFFFF AND SUB PUSH2 0x971 JUMPI PUSH1 0x0 SWAP1 POP PUSH2 0x972 JUMP JUMPDEST JUMPDEST SWAP1 JUMP JUMPDEST PUSH1 0x1 PUSH1 0x5 SLOAD LT PUSH2 0x984 JUMPI PUSH1 0x0 DUP1 REVERT JUMPDEST PUSH1 0x7 PUSH1 0x0 SWAP1 SLOAD SWAP1 PUSH2 0x100 EXP SWAP1 DIV PUSH20 0xFFFFFFFFFFFFFFFFFFFFFFFFFFFFFFFFFFFFFFFF AND PUSH20 0xFFFFFFFFFFFFFFFFFFFFFFFFFFFFFFFFFFFFFFFF AND CALLER PUSH20 0xFFFFFFFFFFFFFFFFFFFFFFFFFFFFFFFFFFFFFFFF AND EQ PUSH2 0x9DE JUMPI PUSH1 0x0 DUP1 REVERT JUMPDEST DUP1 PUSH1 0x0 DUP2 GT PUSH2 0x9EC JUMPI PUSH1 0x0 DUP1 REVERT JUMPDEST PUSH1 0x3 DUP2 LT PUSH2 0x9F9 JUMPI PUSH1 0x0 DUP1 REVERT JUMPDEST DUP2 PUSH1 0x5 DUP2 SWAP1 SSTORE POP POP POP JUMP JUMPDEST PUSH1 0x2 SLOAD DUP2 JUMP JUMPDEST PUSH1 0x3 SLOAD DUP2 JUMP JUMPDEST PUSH1 0x0 DUP1 DUP2 SWAP1 SSTORE POP PUSH1 0x0 PUSH1 0x7 PUSH1 0x0 PUSH2 0x100 EXP DUP2 SLOAD DUP2 PUSH20 0xFFFFFFFFFFFFFFFFFFFFFFFFFFFFFFFFFFFFFFFF MUL NOT AND SWAP1 DUP4 PUSH20 0xFFFFFFFFFFFFFFFFFFFFFFFFFFFFFFFFFFFFFFFF AND MUL OR SWAP1 SSTORE POP PUSH1 0x0 PUSH1 0x8 PUSH1 0x0 PUSH2 0x100 EXP DUP2 SLOAD DUP2 PUSH20 0xFFFFFFFFFFFFFFFFFFFFFFFFFFFFFFFFFFFFFFFF MUL NOT AND SWAP1 DUP4 PUSH20 0xFFFFFFFFFFFFFFFFFFFFFFFFFFFFFFFFFFFFFFFF AND MUL OR SWAP1 SSTORE POP PUSH1 0x0 PUSH1 0x3 DUP2 SWAP1 SSTORE POP PUSH1 0x0 PUSH1 0x4 DUP2 SWAP1 SSTORE POP JUMP JUMPDEST PUSH1 0x0 DUP2 SWAP1 POP SWAP2 SWAP1 POP JUMP JUMPDEST PUSH2 0xAC0 DUP2 PUSH2 0xAAD JUMP JUMPDEST DUP3 MSTORE POP POP JUMP JUMPDEST PUSH1 0x0 PUSH1 0x20 DUP3 ADD SWAP1 POP PUSH2 0xADB PUSH1 0x0 DUP4 ADD DUP5 PUSH2 0xAB7 JUMP JUMPDEST SWAP3 SWAP2 POP POP JUMP JUMPDEST PUSH1 0x0 DUP1 REVERT JUMPDEST PUSH2 0xAEF DUP2 PUSH2 0xAAD JUMP JUMPDEST DUP2 EQ PUSH2 0xAFA JUMPI PUSH1 0x0 DUP1 REVERT JUMPDEST POP JUMP JUMPDEST PUSH1 0x0 DUP2 CALLDATALOAD SWAP1 POP PUSH2 0xB0C DUP2 PUSH2 0xAE6 JUMP JUMPDEST SWAP3 SWAP2 POP POP JUMP JUMPDEST PUSH1 0x0 PUSH1 0x20 DUP3 DUP5 SUB SLT ISZERO PUSH2 0xB28 JUMPI PUSH2 0xB27 PUSH2 0xAE1 JUMP JUMPDEST JUMPDEST PUSH1 0x0 PUSH2 0xB36 DUP5 DUP3 DUP6 ADD PUSH2 0xAFD JUMP JUMPDEST SWAP2 POP POP SWAP3 SWAP2 POP POP JUMP JUMPDEST PUSH1 0x0 DUP3 DUP3 MSTORE PUSH1 0x20 DUP3 ADD SWAP1 POP SWAP3 SWAP2 POP POP JUMP JUMPDEST PUSH32 0x506C617965722068617320746F20706C6179206265666F726520796F75206361 PUSH1 0x0 DUP3 ADD MSTORE PUSH32 0x6E20676574206F7574636F6D6500000000000000000000000000000000000000 PUSH1 0x20 DUP3 ADD MSTORE POP JUMP JUMPDEST PUSH1 0x0 PUSH2 0xBAC PUSH1 0x2D DUP4 PUSH2 0xB3F JUMP JUMPDEST SWAP2 POP PUSH2 0xBB7 DUP3 PUSH2 0xB50 JUMP JUMPDEST PUSH1 0x40 DUP3 ADD SWAP1 POP SWAP2 SWAP1 POP JUMP JUMPDEST PUSH1 0x0 PUSH1 0x20 DUP3 ADD SWAP1 POP DUP2 DUP2 SUB PUSH1 0x0 DUP4 ADD MSTORE PUSH2 0xBDB DUP2 PUSH2 0xB9F JUMP JUMPDEST SWAP1 POP SWAP2 SWAP1 POP JUMP JUMPDEST PUSH32 0x4E487B7100000000000000000000000000000000000000000000000000000000 PUSH1 0x0 MSTORE PUSH1 0x11 PUSH1 0x4 MSTORE PUSH1 0x24 PUSH1 0x0 REVERT JUMPDEST PUSH1 0x0 PUSH2 0xC1C DUP3 PUSH2 0xAAD JUMP JUMPDEST SWAP2 POP PUSH2 0xC27 DUP4 PUSH2 0xAAD JUMP JUMPDEST SWAP3 POP DUP3 DUP3 SUB SWAP1 POP DUP2 DUP2 GT ISZERO PUSH2 0xC3F JUMPI PUSH2 0xC3E PUSH2 0xBE2 JUMP JUMPDEST JUMPDEST SWAP3 SWAP2 POP POP JUMP JUMPDEST PUSH32 0x4E487B7100000000000000000000000000000000000000000000000000000000 PUSH1 0x0 MSTORE PUSH1 0x12 PUSH1 0x4 MSTORE PUSH1 0x24 PUSH1 0x0 REVERT JUMPDEST PUSH1 0x0 PUSH2 0xC7F DUP3 PUSH2 0xAAD JUMP JUMPDEST SWAP2 POP PUSH2 0xC8A DUP4 PUSH2 0xAAD JUMP JUMPDEST SWAP3 POP DUP3 PUSH2 0xC9A JUMPI PUSH2 0xC99 PUSH2 0xC45 JUMP JUMPDEST JUMPDEST DUP3 DUP3 MOD SWAP1 POP SWAP3 SWAP2 POP POP JUMP INVALID LOG2 PUSH5 0x6970667358 0x22 SLT KECCAK256 STATICCALL PUSH21 0x783274B6180DC588B23AA846FC8F7F1C6B14A8CEC5 SLOAD CALLDATALOAD 0xEE SWAP16 GT 0x22 0xE6 CALLVALUE PUSH23 0x64736F6C63430008110033000000000000000000000000 "
				},
				"gasEstimates": {
					"creation": {
						"codeDepositCost": "658200",
						"executionCost": "20713",
						"totalCost": "678913"
					},
					"external": {
						"BET_MAX()": "418",
						"BET_MIN()": "397",
						"getContractBalance()": "428",
						"getOutcome()": "infinite",
						"housePlayed()": "2517",
						"initialBet()": "2475",
						"outcome()": "2452",
						"paid()": "2474",
						"playerChoice()": "2496",
						"playerChooses(uint256)": "26908",
						"playerPlayed()": "2474",
						"randomNum()": "2495",
						"register()": "81637",
						"reset_contract()": "85966",
						"whoAmI()": "4710"
					},
					"internal": {
						"reset()": "63585"
					}
				},
				"methodIdentifiers": {
					"BET_MAX()": "d0017a0c",
					"BET_MIN()": "2626ab08",
					"getContractBalance()": "6f9fb98a",
					"getOutcome()": "7e7e4b47",
					"housePlayed()": "fc98f42e",
					"initialBet()": "1d73c64c",
					"outcome()": "27793f87",
					"paid()": "295b4e17",
					"playerChoice()": "adef7cdd",
					"playerChooses(uint256)": "e92788d6",
					"playerPlayed()": "8e687aed",
					"randomNum()": "f630aa65",
					"register()": "1aa3a008",
					"reset_contract()": "4e22fb5b",
					"whoAmI()": "da91254c"
				}
			},
			"storageLayout": {
				"storage": [
					{
						"astId": 9,
						"contract": "Group Projects/Group Project # 3_Rock_Paper_scissors/Starter code/test_game.sol:CoinFlip",
						"label": "initialBet",
						"offset": 0,
						"slot": "0",
						"type": "t_uint256"
					},
					{
						"astId": 11,
						"contract": "Group Projects/Group Project # 3_Rock_Paper_scissors/Starter code/test_game.sol:CoinFlip",
						"label": "outcome",
						"offset": 0,
						"slot": "1",
						"type": "t_uint256"
					},
					{
						"astId": 13,
						"contract": "Group Projects/Group Project # 3_Rock_Paper_scissors/Starter code/test_game.sol:CoinFlip",
						"label": "randomNum",
						"offset": 0,
						"slot": "2",
						"type": "t_uint256"
					},
					{
						"astId": 16,
						"contract": "Group Projects/Group Project # 3_Rock_Paper_scissors/Starter code/test_game.sol:CoinFlip",
						"label": "housePlayed",
						"offset": 0,
						"slot": "3",
						"type": "t_uint256"
					},
					{
						"astId": 19,
						"contract": "Group Projects/Group Project # 3_Rock_Paper_scissors/Starter code/test_game.sol:CoinFlip",
						"label": "playerPlayed",
						"offset": 0,
						"slot": "4",
						"type": "t_uint256"
					},
					{
						"astId": 22,
						"contract": "Group Projects/Group Project # 3_Rock_Paper_scissors/Starter code/test_game.sol:CoinFlip",
						"label": "playerChoice",
						"offset": 0,
						"slot": "5",
						"type": "t_uint256"
					},
					{
						"astId": 25,
						"contract": "Group Projects/Group Project # 3_Rock_Paper_scissors/Starter code/test_game.sol:CoinFlip",
						"label": "paid",
						"offset": 0,
						"slot": "6",
						"type": "t_uint256"
					},
					{
						"astId": 27,
						"contract": "Group Projects/Group Project # 3_Rock_Paper_scissors/Starter code/test_game.sol:CoinFlip",
						"label": "playerA",
						"offset": 0,
						"slot": "7",
						"type": "t_address"
					},
					{
						"astId": 29,
						"contract": "Group Projects/Group Project # 3_Rock_Paper_scissors/Starter code/test_game.sol:CoinFlip",
						"label": "HouseWallet",
						"offset": 0,
						"slot": "8",
						"type": "t_address"
					}
				],
				"types": {
					"t_address": {
						"encoding": "inplace",
						"label": "address",
						"numberOfBytes": "20"
					},
					"t_uint256": {
						"encoding": "inplace",
						"label": "uint256",
						"numberOfBytes": "32"
					}
				}
			},
			"userdoc": {
				"kind": "user",
				"methods": {},
				"version": 1
			}
		}
	}
}