{
	"Project-3/Starter code/blackjack.sol": {
		"BlackJack": {
			"abi": [
				{
					"inputs": [],
					"name": "BET_MAX",
					"outputs": [
						{
							"internalType": "uint256",
							"name": "",
							"type": "uint256"
						}
					],
					"stateMutability": "view",
					"type": "function"
				},
				{
					"inputs": [],
					"name": "BET_MIN",
					"outputs": [
						{
							"internalType": "uint256",
							"name": "",
							"type": "uint256"
						}
					],
					"stateMutability": "view",
					"type": "function"
				},
				{
					"inputs": [],
					"name": "betAmount",
					"outputs": [
						{
							"internalType": "uint256",
							"name": "",
							"type": "uint256"
						}
					],
					"stateMutability": "view",
					"type": "function"
				},
				{
					"inputs": [],
					"name": "deal",
					"outputs": [],
					"stateMutability": "nonpayable",
					"type": "function"
				},
				{
					"inputs": [],
					"name": "dealerBusted",
					"outputs": [
						{
							"internalType": "uint256",
							"name": "",
							"type": "uint256"
						}
					],
					"stateMutability": "view",
					"type": "function"
				},
				{
					"inputs": [],
					"name": "dealerCardCount",
					"outputs": [
						{
							"internalType": "uint256",
							"name": "",
							"type": "uint256"
						}
					],
					"stateMutability": "view",
					"type": "function"
				},
				{
					"inputs": [
						{
							"internalType": "uint256",
							"name": "",
							"type": "uint256"
						},
						{
							"internalType": "uint256",
							"name": "",
							"type": "uint256"
						}
					],
					"name": "dealerHandValue",
					"outputs": [
						{
							"internalType": "uint256",
							"name": "",
							"type": "uint256"
						}
					],
					"stateMutability": "view",
					"type": "function"
				},
				{
					"inputs": [],
					"name": "dealerStands",
					"outputs": [
						{
							"internalType": "uint256",
							"name": "",
							"type": "uint256"
						}
					],
					"stateMutability": "view",
					"type": "function"
				},
				{
					"inputs": [
						{
							"internalType": "uint256",
							"name": "",
							"type": "uint256"
						},
						{
							"internalType": "uint256",
							"name": "",
							"type": "uint256"
						}
					],
					"name": "dealersCards",
					"outputs": [
						{
							"internalType": "uint256",
							"name": "",
							"type": "uint256"
						}
					],
					"stateMutability": "view",
					"type": "function"
				},
				{
					"inputs": [],
					"name": "finalDealerCount",
					"outputs": [
						{
							"internalType": "uint256",
							"name": "",
							"type": "uint256"
						}
					],
					"stateMutability": "view",
					"type": "function"
				},
				{
					"inputs": [],
					"name": "finalPlayerCount",
					"outputs": [
						{
							"internalType": "uint256",
							"name": "",
							"type": "uint256"
						}
					],
					"stateMutability": "view",
					"type": "function"
				},
				{
					"inputs": [
						{
							"internalType": "uint256",
							"name": "house_or_player",
							"type": "uint256"
						}
					],
					"name": "fundContract",
					"outputs": [],
					"stateMutability": "payable",
					"type": "function"
				},
				{
					"inputs": [],
					"name": "gameInProgress",
					"outputs": [
						{
							"internalType": "uint256",
							"name": "",
							"type": "uint256"
						}
					],
					"stateMutability": "view",
					"type": "function"
				},
				{
					"inputs": [],
					"name": "hitPlayer",
					"outputs": [],
					"stateMutability": "nonpayable",
					"type": "function"
				},
				{
					"inputs": [],
					"name": "houseBalance",
					"outputs": [
						{
							"internalType": "uint256",
							"name": "",
							"type": "uint256"
						}
					],
					"stateMutability": "view",
					"type": "function"
				},
				{
					"inputs": [
						{
							"internalType": "uint256",
							"name": "_betAmount",
							"type": "uint256"
						}
					],
					"name": "placeBet",
					"outputs": [],
					"stateMutability": "payable",
					"type": "function"
				},
				{
					"inputs": [],
					"name": "playerBalance",
					"outputs": [
						{
							"internalType": "uint256",
							"name": "",
							"type": "uint256"
						}
					],
					"stateMutability": "view",
					"type": "function"
				},
				{
					"inputs": [],
					"name": "playerBusted",
					"outputs": [
						{
							"internalType": "uint256",
							"name": "",
							"type": "uint256"
						}
					],
					"stateMutability": "view",
					"type": "function"
				},
				{
					"inputs": [],
					"name": "playerCardCount",
					"outputs": [
						{
							"internalType": "uint256",
							"name": "",
							"type": "uint256"
						}
					],
					"stateMutability": "view",
					"type": "function"
				},
				{
					"inputs": [
						{
							"internalType": "uint256",
							"name": "",
							"type": "uint256"
						},
						{
							"internalType": "uint256",
							"name": "",
							"type": "uint256"
						}
					],
					"name": "playerHandValue",
					"outputs": [
						{
							"internalType": "uint256",
							"name": "",
							"type": "uint256"
						}
					],
					"stateMutability": "view",
					"type": "function"
				},
				{
					"inputs": [],
					"name": "playerStand",
					"outputs": [],
					"stateMutability": "nonpayable",
					"type": "function"
				},
				{
					"inputs": [],
					"name": "playerStands",
					"outputs": [
						{
							"internalType": "uint256",
							"name": "",
							"type": "uint256"
						}
					],
					"stateMutability": "view",
					"type": "function"
				},
				{
					"inputs": [
						{
							"internalType": "uint256",
							"name": "amount",
							"type": "uint256"
						}
					],
					"name": "playerWithdraw",
					"outputs": [],
					"stateMutability": "payable",
					"type": "function"
				},
				{
					"inputs": [
						{
							"internalType": "uint256",
							"name": "",
							"type": "uint256"
						},
						{
							"internalType": "uint256",
							"name": "",
							"type": "uint256"
						}
					],
					"name": "playersCards",
					"outputs": [
						{
							"internalType": "uint256",
							"name": "",
							"type": "uint256"
						}
					],
					"stateMutability": "view",
					"type": "function"
				}
			],
			"devdoc": {
				"kind": "dev",
				"methods": {},
				"version": 1
			},
			"evm": {
				"assembly": "    /* \"Project-3/Starter code/blackjack.sol\":79:17759  contract BlackJack {... */\n  mstore(0x40, 0x80)\n    /* \"Project-3/Starter code/blackjack.sol\":169:170  0 */\n  0x00\n    /* \"Project-3/Starter code/blackjack.sol\":131:170  uint public gameInProgress          = 0 */\n  0x01\n  sstore\n    /* \"Project-3/Starter code/blackjack.sol\":355:356  0 */\n  0x00\n    /* \"Project-3/Starter code/blackjack.sol\":317:356  uint public houseBalance            = 0 */\n  0x02\n  sstore\n    /* \"Project-3/Starter code/blackjack.sol\":400:401  0 */\n  0x00\n    /* \"Project-3/Starter code/blackjack.sol\":362:401  uint public playerBalance           = 0 */\n  0x03\n  sstore\n    /* \"Project-3/Starter code/blackjack.sol\":445:446  0 */\n  0x00\n    /* \"Project-3/Starter code/blackjack.sol\":407:446  uint public betAmount               = 0 */\n  0x04\n  sstore\n    /* \"Project-3/Starter code/blackjack.sol\":490:491  0 */\n  0x00\n    /* \"Project-3/Starter code/blackjack.sol\":452:491  uint randomNum                      = 0 */\n  0x05\n  sstore\n    /* \"Project-3/Starter code/blackjack.sol\":535:536  0 */\n  0x00\n    /* \"Project-3/Starter code/blackjack.sol\":497:536  uint suit                           = 0 */\n  0x06\n  sstore\n    /* \"Project-3/Starter code/blackjack.sol\":580:581  0 */\n  0x00\n    /* \"Project-3/Starter code/blackjack.sol\":542:581  uint rank                           = 0 */\n  0x07\n  sstore\n    /* \"Project-3/Starter code/blackjack.sol\":804:805  0 */\n  0x00\n    /* \"Project-3/Starter code/blackjack.sol\":766:805  uint public playerCardCount         = 0 */\n  0x58\n  sstore\n    /* \"Project-3/Starter code/blackjack.sol\":849:850  0 */\n  0x00\n    /* \"Project-3/Starter code/blackjack.sol\":811:850  uint public dealerCardCount         = 0 */\n  0x59\n  sstore\n    /* \"Project-3/Starter code/blackjack.sol\":894:895  0 */\n  0x00\n    /* \"Project-3/Starter code/blackjack.sol\":856:895  uint public playerBusted            = 0 */\n  0x5a\n  sstore\n    /* \"Project-3/Starter code/blackjack.sol\":939:940  0 */\n  0x00\n    /* \"Project-3/Starter code/blackjack.sol\":901:940  uint public dealerBusted            = 0 */\n  0x5b\n  sstore\n    /* \"Project-3/Starter code/blackjack.sol\":984:985  0 */\n  0x00\n    /* \"Project-3/Starter code/blackjack.sol\":946:985  uint public finalPlayerCount        = 0 */\n  0x5c\n  sstore\n    /* \"Project-3/Starter code/blackjack.sol\":1029:1030  0 */\n  0x00\n    /* \"Project-3/Starter code/blackjack.sol\":991:1030  uint public finalDealerCount        = 0 */\n  0x5d\n  sstore\n    /* \"Project-3/Starter code/blackjack.sol\":1074:1075  0 */\n  0x00\n    /* \"Project-3/Starter code/blackjack.sol\":1036:1075  uint public playerStands            = 0 */\n  0x5e\n  sstore\n    /* \"Project-3/Starter code/blackjack.sol\":1119:1120  0 */\n  0x00\n    /* \"Project-3/Starter code/blackjack.sol\":1081:1120  uint public dealerStands            = 0 */\n  0x5f\n  sstore\n    /* \"Project-3/Starter code/blackjack.sol\":1140:1141  0 */\n  0x00\n    /* \"Project-3/Starter code/blackjack.sol\":1127:1141  uint nonce = 0 */\n  0x60\n  sstore\n    /* \"Project-3/Starter code/blackjack.sol\":1219:1222  0x0 */\n  0x00\n    /* \"Project-3/Starter code/blackjack.sol\":1187:1223  address  playerWallet = address(0x0) */\n  0x61\n  exp(0x0100, 0x00)\n  dup2\n  sload\n  dup2\n  0xffffffffffffffffffffffffffffffffffffffff\n  mul\n  not\n  and\n  swap1\n  dup4\n  0xffffffffffffffffffffffffffffffffffffffff\n  and\n  mul\n  or\n  swap1\n  sstore\n  pop\n    /* \"Project-3/Starter code/blackjack.sol\":1260:1263  0x0 */\n  0x00\n    /* \"Project-3/Starter code/blackjack.sol\":1229:1264  address  houseWallet = address(0x0) */\n  0x62\n  exp(0x0100, 0x00)\n  dup2\n  sload\n  dup2\n  0xffffffffffffffffffffffffffffffffffffffff\n  mul\n  not\n  and\n  swap1\n  dup4\n  0xffffffffffffffffffffffffffffffffffffffff\n  and\n  mul\n  or\n  swap1\n  sstore\n  pop\n    /* \"Project-3/Starter code/blackjack.sol\":79:17759  contract BlackJack {... */\n  callvalue\n  dup1\n  iszero\n  tag_1\n  jumpi\n  0x00\n  dup1\n  revert\ntag_1:\n  pop\n  dataSize(sub_0)\n  dup1\n  dataOffset(sub_0)\n  0x00\n  codecopy\n  0x00\n  return\nstop\n\nsub_0: assembly {\n        /* \"Project-3/Starter code/blackjack.sol\":79:17759  contract BlackJack {... */\n      mstore(0x40, 0x80)\n      jumpi(tag_1, lt(calldatasize, 0x04))\n      shr(0xe0, calldataload(0x00))\n      dup1\n      0x67084eb3\n      gt\n      tag_26\n      jumpi\n      dup1\n      0xc5c3cd78\n      gt\n      tag_27\n      jumpi\n      dup1\n      0xc5c3cd78\n      eq\n      tag_20\n      jumpi\n      dup1\n      0xc9f09d38\n      eq\n      tag_21\n      jumpi\n      dup1\n      0xcdc7ea51\n      eq\n      tag_22\n      jumpi\n      dup1\n      0xd0017a0c\n      eq\n      tag_23\n      jumpi\n      dup1\n      0xd24257c0\n      eq\n      tag_24\n      jumpi\n      dup1\n      0xdae10ed5\n      eq\n      tag_25\n      jumpi\n      jump(tag_1)\n    tag_27:\n      dup1\n      0x67084eb3\n      eq\n      tag_14\n      jumpi\n      dup1\n      0x8914d63b\n      eq\n      tag_15\n      jumpi\n      dup1\n      0x8bbb236f\n      eq\n      tag_16\n      jumpi\n      dup1\n      0x908a0979\n      eq\n      tag_17\n      jumpi\n      dup1\n      0xa10926d6\n      eq\n      tag_18\n      jumpi\n      dup1\n      0xbdbe451b\n      eq\n      tag_19\n      jumpi\n      jump(tag_1)\n    tag_26:\n      dup1\n      0x3c3248d5\n      gt\n      tag_28\n      jumpi\n      dup1\n      0x3c3248d5\n      eq\n      tag_8\n      jumpi\n      dup1\n      0x3fb64e75\n      eq\n      tag_9\n      jumpi\n      dup1\n      0x53a218c9\n      eq\n      tag_10\n      jumpi\n      dup1\n      0x553df021\n      eq\n      tag_11\n      jumpi\n      dup1\n      0x5629365b\n      eq\n      tag_12\n      jumpi\n      dup1\n      0x651f066a\n      eq\n      tag_13\n      jumpi\n      jump(tag_1)\n    tag_28:\n      dup1\n      0x10fe7c48\n      eq\n      tag_2\n      jumpi\n      dup1\n      0x13bf01ed\n      eq\n      tag_3\n      jumpi\n      dup1\n      0x16dd37dd\n      eq\n      tag_4\n      jumpi\n      dup1\n      0x2626ab08\n      eq\n      tag_5\n      jumpi\n      dup1\n      0x325eb3f5\n      eq\n      tag_6\n      jumpi\n      dup1\n      0x3519a2f8\n      eq\n      tag_7\n      jumpi\n    tag_1:\n      0x00\n      dup1\n      revert\n        /* \"Project-3/Starter code/blackjack.sol\":4647:4818  function placeBet(uint _betAmount) public payable validBet(betAmount) mutex() {... */\n    tag_2:\n      tag_29\n      0x04\n      dup1\n      calldatasize\n      sub\n      dup2\n      add\n      swap1\n      tag_30\n      swap2\n      swap1\n      tag_31\n      jump\t// in\n    tag_30:\n      tag_32\n      jump\t// in\n    tag_29:\n      stop\n        /* \"Project-3/Starter code/blackjack.sol\":991:1030  uint public finalDealerCount        = 0 */\n    tag_3:\n      callvalue\n      dup1\n      iszero\n      tag_33\n      jumpi\n      0x00\n      dup1\n      revert\n    tag_33:\n      pop\n      tag_34\n      tag_35\n      jump\t// in\n    tag_34:\n      mload(0x40)\n      tag_36\n      swap2\n      swap1\n      tag_37\n      jump\t// in\n    tag_36:\n      mload(0x40)\n      dup1\n      swap2\n      sub\n      swap1\n      return\n        /* \"Project-3/Starter code/blackjack.sol\":661:694  uint[2][2] public playerHandValue */\n    tag_4:\n      callvalue\n      dup1\n      iszero\n      tag_38\n      jumpi\n      0x00\n      dup1\n      revert\n    tag_38:\n      pop\n      tag_39\n      0x04\n      dup1\n      calldatasize\n      sub\n      dup2\n      add\n      swap1\n      tag_40\n      swap2\n      swap1\n      tag_41\n      jump\t// in\n    tag_40:\n      tag_42\n      jump\t// in\n    tag_39:\n      mload(0x40)\n      tag_43\n      swap2\n      swap1\n      tag_37\n      jump\t// in\n    tag_43:\n      mload(0x40)\n      dup1\n      swap2\n      sub\n      swap1\n      return\n        /* \"Project-3/Starter code/blackjack.sol\":176:219  uint constant public BET_MIN        = 1 wei */\n    tag_5:\n      callvalue\n      dup1\n      iszero\n      tag_44\n      jumpi\n      0x00\n      dup1\n      revert\n    tag_44:\n      pop\n      tag_45\n      tag_46\n      jump\t// in\n    tag_45:\n      mload(0x40)\n      tag_47\n      swap2\n      swap1\n      tag_37\n      jump\t// in\n    tag_47:\n      mload(0x40)\n      dup1\n      swap2\n      sub\n      swap1\n      return\n        /* \"Project-3/Starter code/blackjack.sol\":856:895  uint public playerBusted            = 0 */\n    tag_6:\n      callvalue\n      dup1\n      iszero\n      tag_48\n      jumpi\n      0x00\n      dup1\n      revert\n    tag_48:\n      pop\n      tag_49\n      tag_50\n      jump\t// in\n    tag_49:\n      mload(0x40)\n      tag_51\n      swap2\n      swap1\n      tag_37\n      jump\t// in\n    tag_51:\n      mload(0x40)\n      dup1\n      swap2\n      sub\n      swap1\n      return\n        /* \"Project-3/Starter code/blackjack.sol\":2939:3664  function fundContract(uint house_or_player) public payable validPlayer(house_or_player) {... */\n    tag_7:\n      tag_52\n      0x04\n      dup1\n      calldatasize\n      sub\n      dup2\n      add\n      swap1\n      tag_53\n      swap2\n      swap1\n      tag_31\n      jump\t// in\n    tag_53:\n      tag_54\n      jump\t// in\n    tag_52:\n      stop\n        /* \"Project-3/Starter code/blackjack.sol\":1036:1075  uint public playerStands            = 0 */\n    tag_8:\n      callvalue\n      dup1\n      iszero\n      tag_55\n      jumpi\n      0x00\n      dup1\n      revert\n    tag_55:\n      pop\n      tag_56\n      tag_57\n      jump\t// in\n    tag_56:\n      mload(0x40)\n      tag_58\n      swap2\n      swap1\n      tag_37\n      jump\t// in\n    tag_58:\n      mload(0x40)\n      dup1\n      swap2\n      sub\n      swap1\n      return\n        /* \"Project-3/Starter code/blackjack.sol\":131:170  uint public gameInProgress          = 0 */\n    tag_9:\n      callvalue\n      dup1\n      iszero\n      tag_59\n      jumpi\n      0x00\n      dup1\n      revert\n    tag_59:\n      pop\n      tag_60\n      tag_61\n      jump\t// in\n    tag_60:\n      mload(0x40)\n      tag_62\n      swap2\n      swap1\n      tag_37\n      jump\t// in\n    tag_62:\n      mload(0x40)\n      dup1\n      swap2\n      sub\n      swap1\n      return\n        /* \"Project-3/Starter code/blackjack.sol\":700:733  uint[2][2] public dealerHandValue */\n    tag_10:\n      callvalue\n      dup1\n      iszero\n      tag_63\n      jumpi\n      0x00\n      dup1\n      revert\n    tag_63:\n      pop\n      tag_64\n      0x04\n      dup1\n      calldatasize\n      sub\n      dup2\n      add\n      swap1\n      tag_65\n      swap2\n      swap1\n      tag_41\n      jump\t// in\n    tag_65:\n      tag_66\n      jump\t// in\n    tag_64:\n      mload(0x40)\n      tag_67\n      swap2\n      swap1\n      tag_37\n      jump\t// in\n    tag_67:\n      mload(0x40)\n      dup1\n      swap2\n      sub\n      swap1\n      return\n        /* \"Project-3/Starter code/blackjack.sol\":8145:9692  function deal() public mutex {... */\n    tag_11:\n      callvalue\n      dup1\n      iszero\n      tag_68\n      jumpi\n      0x00\n      dup1\n      revert\n    tag_68:\n      pop\n      tag_69\n      tag_70\n      jump\t// in\n    tag_69:\n      stop\n        /* \"Project-3/Starter code/blackjack.sol\":4130:4321  function playerWithdraw(uint amount) public payable canPlayerWithdraw(amount) mutex() {... */\n    tag_12:\n      tag_71\n      0x04\n      dup1\n      calldatasize\n      sub\n      dup2\n      add\n      swap1\n      tag_72\n      swap2\n      swap1\n      tag_31\n      jump\t// in\n    tag_72:\n      tag_73\n      jump\t// in\n    tag_71:\n      stop\n        /* \"Project-3/Starter code/blackjack.sol\":362:401  uint public playerBalance           = 0 */\n    tag_13:\n      callvalue\n      dup1\n      iszero\n      tag_74\n      jumpi\n      0x00\n      dup1\n      revert\n    tag_74:\n      pop\n      tag_75\n      tag_76\n      jump\t// in\n    tag_75:\n      mload(0x40)\n      tag_77\n      swap2\n      swap1\n      tag_37\n      jump\t// in\n    tag_77:\n      mload(0x40)\n      dup1\n      swap2\n      sub\n      swap1\n      return\n        /* \"Project-3/Starter code/blackjack.sol\":317:356  uint public houseBalance            = 0 */\n    tag_14:\n      callvalue\n      dup1\n      iszero\n      tag_78\n      jumpi\n      0x00\n      dup1\n      revert\n    tag_78:\n      pop\n      tag_79\n      tag_80\n      jump\t// in\n    tag_79:\n      mload(0x40)\n      tag_81\n      swap2\n      swap1\n      tag_37\n      jump\t// in\n    tag_81:\n      mload(0x40)\n      dup1\n      swap2\n      sub\n      swap1\n      return\n        /* \"Project-3/Starter code/blackjack.sol\":766:805  uint public playerCardCount         = 0 */\n    tag_15:\n      callvalue\n      dup1\n      iszero\n      tag_82\n      jumpi\n      0x00\n      dup1\n      revert\n    tag_82:\n      pop\n      tag_83\n      tag_84\n      jump\t// in\n    tag_83:\n      mload(0x40)\n      tag_85\n      swap2\n      swap1\n      tag_37\n      jump\t// in\n    tag_85:\n      mload(0x40)\n      dup1\n      swap2\n      sub\n      swap1\n      return\n        /* \"Project-3/Starter code/blackjack.sol\":624:655  uint[2][16] public dealersCards */\n    tag_16:\n      callvalue\n      dup1\n      iszero\n      tag_86\n      jumpi\n      0x00\n      dup1\n      revert\n    tag_86:\n      pop\n      tag_87\n      0x04\n      dup1\n      calldatasize\n      sub\n      dup2\n      add\n      swap1\n      tag_88\n      swap2\n      swap1\n      tag_41\n      jump\t// in\n    tag_88:\n      tag_89\n      jump\t// in\n    tag_87:\n      mload(0x40)\n      tag_90\n      swap2\n      swap1\n      tag_37\n      jump\t// in\n    tag_90:\n      mload(0x40)\n      dup1\n      swap2\n      sub\n      swap1\n      return\n        /* \"Project-3/Starter code/blackjack.sol\":811:850  uint public dealerCardCount         = 0 */\n    tag_17:\n      callvalue\n      dup1\n      iszero\n      tag_91\n      jumpi\n      0x00\n      dup1\n      revert\n    tag_91:\n      pop\n      tag_92\n      tag_93\n      jump\t// in\n    tag_92:\n      mload(0x40)\n      tag_94\n      swap2\n      swap1\n      tag_37\n      jump\t// in\n    tag_94:\n      mload(0x40)\n      dup1\n      swap2\n      sub\n      swap1\n      return\n        /* \"Project-3/Starter code/blackjack.sol\":1081:1120  uint public dealerStands            = 0 */\n    tag_18:\n      callvalue\n      dup1\n      iszero\n      tag_95\n      jumpi\n      0x00\n      dup1\n      revert\n    tag_95:\n      pop\n      tag_96\n      tag_97\n      jump\t// in\n    tag_96:\n      mload(0x40)\n      tag_98\n      swap2\n      swap1\n      tag_37\n      jump\t// in\n    tag_98:\n      mload(0x40)\n      dup1\n      swap2\n      sub\n      swap1\n      return\n        /* \"Project-3/Starter code/blackjack.sol\":587:618  uint[2][16] public playersCards */\n    tag_19:\n      callvalue\n      dup1\n      iszero\n      tag_99\n      jumpi\n      0x00\n      dup1\n      revert\n    tag_99:\n      pop\n      tag_100\n      0x04\n      dup1\n      calldatasize\n      sub\n      dup2\n      add\n      swap1\n      tag_101\n      swap2\n      swap1\n      tag_41\n      jump\t// in\n    tag_101:\n      tag_102\n      jump\t// in\n    tag_100:\n      mload(0x40)\n      tag_103\n      swap2\n      swap1\n      tag_37\n      jump\t// in\n    tag_103:\n      mload(0x40)\n      dup1\n      swap2\n      sub\n      swap1\n      return\n        /* \"Project-3/Starter code/blackjack.sol\":901:940  uint public dealerBusted            = 0 */\n    tag_20:\n      callvalue\n      dup1\n      iszero\n      tag_104\n      jumpi\n      0x00\n      dup1\n      revert\n    tag_104:\n      pop\n      tag_105\n      tag_106\n      jump\t// in\n    tag_105:\n      mload(0x40)\n      tag_107\n      swap2\n      swap1\n      tag_37\n      jump\t// in\n    tag_107:\n      mload(0x40)\n      dup1\n      swap2\n      sub\n      swap1\n      return\n        /* \"Project-3/Starter code/blackjack.sol\":15935:16081  function playerStand() public didPlayerStand() _playerBusted() _gameInProgress() {... */\n    tag_21:\n      callvalue\n      dup1\n      iszero\n      tag_108\n      jumpi\n      0x00\n      dup1\n      revert\n    tag_108:\n      pop\n      tag_109\n      tag_110\n      jump\t// in\n    tag_109:\n      stop\n        /* \"Project-3/Starter code/blackjack.sol\":946:985  uint public finalPlayerCount        = 0 */\n    tag_22:\n      callvalue\n      dup1\n      iszero\n      tag_111\n      jumpi\n      0x00\n      dup1\n      revert\n    tag_111:\n      pop\n      tag_112\n      tag_113\n      jump\t// in\n    tag_112:\n      mload(0x40)\n      tag_114\n      swap2\n      swap1\n      tag_37\n      jump\t// in\n    tag_114:\n      mload(0x40)\n      dup1\n      swap2\n      sub\n      swap1\n      return\n        /* \"Project-3/Starter code/blackjack.sol\":247:292  uint constant public BET_MAX        = 1 ether */\n    tag_23:\n      callvalue\n      dup1\n      iszero\n      tag_115\n      jumpi\n      0x00\n      dup1\n      revert\n    tag_115:\n      pop\n      tag_116\n      tag_117\n      jump\t// in\n    tag_116:\n      mload(0x40)\n      tag_118\n      swap2\n      swap1\n      tag_37\n      jump\t// in\n    tag_118:\n      mload(0x40)\n      dup1\n      swap2\n      sub\n      swap1\n      return\n        /* \"Project-3/Starter code/blackjack.sol\":407:446  uint public betAmount               = 0 */\n    tag_24:\n      callvalue\n      dup1\n      iszero\n      tag_119\n      jumpi\n      0x00\n      dup1\n      revert\n    tag_119:\n      pop\n      tag_120\n      tag_121\n      jump\t// in\n    tag_120:\n      mload(0x40)\n      tag_122\n      swap2\n      swap1\n      tag_37\n      jump\t// in\n    tag_122:\n      mload(0x40)\n      dup1\n      swap2\n      sub\n      swap1\n      return\n        /* \"Project-3/Starter code/blackjack.sol\":9998:10619  function hitPlayer() public _gameInProgress() _playerBusted() didPlayerStand() {... */\n    tag_25:\n      callvalue\n      dup1\n      iszero\n      tag_123\n      jumpi\n      0x00\n      dup1\n      revert\n    tag_123:\n      pop\n      tag_124\n      tag_125\n      jump\t// in\n    tag_124:\n      stop\n        /* \"Project-3/Starter code/blackjack.sol\":4647:4818  function placeBet(uint _betAmount) public payable validBet(betAmount) mutex() {... */\n    tag_32:\n        /* \"Project-3/Starter code/blackjack.sol\":4706:4715  betAmount */\n      sload(0x04)\n        /* \"Project-3/Starter code/blackjack.sol\":214:219  1 wei */\n      0x01\n        /* \"Project-3/Starter code/blackjack.sol\":4418:4427  msg.value */\n      callvalue\n        /* \"Project-3/Starter code/blackjack.sol\":4418:4438  msg.value >= BET_MIN */\n      lt\n      iszero\n        /* \"Project-3/Starter code/blackjack.sol\":4418:4462  msg.value >= BET_MIN && msg.value <= BET_MAX */\n      dup1\n      iszero\n      tag_127\n      jumpi\n      pop\n        /* \"Project-3/Starter code/blackjack.sol\":285:292  1 ether */\n      0x0de0b6b3a7640000\n        /* \"Project-3/Starter code/blackjack.sol\":4442:4451  msg.value */\n      callvalue\n        /* \"Project-3/Starter code/blackjack.sol\":4442:4462  msg.value <= BET_MAX */\n      gt\n      iszero\n        /* \"Project-3/Starter code/blackjack.sol\":4418:4462  msg.value >= BET_MIN && msg.value <= BET_MAX */\n    tag_127:\n        /* \"Project-3/Starter code/blackjack.sol\":4410:4463  require(msg.value >= BET_MIN && msg.value <= BET_MAX) */\n      tag_128\n      jumpi\n      0x00\n      dup1\n      revert\n    tag_128:\n        /* \"Project-3/Starter code/blackjack.sol\":4494:4507  playerBalance */\n      sload(0x03)\n        /* \"Project-3/Starter code/blackjack.sol\":4481:4490  betAmount */\n      sload(0x04)\n        /* \"Project-3/Starter code/blackjack.sol\":4481:4507  betAmount <= playerBalance */\n      gt\n      iszero\n        /* \"Project-3/Starter code/blackjack.sol\":4473:4548  require(betAmount <= playerBalance, \"Bet amount is more than game balance\") */\n      tag_129\n      jumpi\n      mload(0x40)\n      0x08c379a000000000000000000000000000000000000000000000000000000000\n      dup2\n      mstore\n      0x04\n      add\n      tag_130\n      swap1\n      tag_131\n      jump\t// in\n    tag_130:\n      mload(0x40)\n      dup1\n      swap2\n      sub\n      swap1\n      revert\n    tag_129:\n        /* \"Project-3/Starter code/blackjack.sol\":4580:4592  playerWallet */\n      0x61\n      0x00\n      swap1\n      sload\n      swap1\n      0x0100\n      exp\n      swap1\n      div\n      0xffffffffffffffffffffffffffffffffffffffff\n      and\n        /* \"Project-3/Starter code/blackjack.sol\":4566:4592  msg.sender == playerWallet */\n      0xffffffffffffffffffffffffffffffffffffffff\n      and\n        /* \"Project-3/Starter code/blackjack.sol\":4566:4576  msg.sender */\n      caller\n        /* \"Project-3/Starter code/blackjack.sol\":4566:4592  msg.sender == playerWallet */\n      0xffffffffffffffffffffffffffffffffffffffff\n      and\n      eq\n        /* \"Project-3/Starter code/blackjack.sol\":4558:4622  require(msg.sender == playerWallet, \"Only player can place bet\") */\n      tag_132\n      jumpi\n      mload(0x40)\n      0x08c379a000000000000000000000000000000000000000000000000000000000\n      dup2\n      mstore\n      0x04\n      add\n      tag_133\n      swap1\n      tag_134\n      jump\t// in\n    tag_133:\n      mload(0x40)\n      dup1\n      swap2\n      sub\n      swap1\n      revert\n    tag_132:\n        /* \"Project-3/Starter code/blackjack.sol\":2035:2041  locked */\n      0x00\n      dup1\n      sload\n      swap1\n      0x0100\n      exp\n      swap1\n      div\n      0xff\n      and\n        /* \"Project-3/Starter code/blackjack.sol\":2034:2041  !locked */\n      iszero\n        /* \"Project-3/Starter code/blackjack.sol\":2026:2068  require(!locked, \"Reentrancy not allowed\") */\n      tag_136\n      jumpi\n      mload(0x40)\n      0x08c379a000000000000000000000000000000000000000000000000000000000\n      dup2\n      mstore\n      0x04\n      add\n      tag_137\n      swap1\n      tag_138\n      jump\t// in\n    tag_137:\n      mload(0x40)\n      dup1\n      swap2\n      sub\n      swap1\n      revert\n    tag_136:\n        /* \"Project-3/Starter code/blackjack.sol\":2087:2091  true */\n      0x01\n        /* \"Project-3/Starter code/blackjack.sol\":2078:2084  locked */\n      0x00\n      dup1\n        /* \"Project-3/Starter code/blackjack.sol\":2078:2091  locked = true */\n      0x0100\n      exp\n      dup2\n      sload\n      dup2\n      0xff\n      mul\n      not\n      and\n      swap1\n      dup4\n      iszero\n      iszero\n      mul\n      or\n      swap1\n      sstore\n      pop\n        /* \"Project-3/Starter code/blackjack.sol\":4768:4778  _betAmount */\n      dup2\n        /* \"Project-3/Starter code/blackjack.sol\":4752:4765  playerBalance */\n      sload(0x03)\n        /* \"Project-3/Starter code/blackjack.sol\":4752:4778  playerBalance - _betAmount */\n      tag_140\n      swap2\n      swap1\n      tag_141\n      jump\t// in\n    tag_140:\n        /* \"Project-3/Starter code/blackjack.sol\":4736:4749  playerBalance */\n      0x03\n        /* \"Project-3/Starter code/blackjack.sol\":4736:4778  playerBalance = playerBalance - _betAmount */\n      dup2\n      swap1\n      sstore\n      pop\n        /* \"Project-3/Starter code/blackjack.sol\":4800:4810  _betAmount */\n      dup2\n        /* \"Project-3/Starter code/blackjack.sol\":4788:4797  betAmount */\n      0x04\n        /* \"Project-3/Starter code/blackjack.sol\":4788:4810  betAmount = _betAmount */\n      dup2\n      swap1\n      sstore\n      pop\n        /* \"Project-3/Starter code/blackjack.sol\":2121:2126  false */\n      0x00\n        /* \"Project-3/Starter code/blackjack.sol\":2112:2118  locked */\n      dup1\n      0x00\n        /* \"Project-3/Starter code/blackjack.sol\":2112:2126  locked = false */\n      0x0100\n      exp\n      dup2\n      sload\n      dup2\n      0xff\n      mul\n      not\n      and\n      swap1\n      dup4\n      iszero\n      iszero\n      mul\n      or\n      swap1\n      sstore\n      pop\n        /* \"Project-3/Starter code/blackjack.sol\":4647:4818  function placeBet(uint _betAmount) public payable validBet(betAmount) mutex() {... */\n      pop\n      pop\n      jump\t// out\n        /* \"Project-3/Starter code/blackjack.sol\":991:1030  uint public finalDealerCount        = 0 */\n    tag_35:\n      sload(0x5d)\n      dup2\n      jump\t// out\n        /* \"Project-3/Starter code/blackjack.sol\":661:694  uint[2][2] public playerHandValue */\n    tag_42:\n      0x48\n      dup3\n      0x02\n      dup2\n      lt\n      tag_142\n      jumpi\n      0x00\n      dup1\n      revert\n    tag_142:\n      0x02\n      mul\n      add\n      dup2\n      0x02\n      dup2\n      lt\n      tag_144\n      jumpi\n      0x00\n      dup1\n      revert\n    tag_144:\n      add\n      0x00\n      swap2\n      pop\n      swap2\n      pop\n      pop\n      sload\n      dup2\n      jump\t// out\n        /* \"Project-3/Starter code/blackjack.sol\":176:219  uint constant public BET_MIN        = 1 wei */\n    tag_46:\n        /* \"Project-3/Starter code/blackjack.sol\":214:219  1 wei */\n      0x01\n        /* \"Project-3/Starter code/blackjack.sol\":176:219  uint constant public BET_MIN        = 1 wei */\n      dup2\n      jump\t// out\n        /* \"Project-3/Starter code/blackjack.sol\":856:895  uint public playerBusted            = 0 */\n    tag_50:\n      sload(0x5a)\n      dup2\n      jump\t// out\n        /* \"Project-3/Starter code/blackjack.sol\":2939:3664  function fundContract(uint house_or_player) public payable validPlayer(house_or_player) {... */\n    tag_54:\n        /* \"Project-3/Starter code/blackjack.sol\":3010:3025  house_or_player */\n      dup1\n        /* \"Project-3/Starter code/blackjack.sol\":2674:2677  0x0 */\n      0x00\n        /* \"Project-3/Starter code/blackjack.sol\":2651:2678  houseWallet == address(0x0) */\n      0xffffffffffffffffffffffffffffffffffffffff\n      and\n        /* \"Project-3/Starter code/blackjack.sol\":2651:2662  houseWallet */\n      0x62\n      0x00\n      swap1\n      sload\n      swap1\n      0x0100\n      exp\n      swap1\n      div\n      0xffffffffffffffffffffffffffffffffffffffff\n      and\n        /* \"Project-3/Starter code/blackjack.sol\":2651:2678  houseWallet == address(0x0) */\n      0xffffffffffffffffffffffffffffffffffffffff\n      and\n      eq\n        /* \"Project-3/Starter code/blackjack.sol\":2651:2710  houseWallet == address(0x0) || playerWallet == address(0x0) */\n      dup1\n      tag_147\n      jumpi\n      pop\n        /* \"Project-3/Starter code/blackjack.sol\":2706:2709  0x0 */\n      0x00\n        /* \"Project-3/Starter code/blackjack.sol\":2682:2710  playerWallet == address(0x0) */\n      0xffffffffffffffffffffffffffffffffffffffff\n      and\n        /* \"Project-3/Starter code/blackjack.sol\":2682:2694  playerWallet */\n      0x61\n      0x00\n      swap1\n      sload\n      swap1\n      0x0100\n      exp\n      swap1\n      div\n      0xffffffffffffffffffffffffffffffffffffffff\n      and\n        /* \"Project-3/Starter code/blackjack.sol\":2682:2710  playerWallet == address(0x0) */\n      0xffffffffffffffffffffffffffffffffffffffff\n      and\n      eq\n        /* \"Project-3/Starter code/blackjack.sol\":2651:2710  houseWallet == address(0x0) || playerWallet == address(0x0) */\n    tag_147:\n        /* \"Project-3/Starter code/blackjack.sol\":2651:2739  houseWallet == address(0x0) || playerWallet == address(0x0) || msg.sender == houseWallet */\n      dup1\n      tag_148\n      jumpi\n      pop\n        /* \"Project-3/Starter code/blackjack.sol\":2728:2739  houseWallet */\n      0x62\n      0x00\n      swap1\n      sload\n      swap1\n      0x0100\n      exp\n      swap1\n      div\n      0xffffffffffffffffffffffffffffffffffffffff\n      and\n        /* \"Project-3/Starter code/blackjack.sol\":2714:2739  msg.sender == houseWallet */\n      0xffffffffffffffffffffffffffffffffffffffff\n      and\n        /* \"Project-3/Starter code/blackjack.sol\":2714:2724  msg.sender */\n      caller\n        /* \"Project-3/Starter code/blackjack.sol\":2714:2739  msg.sender == houseWallet */\n      0xffffffffffffffffffffffffffffffffffffffff\n      and\n      eq\n        /* \"Project-3/Starter code/blackjack.sol\":2651:2739  houseWallet == address(0x0) || playerWallet == address(0x0) || msg.sender == houseWallet */\n    tag_148:\n        /* \"Project-3/Starter code/blackjack.sol\":2651:2769  houseWallet == address(0x0) || playerWallet == address(0x0) || msg.sender == houseWallet || msg.sender == playerWallet */\n      dup1\n      tag_149\n      jumpi\n      pop\n        /* \"Project-3/Starter code/blackjack.sol\":2757:2769  playerWallet */\n      0x61\n      0x00\n      swap1\n      sload\n      swap1\n      0x0100\n      exp\n      swap1\n      div\n      0xffffffffffffffffffffffffffffffffffffffff\n      and\n        /* \"Project-3/Starter code/blackjack.sol\":2743:2769  msg.sender == playerWallet */\n      0xffffffffffffffffffffffffffffffffffffffff\n      and\n        /* \"Project-3/Starter code/blackjack.sol\":2743:2753  msg.sender */\n      caller\n        /* \"Project-3/Starter code/blackjack.sol\":2743:2769  msg.sender == playerWallet */\n      0xffffffffffffffffffffffffffffffffffffffff\n      and\n      eq\n        /* \"Project-3/Starter code/blackjack.sol\":2651:2769  houseWallet == address(0x0) || playerWallet == address(0x0) || msg.sender == houseWallet || msg.sender == playerWallet */\n    tag_149:\n        /* \"Project-3/Starter code/blackjack.sol\":2643:2807  require(houseWallet == address(0x0) || playerWallet == address(0x0) || msg.sender == houseWallet || msg.sender == playerWallet, \"Registration address is not valid\") */\n      tag_150\n      jumpi\n      mload(0x40)\n      0x08c379a000000000000000000000000000000000000000000000000000000000\n      dup2\n      mstore\n      0x04\n      add\n      tag_151\n      swap1\n      tag_152\n      jump\t// in\n    tag_151:\n      mload(0x40)\n      dup1\n      swap2\n      sub\n      swap1\n      revert\n    tag_150:\n        /* \"Project-3/Starter code/blackjack.sol\":2844:2845  0 */\n      0x00\n        /* \"Project-3/Starter code/blackjack.sol\":2825:2840  house_or_player */\n      dup2\n        /* \"Project-3/Starter code/blackjack.sol\":2825:2845  house_or_player == 0 */\n      eq\n        /* \"Project-3/Starter code/blackjack.sol\":2825:2869  house_or_player == 0 || house_or_player == 1 */\n      dup1\n      tag_153\n      jumpi\n      pop\n        /* \"Project-3/Starter code/blackjack.sol\":2868:2869  1 */\n      0x01\n        /* \"Project-3/Starter code/blackjack.sol\":2849:2864  house_or_player */\n      dup2\n        /* \"Project-3/Starter code/blackjack.sol\":2849:2869  house_or_player == 1 */\n      eq\n        /* \"Project-3/Starter code/blackjack.sol\":2825:2869  house_or_player == 0 || house_or_player == 1 */\n    tag_153:\n        /* \"Project-3/Starter code/blackjack.sol\":2817:2910  require(house_or_player == 0 || house_or_player == 1, \"Player must be house(0) or player(1)\") */\n      tag_154\n      jumpi\n      mload(0x40)\n      0x08c379a000000000000000000000000000000000000000000000000000000000\n      dup2\n      mstore\n      0x04\n      add\n      tag_155\n      swap1\n      tag_156\n      jump\t// in\n    tag_155:\n      mload(0x40)\n      dup1\n      swap2\n      sub\n      swap1\n      revert\n    tag_154:\n        /* \"Project-3/Starter code/blackjack.sol\":3082:3083  0 */\n      0x00\n        /* \"Project-3/Starter code/blackjack.sol\":3063:3078  house_or_player */\n      dup3\n        /* \"Project-3/Starter code/blackjack.sol\":3063:3083  house_or_player == 0 */\n      sub\n        /* \"Project-3/Starter code/blackjack.sol\":3059:3349  if (house_or_player == 0) {... */\n      tag_158\n      jumpi\n        /* \"Project-3/Starter code/blackjack.sol\":3135:3146  houseWallet */\n      0x62\n      0x00\n      swap1\n      sload\n      swap1\n      0x0100\n      exp\n      swap1\n      div\n      0xffffffffffffffffffffffffffffffffffffffff\n      and\n        /* \"Project-3/Starter code/blackjack.sol\":3121:3146  msg.sender == houseWallet */\n      0xffffffffffffffffffffffffffffffffffffffff\n      and\n        /* \"Project-3/Starter code/blackjack.sol\":3121:3131  msg.sender */\n      caller\n        /* \"Project-3/Starter code/blackjack.sol\":3121:3146  msg.sender == houseWallet */\n      0xffffffffffffffffffffffffffffffffffffffff\n      and\n      eq\n        /* \"Project-3/Starter code/blackjack.sol\":3121:3177  msg.sender == houseWallet || houseWallet == address(0x0) */\n      dup1\n      tag_159\n      jumpi\n      pop\n        /* \"Project-3/Starter code/blackjack.sol\":3173:3176  0x0 */\n      0x00\n        /* \"Project-3/Starter code/blackjack.sol\":3150:3177  houseWallet == address(0x0) */\n      0xffffffffffffffffffffffffffffffffffffffff\n      and\n        /* \"Project-3/Starter code/blackjack.sol\":3150:3161  houseWallet */\n      0x62\n      0x00\n      swap1\n      sload\n      swap1\n      0x0100\n      exp\n      swap1\n      div\n      0xffffffffffffffffffffffffffffffffffffffff\n      and\n        /* \"Project-3/Starter code/blackjack.sol\":3150:3177  houseWallet == address(0x0) */\n      0xffffffffffffffffffffffffffffffffffffffff\n      and\n      eq\n        /* \"Project-3/Starter code/blackjack.sol\":3121:3177  msg.sender == houseWallet || houseWallet == address(0x0) */\n    tag_159:\n        /* \"Project-3/Starter code/blackjack.sol\":3120:3208  (msg.sender == houseWallet || houseWallet == address(0x0)) && msg.sender != playerWallet */\n      dup1\n      iszero\n      tag_160\n      jumpi\n      pop\n        /* \"Project-3/Starter code/blackjack.sol\":3196:3208  playerWallet */\n      0x61\n      0x00\n      swap1\n      sload\n      swap1\n      0x0100\n      exp\n      swap1\n      div\n      0xffffffffffffffffffffffffffffffffffffffff\n      and\n        /* \"Project-3/Starter code/blackjack.sol\":3182:3208  msg.sender != playerWallet */\n      0xffffffffffffffffffffffffffffffffffffffff\n      and\n        /* \"Project-3/Starter code/blackjack.sol\":3182:3192  msg.sender */\n      caller\n        /* \"Project-3/Starter code/blackjack.sol\":3182:3208  msg.sender != playerWallet */\n      0xffffffffffffffffffffffffffffffffffffffff\n      and\n      eq\n      iszero\n        /* \"Project-3/Starter code/blackjack.sol\":3120:3208  (msg.sender == houseWallet || houseWallet == address(0x0)) && msg.sender != playerWallet */\n    tag_160:\n        /* \"Project-3/Starter code/blackjack.sol\":3112:3247  require((msg.sender == houseWallet || houseWallet == address(0x0)) && msg.sender != playerWallet, \"Sender address must be houseWallet\") */\n      tag_161\n      jumpi\n      mload(0x40)\n      0x08c379a000000000000000000000000000000000000000000000000000000000\n      dup2\n      mstore\n      0x04\n      add\n      tag_162\n      swap1\n      tag_163\n      jump\t// in\n    tag_162:\n      mload(0x40)\n      dup1\n      swap2\n      sub\n      swap1\n      revert\n    tag_161:\n        /* \"Project-3/Starter code/blackjack.sol\":3275:3285  msg.sender */\n      caller\n        /* \"Project-3/Starter code/blackjack.sol\":3261:3272  houseWallet */\n      0x62\n      0x00\n        /* \"Project-3/Starter code/blackjack.sol\":3261:3285  houseWallet = msg.sender */\n      0x0100\n      exp\n      dup2\n      sload\n      dup2\n      0xffffffffffffffffffffffffffffffffffffffff\n      mul\n      not\n      and\n      swap1\n      dup4\n      0xffffffffffffffffffffffffffffffffffffffff\n      and\n      mul\n      or\n      swap1\n      sstore\n      pop\n        /* \"Project-3/Starter code/blackjack.sol\":3329:3338  msg.value */\n      callvalue\n        /* \"Project-3/Starter code/blackjack.sol\":3314:3326  houseBalance */\n      sload(0x02)\n        /* \"Project-3/Starter code/blackjack.sol\":3314:3338  houseBalance + msg.value */\n      tag_164\n      swap2\n      swap1\n      tag_165\n      jump\t// in\n    tag_164:\n        /* \"Project-3/Starter code/blackjack.sol\":3299:3311  houseBalance */\n      0x02\n        /* \"Project-3/Starter code/blackjack.sol\":3299:3338  houseBalance = houseBalance + msg.value */\n      dup2\n      swap1\n      sstore\n      pop\n        /* \"Project-3/Starter code/blackjack.sol\":3059:3349  if (house_or_player == 0) {... */\n    tag_158:\n        /* \"Project-3/Starter code/blackjack.sol\":3382:3383  1 */\n      0x01\n        /* \"Project-3/Starter code/blackjack.sol\":3363:3378  house_or_player */\n      dup3\n        /* \"Project-3/Starter code/blackjack.sol\":3363:3383  house_or_player == 1 */\n      sub\n        /* \"Project-3/Starter code/blackjack.sol\":3359:3658  if (house_or_player == 1) {... */\n      tag_166\n      jumpi\n        /* \"Project-3/Starter code/blackjack.sol\":3423:3435  playerWallet */\n      0x61\n      0x00\n      swap1\n      sload\n      swap1\n      0x0100\n      exp\n      swap1\n      div\n      0xffffffffffffffffffffffffffffffffffffffff\n      and\n        /* \"Project-3/Starter code/blackjack.sol\":3409:3435  msg.sender == playerWallet */\n      0xffffffffffffffffffffffffffffffffffffffff\n      and\n        /* \"Project-3/Starter code/blackjack.sol\":3409:3419  msg.sender */\n      caller\n        /* \"Project-3/Starter code/blackjack.sol\":3409:3435  msg.sender == playerWallet */\n      0xffffffffffffffffffffffffffffffffffffffff\n      and\n      eq\n        /* \"Project-3/Starter code/blackjack.sol\":3409:3467  msg.sender == playerWallet || playerWallet == address(0x0) */\n      dup1\n      tag_167\n      jumpi\n      pop\n        /* \"Project-3/Starter code/blackjack.sol\":3463:3466  0x0 */\n      0x00\n        /* \"Project-3/Starter code/blackjack.sol\":3439:3467  playerWallet == address(0x0) */\n      0xffffffffffffffffffffffffffffffffffffffff\n      and\n        /* \"Project-3/Starter code/blackjack.sol\":3439:3451  playerWallet */\n      0x61\n      0x00\n      swap1\n      sload\n      swap1\n      0x0100\n      exp\n      swap1\n      div\n      0xffffffffffffffffffffffffffffffffffffffff\n      and\n        /* \"Project-3/Starter code/blackjack.sol\":3439:3467  playerWallet == address(0x0) */\n      0xffffffffffffffffffffffffffffffffffffffff\n      and\n      eq\n        /* \"Project-3/Starter code/blackjack.sol\":3409:3467  msg.sender == playerWallet || playerWallet == address(0x0) */\n    tag_167:\n        /* \"Project-3/Starter code/blackjack.sol\":3408:3497  (msg.sender == playerWallet || playerWallet == address(0x0)) && msg.sender != houseWallet */\n      dup1\n      iszero\n      tag_168\n      jumpi\n      pop\n        /* \"Project-3/Starter code/blackjack.sol\":3486:3497  houseWallet */\n      0x62\n      0x00\n      swap1\n      sload\n      swap1\n      0x0100\n      exp\n      swap1\n      div\n      0xffffffffffffffffffffffffffffffffffffffff\n      and\n        /* \"Project-3/Starter code/blackjack.sol\":3472:3497  msg.sender != houseWallet */\n      0xffffffffffffffffffffffffffffffffffffffff\n      and\n        /* \"Project-3/Starter code/blackjack.sol\":3472:3482  msg.sender */\n      caller\n        /* \"Project-3/Starter code/blackjack.sol\":3472:3497  msg.sender != houseWallet */\n      0xffffffffffffffffffffffffffffffffffffffff\n      and\n      eq\n      iszero\n        /* \"Project-3/Starter code/blackjack.sol\":3408:3497  (msg.sender == playerWallet || playerWallet == address(0x0)) && msg.sender != houseWallet */\n    tag_168:\n        /* \"Project-3/Starter code/blackjack.sol\":3400:3537  require((msg.sender == playerWallet || playerWallet == address(0x0)) && msg.sender != houseWallet, \"Sender address must be playerWallet\") */\n      tag_169\n      jumpi\n      mload(0x40)\n      0x08c379a000000000000000000000000000000000000000000000000000000000\n      dup2\n      mstore\n      0x04\n      add\n      tag_170\n      swap1\n      tag_171\n      jump\t// in\n    tag_170:\n      mload(0x40)\n      dup1\n      swap2\n      sub\n      swap1\n      revert\n    tag_169:\n        /* \"Project-3/Starter code/blackjack.sol\":3567:3577  msg.sender */\n      caller\n        /* \"Project-3/Starter code/blackjack.sol\":3551:3563  playerWallet */\n      0x61\n      0x00\n        /* \"Project-3/Starter code/blackjack.sol\":3551:3577  playerWallet  = msg.sender */\n      0x0100\n      exp\n      dup2\n      sload\n      dup2\n      0xffffffffffffffffffffffffffffffffffffffff\n      mul\n      not\n      and\n      swap1\n      dup4\n      0xffffffffffffffffffffffffffffffffffffffff\n      and\n      mul\n      or\n      swap1\n      sstore\n      pop\n        /* \"Project-3/Starter code/blackjack.sol\":3623:3632  msg.value */\n      callvalue\n        /* \"Project-3/Starter code/blackjack.sol\":3607:3620  playerBalance */\n      sload(0x03)\n        /* \"Project-3/Starter code/blackjack.sol\":3607:3632  playerBalance + msg.value */\n      tag_172\n      swap2\n      swap1\n      tag_165\n      jump\t// in\n    tag_172:\n        /* \"Project-3/Starter code/blackjack.sol\":3591:3604  playerBalance */\n      0x03\n        /* \"Project-3/Starter code/blackjack.sol\":3591:3632  playerBalance = playerBalance + msg.value */\n      dup2\n      swap1\n      sstore\n      pop\n        /* \"Project-3/Starter code/blackjack.sol\":3359:3658  if (house_or_player == 1) {... */\n    tag_166:\n        /* \"Project-3/Starter code/blackjack.sol\":2939:3664  function fundContract(uint house_or_player) public payable validPlayer(house_or_player) {... */\n      pop\n      pop\n      jump\t// out\n        /* \"Project-3/Starter code/blackjack.sol\":1036:1075  uint public playerStands            = 0 */\n    tag_57:\n      sload(0x5e)\n      dup2\n      jump\t// out\n        /* \"Project-3/Starter code/blackjack.sol\":131:170  uint public gameInProgress          = 0 */\n    tag_61:\n      sload(0x01)\n      dup2\n      jump\t// out\n        /* \"Project-3/Starter code/blackjack.sol\":700:733  uint[2][2] public dealerHandValue */\n    tag_66:\n      0x4c\n      dup3\n      0x02\n      dup2\n      lt\n      tag_173\n      jumpi\n      0x00\n      dup1\n      revert\n    tag_173:\n      0x02\n      mul\n      add\n      dup2\n      0x02\n      dup2\n      lt\n      tag_175\n      jumpi\n      0x00\n      dup1\n      revert\n    tag_175:\n      add\n      0x00\n      swap2\n      pop\n      swap2\n      pop\n      pop\n      sload\n      dup2\n      jump\t// out\n        /* \"Project-3/Starter code/blackjack.sol\":8145:9692  function deal() public mutex {... */\n    tag_70:\n        /* \"Project-3/Starter code/blackjack.sol\":2035:2041  locked */\n      0x00\n      dup1\n      sload\n      swap1\n      0x0100\n      exp\n      swap1\n      div\n      0xff\n      and\n        /* \"Project-3/Starter code/blackjack.sol\":2034:2041  !locked */\n      iszero\n        /* \"Project-3/Starter code/blackjack.sol\":2026:2068  require(!locked, \"Reentrancy not allowed\") */\n      tag_178\n      jumpi\n      mload(0x40)\n      0x08c379a000000000000000000000000000000000000000000000000000000000\n      dup2\n      mstore\n      0x04\n      add\n      tag_179\n      swap1\n      tag_138\n      jump\t// in\n    tag_179:\n      mload(0x40)\n      dup1\n      swap2\n      sub\n      swap1\n      revert\n    tag_178:\n        /* \"Project-3/Starter code/blackjack.sol\":2087:2091  true */\n      0x01\n        /* \"Project-3/Starter code/blackjack.sol\":2078:2084  locked */\n      0x00\n      dup1\n        /* \"Project-3/Starter code/blackjack.sol\":2078:2091  locked = true */\n      0x0100\n      exp\n      dup2\n      sload\n      dup2\n      0xff\n      mul\n      not\n      and\n      swap1\n      dup4\n      iszero\n      iszero\n      mul\n      or\n      swap1\n      sstore\n      pop\n        /* \"Project-3/Starter code/blackjack.sol\":8259:8260  1 */\n      0x01\n        /* \"Project-3/Starter code/blackjack.sol\":8242:8256  gameInProgress */\n      dup1\n        /* \"Project-3/Starter code/blackjack.sol\":8242:8260  gameInProgress = 1 */\n      dup2\n      swap1\n      sstore\n      pop\n        /* \"Project-3/Starter code/blackjack.sol\":8285:8286  0 */\n      0x00\n        /* \"Project-3/Starter code/blackjack.sol\":8270:8282  playerStands */\n      0x5e\n        /* \"Project-3/Starter code/blackjack.sol\":8270:8286  playerStands = 0 */\n      dup2\n      swap1\n      sstore\n      pop\n        /* \"Project-3/Starter code/blackjack.sol\":8311:8312  0 */\n      0x00\n        /* \"Project-3/Starter code/blackjack.sol\":8296:8308  playerBusted */\n      0x5a\n        /* \"Project-3/Starter code/blackjack.sol\":8296:8312  playerBusted = 0 */\n      dup2\n      swap1\n      sstore\n      pop\n        /* \"Project-3/Starter code/blackjack.sol\":8337:8338  0 */\n      0x00\n        /* \"Project-3/Starter code/blackjack.sol\":8322:8334  dealerBusted */\n      0x5b\n        /* \"Project-3/Starter code/blackjack.sol\":8322:8338  dealerBusted = 0 */\n      dup2\n      swap1\n      sstore\n      pop\n        /* \"Project-3/Starter code/blackjack.sol\":8363:8364  0 */\n      0x00\n        /* \"Project-3/Starter code/blackjack.sol\":8348:8360  playerStands */\n      0x5e\n        /* \"Project-3/Starter code/blackjack.sol\":8348:8364  playerStands = 0 */\n      dup2\n      swap1\n      sstore\n      pop\n        /* \"Project-3/Starter code/blackjack.sol\":8389:8390  0 */\n      0x00\n        /* \"Project-3/Starter code/blackjack.sol\":8374:8386  dealerStands */\n      0x5f\n        /* \"Project-3/Starter code/blackjack.sol\":8374:8390  dealerStands = 0 */\n      dup2\n      swap1\n      sstore\n      pop\n        /* \"Project-3/Starter code/blackjack.sol\":8419:8420  0 */\n      0x00\n        /* \"Project-3/Starter code/blackjack.sol\":8400:8416  finalDealerCount */\n      0x5d\n        /* \"Project-3/Starter code/blackjack.sol\":8400:8420  finalDealerCount = 0 */\n      dup2\n      swap1\n      sstore\n      pop\n        /* \"Project-3/Starter code/blackjack.sol\":8449:8450  0 */\n      0x00\n        /* \"Project-3/Starter code/blackjack.sol\":8430:8446  finalPlayerCount */\n      0x5c\n        /* \"Project-3/Starter code/blackjack.sol\":8430:8450  finalPlayerCount = 0 */\n      dup2\n      swap1\n      sstore\n      pop\n        /* \"Project-3/Starter code/blackjack.sol\":8484:8485  0 */\n      0x00\n        /* \"Project-3/Starter code/blackjack.sol\":8460:8475  playerHandValue */\n      0x48\n        /* \"Project-3/Starter code/blackjack.sol\":8476:8477  1 */\n      0x01\n        /* \"Project-3/Starter code/blackjack.sol\":8460:8478  playerHandValue[1] */\n      0x02\n      dup2\n      lt\n      tag_181\n      jumpi\n      tag_182\n      tag_183\n      jump\t// in\n    tag_182:\n    tag_181:\n      0x02\n      mul\n      add\n        /* \"Project-3/Starter code/blackjack.sol\":8479:8480  0 */\n      0x00\n        /* \"Project-3/Starter code/blackjack.sol\":8460:8481  playerHandValue[1][0] */\n      0x02\n      dup2\n      lt\n      tag_185\n      jumpi\n      tag_186\n      tag_183\n      jump\t// in\n    tag_186:\n    tag_185:\n      add\n        /* \"Project-3/Starter code/blackjack.sol\":8460:8485  playerHandValue[1][0] = 0 */\n      dup2\n      swap1\n      sstore\n      pop\n        /* \"Project-3/Starter code/blackjack.sol\":8519:8520  0 */\n      0x00\n        /* \"Project-3/Starter code/blackjack.sol\":8495:8510  playerHandValue */\n      0x48\n        /* \"Project-3/Starter code/blackjack.sol\":8511:8512  1 */\n      0x01\n        /* \"Project-3/Starter code/blackjack.sol\":8495:8513  playerHandValue[1] */\n      0x02\n      dup2\n      lt\n      tag_188\n      jumpi\n      tag_189\n      tag_183\n      jump\t// in\n    tag_189:\n    tag_188:\n      0x02\n      mul\n      add\n        /* \"Project-3/Starter code/blackjack.sol\":8514:8515  1 */\n      0x01\n        /* \"Project-3/Starter code/blackjack.sol\":8495:8516  playerHandValue[1][1] */\n      0x02\n      dup2\n      lt\n      tag_191\n      jumpi\n      tag_192\n      tag_183\n      jump\t// in\n    tag_192:\n    tag_191:\n      add\n        /* \"Project-3/Starter code/blackjack.sol\":8495:8520  playerHandValue[1][1] = 0 */\n      dup2\n      swap1\n      sstore\n      pop\n        /* \"Project-3/Starter code/blackjack.sol\":8623:8632  uint256 i */\n      0x00\n        /* \"Project-3/Starter code/blackjack.sol\":8635:8636  1 */\n      0x01\n        /* \"Project-3/Starter code/blackjack.sol\":8623:8636  uint256 i = 1 */\n      swap1\n      pop\n        /* \"Project-3/Starter code/blackjack.sol\":8618:8941  for (uint256 i = 1; i <= 15; i++) {  ... */\n    tag_194:\n        /* \"Project-3/Starter code/blackjack.sol\":8643:8645  15 */\n      0x0f\n        /* \"Project-3/Starter code/blackjack.sol\":8638:8639  i */\n      dup2\n        /* \"Project-3/Starter code/blackjack.sol\":8638:8645  i <= 15 */\n      gt\n        /* \"Project-3/Starter code/blackjack.sol\":8618:8941  for (uint256 i = 1; i <= 15; i++) {  ... */\n      tag_195\n      jumpi\n        /* \"Project-3/Starter code/blackjack.sol\":8702:8703  0 */\n      0x00\n        /* \"Project-3/Starter code/blackjack.sol\":8681:8693  playersCards */\n      0x08\n        /* \"Project-3/Starter code/blackjack.sol\":8694:8695  i */\n      dup3\n        /* \"Project-3/Starter code/blackjack.sol\":8681:8696  playersCards[i] */\n      0x10\n      dup2\n      lt\n      tag_197\n      jumpi\n      tag_198\n      tag_183\n      jump\t// in\n    tag_198:\n    tag_197:\n      0x02\n      mul\n      add\n        /* \"Project-3/Starter code/blackjack.sol\":8697:8698  0 */\n      0x00\n        /* \"Project-3/Starter code/blackjack.sol\":8681:8699  playersCards[i][0] */\n      0x02\n      dup2\n      lt\n      tag_200\n      jumpi\n      tag_201\n      tag_183\n      jump\t// in\n    tag_201:\n    tag_200:\n      add\n        /* \"Project-3/Starter code/blackjack.sol\":8681:8703  playersCards[i][0] = 0 */\n      dup2\n      swap1\n      sstore\n      pop\n        /* \"Project-3/Starter code/blackjack.sol\":8738:8739  0 */\n      0x00\n        /* \"Project-3/Starter code/blackjack.sol\":8717:8729  playersCards */\n      0x08\n        /* \"Project-3/Starter code/blackjack.sol\":8730:8731  i */\n      dup3\n        /* \"Project-3/Starter code/blackjack.sol\":8717:8732  playersCards[i] */\n      0x10\n      dup2\n      lt\n      tag_203\n      jumpi\n      tag_204\n      tag_183\n      jump\t// in\n    tag_204:\n    tag_203:\n      0x02\n      mul\n      add\n        /* \"Project-3/Starter code/blackjack.sol\":8733:8734  1 */\n      0x01\n        /* \"Project-3/Starter code/blackjack.sol\":8717:8735  playersCards[i][1] */\n      0x02\n      dup2\n      lt\n      tag_206\n      jumpi\n      tag_207\n      tag_183\n      jump\t// in\n    tag_207:\n    tag_206:\n      add\n        /* \"Project-3/Starter code/blackjack.sol\":8717:8739  playersCards[i][1] = 0 */\n      dup2\n      swap1\n      sstore\n      pop\n        /* \"Project-3/Starter code/blackjack.sol\":8774:8775  0 */\n      0x00\n        /* \"Project-3/Starter code/blackjack.sol\":8753:8765  dealersCards */\n      0x28\n        /* \"Project-3/Starter code/blackjack.sol\":8766:8767  i */\n      dup3\n        /* \"Project-3/Starter code/blackjack.sol\":8753:8768  dealersCards[i] */\n      0x10\n      dup2\n      lt\n      tag_209\n      jumpi\n      tag_210\n      tag_183\n      jump\t// in\n    tag_210:\n    tag_209:\n      0x02\n      mul\n      add\n        /* \"Project-3/Starter code/blackjack.sol\":8769:8770  0 */\n      0x00\n        /* \"Project-3/Starter code/blackjack.sol\":8753:8771  dealersCards[i][0] */\n      0x02\n      dup2\n      lt\n      tag_212\n      jumpi\n      tag_213\n      tag_183\n      jump\t// in\n    tag_213:\n    tag_212:\n      add\n        /* \"Project-3/Starter code/blackjack.sol\":8753:8775  dealersCards[i][0] = 0 */\n      dup2\n      swap1\n      sstore\n      pop\n        /* \"Project-3/Starter code/blackjack.sol\":8810:8811  0 */\n      0x00\n        /* \"Project-3/Starter code/blackjack.sol\":8789:8801  dealersCards */\n      0x28\n        /* \"Project-3/Starter code/blackjack.sol\":8802:8803  i */\n      dup3\n        /* \"Project-3/Starter code/blackjack.sol\":8789:8804  dealersCards[i] */\n      0x10\n      dup2\n      lt\n      tag_215\n      jumpi\n      tag_216\n      tag_183\n      jump\t// in\n    tag_216:\n    tag_215:\n      0x02\n      mul\n      add\n        /* \"Project-3/Starter code/blackjack.sol\":8805:8806  1 */\n      0x01\n        /* \"Project-3/Starter code/blackjack.sol\":8789:8807  dealersCards[i][1] */\n      0x02\n      dup2\n      lt\n      tag_218\n      jumpi\n      tag_219\n      tag_183\n      jump\t// in\n    tag_219:\n    tag_218:\n      add\n        /* \"Project-3/Starter code/blackjack.sol\":8789:8811  dealersCards[i][1] = 0 */\n      dup2\n      swap1\n      sstore\n      pop\n        /* \"Project-3/Starter code/blackjack.sol\":8834:8835  4 */\n      0x04\n        /* \"Project-3/Starter code/blackjack.sol\":8830:8831  i */\n      dup2\n        /* \"Project-3/Starter code/blackjack.sol\":8830:8835  i < 4 */\n      lt\n        /* \"Project-3/Starter code/blackjack.sol\":8826:8930  if (i < 4) {... */\n      iszero\n      tag_221\n      jumpi\n        /* \"Project-3/Starter code/blackjack.sol\":8875:8876  0 */\n      0x00\n        /* \"Project-3/Starter code/blackjack.sol\":8856:8866  dealtCards */\n      0x50\n        /* \"Project-3/Starter code/blackjack.sol\":8867:8868  i */\n      dup3\n        /* \"Project-3/Starter code/blackjack.sol\":8856:8869  dealtCards[i] */\n      0x04\n      dup2\n      lt\n      tag_222\n      jumpi\n      tag_223\n      tag_183\n      jump\t// in\n    tag_223:\n    tag_222:\n      0x02\n      mul\n      add\n        /* \"Project-3/Starter code/blackjack.sol\":8870:8871  0 */\n      0x00\n        /* \"Project-3/Starter code/blackjack.sol\":8856:8872  dealtCards[i][0] */\n      0x02\n      dup2\n      lt\n      tag_225\n      jumpi\n      tag_226\n      tag_183\n      jump\t// in\n    tag_226:\n    tag_225:\n      add\n        /* \"Project-3/Starter code/blackjack.sol\":8856:8876  dealtCards[i][0] = 0 */\n      dup2\n      swap1\n      sstore\n      pop\n        /* \"Project-3/Starter code/blackjack.sol\":8913:8914  0 */\n      0x00\n        /* \"Project-3/Starter code/blackjack.sol\":8894:8904  dealtCards */\n      0x50\n        /* \"Project-3/Starter code/blackjack.sol\":8905:8906  i */\n      dup3\n        /* \"Project-3/Starter code/blackjack.sol\":8894:8907  dealtCards[i] */\n      0x04\n      dup2\n      lt\n      tag_228\n      jumpi\n      tag_229\n      tag_183\n      jump\t// in\n    tag_229:\n    tag_228:\n      0x02\n      mul\n      add\n        /* \"Project-3/Starter code/blackjack.sol\":8908:8909  1 */\n      0x01\n        /* \"Project-3/Starter code/blackjack.sol\":8894:8910  dealtCards[i][1] */\n      0x02\n      dup2\n      lt\n      tag_231\n      jumpi\n      tag_232\n      tag_183\n      jump\t// in\n    tag_232:\n    tag_231:\n      add\n        /* \"Project-3/Starter code/blackjack.sol\":8894:8914  dealtCards[i][1] = 0 */\n      dup2\n      swap1\n      sstore\n      pop\n        /* \"Project-3/Starter code/blackjack.sol\":8826:8930  if (i < 4) {... */\n    tag_221:\n        /* \"Project-3/Starter code/blackjack.sol\":8647:8650  i++ */\n      dup1\n      dup1\n      tag_234\n      swap1\n      tag_235\n      jump\t// in\n    tag_234:\n      swap2\n      pop\n      pop\n        /* \"Project-3/Starter code/blackjack.sol\":8618:8941  for (uint256 i = 1; i <= 15; i++) {  ... */\n      jump(tag_194)\n    tag_195:\n      pop\n        /* \"Project-3/Starter code/blackjack.sol\":8953:8964  getCards(3) */\n      tag_236\n        /* \"Project-3/Starter code/blackjack.sol\":8962:8963  3 */\n      0x03\n        /* \"Project-3/Starter code/blackjack.sol\":8953:8961  getCards */\n      tag_237\n        /* \"Project-3/Starter code/blackjack.sol\":8953:8964  getCards(3) */\n      jump\t// in\n    tag_236:\n        /* \"Project-3/Starter code/blackjack.sol\":9065:9094  replaceDuplicates(dealtCards) */\n      tag_238\n        /* \"Project-3/Starter code/blackjack.sol\":9083:9093  dealtCards */\n      0x50\n        /* \"Project-3/Starter code/blackjack.sol\":9065:9094  replaceDuplicates(dealtCards) */\n      0x04\n      dup1\n      0x20\n      mul\n      mload(0x40)\n      swap1\n      dup2\n      add\n      0x40\n      mstore\n      dup1\n      swap3\n      swap2\n      swap1\n      0x00\n      swap1\n    tag_239:\n      dup3\n      dup3\n      lt\n      iszero\n      tag_240\n      jumpi\n      dup4\n      dup3\n      0x02\n      mul\n      add\n      0x02\n      dup1\n      0x20\n      mul\n      mload(0x40)\n      swap1\n      dup2\n      add\n      0x40\n      mstore\n      dup1\n      swap3\n      swap2\n      swap1\n      dup3\n      0x02\n      dup1\n      iszero\n      tag_242\n      jumpi\n      0x20\n      mul\n      dup3\n      add\n      swap2\n    tag_243:\n      dup2\n      sload\n      dup2\n      mstore\n      0x20\n      add\n      swap1\n      0x01\n      add\n      swap1\n      dup1\n      dup4\n      gt\n      tag_243\n      jumpi\n    tag_242:\n      pop\n      pop\n      pop\n      pop\n      pop\n      dup2\n      mstore\n      0x20\n      add\n      swap1\n      0x01\n      add\n      swap1\n      jump(tag_239)\n    tag_240:\n      pop\n      pop\n      pop\n      pop\n        /* \"Project-3/Starter code/blackjack.sol\":9065:9082  replaceDuplicates */\n      tag_244\n        /* \"Project-3/Starter code/blackjack.sol\":9065:9094  replaceDuplicates(dealtCards) */\n      jump\t// in\n    tag_238:\n        /* \"Project-3/Starter code/blackjack.sol\":9052:9062  dealtCards */\n      0x50\n        /* \"Project-3/Starter code/blackjack.sol\":9052:9094  dealtCards = replaceDuplicates(dealtCards) */\n      swap1\n      0x04\n      tag_245\n      swap3\n      swap2\n      swap1\n      tag_246\n      jump\t// in\n    tag_245:\n      pop\n        /* \"Project-3/Starter code/blackjack.sol\":9225:9276  pushToPlayer(dealtCards[1][0], dealtCards[1][1], 1) */\n      tag_247\n        /* \"Project-3/Starter code/blackjack.sol\":9238:9248  dealtCards */\n      0x50\n        /* \"Project-3/Starter code/blackjack.sol\":9249:9250  1 */\n      0x01\n        /* \"Project-3/Starter code/blackjack.sol\":9238:9251  dealtCards[1] */\n      0x04\n      dup2\n      lt\n      tag_248\n      jumpi\n      tag_249\n      tag_183\n      jump\t// in\n    tag_249:\n    tag_248:\n      0x02\n      mul\n      add\n        /* \"Project-3/Starter code/blackjack.sol\":9252:9253  0 */\n      0x00\n        /* \"Project-3/Starter code/blackjack.sol\":9238:9254  dealtCards[1][0] */\n      0x02\n      dup2\n      lt\n      tag_251\n      jumpi\n      tag_252\n      tag_183\n      jump\t// in\n    tag_252:\n    tag_251:\n      add\n      sload\n        /* \"Project-3/Starter code/blackjack.sol\":9256:9266  dealtCards */\n      0x50\n        /* \"Project-3/Starter code/blackjack.sol\":9267:9268  1 */\n      0x01\n        /* \"Project-3/Starter code/blackjack.sol\":9256:9269  dealtCards[1] */\n      0x04\n      dup2\n      lt\n      tag_254\n      jumpi\n      tag_255\n      tag_183\n      jump\t// in\n    tag_255:\n    tag_254:\n      0x02\n      mul\n      add\n        /* \"Project-3/Starter code/blackjack.sol\":9270:9271  1 */\n      0x01\n        /* \"Project-3/Starter code/blackjack.sol\":9256:9272  dealtCards[1][1] */\n      0x02\n      dup2\n      lt\n      tag_257\n      jumpi\n      tag_258\n      tag_183\n      jump\t// in\n    tag_258:\n    tag_257:\n      add\n      sload\n        /* \"Project-3/Starter code/blackjack.sol\":9274:9275  1 */\n      0x01\n        /* \"Project-3/Starter code/blackjack.sol\":9225:9237  pushToPlayer */\n      tag_260\n        /* \"Project-3/Starter code/blackjack.sol\":9225:9276  pushToPlayer(dealtCards[1][0], dealtCards[1][1], 1) */\n      jump\t// in\n    tag_247:\n        /* \"Project-3/Starter code/blackjack.sol\":9286:9337  pushToDealer(dealtCards[2][0], dealtCards[2][1], 1) */\n      tag_261\n        /* \"Project-3/Starter code/blackjack.sol\":9299:9309  dealtCards */\n      0x50\n        /* \"Project-3/Starter code/blackjack.sol\":9310:9311  2 */\n      0x02\n        /* \"Project-3/Starter code/blackjack.sol\":9299:9312  dealtCards[2] */\n      0x04\n      dup2\n      lt\n      tag_262\n      jumpi\n      tag_263\n      tag_183\n      jump\t// in\n    tag_263:\n    tag_262:\n      0x02\n      mul\n      add\n        /* \"Project-3/Starter code/blackjack.sol\":9313:9314  0 */\n      0x00\n        /* \"Project-3/Starter code/blackjack.sol\":9299:9315  dealtCards[2][0] */\n      0x02\n      dup2\n      lt\n      tag_265\n      jumpi\n      tag_266\n      tag_183\n      jump\t// in\n    tag_266:\n    tag_265:\n      add\n      sload\n        /* \"Project-3/Starter code/blackjack.sol\":9317:9327  dealtCards */\n      0x50\n        /* \"Project-3/Starter code/blackjack.sol\":9328:9329  2 */\n      0x02\n        /* \"Project-3/Starter code/blackjack.sol\":9317:9330  dealtCards[2] */\n      0x04\n      dup2\n      lt\n      tag_268\n      jumpi\n      tag_269\n      tag_183\n      jump\t// in\n    tag_269:\n    tag_268:\n      0x02\n      mul\n      add\n        /* \"Project-3/Starter code/blackjack.sol\":9331:9332  1 */\n      0x01\n        /* \"Project-3/Starter code/blackjack.sol\":9317:9333  dealtCards[2][1] */\n      0x02\n      dup2\n      lt\n      tag_271\n      jumpi\n      tag_272\n      tag_183\n      jump\t// in\n    tag_272:\n    tag_271:\n      add\n      sload\n        /* \"Project-3/Starter code/blackjack.sol\":9335:9336  1 */\n      0x01\n        /* \"Project-3/Starter code/blackjack.sol\":9286:9298  pushToDealer */\n      tag_274\n        /* \"Project-3/Starter code/blackjack.sol\":9286:9337  pushToDealer(dealtCards[2][0], dealtCards[2][1], 1) */\n      jump\t// in\n    tag_261:\n        /* \"Project-3/Starter code/blackjack.sol\":9347:9398  pushToPlayer(dealtCards[3][0], dealtCards[3][1], 2) */\n      tag_275\n        /* \"Project-3/Starter code/blackjack.sol\":9360:9370  dealtCards */\n      0x50\n        /* \"Project-3/Starter code/blackjack.sol\":9371:9372  3 */\n      0x03\n        /* \"Project-3/Starter code/blackjack.sol\":9360:9373  dealtCards[3] */\n      0x04\n      dup2\n      lt\n      tag_276\n      jumpi\n      tag_277\n      tag_183\n      jump\t// in\n    tag_277:\n    tag_276:\n      0x02\n      mul\n      add\n        /* \"Project-3/Starter code/blackjack.sol\":9374:9375  0 */\n      0x00\n        /* \"Project-3/Starter code/blackjack.sol\":9360:9376  dealtCards[3][0] */\n      0x02\n      dup2\n      lt\n      tag_279\n      jumpi\n      tag_280\n      tag_183\n      jump\t// in\n    tag_280:\n    tag_279:\n      add\n      sload\n        /* \"Project-3/Starter code/blackjack.sol\":9378:9388  dealtCards */\n      0x50\n        /* \"Project-3/Starter code/blackjack.sol\":9389:9390  3 */\n      0x03\n        /* \"Project-3/Starter code/blackjack.sol\":9378:9391  dealtCards[3] */\n      0x04\n      dup2\n      lt\n      tag_282\n      jumpi\n      tag_283\n      tag_183\n      jump\t// in\n    tag_283:\n    tag_282:\n      0x02\n      mul\n      add\n        /* \"Project-3/Starter code/blackjack.sol\":9392:9393  1 */\n      0x01\n        /* \"Project-3/Starter code/blackjack.sol\":9378:9394  dealtCards[3][1] */\n      0x02\n      dup2\n      lt\n      tag_285\n      jumpi\n      tag_286\n      tag_183\n      jump\t// in\n    tag_286:\n    tag_285:\n      add\n      sload\n        /* \"Project-3/Starter code/blackjack.sol\":9396:9397  2 */\n      0x02\n        /* \"Project-3/Starter code/blackjack.sol\":9347:9359  pushToPlayer */\n      tag_260\n        /* \"Project-3/Starter code/blackjack.sol\":9347:9398  pushToPlayer(dealtCards[3][0], dealtCards[3][1], 2) */\n      jump\t// in\n    tag_275:\n        /* \"Project-3/Starter code/blackjack.sol\":9408:9425  sumPlayersCards() */\n      tag_288\n        /* \"Project-3/Starter code/blackjack.sol\":9408:9423  sumPlayersCards */\n      tag_289\n        /* \"Project-3/Starter code/blackjack.sol\":9408:9425  sumPlayersCards() */\n      jump\t// in\n    tag_288:\n        /* \"Project-3/Starter code/blackjack.sol\":9435:9452  sumDealersCards() */\n      tag_290\n        /* \"Project-3/Starter code/blackjack.sol\":9435:9450  sumDealersCards */\n      tag_291\n        /* \"Project-3/Starter code/blackjack.sol\":9435:9452  sumDealersCards() */\n      jump\t// in\n    tag_290:\n        /* \"Project-3/Starter code/blackjack.sol\":9462:9482  evaluateDealerHand() */\n      tag_292\n        /* \"Project-3/Starter code/blackjack.sol\":9462:9480  evaluateDealerHand */\n      tag_293\n        /* \"Project-3/Starter code/blackjack.sol\":9462:9482  evaluateDealerHand() */\n      jump\t// in\n    tag_292:\n        /* \"Project-3/Starter code/blackjack.sol\":9494:9514  evaluatePlayerHand() */\n      tag_294\n        /* \"Project-3/Starter code/blackjack.sol\":9494:9512  evaluatePlayerHand */\n      tag_295\n        /* \"Project-3/Starter code/blackjack.sol\":9494:9514  evaluatePlayerHand() */\n      jump\t// in\n    tag_294:\n        /* \"Project-3/Starter code/blackjack.sol\":9556:9558  21 */\n      0x15\n        /* \"Project-3/Starter code/blackjack.sol\":9531:9546  playerHandValue */\n      0x48\n        /* \"Project-3/Starter code/blackjack.sol\":9547:9548  1 */\n      0x01\n        /* \"Project-3/Starter code/blackjack.sol\":9531:9549  playerHandValue[1] */\n      0x02\n      dup2\n      lt\n      tag_296\n      jumpi\n      tag_297\n      tag_183\n      jump\t// in\n    tag_297:\n    tag_296:\n      0x02\n      mul\n      add\n        /* \"Project-3/Starter code/blackjack.sol\":9550:9551  1 */\n      0x01\n        /* \"Project-3/Starter code/blackjack.sol\":9531:9552  playerHandValue[1][1] */\n      0x02\n      dup2\n      lt\n      tag_299\n      jumpi\n      tag_300\n      tag_183\n      jump\t// in\n    tag_300:\n    tag_299:\n      add\n      sload\n        /* \"Project-3/Starter code/blackjack.sol\":9531:9558  playerHandValue[1][1] == 21 */\n      sub\n        /* \"Project-3/Starter code/blackjack.sol\":9527:9676  if (playerHandValue[1][1] == 21) {   // Evaluates if player is dealt blackjack.  If TRUE, game is ended.... */\n      tag_302\n      jumpi\n        /* \"Project-3/Starter code/blackjack.sol\":9645:9665  playerHasBlackJack() */\n      tag_303\n        /* \"Project-3/Starter code/blackjack.sol\":9645:9663  playerHasBlackJack */\n      tag_304\n        /* \"Project-3/Starter code/blackjack.sol\":9645:9665  playerHasBlackJack() */\n      jump\t// in\n    tag_303:\n        /* \"Project-3/Starter code/blackjack.sol\":9527:9676  if (playerHandValue[1][1] == 21) {   // Evaluates if player is dealt blackjack.  If TRUE, game is ended.... */\n    tag_302:\n        /* \"Project-3/Starter code/blackjack.sol\":2121:2126  false */\n      0x00\n        /* \"Project-3/Starter code/blackjack.sol\":2112:2118  locked */\n      dup1\n      0x00\n        /* \"Project-3/Starter code/blackjack.sol\":2112:2126  locked = false */\n      0x0100\n      exp\n      dup2\n      sload\n      dup2\n      0xff\n      mul\n      not\n      and\n      swap1\n      dup4\n      iszero\n      iszero\n      mul\n      or\n      swap1\n      sstore\n      pop\n        /* \"Project-3/Starter code/blackjack.sol\":8145:9692  function deal() public mutex {... */\n      jump\t// out\n        /* \"Project-3/Starter code/blackjack.sol\":4130:4321  function playerWithdraw(uint amount) public payable canPlayerWithdraw(amount) mutex() {... */\n    tag_73:\n        /* \"Project-3/Starter code/blackjack.sol\":4200:4206  amount */\n      dup1\n        /* \"Project-3/Starter code/blackjack.sol\":3780:3781  0 */\n      0x00\n        /* \"Project-3/Starter code/blackjack.sol\":3764:3777  playerBalance */\n      sload(0x03)\n        /* \"Project-3/Starter code/blackjack.sol\":3764:3781  playerBalance > 0 */\n      gt\n        /* \"Project-3/Starter code/blackjack.sol\":3756:3819  require(playerBalance > 0, \"Player has no balance to withdraw\") */\n      tag_306\n      jumpi\n      mload(0x40)\n      0x08c379a000000000000000000000000000000000000000000000000000000000\n      dup2\n      mstore\n      0x04\n      add\n      tag_307\n      swap1\n      tag_308\n      jump\t// in\n    tag_307:\n      mload(0x40)\n      dup1\n      swap2\n      sub\n      swap1\n      revert\n    tag_306:\n        /* \"Project-3/Starter code/blackjack.sol\":3851:3863  playerWallet */\n      0x61\n      0x00\n      swap1\n      sload\n      swap1\n      0x0100\n      exp\n      swap1\n      div\n      0xffffffffffffffffffffffffffffffffffffffff\n      and\n        /* \"Project-3/Starter code/blackjack.sol\":3837:3863  msg.sender == playerWallet */\n      0xffffffffffffffffffffffffffffffffffffffff\n      and\n        /* \"Project-3/Starter code/blackjack.sol\":3837:3847  msg.sender */\n      caller\n        /* \"Project-3/Starter code/blackjack.sol\":3837:3863  msg.sender == playerWallet */\n      0xffffffffffffffffffffffffffffffffffffffff\n      and\n      eq\n        /* \"Project-3/Starter code/blackjack.sol\":3829:3910  require(msg.sender == playerWallet, \"Only player can use this function withdraw\") */\n      tag_309\n      jumpi\n      mload(0x40)\n      0x08c379a000000000000000000000000000000000000000000000000000000000\n      dup2\n      mstore\n      0x04\n      add\n      tag_310\n      swap1\n      tag_311\n      jump\t// in\n    tag_310:\n      mload(0x40)\n      dup1\n      swap2\n      sub\n      swap1\n      revert\n    tag_309:\n        /* \"Project-3/Starter code/blackjack.sol\":3938:3951  playerBalance */\n      sload(0x03)\n        /* \"Project-3/Starter code/blackjack.sol\":3928:3934  amount */\n      dup2\n        /* \"Project-3/Starter code/blackjack.sol\":3928:3951  amount <= playerBalance */\n      gt\n      iszero\n        /* \"Project-3/Starter code/blackjack.sol\":3920:4011  require(amount <= playerBalance, \"You are requesting more than the player wallet contains\") */\n      tag_312\n      jumpi\n      mload(0x40)\n      0x08c379a000000000000000000000000000000000000000000000000000000000\n      dup2\n      mstore\n      0x04\n      add\n      tag_313\n      swap1\n      tag_314\n      jump\t// in\n    tag_313:\n      mload(0x40)\n      dup1\n      swap2\n      sub\n      swap1\n      revert\n    tag_312:\n        /* \"Project-3/Starter code/blackjack.sol\":2035:2041  locked */\n      0x00\n      dup1\n      sload\n      swap1\n      0x0100\n      exp\n      swap1\n      div\n      0xff\n      and\n        /* \"Project-3/Starter code/blackjack.sol\":2034:2041  !locked */\n      iszero\n        /* \"Project-3/Starter code/blackjack.sol\":2026:2068  require(!locked, \"Reentrancy not allowed\") */\n      tag_316\n      jumpi\n      mload(0x40)\n      0x08c379a000000000000000000000000000000000000000000000000000000000\n      dup2\n      mstore\n      0x04\n      add\n      tag_317\n      swap1\n      tag_138\n      jump\t// in\n    tag_317:\n      mload(0x40)\n      dup1\n      swap2\n      sub\n      swap1\n      revert\n    tag_316:\n        /* \"Project-3/Starter code/blackjack.sol\":2087:2091  true */\n      0x01\n        /* \"Project-3/Starter code/blackjack.sol\":2078:2084  locked */\n      0x00\n      dup1\n        /* \"Project-3/Starter code/blackjack.sol\":2078:2091  locked = true */\n      0x0100\n      exp\n      dup2\n      sload\n      dup2\n      0xff\n      mul\n      not\n      and\n      swap1\n      dup4\n      iszero\n      iszero\n      mul\n      or\n      swap1\n      sstore\n      pop\n        /* \"Project-3/Starter code/blackjack.sol\":4259:4265  amount */\n      dup2\n        /* \"Project-3/Starter code/blackjack.sol\":4243:4256  playerBalance */\n      sload(0x03)\n        /* \"Project-3/Starter code/blackjack.sol\":4243:4265  playerBalance - amount */\n      tag_319\n      swap2\n      swap1\n      tag_141\n      jump\t// in\n    tag_319:\n        /* \"Project-3/Starter code/blackjack.sol\":4227:4240  playerBalance */\n      0x03\n        /* \"Project-3/Starter code/blackjack.sol\":4227:4265  playerBalance = playerBalance - amount */\n      dup2\n      swap1\n      sstore\n      pop\n        /* \"Project-3/Starter code/blackjack.sol\":4283:4295  playerWallet */\n      0x61\n      0x00\n      swap1\n      sload\n      swap1\n      0x0100\n      exp\n      swap1\n      div\n      0xffffffffffffffffffffffffffffffffffffffff\n      and\n        /* \"Project-3/Starter code/blackjack.sol\":4275:4305  payable(playerWallet).transfer */\n      0xffffffffffffffffffffffffffffffffffffffff\n      and\n        /* \"Project-3/Starter code/blackjack.sol\":4275:4313  payable(playerWallet).transfer(amount) */\n      0x08fc\n        /* \"Project-3/Starter code/blackjack.sol\":4306:4312  amount */\n      dup4\n        /* \"Project-3/Starter code/blackjack.sol\":4275:4313  payable(playerWallet).transfer(amount) */\n      swap1\n      dup2\n      iszero\n      mul\n      swap1\n      mload(0x40)\n      0x00\n      mload(0x40)\n      dup1\n      dup4\n      sub\n      dup2\n      dup6\n      dup9\n      dup9\n      call\n      swap4\n      pop\n      pop\n      pop\n      pop\n      iszero\n      dup1\n      iszero\n      tag_321\n      jumpi\n      returndatasize\n      0x00\n      dup1\n      returndatacopy\n      revert(0x00, returndatasize)\n    tag_321:\n      pop\n        /* \"Project-3/Starter code/blackjack.sol\":2121:2126  false */\n      0x00\n        /* \"Project-3/Starter code/blackjack.sol\":2112:2118  locked */\n      dup1\n      0x00\n        /* \"Project-3/Starter code/blackjack.sol\":2112:2126  locked = false */\n      0x0100\n      exp\n      dup2\n      sload\n      dup2\n      0xff\n      mul\n      not\n      and\n      swap1\n      dup4\n      iszero\n      iszero\n      mul\n      or\n      swap1\n      sstore\n      pop\n        /* \"Project-3/Starter code/blackjack.sol\":4130:4321  function playerWithdraw(uint amount) public payable canPlayerWithdraw(amount) mutex() {... */\n      pop\n      pop\n      jump\t// out\n        /* \"Project-3/Starter code/blackjack.sol\":362:401  uint public playerBalance           = 0 */\n    tag_76:\n      sload(0x03)\n      dup2\n      jump\t// out\n        /* \"Project-3/Starter code/blackjack.sol\":317:356  uint public houseBalance            = 0 */\n    tag_80:\n      sload(0x02)\n      dup2\n      jump\t// out\n        /* \"Project-3/Starter code/blackjack.sol\":766:805  uint public playerCardCount         = 0 */\n    tag_84:\n      sload(0x58)\n      dup2\n      jump\t// out\n        /* \"Project-3/Starter code/blackjack.sol\":624:655  uint[2][16] public dealersCards */\n    tag_89:\n      0x28\n      dup3\n      0x10\n      dup2\n      lt\n      tag_322\n      jumpi\n      0x00\n      dup1\n      revert\n    tag_322:\n      0x02\n      mul\n      add\n      dup2\n      0x02\n      dup2\n      lt\n      tag_324\n      jumpi\n      0x00\n      dup1\n      revert\n    tag_324:\n      add\n      0x00\n      swap2\n      pop\n      swap2\n      pop\n      pop\n      sload\n      dup2\n      jump\t// out\n        /* \"Project-3/Starter code/blackjack.sol\":811:850  uint public dealerCardCount         = 0 */\n    tag_93:\n      sload(0x59)\n      dup2\n      jump\t// out\n        /* \"Project-3/Starter code/blackjack.sol\":1081:1120  uint public dealerStands            = 0 */\n    tag_97:\n      sload(0x5f)\n      dup2\n      jump\t// out\n        /* \"Project-3/Starter code/blackjack.sol\":587:618  uint[2][16] public playersCards */\n    tag_102:\n      0x08\n      dup3\n      0x10\n      dup2\n      lt\n      tag_326\n      jumpi\n      0x00\n      dup1\n      revert\n    tag_326:\n      0x02\n      mul\n      add\n      dup2\n      0x02\n      dup2\n      lt\n      tag_328\n      jumpi\n      0x00\n      dup1\n      revert\n    tag_328:\n      add\n      0x00\n      swap2\n      pop\n      swap2\n      pop\n      pop\n      sload\n      dup2\n      jump\t// out\n        /* \"Project-3/Starter code/blackjack.sol\":901:940  uint public dealerBusted            = 0 */\n    tag_106:\n      sload(0x5b)\n      dup2\n      jump\t// out\n        /* \"Project-3/Starter code/blackjack.sol\":15935:16081  function playerStand() public didPlayerStand() _playerBusted() _gameInProgress() {... */\n    tag_110:\n        /* \"Project-3/Starter code/blackjack.sol\":15881:15882  0 */\n      0x00\n        /* \"Project-3/Starter code/blackjack.sol\":15865:15877  playerStands */\n      sload(0x5e)\n        /* \"Project-3/Starter code/blackjack.sol\":15865:15882  playerStands == 0 */\n      eq\n        /* \"Project-3/Starter code/blackjack.sol\":15857:15911  require(playerStands == 0, \"Player has already stood\") */\n      tag_331\n      jumpi\n      mload(0x40)\n      0x08c379a000000000000000000000000000000000000000000000000000000000\n      dup2\n      mstore\n      0x04\n      add\n      tag_332\n      swap1\n      tag_333\n      jump\t// in\n    tag_332:\n      mload(0x40)\n      dup1\n      swap2\n      sub\n      swap1\n      revert\n    tag_331:\n        /* \"Project-3/Starter code/blackjack.sol\":9874:9875  0 */\n      0x00\n        /* \"Project-3/Starter code/blackjack.sol\":9858:9870  playerBusted */\n      sload(0x5a)\n        /* \"Project-3/Starter code/blackjack.sol\":9858:9875  playerBusted == 0 */\n      eq\n        /* \"Project-3/Starter code/blackjack.sol\":9850:9901  require(playerBusted == 0, \"You've already busted\") */\n      tag_335\n      jumpi\n      mload(0x40)\n      0x08c379a000000000000000000000000000000000000000000000000000000000\n      dup2\n      mstore\n      0x04\n      add\n      tag_336\n      swap1\n      tag_337\n      jump\t// in\n    tag_336:\n      mload(0x40)\n      dup1\n      swap2\n      sub\n      swap1\n      revert\n    tag_335:\n        /* \"Project-3/Starter code/blackjack.sol\":9761:9762  1 */\n      0x01\n        /* \"Project-3/Starter code/blackjack.sol\":9743:9757  gameInProgress */\n      dup1\n      sload\n        /* \"Project-3/Starter code/blackjack.sol\":9743:9762  gameInProgress == 1 */\n      eq\n        /* \"Project-3/Starter code/blackjack.sol\":9735:9791  require(gameInProgress == 1, \"Game must be in progress\") */\n      tag_339\n      jumpi\n      mload(0x40)\n      0x08c379a000000000000000000000000000000000000000000000000000000000\n      dup2\n      mstore\n      0x04\n      add\n      tag_340\n      swap1\n      tag_341\n      jump\t// in\n    tag_340:\n      mload(0x40)\n      dup1\n      swap2\n      sub\n      swap1\n      revert\n    tag_339:\n        /* \"Project-3/Starter code/blackjack.sol\":16042:16043  1 */\n      0x01\n        /* \"Project-3/Starter code/blackjack.sol\":16027:16039  playerStands */\n      0x5e\n        /* \"Project-3/Starter code/blackjack.sol\":16027:16043  playerStands = 1 */\n      dup2\n      swap1\n      sstore\n      pop\n        /* \"Project-3/Starter code/blackjack.sol\":16053:16073  evaluatePlayerHand() */\n      tag_343\n        /* \"Project-3/Starter code/blackjack.sol\":16053:16071  evaluatePlayerHand */\n      tag_295\n        /* \"Project-3/Starter code/blackjack.sol\":16053:16073  evaluatePlayerHand() */\n      jump\t// in\n    tag_343:\n        /* \"Project-3/Starter code/blackjack.sol\":15935:16081  function playerStand() public didPlayerStand() _playerBusted() _gameInProgress() {... */\n      jump\t// out\n        /* \"Project-3/Starter code/blackjack.sol\":946:985  uint public finalPlayerCount        = 0 */\n    tag_113:\n      sload(0x5c)\n      dup2\n      jump\t// out\n        /* \"Project-3/Starter code/blackjack.sol\":247:292  uint constant public BET_MAX        = 1 ether */\n    tag_117:\n        /* \"Project-3/Starter code/blackjack.sol\":285:292  1 ether */\n      0x0de0b6b3a7640000\n        /* \"Project-3/Starter code/blackjack.sol\":247:292  uint constant public BET_MAX        = 1 ether */\n      dup2\n      jump\t// out\n        /* \"Project-3/Starter code/blackjack.sol\":407:446  uint public betAmount               = 0 */\n    tag_121:\n      sload(0x04)\n      dup2\n      jump\t// out\n        /* \"Project-3/Starter code/blackjack.sol\":9998:10619  function hitPlayer() public _gameInProgress() _playerBusted() didPlayerStand() {... */\n    tag_125:\n        /* \"Project-3/Starter code/blackjack.sol\":9761:9762  1 */\n      0x01\n        /* \"Project-3/Starter code/blackjack.sol\":9743:9757  gameInProgress */\n      dup1\n      sload\n        /* \"Project-3/Starter code/blackjack.sol\":9743:9762  gameInProgress == 1 */\n      eq\n        /* \"Project-3/Starter code/blackjack.sol\":9735:9791  require(gameInProgress == 1, \"Game must be in progress\") */\n      tag_345\n      jumpi\n      mload(0x40)\n      0x08c379a000000000000000000000000000000000000000000000000000000000\n      dup2\n      mstore\n      0x04\n      add\n      tag_346\n      swap1\n      tag_341\n      jump\t// in\n    tag_346:\n      mload(0x40)\n      dup1\n      swap2\n      sub\n      swap1\n      revert\n    tag_345:\n        /* \"Project-3/Starter code/blackjack.sol\":9874:9875  0 */\n      0x00\n        /* \"Project-3/Starter code/blackjack.sol\":9858:9870  playerBusted */\n      sload(0x5a)\n        /* \"Project-3/Starter code/blackjack.sol\":9858:9875  playerBusted == 0 */\n      eq\n        /* \"Project-3/Starter code/blackjack.sol\":9850:9901  require(playerBusted == 0, \"You've already busted\") */\n      tag_348\n      jumpi\n      mload(0x40)\n      0x08c379a000000000000000000000000000000000000000000000000000000000\n      dup2\n      mstore\n      0x04\n      add\n      tag_349\n      swap1\n      tag_337\n      jump\t// in\n    tag_349:\n      mload(0x40)\n      dup1\n      swap2\n      sub\n      swap1\n      revert\n    tag_348:\n        /* \"Project-3/Starter code/blackjack.sol\":15881:15882  0 */\n      0x00\n        /* \"Project-3/Starter code/blackjack.sol\":15865:15877  playerStands */\n      sload(0x5e)\n        /* \"Project-3/Starter code/blackjack.sol\":15865:15882  playerStands == 0 */\n      eq\n        /* \"Project-3/Starter code/blackjack.sol\":15857:15911  require(playerStands == 0, \"Player has already stood\") */\n      tag_351\n      jumpi\n      mload(0x40)\n      0x08c379a000000000000000000000000000000000000000000000000000000000\n      dup2\n      mstore\n      0x04\n      add\n      tag_352\n      swap1\n      tag_333\n      jump\t// in\n    tag_352:\n      mload(0x40)\n      dup1\n      swap2\n      sub\n      swap1\n      revert\n    tag_351:\n        /* \"Project-3/Starter code/blackjack.sol\":10096:10106  uint index */\n      0x00\n        /* \"Project-3/Starter code/blackjack.sol\":10109:10138  numCardsInArray(playersCards) */\n      tag_354\n        /* \"Project-3/Starter code/blackjack.sol\":10125:10137  playersCards */\n      0x08\n        /* \"Project-3/Starter code/blackjack.sol\":10109:10138  numCardsInArray(playersCards) */\n      0x10\n      dup1\n      0x20\n      mul\n      mload(0x40)\n      swap1\n      dup2\n      add\n      0x40\n      mstore\n      dup1\n      swap3\n      swap2\n      swap1\n      0x00\n      swap1\n    tag_355:\n      dup3\n      dup3\n      lt\n      iszero\n      tag_356\n      jumpi\n      dup4\n      dup3\n      0x02\n      mul\n      add\n      0x02\n      dup1\n      0x20\n      mul\n      mload(0x40)\n      swap1\n      dup2\n      add\n      0x40\n      mstore\n      dup1\n      swap3\n      swap2\n      swap1\n      dup3\n      0x02\n      dup1\n      iszero\n      tag_358\n      jumpi\n      0x20\n      mul\n      dup3\n      add\n      swap2\n    tag_359:\n      dup2\n      sload\n      dup2\n      mstore\n      0x20\n      add\n      swap1\n      0x01\n      add\n      swap1\n      dup1\n      dup4\n      gt\n      tag_359\n      jumpi\n    tag_358:\n      pop\n      pop\n      pop\n      pop\n      pop\n      dup2\n      mstore\n      0x20\n      add\n      swap1\n      0x01\n      add\n      swap1\n      jump(tag_355)\n    tag_356:\n      pop\n      pop\n      pop\n      pop\n        /* \"Project-3/Starter code/blackjack.sol\":10109:10124  numCardsInArray */\n      tag_360\n        /* \"Project-3/Starter code/blackjack.sol\":10109:10138  numCardsInArray(playersCards) */\n      jump\t// in\n    tag_354:\n        /* \"Project-3/Starter code/blackjack.sol\":10096:10138  uint index = numCardsInArray(playersCards) */\n      swap1\n      pop\n        /* \"Project-3/Starter code/blackjack.sol\":10148:10159  getCards(1) */\n      tag_361\n        /* \"Project-3/Starter code/blackjack.sol\":10157:10158  1 */\n      0x01\n        /* \"Project-3/Starter code/blackjack.sol\":10148:10156  getCards */\n      tag_237\n        /* \"Project-3/Starter code/blackjack.sol\":10148:10159  getCards(1) */\n      jump\t// in\n    tag_361:\n        /* \"Project-3/Starter code/blackjack.sol\":10183:10192  uint256 i */\n      0x00\n        /* \"Project-3/Starter code/blackjack.sol\":10195:10196  1 */\n      0x01\n        /* \"Project-3/Starter code/blackjack.sol\":10183:10196  uint256 i = 1 */\n      swap1\n      pop\n        /* \"Project-3/Starter code/blackjack.sol\":10178:10474  for (uint256 i = 1; i <= 11; i++) {... */\n    tag_362:\n        /* \"Project-3/Starter code/blackjack.sol\":10203:10205  11 */\n      0x0b\n        /* \"Project-3/Starter code/blackjack.sol\":10198:10199  i */\n      dup2\n        /* \"Project-3/Starter code/blackjack.sol\":10198:10205  i <= 11 */\n      gt\n        /* \"Project-3/Starter code/blackjack.sol\":10178:10474  for (uint256 i = 1; i <= 11; i++) {... */\n      tag_363\n      jumpi\n        /* \"Project-3/Starter code/blackjack.sol\":10227:10464  while (((playersCards[i][0] == dealtCards[1][0])  &&  (playersCards[i][0] == dealtCards[1][1])) || ((dealersCards[i][0] == dealtCards[1][0]) && (dealersCards[i][1] == dealtCards[1][1]))) {... */\n    tag_365:\n        /* \"Project-3/Starter code/blackjack.sol\":10258:10268  dealtCards */\n      0x50\n        /* \"Project-3/Starter code/blackjack.sol\":10269:10270  1 */\n      0x01\n        /* \"Project-3/Starter code/blackjack.sol\":10258:10271  dealtCards[1] */\n      0x04\n      dup2\n      lt\n      tag_367\n      jumpi\n      tag_368\n      tag_183\n      jump\t// in\n    tag_368:\n    tag_367:\n      0x02\n      mul\n      add\n        /* \"Project-3/Starter code/blackjack.sol\":10272:10273  0 */\n      0x00\n        /* \"Project-3/Starter code/blackjack.sol\":10258:10274  dealtCards[1][0] */\n      0x02\n      dup2\n      lt\n      tag_370\n      jumpi\n      tag_371\n      tag_183\n      jump\t// in\n    tag_371:\n    tag_370:\n      add\n      sload\n        /* \"Project-3/Starter code/blackjack.sol\":10236:10248  playersCards */\n      0x08\n        /* \"Project-3/Starter code/blackjack.sol\":10249:10250  i */\n      dup3\n        /* \"Project-3/Starter code/blackjack.sol\":10236:10251  playersCards[i] */\n      0x10\n      dup2\n      lt\n      tag_373\n      jumpi\n      tag_374\n      tag_183\n      jump\t// in\n    tag_374:\n    tag_373:\n      0x02\n      mul\n      add\n        /* \"Project-3/Starter code/blackjack.sol\":10252:10253  0 */\n      0x00\n        /* \"Project-3/Starter code/blackjack.sol\":10236:10254  playersCards[i][0] */\n      0x02\n      dup2\n      lt\n      tag_376\n      jumpi\n      tag_377\n      tag_183\n      jump\t// in\n    tag_377:\n    tag_376:\n      add\n      sload\n        /* \"Project-3/Starter code/blackjack.sol\":10236:10274  playersCards[i][0] == dealtCards[1][0] */\n      eq\n        /* \"Project-3/Starter code/blackjack.sol\":10235:10321  (playersCards[i][0] == dealtCards[1][0])  &&  (playersCards[i][0] == dealtCards[1][1]) */\n      dup1\n      iszero\n      tag_379\n      jumpi\n      pop\n        /* \"Project-3/Starter code/blackjack.sol\":10304:10314  dealtCards */\n      0x50\n        /* \"Project-3/Starter code/blackjack.sol\":10315:10316  1 */\n      0x01\n        /* \"Project-3/Starter code/blackjack.sol\":10304:10317  dealtCards[1] */\n      0x04\n      dup2\n      lt\n      tag_380\n      jumpi\n      tag_381\n      tag_183\n      jump\t// in\n    tag_381:\n    tag_380:\n      0x02\n      mul\n      add\n        /* \"Project-3/Starter code/blackjack.sol\":10318:10319  1 */\n      0x01\n        /* \"Project-3/Starter code/blackjack.sol\":10304:10320  dealtCards[1][1] */\n      0x02\n      dup2\n      lt\n      tag_383\n      jumpi\n      tag_384\n      tag_183\n      jump\t// in\n    tag_384:\n    tag_383:\n      add\n      sload\n        /* \"Project-3/Starter code/blackjack.sol\":10282:10294  playersCards */\n      0x08\n        /* \"Project-3/Starter code/blackjack.sol\":10295:10296  i */\n      dup3\n        /* \"Project-3/Starter code/blackjack.sol\":10282:10297  playersCards[i] */\n      0x10\n      dup2\n      lt\n      tag_386\n      jumpi\n      tag_387\n      tag_183\n      jump\t// in\n    tag_387:\n    tag_386:\n      0x02\n      mul\n      add\n        /* \"Project-3/Starter code/blackjack.sol\":10298:10299  0 */\n      0x00\n        /* \"Project-3/Starter code/blackjack.sol\":10282:10300  playersCards[i][0] */\n      0x02\n      dup2\n      lt\n      tag_389\n      jumpi\n      tag_390\n      tag_183\n      jump\t// in\n    tag_390:\n    tag_389:\n      add\n      sload\n        /* \"Project-3/Starter code/blackjack.sol\":10282:10320  playersCards[i][0] == dealtCards[1][1] */\n      eq\n        /* \"Project-3/Starter code/blackjack.sol\":10235:10321  (playersCards[i][0] == dealtCards[1][0])  &&  (playersCards[i][0] == dealtCards[1][1]) */\n    tag_379:\n        /* \"Project-3/Starter code/blackjack.sol\":10234:10412  ((playersCards[i][0] == dealtCards[1][0])  &&  (playersCards[i][0] == dealtCards[1][1])) || ((dealersCards[i][0] == dealtCards[1][0]) && (dealersCards[i][1] == dealtCards[1][1])) */\n      dup1\n      tag_392\n      jumpi\n      pop\n        /* \"Project-3/Starter code/blackjack.sol\":10350:10360  dealtCards */\n      0x50\n        /* \"Project-3/Starter code/blackjack.sol\":10361:10362  1 */\n      0x01\n        /* \"Project-3/Starter code/blackjack.sol\":10350:10363  dealtCards[1] */\n      0x04\n      dup2\n      lt\n      tag_393\n      jumpi\n      tag_394\n      tag_183\n      jump\t// in\n    tag_394:\n    tag_393:\n      0x02\n      mul\n      add\n        /* \"Project-3/Starter code/blackjack.sol\":10364:10365  0 */\n      0x00\n        /* \"Project-3/Starter code/blackjack.sol\":10350:10366  dealtCards[1][0] */\n      0x02\n      dup2\n      lt\n      tag_396\n      jumpi\n      tag_397\n      tag_183\n      jump\t// in\n    tag_397:\n    tag_396:\n      add\n      sload\n        /* \"Project-3/Starter code/blackjack.sol\":10328:10340  dealersCards */\n      0x28\n        /* \"Project-3/Starter code/blackjack.sol\":10341:10342  i */\n      dup3\n        /* \"Project-3/Starter code/blackjack.sol\":10328:10343  dealersCards[i] */\n      0x10\n      dup2\n      lt\n      tag_399\n      jumpi\n      tag_400\n      tag_183\n      jump\t// in\n    tag_400:\n    tag_399:\n      0x02\n      mul\n      add\n        /* \"Project-3/Starter code/blackjack.sol\":10344:10345  0 */\n      0x00\n        /* \"Project-3/Starter code/blackjack.sol\":10328:10346  dealersCards[i][0] */\n      0x02\n      dup2\n      lt\n      tag_402\n      jumpi\n      tag_403\n      tag_183\n      jump\t// in\n    tag_403:\n    tag_402:\n      add\n      sload\n        /* \"Project-3/Starter code/blackjack.sol\":10328:10366  dealersCards[i][0] == dealtCards[1][0] */\n      eq\n        /* \"Project-3/Starter code/blackjack.sol\":10327:10411  (dealersCards[i][0] == dealtCards[1][0]) && (dealersCards[i][1] == dealtCards[1][1]) */\n      dup1\n      iszero\n      tag_405\n      jumpi\n      pop\n        /* \"Project-3/Starter code/blackjack.sol\":10394:10404  dealtCards */\n      0x50\n        /* \"Project-3/Starter code/blackjack.sol\":10405:10406  1 */\n      0x01\n        /* \"Project-3/Starter code/blackjack.sol\":10394:10407  dealtCards[1] */\n      0x04\n      dup2\n      lt\n      tag_406\n      jumpi\n      tag_407\n      tag_183\n      jump\t// in\n    tag_407:\n    tag_406:\n      0x02\n      mul\n      add\n        /* \"Project-3/Starter code/blackjack.sol\":10408:10409  1 */\n      0x01\n        /* \"Project-3/Starter code/blackjack.sol\":10394:10410  dealtCards[1][1] */\n      0x02\n      dup2\n      lt\n      tag_409\n      jumpi\n      tag_410\n      tag_183\n      jump\t// in\n    tag_410:\n    tag_409:\n      add\n      sload\n        /* \"Project-3/Starter code/blackjack.sol\":10372:10384  dealersCards */\n      0x28\n        /* \"Project-3/Starter code/blackjack.sol\":10385:10386  i */\n      dup3\n        /* \"Project-3/Starter code/blackjack.sol\":10372:10387  dealersCards[i] */\n      0x10\n      dup2\n      lt\n      tag_412\n      jumpi\n      tag_413\n      tag_183\n      jump\t// in\n    tag_413:\n    tag_412:\n      0x02\n      mul\n      add\n        /* \"Project-3/Starter code/blackjack.sol\":10388:10389  1 */\n      0x01\n        /* \"Project-3/Starter code/blackjack.sol\":10372:10390  dealersCards[i][1] */\n      0x02\n      dup2\n      lt\n      tag_415\n      jumpi\n      tag_416\n      tag_183\n      jump\t// in\n    tag_416:\n    tag_415:\n      add\n      sload\n        /* \"Project-3/Starter code/blackjack.sol\":10372:10410  dealersCards[i][1] == dealtCards[1][1] */\n      eq\n        /* \"Project-3/Starter code/blackjack.sol\":10327:10411  (dealersCards[i][0] == dealtCards[1][0]) && (dealersCards[i][1] == dealtCards[1][1]) */\n    tag_405:\n        /* \"Project-3/Starter code/blackjack.sol\":10234:10412  ((playersCards[i][0] == dealtCards[1][0])  &&  (playersCards[i][0] == dealtCards[1][1])) || ((dealersCards[i][0] == dealtCards[1][0]) && (dealersCards[i][1] == dealtCards[1][1])) */\n    tag_392:\n        /* \"Project-3/Starter code/blackjack.sol\":10227:10464  while (((playersCards[i][0] == dealtCards[1][0])  &&  (playersCards[i][0] == dealtCards[1][1])) || ((dealersCards[i][0] == dealtCards[1][0]) && (dealersCards[i][1] == dealtCards[1][1]))) {... */\n      iszero\n      tag_366\n      jumpi\n        /* \"Project-3/Starter code/blackjack.sol\":10437:10448  getCards(1) */\n      tag_418\n        /* \"Project-3/Starter code/blackjack.sol\":10446:10447  1 */\n      0x01\n        /* \"Project-3/Starter code/blackjack.sol\":10437:10445  getCards */\n      tag_237\n        /* \"Project-3/Starter code/blackjack.sol\":10437:10448  getCards(1) */\n      jump\t// in\n    tag_418:\n        /* \"Project-3/Starter code/blackjack.sol\":10227:10464  while (((playersCards[i][0] == dealtCards[1][0])  &&  (playersCards[i][0] == dealtCards[1][1])) || ((dealersCards[i][0] == dealtCards[1][0]) && (dealersCards[i][1] == dealtCards[1][1]))) {... */\n      jump(tag_365)\n    tag_366:\n        /* \"Project-3/Starter code/blackjack.sol\":10207:10210  i++ */\n      dup1\n      dup1\n      tag_419\n      swap1\n      tag_235\n      jump\t// in\n    tag_419:\n      swap2\n      pop\n      pop\n        /* \"Project-3/Starter code/blackjack.sol\":10178:10474  for (uint256 i = 1; i <= 11; i++) {... */\n      jump(tag_362)\n    tag_363:\n      pop\n        /* \"Project-3/Starter code/blackjack.sol\":10493:10554  pushToPlayer(dealtCards[1][0], dealtCards[1][1], (index + 1)) */\n      tag_420\n        /* \"Project-3/Starter code/blackjack.sol\":10506:10516  dealtCards */\n      0x50\n        /* \"Project-3/Starter code/blackjack.sol\":10517:10518  1 */\n      0x01\n        /* \"Project-3/Starter code/blackjack.sol\":10506:10519  dealtCards[1] */\n      0x04\n      dup2\n      lt\n      tag_421\n      jumpi\n      tag_422\n      tag_183\n      jump\t// in\n    tag_422:\n    tag_421:\n      0x02\n      mul\n      add\n        /* \"Project-3/Starter code/blackjack.sol\":10520:10521  0 */\n      0x00\n        /* \"Project-3/Starter code/blackjack.sol\":10506:10522  dealtCards[1][0] */\n      0x02\n      dup2\n      lt\n      tag_424\n      jumpi\n      tag_425\n      tag_183\n      jump\t// in\n    tag_425:\n    tag_424:\n      add\n      sload\n        /* \"Project-3/Starter code/blackjack.sol\":10524:10534  dealtCards */\n      0x50\n        /* \"Project-3/Starter code/blackjack.sol\":10535:10536  1 */\n      0x01\n        /* \"Project-3/Starter code/blackjack.sol\":10524:10537  dealtCards[1] */\n      0x04\n      dup2\n      lt\n      tag_427\n      jumpi\n      tag_428\n      tag_183\n      jump\t// in\n    tag_428:\n    tag_427:\n      0x02\n      mul\n      add\n        /* \"Project-3/Starter code/blackjack.sol\":10538:10539  1 */\n      0x01\n        /* \"Project-3/Starter code/blackjack.sol\":10524:10540  dealtCards[1][1] */\n      0x02\n      dup2\n      lt\n      tag_430\n      jumpi\n      tag_431\n      tag_183\n      jump\t// in\n    tag_431:\n    tag_430:\n      add\n      sload\n        /* \"Project-3/Starter code/blackjack.sol\":10551:10552  1 */\n      0x01\n        /* \"Project-3/Starter code/blackjack.sol\":10543:10548  index */\n      dup5\n        /* \"Project-3/Starter code/blackjack.sol\":10543:10552  index + 1 */\n      tag_433\n      swap2\n      swap1\n      tag_165\n      jump\t// in\n    tag_433:\n        /* \"Project-3/Starter code/blackjack.sol\":10493:10505  pushToPlayer */\n      tag_260\n        /* \"Project-3/Starter code/blackjack.sol\":10493:10554  pushToPlayer(dealtCards[1][0], dealtCards[1][1], (index + 1)) */\n      jump\t// in\n    tag_420:\n        /* \"Project-3/Starter code/blackjack.sol\":10564:10581  sumPlayersCards() */\n      tag_434\n        /* \"Project-3/Starter code/blackjack.sol\":10564:10579  sumPlayersCards */\n      tag_289\n        /* \"Project-3/Starter code/blackjack.sol\":10564:10581  sumPlayersCards() */\n      jump\t// in\n    tag_434:\n        /* \"Project-3/Starter code/blackjack.sol\":10591:10611  evaluatePlayerHand() */\n      tag_435\n        /* \"Project-3/Starter code/blackjack.sol\":10591:10609  evaluatePlayerHand */\n      tag_295\n        /* \"Project-3/Starter code/blackjack.sol\":10591:10611  evaluatePlayerHand() */\n      jump\t// in\n    tag_435:\n        /* \"Project-3/Starter code/blackjack.sol\":10077:10619  {... */\n      pop\n        /* \"Project-3/Starter code/blackjack.sol\":9998:10619  function hitPlayer() public _gameInProgress() _playerBusted() didPlayerStand() {... */\n      jump\t// out\n        /* \"Project-3/Starter code/blackjack.sol\":4824:7337  function getCards(uint numCards) internal {... */\n    tag_237:\n        /* \"Project-3/Starter code/blackjack.sol\":4877:4905  string memory ranNumAsString */\n      0x00\n        /* \"Project-3/Starter code/blackjack.sol\":4877:4910  string memory ranNumAsString = \"\" */\n      mload(0x40)\n      dup1\n      0x20\n      add\n      0x40\n      mstore\n      dup1\n      0x00\n      dup2\n      mstore\n      pop\n      swap1\n      pop\n        /* \"Project-3/Starter code/blackjack.sol\":4920:4946  string memory slicedString */\n      0x00\n        /* \"Project-3/Starter code/blackjack.sol\":4920:4951  string memory slicedString = \"\" */\n      mload(0x40)\n      dup1\n      0x20\n      add\n      0x40\n      mstore\n      dup1\n      0x00\n      dup2\n      mstore\n      pop\n      swap1\n      pop\n        /* \"Project-3/Starter code/blackjack.sol\":4961:4984  uint ranNumStringLength */\n      0x00\n        /* \"Project-3/Starter code/blackjack.sol\":4994:5000  uint j */\n      dup1\n        /* \"Project-3/Starter code/blackjack.sol\":5003:5004  1 */\n      0x01\n        /* \"Project-3/Starter code/blackjack.sol\":4994:5004  uint j = 1 */\n      swap1\n      pop\n        /* \"Project-3/Starter code/blackjack.sol\":5014:5026  uint cardInt */\n      0x00\n        /* \"Project-3/Starter code/blackjack.sol\":5042:7331  while (j <= numCards) {... */\n    tag_437:\n        /* \"Project-3/Starter code/blackjack.sol\":5054:5062  numCards */\n      dup6\n        /* \"Project-3/Starter code/blackjack.sol\":5049:5050  j */\n      dup3\n        /* \"Project-3/Starter code/blackjack.sol\":5049:5062  j <= numCards */\n      gt\n        /* \"Project-3/Starter code/blackjack.sol\":5042:7331  while (j <= numCards) {... */\n      tag_438\n      jumpi\n        /* \"Project-3/Starter code/blackjack.sol\":5079:5089  uint start */\n      0x00\n        /* \"Project-3/Starter code/blackjack.sol\":5092:5093  3 */\n      0x03\n        /* \"Project-3/Starter code/blackjack.sol\":5079:5093  uint start = 3 */\n      swap1\n      pop\n        /* \"Project-3/Starter code/blackjack.sol\":5107:5115  uint end */\n      0x00\n        /* \"Project-3/Starter code/blackjack.sol\":5118:5119  4 */\n      0x04\n        /* \"Project-3/Starter code/blackjack.sol\":5107:5119  uint end = 4 */\n      swap1\n      pop\n        /* \"Project-3/Starter code/blackjack.sol\":5140:5141  0 */\n      0x00\n        /* \"Project-3/Starter code/blackjack.sol\":5133:5137  rank */\n      0x07\n        /* \"Project-3/Starter code/blackjack.sol\":5133:5141  rank = 0 */\n      dup2\n      swap1\n      sstore\n      pop\n        /* \"Project-3/Starter code/blackjack.sol\":5162:5163  0 */\n      0x00\n        /* \"Project-3/Starter code/blackjack.sol\":5155:5159  suit */\n      0x06\n        /* \"Project-3/Starter code/blackjack.sol\":5155:5163  suit = 0 */\n      dup2\n      swap1\n      sstore\n      pop\n        /* \"Project-3/Starter code/blackjack.sol\":5202:5213  getRandom() */\n      tag_439\n        /* \"Project-3/Starter code/blackjack.sol\":5202:5211  getRandom */\n      tag_440\n        /* \"Project-3/Starter code/blackjack.sol\":5202:5213  getRandom() */\n      jump\t// in\n    tag_439:\n        /* \"Project-3/Starter code/blackjack.sol\":5190:5199  randomNum */\n      0x05\n        /* \"Project-3/Starter code/blackjack.sol\":5190:5213  randomNum = getRandom() */\n      dup2\n      swap1\n      sstore\n      pop\n        /* \"Project-3/Starter code/blackjack.sol\":5244:5271  Strings.toString(randomNum) */\n      tag_441\n        /* \"Project-3/Starter code/blackjack.sol\":5261:5270  randomNum */\n      sload(0x05)\n        /* \"Project-3/Starter code/blackjack.sol\":5244:5260  Strings.toString */\n      tag_442\n        /* \"Project-3/Starter code/blackjack.sol\":5244:5271  Strings.toString(randomNum) */\n      jump\t// in\n    tag_441:\n        /* \"Project-3/Starter code/blackjack.sol\":5227:5271  ranNumAsString = Strings.toString(randomNum) */\n      swap7\n      pop\n        /* \"Project-3/Starter code/blackjack.sol\":5300:5336  getSlice(start, end, ranNumAsString) */\n      tag_443\n        /* \"Project-3/Starter code/blackjack.sol\":5309:5314  start */\n      dup3\n        /* \"Project-3/Starter code/blackjack.sol\":5316:5319  end */\n      dup3\n        /* \"Project-3/Starter code/blackjack.sol\":5321:5335  ranNumAsString */\n      dup10\n        /* \"Project-3/Starter code/blackjack.sol\":5300:5308  getSlice */\n      tag_444\n        /* \"Project-3/Starter code/blackjack.sol\":5300:5336  getSlice(start, end, ranNumAsString) */\n      jump\t// in\n    tag_443:\n        /* \"Project-3/Starter code/blackjack.sol\":5285:5336  slicedString = getSlice(start, end, ranNumAsString) */\n      swap6\n      pop\n        /* \"Project-3/Starter code/blackjack.sol\":5360:5386  stringToUint(slicedString) */\n      tag_445\n        /* \"Project-3/Starter code/blackjack.sol\":5373:5385  slicedString */\n      dup7\n        /* \"Project-3/Starter code/blackjack.sol\":5360:5372  stringToUint */\n      tag_446\n        /* \"Project-3/Starter code/blackjack.sol\":5360:5386  stringToUint(slicedString) */\n      jump\t// in\n    tag_445:\n        /* \"Project-3/Starter code/blackjack.sol\":5350:5386  cardInt = stringToUint(slicedString) */\n      swap3\n      pop\n        /* \"Project-3/Starter code/blackjack.sol\":5427:5441  ranNumAsString */\n      dup7\n        /* \"Project-3/Starter code/blackjack.sol\":5421:5449  bytes(ranNumAsString).length */\n      mload\n        /* \"Project-3/Starter code/blackjack.sol\":5400:5449  ranNumStringLength = bytes(ranNumAsString).length */\n      swap5\n      pop\n        /* \"Project-3/Starter code/blackjack.sol\":5464:6219  while ((cardInt < 1 || cardInt > 13) && (start < (ranNumStringLength - 3))) {... */\n    tag_447:\n        /* \"Project-3/Starter code/blackjack.sol\":5482:5483  1 */\n      0x01\n        /* \"Project-3/Starter code/blackjack.sol\":5472:5479  cardInt */\n      dup4\n        /* \"Project-3/Starter code/blackjack.sol\":5472:5483  cardInt < 1 */\n      lt\n        /* \"Project-3/Starter code/blackjack.sol\":5472:5499  cardInt < 1 || cardInt > 13 */\n      dup1\n      tag_449\n      jumpi\n      pop\n        /* \"Project-3/Starter code/blackjack.sol\":5497:5499  13 */\n      0x0d\n        /* \"Project-3/Starter code/blackjack.sol\":5487:5494  cardInt */\n      dup4\n        /* \"Project-3/Starter code/blackjack.sol\":5487:5499  cardInt > 13 */\n      gt\n        /* \"Project-3/Starter code/blackjack.sol\":5472:5499  cardInt < 1 || cardInt > 13 */\n    tag_449:\n        /* \"Project-3/Starter code/blackjack.sol\":5471:5538  (cardInt < 1 || cardInt > 13) && (start < (ranNumStringLength - 3)) */\n      dup1\n      iszero\n      tag_450\n      jumpi\n      pop\n        /* \"Project-3/Starter code/blackjack.sol\":5535:5536  3 */\n      0x03\n        /* \"Project-3/Starter code/blackjack.sol\":5514:5532  ranNumStringLength */\n      dup6\n        /* \"Project-3/Starter code/blackjack.sol\":5514:5536  ranNumStringLength - 3 */\n      tag_451\n      swap2\n      swap1\n      tag_141\n      jump\t// in\n    tag_451:\n        /* \"Project-3/Starter code/blackjack.sol\":5505:5510  start */\n      dup3\n        /* \"Project-3/Starter code/blackjack.sol\":5505:5537  start < (ranNumStringLength - 3) */\n      lt\n        /* \"Project-3/Starter code/blackjack.sol\":5471:5538  (cardInt < 1 || cardInt > 13) && (start < (ranNumStringLength - 3)) */\n    tag_450:\n        /* \"Project-3/Starter code/blackjack.sol\":5464:6219  while ((cardInt < 1 || cardInt > 13) && (start < (ranNumStringLength - 3))) {... */\n      iszero\n      tag_448\n      jumpi\n        /* \"Project-3/Starter code/blackjack.sol\":5575:5576  2 */\n      0x02\n        /* \"Project-3/Starter code/blackjack.sol\":5567:5572  start */\n      dup3\n        /* \"Project-3/Starter code/blackjack.sol\":5567:5576  start + 2 */\n      tag_452\n      swap2\n      swap1\n      tag_165\n      jump\t// in\n    tag_452:\n        /* \"Project-3/Starter code/blackjack.sol\":5559:5576  start = start + 2 */\n      swap2\n      pop\n        /* \"Project-3/Starter code/blackjack.sol\":5606:5607  2 */\n      0x02\n        /* \"Project-3/Starter code/blackjack.sol\":5600:5603  end */\n      dup2\n        /* \"Project-3/Starter code/blackjack.sol\":5600:5607  end + 2 */\n      tag_453\n      swap2\n      swap1\n      tag_165\n      jump\t// in\n    tag_453:\n        /* \"Project-3/Starter code/blackjack.sol\":5594:5607  end = end + 2 */\n      swap1\n      pop\n        /* \"Project-3/Starter code/blackjack.sol\":5640:5676  getSlice(start, end, ranNumAsString) */\n      tag_454\n        /* \"Project-3/Starter code/blackjack.sol\":5649:5654  start */\n      dup3\n        /* \"Project-3/Starter code/blackjack.sol\":5656:5659  end */\n      dup3\n        /* \"Project-3/Starter code/blackjack.sol\":5661:5675  ranNumAsString */\n      dup10\n        /* \"Project-3/Starter code/blackjack.sol\":5640:5648  getSlice */\n      tag_444\n        /* \"Project-3/Starter code/blackjack.sol\":5640:5676  getSlice(start, end, ranNumAsString) */\n      jump\t// in\n    tag_454:\n        /* \"Project-3/Starter code/blackjack.sol\":5625:5676  slicedString = getSlice(start, end, ranNumAsString) */\n      swap6\n      pop\n        /* \"Project-3/Starter code/blackjack.sol\":5704:5730  stringToUint(slicedString) */\n      tag_455\n        /* \"Project-3/Starter code/blackjack.sol\":5717:5729  slicedString */\n      dup7\n        /* \"Project-3/Starter code/blackjack.sol\":5704:5716  stringToUint */\n      tag_446\n        /* \"Project-3/Starter code/blackjack.sol\":5704:5730  stringToUint(slicedString) */\n      jump\t// in\n    tag_455:\n        /* \"Project-3/Starter code/blackjack.sol\":5694:5730  cardInt = stringToUint(slicedString) */\n      swap3\n      pop\n        /* \"Project-3/Starter code/blackjack.sol\":5783:5784  3 */\n      0x03\n        /* \"Project-3/Starter code/blackjack.sol\":5762:5780  ranNumStringLength */\n      dup6\n        /* \"Project-3/Starter code/blackjack.sol\":5762:5784  ranNumStringLength - 3 */\n      tag_456\n      swap2\n      swap1\n      tag_141\n      jump\t// in\n    tag_456:\n        /* \"Project-3/Starter code/blackjack.sol\":5753:5758  start */\n      dup3\n        /* \"Project-3/Starter code/blackjack.sol\":5753:5785  start > (ranNumStringLength - 3) */\n      gt\n        /* \"Project-3/Starter code/blackjack.sol\":5749:6205  if (start > (ranNumStringLength - 3)) {... */\n      iszero\n      tag_457\n      jumpi\n        /* \"Project-3/Starter code/blackjack.sol\":5830:5831  3 */\n      0x03\n        /* \"Project-3/Starter code/blackjack.sol\":5822:5831  start = 3 */\n      swap2\n      pop\n        /* \"Project-3/Starter code/blackjack.sol\":5859:5860  4 */\n      0x04\n        /* \"Project-3/Starter code/blackjack.sol\":5853:5860  end = 4 */\n      swap1\n      pop\n        /* \"Project-3/Starter code/blackjack.sol\":5894:5905  getRandom() */\n      tag_458\n        /* \"Project-3/Starter code/blackjack.sol\":5894:5903  getRandom */\n      tag_440\n        /* \"Project-3/Starter code/blackjack.sol\":5894:5905  getRandom() */\n      jump\t// in\n    tag_458:\n        /* \"Project-3/Starter code/blackjack.sol\":5882:5891  randomNum */\n      0x05\n        /* \"Project-3/Starter code/blackjack.sol\":5882:5905  randomNum = getRandom() */\n      dup2\n      swap1\n      sstore\n      pop\n        /* \"Project-3/Starter code/blackjack.sol\":5944:5971  Strings.toString(randomNum) */\n      tag_459\n        /* \"Project-3/Starter code/blackjack.sol\":5961:5970  randomNum */\n      sload(0x05)\n        /* \"Project-3/Starter code/blackjack.sol\":5944:5960  Strings.toString */\n      tag_442\n        /* \"Project-3/Starter code/blackjack.sol\":5944:5971  Strings.toString(randomNum) */\n      jump\t// in\n    tag_459:\n        /* \"Project-3/Starter code/blackjack.sol\":5927:5971  ranNumAsString = Strings.toString(randomNum) */\n      swap7\n      pop\n        /* \"Project-3/Starter code/blackjack.sol\":6008:6044  getSlice(start, end, ranNumAsString) */\n      tag_460\n        /* \"Project-3/Starter code/blackjack.sol\":6017:6022  start */\n      dup3\n        /* \"Project-3/Starter code/blackjack.sol\":6024:6027  end */\n      dup3\n        /* \"Project-3/Starter code/blackjack.sol\":6029:6043  ranNumAsString */\n      dup10\n        /* \"Project-3/Starter code/blackjack.sol\":6008:6016  getSlice */\n      tag_444\n        /* \"Project-3/Starter code/blackjack.sol\":6008:6044  getSlice(start, end, ranNumAsString) */\n      jump\t// in\n    tag_460:\n        /* \"Project-3/Starter code/blackjack.sol\":5993:6044  slicedString = getSlice(start, end, ranNumAsString) */\n      swap6\n      pop\n        /* \"Project-3/Starter code/blackjack.sol\":6076:6102  stringToUint(slicedString) */\n      tag_461\n        /* \"Project-3/Starter code/blackjack.sol\":6089:6101  slicedString */\n      dup7\n        /* \"Project-3/Starter code/blackjack.sol\":6076:6088  stringToUint */\n      tag_446\n        /* \"Project-3/Starter code/blackjack.sol\":6076:6102  stringToUint(slicedString) */\n      jump\t// in\n    tag_461:\n        /* \"Project-3/Starter code/blackjack.sol\":6066:6102  cardInt = stringToUint(slicedString) */\n      swap3\n      pop\n        /* \"Project-3/Starter code/blackjack.sol\":6151:6165  ranNumAsString */\n      dup7\n        /* \"Project-3/Starter code/blackjack.sol\":6145:6173  bytes(ranNumAsString).length */\n      mload\n        /* \"Project-3/Starter code/blackjack.sol\":6124:6173  ranNumStringLength = bytes(ranNumAsString).length */\n      swap5\n      pop\n        /* \"Project-3/Starter code/blackjack.sol\":5749:6205  if (start > (ranNumStringLength - 3)) {... */\n    tag_457:\n        /* \"Project-3/Starter code/blackjack.sol\":5464:6219  while ((cardInt < 1 || cardInt > 13) && (start < (ranNumStringLength - 3))) {... */\n      jump(tag_447)\n    tag_448:\n        /* \"Project-3/Starter code/blackjack.sol\":6240:6247  cardInt */\n      dup3\n        /* \"Project-3/Starter code/blackjack.sol\":6233:6237  rank */\n      0x07\n        /* \"Project-3/Starter code/blackjack.sol\":6233:6247  rank = cardInt */\n      dup2\n      swap1\n      sstore\n      pop\n        /* \"Project-3/Starter code/blackjack.sol\":6277:6278  2 */\n      0x02\n        /* \"Project-3/Starter code/blackjack.sol\":6269:6274  start */\n      dup3\n        /* \"Project-3/Starter code/blackjack.sol\":6269:6278  start + 2 */\n      tag_462\n      swap2\n      swap1\n      tag_165\n      jump\t// in\n    tag_462:\n        /* \"Project-3/Starter code/blackjack.sol\":6261:6278  start = start + 2 */\n      swap2\n      pop\n        /* \"Project-3/Starter code/blackjack.sol\":6304:6305  2 */\n      0x02\n        /* \"Project-3/Starter code/blackjack.sol\":6298:6301  end */\n      dup2\n        /* \"Project-3/Starter code/blackjack.sol\":6298:6305  end + 2 */\n      tag_463\n      swap2\n      swap1\n      tag_165\n      jump\t// in\n    tag_463:\n        /* \"Project-3/Starter code/blackjack.sol\":6292:6305  end = end + 2 */\n      swap1\n      pop\n        /* \"Project-3/Starter code/blackjack.sol\":6334:6370  getSlice(start, end, ranNumAsString) */\n      tag_464\n        /* \"Project-3/Starter code/blackjack.sol\":6343:6348  start */\n      dup3\n        /* \"Project-3/Starter code/blackjack.sol\":6350:6353  end */\n      dup3\n        /* \"Project-3/Starter code/blackjack.sol\":6355:6369  ranNumAsString */\n      dup10\n        /* \"Project-3/Starter code/blackjack.sol\":6334:6342  getSlice */\n      tag_444\n        /* \"Project-3/Starter code/blackjack.sol\":6334:6370  getSlice(start, end, ranNumAsString) */\n      jump\t// in\n    tag_464:\n        /* \"Project-3/Starter code/blackjack.sol\":6319:6370  slicedString = getSlice(start, end, ranNumAsString) */\n      swap6\n      pop\n        /* \"Project-3/Starter code/blackjack.sol\":6394:6420  stringToUint(slicedString) */\n      tag_465\n        /* \"Project-3/Starter code/blackjack.sol\":6407:6419  slicedString */\n      dup7\n        /* \"Project-3/Starter code/blackjack.sol\":6394:6406  stringToUint */\n      tag_446\n        /* \"Project-3/Starter code/blackjack.sol\":6394:6420  stringToUint(slicedString) */\n      jump\t// in\n    tag_465:\n        /* \"Project-3/Starter code/blackjack.sol\":6384:6420  cardInt = stringToUint(slicedString) */\n      swap3\n      pop\n        /* \"Project-3/Starter code/blackjack.sol\":6437:7176  while ((cardInt < 1 || cardInt > 4) && (start < (ranNumStringLength - 3))) {... */\n    tag_466:\n        /* \"Project-3/Starter code/blackjack.sol\":6455:6456  1 */\n      0x01\n        /* \"Project-3/Starter code/blackjack.sol\":6445:6452  cardInt */\n      dup4\n        /* \"Project-3/Starter code/blackjack.sol\":6445:6456  cardInt < 1 */\n      lt\n        /* \"Project-3/Starter code/blackjack.sol\":6445:6471  cardInt < 1 || cardInt > 4 */\n      dup1\n      tag_468\n      jumpi\n      pop\n        /* \"Project-3/Starter code/blackjack.sol\":6470:6471  4 */\n      0x04\n        /* \"Project-3/Starter code/blackjack.sol\":6460:6467  cardInt */\n      dup4\n        /* \"Project-3/Starter code/blackjack.sol\":6460:6471  cardInt > 4 */\n      gt\n        /* \"Project-3/Starter code/blackjack.sol\":6445:6471  cardInt < 1 || cardInt > 4 */\n    tag_468:\n        /* \"Project-3/Starter code/blackjack.sol\":6444:6510  (cardInt < 1 || cardInt > 4) && (start < (ranNumStringLength - 3)) */\n      dup1\n      iszero\n      tag_469\n      jumpi\n      pop\n        /* \"Project-3/Starter code/blackjack.sol\":6507:6508  3 */\n      0x03\n        /* \"Project-3/Starter code/blackjack.sol\":6486:6504  ranNumStringLength */\n      dup6\n        /* \"Project-3/Starter code/blackjack.sol\":6486:6508  ranNumStringLength - 3 */\n      tag_470\n      swap2\n      swap1\n      tag_141\n      jump\t// in\n    tag_470:\n        /* \"Project-3/Starter code/blackjack.sol\":6477:6482  start */\n      dup3\n        /* \"Project-3/Starter code/blackjack.sol\":6477:6509  start < (ranNumStringLength - 3) */\n      lt\n        /* \"Project-3/Starter code/blackjack.sol\":6444:6510  (cardInt < 1 || cardInt > 4) && (start < (ranNumStringLength - 3)) */\n    tag_469:\n        /* \"Project-3/Starter code/blackjack.sol\":6437:7176  while ((cardInt < 1 || cardInt > 4) && (start < (ranNumStringLength - 3))) {... */\n      iszero\n      tag_467\n      jumpi\n        /* \"Project-3/Starter code/blackjack.sol\":6547:6548  1 */\n      0x01\n        /* \"Project-3/Starter code/blackjack.sol\":6539:6544  start */\n      dup3\n        /* \"Project-3/Starter code/blackjack.sol\":6539:6548  start + 1 */\n      tag_471\n      swap2\n      swap1\n      tag_165\n      jump\t// in\n    tag_471:\n        /* \"Project-3/Starter code/blackjack.sol\":6531:6548  start = start + 1 */\n      swap2\n      pop\n        /* \"Project-3/Starter code/blackjack.sol\":6572:6577  start */\n      dup2\n        /* \"Project-3/Starter code/blackjack.sol\":6566:6577  end = start */\n      swap1\n      pop\n        /* \"Project-3/Starter code/blackjack.sol\":6610:6646  getSlice(start, end, ranNumAsString) */\n      tag_472\n        /* \"Project-3/Starter code/blackjack.sol\":6619:6624  start */\n      dup3\n        /* \"Project-3/Starter code/blackjack.sol\":6626:6629  end */\n      dup3\n        /* \"Project-3/Starter code/blackjack.sol\":6631:6645  ranNumAsString */\n      dup10\n        /* \"Project-3/Starter code/blackjack.sol\":6610:6618  getSlice */\n      tag_444\n        /* \"Project-3/Starter code/blackjack.sol\":6610:6646  getSlice(start, end, ranNumAsString) */\n      jump\t// in\n    tag_472:\n        /* \"Project-3/Starter code/blackjack.sol\":6595:6646  slicedString = getSlice(start, end, ranNumAsString) */\n      swap6\n      pop\n        /* \"Project-3/Starter code/blackjack.sol\":6674:6700  stringToUint(slicedString) */\n      tag_473\n        /* \"Project-3/Starter code/blackjack.sol\":6687:6699  slicedString */\n      dup7\n        /* \"Project-3/Starter code/blackjack.sol\":6674:6686  stringToUint */\n      tag_446\n        /* \"Project-3/Starter code/blackjack.sol\":6674:6700  stringToUint(slicedString) */\n      jump\t// in\n    tag_473:\n        /* \"Project-3/Starter code/blackjack.sol\":6664:6700  cardInt = stringToUint(slicedString) */\n      swap3\n      pop\n        /* \"Project-3/Starter code/blackjack.sol\":6753:6754  3 */\n      0x03\n        /* \"Project-3/Starter code/blackjack.sol\":6732:6750  ranNumStringLength */\n      dup6\n        /* \"Project-3/Starter code/blackjack.sol\":6732:6754  ranNumStringLength - 3 */\n      tag_474\n      swap2\n      swap1\n      tag_141\n      jump\t// in\n    tag_474:\n        /* \"Project-3/Starter code/blackjack.sol\":6723:6728  start */\n      dup3\n        /* \"Project-3/Starter code/blackjack.sol\":6723:6755  start > (ranNumStringLength - 3) */\n      gt\n        /* \"Project-3/Starter code/blackjack.sol\":6719:7162  if (start > (ranNumStringLength - 3)) {... */\n      iszero\n      tag_475\n      jumpi\n        /* \"Project-3/Starter code/blackjack.sol\":6800:6801  4 */\n      0x04\n        /* \"Project-3/Starter code/blackjack.sol\":6792:6801  start = 4 */\n      swap2\n      pop\n        /* \"Project-3/Starter code/blackjack.sol\":6829:6830  4 */\n      0x04\n        /* \"Project-3/Starter code/blackjack.sol\":6823:6830  end = 4 */\n      swap1\n      pop\n        /* \"Project-3/Starter code/blackjack.sol\":6864:6875  getRandom() */\n      tag_476\n        /* \"Project-3/Starter code/blackjack.sol\":6864:6873  getRandom */\n      tag_440\n        /* \"Project-3/Starter code/blackjack.sol\":6864:6875  getRandom() */\n      jump\t// in\n    tag_476:\n        /* \"Project-3/Starter code/blackjack.sol\":6852:6861  randomNum */\n      0x05\n        /* \"Project-3/Starter code/blackjack.sol\":6852:6875  randomNum = getRandom() */\n      dup2\n      swap1\n      sstore\n      pop\n        /* \"Project-3/Starter code/blackjack.sol\":6914:6941  Strings.toString(randomNum) */\n      tag_477\n        /* \"Project-3/Starter code/blackjack.sol\":6931:6940  randomNum */\n      sload(0x05)\n        /* \"Project-3/Starter code/blackjack.sol\":6914:6930  Strings.toString */\n      tag_442\n        /* \"Project-3/Starter code/blackjack.sol\":6914:6941  Strings.toString(randomNum) */\n      jump\t// in\n    tag_477:\n        /* \"Project-3/Starter code/blackjack.sol\":6897:6941  ranNumAsString = Strings.toString(randomNum) */\n      swap7\n      pop\n        /* \"Project-3/Starter code/blackjack.sol\":6978:7014  getSlice(start, end, ranNumAsString) */\n      tag_478\n        /* \"Project-3/Starter code/blackjack.sol\":6987:6992  start */\n      dup3\n        /* \"Project-3/Starter code/blackjack.sol\":6994:6997  end */\n      dup3\n        /* \"Project-3/Starter code/blackjack.sol\":6999:7013  ranNumAsString */\n      dup10\n        /* \"Project-3/Starter code/blackjack.sol\":6978:6986  getSlice */\n      tag_444\n        /* \"Project-3/Starter code/blackjack.sol\":6978:7014  getSlice(start, end, ranNumAsString) */\n      jump\t// in\n    tag_478:\n        /* \"Project-3/Starter code/blackjack.sol\":6963:7014  slicedString = getSlice(start, end, ranNumAsString) */\n      swap6\n      pop\n        /* \"Project-3/Starter code/blackjack.sol\":7046:7072  stringToUint(slicedString) */\n      tag_479\n        /* \"Project-3/Starter code/blackjack.sol\":7059:7071  slicedString */\n      dup7\n        /* \"Project-3/Starter code/blackjack.sol\":7046:7058  stringToUint */\n      tag_446\n        /* \"Project-3/Starter code/blackjack.sol\":7046:7072  stringToUint(slicedString) */\n      jump\t// in\n    tag_479:\n        /* \"Project-3/Starter code/blackjack.sol\":7036:7072  cardInt = stringToUint(slicedString) */\n      swap3\n      pop\n        /* \"Project-3/Starter code/blackjack.sol\":7121:7135  ranNumAsString */\n      dup7\n        /* \"Project-3/Starter code/blackjack.sol\":7115:7143  bytes(ranNumAsString).length */\n      mload\n        /* \"Project-3/Starter code/blackjack.sol\":7094:7143  ranNumStringLength = bytes(ranNumAsString).length */\n      swap5\n      pop\n        /* \"Project-3/Starter code/blackjack.sol\":6719:7162  if (start > (ranNumStringLength - 3)) {... */\n    tag_475:\n        /* \"Project-3/Starter code/blackjack.sol\":6437:7176  while ((cardInt < 1 || cardInt > 4) && (start < (ranNumStringLength - 3))) {... */\n      jump(tag_466)\n    tag_467:\n        /* \"Project-3/Starter code/blackjack.sol\":7212:7219  cardInt */\n      dup3\n        /* \"Project-3/Starter code/blackjack.sol\":7205:7209  suit */\n      0x06\n        /* \"Project-3/Starter code/blackjack.sol\":7205:7219  suit = cardInt */\n      dup2\n      swap1\n      sstore\n      pop\n        /* \"Project-3/Starter code/blackjack.sol\":7255:7259  rank */\n      sload(0x07)\n        /* \"Project-3/Starter code/blackjack.sol\":7236:7246  dealtCards */\n      0x50\n        /* \"Project-3/Starter code/blackjack.sol\":7247:7248  j */\n      dup6\n        /* \"Project-3/Starter code/blackjack.sol\":7236:7249  dealtCards[j] */\n      0x04\n      dup2\n      lt\n      tag_480\n      jumpi\n      tag_481\n      tag_183\n      jump\t// in\n    tag_481:\n    tag_480:\n      0x02\n      mul\n      add\n        /* \"Project-3/Starter code/blackjack.sol\":7250:7251  0 */\n      0x00\n        /* \"Project-3/Starter code/blackjack.sol\":7236:7252  dealtCards[j][0] */\n      0x02\n      dup2\n      lt\n      tag_483\n      jumpi\n      tag_484\n      tag_183\n      jump\t// in\n    tag_484:\n    tag_483:\n      add\n        /* \"Project-3/Starter code/blackjack.sol\":7236:7259  dealtCards[j][0] = rank */\n      dup2\n      swap1\n      sstore\n      pop\n        /* \"Project-3/Starter code/blackjack.sol\":7292:7296  suit */\n      sload(0x06)\n        /* \"Project-3/Starter code/blackjack.sol\":7273:7283  dealtCards */\n      0x50\n        /* \"Project-3/Starter code/blackjack.sol\":7284:7285  j */\n      dup6\n        /* \"Project-3/Starter code/blackjack.sol\":7273:7286  dealtCards[j] */\n      0x04\n      dup2\n      lt\n      tag_486\n      jumpi\n      tag_487\n      tag_183\n      jump\t// in\n    tag_487:\n    tag_486:\n      0x02\n      mul\n      add\n        /* \"Project-3/Starter code/blackjack.sol\":7287:7288  1 */\n      0x01\n        /* \"Project-3/Starter code/blackjack.sol\":7273:7289  dealtCards[j][1] */\n      0x02\n      dup2\n      lt\n      tag_489\n      jumpi\n      tag_490\n      tag_183\n      jump\t// in\n    tag_490:\n    tag_489:\n      add\n        /* \"Project-3/Starter code/blackjack.sol\":7273:7296  dealtCards[j][1] = suit */\n      dup2\n      swap1\n      sstore\n      pop\n        /* \"Project-3/Starter code/blackjack.sol\":7318:7319  1 */\n      0x01\n        /* \"Project-3/Starter code/blackjack.sol\":7314:7315  j */\n      dup5\n        /* \"Project-3/Starter code/blackjack.sol\":7314:7319  j + 1 */\n      tag_492\n      swap2\n      swap1\n      tag_165\n      jump\t// in\n    tag_492:\n        /* \"Project-3/Starter code/blackjack.sol\":7310:7319  j = j + 1 */\n      swap4\n      pop\n        /* \"Project-3/Starter code/blackjack.sol\":5064:7331  {... */\n      pop\n      pop\n        /* \"Project-3/Starter code/blackjack.sol\":5042:7331  while (j <= numCards) {... */\n      jump(tag_437)\n    tag_438:\n        /* \"Project-3/Starter code/blackjack.sol\":4866:7337  {... */\n      pop\n      pop\n      pop\n      pop\n      pop\n        /* \"Project-3/Starter code/blackjack.sol\":4824:7337  function getCards(uint numCards) internal {... */\n      pop\n      jump\t// out\n        /* \"Project-3/Starter code/blackjack.sol\":16351:16937  function replaceDuplicates(uint[2][4] memory array) internal returns (uint[2][4] memory) {... */\n    tag_244:\n        /* \"Project-3/Starter code/blackjack.sol\":16421:16438  uint[2][4] memory */\n      tag_493\n      tag_494\n      jump\t// in\n    tag_493:\n        /* \"Project-3/Starter code/blackjack.sol\":16452:16663  while ((array[1][0] == array[2][0]) && (array[1][1] == array[2][1])) {... */\n    tag_496:\n        /* \"Project-3/Starter code/blackjack.sol\":16475:16480  array */\n      dup2\n        /* \"Project-3/Starter code/blackjack.sol\":16481:16482  2 */\n      0x02\n        /* \"Project-3/Starter code/blackjack.sol\":16475:16483  array[2] */\n      0x04\n      dup2\n      lt\n      tag_498\n      jumpi\n      tag_499\n      tag_183\n      jump\t// in\n    tag_499:\n    tag_498:\n      0x20\n      mul\n      add\n      mload\n        /* \"Project-3/Starter code/blackjack.sol\":16484:16485  0 */\n      0x00\n        /* \"Project-3/Starter code/blackjack.sol\":16475:16486  array[2][0] */\n      0x02\n      dup2\n      lt\n      tag_500\n      jumpi\n      tag_501\n      tag_183\n      jump\t// in\n    tag_501:\n    tag_500:\n      0x20\n      mul\n      add\n      mload\n        /* \"Project-3/Starter code/blackjack.sol\":16460:16465  array */\n      dup3\n        /* \"Project-3/Starter code/blackjack.sol\":16466:16467  1 */\n      0x01\n        /* \"Project-3/Starter code/blackjack.sol\":16460:16468  array[1] */\n      0x04\n      dup2\n      lt\n      tag_502\n      jumpi\n      tag_503\n      tag_183\n      jump\t// in\n    tag_503:\n    tag_502:\n      0x20\n      mul\n      add\n      mload\n        /* \"Project-3/Starter code/blackjack.sol\":16469:16470  0 */\n      0x00\n        /* \"Project-3/Starter code/blackjack.sol\":16460:16471  array[1][0] */\n      0x02\n      dup2\n      lt\n      tag_504\n      jumpi\n      tag_505\n      tag_183\n      jump\t// in\n    tag_505:\n    tag_504:\n      0x20\n      mul\n      add\n      mload\n        /* \"Project-3/Starter code/blackjack.sol\":16460:16486  array[1][0] == array[2][0] */\n      eq\n        /* \"Project-3/Starter code/blackjack.sol\":16459:16519  (array[1][0] == array[2][0]) && (array[1][1] == array[2][1]) */\n      dup1\n      iszero\n      tag_506\n      jumpi\n      pop\n        /* \"Project-3/Starter code/blackjack.sol\":16507:16512  array */\n      dup2\n        /* \"Project-3/Starter code/blackjack.sol\":16513:16514  2 */\n      0x02\n        /* \"Project-3/Starter code/blackjack.sol\":16507:16515  array[2] */\n      0x04\n      dup2\n      lt\n      tag_507\n      jumpi\n      tag_508\n      tag_183\n      jump\t// in\n    tag_508:\n    tag_507:\n      0x20\n      mul\n      add\n      mload\n        /* \"Project-3/Starter code/blackjack.sol\":16516:16517  1 */\n      0x01\n        /* \"Project-3/Starter code/blackjack.sol\":16507:16518  array[2][1] */\n      0x02\n      dup2\n      lt\n      tag_509\n      jumpi\n      tag_510\n      tag_183\n      jump\t// in\n    tag_510:\n    tag_509:\n      0x20\n      mul\n      add\n      mload\n        /* \"Project-3/Starter code/blackjack.sol\":16492:16497  array */\n      dup3\n        /* \"Project-3/Starter code/blackjack.sol\":16498:16499  1 */\n      0x01\n        /* \"Project-3/Starter code/blackjack.sol\":16492:16500  array[1] */\n      0x04\n      dup2\n      lt\n      tag_511\n      jumpi\n      tag_512\n      tag_183\n      jump\t// in\n    tag_512:\n    tag_511:\n      0x20\n      mul\n      add\n      mload\n        /* \"Project-3/Starter code/blackjack.sol\":16501:16502  1 */\n      0x01\n        /* \"Project-3/Starter code/blackjack.sol\":16492:16503  array[1][1] */\n      0x02\n      dup2\n      lt\n      tag_513\n      jumpi\n      tag_514\n      tag_183\n      jump\t// in\n    tag_514:\n    tag_513:\n      0x20\n      mul\n      add\n      mload\n        /* \"Project-3/Starter code/blackjack.sol\":16492:16518  array[1][1] == array[2][1] */\n      eq\n        /* \"Project-3/Starter code/blackjack.sol\":16459:16519  (array[1][0] == array[2][0]) && (array[1][1] == array[2][1]) */\n    tag_506:\n        /* \"Project-3/Starter code/blackjack.sol\":16452:16663  while ((array[1][0] == array[2][0]) && (array[1][1] == array[2][1])) {... */\n      iszero\n      tag_497\n      jumpi\n        /* \"Project-3/Starter code/blackjack.sol\":16536:16547  getCards(1) */\n      tag_515\n        /* \"Project-3/Starter code/blackjack.sol\":16545:16546  1 */\n      0x01\n        /* \"Project-3/Starter code/blackjack.sol\":16536:16544  getCards */\n      tag_237\n        /* \"Project-3/Starter code/blackjack.sol\":16536:16547  getCards(1) */\n      jump\t// in\n    tag_515:\n        /* \"Project-3/Starter code/blackjack.sol\":16575:16585  dealtCards */\n      0x50\n        /* \"Project-3/Starter code/blackjack.sol\":16586:16587  2 */\n      0x02\n        /* \"Project-3/Starter code/blackjack.sol\":16575:16588  dealtCards[2] */\n      0x04\n      dup2\n      lt\n      tag_516\n      jumpi\n      tag_517\n      tag_183\n      jump\t// in\n    tag_517:\n    tag_516:\n      0x02\n      mul\n      add\n        /* \"Project-3/Starter code/blackjack.sol\":16589:16590  0 */\n      0x00\n        /* \"Project-3/Starter code/blackjack.sol\":16575:16591  dealtCards[2][0] */\n      0x02\n      dup2\n      lt\n      tag_519\n      jumpi\n      tag_520\n      tag_183\n      jump\t// in\n    tag_520:\n    tag_519:\n      add\n      sload\n        /* \"Project-3/Starter code/blackjack.sol\":16561:16566  array */\n      dup3\n        /* \"Project-3/Starter code/blackjack.sol\":16567:16568  1 */\n      0x01\n        /* \"Project-3/Starter code/blackjack.sol\":16561:16569  array[1] */\n      0x04\n      dup2\n      lt\n      tag_522\n      jumpi\n      tag_523\n      tag_183\n      jump\t// in\n    tag_523:\n    tag_522:\n      0x20\n      mul\n      add\n      mload\n        /* \"Project-3/Starter code/blackjack.sol\":16570:16571  0 */\n      0x00\n        /* \"Project-3/Starter code/blackjack.sol\":16561:16572  array[1][0] */\n      0x02\n      dup2\n      lt\n      tag_524\n      jumpi\n      tag_525\n      tag_183\n      jump\t// in\n    tag_525:\n    tag_524:\n      0x20\n      mul\n      add\n        /* \"Project-3/Starter code/blackjack.sol\":16561:16591  array[1][0] = dealtCards[2][0] */\n      dup2\n      dup2\n      mstore\n      pop\n      pop\n        /* \"Project-3/Starter code/blackjack.sol\":16619:16629  dealtCards */\n      0x50\n        /* \"Project-3/Starter code/blackjack.sol\":16630:16631  1 */\n      0x01\n        /* \"Project-3/Starter code/blackjack.sol\":16619:16632  dealtCards[1] */\n      0x04\n      dup2\n      lt\n      tag_526\n      jumpi\n      tag_527\n      tag_183\n      jump\t// in\n    tag_527:\n    tag_526:\n      0x02\n      mul\n      add\n        /* \"Project-3/Starter code/blackjack.sol\":16633:16634  1 */\n      0x01\n        /* \"Project-3/Starter code/blackjack.sol\":16619:16635  dealtCards[1][1] */\n      0x02\n      dup2\n      lt\n      tag_529\n      jumpi\n      tag_530\n      tag_183\n      jump\t// in\n    tag_530:\n    tag_529:\n      add\n      sload\n        /* \"Project-3/Starter code/blackjack.sol\":16605:16610  array */\n      dup3\n        /* \"Project-3/Starter code/blackjack.sol\":16611:16612  2 */\n      0x02\n        /* \"Project-3/Starter code/blackjack.sol\":16605:16613  array[2] */\n      0x04\n      dup2\n      lt\n      tag_532\n      jumpi\n      tag_533\n      tag_183\n      jump\t// in\n    tag_533:\n    tag_532:\n      0x20\n      mul\n      add\n      mload\n        /* \"Project-3/Starter code/blackjack.sol\":16614:16615  1 */\n      0x01\n        /* \"Project-3/Starter code/blackjack.sol\":16605:16616  array[2][1] */\n      0x02\n      dup2\n      lt\n      tag_534\n      jumpi\n      tag_535\n      tag_183\n      jump\t// in\n    tag_535:\n    tag_534:\n      0x20\n      mul\n      add\n        /* \"Project-3/Starter code/blackjack.sol\":16605:16635  array[2][1] = dealtCards[1][1] */\n      dup2\n      dup2\n      mstore\n      pop\n      pop\n        /* \"Project-3/Starter code/blackjack.sol\":16452:16663  while ((array[1][0] == array[2][0]) && (array[1][1] == array[2][1])) {... */\n      jump(tag_496)\n    tag_497:\n        /* \"Project-3/Starter code/blackjack.sol\":16685:16907  while ((array[2][0] == array[3][0]) && (array[2][1] == array[3][1])) {... */\n    tag_536:\n        /* \"Project-3/Starter code/blackjack.sol\":16708:16713  array */\n      dup2\n        /* \"Project-3/Starter code/blackjack.sol\":16714:16715  3 */\n      0x03\n        /* \"Project-3/Starter code/blackjack.sol\":16708:16716  array[3] */\n      0x04\n      dup2\n      lt\n      tag_538\n      jumpi\n      tag_539\n      tag_183\n      jump\t// in\n    tag_539:\n    tag_538:\n      0x20\n      mul\n      add\n      mload\n        /* \"Project-3/Starter code/blackjack.sol\":16717:16718  0 */\n      0x00\n        /* \"Project-3/Starter code/blackjack.sol\":16708:16719  array[3][0] */\n      0x02\n      dup2\n      lt\n      tag_540\n      jumpi\n      tag_541\n      tag_183\n      jump\t// in\n    tag_541:\n    tag_540:\n      0x20\n      mul\n      add\n      mload\n        /* \"Project-3/Starter code/blackjack.sol\":16693:16698  array */\n      dup3\n        /* \"Project-3/Starter code/blackjack.sol\":16699:16700  2 */\n      0x02\n        /* \"Project-3/Starter code/blackjack.sol\":16693:16701  array[2] */\n      0x04\n      dup2\n      lt\n      tag_542\n      jumpi\n      tag_543\n      tag_183\n      jump\t// in\n    tag_543:\n    tag_542:\n      0x20\n      mul\n      add\n      mload\n        /* \"Project-3/Starter code/blackjack.sol\":16702:16703  0 */\n      0x00\n        /* \"Project-3/Starter code/blackjack.sol\":16693:16704  array[2][0] */\n      0x02\n      dup2\n      lt\n      tag_544\n      jumpi\n      tag_545\n      tag_183\n      jump\t// in\n    tag_545:\n    tag_544:\n      0x20\n      mul\n      add\n      mload\n        /* \"Project-3/Starter code/blackjack.sol\":16693:16719  array[2][0] == array[3][0] */\n      eq\n        /* \"Project-3/Starter code/blackjack.sol\":16692:16752  (array[2][0] == array[3][0]) && (array[2][1] == array[3][1]) */\n      dup1\n      iszero\n      tag_546\n      jumpi\n      pop\n        /* \"Project-3/Starter code/blackjack.sol\":16740:16745  array */\n      dup2\n        /* \"Project-3/Starter code/blackjack.sol\":16746:16747  3 */\n      0x03\n        /* \"Project-3/Starter code/blackjack.sol\":16740:16748  array[3] */\n      0x04\n      dup2\n      lt\n      tag_547\n      jumpi\n      tag_548\n      tag_183\n      jump\t// in\n    tag_548:\n    tag_547:\n      0x20\n      mul\n      add\n      mload\n        /* \"Project-3/Starter code/blackjack.sol\":16749:16750  1 */\n      0x01\n        /* \"Project-3/Starter code/blackjack.sol\":16740:16751  array[3][1] */\n      0x02\n      dup2\n      lt\n      tag_549\n      jumpi\n      tag_550\n      tag_183\n      jump\t// in\n    tag_550:\n    tag_549:\n      0x20\n      mul\n      add\n      mload\n        /* \"Project-3/Starter code/blackjack.sol\":16725:16730  array */\n      dup3\n        /* \"Project-3/Starter code/blackjack.sol\":16731:16732  2 */\n      0x02\n        /* \"Project-3/Starter code/blackjack.sol\":16725:16733  array[2] */\n      0x04\n      dup2\n      lt\n      tag_551\n      jumpi\n      tag_552\n      tag_183\n      jump\t// in\n    tag_552:\n    tag_551:\n      0x20\n      mul\n      add\n      mload\n        /* \"Project-3/Starter code/blackjack.sol\":16734:16735  1 */\n      0x01\n        /* \"Project-3/Starter code/blackjack.sol\":16725:16736  array[2][1] */\n      0x02\n      dup2\n      lt\n      tag_553\n      jumpi\n      tag_554\n      tag_183\n      jump\t// in\n    tag_554:\n    tag_553:\n      0x20\n      mul\n      add\n      mload\n        /* \"Project-3/Starter code/blackjack.sol\":16725:16751  array[2][1] == array[3][1] */\n      eq\n        /* \"Project-3/Starter code/blackjack.sol\":16692:16752  (array[2][0] == array[3][0]) && (array[2][1] == array[3][1]) */\n    tag_546:\n        /* \"Project-3/Starter code/blackjack.sol\":16685:16907  while ((array[2][0] == array[3][0]) && (array[2][1] == array[3][1])) {... */\n      iszero\n      tag_537\n      jumpi\n        /* \"Project-3/Starter code/blackjack.sol\":16769:16780  getCards(1) */\n      tag_555\n        /* \"Project-3/Starter code/blackjack.sol\":16778:16779  1 */\n      0x01\n        /* \"Project-3/Starter code/blackjack.sol\":16769:16777  getCards */\n      tag_237\n        /* \"Project-3/Starter code/blackjack.sol\":16769:16780  getCards(1) */\n      jump\t// in\n    tag_555:\n        /* \"Project-3/Starter code/blackjack.sol\":16808:16818  dealtCards */\n      0x50\n        /* \"Project-3/Starter code/blackjack.sol\":16819:16820  1 */\n      0x01\n        /* \"Project-3/Starter code/blackjack.sol\":16808:16821  dealtCards[1] */\n      0x04\n      dup2\n      lt\n      tag_556\n      jumpi\n      tag_557\n      tag_183\n      jump\t// in\n    tag_557:\n    tag_556:\n      0x02\n      mul\n      add\n        /* \"Project-3/Starter code/blackjack.sol\":16822:16823  0 */\n      0x00\n        /* \"Project-3/Starter code/blackjack.sol\":16808:16824  dealtCards[1][0] */\n      0x02\n      dup2\n      lt\n      tag_559\n      jumpi\n      tag_560\n      tag_183\n      jump\t// in\n    tag_560:\n    tag_559:\n      add\n      sload\n        /* \"Project-3/Starter code/blackjack.sol\":16794:16799  array */\n      dup3\n        /* \"Project-3/Starter code/blackjack.sol\":16800:16801  3 */\n      0x03\n        /* \"Project-3/Starter code/blackjack.sol\":16794:16802  array[3] */\n      0x04\n      dup2\n      lt\n      tag_562\n      jumpi\n      tag_563\n      tag_183\n      jump\t// in\n    tag_563:\n    tag_562:\n      0x20\n      mul\n      add\n      mload\n        /* \"Project-3/Starter code/blackjack.sol\":16803:16804  0 */\n      0x00\n        /* \"Project-3/Starter code/blackjack.sol\":16794:16805  array[3][0] */\n      0x02\n      dup2\n      lt\n      tag_564\n      jumpi\n      tag_565\n      tag_183\n      jump\t// in\n    tag_565:\n    tag_564:\n      0x20\n      mul\n      add\n        /* \"Project-3/Starter code/blackjack.sol\":16794:16824  array[3][0] = dealtCards[1][0] */\n      dup2\n      dup2\n      mstore\n      pop\n      pop\n        /* \"Project-3/Starter code/blackjack.sol\":16852:16862  dealtCards */\n      0x50\n        /* \"Project-3/Starter code/blackjack.sol\":16863:16864  1 */\n      0x01\n        /* \"Project-3/Starter code/blackjack.sol\":16852:16865  dealtCards[1] */\n      0x04\n      dup2\n      lt\n      tag_566\n      jumpi\n      tag_567\n      tag_183\n      jump\t// in\n    tag_567:\n    tag_566:\n      0x02\n      mul\n      add\n        /* \"Project-3/Starter code/blackjack.sol\":16866:16867  1 */\n      0x01\n        /* \"Project-3/Starter code/blackjack.sol\":16852:16868  dealtCards[1][1] */\n      0x02\n      dup2\n      lt\n      tag_569\n      jumpi\n      tag_570\n      tag_183\n      jump\t// in\n    tag_570:\n    tag_569:\n      add\n      sload\n        /* \"Project-3/Starter code/blackjack.sol\":16838:16843  array */\n      dup3\n        /* \"Project-3/Starter code/blackjack.sol\":16844:16845  3 */\n      0x03\n        /* \"Project-3/Starter code/blackjack.sol\":16838:16846  array[3] */\n      0x04\n      dup2\n      lt\n      tag_572\n      jumpi\n      tag_573\n      tag_183\n      jump\t// in\n    tag_573:\n    tag_572:\n      0x20\n      mul\n      add\n      mload\n        /* \"Project-3/Starter code/blackjack.sol\":16847:16848  1 */\n      0x01\n        /* \"Project-3/Starter code/blackjack.sol\":16838:16849  array[3][1] */\n      0x02\n      dup2\n      lt\n      tag_574\n      jumpi\n      tag_575\n      tag_183\n      jump\t// in\n    tag_575:\n    tag_574:\n      0x20\n      mul\n      add\n        /* \"Project-3/Starter code/blackjack.sol\":16838:16868  array[3][1] = dealtCards[1][1] */\n      dup2\n      dup2\n      mstore\n      pop\n      pop\n        /* \"Project-3/Starter code/blackjack.sol\":16685:16907  while ((array[2][0] == array[3][0]) && (array[2][1] == array[3][1])) {... */\n      jump(tag_536)\n    tag_537:\n        /* \"Project-3/Starter code/blackjack.sol\":16924:16929  array */\n      dup2\n        /* \"Project-3/Starter code/blackjack.sol\":16917:16929  return array */\n      swap1\n      pop\n        /* \"Project-3/Starter code/blackjack.sol\":16351:16937  function replaceDuplicates(uint[2][4] memory array) internal returns (uint[2][4] memory) {... */\n      swap2\n      swap1\n      pop\n      jump\t// out\n        /* \"Project-3/Starter code/blackjack.sol\":7705:7918  function pushToPlayer(uint _rank, uint _suit, uint index) internal {... */\n    tag_260:\n        /* \"Project-3/Starter code/blackjack.sol\":7808:7813  _rank */\n      dup3\n        /* \"Project-3/Starter code/blackjack.sol\":7783:7795  playersCards */\n      0x08\n        /* \"Project-3/Starter code/blackjack.sol\":7796:7801  index */\n      dup3\n        /* \"Project-3/Starter code/blackjack.sol\":7783:7802  playersCards[index] */\n      0x10\n      dup2\n      lt\n      tag_577\n      jumpi\n      tag_578\n      tag_183\n      jump\t// in\n    tag_578:\n    tag_577:\n      0x02\n      mul\n      add\n        /* \"Project-3/Starter code/blackjack.sol\":7803:7804  0 */\n      0x00\n        /* \"Project-3/Starter code/blackjack.sol\":7783:7805  playersCards[index][0] */\n      0x02\n      dup2\n      lt\n      tag_580\n      jumpi\n      tag_581\n      tag_183\n      jump\t// in\n    tag_581:\n    tag_580:\n      add\n        /* \"Project-3/Starter code/blackjack.sol\":7783:7813  playersCards[index][0] = _rank */\n      dup2\n      swap1\n      sstore\n      pop\n        /* \"Project-3/Starter code/blackjack.sol\":7848:7853  _suit */\n      dup2\n        /* \"Project-3/Starter code/blackjack.sol\":7823:7835  playersCards */\n      0x08\n        /* \"Project-3/Starter code/blackjack.sol\":7836:7841  index */\n      dup3\n        /* \"Project-3/Starter code/blackjack.sol\":7823:7842  playersCards[index] */\n      0x10\n      dup2\n      lt\n      tag_583\n      jumpi\n      tag_584\n      tag_183\n      jump\t// in\n    tag_584:\n    tag_583:\n      0x02\n      mul\n      add\n        /* \"Project-3/Starter code/blackjack.sol\":7843:7844  1 */\n      0x01\n        /* \"Project-3/Starter code/blackjack.sol\":7823:7845  playersCards[index][1] */\n      0x02\n      dup2\n      lt\n      tag_586\n      jumpi\n      tag_587\n      tag_183\n      jump\t// in\n    tag_587:\n    tag_586:\n      add\n        /* \"Project-3/Starter code/blackjack.sol\":7823:7853  playersCards[index][1] = _suit */\n      dup2\n      swap1\n      sstore\n      pop\n        /* \"Project-3/Starter code/blackjack.sol\":7881:7910  numCardsInArray(playersCards) */\n      tag_589\n        /* \"Project-3/Starter code/blackjack.sol\":7897:7909  playersCards */\n      0x08\n        /* \"Project-3/Starter code/blackjack.sol\":7881:7910  numCardsInArray(playersCards) */\n      0x10\n      dup1\n      0x20\n      mul\n      mload(0x40)\n      swap1\n      dup2\n      add\n      0x40\n      mstore\n      dup1\n      swap3\n      swap2\n      swap1\n      0x00\n      swap1\n    tag_590:\n      dup3\n      dup3\n      lt\n      iszero\n      tag_591\n      jumpi\n      dup4\n      dup3\n      0x02\n      mul\n      add\n      0x02\n      dup1\n      0x20\n      mul\n      mload(0x40)\n      swap1\n      dup2\n      add\n      0x40\n      mstore\n      dup1\n      swap3\n      swap2\n      swap1\n      dup3\n      0x02\n      dup1\n      iszero\n      tag_593\n      jumpi\n      0x20\n      mul\n      dup3\n      add\n      swap2\n    tag_594:\n      dup2\n      sload\n      dup2\n      mstore\n      0x20\n      add\n      swap1\n      0x01\n      add\n      swap1\n      dup1\n      dup4\n      gt\n      tag_594\n      jumpi\n    tag_593:\n      pop\n      pop\n      pop\n      pop\n      pop\n      dup2\n      mstore\n      0x20\n      add\n      swap1\n      0x01\n      add\n      swap1\n      jump(tag_590)\n    tag_591:\n      pop\n      pop\n      pop\n      pop\n        /* \"Project-3/Starter code/blackjack.sol\":7881:7896  numCardsInArray */\n      tag_360\n        /* \"Project-3/Starter code/blackjack.sol\":7881:7910  numCardsInArray(playersCards) */\n      jump\t// in\n    tag_589:\n        /* \"Project-3/Starter code/blackjack.sol\":7863:7878  playerCardCount */\n      0x58\n        /* \"Project-3/Starter code/blackjack.sol\":7863:7910  playerCardCount = numCardsInArray(playersCards) */\n      dup2\n      swap1\n      sstore\n      pop\n        /* \"Project-3/Starter code/blackjack.sol\":7705:7918  function pushToPlayer(uint _rank, uint _suit, uint index) internal {... */\n      pop\n      pop\n      pop\n      jump\t// out\n        /* \"Project-3/Starter code/blackjack.sol\":7925:8138  function pushToDealer(uint _rank, uint _suit, uint index) internal {... */\n    tag_274:\n        /* \"Project-3/Starter code/blackjack.sol\":8028:8033  _rank */\n      dup3\n        /* \"Project-3/Starter code/blackjack.sol\":8003:8015  dealersCards */\n      0x28\n        /* \"Project-3/Starter code/blackjack.sol\":8016:8021  index */\n      dup3\n        /* \"Project-3/Starter code/blackjack.sol\":8003:8022  dealersCards[index] */\n      0x10\n      dup2\n      lt\n      tag_596\n      jumpi\n      tag_597\n      tag_183\n      jump\t// in\n    tag_597:\n    tag_596:\n      0x02\n      mul\n      add\n        /* \"Project-3/Starter code/blackjack.sol\":8023:8024  0 */\n      0x00\n        /* \"Project-3/Starter code/blackjack.sol\":8003:8025  dealersCards[index][0] */\n      0x02\n      dup2\n      lt\n      tag_599\n      jumpi\n      tag_600\n      tag_183\n      jump\t// in\n    tag_600:\n    tag_599:\n      add\n        /* \"Project-3/Starter code/blackjack.sol\":8003:8033  dealersCards[index][0] = _rank */\n      dup2\n      swap1\n      sstore\n      pop\n        /* \"Project-3/Starter code/blackjack.sol\":8068:8073  _suit */\n      dup2\n        /* \"Project-3/Starter code/blackjack.sol\":8043:8055  dealersCards */\n      0x28\n        /* \"Project-3/Starter code/blackjack.sol\":8056:8061  index */\n      dup3\n        /* \"Project-3/Starter code/blackjack.sol\":8043:8062  dealersCards[index] */\n      0x10\n      dup2\n      lt\n      tag_602\n      jumpi\n      tag_603\n      tag_183\n      jump\t// in\n    tag_603:\n    tag_602:\n      0x02\n      mul\n      add\n        /* \"Project-3/Starter code/blackjack.sol\":8063:8064  1 */\n      0x01\n        /* \"Project-3/Starter code/blackjack.sol\":8043:8065  dealersCards[index][1] */\n      0x02\n      dup2\n      lt\n      tag_605\n      jumpi\n      tag_606\n      tag_183\n      jump\t// in\n    tag_606:\n    tag_605:\n      add\n        /* \"Project-3/Starter code/blackjack.sol\":8043:8073  dealersCards[index][1] = _suit */\n      dup2\n      swap1\n      sstore\n      pop\n        /* \"Project-3/Starter code/blackjack.sol\":8101:8130  numCardsInArray(dealersCards) */\n      tag_608\n        /* \"Project-3/Starter code/blackjack.sol\":8117:8129  dealersCards */\n      0x28\n        /* \"Project-3/Starter code/blackjack.sol\":8101:8130  numCardsInArray(dealersCards) */\n      0x10\n      dup1\n      0x20\n      mul\n      mload(0x40)\n      swap1\n      dup2\n      add\n      0x40\n      mstore\n      dup1\n      swap3\n      swap2\n      swap1\n      0x00\n      swap1\n    tag_609:\n      dup3\n      dup3\n      lt\n      iszero\n      tag_610\n      jumpi\n      dup4\n      dup3\n      0x02\n      mul\n      add\n      0x02\n      dup1\n      0x20\n      mul\n      mload(0x40)\n      swap1\n      dup2\n      add\n      0x40\n      mstore\n      dup1\n      swap3\n      swap2\n      swap1\n      dup3\n      0x02\n      dup1\n      iszero\n      tag_612\n      jumpi\n      0x20\n      mul\n      dup3\n      add\n      swap2\n    tag_613:\n      dup2\n      sload\n      dup2\n      mstore\n      0x20\n      add\n      swap1\n      0x01\n      add\n      swap1\n      dup1\n      dup4\n      gt\n      tag_613\n      jumpi\n    tag_612:\n      pop\n      pop\n      pop\n      pop\n      pop\n      dup2\n      mstore\n      0x20\n      add\n      swap1\n      0x01\n      add\n      swap1\n      jump(tag_609)\n    tag_610:\n      pop\n      pop\n      pop\n      pop\n        /* \"Project-3/Starter code/blackjack.sol\":8101:8116  numCardsInArray */\n      tag_360\n        /* \"Project-3/Starter code/blackjack.sol\":8101:8130  numCardsInArray(dealersCards) */\n      jump\t// in\n    tag_608:\n        /* \"Project-3/Starter code/blackjack.sol\":8083:8098  dealerCardCount */\n      0x59\n        /* \"Project-3/Starter code/blackjack.sol\":8083:8130  dealerCardCount = numCardsInArray(dealersCards) */\n      dup2\n      swap1\n      sstore\n      pop\n        /* \"Project-3/Starter code/blackjack.sol\":7925:8138  function pushToDealer(uint _rank, uint _suit, uint index) internal {... */\n      pop\n      pop\n      pop\n      jump\t// out\n        /* \"Project-3/Starter code/blackjack.sol\":11667:12406  function sumPlayersCards() internal {... */\n    tag_289:\n        /* \"Project-3/Starter code/blackjack.sol\":11714:11725  uint result */\n      0x00\n        /* \"Project-3/Starter code/blackjack.sol\":11739:11754  uint aceAlready */\n      dup1\n        /* \"Project-3/Starter code/blackjack.sol\":11787:11816  numCardsInArray(playersCards) */\n      tag_615\n        /* \"Project-3/Starter code/blackjack.sol\":11803:11815  playersCards */\n      0x08\n        /* \"Project-3/Starter code/blackjack.sol\":11787:11816  numCardsInArray(playersCards) */\n      0x10\n      dup1\n      0x20\n      mul\n      mload(0x40)\n      swap1\n      dup2\n      add\n      0x40\n      mstore\n      dup1\n      swap3\n      swap2\n      swap1\n      0x00\n      swap1\n    tag_616:\n      dup3\n      dup3\n      lt\n      iszero\n      tag_617\n      jumpi\n      dup4\n      dup3\n      0x02\n      mul\n      add\n      0x02\n      dup1\n      0x20\n      mul\n      mload(0x40)\n      swap1\n      dup2\n      add\n      0x40\n      mstore\n      dup1\n      swap3\n      swap2\n      swap1\n      dup3\n      0x02\n      dup1\n      iszero\n      tag_619\n      jumpi\n      0x20\n      mul\n      dup3\n      add\n      swap2\n    tag_620:\n      dup2\n      sload\n      dup2\n      mstore\n      0x20\n      add\n      swap1\n      0x01\n      add\n      swap1\n      dup1\n      dup4\n      gt\n      tag_620\n      jumpi\n    tag_619:\n      pop\n      pop\n      pop\n      pop\n      pop\n      dup2\n      mstore\n      0x20\n      add\n      swap1\n      0x01\n      add\n      swap1\n      jump(tag_616)\n    tag_617:\n      pop\n      pop\n      pop\n      pop\n        /* \"Project-3/Starter code/blackjack.sol\":11787:11802  numCardsInArray */\n      tag_360\n        /* \"Project-3/Starter code/blackjack.sol\":11787:11816  numCardsInArray(playersCards) */\n      jump\t// in\n    tag_615:\n        /* \"Project-3/Starter code/blackjack.sol\":11769:11784  playerCardCount */\n      0x58\n        /* \"Project-3/Starter code/blackjack.sol\":11769:11816  playerCardCount = numCardsInArray(playersCards) */\n      dup2\n      swap1\n      sstore\n      pop\n        /* \"Project-3/Starter code/blackjack.sol\":11832:11841  uint256 i */\n      0x00\n        /* \"Project-3/Starter code/blackjack.sol\":11844:11845  1 */\n      0x01\n        /* \"Project-3/Starter code/blackjack.sol\":11832:11845  uint256 i = 1 */\n      swap1\n      pop\n        /* \"Project-3/Starter code/blackjack.sol\":11827:12192  for (uint256 i = 1; i <= playerCardCount; i++) {... */\n    tag_621:\n        /* \"Project-3/Starter code/blackjack.sol\":11852:11867  playerCardCount */\n      sload(0x58)\n        /* \"Project-3/Starter code/blackjack.sol\":11847:11848  i */\n      dup2\n        /* \"Project-3/Starter code/blackjack.sol\":11847:11867  i <= playerCardCount */\n      gt\n        /* \"Project-3/Starter code/blackjack.sol\":11827:12192  for (uint256 i = 1; i <= playerCardCount; i++) {... */\n      tag_622\n      jumpi\n        /* \"Project-3/Starter code/blackjack.sol\":11914:11915  9 */\n      0x09\n        /* \"Project-3/Starter code/blackjack.sol\":11893:11905  playersCards */\n      0x08\n        /* \"Project-3/Starter code/blackjack.sol\":11906:11907  i */\n      dup3\n        /* \"Project-3/Starter code/blackjack.sol\":11893:11908  playersCards[i] */\n      0x10\n      dup2\n      lt\n      tag_624\n      jumpi\n      tag_625\n      tag_183\n      jump\t// in\n    tag_625:\n    tag_624:\n      0x02\n      mul\n      add\n        /* \"Project-3/Starter code/blackjack.sol\":11909:11910  0 */\n      0x00\n        /* \"Project-3/Starter code/blackjack.sol\":11893:11911  playersCards[i][0] */\n      0x02\n      dup2\n      lt\n      tag_627\n      jumpi\n      tag_628\n      tag_183\n      jump\t// in\n    tag_628:\n    tag_627:\n      add\n      sload\n        /* \"Project-3/Starter code/blackjack.sol\":11893:11915  playersCards[i][0] > 9 */\n      gt\n        /* \"Project-3/Starter code/blackjack.sol\":11889:11970  if (playersCards[i][0] > 9) {... */\n      iszero\n      tag_630\n      jumpi\n        /* \"Project-3/Starter code/blackjack.sol\":11953:11955  10 */\n      0x0a\n        /* \"Project-3/Starter code/blackjack.sol\":11944:11950  result */\n      dup4\n        /* \"Project-3/Starter code/blackjack.sol\":11944:11955  result + 10 */\n      tag_631\n      swap2\n      swap1\n      tag_165\n      jump\t// in\n    tag_631:\n        /* \"Project-3/Starter code/blackjack.sol\":11935:11955  result = result + 10 */\n      swap3\n      pop\n        /* \"Project-3/Starter code/blackjack.sol\":11889:11970  if (playersCards[i][0] > 9) {... */\n    tag_630:\n        /* \"Project-3/Starter code/blackjack.sol\":12008:12010  10 */\n      0x0a\n        /* \"Project-3/Starter code/blackjack.sol\":11987:11999  playersCards */\n      0x08\n        /* \"Project-3/Starter code/blackjack.sol\":12000:12001  i */\n      dup3\n        /* \"Project-3/Starter code/blackjack.sol\":11987:12002  playersCards[i] */\n      0x10\n      dup2\n      lt\n      tag_632\n      jumpi\n      tag_633\n      tag_183\n      jump\t// in\n    tag_633:\n    tag_632:\n      0x02\n      mul\n      add\n        /* \"Project-3/Starter code/blackjack.sol\":12003:12004  0 */\n      0x00\n        /* \"Project-3/Starter code/blackjack.sol\":11987:12005  playersCards[i][0] */\n      0x02\n      dup2\n      lt\n      tag_635\n      jumpi\n      tag_636\n      tag_183\n      jump\t// in\n    tag_636:\n    tag_635:\n      add\n      sload\n        /* \"Project-3/Starter code/blackjack.sol\":11987:12010  playersCards[i][0] < 10 */\n      lt\n        /* \"Project-3/Starter code/blackjack.sol\":11983:12082  if (playersCards[i][0] < 10) { ... */\n      iszero\n      tag_638\n      jumpi\n        /* \"Project-3/Starter code/blackjack.sol\":12049:12061  playersCards */\n      0x08\n        /* \"Project-3/Starter code/blackjack.sol\":12062:12063  i */\n      dup2\n        /* \"Project-3/Starter code/blackjack.sol\":12049:12064  playersCards[i] */\n      0x10\n      dup2\n      lt\n      tag_639\n      jumpi\n      tag_640\n      tag_183\n      jump\t// in\n    tag_640:\n    tag_639:\n      0x02\n      mul\n      add\n        /* \"Project-3/Starter code/blackjack.sol\":12065:12066  0 */\n      0x00\n        /* \"Project-3/Starter code/blackjack.sol\":12049:12067  playersCards[i][0] */\n      0x02\n      dup2\n      lt\n      tag_642\n      jumpi\n      tag_643\n      tag_183\n      jump\t// in\n    tag_643:\n    tag_642:\n      add\n      sload\n        /* \"Project-3/Starter code/blackjack.sol\":12040:12046  result */\n      dup4\n        /* \"Project-3/Starter code/blackjack.sol\":12040:12067  result + playersCards[i][0] */\n      tag_645\n      swap2\n      swap1\n      tag_165\n      jump\t// in\n    tag_645:\n        /* \"Project-3/Starter code/blackjack.sol\":12031:12067  result = result + playersCards[i][0] */\n      swap3\n      pop\n        /* \"Project-3/Starter code/blackjack.sol\":11983:12082  if (playersCards[i][0] < 10) { ... */\n    tag_638:\n        /* \"Project-3/Starter code/blackjack.sol\":12121:12122  1 */\n      0x01\n        /* \"Project-3/Starter code/blackjack.sol\":12099:12111  playersCards */\n      0x08\n        /* \"Project-3/Starter code/blackjack.sol\":12112:12113  i */\n      dup3\n        /* \"Project-3/Starter code/blackjack.sol\":12099:12114  playersCards[i] */\n      0x10\n      dup2\n      lt\n      tag_646\n      jumpi\n      tag_647\n      tag_183\n      jump\t// in\n    tag_647:\n    tag_646:\n      0x02\n      mul\n      add\n        /* \"Project-3/Starter code/blackjack.sol\":12115:12116  0 */\n      0x00\n        /* \"Project-3/Starter code/blackjack.sol\":12099:12117  playersCards[i][0] */\n      0x02\n      dup2\n      lt\n      tag_649\n      jumpi\n      tag_650\n      tag_183\n      jump\t// in\n    tag_650:\n    tag_649:\n      add\n      sload\n        /* \"Project-3/Starter code/blackjack.sol\":12099:12122  playersCards[i][0] == 1 */\n      sub\n        /* \"Project-3/Starter code/blackjack.sol\":12095:12182  if (playersCards[i][0] == 1) {... */\n      tag_652\n      jumpi\n        /* \"Project-3/Starter code/blackjack.sol\":12155:12156  1 */\n      0x01\n        /* \"Project-3/Starter code/blackjack.sol\":12142:12156  aceAlready = 1 */\n      swap2\n      pop\n        /* \"Project-3/Starter code/blackjack.sol\":12095:12182  if (playersCards[i][0] == 1) {... */\n    tag_652:\n        /* \"Project-3/Starter code/blackjack.sol\":11869:11872  i++ */\n      dup1\n      dup1\n      tag_653\n      swap1\n      tag_235\n      jump\t// in\n    tag_653:\n      swap2\n      pop\n      pop\n        /* \"Project-3/Starter code/blackjack.sol\":11827:12192  for (uint256 i = 1; i <= playerCardCount; i++) {... */\n      jump(tag_621)\n    tag_622:\n      pop\n        /* \"Project-3/Starter code/blackjack.sol\":12226:12232  result */\n      dup2\n        /* \"Project-3/Starter code/blackjack.sol\":12202:12217  playerHandValue */\n      0x48\n        /* \"Project-3/Starter code/blackjack.sol\":12218:12219  1 */\n      0x01\n        /* \"Project-3/Starter code/blackjack.sol\":12202:12220  playerHandValue[1] */\n      0x02\n      dup2\n      lt\n      tag_654\n      jumpi\n      tag_655\n      tag_183\n      jump\t// in\n    tag_655:\n    tag_654:\n      0x02\n      mul\n      add\n        /* \"Project-3/Starter code/blackjack.sol\":12221:12222  0 */\n      0x00\n        /* \"Project-3/Starter code/blackjack.sol\":12202:12223  playerHandValue[1][0] */\n      0x02\n      dup2\n      lt\n      tag_657\n      jumpi\n      tag_658\n      tag_183\n      jump\t// in\n    tag_658:\n    tag_657:\n      add\n        /* \"Project-3/Starter code/blackjack.sol\":12202:12232  playerHandValue[1][0] = result */\n      dup2\n      swap1\n      sstore\n      pop\n        /* \"Project-3/Starter code/blackjack.sol\":12266:12272  result */\n      dup2\n        /* \"Project-3/Starter code/blackjack.sol\":12242:12257  playerHandValue */\n      0x48\n        /* \"Project-3/Starter code/blackjack.sol\":12258:12259  1 */\n      0x01\n        /* \"Project-3/Starter code/blackjack.sol\":12242:12260  playerHandValue[1] */\n      0x02\n      dup2\n      lt\n      tag_660\n      jumpi\n      tag_661\n      tag_183\n      jump\t// in\n    tag_661:\n    tag_660:\n      0x02\n      mul\n      add\n        /* \"Project-3/Starter code/blackjack.sol\":12261:12262  1 */\n      0x01\n        /* \"Project-3/Starter code/blackjack.sol\":12242:12263  playerHandValue[1][1] */\n      0x02\n      dup2\n      lt\n      tag_663\n      jumpi\n      tag_664\n      tag_183\n      jump\t// in\n    tag_664:\n    tag_663:\n      add\n        /* \"Project-3/Starter code/blackjack.sol\":12242:12272  playerHandValue[1][1] = result */\n      dup2\n      swap1\n      sstore\n      pop\n        /* \"Project-3/Starter code/blackjack.sol\":12309:12310  1 */\n      0x01\n        /* \"Project-3/Starter code/blackjack.sol\":12295:12305  aceAlready */\n      dup2\n        /* \"Project-3/Starter code/blackjack.sol\":12295:12310  aceAlready == 1 */\n      sub\n        /* \"Project-3/Starter code/blackjack.sol\":12291:12400  if (aceAlready == 1) {... */\n      tag_666\n      jumpi\n        /* \"Project-3/Starter code/blackjack.sol\":12387:12389  10 */\n      0x0a\n        /* \"Project-3/Starter code/blackjack.sol\":12363:12378  playerHandValue */\n      0x48\n        /* \"Project-3/Starter code/blackjack.sol\":12379:12380  1 */\n      0x01\n        /* \"Project-3/Starter code/blackjack.sol\":12363:12381  playerHandValue[1] */\n      0x02\n      dup2\n      lt\n      tag_667\n      jumpi\n      tag_668\n      tag_183\n      jump\t// in\n    tag_668:\n    tag_667:\n      0x02\n      mul\n      add\n        /* \"Project-3/Starter code/blackjack.sol\":12382:12383  1 */\n      0x01\n        /* \"Project-3/Starter code/blackjack.sol\":12363:12384  playerHandValue[1][1] */\n      0x02\n      dup2\n      lt\n      tag_670\n      jumpi\n      tag_671\n      tag_183\n      jump\t// in\n    tag_671:\n    tag_670:\n      add\n      sload\n        /* \"Project-3/Starter code/blackjack.sol\":12363:12389  playerHandValue[1][1] + 10 */\n      tag_673\n      swap2\n      swap1\n      tag_165\n      jump\t// in\n    tag_673:\n        /* \"Project-3/Starter code/blackjack.sol\":12339:12354  playerHandValue */\n      0x48\n        /* \"Project-3/Starter code/blackjack.sol\":12355:12356  1 */\n      0x01\n        /* \"Project-3/Starter code/blackjack.sol\":12339:12357  playerHandValue[1] */\n      0x02\n      dup2\n      lt\n      tag_674\n      jumpi\n      tag_675\n      tag_183\n      jump\t// in\n    tag_675:\n    tag_674:\n      0x02\n      mul\n      add\n        /* \"Project-3/Starter code/blackjack.sol\":12358:12359  1 */\n      0x01\n        /* \"Project-3/Starter code/blackjack.sol\":12339:12360  playerHandValue[1][1] */\n      0x02\n      dup2\n      lt\n      tag_677\n      jumpi\n      tag_678\n      tag_183\n      jump\t// in\n    tag_678:\n    tag_677:\n      add\n        /* \"Project-3/Starter code/blackjack.sol\":12339:12389  playerHandValue[1][1] = playerHandValue[1][1] + 10 */\n      dup2\n      swap1\n      sstore\n      pop\n        /* \"Project-3/Starter code/blackjack.sol\":12291:12400  if (aceAlready == 1) {... */\n    tag_666:\n        /* \"Project-3/Starter code/blackjack.sol\":11703:12406  {... */\n      pop\n      pop\n        /* \"Project-3/Starter code/blackjack.sol\":11667:12406  function sumPlayersCards() internal {... */\n      jump\t// out\n        /* \"Project-3/Starter code/blackjack.sol\":12512:13251  function sumDealersCards() internal {... */\n    tag_291:\n        /* \"Project-3/Starter code/blackjack.sol\":12559:12570  uint result */\n      0x00\n        /* \"Project-3/Starter code/blackjack.sol\":12584:12599  uint aceAlready */\n      dup1\n        /* \"Project-3/Starter code/blackjack.sol\":12632:12661  numCardsInArray(dealersCards) */\n      tag_681\n        /* \"Project-3/Starter code/blackjack.sol\":12648:12660  dealersCards */\n      0x28\n        /* \"Project-3/Starter code/blackjack.sol\":12632:12661  numCardsInArray(dealersCards) */\n      0x10\n      dup1\n      0x20\n      mul\n      mload(0x40)\n      swap1\n      dup2\n      add\n      0x40\n      mstore\n      dup1\n      swap3\n      swap2\n      swap1\n      0x00\n      swap1\n    tag_682:\n      dup3\n      dup3\n      lt\n      iszero\n      tag_683\n      jumpi\n      dup4\n      dup3\n      0x02\n      mul\n      add\n      0x02\n      dup1\n      0x20\n      mul\n      mload(0x40)\n      swap1\n      dup2\n      add\n      0x40\n      mstore\n      dup1\n      swap3\n      swap2\n      swap1\n      dup3\n      0x02\n      dup1\n      iszero\n      tag_685\n      jumpi\n      0x20\n      mul\n      dup3\n      add\n      swap2\n    tag_686:\n      dup2\n      sload\n      dup2\n      mstore\n      0x20\n      add\n      swap1\n      0x01\n      add\n      swap1\n      dup1\n      dup4\n      gt\n      tag_686\n      jumpi\n    tag_685:\n      pop\n      pop\n      pop\n      pop\n      pop\n      dup2\n      mstore\n      0x20\n      add\n      swap1\n      0x01\n      add\n      swap1\n      jump(tag_682)\n    tag_683:\n      pop\n      pop\n      pop\n      pop\n        /* \"Project-3/Starter code/blackjack.sol\":12632:12647  numCardsInArray */\n      tag_360\n        /* \"Project-3/Starter code/blackjack.sol\":12632:12661  numCardsInArray(dealersCards) */\n      jump\t// in\n    tag_681:\n        /* \"Project-3/Starter code/blackjack.sol\":12614:12629  dealerCardCount */\n      0x59\n        /* \"Project-3/Starter code/blackjack.sol\":12614:12661  dealerCardCount = numCardsInArray(dealersCards) */\n      dup2\n      swap1\n      sstore\n      pop\n        /* \"Project-3/Starter code/blackjack.sol\":12677:12686  uint256 i */\n      0x00\n        /* \"Project-3/Starter code/blackjack.sol\":12689:12690  1 */\n      0x01\n        /* \"Project-3/Starter code/blackjack.sol\":12677:12690  uint256 i = 1 */\n      swap1\n      pop\n        /* \"Project-3/Starter code/blackjack.sol\":12672:13037  for (uint256 i = 1; i <= dealerCardCount; i++) {... */\n    tag_687:\n        /* \"Project-3/Starter code/blackjack.sol\":12697:12712  dealerCardCount */\n      sload(0x59)\n        /* \"Project-3/Starter code/blackjack.sol\":12692:12693  i */\n      dup2\n        /* \"Project-3/Starter code/blackjack.sol\":12692:12712  i <= dealerCardCount */\n      gt\n        /* \"Project-3/Starter code/blackjack.sol\":12672:13037  for (uint256 i = 1; i <= dealerCardCount; i++) {... */\n      tag_688\n      jumpi\n        /* \"Project-3/Starter code/blackjack.sol\":12759:12760  9 */\n      0x09\n        /* \"Project-3/Starter code/blackjack.sol\":12738:12750  dealersCards */\n      0x28\n        /* \"Project-3/Starter code/blackjack.sol\":12751:12752  i */\n      dup3\n        /* \"Project-3/Starter code/blackjack.sol\":12738:12753  dealersCards[i] */\n      0x10\n      dup2\n      lt\n      tag_690\n      jumpi\n      tag_691\n      tag_183\n      jump\t// in\n    tag_691:\n    tag_690:\n      0x02\n      mul\n      add\n        /* \"Project-3/Starter code/blackjack.sol\":12754:12755  0 */\n      0x00\n        /* \"Project-3/Starter code/blackjack.sol\":12738:12756  dealersCards[i][0] */\n      0x02\n      dup2\n      lt\n      tag_693\n      jumpi\n      tag_694\n      tag_183\n      jump\t// in\n    tag_694:\n    tag_693:\n      add\n      sload\n        /* \"Project-3/Starter code/blackjack.sol\":12738:12760  dealersCards[i][0] > 9 */\n      gt\n        /* \"Project-3/Starter code/blackjack.sol\":12734:12815  if (dealersCards[i][0] > 9) {... */\n      iszero\n      tag_696\n      jumpi\n        /* \"Project-3/Starter code/blackjack.sol\":12798:12800  10 */\n      0x0a\n        /* \"Project-3/Starter code/blackjack.sol\":12789:12795  result */\n      dup4\n        /* \"Project-3/Starter code/blackjack.sol\":12789:12800  result + 10 */\n      tag_697\n      swap2\n      swap1\n      tag_165\n      jump\t// in\n    tag_697:\n        /* \"Project-3/Starter code/blackjack.sol\":12780:12800  result = result + 10 */\n      swap3\n      pop\n        /* \"Project-3/Starter code/blackjack.sol\":12734:12815  if (dealersCards[i][0] > 9) {... */\n    tag_696:\n        /* \"Project-3/Starter code/blackjack.sol\":12853:12855  10 */\n      0x0a\n        /* \"Project-3/Starter code/blackjack.sol\":12832:12844  dealersCards */\n      0x28\n        /* \"Project-3/Starter code/blackjack.sol\":12845:12846  i */\n      dup3\n        /* \"Project-3/Starter code/blackjack.sol\":12832:12847  dealersCards[i] */\n      0x10\n      dup2\n      lt\n      tag_698\n      jumpi\n      tag_699\n      tag_183\n      jump\t// in\n    tag_699:\n    tag_698:\n      0x02\n      mul\n      add\n        /* \"Project-3/Starter code/blackjack.sol\":12848:12849  0 */\n      0x00\n        /* \"Project-3/Starter code/blackjack.sol\":12832:12850  dealersCards[i][0] */\n      0x02\n      dup2\n      lt\n      tag_701\n      jumpi\n      tag_702\n      tag_183\n      jump\t// in\n    tag_702:\n    tag_701:\n      add\n      sload\n        /* \"Project-3/Starter code/blackjack.sol\":12832:12855  dealersCards[i][0] < 10 */\n      lt\n        /* \"Project-3/Starter code/blackjack.sol\":12828:12927  if (dealersCards[i][0] < 10) { ... */\n      iszero\n      tag_704\n      jumpi\n        /* \"Project-3/Starter code/blackjack.sol\":12894:12906  dealersCards */\n      0x28\n        /* \"Project-3/Starter code/blackjack.sol\":12907:12908  i */\n      dup2\n        /* \"Project-3/Starter code/blackjack.sol\":12894:12909  dealersCards[i] */\n      0x10\n      dup2\n      lt\n      tag_705\n      jumpi\n      tag_706\n      tag_183\n      jump\t// in\n    tag_706:\n    tag_705:\n      0x02\n      mul\n      add\n        /* \"Project-3/Starter code/blackjack.sol\":12910:12911  0 */\n      0x00\n        /* \"Project-3/Starter code/blackjack.sol\":12894:12912  dealersCards[i][0] */\n      0x02\n      dup2\n      lt\n      tag_708\n      jumpi\n      tag_709\n      tag_183\n      jump\t// in\n    tag_709:\n    tag_708:\n      add\n      sload\n        /* \"Project-3/Starter code/blackjack.sol\":12885:12891  result */\n      dup4\n        /* \"Project-3/Starter code/blackjack.sol\":12885:12912  result + dealersCards[i][0] */\n      tag_711\n      swap2\n      swap1\n      tag_165\n      jump\t// in\n    tag_711:\n        /* \"Project-3/Starter code/blackjack.sol\":12876:12912  result = result + dealersCards[i][0] */\n      swap3\n      pop\n        /* \"Project-3/Starter code/blackjack.sol\":12828:12927  if (dealersCards[i][0] < 10) { ... */\n    tag_704:\n        /* \"Project-3/Starter code/blackjack.sol\":12966:12967  1 */\n      0x01\n        /* \"Project-3/Starter code/blackjack.sol\":12944:12956  dealersCards */\n      0x28\n        /* \"Project-3/Starter code/blackjack.sol\":12957:12958  i */\n      dup3\n        /* \"Project-3/Starter code/blackjack.sol\":12944:12959  dealersCards[i] */\n      0x10\n      dup2\n      lt\n      tag_712\n      jumpi\n      tag_713\n      tag_183\n      jump\t// in\n    tag_713:\n    tag_712:\n      0x02\n      mul\n      add\n        /* \"Project-3/Starter code/blackjack.sol\":12960:12961  0 */\n      0x00\n        /* \"Project-3/Starter code/blackjack.sol\":12944:12962  dealersCards[i][0] */\n      0x02\n      dup2\n      lt\n      tag_715\n      jumpi\n      tag_716\n      tag_183\n      jump\t// in\n    tag_716:\n    tag_715:\n      add\n      sload\n        /* \"Project-3/Starter code/blackjack.sol\":12944:12967  dealersCards[i][0] == 1 */\n      sub\n        /* \"Project-3/Starter code/blackjack.sol\":12940:13027  if (dealersCards[i][0] == 1) {... */\n      tag_718\n      jumpi\n        /* \"Project-3/Starter code/blackjack.sol\":13000:13001  1 */\n      0x01\n        /* \"Project-3/Starter code/blackjack.sol\":12987:13001  aceAlready = 1 */\n      swap2\n      pop\n        /* \"Project-3/Starter code/blackjack.sol\":12940:13027  if (dealersCards[i][0] == 1) {... */\n    tag_718:\n        /* \"Project-3/Starter code/blackjack.sol\":12714:12717  i++ */\n      dup1\n      dup1\n      tag_719\n      swap1\n      tag_235\n      jump\t// in\n    tag_719:\n      swap2\n      pop\n      pop\n        /* \"Project-3/Starter code/blackjack.sol\":12672:13037  for (uint256 i = 1; i <= dealerCardCount; i++) {... */\n      jump(tag_687)\n    tag_688:\n      pop\n        /* \"Project-3/Starter code/blackjack.sol\":13071:13077  result */\n      dup2\n        /* \"Project-3/Starter code/blackjack.sol\":13047:13062  dealerHandValue */\n      0x4c\n        /* \"Project-3/Starter code/blackjack.sol\":13063:13064  1 */\n      0x01\n        /* \"Project-3/Starter code/blackjack.sol\":13047:13065  dealerHandValue[1] */\n      0x02\n      dup2\n      lt\n      tag_720\n      jumpi\n      tag_721\n      tag_183\n      jump\t// in\n    tag_721:\n    tag_720:\n      0x02\n      mul\n      add\n        /* \"Project-3/Starter code/blackjack.sol\":13066:13067  0 */\n      0x00\n        /* \"Project-3/Starter code/blackjack.sol\":13047:13068  dealerHandValue[1][0] */\n      0x02\n      dup2\n      lt\n      tag_723\n      jumpi\n      tag_724\n      tag_183\n      jump\t// in\n    tag_724:\n    tag_723:\n      add\n        /* \"Project-3/Starter code/blackjack.sol\":13047:13077  dealerHandValue[1][0] = result */\n      dup2\n      swap1\n      sstore\n      pop\n        /* \"Project-3/Starter code/blackjack.sol\":13111:13117  result */\n      dup2\n        /* \"Project-3/Starter code/blackjack.sol\":13087:13102  dealerHandValue */\n      0x4c\n        /* \"Project-3/Starter code/blackjack.sol\":13103:13104  1 */\n      0x01\n        /* \"Project-3/Starter code/blackjack.sol\":13087:13105  dealerHandValue[1] */\n      0x02\n      dup2\n      lt\n      tag_726\n      jumpi\n      tag_727\n      tag_183\n      jump\t// in\n    tag_727:\n    tag_726:\n      0x02\n      mul\n      add\n        /* \"Project-3/Starter code/blackjack.sol\":13106:13107  1 */\n      0x01\n        /* \"Project-3/Starter code/blackjack.sol\":13087:13108  dealerHandValue[1][1] */\n      0x02\n      dup2\n      lt\n      tag_729\n      jumpi\n      tag_730\n      tag_183\n      jump\t// in\n    tag_730:\n    tag_729:\n      add\n        /* \"Project-3/Starter code/blackjack.sol\":13087:13117  dealerHandValue[1][1] = result */\n      dup2\n      swap1\n      sstore\n      pop\n        /* \"Project-3/Starter code/blackjack.sol\":13154:13155  1 */\n      0x01\n        /* \"Project-3/Starter code/blackjack.sol\":13140:13150  aceAlready */\n      dup2\n        /* \"Project-3/Starter code/blackjack.sol\":13140:13155  aceAlready == 1 */\n      sub\n        /* \"Project-3/Starter code/blackjack.sol\":13136:13245  if (aceAlready == 1) {... */\n      tag_732\n      jumpi\n        /* \"Project-3/Starter code/blackjack.sol\":13232:13234  10 */\n      0x0a\n        /* \"Project-3/Starter code/blackjack.sol\":13208:13223  dealerHandValue */\n      0x4c\n        /* \"Project-3/Starter code/blackjack.sol\":13224:13225  1 */\n      0x01\n        /* \"Project-3/Starter code/blackjack.sol\":13208:13226  dealerHandValue[1] */\n      0x02\n      dup2\n      lt\n      tag_733\n      jumpi\n      tag_734\n      tag_183\n      jump\t// in\n    tag_734:\n    tag_733:\n      0x02\n      mul\n      add\n        /* \"Project-3/Starter code/blackjack.sol\":13227:13228  1 */\n      0x01\n        /* \"Project-3/Starter code/blackjack.sol\":13208:13229  dealerHandValue[1][1] */\n      0x02\n      dup2\n      lt\n      tag_736\n      jumpi\n      tag_737\n      tag_183\n      jump\t// in\n    tag_737:\n    tag_736:\n      add\n      sload\n        /* \"Project-3/Starter code/blackjack.sol\":13208:13234  dealerHandValue[1][1] + 10 */\n      tag_739\n      swap2\n      swap1\n      tag_165\n      jump\t// in\n    tag_739:\n        /* \"Project-3/Starter code/blackjack.sol\":13184:13199  dealerHandValue */\n      0x4c\n        /* \"Project-3/Starter code/blackjack.sol\":13200:13201  1 */\n      0x01\n        /* \"Project-3/Starter code/blackjack.sol\":13184:13202  dealerHandValue[1] */\n      0x02\n      dup2\n      lt\n      tag_740\n      jumpi\n      tag_741\n      tag_183\n      jump\t// in\n    tag_741:\n    tag_740:\n      0x02\n      mul\n      add\n        /* \"Project-3/Starter code/blackjack.sol\":13203:13204  1 */\n      0x01\n        /* \"Project-3/Starter code/blackjack.sol\":13184:13205  dealerHandValue[1][1] */\n      0x02\n      dup2\n      lt\n      tag_743\n      jumpi\n      tag_744\n      tag_183\n      jump\t// in\n    tag_744:\n    tag_743:\n      add\n        /* \"Project-3/Starter code/blackjack.sol\":13184:13234  dealerHandValue[1][1] = dealerHandValue[1][1] + 10 */\n      dup2\n      swap1\n      sstore\n      pop\n        /* \"Project-3/Starter code/blackjack.sol\":13136:13245  if (aceAlready == 1) {... */\n    tag_732:\n        /* \"Project-3/Starter code/blackjack.sol\":12548:13251  {... */\n      pop\n      pop\n        /* \"Project-3/Starter code/blackjack.sol\":12512:13251  function sumDealersCards() internal {... */\n      jump\t// out\n        /* \"Project-3/Starter code/blackjack.sol\":14379:15814  function evaluateDealerHand() internal {... */\n    tag_293:\n        /* \"Project-3/Starter code/blackjack.sol\":14458:14460  21 */\n      0x15\n        /* \"Project-3/Starter code/blackjack.sol\":14434:14449  dealerHandValue */\n      0x4c\n        /* \"Project-3/Starter code/blackjack.sol\":14450:14451  1 */\n      0x01\n        /* \"Project-3/Starter code/blackjack.sol\":14434:14452  dealerHandValue[1] */\n      0x02\n      dup2\n      lt\n      tag_747\n      jumpi\n      tag_748\n      tag_183\n      jump\t// in\n    tag_748:\n    tag_747:\n      0x02\n      mul\n      add\n        /* \"Project-3/Starter code/blackjack.sol\":14453:14454  0 */\n      0x00\n        /* \"Project-3/Starter code/blackjack.sol\":14434:14455  dealerHandValue[1][0] */\n      0x02\n      dup2\n      lt\n      tag_750\n      jumpi\n      tag_751\n      tag_183\n      jump\t// in\n    tag_751:\n    tag_750:\n      add\n      sload\n        /* \"Project-3/Starter code/blackjack.sol\":14434:14460  dealerHandValue[1][0] > 21 */\n      gt\n        /* \"Project-3/Starter code/blackjack.sol\":14433:14493  (dealerHandValue[1][0] > 21) && (dealerHandValue[1][1] > 21) */\n      dup1\n      iszero\n      tag_753\n      jumpi\n      pop\n        /* \"Project-3/Starter code/blackjack.sol\":14490:14492  21 */\n      0x15\n        /* \"Project-3/Starter code/blackjack.sol\":14466:14481  dealerHandValue */\n      0x4c\n        /* \"Project-3/Starter code/blackjack.sol\":14482:14483  1 */\n      0x01\n        /* \"Project-3/Starter code/blackjack.sol\":14466:14484  dealerHandValue[1] */\n      0x02\n      dup2\n      lt\n      tag_754\n      jumpi\n      tag_755\n      tag_183\n      jump\t// in\n    tag_755:\n    tag_754:\n      0x02\n      mul\n      add\n        /* \"Project-3/Starter code/blackjack.sol\":14485:14486  1 */\n      0x01\n        /* \"Project-3/Starter code/blackjack.sol\":14466:14487  dealerHandValue[1][1] */\n      0x02\n      dup2\n      lt\n      tag_757\n      jumpi\n      tag_758\n      tag_183\n      jump\t// in\n    tag_758:\n    tag_757:\n      add\n      sload\n        /* \"Project-3/Starter code/blackjack.sol\":14466:14492  dealerHandValue[1][1] > 21 */\n      gt\n        /* \"Project-3/Starter code/blackjack.sol\":14433:14493  (dealerHandValue[1][0] > 21) && (dealerHandValue[1][1] > 21) */\n    tag_753:\n        /* \"Project-3/Starter code/blackjack.sol\":14429:14843  if ((dealerHandValue[1][0] > 21) && (dealerHandValue[1][1] > 21)) {... */\n      iszero\n      tag_760\n      jumpi\n        /* \"Project-3/Starter code/blackjack.sol\":14524:14525  1 */\n      0x01\n        /* \"Project-3/Starter code/blackjack.sol\":14509:14521  dealerBusted */\n      0x5b\n        /* \"Project-3/Starter code/blackjack.sol\":14509:14525  dealerBusted = 1 */\n      dup2\n      swap1\n      sstore\n      pop\n        /* \"Project-3/Starter code/blackjack.sol\":14556:14557  0 */\n      0x00\n        /* \"Project-3/Starter code/blackjack.sol\":14539:14553  gameInProgress */\n      0x01\n        /* \"Project-3/Starter code/blackjack.sol\":14539:14557  gameInProgress = 0 */\n      dup2\n      swap1\n      sstore\n      pop\n        /* \"Project-3/Starter code/blackjack.sol\":14600:14615  dealerHandValue */\n      0x4c\n        /* \"Project-3/Starter code/blackjack.sol\":14616:14617  1 */\n      0x01\n        /* \"Project-3/Starter code/blackjack.sol\":14600:14618  dealerHandValue[1] */\n      0x02\n      dup2\n      lt\n      tag_761\n      jumpi\n      tag_762\n      tag_183\n      jump\t// in\n    tag_762:\n    tag_761:\n      0x02\n      mul\n      add\n        /* \"Project-3/Starter code/blackjack.sol\":14619:14620  1 */\n      0x01\n        /* \"Project-3/Starter code/blackjack.sol\":14600:14621  dealerHandValue[1][1] */\n      0x02\n      dup2\n      lt\n      tag_764\n      jumpi\n      tag_765\n      tag_183\n      jump\t// in\n    tag_765:\n    tag_764:\n      add\n      sload\n        /* \"Project-3/Starter code/blackjack.sol\":14575:14590  dealerHandValue */\n      0x4c\n        /* \"Project-3/Starter code/blackjack.sol\":14591:14592  1 */\n      0x01\n        /* \"Project-3/Starter code/blackjack.sol\":14575:14593  dealerHandValue[1] */\n      0x02\n      dup2\n      lt\n      tag_767\n      jumpi\n      tag_768\n      tag_183\n      jump\t// in\n    tag_768:\n    tag_767:\n      0x02\n      mul\n      add\n        /* \"Project-3/Starter code/blackjack.sol\":14594:14595  0 */\n      0x00\n        /* \"Project-3/Starter code/blackjack.sol\":14575:14596  dealerHandValue[1][0] */\n      0x02\n      dup2\n      lt\n      tag_770\n      jumpi\n      tag_771\n      tag_183\n      jump\t// in\n    tag_771:\n    tag_770:\n      add\n      sload\n        /* \"Project-3/Starter code/blackjack.sol\":14575:14621  dealerHandValue[1][0] <= dealerHandValue[1][1] */\n      gt\n        /* \"Project-3/Starter code/blackjack.sol\":14571:14696  if (dealerHandValue[1][0] <= dealerHandValue[1][1]) {... */\n      tag_773\n      jumpi\n        /* \"Project-3/Starter code/blackjack.sol\":14660:14675  dealerHandValue */\n      0x4c\n        /* \"Project-3/Starter code/blackjack.sol\":14676:14677  1 */\n      0x01\n        /* \"Project-3/Starter code/blackjack.sol\":14660:14678  dealerHandValue[1] */\n      0x02\n      dup2\n      lt\n      tag_774\n      jumpi\n      tag_775\n      tag_183\n      jump\t// in\n    tag_775:\n    tag_774:\n      0x02\n      mul\n      add\n        /* \"Project-3/Starter code/blackjack.sol\":14679:14680  0 */\n      0x00\n        /* \"Project-3/Starter code/blackjack.sol\":14660:14681  dealerHandValue[1][0] */\n      0x02\n      dup2\n      lt\n      tag_777\n      jumpi\n      tag_778\n      tag_183\n      jump\t// in\n    tag_778:\n    tag_777:\n      add\n      sload\n        /* \"Project-3/Starter code/blackjack.sol\":14641:14657  finalDealerCount */\n      0x5d\n        /* \"Project-3/Starter code/blackjack.sol\":14641:14681  finalDealerCount = dealerHandValue[1][0] */\n      dup2\n      swap1\n      sstore\n      pop\n        /* \"Project-3/Starter code/blackjack.sol\":14571:14696  if (dealerHandValue[1][0] <= dealerHandValue[1][1]) {... */\n    tag_773:\n        /* \"Project-3/Starter code/blackjack.sol\":14737:14752  dealerHandValue */\n      0x4c\n        /* \"Project-3/Starter code/blackjack.sol\":14753:14754  1 */\n      0x01\n        /* \"Project-3/Starter code/blackjack.sol\":14737:14755  dealerHandValue[1] */\n      0x02\n      dup2\n      lt\n      tag_780\n      jumpi\n      tag_781\n      tag_183\n      jump\t// in\n    tag_781:\n    tag_780:\n      0x02\n      mul\n      add\n        /* \"Project-3/Starter code/blackjack.sol\":14756:14757  1 */\n      0x01\n        /* \"Project-3/Starter code/blackjack.sol\":14737:14758  dealerHandValue[1][1] */\n      0x02\n      dup2\n      lt\n      tag_783\n      jumpi\n      tag_784\n      tag_183\n      jump\t// in\n    tag_784:\n    tag_783:\n      add\n      sload\n        /* \"Project-3/Starter code/blackjack.sol\":14713:14728  dealerHandValue */\n      0x4c\n        /* \"Project-3/Starter code/blackjack.sol\":14729:14730  1 */\n      0x01\n        /* \"Project-3/Starter code/blackjack.sol\":14713:14731  dealerHandValue[1] */\n      0x02\n      dup2\n      lt\n      tag_786\n      jumpi\n      tag_787\n      tag_183\n      jump\t// in\n    tag_787:\n    tag_786:\n      0x02\n      mul\n      add\n        /* \"Project-3/Starter code/blackjack.sol\":14732:14733  0 */\n      0x00\n        /* \"Project-3/Starter code/blackjack.sol\":14713:14734  dealerHandValue[1][0] */\n      0x02\n      dup2\n      lt\n      tag_789\n      jumpi\n      tag_790\n      tag_183\n      jump\t// in\n    tag_790:\n    tag_789:\n      add\n      sload\n        /* \"Project-3/Starter code/blackjack.sol\":14713:14758  dealerHandValue[1][0] > dealerHandValue[1][1] */\n      gt\n        /* \"Project-3/Starter code/blackjack.sol\":14709:14833  if (dealerHandValue[1][0] > dealerHandValue[1][1]) {... */\n      iszero\n      tag_792\n      jumpi\n        /* \"Project-3/Starter code/blackjack.sol\":14797:14812  dealerHandValue */\n      0x4c\n        /* \"Project-3/Starter code/blackjack.sol\":14813:14814  1 */\n      0x01\n        /* \"Project-3/Starter code/blackjack.sol\":14797:14815  dealerHandValue[1] */\n      0x02\n      dup2\n      lt\n      tag_793\n      jumpi\n      tag_794\n      tag_183\n      jump\t// in\n    tag_794:\n    tag_793:\n      0x02\n      mul\n      add\n        /* \"Project-3/Starter code/blackjack.sol\":14816:14817  1 */\n      0x01\n        /* \"Project-3/Starter code/blackjack.sol\":14797:14818  dealerHandValue[1][1] */\n      0x02\n      dup2\n      lt\n      tag_796\n      jumpi\n      tag_797\n      tag_183\n      jump\t// in\n    tag_797:\n    tag_796:\n      add\n      sload\n        /* \"Project-3/Starter code/blackjack.sol\":14778:14794  finalDealerCount */\n      0x5d\n        /* \"Project-3/Starter code/blackjack.sol\":14778:14818  finalDealerCount = dealerHandValue[1][1] */\n      dup2\n      swap1\n      sstore\n      pop\n        /* \"Project-3/Starter code/blackjack.sol\":14709:14833  if (dealerHandValue[1][0] > dealerHandValue[1][1]) {... */\n    tag_792:\n        /* \"Project-3/Starter code/blackjack.sol\":14429:14843  if ((dealerHandValue[1][0] > 21) && (dealerHandValue[1][1] > 21)) {... */\n    tag_760:\n        /* \"Project-3/Starter code/blackjack.sol\":14882:14884  21 */\n      0x15\n        /* \"Project-3/Starter code/blackjack.sol\":14857:14872  dealerHandValue */\n      0x4c\n        /* \"Project-3/Starter code/blackjack.sol\":14873:14874  1 */\n      0x01\n        /* \"Project-3/Starter code/blackjack.sol\":14857:14875  dealerHandValue[1] */\n      0x02\n      dup2\n      lt\n      tag_799\n      jumpi\n      tag_800\n      tag_183\n      jump\t// in\n    tag_800:\n    tag_799:\n      0x02\n      mul\n      add\n        /* \"Project-3/Starter code/blackjack.sol\":14876:14877  0 */\n      0x00\n        /* \"Project-3/Starter code/blackjack.sol\":14857:14878  dealerHandValue[1][0] */\n      0x02\n      dup2\n      lt\n      tag_802\n      jumpi\n      tag_803\n      tag_183\n      jump\t// in\n    tag_803:\n    tag_802:\n      add\n      sload\n        /* \"Project-3/Starter code/blackjack.sol\":14857:14884  dealerHandValue[1][0] <= 21 */\n      gt\n      iszero\n        /* \"Project-3/Starter code/blackjack.sol\":14856:14917  (dealerHandValue[1][0] <= 21) && (dealerHandValue[1][1] > 21) */\n      dup1\n      iszero\n      tag_805\n      jumpi\n      pop\n        /* \"Project-3/Starter code/blackjack.sol\":14914:14916  21 */\n      0x15\n        /* \"Project-3/Starter code/blackjack.sol\":14890:14905  dealerHandValue */\n      0x4c\n        /* \"Project-3/Starter code/blackjack.sol\":14906:14907  1 */\n      0x01\n        /* \"Project-3/Starter code/blackjack.sol\":14890:14908  dealerHandValue[1] */\n      0x02\n      dup2\n      lt\n      tag_806\n      jumpi\n      tag_807\n      tag_183\n      jump\t// in\n    tag_807:\n    tag_806:\n      0x02\n      mul\n      add\n        /* \"Project-3/Starter code/blackjack.sol\":14909:14910  1 */\n      0x01\n        /* \"Project-3/Starter code/blackjack.sol\":14890:14911  dealerHandValue[1][1] */\n      0x02\n      dup2\n      lt\n      tag_809\n      jumpi\n      tag_810\n      tag_183\n      jump\t// in\n    tag_810:\n    tag_809:\n      add\n      sload\n        /* \"Project-3/Starter code/blackjack.sol\":14890:14916  dealerHandValue[1][1] > 21 */\n      gt\n        /* \"Project-3/Starter code/blackjack.sol\":14856:14917  (dealerHandValue[1][0] <= 21) && (dealerHandValue[1][1] > 21) */\n    tag_805:\n        /* \"Project-3/Starter code/blackjack.sol\":14852:14984  if ((dealerHandValue[1][0] <= 21) && (dealerHandValue[1][1] > 21)) {... */\n      iszero\n      tag_812\n      jumpi\n        /* \"Project-3/Starter code/blackjack.sol\":14952:14967  dealerHandValue */\n      0x4c\n        /* \"Project-3/Starter code/blackjack.sol\":14968:14969  1 */\n      0x01\n        /* \"Project-3/Starter code/blackjack.sol\":14952:14970  dealerHandValue[1] */\n      0x02\n      dup2\n      lt\n      tag_813\n      jumpi\n      tag_814\n      tag_183\n      jump\t// in\n    tag_814:\n    tag_813:\n      0x02\n      mul\n      add\n        /* \"Project-3/Starter code/blackjack.sol\":14971:14972  0 */\n      0x00\n        /* \"Project-3/Starter code/blackjack.sol\":14952:14973  dealerHandValue[1][0] */\n      0x02\n      dup2\n      lt\n      tag_816\n      jumpi\n      tag_817\n      tag_183\n      jump\t// in\n    tag_817:\n    tag_816:\n      add\n      sload\n        /* \"Project-3/Starter code/blackjack.sol\":14933:14949  finalDealerCount */\n      0x5d\n        /* \"Project-3/Starter code/blackjack.sol\":14933:14973  finalDealerCount = dealerHandValue[1][0] */\n      dup2\n      swap1\n      sstore\n      pop\n        /* \"Project-3/Starter code/blackjack.sol\":14852:14984  if ((dealerHandValue[1][0] <= 21) && (dealerHandValue[1][1] > 21)) {... */\n    tag_812:\n        /* \"Project-3/Starter code/blackjack.sol\":15022:15024  21 */\n      0x15\n        /* \"Project-3/Starter code/blackjack.sol\":14998:15013  dealerHandValue */\n      0x4c\n        /* \"Project-3/Starter code/blackjack.sol\":15014:15015  1 */\n      0x01\n        /* \"Project-3/Starter code/blackjack.sol\":14998:15016  dealerHandValue[1] */\n      0x02\n      dup2\n      lt\n      tag_819\n      jumpi\n      tag_820\n      tag_183\n      jump\t// in\n    tag_820:\n    tag_819:\n      0x02\n      mul\n      add\n        /* \"Project-3/Starter code/blackjack.sol\":15017:15018  0 */\n      0x00\n        /* \"Project-3/Starter code/blackjack.sol\":14998:15019  dealerHandValue[1][0] */\n      0x02\n      dup2\n      lt\n      tag_822\n      jumpi\n      tag_823\n      tag_183\n      jump\t// in\n    tag_823:\n    tag_822:\n      add\n      sload\n        /* \"Project-3/Starter code/blackjack.sol\":14998:15024  dealerHandValue[1][0] > 21 */\n      gt\n        /* \"Project-3/Starter code/blackjack.sol\":14997:15058  (dealerHandValue[1][0] > 21) && (playerHandValue[1][1] <= 21) */\n      dup1\n      iszero\n      tag_825\n      jumpi\n      pop\n        /* \"Project-3/Starter code/blackjack.sol\":15055:15057  21 */\n      0x15\n        /* \"Project-3/Starter code/blackjack.sol\":15030:15045  playerHandValue */\n      0x48\n        /* \"Project-3/Starter code/blackjack.sol\":15046:15047  1 */\n      0x01\n        /* \"Project-3/Starter code/blackjack.sol\":15030:15048  playerHandValue[1] */\n      0x02\n      dup2\n      lt\n      tag_826\n      jumpi\n      tag_827\n      tag_183\n      jump\t// in\n    tag_827:\n    tag_826:\n      0x02\n      mul\n      add\n        /* \"Project-3/Starter code/blackjack.sol\":15049:15050  1 */\n      0x01\n        /* \"Project-3/Starter code/blackjack.sol\":15030:15051  playerHandValue[1][1] */\n      0x02\n      dup2\n      lt\n      tag_829\n      jumpi\n      tag_830\n      tag_183\n      jump\t// in\n    tag_830:\n    tag_829:\n      add\n      sload\n        /* \"Project-3/Starter code/blackjack.sol\":15030:15057  playerHandValue[1][1] <= 21 */\n      gt\n      iszero\n        /* \"Project-3/Starter code/blackjack.sol\":14997:15058  (dealerHandValue[1][0] > 21) && (playerHandValue[1][1] <= 21) */\n    tag_825:\n        /* \"Project-3/Starter code/blackjack.sol\":14993:15125  if ((dealerHandValue[1][0] > 21) && (playerHandValue[1][1] <= 21)) {... */\n      iszero\n      tag_832\n      jumpi\n        /* \"Project-3/Starter code/blackjack.sol\":15093:15108  dealerHandValue */\n      0x4c\n        /* \"Project-3/Starter code/blackjack.sol\":15109:15110  1 */\n      0x01\n        /* \"Project-3/Starter code/blackjack.sol\":15093:15111  dealerHandValue[1] */\n      0x02\n      dup2\n      lt\n      tag_833\n      jumpi\n      tag_834\n      tag_183\n      jump\t// in\n    tag_834:\n    tag_833:\n      0x02\n      mul\n      add\n        /* \"Project-3/Starter code/blackjack.sol\":15112:15113  1 */\n      0x01\n        /* \"Project-3/Starter code/blackjack.sol\":15093:15114  dealerHandValue[1][1] */\n      0x02\n      dup2\n      lt\n      tag_836\n      jumpi\n      tag_837\n      tag_183\n      jump\t// in\n    tag_837:\n    tag_836:\n      add\n      sload\n        /* \"Project-3/Starter code/blackjack.sol\":15074:15090  finalDealerCount */\n      0x5d\n        /* \"Project-3/Starter code/blackjack.sol\":15074:15114  finalDealerCount = dealerHandValue[1][1] */\n      dup2\n      swap1\n      sstore\n      pop\n        /* \"Project-3/Starter code/blackjack.sol\":14993:15125  if ((dealerHandValue[1][0] > 21) && (playerHandValue[1][1] <= 21)) {... */\n    tag_832:\n        /* \"Project-3/Starter code/blackjack.sol\":15164:15166  21 */\n      0x15\n        /* \"Project-3/Starter code/blackjack.sol\":15139:15154  dealerHandValue */\n      0x4c\n        /* \"Project-3/Starter code/blackjack.sol\":15155:15156  1 */\n      0x01\n        /* \"Project-3/Starter code/blackjack.sol\":15139:15157  dealerHandValue[1] */\n      0x02\n      dup2\n      lt\n      tag_839\n      jumpi\n      tag_840\n      tag_183\n      jump\t// in\n    tag_840:\n    tag_839:\n      0x02\n      mul\n      add\n        /* \"Project-3/Starter code/blackjack.sol\":15158:15159  0 */\n      0x00\n        /* \"Project-3/Starter code/blackjack.sol\":15139:15160  dealerHandValue[1][0] */\n      0x02\n      dup2\n      lt\n      tag_842\n      jumpi\n      tag_843\n      tag_183\n      jump\t// in\n    tag_843:\n    tag_842:\n      add\n      sload\n        /* \"Project-3/Starter code/blackjack.sol\":15139:15166  dealerHandValue[1][0] <= 21 */\n      gt\n      iszero\n        /* \"Project-3/Starter code/blackjack.sol\":15138:15200  (dealerHandValue[1][0] <= 21) && (dealerHandValue[1][1] <= 21) */\n      dup1\n      iszero\n      tag_845\n      jumpi\n      pop\n        /* \"Project-3/Starter code/blackjack.sol\":15197:15199  21 */\n      0x15\n        /* \"Project-3/Starter code/blackjack.sol\":15172:15187  dealerHandValue */\n      0x4c\n        /* \"Project-3/Starter code/blackjack.sol\":15188:15189  1 */\n      0x01\n        /* \"Project-3/Starter code/blackjack.sol\":15172:15190  dealerHandValue[1] */\n      0x02\n      dup2\n      lt\n      tag_846\n      jumpi\n      tag_847\n      tag_183\n      jump\t// in\n    tag_847:\n    tag_846:\n      0x02\n      mul\n      add\n        /* \"Project-3/Starter code/blackjack.sol\":15191:15192  1 */\n      0x01\n        /* \"Project-3/Starter code/blackjack.sol\":15172:15193  dealerHandValue[1][1] */\n      0x02\n      dup2\n      lt\n      tag_849\n      jumpi\n      tag_850\n      tag_183\n      jump\t// in\n    tag_850:\n    tag_849:\n      add\n      sload\n        /* \"Project-3/Starter code/blackjack.sol\":15172:15199  dealerHandValue[1][1] <= 21 */\n      gt\n      iszero\n        /* \"Project-3/Starter code/blackjack.sol\":15138:15200  (dealerHandValue[1][0] <= 21) && (dealerHandValue[1][1] <= 21) */\n    tag_845:\n        /* \"Project-3/Starter code/blackjack.sol\":15134:15489  if ((dealerHandValue[1][0] <= 21) && (dealerHandValue[1][1] <= 21)) {... */\n      iszero\n      tag_852\n      jumpi\n        /* \"Project-3/Starter code/blackjack.sol\":15244:15259  dealerHandValue */\n      0x4c\n        /* \"Project-3/Starter code/blackjack.sol\":15260:15261  1 */\n      0x01\n        /* \"Project-3/Starter code/blackjack.sol\":15244:15262  dealerHandValue[1] */\n      0x02\n      dup2\n      lt\n      tag_853\n      jumpi\n      tag_854\n      tag_183\n      jump\t// in\n    tag_854:\n    tag_853:\n      0x02\n      mul\n      add\n        /* \"Project-3/Starter code/blackjack.sol\":15263:15264  1 */\n      0x01\n        /* \"Project-3/Starter code/blackjack.sol\":15244:15265  dealerHandValue[1][1] */\n      0x02\n      dup2\n      lt\n      tag_856\n      jumpi\n      tag_857\n      tag_183\n      jump\t// in\n    tag_857:\n    tag_856:\n      add\n      sload\n        /* \"Project-3/Starter code/blackjack.sol\":15220:15235  dealerHandValue */\n      0x4c\n        /* \"Project-3/Starter code/blackjack.sol\":15236:15237  1 */\n      0x01\n        /* \"Project-3/Starter code/blackjack.sol\":15220:15238  dealerHandValue[1] */\n      0x02\n      dup2\n      lt\n      tag_859\n      jumpi\n      tag_860\n      tag_183\n      jump\t// in\n    tag_860:\n    tag_859:\n      0x02\n      mul\n      add\n        /* \"Project-3/Starter code/blackjack.sol\":15239:15240  0 */\n      0x00\n        /* \"Project-3/Starter code/blackjack.sol\":15220:15241  dealerHandValue[1][0] */\n      0x02\n      dup2\n      lt\n      tag_862\n      jumpi\n      tag_863\n      tag_183\n      jump\t// in\n    tag_863:\n    tag_862:\n      add\n      sload\n        /* \"Project-3/Starter code/blackjack.sol\":15220:15265  dealerHandValue[1][0] > dealerHandValue[1][1] */\n      gt\n        /* \"Project-3/Starter code/blackjack.sol\":15216:15341  if (dealerHandValue[1][0] > dealerHandValue[1][1]) {... */\n      iszero\n      tag_865\n      jumpi\n        /* \"Project-3/Starter code/blackjack.sol\":15305:15320  dealerHandValue */\n      0x4c\n        /* \"Project-3/Starter code/blackjack.sol\":15321:15322  1 */\n      0x01\n        /* \"Project-3/Starter code/blackjack.sol\":15305:15323  dealerHandValue[1] */\n      0x02\n      dup2\n      lt\n      tag_866\n      jumpi\n      tag_867\n      tag_183\n      jump\t// in\n    tag_867:\n    tag_866:\n      0x02\n      mul\n      add\n        /* \"Project-3/Starter code/blackjack.sol\":15324:15325  0 */\n      0x00\n        /* \"Project-3/Starter code/blackjack.sol\":15305:15326  dealerHandValue[1][0] */\n      0x02\n      dup2\n      lt\n      tag_869\n      jumpi\n      tag_870\n      tag_183\n      jump\t// in\n    tag_870:\n    tag_869:\n      add\n      sload\n        /* \"Project-3/Starter code/blackjack.sol\":15286:15302  finalDealerCount */\n      0x5d\n        /* \"Project-3/Starter code/blackjack.sol\":15286:15326  finalDealerCount = dealerHandValue[1][0] */\n      dup2\n      swap1\n      sstore\n      pop\n        /* \"Project-3/Starter code/blackjack.sol\":15216:15341  if (dealerHandValue[1][0] > dealerHandValue[1][1]) {... */\n    tag_865:\n        /* \"Project-3/Starter code/blackjack.sol\":15383:15398  dealerHandValue */\n      0x4c\n        /* \"Project-3/Starter code/blackjack.sol\":15399:15400  1 */\n      0x01\n        /* \"Project-3/Starter code/blackjack.sol\":15383:15401  dealerHandValue[1] */\n      0x02\n      dup2\n      lt\n      tag_872\n      jumpi\n      tag_873\n      tag_183\n      jump\t// in\n    tag_873:\n    tag_872:\n      0x02\n      mul\n      add\n        /* \"Project-3/Starter code/blackjack.sol\":15402:15403  1 */\n      0x01\n        /* \"Project-3/Starter code/blackjack.sol\":15383:15404  dealerHandValue[1][1] */\n      0x02\n      dup2\n      lt\n      tag_875\n      jumpi\n      tag_876\n      tag_183\n      jump\t// in\n    tag_876:\n    tag_875:\n      add\n      sload\n        /* \"Project-3/Starter code/blackjack.sol\":15358:15373  dealerHandValue */\n      0x4c\n        /* \"Project-3/Starter code/blackjack.sol\":15374:15375  1 */\n      0x01\n        /* \"Project-3/Starter code/blackjack.sol\":15358:15376  dealerHandValue[1] */\n      0x02\n      dup2\n      lt\n      tag_878\n      jumpi\n      tag_879\n      tag_183\n      jump\t// in\n    tag_879:\n    tag_878:\n      0x02\n      mul\n      add\n        /* \"Project-3/Starter code/blackjack.sol\":15377:15378  0 */\n      0x00\n        /* \"Project-3/Starter code/blackjack.sol\":15358:15379  dealerHandValue[1][0] */\n      0x02\n      dup2\n      lt\n      tag_881\n      jumpi\n      tag_882\n      tag_183\n      jump\t// in\n    tag_882:\n    tag_881:\n      add\n      sload\n        /* \"Project-3/Starter code/blackjack.sol\":15358:15404  dealerHandValue[1][0] <= dealerHandValue[1][1] */\n      gt\n        /* \"Project-3/Starter code/blackjack.sol\":15354:15479  if (dealerHandValue[1][0] <= dealerHandValue[1][1]) {... */\n      tag_884\n      jumpi\n        /* \"Project-3/Starter code/blackjack.sol\":15443:15458  dealerHandValue */\n      0x4c\n        /* \"Project-3/Starter code/blackjack.sol\":15459:15460  1 */\n      0x01\n        /* \"Project-3/Starter code/blackjack.sol\":15443:15461  dealerHandValue[1] */\n      0x02\n      dup2\n      lt\n      tag_885\n      jumpi\n      tag_886\n      tag_183\n      jump\t// in\n    tag_886:\n    tag_885:\n      0x02\n      mul\n      add\n        /* \"Project-3/Starter code/blackjack.sol\":15462:15463  1 */\n      0x01\n        /* \"Project-3/Starter code/blackjack.sol\":15443:15464  dealerHandValue[1][1] */\n      0x02\n      dup2\n      lt\n      tag_888\n      jumpi\n      tag_889\n      tag_183\n      jump\t// in\n    tag_889:\n    tag_888:\n      add\n      sload\n        /* \"Project-3/Starter code/blackjack.sol\":15424:15440  finalDealerCount */\n      0x5d\n        /* \"Project-3/Starter code/blackjack.sol\":15424:15464  finalDealerCount = dealerHandValue[1][1] */\n      dup2\n      swap1\n      sstore\n      pop\n        /* \"Project-3/Starter code/blackjack.sol\":15354:15479  if (dealerHandValue[1][0] <= dealerHandValue[1][1]) {... */\n    tag_884:\n        /* \"Project-3/Starter code/blackjack.sol\":15134:15489  if ((dealerHandValue[1][0] <= 21) && (dealerHandValue[1][1] <= 21)) {... */\n    tag_852:\n        /* \"Project-3/Starter code/blackjack.sol\":15527:15529  16 */\n      0x10\n        /* \"Project-3/Starter code/blackjack.sol\":15503:15518  dealerHandValue */\n      0x4c\n        /* \"Project-3/Starter code/blackjack.sol\":15519:15520  1 */\n      0x01\n        /* \"Project-3/Starter code/blackjack.sol\":15503:15521  dealerHandValue[1] */\n      0x02\n      dup2\n      lt\n      tag_891\n      jumpi\n      tag_892\n      tag_183\n      jump\t// in\n    tag_892:\n    tag_891:\n      0x02\n      mul\n      add\n        /* \"Project-3/Starter code/blackjack.sol\":15522:15523  0 */\n      0x00\n        /* \"Project-3/Starter code/blackjack.sol\":15503:15524  dealerHandValue[1][0] */\n      0x02\n      dup2\n      lt\n      tag_894\n      jumpi\n      tag_895\n      tag_183\n      jump\t// in\n    tag_895:\n    tag_894:\n      add\n      sload\n        /* \"Project-3/Starter code/blackjack.sol\":15503:15529  dealerHandValue[1][0] > 16 */\n      gt\n        /* \"Project-3/Starter code/blackjack.sol\":15502:15562  (dealerHandValue[1][0] > 16) || (dealerHandValue[1][1] > 16) */\n      dup1\n      tag_897\n      jumpi\n      pop\n        /* \"Project-3/Starter code/blackjack.sol\":15559:15561  16 */\n      0x10\n        /* \"Project-3/Starter code/blackjack.sol\":15535:15550  dealerHandValue */\n      0x4c\n        /* \"Project-3/Starter code/blackjack.sol\":15551:15552  1 */\n      0x01\n        /* \"Project-3/Starter code/blackjack.sol\":15535:15553  dealerHandValue[1] */\n      0x02\n      dup2\n      lt\n      tag_898\n      jumpi\n      tag_899\n      tag_183\n      jump\t// in\n    tag_899:\n    tag_898:\n      0x02\n      mul\n      add\n        /* \"Project-3/Starter code/blackjack.sol\":15554:15555  1 */\n      0x01\n        /* \"Project-3/Starter code/blackjack.sol\":15535:15556  dealerHandValue[1][1] */\n      0x02\n      dup2\n      lt\n      tag_901\n      jumpi\n      tag_902\n      tag_183\n      jump\t// in\n    tag_902:\n    tag_901:\n      add\n      sload\n        /* \"Project-3/Starter code/blackjack.sol\":15535:15561  dealerHandValue[1][1] > 16 */\n      gt\n        /* \"Project-3/Starter code/blackjack.sol\":15502:15562  (dealerHandValue[1][0] > 16) || (dealerHandValue[1][1] > 16) */\n    tag_897:\n        /* \"Project-3/Starter code/blackjack.sol\":15498:15808  if ((dealerHandValue[1][0] > 16) || (dealerHandValue[1][1] > 16)) {... */\n      iszero\n      tag_904\n      jumpi\n        /* \"Project-3/Starter code/blackjack.sol\":15596:15597  0 */\n      0x00\n        /* \"Project-3/Starter code/blackjack.sol\":15579:15593  gameInProgress */\n      0x01\n        /* \"Project-3/Starter code/blackjack.sol\":15579:15597  gameInProgress = 0 */\n      dup2\n      swap1\n      sstore\n      pop\n        /* \"Project-3/Starter code/blackjack.sol\":15641:15643  21 */\n      0x15\n        /* \"Project-3/Starter code/blackjack.sol\":15617:15632  dealerHandValue */\n      0x4c\n        /* \"Project-3/Starter code/blackjack.sol\":15633:15634  1 */\n      0x01\n        /* \"Project-3/Starter code/blackjack.sol\":15617:15635  dealerHandValue[1] */\n      0x02\n      dup2\n      lt\n      tag_905\n      jumpi\n      tag_906\n      tag_183\n      jump\t// in\n    tag_906:\n    tag_905:\n      0x02\n      mul\n      add\n        /* \"Project-3/Starter code/blackjack.sol\":15636:15637  0 */\n      0x00\n        /* \"Project-3/Starter code/blackjack.sol\":15617:15638  dealerHandValue[1][0] */\n      0x02\n      dup2\n      lt\n      tag_908\n      jumpi\n      tag_909\n      tag_183\n      jump\t// in\n    tag_909:\n    tag_908:\n      add\n      sload\n        /* \"Project-3/Starter code/blackjack.sol\":15617:15643  dealerHandValue[1][0] > 21 */\n      gt\n        /* \"Project-3/Starter code/blackjack.sol\":15616:15676  (dealerHandValue[1][0] > 21) && (dealerHandValue[1][1] > 21) */\n      dup1\n      iszero\n      tag_911\n      jumpi\n      pop\n        /* \"Project-3/Starter code/blackjack.sol\":15673:15675  21 */\n      0x15\n        /* \"Project-3/Starter code/blackjack.sol\":15649:15664  dealerHandValue */\n      0x4c\n        /* \"Project-3/Starter code/blackjack.sol\":15665:15666  1 */\n      0x01\n        /* \"Project-3/Starter code/blackjack.sol\":15649:15667  dealerHandValue[1] */\n      0x02\n      dup2\n      lt\n      tag_912\n      jumpi\n      tag_913\n      tag_183\n      jump\t// in\n    tag_913:\n    tag_912:\n      0x02\n      mul\n      add\n        /* \"Project-3/Starter code/blackjack.sol\":15668:15669  1 */\n      0x01\n        /* \"Project-3/Starter code/blackjack.sol\":15649:15670  dealerHandValue[1][1] */\n      0x02\n      dup2\n      lt\n      tag_915\n      jumpi\n      tag_916\n      tag_183\n      jump\t// in\n    tag_916:\n    tag_915:\n      add\n      sload\n        /* \"Project-3/Starter code/blackjack.sol\":15649:15675  dealerHandValue[1][1] > 21 */\n      gt\n        /* \"Project-3/Starter code/blackjack.sol\":15616:15676  (dealerHandValue[1][0] > 21) && (dealerHandValue[1][1] > 21) */\n    tag_911:\n        /* \"Project-3/Starter code/blackjack.sol\":15612:15798  if ((dealerHandValue[1][0] > 21) && (dealerHandValue[1][1] > 21)) {... */\n      iszero\n      tag_918\n      jumpi\n        /* \"Project-3/Starter code/blackjack.sol\":15712:15713  1 */\n      0x01\n        /* \"Project-3/Starter code/blackjack.sol\":15697:15709  dealerBusted */\n      0x5b\n        /* \"Project-3/Starter code/blackjack.sol\":15697:15713  dealerBusted = 1 */\n      dup2\n      swap1\n      sstore\n      pop\n        /* \"Project-3/Starter code/blackjack.sol\":15612:15798  if ((dealerHandValue[1][0] > 21) && (dealerHandValue[1][1] > 21)) {... */\n      jump(tag_919)\n    tag_918:\n        /* \"Project-3/Starter code/blackjack.sol\":15781:15782  1 */\n      0x01\n        /* \"Project-3/Starter code/blackjack.sol\":15766:15778  dealerStands */\n      0x5f\n        /* \"Project-3/Starter code/blackjack.sol\":15766:15782  dealerStands = 1 */\n      dup2\n      swap1\n      sstore\n      pop\n        /* \"Project-3/Starter code/blackjack.sol\":15612:15798  if ((dealerHandValue[1][0] > 21) && (dealerHandValue[1][1] > 21)) {... */\n    tag_919:\n        /* \"Project-3/Starter code/blackjack.sol\":15498:15808  if ((dealerHandValue[1][0] > 16) || (dealerHandValue[1][1] > 16)) {... */\n    tag_904:\n        /* \"Project-3/Starter code/blackjack.sol\":14379:15814  function evaluateDealerHand() internal {... */\n      jump\t// out\n        /* \"Project-3/Starter code/blackjack.sol\":13257:14373  function evaluatePlayerHand() internal {... */\n    tag_295:\n        /* \"Project-3/Starter code/blackjack.sol\":13336:13338  21 */\n      0x15\n        /* \"Project-3/Starter code/blackjack.sol\":13312:13327  playerHandValue */\n      0x48\n        /* \"Project-3/Starter code/blackjack.sol\":13328:13329  1 */\n      0x01\n        /* \"Project-3/Starter code/blackjack.sol\":13312:13330  playerHandValue[1] */\n      0x02\n      dup2\n      lt\n      tag_921\n      jumpi\n      tag_922\n      tag_183\n      jump\t// in\n    tag_922:\n    tag_921:\n      0x02\n      mul\n      add\n        /* \"Project-3/Starter code/blackjack.sol\":13331:13332  0 */\n      0x00\n        /* \"Project-3/Starter code/blackjack.sol\":13312:13333  playerHandValue[1][0] */\n      0x02\n      dup2\n      lt\n      tag_924\n      jumpi\n      tag_925\n      tag_183\n      jump\t// in\n    tag_925:\n    tag_924:\n      add\n      sload\n        /* \"Project-3/Starter code/blackjack.sol\":13312:13338  playerHandValue[1][0] > 21 */\n      gt\n        /* \"Project-3/Starter code/blackjack.sol\":13311:13371  (playerHandValue[1][0] > 21) && (playerHandValue[1][1] > 21) */\n      dup1\n      iszero\n      tag_927\n      jumpi\n      pop\n        /* \"Project-3/Starter code/blackjack.sol\":13368:13370  21 */\n      0x15\n        /* \"Project-3/Starter code/blackjack.sol\":13344:13359  playerHandValue */\n      0x48\n        /* \"Project-3/Starter code/blackjack.sol\":13360:13361  1 */\n      0x01\n        /* \"Project-3/Starter code/blackjack.sol\":13344:13362  playerHandValue[1] */\n      0x02\n      dup2\n      lt\n      tag_928\n      jumpi\n      tag_929\n      tag_183\n      jump\t// in\n    tag_929:\n    tag_928:\n      0x02\n      mul\n      add\n        /* \"Project-3/Starter code/blackjack.sol\":13363:13364  1 */\n      0x01\n        /* \"Project-3/Starter code/blackjack.sol\":13344:13365  playerHandValue[1][1] */\n      0x02\n      dup2\n      lt\n      tag_931\n      jumpi\n      tag_932\n      tag_183\n      jump\t// in\n    tag_932:\n    tag_931:\n      add\n      sload\n        /* \"Project-3/Starter code/blackjack.sol\":13344:13370  playerHandValue[1][1] > 21 */\n      gt\n        /* \"Project-3/Starter code/blackjack.sol\":13311:13371  (playerHandValue[1][0] > 21) && (playerHandValue[1][1] > 21) */\n    tag_927:\n        /* \"Project-3/Starter code/blackjack.sol\":13307:13721  if ((playerHandValue[1][0] > 21) && (playerHandValue[1][1] > 21)) {... */\n      iszero\n      tag_934\n      jumpi\n        /* \"Project-3/Starter code/blackjack.sol\":13402:13403  1 */\n      0x01\n        /* \"Project-3/Starter code/blackjack.sol\":13387:13399  playerBusted */\n      0x5a\n        /* \"Project-3/Starter code/blackjack.sol\":13387:13403  playerBusted = 1 */\n      dup2\n      swap1\n      sstore\n      pop\n        /* \"Project-3/Starter code/blackjack.sol\":13434:13435  0 */\n      0x00\n        /* \"Project-3/Starter code/blackjack.sol\":13417:13431  gameInProgress */\n      0x01\n        /* \"Project-3/Starter code/blackjack.sol\":13417:13435  gameInProgress = 0 */\n      dup2\n      swap1\n      sstore\n      pop\n        /* \"Project-3/Starter code/blackjack.sol\":13478:13493  playerHandValue */\n      0x48\n        /* \"Project-3/Starter code/blackjack.sol\":13494:13495  1 */\n      0x01\n        /* \"Project-3/Starter code/blackjack.sol\":13478:13496  playerHandValue[1] */\n      0x02\n      dup2\n      lt\n      tag_935\n      jumpi\n      tag_936\n      tag_183\n      jump\t// in\n    tag_936:\n    tag_935:\n      0x02\n      mul\n      add\n        /* \"Project-3/Starter code/blackjack.sol\":13497:13498  1 */\n      0x01\n        /* \"Project-3/Starter code/blackjack.sol\":13478:13499  playerHandValue[1][1] */\n      0x02\n      dup2\n      lt\n      tag_938\n      jumpi\n      tag_939\n      tag_183\n      jump\t// in\n    tag_939:\n    tag_938:\n      add\n      sload\n        /* \"Project-3/Starter code/blackjack.sol\":13453:13468  playerHandValue */\n      0x48\n        /* \"Project-3/Starter code/blackjack.sol\":13469:13470  1 */\n      0x01\n        /* \"Project-3/Starter code/blackjack.sol\":13453:13471  playerHandValue[1] */\n      0x02\n      dup2\n      lt\n      tag_941\n      jumpi\n      tag_942\n      tag_183\n      jump\t// in\n    tag_942:\n    tag_941:\n      0x02\n      mul\n      add\n        /* \"Project-3/Starter code/blackjack.sol\":13472:13473  0 */\n      0x00\n        /* \"Project-3/Starter code/blackjack.sol\":13453:13474  playerHandValue[1][0] */\n      0x02\n      dup2\n      lt\n      tag_944\n      jumpi\n      tag_945\n      tag_183\n      jump\t// in\n    tag_945:\n    tag_944:\n      add\n      sload\n        /* \"Project-3/Starter code/blackjack.sol\":13453:13499  playerHandValue[1][0] <= playerHandValue[1][1] */\n      gt\n        /* \"Project-3/Starter code/blackjack.sol\":13449:13574  if (playerHandValue[1][0] <= playerHandValue[1][1]) {... */\n      tag_947\n      jumpi\n        /* \"Project-3/Starter code/blackjack.sol\":13538:13553  playerHandValue */\n      0x48\n        /* \"Project-3/Starter code/blackjack.sol\":13554:13555  1 */\n      0x01\n        /* \"Project-3/Starter code/blackjack.sol\":13538:13556  playerHandValue[1] */\n      0x02\n      dup2\n      lt\n      tag_948\n      jumpi\n      tag_949\n      tag_183\n      jump\t// in\n    tag_949:\n    tag_948:\n      0x02\n      mul\n      add\n        /* \"Project-3/Starter code/blackjack.sol\":13557:13558  0 */\n      0x00\n        /* \"Project-3/Starter code/blackjack.sol\":13538:13559  playerHandValue[1][0] */\n      0x02\n      dup2\n      lt\n      tag_951\n      jumpi\n      tag_952\n      tag_183\n      jump\t// in\n    tag_952:\n    tag_951:\n      add\n      sload\n        /* \"Project-3/Starter code/blackjack.sol\":13519:13535  finalPlayerCount */\n      0x5c\n        /* \"Project-3/Starter code/blackjack.sol\":13519:13559  finalPlayerCount = playerHandValue[1][0] */\n      dup2\n      swap1\n      sstore\n      pop\n        /* \"Project-3/Starter code/blackjack.sol\":13449:13574  if (playerHandValue[1][0] <= playerHandValue[1][1]) {... */\n    tag_947:\n        /* \"Project-3/Starter code/blackjack.sol\":13615:13630  playerHandValue */\n      0x48\n        /* \"Project-3/Starter code/blackjack.sol\":13631:13632  1 */\n      0x01\n        /* \"Project-3/Starter code/blackjack.sol\":13615:13633  playerHandValue[1] */\n      0x02\n      dup2\n      lt\n      tag_954\n      jumpi\n      tag_955\n      tag_183\n      jump\t// in\n    tag_955:\n    tag_954:\n      0x02\n      mul\n      add\n        /* \"Project-3/Starter code/blackjack.sol\":13634:13635  1 */\n      0x01\n        /* \"Project-3/Starter code/blackjack.sol\":13615:13636  playerHandValue[1][1] */\n      0x02\n      dup2\n      lt\n      tag_957\n      jumpi\n      tag_958\n      tag_183\n      jump\t// in\n    tag_958:\n    tag_957:\n      add\n      sload\n        /* \"Project-3/Starter code/blackjack.sol\":13591:13606  playerHandValue */\n      0x48\n        /* \"Project-3/Starter code/blackjack.sol\":13607:13608  1 */\n      0x01\n        /* \"Project-3/Starter code/blackjack.sol\":13591:13609  playerHandValue[1] */\n      0x02\n      dup2\n      lt\n      tag_960\n      jumpi\n      tag_961\n      tag_183\n      jump\t// in\n    tag_961:\n    tag_960:\n      0x02\n      mul\n      add\n        /* \"Project-3/Starter code/blackjack.sol\":13610:13611  0 */\n      0x00\n        /* \"Project-3/Starter code/blackjack.sol\":13591:13612  playerHandValue[1][0] */\n      0x02\n      dup2\n      lt\n      tag_963\n      jumpi\n      tag_964\n      tag_183\n      jump\t// in\n    tag_964:\n    tag_963:\n      add\n      sload\n        /* \"Project-3/Starter code/blackjack.sol\":13591:13636  playerHandValue[1][0] > playerHandValue[1][1] */\n      gt\n        /* \"Project-3/Starter code/blackjack.sol\":13587:13711  if (playerHandValue[1][0] > playerHandValue[1][1]) {... */\n      iszero\n      tag_966\n      jumpi\n        /* \"Project-3/Starter code/blackjack.sol\":13675:13690  playerHandValue */\n      0x48\n        /* \"Project-3/Starter code/blackjack.sol\":13691:13692  1 */\n      0x01\n        /* \"Project-3/Starter code/blackjack.sol\":13675:13693  playerHandValue[1] */\n      0x02\n      dup2\n      lt\n      tag_967\n      jumpi\n      tag_968\n      tag_183\n      jump\t// in\n    tag_968:\n    tag_967:\n      0x02\n      mul\n      add\n        /* \"Project-3/Starter code/blackjack.sol\":13694:13695  1 */\n      0x01\n        /* \"Project-3/Starter code/blackjack.sol\":13675:13696  playerHandValue[1][1] */\n      0x02\n      dup2\n      lt\n      tag_970\n      jumpi\n      tag_971\n      tag_183\n      jump\t// in\n    tag_971:\n    tag_970:\n      add\n      sload\n        /* \"Project-3/Starter code/blackjack.sol\":13656:13672  finalPlayerCount */\n      0x5c\n        /* \"Project-3/Starter code/blackjack.sol\":13656:13696  finalPlayerCount = playerHandValue[1][1] */\n      dup2\n      swap1\n      sstore\n      pop\n        /* \"Project-3/Starter code/blackjack.sol\":13587:13711  if (playerHandValue[1][0] > playerHandValue[1][1]) {... */\n    tag_966:\n        /* \"Project-3/Starter code/blackjack.sol\":13307:13721  if ((playerHandValue[1][0] > 21) && (playerHandValue[1][1] > 21)) {... */\n    tag_934:\n        /* \"Project-3/Starter code/blackjack.sol\":13760:13762  21 */\n      0x15\n        /* \"Project-3/Starter code/blackjack.sol\":13735:13750  playerHandValue */\n      0x48\n        /* \"Project-3/Starter code/blackjack.sol\":13751:13752  1 */\n      0x01\n        /* \"Project-3/Starter code/blackjack.sol\":13735:13753  playerHandValue[1] */\n      0x02\n      dup2\n      lt\n      tag_973\n      jumpi\n      tag_974\n      tag_183\n      jump\t// in\n    tag_974:\n    tag_973:\n      0x02\n      mul\n      add\n        /* \"Project-3/Starter code/blackjack.sol\":13754:13755  0 */\n      0x00\n        /* \"Project-3/Starter code/blackjack.sol\":13735:13756  playerHandValue[1][0] */\n      0x02\n      dup2\n      lt\n      tag_976\n      jumpi\n      tag_977\n      tag_183\n      jump\t// in\n    tag_977:\n    tag_976:\n      add\n      sload\n        /* \"Project-3/Starter code/blackjack.sol\":13735:13762  playerHandValue[1][0] <= 21 */\n      gt\n      iszero\n        /* \"Project-3/Starter code/blackjack.sol\":13734:13795  (playerHandValue[1][0] <= 21) && (playerHandValue[1][1] > 21) */\n      dup1\n      iszero\n      tag_979\n      jumpi\n      pop\n        /* \"Project-3/Starter code/blackjack.sol\":13792:13794  21 */\n      0x15\n        /* \"Project-3/Starter code/blackjack.sol\":13768:13783  playerHandValue */\n      0x48\n        /* \"Project-3/Starter code/blackjack.sol\":13784:13785  1 */\n      0x01\n        /* \"Project-3/Starter code/blackjack.sol\":13768:13786  playerHandValue[1] */\n      0x02\n      dup2\n      lt\n      tag_980\n      jumpi\n      tag_981\n      tag_183\n      jump\t// in\n    tag_981:\n    tag_980:\n      0x02\n      mul\n      add\n        /* \"Project-3/Starter code/blackjack.sol\":13787:13788  1 */\n      0x01\n        /* \"Project-3/Starter code/blackjack.sol\":13768:13789  playerHandValue[1][1] */\n      0x02\n      dup2\n      lt\n      tag_983\n      jumpi\n      tag_984\n      tag_183\n      jump\t// in\n    tag_984:\n    tag_983:\n      add\n      sload\n        /* \"Project-3/Starter code/blackjack.sol\":13768:13794  playerHandValue[1][1] > 21 */\n      gt\n        /* \"Project-3/Starter code/blackjack.sol\":13734:13795  (playerHandValue[1][0] <= 21) && (playerHandValue[1][1] > 21) */\n    tag_979:\n        /* \"Project-3/Starter code/blackjack.sol\":13730:13862  if ((playerHandValue[1][0] <= 21) && (playerHandValue[1][1] > 21)) {... */\n      iszero\n      tag_986\n      jumpi\n        /* \"Project-3/Starter code/blackjack.sol\":13830:13845  playerHandValue */\n      0x48\n        /* \"Project-3/Starter code/blackjack.sol\":13846:13847  1 */\n      0x01\n        /* \"Project-3/Starter code/blackjack.sol\":13830:13848  playerHandValue[1] */\n      0x02\n      dup2\n      lt\n      tag_987\n      jumpi\n      tag_988\n      tag_183\n      jump\t// in\n    tag_988:\n    tag_987:\n      0x02\n      mul\n      add\n        /* \"Project-3/Starter code/blackjack.sol\":13849:13850  0 */\n      0x00\n        /* \"Project-3/Starter code/blackjack.sol\":13830:13851  playerHandValue[1][0] */\n      0x02\n      dup2\n      lt\n      tag_990\n      jumpi\n      tag_991\n      tag_183\n      jump\t// in\n    tag_991:\n    tag_990:\n      add\n      sload\n        /* \"Project-3/Starter code/blackjack.sol\":13811:13827  finalPlayerCount */\n      0x5c\n        /* \"Project-3/Starter code/blackjack.sol\":13811:13851  finalPlayerCount = playerHandValue[1][0] */\n      dup2\n      swap1\n      sstore\n      pop\n        /* \"Project-3/Starter code/blackjack.sol\":13730:13862  if ((playerHandValue[1][0] <= 21) && (playerHandValue[1][1] > 21)) {... */\n    tag_986:\n        /* \"Project-3/Starter code/blackjack.sol\":13900:13902  21 */\n      0x15\n        /* \"Project-3/Starter code/blackjack.sol\":13876:13891  playerHandValue */\n      0x48\n        /* \"Project-3/Starter code/blackjack.sol\":13892:13893  1 */\n      0x01\n        /* \"Project-3/Starter code/blackjack.sol\":13876:13894  playerHandValue[1] */\n      0x02\n      dup2\n      lt\n      tag_993\n      jumpi\n      tag_994\n      tag_183\n      jump\t// in\n    tag_994:\n    tag_993:\n      0x02\n      mul\n      add\n        /* \"Project-3/Starter code/blackjack.sol\":13895:13896  0 */\n      0x00\n        /* \"Project-3/Starter code/blackjack.sol\":13876:13897  playerHandValue[1][0] */\n      0x02\n      dup2\n      lt\n      tag_996\n      jumpi\n      tag_997\n      tag_183\n      jump\t// in\n    tag_997:\n    tag_996:\n      add\n      sload\n        /* \"Project-3/Starter code/blackjack.sol\":13876:13902  playerHandValue[1][0] > 21 */\n      gt\n        /* \"Project-3/Starter code/blackjack.sol\":13875:13936  (playerHandValue[1][0] > 21) && (playerHandValue[1][1] <= 21) */\n      dup1\n      iszero\n      tag_999\n      jumpi\n      pop\n        /* \"Project-3/Starter code/blackjack.sol\":13933:13935  21 */\n      0x15\n        /* \"Project-3/Starter code/blackjack.sol\":13908:13923  playerHandValue */\n      0x48\n        /* \"Project-3/Starter code/blackjack.sol\":13924:13925  1 */\n      0x01\n        /* \"Project-3/Starter code/blackjack.sol\":13908:13926  playerHandValue[1] */\n      0x02\n      dup2\n      lt\n      tag_1000\n      jumpi\n      tag_1001\n      tag_183\n      jump\t// in\n    tag_1001:\n    tag_1000:\n      0x02\n      mul\n      add\n        /* \"Project-3/Starter code/blackjack.sol\":13927:13928  1 */\n      0x01\n        /* \"Project-3/Starter code/blackjack.sol\":13908:13929  playerHandValue[1][1] */\n      0x02\n      dup2\n      lt\n      tag_1003\n      jumpi\n      tag_1004\n      tag_183\n      jump\t// in\n    tag_1004:\n    tag_1003:\n      add\n      sload\n        /* \"Project-3/Starter code/blackjack.sol\":13908:13935  playerHandValue[1][1] <= 21 */\n      gt\n      iszero\n        /* \"Project-3/Starter code/blackjack.sol\":13875:13936  (playerHandValue[1][0] > 21) && (playerHandValue[1][1] <= 21) */\n    tag_999:\n        /* \"Project-3/Starter code/blackjack.sol\":13871:14003  if ((playerHandValue[1][0] > 21) && (playerHandValue[1][1] <= 21)) {... */\n      iszero\n      tag_1006\n      jumpi\n        /* \"Project-3/Starter code/blackjack.sol\":13971:13986  playerHandValue */\n      0x48\n        /* \"Project-3/Starter code/blackjack.sol\":13987:13988  1 */\n      0x01\n        /* \"Project-3/Starter code/blackjack.sol\":13971:13989  playerHandValue[1] */\n      0x02\n      dup2\n      lt\n      tag_1007\n      jumpi\n      tag_1008\n      tag_183\n      jump\t// in\n    tag_1008:\n    tag_1007:\n      0x02\n      mul\n      add\n        /* \"Project-3/Starter code/blackjack.sol\":13990:13991  1 */\n      0x01\n        /* \"Project-3/Starter code/blackjack.sol\":13971:13992  playerHandValue[1][1] */\n      0x02\n      dup2\n      lt\n      tag_1010\n      jumpi\n      tag_1011\n      tag_183\n      jump\t// in\n    tag_1011:\n    tag_1010:\n      add\n      sload\n        /* \"Project-3/Starter code/blackjack.sol\":13952:13968  finalPlayerCount */\n      0x5c\n        /* \"Project-3/Starter code/blackjack.sol\":13952:13992  finalPlayerCount = playerHandValue[1][1] */\n      dup2\n      swap1\n      sstore\n      pop\n        /* \"Project-3/Starter code/blackjack.sol\":13871:14003  if ((playerHandValue[1][0] > 21) && (playerHandValue[1][1] <= 21)) {... */\n    tag_1006:\n        /* \"Project-3/Starter code/blackjack.sol\":14042:14044  21 */\n      0x15\n        /* \"Project-3/Starter code/blackjack.sol\":14017:14032  playerHandValue */\n      0x48\n        /* \"Project-3/Starter code/blackjack.sol\":14033:14034  1 */\n      0x01\n        /* \"Project-3/Starter code/blackjack.sol\":14017:14035  playerHandValue[1] */\n      0x02\n      dup2\n      lt\n      tag_1013\n      jumpi\n      tag_1014\n      tag_183\n      jump\t// in\n    tag_1014:\n    tag_1013:\n      0x02\n      mul\n      add\n        /* \"Project-3/Starter code/blackjack.sol\":14036:14037  0 */\n      0x00\n        /* \"Project-3/Starter code/blackjack.sol\":14017:14038  playerHandValue[1][0] */\n      0x02\n      dup2\n      lt\n      tag_1016\n      jumpi\n      tag_1017\n      tag_183\n      jump\t// in\n    tag_1017:\n    tag_1016:\n      add\n      sload\n        /* \"Project-3/Starter code/blackjack.sol\":14017:14044  playerHandValue[1][0] <= 21 */\n      gt\n      iszero\n        /* \"Project-3/Starter code/blackjack.sol\":14016:14078  (playerHandValue[1][0] <= 21) && (playerHandValue[1][1] <= 21) */\n      dup1\n      iszero\n      tag_1019\n      jumpi\n      pop\n        /* \"Project-3/Starter code/blackjack.sol\":14075:14077  21 */\n      0x15\n        /* \"Project-3/Starter code/blackjack.sol\":14050:14065  playerHandValue */\n      0x48\n        /* \"Project-3/Starter code/blackjack.sol\":14066:14067  1 */\n      0x01\n        /* \"Project-3/Starter code/blackjack.sol\":14050:14068  playerHandValue[1] */\n      0x02\n      dup2\n      lt\n      tag_1020\n      jumpi\n      tag_1021\n      tag_183\n      jump\t// in\n    tag_1021:\n    tag_1020:\n      0x02\n      mul\n      add\n        /* \"Project-3/Starter code/blackjack.sol\":14069:14070  1 */\n      0x01\n        /* \"Project-3/Starter code/blackjack.sol\":14050:14071  playerHandValue[1][1] */\n      0x02\n      dup2\n      lt\n      tag_1023\n      jumpi\n      tag_1024\n      tag_183\n      jump\t// in\n    tag_1024:\n    tag_1023:\n      add\n      sload\n        /* \"Project-3/Starter code/blackjack.sol\":14050:14077  playerHandValue[1][1] <= 21 */\n      gt\n      iszero\n        /* \"Project-3/Starter code/blackjack.sol\":14016:14078  (playerHandValue[1][0] <= 21) && (playerHandValue[1][1] <= 21) */\n    tag_1019:\n        /* \"Project-3/Starter code/blackjack.sol\":14012:14367  if ((playerHandValue[1][0] <= 21) && (playerHandValue[1][1] <= 21)) {... */\n      iszero\n      tag_1026\n      jumpi\n        /* \"Project-3/Starter code/blackjack.sol\":14122:14137  playerHandValue */\n      0x48\n        /* \"Project-3/Starter code/blackjack.sol\":14138:14139  1 */\n      0x01\n        /* \"Project-3/Starter code/blackjack.sol\":14122:14140  playerHandValue[1] */\n      0x02\n      dup2\n      lt\n      tag_1027\n      jumpi\n      tag_1028\n      tag_183\n      jump\t// in\n    tag_1028:\n    tag_1027:\n      0x02\n      mul\n      add\n        /* \"Project-3/Starter code/blackjack.sol\":14141:14142  1 */\n      0x01\n        /* \"Project-3/Starter code/blackjack.sol\":14122:14143  playerHandValue[1][1] */\n      0x02\n      dup2\n      lt\n      tag_1030\n      jumpi\n      tag_1031\n      tag_183\n      jump\t// in\n    tag_1031:\n    tag_1030:\n      add\n      sload\n        /* \"Project-3/Starter code/blackjack.sol\":14098:14113  playerHandValue */\n      0x48\n        /* \"Project-3/Starter code/blackjack.sol\":14114:14115  1 */\n      0x01\n        /* \"Project-3/Starter code/blackjack.sol\":14098:14116  playerHandValue[1] */\n      0x02\n      dup2\n      lt\n      tag_1033\n      jumpi\n      tag_1034\n      tag_183\n      jump\t// in\n    tag_1034:\n    tag_1033:\n      0x02\n      mul\n      add\n        /* \"Project-3/Starter code/blackjack.sol\":14117:14118  0 */\n      0x00\n        /* \"Project-3/Starter code/blackjack.sol\":14098:14119  playerHandValue[1][0] */\n      0x02\n      dup2\n      lt\n      tag_1036\n      jumpi\n      tag_1037\n      tag_183\n      jump\t// in\n    tag_1037:\n    tag_1036:\n      add\n      sload\n        /* \"Project-3/Starter code/blackjack.sol\":14098:14143  playerHandValue[1][0] > playerHandValue[1][1] */\n      gt\n        /* \"Project-3/Starter code/blackjack.sol\":14094:14219  if (playerHandValue[1][0] > playerHandValue[1][1]) {... */\n      iszero\n      tag_1039\n      jumpi\n        /* \"Project-3/Starter code/blackjack.sol\":14183:14198  playerHandValue */\n      0x48\n        /* \"Project-3/Starter code/blackjack.sol\":14199:14200  1 */\n      0x01\n        /* \"Project-3/Starter code/blackjack.sol\":14183:14201  playerHandValue[1] */\n      0x02\n      dup2\n      lt\n      tag_1040\n      jumpi\n      tag_1041\n      tag_183\n      jump\t// in\n    tag_1041:\n    tag_1040:\n      0x02\n      mul\n      add\n        /* \"Project-3/Starter code/blackjack.sol\":14202:14203  0 */\n      0x00\n        /* \"Project-3/Starter code/blackjack.sol\":14183:14204  playerHandValue[1][0] */\n      0x02\n      dup2\n      lt\n      tag_1043\n      jumpi\n      tag_1044\n      tag_183\n      jump\t// in\n    tag_1044:\n    tag_1043:\n      add\n      sload\n        /* \"Project-3/Starter code/blackjack.sol\":14164:14180  finalPlayerCount */\n      0x5c\n        /* \"Project-3/Starter code/blackjack.sol\":14164:14204  finalPlayerCount = playerHandValue[1][0] */\n      dup2\n      swap1\n      sstore\n      pop\n        /* \"Project-3/Starter code/blackjack.sol\":14094:14219  if (playerHandValue[1][0] > playerHandValue[1][1]) {... */\n    tag_1039:\n        /* \"Project-3/Starter code/blackjack.sol\":14261:14276  playerHandValue */\n      0x48\n        /* \"Project-3/Starter code/blackjack.sol\":14277:14278  1 */\n      0x01\n        /* \"Project-3/Starter code/blackjack.sol\":14261:14279  playerHandValue[1] */\n      0x02\n      dup2\n      lt\n      tag_1046\n      jumpi\n      tag_1047\n      tag_183\n      jump\t// in\n    tag_1047:\n    tag_1046:\n      0x02\n      mul\n      add\n        /* \"Project-3/Starter code/blackjack.sol\":14280:14281  1 */\n      0x01\n        /* \"Project-3/Starter code/blackjack.sol\":14261:14282  playerHandValue[1][1] */\n      0x02\n      dup2\n      lt\n      tag_1049\n      jumpi\n      tag_1050\n      tag_183\n      jump\t// in\n    tag_1050:\n    tag_1049:\n      add\n      sload\n        /* \"Project-3/Starter code/blackjack.sol\":14236:14251  playerHandValue */\n      0x48\n        /* \"Project-3/Starter code/blackjack.sol\":14252:14253  1 */\n      0x01\n        /* \"Project-3/Starter code/blackjack.sol\":14236:14254  playerHandValue[1] */\n      0x02\n      dup2\n      lt\n      tag_1052\n      jumpi\n      tag_1053\n      tag_183\n      jump\t// in\n    tag_1053:\n    tag_1052:\n      0x02\n      mul\n      add\n        /* \"Project-3/Starter code/blackjack.sol\":14255:14256  0 */\n      0x00\n        /* \"Project-3/Starter code/blackjack.sol\":14236:14257  playerHandValue[1][0] */\n      0x02\n      dup2\n      lt\n      tag_1055\n      jumpi\n      tag_1056\n      tag_183\n      jump\t// in\n    tag_1056:\n    tag_1055:\n      add\n      sload\n        /* \"Project-3/Starter code/blackjack.sol\":14236:14282  playerHandValue[1][0] <= playerHandValue[1][1] */\n      gt\n        /* \"Project-3/Starter code/blackjack.sol\":14232:14357  if (playerHandValue[1][0] <= playerHandValue[1][1]) {... */\n      tag_1058\n      jumpi\n        /* \"Project-3/Starter code/blackjack.sol\":14321:14336  playerHandValue */\n      0x48\n        /* \"Project-3/Starter code/blackjack.sol\":14337:14338  1 */\n      0x01\n        /* \"Project-3/Starter code/blackjack.sol\":14321:14339  playerHandValue[1] */\n      0x02\n      dup2\n      lt\n      tag_1059\n      jumpi\n      tag_1060\n      tag_183\n      jump\t// in\n    tag_1060:\n    tag_1059:\n      0x02\n      mul\n      add\n        /* \"Project-3/Starter code/blackjack.sol\":14340:14341  1 */\n      0x01\n        /* \"Project-3/Starter code/blackjack.sol\":14321:14342  playerHandValue[1][1] */\n      0x02\n      dup2\n      lt\n      tag_1062\n      jumpi\n      tag_1063\n      tag_183\n      jump\t// in\n    tag_1063:\n    tag_1062:\n      add\n      sload\n        /* \"Project-3/Starter code/blackjack.sol\":14302:14318  finalPlayerCount */\n      0x5c\n        /* \"Project-3/Starter code/blackjack.sol\":14302:14342  finalPlayerCount = playerHandValue[1][1] */\n      dup2\n      swap1\n      sstore\n      pop\n        /* \"Project-3/Starter code/blackjack.sol\":14232:14357  if (playerHandValue[1][0] <= playerHandValue[1][1]) {... */\n    tag_1058:\n        /* \"Project-3/Starter code/blackjack.sol\":14012:14367  if ((playerHandValue[1][0] <= 21) && (playerHandValue[1][1] <= 21)) {... */\n    tag_1026:\n        /* \"Project-3/Starter code/blackjack.sol\":13257:14373  function evaluatePlayerHand() internal {... */\n      jump\t// out\n        /* \"Project-3/Starter code/blackjack.sol\":16943:17677  function playerHasBlackJack() internal {... */\n    tag_304:\n        /* \"Project-3/Starter code/blackjack.sol\":17010:17011  0 */\n      0x00\n        /* \"Project-3/Starter code/blackjack.sol\":16993:17007  gameInProgress */\n      0x01\n        /* \"Project-3/Starter code/blackjack.sol\":16993:17011  gameInProgress = 0 */\n      dup2\n      swap1\n      sstore\n      pop\n        /* \"Project-3/Starter code/blackjack.sol\":17048:17049  1 */\n      0x01\n        /* \"Project-3/Starter code/blackjack.sol\":17026:17038  dealersCards */\n      0x28\n        /* \"Project-3/Starter code/blackjack.sol\":17039:17040  1 */\n      0x01\n        /* \"Project-3/Starter code/blackjack.sol\":17026:17041  dealersCards[1] */\n      0x10\n      dup2\n      lt\n      tag_1066\n      jumpi\n      tag_1067\n      tag_183\n      jump\t// in\n    tag_1067:\n    tag_1066:\n      0x02\n      mul\n      add\n        /* \"Project-3/Starter code/blackjack.sol\":17042:17043  0 */\n      0x00\n        /* \"Project-3/Starter code/blackjack.sol\":17026:17044  dealersCards[1][0] */\n      0x02\n      dup2\n      lt\n      tag_1069\n      jumpi\n      tag_1070\n      tag_183\n      jump\t// in\n    tag_1070:\n    tag_1069:\n      add\n      sload\n        /* \"Project-3/Starter code/blackjack.sol\":17026:17049  dealersCards[1][0] == 1 */\n      sub\n        /* \"Project-3/Starter code/blackjack.sol\":17022:17667  if (dealersCards[1][0] == 1) {... */\n      tag_1072\n      jumpi\n        /* \"Project-3/Starter code/blackjack.sol\":17066:17077  getCards(1) */\n      tag_1073\n        /* \"Project-3/Starter code/blackjack.sol\":17075:17076  1 */\n      0x01\n        /* \"Project-3/Starter code/blackjack.sol\":17066:17074  getCards */\n      tag_237\n        /* \"Project-3/Starter code/blackjack.sol\":17066:17077  getCards(1) */\n      jump\t// in\n    tag_1073:\n        /* \"Project-3/Starter code/blackjack.sol\":17096:17105  uint256 i */\n      0x00\n        /* \"Project-3/Starter code/blackjack.sol\":17108:17109  1 */\n      0x01\n        /* \"Project-3/Starter code/blackjack.sol\":17096:17109  uint256 i = 1 */\n      swap1\n      pop\n        /* \"Project-3/Starter code/blackjack.sol\":17091:17416  for (uint256 i = 1; i <= 1; i++) {... */\n    tag_1074:\n        /* \"Project-3/Starter code/blackjack.sol\":17116:17117  1 */\n      0x01\n        /* \"Project-3/Starter code/blackjack.sol\":17111:17112  i */\n      dup2\n        /* \"Project-3/Starter code/blackjack.sol\":17111:17117  i <= 1 */\n      gt\n        /* \"Project-3/Starter code/blackjack.sol\":17091:17416  for (uint256 i = 1; i <= 1; i++) {... */\n      tag_1075\n      jumpi\n        /* \"Project-3/Starter code/blackjack.sol\":17138:17402  while ((playersCards[i][0] == dealtCards[1][0]) || (dealersCards[i][0] == dealtCards[1][0])) {... */\n    tag_1077:\n        /* \"Project-3/Starter code/blackjack.sol\":17168:17178  dealtCards */\n      0x50\n        /* \"Project-3/Starter code/blackjack.sol\":17179:17180  1 */\n      0x01\n        /* \"Project-3/Starter code/blackjack.sol\":17168:17181  dealtCards[1] */\n      0x04\n      dup2\n      lt\n      tag_1079\n      jumpi\n      tag_1080\n      tag_183\n      jump\t// in\n    tag_1080:\n    tag_1079:\n      0x02\n      mul\n      add\n        /* \"Project-3/Starter code/blackjack.sol\":17182:17183  0 */\n      0x00\n        /* \"Project-3/Starter code/blackjack.sol\":17168:17184  dealtCards[1][0] */\n      0x02\n      dup2\n      lt\n      tag_1082\n      jumpi\n      tag_1083\n      tag_183\n      jump\t// in\n    tag_1083:\n    tag_1082:\n      add\n      sload\n        /* \"Project-3/Starter code/blackjack.sol\":17146:17158  playersCards */\n      0x08\n        /* \"Project-3/Starter code/blackjack.sol\":17159:17160  i */\n      dup3\n        /* \"Project-3/Starter code/blackjack.sol\":17146:17161  playersCards[i] */\n      0x10\n      dup2\n      lt\n      tag_1085\n      jumpi\n      tag_1086\n      tag_183\n      jump\t// in\n    tag_1086:\n    tag_1085:\n      0x02\n      mul\n      add\n        /* \"Project-3/Starter code/blackjack.sol\":17162:17163  0 */\n      0x00\n        /* \"Project-3/Starter code/blackjack.sol\":17146:17164  playersCards[i][0] */\n      0x02\n      dup2\n      lt\n      tag_1088\n      jumpi\n      tag_1089\n      tag_183\n      jump\t// in\n    tag_1089:\n    tag_1088:\n      add\n      sload\n        /* \"Project-3/Starter code/blackjack.sol\":17146:17184  playersCards[i][0] == dealtCards[1][0] */\n      eq\n        /* \"Project-3/Starter code/blackjack.sol\":17145:17229  (playersCards[i][0] == dealtCards[1][0]) || (dealersCards[i][0] == dealtCards[1][0]) */\n      dup1\n      tag_1091\n      jumpi\n      pop\n        /* \"Project-3/Starter code/blackjack.sol\":17212:17222  dealtCards */\n      0x50\n        /* \"Project-3/Starter code/blackjack.sol\":17223:17224  1 */\n      0x01\n        /* \"Project-3/Starter code/blackjack.sol\":17212:17225  dealtCards[1] */\n      0x04\n      dup2\n      lt\n      tag_1092\n      jumpi\n      tag_1093\n      tag_183\n      jump\t// in\n    tag_1093:\n    tag_1092:\n      0x02\n      mul\n      add\n        /* \"Project-3/Starter code/blackjack.sol\":17226:17227  0 */\n      0x00\n        /* \"Project-3/Starter code/blackjack.sol\":17212:17228  dealtCards[1][0] */\n      0x02\n      dup2\n      lt\n      tag_1095\n      jumpi\n      tag_1096\n      tag_183\n      jump\t// in\n    tag_1096:\n    tag_1095:\n      add\n      sload\n        /* \"Project-3/Starter code/blackjack.sol\":17190:17202  dealersCards */\n      0x28\n        /* \"Project-3/Starter code/blackjack.sol\":17203:17204  i */\n      dup3\n        /* \"Project-3/Starter code/blackjack.sol\":17190:17205  dealersCards[i] */\n      0x10\n      dup2\n      lt\n      tag_1098\n      jumpi\n      tag_1099\n      tag_183\n      jump\t// in\n    tag_1099:\n    tag_1098:\n      0x02\n      mul\n      add\n        /* \"Project-3/Starter code/blackjack.sol\":17206:17207  0 */\n      0x00\n        /* \"Project-3/Starter code/blackjack.sol\":17190:17208  dealersCards[i][0] */\n      0x02\n      dup2\n      lt\n      tag_1101\n      jumpi\n      tag_1102\n      tag_183\n      jump\t// in\n    tag_1102:\n    tag_1101:\n      add\n      sload\n        /* \"Project-3/Starter code/blackjack.sol\":17190:17228  dealersCards[i][0] == dealtCards[1][0] */\n      eq\n        /* \"Project-3/Starter code/blackjack.sol\":17145:17229  (playersCards[i][0] == dealtCards[1][0]) || (dealersCards[i][0] == dealtCards[1][0]) */\n    tag_1091:\n        /* \"Project-3/Starter code/blackjack.sol\":17138:17402  while ((playersCards[i][0] == dealtCards[1][0]) || (dealersCards[i][0] == dealtCards[1][0])) {... */\n      iszero\n      tag_1078\n      jumpi\n        /* \"Project-3/Starter code/blackjack.sol\":17273:17283  dealtCards */\n      0x50\n        /* \"Project-3/Starter code/blackjack.sol\":17284:17285  1 */\n      0x01\n        /* \"Project-3/Starter code/blackjack.sol\":17273:17286  dealtCards[1] */\n      0x04\n      dup2\n      lt\n      tag_1104\n      jumpi\n      tag_1105\n      tag_183\n      jump\t// in\n    tag_1105:\n    tag_1104:\n      0x02\n      mul\n      add\n        /* \"Project-3/Starter code/blackjack.sol\":17287:17288  1 */\n      0x01\n        /* \"Project-3/Starter code/blackjack.sol\":17273:17289  dealtCards[1][1] */\n      0x02\n      dup2\n      lt\n      tag_1107\n      jumpi\n      tag_1108\n      tag_183\n      jump\t// in\n    tag_1108:\n    tag_1107:\n      add\n      sload\n        /* \"Project-3/Starter code/blackjack.sol\":17251:17263  playersCards */\n      0x08\n        /* \"Project-3/Starter code/blackjack.sol\":17264:17265  i */\n      dup3\n        /* \"Project-3/Starter code/blackjack.sol\":17251:17266  playersCards[i] */\n      0x10\n      dup2\n      lt\n      tag_1110\n      jumpi\n      tag_1111\n      tag_183\n      jump\t// in\n    tag_1111:\n    tag_1110:\n      0x02\n      mul\n      add\n        /* \"Project-3/Starter code/blackjack.sol\":17267:17268  1 */\n      0x01\n        /* \"Project-3/Starter code/blackjack.sol\":17251:17269  playersCards[i][1] */\n      0x02\n      dup2\n      lt\n      tag_1113\n      jumpi\n      tag_1114\n      tag_183\n      jump\t// in\n    tag_1114:\n    tag_1113:\n      add\n      sload\n        /* \"Project-3/Starter code/blackjack.sol\":17251:17289  playersCards[i][1] == dealtCards[1][1] */\n      eq\n        /* \"Project-3/Starter code/blackjack.sol\":17250:17334  (playersCards[i][1] == dealtCards[1][1]) || (dealersCards[i][1] == dealtCards[1][1]) */\n      dup1\n      tag_1116\n      jumpi\n      pop\n        /* \"Project-3/Starter code/blackjack.sol\":17317:17327  dealtCards */\n      0x50\n        /* \"Project-3/Starter code/blackjack.sol\":17328:17329  1 */\n      0x01\n        /* \"Project-3/Starter code/blackjack.sol\":17317:17330  dealtCards[1] */\n      0x04\n      dup2\n      lt\n      tag_1117\n      jumpi\n      tag_1118\n      tag_183\n      jump\t// in\n    tag_1118:\n    tag_1117:\n      0x02\n      mul\n      add\n        /* \"Project-3/Starter code/blackjack.sol\":17331:17332  1 */\n      0x01\n        /* \"Project-3/Starter code/blackjack.sol\":17317:17333  dealtCards[1][1] */\n      0x02\n      dup2\n      lt\n      tag_1120\n      jumpi\n      tag_1121\n      tag_183\n      jump\t// in\n    tag_1121:\n    tag_1120:\n      add\n      sload\n        /* \"Project-3/Starter code/blackjack.sol\":17295:17307  dealersCards */\n      0x28\n        /* \"Project-3/Starter code/blackjack.sol\":17308:17309  i */\n      dup3\n        /* \"Project-3/Starter code/blackjack.sol\":17295:17310  dealersCards[i] */\n      0x10\n      dup2\n      lt\n      tag_1123\n      jumpi\n      tag_1124\n      tag_183\n      jump\t// in\n    tag_1124:\n    tag_1123:\n      0x02\n      mul\n      add\n        /* \"Project-3/Starter code/blackjack.sol\":17311:17312  1 */\n      0x01\n        /* \"Project-3/Starter code/blackjack.sol\":17295:17313  dealersCards[i][1] */\n      0x02\n      dup2\n      lt\n      tag_1126\n      jumpi\n      tag_1127\n      tag_183\n      jump\t// in\n    tag_1127:\n    tag_1126:\n      add\n      sload\n        /* \"Project-3/Starter code/blackjack.sol\":17295:17333  dealersCards[i][1] == dealtCards[1][1] */\n      eq\n        /* \"Project-3/Starter code/blackjack.sol\":17250:17334  (playersCards[i][1] == dealtCards[1][1]) || (dealersCards[i][1] == dealtCards[1][1]) */\n    tag_1116:\n        /* \"Project-3/Starter code/blackjack.sol\":17246:17388  if ((playersCards[i][1] == dealtCards[1][1]) || (dealersCards[i][1] == dealtCards[1][1])) {... */\n      iszero\n      tag_1129\n      jumpi\n        /* \"Project-3/Starter code/blackjack.sol\":17358:17369  getCards(1) */\n      tag_1130\n        /* \"Project-3/Starter code/blackjack.sol\":17367:17368  1 */\n      0x01\n        /* \"Project-3/Starter code/blackjack.sol\":17358:17366  getCards */\n      tag_237\n        /* \"Project-3/Starter code/blackjack.sol\":17358:17369  getCards(1) */\n      jump\t// in\n    tag_1130:\n        /* \"Project-3/Starter code/blackjack.sol\":17246:17388  if ((playersCards[i][1] == dealtCards[1][1]) || (dealersCards[i][1] == dealtCards[1][1])) {... */\n    tag_1129:\n        /* \"Project-3/Starter code/blackjack.sol\":17138:17402  while ((playersCards[i][0] == dealtCards[1][0]) || (dealersCards[i][0] == dealtCards[1][0])) {... */\n      jump(tag_1077)\n    tag_1078:\n        /* \"Project-3/Starter code/blackjack.sol\":17119:17122  i++ */\n      dup1\n      dup1\n      tag_1131\n      swap1\n      tag_235\n      jump\t// in\n    tag_1131:\n      swap2\n      pop\n      pop\n        /* \"Project-3/Starter code/blackjack.sol\":17091:17416  for (uint256 i = 1; i <= 1; i++) {... */\n      jump(tag_1074)\n    tag_1075:\n      pop\n        /* \"Project-3/Starter code/blackjack.sol\":17430:17481  pushToDealer(dealtCards[1][0], dealtCards[1][1], 2) */\n      tag_1132\n        /* \"Project-3/Starter code/blackjack.sol\":17443:17453  dealtCards */\n      0x50\n        /* \"Project-3/Starter code/blackjack.sol\":17454:17455  1 */\n      0x01\n        /* \"Project-3/Starter code/blackjack.sol\":17443:17456  dealtCards[1] */\n      0x04\n      dup2\n      lt\n      tag_1133\n      jumpi\n      tag_1134\n      tag_183\n      jump\t// in\n    tag_1134:\n    tag_1133:\n      0x02\n      mul\n      add\n        /* \"Project-3/Starter code/blackjack.sol\":17457:17458  0 */\n      0x00\n        /* \"Project-3/Starter code/blackjack.sol\":17443:17459  dealtCards[1][0] */\n      0x02\n      dup2\n      lt\n      tag_1136\n      jumpi\n      tag_1137\n      tag_183\n      jump\t// in\n    tag_1137:\n    tag_1136:\n      add\n      sload\n        /* \"Project-3/Starter code/blackjack.sol\":17461:17471  dealtCards */\n      0x50\n        /* \"Project-3/Starter code/blackjack.sol\":17472:17473  1 */\n      0x01\n        /* \"Project-3/Starter code/blackjack.sol\":17461:17474  dealtCards[1] */\n      0x04\n      dup2\n      lt\n      tag_1139\n      jumpi\n      tag_1140\n      tag_183\n      jump\t// in\n    tag_1140:\n    tag_1139:\n      0x02\n      mul\n      add\n        /* \"Project-3/Starter code/blackjack.sol\":17475:17476  1 */\n      0x01\n        /* \"Project-3/Starter code/blackjack.sol\":17461:17477  dealtCards[1][1] */\n      0x02\n      dup2\n      lt\n      tag_1142\n      jumpi\n      tag_1143\n      tag_183\n      jump\t// in\n    tag_1143:\n    tag_1142:\n      add\n      sload\n        /* \"Project-3/Starter code/blackjack.sol\":17479:17480  2 */\n      0x02\n        /* \"Project-3/Starter code/blackjack.sol\":17430:17442  pushToDealer */\n      tag_274\n        /* \"Project-3/Starter code/blackjack.sol\":17430:17481  pushToDealer(dealtCards[1][0], dealtCards[1][1], 2) */\n      jump\t// in\n    tag_1132:\n        /* \"Project-3/Starter code/blackjack.sol\":17495:17512  sumDealersCards() */\n      tag_1145\n        /* \"Project-3/Starter code/blackjack.sol\":17495:17510  sumDealersCards */\n      tag_291\n        /* \"Project-3/Starter code/blackjack.sol\":17495:17512  sumDealersCards() */\n      jump\t// in\n    tag_1145:\n        /* \"Project-3/Starter code/blackjack.sol\":17526:17546  evaluateDealerHand() */\n      tag_1146\n        /* \"Project-3/Starter code/blackjack.sol\":17526:17544  evaluateDealerHand */\n      tag_293\n        /* \"Project-3/Starter code/blackjack.sol\":17526:17546  evaluateDealerHand() */\n      jump\t// in\n    tag_1146:\n        /* \"Project-3/Starter code/blackjack.sol\":17590:17592  21 */\n      0x15\n        /* \"Project-3/Starter code/blackjack.sol\":17565:17580  dealerHandValue */\n      0x4c\n        /* \"Project-3/Starter code/blackjack.sol\":17581:17582  1 */\n      0x01\n        /* \"Project-3/Starter code/blackjack.sol\":17565:17583  dealerHandValue[1] */\n      0x02\n      dup2\n      lt\n      tag_1147\n      jumpi\n      tag_1148\n      tag_183\n      jump\t// in\n    tag_1148:\n    tag_1147:\n      0x02\n      mul\n      add\n        /* \"Project-3/Starter code/blackjack.sol\":17584:17585  1 */\n      0x01\n        /* \"Project-3/Starter code/blackjack.sol\":17565:17586  dealerHandValue[1][1] */\n      0x02\n      dup2\n      lt\n      tag_1150\n      jumpi\n      tag_1151\n      tag_183\n      jump\t// in\n    tag_1151:\n    tag_1150:\n      add\n      sload\n        /* \"Project-3/Starter code/blackjack.sol\":17565:17592  dealerHandValue[1][1] == 21 */\n      sub\n        /* \"Project-3/Starter code/blackjack.sol\":17561:17643  if (dealerHandValue[1][1] == 21) {... */\n      tag_1153\n      jumpi\n        /* \"Project-3/Starter code/blackjack.sol\":17613:17627  gameIsPushed() */\n      tag_1154\n        /* \"Project-3/Starter code/blackjack.sol\":17613:17625  gameIsPushed */\n      tag_1155\n        /* \"Project-3/Starter code/blackjack.sol\":17613:17627  gameIsPushed() */\n      jump\t// in\n    tag_1154:\n        /* \"Project-3/Starter code/blackjack.sol\":17561:17643  if (dealerHandValue[1][1] == 21) {... */\n    tag_1153:\n        /* \"Project-3/Starter code/blackjack.sol\":17022:17667  if (dealersCards[1][0] == 1) {... */\n    tag_1072:\n        /* \"Project-3/Starter code/blackjack.sol\":16943:17677  function playerHasBlackJack() internal {... */\n      jump\t// out\n        /* \"Project-3/Starter code/blackjack.sol\":7350:7696  function numCardsInArray (uint[2][16] memory array) internal pure returns(uint) {... */\n    tag_360:\n        /* \"Project-3/Starter code/blackjack.sol\":7424:7428  uint */\n      0x00\n        /* \"Project-3/Starter code/blackjack.sol\":7441:7447  uint i */\n      dup1\n        /* \"Project-3/Starter code/blackjack.sol\":7450:7451  0 */\n      0x00\n        /* \"Project-3/Starter code/blackjack.sol\":7441:7451  uint i = 0 */\n      swap1\n      pop\n        /* \"Project-3/Starter code/blackjack.sol\":7461:7471  uint count */\n      0x00\n        /* \"Project-3/Starter code/blackjack.sol\":7497:7658  while (i < 16) {... */\n    tag_1157:\n        /* \"Project-3/Starter code/blackjack.sol\":7508:7510  16 */\n      0x10\n        /* \"Project-3/Starter code/blackjack.sol\":7504:7505  i */\n      dup3\n        /* \"Project-3/Starter code/blackjack.sol\":7504:7510  i < 16 */\n      lt\n        /* \"Project-3/Starter code/blackjack.sol\":7497:7658  while (i < 16) {... */\n      iszero\n      tag_1158\n      jumpi\n        /* \"Project-3/Starter code/blackjack.sol\":7545:7546  0 */\n      0x00\n        /* \"Project-3/Starter code/blackjack.sol\":7530:7535  array */\n      dup5\n        /* \"Project-3/Starter code/blackjack.sol\":7536:7537  i */\n      dup4\n        /* \"Project-3/Starter code/blackjack.sol\":7530:7538  array[i] */\n      0x10\n      dup2\n      lt\n      tag_1159\n      jumpi\n      tag_1160\n      tag_183\n      jump\t// in\n    tag_1160:\n    tag_1159:\n      0x20\n      mul\n      add\n      mload\n        /* \"Project-3/Starter code/blackjack.sol\":7539:7540  0 */\n      0x00\n        /* \"Project-3/Starter code/blackjack.sol\":7530:7541  array[i][0] */\n      0x02\n      dup2\n      lt\n      tag_1161\n      jumpi\n      tag_1162\n      tag_183\n      jump\t// in\n    tag_1162:\n    tag_1161:\n      0x20\n      mul\n      add\n      mload\n        /* \"Project-3/Starter code/blackjack.sol\":7530:7546  array[i][0] != 0 */\n      eq\n        /* \"Project-3/Starter code/blackjack.sol\":7526:7625  if (array[i][0] != 0) {... */\n      tag_1163\n      jumpi\n        /* \"Project-3/Starter code/blackjack.sol\":7582:7583  1 */\n      0x01\n        /* \"Project-3/Starter code/blackjack.sol\":7574:7579  count */\n      dup2\n        /* \"Project-3/Starter code/blackjack.sol\":7574:7583  count + 1 */\n      tag_1164\n      swap2\n      swap1\n      tag_165\n      jump\t// in\n    tag_1164:\n        /* \"Project-3/Starter code/blackjack.sol\":7566:7583  count = count + 1 */\n      swap1\n      pop\n        /* \"Project-3/Starter code/blackjack.sol\":7526:7625  if (array[i][0] != 0) {... */\n    tag_1163:\n        /* \"Project-3/Starter code/blackjack.sol\":7646:7647  1 */\n      0x01\n        /* \"Project-3/Starter code/blackjack.sol\":7642:7643  i */\n      dup3\n        /* \"Project-3/Starter code/blackjack.sol\":7642:7647  i + 1 */\n      tag_1165\n      swap2\n      swap1\n      tag_165\n      jump\t// in\n    tag_1165:\n        /* \"Project-3/Starter code/blackjack.sol\":7638:7647  i = i + 1 */\n      swap2\n      pop\n        /* \"Project-3/Starter code/blackjack.sol\":7497:7658  while (i < 16) {... */\n      jump(tag_1157)\n    tag_1158:\n        /* \"Project-3/Starter code/blackjack.sol\":7675:7680  count */\n      dup1\n        /* \"Project-3/Starter code/blackjack.sol\":7668:7680  return count */\n      swap3\n      pop\n      pop\n      pop\n        /* \"Project-3/Starter code/blackjack.sol\":7350:7696  function numCardsInArray (uint[2][16] memory array) internal pure returns(uint) {... */\n      swap2\n      swap1\n      pop\n      jump\t// out\n        /* \"Project-3/Starter code/blackjack.sol\":2227:2545  function getRandom() internal returns(uint) {... */\n    tag_440:\n        /* \"Project-3/Starter code/blackjack.sol\":2265:2269  uint */\n      0x00\n        /* \"Project-3/Starter code/blackjack.sol\":2307:2312  nonce */\n      0x60\n      0x00\n        /* \"Project-3/Starter code/blackjack.sol\":2307:2314  nonce++ */\n      dup2\n      sload\n      dup1\n      swap3\n      swap2\n      swap1\n      tag_1167\n      swap1\n      tag_235\n      jump\t// in\n    tag_1167:\n      swap2\n      swap1\n      pop\n      sstore\n      pop\n        /* \"Project-3/Starter code/blackjack.sol\":2419:2495  1157920892373161954235709850086879078532699846656405640394575840079131296399 */\n      0x028f5c28f5c28f5c28f5c28f5c28f5c28f5c28f5c28f5c28f5c28f5c28f5c28f\n        /* \"Project-3/Starter code/blackjack.sol\":2391:2392  3 */\n      0x03\n        /* \"Project-3/Starter code/blackjack.sol\":2385:2390  nonce */\n      sload(0x60)\n        /* \"Project-3/Starter code/blackjack.sol\":2385:2392  nonce*3 */\n      tag_1168\n      swap2\n      swap1\n      tag_1169\n      jump\t// in\n    tag_1168:\n        /* \"Project-3/Starter code/blackjack.sol\":2371:2383  block.number */\n      number\n        /* \"Project-3/Starter code/blackjack.sol\":2371:2393  block.number+(nonce*3) */\n      tag_1170\n      swap2\n      swap1\n      tag_165\n      jump\t// in\n    tag_1170:\n        /* \"Project-3/Starter code/blackjack.sol\":2396:2406  msg.sender */\n      caller\n        /* \"Project-3/Starter code/blackjack.sol\":2408:2413  nonce */\n      sload(0x60)\n        /* \"Project-3/Starter code/blackjack.sol\":2353:2414  abi.encodePacked((block.number+(nonce*3)), msg.sender, nonce) */\n      add(0x20, mload(0x40))\n      tag_1171\n      swap4\n      swap3\n      swap2\n      swap1\n      tag_1172\n      jump\t// in\n    tag_1171:\n      mload(0x40)\n      0x20\n      dup2\n      dup4\n      sub\n      sub\n      dup2\n      mstore\n      swap1\n      0x40\n      mstore\n        /* \"Project-3/Starter code/blackjack.sol\":2343:2415  keccak256(abi.encodePacked((block.number+(nonce*3)), msg.sender, nonce)) */\n      dup1\n      mload\n      swap1\n      0x20\n      add\n      keccak256\n        /* \"Project-3/Starter code/blackjack.sol\":2338:2416  uint(keccak256(abi.encodePacked((block.number+(nonce*3)), msg.sender, nonce))) */\n      0x00\n      shr\n        /* \"Project-3/Starter code/blackjack.sol\":2338:2495  uint(keccak256(abi.encodePacked((block.number+(nonce*3)), msg.sender, nonce))) % 1157920892373161954235709850086879078532699846656405640394575840079131296399 */\n      tag_1173\n      swap2\n      swap1\n      tag_1174\n      jump\t// in\n    tag_1173:\n        /* \"Project-3/Starter code/blackjack.sol\":2325:2334  randomNum */\n      0x05\n        /* \"Project-3/Starter code/blackjack.sol\":2325:2495  randomNum =  uint(keccak256(abi.encodePacked((block.number+(nonce*3)), msg.sender, nonce))) % 1157920892373161954235709850086879078532699846656405640394575840079131296399 */\n      dup2\n      swap1\n      sstore\n      pop\n        /* \"Project-3/Starter code/blackjack.sol\":2505:2510  nonce */\n      0x60\n      0x00\n        /* \"Project-3/Starter code/blackjack.sol\":2505:2512  nonce++ */\n      dup2\n      sload\n      dup1\n      swap3\n      swap2\n      swap1\n      tag_1175\n      swap1\n      tag_235\n      jump\t// in\n    tag_1175:\n      swap2\n      swap1\n      pop\n      sstore\n      pop\n        /* \"Project-3/Starter code/blackjack.sol\":2529:2538  randomNum */\n      sload(0x05)\n        /* \"Project-3/Starter code/blackjack.sol\":2522:2538  return randomNum */\n      swap1\n      pop\n        /* \"Project-3/Starter code/blackjack.sol\":2227:2545  function getRandom() internal returns(uint) {... */\n      swap1\n      jump\t// out\n        /* \"@openzeppelin/contracts/utils/Strings.sol\":415:1111  function toString(uint256 value) internal pure returns (string memory) {... */\n    tag_442:\n        /* \"@openzeppelin/contracts/utils/Strings.sol\":471:484  string memory */\n      0x60\n        /* \"@openzeppelin/contracts/utils/Strings.sol\":520:534  uint256 length */\n      0x00\n        /* \"@openzeppelin/contracts/utils/Strings.sol\":557:558  1 */\n      0x01\n        /* \"@openzeppelin/contracts/utils/Strings.sol\":537:554  Math.log10(value) */\n      tag_1177\n        /* \"@openzeppelin/contracts/utils/Strings.sol\":548:553  value */\n      dup5\n        /* \"@openzeppelin/contracts/utils/Strings.sol\":537:547  Math.log10 */\n      tag_1178\n        /* \"@openzeppelin/contracts/utils/Strings.sol\":537:554  Math.log10(value) */\n      jump\t// in\n    tag_1177:\n        /* \"@openzeppelin/contracts/utils/Strings.sol\":537:558  Math.log10(value) + 1 */\n      add\n        /* \"@openzeppelin/contracts/utils/Strings.sol\":520:558  uint256 length = Math.log10(value) + 1 */\n      swap1\n      pop\n        /* \"@openzeppelin/contracts/utils/Strings.sol\":572:592  string memory buffer */\n      0x00\n        /* \"@openzeppelin/contracts/utils/Strings.sol\":606:612  length */\n      dup2\n        /* \"@openzeppelin/contracts/utils/Strings.sol\":595:613  new string(length) */\n      0xffffffffffffffff\n      dup2\n      gt\n      iszero\n      tag_1179\n      jumpi\n      tag_1180\n      tag_1181\n      jump\t// in\n    tag_1180:\n    tag_1179:\n      mload(0x40)\n      swap1\n      dup1\n      dup3\n      mstore\n      dup1\n      0x1f\n      add\n      not(0x1f)\n      and\n      0x20\n      add\n      dup3\n      add\n      0x40\n      mstore\n      dup1\n      iszero\n      tag_1182\n      jumpi\n      dup2\n      0x20\n      add\n      0x01\n      dup3\n      mul\n      dup1\n      calldatasize\n      dup4\n      calldatacopy\n      dup1\n      dup3\n      add\n      swap2\n      pop\n      pop\n      swap1\n      pop\n    tag_1182:\n      pop\n        /* \"@openzeppelin/contracts/utils/Strings.sol\":572:613  string memory buffer = new string(length) */\n      swap1\n      pop\n        /* \"@openzeppelin/contracts/utils/Strings.sol\":627:638  uint256 ptr */\n      0x00\n        /* \"@openzeppelin/contracts/utils/Strings.sol\":753:759  length */\n      dup3\n        /* \"@openzeppelin/contracts/utils/Strings.sol\":749:751  32 */\n      0x20\n        /* \"@openzeppelin/contracts/utils/Strings.sol\":745:760  add(32, length) */\n      add\n        /* \"@openzeppelin/contracts/utils/Strings.sol\":737:743  buffer */\n      dup3\n        /* \"@openzeppelin/contracts/utils/Strings.sol\":733:761  add(buffer, add(32, length)) */\n      add\n        /* \"@openzeppelin/contracts/utils/Strings.sol\":726:761  ptr := add(buffer, add(32, length)) */\n      swap1\n      pop\n        /* \"@openzeppelin/contracts/utils/Strings.sol\":788:1068  while (true) {... */\n    tag_1183:\n        /* \"@openzeppelin/contracts/utils/Strings.sol\":795:799  true */\n      0x01\n        /* \"@openzeppelin/contracts/utils/Strings.sol\":788:1068  while (true) {... */\n      iszero\n      tag_1184\n      jumpi\n        /* \"@openzeppelin/contracts/utils/Strings.sol\":819:824  ptr-- */\n      dup1\n      dup1\n      0x01\n      swap1\n      sub\n      swap2\n      pop\n      pop\n        /* \"@openzeppelin/contracts/utils/Strings.sol\":958:966  _SYMBOLS */\n      0x3031323334353637383961626364656600000000000000000000000000000000\n        /* \"@openzeppelin/contracts/utils/Strings.sol\":953:955  10 */\n      0x0a\n        /* \"@openzeppelin/contracts/utils/Strings.sol\":946:951  value */\n      dup7\n        /* \"@openzeppelin/contracts/utils/Strings.sol\":942:956  mod(value, 10) */\n      mod\n        /* \"@openzeppelin/contracts/utils/Strings.sol\":937:967  byte(mod(value, 10), _SYMBOLS) */\n      byte\n        /* \"@openzeppelin/contracts/utils/Strings.sol\":932:935  ptr */\n      dup2\n        /* \"@openzeppelin/contracts/utils/Strings.sol\":924:968  mstore8(ptr, byte(mod(value, 10), _SYMBOLS)) */\n      mstore8\n        /* \"@openzeppelin/contracts/utils/Strings.sol\":1012:1014  10 */\n      0x0a\n        /* \"@openzeppelin/contracts/utils/Strings.sol\":1003:1014  value /= 10 */\n      dup6\n      dup2\n      tag_1185\n      jumpi\n      tag_1186\n      tag_1187\n      jump\t// in\n    tag_1186:\n    tag_1185:\n      div\n      swap5\n      pop\n        /* \"@openzeppelin/contracts/utils/Strings.sol\":1045:1046  0 */\n      0x00\n        /* \"@openzeppelin/contracts/utils/Strings.sol\":1036:1041  value */\n      dup6\n        /* \"@openzeppelin/contracts/utils/Strings.sol\":1036:1046  value == 0 */\n      sub\n        /* \"@openzeppelin/contracts/utils/Strings.sol\":788:1068  while (true) {... */\n      tag_1183\n        /* \"@openzeppelin/contracts/utils/Strings.sol\":1032:1053  if (value == 0) break */\n      jumpi\n        /* \"@openzeppelin/contracts/utils/Strings.sol\":788:1068  while (true) {... */\n    tag_1184:\n        /* \"@openzeppelin/contracts/utils/Strings.sol\":1088:1094  buffer */\n      dup2\n        /* \"@openzeppelin/contracts/utils/Strings.sol\":1081:1094  return buffer */\n      swap4\n      pop\n      pop\n      pop\n      pop\n        /* \"@openzeppelin/contracts/utils/Strings.sol\":415:1111  function toString(uint256 value) internal pure returns (string memory) {... */\n      swap2\n      swap1\n      pop\n      jump\t// out\n        /* \"Project-3/Starter code/blackjack.sol\":1272:1555  function getSlice(uint256 begin, uint256 end, string memory text) internal pure returns (string memory) {... */\n    tag_444:\n        /* \"Project-3/Starter code/blackjack.sol\":1361:1374  string memory */\n      0x60\n        /* \"Project-3/Starter code/blackjack.sol\":1386:1400  bytes memory a */\n      0x00\n        /* \"Project-3/Starter code/blackjack.sol\":1423:1424  1 */\n      0x01\n        /* \"Project-3/Starter code/blackjack.sol\":1417:1422  begin */\n      dup6\n        /* \"Project-3/Starter code/blackjack.sol\":1413:1416  end */\n      dup6\n        /* \"Project-3/Starter code/blackjack.sol\":1413:1422  end-begin */\n      tag_1190\n      swap2\n      swap1\n      tag_141\n      jump\t// in\n    tag_1190:\n        /* \"Project-3/Starter code/blackjack.sol\":1413:1424  end-begin+1 */\n      tag_1191\n      swap2\n      swap1\n      tag_165\n      jump\t// in\n    tag_1191:\n        /* \"Project-3/Starter code/blackjack.sol\":1403:1425  new bytes(end-begin+1) */\n      0xffffffffffffffff\n      dup2\n      gt\n      iszero\n      tag_1192\n      jumpi\n      tag_1193\n      tag_1181\n      jump\t// in\n    tag_1193:\n    tag_1192:\n      mload(0x40)\n      swap1\n      dup1\n      dup3\n      mstore\n      dup1\n      0x1f\n      add\n      not(0x1f)\n      and\n      0x20\n      add\n      dup3\n      add\n      0x40\n      mstore\n      dup1\n      iszero\n      tag_1194\n      jumpi\n      dup2\n      0x20\n      add\n      0x01\n      dup3\n      mul\n      dup1\n      calldatasize\n      dup4\n      calldatacopy\n      dup1\n      dup3\n      add\n      swap2\n      pop\n      pop\n      swap1\n      pop\n    tag_1194:\n      pop\n        /* \"Project-3/Starter code/blackjack.sol\":1386:1425  bytes memory a = new bytes(end-begin+1) */\n      swap1\n      pop\n        /* \"Project-3/Starter code/blackjack.sol\":1439:1445  uint i */\n      0x00\n        /* \"Project-3/Starter code/blackjack.sol\":1435:1519  for(uint i=0;i<=end-begin;i++){... */\n    tag_1195:\n        /* \"Project-3/Starter code/blackjack.sol\":1455:1460  begin */\n      dup6\n        /* \"Project-3/Starter code/blackjack.sol\":1451:1454  end */\n      dup6\n        /* \"Project-3/Starter code/blackjack.sol\":1451:1460  end-begin */\n      tag_1198\n      swap2\n      swap1\n      tag_141\n      jump\t// in\n    tag_1198:\n        /* \"Project-3/Starter code/blackjack.sol\":1448:1449  i */\n      dup2\n        /* \"Project-3/Starter code/blackjack.sol\":1448:1460  i<=end-begin */\n      gt\n        /* \"Project-3/Starter code/blackjack.sol\":1435:1519  for(uint i=0;i<=end-begin;i++){... */\n      tag_1196\n      jumpi\n        /* \"Project-3/Starter code/blackjack.sol\":1492:1496  text */\n      dup4\n        /* \"Project-3/Starter code/blackjack.sol\":1506:1507  1 */\n      0x01\n        /* \"Project-3/Starter code/blackjack.sol\":1500:1505  begin */\n      dup8\n        /* \"Project-3/Starter code/blackjack.sol\":1498:1499  i */\n      dup4\n        /* \"Project-3/Starter code/blackjack.sol\":1498:1505  i+begin */\n      tag_1199\n      swap2\n      swap1\n      tag_165\n      jump\t// in\n    tag_1199:\n        /* \"Project-3/Starter code/blackjack.sol\":1498:1507  i+begin-1 */\n      tag_1200\n      swap2\n      swap1\n      tag_141\n      jump\t// in\n    tag_1200:\n        /* \"Project-3/Starter code/blackjack.sol\":1486:1508  bytes(text)[i+begin-1] */\n      dup2\n      mload\n      dup2\n      lt\n      tag_1201\n      jumpi\n      tag_1202\n      tag_183\n      jump\t// in\n    tag_1202:\n    tag_1201:\n      0x20\n      add\n      add\n      mload\n      0xf8\n      shr\n      0xf8\n      shl\n        /* \"Project-3/Starter code/blackjack.sol\":1479:1480  a */\n      dup3\n        /* \"Project-3/Starter code/blackjack.sol\":1481:1482  i */\n      dup3\n        /* \"Project-3/Starter code/blackjack.sol\":1479:1483  a[i] */\n      dup2\n      mload\n      dup2\n      lt\n      tag_1203\n      jumpi\n      tag_1204\n      tag_183\n      jump\t// in\n    tag_1204:\n    tag_1203:\n      0x20\n      add\n      add\n        /* \"Project-3/Starter code/blackjack.sol\":1479:1508  a[i] = bytes(text)[i+begin-1] */\n      swap1\n      not(0xffffffffffffffffffffffffffffffffffffffffffffffffffffffffffffff)\n      and\n      swap1\n      dup2\n      0x00\n      byte\n      swap1\n      mstore8\n      pop\n        /* \"Project-3/Starter code/blackjack.sol\":1461:1464  i++ */\n      dup1\n      dup1\n      tag_1205\n      swap1\n      tag_235\n      jump\t// in\n    tag_1205:\n      swap2\n      pop\n      pop\n        /* \"Project-3/Starter code/blackjack.sol\":1435:1519  for(uint i=0;i<=end-begin;i++){... */\n      jump(tag_1195)\n    tag_1196:\n      pop\n        /* \"Project-3/Starter code/blackjack.sol\":1542:1543  a */\n      dup1\n        /* \"Project-3/Starter code/blackjack.sol\":1528:1544  return string(a) */\n      swap2\n      pop\n      pop\n        /* \"Project-3/Starter code/blackjack.sol\":1272:1555  function getSlice(uint256 begin, uint256 end, string memory text) internal pure returns (string memory) {... */\n      swap4\n      swap3\n      pop\n      pop\n      pop\n      jump\t// out\n        /* \"Project-3/Starter code/blackjack.sol\":1566:1930  function stringToUint(string memory s) internal pure returns (uint) {... */\n    tag_446:\n        /* \"Project-3/Starter code/blackjack.sol\":1628:1632  uint */\n      0x00\n        /* \"Project-3/Starter code/blackjack.sol\":1644:1658  bytes memory b */\n      dup1\n        /* \"Project-3/Starter code/blackjack.sol\":1667:1668  s */\n      dup3\n        /* \"Project-3/Starter code/blackjack.sol\":1644:1669  bytes memory b = bytes(s) */\n      swap1\n      pop\n        /* \"Project-3/Starter code/blackjack.sol\":1679:1690  uint result */\n      0x00\n        /* \"Project-3/Starter code/blackjack.sol\":1709:1718  uint256 i */\n      dup1\n        /* \"Project-3/Starter code/blackjack.sol\":1704:1901  for (uint256 i = 0; i < b.length; i++) {... */\n    tag_1207:\n        /* \"Project-3/Starter code/blackjack.sol\":1728:1729  b */\n      dup3\n        /* \"Project-3/Starter code/blackjack.sol\":1728:1736  b.length */\n      mload\n        /* \"Project-3/Starter code/blackjack.sol\":1724:1725  i */\n      dup2\n        /* \"Project-3/Starter code/blackjack.sol\":1724:1736  i < b.length */\n      lt\n        /* \"Project-3/Starter code/blackjack.sol\":1704:1901  for (uint256 i = 0; i < b.length; i++) {... */\n      iszero\n      tag_1208\n      jumpi\n        /* \"Project-3/Starter code/blackjack.sol\":1757:1766  uint256 c */\n      0x00\n        /* \"Project-3/Starter code/blackjack.sol\":1783:1784  b */\n      dup4\n        /* \"Project-3/Starter code/blackjack.sol\":1785:1786  i */\n      dup3\n        /* \"Project-3/Starter code/blackjack.sol\":1783:1787  b[i] */\n      dup2\n      mload\n      dup2\n      lt\n      tag_1210\n      jumpi\n      tag_1211\n      tag_183\n      jump\t// in\n    tag_1211:\n    tag_1210:\n      0x20\n      add\n      add\n      mload\n      0xf8\n      shr\n      0xf8\n      shl\n        /* \"Project-3/Starter code/blackjack.sol\":1777:1788  uint8(b[i]) */\n      0xf8\n      shr\n        /* \"Project-3/Starter code/blackjack.sol\":1769:1789  uint256(uint8(b[i])) */\n      0xff\n      and\n        /* \"Project-3/Starter code/blackjack.sol\":1757:1789  uint256 c = uint256(uint8(b[i])) */\n      swap1\n      pop\n        /* \"Project-3/Starter code/blackjack.sol\":1812:1814  48 */\n      0x30\n        /* \"Project-3/Starter code/blackjack.sol\":1807:1808  c */\n      dup2\n        /* \"Project-3/Starter code/blackjack.sol\":1807:1814  c >= 48 */\n      lt\n      iszero\n        /* \"Project-3/Starter code/blackjack.sol\":1807:1825  c >= 48 && c <= 57 */\n      dup1\n      iszero\n      tag_1212\n      jumpi\n      pop\n        /* \"Project-3/Starter code/blackjack.sol\":1823:1825  57 */\n      0x39\n        /* \"Project-3/Starter code/blackjack.sol\":1818:1819  c */\n      dup2\n        /* \"Project-3/Starter code/blackjack.sol\":1818:1825  c <= 57 */\n      gt\n      iszero\n        /* \"Project-3/Starter code/blackjack.sol\":1807:1825  c >= 48 && c <= 57 */\n    tag_1212:\n        /* \"Project-3/Starter code/blackjack.sol\":1803:1891  if (c >= 48 && c <= 57) {... */\n      iszero\n      tag_1213\n      jumpi\n        /* \"Project-3/Starter code/blackjack.sol\":1873:1875  48 */\n      0x30\n        /* \"Project-3/Starter code/blackjack.sol\":1869:1870  c */\n      dup2\n        /* \"Project-3/Starter code/blackjack.sol\":1869:1875  c - 48 */\n      tag_1214\n      swap2\n      swap1\n      tag_141\n      jump\t// in\n    tag_1214:\n        /* \"Project-3/Starter code/blackjack.sol\":1863:1865  10 */\n      0x0a\n        /* \"Project-3/Starter code/blackjack.sol\":1854:1860  result */\n      dup5\n        /* \"Project-3/Starter code/blackjack.sol\":1854:1865  result * 10 */\n      tag_1215\n      swap2\n      swap1\n      tag_1169\n      jump\t// in\n    tag_1215:\n        /* \"Project-3/Starter code/blackjack.sol\":1854:1876  result * 10 + (c - 48) */\n      tag_1216\n      swap2\n      swap1\n      tag_165\n      jump\t// in\n    tag_1216:\n        /* \"Project-3/Starter code/blackjack.sol\":1845:1876  result = result * 10 + (c - 48) */\n      swap3\n      pop\n        /* \"Project-3/Starter code/blackjack.sol\":1803:1891  if (c >= 48 && c <= 57) {... */\n    tag_1213:\n        /* \"Project-3/Starter code/blackjack.sol\":1743:1901  {... */\n      pop\n        /* \"Project-3/Starter code/blackjack.sol\":1738:1741  i++ */\n      dup1\n      dup1\n      tag_1217\n      swap1\n      tag_235\n      jump\t// in\n    tag_1217:\n      swap2\n      pop\n      pop\n        /* \"Project-3/Starter code/blackjack.sol\":1704:1901  for (uint256 i = 0; i < b.length; i++) {... */\n      jump(tag_1207)\n    tag_1208:\n      pop\n        /* \"Project-3/Starter code/blackjack.sol\":1917:1923  result */\n      dup1\n        /* \"Project-3/Starter code/blackjack.sol\":1910:1923  return result */\n      swap3\n      pop\n      pop\n      pop\n        /* \"Project-3/Starter code/blackjack.sol\":1566:1930  function stringToUint(string memory s) internal pure returns (uint) {... */\n      swap2\n      swap1\n      pop\n      jump\t// out\n        /* \"Project-3/Starter code/blackjack.sol\":17688:17757  function gameIsPushed() internal {... */\n    tag_1155:\n        /* \"Project-3/Starter code/blackjack.sol\":17749:17750  0 */\n      0x00\n        /* \"Project-3/Starter code/blackjack.sol\":17732:17746  gameInProgress */\n      0x01\n        /* \"Project-3/Starter code/blackjack.sol\":17732:17750  gameInProgress = 0 */\n      dup2\n      swap1\n      sstore\n      pop\n        /* \"Project-3/Starter code/blackjack.sol\":17688:17757  function gameIsPushed() internal {... */\n      jump\t// out\n        /* \"@openzeppelin/contracts/utils/math/Math.sol\":9889:10779  function log10(uint256 value) internal pure returns (uint256) {... */\n    tag_1178:\n        /* \"@openzeppelin/contracts/utils/math/Math.sol\":9942:9949  uint256 */\n      0x00\n        /* \"@openzeppelin/contracts/utils/math/Math.sol\":9961:9975  uint256 result */\n      dup1\n        /* \"@openzeppelin/contracts/utils/math/Math.sol\":9978:9979  0 */\n      0x00\n        /* \"@openzeppelin/contracts/utils/math/Math.sol\":9961:9979  uint256 result = 0 */\n      swap1\n      pop\n        /* \"@openzeppelin/contracts/utils/math/Math.sol\":10026:10032  10**64 */\n      0x184f03e93ff9f4daa797ed6e38ed64bf6a1f010000000000000000\n        /* \"@openzeppelin/contracts/utils/math/Math.sol\":10017:10022  value */\n      dup4\n        /* \"@openzeppelin/contracts/utils/math/Math.sol\":10017:10032  value >= 10**64 */\n      lt\n        /* \"@openzeppelin/contracts/utils/math/Math.sol\":10013:10112  if (value >= 10**64) {... */\n      tag_1220\n      jumpi\n        /* \"@openzeppelin/contracts/utils/math/Math.sol\":10061:10067  10**64 */\n      0x184f03e93ff9f4daa797ed6e38ed64bf6a1f010000000000000000\n        /* \"@openzeppelin/contracts/utils/math/Math.sol\":10052:10067  value /= 10**64 */\n      dup4\n      dup2\n      tag_1221\n      jumpi\n      tag_1222\n      tag_1187\n      jump\t// in\n    tag_1222:\n    tag_1221:\n      div\n      swap3\n      pop\n        /* \"@openzeppelin/contracts/utils/math/Math.sol\":10095:10097  64 */\n      0x40\n        /* \"@openzeppelin/contracts/utils/math/Math.sol\":10085:10097  result += 64 */\n      dup2\n      add\n      swap1\n      pop\n        /* \"@openzeppelin/contracts/utils/math/Math.sol\":10013:10112  if (value >= 10**64) {... */\n    tag_1220:\n        /* \"@openzeppelin/contracts/utils/math/Math.sol\":10138:10144  10**32 */\n      0x04ee2d6d415b85acef8100000000\n        /* \"@openzeppelin/contracts/utils/math/Math.sol\":10129:10134  value */\n      dup4\n        /* \"@openzeppelin/contracts/utils/math/Math.sol\":10129:10144  value >= 10**32 */\n      lt\n        /* \"@openzeppelin/contracts/utils/math/Math.sol\":10125:10224  if (value >= 10**32) {... */\n      tag_1223\n      jumpi\n        /* \"@openzeppelin/contracts/utils/math/Math.sol\":10173:10179  10**32 */\n      0x04ee2d6d415b85acef8100000000\n        /* \"@openzeppelin/contracts/utils/math/Math.sol\":10164:10179  value /= 10**32 */\n      dup4\n      dup2\n      tag_1224\n      jumpi\n      tag_1225\n      tag_1187\n      jump\t// in\n    tag_1225:\n    tag_1224:\n      div\n      swap3\n      pop\n        /* \"@openzeppelin/contracts/utils/math/Math.sol\":10207:10209  32 */\n      0x20\n        /* \"@openzeppelin/contracts/utils/math/Math.sol\":10197:10209  result += 32 */\n      dup2\n      add\n      swap1\n      pop\n        /* \"@openzeppelin/contracts/utils/math/Math.sol\":10125:10224  if (value >= 10**32) {... */\n    tag_1223:\n        /* \"@openzeppelin/contracts/utils/math/Math.sol\":10250:10256  10**16 */\n      0x2386f26fc10000\n        /* \"@openzeppelin/contracts/utils/math/Math.sol\":10241:10246  value */\n      dup4\n        /* \"@openzeppelin/contracts/utils/math/Math.sol\":10241:10256  value >= 10**16 */\n      lt\n        /* \"@openzeppelin/contracts/utils/math/Math.sol\":10237:10336  if (value >= 10**16) {... */\n      tag_1226\n      jumpi\n        /* \"@openzeppelin/contracts/utils/math/Math.sol\":10285:10291  10**16 */\n      0x2386f26fc10000\n        /* \"@openzeppelin/contracts/utils/math/Math.sol\":10276:10291  value /= 10**16 */\n      dup4\n      dup2\n      tag_1227\n      jumpi\n      tag_1228\n      tag_1187\n      jump\t// in\n    tag_1228:\n    tag_1227:\n      div\n      swap3\n      pop\n        /* \"@openzeppelin/contracts/utils/math/Math.sol\":10319:10321  16 */\n      0x10\n        /* \"@openzeppelin/contracts/utils/math/Math.sol\":10309:10321  result += 16 */\n      dup2\n      add\n      swap1\n      pop\n        /* \"@openzeppelin/contracts/utils/math/Math.sol\":10237:10336  if (value >= 10**16) {... */\n    tag_1226:\n        /* \"@openzeppelin/contracts/utils/math/Math.sol\":10362:10367  10**8 */\n      0x05f5e100\n        /* \"@openzeppelin/contracts/utils/math/Math.sol\":10353:10358  value */\n      dup4\n        /* \"@openzeppelin/contracts/utils/math/Math.sol\":10353:10367  value >= 10**8 */\n      lt\n        /* \"@openzeppelin/contracts/utils/math/Math.sol\":10349:10445  if (value >= 10**8) {... */\n      tag_1229\n      jumpi\n        /* \"@openzeppelin/contracts/utils/math/Math.sol\":10396:10401  10**8 */\n      0x05f5e100\n        /* \"@openzeppelin/contracts/utils/math/Math.sol\":10387:10401  value /= 10**8 */\n      dup4\n      dup2\n      tag_1230\n      jumpi\n      tag_1231\n      tag_1187\n      jump\t// in\n    tag_1231:\n    tag_1230:\n      div\n      swap3\n      pop\n        /* \"@openzeppelin/contracts/utils/math/Math.sol\":10429:10430  8 */\n      0x08\n        /* \"@openzeppelin/contracts/utils/math/Math.sol\":10419:10430  result += 8 */\n      dup2\n      add\n      swap1\n      pop\n        /* \"@openzeppelin/contracts/utils/math/Math.sol\":10349:10445  if (value >= 10**8) {... */\n    tag_1229:\n        /* \"@openzeppelin/contracts/utils/math/Math.sol\":10471:10476  10**4 */\n      0x2710\n        /* \"@openzeppelin/contracts/utils/math/Math.sol\":10462:10467  value */\n      dup4\n        /* \"@openzeppelin/contracts/utils/math/Math.sol\":10462:10476  value >= 10**4 */\n      lt\n        /* \"@openzeppelin/contracts/utils/math/Math.sol\":10458:10554  if (value >= 10**4) {... */\n      tag_1232\n      jumpi\n        /* \"@openzeppelin/contracts/utils/math/Math.sol\":10505:10510  10**4 */\n      0x2710\n        /* \"@openzeppelin/contracts/utils/math/Math.sol\":10496:10510  value /= 10**4 */\n      dup4\n      dup2\n      tag_1233\n      jumpi\n      tag_1234\n      tag_1187\n      jump\t// in\n    tag_1234:\n    tag_1233:\n      div\n      swap3\n      pop\n        /* \"@openzeppelin/contracts/utils/math/Math.sol\":10538:10539  4 */\n      0x04\n        /* \"@openzeppelin/contracts/utils/math/Math.sol\":10528:10539  result += 4 */\n      dup2\n      add\n      swap1\n      pop\n        /* \"@openzeppelin/contracts/utils/math/Math.sol\":10458:10554  if (value >= 10**4) {... */\n    tag_1232:\n        /* \"@openzeppelin/contracts/utils/math/Math.sol\":10580:10585  10**2 */\n      0x64\n        /* \"@openzeppelin/contracts/utils/math/Math.sol\":10571:10576  value */\n      dup4\n        /* \"@openzeppelin/contracts/utils/math/Math.sol\":10571:10585  value >= 10**2 */\n      lt\n        /* \"@openzeppelin/contracts/utils/math/Math.sol\":10567:10663  if (value >= 10**2) {... */\n      tag_1235\n      jumpi\n        /* \"@openzeppelin/contracts/utils/math/Math.sol\":10614:10619  10**2 */\n      0x64\n        /* \"@openzeppelin/contracts/utils/math/Math.sol\":10605:10619  value /= 10**2 */\n      dup4\n      dup2\n      tag_1236\n      jumpi\n      tag_1237\n      tag_1187\n      jump\t// in\n    tag_1237:\n    tag_1236:\n      div\n      swap3\n      pop\n        /* \"@openzeppelin/contracts/utils/math/Math.sol\":10647:10648  2 */\n      0x02\n        /* \"@openzeppelin/contracts/utils/math/Math.sol\":10637:10648  result += 2 */\n      dup2\n      add\n      swap1\n      pop\n        /* \"@openzeppelin/contracts/utils/math/Math.sol\":10567:10663  if (value >= 10**2) {... */\n    tag_1235:\n        /* \"@openzeppelin/contracts/utils/math/Math.sol\":10689:10694  10**1 */\n      0x0a\n        /* \"@openzeppelin/contracts/utils/math/Math.sol\":10680:10685  value */\n      dup4\n        /* \"@openzeppelin/contracts/utils/math/Math.sol\":10680:10694  value >= 10**1 */\n      lt\n        /* \"@openzeppelin/contracts/utils/math/Math.sol\":10676:10740  if (value >= 10**1) {... */\n      tag_1238\n      jumpi\n        /* \"@openzeppelin/contracts/utils/math/Math.sol\":10724:10725  1 */\n      0x01\n        /* \"@openzeppelin/contracts/utils/math/Math.sol\":10714:10725  result += 1 */\n      dup2\n      add\n      swap1\n      pop\n        /* \"@openzeppelin/contracts/utils/math/Math.sol\":10676:10740  if (value >= 10**1) {... */\n    tag_1238:\n        /* \"@openzeppelin/contracts/utils/math/Math.sol\":10766:10772  result */\n      dup1\n        /* \"@openzeppelin/contracts/utils/math/Math.sol\":10759:10772  return result */\n      swap2\n      pop\n      pop\n        /* \"@openzeppelin/contracts/utils/math/Math.sol\":9889:10779  function log10(uint256 value) internal pure returns (uint256) {... */\n      swap2\n      swap1\n      pop\n      jump\t// out\n    tag_246:\n      dup3\n      mul(0x02, 0x04)\n      dup2\n      add\n      swap3\n      dup3\n      iszero\n      tag_1239\n      jumpi\n      swap2\n      0x20\n      mul\n      dup3\n      add\n    tag_1240:\n      dup3\n      dup2\n      gt\n      iszero\n      tag_1241\n      jumpi\n      dup3\n      mload\n      dup3\n      swap1\n      0x02\n      tag_1242\n      swap3\n      swap2\n      swap1\n      tag_1243\n      jump\t// in\n    tag_1242:\n      pop\n      swap2\n      0x20\n      add\n      swap2\n      swap1\n      0x02\n      add\n      swap1\n      jump(tag_1240)\n    tag_1241:\n    tag_1239:\n      pop\n      swap1\n      pop\n      tag_1244\n      swap2\n      swap1\n      tag_1245\n      jump\t// in\n    tag_1244:\n      pop\n      swap1\n      jump\t// out\n    tag_494:\n      mload(0x40)\n      dup1\n      0x80\n      add\n      0x40\n      mstore\n      dup1\n      0x04\n      swap1\n    tag_1246:\n      tag_1247\n      tag_1248\n      jump\t// in\n    tag_1247:\n      dup2\n      mstore\n      0x20\n      add\n      swap1\n      0x01\n      swap1\n      sub\n      swap1\n      dup2\n      tag_1246\n      jumpi\n      swap1\n      pop\n      pop\n      swap1\n      jump\t// out\n    tag_1243:\n      dup3\n      0x02\n      dup2\n      add\n      swap3\n      dup3\n      iszero\n      tag_1249\n      jumpi\n      swap2\n      0x20\n      mul\n      dup3\n      add\n    tag_1250:\n      dup3\n      dup2\n      gt\n      iszero\n      tag_1251\n      jumpi\n      dup3\n      mload\n      dup3\n      sstore\n      swap2\n      0x20\n      add\n      swap2\n      swap1\n      0x01\n      add\n      swap1\n      jump(tag_1250)\n    tag_1251:\n    tag_1249:\n      pop\n      swap1\n      pop\n      tag_1252\n      swap2\n      swap1\n      tag_1253\n      jump\t// in\n    tag_1252:\n      pop\n      swap1\n      jump\t// out\n    tag_1245:\n    tag_1254:\n      dup1\n      dup3\n      gt\n      iszero\n      tag_1255\n      jumpi\n      0x00\n      dup2\n      dup2\n      tag_1256\n      swap2\n      swap1\n      tag_1257\n      jump\t// in\n    tag_1256:\n      pop\n      0x02\n      add\n      jump(tag_1254)\n    tag_1255:\n      pop\n      swap1\n      jump\t// out\n    tag_1248:\n      mload(0x40)\n      dup1\n      0x40\n      add\n      0x40\n      mstore\n      dup1\n      0x02\n      swap1\n      0x20\n      dup3\n      mul\n      dup1\n      calldatasize\n      dup4\n      calldatacopy\n      dup1\n      dup3\n      add\n      swap2\n      pop\n      pop\n      swap1\n      pop\n      pop\n      swap1\n      jump\t// out\n    tag_1253:\n    tag_1258:\n      dup1\n      dup3\n      gt\n      iszero\n      tag_1259\n      jumpi\n      0x00\n      dup2\n      0x00\n      swap1\n      sstore\n      pop\n      0x01\n      add\n      jump(tag_1258)\n    tag_1259:\n      pop\n      swap1\n      jump\t// out\n    tag_1257:\n      pop\n      0x00\n      dup2\n      sstore\n      0x01\n      add\n      0x00\n      swap1\n      sstore\n      jump\t// out\n        /* \"#utility.yul\":88:205   */\n    tag_1261:\n        /* \"#utility.yul\":197:198   */\n      0x00\n        /* \"#utility.yul\":194:195   */\n      dup1\n        /* \"#utility.yul\":187:199   */\n      revert\n        /* \"#utility.yul\":334:411   */\n    tag_1263:\n        /* \"#utility.yul\":371:378   */\n      0x00\n        /* \"#utility.yul\":400:405   */\n      dup2\n        /* \"#utility.yul\":389:405   */\n      swap1\n      pop\n        /* \"#utility.yul\":334:411   */\n      swap2\n      swap1\n      pop\n      jump\t// out\n        /* \"#utility.yul\":417:539   */\n    tag_1264:\n        /* \"#utility.yul\":490:514   */\n      tag_1309\n        /* \"#utility.yul\":508:513   */\n      dup2\n        /* \"#utility.yul\":490:514   */\n      tag_1263\n      jump\t// in\n    tag_1309:\n        /* \"#utility.yul\":483:488   */\n      dup2\n        /* \"#utility.yul\":480:515   */\n      eq\n        /* \"#utility.yul\":470:533   */\n      tag_1310\n      jumpi\n        /* \"#utility.yul\":529:530   */\n      0x00\n        /* \"#utility.yul\":526:527   */\n      dup1\n        /* \"#utility.yul\":519:531   */\n      revert\n        /* \"#utility.yul\":470:533   */\n    tag_1310:\n        /* \"#utility.yul\":417:539   */\n      pop\n      jump\t// out\n        /* \"#utility.yul\":545:684   */\n    tag_1265:\n        /* \"#utility.yul\":591:596   */\n      0x00\n        /* \"#utility.yul\":629:635   */\n      dup2\n        /* \"#utility.yul\":616:636   */\n      calldataload\n        /* \"#utility.yul\":607:636   */\n      swap1\n      pop\n        /* \"#utility.yul\":645:678   */\n      tag_1312\n        /* \"#utility.yul\":672:677   */\n      dup2\n        /* \"#utility.yul\":645:678   */\n      tag_1264\n      jump\t// in\n    tag_1312:\n        /* \"#utility.yul\":545:684   */\n      swap3\n      swap2\n      pop\n      pop\n      jump\t// out\n        /* \"#utility.yul\":690:1019   */\n    tag_31:\n        /* \"#utility.yul\":749:755   */\n      0x00\n        /* \"#utility.yul\":798:800   */\n      0x20\n        /* \"#utility.yul\":786:795   */\n      dup3\n        /* \"#utility.yul\":777:784   */\n      dup5\n        /* \"#utility.yul\":773:796   */\n      sub\n        /* \"#utility.yul\":769:801   */\n      slt\n        /* \"#utility.yul\":766:885   */\n      iszero\n      tag_1314\n      jumpi\n        /* \"#utility.yul\":804:883   */\n      tag_1315\n      tag_1261\n      jump\t// in\n    tag_1315:\n        /* \"#utility.yul\":766:885   */\n    tag_1314:\n        /* \"#utility.yul\":924:925   */\n      0x00\n        /* \"#utility.yul\":949:1002   */\n      tag_1316\n        /* \"#utility.yul\":994:1001   */\n      dup5\n        /* \"#utility.yul\":985:991   */\n      dup3\n        /* \"#utility.yul\":974:983   */\n      dup6\n        /* \"#utility.yul\":970:992   */\n      add\n        /* \"#utility.yul\":949:1002   */\n      tag_1265\n      jump\t// in\n    tag_1316:\n        /* \"#utility.yul\":939:1002   */\n      swap2\n      pop\n        /* \"#utility.yul\":895:1012   */\n      pop\n        /* \"#utility.yul\":690:1019   */\n      swap3\n      swap2\n      pop\n      pop\n      jump\t// out\n        /* \"#utility.yul\":1025:1143   */\n    tag_1266:\n        /* \"#utility.yul\":1112:1136   */\n      tag_1318\n        /* \"#utility.yul\":1130:1135   */\n      dup2\n        /* \"#utility.yul\":1112:1136   */\n      tag_1263\n      jump\t// in\n    tag_1318:\n        /* \"#utility.yul\":1107:1110   */\n      dup3\n        /* \"#utility.yul\":1100:1137   */\n      mstore\n        /* \"#utility.yul\":1025:1143   */\n      pop\n      pop\n      jump\t// out\n        /* \"#utility.yul\":1149:1371   */\n    tag_37:\n        /* \"#utility.yul\":1242:1246   */\n      0x00\n        /* \"#utility.yul\":1280:1282   */\n      0x20\n        /* \"#utility.yul\":1269:1278   */\n      dup3\n        /* \"#utility.yul\":1265:1283   */\n      add\n        /* \"#utility.yul\":1257:1283   */\n      swap1\n      pop\n        /* \"#utility.yul\":1293:1364   */\n      tag_1320\n        /* \"#utility.yul\":1361:1362   */\n      0x00\n        /* \"#utility.yul\":1350:1359   */\n      dup4\n        /* \"#utility.yul\":1346:1363   */\n      add\n        /* \"#utility.yul\":1337:1343   */\n      dup5\n        /* \"#utility.yul\":1293:1364   */\n      tag_1266\n      jump\t// in\n    tag_1320:\n        /* \"#utility.yul\":1149:1371   */\n      swap3\n      swap2\n      pop\n      pop\n      jump\t// out\n        /* \"#utility.yul\":1377:1851   */\n    tag_41:\n        /* \"#utility.yul\":1445:1451   */\n      0x00\n        /* \"#utility.yul\":1453:1459   */\n      dup1\n        /* \"#utility.yul\":1502:1504   */\n      0x40\n        /* \"#utility.yul\":1490:1499   */\n      dup4\n        /* \"#utility.yul\":1481:1488   */\n      dup6\n        /* \"#utility.yul\":1477:1500   */\n      sub\n        /* \"#utility.yul\":1473:1505   */\n      slt\n        /* \"#utility.yul\":1470:1589   */\n      iszero\n      tag_1322\n      jumpi\n        /* \"#utility.yul\":1508:1587   */\n      tag_1323\n      tag_1261\n      jump\t// in\n    tag_1323:\n        /* \"#utility.yul\":1470:1589   */\n    tag_1322:\n        /* \"#utility.yul\":1628:1629   */\n      0x00\n        /* \"#utility.yul\":1653:1706   */\n      tag_1324\n        /* \"#utility.yul\":1698:1705   */\n      dup6\n        /* \"#utility.yul\":1689:1695   */\n      dup3\n        /* \"#utility.yul\":1678:1687   */\n      dup7\n        /* \"#utility.yul\":1674:1696   */\n      add\n        /* \"#utility.yul\":1653:1706   */\n      tag_1265\n      jump\t// in\n    tag_1324:\n        /* \"#utility.yul\":1643:1706   */\n      swap3\n      pop\n        /* \"#utility.yul\":1599:1716   */\n      pop\n        /* \"#utility.yul\":1755:1757   */\n      0x20\n        /* \"#utility.yul\":1781:1834   */\n      tag_1325\n        /* \"#utility.yul\":1826:1833   */\n      dup6\n        /* \"#utility.yul\":1817:1823   */\n      dup3\n        /* \"#utility.yul\":1806:1815   */\n      dup7\n        /* \"#utility.yul\":1802:1824   */\n      add\n        /* \"#utility.yul\":1781:1834   */\n      tag_1265\n      jump\t// in\n    tag_1325:\n        /* \"#utility.yul\":1771:1834   */\n      swap2\n      pop\n        /* \"#utility.yul\":1726:1844   */\n      pop\n        /* \"#utility.yul\":1377:1851   */\n      swap3\n      pop\n      swap3\n      swap1\n      pop\n      jump\t// out\n        /* \"#utility.yul\":1857:2026   */\n    tag_1267:\n        /* \"#utility.yul\":1941:1952   */\n      0x00\n        /* \"#utility.yul\":1975:1981   */\n      dup3\n        /* \"#utility.yul\":1970:1973   */\n      dup3\n        /* \"#utility.yul\":1963:1982   */\n      mstore\n        /* \"#utility.yul\":2015:2019   */\n      0x20\n        /* \"#utility.yul\":2010:2013   */\n      dup3\n        /* \"#utility.yul\":2006:2020   */\n      add\n        /* \"#utility.yul\":1991:2020   */\n      swap1\n      pop\n        /* \"#utility.yul\":1857:2026   */\n      swap3\n      swap2\n      pop\n      pop\n      jump\t// out\n        /* \"#utility.yul\":2032:2255   */\n    tag_1268:\n        /* \"#utility.yul\":2172:2206   */\n      0x42657420616d6f756e74206973206d6f7265207468616e2067616d652062616c\n        /* \"#utility.yul\":2168:2169   */\n      0x00\n        /* \"#utility.yul\":2160:2166   */\n      dup3\n        /* \"#utility.yul\":2156:2170   */\n      add\n        /* \"#utility.yul\":2149:2207   */\n      mstore\n        /* \"#utility.yul\":2241:2247   */\n      0x616e636500000000000000000000000000000000000000000000000000000000\n        /* \"#utility.yul\":2236:2238   */\n      0x20\n        /* \"#utility.yul\":2228:2234   */\n      dup3\n        /* \"#utility.yul\":2224:2239   */\n      add\n        /* \"#utility.yul\":2217:2248   */\n      mstore\n        /* \"#utility.yul\":2032:2255   */\n      pop\n      jump\t// out\n        /* \"#utility.yul\":2261:2627   */\n    tag_1269:\n        /* \"#utility.yul\":2403:2406   */\n      0x00\n        /* \"#utility.yul\":2424:2491   */\n      tag_1329\n        /* \"#utility.yul\":2488:2490   */\n      0x24\n        /* \"#utility.yul\":2483:2486   */\n      dup4\n        /* \"#utility.yul\":2424:2491   */\n      tag_1267\n      jump\t// in\n    tag_1329:\n        /* \"#utility.yul\":2417:2491   */\n      swap2\n      pop\n        /* \"#utility.yul\":2500:2593   */\n      tag_1330\n        /* \"#utility.yul\":2589:2592   */\n      dup3\n        /* \"#utility.yul\":2500:2593   */\n      tag_1268\n      jump\t// in\n    tag_1330:\n        /* \"#utility.yul\":2618:2620   */\n      0x40\n        /* \"#utility.yul\":2613:2616   */\n      dup3\n        /* \"#utility.yul\":2609:2621   */\n      add\n        /* \"#utility.yul\":2602:2621   */\n      swap1\n      pop\n        /* \"#utility.yul\":2261:2627   */\n      swap2\n      swap1\n      pop\n      jump\t// out\n        /* \"#utility.yul\":2633:3052   */\n    tag_131:\n        /* \"#utility.yul\":2799:2803   */\n      0x00\n        /* \"#utility.yul\":2837:2839   */\n      0x20\n        /* \"#utility.yul\":2826:2835   */\n      dup3\n        /* \"#utility.yul\":2822:2840   */\n      add\n        /* \"#utility.yul\":2814:2840   */\n      swap1\n      pop\n        /* \"#utility.yul\":2886:2895   */\n      dup2\n        /* \"#utility.yul\":2880:2884   */\n      dup2\n        /* \"#utility.yul\":2876:2896   */\n      sub\n        /* \"#utility.yul\":2872:2873   */\n      0x00\n        /* \"#utility.yul\":2861:2870   */\n      dup4\n        /* \"#utility.yul\":2857:2874   */\n      add\n        /* \"#utility.yul\":2850:2897   */\n      mstore\n        /* \"#utility.yul\":2914:3045   */\n      tag_1332\n        /* \"#utility.yul\":3040:3044   */\n      dup2\n        /* \"#utility.yul\":2914:3045   */\n      tag_1269\n      jump\t// in\n    tag_1332:\n        /* \"#utility.yul\":2906:3045   */\n      swap1\n      pop\n        /* \"#utility.yul\":2633:3052   */\n      swap2\n      swap1\n      pop\n      jump\t// out\n        /* \"#utility.yul\":3058:3233   */\n    tag_1270:\n        /* \"#utility.yul\":3198:3225   */\n      0x4f6e6c7920706c617965722063616e20706c6163652062657400000000000000\n        /* \"#utility.yul\":3194:3195   */\n      0x00\n        /* \"#utility.yul\":3186:3192   */\n      dup3\n        /* \"#utility.yul\":3182:3196   */\n      add\n        /* \"#utility.yul\":3175:3226   */\n      mstore\n        /* \"#utility.yul\":3058:3233   */\n      pop\n      jump\t// out\n        /* \"#utility.yul\":3239:3605   */\n    tag_1271:\n        /* \"#utility.yul\":3381:3384   */\n      0x00\n        /* \"#utility.yul\":3402:3469   */\n      tag_1335\n        /* \"#utility.yul\":3466:3468   */\n      0x19\n        /* \"#utility.yul\":3461:3464   */\n      dup4\n        /* \"#utility.yul\":3402:3469   */\n      tag_1267\n      jump\t// in\n    tag_1335:\n        /* \"#utility.yul\":3395:3469   */\n      swap2\n      pop\n        /* \"#utility.yul\":3478:3571   */\n      tag_1336\n        /* \"#utility.yul\":3567:3570   */\n      dup3\n        /* \"#utility.yul\":3478:3571   */\n      tag_1270\n      jump\t// in\n    tag_1336:\n        /* \"#utility.yul\":3596:3598   */\n      0x20\n        /* \"#utility.yul\":3591:3594   */\n      dup3\n        /* \"#utility.yul\":3587:3599   */\n      add\n        /* \"#utility.yul\":3580:3599   */\n      swap1\n      pop\n        /* \"#utility.yul\":3239:3605   */\n      swap2\n      swap1\n      pop\n      jump\t// out\n        /* \"#utility.yul\":3611:4030   */\n    tag_134:\n        /* \"#utility.yul\":3777:3781   */\n      0x00\n        /* \"#utility.yul\":3815:3817   */\n      0x20\n        /* \"#utility.yul\":3804:3813   */\n      dup3\n        /* \"#utility.yul\":3800:3818   */\n      add\n        /* \"#utility.yul\":3792:3818   */\n      swap1\n      pop\n        /* \"#utility.yul\":3864:3873   */\n      dup2\n        /* \"#utility.yul\":3858:3862   */\n      dup2\n        /* \"#utility.yul\":3854:3874   */\n      sub\n        /* \"#utility.yul\":3850:3851   */\n      0x00\n        /* \"#utility.yul\":3839:3848   */\n      dup4\n        /* \"#utility.yul\":3835:3852   */\n      add\n        /* \"#utility.yul\":3828:3875   */\n      mstore\n        /* \"#utility.yul\":3892:4023   */\n      tag_1338\n        /* \"#utility.yul\":4018:4022   */\n      dup2\n        /* \"#utility.yul\":3892:4023   */\n      tag_1271\n      jump\t// in\n    tag_1338:\n        /* \"#utility.yul\":3884:4023   */\n      swap1\n      pop\n        /* \"#utility.yul\":3611:4030   */\n      swap2\n      swap1\n      pop\n      jump\t// out\n        /* \"#utility.yul\":4036:4208   */\n    tag_1272:\n        /* \"#utility.yul\":4176:4200   */\n      0x5265656e7472616e6379206e6f7420616c6c6f77656400000000000000000000\n        /* \"#utility.yul\":4172:4173   */\n      0x00\n        /* \"#utility.yul\":4164:4170   */\n      dup3\n        /* \"#utility.yul\":4160:4174   */\n      add\n        /* \"#utility.yul\":4153:4201   */\n      mstore\n        /* \"#utility.yul\":4036:4208   */\n      pop\n      jump\t// out\n        /* \"#utility.yul\":4214:4580   */\n    tag_1273:\n        /* \"#utility.yul\":4356:4359   */\n      0x00\n        /* \"#utility.yul\":4377:4444   */\n      tag_1341\n        /* \"#utility.yul\":4441:4443   */\n      0x16\n        /* \"#utility.yul\":4436:4439   */\n      dup4\n        /* \"#utility.yul\":4377:4444   */\n      tag_1267\n      jump\t// in\n    tag_1341:\n        /* \"#utility.yul\":4370:4444   */\n      swap2\n      pop\n        /* \"#utility.yul\":4453:4546   */\n      tag_1342\n        /* \"#utility.yul\":4542:4545   */\n      dup3\n        /* \"#utility.yul\":4453:4546   */\n      tag_1272\n      jump\t// in\n    tag_1342:\n        /* \"#utility.yul\":4571:4573   */\n      0x20\n        /* \"#utility.yul\":4566:4569   */\n      dup3\n        /* \"#utility.yul\":4562:4574   */\n      add\n        /* \"#utility.yul\":4555:4574   */\n      swap1\n      pop\n        /* \"#utility.yul\":4214:4580   */\n      swap2\n      swap1\n      pop\n      jump\t// out\n        /* \"#utility.yul\":4586:5005   */\n    tag_138:\n        /* \"#utility.yul\":4752:4756   */\n      0x00\n        /* \"#utility.yul\":4790:4792   */\n      0x20\n        /* \"#utility.yul\":4779:4788   */\n      dup3\n        /* \"#utility.yul\":4775:4793   */\n      add\n        /* \"#utility.yul\":4767:4793   */\n      swap1\n      pop\n        /* \"#utility.yul\":4839:4848   */\n      dup2\n        /* \"#utility.yul\":4833:4837   */\n      dup2\n        /* \"#utility.yul\":4829:4849   */\n      sub\n        /* \"#utility.yul\":4825:4826   */\n      0x00\n        /* \"#utility.yul\":4814:4823   */\n      dup4\n        /* \"#utility.yul\":4810:4827   */\n      add\n        /* \"#utility.yul\":4803:4850   */\n      mstore\n        /* \"#utility.yul\":4867:4998   */\n      tag_1344\n        /* \"#utility.yul\":4993:4997   */\n      dup2\n        /* \"#utility.yul\":4867:4998   */\n      tag_1273\n      jump\t// in\n    tag_1344:\n        /* \"#utility.yul\":4859:4998   */\n      swap1\n      pop\n        /* \"#utility.yul\":4586:5005   */\n      swap2\n      swap1\n      pop\n      jump\t// out\n        /* \"#utility.yul\":5011:5191   */\n    tag_1274:\n        /* \"#utility.yul\":5059:5136   */\n      0x4e487b7100000000000000000000000000000000000000000000000000000000\n        /* \"#utility.yul\":5056:5057   */\n      0x00\n        /* \"#utility.yul\":5049:5137   */\n      mstore\n        /* \"#utility.yul\":5156:5160   */\n      0x11\n        /* \"#utility.yul\":5153:5154   */\n      0x04\n        /* \"#utility.yul\":5146:5161   */\n      mstore\n        /* \"#utility.yul\":5180:5184   */\n      0x24\n        /* \"#utility.yul\":5177:5178   */\n      0x00\n        /* \"#utility.yul\":5170:5185   */\n      revert\n        /* \"#utility.yul\":5197:5391   */\n    tag_141:\n        /* \"#utility.yul\":5237:5241   */\n      0x00\n        /* \"#utility.yul\":5257:5277   */\n      tag_1347\n        /* \"#utility.yul\":5275:5276   */\n      dup3\n        /* \"#utility.yul\":5257:5277   */\n      tag_1263\n      jump\t// in\n    tag_1347:\n        /* \"#utility.yul\":5252:5277   */\n      swap2\n      pop\n        /* \"#utility.yul\":5291:5311   */\n      tag_1348\n        /* \"#utility.yul\":5309:5310   */\n      dup4\n        /* \"#utility.yul\":5291:5311   */\n      tag_1263\n      jump\t// in\n    tag_1348:\n        /* \"#utility.yul\":5286:5311   */\n      swap3\n      pop\n        /* \"#utility.yul\":5335:5336   */\n      dup3\n        /* \"#utility.yul\":5332:5333   */\n      dup3\n        /* \"#utility.yul\":5328:5337   */\n      sub\n        /* \"#utility.yul\":5320:5337   */\n      swap1\n      pop\n        /* \"#utility.yul\":5359:5360   */\n      dup2\n        /* \"#utility.yul\":5353:5357   */\n      dup2\n        /* \"#utility.yul\":5350:5361   */\n      gt\n        /* \"#utility.yul\":5347:5384   */\n      iszero\n      tag_1349\n      jumpi\n        /* \"#utility.yul\":5364:5382   */\n      tag_1350\n      tag_1274\n      jump\t// in\n    tag_1350:\n        /* \"#utility.yul\":5347:5384   */\n    tag_1349:\n        /* \"#utility.yul\":5197:5391   */\n      swap3\n      swap2\n      pop\n      pop\n      jump\t// out\n        /* \"#utility.yul\":5397:5617   */\n    tag_1275:\n        /* \"#utility.yul\":5537:5571   */\n      0x526567697374726174696f6e2061646472657373206973206e6f742076616c69\n        /* \"#utility.yul\":5533:5534   */\n      0x00\n        /* \"#utility.yul\":5525:5531   */\n      dup3\n        /* \"#utility.yul\":5521:5535   */\n      add\n        /* \"#utility.yul\":5514:5572   */\n      mstore\n        /* \"#utility.yul\":5606:5609   */\n      0x6400000000000000000000000000000000000000000000000000000000000000\n        /* \"#utility.yul\":5601:5603   */\n      0x20\n        /* \"#utility.yul\":5593:5599   */\n      dup3\n        /* \"#utility.yul\":5589:5604   */\n      add\n        /* \"#utility.yul\":5582:5610   */\n      mstore\n        /* \"#utility.yul\":5397:5617   */\n      pop\n      jump\t// out\n        /* \"#utility.yul\":5623:5989   */\n    tag_1276:\n        /* \"#utility.yul\":5765:5768   */\n      0x00\n        /* \"#utility.yul\":5786:5853   */\n      tag_1353\n        /* \"#utility.yul\":5850:5852   */\n      0x21\n        /* \"#utility.yul\":5845:5848   */\n      dup4\n        /* \"#utility.yul\":5786:5853   */\n      tag_1267\n      jump\t// in\n    tag_1353:\n        /* \"#utility.yul\":5779:5853   */\n      swap2\n      pop\n        /* \"#utility.yul\":5862:5955   */\n      tag_1354\n        /* \"#utility.yul\":5951:5954   */\n      dup3\n        /* \"#utility.yul\":5862:5955   */\n      tag_1275\n      jump\t// in\n    tag_1354:\n        /* \"#utility.yul\":5980:5982   */\n      0x40\n        /* \"#utility.yul\":5975:5978   */\n      dup3\n        /* \"#utility.yul\":5971:5983   */\n      add\n        /* \"#utility.yul\":5964:5983   */\n      swap1\n      pop\n        /* \"#utility.yul\":5623:5989   */\n      swap2\n      swap1\n      pop\n      jump\t// out\n        /* \"#utility.yul\":5995:6414   */\n    tag_152:\n        /* \"#utility.yul\":6161:6165   */\n      0x00\n        /* \"#utility.yul\":6199:6201   */\n      0x20\n        /* \"#utility.yul\":6188:6197   */\n      dup3\n        /* \"#utility.yul\":6184:6202   */\n      add\n        /* \"#utility.yul\":6176:6202   */\n      swap1\n      pop\n        /* \"#utility.yul\":6248:6257   */\n      dup2\n        /* \"#utility.yul\":6242:6246   */\n      dup2\n        /* \"#utility.yul\":6238:6258   */\n      sub\n        /* \"#utility.yul\":6234:6235   */\n      0x00\n        /* \"#utility.yul\":6223:6232   */\n      dup4\n        /* \"#utility.yul\":6219:6236   */\n      add\n        /* \"#utility.yul\":6212:6259   */\n      mstore\n        /* \"#utility.yul\":6276:6407   */\n      tag_1356\n        /* \"#utility.yul\":6402:6406   */\n      dup2\n        /* \"#utility.yul\":6276:6407   */\n      tag_1276\n      jump\t// in\n    tag_1356:\n        /* \"#utility.yul\":6268:6407   */\n      swap1\n      pop\n        /* \"#utility.yul\":5995:6414   */\n      swap2\n      swap1\n      pop\n      jump\t// out\n        /* \"#utility.yul\":6420:6643   */\n    tag_1277:\n        /* \"#utility.yul\":6560:6594   */\n      0x506c61796572206d75737420626520686f757365283029206f7220706c617965\n        /* \"#utility.yul\":6556:6557   */\n      0x00\n        /* \"#utility.yul\":6548:6554   */\n      dup3\n        /* \"#utility.yul\":6544:6558   */\n      add\n        /* \"#utility.yul\":6537:6595   */\n      mstore\n        /* \"#utility.yul\":6629:6635   */\n      0x7228312900000000000000000000000000000000000000000000000000000000\n        /* \"#utility.yul\":6624:6626   */\n      0x20\n        /* \"#utility.yul\":6616:6622   */\n      dup3\n        /* \"#utility.yul\":6612:6627   */\n      add\n        /* \"#utility.yul\":6605:6636   */\n      mstore\n        /* \"#utility.yul\":6420:6643   */\n      pop\n      jump\t// out\n        /* \"#utility.yul\":6649:7015   */\n    tag_1278:\n        /* \"#utility.yul\":6791:6794   */\n      0x00\n        /* \"#utility.yul\":6812:6879   */\n      tag_1359\n        /* \"#utility.yul\":6876:6878   */\n      0x24\n        /* \"#utility.yul\":6871:6874   */\n      dup4\n        /* \"#utility.yul\":6812:6879   */\n      tag_1267\n      jump\t// in\n    tag_1359:\n        /* \"#utility.yul\":6805:6879   */\n      swap2\n      pop\n        /* \"#utility.yul\":6888:6981   */\n      tag_1360\n        /* \"#utility.yul\":6977:6980   */\n      dup3\n        /* \"#utility.yul\":6888:6981   */\n      tag_1277\n      jump\t// in\n    tag_1360:\n        /* \"#utility.yul\":7006:7008   */\n      0x40\n        /* \"#utility.yul\":7001:7004   */\n      dup3\n        /* \"#utility.yul\":6997:7009   */\n      add\n        /* \"#utility.yul\":6990:7009   */\n      swap1\n      pop\n        /* \"#utility.yul\":6649:7015   */\n      swap2\n      swap1\n      pop\n      jump\t// out\n        /* \"#utility.yul\":7021:7440   */\n    tag_156:\n        /* \"#utility.yul\":7187:7191   */\n      0x00\n        /* \"#utility.yul\":7225:7227   */\n      0x20\n        /* \"#utility.yul\":7214:7223   */\n      dup3\n        /* \"#utility.yul\":7210:7228   */\n      add\n        /* \"#utility.yul\":7202:7228   */\n      swap1\n      pop\n        /* \"#utility.yul\":7274:7283   */\n      dup2\n        /* \"#utility.yul\":7268:7272   */\n      dup2\n        /* \"#utility.yul\":7264:7284   */\n      sub\n        /* \"#utility.yul\":7260:7261   */\n      0x00\n        /* \"#utility.yul\":7249:7258   */\n      dup4\n        /* \"#utility.yul\":7245:7262   */\n      add\n        /* \"#utility.yul\":7238:7285   */\n      mstore\n        /* \"#utility.yul\":7302:7433   */\n      tag_1362\n        /* \"#utility.yul\":7428:7432   */\n      dup2\n        /* \"#utility.yul\":7302:7433   */\n      tag_1278\n      jump\t// in\n    tag_1362:\n        /* \"#utility.yul\":7294:7433   */\n      swap1\n      pop\n        /* \"#utility.yul\":7021:7440   */\n      swap2\n      swap1\n      pop\n      jump\t// out\n        /* \"#utility.yul\":7446:7667   */\n    tag_1279:\n        /* \"#utility.yul\":7586:7620   */\n      0x53656e6465722061646472657373206d75737420626520686f75736557616c6c\n        /* \"#utility.yul\":7582:7583   */\n      0x00\n        /* \"#utility.yul\":7574:7580   */\n      dup3\n        /* \"#utility.yul\":7570:7584   */\n      add\n        /* \"#utility.yul\":7563:7621   */\n      mstore\n        /* \"#utility.yul\":7655:7659   */\n      0x6574000000000000000000000000000000000000000000000000000000000000\n        /* \"#utility.yul\":7650:7652   */\n      0x20\n        /* \"#utility.yul\":7642:7648   */\n      dup3\n        /* \"#utility.yul\":7638:7653   */\n      add\n        /* \"#utility.yul\":7631:7660   */\n      mstore\n        /* \"#utility.yul\":7446:7667   */\n      pop\n      jump\t// out\n        /* \"#utility.yul\":7673:8039   */\n    tag_1280:\n        /* \"#utility.yul\":7815:7818   */\n      0x00\n        /* \"#utility.yul\":7836:7903   */\n      tag_1365\n        /* \"#utility.yul\":7900:7902   */\n      0x22\n        /* \"#utility.yul\":7895:7898   */\n      dup4\n        /* \"#utility.yul\":7836:7903   */\n      tag_1267\n      jump\t// in\n    tag_1365:\n        /* \"#utility.yul\":7829:7903   */\n      swap2\n      pop\n        /* \"#utility.yul\":7912:8005   */\n      tag_1366\n        /* \"#utility.yul\":8001:8004   */\n      dup3\n        /* \"#utility.yul\":7912:8005   */\n      tag_1279\n      jump\t// in\n    tag_1366:\n        /* \"#utility.yul\":8030:8032   */\n      0x40\n        /* \"#utility.yul\":8025:8028   */\n      dup3\n        /* \"#utility.yul\":8021:8033   */\n      add\n        /* \"#utility.yul\":8014:8033   */\n      swap1\n      pop\n        /* \"#utility.yul\":7673:8039   */\n      swap2\n      swap1\n      pop\n      jump\t// out\n        /* \"#utility.yul\":8045:8464   */\n    tag_163:\n        /* \"#utility.yul\":8211:8215   */\n      0x00\n        /* \"#utility.yul\":8249:8251   */\n      0x20\n        /* \"#utility.yul\":8238:8247   */\n      dup3\n        /* \"#utility.yul\":8234:8252   */\n      add\n        /* \"#utility.yul\":8226:8252   */\n      swap1\n      pop\n        /* \"#utility.yul\":8298:8307   */\n      dup2\n        /* \"#utility.yul\":8292:8296   */\n      dup2\n        /* \"#utility.yul\":8288:8308   */\n      sub\n        /* \"#utility.yul\":8284:8285   */\n      0x00\n        /* \"#utility.yul\":8273:8282   */\n      dup4\n        /* \"#utility.yul\":8269:8286   */\n      add\n        /* \"#utility.yul\":8262:8309   */\n      mstore\n        /* \"#utility.yul\":8326:8457   */\n      tag_1368\n        /* \"#utility.yul\":8452:8456   */\n      dup2\n        /* \"#utility.yul\":8326:8457   */\n      tag_1280\n      jump\t// in\n    tag_1368:\n        /* \"#utility.yul\":8318:8457   */\n      swap1\n      pop\n        /* \"#utility.yul\":8045:8464   */\n      swap2\n      swap1\n      pop\n      jump\t// out\n        /* \"#utility.yul\":8470:8661   */\n    tag_165:\n        /* \"#utility.yul\":8510:8513   */\n      0x00\n        /* \"#utility.yul\":8529:8549   */\n      tag_1370\n        /* \"#utility.yul\":8547:8548   */\n      dup3\n        /* \"#utility.yul\":8529:8549   */\n      tag_1263\n      jump\t// in\n    tag_1370:\n        /* \"#utility.yul\":8524:8549   */\n      swap2\n      pop\n        /* \"#utility.yul\":8563:8583   */\n      tag_1371\n        /* \"#utility.yul\":8581:8582   */\n      dup4\n        /* \"#utility.yul\":8563:8583   */\n      tag_1263\n      jump\t// in\n    tag_1371:\n        /* \"#utility.yul\":8558:8583   */\n      swap3\n      pop\n        /* \"#utility.yul\":8606:8607   */\n      dup3\n        /* \"#utility.yul\":8603:8604   */\n      dup3\n        /* \"#utility.yul\":8599:8608   */\n      add\n        /* \"#utility.yul\":8592:8608   */\n      swap1\n      pop\n        /* \"#utility.yul\":8627:8630   */\n      dup1\n        /* \"#utility.yul\":8624:8625   */\n      dup3\n        /* \"#utility.yul\":8621:8631   */\n      gt\n        /* \"#utility.yul\":8618:8654   */\n      iszero\n      tag_1372\n      jumpi\n        /* \"#utility.yul\":8634:8652   */\n      tag_1373\n      tag_1274\n      jump\t// in\n    tag_1373:\n        /* \"#utility.yul\":8618:8654   */\n    tag_1372:\n        /* \"#utility.yul\":8470:8661   */\n      swap3\n      swap2\n      pop\n      pop\n      jump\t// out\n        /* \"#utility.yul\":8667:8889   */\n    tag_1281:\n        /* \"#utility.yul\":8807:8841   */\n      0x53656e6465722061646472657373206d75737420626520706c6179657257616c\n        /* \"#utility.yul\":8803:8804   */\n      0x00\n        /* \"#utility.yul\":8795:8801   */\n      dup3\n        /* \"#utility.yul\":8791:8805   */\n      add\n        /* \"#utility.yul\":8784:8842   */\n      mstore\n        /* \"#utility.yul\":8876:8881   */\n      0x6c65740000000000000000000000000000000000000000000000000000000000\n        /* \"#utility.yul\":8871:8873   */\n      0x20\n        /* \"#utility.yul\":8863:8869   */\n      dup3\n        /* \"#utility.yul\":8859:8874   */\n      add\n        /* \"#utility.yul\":8852:8882   */\n      mstore\n        /* \"#utility.yul\":8667:8889   */\n      pop\n      jump\t// out\n        /* \"#utility.yul\":8895:9261   */\n    tag_1282:\n        /* \"#utility.yul\":9037:9040   */\n      0x00\n        /* \"#utility.yul\":9058:9125   */\n      tag_1376\n        /* \"#utility.yul\":9122:9124   */\n      0x23\n        /* \"#utility.yul\":9117:9120   */\n      dup4\n        /* \"#utility.yul\":9058:9125   */\n      tag_1267\n      jump\t// in\n    tag_1376:\n        /* \"#utility.yul\":9051:9125   */\n      swap2\n      pop\n        /* \"#utility.yul\":9134:9227   */\n      tag_1377\n        /* \"#utility.yul\":9223:9226   */\n      dup3\n        /* \"#utility.yul\":9134:9227   */\n      tag_1281\n      jump\t// in\n    tag_1377:\n        /* \"#utility.yul\":9252:9254   */\n      0x40\n        /* \"#utility.yul\":9247:9250   */\n      dup3\n        /* \"#utility.yul\":9243:9255   */\n      add\n        /* \"#utility.yul\":9236:9255   */\n      swap1\n      pop\n        /* \"#utility.yul\":8895:9261   */\n      swap2\n      swap1\n      pop\n      jump\t// out\n        /* \"#utility.yul\":9267:9686   */\n    tag_171:\n        /* \"#utility.yul\":9433:9437   */\n      0x00\n        /* \"#utility.yul\":9471:9473   */\n      0x20\n        /* \"#utility.yul\":9460:9469   */\n      dup3\n        /* \"#utility.yul\":9456:9474   */\n      add\n        /* \"#utility.yul\":9448:9474   */\n      swap1\n      pop\n        /* \"#utility.yul\":9520:9529   */\n      dup2\n        /* \"#utility.yul\":9514:9518   */\n      dup2\n        /* \"#utility.yul\":9510:9530   */\n      sub\n        /* \"#utility.yul\":9506:9507   */\n      0x00\n        /* \"#utility.yul\":9495:9504   */\n      dup4\n        /* \"#utility.yul\":9491:9508   */\n      add\n        /* \"#utility.yul\":9484:9531   */\n      mstore\n        /* \"#utility.yul\":9548:9679   */\n      tag_1379\n        /* \"#utility.yul\":9674:9678   */\n      dup2\n        /* \"#utility.yul\":9548:9679   */\n      tag_1282\n      jump\t// in\n    tag_1379:\n        /* \"#utility.yul\":9540:9679   */\n      swap1\n      pop\n        /* \"#utility.yul\":9267:9686   */\n      swap2\n      swap1\n      pop\n      jump\t// out\n        /* \"#utility.yul\":9692:9872   */\n    tag_183:\n        /* \"#utility.yul\":9740:9817   */\n      0x4e487b7100000000000000000000000000000000000000000000000000000000\n        /* \"#utility.yul\":9737:9738   */\n      0x00\n        /* \"#utility.yul\":9730:9818   */\n      mstore\n        /* \"#utility.yul\":9837:9841   */\n      0x32\n        /* \"#utility.yul\":9834:9835   */\n      0x04\n        /* \"#utility.yul\":9827:9842   */\n      mstore\n        /* \"#utility.yul\":9861:9865   */\n      0x24\n        /* \"#utility.yul\":9858:9859   */\n      0x00\n        /* \"#utility.yul\":9851:9866   */\n      revert\n        /* \"#utility.yul\":9878:10111   */\n    tag_235:\n        /* \"#utility.yul\":9917:9920   */\n      0x00\n        /* \"#utility.yul\":9940:9964   */\n      tag_1382\n        /* \"#utility.yul\":9958:9963   */\n      dup3\n        /* \"#utility.yul\":9940:9964   */\n      tag_1263\n      jump\t// in\n    tag_1382:\n        /* \"#utility.yul\":9931:9964   */\n      swap2\n      pop\n        /* \"#utility.yul\":9986:10052   */\n      0xffffffffffffffffffffffffffffffffffffffffffffffffffffffffffffffff\n        /* \"#utility.yul\":9979:9984   */\n      dup3\n        /* \"#utility.yul\":9976:10053   */\n      sub\n        /* \"#utility.yul\":9973:10076   */\n      tag_1383\n      jumpi\n        /* \"#utility.yul\":10056:10074   */\n      tag_1384\n      tag_1274\n      jump\t// in\n    tag_1384:\n        /* \"#utility.yul\":9973:10076   */\n    tag_1383:\n        /* \"#utility.yul\":10103:10104   */\n      0x01\n        /* \"#utility.yul\":10096:10101   */\n      dup3\n        /* \"#utility.yul\":10092:10105   */\n      add\n        /* \"#utility.yul\":10085:10105   */\n      swap1\n      pop\n        /* \"#utility.yul\":9878:10111   */\n      swap2\n      swap1\n      pop\n      jump\t// out\n        /* \"#utility.yul\":10117:10337   */\n    tag_1283:\n        /* \"#utility.yul\":10257:10291   */\n      0x506c6179657220686173206e6f2062616c616e636520746f2077697468647261\n        /* \"#utility.yul\":10253:10254   */\n      0x00\n        /* \"#utility.yul\":10245:10251   */\n      dup3\n        /* \"#utility.yul\":10241:10255   */\n      add\n        /* \"#utility.yul\":10234:10292   */\n      mstore\n        /* \"#utility.yul\":10326:10329   */\n      0x7700000000000000000000000000000000000000000000000000000000000000\n        /* \"#utility.yul\":10321:10323   */\n      0x20\n        /* \"#utility.yul\":10313:10319   */\n      dup3\n        /* \"#utility.yul\":10309:10324   */\n      add\n        /* \"#utility.yul\":10302:10330   */\n      mstore\n        /* \"#utility.yul\":10117:10337   */\n      pop\n      jump\t// out\n        /* \"#utility.yul\":10343:10709   */\n    tag_1284:\n        /* \"#utility.yul\":10485:10488   */\n      0x00\n        /* \"#utility.yul\":10506:10573   */\n      tag_1387\n        /* \"#utility.yul\":10570:10572   */\n      0x21\n        /* \"#utility.yul\":10565:10568   */\n      dup4\n        /* \"#utility.yul\":10506:10573   */\n      tag_1267\n      jump\t// in\n    tag_1387:\n        /* \"#utility.yul\":10499:10573   */\n      swap2\n      pop\n        /* \"#utility.yul\":10582:10675   */\n      tag_1388\n        /* \"#utility.yul\":10671:10674   */\n      dup3\n        /* \"#utility.yul\":10582:10675   */\n      tag_1283\n      jump\t// in\n    tag_1388:\n        /* \"#utility.yul\":10700:10702   */\n      0x40\n        /* \"#utility.yul\":10695:10698   */\n      dup3\n        /* \"#utility.yul\":10691:10703   */\n      add\n        /* \"#utility.yul\":10684:10703   */\n      swap1\n      pop\n        /* \"#utility.yul\":10343:10709   */\n      swap2\n      swap1\n      pop\n      jump\t// out\n        /* \"#utility.yul\":10715:11134   */\n    tag_308:\n        /* \"#utility.yul\":10881:10885   */\n      0x00\n        /* \"#utility.yul\":10919:10921   */\n      0x20\n        /* \"#utility.yul\":10908:10917   */\n      dup3\n        /* \"#utility.yul\":10904:10922   */\n      add\n        /* \"#utility.yul\":10896:10922   */\n      swap1\n      pop\n        /* \"#utility.yul\":10968:10977   */\n      dup2\n        /* \"#utility.yul\":10962:10966   */\n      dup2\n        /* \"#utility.yul\":10958:10978   */\n      sub\n        /* \"#utility.yul\":10954:10955   */\n      0x00\n        /* \"#utility.yul\":10943:10952   */\n      dup4\n        /* \"#utility.yul\":10939:10956   */\n      add\n        /* \"#utility.yul\":10932:10979   */\n      mstore\n        /* \"#utility.yul\":10996:11127   */\n      tag_1390\n        /* \"#utility.yul\":11122:11126   */\n      dup2\n        /* \"#utility.yul\":10996:11127   */\n      tag_1284\n      jump\t// in\n    tag_1390:\n        /* \"#utility.yul\":10988:11127   */\n      swap1\n      pop\n        /* \"#utility.yul\":10715:11134   */\n      swap2\n      swap1\n      pop\n      jump\t// out\n        /* \"#utility.yul\":11140:11369   */\n    tag_1285:\n        /* \"#utility.yul\":11280:11314   */\n      0x4f6e6c7920706c617965722063616e2075736520746869732066756e6374696f\n        /* \"#utility.yul\":11276:11277   */\n      0x00\n        /* \"#utility.yul\":11268:11274   */\n      dup3\n        /* \"#utility.yul\":11264:11278   */\n      add\n        /* \"#utility.yul\":11257:11315   */\n      mstore\n        /* \"#utility.yul\":11349:11361   */\n      0x6e20776974686472617700000000000000000000000000000000000000000000\n        /* \"#utility.yul\":11344:11346   */\n      0x20\n        /* \"#utility.yul\":11336:11342   */\n      dup3\n        /* \"#utility.yul\":11332:11347   */\n      add\n        /* \"#utility.yul\":11325:11362   */\n      mstore\n        /* \"#utility.yul\":11140:11369   */\n      pop\n      jump\t// out\n        /* \"#utility.yul\":11375:11741   */\n    tag_1286:\n        /* \"#utility.yul\":11517:11520   */\n      0x00\n        /* \"#utility.yul\":11538:11605   */\n      tag_1393\n        /* \"#utility.yul\":11602:11604   */\n      0x2a\n        /* \"#utility.yul\":11597:11600   */\n      dup4\n        /* \"#utility.yul\":11538:11605   */\n      tag_1267\n      jump\t// in\n    tag_1393:\n        /* \"#utility.yul\":11531:11605   */\n      swap2\n      pop\n        /* \"#utility.yul\":11614:11707   */\n      tag_1394\n        /* \"#utility.yul\":11703:11706   */\n      dup3\n        /* \"#utility.yul\":11614:11707   */\n      tag_1285\n      jump\t// in\n    tag_1394:\n        /* \"#utility.yul\":11732:11734   */\n      0x40\n        /* \"#utility.yul\":11727:11730   */\n      dup3\n        /* \"#utility.yul\":11723:11735   */\n      add\n        /* \"#utility.yul\":11716:11735   */\n      swap1\n      pop\n        /* \"#utility.yul\":11375:11741   */\n      swap2\n      swap1\n      pop\n      jump\t// out\n        /* \"#utility.yul\":11747:12166   */\n    tag_311:\n        /* \"#utility.yul\":11913:11917   */\n      0x00\n        /* \"#utility.yul\":11951:11953   */\n      0x20\n        /* \"#utility.yul\":11940:11949   */\n      dup3\n        /* \"#utility.yul\":11936:11954   */\n      add\n        /* \"#utility.yul\":11928:11954   */\n      swap1\n      pop\n        /* \"#utility.yul\":12000:12009   */\n      dup2\n        /* \"#utility.yul\":11994:11998   */\n      dup2\n        /* \"#utility.yul\":11990:12010   */\n      sub\n        /* \"#utility.yul\":11986:11987   */\n      0x00\n        /* \"#utility.yul\":11975:11984   */\n      dup4\n        /* \"#utility.yul\":11971:11988   */\n      add\n        /* \"#utility.yul\":11964:12011   */\n      mstore\n        /* \"#utility.yul\":12028:12159   */\n      tag_1396\n        /* \"#utility.yul\":12154:12158   */\n      dup2\n        /* \"#utility.yul\":12028:12159   */\n      tag_1286\n      jump\t// in\n    tag_1396:\n        /* \"#utility.yul\":12020:12159   */\n      swap1\n      pop\n        /* \"#utility.yul\":11747:12166   */\n      swap2\n      swap1\n      pop\n      jump\t// out\n        /* \"#utility.yul\":12172:12414   */\n    tag_1287:\n        /* \"#utility.yul\":12312:12346   */\n      0x596f75206172652072657175657374696e67206d6f7265207468616e20746865\n        /* \"#utility.yul\":12308:12309   */\n      0x00\n        /* \"#utility.yul\":12300:12306   */\n      dup3\n        /* \"#utility.yul\":12296:12310   */\n      add\n        /* \"#utility.yul\":12289:12347   */\n      mstore\n        /* \"#utility.yul\":12381:12406   */\n      0x20706c617965722077616c6c657420636f6e7461696e73000000000000000000\n        /* \"#utility.yul\":12376:12378   */\n      0x20\n        /* \"#utility.yul\":12368:12374   */\n      dup3\n        /* \"#utility.yul\":12364:12379   */\n      add\n        /* \"#utility.yul\":12357:12407   */\n      mstore\n        /* \"#utility.yul\":12172:12414   */\n      pop\n      jump\t// out\n        /* \"#utility.yul\":12420:12786   */\n    tag_1288:\n        /* \"#utility.yul\":12562:12565   */\n      0x00\n        /* \"#utility.yul\":12583:12650   */\n      tag_1399\n        /* \"#utility.yul\":12647:12649   */\n      0x37\n        /* \"#utility.yul\":12642:12645   */\n      dup4\n        /* \"#utility.yul\":12583:12650   */\n      tag_1267\n      jump\t// in\n    tag_1399:\n        /* \"#utility.yul\":12576:12650   */\n      swap2\n      pop\n        /* \"#utility.yul\":12659:12752   */\n      tag_1400\n        /* \"#utility.yul\":12748:12751   */\n      dup3\n        /* \"#utility.yul\":12659:12752   */\n      tag_1287\n      jump\t// in\n    tag_1400:\n        /* \"#utility.yul\":12777:12779   */\n      0x40\n        /* \"#utility.yul\":12772:12775   */\n      dup3\n        /* \"#utility.yul\":12768:12780   */\n      add\n        /* \"#utility.yul\":12761:12780   */\n      swap1\n      pop\n        /* \"#utility.yul\":12420:12786   */\n      swap2\n      swap1\n      pop\n      jump\t// out\n        /* \"#utility.yul\":12792:13211   */\n    tag_314:\n        /* \"#utility.yul\":12958:12962   */\n      0x00\n        /* \"#utility.yul\":12996:12998   */\n      0x20\n        /* \"#utility.yul\":12985:12994   */\n      dup3\n        /* \"#utility.yul\":12981:12999   */\n      add\n        /* \"#utility.yul\":12973:12999   */\n      swap1\n      pop\n        /* \"#utility.yul\":13045:13054   */\n      dup2\n        /* \"#utility.yul\":13039:13043   */\n      dup2\n        /* \"#utility.yul\":13035:13055   */\n      sub\n        /* \"#utility.yul\":13031:13032   */\n      0x00\n        /* \"#utility.yul\":13020:13029   */\n      dup4\n        /* \"#utility.yul\":13016:13033   */\n      add\n        /* \"#utility.yul\":13009:13056   */\n      mstore\n        /* \"#utility.yul\":13073:13204   */\n      tag_1402\n        /* \"#utility.yul\":13199:13203   */\n      dup2\n        /* \"#utility.yul\":13073:13204   */\n      tag_1288\n      jump\t// in\n    tag_1402:\n        /* \"#utility.yul\":13065:13204   */\n      swap1\n      pop\n        /* \"#utility.yul\":12792:13211   */\n      swap2\n      swap1\n      pop\n      jump\t// out\n        /* \"#utility.yul\":13217:13391   */\n    tag_1289:\n        /* \"#utility.yul\":13357:13383   */\n      0x506c617965722068617320616c72656164792073746f6f640000000000000000\n        /* \"#utility.yul\":13353:13354   */\n      0x00\n        /* \"#utility.yul\":13345:13351   */\n      dup3\n        /* \"#utility.yul\":13341:13355   */\n      add\n        /* \"#utility.yul\":13334:13384   */\n      mstore\n        /* \"#utility.yul\":13217:13391   */\n      pop\n      jump\t// out\n        /* \"#utility.yul\":13397:13763   */\n    tag_1290:\n        /* \"#utility.yul\":13539:13542   */\n      0x00\n        /* \"#utility.yul\":13560:13627   */\n      tag_1405\n        /* \"#utility.yul\":13624:13626   */\n      0x18\n        /* \"#utility.yul\":13619:13622   */\n      dup4\n        /* \"#utility.yul\":13560:13627   */\n      tag_1267\n      jump\t// in\n    tag_1405:\n        /* \"#utility.yul\":13553:13627   */\n      swap2\n      pop\n        /* \"#utility.yul\":13636:13729   */\n      tag_1406\n        /* \"#utility.yul\":13725:13728   */\n      dup3\n        /* \"#utility.yul\":13636:13729   */\n      tag_1289\n      jump\t// in\n    tag_1406:\n        /* \"#utility.yul\":13754:13756   */\n      0x20\n        /* \"#utility.yul\":13749:13752   */\n      dup3\n        /* \"#utility.yul\":13745:13757   */\n      add\n        /* \"#utility.yul\":13738:13757   */\n      swap1\n      pop\n        /* \"#utility.yul\":13397:13763   */\n      swap2\n      swap1\n      pop\n      jump\t// out\n        /* \"#utility.yul\":13769:14188   */\n    tag_333:\n        /* \"#utility.yul\":13935:13939   */\n      0x00\n        /* \"#utility.yul\":13973:13975   */\n      0x20\n        /* \"#utility.yul\":13962:13971   */\n      dup3\n        /* \"#utility.yul\":13958:13976   */\n      add\n        /* \"#utility.yul\":13950:13976   */\n      swap1\n      pop\n        /* \"#utility.yul\":14022:14031   */\n      dup2\n        /* \"#utility.yul\":14016:14020   */\n      dup2\n        /* \"#utility.yul\":14012:14032   */\n      sub\n        /* \"#utility.yul\":14008:14009   */\n      0x00\n        /* \"#utility.yul\":13997:14006   */\n      dup4\n        /* \"#utility.yul\":13993:14010   */\n      add\n        /* \"#utility.yul\":13986:14033   */\n      mstore\n        /* \"#utility.yul\":14050:14181   */\n      tag_1408\n        /* \"#utility.yul\":14176:14180   */\n      dup2\n        /* \"#utility.yul\":14050:14181   */\n      tag_1290\n      jump\t// in\n    tag_1408:\n        /* \"#utility.yul\":14042:14181   */\n      swap1\n      pop\n        /* \"#utility.yul\":13769:14188   */\n      swap2\n      swap1\n      pop\n      jump\t// out\n        /* \"#utility.yul\":14194:14365   */\n    tag_1291:\n        /* \"#utility.yul\":14334:14357   */\n      0x596f7527766520616c7265616479206275737465640000000000000000000000\n        /* \"#utility.yul\":14330:14331   */\n      0x00\n        /* \"#utility.yul\":14322:14328   */\n      dup3\n        /* \"#utility.yul\":14318:14332   */\n      add\n        /* \"#utility.yul\":14311:14358   */\n      mstore\n        /* \"#utility.yul\":14194:14365   */\n      pop\n      jump\t// out\n        /* \"#utility.yul\":14371:14737   */\n    tag_1292:\n        /* \"#utility.yul\":14513:14516   */\n      0x00\n        /* \"#utility.yul\":14534:14601   */\n      tag_1411\n        /* \"#utility.yul\":14598:14600   */\n      0x15\n        /* \"#utility.yul\":14593:14596   */\n      dup4\n        /* \"#utility.yul\":14534:14601   */\n      tag_1267\n      jump\t// in\n    tag_1411:\n        /* \"#utility.yul\":14527:14601   */\n      swap2\n      pop\n        /* \"#utility.yul\":14610:14703   */\n      tag_1412\n        /* \"#utility.yul\":14699:14702   */\n      dup3\n        /* \"#utility.yul\":14610:14703   */\n      tag_1291\n      jump\t// in\n    tag_1412:\n        /* \"#utility.yul\":14728:14730   */\n      0x20\n        /* \"#utility.yul\":14723:14726   */\n      dup3\n        /* \"#utility.yul\":14719:14731   */\n      add\n        /* \"#utility.yul\":14712:14731   */\n      swap1\n      pop\n        /* \"#utility.yul\":14371:14737   */\n      swap2\n      swap1\n      pop\n      jump\t// out\n        /* \"#utility.yul\":14743:15162   */\n    tag_337:\n        /* \"#utility.yul\":14909:14913   */\n      0x00\n        /* \"#utility.yul\":14947:14949   */\n      0x20\n        /* \"#utility.yul\":14936:14945   */\n      dup3\n        /* \"#utility.yul\":14932:14950   */\n      add\n        /* \"#utility.yul\":14924:14950   */\n      swap1\n      pop\n        /* \"#utility.yul\":14996:15005   */\n      dup2\n        /* \"#utility.yul\":14990:14994   */\n      dup2\n        /* \"#utility.yul\":14986:15006   */\n      sub\n        /* \"#utility.yul\":14982:14983   */\n      0x00\n        /* \"#utility.yul\":14971:14980   */\n      dup4\n        /* \"#utility.yul\":14967:14984   */\n      add\n        /* \"#utility.yul\":14960:15007   */\n      mstore\n        /* \"#utility.yul\":15024:15155   */\n      tag_1414\n        /* \"#utility.yul\":15150:15154   */\n      dup2\n        /* \"#utility.yul\":15024:15155   */\n      tag_1292\n      jump\t// in\n    tag_1414:\n        /* \"#utility.yul\":15016:15155   */\n      swap1\n      pop\n        /* \"#utility.yul\":14743:15162   */\n      swap2\n      swap1\n      pop\n      jump\t// out\n        /* \"#utility.yul\":15168:15342   */\n    tag_1293:\n        /* \"#utility.yul\":15308:15334   */\n      0x47616d65206d75737420626520696e2070726f67726573730000000000000000\n        /* \"#utility.yul\":15304:15305   */\n      0x00\n        /* \"#utility.yul\":15296:15302   */\n      dup3\n        /* \"#utility.yul\":15292:15306   */\n      add\n        /* \"#utility.yul\":15285:15335   */\n      mstore\n        /* \"#utility.yul\":15168:15342   */\n      pop\n      jump\t// out\n        /* \"#utility.yul\":15348:15714   */\n    tag_1294:\n        /* \"#utility.yul\":15490:15493   */\n      0x00\n        /* \"#utility.yul\":15511:15578   */\n      tag_1417\n        /* \"#utility.yul\":15575:15577   */\n      0x18\n        /* \"#utility.yul\":15570:15573   */\n      dup4\n        /* \"#utility.yul\":15511:15578   */\n      tag_1267\n      jump\t// in\n    tag_1417:\n        /* \"#utility.yul\":15504:15578   */\n      swap2\n      pop\n        /* \"#utility.yul\":15587:15680   */\n      tag_1418\n        /* \"#utility.yul\":15676:15679   */\n      dup3\n        /* \"#utility.yul\":15587:15680   */\n      tag_1293\n      jump\t// in\n    tag_1418:\n        /* \"#utility.yul\":15705:15707   */\n      0x20\n        /* \"#utility.yul\":15700:15703   */\n      dup3\n        /* \"#utility.yul\":15696:15708   */\n      add\n        /* \"#utility.yul\":15689:15708   */\n      swap1\n      pop\n        /* \"#utility.yul\":15348:15714   */\n      swap2\n      swap1\n      pop\n      jump\t// out\n        /* \"#utility.yul\":15720:16139   */\n    tag_341:\n        /* \"#utility.yul\":15886:15890   */\n      0x00\n        /* \"#utility.yul\":15924:15926   */\n      0x20\n        /* \"#utility.yul\":15913:15922   */\n      dup3\n        /* \"#utility.yul\":15909:15927   */\n      add\n        /* \"#utility.yul\":15901:15927   */\n      swap1\n      pop\n        /* \"#utility.yul\":15973:15982   */\n      dup2\n        /* \"#utility.yul\":15967:15971   */\n      dup2\n        /* \"#utility.yul\":15963:15983   */\n      sub\n        /* \"#utility.yul\":15959:15960   */\n      0x00\n        /* \"#utility.yul\":15948:15957   */\n      dup4\n        /* \"#utility.yul\":15944:15961   */\n      add\n        /* \"#utility.yul\":15937:15984   */\n      mstore\n        /* \"#utility.yul\":16001:16132   */\n      tag_1420\n        /* \"#utility.yul\":16127:16131   */\n      dup2\n        /* \"#utility.yul\":16001:16132   */\n      tag_1294\n      jump\t// in\n    tag_1420:\n        /* \"#utility.yul\":15993:16132   */\n      swap1\n      pop\n        /* \"#utility.yul\":15720:16139   */\n      swap2\n      swap1\n      pop\n      jump\t// out\n        /* \"#utility.yul\":16145:16555   */\n    tag_1169:\n        /* \"#utility.yul\":16185:16192   */\n      0x00\n        /* \"#utility.yul\":16208:16228   */\n      tag_1422\n        /* \"#utility.yul\":16226:16227   */\n      dup3\n        /* \"#utility.yul\":16208:16228   */\n      tag_1263\n      jump\t// in\n    tag_1422:\n        /* \"#utility.yul\":16203:16228   */\n      swap2\n      pop\n        /* \"#utility.yul\":16242:16262   */\n      tag_1423\n        /* \"#utility.yul\":16260:16261   */\n      dup4\n        /* \"#utility.yul\":16242:16262   */\n      tag_1263\n      jump\t// in\n    tag_1423:\n        /* \"#utility.yul\":16237:16262   */\n      swap3\n      pop\n        /* \"#utility.yul\":16297:16298   */\n      dup3\n        /* \"#utility.yul\":16294:16295   */\n      dup3\n        /* \"#utility.yul\":16290:16299   */\n      mul\n        /* \"#utility.yul\":16319:16349   */\n      tag_1424\n        /* \"#utility.yul\":16337:16348   */\n      dup2\n        /* \"#utility.yul\":16319:16349   */\n      tag_1263\n      jump\t// in\n    tag_1424:\n        /* \"#utility.yul\":16308:16349   */\n      swap2\n      pop\n        /* \"#utility.yul\":16498:16499   */\n      dup3\n        /* \"#utility.yul\":16489:16496   */\n      dup3\n        /* \"#utility.yul\":16485:16500   */\n      div\n        /* \"#utility.yul\":16482:16483   */\n      dup5\n        /* \"#utility.yul\":16479:16501   */\n      eq\n        /* \"#utility.yul\":16459:16460   */\n      dup4\n        /* \"#utility.yul\":16452:16461   */\n      iszero\n        /* \"#utility.yul\":16432:16515   */\n      or\n        /* \"#utility.yul\":16409:16548   */\n      tag_1425\n      jumpi\n        /* \"#utility.yul\":16528:16546   */\n      tag_1426\n      tag_1274\n      jump\t// in\n    tag_1426:\n        /* \"#utility.yul\":16409:16548   */\n    tag_1425:\n        /* \"#utility.yul\":16193:16555   */\n      pop\n        /* \"#utility.yul\":16145:16555   */\n      swap3\n      swap2\n      pop\n      pop\n      jump\t// out\n        /* \"#utility.yul\":16561:16640   */\n    tag_1295:\n        /* \"#utility.yul\":16600:16607   */\n      0x00\n        /* \"#utility.yul\":16629:16634   */\n      dup2\n        /* \"#utility.yul\":16618:16634   */\n      swap1\n      pop\n        /* \"#utility.yul\":16561:16640   */\n      swap2\n      swap1\n      pop\n      jump\t// out\n        /* \"#utility.yul\":16646:16803   */\n    tag_1296:\n        /* \"#utility.yul\":16751:16796   */\n      tag_1429\n        /* \"#utility.yul\":16771:16795   */\n      tag_1430\n        /* \"#utility.yul\":16789:16794   */\n      dup3\n        /* \"#utility.yul\":16771:16795   */\n      tag_1263\n      jump\t// in\n    tag_1430:\n        /* \"#utility.yul\":16751:16796   */\n      tag_1295\n      jump\t// in\n    tag_1429:\n        /* \"#utility.yul\":16746:16749   */\n      dup3\n        /* \"#utility.yul\":16739:16797   */\n      mstore\n        /* \"#utility.yul\":16646:16803   */\n      pop\n      pop\n      jump\t// out\n        /* \"#utility.yul\":16809:16935   */\n    tag_1297:\n        /* \"#utility.yul\":16846:16853   */\n      0x00\n        /* \"#utility.yul\":16886:16928   */\n      0xffffffffffffffffffffffffffffffffffffffff\n        /* \"#utility.yul\":16879:16884   */\n      dup3\n        /* \"#utility.yul\":16875:16929   */\n      and\n        /* \"#utility.yul\":16864:16929   */\n      swap1\n      pop\n        /* \"#utility.yul\":16809:16935   */\n      swap2\n      swap1\n      pop\n      jump\t// out\n        /* \"#utility.yul\":16941:17037   */\n    tag_1298:\n        /* \"#utility.yul\":16978:16985   */\n      0x00\n        /* \"#utility.yul\":17007:17031   */\n      tag_1433\n        /* \"#utility.yul\":17025:17030   */\n      dup3\n        /* \"#utility.yul\":17007:17031   */\n      tag_1297\n      jump\t// in\n    tag_1433:\n        /* \"#utility.yul\":16996:17031   */\n      swap1\n      pop\n        /* \"#utility.yul\":16941:17037   */\n      swap2\n      swap1\n      pop\n      jump\t// out\n        /* \"#utility.yul\":17043:17137   */\n    tag_1299:\n        /* \"#utility.yul\":17076:17084   */\n      0x00\n        /* \"#utility.yul\":17124:17129   */\n      dup2\n        /* \"#utility.yul\":17120:17122   */\n      0x60\n        /* \"#utility.yul\":17116:17130   */\n      shl\n        /* \"#utility.yul\":17095:17130   */\n      swap1\n      pop\n        /* \"#utility.yul\":17043:17137   */\n      swap2\n      swap1\n      pop\n      jump\t// out\n        /* \"#utility.yul\":17143:17237   */\n    tag_1300:\n        /* \"#utility.yul\":17182:17189   */\n      0x00\n        /* \"#utility.yul\":17211:17231   */\n      tag_1436\n        /* \"#utility.yul\":17225:17230   */\n      dup3\n        /* \"#utility.yul\":17211:17231   */\n      tag_1299\n      jump\t// in\n    tag_1436:\n        /* \"#utility.yul\":17200:17231   */\n      swap1\n      pop\n        /* \"#utility.yul\":17143:17237   */\n      swap2\n      swap1\n      pop\n      jump\t// out\n        /* \"#utility.yul\":17243:17343   */\n    tag_1301:\n        /* \"#utility.yul\":17282:17289   */\n      0x00\n        /* \"#utility.yul\":17311:17337   */\n      tag_1438\n        /* \"#utility.yul\":17331:17336   */\n      dup3\n        /* \"#utility.yul\":17311:17337   */\n      tag_1300\n      jump\t// in\n    tag_1438:\n        /* \"#utility.yul\":17300:17337   */\n      swap1\n      pop\n        /* \"#utility.yul\":17243:17343   */\n      swap2\n      swap1\n      pop\n      jump\t// out\n        /* \"#utility.yul\":17349:17506   */\n    tag_1302:\n        /* \"#utility.yul\":17454:17499   */\n      tag_1440\n        /* \"#utility.yul\":17474:17498   */\n      tag_1441\n        /* \"#utility.yul\":17492:17497   */\n      dup3\n        /* \"#utility.yul\":17474:17498   */\n      tag_1298\n      jump\t// in\n    tag_1441:\n        /* \"#utility.yul\":17454:17499   */\n      tag_1301\n      jump\t// in\n    tag_1440:\n        /* \"#utility.yul\":17449:17452   */\n      dup3\n        /* \"#utility.yul\":17442:17500   */\n      mstore\n        /* \"#utility.yul\":17349:17506   */\n      pop\n      pop\n      jump\t// out\n        /* \"#utility.yul\":17512:18050   */\n    tag_1172:\n        /* \"#utility.yul\":17680:17683   */\n      0x00\n        /* \"#utility.yul\":17695:17770   */\n      tag_1443\n        /* \"#utility.yul\":17766:17769   */\n      dup3\n        /* \"#utility.yul\":17757:17763   */\n      dup7\n        /* \"#utility.yul\":17695:17770   */\n      tag_1296\n      jump\t// in\n    tag_1443:\n        /* \"#utility.yul\":17795:17797   */\n      0x20\n        /* \"#utility.yul\":17790:17793   */\n      dup3\n        /* \"#utility.yul\":17786:17798   */\n      add\n        /* \"#utility.yul\":17779:17798   */\n      swap2\n      pop\n        /* \"#utility.yul\":17808:17883   */\n      tag_1444\n        /* \"#utility.yul\":17879:17882   */\n      dup3\n        /* \"#utility.yul\":17870:17876   */\n      dup6\n        /* \"#utility.yul\":17808:17883   */\n      tag_1302\n      jump\t// in\n    tag_1444:\n        /* \"#utility.yul\":17908:17910   */\n      0x14\n        /* \"#utility.yul\":17903:17906   */\n      dup3\n        /* \"#utility.yul\":17899:17911   */\n      add\n        /* \"#utility.yul\":17892:17911   */\n      swap2\n      pop\n        /* \"#utility.yul\":17921:17996   */\n      tag_1445\n        /* \"#utility.yul\":17992:17995   */\n      dup3\n        /* \"#utility.yul\":17983:17989   */\n      dup5\n        /* \"#utility.yul\":17921:17996   */\n      tag_1296\n      jump\t// in\n    tag_1445:\n        /* \"#utility.yul\":18021:18023   */\n      0x20\n        /* \"#utility.yul\":18016:18019   */\n      dup3\n        /* \"#utility.yul\":18012:18024   */\n      add\n        /* \"#utility.yul\":18005:18024   */\n      swap2\n      pop\n        /* \"#utility.yul\":18041:18044   */\n      dup2\n        /* \"#utility.yul\":18034:18044   */\n      swap1\n      pop\n        /* \"#utility.yul\":17512:18050   */\n      swap5\n      swap4\n      pop\n      pop\n      pop\n      pop\n      jump\t// out\n        /* \"#utility.yul\":18056:18236   */\n    tag_1187:\n        /* \"#utility.yul\":18104:18181   */\n      0x4e487b7100000000000000000000000000000000000000000000000000000000\n        /* \"#utility.yul\":18101:18102   */\n      0x00\n        /* \"#utility.yul\":18094:18182   */\n      mstore\n        /* \"#utility.yul\":18201:18205   */\n      0x12\n        /* \"#utility.yul\":18198:18199   */\n      0x04\n        /* \"#utility.yul\":18191:18206   */\n      mstore\n        /* \"#utility.yul\":18225:18229   */\n      0x24\n        /* \"#utility.yul\":18222:18223   */\n      0x00\n        /* \"#utility.yul\":18215:18230   */\n      revert\n        /* \"#utility.yul\":18242:18418   */\n    tag_1174:\n        /* \"#utility.yul\":18274:18275   */\n      0x00\n        /* \"#utility.yul\":18291:18311   */\n      tag_1448\n        /* \"#utility.yul\":18309:18310   */\n      dup3\n        /* \"#utility.yul\":18291:18311   */\n      tag_1263\n      jump\t// in\n    tag_1448:\n        /* \"#utility.yul\":18286:18311   */\n      swap2\n      pop\n        /* \"#utility.yul\":18325:18345   */\n      tag_1449\n        /* \"#utility.yul\":18343:18344   */\n      dup4\n        /* \"#utility.yul\":18325:18345   */\n      tag_1263\n      jump\t// in\n    tag_1449:\n        /* \"#utility.yul\":18320:18345   */\n      swap3\n      pop\n        /* \"#utility.yul\":18364:18365   */\n      dup3\n        /* \"#utility.yul\":18354:18389   */\n      tag_1450\n      jumpi\n        /* \"#utility.yul\":18369:18387   */\n      tag_1451\n      tag_1187\n      jump\t// in\n    tag_1451:\n        /* \"#utility.yul\":18354:18389   */\n    tag_1450:\n        /* \"#utility.yul\":18410:18411   */\n      dup3\n        /* \"#utility.yul\":18407:18408   */\n      dup3\n        /* \"#utility.yul\":18403:18412   */\n      mod\n        /* \"#utility.yul\":18398:18412   */\n      swap1\n      pop\n        /* \"#utility.yul\":18242:18418   */\n      swap3\n      swap2\n      pop\n      pop\n      jump\t// out\n        /* \"#utility.yul\":18424:18604   */\n    tag_1181:\n        /* \"#utility.yul\":18472:18549   */\n      0x4e487b7100000000000000000000000000000000000000000000000000000000\n        /* \"#utility.yul\":18469:18470   */\n      0x00\n        /* \"#utility.yul\":18462:18550   */\n      mstore\n        /* \"#utility.yul\":18569:18573   */\n      0x41\n        /* \"#utility.yul\":18566:18567   */\n      0x04\n        /* \"#utility.yul\":18559:18574   */\n      mstore\n        /* \"#utility.yul\":18593:18597   */\n      0x24\n        /* \"#utility.yul\":18590:18591   */\n      0x00\n        /* \"#utility.yul\":18583:18598   */\n      revert\n\n    auxdata: 0xa2646970667358221220151372284a7d6eacdf8e460d5ee73b404579cd6e950daddb1296ee5fdb7813e464736f6c63430008110033\n}\n",
				"bytecode": {
					"linkReferences": {},
					"object": "60806040526000600155600060025560006003556000600455600060055560006006556000600755600060585560006059556000605a556000605b556000605c556000605d556000605e556000605f5560006060556000606160006101000a81548173ffffffffffffffffffffffffffffffffffffffff021916908373ffffffffffffffffffffffffffffffffffffffff1602179055506000606260006101000a81548173ffffffffffffffffffffffffffffffffffffffff021916908373ffffffffffffffffffffffffffffffffffffffff1602179055503480156100e457600080fd5b506142cf806100f46000396000f3fe60806040526004361061014b5760003560e01c806367084eb3116100b6578063c5c3cd781161006f578063c5c3cd781461045d578063c9f09d3814610488578063cdc7ea511461049f578063d0017a0c146104ca578063d24257c0146104f5578063dae10ed5146105205761014b565b806367084eb3146103375780638914d63b146103625780638bbb236f1461038d578063908a0979146103ca578063a10926d6146103f5578063bdbe451b146104205761014b565b80633c3248d5116101085780633c3248d5146102465780633fb64e751461027157806353a218c91461029c578063553df021146102d95780635629365b146102f0578063651f066a1461030c5761014b565b806310fe7c481461015057806313bf01ed1461016c57806316dd37dd146101975780632626ab08146101d4578063325eb3f5146101ff5780633519a2f81461022a575b600080fd5b61016a6004803603810190610165919061388e565b610537565b005b34801561017857600080fd5b506101816106d4565b60405161018e91906138ca565b60405180910390f35b3480156101a357600080fd5b506101be60048036038101906101b991906138e5565b6106da565b6040516101cb91906138ca565b60405180910390f35b3480156101e057600080fd5b506101e9610708565b6040516101f691906138ca565b60405180910390f35b34801561020b57600080fd5b5061021461070d565b60405161022191906138ca565b60405180910390f35b610244600480360381019061023f919061388e565b610713565b005b34801561025257600080fd5b5061025b610c42565b60405161026891906138ca565b60405180910390f35b34801561027d57600080fd5b50610286610c48565b60405161029391906138ca565b60405180910390f35b3480156102a857600080fd5b506102c360048036038101906102be91906138e5565b610c4e565b6040516102d091906138ca565b60405180910390f35b3480156102e557600080fd5b506102ee610c7c565b005b61030a6004803603810190610305919061388e565b611127565b005b34801561031857600080fd5b50610321611345565b60405161032e91906138ca565b60405180910390f35b34801561034357600080fd5b5061034c61134b565b60405161035991906138ca565b60405180910390f35b34801561036e57600080fd5b50610377611351565b60405161038491906138ca565b60405180910390f35b34801561039957600080fd5b506103b460048036038101906103af91906138e5565b611357565b6040516103c191906138ca565b60405180910390f35b3480156103d657600080fd5b506103df611385565b6040516103ec91906138ca565b60405180910390f35b34801561040157600080fd5b5061040a61138b565b60405161041791906138ca565b60405180910390f35b34801561042c57600080fd5b50610447600480360381019061044291906138e5565b611391565b60405161045491906138ca565b60405180910390f35b34801561046957600080fd5b506104726113bf565b60405161047f91906138ca565b60405180910390f35b34801561049457600080fd5b5061049d6113c5565b005b3480156104ab57600080fd5b506104b46114a5565b6040516104c191906138ca565b60405180910390f35b3480156104d657600080fd5b506104df6114ab565b6040516104ec91906138ca565b60405180910390f35b34801561050157600080fd5b5061050a6114b7565b60405161051791906138ca565b60405180910390f35b34801561052c57600080fd5b506105356114bd565b005b600454600134101580156105535750670de0b6b3a76400003411155b61055c57600080fd5b60035460045411156105a3576040517f08c379a000000000000000000000000000000000000000000000000000000000815260040161059a906139a8565b60405180910390fd5b606160009054906101000a900473ffffffffffffffffffffffffffffffffffffffff1673ffffffffffffffffffffffffffffffffffffffff163373ffffffffffffffffffffffffffffffffffffffff1614610633576040517f08c379a000000000000000000000000000000000000000000000000000000000815260040161062a90613a14565b60405180910390fd5b60008054906101000a900460ff1615610681576040517f08c379a000000000000000000000000000000000000000000000000000000000815260040161067890613a80565b60405180910390fd5b60016000806101000a81548160ff021916908315150217905550816003546106a99190613acf565b6003819055508160048190555060008060006101000a81548160ff0219169083151502179055505050565b605d5481565b604882600281106106ea57600080fd5b6002020181600281106106fc57600080fd5b01600091509150505481565b600181565b605a5481565b80600073ffffffffffffffffffffffffffffffffffffffff16606260009054906101000a900473ffffffffffffffffffffffffffffffffffffffff1673ffffffffffffffffffffffffffffffffffffffff1614806107bf5750600073ffffffffffffffffffffffffffffffffffffffff16606160009054906101000a900473ffffffffffffffffffffffffffffffffffffffff1673ffffffffffffffffffffffffffffffffffffffff16145b806108175750606260009054906101000a900473ffffffffffffffffffffffffffffffffffffffff1673ffffffffffffffffffffffffffffffffffffffff163373ffffffffffffffffffffffffffffffffffffffff16145b8061086f5750606160009054906101000a900473ffffffffffffffffffffffffffffffffffffffff1673ffffffffffffffffffffffffffffffffffffffff163373ffffffffffffffffffffffffffffffffffffffff16145b6108ae576040517f08c379a00000000000000000000000000000000000000000000000000000000081526004016108a590613b75565b60405180910390fd5b60008114806108bd5750600181145b6108fc576040517f08c379a00000000000000000000000000000000000000000000000000000000081526004016108f390613c07565b60405180910390fd5b60008203610a9d57606260009054906101000a900473ffffffffffffffffffffffffffffffffffffffff1673ffffffffffffffffffffffffffffffffffffffff163373ffffffffffffffffffffffffffffffffffffffff1614806109ae5750600073ffffffffffffffffffffffffffffffffffffffff16606260009054906101000a900473ffffffffffffffffffffffffffffffffffffffff1673ffffffffffffffffffffffffffffffffffffffff16145b8015610a085750606160009054906101000a900473ffffffffffffffffffffffffffffffffffffffff1673ffffffffffffffffffffffffffffffffffffffff163373ffffffffffffffffffffffffffffffffffffffff1614155b610a47576040517f08c379a0000000000000000000000000000000000000000000000000000000008152600401610a3e90613c99565b60405180910390fd5b33606260006101000a81548173ffffffffffffffffffffffffffffffffffffffff021916908373ffffffffffffffffffffffffffffffffffffffff16021790555034600254610a969190613cb9565b6002819055505b60018203610c3e57606160009054906101000a900473ffffffffffffffffffffffffffffffffffffffff1673ffffffffffffffffffffffffffffffffffffffff163373ffffffffffffffffffffffffffffffffffffffff161480610b4f5750600073ffffffffffffffffffffffffffffffffffffffff16606160009054906101000a900473ffffffffffffffffffffffffffffffffffffffff1673ffffffffffffffffffffffffffffffffffffffff16145b8015610ba95750606260009054906101000a900473ffffffffffffffffffffffffffffffffffffffff1673ffffffffffffffffffffffffffffffffffffffff163373ffffffffffffffffffffffffffffffffffffffff1614155b610be8576040517f08c379a0000000000000000000000000000000000000000000000000000000008152600401610bdf90613d5f565b60405180910390fd5b33606160006101000a81548173ffffffffffffffffffffffffffffffffffffffff021916908373ffffffffffffffffffffffffffffffffffffffff16021790555034600354610c379190613cb9565b6003819055505b5050565b605e5481565b60015481565b604c8260028110610c5e57600080fd5b600202018160028110610c7057600080fd5b01600091509150505481565b60008054906101000a900460ff1615610cca576040517f08c379a0000000000000000000000000000000000000000000000000000000008152600401610cc190613a80565b60405180910390fd5b60016000806101000a81548160ff021916908315150217905550600180819055506000605e819055506000605a819055506000605b819055506000605e819055506000605f819055506000605d819055506000605c8190555060006048600160028110610d3a57610d39613d7f565b5b60020201600060028110610d5157610d50613d7f565b5b018190555060006048600160028110610d6d57610d6c613d7f565b5b60020201600160028110610d8457610d83613d7f565b5b01819055506000600190505b600f8111610ee157600060088260108110610dae57610dad613d7f565b5b60020201600060028110610dc557610dc4613d7f565b5b0181905550600060088260108110610de057610ddf613d7f565b5b60020201600160028110610df757610df6613d7f565b5b0181905550600060288260108110610e1257610e11613d7f565b5b60020201600060028110610e2957610e28613d7f565b5b0181905550600060288260108110610e4457610e43613d7f565b5b60020201600160028110610e5b57610e5a613d7f565b5b01819055506004811015610ece57600060508260048110610e7f57610e7e613d7f565b5b60020201600060028110610e9657610e95613d7f565b5b0181905550600060508260048110610eb157610eb0613d7f565b5b60020201600160028110610ec857610ec7613d7f565b5b01819055505b8080610ed990613dae565b915050610d90565b50610eec600361185a565b610f6a6050600480602002604051908101604052809291906000905b82821015610f6157838260020201600280602002604051908101604052809291908260028015610f4d576020028201915b815481526020019060010190808311610f39575b505050505081526020019060010190610f08565b50505050611b18565b6050906004610f7a929190613724565b50610fe16050600160048110610f9357610f92613d7f565b5b60020201600060028110610faa57610fa9613d7f565b5b01546050600160048110610fc157610fc0613d7f565b5b60020201600160028110610fd857610fd7613d7f565b5b01546001611e7a565b6110476050600260048110610ff957610ff8613d7f565b5b600202016000600281106110105761100f613d7f565b5b0154605060026004811061102757611026613d7f565b5b6002020160016002811061103e5761103d613d7f565b5b01546001611f65565b6110ad605060036004811061105f5761105e613d7f565b5b6002020160006002811061107657611075613d7f565b5b0154605060036004811061108d5761108c613d7f565b5b600202016001600281106110a4576110a3613d7f565b5b01546002611e7a565b6110b5612050565b6110bd6122c5565b6110c561253a565b6110cd612ace565b601560486001600281106110e4576110e3613d7f565b5b600202016001600281106110fb576110fa613d7f565b5b01540361110b5761110a612f66565b5b60008060006101000a81548160ff021916908315150217905550565b8060006003541161116d576040517f08c379a000000000000000000000000000000000000000000000000000000000815260040161116490613e68565b60405180910390fd5b606160009054906101000a900473ffffffffffffffffffffffffffffffffffffffff1673ffffffffffffffffffffffffffffffffffffffff163373ffffffffffffffffffffffffffffffffffffffff16146111fd576040517f08c379a00000000000000000000000000000000000000000000000000000000081526004016111f490613efa565b60405180910390fd5b600354811115611242576040517f08c379a000000000000000000000000000000000000000000000000000000000815260040161123990613f8c565b60405180910390fd5b60008054906101000a900460ff1615611290576040517f08c379a000000000000000000000000000000000000000000000000000000000815260040161128790613a80565b60405180910390fd5b60016000806101000a81548160ff021916908315150217905550816003546112b89190613acf565b600381905550606160009054906101000a900473ffffffffffffffffffffffffffffffffffffffff1673ffffffffffffffffffffffffffffffffffffffff166108fc839081150290604051600060405180830381858888f19350505050158015611326573d6000803e3d6000fd5b5060008060006101000a81548160ff0219169083151502179055505050565b60035481565b60025481565b60585481565b6028826010811061136757600080fd5b60020201816002811061137957600080fd5b01600091509150505481565b60595481565b605f5481565b600882601081106113a157600080fd5b6002020181600281106113b357600080fd5b01600091509150505481565b605b5481565b6000605e541461140a576040517f08c379a000000000000000000000000000000000000000000000000000000000815260040161140190613ff8565b60405180910390fd5b6000605a541461144f576040517f08c379a000000000000000000000000000000000000000000000000000000000815260040161144690614064565b60405180910390fd5b6001805414611493576040517f08c379a000000000000000000000000000000000000000000000000000000000815260040161148a906140d0565b60405180910390fd5b6001605e819055506114a3612ace565b565b605c5481565b670de0b6b3a764000081565b60045481565b6001805414611501576040517f08c379a00000000000000000000000000000000000000000000000000000000081526004016114f8906140d0565b60405180910390fd5b6000605a5414611546576040517f08c379a000000000000000000000000000000000000000000000000000000000815260040161153d90614064565b60405180910390fd5b6000605e541461158b576040517f08c379a000000000000000000000000000000000000000000000000000000000815260040161158290613ff8565b60405180910390fd5b600061160b6008601080602002604051908101604052809291906000905b82821015611602578382600202016002806020026040519081016040528092919082600280156115ee576020028201915b8154815260200190600101908083116115da575b5050505050815260200190600101906115a9565b50505050613220565b9050611617600161185a565b6000600190505b600b81116117d5575b605060016004811061163c5761163b613d7f565b5b6002020160006002811061165357611652613d7f565b5b01546008826010811061166957611668613d7f565b5b600202016000600281106116805761167f613d7f565b5b01541480156116e75750605060016004811061169f5761169e613d7f565b5b600202016001600281106116b6576116b5613d7f565b5b0154600882601081106116cc576116cb613d7f565b5b600202016000600281106116e3576116e2613d7f565b5b0154145b806117ae5750605060016004811061170257611701613d7f565b5b6002020160006002811061171957611718613d7f565b5b01546028826010811061172f5761172e613d7f565b5b6002020160006002811061174657611745613d7f565b5b01541480156117ad5750605060016004811061176557611764613d7f565b5b6002020160016002811061177c5761177b613d7f565b5b01546028826010811061179257611791613d7f565b5b600202016001600281106117a9576117a8613d7f565b5b0154145b5b156117c2576117bd600161185a565b611627565b80806117cd90613dae565b91505061161e565b5061184760506001600481106117ee576117ed613d7f565b5b6002020160006002811061180557611804613d7f565b5b0154605060016004811061181c5761181b613d7f565b5b6002020160016002811061183357611832613d7f565b5b01546001846118429190613cb9565b611e7a565b61184f612050565b611857612ace565b50565b600060405180602001604052806000815250905060006040518060200160405280600081525090506000806001905060005b858211611b1057600060039050600060049050600060078190555060006006819055506118b7613298565b6005819055506118c860055461334c565b96506118d582828961341a565b95506118e08661352f565b9250865194505b60018310806118f65750600d83115b801561190d575060038561190a9190613acf565b82105b156119a15760028261191f9190613cb9565b915060028161192e9190613cb9565b905061193b82828961341a565b95506119468661352f565b92506003856119559190613acf565b82111561199c57600391506004905061196c613298565b60058190555061197d60055461334c565b965061198a82828961341a565b95506119958661352f565b9250865194505b6118e7565b826007819055506002826119b59190613cb9565b91506002816119c49190613cb9565b90506119d182828961341a565b95506119dc8661352f565b92505b60018310806119ee5750600483115b8015611a055750600385611a029190613acf565b82105b15611a8d57600182611a179190613cb9565b9150819050611a2782828961341a565b9550611a328661352f565b9250600385611a419190613acf565b821115611a88576004915060049050611a58613298565b600581905550611a6960055461334c565b9650611a7682828961341a565b9550611a818661352f565b9250865194505b6119df565b8260068190555060075460508560048110611aab57611aaa613d7f565b5b60020201600060028110611ac257611ac1613d7f565b5b018190555060065460508560048110611ade57611add613d7f565b5b60020201600160028110611af557611af4613d7f565b5b0181905550600184611b079190613cb9565b9350505061188c565b505050505050565b611b20613775565b5b81600260048110611b3557611b34613d7f565b5b6020020151600060028110611b4d57611b4c613d7f565b5b602002015182600160048110611b6657611b65613d7f565b5b6020020151600060028110611b7e57611b7d613d7f565b5b6020020151148015611bef575081600260048110611b9f57611b9e613d7f565b5b6020020151600160028110611bb757611bb6613d7f565b5b602002015182600160048110611bd057611bcf613d7f565b5b6020020151600160028110611be857611be7613d7f565b5b6020020151145b15611cc957611bfe600161185a565b6050600260048110611c1357611c12613d7f565b5b60020201600060028110611c2a57611c29613d7f565b5b015482600160048110611c4057611c3f613d7f565b5b6020020151600060028110611c5857611c57613d7f565b5b6020020181815250506050600160048110611c7657611c75613d7f565b5b60020201600160028110611c8d57611c8c613d7f565b5b015482600260048110611ca357611ca2613d7f565b5b6020020151600160028110611cbb57611cba613d7f565b5b602002018181525050611b21565b5b81600360048110611cde57611cdd613d7f565b5b6020020151600060028110611cf657611cf5613d7f565b5b602002015182600260048110611d0f57611d0e613d7f565b5b6020020151600060028110611d2757611d26613d7f565b5b6020020151148015611d98575081600360048110611d4857611d47613d7f565b5b6020020151600160028110611d6057611d5f613d7f565b5b602002015182600260048110611d7957611d78613d7f565b5b6020020151600160028110611d9157611d90613d7f565b5b6020020151145b15611e7257611da7600161185a565b6050600160048110611dbc57611dbb613d7f565b5b60020201600060028110611dd357611dd2613d7f565b5b015482600360048110611de957611de8613d7f565b5b6020020151600060028110611e0157611e00613d7f565b5b6020020181815250506050600160048110611e1f57611e1e613d7f565b5b60020201600160028110611e3657611e35613d7f565b5b015482600360048110611e4c57611e4b613d7f565b5b6020020151600160028110611e6457611e63613d7f565b5b602002018181525050611cca565b819050919050565b8260088260108110611e8f57611e8e613d7f565b5b60020201600060028110611ea657611ea5613d7f565b5b01819055508160088260108110611ec057611ebf613d7f565b5b60020201600160028110611ed757611ed6613d7f565b5b0181905550611f5a6008601080602002604051908101604052809291906000905b82821015611f5157838260020201600280602002604051908101604052809291908260028015611f3d576020028201915b815481526020019060010190808311611f29575b505050505081526020019060010190611ef8565b50505050613220565b605881905550505050565b8260288260108110611f7a57611f79613d7f565b5b60020201600060028110611f9157611f90613d7f565b5b01819055508160288260108110611fab57611faa613d7f565b5b60020201600160028110611fc257611fc1613d7f565b5b01819055506120456028601080602002604051908101604052809291906000905b8282101561203c57838260020201600280602002604051908101604052809291908260028015612028576020028201915b815481526020019060010190808311612014575b505050505081526020019060010190611fe3565b50505050613220565b605981905550505050565b6000806120d16008601080602002604051908101604052809291906000905b828210156120c8578382600202016002806020026040519081016040528092919082600280156120b4576020028201915b8154815260200190600101908083116120a0575b50505050508152602001906001019061206f565b50505050613220565b6058819055506000600190505b60585481116121e8576009600882601081106120fd576120fc613d7f565b5b6002020160006002811061211457612113613d7f565b5b0154111561212c57600a836121299190613cb9565b92505b600a6008826010811061214257612141613d7f565b5b6002020160006002811061215957612158613d7f565b5b0154101561219c576008816010811061217557612174613d7f565b5b6002020160006002811061218c5761218b613d7f565b5b0154836121999190613cb9565b92505b6001600882601081106121b2576121b1613d7f565b5b600202016000600281106121c9576121c8613d7f565b5b0154036121d557600191505b80806121e090613dae565b9150506120de565b508160486001600281106121ff576121fe613d7f565b5b6002020160006002811061221657612215613d7f565b5b018190555081604860016002811061223157612230613d7f565b5b6002020160016002811061224857612247613d7f565b5b0181905550600181036122c157600a604860016002811061226c5761226b613d7f565b5b6002020160016002811061228357612282613d7f565b5b015461228f9190613cb9565b60486001600281106122a4576122a3613d7f565b5b600202016001600281106122bb576122ba613d7f565b5b01819055505b5050565b6000806123466028601080602002604051908101604052809291906000905b8282101561233d57838260020201600280602002604051908101604052809291908260028015612329576020028201915b815481526020019060010190808311612315575b5050505050815260200190600101906122e4565b50505050613220565b6059819055506000600190505b605954811161245d5760096028826010811061237257612371613d7f565b5b6002020160006002811061238957612388613d7f565b5b015411156123a157600a8361239e9190613cb9565b92505b600a602882601081106123b7576123b6613d7f565b5b600202016000600281106123ce576123cd613d7f565b5b0154101561241157602881601081106123ea576123e9613d7f565b5b6002020160006002811061240157612400613d7f565b5b01548361240e9190613cb9565b92505b60016028826010811061242757612426613d7f565b5b6002020160006002811061243e5761243d613d7f565b5b01540361244a57600191505b808061245590613dae565b915050612353565b5081604c60016002811061247457612473613d7f565b5b6002020160006002811061248b5761248a613d7f565b5b018190555081604c6001600281106124a6576124a5613d7f565b5b600202016001600281106124bd576124bc613d7f565b5b01819055506001810361253657600a604c6001600281106124e1576124e0613d7f565b5b600202016001600281106124f8576124f7613d7f565b5b01546125049190613cb9565b604c60016002811061251957612518613d7f565b5b600202016001600281106125305761252f613d7f565b5b01819055505b5050565b6015604c60016002811061255157612550613d7f565b5b6002020160006002811061256857612567613d7f565b5b01541180156125a457506015604c60016002811061258957612588613d7f565b5b600202016001600281106125a05761259f613d7f565b5b0154115b156126e7576001605b819055506000600181905550604c6001600281106125ce576125cd613d7f565b5b600202016001600281106125e5576125e4613d7f565b5b0154604c6001600281106125fc576125fb613d7f565b5b6002020160006002811061261357612612613d7f565b5b01541161264f57604c60016002811061262f5761262e613d7f565b5b6002020160006002811061264657612645613d7f565b5b0154605d819055505b604c60016002811061266457612663613d7f565b5b6002020160016002811061267b5761267a613d7f565b5b0154604c60016002811061269257612691613d7f565b5b600202016000600281106126a9576126a8613d7f565b5b015411156126e657604c6001600281106126c6576126c5613d7f565b5b600202016001600281106126dd576126dc613d7f565b5b0154605d819055505b5b6015604c6001600281106126fe576126fd613d7f565b5b6002020160006002811061271557612714613d7f565b5b01541115801561275257506015604c60016002811061273757612736613d7f565b5b6002020160016002811061274e5761274d613d7f565b5b0154115b1561278c57604c60016002811061276c5761276b613d7f565b5b6002020160006002811061278357612782613d7f565b5b0154605d819055505b6015604c6001600281106127a3576127a2613d7f565b5b600202016000600281106127ba576127b9613d7f565b5b01541180156127f75750601560486001600281106127db576127da613d7f565b5b600202016001600281106127f2576127f1613d7f565b5b015411155b1561283157604c60016002811061281157612810613d7f565b5b6002020160016002811061282857612827613d7f565b5b0154605d819055505b6015604c60016002811061284857612847613d7f565b5b6002020160006002811061285f5761285e613d7f565b5b01541115801561289d57506015604c60016002811061288157612880613d7f565b5b6002020160016002811061289857612897613d7f565b5b015411155b156129d057604c6001600281106128b7576128b6613d7f565b5b600202016001600281106128ce576128cd613d7f565b5b0154604c6001600281106128e5576128e4613d7f565b5b600202016000600281106128fc576128fb613d7f565b5b0154111561293957604c60016002811061291957612918613d7f565b5b600202016000600281106129305761292f613d7f565b5b0154605d819055505b604c60016002811061294e5761294d613d7f565b5b6002020160016002811061296557612964613d7f565b5b0154604c60016002811061297c5761297b613d7f565b5b6002020160006002811061299357612992613d7f565b5b0154116129cf57604c6001600281106129af576129ae613d7f565b5b600202016001600281106129c6576129c5613d7f565b5b0154605d819055505b5b6010604c6001600281106129e7576129e6613d7f565b5b600202016000600281106129fe576129fd613d7f565b5b01541180612a3957506010604c600160028110612a1e57612a1d613d7f565b5b60020201600160028110612a3557612a34613d7f565b5b0154115b15612acc5760006001819055506015604c600160028110612a5d57612a5c613d7f565b5b60020201600060028110612a7457612a73613d7f565b5b0154118015612ab057506015604c600160028110612a9557612a94613d7f565b5b60020201600160028110612aac57612aab613d7f565b5b0154115b15612ac2576001605b81905550612acb565b6001605f819055505b5b565b60156048600160028110612ae557612ae4613d7f565b5b60020201600060028110612afc57612afb613d7f565b5b0154118015612b38575060156048600160028110612b1d57612b1c613d7f565b5b60020201600160028110612b3457612b33613d7f565b5b0154115b15612c7b576001605a8190555060006001819055506048600160028110612b6257612b61613d7f565b5b60020201600160028110612b7957612b78613d7f565b5b01546048600160028110612b9057612b8f613d7f565b5b60020201600060028110612ba757612ba6613d7f565b5b015411612be3576048600160028110612bc357612bc2613d7f565b5b60020201600060028110612bda57612bd9613d7f565b5b0154605c819055505b6048600160028110612bf857612bf7613d7f565b5b60020201600160028110612c0f57612c0e613d7f565b5b01546048600160028110612c2657612c25613d7f565b5b60020201600060028110612c3d57612c3c613d7f565b5b01541115612c7a576048600160028110612c5a57612c59613d7f565b5b60020201600160028110612c7157612c70613d7f565b5b0154605c819055505b5b60156048600160028110612c9257612c91613d7f565b5b60020201600060028110612ca957612ca8613d7f565b5b015411158015612ce6575060156048600160028110612ccb57612cca613d7f565b5b60020201600160028110612ce257612ce1613d7f565b5b0154115b15612d20576048600160028110612d0057612cff613d7f565b5b60020201600060028110612d1757612d16613d7f565b5b0154605c819055505b60156048600160028110612d3757612d36613d7f565b5b60020201600060028110612d4e57612d4d613d7f565b5b0154118015612d8b575060156048600160028110612d6f57612d6e613d7f565b5b60020201600160028110612d8657612d85613d7f565b5b015411155b15612dc5576048600160028110612da557612da4613d7f565b5b60020201600160028110612dbc57612dbb613d7f565b5b0154605c819055505b60156048600160028110612ddc57612ddb613d7f565b5b60020201600060028110612df357612df2613d7f565b5b015411158015612e31575060156048600160028110612e1557612e14613d7f565b5b60020201600160028110612e2c57612e2b613d7f565b5b015411155b15612f64576048600160028110612e4b57612e4a613d7f565b5b60020201600160028110612e6257612e61613d7f565b5b01546048600160028110612e7957612e78613d7f565b5b60020201600060028110612e9057612e8f613d7f565b5b01541115612ecd576048600160028110612ead57612eac613d7f565b5b60020201600060028110612ec457612ec3613d7f565b5b0154605c819055505b6048600160028110612ee257612ee1613d7f565b5b60020201600160028110612ef957612ef8613d7f565b5b01546048600160028110612f1057612f0f613d7f565b5b60020201600060028110612f2757612f26613d7f565b5b015411612f63576048600160028110612f4357612f42613d7f565b5b60020201600160028110612f5a57612f59613d7f565b5b0154605c819055505b5b565b600060018190555060016028600160108110612f8557612f84613d7f565b5b60020201600060028110612f9c57612f9b613d7f565b5b01540361321e57612fad600161185a565b6000600190505b60018111613168575b6050600160048110612fd257612fd1613d7f565b5b60020201600060028110612fe957612fe8613d7f565b5b015460088260108110612fff57612ffe613d7f565b5b6002020160006002811061301657613015613d7f565b5b0154148061307c5750605060016004811061303457613033613d7f565b5b6002020160006002811061304b5761304a613d7f565b5b01546028826010811061306157613060613d7f565b5b6002020160006002811061307857613077613d7f565b5b0154145b1561315557605060016004811061309657613095613d7f565b5b600202016001600281106130ad576130ac613d7f565b5b0154600882601081106130c3576130c2613d7f565b5b600202016001600281106130da576130d9613d7f565b5b01541480613140575060506001600481106130f8576130f7613d7f565b5b6002020160016002811061310f5761310e613d7f565b5b01546028826010811061312557613124613d7f565b5b6002020160016002811061313c5761313b613d7f565b5b0154145b156131505761314f600161185a565b5b612fbd565b808061316090613dae565b915050612fb4565b506131cf605060016004811061318157613180613d7f565b5b6002020160006002811061319857613197613d7f565b5b015460506001600481106131af576131ae613d7f565b5b600202016001600281106131c6576131c5613d7f565b5b01546002611f65565b6131d76122c5565b6131df61253a565b6015604c6001600281106131f6576131f5613d7f565b5b6002020160016002811061320d5761320c613d7f565b5b01540361321d5761321c6135c7565b5b5b565b6000806000905060005b601082101561328e57600084836010811061324857613247613d7f565b5b60200201516000600281106132605761325f613d7f565b5b60200201511461327a576001816132779190613cb9565b90505b6001826132879190613cb9565b915061322a565b8092505050919050565b6000606060008154809291906132ad90613dae565b91905055507f028f5c28f5c28f5c28f5c28f5c28f5c28f5c28f5c28f5c28f5c28f5c28f5c28f60036060546132e291906140f0565b436132ed9190613cb9565b33606054604051602001613303939291906141cd565b6040516020818303038152906040528051906020012060001c6133269190614239565b6005819055506060600081548092919061333f90613dae565b9190505550600554905090565b60606000600161335b846135d1565b01905060008167ffffffffffffffff81111561337a5761337961426a565b5b6040519080825280601f01601f1916602001820160405280156133ac5781602001600182028036833780820191505090505b509050600082602001820190505b60011561340f578080600190039150507f3031323334353637383961626364656600000000000000000000000000000000600a86061a8153600a85816134035761340261420a565b5b049450600085036133ba575b819350505050919050565b606060006001858561342c9190613acf565b6134369190613cb9565b67ffffffffffffffff81111561344f5761344e61426a565b5b6040519080825280601f01601f1916602001820160405280156134815781602001600182028036833780820191505090505b50905060005b85856134939190613acf565b81116135235783600187836134a89190613cb9565b6134b29190613acf565b815181106134c3576134c2613d7f565b5b602001015160f81c60f81b8282815181106134e1576134e0613d7f565b5b60200101907effffffffffffffffffffffffffffffffffffffffffffffffffffffffffffff1916908160001a905350808061351b90613dae565b915050613487565b50809150509392505050565b6000808290506000805b82518110156135bc57600083828151811061355757613556613d7f565b5b602001015160f81c60f81b60f81c60ff1690506030811015801561357c575060398111155b156135a85760308161358e9190613acf565b600a8461359b91906140f0565b6135a59190613cb9565b92505b5080806135b490613dae565b915050613539565b508092505050919050565b6000600181905550565b600080600090507a184f03e93ff9f4daa797ed6e38ed64bf6a1f010000000000000000831061362f577a184f03e93ff9f4daa797ed6e38ed64bf6a1f01000000000000000083816136255761362461420a565b5b0492506040810190505b6d04ee2d6d415b85acef8100000000831061366c576d04ee2d6d415b85acef810000000083816136625761366161420a565b5b0492506020810190505b662386f26fc10000831061369b57662386f26fc1000083816136915761369061420a565b5b0492506010810190505b6305f5e10083106136c4576305f5e10083816136ba576136b961420a565b5b0492506008810190505b61271083106136e95761271083816136df576136de61420a565b5b0492506004810190505b6064831061370c57606483816137025761370161420a565b5b0492506002810190505b600a831061371b576001810190505b80915050919050565b8260046002028101928215613764579160200282015b82811115613763578251829060026137539291906137a2565b509160200191906002019061373a565b5b50905061377191906137e2565b5090565b60405180608001604052806004905b61378c613806565b8152602001906001900390816137845790505090565b82600281019282156137d1579160200282015b828111156137d05782518255916020019190600101906137b5565b5b5090506137de9190613828565b5090565b5b8082111561380257600081816137f99190613845565b506002016137e3565b5090565b6040518060400160405280600290602082028036833780820191505090505090565b5b80821115613841576000816000905550600101613829565b5090565b506000815560010160009055565b600080fd5b6000819050919050565b61386b81613858565b811461387657600080fd5b50565b60008135905061388881613862565b92915050565b6000602082840312156138a4576138a3613853565b5b60006138b284828501613879565b91505092915050565b6138c481613858565b82525050565b60006020820190506138df60008301846138bb565b92915050565b600080604083850312156138fc576138fb613853565b5b600061390a85828601613879565b925050602061391b85828601613879565b9150509250929050565b600082825260208201905092915050565b7f42657420616d6f756e74206973206d6f7265207468616e2067616d652062616c60008201527f616e636500000000000000000000000000000000000000000000000000000000602082015250565b6000613992602483613925565b915061399d82613936565b604082019050919050565b600060208201905081810360008301526139c181613985565b9050919050565b7f4f6e6c7920706c617965722063616e20706c6163652062657400000000000000600082015250565b60006139fe601983613925565b9150613a09826139c8565b602082019050919050565b60006020820190508181036000830152613a2d816139f1565b9050919050565b7f5265656e7472616e6379206e6f7420616c6c6f77656400000000000000000000600082015250565b6000613a6a601683613925565b9150613a7582613a34565b602082019050919050565b60006020820190508181036000830152613a9981613a5d565b9050919050565b7f4e487b7100000000000000000000000000000000000000000000000000000000600052601160045260246000fd5b6000613ada82613858565b9150613ae583613858565b9250828203905081811115613afd57613afc613aa0565b5b92915050565b7f526567697374726174696f6e2061646472657373206973206e6f742076616c6960008201527f6400000000000000000000000000000000000000000000000000000000000000602082015250565b6000613b5f602183613925565b9150613b6a82613b03565b604082019050919050565b60006020820190508181036000830152613b8e81613b52565b9050919050565b7f506c61796572206d75737420626520686f757365283029206f7220706c61796560008201527f7228312900000000000000000000000000000000000000000000000000000000602082015250565b6000613bf1602483613925565b9150613bfc82613b95565b604082019050919050565b60006020820190508181036000830152613c2081613be4565b9050919050565b7f53656e6465722061646472657373206d75737420626520686f75736557616c6c60008201527f6574000000000000000000000000000000000000000000000000000000000000602082015250565b6000613c83602283613925565b9150613c8e82613c27565b604082019050919050565b60006020820190508181036000830152613cb281613c76565b9050919050565b6000613cc482613858565b9150613ccf83613858565b9250828201905080821115613ce757613ce6613aa0565b5b92915050565b7f53656e6465722061646472657373206d75737420626520706c6179657257616c60008201527f6c65740000000000000000000000000000000000000000000000000000000000602082015250565b6000613d49602383613925565b9150613d5482613ced565b604082019050919050565b60006020820190508181036000830152613d7881613d3c565b9050919050565b7f4e487b7100000000000000000000000000000000000000000000000000000000600052603260045260246000fd5b6000613db982613858565b91507fffffffffffffffffffffffffffffffffffffffffffffffffffffffffffffffff8203613deb57613dea613aa0565b5b600182019050919050565b7f506c6179657220686173206e6f2062616c616e636520746f207769746864726160008201527f7700000000000000000000000000000000000000000000000000000000000000602082015250565b6000613e52602183613925565b9150613e5d82613df6565b604082019050919050565b60006020820190508181036000830152613e8181613e45565b9050919050565b7f4f6e6c7920706c617965722063616e2075736520746869732066756e6374696f60008201527f6e20776974686472617700000000000000000000000000000000000000000000602082015250565b6000613ee4602a83613925565b9150613eef82613e88565b604082019050919050565b60006020820190508181036000830152613f1381613ed7565b9050919050565b7f596f75206172652072657175657374696e67206d6f7265207468616e2074686560008201527f20706c617965722077616c6c657420636f6e7461696e73000000000000000000602082015250565b6000613f76603783613925565b9150613f8182613f1a565b604082019050919050565b60006020820190508181036000830152613fa581613f69565b9050919050565b7f506c617965722068617320616c72656164792073746f6f640000000000000000600082015250565b6000613fe2601883613925565b9150613fed82613fac565b602082019050919050565b6000602082019050818103600083015261401181613fd5565b9050919050565b7f596f7527766520616c7265616479206275737465640000000000000000000000600082015250565b600061404e601583613925565b915061405982614018565b602082019050919050565b6000602082019050818103600083015261407d81614041565b9050919050565b7f47616d65206d75737420626520696e2070726f67726573730000000000000000600082015250565b60006140ba601883613925565b91506140c582614084565b602082019050919050565b600060208201905081810360008301526140e9816140ad565b9050919050565b60006140fb82613858565b915061410683613858565b925082820261411481613858565b9150828204841483151761412b5761412a613aa0565b5b5092915050565b6000819050919050565b61414d61414882613858565b614132565b82525050565b600073ffffffffffffffffffffffffffffffffffffffff82169050919050565b600061417e82614153565b9050919050565b60008160601b9050919050565b600061419d82614185565b9050919050565b60006141af82614192565b9050919050565b6141c76141c282614173565b6141a4565b82525050565b60006141d9828661413c565b6020820191506141e982856141b6565b6014820191506141f9828461413c565b602082019150819050949350505050565b7f4e487b7100000000000000000000000000000000000000000000000000000000600052601260045260246000fd5b600061424482613858565b915061424f83613858565b92508261425f5761425e61420a565b5b828206905092915050565b7f4e487b7100000000000000000000000000000000000000000000000000000000600052604160045260246000fdfea2646970667358221220151372284a7d6eacdf8e460d5ee73b404579cd6e950daddb1296ee5fdb7813e464736f6c63430008110033",
					"opcodes": "PUSH1 0x80 PUSH1 0x40 MSTORE PUSH1 0x0 PUSH1 0x1 SSTORE PUSH1 0x0 PUSH1 0x2 SSTORE PUSH1 0x0 PUSH1 0x3 SSTORE PUSH1 0x0 PUSH1 0x4 SSTORE PUSH1 0x0 PUSH1 0x5 SSTORE PUSH1 0x0 PUSH1 0x6 SSTORE PUSH1 0x0 PUSH1 0x7 SSTORE PUSH1 0x0 PUSH1 0x58 SSTORE PUSH1 0x0 PUSH1 0x59 SSTORE PUSH1 0x0 PUSH1 0x5A SSTORE PUSH1 0x0 PUSH1 0x5B SSTORE PUSH1 0x0 PUSH1 0x5C SSTORE PUSH1 0x0 PUSH1 0x5D SSTORE PUSH1 0x0 PUSH1 0x5E SSTORE PUSH1 0x0 PUSH1 0x5F SSTORE PUSH1 0x0 PUSH1 0x60 SSTORE PUSH1 0x0 PUSH1 0x61 PUSH1 0x0 PUSH2 0x100 EXP DUP2 SLOAD DUP2 PUSH20 0xFFFFFFFFFFFFFFFFFFFFFFFFFFFFFFFFFFFFFFFF MUL NOT AND SWAP1 DUP4 PUSH20 0xFFFFFFFFFFFFFFFFFFFFFFFFFFFFFFFFFFFFFFFF AND MUL OR SWAP1 SSTORE POP PUSH1 0x0 PUSH1 0x62 PUSH1 0x0 PUSH2 0x100 EXP DUP2 SLOAD DUP2 PUSH20 0xFFFFFFFFFFFFFFFFFFFFFFFFFFFFFFFFFFFFFFFF MUL NOT AND SWAP1 DUP4 PUSH20 0xFFFFFFFFFFFFFFFFFFFFFFFFFFFFFFFFFFFFFFFF AND MUL OR SWAP1 SSTORE POP CALLVALUE DUP1 ISZERO PUSH2 0xE4 JUMPI PUSH1 0x0 DUP1 REVERT JUMPDEST POP PUSH2 0x42CF DUP1 PUSH2 0xF4 PUSH1 0x0 CODECOPY PUSH1 0x0 RETURN INVALID PUSH1 0x80 PUSH1 0x40 MSTORE PUSH1 0x4 CALLDATASIZE LT PUSH2 0x14B JUMPI PUSH1 0x0 CALLDATALOAD PUSH1 0xE0 SHR DUP1 PUSH4 0x67084EB3 GT PUSH2 0xB6 JUMPI DUP1 PUSH4 0xC5C3CD78 GT PUSH2 0x6F JUMPI DUP1 PUSH4 0xC5C3CD78 EQ PUSH2 0x45D JUMPI DUP1 PUSH4 0xC9F09D38 EQ PUSH2 0x488 JUMPI DUP1 PUSH4 0xCDC7EA51 EQ PUSH2 0x49F JUMPI DUP1 PUSH4 0xD0017A0C EQ PUSH2 0x4CA JUMPI DUP1 PUSH4 0xD24257C0 EQ PUSH2 0x4F5 JUMPI DUP1 PUSH4 0xDAE10ED5 EQ PUSH2 0x520 JUMPI PUSH2 0x14B JUMP JUMPDEST DUP1 PUSH4 0x67084EB3 EQ PUSH2 0x337 JUMPI DUP1 PUSH4 0x8914D63B EQ PUSH2 0x362 JUMPI DUP1 PUSH4 0x8BBB236F EQ PUSH2 0x38D JUMPI DUP1 PUSH4 0x908A0979 EQ PUSH2 0x3CA JUMPI DUP1 PUSH4 0xA10926D6 EQ PUSH2 0x3F5 JUMPI DUP1 PUSH4 0xBDBE451B EQ PUSH2 0x420 JUMPI PUSH2 0x14B JUMP JUMPDEST DUP1 PUSH4 0x3C3248D5 GT PUSH2 0x108 JUMPI DUP1 PUSH4 0x3C3248D5 EQ PUSH2 0x246 JUMPI DUP1 PUSH4 0x3FB64E75 EQ PUSH2 0x271 JUMPI DUP1 PUSH4 0x53A218C9 EQ PUSH2 0x29C JUMPI DUP1 PUSH4 0x553DF021 EQ PUSH2 0x2D9 JUMPI DUP1 PUSH4 0x5629365B EQ PUSH2 0x2F0 JUMPI DUP1 PUSH4 0x651F066A EQ PUSH2 0x30C JUMPI PUSH2 0x14B JUMP JUMPDEST DUP1 PUSH4 0x10FE7C48 EQ PUSH2 0x150 JUMPI DUP1 PUSH4 0x13BF01ED EQ PUSH2 0x16C JUMPI DUP1 PUSH4 0x16DD37DD EQ PUSH2 0x197 JUMPI DUP1 PUSH4 0x2626AB08 EQ PUSH2 0x1D4 JUMPI DUP1 PUSH4 0x325EB3F5 EQ PUSH2 0x1FF JUMPI DUP1 PUSH4 0x3519A2F8 EQ PUSH2 0x22A JUMPI JUMPDEST PUSH1 0x0 DUP1 REVERT JUMPDEST PUSH2 0x16A PUSH1 0x4 DUP1 CALLDATASIZE SUB DUP2 ADD SWAP1 PUSH2 0x165 SWAP2 SWAP1 PUSH2 0x388E JUMP JUMPDEST PUSH2 0x537 JUMP JUMPDEST STOP JUMPDEST CALLVALUE DUP1 ISZERO PUSH2 0x178 JUMPI PUSH1 0x0 DUP1 REVERT JUMPDEST POP PUSH2 0x181 PUSH2 0x6D4 JUMP JUMPDEST PUSH1 0x40 MLOAD PUSH2 0x18E SWAP2 SWAP1 PUSH2 0x38CA JUMP JUMPDEST PUSH1 0x40 MLOAD DUP1 SWAP2 SUB SWAP1 RETURN JUMPDEST CALLVALUE DUP1 ISZERO PUSH2 0x1A3 JUMPI PUSH1 0x0 DUP1 REVERT JUMPDEST POP PUSH2 0x1BE PUSH1 0x4 DUP1 CALLDATASIZE SUB DUP2 ADD SWAP1 PUSH2 0x1B9 SWAP2 SWAP1 PUSH2 0x38E5 JUMP JUMPDEST PUSH2 0x6DA JUMP JUMPDEST PUSH1 0x40 MLOAD PUSH2 0x1CB SWAP2 SWAP1 PUSH2 0x38CA JUMP JUMPDEST PUSH1 0x40 MLOAD DUP1 SWAP2 SUB SWAP1 RETURN JUMPDEST CALLVALUE DUP1 ISZERO PUSH2 0x1E0 JUMPI PUSH1 0x0 DUP1 REVERT JUMPDEST POP PUSH2 0x1E9 PUSH2 0x708 JUMP JUMPDEST PUSH1 0x40 MLOAD PUSH2 0x1F6 SWAP2 SWAP1 PUSH2 0x38CA JUMP JUMPDEST PUSH1 0x40 MLOAD DUP1 SWAP2 SUB SWAP1 RETURN JUMPDEST CALLVALUE DUP1 ISZERO PUSH2 0x20B JUMPI PUSH1 0x0 DUP1 REVERT JUMPDEST POP PUSH2 0x214 PUSH2 0x70D JUMP JUMPDEST PUSH1 0x40 MLOAD PUSH2 0x221 SWAP2 SWAP1 PUSH2 0x38CA JUMP JUMPDEST PUSH1 0x40 MLOAD DUP1 SWAP2 SUB SWAP1 RETURN JUMPDEST PUSH2 0x244 PUSH1 0x4 DUP1 CALLDATASIZE SUB DUP2 ADD SWAP1 PUSH2 0x23F SWAP2 SWAP1 PUSH2 0x388E JUMP JUMPDEST PUSH2 0x713 JUMP JUMPDEST STOP JUMPDEST CALLVALUE DUP1 ISZERO PUSH2 0x252 JUMPI PUSH1 0x0 DUP1 REVERT JUMPDEST POP PUSH2 0x25B PUSH2 0xC42 JUMP JUMPDEST PUSH1 0x40 MLOAD PUSH2 0x268 SWAP2 SWAP1 PUSH2 0x38CA JUMP JUMPDEST PUSH1 0x40 MLOAD DUP1 SWAP2 SUB SWAP1 RETURN JUMPDEST CALLVALUE DUP1 ISZERO PUSH2 0x27D JUMPI PUSH1 0x0 DUP1 REVERT JUMPDEST POP PUSH2 0x286 PUSH2 0xC48 JUMP JUMPDEST PUSH1 0x40 MLOAD PUSH2 0x293 SWAP2 SWAP1 PUSH2 0x38CA JUMP JUMPDEST PUSH1 0x40 MLOAD DUP1 SWAP2 SUB SWAP1 RETURN JUMPDEST CALLVALUE DUP1 ISZERO PUSH2 0x2A8 JUMPI PUSH1 0x0 DUP1 REVERT JUMPDEST POP PUSH2 0x2C3 PUSH1 0x4 DUP1 CALLDATASIZE SUB DUP2 ADD SWAP1 PUSH2 0x2BE SWAP2 SWAP1 PUSH2 0x38E5 JUMP JUMPDEST PUSH2 0xC4E JUMP JUMPDEST PUSH1 0x40 MLOAD PUSH2 0x2D0 SWAP2 SWAP1 PUSH2 0x38CA JUMP JUMPDEST PUSH1 0x40 MLOAD DUP1 SWAP2 SUB SWAP1 RETURN JUMPDEST CALLVALUE DUP1 ISZERO PUSH2 0x2E5 JUMPI PUSH1 0x0 DUP1 REVERT JUMPDEST POP PUSH2 0x2EE PUSH2 0xC7C JUMP JUMPDEST STOP JUMPDEST PUSH2 0x30A PUSH1 0x4 DUP1 CALLDATASIZE SUB DUP2 ADD SWAP1 PUSH2 0x305 SWAP2 SWAP1 PUSH2 0x388E JUMP JUMPDEST PUSH2 0x1127 JUMP JUMPDEST STOP JUMPDEST CALLVALUE DUP1 ISZERO PUSH2 0x318 JUMPI PUSH1 0x0 DUP1 REVERT JUMPDEST POP PUSH2 0x321 PUSH2 0x1345 JUMP JUMPDEST PUSH1 0x40 MLOAD PUSH2 0x32E SWAP2 SWAP1 PUSH2 0x38CA JUMP JUMPDEST PUSH1 0x40 MLOAD DUP1 SWAP2 SUB SWAP1 RETURN JUMPDEST CALLVALUE DUP1 ISZERO PUSH2 0x343 JUMPI PUSH1 0x0 DUP1 REVERT JUMPDEST POP PUSH2 0x34C PUSH2 0x134B JUMP JUMPDEST PUSH1 0x40 MLOAD PUSH2 0x359 SWAP2 SWAP1 PUSH2 0x38CA JUMP JUMPDEST PUSH1 0x40 MLOAD DUP1 SWAP2 SUB SWAP1 RETURN JUMPDEST CALLVALUE DUP1 ISZERO PUSH2 0x36E JUMPI PUSH1 0x0 DUP1 REVERT JUMPDEST POP PUSH2 0x377 PUSH2 0x1351 JUMP JUMPDEST PUSH1 0x40 MLOAD PUSH2 0x384 SWAP2 SWAP1 PUSH2 0x38CA JUMP JUMPDEST PUSH1 0x40 MLOAD DUP1 SWAP2 SUB SWAP1 RETURN JUMPDEST CALLVALUE DUP1 ISZERO PUSH2 0x399 JUMPI PUSH1 0x0 DUP1 REVERT JUMPDEST POP PUSH2 0x3B4 PUSH1 0x4 DUP1 CALLDATASIZE SUB DUP2 ADD SWAP1 PUSH2 0x3AF SWAP2 SWAP1 PUSH2 0x38E5 JUMP JUMPDEST PUSH2 0x1357 JUMP JUMPDEST PUSH1 0x40 MLOAD PUSH2 0x3C1 SWAP2 SWAP1 PUSH2 0x38CA JUMP JUMPDEST PUSH1 0x40 MLOAD DUP1 SWAP2 SUB SWAP1 RETURN JUMPDEST CALLVALUE DUP1 ISZERO PUSH2 0x3D6 JUMPI PUSH1 0x0 DUP1 REVERT JUMPDEST POP PUSH2 0x3DF PUSH2 0x1385 JUMP JUMPDEST PUSH1 0x40 MLOAD PUSH2 0x3EC SWAP2 SWAP1 PUSH2 0x38CA JUMP JUMPDEST PUSH1 0x40 MLOAD DUP1 SWAP2 SUB SWAP1 RETURN JUMPDEST CALLVALUE DUP1 ISZERO PUSH2 0x401 JUMPI PUSH1 0x0 DUP1 REVERT JUMPDEST POP PUSH2 0x40A PUSH2 0x138B JUMP JUMPDEST PUSH1 0x40 MLOAD PUSH2 0x417 SWAP2 SWAP1 PUSH2 0x38CA JUMP JUMPDEST PUSH1 0x40 MLOAD DUP1 SWAP2 SUB SWAP1 RETURN JUMPDEST CALLVALUE DUP1 ISZERO PUSH2 0x42C JUMPI PUSH1 0x0 DUP1 REVERT JUMPDEST POP PUSH2 0x447 PUSH1 0x4 DUP1 CALLDATASIZE SUB DUP2 ADD SWAP1 PUSH2 0x442 SWAP2 SWAP1 PUSH2 0x38E5 JUMP JUMPDEST PUSH2 0x1391 JUMP JUMPDEST PUSH1 0x40 MLOAD PUSH2 0x454 SWAP2 SWAP1 PUSH2 0x38CA JUMP JUMPDEST PUSH1 0x40 MLOAD DUP1 SWAP2 SUB SWAP1 RETURN JUMPDEST CALLVALUE DUP1 ISZERO PUSH2 0x469 JUMPI PUSH1 0x0 DUP1 REVERT JUMPDEST POP PUSH2 0x472 PUSH2 0x13BF JUMP JUMPDEST PUSH1 0x40 MLOAD PUSH2 0x47F SWAP2 SWAP1 PUSH2 0x38CA JUMP JUMPDEST PUSH1 0x40 MLOAD DUP1 SWAP2 SUB SWAP1 RETURN JUMPDEST CALLVALUE DUP1 ISZERO PUSH2 0x494 JUMPI PUSH1 0x0 DUP1 REVERT JUMPDEST POP PUSH2 0x49D PUSH2 0x13C5 JUMP JUMPDEST STOP JUMPDEST CALLVALUE DUP1 ISZERO PUSH2 0x4AB JUMPI PUSH1 0x0 DUP1 REVERT JUMPDEST POP PUSH2 0x4B4 PUSH2 0x14A5 JUMP JUMPDEST PUSH1 0x40 MLOAD PUSH2 0x4C1 SWAP2 SWAP1 PUSH2 0x38CA JUMP JUMPDEST PUSH1 0x40 MLOAD DUP1 SWAP2 SUB SWAP1 RETURN JUMPDEST CALLVALUE DUP1 ISZERO PUSH2 0x4D6 JUMPI PUSH1 0x0 DUP1 REVERT JUMPDEST POP PUSH2 0x4DF PUSH2 0x14AB JUMP JUMPDEST PUSH1 0x40 MLOAD PUSH2 0x4EC SWAP2 SWAP1 PUSH2 0x38CA JUMP JUMPDEST PUSH1 0x40 MLOAD DUP1 SWAP2 SUB SWAP1 RETURN JUMPDEST CALLVALUE DUP1 ISZERO PUSH2 0x501 JUMPI PUSH1 0x0 DUP1 REVERT JUMPDEST POP PUSH2 0x50A PUSH2 0x14B7 JUMP JUMPDEST PUSH1 0x40 MLOAD PUSH2 0x517 SWAP2 SWAP1 PUSH2 0x38CA JUMP JUMPDEST PUSH1 0x40 MLOAD DUP1 SWAP2 SUB SWAP1 RETURN JUMPDEST CALLVALUE DUP1 ISZERO PUSH2 0x52C JUMPI PUSH1 0x0 DUP1 REVERT JUMPDEST POP PUSH2 0x535 PUSH2 0x14BD JUMP JUMPDEST STOP JUMPDEST PUSH1 0x4 SLOAD PUSH1 0x1 CALLVALUE LT ISZERO DUP1 ISZERO PUSH2 0x553 JUMPI POP PUSH8 0xDE0B6B3A7640000 CALLVALUE GT ISZERO JUMPDEST PUSH2 0x55C JUMPI PUSH1 0x0 DUP1 REVERT JUMPDEST PUSH1 0x3 SLOAD PUSH1 0x4 SLOAD GT ISZERO PUSH2 0x5A3 JUMPI PUSH1 0x40 MLOAD PUSH32 0x8C379A000000000000000000000000000000000000000000000000000000000 DUP2 MSTORE PUSH1 0x4 ADD PUSH2 0x59A SWAP1 PUSH2 0x39A8 JUMP JUMPDEST PUSH1 0x40 MLOAD DUP1 SWAP2 SUB SWAP1 REVERT JUMPDEST PUSH1 0x61 PUSH1 0x0 SWAP1 SLOAD SWAP1 PUSH2 0x100 EXP SWAP1 DIV PUSH20 0xFFFFFFFFFFFFFFFFFFFFFFFFFFFFFFFFFFFFFFFF AND PUSH20 0xFFFFFFFFFFFFFFFFFFFFFFFFFFFFFFFFFFFFFFFF AND CALLER PUSH20 0xFFFFFFFFFFFFFFFFFFFFFFFFFFFFFFFFFFFFFFFF AND EQ PUSH2 0x633 JUMPI PUSH1 0x40 MLOAD PUSH32 0x8C379A000000000000000000000000000000000000000000000000000000000 DUP2 MSTORE PUSH1 0x4 ADD PUSH2 0x62A SWAP1 PUSH2 0x3A14 JUMP JUMPDEST PUSH1 0x40 MLOAD DUP1 SWAP2 SUB SWAP1 REVERT JUMPDEST PUSH1 0x0 DUP1 SLOAD SWAP1 PUSH2 0x100 EXP SWAP1 DIV PUSH1 0xFF AND ISZERO PUSH2 0x681 JUMPI PUSH1 0x40 MLOAD PUSH32 0x8C379A000000000000000000000000000000000000000000000000000000000 DUP2 MSTORE PUSH1 0x4 ADD PUSH2 0x678 SWAP1 PUSH2 0x3A80 JUMP JUMPDEST PUSH1 0x40 MLOAD DUP1 SWAP2 SUB SWAP1 REVERT JUMPDEST PUSH1 0x1 PUSH1 0x0 DUP1 PUSH2 0x100 EXP DUP2 SLOAD DUP2 PUSH1 0xFF MUL NOT AND SWAP1 DUP4 ISZERO ISZERO MUL OR SWAP1 SSTORE POP DUP2 PUSH1 0x3 SLOAD PUSH2 0x6A9 SWAP2 SWAP1 PUSH2 0x3ACF JUMP JUMPDEST PUSH1 0x3 DUP2 SWAP1 SSTORE POP DUP2 PUSH1 0x4 DUP2 SWAP1 SSTORE POP PUSH1 0x0 DUP1 PUSH1 0x0 PUSH2 0x100 EXP DUP2 SLOAD DUP2 PUSH1 0xFF MUL NOT AND SWAP1 DUP4 ISZERO ISZERO MUL OR SWAP1 SSTORE POP POP POP JUMP JUMPDEST PUSH1 0x5D SLOAD DUP2 JUMP JUMPDEST PUSH1 0x48 DUP3 PUSH1 0x2 DUP2 LT PUSH2 0x6EA JUMPI PUSH1 0x0 DUP1 REVERT JUMPDEST PUSH1 0x2 MUL ADD DUP2 PUSH1 0x2 DUP2 LT PUSH2 0x6FC JUMPI PUSH1 0x0 DUP1 REVERT JUMPDEST ADD PUSH1 0x0 SWAP2 POP SWAP2 POP POP SLOAD DUP2 JUMP JUMPDEST PUSH1 0x1 DUP2 JUMP JUMPDEST PUSH1 0x5A SLOAD DUP2 JUMP JUMPDEST DUP1 PUSH1 0x0 PUSH20 0xFFFFFFFFFFFFFFFFFFFFFFFFFFFFFFFFFFFFFFFF AND PUSH1 0x62 PUSH1 0x0 SWAP1 SLOAD SWAP1 PUSH2 0x100 EXP SWAP1 DIV PUSH20 0xFFFFFFFFFFFFFFFFFFFFFFFFFFFFFFFFFFFFFFFF AND PUSH20 0xFFFFFFFFFFFFFFFFFFFFFFFFFFFFFFFFFFFFFFFF AND EQ DUP1 PUSH2 0x7BF JUMPI POP PUSH1 0x0 PUSH20 0xFFFFFFFFFFFFFFFFFFFFFFFFFFFFFFFFFFFFFFFF AND PUSH1 0x61 PUSH1 0x0 SWAP1 SLOAD SWAP1 PUSH2 0x100 EXP SWAP1 DIV PUSH20 0xFFFFFFFFFFFFFFFFFFFFFFFFFFFFFFFFFFFFFFFF AND PUSH20 0xFFFFFFFFFFFFFFFFFFFFFFFFFFFFFFFFFFFFFFFF AND EQ JUMPDEST DUP1 PUSH2 0x817 JUMPI POP PUSH1 0x62 PUSH1 0x0 SWAP1 SLOAD SWAP1 PUSH2 0x100 EXP SWAP1 DIV PUSH20 0xFFFFFFFFFFFFFFFFFFFFFFFFFFFFFFFFFFFFFFFF AND PUSH20 0xFFFFFFFFFFFFFFFFFFFFFFFFFFFFFFFFFFFFFFFF AND CALLER PUSH20 0xFFFFFFFFFFFFFFFFFFFFFFFFFFFFFFFFFFFFFFFF AND EQ JUMPDEST DUP1 PUSH2 0x86F JUMPI POP PUSH1 0x61 PUSH1 0x0 SWAP1 SLOAD SWAP1 PUSH2 0x100 EXP SWAP1 DIV PUSH20 0xFFFFFFFFFFFFFFFFFFFFFFFFFFFFFFFFFFFFFFFF AND PUSH20 0xFFFFFFFFFFFFFFFFFFFFFFFFFFFFFFFFFFFFFFFF AND CALLER PUSH20 0xFFFFFFFFFFFFFFFFFFFFFFFFFFFFFFFFFFFFFFFF AND EQ JUMPDEST PUSH2 0x8AE JUMPI PUSH1 0x40 MLOAD PUSH32 0x8C379A000000000000000000000000000000000000000000000000000000000 DUP2 MSTORE PUSH1 0x4 ADD PUSH2 0x8A5 SWAP1 PUSH2 0x3B75 JUMP JUMPDEST PUSH1 0x40 MLOAD DUP1 SWAP2 SUB SWAP1 REVERT JUMPDEST PUSH1 0x0 DUP2 EQ DUP1 PUSH2 0x8BD JUMPI POP PUSH1 0x1 DUP2 EQ JUMPDEST PUSH2 0x8FC JUMPI PUSH1 0x40 MLOAD PUSH32 0x8C379A000000000000000000000000000000000000000000000000000000000 DUP2 MSTORE PUSH1 0x4 ADD PUSH2 0x8F3 SWAP1 PUSH2 0x3C07 JUMP JUMPDEST PUSH1 0x40 MLOAD DUP1 SWAP2 SUB SWAP1 REVERT JUMPDEST PUSH1 0x0 DUP3 SUB PUSH2 0xA9D JUMPI PUSH1 0x62 PUSH1 0x0 SWAP1 SLOAD SWAP1 PUSH2 0x100 EXP SWAP1 DIV PUSH20 0xFFFFFFFFFFFFFFFFFFFFFFFFFFFFFFFFFFFFFFFF AND PUSH20 0xFFFFFFFFFFFFFFFFFFFFFFFFFFFFFFFFFFFFFFFF AND CALLER PUSH20 0xFFFFFFFFFFFFFFFFFFFFFFFFFFFFFFFFFFFFFFFF AND EQ DUP1 PUSH2 0x9AE JUMPI POP PUSH1 0x0 PUSH20 0xFFFFFFFFFFFFFFFFFFFFFFFFFFFFFFFFFFFFFFFF AND PUSH1 0x62 PUSH1 0x0 SWAP1 SLOAD SWAP1 PUSH2 0x100 EXP SWAP1 DIV PUSH20 0xFFFFFFFFFFFFFFFFFFFFFFFFFFFFFFFFFFFFFFFF AND PUSH20 0xFFFFFFFFFFFFFFFFFFFFFFFFFFFFFFFFFFFFFFFF AND EQ JUMPDEST DUP1 ISZERO PUSH2 0xA08 JUMPI POP PUSH1 0x61 PUSH1 0x0 SWAP1 SLOAD SWAP1 PUSH2 0x100 EXP SWAP1 DIV PUSH20 0xFFFFFFFFFFFFFFFFFFFFFFFFFFFFFFFFFFFFFFFF AND PUSH20 0xFFFFFFFFFFFFFFFFFFFFFFFFFFFFFFFFFFFFFFFF AND CALLER PUSH20 0xFFFFFFFFFFFFFFFFFFFFFFFFFFFFFFFFFFFFFFFF AND EQ ISZERO JUMPDEST PUSH2 0xA47 JUMPI PUSH1 0x40 MLOAD PUSH32 0x8C379A000000000000000000000000000000000000000000000000000000000 DUP2 MSTORE PUSH1 0x4 ADD PUSH2 0xA3E SWAP1 PUSH2 0x3C99 JUMP JUMPDEST PUSH1 0x40 MLOAD DUP1 SWAP2 SUB SWAP1 REVERT JUMPDEST CALLER PUSH1 0x62 PUSH1 0x0 PUSH2 0x100 EXP DUP2 SLOAD DUP2 PUSH20 0xFFFFFFFFFFFFFFFFFFFFFFFFFFFFFFFFFFFFFFFF MUL NOT AND SWAP1 DUP4 PUSH20 0xFFFFFFFFFFFFFFFFFFFFFFFFFFFFFFFFFFFFFFFF AND MUL OR SWAP1 SSTORE POP CALLVALUE PUSH1 0x2 SLOAD PUSH2 0xA96 SWAP2 SWAP1 PUSH2 0x3CB9 JUMP JUMPDEST PUSH1 0x2 DUP2 SWAP1 SSTORE POP JUMPDEST PUSH1 0x1 DUP3 SUB PUSH2 0xC3E JUMPI PUSH1 0x61 PUSH1 0x0 SWAP1 SLOAD SWAP1 PUSH2 0x100 EXP SWAP1 DIV PUSH20 0xFFFFFFFFFFFFFFFFFFFFFFFFFFFFFFFFFFFFFFFF AND PUSH20 0xFFFFFFFFFFFFFFFFFFFFFFFFFFFFFFFFFFFFFFFF AND CALLER PUSH20 0xFFFFFFFFFFFFFFFFFFFFFFFFFFFFFFFFFFFFFFFF AND EQ DUP1 PUSH2 0xB4F JUMPI POP PUSH1 0x0 PUSH20 0xFFFFFFFFFFFFFFFFFFFFFFFFFFFFFFFFFFFFFFFF AND PUSH1 0x61 PUSH1 0x0 SWAP1 SLOAD SWAP1 PUSH2 0x100 EXP SWAP1 DIV PUSH20 0xFFFFFFFFFFFFFFFFFFFFFFFFFFFFFFFFFFFFFFFF AND PUSH20 0xFFFFFFFFFFFFFFFFFFFFFFFFFFFFFFFFFFFFFFFF AND EQ JUMPDEST DUP1 ISZERO PUSH2 0xBA9 JUMPI POP PUSH1 0x62 PUSH1 0x0 SWAP1 SLOAD SWAP1 PUSH2 0x100 EXP SWAP1 DIV PUSH20 0xFFFFFFFFFFFFFFFFFFFFFFFFFFFFFFFFFFFFFFFF AND PUSH20 0xFFFFFFFFFFFFFFFFFFFFFFFFFFFFFFFFFFFFFFFF AND CALLER PUSH20 0xFFFFFFFFFFFFFFFFFFFFFFFFFFFFFFFFFFFFFFFF AND EQ ISZERO JUMPDEST PUSH2 0xBE8 JUMPI PUSH1 0x40 MLOAD PUSH32 0x8C379A000000000000000000000000000000000000000000000000000000000 DUP2 MSTORE PUSH1 0x4 ADD PUSH2 0xBDF SWAP1 PUSH2 0x3D5F JUMP JUMPDEST PUSH1 0x40 MLOAD DUP1 SWAP2 SUB SWAP1 REVERT JUMPDEST CALLER PUSH1 0x61 PUSH1 0x0 PUSH2 0x100 EXP DUP2 SLOAD DUP2 PUSH20 0xFFFFFFFFFFFFFFFFFFFFFFFFFFFFFFFFFFFFFFFF MUL NOT AND SWAP1 DUP4 PUSH20 0xFFFFFFFFFFFFFFFFFFFFFFFFFFFFFFFFFFFFFFFF AND MUL OR SWAP1 SSTORE POP CALLVALUE PUSH1 0x3 SLOAD PUSH2 0xC37 SWAP2 SWAP1 PUSH2 0x3CB9 JUMP JUMPDEST PUSH1 0x3 DUP2 SWAP1 SSTORE POP JUMPDEST POP POP JUMP JUMPDEST PUSH1 0x5E SLOAD DUP2 JUMP JUMPDEST PUSH1 0x1 SLOAD DUP2 JUMP JUMPDEST PUSH1 0x4C DUP3 PUSH1 0x2 DUP2 LT PUSH2 0xC5E JUMPI PUSH1 0x0 DUP1 REVERT JUMPDEST PUSH1 0x2 MUL ADD DUP2 PUSH1 0x2 DUP2 LT PUSH2 0xC70 JUMPI PUSH1 0x0 DUP1 REVERT JUMPDEST ADD PUSH1 0x0 SWAP2 POP SWAP2 POP POP SLOAD DUP2 JUMP JUMPDEST PUSH1 0x0 DUP1 SLOAD SWAP1 PUSH2 0x100 EXP SWAP1 DIV PUSH1 0xFF AND ISZERO PUSH2 0xCCA JUMPI PUSH1 0x40 MLOAD PUSH32 0x8C379A000000000000000000000000000000000000000000000000000000000 DUP2 MSTORE PUSH1 0x4 ADD PUSH2 0xCC1 SWAP1 PUSH2 0x3A80 JUMP JUMPDEST PUSH1 0x40 MLOAD DUP1 SWAP2 SUB SWAP1 REVERT JUMPDEST PUSH1 0x1 PUSH1 0x0 DUP1 PUSH2 0x100 EXP DUP2 SLOAD DUP2 PUSH1 0xFF MUL NOT AND SWAP1 DUP4 ISZERO ISZERO MUL OR SWAP1 SSTORE POP PUSH1 0x1 DUP1 DUP2 SWAP1 SSTORE POP PUSH1 0x0 PUSH1 0x5E DUP2 SWAP1 SSTORE POP PUSH1 0x0 PUSH1 0x5A DUP2 SWAP1 SSTORE POP PUSH1 0x0 PUSH1 0x5B DUP2 SWAP1 SSTORE POP PUSH1 0x0 PUSH1 0x5E DUP2 SWAP1 SSTORE POP PUSH1 0x0 PUSH1 0x5F DUP2 SWAP1 SSTORE POP PUSH1 0x0 PUSH1 0x5D DUP2 SWAP1 SSTORE POP PUSH1 0x0 PUSH1 0x5C DUP2 SWAP1 SSTORE POP PUSH1 0x0 PUSH1 0x48 PUSH1 0x1 PUSH1 0x2 DUP2 LT PUSH2 0xD3A JUMPI PUSH2 0xD39 PUSH2 0x3D7F JUMP JUMPDEST JUMPDEST PUSH1 0x2 MUL ADD PUSH1 0x0 PUSH1 0x2 DUP2 LT PUSH2 0xD51 JUMPI PUSH2 0xD50 PUSH2 0x3D7F JUMP JUMPDEST JUMPDEST ADD DUP2 SWAP1 SSTORE POP PUSH1 0x0 PUSH1 0x48 PUSH1 0x1 PUSH1 0x2 DUP2 LT PUSH2 0xD6D JUMPI PUSH2 0xD6C PUSH2 0x3D7F JUMP JUMPDEST JUMPDEST PUSH1 0x2 MUL ADD PUSH1 0x1 PUSH1 0x2 DUP2 LT PUSH2 0xD84 JUMPI PUSH2 0xD83 PUSH2 0x3D7F JUMP JUMPDEST JUMPDEST ADD DUP2 SWAP1 SSTORE POP PUSH1 0x0 PUSH1 0x1 SWAP1 POP JUMPDEST PUSH1 0xF DUP2 GT PUSH2 0xEE1 JUMPI PUSH1 0x0 PUSH1 0x8 DUP3 PUSH1 0x10 DUP2 LT PUSH2 0xDAE JUMPI PUSH2 0xDAD PUSH2 0x3D7F JUMP JUMPDEST JUMPDEST PUSH1 0x2 MUL ADD PUSH1 0x0 PUSH1 0x2 DUP2 LT PUSH2 0xDC5 JUMPI PUSH2 0xDC4 PUSH2 0x3D7F JUMP JUMPDEST JUMPDEST ADD DUP2 SWAP1 SSTORE POP PUSH1 0x0 PUSH1 0x8 DUP3 PUSH1 0x10 DUP2 LT PUSH2 0xDE0 JUMPI PUSH2 0xDDF PUSH2 0x3D7F JUMP JUMPDEST JUMPDEST PUSH1 0x2 MUL ADD PUSH1 0x1 PUSH1 0x2 DUP2 LT PUSH2 0xDF7 JUMPI PUSH2 0xDF6 PUSH2 0x3D7F JUMP JUMPDEST JUMPDEST ADD DUP2 SWAP1 SSTORE POP PUSH1 0x0 PUSH1 0x28 DUP3 PUSH1 0x10 DUP2 LT PUSH2 0xE12 JUMPI PUSH2 0xE11 PUSH2 0x3D7F JUMP JUMPDEST JUMPDEST PUSH1 0x2 MUL ADD PUSH1 0x0 PUSH1 0x2 DUP2 LT PUSH2 0xE29 JUMPI PUSH2 0xE28 PUSH2 0x3D7F JUMP JUMPDEST JUMPDEST ADD DUP2 SWAP1 SSTORE POP PUSH1 0x0 PUSH1 0x28 DUP3 PUSH1 0x10 DUP2 LT PUSH2 0xE44 JUMPI PUSH2 0xE43 PUSH2 0x3D7F JUMP JUMPDEST JUMPDEST PUSH1 0x2 MUL ADD PUSH1 0x1 PUSH1 0x2 DUP2 LT PUSH2 0xE5B JUMPI PUSH2 0xE5A PUSH2 0x3D7F JUMP JUMPDEST JUMPDEST ADD DUP2 SWAP1 SSTORE POP PUSH1 0x4 DUP2 LT ISZERO PUSH2 0xECE JUMPI PUSH1 0x0 PUSH1 0x50 DUP3 PUSH1 0x4 DUP2 LT PUSH2 0xE7F JUMPI PUSH2 0xE7E PUSH2 0x3D7F JUMP JUMPDEST JUMPDEST PUSH1 0x2 MUL ADD PUSH1 0x0 PUSH1 0x2 DUP2 LT PUSH2 0xE96 JUMPI PUSH2 0xE95 PUSH2 0x3D7F JUMP JUMPDEST JUMPDEST ADD DUP2 SWAP1 SSTORE POP PUSH1 0x0 PUSH1 0x50 DUP3 PUSH1 0x4 DUP2 LT PUSH2 0xEB1 JUMPI PUSH2 0xEB0 PUSH2 0x3D7F JUMP JUMPDEST JUMPDEST PUSH1 0x2 MUL ADD PUSH1 0x1 PUSH1 0x2 DUP2 LT PUSH2 0xEC8 JUMPI PUSH2 0xEC7 PUSH2 0x3D7F JUMP JUMPDEST JUMPDEST ADD DUP2 SWAP1 SSTORE POP JUMPDEST DUP1 DUP1 PUSH2 0xED9 SWAP1 PUSH2 0x3DAE JUMP JUMPDEST SWAP2 POP POP PUSH2 0xD90 JUMP JUMPDEST POP PUSH2 0xEEC PUSH1 0x3 PUSH2 0x185A JUMP JUMPDEST PUSH2 0xF6A PUSH1 0x50 PUSH1 0x4 DUP1 PUSH1 0x20 MUL PUSH1 0x40 MLOAD SWAP1 DUP2 ADD PUSH1 0x40 MSTORE DUP1 SWAP3 SWAP2 SWAP1 PUSH1 0x0 SWAP1 JUMPDEST DUP3 DUP3 LT ISZERO PUSH2 0xF61 JUMPI DUP4 DUP3 PUSH1 0x2 MUL ADD PUSH1 0x2 DUP1 PUSH1 0x20 MUL PUSH1 0x40 MLOAD SWAP1 DUP2 ADD PUSH1 0x40 MSTORE DUP1 SWAP3 SWAP2 SWAP1 DUP3 PUSH1 0x2 DUP1 ISZERO PUSH2 0xF4D JUMPI PUSH1 0x20 MUL DUP3 ADD SWAP2 JUMPDEST DUP2 SLOAD DUP2 MSTORE PUSH1 0x20 ADD SWAP1 PUSH1 0x1 ADD SWAP1 DUP1 DUP4 GT PUSH2 0xF39 JUMPI JUMPDEST POP POP POP POP POP DUP2 MSTORE PUSH1 0x20 ADD SWAP1 PUSH1 0x1 ADD SWAP1 PUSH2 0xF08 JUMP JUMPDEST POP POP POP POP PUSH2 0x1B18 JUMP JUMPDEST PUSH1 0x50 SWAP1 PUSH1 0x4 PUSH2 0xF7A SWAP3 SWAP2 SWAP1 PUSH2 0x3724 JUMP JUMPDEST POP PUSH2 0xFE1 PUSH1 0x50 PUSH1 0x1 PUSH1 0x4 DUP2 LT PUSH2 0xF93 JUMPI PUSH2 0xF92 PUSH2 0x3D7F JUMP JUMPDEST JUMPDEST PUSH1 0x2 MUL ADD PUSH1 0x0 PUSH1 0x2 DUP2 LT PUSH2 0xFAA JUMPI PUSH2 0xFA9 PUSH2 0x3D7F JUMP JUMPDEST JUMPDEST ADD SLOAD PUSH1 0x50 PUSH1 0x1 PUSH1 0x4 DUP2 LT PUSH2 0xFC1 JUMPI PUSH2 0xFC0 PUSH2 0x3D7F JUMP JUMPDEST JUMPDEST PUSH1 0x2 MUL ADD PUSH1 0x1 PUSH1 0x2 DUP2 LT PUSH2 0xFD8 JUMPI PUSH2 0xFD7 PUSH2 0x3D7F JUMP JUMPDEST JUMPDEST ADD SLOAD PUSH1 0x1 PUSH2 0x1E7A JUMP JUMPDEST PUSH2 0x1047 PUSH1 0x50 PUSH1 0x2 PUSH1 0x4 DUP2 LT PUSH2 0xFF9 JUMPI PUSH2 0xFF8 PUSH2 0x3D7F JUMP JUMPDEST JUMPDEST PUSH1 0x2 MUL ADD PUSH1 0x0 PUSH1 0x2 DUP2 LT PUSH2 0x1010 JUMPI PUSH2 0x100F PUSH2 0x3D7F JUMP JUMPDEST JUMPDEST ADD SLOAD PUSH1 0x50 PUSH1 0x2 PUSH1 0x4 DUP2 LT PUSH2 0x1027 JUMPI PUSH2 0x1026 PUSH2 0x3D7F JUMP JUMPDEST JUMPDEST PUSH1 0x2 MUL ADD PUSH1 0x1 PUSH1 0x2 DUP2 LT PUSH2 0x103E JUMPI PUSH2 0x103D PUSH2 0x3D7F JUMP JUMPDEST JUMPDEST ADD SLOAD PUSH1 0x1 PUSH2 0x1F65 JUMP JUMPDEST PUSH2 0x10AD PUSH1 0x50 PUSH1 0x3 PUSH1 0x4 DUP2 LT PUSH2 0x105F JUMPI PUSH2 0x105E PUSH2 0x3D7F JUMP JUMPDEST JUMPDEST PUSH1 0x2 MUL ADD PUSH1 0x0 PUSH1 0x2 DUP2 LT PUSH2 0x1076 JUMPI PUSH2 0x1075 PUSH2 0x3D7F JUMP JUMPDEST JUMPDEST ADD SLOAD PUSH1 0x50 PUSH1 0x3 PUSH1 0x4 DUP2 LT PUSH2 0x108D JUMPI PUSH2 0x108C PUSH2 0x3D7F JUMP JUMPDEST JUMPDEST PUSH1 0x2 MUL ADD PUSH1 0x1 PUSH1 0x2 DUP2 LT PUSH2 0x10A4 JUMPI PUSH2 0x10A3 PUSH2 0x3D7F JUMP JUMPDEST JUMPDEST ADD SLOAD PUSH1 0x2 PUSH2 0x1E7A JUMP JUMPDEST PUSH2 0x10B5 PUSH2 0x2050 JUMP JUMPDEST PUSH2 0x10BD PUSH2 0x22C5 JUMP JUMPDEST PUSH2 0x10C5 PUSH2 0x253A JUMP JUMPDEST PUSH2 0x10CD PUSH2 0x2ACE JUMP JUMPDEST PUSH1 0x15 PUSH1 0x48 PUSH1 0x1 PUSH1 0x2 DUP2 LT PUSH2 0x10E4 JUMPI PUSH2 0x10E3 PUSH2 0x3D7F JUMP JUMPDEST JUMPDEST PUSH1 0x2 MUL ADD PUSH1 0x1 PUSH1 0x2 DUP2 LT PUSH2 0x10FB JUMPI PUSH2 0x10FA PUSH2 0x3D7F JUMP JUMPDEST JUMPDEST ADD SLOAD SUB PUSH2 0x110B JUMPI PUSH2 0x110A PUSH2 0x2F66 JUMP JUMPDEST JUMPDEST PUSH1 0x0 DUP1 PUSH1 0x0 PUSH2 0x100 EXP DUP2 SLOAD DUP2 PUSH1 0xFF MUL NOT AND SWAP1 DUP4 ISZERO ISZERO MUL OR SWAP1 SSTORE POP JUMP JUMPDEST DUP1 PUSH1 0x0 PUSH1 0x3 SLOAD GT PUSH2 0x116D JUMPI PUSH1 0x40 MLOAD PUSH32 0x8C379A000000000000000000000000000000000000000000000000000000000 DUP2 MSTORE PUSH1 0x4 ADD PUSH2 0x1164 SWAP1 PUSH2 0x3E68 JUMP JUMPDEST PUSH1 0x40 MLOAD DUP1 SWAP2 SUB SWAP1 REVERT JUMPDEST PUSH1 0x61 PUSH1 0x0 SWAP1 SLOAD SWAP1 PUSH2 0x100 EXP SWAP1 DIV PUSH20 0xFFFFFFFFFFFFFFFFFFFFFFFFFFFFFFFFFFFFFFFF AND PUSH20 0xFFFFFFFFFFFFFFFFFFFFFFFFFFFFFFFFFFFFFFFF AND CALLER PUSH20 0xFFFFFFFFFFFFFFFFFFFFFFFFFFFFFFFFFFFFFFFF AND EQ PUSH2 0x11FD JUMPI PUSH1 0x40 MLOAD PUSH32 0x8C379A000000000000000000000000000000000000000000000000000000000 DUP2 MSTORE PUSH1 0x4 ADD PUSH2 0x11F4 SWAP1 PUSH2 0x3EFA JUMP JUMPDEST PUSH1 0x40 MLOAD DUP1 SWAP2 SUB SWAP1 REVERT JUMPDEST PUSH1 0x3 SLOAD DUP2 GT ISZERO PUSH2 0x1242 JUMPI PUSH1 0x40 MLOAD PUSH32 0x8C379A000000000000000000000000000000000000000000000000000000000 DUP2 MSTORE PUSH1 0x4 ADD PUSH2 0x1239 SWAP1 PUSH2 0x3F8C JUMP JUMPDEST PUSH1 0x40 MLOAD DUP1 SWAP2 SUB SWAP1 REVERT JUMPDEST PUSH1 0x0 DUP1 SLOAD SWAP1 PUSH2 0x100 EXP SWAP1 DIV PUSH1 0xFF AND ISZERO PUSH2 0x1290 JUMPI PUSH1 0x40 MLOAD PUSH32 0x8C379A000000000000000000000000000000000000000000000000000000000 DUP2 MSTORE PUSH1 0x4 ADD PUSH2 0x1287 SWAP1 PUSH2 0x3A80 JUMP JUMPDEST PUSH1 0x40 MLOAD DUP1 SWAP2 SUB SWAP1 REVERT JUMPDEST PUSH1 0x1 PUSH1 0x0 DUP1 PUSH2 0x100 EXP DUP2 SLOAD DUP2 PUSH1 0xFF MUL NOT AND SWAP1 DUP4 ISZERO ISZERO MUL OR SWAP1 SSTORE POP DUP2 PUSH1 0x3 SLOAD PUSH2 0x12B8 SWAP2 SWAP1 PUSH2 0x3ACF JUMP JUMPDEST PUSH1 0x3 DUP2 SWAP1 SSTORE POP PUSH1 0x61 PUSH1 0x0 SWAP1 SLOAD SWAP1 PUSH2 0x100 EXP SWAP1 DIV PUSH20 0xFFFFFFFFFFFFFFFFFFFFFFFFFFFFFFFFFFFFFFFF AND PUSH20 0xFFFFFFFFFFFFFFFFFFFFFFFFFFFFFFFFFFFFFFFF AND PUSH2 0x8FC DUP4 SWAP1 DUP2 ISZERO MUL SWAP1 PUSH1 0x40 MLOAD PUSH1 0x0 PUSH1 0x40 MLOAD DUP1 DUP4 SUB DUP2 DUP6 DUP9 DUP9 CALL SWAP4 POP POP POP POP ISZERO DUP1 ISZERO PUSH2 0x1326 JUMPI RETURNDATASIZE PUSH1 0x0 DUP1 RETURNDATACOPY RETURNDATASIZE PUSH1 0x0 REVERT JUMPDEST POP PUSH1 0x0 DUP1 PUSH1 0x0 PUSH2 0x100 EXP DUP2 SLOAD DUP2 PUSH1 0xFF MUL NOT AND SWAP1 DUP4 ISZERO ISZERO MUL OR SWAP1 SSTORE POP POP POP JUMP JUMPDEST PUSH1 0x3 SLOAD DUP2 JUMP JUMPDEST PUSH1 0x2 SLOAD DUP2 JUMP JUMPDEST PUSH1 0x58 SLOAD DUP2 JUMP JUMPDEST PUSH1 0x28 DUP3 PUSH1 0x10 DUP2 LT PUSH2 0x1367 JUMPI PUSH1 0x0 DUP1 REVERT JUMPDEST PUSH1 0x2 MUL ADD DUP2 PUSH1 0x2 DUP2 LT PUSH2 0x1379 JUMPI PUSH1 0x0 DUP1 REVERT JUMPDEST ADD PUSH1 0x0 SWAP2 POP SWAP2 POP POP SLOAD DUP2 JUMP JUMPDEST PUSH1 0x59 SLOAD DUP2 JUMP JUMPDEST PUSH1 0x5F SLOAD DUP2 JUMP JUMPDEST PUSH1 0x8 DUP3 PUSH1 0x10 DUP2 LT PUSH2 0x13A1 JUMPI PUSH1 0x0 DUP1 REVERT JUMPDEST PUSH1 0x2 MUL ADD DUP2 PUSH1 0x2 DUP2 LT PUSH2 0x13B3 JUMPI PUSH1 0x0 DUP1 REVERT JUMPDEST ADD PUSH1 0x0 SWAP2 POP SWAP2 POP POP SLOAD DUP2 JUMP JUMPDEST PUSH1 0x5B SLOAD DUP2 JUMP JUMPDEST PUSH1 0x0 PUSH1 0x5E SLOAD EQ PUSH2 0x140A JUMPI PUSH1 0x40 MLOAD PUSH32 0x8C379A000000000000000000000000000000000000000000000000000000000 DUP2 MSTORE PUSH1 0x4 ADD PUSH2 0x1401 SWAP1 PUSH2 0x3FF8 JUMP JUMPDEST PUSH1 0x40 MLOAD DUP1 SWAP2 SUB SWAP1 REVERT JUMPDEST PUSH1 0x0 PUSH1 0x5A SLOAD EQ PUSH2 0x144F JUMPI PUSH1 0x40 MLOAD PUSH32 0x8C379A000000000000000000000000000000000000000000000000000000000 DUP2 MSTORE PUSH1 0x4 ADD PUSH2 0x1446 SWAP1 PUSH2 0x4064 JUMP JUMPDEST PUSH1 0x40 MLOAD DUP1 SWAP2 SUB SWAP1 REVERT JUMPDEST PUSH1 0x1 DUP1 SLOAD EQ PUSH2 0x1493 JUMPI PUSH1 0x40 MLOAD PUSH32 0x8C379A000000000000000000000000000000000000000000000000000000000 DUP2 MSTORE PUSH1 0x4 ADD PUSH2 0x148A SWAP1 PUSH2 0x40D0 JUMP JUMPDEST PUSH1 0x40 MLOAD DUP1 SWAP2 SUB SWAP1 REVERT JUMPDEST PUSH1 0x1 PUSH1 0x5E DUP2 SWAP1 SSTORE POP PUSH2 0x14A3 PUSH2 0x2ACE JUMP JUMPDEST JUMP JUMPDEST PUSH1 0x5C SLOAD DUP2 JUMP JUMPDEST PUSH8 0xDE0B6B3A7640000 DUP2 JUMP JUMPDEST PUSH1 0x4 SLOAD DUP2 JUMP JUMPDEST PUSH1 0x1 DUP1 SLOAD EQ PUSH2 0x1501 JUMPI PUSH1 0x40 MLOAD PUSH32 0x8C379A000000000000000000000000000000000000000000000000000000000 DUP2 MSTORE PUSH1 0x4 ADD PUSH2 0x14F8 SWAP1 PUSH2 0x40D0 JUMP JUMPDEST PUSH1 0x40 MLOAD DUP1 SWAP2 SUB SWAP1 REVERT JUMPDEST PUSH1 0x0 PUSH1 0x5A SLOAD EQ PUSH2 0x1546 JUMPI PUSH1 0x40 MLOAD PUSH32 0x8C379A000000000000000000000000000000000000000000000000000000000 DUP2 MSTORE PUSH1 0x4 ADD PUSH2 0x153D SWAP1 PUSH2 0x4064 JUMP JUMPDEST PUSH1 0x40 MLOAD DUP1 SWAP2 SUB SWAP1 REVERT JUMPDEST PUSH1 0x0 PUSH1 0x5E SLOAD EQ PUSH2 0x158B JUMPI PUSH1 0x40 MLOAD PUSH32 0x8C379A000000000000000000000000000000000000000000000000000000000 DUP2 MSTORE PUSH1 0x4 ADD PUSH2 0x1582 SWAP1 PUSH2 0x3FF8 JUMP JUMPDEST PUSH1 0x40 MLOAD DUP1 SWAP2 SUB SWAP1 REVERT JUMPDEST PUSH1 0x0 PUSH2 0x160B PUSH1 0x8 PUSH1 0x10 DUP1 PUSH1 0x20 MUL PUSH1 0x40 MLOAD SWAP1 DUP2 ADD PUSH1 0x40 MSTORE DUP1 SWAP3 SWAP2 SWAP1 PUSH1 0x0 SWAP1 JUMPDEST DUP3 DUP3 LT ISZERO PUSH2 0x1602 JUMPI DUP4 DUP3 PUSH1 0x2 MUL ADD PUSH1 0x2 DUP1 PUSH1 0x20 MUL PUSH1 0x40 MLOAD SWAP1 DUP2 ADD PUSH1 0x40 MSTORE DUP1 SWAP3 SWAP2 SWAP1 DUP3 PUSH1 0x2 DUP1 ISZERO PUSH2 0x15EE JUMPI PUSH1 0x20 MUL DUP3 ADD SWAP2 JUMPDEST DUP2 SLOAD DUP2 MSTORE PUSH1 0x20 ADD SWAP1 PUSH1 0x1 ADD SWAP1 DUP1 DUP4 GT PUSH2 0x15DA JUMPI JUMPDEST POP POP POP POP POP DUP2 MSTORE PUSH1 0x20 ADD SWAP1 PUSH1 0x1 ADD SWAP1 PUSH2 0x15A9 JUMP JUMPDEST POP POP POP POP PUSH2 0x3220 JUMP JUMPDEST SWAP1 POP PUSH2 0x1617 PUSH1 0x1 PUSH2 0x185A JUMP JUMPDEST PUSH1 0x0 PUSH1 0x1 SWAP1 POP JUMPDEST PUSH1 0xB DUP2 GT PUSH2 0x17D5 JUMPI JUMPDEST PUSH1 0x50 PUSH1 0x1 PUSH1 0x4 DUP2 LT PUSH2 0x163C JUMPI PUSH2 0x163B PUSH2 0x3D7F JUMP JUMPDEST JUMPDEST PUSH1 0x2 MUL ADD PUSH1 0x0 PUSH1 0x2 DUP2 LT PUSH2 0x1653 JUMPI PUSH2 0x1652 PUSH2 0x3D7F JUMP JUMPDEST JUMPDEST ADD SLOAD PUSH1 0x8 DUP3 PUSH1 0x10 DUP2 LT PUSH2 0x1669 JUMPI PUSH2 0x1668 PUSH2 0x3D7F JUMP JUMPDEST JUMPDEST PUSH1 0x2 MUL ADD PUSH1 0x0 PUSH1 0x2 DUP2 LT PUSH2 0x1680 JUMPI PUSH2 0x167F PUSH2 0x3D7F JUMP JUMPDEST JUMPDEST ADD SLOAD EQ DUP1 ISZERO PUSH2 0x16E7 JUMPI POP PUSH1 0x50 PUSH1 0x1 PUSH1 0x4 DUP2 LT PUSH2 0x169F JUMPI PUSH2 0x169E PUSH2 0x3D7F JUMP JUMPDEST JUMPDEST PUSH1 0x2 MUL ADD PUSH1 0x1 PUSH1 0x2 DUP2 LT PUSH2 0x16B6 JUMPI PUSH2 0x16B5 PUSH2 0x3D7F JUMP JUMPDEST JUMPDEST ADD SLOAD PUSH1 0x8 DUP3 PUSH1 0x10 DUP2 LT PUSH2 0x16CC JUMPI PUSH2 0x16CB PUSH2 0x3D7F JUMP JUMPDEST JUMPDEST PUSH1 0x2 MUL ADD PUSH1 0x0 PUSH1 0x2 DUP2 LT PUSH2 0x16E3 JUMPI PUSH2 0x16E2 PUSH2 0x3D7F JUMP JUMPDEST JUMPDEST ADD SLOAD EQ JUMPDEST DUP1 PUSH2 0x17AE JUMPI POP PUSH1 0x50 PUSH1 0x1 PUSH1 0x4 DUP2 LT PUSH2 0x1702 JUMPI PUSH2 0x1701 PUSH2 0x3D7F JUMP JUMPDEST JUMPDEST PUSH1 0x2 MUL ADD PUSH1 0x0 PUSH1 0x2 DUP2 LT PUSH2 0x1719 JUMPI PUSH2 0x1718 PUSH2 0x3D7F JUMP JUMPDEST JUMPDEST ADD SLOAD PUSH1 0x28 DUP3 PUSH1 0x10 DUP2 LT PUSH2 0x172F JUMPI PUSH2 0x172E PUSH2 0x3D7F JUMP JUMPDEST JUMPDEST PUSH1 0x2 MUL ADD PUSH1 0x0 PUSH1 0x2 DUP2 LT PUSH2 0x1746 JUMPI PUSH2 0x1745 PUSH2 0x3D7F JUMP JUMPDEST JUMPDEST ADD SLOAD EQ DUP1 ISZERO PUSH2 0x17AD JUMPI POP PUSH1 0x50 PUSH1 0x1 PUSH1 0x4 DUP2 LT PUSH2 0x1765 JUMPI PUSH2 0x1764 PUSH2 0x3D7F JUMP JUMPDEST JUMPDEST PUSH1 0x2 MUL ADD PUSH1 0x1 PUSH1 0x2 DUP2 LT PUSH2 0x177C JUMPI PUSH2 0x177B PUSH2 0x3D7F JUMP JUMPDEST JUMPDEST ADD SLOAD PUSH1 0x28 DUP3 PUSH1 0x10 DUP2 LT PUSH2 0x1792 JUMPI PUSH2 0x1791 PUSH2 0x3D7F JUMP JUMPDEST JUMPDEST PUSH1 0x2 MUL ADD PUSH1 0x1 PUSH1 0x2 DUP2 LT PUSH2 0x17A9 JUMPI PUSH2 0x17A8 PUSH2 0x3D7F JUMP JUMPDEST JUMPDEST ADD SLOAD EQ JUMPDEST JUMPDEST ISZERO PUSH2 0x17C2 JUMPI PUSH2 0x17BD PUSH1 0x1 PUSH2 0x185A JUMP JUMPDEST PUSH2 0x1627 JUMP JUMPDEST DUP1 DUP1 PUSH2 0x17CD SWAP1 PUSH2 0x3DAE JUMP JUMPDEST SWAP2 POP POP PUSH2 0x161E JUMP JUMPDEST POP PUSH2 0x1847 PUSH1 0x50 PUSH1 0x1 PUSH1 0x4 DUP2 LT PUSH2 0x17EE JUMPI PUSH2 0x17ED PUSH2 0x3D7F JUMP JUMPDEST JUMPDEST PUSH1 0x2 MUL ADD PUSH1 0x0 PUSH1 0x2 DUP2 LT PUSH2 0x1805 JUMPI PUSH2 0x1804 PUSH2 0x3D7F JUMP JUMPDEST JUMPDEST ADD SLOAD PUSH1 0x50 PUSH1 0x1 PUSH1 0x4 DUP2 LT PUSH2 0x181C JUMPI PUSH2 0x181B PUSH2 0x3D7F JUMP JUMPDEST JUMPDEST PUSH1 0x2 MUL ADD PUSH1 0x1 PUSH1 0x2 DUP2 LT PUSH2 0x1833 JUMPI PUSH2 0x1832 PUSH2 0x3D7F JUMP JUMPDEST JUMPDEST ADD SLOAD PUSH1 0x1 DUP5 PUSH2 0x1842 SWAP2 SWAP1 PUSH2 0x3CB9 JUMP JUMPDEST PUSH2 0x1E7A JUMP JUMPDEST PUSH2 0x184F PUSH2 0x2050 JUMP JUMPDEST PUSH2 0x1857 PUSH2 0x2ACE JUMP JUMPDEST POP JUMP JUMPDEST PUSH1 0x0 PUSH1 0x40 MLOAD DUP1 PUSH1 0x20 ADD PUSH1 0x40 MSTORE DUP1 PUSH1 0x0 DUP2 MSTORE POP SWAP1 POP PUSH1 0x0 PUSH1 0x40 MLOAD DUP1 PUSH1 0x20 ADD PUSH1 0x40 MSTORE DUP1 PUSH1 0x0 DUP2 MSTORE POP SWAP1 POP PUSH1 0x0 DUP1 PUSH1 0x1 SWAP1 POP PUSH1 0x0 JUMPDEST DUP6 DUP3 GT PUSH2 0x1B10 JUMPI PUSH1 0x0 PUSH1 0x3 SWAP1 POP PUSH1 0x0 PUSH1 0x4 SWAP1 POP PUSH1 0x0 PUSH1 0x7 DUP2 SWAP1 SSTORE POP PUSH1 0x0 PUSH1 0x6 DUP2 SWAP1 SSTORE POP PUSH2 0x18B7 PUSH2 0x3298 JUMP JUMPDEST PUSH1 0x5 DUP2 SWAP1 SSTORE POP PUSH2 0x18C8 PUSH1 0x5 SLOAD PUSH2 0x334C JUMP JUMPDEST SWAP7 POP PUSH2 0x18D5 DUP3 DUP3 DUP10 PUSH2 0x341A JUMP JUMPDEST SWAP6 POP PUSH2 0x18E0 DUP7 PUSH2 0x352F JUMP JUMPDEST SWAP3 POP DUP7 MLOAD SWAP5 POP JUMPDEST PUSH1 0x1 DUP4 LT DUP1 PUSH2 0x18F6 JUMPI POP PUSH1 0xD DUP4 GT JUMPDEST DUP1 ISZERO PUSH2 0x190D JUMPI POP PUSH1 0x3 DUP6 PUSH2 0x190A SWAP2 SWAP1 PUSH2 0x3ACF JUMP JUMPDEST DUP3 LT JUMPDEST ISZERO PUSH2 0x19A1 JUMPI PUSH1 0x2 DUP3 PUSH2 0x191F SWAP2 SWAP1 PUSH2 0x3CB9 JUMP JUMPDEST SWAP2 POP PUSH1 0x2 DUP2 PUSH2 0x192E SWAP2 SWAP1 PUSH2 0x3CB9 JUMP JUMPDEST SWAP1 POP PUSH2 0x193B DUP3 DUP3 DUP10 PUSH2 0x341A JUMP JUMPDEST SWAP6 POP PUSH2 0x1946 DUP7 PUSH2 0x352F JUMP JUMPDEST SWAP3 POP PUSH1 0x3 DUP6 PUSH2 0x1955 SWAP2 SWAP1 PUSH2 0x3ACF JUMP JUMPDEST DUP3 GT ISZERO PUSH2 0x199C JUMPI PUSH1 0x3 SWAP2 POP PUSH1 0x4 SWAP1 POP PUSH2 0x196C PUSH2 0x3298 JUMP JUMPDEST PUSH1 0x5 DUP2 SWAP1 SSTORE POP PUSH2 0x197D PUSH1 0x5 SLOAD PUSH2 0x334C JUMP JUMPDEST SWAP7 POP PUSH2 0x198A DUP3 DUP3 DUP10 PUSH2 0x341A JUMP JUMPDEST SWAP6 POP PUSH2 0x1995 DUP7 PUSH2 0x352F JUMP JUMPDEST SWAP3 POP DUP7 MLOAD SWAP5 POP JUMPDEST PUSH2 0x18E7 JUMP JUMPDEST DUP3 PUSH1 0x7 DUP2 SWAP1 SSTORE POP PUSH1 0x2 DUP3 PUSH2 0x19B5 SWAP2 SWAP1 PUSH2 0x3CB9 JUMP JUMPDEST SWAP2 POP PUSH1 0x2 DUP2 PUSH2 0x19C4 SWAP2 SWAP1 PUSH2 0x3CB9 JUMP JUMPDEST SWAP1 POP PUSH2 0x19D1 DUP3 DUP3 DUP10 PUSH2 0x341A JUMP JUMPDEST SWAP6 POP PUSH2 0x19DC DUP7 PUSH2 0x352F JUMP JUMPDEST SWAP3 POP JUMPDEST PUSH1 0x1 DUP4 LT DUP1 PUSH2 0x19EE JUMPI POP PUSH1 0x4 DUP4 GT JUMPDEST DUP1 ISZERO PUSH2 0x1A05 JUMPI POP PUSH1 0x3 DUP6 PUSH2 0x1A02 SWAP2 SWAP1 PUSH2 0x3ACF JUMP JUMPDEST DUP3 LT JUMPDEST ISZERO PUSH2 0x1A8D JUMPI PUSH1 0x1 DUP3 PUSH2 0x1A17 SWAP2 SWAP1 PUSH2 0x3CB9 JUMP JUMPDEST SWAP2 POP DUP2 SWAP1 POP PUSH2 0x1A27 DUP3 DUP3 DUP10 PUSH2 0x341A JUMP JUMPDEST SWAP6 POP PUSH2 0x1A32 DUP7 PUSH2 0x352F JUMP JUMPDEST SWAP3 POP PUSH1 0x3 DUP6 PUSH2 0x1A41 SWAP2 SWAP1 PUSH2 0x3ACF JUMP JUMPDEST DUP3 GT ISZERO PUSH2 0x1A88 JUMPI PUSH1 0x4 SWAP2 POP PUSH1 0x4 SWAP1 POP PUSH2 0x1A58 PUSH2 0x3298 JUMP JUMPDEST PUSH1 0x5 DUP2 SWAP1 SSTORE POP PUSH2 0x1A69 PUSH1 0x5 SLOAD PUSH2 0x334C JUMP JUMPDEST SWAP7 POP PUSH2 0x1A76 DUP3 DUP3 DUP10 PUSH2 0x341A JUMP JUMPDEST SWAP6 POP PUSH2 0x1A81 DUP7 PUSH2 0x352F JUMP JUMPDEST SWAP3 POP DUP7 MLOAD SWAP5 POP JUMPDEST PUSH2 0x19DF JUMP JUMPDEST DUP3 PUSH1 0x6 DUP2 SWAP1 SSTORE POP PUSH1 0x7 SLOAD PUSH1 0x50 DUP6 PUSH1 0x4 DUP2 LT PUSH2 0x1AAB JUMPI PUSH2 0x1AAA PUSH2 0x3D7F JUMP JUMPDEST JUMPDEST PUSH1 0x2 MUL ADD PUSH1 0x0 PUSH1 0x2 DUP2 LT PUSH2 0x1AC2 JUMPI PUSH2 0x1AC1 PUSH2 0x3D7F JUMP JUMPDEST JUMPDEST ADD DUP2 SWAP1 SSTORE POP PUSH1 0x6 SLOAD PUSH1 0x50 DUP6 PUSH1 0x4 DUP2 LT PUSH2 0x1ADE JUMPI PUSH2 0x1ADD PUSH2 0x3D7F JUMP JUMPDEST JUMPDEST PUSH1 0x2 MUL ADD PUSH1 0x1 PUSH1 0x2 DUP2 LT PUSH2 0x1AF5 JUMPI PUSH2 0x1AF4 PUSH2 0x3D7F JUMP JUMPDEST JUMPDEST ADD DUP2 SWAP1 SSTORE POP PUSH1 0x1 DUP5 PUSH2 0x1B07 SWAP2 SWAP1 PUSH2 0x3CB9 JUMP JUMPDEST SWAP4 POP POP POP PUSH2 0x188C JUMP JUMPDEST POP POP POP POP POP POP JUMP JUMPDEST PUSH2 0x1B20 PUSH2 0x3775 JUMP JUMPDEST JUMPDEST DUP2 PUSH1 0x2 PUSH1 0x4 DUP2 LT PUSH2 0x1B35 JUMPI PUSH2 0x1B34 PUSH2 0x3D7F JUMP JUMPDEST JUMPDEST PUSH1 0x20 MUL ADD MLOAD PUSH1 0x0 PUSH1 0x2 DUP2 LT PUSH2 0x1B4D JUMPI PUSH2 0x1B4C PUSH2 0x3D7F JUMP JUMPDEST JUMPDEST PUSH1 0x20 MUL ADD MLOAD DUP3 PUSH1 0x1 PUSH1 0x4 DUP2 LT PUSH2 0x1B66 JUMPI PUSH2 0x1B65 PUSH2 0x3D7F JUMP JUMPDEST JUMPDEST PUSH1 0x20 MUL ADD MLOAD PUSH1 0x0 PUSH1 0x2 DUP2 LT PUSH2 0x1B7E JUMPI PUSH2 0x1B7D PUSH2 0x3D7F JUMP JUMPDEST JUMPDEST PUSH1 0x20 MUL ADD MLOAD EQ DUP1 ISZERO PUSH2 0x1BEF JUMPI POP DUP2 PUSH1 0x2 PUSH1 0x4 DUP2 LT PUSH2 0x1B9F JUMPI PUSH2 0x1B9E PUSH2 0x3D7F JUMP JUMPDEST JUMPDEST PUSH1 0x20 MUL ADD MLOAD PUSH1 0x1 PUSH1 0x2 DUP2 LT PUSH2 0x1BB7 JUMPI PUSH2 0x1BB6 PUSH2 0x3D7F JUMP JUMPDEST JUMPDEST PUSH1 0x20 MUL ADD MLOAD DUP3 PUSH1 0x1 PUSH1 0x4 DUP2 LT PUSH2 0x1BD0 JUMPI PUSH2 0x1BCF PUSH2 0x3D7F JUMP JUMPDEST JUMPDEST PUSH1 0x20 MUL ADD MLOAD PUSH1 0x1 PUSH1 0x2 DUP2 LT PUSH2 0x1BE8 JUMPI PUSH2 0x1BE7 PUSH2 0x3D7F JUMP JUMPDEST JUMPDEST PUSH1 0x20 MUL ADD MLOAD EQ JUMPDEST ISZERO PUSH2 0x1CC9 JUMPI PUSH2 0x1BFE PUSH1 0x1 PUSH2 0x185A JUMP JUMPDEST PUSH1 0x50 PUSH1 0x2 PUSH1 0x4 DUP2 LT PUSH2 0x1C13 JUMPI PUSH2 0x1C12 PUSH2 0x3D7F JUMP JUMPDEST JUMPDEST PUSH1 0x2 MUL ADD PUSH1 0x0 PUSH1 0x2 DUP2 LT PUSH2 0x1C2A JUMPI PUSH2 0x1C29 PUSH2 0x3D7F JUMP JUMPDEST JUMPDEST ADD SLOAD DUP3 PUSH1 0x1 PUSH1 0x4 DUP2 LT PUSH2 0x1C40 JUMPI PUSH2 0x1C3F PUSH2 0x3D7F JUMP JUMPDEST JUMPDEST PUSH1 0x20 MUL ADD MLOAD PUSH1 0x0 PUSH1 0x2 DUP2 LT PUSH2 0x1C58 JUMPI PUSH2 0x1C57 PUSH2 0x3D7F JUMP JUMPDEST JUMPDEST PUSH1 0x20 MUL ADD DUP2 DUP2 MSTORE POP POP PUSH1 0x50 PUSH1 0x1 PUSH1 0x4 DUP2 LT PUSH2 0x1C76 JUMPI PUSH2 0x1C75 PUSH2 0x3D7F JUMP JUMPDEST JUMPDEST PUSH1 0x2 MUL ADD PUSH1 0x1 PUSH1 0x2 DUP2 LT PUSH2 0x1C8D JUMPI PUSH2 0x1C8C PUSH2 0x3D7F JUMP JUMPDEST JUMPDEST ADD SLOAD DUP3 PUSH1 0x2 PUSH1 0x4 DUP2 LT PUSH2 0x1CA3 JUMPI PUSH2 0x1CA2 PUSH2 0x3D7F JUMP JUMPDEST JUMPDEST PUSH1 0x20 MUL ADD MLOAD PUSH1 0x1 PUSH1 0x2 DUP2 LT PUSH2 0x1CBB JUMPI PUSH2 0x1CBA PUSH2 0x3D7F JUMP JUMPDEST JUMPDEST PUSH1 0x20 MUL ADD DUP2 DUP2 MSTORE POP POP PUSH2 0x1B21 JUMP JUMPDEST JUMPDEST DUP2 PUSH1 0x3 PUSH1 0x4 DUP2 LT PUSH2 0x1CDE JUMPI PUSH2 0x1CDD PUSH2 0x3D7F JUMP JUMPDEST JUMPDEST PUSH1 0x20 MUL ADD MLOAD PUSH1 0x0 PUSH1 0x2 DUP2 LT PUSH2 0x1CF6 JUMPI PUSH2 0x1CF5 PUSH2 0x3D7F JUMP JUMPDEST JUMPDEST PUSH1 0x20 MUL ADD MLOAD DUP3 PUSH1 0x2 PUSH1 0x4 DUP2 LT PUSH2 0x1D0F JUMPI PUSH2 0x1D0E PUSH2 0x3D7F JUMP JUMPDEST JUMPDEST PUSH1 0x20 MUL ADD MLOAD PUSH1 0x0 PUSH1 0x2 DUP2 LT PUSH2 0x1D27 JUMPI PUSH2 0x1D26 PUSH2 0x3D7F JUMP JUMPDEST JUMPDEST PUSH1 0x20 MUL ADD MLOAD EQ DUP1 ISZERO PUSH2 0x1D98 JUMPI POP DUP2 PUSH1 0x3 PUSH1 0x4 DUP2 LT PUSH2 0x1D48 JUMPI PUSH2 0x1D47 PUSH2 0x3D7F JUMP JUMPDEST JUMPDEST PUSH1 0x20 MUL ADD MLOAD PUSH1 0x1 PUSH1 0x2 DUP2 LT PUSH2 0x1D60 JUMPI PUSH2 0x1D5F PUSH2 0x3D7F JUMP JUMPDEST JUMPDEST PUSH1 0x20 MUL ADD MLOAD DUP3 PUSH1 0x2 PUSH1 0x4 DUP2 LT PUSH2 0x1D79 JUMPI PUSH2 0x1D78 PUSH2 0x3D7F JUMP JUMPDEST JUMPDEST PUSH1 0x20 MUL ADD MLOAD PUSH1 0x1 PUSH1 0x2 DUP2 LT PUSH2 0x1D91 JUMPI PUSH2 0x1D90 PUSH2 0x3D7F JUMP JUMPDEST JUMPDEST PUSH1 0x20 MUL ADD MLOAD EQ JUMPDEST ISZERO PUSH2 0x1E72 JUMPI PUSH2 0x1DA7 PUSH1 0x1 PUSH2 0x185A JUMP JUMPDEST PUSH1 0x50 PUSH1 0x1 PUSH1 0x4 DUP2 LT PUSH2 0x1DBC JUMPI PUSH2 0x1DBB PUSH2 0x3D7F JUMP JUMPDEST JUMPDEST PUSH1 0x2 MUL ADD PUSH1 0x0 PUSH1 0x2 DUP2 LT PUSH2 0x1DD3 JUMPI PUSH2 0x1DD2 PUSH2 0x3D7F JUMP JUMPDEST JUMPDEST ADD SLOAD DUP3 PUSH1 0x3 PUSH1 0x4 DUP2 LT PUSH2 0x1DE9 JUMPI PUSH2 0x1DE8 PUSH2 0x3D7F JUMP JUMPDEST JUMPDEST PUSH1 0x20 MUL ADD MLOAD PUSH1 0x0 PUSH1 0x2 DUP2 LT PUSH2 0x1E01 JUMPI PUSH2 0x1E00 PUSH2 0x3D7F JUMP JUMPDEST JUMPDEST PUSH1 0x20 MUL ADD DUP2 DUP2 MSTORE POP POP PUSH1 0x50 PUSH1 0x1 PUSH1 0x4 DUP2 LT PUSH2 0x1E1F JUMPI PUSH2 0x1E1E PUSH2 0x3D7F JUMP JUMPDEST JUMPDEST PUSH1 0x2 MUL ADD PUSH1 0x1 PUSH1 0x2 DUP2 LT PUSH2 0x1E36 JUMPI PUSH2 0x1E35 PUSH2 0x3D7F JUMP JUMPDEST JUMPDEST ADD SLOAD DUP3 PUSH1 0x3 PUSH1 0x4 DUP2 LT PUSH2 0x1E4C JUMPI PUSH2 0x1E4B PUSH2 0x3D7F JUMP JUMPDEST JUMPDEST PUSH1 0x20 MUL ADD MLOAD PUSH1 0x1 PUSH1 0x2 DUP2 LT PUSH2 0x1E64 JUMPI PUSH2 0x1E63 PUSH2 0x3D7F JUMP JUMPDEST JUMPDEST PUSH1 0x20 MUL ADD DUP2 DUP2 MSTORE POP POP PUSH2 0x1CCA JUMP JUMPDEST DUP2 SWAP1 POP SWAP2 SWAP1 POP JUMP JUMPDEST DUP3 PUSH1 0x8 DUP3 PUSH1 0x10 DUP2 LT PUSH2 0x1E8F JUMPI PUSH2 0x1E8E PUSH2 0x3D7F JUMP JUMPDEST JUMPDEST PUSH1 0x2 MUL ADD PUSH1 0x0 PUSH1 0x2 DUP2 LT PUSH2 0x1EA6 JUMPI PUSH2 0x1EA5 PUSH2 0x3D7F JUMP JUMPDEST JUMPDEST ADD DUP2 SWAP1 SSTORE POP DUP2 PUSH1 0x8 DUP3 PUSH1 0x10 DUP2 LT PUSH2 0x1EC0 JUMPI PUSH2 0x1EBF PUSH2 0x3D7F JUMP JUMPDEST JUMPDEST PUSH1 0x2 MUL ADD PUSH1 0x1 PUSH1 0x2 DUP2 LT PUSH2 0x1ED7 JUMPI PUSH2 0x1ED6 PUSH2 0x3D7F JUMP JUMPDEST JUMPDEST ADD DUP2 SWAP1 SSTORE POP PUSH2 0x1F5A PUSH1 0x8 PUSH1 0x10 DUP1 PUSH1 0x20 MUL PUSH1 0x40 MLOAD SWAP1 DUP2 ADD PUSH1 0x40 MSTORE DUP1 SWAP3 SWAP2 SWAP1 PUSH1 0x0 SWAP1 JUMPDEST DUP3 DUP3 LT ISZERO PUSH2 0x1F51 JUMPI DUP4 DUP3 PUSH1 0x2 MUL ADD PUSH1 0x2 DUP1 PUSH1 0x20 MUL PUSH1 0x40 MLOAD SWAP1 DUP2 ADD PUSH1 0x40 MSTORE DUP1 SWAP3 SWAP2 SWAP1 DUP3 PUSH1 0x2 DUP1 ISZERO PUSH2 0x1F3D JUMPI PUSH1 0x20 MUL DUP3 ADD SWAP2 JUMPDEST DUP2 SLOAD DUP2 MSTORE PUSH1 0x20 ADD SWAP1 PUSH1 0x1 ADD SWAP1 DUP1 DUP4 GT PUSH2 0x1F29 JUMPI JUMPDEST POP POP POP POP POP DUP2 MSTORE PUSH1 0x20 ADD SWAP1 PUSH1 0x1 ADD SWAP1 PUSH2 0x1EF8 JUMP JUMPDEST POP POP POP POP PUSH2 0x3220 JUMP JUMPDEST PUSH1 0x58 DUP2 SWAP1 SSTORE POP POP POP POP JUMP JUMPDEST DUP3 PUSH1 0x28 DUP3 PUSH1 0x10 DUP2 LT PUSH2 0x1F7A JUMPI PUSH2 0x1F79 PUSH2 0x3D7F JUMP JUMPDEST JUMPDEST PUSH1 0x2 MUL ADD PUSH1 0x0 PUSH1 0x2 DUP2 LT PUSH2 0x1F91 JUMPI PUSH2 0x1F90 PUSH2 0x3D7F JUMP JUMPDEST JUMPDEST ADD DUP2 SWAP1 SSTORE POP DUP2 PUSH1 0x28 DUP3 PUSH1 0x10 DUP2 LT PUSH2 0x1FAB JUMPI PUSH2 0x1FAA PUSH2 0x3D7F JUMP JUMPDEST JUMPDEST PUSH1 0x2 MUL ADD PUSH1 0x1 PUSH1 0x2 DUP2 LT PUSH2 0x1FC2 JUMPI PUSH2 0x1FC1 PUSH2 0x3D7F JUMP JUMPDEST JUMPDEST ADD DUP2 SWAP1 SSTORE POP PUSH2 0x2045 PUSH1 0x28 PUSH1 0x10 DUP1 PUSH1 0x20 MUL PUSH1 0x40 MLOAD SWAP1 DUP2 ADD PUSH1 0x40 MSTORE DUP1 SWAP3 SWAP2 SWAP1 PUSH1 0x0 SWAP1 JUMPDEST DUP3 DUP3 LT ISZERO PUSH2 0x203C JUMPI DUP4 DUP3 PUSH1 0x2 MUL ADD PUSH1 0x2 DUP1 PUSH1 0x20 MUL PUSH1 0x40 MLOAD SWAP1 DUP2 ADD PUSH1 0x40 MSTORE DUP1 SWAP3 SWAP2 SWAP1 DUP3 PUSH1 0x2 DUP1 ISZERO PUSH2 0x2028 JUMPI PUSH1 0x20 MUL DUP3 ADD SWAP2 JUMPDEST DUP2 SLOAD DUP2 MSTORE PUSH1 0x20 ADD SWAP1 PUSH1 0x1 ADD SWAP1 DUP1 DUP4 GT PUSH2 0x2014 JUMPI JUMPDEST POP POP POP POP POP DUP2 MSTORE PUSH1 0x20 ADD SWAP1 PUSH1 0x1 ADD SWAP1 PUSH2 0x1FE3 JUMP JUMPDEST POP POP POP POP PUSH2 0x3220 JUMP JUMPDEST PUSH1 0x59 DUP2 SWAP1 SSTORE POP POP POP POP JUMP JUMPDEST PUSH1 0x0 DUP1 PUSH2 0x20D1 PUSH1 0x8 PUSH1 0x10 DUP1 PUSH1 0x20 MUL PUSH1 0x40 MLOAD SWAP1 DUP2 ADD PUSH1 0x40 MSTORE DUP1 SWAP3 SWAP2 SWAP1 PUSH1 0x0 SWAP1 JUMPDEST DUP3 DUP3 LT ISZERO PUSH2 0x20C8 JUMPI DUP4 DUP3 PUSH1 0x2 MUL ADD PUSH1 0x2 DUP1 PUSH1 0x20 MUL PUSH1 0x40 MLOAD SWAP1 DUP2 ADD PUSH1 0x40 MSTORE DUP1 SWAP3 SWAP2 SWAP1 DUP3 PUSH1 0x2 DUP1 ISZERO PUSH2 0x20B4 JUMPI PUSH1 0x20 MUL DUP3 ADD SWAP2 JUMPDEST DUP2 SLOAD DUP2 MSTORE PUSH1 0x20 ADD SWAP1 PUSH1 0x1 ADD SWAP1 DUP1 DUP4 GT PUSH2 0x20A0 JUMPI JUMPDEST POP POP POP POP POP DUP2 MSTORE PUSH1 0x20 ADD SWAP1 PUSH1 0x1 ADD SWAP1 PUSH2 0x206F JUMP JUMPDEST POP POP POP POP PUSH2 0x3220 JUMP JUMPDEST PUSH1 0x58 DUP2 SWAP1 SSTORE POP PUSH1 0x0 PUSH1 0x1 SWAP1 POP JUMPDEST PUSH1 0x58 SLOAD DUP2 GT PUSH2 0x21E8 JUMPI PUSH1 0x9 PUSH1 0x8 DUP3 PUSH1 0x10 DUP2 LT PUSH2 0x20FD JUMPI PUSH2 0x20FC PUSH2 0x3D7F JUMP JUMPDEST JUMPDEST PUSH1 0x2 MUL ADD PUSH1 0x0 PUSH1 0x2 DUP2 LT PUSH2 0x2114 JUMPI PUSH2 0x2113 PUSH2 0x3D7F JUMP JUMPDEST JUMPDEST ADD SLOAD GT ISZERO PUSH2 0x212C JUMPI PUSH1 0xA DUP4 PUSH2 0x2129 SWAP2 SWAP1 PUSH2 0x3CB9 JUMP JUMPDEST SWAP3 POP JUMPDEST PUSH1 0xA PUSH1 0x8 DUP3 PUSH1 0x10 DUP2 LT PUSH2 0x2142 JUMPI PUSH2 0x2141 PUSH2 0x3D7F JUMP JUMPDEST JUMPDEST PUSH1 0x2 MUL ADD PUSH1 0x0 PUSH1 0x2 DUP2 LT PUSH2 0x2159 JUMPI PUSH2 0x2158 PUSH2 0x3D7F JUMP JUMPDEST JUMPDEST ADD SLOAD LT ISZERO PUSH2 0x219C JUMPI PUSH1 0x8 DUP2 PUSH1 0x10 DUP2 LT PUSH2 0x2175 JUMPI PUSH2 0x2174 PUSH2 0x3D7F JUMP JUMPDEST JUMPDEST PUSH1 0x2 MUL ADD PUSH1 0x0 PUSH1 0x2 DUP2 LT PUSH2 0x218C JUMPI PUSH2 0x218B PUSH2 0x3D7F JUMP JUMPDEST JUMPDEST ADD SLOAD DUP4 PUSH2 0x2199 SWAP2 SWAP1 PUSH2 0x3CB9 JUMP JUMPDEST SWAP3 POP JUMPDEST PUSH1 0x1 PUSH1 0x8 DUP3 PUSH1 0x10 DUP2 LT PUSH2 0x21B2 JUMPI PUSH2 0x21B1 PUSH2 0x3D7F JUMP JUMPDEST JUMPDEST PUSH1 0x2 MUL ADD PUSH1 0x0 PUSH1 0x2 DUP2 LT PUSH2 0x21C9 JUMPI PUSH2 0x21C8 PUSH2 0x3D7F JUMP JUMPDEST JUMPDEST ADD SLOAD SUB PUSH2 0x21D5 JUMPI PUSH1 0x1 SWAP2 POP JUMPDEST DUP1 DUP1 PUSH2 0x21E0 SWAP1 PUSH2 0x3DAE JUMP JUMPDEST SWAP2 POP POP PUSH2 0x20DE JUMP JUMPDEST POP DUP2 PUSH1 0x48 PUSH1 0x1 PUSH1 0x2 DUP2 LT PUSH2 0x21FF JUMPI PUSH2 0x21FE PUSH2 0x3D7F JUMP JUMPDEST JUMPDEST PUSH1 0x2 MUL ADD PUSH1 0x0 PUSH1 0x2 DUP2 LT PUSH2 0x2216 JUMPI PUSH2 0x2215 PUSH2 0x3D7F JUMP JUMPDEST JUMPDEST ADD DUP2 SWAP1 SSTORE POP DUP2 PUSH1 0x48 PUSH1 0x1 PUSH1 0x2 DUP2 LT PUSH2 0x2231 JUMPI PUSH2 0x2230 PUSH2 0x3D7F JUMP JUMPDEST JUMPDEST PUSH1 0x2 MUL ADD PUSH1 0x1 PUSH1 0x2 DUP2 LT PUSH2 0x2248 JUMPI PUSH2 0x2247 PUSH2 0x3D7F JUMP JUMPDEST JUMPDEST ADD DUP2 SWAP1 SSTORE POP PUSH1 0x1 DUP2 SUB PUSH2 0x22C1 JUMPI PUSH1 0xA PUSH1 0x48 PUSH1 0x1 PUSH1 0x2 DUP2 LT PUSH2 0x226C JUMPI PUSH2 0x226B PUSH2 0x3D7F JUMP JUMPDEST JUMPDEST PUSH1 0x2 MUL ADD PUSH1 0x1 PUSH1 0x2 DUP2 LT PUSH2 0x2283 JUMPI PUSH2 0x2282 PUSH2 0x3D7F JUMP JUMPDEST JUMPDEST ADD SLOAD PUSH2 0x228F SWAP2 SWAP1 PUSH2 0x3CB9 JUMP JUMPDEST PUSH1 0x48 PUSH1 0x1 PUSH1 0x2 DUP2 LT PUSH2 0x22A4 JUMPI PUSH2 0x22A3 PUSH2 0x3D7F JUMP JUMPDEST JUMPDEST PUSH1 0x2 MUL ADD PUSH1 0x1 PUSH1 0x2 DUP2 LT PUSH2 0x22BB JUMPI PUSH2 0x22BA PUSH2 0x3D7F JUMP JUMPDEST JUMPDEST ADD DUP2 SWAP1 SSTORE POP JUMPDEST POP POP JUMP JUMPDEST PUSH1 0x0 DUP1 PUSH2 0x2346 PUSH1 0x28 PUSH1 0x10 DUP1 PUSH1 0x20 MUL PUSH1 0x40 MLOAD SWAP1 DUP2 ADD PUSH1 0x40 MSTORE DUP1 SWAP3 SWAP2 SWAP1 PUSH1 0x0 SWAP1 JUMPDEST DUP3 DUP3 LT ISZERO PUSH2 0x233D JUMPI DUP4 DUP3 PUSH1 0x2 MUL ADD PUSH1 0x2 DUP1 PUSH1 0x20 MUL PUSH1 0x40 MLOAD SWAP1 DUP2 ADD PUSH1 0x40 MSTORE DUP1 SWAP3 SWAP2 SWAP1 DUP3 PUSH1 0x2 DUP1 ISZERO PUSH2 0x2329 JUMPI PUSH1 0x20 MUL DUP3 ADD SWAP2 JUMPDEST DUP2 SLOAD DUP2 MSTORE PUSH1 0x20 ADD SWAP1 PUSH1 0x1 ADD SWAP1 DUP1 DUP4 GT PUSH2 0x2315 JUMPI JUMPDEST POP POP POP POP POP DUP2 MSTORE PUSH1 0x20 ADD SWAP1 PUSH1 0x1 ADD SWAP1 PUSH2 0x22E4 JUMP JUMPDEST POP POP POP POP PUSH2 0x3220 JUMP JUMPDEST PUSH1 0x59 DUP2 SWAP1 SSTORE POP PUSH1 0x0 PUSH1 0x1 SWAP1 POP JUMPDEST PUSH1 0x59 SLOAD DUP2 GT PUSH2 0x245D JUMPI PUSH1 0x9 PUSH1 0x28 DUP3 PUSH1 0x10 DUP2 LT PUSH2 0x2372 JUMPI PUSH2 0x2371 PUSH2 0x3D7F JUMP JUMPDEST JUMPDEST PUSH1 0x2 MUL ADD PUSH1 0x0 PUSH1 0x2 DUP2 LT PUSH2 0x2389 JUMPI PUSH2 0x2388 PUSH2 0x3D7F JUMP JUMPDEST JUMPDEST ADD SLOAD GT ISZERO PUSH2 0x23A1 JUMPI PUSH1 0xA DUP4 PUSH2 0x239E SWAP2 SWAP1 PUSH2 0x3CB9 JUMP JUMPDEST SWAP3 POP JUMPDEST PUSH1 0xA PUSH1 0x28 DUP3 PUSH1 0x10 DUP2 LT PUSH2 0x23B7 JUMPI PUSH2 0x23B6 PUSH2 0x3D7F JUMP JUMPDEST JUMPDEST PUSH1 0x2 MUL ADD PUSH1 0x0 PUSH1 0x2 DUP2 LT PUSH2 0x23CE JUMPI PUSH2 0x23CD PUSH2 0x3D7F JUMP JUMPDEST JUMPDEST ADD SLOAD LT ISZERO PUSH2 0x2411 JUMPI PUSH1 0x28 DUP2 PUSH1 0x10 DUP2 LT PUSH2 0x23EA JUMPI PUSH2 0x23E9 PUSH2 0x3D7F JUMP JUMPDEST JUMPDEST PUSH1 0x2 MUL ADD PUSH1 0x0 PUSH1 0x2 DUP2 LT PUSH2 0x2401 JUMPI PUSH2 0x2400 PUSH2 0x3D7F JUMP JUMPDEST JUMPDEST ADD SLOAD DUP4 PUSH2 0x240E SWAP2 SWAP1 PUSH2 0x3CB9 JUMP JUMPDEST SWAP3 POP JUMPDEST PUSH1 0x1 PUSH1 0x28 DUP3 PUSH1 0x10 DUP2 LT PUSH2 0x2427 JUMPI PUSH2 0x2426 PUSH2 0x3D7F JUMP JUMPDEST JUMPDEST PUSH1 0x2 MUL ADD PUSH1 0x0 PUSH1 0x2 DUP2 LT PUSH2 0x243E JUMPI PUSH2 0x243D PUSH2 0x3D7F JUMP JUMPDEST JUMPDEST ADD SLOAD SUB PUSH2 0x244A JUMPI PUSH1 0x1 SWAP2 POP JUMPDEST DUP1 DUP1 PUSH2 0x2455 SWAP1 PUSH2 0x3DAE JUMP JUMPDEST SWAP2 POP POP PUSH2 0x2353 JUMP JUMPDEST POP DUP2 PUSH1 0x4C PUSH1 0x1 PUSH1 0x2 DUP2 LT PUSH2 0x2474 JUMPI PUSH2 0x2473 PUSH2 0x3D7F JUMP JUMPDEST JUMPDEST PUSH1 0x2 MUL ADD PUSH1 0x0 PUSH1 0x2 DUP2 LT PUSH2 0x248B JUMPI PUSH2 0x248A PUSH2 0x3D7F JUMP JUMPDEST JUMPDEST ADD DUP2 SWAP1 SSTORE POP DUP2 PUSH1 0x4C PUSH1 0x1 PUSH1 0x2 DUP2 LT PUSH2 0x24A6 JUMPI PUSH2 0x24A5 PUSH2 0x3D7F JUMP JUMPDEST JUMPDEST PUSH1 0x2 MUL ADD PUSH1 0x1 PUSH1 0x2 DUP2 LT PUSH2 0x24BD JUMPI PUSH2 0x24BC PUSH2 0x3D7F JUMP JUMPDEST JUMPDEST ADD DUP2 SWAP1 SSTORE POP PUSH1 0x1 DUP2 SUB PUSH2 0x2536 JUMPI PUSH1 0xA PUSH1 0x4C PUSH1 0x1 PUSH1 0x2 DUP2 LT PUSH2 0x24E1 JUMPI PUSH2 0x24E0 PUSH2 0x3D7F JUMP JUMPDEST JUMPDEST PUSH1 0x2 MUL ADD PUSH1 0x1 PUSH1 0x2 DUP2 LT PUSH2 0x24F8 JUMPI PUSH2 0x24F7 PUSH2 0x3D7F JUMP JUMPDEST JUMPDEST ADD SLOAD PUSH2 0x2504 SWAP2 SWAP1 PUSH2 0x3CB9 JUMP JUMPDEST PUSH1 0x4C PUSH1 0x1 PUSH1 0x2 DUP2 LT PUSH2 0x2519 JUMPI PUSH2 0x2518 PUSH2 0x3D7F JUMP JUMPDEST JUMPDEST PUSH1 0x2 MUL ADD PUSH1 0x1 PUSH1 0x2 DUP2 LT PUSH2 0x2530 JUMPI PUSH2 0x252F PUSH2 0x3D7F JUMP JUMPDEST JUMPDEST ADD DUP2 SWAP1 SSTORE POP JUMPDEST POP POP JUMP JUMPDEST PUSH1 0x15 PUSH1 0x4C PUSH1 0x1 PUSH1 0x2 DUP2 LT PUSH2 0x2551 JUMPI PUSH2 0x2550 PUSH2 0x3D7F JUMP JUMPDEST JUMPDEST PUSH1 0x2 MUL ADD PUSH1 0x0 PUSH1 0x2 DUP2 LT PUSH2 0x2568 JUMPI PUSH2 0x2567 PUSH2 0x3D7F JUMP JUMPDEST JUMPDEST ADD SLOAD GT DUP1 ISZERO PUSH2 0x25A4 JUMPI POP PUSH1 0x15 PUSH1 0x4C PUSH1 0x1 PUSH1 0x2 DUP2 LT PUSH2 0x2589 JUMPI PUSH2 0x2588 PUSH2 0x3D7F JUMP JUMPDEST JUMPDEST PUSH1 0x2 MUL ADD PUSH1 0x1 PUSH1 0x2 DUP2 LT PUSH2 0x25A0 JUMPI PUSH2 0x259F PUSH2 0x3D7F JUMP JUMPDEST JUMPDEST ADD SLOAD GT JUMPDEST ISZERO PUSH2 0x26E7 JUMPI PUSH1 0x1 PUSH1 0x5B DUP2 SWAP1 SSTORE POP PUSH1 0x0 PUSH1 0x1 DUP2 SWAP1 SSTORE POP PUSH1 0x4C PUSH1 0x1 PUSH1 0x2 DUP2 LT PUSH2 0x25CE JUMPI PUSH2 0x25CD PUSH2 0x3D7F JUMP JUMPDEST JUMPDEST PUSH1 0x2 MUL ADD PUSH1 0x1 PUSH1 0x2 DUP2 LT PUSH2 0x25E5 JUMPI PUSH2 0x25E4 PUSH2 0x3D7F JUMP JUMPDEST JUMPDEST ADD SLOAD PUSH1 0x4C PUSH1 0x1 PUSH1 0x2 DUP2 LT PUSH2 0x25FC JUMPI PUSH2 0x25FB PUSH2 0x3D7F JUMP JUMPDEST JUMPDEST PUSH1 0x2 MUL ADD PUSH1 0x0 PUSH1 0x2 DUP2 LT PUSH2 0x2613 JUMPI PUSH2 0x2612 PUSH2 0x3D7F JUMP JUMPDEST JUMPDEST ADD SLOAD GT PUSH2 0x264F JUMPI PUSH1 0x4C PUSH1 0x1 PUSH1 0x2 DUP2 LT PUSH2 0x262F JUMPI PUSH2 0x262E PUSH2 0x3D7F JUMP JUMPDEST JUMPDEST PUSH1 0x2 MUL ADD PUSH1 0x0 PUSH1 0x2 DUP2 LT PUSH2 0x2646 JUMPI PUSH2 0x2645 PUSH2 0x3D7F JUMP JUMPDEST JUMPDEST ADD SLOAD PUSH1 0x5D DUP2 SWAP1 SSTORE POP JUMPDEST PUSH1 0x4C PUSH1 0x1 PUSH1 0x2 DUP2 LT PUSH2 0x2664 JUMPI PUSH2 0x2663 PUSH2 0x3D7F JUMP JUMPDEST JUMPDEST PUSH1 0x2 MUL ADD PUSH1 0x1 PUSH1 0x2 DUP2 LT PUSH2 0x267B JUMPI PUSH2 0x267A PUSH2 0x3D7F JUMP JUMPDEST JUMPDEST ADD SLOAD PUSH1 0x4C PUSH1 0x1 PUSH1 0x2 DUP2 LT PUSH2 0x2692 JUMPI PUSH2 0x2691 PUSH2 0x3D7F JUMP JUMPDEST JUMPDEST PUSH1 0x2 MUL ADD PUSH1 0x0 PUSH1 0x2 DUP2 LT PUSH2 0x26A9 JUMPI PUSH2 0x26A8 PUSH2 0x3D7F JUMP JUMPDEST JUMPDEST ADD SLOAD GT ISZERO PUSH2 0x26E6 JUMPI PUSH1 0x4C PUSH1 0x1 PUSH1 0x2 DUP2 LT PUSH2 0x26C6 JUMPI PUSH2 0x26C5 PUSH2 0x3D7F JUMP JUMPDEST JUMPDEST PUSH1 0x2 MUL ADD PUSH1 0x1 PUSH1 0x2 DUP2 LT PUSH2 0x26DD JUMPI PUSH2 0x26DC PUSH2 0x3D7F JUMP JUMPDEST JUMPDEST ADD SLOAD PUSH1 0x5D DUP2 SWAP1 SSTORE POP JUMPDEST JUMPDEST PUSH1 0x15 PUSH1 0x4C PUSH1 0x1 PUSH1 0x2 DUP2 LT PUSH2 0x26FE JUMPI PUSH2 0x26FD PUSH2 0x3D7F JUMP JUMPDEST JUMPDEST PUSH1 0x2 MUL ADD PUSH1 0x0 PUSH1 0x2 DUP2 LT PUSH2 0x2715 JUMPI PUSH2 0x2714 PUSH2 0x3D7F JUMP JUMPDEST JUMPDEST ADD SLOAD GT ISZERO DUP1 ISZERO PUSH2 0x2752 JUMPI POP PUSH1 0x15 PUSH1 0x4C PUSH1 0x1 PUSH1 0x2 DUP2 LT PUSH2 0x2737 JUMPI PUSH2 0x2736 PUSH2 0x3D7F JUMP JUMPDEST JUMPDEST PUSH1 0x2 MUL ADD PUSH1 0x1 PUSH1 0x2 DUP2 LT PUSH2 0x274E JUMPI PUSH2 0x274D PUSH2 0x3D7F JUMP JUMPDEST JUMPDEST ADD SLOAD GT JUMPDEST ISZERO PUSH2 0x278C JUMPI PUSH1 0x4C PUSH1 0x1 PUSH1 0x2 DUP2 LT PUSH2 0x276C JUMPI PUSH2 0x276B PUSH2 0x3D7F JUMP JUMPDEST JUMPDEST PUSH1 0x2 MUL ADD PUSH1 0x0 PUSH1 0x2 DUP2 LT PUSH2 0x2783 JUMPI PUSH2 0x2782 PUSH2 0x3D7F JUMP JUMPDEST JUMPDEST ADD SLOAD PUSH1 0x5D DUP2 SWAP1 SSTORE POP JUMPDEST PUSH1 0x15 PUSH1 0x4C PUSH1 0x1 PUSH1 0x2 DUP2 LT PUSH2 0x27A3 JUMPI PUSH2 0x27A2 PUSH2 0x3D7F JUMP JUMPDEST JUMPDEST PUSH1 0x2 MUL ADD PUSH1 0x0 PUSH1 0x2 DUP2 LT PUSH2 0x27BA JUMPI PUSH2 0x27B9 PUSH2 0x3D7F JUMP JUMPDEST JUMPDEST ADD SLOAD GT DUP1 ISZERO PUSH2 0x27F7 JUMPI POP PUSH1 0x15 PUSH1 0x48 PUSH1 0x1 PUSH1 0x2 DUP2 LT PUSH2 0x27DB JUMPI PUSH2 0x27DA PUSH2 0x3D7F JUMP JUMPDEST JUMPDEST PUSH1 0x2 MUL ADD PUSH1 0x1 PUSH1 0x2 DUP2 LT PUSH2 0x27F2 JUMPI PUSH2 0x27F1 PUSH2 0x3D7F JUMP JUMPDEST JUMPDEST ADD SLOAD GT ISZERO JUMPDEST ISZERO PUSH2 0x2831 JUMPI PUSH1 0x4C PUSH1 0x1 PUSH1 0x2 DUP2 LT PUSH2 0x2811 JUMPI PUSH2 0x2810 PUSH2 0x3D7F JUMP JUMPDEST JUMPDEST PUSH1 0x2 MUL ADD PUSH1 0x1 PUSH1 0x2 DUP2 LT PUSH2 0x2828 JUMPI PUSH2 0x2827 PUSH2 0x3D7F JUMP JUMPDEST JUMPDEST ADD SLOAD PUSH1 0x5D DUP2 SWAP1 SSTORE POP JUMPDEST PUSH1 0x15 PUSH1 0x4C PUSH1 0x1 PUSH1 0x2 DUP2 LT PUSH2 0x2848 JUMPI PUSH2 0x2847 PUSH2 0x3D7F JUMP JUMPDEST JUMPDEST PUSH1 0x2 MUL ADD PUSH1 0x0 PUSH1 0x2 DUP2 LT PUSH2 0x285F JUMPI PUSH2 0x285E PUSH2 0x3D7F JUMP JUMPDEST JUMPDEST ADD SLOAD GT ISZERO DUP1 ISZERO PUSH2 0x289D JUMPI POP PUSH1 0x15 PUSH1 0x4C PUSH1 0x1 PUSH1 0x2 DUP2 LT PUSH2 0x2881 JUMPI PUSH2 0x2880 PUSH2 0x3D7F JUMP JUMPDEST JUMPDEST PUSH1 0x2 MUL ADD PUSH1 0x1 PUSH1 0x2 DUP2 LT PUSH2 0x2898 JUMPI PUSH2 0x2897 PUSH2 0x3D7F JUMP JUMPDEST JUMPDEST ADD SLOAD GT ISZERO JUMPDEST ISZERO PUSH2 0x29D0 JUMPI PUSH1 0x4C PUSH1 0x1 PUSH1 0x2 DUP2 LT PUSH2 0x28B7 JUMPI PUSH2 0x28B6 PUSH2 0x3D7F JUMP JUMPDEST JUMPDEST PUSH1 0x2 MUL ADD PUSH1 0x1 PUSH1 0x2 DUP2 LT PUSH2 0x28CE JUMPI PUSH2 0x28CD PUSH2 0x3D7F JUMP JUMPDEST JUMPDEST ADD SLOAD PUSH1 0x4C PUSH1 0x1 PUSH1 0x2 DUP2 LT PUSH2 0x28E5 JUMPI PUSH2 0x28E4 PUSH2 0x3D7F JUMP JUMPDEST JUMPDEST PUSH1 0x2 MUL ADD PUSH1 0x0 PUSH1 0x2 DUP2 LT PUSH2 0x28FC JUMPI PUSH2 0x28FB PUSH2 0x3D7F JUMP JUMPDEST JUMPDEST ADD SLOAD GT ISZERO PUSH2 0x2939 JUMPI PUSH1 0x4C PUSH1 0x1 PUSH1 0x2 DUP2 LT PUSH2 0x2919 JUMPI PUSH2 0x2918 PUSH2 0x3D7F JUMP JUMPDEST JUMPDEST PUSH1 0x2 MUL ADD PUSH1 0x0 PUSH1 0x2 DUP2 LT PUSH2 0x2930 JUMPI PUSH2 0x292F PUSH2 0x3D7F JUMP JUMPDEST JUMPDEST ADD SLOAD PUSH1 0x5D DUP2 SWAP1 SSTORE POP JUMPDEST PUSH1 0x4C PUSH1 0x1 PUSH1 0x2 DUP2 LT PUSH2 0x294E JUMPI PUSH2 0x294D PUSH2 0x3D7F JUMP JUMPDEST JUMPDEST PUSH1 0x2 MUL ADD PUSH1 0x1 PUSH1 0x2 DUP2 LT PUSH2 0x2965 JUMPI PUSH2 0x2964 PUSH2 0x3D7F JUMP JUMPDEST JUMPDEST ADD SLOAD PUSH1 0x4C PUSH1 0x1 PUSH1 0x2 DUP2 LT PUSH2 0x297C JUMPI PUSH2 0x297B PUSH2 0x3D7F JUMP JUMPDEST JUMPDEST PUSH1 0x2 MUL ADD PUSH1 0x0 PUSH1 0x2 DUP2 LT PUSH2 0x2993 JUMPI PUSH2 0x2992 PUSH2 0x3D7F JUMP JUMPDEST JUMPDEST ADD SLOAD GT PUSH2 0x29CF JUMPI PUSH1 0x4C PUSH1 0x1 PUSH1 0x2 DUP2 LT PUSH2 0x29AF JUMPI PUSH2 0x29AE PUSH2 0x3D7F JUMP JUMPDEST JUMPDEST PUSH1 0x2 MUL ADD PUSH1 0x1 PUSH1 0x2 DUP2 LT PUSH2 0x29C6 JUMPI PUSH2 0x29C5 PUSH2 0x3D7F JUMP JUMPDEST JUMPDEST ADD SLOAD PUSH1 0x5D DUP2 SWAP1 SSTORE POP JUMPDEST JUMPDEST PUSH1 0x10 PUSH1 0x4C PUSH1 0x1 PUSH1 0x2 DUP2 LT PUSH2 0x29E7 JUMPI PUSH2 0x29E6 PUSH2 0x3D7F JUMP JUMPDEST JUMPDEST PUSH1 0x2 MUL ADD PUSH1 0x0 PUSH1 0x2 DUP2 LT PUSH2 0x29FE JUMPI PUSH2 0x29FD PUSH2 0x3D7F JUMP JUMPDEST JUMPDEST ADD SLOAD GT DUP1 PUSH2 0x2A39 JUMPI POP PUSH1 0x10 PUSH1 0x4C PUSH1 0x1 PUSH1 0x2 DUP2 LT PUSH2 0x2A1E JUMPI PUSH2 0x2A1D PUSH2 0x3D7F JUMP JUMPDEST JUMPDEST PUSH1 0x2 MUL ADD PUSH1 0x1 PUSH1 0x2 DUP2 LT PUSH2 0x2A35 JUMPI PUSH2 0x2A34 PUSH2 0x3D7F JUMP JUMPDEST JUMPDEST ADD SLOAD GT JUMPDEST ISZERO PUSH2 0x2ACC JUMPI PUSH1 0x0 PUSH1 0x1 DUP2 SWAP1 SSTORE POP PUSH1 0x15 PUSH1 0x4C PUSH1 0x1 PUSH1 0x2 DUP2 LT PUSH2 0x2A5D JUMPI PUSH2 0x2A5C PUSH2 0x3D7F JUMP JUMPDEST JUMPDEST PUSH1 0x2 MUL ADD PUSH1 0x0 PUSH1 0x2 DUP2 LT PUSH2 0x2A74 JUMPI PUSH2 0x2A73 PUSH2 0x3D7F JUMP JUMPDEST JUMPDEST ADD SLOAD GT DUP1 ISZERO PUSH2 0x2AB0 JUMPI POP PUSH1 0x15 PUSH1 0x4C PUSH1 0x1 PUSH1 0x2 DUP2 LT PUSH2 0x2A95 JUMPI PUSH2 0x2A94 PUSH2 0x3D7F JUMP JUMPDEST JUMPDEST PUSH1 0x2 MUL ADD PUSH1 0x1 PUSH1 0x2 DUP2 LT PUSH2 0x2AAC JUMPI PUSH2 0x2AAB PUSH2 0x3D7F JUMP JUMPDEST JUMPDEST ADD SLOAD GT JUMPDEST ISZERO PUSH2 0x2AC2 JUMPI PUSH1 0x1 PUSH1 0x5B DUP2 SWAP1 SSTORE POP PUSH2 0x2ACB JUMP JUMPDEST PUSH1 0x1 PUSH1 0x5F DUP2 SWAP1 SSTORE POP JUMPDEST JUMPDEST JUMP JUMPDEST PUSH1 0x15 PUSH1 0x48 PUSH1 0x1 PUSH1 0x2 DUP2 LT PUSH2 0x2AE5 JUMPI PUSH2 0x2AE4 PUSH2 0x3D7F JUMP JUMPDEST JUMPDEST PUSH1 0x2 MUL ADD PUSH1 0x0 PUSH1 0x2 DUP2 LT PUSH2 0x2AFC JUMPI PUSH2 0x2AFB PUSH2 0x3D7F JUMP JUMPDEST JUMPDEST ADD SLOAD GT DUP1 ISZERO PUSH2 0x2B38 JUMPI POP PUSH1 0x15 PUSH1 0x48 PUSH1 0x1 PUSH1 0x2 DUP2 LT PUSH2 0x2B1D JUMPI PUSH2 0x2B1C PUSH2 0x3D7F JUMP JUMPDEST JUMPDEST PUSH1 0x2 MUL ADD PUSH1 0x1 PUSH1 0x2 DUP2 LT PUSH2 0x2B34 JUMPI PUSH2 0x2B33 PUSH2 0x3D7F JUMP JUMPDEST JUMPDEST ADD SLOAD GT JUMPDEST ISZERO PUSH2 0x2C7B JUMPI PUSH1 0x1 PUSH1 0x5A DUP2 SWAP1 SSTORE POP PUSH1 0x0 PUSH1 0x1 DUP2 SWAP1 SSTORE POP PUSH1 0x48 PUSH1 0x1 PUSH1 0x2 DUP2 LT PUSH2 0x2B62 JUMPI PUSH2 0x2B61 PUSH2 0x3D7F JUMP JUMPDEST JUMPDEST PUSH1 0x2 MUL ADD PUSH1 0x1 PUSH1 0x2 DUP2 LT PUSH2 0x2B79 JUMPI PUSH2 0x2B78 PUSH2 0x3D7F JUMP JUMPDEST JUMPDEST ADD SLOAD PUSH1 0x48 PUSH1 0x1 PUSH1 0x2 DUP2 LT PUSH2 0x2B90 JUMPI PUSH2 0x2B8F PUSH2 0x3D7F JUMP JUMPDEST JUMPDEST PUSH1 0x2 MUL ADD PUSH1 0x0 PUSH1 0x2 DUP2 LT PUSH2 0x2BA7 JUMPI PUSH2 0x2BA6 PUSH2 0x3D7F JUMP JUMPDEST JUMPDEST ADD SLOAD GT PUSH2 0x2BE3 JUMPI PUSH1 0x48 PUSH1 0x1 PUSH1 0x2 DUP2 LT PUSH2 0x2BC3 JUMPI PUSH2 0x2BC2 PUSH2 0x3D7F JUMP JUMPDEST JUMPDEST PUSH1 0x2 MUL ADD PUSH1 0x0 PUSH1 0x2 DUP2 LT PUSH2 0x2BDA JUMPI PUSH2 0x2BD9 PUSH2 0x3D7F JUMP JUMPDEST JUMPDEST ADD SLOAD PUSH1 0x5C DUP2 SWAP1 SSTORE POP JUMPDEST PUSH1 0x48 PUSH1 0x1 PUSH1 0x2 DUP2 LT PUSH2 0x2BF8 JUMPI PUSH2 0x2BF7 PUSH2 0x3D7F JUMP JUMPDEST JUMPDEST PUSH1 0x2 MUL ADD PUSH1 0x1 PUSH1 0x2 DUP2 LT PUSH2 0x2C0F JUMPI PUSH2 0x2C0E PUSH2 0x3D7F JUMP JUMPDEST JUMPDEST ADD SLOAD PUSH1 0x48 PUSH1 0x1 PUSH1 0x2 DUP2 LT PUSH2 0x2C26 JUMPI PUSH2 0x2C25 PUSH2 0x3D7F JUMP JUMPDEST JUMPDEST PUSH1 0x2 MUL ADD PUSH1 0x0 PUSH1 0x2 DUP2 LT PUSH2 0x2C3D JUMPI PUSH2 0x2C3C PUSH2 0x3D7F JUMP JUMPDEST JUMPDEST ADD SLOAD GT ISZERO PUSH2 0x2C7A JUMPI PUSH1 0x48 PUSH1 0x1 PUSH1 0x2 DUP2 LT PUSH2 0x2C5A JUMPI PUSH2 0x2C59 PUSH2 0x3D7F JUMP JUMPDEST JUMPDEST PUSH1 0x2 MUL ADD PUSH1 0x1 PUSH1 0x2 DUP2 LT PUSH2 0x2C71 JUMPI PUSH2 0x2C70 PUSH2 0x3D7F JUMP JUMPDEST JUMPDEST ADD SLOAD PUSH1 0x5C DUP2 SWAP1 SSTORE POP JUMPDEST JUMPDEST PUSH1 0x15 PUSH1 0x48 PUSH1 0x1 PUSH1 0x2 DUP2 LT PUSH2 0x2C92 JUMPI PUSH2 0x2C91 PUSH2 0x3D7F JUMP JUMPDEST JUMPDEST PUSH1 0x2 MUL ADD PUSH1 0x0 PUSH1 0x2 DUP2 LT PUSH2 0x2CA9 JUMPI PUSH2 0x2CA8 PUSH2 0x3D7F JUMP JUMPDEST JUMPDEST ADD SLOAD GT ISZERO DUP1 ISZERO PUSH2 0x2CE6 JUMPI POP PUSH1 0x15 PUSH1 0x48 PUSH1 0x1 PUSH1 0x2 DUP2 LT PUSH2 0x2CCB JUMPI PUSH2 0x2CCA PUSH2 0x3D7F JUMP JUMPDEST JUMPDEST PUSH1 0x2 MUL ADD PUSH1 0x1 PUSH1 0x2 DUP2 LT PUSH2 0x2CE2 JUMPI PUSH2 0x2CE1 PUSH2 0x3D7F JUMP JUMPDEST JUMPDEST ADD SLOAD GT JUMPDEST ISZERO PUSH2 0x2D20 JUMPI PUSH1 0x48 PUSH1 0x1 PUSH1 0x2 DUP2 LT PUSH2 0x2D00 JUMPI PUSH2 0x2CFF PUSH2 0x3D7F JUMP JUMPDEST JUMPDEST PUSH1 0x2 MUL ADD PUSH1 0x0 PUSH1 0x2 DUP2 LT PUSH2 0x2D17 JUMPI PUSH2 0x2D16 PUSH2 0x3D7F JUMP JUMPDEST JUMPDEST ADD SLOAD PUSH1 0x5C DUP2 SWAP1 SSTORE POP JUMPDEST PUSH1 0x15 PUSH1 0x48 PUSH1 0x1 PUSH1 0x2 DUP2 LT PUSH2 0x2D37 JUMPI PUSH2 0x2D36 PUSH2 0x3D7F JUMP JUMPDEST JUMPDEST PUSH1 0x2 MUL ADD PUSH1 0x0 PUSH1 0x2 DUP2 LT PUSH2 0x2D4E JUMPI PUSH2 0x2D4D PUSH2 0x3D7F JUMP JUMPDEST JUMPDEST ADD SLOAD GT DUP1 ISZERO PUSH2 0x2D8B JUMPI POP PUSH1 0x15 PUSH1 0x48 PUSH1 0x1 PUSH1 0x2 DUP2 LT PUSH2 0x2D6F JUMPI PUSH2 0x2D6E PUSH2 0x3D7F JUMP JUMPDEST JUMPDEST PUSH1 0x2 MUL ADD PUSH1 0x1 PUSH1 0x2 DUP2 LT PUSH2 0x2D86 JUMPI PUSH2 0x2D85 PUSH2 0x3D7F JUMP JUMPDEST JUMPDEST ADD SLOAD GT ISZERO JUMPDEST ISZERO PUSH2 0x2DC5 JUMPI PUSH1 0x48 PUSH1 0x1 PUSH1 0x2 DUP2 LT PUSH2 0x2DA5 JUMPI PUSH2 0x2DA4 PUSH2 0x3D7F JUMP JUMPDEST JUMPDEST PUSH1 0x2 MUL ADD PUSH1 0x1 PUSH1 0x2 DUP2 LT PUSH2 0x2DBC JUMPI PUSH2 0x2DBB PUSH2 0x3D7F JUMP JUMPDEST JUMPDEST ADD SLOAD PUSH1 0x5C DUP2 SWAP1 SSTORE POP JUMPDEST PUSH1 0x15 PUSH1 0x48 PUSH1 0x1 PUSH1 0x2 DUP2 LT PUSH2 0x2DDC JUMPI PUSH2 0x2DDB PUSH2 0x3D7F JUMP JUMPDEST JUMPDEST PUSH1 0x2 MUL ADD PUSH1 0x0 PUSH1 0x2 DUP2 LT PUSH2 0x2DF3 JUMPI PUSH2 0x2DF2 PUSH2 0x3D7F JUMP JUMPDEST JUMPDEST ADD SLOAD GT ISZERO DUP1 ISZERO PUSH2 0x2E31 JUMPI POP PUSH1 0x15 PUSH1 0x48 PUSH1 0x1 PUSH1 0x2 DUP2 LT PUSH2 0x2E15 JUMPI PUSH2 0x2E14 PUSH2 0x3D7F JUMP JUMPDEST JUMPDEST PUSH1 0x2 MUL ADD PUSH1 0x1 PUSH1 0x2 DUP2 LT PUSH2 0x2E2C JUMPI PUSH2 0x2E2B PUSH2 0x3D7F JUMP JUMPDEST JUMPDEST ADD SLOAD GT ISZERO JUMPDEST ISZERO PUSH2 0x2F64 JUMPI PUSH1 0x48 PUSH1 0x1 PUSH1 0x2 DUP2 LT PUSH2 0x2E4B JUMPI PUSH2 0x2E4A PUSH2 0x3D7F JUMP JUMPDEST JUMPDEST PUSH1 0x2 MUL ADD PUSH1 0x1 PUSH1 0x2 DUP2 LT PUSH2 0x2E62 JUMPI PUSH2 0x2E61 PUSH2 0x3D7F JUMP JUMPDEST JUMPDEST ADD SLOAD PUSH1 0x48 PUSH1 0x1 PUSH1 0x2 DUP2 LT PUSH2 0x2E79 JUMPI PUSH2 0x2E78 PUSH2 0x3D7F JUMP JUMPDEST JUMPDEST PUSH1 0x2 MUL ADD PUSH1 0x0 PUSH1 0x2 DUP2 LT PUSH2 0x2E90 JUMPI PUSH2 0x2E8F PUSH2 0x3D7F JUMP JUMPDEST JUMPDEST ADD SLOAD GT ISZERO PUSH2 0x2ECD JUMPI PUSH1 0x48 PUSH1 0x1 PUSH1 0x2 DUP2 LT PUSH2 0x2EAD JUMPI PUSH2 0x2EAC PUSH2 0x3D7F JUMP JUMPDEST JUMPDEST PUSH1 0x2 MUL ADD PUSH1 0x0 PUSH1 0x2 DUP2 LT PUSH2 0x2EC4 JUMPI PUSH2 0x2EC3 PUSH2 0x3D7F JUMP JUMPDEST JUMPDEST ADD SLOAD PUSH1 0x5C DUP2 SWAP1 SSTORE POP JUMPDEST PUSH1 0x48 PUSH1 0x1 PUSH1 0x2 DUP2 LT PUSH2 0x2EE2 JUMPI PUSH2 0x2EE1 PUSH2 0x3D7F JUMP JUMPDEST JUMPDEST PUSH1 0x2 MUL ADD PUSH1 0x1 PUSH1 0x2 DUP2 LT PUSH2 0x2EF9 JUMPI PUSH2 0x2EF8 PUSH2 0x3D7F JUMP JUMPDEST JUMPDEST ADD SLOAD PUSH1 0x48 PUSH1 0x1 PUSH1 0x2 DUP2 LT PUSH2 0x2F10 JUMPI PUSH2 0x2F0F PUSH2 0x3D7F JUMP JUMPDEST JUMPDEST PUSH1 0x2 MUL ADD PUSH1 0x0 PUSH1 0x2 DUP2 LT PUSH2 0x2F27 JUMPI PUSH2 0x2F26 PUSH2 0x3D7F JUMP JUMPDEST JUMPDEST ADD SLOAD GT PUSH2 0x2F63 JUMPI PUSH1 0x48 PUSH1 0x1 PUSH1 0x2 DUP2 LT PUSH2 0x2F43 JUMPI PUSH2 0x2F42 PUSH2 0x3D7F JUMP JUMPDEST JUMPDEST PUSH1 0x2 MUL ADD PUSH1 0x1 PUSH1 0x2 DUP2 LT PUSH2 0x2F5A JUMPI PUSH2 0x2F59 PUSH2 0x3D7F JUMP JUMPDEST JUMPDEST ADD SLOAD PUSH1 0x5C DUP2 SWAP1 SSTORE POP JUMPDEST JUMPDEST JUMP JUMPDEST PUSH1 0x0 PUSH1 0x1 DUP2 SWAP1 SSTORE POP PUSH1 0x1 PUSH1 0x28 PUSH1 0x1 PUSH1 0x10 DUP2 LT PUSH2 0x2F85 JUMPI PUSH2 0x2F84 PUSH2 0x3D7F JUMP JUMPDEST JUMPDEST PUSH1 0x2 MUL ADD PUSH1 0x0 PUSH1 0x2 DUP2 LT PUSH2 0x2F9C JUMPI PUSH2 0x2F9B PUSH2 0x3D7F JUMP JUMPDEST JUMPDEST ADD SLOAD SUB PUSH2 0x321E JUMPI PUSH2 0x2FAD PUSH1 0x1 PUSH2 0x185A JUMP JUMPDEST PUSH1 0x0 PUSH1 0x1 SWAP1 POP JUMPDEST PUSH1 0x1 DUP2 GT PUSH2 0x3168 JUMPI JUMPDEST PUSH1 0x50 PUSH1 0x1 PUSH1 0x4 DUP2 LT PUSH2 0x2FD2 JUMPI PUSH2 0x2FD1 PUSH2 0x3D7F JUMP JUMPDEST JUMPDEST PUSH1 0x2 MUL ADD PUSH1 0x0 PUSH1 0x2 DUP2 LT PUSH2 0x2FE9 JUMPI PUSH2 0x2FE8 PUSH2 0x3D7F JUMP JUMPDEST JUMPDEST ADD SLOAD PUSH1 0x8 DUP3 PUSH1 0x10 DUP2 LT PUSH2 0x2FFF JUMPI PUSH2 0x2FFE PUSH2 0x3D7F JUMP JUMPDEST JUMPDEST PUSH1 0x2 MUL ADD PUSH1 0x0 PUSH1 0x2 DUP2 LT PUSH2 0x3016 JUMPI PUSH2 0x3015 PUSH2 0x3D7F JUMP JUMPDEST JUMPDEST ADD SLOAD EQ DUP1 PUSH2 0x307C JUMPI POP PUSH1 0x50 PUSH1 0x1 PUSH1 0x4 DUP2 LT PUSH2 0x3034 JUMPI PUSH2 0x3033 PUSH2 0x3D7F JUMP JUMPDEST JUMPDEST PUSH1 0x2 MUL ADD PUSH1 0x0 PUSH1 0x2 DUP2 LT PUSH2 0x304B JUMPI PUSH2 0x304A PUSH2 0x3D7F JUMP JUMPDEST JUMPDEST ADD SLOAD PUSH1 0x28 DUP3 PUSH1 0x10 DUP2 LT PUSH2 0x3061 JUMPI PUSH2 0x3060 PUSH2 0x3D7F JUMP JUMPDEST JUMPDEST PUSH1 0x2 MUL ADD PUSH1 0x0 PUSH1 0x2 DUP2 LT PUSH2 0x3078 JUMPI PUSH2 0x3077 PUSH2 0x3D7F JUMP JUMPDEST JUMPDEST ADD SLOAD EQ JUMPDEST ISZERO PUSH2 0x3155 JUMPI PUSH1 0x50 PUSH1 0x1 PUSH1 0x4 DUP2 LT PUSH2 0x3096 JUMPI PUSH2 0x3095 PUSH2 0x3D7F JUMP JUMPDEST JUMPDEST PUSH1 0x2 MUL ADD PUSH1 0x1 PUSH1 0x2 DUP2 LT PUSH2 0x30AD JUMPI PUSH2 0x30AC PUSH2 0x3D7F JUMP JUMPDEST JUMPDEST ADD SLOAD PUSH1 0x8 DUP3 PUSH1 0x10 DUP2 LT PUSH2 0x30C3 JUMPI PUSH2 0x30C2 PUSH2 0x3D7F JUMP JUMPDEST JUMPDEST PUSH1 0x2 MUL ADD PUSH1 0x1 PUSH1 0x2 DUP2 LT PUSH2 0x30DA JUMPI PUSH2 0x30D9 PUSH2 0x3D7F JUMP JUMPDEST JUMPDEST ADD SLOAD EQ DUP1 PUSH2 0x3140 JUMPI POP PUSH1 0x50 PUSH1 0x1 PUSH1 0x4 DUP2 LT PUSH2 0x30F8 JUMPI PUSH2 0x30F7 PUSH2 0x3D7F JUMP JUMPDEST JUMPDEST PUSH1 0x2 MUL ADD PUSH1 0x1 PUSH1 0x2 DUP2 LT PUSH2 0x310F JUMPI PUSH2 0x310E PUSH2 0x3D7F JUMP JUMPDEST JUMPDEST ADD SLOAD PUSH1 0x28 DUP3 PUSH1 0x10 DUP2 LT PUSH2 0x3125 JUMPI PUSH2 0x3124 PUSH2 0x3D7F JUMP JUMPDEST JUMPDEST PUSH1 0x2 MUL ADD PUSH1 0x1 PUSH1 0x2 DUP2 LT PUSH2 0x313C JUMPI PUSH2 0x313B PUSH2 0x3D7F JUMP JUMPDEST JUMPDEST ADD SLOAD EQ JUMPDEST ISZERO PUSH2 0x3150 JUMPI PUSH2 0x314F PUSH1 0x1 PUSH2 0x185A JUMP JUMPDEST JUMPDEST PUSH2 0x2FBD JUMP JUMPDEST DUP1 DUP1 PUSH2 0x3160 SWAP1 PUSH2 0x3DAE JUMP JUMPDEST SWAP2 POP POP PUSH2 0x2FB4 JUMP JUMPDEST POP PUSH2 0x31CF PUSH1 0x50 PUSH1 0x1 PUSH1 0x4 DUP2 LT PUSH2 0x3181 JUMPI PUSH2 0x3180 PUSH2 0x3D7F JUMP JUMPDEST JUMPDEST PUSH1 0x2 MUL ADD PUSH1 0x0 PUSH1 0x2 DUP2 LT PUSH2 0x3198 JUMPI PUSH2 0x3197 PUSH2 0x3D7F JUMP JUMPDEST JUMPDEST ADD SLOAD PUSH1 0x50 PUSH1 0x1 PUSH1 0x4 DUP2 LT PUSH2 0x31AF JUMPI PUSH2 0x31AE PUSH2 0x3D7F JUMP JUMPDEST JUMPDEST PUSH1 0x2 MUL ADD PUSH1 0x1 PUSH1 0x2 DUP2 LT PUSH2 0x31C6 JUMPI PUSH2 0x31C5 PUSH2 0x3D7F JUMP JUMPDEST JUMPDEST ADD SLOAD PUSH1 0x2 PUSH2 0x1F65 JUMP JUMPDEST PUSH2 0x31D7 PUSH2 0x22C5 JUMP JUMPDEST PUSH2 0x31DF PUSH2 0x253A JUMP JUMPDEST PUSH1 0x15 PUSH1 0x4C PUSH1 0x1 PUSH1 0x2 DUP2 LT PUSH2 0x31F6 JUMPI PUSH2 0x31F5 PUSH2 0x3D7F JUMP JUMPDEST JUMPDEST PUSH1 0x2 MUL ADD PUSH1 0x1 PUSH1 0x2 DUP2 LT PUSH2 0x320D JUMPI PUSH2 0x320C PUSH2 0x3D7F JUMP JUMPDEST JUMPDEST ADD SLOAD SUB PUSH2 0x321D JUMPI PUSH2 0x321C PUSH2 0x35C7 JUMP JUMPDEST JUMPDEST JUMPDEST JUMP JUMPDEST PUSH1 0x0 DUP1 PUSH1 0x0 SWAP1 POP PUSH1 0x0 JUMPDEST PUSH1 0x10 DUP3 LT ISZERO PUSH2 0x328E JUMPI PUSH1 0x0 DUP5 DUP4 PUSH1 0x10 DUP2 LT PUSH2 0x3248 JUMPI PUSH2 0x3247 PUSH2 0x3D7F JUMP JUMPDEST JUMPDEST PUSH1 0x20 MUL ADD MLOAD PUSH1 0x0 PUSH1 0x2 DUP2 LT PUSH2 0x3260 JUMPI PUSH2 0x325F PUSH2 0x3D7F JUMP JUMPDEST JUMPDEST PUSH1 0x20 MUL ADD MLOAD EQ PUSH2 0x327A JUMPI PUSH1 0x1 DUP2 PUSH2 0x3277 SWAP2 SWAP1 PUSH2 0x3CB9 JUMP JUMPDEST SWAP1 POP JUMPDEST PUSH1 0x1 DUP3 PUSH2 0x3287 SWAP2 SWAP1 PUSH2 0x3CB9 JUMP JUMPDEST SWAP2 POP PUSH2 0x322A JUMP JUMPDEST DUP1 SWAP3 POP POP POP SWAP2 SWAP1 POP JUMP JUMPDEST PUSH1 0x0 PUSH1 0x60 PUSH1 0x0 DUP2 SLOAD DUP1 SWAP3 SWAP2 SWAP1 PUSH2 0x32AD SWAP1 PUSH2 0x3DAE JUMP JUMPDEST SWAP2 SWAP1 POP SSTORE POP PUSH32 0x28F5C28F5C28F5C28F5C28F5C28F5C28F5C28F5C28F5C28F5C28F5C28F5C28F PUSH1 0x3 PUSH1 0x60 SLOAD PUSH2 0x32E2 SWAP2 SWAP1 PUSH2 0x40F0 JUMP JUMPDEST NUMBER PUSH2 0x32ED SWAP2 SWAP1 PUSH2 0x3CB9 JUMP JUMPDEST CALLER PUSH1 0x60 SLOAD PUSH1 0x40 MLOAD PUSH1 0x20 ADD PUSH2 0x3303 SWAP4 SWAP3 SWAP2 SWAP1 PUSH2 0x41CD JUMP JUMPDEST PUSH1 0x40 MLOAD PUSH1 0x20 DUP2 DUP4 SUB SUB DUP2 MSTORE SWAP1 PUSH1 0x40 MSTORE DUP1 MLOAD SWAP1 PUSH1 0x20 ADD KECCAK256 PUSH1 0x0 SHR PUSH2 0x3326 SWAP2 SWAP1 PUSH2 0x4239 JUMP JUMPDEST PUSH1 0x5 DUP2 SWAP1 SSTORE POP PUSH1 0x60 PUSH1 0x0 DUP2 SLOAD DUP1 SWAP3 SWAP2 SWAP1 PUSH2 0x333F SWAP1 PUSH2 0x3DAE JUMP JUMPDEST SWAP2 SWAP1 POP SSTORE POP PUSH1 0x5 SLOAD SWAP1 POP SWAP1 JUMP JUMPDEST PUSH1 0x60 PUSH1 0x0 PUSH1 0x1 PUSH2 0x335B DUP5 PUSH2 0x35D1 JUMP JUMPDEST ADD SWAP1 POP PUSH1 0x0 DUP2 PUSH8 0xFFFFFFFFFFFFFFFF DUP2 GT ISZERO PUSH2 0x337A JUMPI PUSH2 0x3379 PUSH2 0x426A JUMP JUMPDEST JUMPDEST PUSH1 0x40 MLOAD SWAP1 DUP1 DUP3 MSTORE DUP1 PUSH1 0x1F ADD PUSH1 0x1F NOT AND PUSH1 0x20 ADD DUP3 ADD PUSH1 0x40 MSTORE DUP1 ISZERO PUSH2 0x33AC JUMPI DUP2 PUSH1 0x20 ADD PUSH1 0x1 DUP3 MUL DUP1 CALLDATASIZE DUP4 CALLDATACOPY DUP1 DUP3 ADD SWAP2 POP POP SWAP1 POP JUMPDEST POP SWAP1 POP PUSH1 0x0 DUP3 PUSH1 0x20 ADD DUP3 ADD SWAP1 POP JUMPDEST PUSH1 0x1 ISZERO PUSH2 0x340F JUMPI DUP1 DUP1 PUSH1 0x1 SWAP1 SUB SWAP2 POP POP PUSH32 0x3031323334353637383961626364656600000000000000000000000000000000 PUSH1 0xA DUP7 MOD BYTE DUP2 MSTORE8 PUSH1 0xA DUP6 DUP2 PUSH2 0x3403 JUMPI PUSH2 0x3402 PUSH2 0x420A JUMP JUMPDEST JUMPDEST DIV SWAP5 POP PUSH1 0x0 DUP6 SUB PUSH2 0x33BA JUMPI JUMPDEST DUP2 SWAP4 POP POP POP POP SWAP2 SWAP1 POP JUMP JUMPDEST PUSH1 0x60 PUSH1 0x0 PUSH1 0x1 DUP6 DUP6 PUSH2 0x342C SWAP2 SWAP1 PUSH2 0x3ACF JUMP JUMPDEST PUSH2 0x3436 SWAP2 SWAP1 PUSH2 0x3CB9 JUMP JUMPDEST PUSH8 0xFFFFFFFFFFFFFFFF DUP2 GT ISZERO PUSH2 0x344F JUMPI PUSH2 0x344E PUSH2 0x426A JUMP JUMPDEST JUMPDEST PUSH1 0x40 MLOAD SWAP1 DUP1 DUP3 MSTORE DUP1 PUSH1 0x1F ADD PUSH1 0x1F NOT AND PUSH1 0x20 ADD DUP3 ADD PUSH1 0x40 MSTORE DUP1 ISZERO PUSH2 0x3481 JUMPI DUP2 PUSH1 0x20 ADD PUSH1 0x1 DUP3 MUL DUP1 CALLDATASIZE DUP4 CALLDATACOPY DUP1 DUP3 ADD SWAP2 POP POP SWAP1 POP JUMPDEST POP SWAP1 POP PUSH1 0x0 JUMPDEST DUP6 DUP6 PUSH2 0x3493 SWAP2 SWAP1 PUSH2 0x3ACF JUMP JUMPDEST DUP2 GT PUSH2 0x3523 JUMPI DUP4 PUSH1 0x1 DUP8 DUP4 PUSH2 0x34A8 SWAP2 SWAP1 PUSH2 0x3CB9 JUMP JUMPDEST PUSH2 0x34B2 SWAP2 SWAP1 PUSH2 0x3ACF JUMP JUMPDEST DUP2 MLOAD DUP2 LT PUSH2 0x34C3 JUMPI PUSH2 0x34C2 PUSH2 0x3D7F JUMP JUMPDEST JUMPDEST PUSH1 0x20 ADD ADD MLOAD PUSH1 0xF8 SHR PUSH1 0xF8 SHL DUP3 DUP3 DUP2 MLOAD DUP2 LT PUSH2 0x34E1 JUMPI PUSH2 0x34E0 PUSH2 0x3D7F JUMP JUMPDEST JUMPDEST PUSH1 0x20 ADD ADD SWAP1 PUSH31 0xFFFFFFFFFFFFFFFFFFFFFFFFFFFFFFFFFFFFFFFFFFFFFFFFFFFFFFFFFFFFFF NOT AND SWAP1 DUP2 PUSH1 0x0 BYTE SWAP1 MSTORE8 POP DUP1 DUP1 PUSH2 0x351B SWAP1 PUSH2 0x3DAE JUMP JUMPDEST SWAP2 POP POP PUSH2 0x3487 JUMP JUMPDEST POP DUP1 SWAP2 POP POP SWAP4 SWAP3 POP POP POP JUMP JUMPDEST PUSH1 0x0 DUP1 DUP3 SWAP1 POP PUSH1 0x0 DUP1 JUMPDEST DUP3 MLOAD DUP2 LT ISZERO PUSH2 0x35BC JUMPI PUSH1 0x0 DUP4 DUP3 DUP2 MLOAD DUP2 LT PUSH2 0x3557 JUMPI PUSH2 0x3556 PUSH2 0x3D7F JUMP JUMPDEST JUMPDEST PUSH1 0x20 ADD ADD MLOAD PUSH1 0xF8 SHR PUSH1 0xF8 SHL PUSH1 0xF8 SHR PUSH1 0xFF AND SWAP1 POP PUSH1 0x30 DUP2 LT ISZERO DUP1 ISZERO PUSH2 0x357C JUMPI POP PUSH1 0x39 DUP2 GT ISZERO JUMPDEST ISZERO PUSH2 0x35A8 JUMPI PUSH1 0x30 DUP2 PUSH2 0x358E SWAP2 SWAP1 PUSH2 0x3ACF JUMP JUMPDEST PUSH1 0xA DUP5 PUSH2 0x359B SWAP2 SWAP1 PUSH2 0x40F0 JUMP JUMPDEST PUSH2 0x35A5 SWAP2 SWAP1 PUSH2 0x3CB9 JUMP JUMPDEST SWAP3 POP JUMPDEST POP DUP1 DUP1 PUSH2 0x35B4 SWAP1 PUSH2 0x3DAE JUMP JUMPDEST SWAP2 POP POP PUSH2 0x3539 JUMP JUMPDEST POP DUP1 SWAP3 POP POP POP SWAP2 SWAP1 POP JUMP JUMPDEST PUSH1 0x0 PUSH1 0x1 DUP2 SWAP1 SSTORE POP JUMP JUMPDEST PUSH1 0x0 DUP1 PUSH1 0x0 SWAP1 POP PUSH27 0x184F03E93FF9F4DAA797ED6E38ED64BF6A1F010000000000000000 DUP4 LT PUSH2 0x362F JUMPI PUSH27 0x184F03E93FF9F4DAA797ED6E38ED64BF6A1F010000000000000000 DUP4 DUP2 PUSH2 0x3625 JUMPI PUSH2 0x3624 PUSH2 0x420A JUMP JUMPDEST JUMPDEST DIV SWAP3 POP PUSH1 0x40 DUP2 ADD SWAP1 POP JUMPDEST PUSH14 0x4EE2D6D415B85ACEF8100000000 DUP4 LT PUSH2 0x366C JUMPI PUSH14 0x4EE2D6D415B85ACEF8100000000 DUP4 DUP2 PUSH2 0x3662 JUMPI PUSH2 0x3661 PUSH2 0x420A JUMP JUMPDEST JUMPDEST DIV SWAP3 POP PUSH1 0x20 DUP2 ADD SWAP1 POP JUMPDEST PUSH7 0x2386F26FC10000 DUP4 LT PUSH2 0x369B JUMPI PUSH7 0x2386F26FC10000 DUP4 DUP2 PUSH2 0x3691 JUMPI PUSH2 0x3690 PUSH2 0x420A JUMP JUMPDEST JUMPDEST DIV SWAP3 POP PUSH1 0x10 DUP2 ADD SWAP1 POP JUMPDEST PUSH4 0x5F5E100 DUP4 LT PUSH2 0x36C4 JUMPI PUSH4 0x5F5E100 DUP4 DUP2 PUSH2 0x36BA JUMPI PUSH2 0x36B9 PUSH2 0x420A JUMP JUMPDEST JUMPDEST DIV SWAP3 POP PUSH1 0x8 DUP2 ADD SWAP1 POP JUMPDEST PUSH2 0x2710 DUP4 LT PUSH2 0x36E9 JUMPI PUSH2 0x2710 DUP4 DUP2 PUSH2 0x36DF JUMPI PUSH2 0x36DE PUSH2 0x420A JUMP JUMPDEST JUMPDEST DIV SWAP3 POP PUSH1 0x4 DUP2 ADD SWAP1 POP JUMPDEST PUSH1 0x64 DUP4 LT PUSH2 0x370C JUMPI PUSH1 0x64 DUP4 DUP2 PUSH2 0x3702 JUMPI PUSH2 0x3701 PUSH2 0x420A JUMP JUMPDEST JUMPDEST DIV SWAP3 POP PUSH1 0x2 DUP2 ADD SWAP1 POP JUMPDEST PUSH1 0xA DUP4 LT PUSH2 0x371B JUMPI PUSH1 0x1 DUP2 ADD SWAP1 POP JUMPDEST DUP1 SWAP2 POP POP SWAP2 SWAP1 POP JUMP JUMPDEST DUP3 PUSH1 0x4 PUSH1 0x2 MUL DUP2 ADD SWAP3 DUP3 ISZERO PUSH2 0x3764 JUMPI SWAP2 PUSH1 0x20 MUL DUP3 ADD JUMPDEST DUP3 DUP2 GT ISZERO PUSH2 0x3763 JUMPI DUP3 MLOAD DUP3 SWAP1 PUSH1 0x2 PUSH2 0x3753 SWAP3 SWAP2 SWAP1 PUSH2 0x37A2 JUMP JUMPDEST POP SWAP2 PUSH1 0x20 ADD SWAP2 SWAP1 PUSH1 0x2 ADD SWAP1 PUSH2 0x373A JUMP JUMPDEST JUMPDEST POP SWAP1 POP PUSH2 0x3771 SWAP2 SWAP1 PUSH2 0x37E2 JUMP JUMPDEST POP SWAP1 JUMP JUMPDEST PUSH1 0x40 MLOAD DUP1 PUSH1 0x80 ADD PUSH1 0x40 MSTORE DUP1 PUSH1 0x4 SWAP1 JUMPDEST PUSH2 0x378C PUSH2 0x3806 JUMP JUMPDEST DUP2 MSTORE PUSH1 0x20 ADD SWAP1 PUSH1 0x1 SWAP1 SUB SWAP1 DUP2 PUSH2 0x3784 JUMPI SWAP1 POP POP SWAP1 JUMP JUMPDEST DUP3 PUSH1 0x2 DUP2 ADD SWAP3 DUP3 ISZERO PUSH2 0x37D1 JUMPI SWAP2 PUSH1 0x20 MUL DUP3 ADD JUMPDEST DUP3 DUP2 GT ISZERO PUSH2 0x37D0 JUMPI DUP3 MLOAD DUP3 SSTORE SWAP2 PUSH1 0x20 ADD SWAP2 SWAP1 PUSH1 0x1 ADD SWAP1 PUSH2 0x37B5 JUMP JUMPDEST JUMPDEST POP SWAP1 POP PUSH2 0x37DE SWAP2 SWAP1 PUSH2 0x3828 JUMP JUMPDEST POP SWAP1 JUMP JUMPDEST JUMPDEST DUP1 DUP3 GT ISZERO PUSH2 0x3802 JUMPI PUSH1 0x0 DUP2 DUP2 PUSH2 0x37F9 SWAP2 SWAP1 PUSH2 0x3845 JUMP JUMPDEST POP PUSH1 0x2 ADD PUSH2 0x37E3 JUMP JUMPDEST POP SWAP1 JUMP JUMPDEST PUSH1 0x40 MLOAD DUP1 PUSH1 0x40 ADD PUSH1 0x40 MSTORE DUP1 PUSH1 0x2 SWAP1 PUSH1 0x20 DUP3 MUL DUP1 CALLDATASIZE DUP4 CALLDATACOPY DUP1 DUP3 ADD SWAP2 POP POP SWAP1 POP POP SWAP1 JUMP JUMPDEST JUMPDEST DUP1 DUP3 GT ISZERO PUSH2 0x3841 JUMPI PUSH1 0x0 DUP2 PUSH1 0x0 SWAP1 SSTORE POP PUSH1 0x1 ADD PUSH2 0x3829 JUMP JUMPDEST POP SWAP1 JUMP JUMPDEST POP PUSH1 0x0 DUP2 SSTORE PUSH1 0x1 ADD PUSH1 0x0 SWAP1 SSTORE JUMP JUMPDEST PUSH1 0x0 DUP1 REVERT JUMPDEST PUSH1 0x0 DUP2 SWAP1 POP SWAP2 SWAP1 POP JUMP JUMPDEST PUSH2 0x386B DUP2 PUSH2 0x3858 JUMP JUMPDEST DUP2 EQ PUSH2 0x3876 JUMPI PUSH1 0x0 DUP1 REVERT JUMPDEST POP JUMP JUMPDEST PUSH1 0x0 DUP2 CALLDATALOAD SWAP1 POP PUSH2 0x3888 DUP2 PUSH2 0x3862 JUMP JUMPDEST SWAP3 SWAP2 POP POP JUMP JUMPDEST PUSH1 0x0 PUSH1 0x20 DUP3 DUP5 SUB SLT ISZERO PUSH2 0x38A4 JUMPI PUSH2 0x38A3 PUSH2 0x3853 JUMP JUMPDEST JUMPDEST PUSH1 0x0 PUSH2 0x38B2 DUP5 DUP3 DUP6 ADD PUSH2 0x3879 JUMP JUMPDEST SWAP2 POP POP SWAP3 SWAP2 POP POP JUMP JUMPDEST PUSH2 0x38C4 DUP2 PUSH2 0x3858 JUMP JUMPDEST DUP3 MSTORE POP POP JUMP JUMPDEST PUSH1 0x0 PUSH1 0x20 DUP3 ADD SWAP1 POP PUSH2 0x38DF PUSH1 0x0 DUP4 ADD DUP5 PUSH2 0x38BB JUMP JUMPDEST SWAP3 SWAP2 POP POP JUMP JUMPDEST PUSH1 0x0 DUP1 PUSH1 0x40 DUP4 DUP6 SUB SLT ISZERO PUSH2 0x38FC JUMPI PUSH2 0x38FB PUSH2 0x3853 JUMP JUMPDEST JUMPDEST PUSH1 0x0 PUSH2 0x390A DUP6 DUP3 DUP7 ADD PUSH2 0x3879 JUMP JUMPDEST SWAP3 POP POP PUSH1 0x20 PUSH2 0x391B DUP6 DUP3 DUP7 ADD PUSH2 0x3879 JUMP JUMPDEST SWAP2 POP POP SWAP3 POP SWAP3 SWAP1 POP JUMP JUMPDEST PUSH1 0x0 DUP3 DUP3 MSTORE PUSH1 0x20 DUP3 ADD SWAP1 POP SWAP3 SWAP2 POP POP JUMP JUMPDEST PUSH32 0x42657420616D6F756E74206973206D6F7265207468616E2067616D652062616C PUSH1 0x0 DUP3 ADD MSTORE PUSH32 0x616E636500000000000000000000000000000000000000000000000000000000 PUSH1 0x20 DUP3 ADD MSTORE POP JUMP JUMPDEST PUSH1 0x0 PUSH2 0x3992 PUSH1 0x24 DUP4 PUSH2 0x3925 JUMP JUMPDEST SWAP2 POP PUSH2 0x399D DUP3 PUSH2 0x3936 JUMP JUMPDEST PUSH1 0x40 DUP3 ADD SWAP1 POP SWAP2 SWAP1 POP JUMP JUMPDEST PUSH1 0x0 PUSH1 0x20 DUP3 ADD SWAP1 POP DUP2 DUP2 SUB PUSH1 0x0 DUP4 ADD MSTORE PUSH2 0x39C1 DUP2 PUSH2 0x3985 JUMP JUMPDEST SWAP1 POP SWAP2 SWAP1 POP JUMP JUMPDEST PUSH32 0x4F6E6C7920706C617965722063616E20706C6163652062657400000000000000 PUSH1 0x0 DUP3 ADD MSTORE POP JUMP JUMPDEST PUSH1 0x0 PUSH2 0x39FE PUSH1 0x19 DUP4 PUSH2 0x3925 JUMP JUMPDEST SWAP2 POP PUSH2 0x3A09 DUP3 PUSH2 0x39C8 JUMP JUMPDEST PUSH1 0x20 DUP3 ADD SWAP1 POP SWAP2 SWAP1 POP JUMP JUMPDEST PUSH1 0x0 PUSH1 0x20 DUP3 ADD SWAP1 POP DUP2 DUP2 SUB PUSH1 0x0 DUP4 ADD MSTORE PUSH2 0x3A2D DUP2 PUSH2 0x39F1 JUMP JUMPDEST SWAP1 POP SWAP2 SWAP1 POP JUMP JUMPDEST PUSH32 0x5265656E7472616E6379206E6F7420616C6C6F77656400000000000000000000 PUSH1 0x0 DUP3 ADD MSTORE POP JUMP JUMPDEST PUSH1 0x0 PUSH2 0x3A6A PUSH1 0x16 DUP4 PUSH2 0x3925 JUMP JUMPDEST SWAP2 POP PUSH2 0x3A75 DUP3 PUSH2 0x3A34 JUMP JUMPDEST PUSH1 0x20 DUP3 ADD SWAP1 POP SWAP2 SWAP1 POP JUMP JUMPDEST PUSH1 0x0 PUSH1 0x20 DUP3 ADD SWAP1 POP DUP2 DUP2 SUB PUSH1 0x0 DUP4 ADD MSTORE PUSH2 0x3A99 DUP2 PUSH2 0x3A5D JUMP JUMPDEST SWAP1 POP SWAP2 SWAP1 POP JUMP JUMPDEST PUSH32 0x4E487B7100000000000000000000000000000000000000000000000000000000 PUSH1 0x0 MSTORE PUSH1 0x11 PUSH1 0x4 MSTORE PUSH1 0x24 PUSH1 0x0 REVERT JUMPDEST PUSH1 0x0 PUSH2 0x3ADA DUP3 PUSH2 0x3858 JUMP JUMPDEST SWAP2 POP PUSH2 0x3AE5 DUP4 PUSH2 0x3858 JUMP JUMPDEST SWAP3 POP DUP3 DUP3 SUB SWAP1 POP DUP2 DUP2 GT ISZERO PUSH2 0x3AFD JUMPI PUSH2 0x3AFC PUSH2 0x3AA0 JUMP JUMPDEST JUMPDEST SWAP3 SWAP2 POP POP JUMP JUMPDEST PUSH32 0x526567697374726174696F6E2061646472657373206973206E6F742076616C69 PUSH1 0x0 DUP3 ADD MSTORE PUSH32 0x6400000000000000000000000000000000000000000000000000000000000000 PUSH1 0x20 DUP3 ADD MSTORE POP JUMP JUMPDEST PUSH1 0x0 PUSH2 0x3B5F PUSH1 0x21 DUP4 PUSH2 0x3925 JUMP JUMPDEST SWAP2 POP PUSH2 0x3B6A DUP3 PUSH2 0x3B03 JUMP JUMPDEST PUSH1 0x40 DUP3 ADD SWAP1 POP SWAP2 SWAP1 POP JUMP JUMPDEST PUSH1 0x0 PUSH1 0x20 DUP3 ADD SWAP1 POP DUP2 DUP2 SUB PUSH1 0x0 DUP4 ADD MSTORE PUSH2 0x3B8E DUP2 PUSH2 0x3B52 JUMP JUMPDEST SWAP1 POP SWAP2 SWAP1 POP JUMP JUMPDEST PUSH32 0x506C61796572206D75737420626520686F757365283029206F7220706C617965 PUSH1 0x0 DUP3 ADD MSTORE PUSH32 0x7228312900000000000000000000000000000000000000000000000000000000 PUSH1 0x20 DUP3 ADD MSTORE POP JUMP JUMPDEST PUSH1 0x0 PUSH2 0x3BF1 PUSH1 0x24 DUP4 PUSH2 0x3925 JUMP JUMPDEST SWAP2 POP PUSH2 0x3BFC DUP3 PUSH2 0x3B95 JUMP JUMPDEST PUSH1 0x40 DUP3 ADD SWAP1 POP SWAP2 SWAP1 POP JUMP JUMPDEST PUSH1 0x0 PUSH1 0x20 DUP3 ADD SWAP1 POP DUP2 DUP2 SUB PUSH1 0x0 DUP4 ADD MSTORE PUSH2 0x3C20 DUP2 PUSH2 0x3BE4 JUMP JUMPDEST SWAP1 POP SWAP2 SWAP1 POP JUMP JUMPDEST PUSH32 0x53656E6465722061646472657373206D75737420626520686F75736557616C6C PUSH1 0x0 DUP3 ADD MSTORE PUSH32 0x6574000000000000000000000000000000000000000000000000000000000000 PUSH1 0x20 DUP3 ADD MSTORE POP JUMP JUMPDEST PUSH1 0x0 PUSH2 0x3C83 PUSH1 0x22 DUP4 PUSH2 0x3925 JUMP JUMPDEST SWAP2 POP PUSH2 0x3C8E DUP3 PUSH2 0x3C27 JUMP JUMPDEST PUSH1 0x40 DUP3 ADD SWAP1 POP SWAP2 SWAP1 POP JUMP JUMPDEST PUSH1 0x0 PUSH1 0x20 DUP3 ADD SWAP1 POP DUP2 DUP2 SUB PUSH1 0x0 DUP4 ADD MSTORE PUSH2 0x3CB2 DUP2 PUSH2 0x3C76 JUMP JUMPDEST SWAP1 POP SWAP2 SWAP1 POP JUMP JUMPDEST PUSH1 0x0 PUSH2 0x3CC4 DUP3 PUSH2 0x3858 JUMP JUMPDEST SWAP2 POP PUSH2 0x3CCF DUP4 PUSH2 0x3858 JUMP JUMPDEST SWAP3 POP DUP3 DUP3 ADD SWAP1 POP DUP1 DUP3 GT ISZERO PUSH2 0x3CE7 JUMPI PUSH2 0x3CE6 PUSH2 0x3AA0 JUMP JUMPDEST JUMPDEST SWAP3 SWAP2 POP POP JUMP JUMPDEST PUSH32 0x53656E6465722061646472657373206D75737420626520706C6179657257616C PUSH1 0x0 DUP3 ADD MSTORE PUSH32 0x6C65740000000000000000000000000000000000000000000000000000000000 PUSH1 0x20 DUP3 ADD MSTORE POP JUMP JUMPDEST PUSH1 0x0 PUSH2 0x3D49 PUSH1 0x23 DUP4 PUSH2 0x3925 JUMP JUMPDEST SWAP2 POP PUSH2 0x3D54 DUP3 PUSH2 0x3CED JUMP JUMPDEST PUSH1 0x40 DUP3 ADD SWAP1 POP SWAP2 SWAP1 POP JUMP JUMPDEST PUSH1 0x0 PUSH1 0x20 DUP3 ADD SWAP1 POP DUP2 DUP2 SUB PUSH1 0x0 DUP4 ADD MSTORE PUSH2 0x3D78 DUP2 PUSH2 0x3D3C JUMP JUMPDEST SWAP1 POP SWAP2 SWAP1 POP JUMP JUMPDEST PUSH32 0x4E487B7100000000000000000000000000000000000000000000000000000000 PUSH1 0x0 MSTORE PUSH1 0x32 PUSH1 0x4 MSTORE PUSH1 0x24 PUSH1 0x0 REVERT JUMPDEST PUSH1 0x0 PUSH2 0x3DB9 DUP3 PUSH2 0x3858 JUMP JUMPDEST SWAP2 POP PUSH32 0xFFFFFFFFFFFFFFFFFFFFFFFFFFFFFFFFFFFFFFFFFFFFFFFFFFFFFFFFFFFFFFFF DUP3 SUB PUSH2 0x3DEB JUMPI PUSH2 0x3DEA PUSH2 0x3AA0 JUMP JUMPDEST JUMPDEST PUSH1 0x1 DUP3 ADD SWAP1 POP SWAP2 SWAP1 POP JUMP JUMPDEST PUSH32 0x506C6179657220686173206E6F2062616C616E636520746F2077697468647261 PUSH1 0x0 DUP3 ADD MSTORE PUSH32 0x7700000000000000000000000000000000000000000000000000000000000000 PUSH1 0x20 DUP3 ADD MSTORE POP JUMP JUMPDEST PUSH1 0x0 PUSH2 0x3E52 PUSH1 0x21 DUP4 PUSH2 0x3925 JUMP JUMPDEST SWAP2 POP PUSH2 0x3E5D DUP3 PUSH2 0x3DF6 JUMP JUMPDEST PUSH1 0x40 DUP3 ADD SWAP1 POP SWAP2 SWAP1 POP JUMP JUMPDEST PUSH1 0x0 PUSH1 0x20 DUP3 ADD SWAP1 POP DUP2 DUP2 SUB PUSH1 0x0 DUP4 ADD MSTORE PUSH2 0x3E81 DUP2 PUSH2 0x3E45 JUMP JUMPDEST SWAP1 POP SWAP2 SWAP1 POP JUMP JUMPDEST PUSH32 0x4F6E6C7920706C617965722063616E2075736520746869732066756E6374696F PUSH1 0x0 DUP3 ADD MSTORE PUSH32 0x6E20776974686472617700000000000000000000000000000000000000000000 PUSH1 0x20 DUP3 ADD MSTORE POP JUMP JUMPDEST PUSH1 0x0 PUSH2 0x3EE4 PUSH1 0x2A DUP4 PUSH2 0x3925 JUMP JUMPDEST SWAP2 POP PUSH2 0x3EEF DUP3 PUSH2 0x3E88 JUMP JUMPDEST PUSH1 0x40 DUP3 ADD SWAP1 POP SWAP2 SWAP1 POP JUMP JUMPDEST PUSH1 0x0 PUSH1 0x20 DUP3 ADD SWAP1 POP DUP2 DUP2 SUB PUSH1 0x0 DUP4 ADD MSTORE PUSH2 0x3F13 DUP2 PUSH2 0x3ED7 JUMP JUMPDEST SWAP1 POP SWAP2 SWAP1 POP JUMP JUMPDEST PUSH32 0x596F75206172652072657175657374696E67206D6F7265207468616E20746865 PUSH1 0x0 DUP3 ADD MSTORE PUSH32 0x20706C617965722077616C6C657420636F6E7461696E73000000000000000000 PUSH1 0x20 DUP3 ADD MSTORE POP JUMP JUMPDEST PUSH1 0x0 PUSH2 0x3F76 PUSH1 0x37 DUP4 PUSH2 0x3925 JUMP JUMPDEST SWAP2 POP PUSH2 0x3F81 DUP3 PUSH2 0x3F1A JUMP JUMPDEST PUSH1 0x40 DUP3 ADD SWAP1 POP SWAP2 SWAP1 POP JUMP JUMPDEST PUSH1 0x0 PUSH1 0x20 DUP3 ADD SWAP1 POP DUP2 DUP2 SUB PUSH1 0x0 DUP4 ADD MSTORE PUSH2 0x3FA5 DUP2 PUSH2 0x3F69 JUMP JUMPDEST SWAP1 POP SWAP2 SWAP1 POP JUMP JUMPDEST PUSH32 0x506C617965722068617320616C72656164792073746F6F640000000000000000 PUSH1 0x0 DUP3 ADD MSTORE POP JUMP JUMPDEST PUSH1 0x0 PUSH2 0x3FE2 PUSH1 0x18 DUP4 PUSH2 0x3925 JUMP JUMPDEST SWAP2 POP PUSH2 0x3FED DUP3 PUSH2 0x3FAC JUMP JUMPDEST PUSH1 0x20 DUP3 ADD SWAP1 POP SWAP2 SWAP1 POP JUMP JUMPDEST PUSH1 0x0 PUSH1 0x20 DUP3 ADD SWAP1 POP DUP2 DUP2 SUB PUSH1 0x0 DUP4 ADD MSTORE PUSH2 0x4011 DUP2 PUSH2 0x3FD5 JUMP JUMPDEST SWAP1 POP SWAP2 SWAP1 POP JUMP JUMPDEST PUSH32 0x596F7527766520616C7265616479206275737465640000000000000000000000 PUSH1 0x0 DUP3 ADD MSTORE POP JUMP JUMPDEST PUSH1 0x0 PUSH2 0x404E PUSH1 0x15 DUP4 PUSH2 0x3925 JUMP JUMPDEST SWAP2 POP PUSH2 0x4059 DUP3 PUSH2 0x4018 JUMP JUMPDEST PUSH1 0x20 DUP3 ADD SWAP1 POP SWAP2 SWAP1 POP JUMP JUMPDEST PUSH1 0x0 PUSH1 0x20 DUP3 ADD SWAP1 POP DUP2 DUP2 SUB PUSH1 0x0 DUP4 ADD MSTORE PUSH2 0x407D DUP2 PUSH2 0x4041 JUMP JUMPDEST SWAP1 POP SWAP2 SWAP1 POP JUMP JUMPDEST PUSH32 0x47616D65206D75737420626520696E2070726F67726573730000000000000000 PUSH1 0x0 DUP3 ADD MSTORE POP JUMP JUMPDEST PUSH1 0x0 PUSH2 0x40BA PUSH1 0x18 DUP4 PUSH2 0x3925 JUMP JUMPDEST SWAP2 POP PUSH2 0x40C5 DUP3 PUSH2 0x4084 JUMP JUMPDEST PUSH1 0x20 DUP3 ADD SWAP1 POP SWAP2 SWAP1 POP JUMP JUMPDEST PUSH1 0x0 PUSH1 0x20 DUP3 ADD SWAP1 POP DUP2 DUP2 SUB PUSH1 0x0 DUP4 ADD MSTORE PUSH2 0x40E9 DUP2 PUSH2 0x40AD JUMP JUMPDEST SWAP1 POP SWAP2 SWAP1 POP JUMP JUMPDEST PUSH1 0x0 PUSH2 0x40FB DUP3 PUSH2 0x3858 JUMP JUMPDEST SWAP2 POP PUSH2 0x4106 DUP4 PUSH2 0x3858 JUMP JUMPDEST SWAP3 POP DUP3 DUP3 MUL PUSH2 0x4114 DUP2 PUSH2 0x3858 JUMP JUMPDEST SWAP2 POP DUP3 DUP3 DIV DUP5 EQ DUP4 ISZERO OR PUSH2 0x412B JUMPI PUSH2 0x412A PUSH2 0x3AA0 JUMP JUMPDEST JUMPDEST POP SWAP3 SWAP2 POP POP JUMP JUMPDEST PUSH1 0x0 DUP2 SWAP1 POP SWAP2 SWAP1 POP JUMP JUMPDEST PUSH2 0x414D PUSH2 0x4148 DUP3 PUSH2 0x3858 JUMP JUMPDEST PUSH2 0x4132 JUMP JUMPDEST DUP3 MSTORE POP POP JUMP JUMPDEST PUSH1 0x0 PUSH20 0xFFFFFFFFFFFFFFFFFFFFFFFFFFFFFFFFFFFFFFFF DUP3 AND SWAP1 POP SWAP2 SWAP1 POP JUMP JUMPDEST PUSH1 0x0 PUSH2 0x417E DUP3 PUSH2 0x4153 JUMP JUMPDEST SWAP1 POP SWAP2 SWAP1 POP JUMP JUMPDEST PUSH1 0x0 DUP2 PUSH1 0x60 SHL SWAP1 POP SWAP2 SWAP1 POP JUMP JUMPDEST PUSH1 0x0 PUSH2 0x419D DUP3 PUSH2 0x4185 JUMP JUMPDEST SWAP1 POP SWAP2 SWAP1 POP JUMP JUMPDEST PUSH1 0x0 PUSH2 0x41AF DUP3 PUSH2 0x4192 JUMP JUMPDEST SWAP1 POP SWAP2 SWAP1 POP JUMP JUMPDEST PUSH2 0x41C7 PUSH2 0x41C2 DUP3 PUSH2 0x4173 JUMP JUMPDEST PUSH2 0x41A4 JUMP JUMPDEST DUP3 MSTORE POP POP JUMP JUMPDEST PUSH1 0x0 PUSH2 0x41D9 DUP3 DUP7 PUSH2 0x413C JUMP JUMPDEST PUSH1 0x20 DUP3 ADD SWAP2 POP PUSH2 0x41E9 DUP3 DUP6 PUSH2 0x41B6 JUMP JUMPDEST PUSH1 0x14 DUP3 ADD SWAP2 POP PUSH2 0x41F9 DUP3 DUP5 PUSH2 0x413C JUMP JUMPDEST PUSH1 0x20 DUP3 ADD SWAP2 POP DUP2 SWAP1 POP SWAP5 SWAP4 POP POP POP POP JUMP JUMPDEST PUSH32 0x4E487B7100000000000000000000000000000000000000000000000000000000 PUSH1 0x0 MSTORE PUSH1 0x12 PUSH1 0x4 MSTORE PUSH1 0x24 PUSH1 0x0 REVERT JUMPDEST PUSH1 0x0 PUSH2 0x4244 DUP3 PUSH2 0x3858 JUMP JUMPDEST SWAP2 POP PUSH2 0x424F DUP4 PUSH2 0x3858 JUMP JUMPDEST SWAP3 POP DUP3 PUSH2 0x425F JUMPI PUSH2 0x425E PUSH2 0x420A JUMP JUMPDEST JUMPDEST DUP3 DUP3 MOD SWAP1 POP SWAP3 SWAP2 POP POP JUMP JUMPDEST PUSH32 0x4E487B7100000000000000000000000000000000000000000000000000000000 PUSH1 0x0 MSTORE PUSH1 0x41 PUSH1 0x4 MSTORE PUSH1 0x24 PUSH1 0x0 REVERT INVALID LOG2 PUSH5 0x6970667358 0x22 SLT KECCAK256 ISZERO SGT PUSH19 0x284A7D6EACDF8E460D5EE73B404579CD6E950D 0xAD 0xDB SLT SWAP7 0xEE 0x5F 0xDB PUSH25 0x13E464736F6C63430008110033000000000000000000000000 "
				},
				"gasEstimates": {
					"creation": {
						"codeDepositCost": "3420600",
						"executionCost": "132450",
						"totalCost": "3553050"
					},
					"external": {
						"BET_MAX()": "417",
						"BET_MIN()": "419",
						"betAmount()": "2539",
						"deal()": "infinite",
						"dealerBusted()": "2451",
						"dealerCardCount()": "2518",
						"dealerHandValue(uint256,uint256)": "infinite",
						"dealerStands()": "2540",
						"dealersCards(uint256,uint256)": "infinite",
						"finalDealerCount()": "2475",
						"finalPlayerCount()": "2495",
						"fundContract(uint256)": "infinite",
						"gameInProgress()": "2474",
						"hitPlayer()": "infinite",
						"houseBalance()": "2452",
						"placeBet(uint256)": "infinite",
						"playerBalance()": "2562",
						"playerBusted()": "2541",
						"playerCardCount()": "2474",
						"playerHandValue(uint256,uint256)": "infinite",
						"playerStand()": "236497",
						"playerStands()": "2452",
						"playerWithdraw(uint256)": "infinite",
						"playersCards(uint256,uint256)": "infinite"
					},
					"internal": {
						"dealerStand()": "infinite",
						"evaluateDealerHand()": "243715",
						"evaluatePlayerHand()": "207811",
						"gameIsPushed()": "5023",
						"getCards(uint256)": "infinite",
						"getRandom()": "infinite",
						"getSlice(uint256,uint256,string memory)": "infinite",
						"hitDealer()": "infinite",
						"numCardsInArray(uint256[2] memory[16] memory)": "infinite",
						"playerHasBlackJack()": "infinite",
						"pushToDealer(uint256,uint256,uint256)": "infinite",
						"pushToPlayer(uint256,uint256,uint256)": "infinite",
						"replaceDuplicates(uint256[2] memory[4] memory)": "infinite",
						"stringToUint(string memory)": "infinite",
						"sumDealersCards()": "infinite",
						"sumPlayersCards()": "infinite"
					}
				},
				"methodIdentifiers": {
					"BET_MAX()": "d0017a0c",
					"BET_MIN()": "2626ab08",
					"betAmount()": "d24257c0",
					"deal()": "553df021",
					"dealerBusted()": "c5c3cd78",
					"dealerCardCount()": "908a0979",
					"dealerHandValue(uint256,uint256)": "53a218c9",
					"dealerStands()": "a10926d6",
					"dealersCards(uint256,uint256)": "8bbb236f",
					"finalDealerCount()": "13bf01ed",
					"finalPlayerCount()": "cdc7ea51",
					"fundContract(uint256)": "3519a2f8",
					"gameInProgress()": "3fb64e75",
					"hitPlayer()": "dae10ed5",
					"houseBalance()": "67084eb3",
					"placeBet(uint256)": "10fe7c48",
					"playerBalance()": "651f066a",
					"playerBusted()": "325eb3f5",
					"playerCardCount()": "8914d63b",
					"playerHandValue(uint256,uint256)": "16dd37dd",
					"playerStand()": "c9f09d38",
					"playerStands()": "3c3248d5",
					"playerWithdraw(uint256)": "5629365b",
					"playersCards(uint256,uint256)": "bdbe451b"
				}
			},
			"storageLayout": {
				"storage": [
					{
						"astId": 1044,
						"contract": "Project-3/Starter code/blackjack.sol:BlackJack",
						"label": "locked",
						"offset": 0,
						"slot": "0",
						"type": "t_bool"
					},
					{
						"astId": 1047,
						"contract": "Project-3/Starter code/blackjack.sol:BlackJack",
						"label": "gameInProgress",
						"offset": 0,
						"slot": "1",
						"type": "t_uint256"
					},
					{
						"astId": 1056,
						"contract": "Project-3/Starter code/blackjack.sol:BlackJack",
						"label": "houseBalance",
						"offset": 0,
						"slot": "2",
						"type": "t_uint256"
					},
					{
						"astId": 1059,
						"contract": "Project-3/Starter code/blackjack.sol:BlackJack",
						"label": "playerBalance",
						"offset": 0,
						"slot": "3",
						"type": "t_uint256"
					},
					{
						"astId": 1062,
						"contract": "Project-3/Starter code/blackjack.sol:BlackJack",
						"label": "betAmount",
						"offset": 0,
						"slot": "4",
						"type": "t_uint256"
					},
					{
						"astId": 1065,
						"contract": "Project-3/Starter code/blackjack.sol:BlackJack",
						"label": "randomNum",
						"offset": 0,
						"slot": "5",
						"type": "t_uint256"
					},
					{
						"astId": 1068,
						"contract": "Project-3/Starter code/blackjack.sol:BlackJack",
						"label": "suit",
						"offset": 0,
						"slot": "6",
						"type": "t_uint256"
					},
					{
						"astId": 1071,
						"contract": "Project-3/Starter code/blackjack.sol:BlackJack",
						"label": "rank",
						"offset": 0,
						"slot": "7",
						"type": "t_uint256"
					},
					{
						"astId": 1077,
						"contract": "Project-3/Starter code/blackjack.sol:BlackJack",
						"label": "playersCards",
						"offset": 0,
						"slot": "8",
						"type": "t_array(t_array(t_uint256)2_storage)16_storage"
					},
					{
						"astId": 1083,
						"contract": "Project-3/Starter code/blackjack.sol:BlackJack",
						"label": "dealersCards",
						"offset": 0,
						"slot": "40",
						"type": "t_array(t_array(t_uint256)2_storage)16_storage"
					},
					{
						"astId": 1089,
						"contract": "Project-3/Starter code/blackjack.sol:BlackJack",
						"label": "playerHandValue",
						"offset": 0,
						"slot": "72",
						"type": "t_array(t_array(t_uint256)2_storage)2_storage"
					},
					{
						"astId": 1095,
						"contract": "Project-3/Starter code/blackjack.sol:BlackJack",
						"label": "dealerHandValue",
						"offset": 0,
						"slot": "76",
						"type": "t_array(t_array(t_uint256)2_storage)2_storage"
					},
					{
						"astId": 1101,
						"contract": "Project-3/Starter code/blackjack.sol:BlackJack",
						"label": "dealtCards",
						"offset": 0,
						"slot": "80",
						"type": "t_array(t_array(t_uint256)2_storage)4_storage"
					},
					{
						"astId": 1104,
						"contract": "Project-3/Starter code/blackjack.sol:BlackJack",
						"label": "playerCardCount",
						"offset": 0,
						"slot": "88",
						"type": "t_uint256"
					},
					{
						"astId": 1107,
						"contract": "Project-3/Starter code/blackjack.sol:BlackJack",
						"label": "dealerCardCount",
						"offset": 0,
						"slot": "89",
						"type": "t_uint256"
					},
					{
						"astId": 1110,
						"contract": "Project-3/Starter code/blackjack.sol:BlackJack",
						"label": "playerBusted",
						"offset": 0,
						"slot": "90",
						"type": "t_uint256"
					},
					{
						"astId": 1113,
						"contract": "Project-3/Starter code/blackjack.sol:BlackJack",
						"label": "dealerBusted",
						"offset": 0,
						"slot": "91",
						"type": "t_uint256"
					},
					{
						"astId": 1116,
						"contract": "Project-3/Starter code/blackjack.sol:BlackJack",
						"label": "finalPlayerCount",
						"offset": 0,
						"slot": "92",
						"type": "t_uint256"
					},
					{
						"astId": 1119,
						"contract": "Project-3/Starter code/blackjack.sol:BlackJack",
						"label": "finalDealerCount",
						"offset": 0,
						"slot": "93",
						"type": "t_uint256"
					},
					{
						"astId": 1122,
						"contract": "Project-3/Starter code/blackjack.sol:BlackJack",
						"label": "playerStands",
						"offset": 0,
						"slot": "94",
						"type": "t_uint256"
					},
					{
						"astId": 1125,
						"contract": "Project-3/Starter code/blackjack.sol:BlackJack",
						"label": "dealerStands",
						"offset": 0,
						"slot": "95",
						"type": "t_uint256"
					},
					{
						"astId": 1128,
						"contract": "Project-3/Starter code/blackjack.sol:BlackJack",
						"label": "nonce",
						"offset": 0,
						"slot": "96",
						"type": "t_uint256"
					},
					{
						"astId": 1134,
						"contract": "Project-3/Starter code/blackjack.sol:BlackJack",
						"label": "playerWallet",
						"offset": 0,
						"slot": "97",
						"type": "t_address"
					},
					{
						"astId": 1140,
						"contract": "Project-3/Starter code/blackjack.sol:BlackJack",
						"label": "houseWallet",
						"offset": 0,
						"slot": "98",
						"type": "t_address"
					}
				],
				"types": {
					"t_address": {
						"encoding": "inplace",
						"label": "address",
						"numberOfBytes": "20"
					},
					"t_array(t_array(t_uint256)2_storage)16_storage": {
						"base": "t_array(t_uint256)2_storage",
						"encoding": "inplace",
						"label": "uint256[2][16]",
						"numberOfBytes": "1024"
					},
					"t_array(t_array(t_uint256)2_storage)2_storage": {
						"base": "t_array(t_uint256)2_storage",
						"encoding": "inplace",
						"label": "uint256[2][2]",
						"numberOfBytes": "128"
					},
					"t_array(t_array(t_uint256)2_storage)4_storage": {
						"base": "t_array(t_uint256)2_storage",
						"encoding": "inplace",
						"label": "uint256[2][4]",
						"numberOfBytes": "256"
					},
					"t_array(t_uint256)2_storage": {
						"base": "t_uint256",
						"encoding": "inplace",
						"label": "uint256[2]",
						"numberOfBytes": "64"
					},
					"t_bool": {
						"encoding": "inplace",
						"label": "bool",
						"numberOfBytes": "1"
					},
					"t_uint256": {
						"encoding": "inplace",
						"label": "uint256",
						"numberOfBytes": "32"
					}
				}
			},
			"userdoc": {
				"kind": "user",
				"methods": {},
				"version": 1
			}
		}
	}
}