{
	"data": {
		"bytecode": {
			"linkReferences": {},
			"object": "60806040526000600155600060025560006003556000600455600060055560006006556000600755600060085560006059556000605a556000605b556000605c556000605d556000605e556000605f55600060605560006061556000606260006101000a81548173ffffffffffffffffffffffffffffffffffffffff021916908373ffffffffffffffffffffffffffffffffffffffff1602179055506000606360006101000a81548173ffffffffffffffffffffffffffffffffffffffff021916908373ffffffffffffffffffffffffffffffffffffffff1602179055503480156100e957600080fd5b50614a48806100f96000396000f3fe6080604052600436106101815760003560e01c806367084eb3116100d1578063c2855a591161008a578063cdc7ea5111610064578063cdc7ea5114610524578063d0017a0c1461054f578063d24257c01461057a578063dae10ed5146105a557610181565b8063c2855a59146104cb578063c5c3cd78146104e2578063c9f09d381461050d57610181565b806367084eb3146103a55780638914d63b146103d05780638bbb236f146103fb578063908a097914610438578063a10926d614610463578063bdbe451b1461048e57610181565b80633519a2f81161013e57806353a218c91161011857806353a218c91461030a578063553df021146103475780635629365b1461035e578063651f066a1461037a57610181565b80633519a2f8146102985780633c3248d5146102b45780633fb64e75146102df57610181565b806310fe7c481461018657806313bf01ed146101af57806316dd37dd146101da5780632626ab081461021757806329c0cbf614610242578063325eb3f51461026d575b600080fd5b34801561019257600080fd5b506101ad60048036038101906101a89190613e46565b6105bc565b005b3480156101bb57600080fd5b506101c461079a565b6040516101d19190613e82565b60405180910390f35b3480156101e657600080fd5b5061020160048036038101906101fc9190613e9d565b6107a0565b60405161020e9190613e82565b60405180910390f35b34801561022357600080fd5b5061022c6107ce565b6040516102399190613e82565b60405180910390f35b34801561024e57600080fd5b506102576107d3565b6040516102649190613e82565b60405180910390f35b34801561027957600080fd5b506102826107d9565b60405161028f9190613e82565b60405180910390f35b6102b260048036038101906102ad9190613e46565b6107df565b005b3480156102c057600080fd5b506102c9610d0e565b6040516102d69190613e82565b60405180910390f35b3480156102eb57600080fd5b506102f4610d14565b6040516103019190613e82565b60405180910390f35b34801561031657600080fd5b50610331600480360381019061032c9190613e9d565b610d1a565b60405161033e9190613e82565b60405180910390f35b34801561035357600080fd5b5061035c610d48565b005b61037860048036038101906103739190613e46565b611238565b005b34801561038657600080fd5b5061038f611456565b60405161039c9190613e82565b60405180910390f35b3480156103b157600080fd5b506103ba61145c565b6040516103c79190613e82565b60405180910390f35b3480156103dc57600080fd5b506103e5611462565b6040516103f29190613e82565b60405180910390f35b34801561040757600080fd5b50610422600480360381019061041d9190613e9d565b611468565b60405161042f9190613e82565b60405180910390f35b34801561044457600080fd5b5061044d611496565b60405161045a9190613e82565b60405180910390f35b34801561046f57600080fd5b5061047861149c565b6040516104859190613e82565b60405180910390f35b34801561049a57600080fd5b506104b560048036038101906104b09190613e9d565b6114a2565b6040516104c29190613e82565b60405180910390f35b3480156104d757600080fd5b506104e06114d0565b005b3480156104ee57600080fd5b506104f7611800565b6040516105049190613e82565b60405180910390f35b34801561051957600080fd5b50610522611806565b005b34801561053057600080fd5b506105396118fd565b6040516105469190613e82565b60405180910390f35b34801561055b57600080fd5b50610564611903565b6040516105719190613e82565b60405180910390f35b34801561058657600080fd5b5061058f61190f565b60405161059c9190613e82565b60405180910390f35b3480156105b157600080fd5b506105ba611915565b005b80600181101580156105d65750670de0b6b3a76400008111155b6105df57600080fd5b600354811115610624576040517f08c379a000000000000000000000000000000000000000000000000000000000815260040161061b90613f60565b60405180910390fd5b606260009054906101000a900473ffffffffffffffffffffffffffffffffffffffff1673ffffffffffffffffffffffffffffffffffffffff163373ffffffffffffffffffffffffffffffffffffffff16146106b4576040517f08c379a00000000000000000000000000000000000000000000000000000000081526004016106ab90613fcc565b60405180910390fd5b6000600454146106f9576040517f08c379a00000000000000000000000000000000000000000000000000000000081526004016106f090614038565b60405180910390fd5b60008054906101000a900460ff1615610747576040517f08c379a000000000000000000000000000000000000000000000000000000000815260040161073e906140a4565b60405180910390fd5b60016000806101000a81548160ff0219169083151502179055508160035461076f91906140f3565b6003819055508160048190555060008060006101000a81548160ff0219169083151502179055505050565b605e5481565b604982600281106107b057600080fd5b6002020181600281106107c257600080fd5b01600091509150505481565b600181565b60055481565b605b5481565b80600073ffffffffffffffffffffffffffffffffffffffff16606360009054906101000a900473ffffffffffffffffffffffffffffffffffffffff1673ffffffffffffffffffffffffffffffffffffffff16148061088b5750600073ffffffffffffffffffffffffffffffffffffffff16606260009054906101000a900473ffffffffffffffffffffffffffffffffffffffff1673ffffffffffffffffffffffffffffffffffffffff16145b806108e35750606360009054906101000a900473ffffffffffffffffffffffffffffffffffffffff1673ffffffffffffffffffffffffffffffffffffffff163373ffffffffffffffffffffffffffffffffffffffff16145b8061093b5750606260009054906101000a900473ffffffffffffffffffffffffffffffffffffffff1673ffffffffffffffffffffffffffffffffffffffff163373ffffffffffffffffffffffffffffffffffffffff16145b61097a576040517f08c379a000000000000000000000000000000000000000000000000000000000815260040161097190614199565b60405180910390fd5b60008114806109895750600181145b6109c8576040517f08c379a00000000000000000000000000000000000000000000000000000000081526004016109bf9061422b565b60405180910390fd5b60008203610b6957606360009054906101000a900473ffffffffffffffffffffffffffffffffffffffff1673ffffffffffffffffffffffffffffffffffffffff163373ffffffffffffffffffffffffffffffffffffffff161480610a7a5750600073ffffffffffffffffffffffffffffffffffffffff16606360009054906101000a900473ffffffffffffffffffffffffffffffffffffffff1673ffffffffffffffffffffffffffffffffffffffff16145b8015610ad45750606260009054906101000a900473ffffffffffffffffffffffffffffffffffffffff1673ffffffffffffffffffffffffffffffffffffffff163373ffffffffffffffffffffffffffffffffffffffff1614155b610b13576040517f08c379a0000000000000000000000000000000000000000000000000000000008152600401610b0a906142bd565b60405180910390fd5b33606360006101000a81548173ffffffffffffffffffffffffffffffffffffffff021916908373ffffffffffffffffffffffffffffffffffffffff16021790555034600254610b6291906142dd565b6002819055505b60018203610d0a57606260009054906101000a900473ffffffffffffffffffffffffffffffffffffffff1673ffffffffffffffffffffffffffffffffffffffff163373ffffffffffffffffffffffffffffffffffffffff161480610c1b5750600073ffffffffffffffffffffffffffffffffffffffff16606260009054906101000a900473ffffffffffffffffffffffffffffffffffffffff1673ffffffffffffffffffffffffffffffffffffffff16145b8015610c755750606360009054906101000a900473ffffffffffffffffffffffffffffffffffffffff1673ffffffffffffffffffffffffffffffffffffffff163373ffffffffffffffffffffffffffffffffffffffff1614155b610cb4576040517f08c379a0000000000000000000000000000000000000000000000000000000008152600401610cab90614383565b60405180910390fd5b33606260006101000a81548173ffffffffffffffffffffffffffffffffffffffff021916908373ffffffffffffffffffffffffffffffffffffffff16021790555034600354610d0391906142dd565b6003819055505b5050565b605f5481565b60015481565b604d8260028110610d2a57600080fd5b600202018160028110610d3c57600080fd5b01600091509150505481565b60008054906101000a900460ff1615610d96576040517f08c379a0000000000000000000000000000000000000000000000000000000008152600401610d8d906140a4565b60405180910390fd5b60016000806101000a81548160ff021916908315150217905550600060045411610df5576040517f08c379a0000000000000000000000000000000000000000000000000000000008152600401610dec90614415565b60405180910390fd5b600180819055506000605f819055506000605b819055506000605c819055506000605f8190555060006060819055506000605e819055506000605d8190555060006049600160028110610e4b57610e4a614435565b5b60020201600060028110610e6257610e61614435565b5b018190555060006049600160028110610e7e57610e7d614435565b5b60020201600160028110610e9557610e94614435565b5b01819055506000600190505b600f8111610ff257600060098260108110610ebf57610ebe614435565b5b60020201600060028110610ed657610ed5614435565b5b0181905550600060098260108110610ef157610ef0614435565b5b60020201600160028110610f0857610f07614435565b5b0181905550600060298260108110610f2357610f22614435565b5b60020201600060028110610f3a57610f39614435565b5b0181905550600060298260108110610f5557610f54614435565b5b60020201600160028110610f6c57610f6b614435565b5b01819055506004811015610fdf57600060518260048110610f9057610f8f614435565b5b60020201600060028110610fa757610fa6614435565b5b0181905550600060518260048110610fc257610fc1614435565b5b60020201600160028110610fd957610fd8614435565b5b01819055505b8080610fea90614464565b915050610ea1565b50610ffd6003611cb2565b61107b6051600480602002604051908101604052809291906000905b828210156110725783826002020160028060200260405190810160405280929190826002801561105e576020028201915b81548152602001906001019080831161104a575b505050505081526020019060010190611019565b50505050611f70565b605190600461108b929190613cdc565b506110f260516001600481106110a4576110a3614435565b5b600202016000600281106110bb576110ba614435565b5b015460516001600481106110d2576110d1614435565b5b600202016001600281106110e9576110e8614435565b5b015460016122d2565b611158605160026004811061110a57611109614435565b5b6002020160006002811061112157611120614435565b5b0154605160026004811061113857611137614435565b5b6002020160016002811061114f5761114e614435565b5b015460016123bd565b6111be60516003600481106111705761116f614435565b5b6002020160006002811061118757611186614435565b5b0154605160036004811061119e5761119d614435565b5b600202016001600281106111b5576111b4614435565b5b015460026122d2565b6111c66124a8565b6111ce61271c565b6111d6612991565b6111de612f15565b601560496001600281106111f5576111f4614435565b5b6002020160016002811061120c5761120b614435565b5b01540361121c5761121b6133cb565b5b60008060006101000a81548160ff021916908315150217905550565b8060006003541161127e576040517f08c379a00000000000000000000000000000000000000000000000000000000081526004016112759061451e565b60405180910390fd5b606260009054906101000a900473ffffffffffffffffffffffffffffffffffffffff1673ffffffffffffffffffffffffffffffffffffffff163373ffffffffffffffffffffffffffffffffffffffff161461130e576040517f08c379a0000000000000000000000000000000000000000000000000000000008152600401611305906145b0565b60405180910390fd5b600354811115611353576040517f08c379a000000000000000000000000000000000000000000000000000000000815260040161134a90614642565b60405180910390fd5b60008054906101000a900460ff16156113a1576040517f08c379a0000000000000000000000000000000000000000000000000000000008152600401611398906140a4565b60405180910390fd5b60016000806101000a81548160ff021916908315150217905550816003546113c991906140f3565b600381905550606260009054906101000a900473ffffffffffffffffffffffffffffffffffffffff1673ffffffffffffffffffffffffffffffffffffffff166108fc839081150290604051600060405180830381858888f19350505050158015611437573d6000803e3d6000fd5b5060008060006101000a81548160ff0219169083151502179055505050565b60035481565b60025481565b60595481565b6029826010811061147857600080fd5b60020201816002811061148a57600080fd5b01600091509150505481565b605a5481565b60605481565b600982601081106114b257600080fd5b6002020181600281106114c457600080fd5b01600091509150505481565b6011605e5410611515576040517f08c379a000000000000000000000000000000000000000000000000000000000815260040161150c906146d4565b60405180910390fd5b6001605b54148061152857506001605f54145b61153157600080fd5b60006115b16029601080602002604051908101604052809291906000905b828210156115a857838260020201600280602002604051908101604052809291908260028015611594576020028201915b815481526020019060010190808311611580575b50505050508152602001906001019061154f565b50505050613734565b90506115bd6001611cb2565b6000600190505b600b811161177b575b60516001600481106115e2576115e1614435565b5b600202016000600281106115f9576115f8614435565b5b01546009826010811061160f5761160e614435565b5b6002020160006002811061162657611625614435565b5b015414801561168d5750605160016004811061164557611644614435565b5b6002020160016002811061165c5761165b614435565b5b01546009826010811061167257611671614435565b5b6002020160006002811061168957611688614435565b5b0154145b80611754575060516001600481106116a8576116a7614435565b5b600202016000600281106116bf576116be614435565b5b0154602982601081106116d5576116d4614435565b5b600202016000600281106116ec576116eb614435565b5b01541480156117535750605160016004811061170b5761170a614435565b5b6002020160016002811061172257611721614435565b5b01546029826010811061173857611737614435565b5b6002020160016002811061174f5761174e614435565b5b0154145b5b15611768576117636001611cb2565b6115cd565b808061177390614464565b9150506115c4565b506117ed605160016004811061179457611793614435565b5b600202016000600281106117ab576117aa614435565b5b015460516001600481106117c2576117c1614435565b5b600202016001600281106117d9576117d8614435565b5b01546001846117e891906142dd565b6123bd565b6117f561271c565b6117fd612991565b50565b605c5481565b6000605f541461184b576040517f08c379a000000000000000000000000000000000000000000000000000000000815260040161184290614740565b60405180910390fd5b6000605b5414611890576040517f08c379a0000000000000000000000000000000000000000000000000000000008152600401611887906147ac565b60405180910390fd5b60018054146118d4576040517f08c379a00000000000000000000000000000000000000000000000000000000081526004016118cb90614818565b60405180910390fd5b6001605f819055506118e4612f15565b5b60018054036118fb576118f66114d0565b6118e5565b565b605d5481565b670de0b6b3a764000081565b60045481565b6001805414611959576040517f08c379a000000000000000000000000000000000000000000000000000000000815260040161195090614818565b60405180910390fd5b6000605b541461199e576040517f08c379a0000000000000000000000000000000000000000000000000000000008152600401611995906147ac565b60405180910390fd5b6000605f54146119e3576040517f08c379a00000000000000000000000000000000000000000000000000000000081526004016119da90614740565b60405180910390fd5b6000611a636009601080602002604051908101604052809291906000905b82821015611a5a57838260020201600280602002604051908101604052809291908260028015611a46576020028201915b815481526020019060010190808311611a32575b505050505081526020019060010190611a01565b50505050613734565b9050611a6f6001611cb2565b6000600190505b600b8111611c2d575b6051600160048110611a9457611a93614435565b5b60020201600060028110611aab57611aaa614435565b5b015460098260108110611ac157611ac0614435565b5b60020201600060028110611ad857611ad7614435565b5b0154148015611b3f57506051600160048110611af757611af6614435565b5b60020201600160028110611b0e57611b0d614435565b5b015460098260108110611b2457611b23614435565b5b60020201600060028110611b3b57611b3a614435565b5b0154145b80611c0657506051600160048110611b5a57611b59614435565b5b60020201600060028110611b7157611b70614435565b5b015460298260108110611b8757611b86614435565b5b60020201600060028110611b9e57611b9d614435565b5b0154148015611c0557506051600160048110611bbd57611bbc614435565b5b60020201600160028110611bd457611bd3614435565b5b015460298260108110611bea57611be9614435565b5b60020201600160028110611c0157611c00614435565b5b0154145b5b15611c1a57611c156001611cb2565b611a7f565b8080611c2590614464565b915050611a76565b50611c9f6051600160048110611c4657611c45614435565b5b60020201600060028110611c5d57611c5c614435565b5b01546051600160048110611c7457611c73614435565b5b60020201600160028110611c8b57611c8a614435565b5b0154600184611c9a91906142dd565b6122d2565b611ca76124a8565b611caf612f15565b50565b600060405180602001604052806000815250905060006040518060200160405280600081525090506000806001905060005b858211611f685760006003905060006004905060006008819055506000600781905550611d0f6137ac565b600681905550611d20600654613860565b9650611d2d82828961392e565b9550611d3886613a43565b9250865194505b6001831080611d4e5750600d83115b8015611d655750600385611d6291906140f3565b82105b15611df957600282611d7791906142dd565b9150600281611d8691906142dd565b9050611d9382828961392e565b9550611d9e86613a43565b9250600385611dad91906140f3565b821115611df4576003915060049050611dc46137ac565b600681905550611dd5600654613860565b9650611de282828961392e565b9550611ded86613a43565b9250865194505b611d3f565b82600881905550600282611e0d91906142dd565b9150600281611e1c91906142dd565b9050611e2982828961392e565b9550611e3486613a43565b92505b6001831080611e465750600483115b8015611e5d5750600385611e5a91906140f3565b82105b15611ee557600182611e6f91906142dd565b9150819050611e7f82828961392e565b9550611e8a86613a43565b9250600385611e9991906140f3565b821115611ee0576004915060049050611eb06137ac565b600681905550611ec1600654613860565b9650611ece82828961392e565b9550611ed986613a43565b9250865194505b611e37565b8260078190555060085460518560048110611f0357611f02614435565b5b60020201600060028110611f1a57611f19614435565b5b018190555060075460518560048110611f3657611f35614435565b5b60020201600160028110611f4d57611f4c614435565b5b0181905550600184611f5f91906142dd565b93505050611ce4565b505050505050565b611f78613d2d565b5b81600260048110611f8d57611f8c614435565b5b6020020151600060028110611fa557611fa4614435565b5b602002015182600160048110611fbe57611fbd614435565b5b6020020151600060028110611fd657611fd5614435565b5b6020020151148015612047575081600260048110611ff757611ff6614435565b5b602002015160016002811061200f5761200e614435565b5b60200201518260016004811061202857612027614435565b5b60200201516001600281106120405761203f614435565b5b6020020151145b15612121576120566001611cb2565b605160016004811061206b5761206a614435565b5b6002020160006002811061208257612081614435565b5b01548260026004811061209857612097614435565b5b60200201516000600281106120b0576120af614435565b5b60200201818152505060516001600481106120ce576120cd614435565b5b600202016001600281106120e5576120e4614435565b5b0154826002600481106120fb576120fa614435565b5b602002015160016002811061211357612112614435565b5b602002018181525050611f79565b5b8160036004811061213657612135614435565b5b602002015160006002811061214e5761214d614435565b5b60200201518260026004811061216757612166614435565b5b602002015160006002811061217f5761217e614435565b5b60200201511480156121f05750816003600481106121a05761219f614435565b5b60200201516001600281106121b8576121b7614435565b5b6020020151826002600481106121d1576121d0614435565b5b60200201516001600281106121e9576121e8614435565b5b6020020151145b156122ca576121ff6001611cb2565b605160016004811061221457612213614435565b5b6002020160006002811061222b5761222a614435565b5b01548260036004811061224157612240614435565b5b602002015160006002811061225957612258614435565b5b602002018181525050605160016004811061227757612276614435565b5b6002020160016002811061228e5761228d614435565b5b0154826003600481106122a4576122a3614435565b5b60200201516001600281106122bc576122bb614435565b5b602002018181525050612122565b819050919050565b82600982601081106122e7576122e6614435565b5b600202016000600281106122fe576122fd614435565b5b0181905550816009826010811061231857612317614435565b5b6002020160016002811061232f5761232e614435565b5b01819055506123b26009601080602002604051908101604052809291906000905b828210156123a957838260020201600280602002604051908101604052809291908260028015612395576020028201915b815481526020019060010190808311612381575b505050505081526020019060010190612350565b50505050613734565b605981905550505050565b82602982601081106123d2576123d1614435565b5b600202016000600281106123e9576123e8614435565b5b0181905550816029826010811061240357612402614435565b5b6002020160016002811061241a57612419614435565b5b018190555061249d6029601080602002604051908101604052809291906000905b8282101561249457838260020201600280602002604051908101604052809291908260028015612480576020028201915b81548152602001906001019080831161246c575b50505050508152602001906001019061243b565b50505050613734565b605a81905550505050565b6000806125296009601080602002604051908101604052809291906000905b828210156125205783826002020160028060200260405190810160405280929190826002801561250c576020028201915b8154815260200190600101908083116124f8575b5050505050815260200190600101906124c7565b50505050613734565b6059819055506000600190505b605954811161263f57600980826010811061255457612553614435565b5b6002020160006002811061256b5761256a614435565b5b0154111561258357600a8361258091906142dd565b92505b600a6009826010811061259957612598614435565b5b600202016000600281106125b0576125af614435565b5b015410156125f357600981601081106125cc576125cb614435565b5b600202016000600281106125e3576125e2614435565b5b0154836125f091906142dd565b92505b60016009826010811061260957612608614435565b5b600202016000600281106126205761261f614435565b5b01540361262c57600191505b808061263790614464565b915050612536565b5081604960016002811061265657612655614435565b5b6002020160006002811061266d5761266c614435565b5b018190555081604960016002811061268857612687614435565b5b6002020160016002811061269f5761269e614435565b5b01819055506001810361271857600a60496001600281106126c3576126c2614435565b5b600202016001600281106126da576126d9614435565b5b01546126e691906142dd565b60496001600281106126fb576126fa614435565b5b6002020160016002811061271257612711614435565b5b01819055505b5050565b60008061279d6029601080602002604051908101604052809291906000905b8282101561279457838260020201600280602002604051908101604052809291908260028015612780576020028201915b81548152602001906001019080831161276c575b50505050508152602001906001019061273b565b50505050613734565b605a819055506000600190505b605a5481116128b4576009602982601081106127c9576127c8614435565b5b600202016000600281106127e0576127df614435565b5b015411156127f857600a836127f591906142dd565b92505b600a6029826010811061280e5761280d614435565b5b6002020160006002811061282557612824614435565b5b01541015612868576029816010811061284157612840614435565b5b6002020160006002811061285857612857614435565b5b01548361286591906142dd565b92505b60016029826010811061287e5761287d614435565b5b6002020160006002811061289557612894614435565b5b0154036128a157600191505b80806128ac90614464565b9150506127aa565b5081604d6001600281106128cb576128ca614435565b5b600202016000600281106128e2576128e1614435565b5b018190555081604d6001600281106128fd576128fc614435565b5b6002020160016002811061291457612913614435565b5b01819055506001810361298d57600a604d60016002811061293857612937614435565b5b6002020160016002811061294f5761294e614435565b5b015461295b91906142dd565b604d6001600281106129705761296f614435565b5b6002020160016002811061298757612986614435565b5b01819055505b5050565b6015604d6001600281106129a8576129a7614435565b5b600202016000600281106129bf576129be614435565b5b0154111580156129fc57506015604d6001600281106129e1576129e0614435565b5b600202016001600281106129f8576129f7614435565b5b0154115b15612a3657604d600160028110612a1657612a15614435565b5b60020201600060028110612a2d57612a2c614435565b5b0154605e819055505b6015604d600160028110612a4d57612a4c614435565b5b60020201600060028110612a6457612a63614435565b5b0154118015612aa1575060156049600160028110612a8557612a84614435565b5b60020201600160028110612a9c57612a9b614435565b5b015411155b15612adb57604d600160028110612abb57612aba614435565b5b60020201600160028110612ad257612ad1614435565b5b0154605e819055505b6015604d600160028110612af257612af1614435565b5b60020201600060028110612b0957612b08614435565b5b015411158015612b4757506015604d600160028110612b2b57612b2a614435565b5b60020201600160028110612b4257612b41614435565b5b015411155b15612c7a57604d600160028110612b6157612b60614435565b5b60020201600160028110612b7857612b77614435565b5b0154604d600160028110612b8f57612b8e614435565b5b60020201600060028110612ba657612ba5614435565b5b01541115612be357604d600160028110612bc357612bc2614435565b5b60020201600060028110612bda57612bd9614435565b5b0154605e819055505b604d600160028110612bf857612bf7614435565b5b60020201600160028110612c0f57612c0e614435565b5b0154604d600160028110612c2657612c25614435565b5b60020201600060028110612c3d57612c3c614435565b5b015411612c7957604d600160028110612c5957612c58614435565b5b60020201600160028110612c7057612c6f614435565b5b0154605e819055505b5b6010604d600160028110612c9157612c90614435565b5b60020201600060028110612ca857612ca7614435565b5b01541180612ce357506010604d600160028110612cc857612cc7614435565b5b60020201600160028110612cdf57612cde614435565b5b0154115b15612f13576015604d600160028110612cff57612cfe614435565b5b60020201600060028110612d1657612d15614435565b5b0154118015612d5257506015604d600160028110612d3757612d36614435565b5b60020201600160028110612d4e57612d4d614435565b5b0154115b15612eef576001605c819055506000600181905550604d600160028110612d7c57612d7b614435565b5b60020201600160028110612d9357612d92614435565b5b0154604d600160028110612daa57612da9614435565b5b60020201600060028110612dc157612dc0614435565b5b015411612dfd57604d600160028110612ddd57612ddc614435565b5b60020201600060028110612df457612df3614435565b5b0154605e819055505b604d600160028110612e1257612e11614435565b5b60020201600160028110612e2957612e28614435565b5b0154604d600160028110612e4057612e3f614435565b5b60020201600060028110612e5757612e56614435565b5b01541115612e9457604d600160028110612e7457612e73614435565b5b60020201600160028110612e8b57612e8a614435565b5b0154605e819055505b6000605b54148015612ea857506001605f54145b15612eee576002600454612ebc9190614838565b600354612ec991906142dd565b600381905550600454600254612edf91906140f3565b60028190555060006004819055505b5b6001605c5414612f125760006001819055506001606081905550612f11613adb565b5b5b565b60156049600160028110612f2c57612f2b614435565b5b60020201600060028110612f4357612f42614435565b5b0154118015612f7f575060156049600160028110612f6457612f63614435565b5b60020201600160028110612f7b57612f7a614435565b5b0154115b156130e0576001605b8190555060006001819055506049600160028110612fa957612fa8614435565b5b60020201600160028110612fc057612fbf614435565b5b01546049600160028110612fd757612fd6614435565b5b60020201600060028110612fee57612fed614435565b5b01541161302a57604960016002811061300a57613009614435565b5b6002020160006002811061302157613020614435565b5b0154605d819055505b604960016002811061303f5761303e614435565b5b6002020160016002811061305657613055614435565b5b0154604960016002811061306d5761306c614435565b5b6002020160006002811061308457613083614435565b5b015411156130c15760496001600281106130a1576130a0614435565b5b600202016001600281106130b8576130b7614435565b5b0154605d819055505b6004546002546130d191906142dd565b60028190555060006004819055505b601560496001600281106130f7576130f6614435565b5b6002020160006002811061310e5761310d614435565b5b01541115801561314b5750601560496001600281106131305761312f614435565b5b6002020160016002811061314757613146614435565b5b0154115b1561318557604960016002811061316557613164614435565b5b6002020160006002811061317c5761317b614435565b5b0154605d819055505b6015604960016002811061319c5761319b614435565b5b600202016000600281106131b3576131b2614435565b5b01541180156131f05750601560496001600281106131d4576131d3614435565b5b600202016001600281106131eb576131ea614435565b5b015411155b1561322a57604960016002811061320a57613209614435565b5b6002020160016002811061322157613220614435565b5b0154605d819055505b6015604960016002811061324157613240614435565b5b6002020160006002811061325857613257614435565b5b01541115801561329657506015604960016002811061327a57613279614435565b5b6002020160016002811061329157613290614435565b5b015411155b156133c95760496001600281106132b0576132af614435565b5b600202016001600281106132c7576132c6614435565b5b015460496001600281106132de576132dd614435565b5b600202016000600281106132f5576132f4614435565b5b0154111561333257604960016002811061331257613311614435565b5b6002020160006002811061332957613328614435565b5b0154605d819055505b604960016002811061334757613346614435565b5b6002020160016002811061335e5761335d614435565b5b0154604960016002811061337557613374614435565b5b6002020160006002811061338c5761338b614435565b5b0154116133c85760496001600281106133a8576133a7614435565b5b600202016001600281106133bf576133be614435565b5b0154605d819055505b5b565b6000600181905550600160296001601081106133ea576133e9614435565b5b6002020160006002811061340157613400614435565b5b0154148061343c5750600a604d60016002811061342157613420614435565b5b6002020160006002811061343857613437614435565b5b0154145b156137325761344b6001611cb2565b6000600190505b60018111613606575b60516001600481106134705761346f614435565b5b6002020160006002811061348757613486614435565b5b01546009826010811061349d5761349c614435565b5b600202016000600281106134b4576134b3614435565b5b0154148061351a575060516001600481106134d2576134d1614435565b5b600202016000600281106134e9576134e8614435565b5b0154602982601081106134ff576134fe614435565b5b6002020160006002811061351657613515614435565b5b0154145b156135f357605160016004811061353457613533614435565b5b6002020160016002811061354b5761354a614435565b5b01546009826010811061356157613560614435565b5b6002020160016002811061357857613577614435565b5b015414806135de5750605160016004811061359657613595614435565b5b600202016001600281106135ad576135ac614435565b5b0154602982601081106135c3576135c2614435565b5b600202016001600281106135da576135d9614435565b5b0154145b156135ee576135ed6001611cb2565b5b61345b565b80806135fe90614464565b915050613452565b5061366d605160016004811061361f5761361e614435565b5b6002020160006002811061363657613635614435565b5b0154605160016004811061364d5761364c614435565b5b6002020160016002811061366457613663614435565b5b015460026123bd565b61367561271c565b61367d612991565b6015604d60016002811061369457613693614435565b5b600202016001600281106136ab576136aa614435565b5b0154036136bf576136ba613b69565b613731565b600260036004546136d09190614838565b6136da91906148a9565b6004546003546136ea91906142dd565b6136f491906142dd565b6003819055506002600360045461370b9190614838565b61371591906148a9565b60025461372291906140f3565b60028190555060006004819055505b5b565b6000806000905060005b60108210156137a257600084836010811061375c5761375b614435565b5b602002015160006002811061377457613773614435565b5b60200201511461378e5760018161378b91906142dd565b90505b60018261379b91906142dd565b915061373e565b8092505050919050565b6000606160008154809291906137c190614464565b91905055507f028f5c28f5c28f5c28f5c28f5c28f5c28f5c28f5c28f5c28f5c28f5c28f5c28f60036061546137f69190614838565b4361380191906142dd565b3360615460405160200161381793929190614975565b6040516020818303038152906040528051906020012060001c61383a91906149b2565b6006819055506061600081548092919061385390614464565b9190505550600654905090565b60606000600161386f84613b89565b01905060008167ffffffffffffffff81111561388e5761388d6149e3565b5b6040519080825280601f01601f1916602001820160405280156138c05781602001600182028036833780820191505090505b509050600082602001820190505b600115613923578080600190039150507f3031323334353637383961626364656600000000000000000000000000000000600a86061a8153600a85816139175761391661487a565b5b049450600085036138ce575b819350505050919050565b606060006001858561394091906140f3565b61394a91906142dd565b67ffffffffffffffff811115613963576139626149e3565b5b6040519080825280601f01601f1916602001820160405280156139955781602001600182028036833780820191505090505b50905060005b85856139a791906140f3565b8111613a375783600187836139bc91906142dd565b6139c691906140f3565b815181106139d7576139d6614435565b5b602001015160f81c60f81b8282815181106139f5576139f4614435565b5b60200101907effffffffffffffffffffffffffffffffffffffffffffffffffffffffffffff1916908160001a9053508080613a2f90614464565b91505061399b565b50809150509392505050565b6000808290506000805b8251811015613ad0576000838281518110613a6b57613a6a614435565b5b602001015160f81c60f81b60f81c60ff16905060308110158015613a90575060398111155b15613abc57603081613aa291906140f3565b600a84613aaf9190614838565b613ab991906142dd565b92505b508080613ac890614464565b915050613a4d565b508092505050919050565b605d54605e541115613b0657600454600254613af791906142dd565b60028190555060006004819055505b605e54605d541115613b53576002600454613b219190614838565b600354613b2e91906142dd565b600381905550600454600254613b4491906140f3565b60028190555060006004819055505b605d54605e5403613b6757613b66613b69565b5b565b600454600354613b7991906142dd565b6003819055506000600481905550565b600080600090507a184f03e93ff9f4daa797ed6e38ed64bf6a1f0100000000000000008310613be7577a184f03e93ff9f4daa797ed6e38ed64bf6a1f0100000000000000008381613bdd57613bdc61487a565b5b0492506040810190505b6d04ee2d6d415b85acef81000000008310613c24576d04ee2d6d415b85acef81000000008381613c1a57613c1961487a565b5b0492506020810190505b662386f26fc100008310613c5357662386f26fc100008381613c4957613c4861487a565b5b0492506010810190505b6305f5e1008310613c7c576305f5e1008381613c7257613c7161487a565b5b0492506008810190505b6127108310613ca1576127108381613c9757613c9661487a565b5b0492506004810190505b60648310613cc45760648381613cba57613cb961487a565b5b0492506002810190505b600a8310613cd3576001810190505b80915050919050565b8260046002028101928215613d1c579160200282015b82811115613d1b57825182906002613d0b929190613d5a565b5091602001919060020190613cf2565b5b509050613d299190613d9a565b5090565b60405180608001604052806004905b613d44613dbe565b815260200190600190039081613d3c5790505090565b8260028101928215613d89579160200282015b82811115613d88578251825591602001919060010190613d6d565b5b509050613d969190613de0565b5090565b5b80821115613dba5760008181613db19190613dfd565b50600201613d9b565b5090565b6040518060400160405280600290602082028036833780820191505090505090565b5b80821115613df9576000816000905550600101613de1565b5090565b506000815560010160009055565b600080fd5b6000819050919050565b613e2381613e10565b8114613e2e57600080fd5b50565b600081359050613e4081613e1a565b92915050565b600060208284031215613e5c57613e5b613e0b565b5b6000613e6a84828501613e31565b91505092915050565b613e7c81613e10565b82525050565b6000602082019050613e976000830184613e73565b92915050565b60008060408385031215613eb457613eb3613e0b565b5b6000613ec285828601613e31565b9250506020613ed385828601613e31565b9150509250929050565b600082825260208201905092915050565b7f42657420616d6f756e74206973206d6f7265207468616e20706c61796572206260008201527f616c616e63650000000000000000000000000000000000000000000000000000602082015250565b6000613f4a602683613edd565b9150613f5582613eee565b604082019050919050565b60006020820190508181036000830152613f7981613f3d565b9050919050565b7f4f6e6c7920706c617965722063616e20706c6163652062657400000000000000600082015250565b6000613fb6601983613edd565b9150613fc182613f80565b602082019050919050565b60006020820190508181036000830152613fe581613fa9565b9050919050565b7f4265742068617320616c7265616479206265656e20706c616365640000000000600082015250565b6000614022601b83613edd565b915061402d82613fec565b602082019050919050565b6000602082019050818103600083015261405181614015565b9050919050565b7f5265656e7472616e6379206e6f7420616c6c6f77656400000000000000000000600082015250565b600061408e601683613edd565b915061409982614058565b602082019050919050565b600060208201905081810360008301526140bd81614081565b9050919050565b7f4e487b7100000000000000000000000000000000000000000000000000000000600052601160045260246000fd5b60006140fe82613e10565b915061410983613e10565b9250828203905081811115614121576141206140c4565b5b92915050565b7f526567697374726174696f6e2061646472657373206973206e6f742076616c6960008201527f6400000000000000000000000000000000000000000000000000000000000000602082015250565b6000614183602183613edd565b915061418e82614127565b604082019050919050565b600060208201905081810360008301526141b281614176565b9050919050565b7f506c61796572206d75737420626520686f757365283029206f7220706c61796560008201527f7228312900000000000000000000000000000000000000000000000000000000602082015250565b6000614215602483613edd565b9150614220826141b9565b604082019050919050565b6000602082019050818103600083015261424481614208565b9050919050565b7f53656e6465722061646472657373206d75737420626520686f75736557616c6c60008201527f6574000000000000000000000000000000000000000000000000000000000000602082015250565b60006142a7602283613edd565b91506142b28261424b565b604082019050919050565b600060208201905081810360008301526142d68161429a565b9050919050565b60006142e882613e10565b91506142f383613e10565b925082820190508082111561430b5761430a6140c4565b5b92915050565b7f53656e6465722061646472657373206d75737420626520706c6179657257616c60008201527f6c65740000000000000000000000000000000000000000000000000000000000602082015250565b600061436d602383613edd565b915061437882614311565b604082019050919050565b6000602082019050818103600083015261439c81614360565b9050919050565b7f796f75206d75737420626574206265666f72652074686520636172647320617260008201527f65206465616c7400000000000000000000000000000000000000000000000000602082015250565b60006143ff602783613edd565b915061440a826143a3565b604082019050919050565b6000602082019050818103600083015261442e816143f2565b9050919050565b7f4e487b7100000000000000000000000000000000000000000000000000000000600052603260045260246000fd5b600061446f82613e10565b91507fffffffffffffffffffffffffffffffffffffffffffffffffffffffffffffffff82036144a1576144a06140c4565b5b600182019050919050565b7f506c6179657220686173206e6f2062616c616e636520746f207769746864726160008201527f7700000000000000000000000000000000000000000000000000000000000000602082015250565b6000614508602183613edd565b9150614513826144ac565b604082019050919050565b60006020820190508181036000830152614537816144fb565b9050919050565b7f4f6e6c7920706c617965722063616e2075736520746869732066756e6374696f60008201527f6e20776974686472617700000000000000000000000000000000000000000000602082015250565b600061459a602a83613edd565b91506145a58261453e565b604082019050919050565b600060208201905081810360008301526145c98161458d565b9050919050565b7f596f75206172652072657175657374696e67206d6f7265207468616e2074686560008201527f20706c617965722077616c6c657420636f6e7461696e73000000000000000000602082015250565b600061462c603783613edd565b9150614637826145d0565b604082019050919050565b6000602082019050818103600083015261465b8161461f565b9050919050565b7f4465616c6572206d757374207374616e64206f6e20313720616e64206869676860008201527f6572000000000000000000000000000000000000000000000000000000000000602082015250565b60006146be602283613edd565b91506146c982614662565b604082019050919050565b600060208201905081810360008301526146ed816146b1565b9050919050565b7f506c617965722068617320616c72656164792073746f6f640000000000000000600082015250565b600061472a601883613edd565b9150614735826146f4565b602082019050919050565b600060208201905081810360008301526147598161471d565b9050919050565b7f596f7527766520616c7265616479206275737465640000000000000000000000600082015250565b6000614796601583613edd565b91506147a182614760565b602082019050919050565b600060208201905081810360008301526147c581614789565b9050919050565b7f47616d65206d75737420626520696e2070726f67726573730000000000000000600082015250565b6000614802601883613edd565b915061480d826147cc565b602082019050919050565b60006020820190508181036000830152614831816147f5565b9050919050565b600061484382613e10565b915061484e83613e10565b925082820261485c81613e10565b91508282048414831517614873576148726140c4565b5b5092915050565b7f4e487b7100000000000000000000000000000000000000000000000000000000600052601260045260246000fd5b60006148b482613e10565b91506148bf83613e10565b9250826148cf576148ce61487a565b5b828204905092915050565b6000819050919050565b6148f56148f082613e10565b6148da565b82525050565b600073ffffffffffffffffffffffffffffffffffffffff82169050919050565b6000614926826148fb565b9050919050565b60008160601b9050919050565b60006149458261492d565b9050919050565b60006149578261493a565b9050919050565b61496f61496a8261491b565b61494c565b82525050565b600061498182866148e4565b602082019150614991828561495e565b6014820191506149a182846148e4565b602082019150819050949350505050565b60006149bd82613e10565b91506149c883613e10565b9250826149d8576149d761487a565b5b828206905092915050565b7f4e487b7100000000000000000000000000000000000000000000000000000000600052604160045260246000fdfea2646970667358221220e663908e0a3fa25c335be8c853b5b2c47d028e4b0e22f2ffbfe3310b0ea2721364736f6c63430008110033",
			"opcodes": "PUSH1 0x80 PUSH1 0x40 MSTORE PUSH1 0x0 PUSH1 0x1 SSTORE PUSH1 0x0 PUSH1 0x2 SSTORE PUSH1 0x0 PUSH1 0x3 SSTORE PUSH1 0x0 PUSH1 0x4 SSTORE PUSH1 0x0 PUSH1 0x5 SSTORE PUSH1 0x0 PUSH1 0x6 SSTORE PUSH1 0x0 PUSH1 0x7 SSTORE PUSH1 0x0 PUSH1 0x8 SSTORE PUSH1 0x0 PUSH1 0x59 SSTORE PUSH1 0x0 PUSH1 0x5A SSTORE PUSH1 0x0 PUSH1 0x5B SSTORE PUSH1 0x0 PUSH1 0x5C SSTORE PUSH1 0x0 PUSH1 0x5D SSTORE PUSH1 0x0 PUSH1 0x5E SSTORE PUSH1 0x0 PUSH1 0x5F SSTORE PUSH1 0x0 PUSH1 0x60 SSTORE PUSH1 0x0 PUSH1 0x61 SSTORE PUSH1 0x0 PUSH1 0x62 PUSH1 0x0 PUSH2 0x100 EXP DUP2 SLOAD DUP2 PUSH20 0xFFFFFFFFFFFFFFFFFFFFFFFFFFFFFFFFFFFFFFFF MUL NOT AND SWAP1 DUP4 PUSH20 0xFFFFFFFFFFFFFFFFFFFFFFFFFFFFFFFFFFFFFFFF AND MUL OR SWAP1 SSTORE POP PUSH1 0x0 PUSH1 0x63 PUSH1 0x0 PUSH2 0x100 EXP DUP2 SLOAD DUP2 PUSH20 0xFFFFFFFFFFFFFFFFFFFFFFFFFFFFFFFFFFFFFFFF MUL NOT AND SWAP1 DUP4 PUSH20 0xFFFFFFFFFFFFFFFFFFFFFFFFFFFFFFFFFFFFFFFF AND MUL OR SWAP1 SSTORE POP CALLVALUE DUP1 ISZERO PUSH2 0xE9 JUMPI PUSH1 0x0 DUP1 REVERT JUMPDEST POP PUSH2 0x4A48 DUP1 PUSH2 0xF9 PUSH1 0x0 CODECOPY PUSH1 0x0 RETURN INVALID PUSH1 0x80 PUSH1 0x40 MSTORE PUSH1 0x4 CALLDATASIZE LT PUSH2 0x181 JUMPI PUSH1 0x0 CALLDATALOAD PUSH1 0xE0 SHR DUP1 PUSH4 0x67084EB3 GT PUSH2 0xD1 JUMPI DUP1 PUSH4 0xC2855A59 GT PUSH2 0x8A JUMPI DUP1 PUSH4 0xCDC7EA51 GT PUSH2 0x64 JUMPI DUP1 PUSH4 0xCDC7EA51 EQ PUSH2 0x524 JUMPI DUP1 PUSH4 0xD0017A0C EQ PUSH2 0x54F JUMPI DUP1 PUSH4 0xD24257C0 EQ PUSH2 0x57A JUMPI DUP1 PUSH4 0xDAE10ED5 EQ PUSH2 0x5A5 JUMPI PUSH2 0x181 JUMP JUMPDEST DUP1 PUSH4 0xC2855A59 EQ PUSH2 0x4CB JUMPI DUP1 PUSH4 0xC5C3CD78 EQ PUSH2 0x4E2 JUMPI DUP1 PUSH4 0xC9F09D38 EQ PUSH2 0x50D JUMPI PUSH2 0x181 JUMP JUMPDEST DUP1 PUSH4 0x67084EB3 EQ PUSH2 0x3A5 JUMPI DUP1 PUSH4 0x8914D63B EQ PUSH2 0x3D0 JUMPI DUP1 PUSH4 0x8BBB236F EQ PUSH2 0x3FB JUMPI DUP1 PUSH4 0x908A0979 EQ PUSH2 0x438 JUMPI DUP1 PUSH4 0xA10926D6 EQ PUSH2 0x463 JUMPI DUP1 PUSH4 0xBDBE451B EQ PUSH2 0x48E JUMPI PUSH2 0x181 JUMP JUMPDEST DUP1 PUSH4 0x3519A2F8 GT PUSH2 0x13E JUMPI DUP1 PUSH4 0x53A218C9 GT PUSH2 0x118 JUMPI DUP1 PUSH4 0x53A218C9 EQ PUSH2 0x30A JUMPI DUP1 PUSH4 0x553DF021 EQ PUSH2 0x347 JUMPI DUP1 PUSH4 0x5629365B EQ PUSH2 0x35E JUMPI DUP1 PUSH4 0x651F066A EQ PUSH2 0x37A JUMPI PUSH2 0x181 JUMP JUMPDEST DUP1 PUSH4 0x3519A2F8 EQ PUSH2 0x298 JUMPI DUP1 PUSH4 0x3C3248D5 EQ PUSH2 0x2B4 JUMPI DUP1 PUSH4 0x3FB64E75 EQ PUSH2 0x2DF JUMPI PUSH2 0x181 JUMP JUMPDEST DUP1 PUSH4 0x10FE7C48 EQ PUSH2 0x186 JUMPI DUP1 PUSH4 0x13BF01ED EQ PUSH2 0x1AF JUMPI DUP1 PUSH4 0x16DD37DD EQ PUSH2 0x1DA JUMPI DUP1 PUSH4 0x2626AB08 EQ PUSH2 0x217 JUMPI DUP1 PUSH4 0x29C0CBF6 EQ PUSH2 0x242 JUMPI DUP1 PUSH4 0x325EB3F5 EQ PUSH2 0x26D JUMPI JUMPDEST PUSH1 0x0 DUP1 REVERT JUMPDEST CALLVALUE DUP1 ISZERO PUSH2 0x192 JUMPI PUSH1 0x0 DUP1 REVERT JUMPDEST POP PUSH2 0x1AD PUSH1 0x4 DUP1 CALLDATASIZE SUB DUP2 ADD SWAP1 PUSH2 0x1A8 SWAP2 SWAP1 PUSH2 0x3E46 JUMP JUMPDEST PUSH2 0x5BC JUMP JUMPDEST STOP JUMPDEST CALLVALUE DUP1 ISZERO PUSH2 0x1BB JUMPI PUSH1 0x0 DUP1 REVERT JUMPDEST POP PUSH2 0x1C4 PUSH2 0x79A JUMP JUMPDEST PUSH1 0x40 MLOAD PUSH2 0x1D1 SWAP2 SWAP1 PUSH2 0x3E82 JUMP JUMPDEST PUSH1 0x40 MLOAD DUP1 SWAP2 SUB SWAP1 RETURN JUMPDEST CALLVALUE DUP1 ISZERO PUSH2 0x1E6 JUMPI PUSH1 0x0 DUP1 REVERT JUMPDEST POP PUSH2 0x201 PUSH1 0x4 DUP1 CALLDATASIZE SUB DUP2 ADD SWAP1 PUSH2 0x1FC SWAP2 SWAP1 PUSH2 0x3E9D JUMP JUMPDEST PUSH2 0x7A0 JUMP JUMPDEST PUSH1 0x40 MLOAD PUSH2 0x20E SWAP2 SWAP1 PUSH2 0x3E82 JUMP JUMPDEST PUSH1 0x40 MLOAD DUP1 SWAP2 SUB SWAP1 RETURN JUMPDEST CALLVALUE DUP1 ISZERO PUSH2 0x223 JUMPI PUSH1 0x0 DUP1 REVERT JUMPDEST POP PUSH2 0x22C PUSH2 0x7CE JUMP JUMPDEST PUSH1 0x40 MLOAD PUSH2 0x239 SWAP2 SWAP1 PUSH2 0x3E82 JUMP JUMPDEST PUSH1 0x40 MLOAD DUP1 SWAP2 SUB SWAP1 RETURN JUMPDEST CALLVALUE DUP1 ISZERO PUSH2 0x24E JUMPI PUSH1 0x0 DUP1 REVERT JUMPDEST POP PUSH2 0x257 PUSH2 0x7D3 JUMP JUMPDEST PUSH1 0x40 MLOAD PUSH2 0x264 SWAP2 SWAP1 PUSH2 0x3E82 JUMP JUMPDEST PUSH1 0x40 MLOAD DUP1 SWAP2 SUB SWAP1 RETURN JUMPDEST CALLVALUE DUP1 ISZERO PUSH2 0x279 JUMPI PUSH1 0x0 DUP1 REVERT JUMPDEST POP PUSH2 0x282 PUSH2 0x7D9 JUMP JUMPDEST PUSH1 0x40 MLOAD PUSH2 0x28F SWAP2 SWAP1 PUSH2 0x3E82 JUMP JUMPDEST PUSH1 0x40 MLOAD DUP1 SWAP2 SUB SWAP1 RETURN JUMPDEST PUSH2 0x2B2 PUSH1 0x4 DUP1 CALLDATASIZE SUB DUP2 ADD SWAP1 PUSH2 0x2AD SWAP2 SWAP1 PUSH2 0x3E46 JUMP JUMPDEST PUSH2 0x7DF JUMP JUMPDEST STOP JUMPDEST CALLVALUE DUP1 ISZERO PUSH2 0x2C0 JUMPI PUSH1 0x0 DUP1 REVERT JUMPDEST POP PUSH2 0x2C9 PUSH2 0xD0E JUMP JUMPDEST PUSH1 0x40 MLOAD PUSH2 0x2D6 SWAP2 SWAP1 PUSH2 0x3E82 JUMP JUMPDEST PUSH1 0x40 MLOAD DUP1 SWAP2 SUB SWAP1 RETURN JUMPDEST CALLVALUE DUP1 ISZERO PUSH2 0x2EB JUMPI PUSH1 0x0 DUP1 REVERT JUMPDEST POP PUSH2 0x2F4 PUSH2 0xD14 JUMP JUMPDEST PUSH1 0x40 MLOAD PUSH2 0x301 SWAP2 SWAP1 PUSH2 0x3E82 JUMP JUMPDEST PUSH1 0x40 MLOAD DUP1 SWAP2 SUB SWAP1 RETURN JUMPDEST CALLVALUE DUP1 ISZERO PUSH2 0x316 JUMPI PUSH1 0x0 DUP1 REVERT JUMPDEST POP PUSH2 0x331 PUSH1 0x4 DUP1 CALLDATASIZE SUB DUP2 ADD SWAP1 PUSH2 0x32C SWAP2 SWAP1 PUSH2 0x3E9D JUMP JUMPDEST PUSH2 0xD1A JUMP JUMPDEST PUSH1 0x40 MLOAD PUSH2 0x33E SWAP2 SWAP1 PUSH2 0x3E82 JUMP JUMPDEST PUSH1 0x40 MLOAD DUP1 SWAP2 SUB SWAP1 RETURN JUMPDEST CALLVALUE DUP1 ISZERO PUSH2 0x353 JUMPI PUSH1 0x0 DUP1 REVERT JUMPDEST POP PUSH2 0x35C PUSH2 0xD48 JUMP JUMPDEST STOP JUMPDEST PUSH2 0x378 PUSH1 0x4 DUP1 CALLDATASIZE SUB DUP2 ADD SWAP1 PUSH2 0x373 SWAP2 SWAP1 PUSH2 0x3E46 JUMP JUMPDEST PUSH2 0x1238 JUMP JUMPDEST STOP JUMPDEST CALLVALUE DUP1 ISZERO PUSH2 0x386 JUMPI PUSH1 0x0 DUP1 REVERT JUMPDEST POP PUSH2 0x38F PUSH2 0x1456 JUMP JUMPDEST PUSH1 0x40 MLOAD PUSH2 0x39C SWAP2 SWAP1 PUSH2 0x3E82 JUMP JUMPDEST PUSH1 0x40 MLOAD DUP1 SWAP2 SUB SWAP1 RETURN JUMPDEST CALLVALUE DUP1 ISZERO PUSH2 0x3B1 JUMPI PUSH1 0x0 DUP1 REVERT JUMPDEST POP PUSH2 0x3BA PUSH2 0x145C JUMP JUMPDEST PUSH1 0x40 MLOAD PUSH2 0x3C7 SWAP2 SWAP1 PUSH2 0x3E82 JUMP JUMPDEST PUSH1 0x40 MLOAD DUP1 SWAP2 SUB SWAP1 RETURN JUMPDEST CALLVALUE DUP1 ISZERO PUSH2 0x3DC JUMPI PUSH1 0x0 DUP1 REVERT JUMPDEST POP PUSH2 0x3E5 PUSH2 0x1462 JUMP JUMPDEST PUSH1 0x40 MLOAD PUSH2 0x3F2 SWAP2 SWAP1 PUSH2 0x3E82 JUMP JUMPDEST PUSH1 0x40 MLOAD DUP1 SWAP2 SUB SWAP1 RETURN JUMPDEST CALLVALUE DUP1 ISZERO PUSH2 0x407 JUMPI PUSH1 0x0 DUP1 REVERT JUMPDEST POP PUSH2 0x422 PUSH1 0x4 DUP1 CALLDATASIZE SUB DUP2 ADD SWAP1 PUSH2 0x41D SWAP2 SWAP1 PUSH2 0x3E9D JUMP JUMPDEST PUSH2 0x1468 JUMP JUMPDEST PUSH1 0x40 MLOAD PUSH2 0x42F SWAP2 SWAP1 PUSH2 0x3E82 JUMP JUMPDEST PUSH1 0x40 MLOAD DUP1 SWAP2 SUB SWAP1 RETURN JUMPDEST CALLVALUE DUP1 ISZERO PUSH2 0x444 JUMPI PUSH1 0x0 DUP1 REVERT JUMPDEST POP PUSH2 0x44D PUSH2 0x1496 JUMP JUMPDEST PUSH1 0x40 MLOAD PUSH2 0x45A SWAP2 SWAP1 PUSH2 0x3E82 JUMP JUMPDEST PUSH1 0x40 MLOAD DUP1 SWAP2 SUB SWAP1 RETURN JUMPDEST CALLVALUE DUP1 ISZERO PUSH2 0x46F JUMPI PUSH1 0x0 DUP1 REVERT JUMPDEST POP PUSH2 0x478 PUSH2 0x149C JUMP JUMPDEST PUSH1 0x40 MLOAD PUSH2 0x485 SWAP2 SWAP1 PUSH2 0x3E82 JUMP JUMPDEST PUSH1 0x40 MLOAD DUP1 SWAP2 SUB SWAP1 RETURN JUMPDEST CALLVALUE DUP1 ISZERO PUSH2 0x49A JUMPI PUSH1 0x0 DUP1 REVERT JUMPDEST POP PUSH2 0x4B5 PUSH1 0x4 DUP1 CALLDATASIZE SUB DUP2 ADD SWAP1 PUSH2 0x4B0 SWAP2 SWAP1 PUSH2 0x3E9D JUMP JUMPDEST PUSH2 0x14A2 JUMP JUMPDEST PUSH1 0x40 MLOAD PUSH2 0x4C2 SWAP2 SWAP1 PUSH2 0x3E82 JUMP JUMPDEST PUSH1 0x40 MLOAD DUP1 SWAP2 SUB SWAP1 RETURN JUMPDEST CALLVALUE DUP1 ISZERO PUSH2 0x4D7 JUMPI PUSH1 0x0 DUP1 REVERT JUMPDEST POP PUSH2 0x4E0 PUSH2 0x14D0 JUMP JUMPDEST STOP JUMPDEST CALLVALUE DUP1 ISZERO PUSH2 0x4EE JUMPI PUSH1 0x0 DUP1 REVERT JUMPDEST POP PUSH2 0x4F7 PUSH2 0x1800 JUMP JUMPDEST PUSH1 0x40 MLOAD PUSH2 0x504 SWAP2 SWAP1 PUSH2 0x3E82 JUMP JUMPDEST PUSH1 0x40 MLOAD DUP1 SWAP2 SUB SWAP1 RETURN JUMPDEST CALLVALUE DUP1 ISZERO PUSH2 0x519 JUMPI PUSH1 0x0 DUP1 REVERT JUMPDEST POP PUSH2 0x522 PUSH2 0x1806 JUMP JUMPDEST STOP JUMPDEST CALLVALUE DUP1 ISZERO PUSH2 0x530 JUMPI PUSH1 0x0 DUP1 REVERT JUMPDEST POP PUSH2 0x539 PUSH2 0x18FD JUMP JUMPDEST PUSH1 0x40 MLOAD PUSH2 0x546 SWAP2 SWAP1 PUSH2 0x3E82 JUMP JUMPDEST PUSH1 0x40 MLOAD DUP1 SWAP2 SUB SWAP1 RETURN JUMPDEST CALLVALUE DUP1 ISZERO PUSH2 0x55B JUMPI PUSH1 0x0 DUP1 REVERT JUMPDEST POP PUSH2 0x564 PUSH2 0x1903 JUMP JUMPDEST PUSH1 0x40 MLOAD PUSH2 0x571 SWAP2 SWAP1 PUSH2 0x3E82 JUMP JUMPDEST PUSH1 0x40 MLOAD DUP1 SWAP2 SUB SWAP1 RETURN JUMPDEST CALLVALUE DUP1 ISZERO PUSH2 0x586 JUMPI PUSH1 0x0 DUP1 REVERT JUMPDEST POP PUSH2 0x58F PUSH2 0x190F JUMP JUMPDEST PUSH1 0x40 MLOAD PUSH2 0x59C SWAP2 SWAP1 PUSH2 0x3E82 JUMP JUMPDEST PUSH1 0x40 MLOAD DUP1 SWAP2 SUB SWAP1 RETURN JUMPDEST CALLVALUE DUP1 ISZERO PUSH2 0x5B1 JUMPI PUSH1 0x0 DUP1 REVERT JUMPDEST POP PUSH2 0x5BA PUSH2 0x1915 JUMP JUMPDEST STOP JUMPDEST DUP1 PUSH1 0x1 DUP2 LT ISZERO DUP1 ISZERO PUSH2 0x5D6 JUMPI POP PUSH8 0xDE0B6B3A7640000 DUP2 GT ISZERO JUMPDEST PUSH2 0x5DF JUMPI PUSH1 0x0 DUP1 REVERT JUMPDEST PUSH1 0x3 SLOAD DUP2 GT ISZERO PUSH2 0x624 JUMPI PUSH1 0x40 MLOAD PUSH32 0x8C379A000000000000000000000000000000000000000000000000000000000 DUP2 MSTORE PUSH1 0x4 ADD PUSH2 0x61B SWAP1 PUSH2 0x3F60 JUMP JUMPDEST PUSH1 0x40 MLOAD DUP1 SWAP2 SUB SWAP1 REVERT JUMPDEST PUSH1 0x62 PUSH1 0x0 SWAP1 SLOAD SWAP1 PUSH2 0x100 EXP SWAP1 DIV PUSH20 0xFFFFFFFFFFFFFFFFFFFFFFFFFFFFFFFFFFFFFFFF AND PUSH20 0xFFFFFFFFFFFFFFFFFFFFFFFFFFFFFFFFFFFFFFFF AND CALLER PUSH20 0xFFFFFFFFFFFFFFFFFFFFFFFFFFFFFFFFFFFFFFFF AND EQ PUSH2 0x6B4 JUMPI PUSH1 0x40 MLOAD PUSH32 0x8C379A000000000000000000000000000000000000000000000000000000000 DUP2 MSTORE PUSH1 0x4 ADD PUSH2 0x6AB SWAP1 PUSH2 0x3FCC JUMP JUMPDEST PUSH1 0x40 MLOAD DUP1 SWAP2 SUB SWAP1 REVERT JUMPDEST PUSH1 0x0 PUSH1 0x4 SLOAD EQ PUSH2 0x6F9 JUMPI PUSH1 0x40 MLOAD PUSH32 0x8C379A000000000000000000000000000000000000000000000000000000000 DUP2 MSTORE PUSH1 0x4 ADD PUSH2 0x6F0 SWAP1 PUSH2 0x4038 JUMP JUMPDEST PUSH1 0x40 MLOAD DUP1 SWAP2 SUB SWAP1 REVERT JUMPDEST PUSH1 0x0 DUP1 SLOAD SWAP1 PUSH2 0x100 EXP SWAP1 DIV PUSH1 0xFF AND ISZERO PUSH2 0x747 JUMPI PUSH1 0x40 MLOAD PUSH32 0x8C379A000000000000000000000000000000000000000000000000000000000 DUP2 MSTORE PUSH1 0x4 ADD PUSH2 0x73E SWAP1 PUSH2 0x40A4 JUMP JUMPDEST PUSH1 0x40 MLOAD DUP1 SWAP2 SUB SWAP1 REVERT JUMPDEST PUSH1 0x1 PUSH1 0x0 DUP1 PUSH2 0x100 EXP DUP2 SLOAD DUP2 PUSH1 0xFF MUL NOT AND SWAP1 DUP4 ISZERO ISZERO MUL OR SWAP1 SSTORE POP DUP2 PUSH1 0x3 SLOAD PUSH2 0x76F SWAP2 SWAP1 PUSH2 0x40F3 JUMP JUMPDEST PUSH1 0x3 DUP2 SWAP1 SSTORE POP DUP2 PUSH1 0x4 DUP2 SWAP1 SSTORE POP PUSH1 0x0 DUP1 PUSH1 0x0 PUSH2 0x100 EXP DUP2 SLOAD DUP2 PUSH1 0xFF MUL NOT AND SWAP1 DUP4 ISZERO ISZERO MUL OR SWAP1 SSTORE POP POP POP JUMP JUMPDEST PUSH1 0x5E SLOAD DUP2 JUMP JUMPDEST PUSH1 0x49 DUP3 PUSH1 0x2 DUP2 LT PUSH2 0x7B0 JUMPI PUSH1 0x0 DUP1 REVERT JUMPDEST PUSH1 0x2 MUL ADD DUP2 PUSH1 0x2 DUP2 LT PUSH2 0x7C2 JUMPI PUSH1 0x0 DUP1 REVERT JUMPDEST ADD PUSH1 0x0 SWAP2 POP SWAP2 POP POP SLOAD DUP2 JUMP JUMPDEST PUSH1 0x1 DUP2 JUMP JUMPDEST PUSH1 0x5 SLOAD DUP2 JUMP JUMPDEST PUSH1 0x5B SLOAD DUP2 JUMP JUMPDEST DUP1 PUSH1 0x0 PUSH20 0xFFFFFFFFFFFFFFFFFFFFFFFFFFFFFFFFFFFFFFFF AND PUSH1 0x63 PUSH1 0x0 SWAP1 SLOAD SWAP1 PUSH2 0x100 EXP SWAP1 DIV PUSH20 0xFFFFFFFFFFFFFFFFFFFFFFFFFFFFFFFFFFFFFFFF AND PUSH20 0xFFFFFFFFFFFFFFFFFFFFFFFFFFFFFFFFFFFFFFFF AND EQ DUP1 PUSH2 0x88B JUMPI POP PUSH1 0x0 PUSH20 0xFFFFFFFFFFFFFFFFFFFFFFFFFFFFFFFFFFFFFFFF AND PUSH1 0x62 PUSH1 0x0 SWAP1 SLOAD SWAP1 PUSH2 0x100 EXP SWAP1 DIV PUSH20 0xFFFFFFFFFFFFFFFFFFFFFFFFFFFFFFFFFFFFFFFF AND PUSH20 0xFFFFFFFFFFFFFFFFFFFFFFFFFFFFFFFFFFFFFFFF AND EQ JUMPDEST DUP1 PUSH2 0x8E3 JUMPI POP PUSH1 0x63 PUSH1 0x0 SWAP1 SLOAD SWAP1 PUSH2 0x100 EXP SWAP1 DIV PUSH20 0xFFFFFFFFFFFFFFFFFFFFFFFFFFFFFFFFFFFFFFFF AND PUSH20 0xFFFFFFFFFFFFFFFFFFFFFFFFFFFFFFFFFFFFFFFF AND CALLER PUSH20 0xFFFFFFFFFFFFFFFFFFFFFFFFFFFFFFFFFFFFFFFF AND EQ JUMPDEST DUP1 PUSH2 0x93B JUMPI POP PUSH1 0x62 PUSH1 0x0 SWAP1 SLOAD SWAP1 PUSH2 0x100 EXP SWAP1 DIV PUSH20 0xFFFFFFFFFFFFFFFFFFFFFFFFFFFFFFFFFFFFFFFF AND PUSH20 0xFFFFFFFFFFFFFFFFFFFFFFFFFFFFFFFFFFFFFFFF AND CALLER PUSH20 0xFFFFFFFFFFFFFFFFFFFFFFFFFFFFFFFFFFFFFFFF AND EQ JUMPDEST PUSH2 0x97A JUMPI PUSH1 0x40 MLOAD PUSH32 0x8C379A000000000000000000000000000000000000000000000000000000000 DUP2 MSTORE PUSH1 0x4 ADD PUSH2 0x971 SWAP1 PUSH2 0x4199 JUMP JUMPDEST PUSH1 0x40 MLOAD DUP1 SWAP2 SUB SWAP1 REVERT JUMPDEST PUSH1 0x0 DUP2 EQ DUP1 PUSH2 0x989 JUMPI POP PUSH1 0x1 DUP2 EQ JUMPDEST PUSH2 0x9C8 JUMPI PUSH1 0x40 MLOAD PUSH32 0x8C379A000000000000000000000000000000000000000000000000000000000 DUP2 MSTORE PUSH1 0x4 ADD PUSH2 0x9BF SWAP1 PUSH2 0x422B JUMP JUMPDEST PUSH1 0x40 MLOAD DUP1 SWAP2 SUB SWAP1 REVERT JUMPDEST PUSH1 0x0 DUP3 SUB PUSH2 0xB69 JUMPI PUSH1 0x63 PUSH1 0x0 SWAP1 SLOAD SWAP1 PUSH2 0x100 EXP SWAP1 DIV PUSH20 0xFFFFFFFFFFFFFFFFFFFFFFFFFFFFFFFFFFFFFFFF AND PUSH20 0xFFFFFFFFFFFFFFFFFFFFFFFFFFFFFFFFFFFFFFFF AND CALLER PUSH20 0xFFFFFFFFFFFFFFFFFFFFFFFFFFFFFFFFFFFFFFFF AND EQ DUP1 PUSH2 0xA7A JUMPI POP PUSH1 0x0 PUSH20 0xFFFFFFFFFFFFFFFFFFFFFFFFFFFFFFFFFFFFFFFF AND PUSH1 0x63 PUSH1 0x0 SWAP1 SLOAD SWAP1 PUSH2 0x100 EXP SWAP1 DIV PUSH20 0xFFFFFFFFFFFFFFFFFFFFFFFFFFFFFFFFFFFFFFFF AND PUSH20 0xFFFFFFFFFFFFFFFFFFFFFFFFFFFFFFFFFFFFFFFF AND EQ JUMPDEST DUP1 ISZERO PUSH2 0xAD4 JUMPI POP PUSH1 0x62 PUSH1 0x0 SWAP1 SLOAD SWAP1 PUSH2 0x100 EXP SWAP1 DIV PUSH20 0xFFFFFFFFFFFFFFFFFFFFFFFFFFFFFFFFFFFFFFFF AND PUSH20 0xFFFFFFFFFFFFFFFFFFFFFFFFFFFFFFFFFFFFFFFF AND CALLER PUSH20 0xFFFFFFFFFFFFFFFFFFFFFFFFFFFFFFFFFFFFFFFF AND EQ ISZERO JUMPDEST PUSH2 0xB13 JUMPI PUSH1 0x40 MLOAD PUSH32 0x8C379A000000000000000000000000000000000000000000000000000000000 DUP2 MSTORE PUSH1 0x4 ADD PUSH2 0xB0A SWAP1 PUSH2 0x42BD JUMP JUMPDEST PUSH1 0x40 MLOAD DUP1 SWAP2 SUB SWAP1 REVERT JUMPDEST CALLER PUSH1 0x63 PUSH1 0x0 PUSH2 0x100 EXP DUP2 SLOAD DUP2 PUSH20 0xFFFFFFFFFFFFFFFFFFFFFFFFFFFFFFFFFFFFFFFF MUL NOT AND SWAP1 DUP4 PUSH20 0xFFFFFFFFFFFFFFFFFFFFFFFFFFFFFFFFFFFFFFFF AND MUL OR SWAP1 SSTORE POP CALLVALUE PUSH1 0x2 SLOAD PUSH2 0xB62 SWAP2 SWAP1 PUSH2 0x42DD JUMP JUMPDEST PUSH1 0x2 DUP2 SWAP1 SSTORE POP JUMPDEST PUSH1 0x1 DUP3 SUB PUSH2 0xD0A JUMPI PUSH1 0x62 PUSH1 0x0 SWAP1 SLOAD SWAP1 PUSH2 0x100 EXP SWAP1 DIV PUSH20 0xFFFFFFFFFFFFFFFFFFFFFFFFFFFFFFFFFFFFFFFF AND PUSH20 0xFFFFFFFFFFFFFFFFFFFFFFFFFFFFFFFFFFFFFFFF AND CALLER PUSH20 0xFFFFFFFFFFFFFFFFFFFFFFFFFFFFFFFFFFFFFFFF AND EQ DUP1 PUSH2 0xC1B JUMPI POP PUSH1 0x0 PUSH20 0xFFFFFFFFFFFFFFFFFFFFFFFFFFFFFFFFFFFFFFFF AND PUSH1 0x62 PUSH1 0x0 SWAP1 SLOAD SWAP1 PUSH2 0x100 EXP SWAP1 DIV PUSH20 0xFFFFFFFFFFFFFFFFFFFFFFFFFFFFFFFFFFFFFFFF AND PUSH20 0xFFFFFFFFFFFFFFFFFFFFFFFFFFFFFFFFFFFFFFFF AND EQ JUMPDEST DUP1 ISZERO PUSH2 0xC75 JUMPI POP PUSH1 0x63 PUSH1 0x0 SWAP1 SLOAD SWAP1 PUSH2 0x100 EXP SWAP1 DIV PUSH20 0xFFFFFFFFFFFFFFFFFFFFFFFFFFFFFFFFFFFFFFFF AND PUSH20 0xFFFFFFFFFFFFFFFFFFFFFFFFFFFFFFFFFFFFFFFF AND CALLER PUSH20 0xFFFFFFFFFFFFFFFFFFFFFFFFFFFFFFFFFFFFFFFF AND EQ ISZERO JUMPDEST PUSH2 0xCB4 JUMPI PUSH1 0x40 MLOAD PUSH32 0x8C379A000000000000000000000000000000000000000000000000000000000 DUP2 MSTORE PUSH1 0x4 ADD PUSH2 0xCAB SWAP1 PUSH2 0x4383 JUMP JUMPDEST PUSH1 0x40 MLOAD DUP1 SWAP2 SUB SWAP1 REVERT JUMPDEST CALLER PUSH1 0x62 PUSH1 0x0 PUSH2 0x100 EXP DUP2 SLOAD DUP2 PUSH20 0xFFFFFFFFFFFFFFFFFFFFFFFFFFFFFFFFFFFFFFFF MUL NOT AND SWAP1 DUP4 PUSH20 0xFFFFFFFFFFFFFFFFFFFFFFFFFFFFFFFFFFFFFFFF AND MUL OR SWAP1 SSTORE POP CALLVALUE PUSH1 0x3 SLOAD PUSH2 0xD03 SWAP2 SWAP1 PUSH2 0x42DD JUMP JUMPDEST PUSH1 0x3 DUP2 SWAP1 SSTORE POP JUMPDEST POP POP JUMP JUMPDEST PUSH1 0x5F SLOAD DUP2 JUMP JUMPDEST PUSH1 0x1 SLOAD DUP2 JUMP JUMPDEST PUSH1 0x4D DUP3 PUSH1 0x2 DUP2 LT PUSH2 0xD2A JUMPI PUSH1 0x0 DUP1 REVERT JUMPDEST PUSH1 0x2 MUL ADD DUP2 PUSH1 0x2 DUP2 LT PUSH2 0xD3C JUMPI PUSH1 0x0 DUP1 REVERT JUMPDEST ADD PUSH1 0x0 SWAP2 POP SWAP2 POP POP SLOAD DUP2 JUMP JUMPDEST PUSH1 0x0 DUP1 SLOAD SWAP1 PUSH2 0x100 EXP SWAP1 DIV PUSH1 0xFF AND ISZERO PUSH2 0xD96 JUMPI PUSH1 0x40 MLOAD PUSH32 0x8C379A000000000000000000000000000000000000000000000000000000000 DUP2 MSTORE PUSH1 0x4 ADD PUSH2 0xD8D SWAP1 PUSH2 0x40A4 JUMP JUMPDEST PUSH1 0x40 MLOAD DUP1 SWAP2 SUB SWAP1 REVERT JUMPDEST PUSH1 0x1 PUSH1 0x0 DUP1 PUSH2 0x100 EXP DUP2 SLOAD DUP2 PUSH1 0xFF MUL NOT AND SWAP1 DUP4 ISZERO ISZERO MUL OR SWAP1 SSTORE POP PUSH1 0x0 PUSH1 0x4 SLOAD GT PUSH2 0xDF5 JUMPI PUSH1 0x40 MLOAD PUSH32 0x8C379A000000000000000000000000000000000000000000000000000000000 DUP2 MSTORE PUSH1 0x4 ADD PUSH2 0xDEC SWAP1 PUSH2 0x4415 JUMP JUMPDEST PUSH1 0x40 MLOAD DUP1 SWAP2 SUB SWAP1 REVERT JUMPDEST PUSH1 0x1 DUP1 DUP2 SWAP1 SSTORE POP PUSH1 0x0 PUSH1 0x5F DUP2 SWAP1 SSTORE POP PUSH1 0x0 PUSH1 0x5B DUP2 SWAP1 SSTORE POP PUSH1 0x0 PUSH1 0x5C DUP2 SWAP1 SSTORE POP PUSH1 0x0 PUSH1 0x5F DUP2 SWAP1 SSTORE POP PUSH1 0x0 PUSH1 0x60 DUP2 SWAP1 SSTORE POP PUSH1 0x0 PUSH1 0x5E DUP2 SWAP1 SSTORE POP PUSH1 0x0 PUSH1 0x5D DUP2 SWAP1 SSTORE POP PUSH1 0x0 PUSH1 0x49 PUSH1 0x1 PUSH1 0x2 DUP2 LT PUSH2 0xE4B JUMPI PUSH2 0xE4A PUSH2 0x4435 JUMP JUMPDEST JUMPDEST PUSH1 0x2 MUL ADD PUSH1 0x0 PUSH1 0x2 DUP2 LT PUSH2 0xE62 JUMPI PUSH2 0xE61 PUSH2 0x4435 JUMP JUMPDEST JUMPDEST ADD DUP2 SWAP1 SSTORE POP PUSH1 0x0 PUSH1 0x49 PUSH1 0x1 PUSH1 0x2 DUP2 LT PUSH2 0xE7E JUMPI PUSH2 0xE7D PUSH2 0x4435 JUMP JUMPDEST JUMPDEST PUSH1 0x2 MUL ADD PUSH1 0x1 PUSH1 0x2 DUP2 LT PUSH2 0xE95 JUMPI PUSH2 0xE94 PUSH2 0x4435 JUMP JUMPDEST JUMPDEST ADD DUP2 SWAP1 SSTORE POP PUSH1 0x0 PUSH1 0x1 SWAP1 POP JUMPDEST PUSH1 0xF DUP2 GT PUSH2 0xFF2 JUMPI PUSH1 0x0 PUSH1 0x9 DUP3 PUSH1 0x10 DUP2 LT PUSH2 0xEBF JUMPI PUSH2 0xEBE PUSH2 0x4435 JUMP JUMPDEST JUMPDEST PUSH1 0x2 MUL ADD PUSH1 0x0 PUSH1 0x2 DUP2 LT PUSH2 0xED6 JUMPI PUSH2 0xED5 PUSH2 0x4435 JUMP JUMPDEST JUMPDEST ADD DUP2 SWAP1 SSTORE POP PUSH1 0x0 PUSH1 0x9 DUP3 PUSH1 0x10 DUP2 LT PUSH2 0xEF1 JUMPI PUSH2 0xEF0 PUSH2 0x4435 JUMP JUMPDEST JUMPDEST PUSH1 0x2 MUL ADD PUSH1 0x1 PUSH1 0x2 DUP2 LT PUSH2 0xF08 JUMPI PUSH2 0xF07 PUSH2 0x4435 JUMP JUMPDEST JUMPDEST ADD DUP2 SWAP1 SSTORE POP PUSH1 0x0 PUSH1 0x29 DUP3 PUSH1 0x10 DUP2 LT PUSH2 0xF23 JUMPI PUSH2 0xF22 PUSH2 0x4435 JUMP JUMPDEST JUMPDEST PUSH1 0x2 MUL ADD PUSH1 0x0 PUSH1 0x2 DUP2 LT PUSH2 0xF3A JUMPI PUSH2 0xF39 PUSH2 0x4435 JUMP JUMPDEST JUMPDEST ADD DUP2 SWAP1 SSTORE POP PUSH1 0x0 PUSH1 0x29 DUP3 PUSH1 0x10 DUP2 LT PUSH2 0xF55 JUMPI PUSH2 0xF54 PUSH2 0x4435 JUMP JUMPDEST JUMPDEST PUSH1 0x2 MUL ADD PUSH1 0x1 PUSH1 0x2 DUP2 LT PUSH2 0xF6C JUMPI PUSH2 0xF6B PUSH2 0x4435 JUMP JUMPDEST JUMPDEST ADD DUP2 SWAP1 SSTORE POP PUSH1 0x4 DUP2 LT ISZERO PUSH2 0xFDF JUMPI PUSH1 0x0 PUSH1 0x51 DUP3 PUSH1 0x4 DUP2 LT PUSH2 0xF90 JUMPI PUSH2 0xF8F PUSH2 0x4435 JUMP JUMPDEST JUMPDEST PUSH1 0x2 MUL ADD PUSH1 0x0 PUSH1 0x2 DUP2 LT PUSH2 0xFA7 JUMPI PUSH2 0xFA6 PUSH2 0x4435 JUMP JUMPDEST JUMPDEST ADD DUP2 SWAP1 SSTORE POP PUSH1 0x0 PUSH1 0x51 DUP3 PUSH1 0x4 DUP2 LT PUSH2 0xFC2 JUMPI PUSH2 0xFC1 PUSH2 0x4435 JUMP JUMPDEST JUMPDEST PUSH1 0x2 MUL ADD PUSH1 0x1 PUSH1 0x2 DUP2 LT PUSH2 0xFD9 JUMPI PUSH2 0xFD8 PUSH2 0x4435 JUMP JUMPDEST JUMPDEST ADD DUP2 SWAP1 SSTORE POP JUMPDEST DUP1 DUP1 PUSH2 0xFEA SWAP1 PUSH2 0x4464 JUMP JUMPDEST SWAP2 POP POP PUSH2 0xEA1 JUMP JUMPDEST POP PUSH2 0xFFD PUSH1 0x3 PUSH2 0x1CB2 JUMP JUMPDEST PUSH2 0x107B PUSH1 0x51 PUSH1 0x4 DUP1 PUSH1 0x20 MUL PUSH1 0x40 MLOAD SWAP1 DUP2 ADD PUSH1 0x40 MSTORE DUP1 SWAP3 SWAP2 SWAP1 PUSH1 0x0 SWAP1 JUMPDEST DUP3 DUP3 LT ISZERO PUSH2 0x1072 JUMPI DUP4 DUP3 PUSH1 0x2 MUL ADD PUSH1 0x2 DUP1 PUSH1 0x20 MUL PUSH1 0x40 MLOAD SWAP1 DUP2 ADD PUSH1 0x40 MSTORE DUP1 SWAP3 SWAP2 SWAP1 DUP3 PUSH1 0x2 DUP1 ISZERO PUSH2 0x105E JUMPI PUSH1 0x20 MUL DUP3 ADD SWAP2 JUMPDEST DUP2 SLOAD DUP2 MSTORE PUSH1 0x20 ADD SWAP1 PUSH1 0x1 ADD SWAP1 DUP1 DUP4 GT PUSH2 0x104A JUMPI JUMPDEST POP POP POP POP POP DUP2 MSTORE PUSH1 0x20 ADD SWAP1 PUSH1 0x1 ADD SWAP1 PUSH2 0x1019 JUMP JUMPDEST POP POP POP POP PUSH2 0x1F70 JUMP JUMPDEST PUSH1 0x51 SWAP1 PUSH1 0x4 PUSH2 0x108B SWAP3 SWAP2 SWAP1 PUSH2 0x3CDC JUMP JUMPDEST POP PUSH2 0x10F2 PUSH1 0x51 PUSH1 0x1 PUSH1 0x4 DUP2 LT PUSH2 0x10A4 JUMPI PUSH2 0x10A3 PUSH2 0x4435 JUMP JUMPDEST JUMPDEST PUSH1 0x2 MUL ADD PUSH1 0x0 PUSH1 0x2 DUP2 LT PUSH2 0x10BB JUMPI PUSH2 0x10BA PUSH2 0x4435 JUMP JUMPDEST JUMPDEST ADD SLOAD PUSH1 0x51 PUSH1 0x1 PUSH1 0x4 DUP2 LT PUSH2 0x10D2 JUMPI PUSH2 0x10D1 PUSH2 0x4435 JUMP JUMPDEST JUMPDEST PUSH1 0x2 MUL ADD PUSH1 0x1 PUSH1 0x2 DUP2 LT PUSH2 0x10E9 JUMPI PUSH2 0x10E8 PUSH2 0x4435 JUMP JUMPDEST JUMPDEST ADD SLOAD PUSH1 0x1 PUSH2 0x22D2 JUMP JUMPDEST PUSH2 0x1158 PUSH1 0x51 PUSH1 0x2 PUSH1 0x4 DUP2 LT PUSH2 0x110A JUMPI PUSH2 0x1109 PUSH2 0x4435 JUMP JUMPDEST JUMPDEST PUSH1 0x2 MUL ADD PUSH1 0x0 PUSH1 0x2 DUP2 LT PUSH2 0x1121 JUMPI PUSH2 0x1120 PUSH2 0x4435 JUMP JUMPDEST JUMPDEST ADD SLOAD PUSH1 0x51 PUSH1 0x2 PUSH1 0x4 DUP2 LT PUSH2 0x1138 JUMPI PUSH2 0x1137 PUSH2 0x4435 JUMP JUMPDEST JUMPDEST PUSH1 0x2 MUL ADD PUSH1 0x1 PUSH1 0x2 DUP2 LT PUSH2 0x114F JUMPI PUSH2 0x114E PUSH2 0x4435 JUMP JUMPDEST JUMPDEST ADD SLOAD PUSH1 0x1 PUSH2 0x23BD JUMP JUMPDEST PUSH2 0x11BE PUSH1 0x51 PUSH1 0x3 PUSH1 0x4 DUP2 LT PUSH2 0x1170 JUMPI PUSH2 0x116F PUSH2 0x4435 JUMP JUMPDEST JUMPDEST PUSH1 0x2 MUL ADD PUSH1 0x0 PUSH1 0x2 DUP2 LT PUSH2 0x1187 JUMPI PUSH2 0x1186 PUSH2 0x4435 JUMP JUMPDEST JUMPDEST ADD SLOAD PUSH1 0x51 PUSH1 0x3 PUSH1 0x4 DUP2 LT PUSH2 0x119E JUMPI PUSH2 0x119D PUSH2 0x4435 JUMP JUMPDEST JUMPDEST PUSH1 0x2 MUL ADD PUSH1 0x1 PUSH1 0x2 DUP2 LT PUSH2 0x11B5 JUMPI PUSH2 0x11B4 PUSH2 0x4435 JUMP JUMPDEST JUMPDEST ADD SLOAD PUSH1 0x2 PUSH2 0x22D2 JUMP JUMPDEST PUSH2 0x11C6 PUSH2 0x24A8 JUMP JUMPDEST PUSH2 0x11CE PUSH2 0x271C JUMP JUMPDEST PUSH2 0x11D6 PUSH2 0x2991 JUMP JUMPDEST PUSH2 0x11DE PUSH2 0x2F15 JUMP JUMPDEST PUSH1 0x15 PUSH1 0x49 PUSH1 0x1 PUSH1 0x2 DUP2 LT PUSH2 0x11F5 JUMPI PUSH2 0x11F4 PUSH2 0x4435 JUMP JUMPDEST JUMPDEST PUSH1 0x2 MUL ADD PUSH1 0x1 PUSH1 0x2 DUP2 LT PUSH2 0x120C JUMPI PUSH2 0x120B PUSH2 0x4435 JUMP JUMPDEST JUMPDEST ADD SLOAD SUB PUSH2 0x121C JUMPI PUSH2 0x121B PUSH2 0x33CB JUMP JUMPDEST JUMPDEST PUSH1 0x0 DUP1 PUSH1 0x0 PUSH2 0x100 EXP DUP2 SLOAD DUP2 PUSH1 0xFF MUL NOT AND SWAP1 DUP4 ISZERO ISZERO MUL OR SWAP1 SSTORE POP JUMP JUMPDEST DUP1 PUSH1 0x0 PUSH1 0x3 SLOAD GT PUSH2 0x127E JUMPI PUSH1 0x40 MLOAD PUSH32 0x8C379A000000000000000000000000000000000000000000000000000000000 DUP2 MSTORE PUSH1 0x4 ADD PUSH2 0x1275 SWAP1 PUSH2 0x451E JUMP JUMPDEST PUSH1 0x40 MLOAD DUP1 SWAP2 SUB SWAP1 REVERT JUMPDEST PUSH1 0x62 PUSH1 0x0 SWAP1 SLOAD SWAP1 PUSH2 0x100 EXP SWAP1 DIV PUSH20 0xFFFFFFFFFFFFFFFFFFFFFFFFFFFFFFFFFFFFFFFF AND PUSH20 0xFFFFFFFFFFFFFFFFFFFFFFFFFFFFFFFFFFFFFFFF AND CALLER PUSH20 0xFFFFFFFFFFFFFFFFFFFFFFFFFFFFFFFFFFFFFFFF AND EQ PUSH2 0x130E JUMPI PUSH1 0x40 MLOAD PUSH32 0x8C379A000000000000000000000000000000000000000000000000000000000 DUP2 MSTORE PUSH1 0x4 ADD PUSH2 0x1305 SWAP1 PUSH2 0x45B0 JUMP JUMPDEST PUSH1 0x40 MLOAD DUP1 SWAP2 SUB SWAP1 REVERT JUMPDEST PUSH1 0x3 SLOAD DUP2 GT ISZERO PUSH2 0x1353 JUMPI PUSH1 0x40 MLOAD PUSH32 0x8C379A000000000000000000000000000000000000000000000000000000000 DUP2 MSTORE PUSH1 0x4 ADD PUSH2 0x134A SWAP1 PUSH2 0x4642 JUMP JUMPDEST PUSH1 0x40 MLOAD DUP1 SWAP2 SUB SWAP1 REVERT JUMPDEST PUSH1 0x0 DUP1 SLOAD SWAP1 PUSH2 0x100 EXP SWAP1 DIV PUSH1 0xFF AND ISZERO PUSH2 0x13A1 JUMPI PUSH1 0x40 MLOAD PUSH32 0x8C379A000000000000000000000000000000000000000000000000000000000 DUP2 MSTORE PUSH1 0x4 ADD PUSH2 0x1398 SWAP1 PUSH2 0x40A4 JUMP JUMPDEST PUSH1 0x40 MLOAD DUP1 SWAP2 SUB SWAP1 REVERT JUMPDEST PUSH1 0x1 PUSH1 0x0 DUP1 PUSH2 0x100 EXP DUP2 SLOAD DUP2 PUSH1 0xFF MUL NOT AND SWAP1 DUP4 ISZERO ISZERO MUL OR SWAP1 SSTORE POP DUP2 PUSH1 0x3 SLOAD PUSH2 0x13C9 SWAP2 SWAP1 PUSH2 0x40F3 JUMP JUMPDEST PUSH1 0x3 DUP2 SWAP1 SSTORE POP PUSH1 0x62 PUSH1 0x0 SWAP1 SLOAD SWAP1 PUSH2 0x100 EXP SWAP1 DIV PUSH20 0xFFFFFFFFFFFFFFFFFFFFFFFFFFFFFFFFFFFFFFFF AND PUSH20 0xFFFFFFFFFFFFFFFFFFFFFFFFFFFFFFFFFFFFFFFF AND PUSH2 0x8FC DUP4 SWAP1 DUP2 ISZERO MUL SWAP1 PUSH1 0x40 MLOAD PUSH1 0x0 PUSH1 0x40 MLOAD DUP1 DUP4 SUB DUP2 DUP6 DUP9 DUP9 CALL SWAP4 POP POP POP POP ISZERO DUP1 ISZERO PUSH2 0x1437 JUMPI RETURNDATASIZE PUSH1 0x0 DUP1 RETURNDATACOPY RETURNDATASIZE PUSH1 0x0 REVERT JUMPDEST POP PUSH1 0x0 DUP1 PUSH1 0x0 PUSH2 0x100 EXP DUP2 SLOAD DUP2 PUSH1 0xFF MUL NOT AND SWAP1 DUP4 ISZERO ISZERO MUL OR SWAP1 SSTORE POP POP POP JUMP JUMPDEST PUSH1 0x3 SLOAD DUP2 JUMP JUMPDEST PUSH1 0x2 SLOAD DUP2 JUMP JUMPDEST PUSH1 0x59 SLOAD DUP2 JUMP JUMPDEST PUSH1 0x29 DUP3 PUSH1 0x10 DUP2 LT PUSH2 0x1478 JUMPI PUSH1 0x0 DUP1 REVERT JUMPDEST PUSH1 0x2 MUL ADD DUP2 PUSH1 0x2 DUP2 LT PUSH2 0x148A JUMPI PUSH1 0x0 DUP1 REVERT JUMPDEST ADD PUSH1 0x0 SWAP2 POP SWAP2 POP POP SLOAD DUP2 JUMP JUMPDEST PUSH1 0x5A SLOAD DUP2 JUMP JUMPDEST PUSH1 0x60 SLOAD DUP2 JUMP JUMPDEST PUSH1 0x9 DUP3 PUSH1 0x10 DUP2 LT PUSH2 0x14B2 JUMPI PUSH1 0x0 DUP1 REVERT JUMPDEST PUSH1 0x2 MUL ADD DUP2 PUSH1 0x2 DUP2 LT PUSH2 0x14C4 JUMPI PUSH1 0x0 DUP1 REVERT JUMPDEST ADD PUSH1 0x0 SWAP2 POP SWAP2 POP POP SLOAD DUP2 JUMP JUMPDEST PUSH1 0x11 PUSH1 0x5E SLOAD LT PUSH2 0x1515 JUMPI PUSH1 0x40 MLOAD PUSH32 0x8C379A000000000000000000000000000000000000000000000000000000000 DUP2 MSTORE PUSH1 0x4 ADD PUSH2 0x150C SWAP1 PUSH2 0x46D4 JUMP JUMPDEST PUSH1 0x40 MLOAD DUP1 SWAP2 SUB SWAP1 REVERT JUMPDEST PUSH1 0x1 PUSH1 0x5B SLOAD EQ DUP1 PUSH2 0x1528 JUMPI POP PUSH1 0x1 PUSH1 0x5F SLOAD EQ JUMPDEST PUSH2 0x1531 JUMPI PUSH1 0x0 DUP1 REVERT JUMPDEST PUSH1 0x0 PUSH2 0x15B1 PUSH1 0x29 PUSH1 0x10 DUP1 PUSH1 0x20 MUL PUSH1 0x40 MLOAD SWAP1 DUP2 ADD PUSH1 0x40 MSTORE DUP1 SWAP3 SWAP2 SWAP1 PUSH1 0x0 SWAP1 JUMPDEST DUP3 DUP3 LT ISZERO PUSH2 0x15A8 JUMPI DUP4 DUP3 PUSH1 0x2 MUL ADD PUSH1 0x2 DUP1 PUSH1 0x20 MUL PUSH1 0x40 MLOAD SWAP1 DUP2 ADD PUSH1 0x40 MSTORE DUP1 SWAP3 SWAP2 SWAP1 DUP3 PUSH1 0x2 DUP1 ISZERO PUSH2 0x1594 JUMPI PUSH1 0x20 MUL DUP3 ADD SWAP2 JUMPDEST DUP2 SLOAD DUP2 MSTORE PUSH1 0x20 ADD SWAP1 PUSH1 0x1 ADD SWAP1 DUP1 DUP4 GT PUSH2 0x1580 JUMPI JUMPDEST POP POP POP POP POP DUP2 MSTORE PUSH1 0x20 ADD SWAP1 PUSH1 0x1 ADD SWAP1 PUSH2 0x154F JUMP JUMPDEST POP POP POP POP PUSH2 0x3734 JUMP JUMPDEST SWAP1 POP PUSH2 0x15BD PUSH1 0x1 PUSH2 0x1CB2 JUMP JUMPDEST PUSH1 0x0 PUSH1 0x1 SWAP1 POP JUMPDEST PUSH1 0xB DUP2 GT PUSH2 0x177B JUMPI JUMPDEST PUSH1 0x51 PUSH1 0x1 PUSH1 0x4 DUP2 LT PUSH2 0x15E2 JUMPI PUSH2 0x15E1 PUSH2 0x4435 JUMP JUMPDEST JUMPDEST PUSH1 0x2 MUL ADD PUSH1 0x0 PUSH1 0x2 DUP2 LT PUSH2 0x15F9 JUMPI PUSH2 0x15F8 PUSH2 0x4435 JUMP JUMPDEST JUMPDEST ADD SLOAD PUSH1 0x9 DUP3 PUSH1 0x10 DUP2 LT PUSH2 0x160F JUMPI PUSH2 0x160E PUSH2 0x4435 JUMP JUMPDEST JUMPDEST PUSH1 0x2 MUL ADD PUSH1 0x0 PUSH1 0x2 DUP2 LT PUSH2 0x1626 JUMPI PUSH2 0x1625 PUSH2 0x4435 JUMP JUMPDEST JUMPDEST ADD SLOAD EQ DUP1 ISZERO PUSH2 0x168D JUMPI POP PUSH1 0x51 PUSH1 0x1 PUSH1 0x4 DUP2 LT PUSH2 0x1645 JUMPI PUSH2 0x1644 PUSH2 0x4435 JUMP JUMPDEST JUMPDEST PUSH1 0x2 MUL ADD PUSH1 0x1 PUSH1 0x2 DUP2 LT PUSH2 0x165C JUMPI PUSH2 0x165B PUSH2 0x4435 JUMP JUMPDEST JUMPDEST ADD SLOAD PUSH1 0x9 DUP3 PUSH1 0x10 DUP2 LT PUSH2 0x1672 JUMPI PUSH2 0x1671 PUSH2 0x4435 JUMP JUMPDEST JUMPDEST PUSH1 0x2 MUL ADD PUSH1 0x0 PUSH1 0x2 DUP2 LT PUSH2 0x1689 JUMPI PUSH2 0x1688 PUSH2 0x4435 JUMP JUMPDEST JUMPDEST ADD SLOAD EQ JUMPDEST DUP1 PUSH2 0x1754 JUMPI POP PUSH1 0x51 PUSH1 0x1 PUSH1 0x4 DUP2 LT PUSH2 0x16A8 JUMPI PUSH2 0x16A7 PUSH2 0x4435 JUMP JUMPDEST JUMPDEST PUSH1 0x2 MUL ADD PUSH1 0x0 PUSH1 0x2 DUP2 LT PUSH2 0x16BF JUMPI PUSH2 0x16BE PUSH2 0x4435 JUMP JUMPDEST JUMPDEST ADD SLOAD PUSH1 0x29 DUP3 PUSH1 0x10 DUP2 LT PUSH2 0x16D5 JUMPI PUSH2 0x16D4 PUSH2 0x4435 JUMP JUMPDEST JUMPDEST PUSH1 0x2 MUL ADD PUSH1 0x0 PUSH1 0x2 DUP2 LT PUSH2 0x16EC JUMPI PUSH2 0x16EB PUSH2 0x4435 JUMP JUMPDEST JUMPDEST ADD SLOAD EQ DUP1 ISZERO PUSH2 0x1753 JUMPI POP PUSH1 0x51 PUSH1 0x1 PUSH1 0x4 DUP2 LT PUSH2 0x170B JUMPI PUSH2 0x170A PUSH2 0x4435 JUMP JUMPDEST JUMPDEST PUSH1 0x2 MUL ADD PUSH1 0x1 PUSH1 0x2 DUP2 LT PUSH2 0x1722 JUMPI PUSH2 0x1721 PUSH2 0x4435 JUMP JUMPDEST JUMPDEST ADD SLOAD PUSH1 0x29 DUP3 PUSH1 0x10 DUP2 LT PUSH2 0x1738 JUMPI PUSH2 0x1737 PUSH2 0x4435 JUMP JUMPDEST JUMPDEST PUSH1 0x2 MUL ADD PUSH1 0x1 PUSH1 0x2 DUP2 LT PUSH2 0x174F JUMPI PUSH2 0x174E PUSH2 0x4435 JUMP JUMPDEST JUMPDEST ADD SLOAD EQ JUMPDEST JUMPDEST ISZERO PUSH2 0x1768 JUMPI PUSH2 0x1763 PUSH1 0x1 PUSH2 0x1CB2 JUMP JUMPDEST PUSH2 0x15CD JUMP JUMPDEST DUP1 DUP1 PUSH2 0x1773 SWAP1 PUSH2 0x4464 JUMP JUMPDEST SWAP2 POP POP PUSH2 0x15C4 JUMP JUMPDEST POP PUSH2 0x17ED PUSH1 0x51 PUSH1 0x1 PUSH1 0x4 DUP2 LT PUSH2 0x1794 JUMPI PUSH2 0x1793 PUSH2 0x4435 JUMP JUMPDEST JUMPDEST PUSH1 0x2 MUL ADD PUSH1 0x0 PUSH1 0x2 DUP2 LT PUSH2 0x17AB JUMPI PUSH2 0x17AA PUSH2 0x4435 JUMP JUMPDEST JUMPDEST ADD SLOAD PUSH1 0x51 PUSH1 0x1 PUSH1 0x4 DUP2 LT PUSH2 0x17C2 JUMPI PUSH2 0x17C1 PUSH2 0x4435 JUMP JUMPDEST JUMPDEST PUSH1 0x2 MUL ADD PUSH1 0x1 PUSH1 0x2 DUP2 LT PUSH2 0x17D9 JUMPI PUSH2 0x17D8 PUSH2 0x4435 JUMP JUMPDEST JUMPDEST ADD SLOAD PUSH1 0x1 DUP5 PUSH2 0x17E8 SWAP2 SWAP1 PUSH2 0x42DD JUMP JUMPDEST PUSH2 0x23BD JUMP JUMPDEST PUSH2 0x17F5 PUSH2 0x271C JUMP JUMPDEST PUSH2 0x17FD PUSH2 0x2991 JUMP JUMPDEST POP JUMP JUMPDEST PUSH1 0x5C SLOAD DUP2 JUMP JUMPDEST PUSH1 0x0 PUSH1 0x5F SLOAD EQ PUSH2 0x184B JUMPI PUSH1 0x40 MLOAD PUSH32 0x8C379A000000000000000000000000000000000000000000000000000000000 DUP2 MSTORE PUSH1 0x4 ADD PUSH2 0x1842 SWAP1 PUSH2 0x4740 JUMP JUMPDEST PUSH1 0x40 MLOAD DUP1 SWAP2 SUB SWAP1 REVERT JUMPDEST PUSH1 0x0 PUSH1 0x5B SLOAD EQ PUSH2 0x1890 JUMPI PUSH1 0x40 MLOAD PUSH32 0x8C379A000000000000000000000000000000000000000000000000000000000 DUP2 MSTORE PUSH1 0x4 ADD PUSH2 0x1887 SWAP1 PUSH2 0x47AC JUMP JUMPDEST PUSH1 0x40 MLOAD DUP1 SWAP2 SUB SWAP1 REVERT JUMPDEST PUSH1 0x1 DUP1 SLOAD EQ PUSH2 0x18D4 JUMPI PUSH1 0x40 MLOAD PUSH32 0x8C379A000000000000000000000000000000000000000000000000000000000 DUP2 MSTORE PUSH1 0x4 ADD PUSH2 0x18CB SWAP1 PUSH2 0x4818 JUMP JUMPDEST PUSH1 0x40 MLOAD DUP1 SWAP2 SUB SWAP1 REVERT JUMPDEST PUSH1 0x1 PUSH1 0x5F DUP2 SWAP1 SSTORE POP PUSH2 0x18E4 PUSH2 0x2F15 JUMP JUMPDEST JUMPDEST PUSH1 0x1 DUP1 SLOAD SUB PUSH2 0x18FB JUMPI PUSH2 0x18F6 PUSH2 0x14D0 JUMP JUMPDEST PUSH2 0x18E5 JUMP JUMPDEST JUMP JUMPDEST PUSH1 0x5D SLOAD DUP2 JUMP JUMPDEST PUSH8 0xDE0B6B3A7640000 DUP2 JUMP JUMPDEST PUSH1 0x4 SLOAD DUP2 JUMP JUMPDEST PUSH1 0x1 DUP1 SLOAD EQ PUSH2 0x1959 JUMPI PUSH1 0x40 MLOAD PUSH32 0x8C379A000000000000000000000000000000000000000000000000000000000 DUP2 MSTORE PUSH1 0x4 ADD PUSH2 0x1950 SWAP1 PUSH2 0x4818 JUMP JUMPDEST PUSH1 0x40 MLOAD DUP1 SWAP2 SUB SWAP1 REVERT JUMPDEST PUSH1 0x0 PUSH1 0x5B SLOAD EQ PUSH2 0x199E JUMPI PUSH1 0x40 MLOAD PUSH32 0x8C379A000000000000000000000000000000000000000000000000000000000 DUP2 MSTORE PUSH1 0x4 ADD PUSH2 0x1995 SWAP1 PUSH2 0x47AC JUMP JUMPDEST PUSH1 0x40 MLOAD DUP1 SWAP2 SUB SWAP1 REVERT JUMPDEST PUSH1 0x0 PUSH1 0x5F SLOAD EQ PUSH2 0x19E3 JUMPI PUSH1 0x40 MLOAD PUSH32 0x8C379A000000000000000000000000000000000000000000000000000000000 DUP2 MSTORE PUSH1 0x4 ADD PUSH2 0x19DA SWAP1 PUSH2 0x4740 JUMP JUMPDEST PUSH1 0x40 MLOAD DUP1 SWAP2 SUB SWAP1 REVERT JUMPDEST PUSH1 0x0 PUSH2 0x1A63 PUSH1 0x9 PUSH1 0x10 DUP1 PUSH1 0x20 MUL PUSH1 0x40 MLOAD SWAP1 DUP2 ADD PUSH1 0x40 MSTORE DUP1 SWAP3 SWAP2 SWAP1 PUSH1 0x0 SWAP1 JUMPDEST DUP3 DUP3 LT ISZERO PUSH2 0x1A5A JUMPI DUP4 DUP3 PUSH1 0x2 MUL ADD PUSH1 0x2 DUP1 PUSH1 0x20 MUL PUSH1 0x40 MLOAD SWAP1 DUP2 ADD PUSH1 0x40 MSTORE DUP1 SWAP3 SWAP2 SWAP1 DUP3 PUSH1 0x2 DUP1 ISZERO PUSH2 0x1A46 JUMPI PUSH1 0x20 MUL DUP3 ADD SWAP2 JUMPDEST DUP2 SLOAD DUP2 MSTORE PUSH1 0x20 ADD SWAP1 PUSH1 0x1 ADD SWAP1 DUP1 DUP4 GT PUSH2 0x1A32 JUMPI JUMPDEST POP POP POP POP POP DUP2 MSTORE PUSH1 0x20 ADD SWAP1 PUSH1 0x1 ADD SWAP1 PUSH2 0x1A01 JUMP JUMPDEST POP POP POP POP PUSH2 0x3734 JUMP JUMPDEST SWAP1 POP PUSH2 0x1A6F PUSH1 0x1 PUSH2 0x1CB2 JUMP JUMPDEST PUSH1 0x0 PUSH1 0x1 SWAP1 POP JUMPDEST PUSH1 0xB DUP2 GT PUSH2 0x1C2D JUMPI JUMPDEST PUSH1 0x51 PUSH1 0x1 PUSH1 0x4 DUP2 LT PUSH2 0x1A94 JUMPI PUSH2 0x1A93 PUSH2 0x4435 JUMP JUMPDEST JUMPDEST PUSH1 0x2 MUL ADD PUSH1 0x0 PUSH1 0x2 DUP2 LT PUSH2 0x1AAB JUMPI PUSH2 0x1AAA PUSH2 0x4435 JUMP JUMPDEST JUMPDEST ADD SLOAD PUSH1 0x9 DUP3 PUSH1 0x10 DUP2 LT PUSH2 0x1AC1 JUMPI PUSH2 0x1AC0 PUSH2 0x4435 JUMP JUMPDEST JUMPDEST PUSH1 0x2 MUL ADD PUSH1 0x0 PUSH1 0x2 DUP2 LT PUSH2 0x1AD8 JUMPI PUSH2 0x1AD7 PUSH2 0x4435 JUMP JUMPDEST JUMPDEST ADD SLOAD EQ DUP1 ISZERO PUSH2 0x1B3F JUMPI POP PUSH1 0x51 PUSH1 0x1 PUSH1 0x4 DUP2 LT PUSH2 0x1AF7 JUMPI PUSH2 0x1AF6 PUSH2 0x4435 JUMP JUMPDEST JUMPDEST PUSH1 0x2 MUL ADD PUSH1 0x1 PUSH1 0x2 DUP2 LT PUSH2 0x1B0E JUMPI PUSH2 0x1B0D PUSH2 0x4435 JUMP JUMPDEST JUMPDEST ADD SLOAD PUSH1 0x9 DUP3 PUSH1 0x10 DUP2 LT PUSH2 0x1B24 JUMPI PUSH2 0x1B23 PUSH2 0x4435 JUMP JUMPDEST JUMPDEST PUSH1 0x2 MUL ADD PUSH1 0x0 PUSH1 0x2 DUP2 LT PUSH2 0x1B3B JUMPI PUSH2 0x1B3A PUSH2 0x4435 JUMP JUMPDEST JUMPDEST ADD SLOAD EQ JUMPDEST DUP1 PUSH2 0x1C06 JUMPI POP PUSH1 0x51 PUSH1 0x1 PUSH1 0x4 DUP2 LT PUSH2 0x1B5A JUMPI PUSH2 0x1B59 PUSH2 0x4435 JUMP JUMPDEST JUMPDEST PUSH1 0x2 MUL ADD PUSH1 0x0 PUSH1 0x2 DUP2 LT PUSH2 0x1B71 JUMPI PUSH2 0x1B70 PUSH2 0x4435 JUMP JUMPDEST JUMPDEST ADD SLOAD PUSH1 0x29 DUP3 PUSH1 0x10 DUP2 LT PUSH2 0x1B87 JUMPI PUSH2 0x1B86 PUSH2 0x4435 JUMP JUMPDEST JUMPDEST PUSH1 0x2 MUL ADD PUSH1 0x0 PUSH1 0x2 DUP2 LT PUSH2 0x1B9E JUMPI PUSH2 0x1B9D PUSH2 0x4435 JUMP JUMPDEST JUMPDEST ADD SLOAD EQ DUP1 ISZERO PUSH2 0x1C05 JUMPI POP PUSH1 0x51 PUSH1 0x1 PUSH1 0x4 DUP2 LT PUSH2 0x1BBD JUMPI PUSH2 0x1BBC PUSH2 0x4435 JUMP JUMPDEST JUMPDEST PUSH1 0x2 MUL ADD PUSH1 0x1 PUSH1 0x2 DUP2 LT PUSH2 0x1BD4 JUMPI PUSH2 0x1BD3 PUSH2 0x4435 JUMP JUMPDEST JUMPDEST ADD SLOAD PUSH1 0x29 DUP3 PUSH1 0x10 DUP2 LT PUSH2 0x1BEA JUMPI PUSH2 0x1BE9 PUSH2 0x4435 JUMP JUMPDEST JUMPDEST PUSH1 0x2 MUL ADD PUSH1 0x1 PUSH1 0x2 DUP2 LT PUSH2 0x1C01 JUMPI PUSH2 0x1C00 PUSH2 0x4435 JUMP JUMPDEST JUMPDEST ADD SLOAD EQ JUMPDEST JUMPDEST ISZERO PUSH2 0x1C1A JUMPI PUSH2 0x1C15 PUSH1 0x1 PUSH2 0x1CB2 JUMP JUMPDEST PUSH2 0x1A7F JUMP JUMPDEST DUP1 DUP1 PUSH2 0x1C25 SWAP1 PUSH2 0x4464 JUMP JUMPDEST SWAP2 POP POP PUSH2 0x1A76 JUMP JUMPDEST POP PUSH2 0x1C9F PUSH1 0x51 PUSH1 0x1 PUSH1 0x4 DUP2 LT PUSH2 0x1C46 JUMPI PUSH2 0x1C45 PUSH2 0x4435 JUMP JUMPDEST JUMPDEST PUSH1 0x2 MUL ADD PUSH1 0x0 PUSH1 0x2 DUP2 LT PUSH2 0x1C5D JUMPI PUSH2 0x1C5C PUSH2 0x4435 JUMP JUMPDEST JUMPDEST ADD SLOAD PUSH1 0x51 PUSH1 0x1 PUSH1 0x4 DUP2 LT PUSH2 0x1C74 JUMPI PUSH2 0x1C73 PUSH2 0x4435 JUMP JUMPDEST JUMPDEST PUSH1 0x2 MUL ADD PUSH1 0x1 PUSH1 0x2 DUP2 LT PUSH2 0x1C8B JUMPI PUSH2 0x1C8A PUSH2 0x4435 JUMP JUMPDEST JUMPDEST ADD SLOAD PUSH1 0x1 DUP5 PUSH2 0x1C9A SWAP2 SWAP1 PUSH2 0x42DD JUMP JUMPDEST PUSH2 0x22D2 JUMP JUMPDEST PUSH2 0x1CA7 PUSH2 0x24A8 JUMP JUMPDEST PUSH2 0x1CAF PUSH2 0x2F15 JUMP JUMPDEST POP JUMP JUMPDEST PUSH1 0x0 PUSH1 0x40 MLOAD DUP1 PUSH1 0x20 ADD PUSH1 0x40 MSTORE DUP1 PUSH1 0x0 DUP2 MSTORE POP SWAP1 POP PUSH1 0x0 PUSH1 0x40 MLOAD DUP1 PUSH1 0x20 ADD PUSH1 0x40 MSTORE DUP1 PUSH1 0x0 DUP2 MSTORE POP SWAP1 POP PUSH1 0x0 DUP1 PUSH1 0x1 SWAP1 POP PUSH1 0x0 JUMPDEST DUP6 DUP3 GT PUSH2 0x1F68 JUMPI PUSH1 0x0 PUSH1 0x3 SWAP1 POP PUSH1 0x0 PUSH1 0x4 SWAP1 POP PUSH1 0x0 PUSH1 0x8 DUP2 SWAP1 SSTORE POP PUSH1 0x0 PUSH1 0x7 DUP2 SWAP1 SSTORE POP PUSH2 0x1D0F PUSH2 0x37AC JUMP JUMPDEST PUSH1 0x6 DUP2 SWAP1 SSTORE POP PUSH2 0x1D20 PUSH1 0x6 SLOAD PUSH2 0x3860 JUMP JUMPDEST SWAP7 POP PUSH2 0x1D2D DUP3 DUP3 DUP10 PUSH2 0x392E JUMP JUMPDEST SWAP6 POP PUSH2 0x1D38 DUP7 PUSH2 0x3A43 JUMP JUMPDEST SWAP3 POP DUP7 MLOAD SWAP5 POP JUMPDEST PUSH1 0x1 DUP4 LT DUP1 PUSH2 0x1D4E JUMPI POP PUSH1 0xD DUP4 GT JUMPDEST DUP1 ISZERO PUSH2 0x1D65 JUMPI POP PUSH1 0x3 DUP6 PUSH2 0x1D62 SWAP2 SWAP1 PUSH2 0x40F3 JUMP JUMPDEST DUP3 LT JUMPDEST ISZERO PUSH2 0x1DF9 JUMPI PUSH1 0x2 DUP3 PUSH2 0x1D77 SWAP2 SWAP1 PUSH2 0x42DD JUMP JUMPDEST SWAP2 POP PUSH1 0x2 DUP2 PUSH2 0x1D86 SWAP2 SWAP1 PUSH2 0x42DD JUMP JUMPDEST SWAP1 POP PUSH2 0x1D93 DUP3 DUP3 DUP10 PUSH2 0x392E JUMP JUMPDEST SWAP6 POP PUSH2 0x1D9E DUP7 PUSH2 0x3A43 JUMP JUMPDEST SWAP3 POP PUSH1 0x3 DUP6 PUSH2 0x1DAD SWAP2 SWAP1 PUSH2 0x40F3 JUMP JUMPDEST DUP3 GT ISZERO PUSH2 0x1DF4 JUMPI PUSH1 0x3 SWAP2 POP PUSH1 0x4 SWAP1 POP PUSH2 0x1DC4 PUSH2 0x37AC JUMP JUMPDEST PUSH1 0x6 DUP2 SWAP1 SSTORE POP PUSH2 0x1DD5 PUSH1 0x6 SLOAD PUSH2 0x3860 JUMP JUMPDEST SWAP7 POP PUSH2 0x1DE2 DUP3 DUP3 DUP10 PUSH2 0x392E JUMP JUMPDEST SWAP6 POP PUSH2 0x1DED DUP7 PUSH2 0x3A43 JUMP JUMPDEST SWAP3 POP DUP7 MLOAD SWAP5 POP JUMPDEST PUSH2 0x1D3F JUMP JUMPDEST DUP3 PUSH1 0x8 DUP2 SWAP1 SSTORE POP PUSH1 0x2 DUP3 PUSH2 0x1E0D SWAP2 SWAP1 PUSH2 0x42DD JUMP JUMPDEST SWAP2 POP PUSH1 0x2 DUP2 PUSH2 0x1E1C SWAP2 SWAP1 PUSH2 0x42DD JUMP JUMPDEST SWAP1 POP PUSH2 0x1E29 DUP3 DUP3 DUP10 PUSH2 0x392E JUMP JUMPDEST SWAP6 POP PUSH2 0x1E34 DUP7 PUSH2 0x3A43 JUMP JUMPDEST SWAP3 POP JUMPDEST PUSH1 0x1 DUP4 LT DUP1 PUSH2 0x1E46 JUMPI POP PUSH1 0x4 DUP4 GT JUMPDEST DUP1 ISZERO PUSH2 0x1E5D JUMPI POP PUSH1 0x3 DUP6 PUSH2 0x1E5A SWAP2 SWAP1 PUSH2 0x40F3 JUMP JUMPDEST DUP3 LT JUMPDEST ISZERO PUSH2 0x1EE5 JUMPI PUSH1 0x1 DUP3 PUSH2 0x1E6F SWAP2 SWAP1 PUSH2 0x42DD JUMP JUMPDEST SWAP2 POP DUP2 SWAP1 POP PUSH2 0x1E7F DUP3 DUP3 DUP10 PUSH2 0x392E JUMP JUMPDEST SWAP6 POP PUSH2 0x1E8A DUP7 PUSH2 0x3A43 JUMP JUMPDEST SWAP3 POP PUSH1 0x3 DUP6 PUSH2 0x1E99 SWAP2 SWAP1 PUSH2 0x40F3 JUMP JUMPDEST DUP3 GT ISZERO PUSH2 0x1EE0 JUMPI PUSH1 0x4 SWAP2 POP PUSH1 0x4 SWAP1 POP PUSH2 0x1EB0 PUSH2 0x37AC JUMP JUMPDEST PUSH1 0x6 DUP2 SWAP1 SSTORE POP PUSH2 0x1EC1 PUSH1 0x6 SLOAD PUSH2 0x3860 JUMP JUMPDEST SWAP7 POP PUSH2 0x1ECE DUP3 DUP3 DUP10 PUSH2 0x392E JUMP JUMPDEST SWAP6 POP PUSH2 0x1ED9 DUP7 PUSH2 0x3A43 JUMP JUMPDEST SWAP3 POP DUP7 MLOAD SWAP5 POP JUMPDEST PUSH2 0x1E37 JUMP JUMPDEST DUP3 PUSH1 0x7 DUP2 SWAP1 SSTORE POP PUSH1 0x8 SLOAD PUSH1 0x51 DUP6 PUSH1 0x4 DUP2 LT PUSH2 0x1F03 JUMPI PUSH2 0x1F02 PUSH2 0x4435 JUMP JUMPDEST JUMPDEST PUSH1 0x2 MUL ADD PUSH1 0x0 PUSH1 0x2 DUP2 LT PUSH2 0x1F1A JUMPI PUSH2 0x1F19 PUSH2 0x4435 JUMP JUMPDEST JUMPDEST ADD DUP2 SWAP1 SSTORE POP PUSH1 0x7 SLOAD PUSH1 0x51 DUP6 PUSH1 0x4 DUP2 LT PUSH2 0x1F36 JUMPI PUSH2 0x1F35 PUSH2 0x4435 JUMP JUMPDEST JUMPDEST PUSH1 0x2 MUL ADD PUSH1 0x1 PUSH1 0x2 DUP2 LT PUSH2 0x1F4D JUMPI PUSH2 0x1F4C PUSH2 0x4435 JUMP JUMPDEST JUMPDEST ADD DUP2 SWAP1 SSTORE POP PUSH1 0x1 DUP5 PUSH2 0x1F5F SWAP2 SWAP1 PUSH2 0x42DD JUMP JUMPDEST SWAP4 POP POP POP PUSH2 0x1CE4 JUMP JUMPDEST POP POP POP POP POP POP JUMP JUMPDEST PUSH2 0x1F78 PUSH2 0x3D2D JUMP JUMPDEST JUMPDEST DUP2 PUSH1 0x2 PUSH1 0x4 DUP2 LT PUSH2 0x1F8D JUMPI PUSH2 0x1F8C PUSH2 0x4435 JUMP JUMPDEST JUMPDEST PUSH1 0x20 MUL ADD MLOAD PUSH1 0x0 PUSH1 0x2 DUP2 LT PUSH2 0x1FA5 JUMPI PUSH2 0x1FA4 PUSH2 0x4435 JUMP JUMPDEST JUMPDEST PUSH1 0x20 MUL ADD MLOAD DUP3 PUSH1 0x1 PUSH1 0x4 DUP2 LT PUSH2 0x1FBE JUMPI PUSH2 0x1FBD PUSH2 0x4435 JUMP JUMPDEST JUMPDEST PUSH1 0x20 MUL ADD MLOAD PUSH1 0x0 PUSH1 0x2 DUP2 LT PUSH2 0x1FD6 JUMPI PUSH2 0x1FD5 PUSH2 0x4435 JUMP JUMPDEST JUMPDEST PUSH1 0x20 MUL ADD MLOAD EQ DUP1 ISZERO PUSH2 0x2047 JUMPI POP DUP2 PUSH1 0x2 PUSH1 0x4 DUP2 LT PUSH2 0x1FF7 JUMPI PUSH2 0x1FF6 PUSH2 0x4435 JUMP JUMPDEST JUMPDEST PUSH1 0x20 MUL ADD MLOAD PUSH1 0x1 PUSH1 0x2 DUP2 LT PUSH2 0x200F JUMPI PUSH2 0x200E PUSH2 0x4435 JUMP JUMPDEST JUMPDEST PUSH1 0x20 MUL ADD MLOAD DUP3 PUSH1 0x1 PUSH1 0x4 DUP2 LT PUSH2 0x2028 JUMPI PUSH2 0x2027 PUSH2 0x4435 JUMP JUMPDEST JUMPDEST PUSH1 0x20 MUL ADD MLOAD PUSH1 0x1 PUSH1 0x2 DUP2 LT PUSH2 0x2040 JUMPI PUSH2 0x203F PUSH2 0x4435 JUMP JUMPDEST JUMPDEST PUSH1 0x20 MUL ADD MLOAD EQ JUMPDEST ISZERO PUSH2 0x2121 JUMPI PUSH2 0x2056 PUSH1 0x1 PUSH2 0x1CB2 JUMP JUMPDEST PUSH1 0x51 PUSH1 0x1 PUSH1 0x4 DUP2 LT PUSH2 0x206B JUMPI PUSH2 0x206A PUSH2 0x4435 JUMP JUMPDEST JUMPDEST PUSH1 0x2 MUL ADD PUSH1 0x0 PUSH1 0x2 DUP2 LT PUSH2 0x2082 JUMPI PUSH2 0x2081 PUSH2 0x4435 JUMP JUMPDEST JUMPDEST ADD SLOAD DUP3 PUSH1 0x2 PUSH1 0x4 DUP2 LT PUSH2 0x2098 JUMPI PUSH2 0x2097 PUSH2 0x4435 JUMP JUMPDEST JUMPDEST PUSH1 0x20 MUL ADD MLOAD PUSH1 0x0 PUSH1 0x2 DUP2 LT PUSH2 0x20B0 JUMPI PUSH2 0x20AF PUSH2 0x4435 JUMP JUMPDEST JUMPDEST PUSH1 0x20 MUL ADD DUP2 DUP2 MSTORE POP POP PUSH1 0x51 PUSH1 0x1 PUSH1 0x4 DUP2 LT PUSH2 0x20CE JUMPI PUSH2 0x20CD PUSH2 0x4435 JUMP JUMPDEST JUMPDEST PUSH1 0x2 MUL ADD PUSH1 0x1 PUSH1 0x2 DUP2 LT PUSH2 0x20E5 JUMPI PUSH2 0x20E4 PUSH2 0x4435 JUMP JUMPDEST JUMPDEST ADD SLOAD DUP3 PUSH1 0x2 PUSH1 0x4 DUP2 LT PUSH2 0x20FB JUMPI PUSH2 0x20FA PUSH2 0x4435 JUMP JUMPDEST JUMPDEST PUSH1 0x20 MUL ADD MLOAD PUSH1 0x1 PUSH1 0x2 DUP2 LT PUSH2 0x2113 JUMPI PUSH2 0x2112 PUSH2 0x4435 JUMP JUMPDEST JUMPDEST PUSH1 0x20 MUL ADD DUP2 DUP2 MSTORE POP POP PUSH2 0x1F79 JUMP JUMPDEST JUMPDEST DUP2 PUSH1 0x3 PUSH1 0x4 DUP2 LT PUSH2 0x2136 JUMPI PUSH2 0x2135 PUSH2 0x4435 JUMP JUMPDEST JUMPDEST PUSH1 0x20 MUL ADD MLOAD PUSH1 0x0 PUSH1 0x2 DUP2 LT PUSH2 0x214E JUMPI PUSH2 0x214D PUSH2 0x4435 JUMP JUMPDEST JUMPDEST PUSH1 0x20 MUL ADD MLOAD DUP3 PUSH1 0x2 PUSH1 0x4 DUP2 LT PUSH2 0x2167 JUMPI PUSH2 0x2166 PUSH2 0x4435 JUMP JUMPDEST JUMPDEST PUSH1 0x20 MUL ADD MLOAD PUSH1 0x0 PUSH1 0x2 DUP2 LT PUSH2 0x217F JUMPI PUSH2 0x217E PUSH2 0x4435 JUMP JUMPDEST JUMPDEST PUSH1 0x20 MUL ADD MLOAD EQ DUP1 ISZERO PUSH2 0x21F0 JUMPI POP DUP2 PUSH1 0x3 PUSH1 0x4 DUP2 LT PUSH2 0x21A0 JUMPI PUSH2 0x219F PUSH2 0x4435 JUMP JUMPDEST JUMPDEST PUSH1 0x20 MUL ADD MLOAD PUSH1 0x1 PUSH1 0x2 DUP2 LT PUSH2 0x21B8 JUMPI PUSH2 0x21B7 PUSH2 0x4435 JUMP JUMPDEST JUMPDEST PUSH1 0x20 MUL ADD MLOAD DUP3 PUSH1 0x2 PUSH1 0x4 DUP2 LT PUSH2 0x21D1 JUMPI PUSH2 0x21D0 PUSH2 0x4435 JUMP JUMPDEST JUMPDEST PUSH1 0x20 MUL ADD MLOAD PUSH1 0x1 PUSH1 0x2 DUP2 LT PUSH2 0x21E9 JUMPI PUSH2 0x21E8 PUSH2 0x4435 JUMP JUMPDEST JUMPDEST PUSH1 0x20 MUL ADD MLOAD EQ JUMPDEST ISZERO PUSH2 0x22CA JUMPI PUSH2 0x21FF PUSH1 0x1 PUSH2 0x1CB2 JUMP JUMPDEST PUSH1 0x51 PUSH1 0x1 PUSH1 0x4 DUP2 LT PUSH2 0x2214 JUMPI PUSH2 0x2213 PUSH2 0x4435 JUMP JUMPDEST JUMPDEST PUSH1 0x2 MUL ADD PUSH1 0x0 PUSH1 0x2 DUP2 LT PUSH2 0x222B JUMPI PUSH2 0x222A PUSH2 0x4435 JUMP JUMPDEST JUMPDEST ADD SLOAD DUP3 PUSH1 0x3 PUSH1 0x4 DUP2 LT PUSH2 0x2241 JUMPI PUSH2 0x2240 PUSH2 0x4435 JUMP JUMPDEST JUMPDEST PUSH1 0x20 MUL ADD MLOAD PUSH1 0x0 PUSH1 0x2 DUP2 LT PUSH2 0x2259 JUMPI PUSH2 0x2258 PUSH2 0x4435 JUMP JUMPDEST JUMPDEST PUSH1 0x20 MUL ADD DUP2 DUP2 MSTORE POP POP PUSH1 0x51 PUSH1 0x1 PUSH1 0x4 DUP2 LT PUSH2 0x2277 JUMPI PUSH2 0x2276 PUSH2 0x4435 JUMP JUMPDEST JUMPDEST PUSH1 0x2 MUL ADD PUSH1 0x1 PUSH1 0x2 DUP2 LT PUSH2 0x228E JUMPI PUSH2 0x228D PUSH2 0x4435 JUMP JUMPDEST JUMPDEST ADD SLOAD DUP3 PUSH1 0x3 PUSH1 0x4 DUP2 LT PUSH2 0x22A4 JUMPI PUSH2 0x22A3 PUSH2 0x4435 JUMP JUMPDEST JUMPDEST PUSH1 0x20 MUL ADD MLOAD PUSH1 0x1 PUSH1 0x2 DUP2 LT PUSH2 0x22BC JUMPI PUSH2 0x22BB PUSH2 0x4435 JUMP JUMPDEST JUMPDEST PUSH1 0x20 MUL ADD DUP2 DUP2 MSTORE POP POP PUSH2 0x2122 JUMP JUMPDEST DUP2 SWAP1 POP SWAP2 SWAP1 POP JUMP JUMPDEST DUP3 PUSH1 0x9 DUP3 PUSH1 0x10 DUP2 LT PUSH2 0x22E7 JUMPI PUSH2 0x22E6 PUSH2 0x4435 JUMP JUMPDEST JUMPDEST PUSH1 0x2 MUL ADD PUSH1 0x0 PUSH1 0x2 DUP2 LT PUSH2 0x22FE JUMPI PUSH2 0x22FD PUSH2 0x4435 JUMP JUMPDEST JUMPDEST ADD DUP2 SWAP1 SSTORE POP DUP2 PUSH1 0x9 DUP3 PUSH1 0x10 DUP2 LT PUSH2 0x2318 JUMPI PUSH2 0x2317 PUSH2 0x4435 JUMP JUMPDEST JUMPDEST PUSH1 0x2 MUL ADD PUSH1 0x1 PUSH1 0x2 DUP2 LT PUSH2 0x232F JUMPI PUSH2 0x232E PUSH2 0x4435 JUMP JUMPDEST JUMPDEST ADD DUP2 SWAP1 SSTORE POP PUSH2 0x23B2 PUSH1 0x9 PUSH1 0x10 DUP1 PUSH1 0x20 MUL PUSH1 0x40 MLOAD SWAP1 DUP2 ADD PUSH1 0x40 MSTORE DUP1 SWAP3 SWAP2 SWAP1 PUSH1 0x0 SWAP1 JUMPDEST DUP3 DUP3 LT ISZERO PUSH2 0x23A9 JUMPI DUP4 DUP3 PUSH1 0x2 MUL ADD PUSH1 0x2 DUP1 PUSH1 0x20 MUL PUSH1 0x40 MLOAD SWAP1 DUP2 ADD PUSH1 0x40 MSTORE DUP1 SWAP3 SWAP2 SWAP1 DUP3 PUSH1 0x2 DUP1 ISZERO PUSH2 0x2395 JUMPI PUSH1 0x20 MUL DUP3 ADD SWAP2 JUMPDEST DUP2 SLOAD DUP2 MSTORE PUSH1 0x20 ADD SWAP1 PUSH1 0x1 ADD SWAP1 DUP1 DUP4 GT PUSH2 0x2381 JUMPI JUMPDEST POP POP POP POP POP DUP2 MSTORE PUSH1 0x20 ADD SWAP1 PUSH1 0x1 ADD SWAP1 PUSH2 0x2350 JUMP JUMPDEST POP POP POP POP PUSH2 0x3734 JUMP JUMPDEST PUSH1 0x59 DUP2 SWAP1 SSTORE POP POP POP POP JUMP JUMPDEST DUP3 PUSH1 0x29 DUP3 PUSH1 0x10 DUP2 LT PUSH2 0x23D2 JUMPI PUSH2 0x23D1 PUSH2 0x4435 JUMP JUMPDEST JUMPDEST PUSH1 0x2 MUL ADD PUSH1 0x0 PUSH1 0x2 DUP2 LT PUSH2 0x23E9 JUMPI PUSH2 0x23E8 PUSH2 0x4435 JUMP JUMPDEST JUMPDEST ADD DUP2 SWAP1 SSTORE POP DUP2 PUSH1 0x29 DUP3 PUSH1 0x10 DUP2 LT PUSH2 0x2403 JUMPI PUSH2 0x2402 PUSH2 0x4435 JUMP JUMPDEST JUMPDEST PUSH1 0x2 MUL ADD PUSH1 0x1 PUSH1 0x2 DUP2 LT PUSH2 0x241A JUMPI PUSH2 0x2419 PUSH2 0x4435 JUMP JUMPDEST JUMPDEST ADD DUP2 SWAP1 SSTORE POP PUSH2 0x249D PUSH1 0x29 PUSH1 0x10 DUP1 PUSH1 0x20 MUL PUSH1 0x40 MLOAD SWAP1 DUP2 ADD PUSH1 0x40 MSTORE DUP1 SWAP3 SWAP2 SWAP1 PUSH1 0x0 SWAP1 JUMPDEST DUP3 DUP3 LT ISZERO PUSH2 0x2494 JUMPI DUP4 DUP3 PUSH1 0x2 MUL ADD PUSH1 0x2 DUP1 PUSH1 0x20 MUL PUSH1 0x40 MLOAD SWAP1 DUP2 ADD PUSH1 0x40 MSTORE DUP1 SWAP3 SWAP2 SWAP1 DUP3 PUSH1 0x2 DUP1 ISZERO PUSH2 0x2480 JUMPI PUSH1 0x20 MUL DUP3 ADD SWAP2 JUMPDEST DUP2 SLOAD DUP2 MSTORE PUSH1 0x20 ADD SWAP1 PUSH1 0x1 ADD SWAP1 DUP1 DUP4 GT PUSH2 0x246C JUMPI JUMPDEST POP POP POP POP POP DUP2 MSTORE PUSH1 0x20 ADD SWAP1 PUSH1 0x1 ADD SWAP1 PUSH2 0x243B JUMP JUMPDEST POP POP POP POP PUSH2 0x3734 JUMP JUMPDEST PUSH1 0x5A DUP2 SWAP1 SSTORE POP POP POP POP JUMP JUMPDEST PUSH1 0x0 DUP1 PUSH2 0x2529 PUSH1 0x9 PUSH1 0x10 DUP1 PUSH1 0x20 MUL PUSH1 0x40 MLOAD SWAP1 DUP2 ADD PUSH1 0x40 MSTORE DUP1 SWAP3 SWAP2 SWAP1 PUSH1 0x0 SWAP1 JUMPDEST DUP3 DUP3 LT ISZERO PUSH2 0x2520 JUMPI DUP4 DUP3 PUSH1 0x2 MUL ADD PUSH1 0x2 DUP1 PUSH1 0x20 MUL PUSH1 0x40 MLOAD SWAP1 DUP2 ADD PUSH1 0x40 MSTORE DUP1 SWAP3 SWAP2 SWAP1 DUP3 PUSH1 0x2 DUP1 ISZERO PUSH2 0x250C JUMPI PUSH1 0x20 MUL DUP3 ADD SWAP2 JUMPDEST DUP2 SLOAD DUP2 MSTORE PUSH1 0x20 ADD SWAP1 PUSH1 0x1 ADD SWAP1 DUP1 DUP4 GT PUSH2 0x24F8 JUMPI JUMPDEST POP POP POP POP POP DUP2 MSTORE PUSH1 0x20 ADD SWAP1 PUSH1 0x1 ADD SWAP1 PUSH2 0x24C7 JUMP JUMPDEST POP POP POP POP PUSH2 0x3734 JUMP JUMPDEST PUSH1 0x59 DUP2 SWAP1 SSTORE POP PUSH1 0x0 PUSH1 0x1 SWAP1 POP JUMPDEST PUSH1 0x59 SLOAD DUP2 GT PUSH2 0x263F JUMPI PUSH1 0x9 DUP1 DUP3 PUSH1 0x10 DUP2 LT PUSH2 0x2554 JUMPI PUSH2 0x2553 PUSH2 0x4435 JUMP JUMPDEST JUMPDEST PUSH1 0x2 MUL ADD PUSH1 0x0 PUSH1 0x2 DUP2 LT PUSH2 0x256B JUMPI PUSH2 0x256A PUSH2 0x4435 JUMP JUMPDEST JUMPDEST ADD SLOAD GT ISZERO PUSH2 0x2583 JUMPI PUSH1 0xA DUP4 PUSH2 0x2580 SWAP2 SWAP1 PUSH2 0x42DD JUMP JUMPDEST SWAP3 POP JUMPDEST PUSH1 0xA PUSH1 0x9 DUP3 PUSH1 0x10 DUP2 LT PUSH2 0x2599 JUMPI PUSH2 0x2598 PUSH2 0x4435 JUMP JUMPDEST JUMPDEST PUSH1 0x2 MUL ADD PUSH1 0x0 PUSH1 0x2 DUP2 LT PUSH2 0x25B0 JUMPI PUSH2 0x25AF PUSH2 0x4435 JUMP JUMPDEST JUMPDEST ADD SLOAD LT ISZERO PUSH2 0x25F3 JUMPI PUSH1 0x9 DUP2 PUSH1 0x10 DUP2 LT PUSH2 0x25CC JUMPI PUSH2 0x25CB PUSH2 0x4435 JUMP JUMPDEST JUMPDEST PUSH1 0x2 MUL ADD PUSH1 0x0 PUSH1 0x2 DUP2 LT PUSH2 0x25E3 JUMPI PUSH2 0x25E2 PUSH2 0x4435 JUMP JUMPDEST JUMPDEST ADD SLOAD DUP4 PUSH2 0x25F0 SWAP2 SWAP1 PUSH2 0x42DD JUMP JUMPDEST SWAP3 POP JUMPDEST PUSH1 0x1 PUSH1 0x9 DUP3 PUSH1 0x10 DUP2 LT PUSH2 0x2609 JUMPI PUSH2 0x2608 PUSH2 0x4435 JUMP JUMPDEST JUMPDEST PUSH1 0x2 MUL ADD PUSH1 0x0 PUSH1 0x2 DUP2 LT PUSH2 0x2620 JUMPI PUSH2 0x261F PUSH2 0x4435 JUMP JUMPDEST JUMPDEST ADD SLOAD SUB PUSH2 0x262C JUMPI PUSH1 0x1 SWAP2 POP JUMPDEST DUP1 DUP1 PUSH2 0x2637 SWAP1 PUSH2 0x4464 JUMP JUMPDEST SWAP2 POP POP PUSH2 0x2536 JUMP JUMPDEST POP DUP2 PUSH1 0x49 PUSH1 0x1 PUSH1 0x2 DUP2 LT PUSH2 0x2656 JUMPI PUSH2 0x2655 PUSH2 0x4435 JUMP JUMPDEST JUMPDEST PUSH1 0x2 MUL ADD PUSH1 0x0 PUSH1 0x2 DUP2 LT PUSH2 0x266D JUMPI PUSH2 0x266C PUSH2 0x4435 JUMP JUMPDEST JUMPDEST ADD DUP2 SWAP1 SSTORE POP DUP2 PUSH1 0x49 PUSH1 0x1 PUSH1 0x2 DUP2 LT PUSH2 0x2688 JUMPI PUSH2 0x2687 PUSH2 0x4435 JUMP JUMPDEST JUMPDEST PUSH1 0x2 MUL ADD PUSH1 0x1 PUSH1 0x2 DUP2 LT PUSH2 0x269F JUMPI PUSH2 0x269E PUSH2 0x4435 JUMP JUMPDEST JUMPDEST ADD DUP2 SWAP1 SSTORE POP PUSH1 0x1 DUP2 SUB PUSH2 0x2718 JUMPI PUSH1 0xA PUSH1 0x49 PUSH1 0x1 PUSH1 0x2 DUP2 LT PUSH2 0x26C3 JUMPI PUSH2 0x26C2 PUSH2 0x4435 JUMP JUMPDEST JUMPDEST PUSH1 0x2 MUL ADD PUSH1 0x1 PUSH1 0x2 DUP2 LT PUSH2 0x26DA JUMPI PUSH2 0x26D9 PUSH2 0x4435 JUMP JUMPDEST JUMPDEST ADD SLOAD PUSH2 0x26E6 SWAP2 SWAP1 PUSH2 0x42DD JUMP JUMPDEST PUSH1 0x49 PUSH1 0x1 PUSH1 0x2 DUP2 LT PUSH2 0x26FB JUMPI PUSH2 0x26FA PUSH2 0x4435 JUMP JUMPDEST JUMPDEST PUSH1 0x2 MUL ADD PUSH1 0x1 PUSH1 0x2 DUP2 LT PUSH2 0x2712 JUMPI PUSH2 0x2711 PUSH2 0x4435 JUMP JUMPDEST JUMPDEST ADD DUP2 SWAP1 SSTORE POP JUMPDEST POP POP JUMP JUMPDEST PUSH1 0x0 DUP1 PUSH2 0x279D PUSH1 0x29 PUSH1 0x10 DUP1 PUSH1 0x20 MUL PUSH1 0x40 MLOAD SWAP1 DUP2 ADD PUSH1 0x40 MSTORE DUP1 SWAP3 SWAP2 SWAP1 PUSH1 0x0 SWAP1 JUMPDEST DUP3 DUP3 LT ISZERO PUSH2 0x2794 JUMPI DUP4 DUP3 PUSH1 0x2 MUL ADD PUSH1 0x2 DUP1 PUSH1 0x20 MUL PUSH1 0x40 MLOAD SWAP1 DUP2 ADD PUSH1 0x40 MSTORE DUP1 SWAP3 SWAP2 SWAP1 DUP3 PUSH1 0x2 DUP1 ISZERO PUSH2 0x2780 JUMPI PUSH1 0x20 MUL DUP3 ADD SWAP2 JUMPDEST DUP2 SLOAD DUP2 MSTORE PUSH1 0x20 ADD SWAP1 PUSH1 0x1 ADD SWAP1 DUP1 DUP4 GT PUSH2 0x276C JUMPI JUMPDEST POP POP POP POP POP DUP2 MSTORE PUSH1 0x20 ADD SWAP1 PUSH1 0x1 ADD SWAP1 PUSH2 0x273B JUMP JUMPDEST POP POP POP POP PUSH2 0x3734 JUMP JUMPDEST PUSH1 0x5A DUP2 SWAP1 SSTORE POP PUSH1 0x0 PUSH1 0x1 SWAP1 POP JUMPDEST PUSH1 0x5A SLOAD DUP2 GT PUSH2 0x28B4 JUMPI PUSH1 0x9 PUSH1 0x29 DUP3 PUSH1 0x10 DUP2 LT PUSH2 0x27C9 JUMPI PUSH2 0x27C8 PUSH2 0x4435 JUMP JUMPDEST JUMPDEST PUSH1 0x2 MUL ADD PUSH1 0x0 PUSH1 0x2 DUP2 LT PUSH2 0x27E0 JUMPI PUSH2 0x27DF PUSH2 0x4435 JUMP JUMPDEST JUMPDEST ADD SLOAD GT ISZERO PUSH2 0x27F8 JUMPI PUSH1 0xA DUP4 PUSH2 0x27F5 SWAP2 SWAP1 PUSH2 0x42DD JUMP JUMPDEST SWAP3 POP JUMPDEST PUSH1 0xA PUSH1 0x29 DUP3 PUSH1 0x10 DUP2 LT PUSH2 0x280E JUMPI PUSH2 0x280D PUSH2 0x4435 JUMP JUMPDEST JUMPDEST PUSH1 0x2 MUL ADD PUSH1 0x0 PUSH1 0x2 DUP2 LT PUSH2 0x2825 JUMPI PUSH2 0x2824 PUSH2 0x4435 JUMP JUMPDEST JUMPDEST ADD SLOAD LT ISZERO PUSH2 0x2868 JUMPI PUSH1 0x29 DUP2 PUSH1 0x10 DUP2 LT PUSH2 0x2841 JUMPI PUSH2 0x2840 PUSH2 0x4435 JUMP JUMPDEST JUMPDEST PUSH1 0x2 MUL ADD PUSH1 0x0 PUSH1 0x2 DUP2 LT PUSH2 0x2858 JUMPI PUSH2 0x2857 PUSH2 0x4435 JUMP JUMPDEST JUMPDEST ADD SLOAD DUP4 PUSH2 0x2865 SWAP2 SWAP1 PUSH2 0x42DD JUMP JUMPDEST SWAP3 POP JUMPDEST PUSH1 0x1 PUSH1 0x29 DUP3 PUSH1 0x10 DUP2 LT PUSH2 0x287E JUMPI PUSH2 0x287D PUSH2 0x4435 JUMP JUMPDEST JUMPDEST PUSH1 0x2 MUL ADD PUSH1 0x0 PUSH1 0x2 DUP2 LT PUSH2 0x2895 JUMPI PUSH2 0x2894 PUSH2 0x4435 JUMP JUMPDEST JUMPDEST ADD SLOAD SUB PUSH2 0x28A1 JUMPI PUSH1 0x1 SWAP2 POP JUMPDEST DUP1 DUP1 PUSH2 0x28AC SWAP1 PUSH2 0x4464 JUMP JUMPDEST SWAP2 POP POP PUSH2 0x27AA JUMP JUMPDEST POP DUP2 PUSH1 0x4D PUSH1 0x1 PUSH1 0x2 DUP2 LT PUSH2 0x28CB JUMPI PUSH2 0x28CA PUSH2 0x4435 JUMP JUMPDEST JUMPDEST PUSH1 0x2 MUL ADD PUSH1 0x0 PUSH1 0x2 DUP2 LT PUSH2 0x28E2 JUMPI PUSH2 0x28E1 PUSH2 0x4435 JUMP JUMPDEST JUMPDEST ADD DUP2 SWAP1 SSTORE POP DUP2 PUSH1 0x4D PUSH1 0x1 PUSH1 0x2 DUP2 LT PUSH2 0x28FD JUMPI PUSH2 0x28FC PUSH2 0x4435 JUMP JUMPDEST JUMPDEST PUSH1 0x2 MUL ADD PUSH1 0x1 PUSH1 0x2 DUP2 LT PUSH2 0x2914 JUMPI PUSH2 0x2913 PUSH2 0x4435 JUMP JUMPDEST JUMPDEST ADD DUP2 SWAP1 SSTORE POP PUSH1 0x1 DUP2 SUB PUSH2 0x298D JUMPI PUSH1 0xA PUSH1 0x4D PUSH1 0x1 PUSH1 0x2 DUP2 LT PUSH2 0x2938 JUMPI PUSH2 0x2937 PUSH2 0x4435 JUMP JUMPDEST JUMPDEST PUSH1 0x2 MUL ADD PUSH1 0x1 PUSH1 0x2 DUP2 LT PUSH2 0x294F JUMPI PUSH2 0x294E PUSH2 0x4435 JUMP JUMPDEST JUMPDEST ADD SLOAD PUSH2 0x295B SWAP2 SWAP1 PUSH2 0x42DD JUMP JUMPDEST PUSH1 0x4D PUSH1 0x1 PUSH1 0x2 DUP2 LT PUSH2 0x2970 JUMPI PUSH2 0x296F PUSH2 0x4435 JUMP JUMPDEST JUMPDEST PUSH1 0x2 MUL ADD PUSH1 0x1 PUSH1 0x2 DUP2 LT PUSH2 0x2987 JUMPI PUSH2 0x2986 PUSH2 0x4435 JUMP JUMPDEST JUMPDEST ADD DUP2 SWAP1 SSTORE POP JUMPDEST POP POP JUMP JUMPDEST PUSH1 0x15 PUSH1 0x4D PUSH1 0x1 PUSH1 0x2 DUP2 LT PUSH2 0x29A8 JUMPI PUSH2 0x29A7 PUSH2 0x4435 JUMP JUMPDEST JUMPDEST PUSH1 0x2 MUL ADD PUSH1 0x0 PUSH1 0x2 DUP2 LT PUSH2 0x29BF JUMPI PUSH2 0x29BE PUSH2 0x4435 JUMP JUMPDEST JUMPDEST ADD SLOAD GT ISZERO DUP1 ISZERO PUSH2 0x29FC JUMPI POP PUSH1 0x15 PUSH1 0x4D PUSH1 0x1 PUSH1 0x2 DUP2 LT PUSH2 0x29E1 JUMPI PUSH2 0x29E0 PUSH2 0x4435 JUMP JUMPDEST JUMPDEST PUSH1 0x2 MUL ADD PUSH1 0x1 PUSH1 0x2 DUP2 LT PUSH2 0x29F8 JUMPI PUSH2 0x29F7 PUSH2 0x4435 JUMP JUMPDEST JUMPDEST ADD SLOAD GT JUMPDEST ISZERO PUSH2 0x2A36 JUMPI PUSH1 0x4D PUSH1 0x1 PUSH1 0x2 DUP2 LT PUSH2 0x2A16 JUMPI PUSH2 0x2A15 PUSH2 0x4435 JUMP JUMPDEST JUMPDEST PUSH1 0x2 MUL ADD PUSH1 0x0 PUSH1 0x2 DUP2 LT PUSH2 0x2A2D JUMPI PUSH2 0x2A2C PUSH2 0x4435 JUMP JUMPDEST JUMPDEST ADD SLOAD PUSH1 0x5E DUP2 SWAP1 SSTORE POP JUMPDEST PUSH1 0x15 PUSH1 0x4D PUSH1 0x1 PUSH1 0x2 DUP2 LT PUSH2 0x2A4D JUMPI PUSH2 0x2A4C PUSH2 0x4435 JUMP JUMPDEST JUMPDEST PUSH1 0x2 MUL ADD PUSH1 0x0 PUSH1 0x2 DUP2 LT PUSH2 0x2A64 JUMPI PUSH2 0x2A63 PUSH2 0x4435 JUMP JUMPDEST JUMPDEST ADD SLOAD GT DUP1 ISZERO PUSH2 0x2AA1 JUMPI POP PUSH1 0x15 PUSH1 0x49 PUSH1 0x1 PUSH1 0x2 DUP2 LT PUSH2 0x2A85 JUMPI PUSH2 0x2A84 PUSH2 0x4435 JUMP JUMPDEST JUMPDEST PUSH1 0x2 MUL ADD PUSH1 0x1 PUSH1 0x2 DUP2 LT PUSH2 0x2A9C JUMPI PUSH2 0x2A9B PUSH2 0x4435 JUMP JUMPDEST JUMPDEST ADD SLOAD GT ISZERO JUMPDEST ISZERO PUSH2 0x2ADB JUMPI PUSH1 0x4D PUSH1 0x1 PUSH1 0x2 DUP2 LT PUSH2 0x2ABB JUMPI PUSH2 0x2ABA PUSH2 0x4435 JUMP JUMPDEST JUMPDEST PUSH1 0x2 MUL ADD PUSH1 0x1 PUSH1 0x2 DUP2 LT PUSH2 0x2AD2 JUMPI PUSH2 0x2AD1 PUSH2 0x4435 JUMP JUMPDEST JUMPDEST ADD SLOAD PUSH1 0x5E DUP2 SWAP1 SSTORE POP JUMPDEST PUSH1 0x15 PUSH1 0x4D PUSH1 0x1 PUSH1 0x2 DUP2 LT PUSH2 0x2AF2 JUMPI PUSH2 0x2AF1 PUSH2 0x4435 JUMP JUMPDEST JUMPDEST PUSH1 0x2 MUL ADD PUSH1 0x0 PUSH1 0x2 DUP2 LT PUSH2 0x2B09 JUMPI PUSH2 0x2B08 PUSH2 0x4435 JUMP JUMPDEST JUMPDEST ADD SLOAD GT ISZERO DUP1 ISZERO PUSH2 0x2B47 JUMPI POP PUSH1 0x15 PUSH1 0x4D PUSH1 0x1 PUSH1 0x2 DUP2 LT PUSH2 0x2B2B JUMPI PUSH2 0x2B2A PUSH2 0x4435 JUMP JUMPDEST JUMPDEST PUSH1 0x2 MUL ADD PUSH1 0x1 PUSH1 0x2 DUP2 LT PUSH2 0x2B42 JUMPI PUSH2 0x2B41 PUSH2 0x4435 JUMP JUMPDEST JUMPDEST ADD SLOAD GT ISZERO JUMPDEST ISZERO PUSH2 0x2C7A JUMPI PUSH1 0x4D PUSH1 0x1 PUSH1 0x2 DUP2 LT PUSH2 0x2B61 JUMPI PUSH2 0x2B60 PUSH2 0x4435 JUMP JUMPDEST JUMPDEST PUSH1 0x2 MUL ADD PUSH1 0x1 PUSH1 0x2 DUP2 LT PUSH2 0x2B78 JUMPI PUSH2 0x2B77 PUSH2 0x4435 JUMP JUMPDEST JUMPDEST ADD SLOAD PUSH1 0x4D PUSH1 0x1 PUSH1 0x2 DUP2 LT PUSH2 0x2B8F JUMPI PUSH2 0x2B8E PUSH2 0x4435 JUMP JUMPDEST JUMPDEST PUSH1 0x2 MUL ADD PUSH1 0x0 PUSH1 0x2 DUP2 LT PUSH2 0x2BA6 JUMPI PUSH2 0x2BA5 PUSH2 0x4435 JUMP JUMPDEST JUMPDEST ADD SLOAD GT ISZERO PUSH2 0x2BE3 JUMPI PUSH1 0x4D PUSH1 0x1 PUSH1 0x2 DUP2 LT PUSH2 0x2BC3 JUMPI PUSH2 0x2BC2 PUSH2 0x4435 JUMP JUMPDEST JUMPDEST PUSH1 0x2 MUL ADD PUSH1 0x0 PUSH1 0x2 DUP2 LT PUSH2 0x2BDA JUMPI PUSH2 0x2BD9 PUSH2 0x4435 JUMP JUMPDEST JUMPDEST ADD SLOAD PUSH1 0x5E DUP2 SWAP1 SSTORE POP JUMPDEST PUSH1 0x4D PUSH1 0x1 PUSH1 0x2 DUP2 LT PUSH2 0x2BF8 JUMPI PUSH2 0x2BF7 PUSH2 0x4435 JUMP JUMPDEST JUMPDEST PUSH1 0x2 MUL ADD PUSH1 0x1 PUSH1 0x2 DUP2 LT PUSH2 0x2C0F JUMPI PUSH2 0x2C0E PUSH2 0x4435 JUMP JUMPDEST JUMPDEST ADD SLOAD PUSH1 0x4D PUSH1 0x1 PUSH1 0x2 DUP2 LT PUSH2 0x2C26 JUMPI PUSH2 0x2C25 PUSH2 0x4435 JUMP JUMPDEST JUMPDEST PUSH1 0x2 MUL ADD PUSH1 0x0 PUSH1 0x2 DUP2 LT PUSH2 0x2C3D JUMPI PUSH2 0x2C3C PUSH2 0x4435 JUMP JUMPDEST JUMPDEST ADD SLOAD GT PUSH2 0x2C79 JUMPI PUSH1 0x4D PUSH1 0x1 PUSH1 0x2 DUP2 LT PUSH2 0x2C59 JUMPI PUSH2 0x2C58 PUSH2 0x4435 JUMP JUMPDEST JUMPDEST PUSH1 0x2 MUL ADD PUSH1 0x1 PUSH1 0x2 DUP2 LT PUSH2 0x2C70 JUMPI PUSH2 0x2C6F PUSH2 0x4435 JUMP JUMPDEST JUMPDEST ADD SLOAD PUSH1 0x5E DUP2 SWAP1 SSTORE POP JUMPDEST JUMPDEST PUSH1 0x10 PUSH1 0x4D PUSH1 0x1 PUSH1 0x2 DUP2 LT PUSH2 0x2C91 JUMPI PUSH2 0x2C90 PUSH2 0x4435 JUMP JUMPDEST JUMPDEST PUSH1 0x2 MUL ADD PUSH1 0x0 PUSH1 0x2 DUP2 LT PUSH2 0x2CA8 JUMPI PUSH2 0x2CA7 PUSH2 0x4435 JUMP JUMPDEST JUMPDEST ADD SLOAD GT DUP1 PUSH2 0x2CE3 JUMPI POP PUSH1 0x10 PUSH1 0x4D PUSH1 0x1 PUSH1 0x2 DUP2 LT PUSH2 0x2CC8 JUMPI PUSH2 0x2CC7 PUSH2 0x4435 JUMP JUMPDEST JUMPDEST PUSH1 0x2 MUL ADD PUSH1 0x1 PUSH1 0x2 DUP2 LT PUSH2 0x2CDF JUMPI PUSH2 0x2CDE PUSH2 0x4435 JUMP JUMPDEST JUMPDEST ADD SLOAD GT JUMPDEST ISZERO PUSH2 0x2F13 JUMPI PUSH1 0x15 PUSH1 0x4D PUSH1 0x1 PUSH1 0x2 DUP2 LT PUSH2 0x2CFF JUMPI PUSH2 0x2CFE PUSH2 0x4435 JUMP JUMPDEST JUMPDEST PUSH1 0x2 MUL ADD PUSH1 0x0 PUSH1 0x2 DUP2 LT PUSH2 0x2D16 JUMPI PUSH2 0x2D15 PUSH2 0x4435 JUMP JUMPDEST JUMPDEST ADD SLOAD GT DUP1 ISZERO PUSH2 0x2D52 JUMPI POP PUSH1 0x15 PUSH1 0x4D PUSH1 0x1 PUSH1 0x2 DUP2 LT PUSH2 0x2D37 JUMPI PUSH2 0x2D36 PUSH2 0x4435 JUMP JUMPDEST JUMPDEST PUSH1 0x2 MUL ADD PUSH1 0x1 PUSH1 0x2 DUP2 LT PUSH2 0x2D4E JUMPI PUSH2 0x2D4D PUSH2 0x4435 JUMP JUMPDEST JUMPDEST ADD SLOAD GT JUMPDEST ISZERO PUSH2 0x2EEF JUMPI PUSH1 0x1 PUSH1 0x5C DUP2 SWAP1 SSTORE POP PUSH1 0x0 PUSH1 0x1 DUP2 SWAP1 SSTORE POP PUSH1 0x4D PUSH1 0x1 PUSH1 0x2 DUP2 LT PUSH2 0x2D7C JUMPI PUSH2 0x2D7B PUSH2 0x4435 JUMP JUMPDEST JUMPDEST PUSH1 0x2 MUL ADD PUSH1 0x1 PUSH1 0x2 DUP2 LT PUSH2 0x2D93 JUMPI PUSH2 0x2D92 PUSH2 0x4435 JUMP JUMPDEST JUMPDEST ADD SLOAD PUSH1 0x4D PUSH1 0x1 PUSH1 0x2 DUP2 LT PUSH2 0x2DAA JUMPI PUSH2 0x2DA9 PUSH2 0x4435 JUMP JUMPDEST JUMPDEST PUSH1 0x2 MUL ADD PUSH1 0x0 PUSH1 0x2 DUP2 LT PUSH2 0x2DC1 JUMPI PUSH2 0x2DC0 PUSH2 0x4435 JUMP JUMPDEST JUMPDEST ADD SLOAD GT PUSH2 0x2DFD JUMPI PUSH1 0x4D PUSH1 0x1 PUSH1 0x2 DUP2 LT PUSH2 0x2DDD JUMPI PUSH2 0x2DDC PUSH2 0x4435 JUMP JUMPDEST JUMPDEST PUSH1 0x2 MUL ADD PUSH1 0x0 PUSH1 0x2 DUP2 LT PUSH2 0x2DF4 JUMPI PUSH2 0x2DF3 PUSH2 0x4435 JUMP JUMPDEST JUMPDEST ADD SLOAD PUSH1 0x5E DUP2 SWAP1 SSTORE POP JUMPDEST PUSH1 0x4D PUSH1 0x1 PUSH1 0x2 DUP2 LT PUSH2 0x2E12 JUMPI PUSH2 0x2E11 PUSH2 0x4435 JUMP JUMPDEST JUMPDEST PUSH1 0x2 MUL ADD PUSH1 0x1 PUSH1 0x2 DUP2 LT PUSH2 0x2E29 JUMPI PUSH2 0x2E28 PUSH2 0x4435 JUMP JUMPDEST JUMPDEST ADD SLOAD PUSH1 0x4D PUSH1 0x1 PUSH1 0x2 DUP2 LT PUSH2 0x2E40 JUMPI PUSH2 0x2E3F PUSH2 0x4435 JUMP JUMPDEST JUMPDEST PUSH1 0x2 MUL ADD PUSH1 0x0 PUSH1 0x2 DUP2 LT PUSH2 0x2E57 JUMPI PUSH2 0x2E56 PUSH2 0x4435 JUMP JUMPDEST JUMPDEST ADD SLOAD GT ISZERO PUSH2 0x2E94 JUMPI PUSH1 0x4D PUSH1 0x1 PUSH1 0x2 DUP2 LT PUSH2 0x2E74 JUMPI PUSH2 0x2E73 PUSH2 0x4435 JUMP JUMPDEST JUMPDEST PUSH1 0x2 MUL ADD PUSH1 0x1 PUSH1 0x2 DUP2 LT PUSH2 0x2E8B JUMPI PUSH2 0x2E8A PUSH2 0x4435 JUMP JUMPDEST JUMPDEST ADD SLOAD PUSH1 0x5E DUP2 SWAP1 SSTORE POP JUMPDEST PUSH1 0x0 PUSH1 0x5B SLOAD EQ DUP1 ISZERO PUSH2 0x2EA8 JUMPI POP PUSH1 0x1 PUSH1 0x5F SLOAD EQ JUMPDEST ISZERO PUSH2 0x2EEE JUMPI PUSH1 0x2 PUSH1 0x4 SLOAD PUSH2 0x2EBC SWAP2 SWAP1 PUSH2 0x4838 JUMP JUMPDEST PUSH1 0x3 SLOAD PUSH2 0x2EC9 SWAP2 SWAP1 PUSH2 0x42DD JUMP JUMPDEST PUSH1 0x3 DUP2 SWAP1 SSTORE POP PUSH1 0x4 SLOAD PUSH1 0x2 SLOAD PUSH2 0x2EDF SWAP2 SWAP1 PUSH2 0x40F3 JUMP JUMPDEST PUSH1 0x2 DUP2 SWAP1 SSTORE POP PUSH1 0x0 PUSH1 0x4 DUP2 SWAP1 SSTORE POP JUMPDEST JUMPDEST PUSH1 0x1 PUSH1 0x5C SLOAD EQ PUSH2 0x2F12 JUMPI PUSH1 0x0 PUSH1 0x1 DUP2 SWAP1 SSTORE POP PUSH1 0x1 PUSH1 0x60 DUP2 SWAP1 SSTORE POP PUSH2 0x2F11 PUSH2 0x3ADB JUMP JUMPDEST JUMPDEST JUMPDEST JUMP JUMPDEST PUSH1 0x15 PUSH1 0x49 PUSH1 0x1 PUSH1 0x2 DUP2 LT PUSH2 0x2F2C JUMPI PUSH2 0x2F2B PUSH2 0x4435 JUMP JUMPDEST JUMPDEST PUSH1 0x2 MUL ADD PUSH1 0x0 PUSH1 0x2 DUP2 LT PUSH2 0x2F43 JUMPI PUSH2 0x2F42 PUSH2 0x4435 JUMP JUMPDEST JUMPDEST ADD SLOAD GT DUP1 ISZERO PUSH2 0x2F7F JUMPI POP PUSH1 0x15 PUSH1 0x49 PUSH1 0x1 PUSH1 0x2 DUP2 LT PUSH2 0x2F64 JUMPI PUSH2 0x2F63 PUSH2 0x4435 JUMP JUMPDEST JUMPDEST PUSH1 0x2 MUL ADD PUSH1 0x1 PUSH1 0x2 DUP2 LT PUSH2 0x2F7B JUMPI PUSH2 0x2F7A PUSH2 0x4435 JUMP JUMPDEST JUMPDEST ADD SLOAD GT JUMPDEST ISZERO PUSH2 0x30E0 JUMPI PUSH1 0x1 PUSH1 0x5B DUP2 SWAP1 SSTORE POP PUSH1 0x0 PUSH1 0x1 DUP2 SWAP1 SSTORE POP PUSH1 0x49 PUSH1 0x1 PUSH1 0x2 DUP2 LT PUSH2 0x2FA9 JUMPI PUSH2 0x2FA8 PUSH2 0x4435 JUMP JUMPDEST JUMPDEST PUSH1 0x2 MUL ADD PUSH1 0x1 PUSH1 0x2 DUP2 LT PUSH2 0x2FC0 JUMPI PUSH2 0x2FBF PUSH2 0x4435 JUMP JUMPDEST JUMPDEST ADD SLOAD PUSH1 0x49 PUSH1 0x1 PUSH1 0x2 DUP2 LT PUSH2 0x2FD7 JUMPI PUSH2 0x2FD6 PUSH2 0x4435 JUMP JUMPDEST JUMPDEST PUSH1 0x2 MUL ADD PUSH1 0x0 PUSH1 0x2 DUP2 LT PUSH2 0x2FEE JUMPI PUSH2 0x2FED PUSH2 0x4435 JUMP JUMPDEST JUMPDEST ADD SLOAD GT PUSH2 0x302A JUMPI PUSH1 0x49 PUSH1 0x1 PUSH1 0x2 DUP2 LT PUSH2 0x300A JUMPI PUSH2 0x3009 PUSH2 0x4435 JUMP JUMPDEST JUMPDEST PUSH1 0x2 MUL ADD PUSH1 0x0 PUSH1 0x2 DUP2 LT PUSH2 0x3021 JUMPI PUSH2 0x3020 PUSH2 0x4435 JUMP JUMPDEST JUMPDEST ADD SLOAD PUSH1 0x5D DUP2 SWAP1 SSTORE POP JUMPDEST PUSH1 0x49 PUSH1 0x1 PUSH1 0x2 DUP2 LT PUSH2 0x303F JUMPI PUSH2 0x303E PUSH2 0x4435 JUMP JUMPDEST JUMPDEST PUSH1 0x2 MUL ADD PUSH1 0x1 PUSH1 0x2 DUP2 LT PUSH2 0x3056 JUMPI PUSH2 0x3055 PUSH2 0x4435 JUMP JUMPDEST JUMPDEST ADD SLOAD PUSH1 0x49 PUSH1 0x1 PUSH1 0x2 DUP2 LT PUSH2 0x306D JUMPI PUSH2 0x306C PUSH2 0x4435 JUMP JUMPDEST JUMPDEST PUSH1 0x2 MUL ADD PUSH1 0x0 PUSH1 0x2 DUP2 LT PUSH2 0x3084 JUMPI PUSH2 0x3083 PUSH2 0x4435 JUMP JUMPDEST JUMPDEST ADD SLOAD GT ISZERO PUSH2 0x30C1 JUMPI PUSH1 0x49 PUSH1 0x1 PUSH1 0x2 DUP2 LT PUSH2 0x30A1 JUMPI PUSH2 0x30A0 PUSH2 0x4435 JUMP JUMPDEST JUMPDEST PUSH1 0x2 MUL ADD PUSH1 0x1 PUSH1 0x2 DUP2 LT PUSH2 0x30B8 JUMPI PUSH2 0x30B7 PUSH2 0x4435 JUMP JUMPDEST JUMPDEST ADD SLOAD PUSH1 0x5D DUP2 SWAP1 SSTORE POP JUMPDEST PUSH1 0x4 SLOAD PUSH1 0x2 SLOAD PUSH2 0x30D1 SWAP2 SWAP1 PUSH2 0x42DD JUMP JUMPDEST PUSH1 0x2 DUP2 SWAP1 SSTORE POP PUSH1 0x0 PUSH1 0x4 DUP2 SWAP1 SSTORE POP JUMPDEST PUSH1 0x15 PUSH1 0x49 PUSH1 0x1 PUSH1 0x2 DUP2 LT PUSH2 0x30F7 JUMPI PUSH2 0x30F6 PUSH2 0x4435 JUMP JUMPDEST JUMPDEST PUSH1 0x2 MUL ADD PUSH1 0x0 PUSH1 0x2 DUP2 LT PUSH2 0x310E JUMPI PUSH2 0x310D PUSH2 0x4435 JUMP JUMPDEST JUMPDEST ADD SLOAD GT ISZERO DUP1 ISZERO PUSH2 0x314B JUMPI POP PUSH1 0x15 PUSH1 0x49 PUSH1 0x1 PUSH1 0x2 DUP2 LT PUSH2 0x3130 JUMPI PUSH2 0x312F PUSH2 0x4435 JUMP JUMPDEST JUMPDEST PUSH1 0x2 MUL ADD PUSH1 0x1 PUSH1 0x2 DUP2 LT PUSH2 0x3147 JUMPI PUSH2 0x3146 PUSH2 0x4435 JUMP JUMPDEST JUMPDEST ADD SLOAD GT JUMPDEST ISZERO PUSH2 0x3185 JUMPI PUSH1 0x49 PUSH1 0x1 PUSH1 0x2 DUP2 LT PUSH2 0x3165 JUMPI PUSH2 0x3164 PUSH2 0x4435 JUMP JUMPDEST JUMPDEST PUSH1 0x2 MUL ADD PUSH1 0x0 PUSH1 0x2 DUP2 LT PUSH2 0x317C JUMPI PUSH2 0x317B PUSH2 0x4435 JUMP JUMPDEST JUMPDEST ADD SLOAD PUSH1 0x5D DUP2 SWAP1 SSTORE POP JUMPDEST PUSH1 0x15 PUSH1 0x49 PUSH1 0x1 PUSH1 0x2 DUP2 LT PUSH2 0x319C JUMPI PUSH2 0x319B PUSH2 0x4435 JUMP JUMPDEST JUMPDEST PUSH1 0x2 MUL ADD PUSH1 0x0 PUSH1 0x2 DUP2 LT PUSH2 0x31B3 JUMPI PUSH2 0x31B2 PUSH2 0x4435 JUMP JUMPDEST JUMPDEST ADD SLOAD GT DUP1 ISZERO PUSH2 0x31F0 JUMPI POP PUSH1 0x15 PUSH1 0x49 PUSH1 0x1 PUSH1 0x2 DUP2 LT PUSH2 0x31D4 JUMPI PUSH2 0x31D3 PUSH2 0x4435 JUMP JUMPDEST JUMPDEST PUSH1 0x2 MUL ADD PUSH1 0x1 PUSH1 0x2 DUP2 LT PUSH2 0x31EB JUMPI PUSH2 0x31EA PUSH2 0x4435 JUMP JUMPDEST JUMPDEST ADD SLOAD GT ISZERO JUMPDEST ISZERO PUSH2 0x322A JUMPI PUSH1 0x49 PUSH1 0x1 PUSH1 0x2 DUP2 LT PUSH2 0x320A JUMPI PUSH2 0x3209 PUSH2 0x4435 JUMP JUMPDEST JUMPDEST PUSH1 0x2 MUL ADD PUSH1 0x1 PUSH1 0x2 DUP2 LT PUSH2 0x3221 JUMPI PUSH2 0x3220 PUSH2 0x4435 JUMP JUMPDEST JUMPDEST ADD SLOAD PUSH1 0x5D DUP2 SWAP1 SSTORE POP JUMPDEST PUSH1 0x15 PUSH1 0x49 PUSH1 0x1 PUSH1 0x2 DUP2 LT PUSH2 0x3241 JUMPI PUSH2 0x3240 PUSH2 0x4435 JUMP JUMPDEST JUMPDEST PUSH1 0x2 MUL ADD PUSH1 0x0 PUSH1 0x2 DUP2 LT PUSH2 0x3258 JUMPI PUSH2 0x3257 PUSH2 0x4435 JUMP JUMPDEST JUMPDEST ADD SLOAD GT ISZERO DUP1 ISZERO PUSH2 0x3296 JUMPI POP PUSH1 0x15 PUSH1 0x49 PUSH1 0x1 PUSH1 0x2 DUP2 LT PUSH2 0x327A JUMPI PUSH2 0x3279 PUSH2 0x4435 JUMP JUMPDEST JUMPDEST PUSH1 0x2 MUL ADD PUSH1 0x1 PUSH1 0x2 DUP2 LT PUSH2 0x3291 JUMPI PUSH2 0x3290 PUSH2 0x4435 JUMP JUMPDEST JUMPDEST ADD SLOAD GT ISZERO JUMPDEST ISZERO PUSH2 0x33C9 JUMPI PUSH1 0x49 PUSH1 0x1 PUSH1 0x2 DUP2 LT PUSH2 0x32B0 JUMPI PUSH2 0x32AF PUSH2 0x4435 JUMP JUMPDEST JUMPDEST PUSH1 0x2 MUL ADD PUSH1 0x1 PUSH1 0x2 DUP2 LT PUSH2 0x32C7 JUMPI PUSH2 0x32C6 PUSH2 0x4435 JUMP JUMPDEST JUMPDEST ADD SLOAD PUSH1 0x49 PUSH1 0x1 PUSH1 0x2 DUP2 LT PUSH2 0x32DE JUMPI PUSH2 0x32DD PUSH2 0x4435 JUMP JUMPDEST JUMPDEST PUSH1 0x2 MUL ADD PUSH1 0x0 PUSH1 0x2 DUP2 LT PUSH2 0x32F5 JUMPI PUSH2 0x32F4 PUSH2 0x4435 JUMP JUMPDEST JUMPDEST ADD SLOAD GT ISZERO PUSH2 0x3332 JUMPI PUSH1 0x49 PUSH1 0x1 PUSH1 0x2 DUP2 LT PUSH2 0x3312 JUMPI PUSH2 0x3311 PUSH2 0x4435 JUMP JUMPDEST JUMPDEST PUSH1 0x2 MUL ADD PUSH1 0x0 PUSH1 0x2 DUP2 LT PUSH2 0x3329 JUMPI PUSH2 0x3328 PUSH2 0x4435 JUMP JUMPDEST JUMPDEST ADD SLOAD PUSH1 0x5D DUP2 SWAP1 SSTORE POP JUMPDEST PUSH1 0x49 PUSH1 0x1 PUSH1 0x2 DUP2 LT PUSH2 0x3347 JUMPI PUSH2 0x3346 PUSH2 0x4435 JUMP JUMPDEST JUMPDEST PUSH1 0x2 MUL ADD PUSH1 0x1 PUSH1 0x2 DUP2 LT PUSH2 0x335E JUMPI PUSH2 0x335D PUSH2 0x4435 JUMP JUMPDEST JUMPDEST ADD SLOAD PUSH1 0x49 PUSH1 0x1 PUSH1 0x2 DUP2 LT PUSH2 0x3375 JUMPI PUSH2 0x3374 PUSH2 0x4435 JUMP JUMPDEST JUMPDEST PUSH1 0x2 MUL ADD PUSH1 0x0 PUSH1 0x2 DUP2 LT PUSH2 0x338C JUMPI PUSH2 0x338B PUSH2 0x4435 JUMP JUMPDEST JUMPDEST ADD SLOAD GT PUSH2 0x33C8 JUMPI PUSH1 0x49 PUSH1 0x1 PUSH1 0x2 DUP2 LT PUSH2 0x33A8 JUMPI PUSH2 0x33A7 PUSH2 0x4435 JUMP JUMPDEST JUMPDEST PUSH1 0x2 MUL ADD PUSH1 0x1 PUSH1 0x2 DUP2 LT PUSH2 0x33BF JUMPI PUSH2 0x33BE PUSH2 0x4435 JUMP JUMPDEST JUMPDEST ADD SLOAD PUSH1 0x5D DUP2 SWAP1 SSTORE POP JUMPDEST JUMPDEST JUMP JUMPDEST PUSH1 0x0 PUSH1 0x1 DUP2 SWAP1 SSTORE POP PUSH1 0x1 PUSH1 0x29 PUSH1 0x1 PUSH1 0x10 DUP2 LT PUSH2 0x33EA JUMPI PUSH2 0x33E9 PUSH2 0x4435 JUMP JUMPDEST JUMPDEST PUSH1 0x2 MUL ADD PUSH1 0x0 PUSH1 0x2 DUP2 LT PUSH2 0x3401 JUMPI PUSH2 0x3400 PUSH2 0x4435 JUMP JUMPDEST JUMPDEST ADD SLOAD EQ DUP1 PUSH2 0x343C JUMPI POP PUSH1 0xA PUSH1 0x4D PUSH1 0x1 PUSH1 0x2 DUP2 LT PUSH2 0x3421 JUMPI PUSH2 0x3420 PUSH2 0x4435 JUMP JUMPDEST JUMPDEST PUSH1 0x2 MUL ADD PUSH1 0x0 PUSH1 0x2 DUP2 LT PUSH2 0x3438 JUMPI PUSH2 0x3437 PUSH2 0x4435 JUMP JUMPDEST JUMPDEST ADD SLOAD EQ JUMPDEST ISZERO PUSH2 0x3732 JUMPI PUSH2 0x344B PUSH1 0x1 PUSH2 0x1CB2 JUMP JUMPDEST PUSH1 0x0 PUSH1 0x1 SWAP1 POP JUMPDEST PUSH1 0x1 DUP2 GT PUSH2 0x3606 JUMPI JUMPDEST PUSH1 0x51 PUSH1 0x1 PUSH1 0x4 DUP2 LT PUSH2 0x3470 JUMPI PUSH2 0x346F PUSH2 0x4435 JUMP JUMPDEST JUMPDEST PUSH1 0x2 MUL ADD PUSH1 0x0 PUSH1 0x2 DUP2 LT PUSH2 0x3487 JUMPI PUSH2 0x3486 PUSH2 0x4435 JUMP JUMPDEST JUMPDEST ADD SLOAD PUSH1 0x9 DUP3 PUSH1 0x10 DUP2 LT PUSH2 0x349D JUMPI PUSH2 0x349C PUSH2 0x4435 JUMP JUMPDEST JUMPDEST PUSH1 0x2 MUL ADD PUSH1 0x0 PUSH1 0x2 DUP2 LT PUSH2 0x34B4 JUMPI PUSH2 0x34B3 PUSH2 0x4435 JUMP JUMPDEST JUMPDEST ADD SLOAD EQ DUP1 PUSH2 0x351A JUMPI POP PUSH1 0x51 PUSH1 0x1 PUSH1 0x4 DUP2 LT PUSH2 0x34D2 JUMPI PUSH2 0x34D1 PUSH2 0x4435 JUMP JUMPDEST JUMPDEST PUSH1 0x2 MUL ADD PUSH1 0x0 PUSH1 0x2 DUP2 LT PUSH2 0x34E9 JUMPI PUSH2 0x34E8 PUSH2 0x4435 JUMP JUMPDEST JUMPDEST ADD SLOAD PUSH1 0x29 DUP3 PUSH1 0x10 DUP2 LT PUSH2 0x34FF JUMPI PUSH2 0x34FE PUSH2 0x4435 JUMP JUMPDEST JUMPDEST PUSH1 0x2 MUL ADD PUSH1 0x0 PUSH1 0x2 DUP2 LT PUSH2 0x3516 JUMPI PUSH2 0x3515 PUSH2 0x4435 JUMP JUMPDEST JUMPDEST ADD SLOAD EQ JUMPDEST ISZERO PUSH2 0x35F3 JUMPI PUSH1 0x51 PUSH1 0x1 PUSH1 0x4 DUP2 LT PUSH2 0x3534 JUMPI PUSH2 0x3533 PUSH2 0x4435 JUMP JUMPDEST JUMPDEST PUSH1 0x2 MUL ADD PUSH1 0x1 PUSH1 0x2 DUP2 LT PUSH2 0x354B JUMPI PUSH2 0x354A PUSH2 0x4435 JUMP JUMPDEST JUMPDEST ADD SLOAD PUSH1 0x9 DUP3 PUSH1 0x10 DUP2 LT PUSH2 0x3561 JUMPI PUSH2 0x3560 PUSH2 0x4435 JUMP JUMPDEST JUMPDEST PUSH1 0x2 MUL ADD PUSH1 0x1 PUSH1 0x2 DUP2 LT PUSH2 0x3578 JUMPI PUSH2 0x3577 PUSH2 0x4435 JUMP JUMPDEST JUMPDEST ADD SLOAD EQ DUP1 PUSH2 0x35DE JUMPI POP PUSH1 0x51 PUSH1 0x1 PUSH1 0x4 DUP2 LT PUSH2 0x3596 JUMPI PUSH2 0x3595 PUSH2 0x4435 JUMP JUMPDEST JUMPDEST PUSH1 0x2 MUL ADD PUSH1 0x1 PUSH1 0x2 DUP2 LT PUSH2 0x35AD JUMPI PUSH2 0x35AC PUSH2 0x4435 JUMP JUMPDEST JUMPDEST ADD SLOAD PUSH1 0x29 DUP3 PUSH1 0x10 DUP2 LT PUSH2 0x35C3 JUMPI PUSH2 0x35C2 PUSH2 0x4435 JUMP JUMPDEST JUMPDEST PUSH1 0x2 MUL ADD PUSH1 0x1 PUSH1 0x2 DUP2 LT PUSH2 0x35DA JUMPI PUSH2 0x35D9 PUSH2 0x4435 JUMP JUMPDEST JUMPDEST ADD SLOAD EQ JUMPDEST ISZERO PUSH2 0x35EE JUMPI PUSH2 0x35ED PUSH1 0x1 PUSH2 0x1CB2 JUMP JUMPDEST JUMPDEST PUSH2 0x345B JUMP JUMPDEST DUP1 DUP1 PUSH2 0x35FE SWAP1 PUSH2 0x4464 JUMP JUMPDEST SWAP2 POP POP PUSH2 0x3452 JUMP JUMPDEST POP PUSH2 0x366D PUSH1 0x51 PUSH1 0x1 PUSH1 0x4 DUP2 LT PUSH2 0x361F JUMPI PUSH2 0x361E PUSH2 0x4435 JUMP JUMPDEST JUMPDEST PUSH1 0x2 MUL ADD PUSH1 0x0 PUSH1 0x2 DUP2 LT PUSH2 0x3636 JUMPI PUSH2 0x3635 PUSH2 0x4435 JUMP JUMPDEST JUMPDEST ADD SLOAD PUSH1 0x51 PUSH1 0x1 PUSH1 0x4 DUP2 LT PUSH2 0x364D JUMPI PUSH2 0x364C PUSH2 0x4435 JUMP JUMPDEST JUMPDEST PUSH1 0x2 MUL ADD PUSH1 0x1 PUSH1 0x2 DUP2 LT PUSH2 0x3664 JUMPI PUSH2 0x3663 PUSH2 0x4435 JUMP JUMPDEST JUMPDEST ADD SLOAD PUSH1 0x2 PUSH2 0x23BD JUMP JUMPDEST PUSH2 0x3675 PUSH2 0x271C JUMP JUMPDEST PUSH2 0x367D PUSH2 0x2991 JUMP JUMPDEST PUSH1 0x15 PUSH1 0x4D PUSH1 0x1 PUSH1 0x2 DUP2 LT PUSH2 0x3694 JUMPI PUSH2 0x3693 PUSH2 0x4435 JUMP JUMPDEST JUMPDEST PUSH1 0x2 MUL ADD PUSH1 0x1 PUSH1 0x2 DUP2 LT PUSH2 0x36AB JUMPI PUSH2 0x36AA PUSH2 0x4435 JUMP JUMPDEST JUMPDEST ADD SLOAD SUB PUSH2 0x36BF JUMPI PUSH2 0x36BA PUSH2 0x3B69 JUMP JUMPDEST PUSH2 0x3731 JUMP JUMPDEST PUSH1 0x2 PUSH1 0x3 PUSH1 0x4 SLOAD PUSH2 0x36D0 SWAP2 SWAP1 PUSH2 0x4838 JUMP JUMPDEST PUSH2 0x36DA SWAP2 SWAP1 PUSH2 0x48A9 JUMP JUMPDEST PUSH1 0x4 SLOAD PUSH1 0x3 SLOAD PUSH2 0x36EA SWAP2 SWAP1 PUSH2 0x42DD JUMP JUMPDEST PUSH2 0x36F4 SWAP2 SWAP1 PUSH2 0x42DD JUMP JUMPDEST PUSH1 0x3 DUP2 SWAP1 SSTORE POP PUSH1 0x2 PUSH1 0x3 PUSH1 0x4 SLOAD PUSH2 0x370B SWAP2 SWAP1 PUSH2 0x4838 JUMP JUMPDEST PUSH2 0x3715 SWAP2 SWAP1 PUSH2 0x48A9 JUMP JUMPDEST PUSH1 0x2 SLOAD PUSH2 0x3722 SWAP2 SWAP1 PUSH2 0x40F3 JUMP JUMPDEST PUSH1 0x2 DUP2 SWAP1 SSTORE POP PUSH1 0x0 PUSH1 0x4 DUP2 SWAP1 SSTORE POP JUMPDEST JUMPDEST JUMP JUMPDEST PUSH1 0x0 DUP1 PUSH1 0x0 SWAP1 POP PUSH1 0x0 JUMPDEST PUSH1 0x10 DUP3 LT ISZERO PUSH2 0x37A2 JUMPI PUSH1 0x0 DUP5 DUP4 PUSH1 0x10 DUP2 LT PUSH2 0x375C JUMPI PUSH2 0x375B PUSH2 0x4435 JUMP JUMPDEST JUMPDEST PUSH1 0x20 MUL ADD MLOAD PUSH1 0x0 PUSH1 0x2 DUP2 LT PUSH2 0x3774 JUMPI PUSH2 0x3773 PUSH2 0x4435 JUMP JUMPDEST JUMPDEST PUSH1 0x20 MUL ADD MLOAD EQ PUSH2 0x378E JUMPI PUSH1 0x1 DUP2 PUSH2 0x378B SWAP2 SWAP1 PUSH2 0x42DD JUMP JUMPDEST SWAP1 POP JUMPDEST PUSH1 0x1 DUP3 PUSH2 0x379B SWAP2 SWAP1 PUSH2 0x42DD JUMP JUMPDEST SWAP2 POP PUSH2 0x373E JUMP JUMPDEST DUP1 SWAP3 POP POP POP SWAP2 SWAP1 POP JUMP JUMPDEST PUSH1 0x0 PUSH1 0x61 PUSH1 0x0 DUP2 SLOAD DUP1 SWAP3 SWAP2 SWAP1 PUSH2 0x37C1 SWAP1 PUSH2 0x4464 JUMP JUMPDEST SWAP2 SWAP1 POP SSTORE POP PUSH32 0x28F5C28F5C28F5C28F5C28F5C28F5C28F5C28F5C28F5C28F5C28F5C28F5C28F PUSH1 0x3 PUSH1 0x61 SLOAD PUSH2 0x37F6 SWAP2 SWAP1 PUSH2 0x4838 JUMP JUMPDEST NUMBER PUSH2 0x3801 SWAP2 SWAP1 PUSH2 0x42DD JUMP JUMPDEST CALLER PUSH1 0x61 SLOAD PUSH1 0x40 MLOAD PUSH1 0x20 ADD PUSH2 0x3817 SWAP4 SWAP3 SWAP2 SWAP1 PUSH2 0x4975 JUMP JUMPDEST PUSH1 0x40 MLOAD PUSH1 0x20 DUP2 DUP4 SUB SUB DUP2 MSTORE SWAP1 PUSH1 0x40 MSTORE DUP1 MLOAD SWAP1 PUSH1 0x20 ADD KECCAK256 PUSH1 0x0 SHR PUSH2 0x383A SWAP2 SWAP1 PUSH2 0x49B2 JUMP JUMPDEST PUSH1 0x6 DUP2 SWAP1 SSTORE POP PUSH1 0x61 PUSH1 0x0 DUP2 SLOAD DUP1 SWAP3 SWAP2 SWAP1 PUSH2 0x3853 SWAP1 PUSH2 0x4464 JUMP JUMPDEST SWAP2 SWAP1 POP SSTORE POP PUSH1 0x6 SLOAD SWAP1 POP SWAP1 JUMP JUMPDEST PUSH1 0x60 PUSH1 0x0 PUSH1 0x1 PUSH2 0x386F DUP5 PUSH2 0x3B89 JUMP JUMPDEST ADD SWAP1 POP PUSH1 0x0 DUP2 PUSH8 0xFFFFFFFFFFFFFFFF DUP2 GT ISZERO PUSH2 0x388E JUMPI PUSH2 0x388D PUSH2 0x49E3 JUMP JUMPDEST JUMPDEST PUSH1 0x40 MLOAD SWAP1 DUP1 DUP3 MSTORE DUP1 PUSH1 0x1F ADD PUSH1 0x1F NOT AND PUSH1 0x20 ADD DUP3 ADD PUSH1 0x40 MSTORE DUP1 ISZERO PUSH2 0x38C0 JUMPI DUP2 PUSH1 0x20 ADD PUSH1 0x1 DUP3 MUL DUP1 CALLDATASIZE DUP4 CALLDATACOPY DUP1 DUP3 ADD SWAP2 POP POP SWAP1 POP JUMPDEST POP SWAP1 POP PUSH1 0x0 DUP3 PUSH1 0x20 ADD DUP3 ADD SWAP1 POP JUMPDEST PUSH1 0x1 ISZERO PUSH2 0x3923 JUMPI DUP1 DUP1 PUSH1 0x1 SWAP1 SUB SWAP2 POP POP PUSH32 0x3031323334353637383961626364656600000000000000000000000000000000 PUSH1 0xA DUP7 MOD BYTE DUP2 MSTORE8 PUSH1 0xA DUP6 DUP2 PUSH2 0x3917 JUMPI PUSH2 0x3916 PUSH2 0x487A JUMP JUMPDEST JUMPDEST DIV SWAP5 POP PUSH1 0x0 DUP6 SUB PUSH2 0x38CE JUMPI JUMPDEST DUP2 SWAP4 POP POP POP POP SWAP2 SWAP1 POP JUMP JUMPDEST PUSH1 0x60 PUSH1 0x0 PUSH1 0x1 DUP6 DUP6 PUSH2 0x3940 SWAP2 SWAP1 PUSH2 0x40F3 JUMP JUMPDEST PUSH2 0x394A SWAP2 SWAP1 PUSH2 0x42DD JUMP JUMPDEST PUSH8 0xFFFFFFFFFFFFFFFF DUP2 GT ISZERO PUSH2 0x3963 JUMPI PUSH2 0x3962 PUSH2 0x49E3 JUMP JUMPDEST JUMPDEST PUSH1 0x40 MLOAD SWAP1 DUP1 DUP3 MSTORE DUP1 PUSH1 0x1F ADD PUSH1 0x1F NOT AND PUSH1 0x20 ADD DUP3 ADD PUSH1 0x40 MSTORE DUP1 ISZERO PUSH2 0x3995 JUMPI DUP2 PUSH1 0x20 ADD PUSH1 0x1 DUP3 MUL DUP1 CALLDATASIZE DUP4 CALLDATACOPY DUP1 DUP3 ADD SWAP2 POP POP SWAP1 POP JUMPDEST POP SWAP1 POP PUSH1 0x0 JUMPDEST DUP6 DUP6 PUSH2 0x39A7 SWAP2 SWAP1 PUSH2 0x40F3 JUMP JUMPDEST DUP2 GT PUSH2 0x3A37 JUMPI DUP4 PUSH1 0x1 DUP8 DUP4 PUSH2 0x39BC SWAP2 SWAP1 PUSH2 0x42DD JUMP JUMPDEST PUSH2 0x39C6 SWAP2 SWAP1 PUSH2 0x40F3 JUMP JUMPDEST DUP2 MLOAD DUP2 LT PUSH2 0x39D7 JUMPI PUSH2 0x39D6 PUSH2 0x4435 JUMP JUMPDEST JUMPDEST PUSH1 0x20 ADD ADD MLOAD PUSH1 0xF8 SHR PUSH1 0xF8 SHL DUP3 DUP3 DUP2 MLOAD DUP2 LT PUSH2 0x39F5 JUMPI PUSH2 0x39F4 PUSH2 0x4435 JUMP JUMPDEST JUMPDEST PUSH1 0x20 ADD ADD SWAP1 PUSH31 0xFFFFFFFFFFFFFFFFFFFFFFFFFFFFFFFFFFFFFFFFFFFFFFFFFFFFFFFFFFFFFF NOT AND SWAP1 DUP2 PUSH1 0x0 BYTE SWAP1 MSTORE8 POP DUP1 DUP1 PUSH2 0x3A2F SWAP1 PUSH2 0x4464 JUMP JUMPDEST SWAP2 POP POP PUSH2 0x399B JUMP JUMPDEST POP DUP1 SWAP2 POP POP SWAP4 SWAP3 POP POP POP JUMP JUMPDEST PUSH1 0x0 DUP1 DUP3 SWAP1 POP PUSH1 0x0 DUP1 JUMPDEST DUP3 MLOAD DUP2 LT ISZERO PUSH2 0x3AD0 JUMPI PUSH1 0x0 DUP4 DUP3 DUP2 MLOAD DUP2 LT PUSH2 0x3A6B JUMPI PUSH2 0x3A6A PUSH2 0x4435 JUMP JUMPDEST JUMPDEST PUSH1 0x20 ADD ADD MLOAD PUSH1 0xF8 SHR PUSH1 0xF8 SHL PUSH1 0xF8 SHR PUSH1 0xFF AND SWAP1 POP PUSH1 0x30 DUP2 LT ISZERO DUP1 ISZERO PUSH2 0x3A90 JUMPI POP PUSH1 0x39 DUP2 GT ISZERO JUMPDEST ISZERO PUSH2 0x3ABC JUMPI PUSH1 0x30 DUP2 PUSH2 0x3AA2 SWAP2 SWAP1 PUSH2 0x40F3 JUMP JUMPDEST PUSH1 0xA DUP5 PUSH2 0x3AAF SWAP2 SWAP1 PUSH2 0x4838 JUMP JUMPDEST PUSH2 0x3AB9 SWAP2 SWAP1 PUSH2 0x42DD JUMP JUMPDEST SWAP3 POP JUMPDEST POP DUP1 DUP1 PUSH2 0x3AC8 SWAP1 PUSH2 0x4464 JUMP JUMPDEST SWAP2 POP POP PUSH2 0x3A4D JUMP JUMPDEST POP DUP1 SWAP3 POP POP POP SWAP2 SWAP1 POP JUMP JUMPDEST PUSH1 0x5D SLOAD PUSH1 0x5E SLOAD GT ISZERO PUSH2 0x3B06 JUMPI PUSH1 0x4 SLOAD PUSH1 0x2 SLOAD PUSH2 0x3AF7 SWAP2 SWAP1 PUSH2 0x42DD JUMP JUMPDEST PUSH1 0x2 DUP2 SWAP1 SSTORE POP PUSH1 0x0 PUSH1 0x4 DUP2 SWAP1 SSTORE POP JUMPDEST PUSH1 0x5E SLOAD PUSH1 0x5D SLOAD GT ISZERO PUSH2 0x3B53 JUMPI PUSH1 0x2 PUSH1 0x4 SLOAD PUSH2 0x3B21 SWAP2 SWAP1 PUSH2 0x4838 JUMP JUMPDEST PUSH1 0x3 SLOAD PUSH2 0x3B2E SWAP2 SWAP1 PUSH2 0x42DD JUMP JUMPDEST PUSH1 0x3 DUP2 SWAP1 SSTORE POP PUSH1 0x4 SLOAD PUSH1 0x2 SLOAD PUSH2 0x3B44 SWAP2 SWAP1 PUSH2 0x40F3 JUMP JUMPDEST PUSH1 0x2 DUP2 SWAP1 SSTORE POP PUSH1 0x0 PUSH1 0x4 DUP2 SWAP1 SSTORE POP JUMPDEST PUSH1 0x5D SLOAD PUSH1 0x5E SLOAD SUB PUSH2 0x3B67 JUMPI PUSH2 0x3B66 PUSH2 0x3B69 JUMP JUMPDEST JUMPDEST JUMP JUMPDEST PUSH1 0x4 SLOAD PUSH1 0x3 SLOAD PUSH2 0x3B79 SWAP2 SWAP1 PUSH2 0x42DD JUMP JUMPDEST PUSH1 0x3 DUP2 SWAP1 SSTORE POP PUSH1 0x0 PUSH1 0x4 DUP2 SWAP1 SSTORE POP JUMP JUMPDEST PUSH1 0x0 DUP1 PUSH1 0x0 SWAP1 POP PUSH27 0x184F03E93FF9F4DAA797ED6E38ED64BF6A1F010000000000000000 DUP4 LT PUSH2 0x3BE7 JUMPI PUSH27 0x184F03E93FF9F4DAA797ED6E38ED64BF6A1F010000000000000000 DUP4 DUP2 PUSH2 0x3BDD JUMPI PUSH2 0x3BDC PUSH2 0x487A JUMP JUMPDEST JUMPDEST DIV SWAP3 POP PUSH1 0x40 DUP2 ADD SWAP1 POP JUMPDEST PUSH14 0x4EE2D6D415B85ACEF8100000000 DUP4 LT PUSH2 0x3C24 JUMPI PUSH14 0x4EE2D6D415B85ACEF8100000000 DUP4 DUP2 PUSH2 0x3C1A JUMPI PUSH2 0x3C19 PUSH2 0x487A JUMP JUMPDEST JUMPDEST DIV SWAP3 POP PUSH1 0x20 DUP2 ADD SWAP1 POP JUMPDEST PUSH7 0x2386F26FC10000 DUP4 LT PUSH2 0x3C53 JUMPI PUSH7 0x2386F26FC10000 DUP4 DUP2 PUSH2 0x3C49 JUMPI PUSH2 0x3C48 PUSH2 0x487A JUMP JUMPDEST JUMPDEST DIV SWAP3 POP PUSH1 0x10 DUP2 ADD SWAP1 POP JUMPDEST PUSH4 0x5F5E100 DUP4 LT PUSH2 0x3C7C JUMPI PUSH4 0x5F5E100 DUP4 DUP2 PUSH2 0x3C72 JUMPI PUSH2 0x3C71 PUSH2 0x487A JUMP JUMPDEST JUMPDEST DIV SWAP3 POP PUSH1 0x8 DUP2 ADD SWAP1 POP JUMPDEST PUSH2 0x2710 DUP4 LT PUSH2 0x3CA1 JUMPI PUSH2 0x2710 DUP4 DUP2 PUSH2 0x3C97 JUMPI PUSH2 0x3C96 PUSH2 0x487A JUMP JUMPDEST JUMPDEST DIV SWAP3 POP PUSH1 0x4 DUP2 ADD SWAP1 POP JUMPDEST PUSH1 0x64 DUP4 LT PUSH2 0x3CC4 JUMPI PUSH1 0x64 DUP4 DUP2 PUSH2 0x3CBA JUMPI PUSH2 0x3CB9 PUSH2 0x487A JUMP JUMPDEST JUMPDEST DIV SWAP3 POP PUSH1 0x2 DUP2 ADD SWAP1 POP JUMPDEST PUSH1 0xA DUP4 LT PUSH2 0x3CD3 JUMPI PUSH1 0x1 DUP2 ADD SWAP1 POP JUMPDEST DUP1 SWAP2 POP POP SWAP2 SWAP1 POP JUMP JUMPDEST DUP3 PUSH1 0x4 PUSH1 0x2 MUL DUP2 ADD SWAP3 DUP3 ISZERO PUSH2 0x3D1C JUMPI SWAP2 PUSH1 0x20 MUL DUP3 ADD JUMPDEST DUP3 DUP2 GT ISZERO PUSH2 0x3D1B JUMPI DUP3 MLOAD DUP3 SWAP1 PUSH1 0x2 PUSH2 0x3D0B SWAP3 SWAP2 SWAP1 PUSH2 0x3D5A JUMP JUMPDEST POP SWAP2 PUSH1 0x20 ADD SWAP2 SWAP1 PUSH1 0x2 ADD SWAP1 PUSH2 0x3CF2 JUMP JUMPDEST JUMPDEST POP SWAP1 POP PUSH2 0x3D29 SWAP2 SWAP1 PUSH2 0x3D9A JUMP JUMPDEST POP SWAP1 JUMP JUMPDEST PUSH1 0x40 MLOAD DUP1 PUSH1 0x80 ADD PUSH1 0x40 MSTORE DUP1 PUSH1 0x4 SWAP1 JUMPDEST PUSH2 0x3D44 PUSH2 0x3DBE JUMP JUMPDEST DUP2 MSTORE PUSH1 0x20 ADD SWAP1 PUSH1 0x1 SWAP1 SUB SWAP1 DUP2 PUSH2 0x3D3C JUMPI SWAP1 POP POP SWAP1 JUMP JUMPDEST DUP3 PUSH1 0x2 DUP2 ADD SWAP3 DUP3 ISZERO PUSH2 0x3D89 JUMPI SWAP2 PUSH1 0x20 MUL DUP3 ADD JUMPDEST DUP3 DUP2 GT ISZERO PUSH2 0x3D88 JUMPI DUP3 MLOAD DUP3 SSTORE SWAP2 PUSH1 0x20 ADD SWAP2 SWAP1 PUSH1 0x1 ADD SWAP1 PUSH2 0x3D6D JUMP JUMPDEST JUMPDEST POP SWAP1 POP PUSH2 0x3D96 SWAP2 SWAP1 PUSH2 0x3DE0 JUMP JUMPDEST POP SWAP1 JUMP JUMPDEST JUMPDEST DUP1 DUP3 GT ISZERO PUSH2 0x3DBA JUMPI PUSH1 0x0 DUP2 DUP2 PUSH2 0x3DB1 SWAP2 SWAP1 PUSH2 0x3DFD JUMP JUMPDEST POP PUSH1 0x2 ADD PUSH2 0x3D9B JUMP JUMPDEST POP SWAP1 JUMP JUMPDEST PUSH1 0x40 MLOAD DUP1 PUSH1 0x40 ADD PUSH1 0x40 MSTORE DUP1 PUSH1 0x2 SWAP1 PUSH1 0x20 DUP3 MUL DUP1 CALLDATASIZE DUP4 CALLDATACOPY DUP1 DUP3 ADD SWAP2 POP POP SWAP1 POP POP SWAP1 JUMP JUMPDEST JUMPDEST DUP1 DUP3 GT ISZERO PUSH2 0x3DF9 JUMPI PUSH1 0x0 DUP2 PUSH1 0x0 SWAP1 SSTORE POP PUSH1 0x1 ADD PUSH2 0x3DE1 JUMP JUMPDEST POP SWAP1 JUMP JUMPDEST POP PUSH1 0x0 DUP2 SSTORE PUSH1 0x1 ADD PUSH1 0x0 SWAP1 SSTORE JUMP JUMPDEST PUSH1 0x0 DUP1 REVERT JUMPDEST PUSH1 0x0 DUP2 SWAP1 POP SWAP2 SWAP1 POP JUMP JUMPDEST PUSH2 0x3E23 DUP2 PUSH2 0x3E10 JUMP JUMPDEST DUP2 EQ PUSH2 0x3E2E JUMPI PUSH1 0x0 DUP1 REVERT JUMPDEST POP JUMP JUMPDEST PUSH1 0x0 DUP2 CALLDATALOAD SWAP1 POP PUSH2 0x3E40 DUP2 PUSH2 0x3E1A JUMP JUMPDEST SWAP3 SWAP2 POP POP JUMP JUMPDEST PUSH1 0x0 PUSH1 0x20 DUP3 DUP5 SUB SLT ISZERO PUSH2 0x3E5C JUMPI PUSH2 0x3E5B PUSH2 0x3E0B JUMP JUMPDEST JUMPDEST PUSH1 0x0 PUSH2 0x3E6A DUP5 DUP3 DUP6 ADD PUSH2 0x3E31 JUMP JUMPDEST SWAP2 POP POP SWAP3 SWAP2 POP POP JUMP JUMPDEST PUSH2 0x3E7C DUP2 PUSH2 0x3E10 JUMP JUMPDEST DUP3 MSTORE POP POP JUMP JUMPDEST PUSH1 0x0 PUSH1 0x20 DUP3 ADD SWAP1 POP PUSH2 0x3E97 PUSH1 0x0 DUP4 ADD DUP5 PUSH2 0x3E73 JUMP JUMPDEST SWAP3 SWAP2 POP POP JUMP JUMPDEST PUSH1 0x0 DUP1 PUSH1 0x40 DUP4 DUP6 SUB SLT ISZERO PUSH2 0x3EB4 JUMPI PUSH2 0x3EB3 PUSH2 0x3E0B JUMP JUMPDEST JUMPDEST PUSH1 0x0 PUSH2 0x3EC2 DUP6 DUP3 DUP7 ADD PUSH2 0x3E31 JUMP JUMPDEST SWAP3 POP POP PUSH1 0x20 PUSH2 0x3ED3 DUP6 DUP3 DUP7 ADD PUSH2 0x3E31 JUMP JUMPDEST SWAP2 POP POP SWAP3 POP SWAP3 SWAP1 POP JUMP JUMPDEST PUSH1 0x0 DUP3 DUP3 MSTORE PUSH1 0x20 DUP3 ADD SWAP1 POP SWAP3 SWAP2 POP POP JUMP JUMPDEST PUSH32 0x42657420616D6F756E74206973206D6F7265207468616E20706C617965722062 PUSH1 0x0 DUP3 ADD MSTORE PUSH32 0x616C616E63650000000000000000000000000000000000000000000000000000 PUSH1 0x20 DUP3 ADD MSTORE POP JUMP JUMPDEST PUSH1 0x0 PUSH2 0x3F4A PUSH1 0x26 DUP4 PUSH2 0x3EDD JUMP JUMPDEST SWAP2 POP PUSH2 0x3F55 DUP3 PUSH2 0x3EEE JUMP JUMPDEST PUSH1 0x40 DUP3 ADD SWAP1 POP SWAP2 SWAP1 POP JUMP JUMPDEST PUSH1 0x0 PUSH1 0x20 DUP3 ADD SWAP1 POP DUP2 DUP2 SUB PUSH1 0x0 DUP4 ADD MSTORE PUSH2 0x3F79 DUP2 PUSH2 0x3F3D JUMP JUMPDEST SWAP1 POP SWAP2 SWAP1 POP JUMP JUMPDEST PUSH32 0x4F6E6C7920706C617965722063616E20706C6163652062657400000000000000 PUSH1 0x0 DUP3 ADD MSTORE POP JUMP JUMPDEST PUSH1 0x0 PUSH2 0x3FB6 PUSH1 0x19 DUP4 PUSH2 0x3EDD JUMP JUMPDEST SWAP2 POP PUSH2 0x3FC1 DUP3 PUSH2 0x3F80 JUMP JUMPDEST PUSH1 0x20 DUP3 ADD SWAP1 POP SWAP2 SWAP1 POP JUMP JUMPDEST PUSH1 0x0 PUSH1 0x20 DUP3 ADD SWAP1 POP DUP2 DUP2 SUB PUSH1 0x0 DUP4 ADD MSTORE PUSH2 0x3FE5 DUP2 PUSH2 0x3FA9 JUMP JUMPDEST SWAP1 POP SWAP2 SWAP1 POP JUMP JUMPDEST PUSH32 0x4265742068617320616C7265616479206265656E20706C616365640000000000 PUSH1 0x0 DUP3 ADD MSTORE POP JUMP JUMPDEST PUSH1 0x0 PUSH2 0x4022 PUSH1 0x1B DUP4 PUSH2 0x3EDD JUMP JUMPDEST SWAP2 POP PUSH2 0x402D DUP3 PUSH2 0x3FEC JUMP JUMPDEST PUSH1 0x20 DUP3 ADD SWAP1 POP SWAP2 SWAP1 POP JUMP JUMPDEST PUSH1 0x0 PUSH1 0x20 DUP3 ADD SWAP1 POP DUP2 DUP2 SUB PUSH1 0x0 DUP4 ADD MSTORE PUSH2 0x4051 DUP2 PUSH2 0x4015 JUMP JUMPDEST SWAP1 POP SWAP2 SWAP1 POP JUMP JUMPDEST PUSH32 0x5265656E7472616E6379206E6F7420616C6C6F77656400000000000000000000 PUSH1 0x0 DUP3 ADD MSTORE POP JUMP JUMPDEST PUSH1 0x0 PUSH2 0x408E PUSH1 0x16 DUP4 PUSH2 0x3EDD JUMP JUMPDEST SWAP2 POP PUSH2 0x4099 DUP3 PUSH2 0x4058 JUMP JUMPDEST PUSH1 0x20 DUP3 ADD SWAP1 POP SWAP2 SWAP1 POP JUMP JUMPDEST PUSH1 0x0 PUSH1 0x20 DUP3 ADD SWAP1 POP DUP2 DUP2 SUB PUSH1 0x0 DUP4 ADD MSTORE PUSH2 0x40BD DUP2 PUSH2 0x4081 JUMP JUMPDEST SWAP1 POP SWAP2 SWAP1 POP JUMP JUMPDEST PUSH32 0x4E487B7100000000000000000000000000000000000000000000000000000000 PUSH1 0x0 MSTORE PUSH1 0x11 PUSH1 0x4 MSTORE PUSH1 0x24 PUSH1 0x0 REVERT JUMPDEST PUSH1 0x0 PUSH2 0x40FE DUP3 PUSH2 0x3E10 JUMP JUMPDEST SWAP2 POP PUSH2 0x4109 DUP4 PUSH2 0x3E10 JUMP JUMPDEST SWAP3 POP DUP3 DUP3 SUB SWAP1 POP DUP2 DUP2 GT ISZERO PUSH2 0x4121 JUMPI PUSH2 0x4120 PUSH2 0x40C4 JUMP JUMPDEST JUMPDEST SWAP3 SWAP2 POP POP JUMP JUMPDEST PUSH32 0x526567697374726174696F6E2061646472657373206973206E6F742076616C69 PUSH1 0x0 DUP3 ADD MSTORE PUSH32 0x6400000000000000000000000000000000000000000000000000000000000000 PUSH1 0x20 DUP3 ADD MSTORE POP JUMP JUMPDEST PUSH1 0x0 PUSH2 0x4183 PUSH1 0x21 DUP4 PUSH2 0x3EDD JUMP JUMPDEST SWAP2 POP PUSH2 0x418E DUP3 PUSH2 0x4127 JUMP JUMPDEST PUSH1 0x40 DUP3 ADD SWAP1 POP SWAP2 SWAP1 POP JUMP JUMPDEST PUSH1 0x0 PUSH1 0x20 DUP3 ADD SWAP1 POP DUP2 DUP2 SUB PUSH1 0x0 DUP4 ADD MSTORE PUSH2 0x41B2 DUP2 PUSH2 0x4176 JUMP JUMPDEST SWAP1 POP SWAP2 SWAP1 POP JUMP JUMPDEST PUSH32 0x506C61796572206D75737420626520686F757365283029206F7220706C617965 PUSH1 0x0 DUP3 ADD MSTORE PUSH32 0x7228312900000000000000000000000000000000000000000000000000000000 PUSH1 0x20 DUP3 ADD MSTORE POP JUMP JUMPDEST PUSH1 0x0 PUSH2 0x4215 PUSH1 0x24 DUP4 PUSH2 0x3EDD JUMP JUMPDEST SWAP2 POP PUSH2 0x4220 DUP3 PUSH2 0x41B9 JUMP JUMPDEST PUSH1 0x40 DUP3 ADD SWAP1 POP SWAP2 SWAP1 POP JUMP JUMPDEST PUSH1 0x0 PUSH1 0x20 DUP3 ADD SWAP1 POP DUP2 DUP2 SUB PUSH1 0x0 DUP4 ADD MSTORE PUSH2 0x4244 DUP2 PUSH2 0x4208 JUMP JUMPDEST SWAP1 POP SWAP2 SWAP1 POP JUMP JUMPDEST PUSH32 0x53656E6465722061646472657373206D75737420626520686F75736557616C6C PUSH1 0x0 DUP3 ADD MSTORE PUSH32 0x6574000000000000000000000000000000000000000000000000000000000000 PUSH1 0x20 DUP3 ADD MSTORE POP JUMP JUMPDEST PUSH1 0x0 PUSH2 0x42A7 PUSH1 0x22 DUP4 PUSH2 0x3EDD JUMP JUMPDEST SWAP2 POP PUSH2 0x42B2 DUP3 PUSH2 0x424B JUMP JUMPDEST PUSH1 0x40 DUP3 ADD SWAP1 POP SWAP2 SWAP1 POP JUMP JUMPDEST PUSH1 0x0 PUSH1 0x20 DUP3 ADD SWAP1 POP DUP2 DUP2 SUB PUSH1 0x0 DUP4 ADD MSTORE PUSH2 0x42D6 DUP2 PUSH2 0x429A JUMP JUMPDEST SWAP1 POP SWAP2 SWAP1 POP JUMP JUMPDEST PUSH1 0x0 PUSH2 0x42E8 DUP3 PUSH2 0x3E10 JUMP JUMPDEST SWAP2 POP PUSH2 0x42F3 DUP4 PUSH2 0x3E10 JUMP JUMPDEST SWAP3 POP DUP3 DUP3 ADD SWAP1 POP DUP1 DUP3 GT ISZERO PUSH2 0x430B JUMPI PUSH2 0x430A PUSH2 0x40C4 JUMP JUMPDEST JUMPDEST SWAP3 SWAP2 POP POP JUMP JUMPDEST PUSH32 0x53656E6465722061646472657373206D75737420626520706C6179657257616C PUSH1 0x0 DUP3 ADD MSTORE PUSH32 0x6C65740000000000000000000000000000000000000000000000000000000000 PUSH1 0x20 DUP3 ADD MSTORE POP JUMP JUMPDEST PUSH1 0x0 PUSH2 0x436D PUSH1 0x23 DUP4 PUSH2 0x3EDD JUMP JUMPDEST SWAP2 POP PUSH2 0x4378 DUP3 PUSH2 0x4311 JUMP JUMPDEST PUSH1 0x40 DUP3 ADD SWAP1 POP SWAP2 SWAP1 POP JUMP JUMPDEST PUSH1 0x0 PUSH1 0x20 DUP3 ADD SWAP1 POP DUP2 DUP2 SUB PUSH1 0x0 DUP4 ADD MSTORE PUSH2 0x439C DUP2 PUSH2 0x4360 JUMP JUMPDEST SWAP1 POP SWAP2 SWAP1 POP JUMP JUMPDEST PUSH32 0x796F75206D75737420626574206265666F726520746865206361726473206172 PUSH1 0x0 DUP3 ADD MSTORE PUSH32 0x65206465616C7400000000000000000000000000000000000000000000000000 PUSH1 0x20 DUP3 ADD MSTORE POP JUMP JUMPDEST PUSH1 0x0 PUSH2 0x43FF PUSH1 0x27 DUP4 PUSH2 0x3EDD JUMP JUMPDEST SWAP2 POP PUSH2 0x440A DUP3 PUSH2 0x43A3 JUMP JUMPDEST PUSH1 0x40 DUP3 ADD SWAP1 POP SWAP2 SWAP1 POP JUMP JUMPDEST PUSH1 0x0 PUSH1 0x20 DUP3 ADD SWAP1 POP DUP2 DUP2 SUB PUSH1 0x0 DUP4 ADD MSTORE PUSH2 0x442E DUP2 PUSH2 0x43F2 JUMP JUMPDEST SWAP1 POP SWAP2 SWAP1 POP JUMP JUMPDEST PUSH32 0x4E487B7100000000000000000000000000000000000000000000000000000000 PUSH1 0x0 MSTORE PUSH1 0x32 PUSH1 0x4 MSTORE PUSH1 0x24 PUSH1 0x0 REVERT JUMPDEST PUSH1 0x0 PUSH2 0x446F DUP3 PUSH2 0x3E10 JUMP JUMPDEST SWAP2 POP PUSH32 0xFFFFFFFFFFFFFFFFFFFFFFFFFFFFFFFFFFFFFFFFFFFFFFFFFFFFFFFFFFFFFFFF DUP3 SUB PUSH2 0x44A1 JUMPI PUSH2 0x44A0 PUSH2 0x40C4 JUMP JUMPDEST JUMPDEST PUSH1 0x1 DUP3 ADD SWAP1 POP SWAP2 SWAP1 POP JUMP JUMPDEST PUSH32 0x506C6179657220686173206E6F2062616C616E636520746F2077697468647261 PUSH1 0x0 DUP3 ADD MSTORE PUSH32 0x7700000000000000000000000000000000000000000000000000000000000000 PUSH1 0x20 DUP3 ADD MSTORE POP JUMP JUMPDEST PUSH1 0x0 PUSH2 0x4508 PUSH1 0x21 DUP4 PUSH2 0x3EDD JUMP JUMPDEST SWAP2 POP PUSH2 0x4513 DUP3 PUSH2 0x44AC JUMP JUMPDEST PUSH1 0x40 DUP3 ADD SWAP1 POP SWAP2 SWAP1 POP JUMP JUMPDEST PUSH1 0x0 PUSH1 0x20 DUP3 ADD SWAP1 POP DUP2 DUP2 SUB PUSH1 0x0 DUP4 ADD MSTORE PUSH2 0x4537 DUP2 PUSH2 0x44FB JUMP JUMPDEST SWAP1 POP SWAP2 SWAP1 POP JUMP JUMPDEST PUSH32 0x4F6E6C7920706C617965722063616E2075736520746869732066756E6374696F PUSH1 0x0 DUP3 ADD MSTORE PUSH32 0x6E20776974686472617700000000000000000000000000000000000000000000 PUSH1 0x20 DUP3 ADD MSTORE POP JUMP JUMPDEST PUSH1 0x0 PUSH2 0x459A PUSH1 0x2A DUP4 PUSH2 0x3EDD JUMP JUMPDEST SWAP2 POP PUSH2 0x45A5 DUP3 PUSH2 0x453E JUMP JUMPDEST PUSH1 0x40 DUP3 ADD SWAP1 POP SWAP2 SWAP1 POP JUMP JUMPDEST PUSH1 0x0 PUSH1 0x20 DUP3 ADD SWAP1 POP DUP2 DUP2 SUB PUSH1 0x0 DUP4 ADD MSTORE PUSH2 0x45C9 DUP2 PUSH2 0x458D JUMP JUMPDEST SWAP1 POP SWAP2 SWAP1 POP JUMP JUMPDEST PUSH32 0x596F75206172652072657175657374696E67206D6F7265207468616E20746865 PUSH1 0x0 DUP3 ADD MSTORE PUSH32 0x20706C617965722077616C6C657420636F6E7461696E73000000000000000000 PUSH1 0x20 DUP3 ADD MSTORE POP JUMP JUMPDEST PUSH1 0x0 PUSH2 0x462C PUSH1 0x37 DUP4 PUSH2 0x3EDD JUMP JUMPDEST SWAP2 POP PUSH2 0x4637 DUP3 PUSH2 0x45D0 JUMP JUMPDEST PUSH1 0x40 DUP3 ADD SWAP1 POP SWAP2 SWAP1 POP JUMP JUMPDEST PUSH1 0x0 PUSH1 0x20 DUP3 ADD SWAP1 POP DUP2 DUP2 SUB PUSH1 0x0 DUP4 ADD MSTORE PUSH2 0x465B DUP2 PUSH2 0x461F JUMP JUMPDEST SWAP1 POP SWAP2 SWAP1 POP JUMP JUMPDEST PUSH32 0x4465616C6572206D757374207374616E64206F6E20313720616E642068696768 PUSH1 0x0 DUP3 ADD MSTORE PUSH32 0x6572000000000000000000000000000000000000000000000000000000000000 PUSH1 0x20 DUP3 ADD MSTORE POP JUMP JUMPDEST PUSH1 0x0 PUSH2 0x46BE PUSH1 0x22 DUP4 PUSH2 0x3EDD JUMP JUMPDEST SWAP2 POP PUSH2 0x46C9 DUP3 PUSH2 0x4662 JUMP JUMPDEST PUSH1 0x40 DUP3 ADD SWAP1 POP SWAP2 SWAP1 POP JUMP JUMPDEST PUSH1 0x0 PUSH1 0x20 DUP3 ADD SWAP1 POP DUP2 DUP2 SUB PUSH1 0x0 DUP4 ADD MSTORE PUSH2 0x46ED DUP2 PUSH2 0x46B1 JUMP JUMPDEST SWAP1 POP SWAP2 SWAP1 POP JUMP JUMPDEST PUSH32 0x506C617965722068617320616C72656164792073746F6F640000000000000000 PUSH1 0x0 DUP3 ADD MSTORE POP JUMP JUMPDEST PUSH1 0x0 PUSH2 0x472A PUSH1 0x18 DUP4 PUSH2 0x3EDD JUMP JUMPDEST SWAP2 POP PUSH2 0x4735 DUP3 PUSH2 0x46F4 JUMP JUMPDEST PUSH1 0x20 DUP3 ADD SWAP1 POP SWAP2 SWAP1 POP JUMP JUMPDEST PUSH1 0x0 PUSH1 0x20 DUP3 ADD SWAP1 POP DUP2 DUP2 SUB PUSH1 0x0 DUP4 ADD MSTORE PUSH2 0x4759 DUP2 PUSH2 0x471D JUMP JUMPDEST SWAP1 POP SWAP2 SWAP1 POP JUMP JUMPDEST PUSH32 0x596F7527766520616C7265616479206275737465640000000000000000000000 PUSH1 0x0 DUP3 ADD MSTORE POP JUMP JUMPDEST PUSH1 0x0 PUSH2 0x4796 PUSH1 0x15 DUP4 PUSH2 0x3EDD JUMP JUMPDEST SWAP2 POP PUSH2 0x47A1 DUP3 PUSH2 0x4760 JUMP JUMPDEST PUSH1 0x20 DUP3 ADD SWAP1 POP SWAP2 SWAP1 POP JUMP JUMPDEST PUSH1 0x0 PUSH1 0x20 DUP3 ADD SWAP1 POP DUP2 DUP2 SUB PUSH1 0x0 DUP4 ADD MSTORE PUSH2 0x47C5 DUP2 PUSH2 0x4789 JUMP JUMPDEST SWAP1 POP SWAP2 SWAP1 POP JUMP JUMPDEST PUSH32 0x47616D65206D75737420626520696E2070726F67726573730000000000000000 PUSH1 0x0 DUP3 ADD MSTORE POP JUMP JUMPDEST PUSH1 0x0 PUSH2 0x4802 PUSH1 0x18 DUP4 PUSH2 0x3EDD JUMP JUMPDEST SWAP2 POP PUSH2 0x480D DUP3 PUSH2 0x47CC JUMP JUMPDEST PUSH1 0x20 DUP3 ADD SWAP1 POP SWAP2 SWAP1 POP JUMP JUMPDEST PUSH1 0x0 PUSH1 0x20 DUP3 ADD SWAP1 POP DUP2 DUP2 SUB PUSH1 0x0 DUP4 ADD MSTORE PUSH2 0x4831 DUP2 PUSH2 0x47F5 JUMP JUMPDEST SWAP1 POP SWAP2 SWAP1 POP JUMP JUMPDEST PUSH1 0x0 PUSH2 0x4843 DUP3 PUSH2 0x3E10 JUMP JUMPDEST SWAP2 POP PUSH2 0x484E DUP4 PUSH2 0x3E10 JUMP JUMPDEST SWAP3 POP DUP3 DUP3 MUL PUSH2 0x485C DUP2 PUSH2 0x3E10 JUMP JUMPDEST SWAP2 POP DUP3 DUP3 DIV DUP5 EQ DUP4 ISZERO OR PUSH2 0x4873 JUMPI PUSH2 0x4872 PUSH2 0x40C4 JUMP JUMPDEST JUMPDEST POP SWAP3 SWAP2 POP POP JUMP JUMPDEST PUSH32 0x4E487B7100000000000000000000000000000000000000000000000000000000 PUSH1 0x0 MSTORE PUSH1 0x12 PUSH1 0x4 MSTORE PUSH1 0x24 PUSH1 0x0 REVERT JUMPDEST PUSH1 0x0 PUSH2 0x48B4 DUP3 PUSH2 0x3E10 JUMP JUMPDEST SWAP2 POP PUSH2 0x48BF DUP4 PUSH2 0x3E10 JUMP JUMPDEST SWAP3 POP DUP3 PUSH2 0x48CF JUMPI PUSH2 0x48CE PUSH2 0x487A JUMP JUMPDEST JUMPDEST DUP3 DUP3 DIV SWAP1 POP SWAP3 SWAP2 POP POP JUMP JUMPDEST PUSH1 0x0 DUP2 SWAP1 POP SWAP2 SWAP1 POP JUMP JUMPDEST PUSH2 0x48F5 PUSH2 0x48F0 DUP3 PUSH2 0x3E10 JUMP JUMPDEST PUSH2 0x48DA JUMP JUMPDEST DUP3 MSTORE POP POP JUMP JUMPDEST PUSH1 0x0 PUSH20 0xFFFFFFFFFFFFFFFFFFFFFFFFFFFFFFFFFFFFFFFF DUP3 AND SWAP1 POP SWAP2 SWAP1 POP JUMP JUMPDEST PUSH1 0x0 PUSH2 0x4926 DUP3 PUSH2 0x48FB JUMP JUMPDEST SWAP1 POP SWAP2 SWAP1 POP JUMP JUMPDEST PUSH1 0x0 DUP2 PUSH1 0x60 SHL SWAP1 POP SWAP2 SWAP1 POP JUMP JUMPDEST PUSH1 0x0 PUSH2 0x4945 DUP3 PUSH2 0x492D JUMP JUMPDEST SWAP1 POP SWAP2 SWAP1 POP JUMP JUMPDEST PUSH1 0x0 PUSH2 0x4957 DUP3 PUSH2 0x493A JUMP JUMPDEST SWAP1 POP SWAP2 SWAP1 POP JUMP JUMPDEST PUSH2 0x496F PUSH2 0x496A DUP3 PUSH2 0x491B JUMP JUMPDEST PUSH2 0x494C JUMP JUMPDEST DUP3 MSTORE POP POP JUMP JUMPDEST PUSH1 0x0 PUSH2 0x4981 DUP3 DUP7 PUSH2 0x48E4 JUMP JUMPDEST PUSH1 0x20 DUP3 ADD SWAP2 POP PUSH2 0x4991 DUP3 DUP6 PUSH2 0x495E JUMP JUMPDEST PUSH1 0x14 DUP3 ADD SWAP2 POP PUSH2 0x49A1 DUP3 DUP5 PUSH2 0x48E4 JUMP JUMPDEST PUSH1 0x20 DUP3 ADD SWAP2 POP DUP2 SWAP1 POP SWAP5 SWAP4 POP POP POP POP JUMP JUMPDEST PUSH1 0x0 PUSH2 0x49BD DUP3 PUSH2 0x3E10 JUMP JUMPDEST SWAP2 POP PUSH2 0x49C8 DUP4 PUSH2 0x3E10 JUMP JUMPDEST SWAP3 POP DUP3 PUSH2 0x49D8 JUMPI PUSH2 0x49D7 PUSH2 0x487A JUMP JUMPDEST JUMPDEST DUP3 DUP3 MOD SWAP1 POP SWAP3 SWAP2 POP POP JUMP JUMPDEST PUSH32 0x4E487B7100000000000000000000000000000000000000000000000000000000 PUSH1 0x0 MSTORE PUSH1 0x41 PUSH1 0x4 MSTORE PUSH1 0x24 PUSH1 0x0 REVERT INVALID LOG2 PUSH5 0x6970667358 0x22 SLT KECCAK256 0xE6 PUSH4 0x908E0A3F LOG2 0x5C CALLER JUMPDEST 0xE8 0xC8 MSTORE8 0xB5 0xB2 0xC4 PUSH30 0x28E4B0E22F2FFBFE3310B0EA2721364736F6C6343000811003300000000 "
		},
		"gasEstimates": {
			"creation": {
				"codeDepositCost": "3803200",
				"executionCost": "137948",
				"totalCost": "3941148"
			},
			"external": {
				"BET_MAX()": "395",
				"BET_MIN()": "419",
				"betAmount()": "2517",
				"cumulativeBetAmount()": "2541",
				"deal()": "infinite",
				"dealerBusted()": "2496",
				"dealerCardCount()": "2518",
				"dealerHandValue(uint256,uint256)": "infinite",
				"dealerStands()": "2540",
				"dealersCards(uint256,uint256)": "infinite",
				"finalDealerCount()": "2475",
				"finalPlayerCount()": "2473",
				"fundContract(uint256)": "infinite",
				"gameInProgress()": "2519",
				"hitDealer()": "infinite",
				"hitPlayer()": "infinite",
				"houseBalance()": "2452",
				"placeBet(uint256)": "infinite",
				"playerBalance()": "2540",
				"playerBusted()": "2563",
				"playerCardCount()": "2474",
				"playerHandValue(uint256,uint256)": "infinite",
				"playerStand()": "infinite",
				"playerStands()": "2497",
				"playerWithdraw(uint256)": "infinite",
				"playersCards(uint256,uint256)": "infinite"
			},
			"internal": {
				"dealerStand()": "infinite",
				"evaluateDealerHand()": "infinite",
				"evaluatePlayerHand()": "infinite",
				"evaluateWinner()": "infinite",
				"gameIsPushed()": "infinite",
				"getCards(uint256)": "infinite",
				"getRandom()": "infinite",
				"getSlice(uint256,uint256,string memory)": "infinite",
				"numCardsInArray(uint256[2] memory[16] memory)": "infinite",
				"payout(uint256)": "infinite",
				"playerHasBlackJack()": "infinite",
				"pushToDealer(uint256,uint256,uint256)": "infinite",
				"pushToPlayer(uint256,uint256,uint256)": "infinite",
				"replaceDuplicates(uint256[2] memory[4] memory)": "infinite",
				"stringToUint(string memory)": "infinite",
				"sumDealersCards()": "infinite",
				"sumPlayersCards()": "infinite"
			}
		},
		"methodIdentifiers": {
			"BET_MAX()": "d0017a0c",
			"BET_MIN()": "2626ab08",
			"betAmount()": "d24257c0",
			"cumulativeBetAmount()": "29c0cbf6",
			"deal()": "553df021",
			"dealerBusted()": "c5c3cd78",
			"dealerCardCount()": "908a0979",
			"dealerHandValue(uint256,uint256)": "53a218c9",
			"dealerStands()": "a10926d6",
			"dealersCards(uint256,uint256)": "8bbb236f",
			"finalDealerCount()": "13bf01ed",
			"finalPlayerCount()": "cdc7ea51",
			"fundContract(uint256)": "3519a2f8",
			"gameInProgress()": "3fb64e75",
			"hitDealer()": "c2855a59",
			"hitPlayer()": "dae10ed5",
			"houseBalance()": "67084eb3",
			"placeBet(uint256)": "10fe7c48",
			"playerBalance()": "651f066a",
			"playerBusted()": "325eb3f5",
			"playerCardCount()": "8914d63b",
			"playerHandValue(uint256,uint256)": "16dd37dd",
			"playerStand()": "c9f09d38",
			"playerStands()": "3c3248d5",
			"playerWithdraw(uint256)": "5629365b",
			"playersCards(uint256,uint256)": "bdbe451b"
		}
	},
	"abi": [
		{
			"inputs": [],
			"name": "BET_MAX",
			"outputs": [
				{
					"internalType": "uint256",
					"name": "",
					"type": "uint256"
				}
			],
			"stateMutability": "view",
			"type": "function"
		},
		{
			"inputs": [],
			"name": "BET_MIN",
			"outputs": [
				{
					"internalType": "uint256",
					"name": "",
					"type": "uint256"
				}
			],
			"stateMutability": "view",
			"type": "function"
		},
		{
			"inputs": [],
			"name": "betAmount",
			"outputs": [
				{
					"internalType": "uint256",
					"name": "",
					"type": "uint256"
				}
			],
			"stateMutability": "view",
			"type": "function"
		},
		{
			"inputs": [],
			"name": "cumulativeBetAmount",
			"outputs": [
				{
					"internalType": "uint256",
					"name": "",
					"type": "uint256"
				}
			],
			"stateMutability": "view",
			"type": "function"
		},
		{
			"inputs": [],
			"name": "deal",
			"outputs": [],
			"stateMutability": "nonpayable",
			"type": "function"
		},
		{
			"inputs": [],
			"name": "dealerBusted",
			"outputs": [
				{
					"internalType": "uint256",
					"name": "",
					"type": "uint256"
				}
			],
			"stateMutability": "view",
			"type": "function"
		},
		{
			"inputs": [],
			"name": "dealerCardCount",
			"outputs": [
				{
					"internalType": "uint256",
					"name": "",
					"type": "uint256"
				}
			],
			"stateMutability": "view",
			"type": "function"
		},
		{
			"inputs": [
				{
					"internalType": "uint256",
					"name": "",
					"type": "uint256"
				},
				{
					"internalType": "uint256",
					"name": "",
					"type": "uint256"
				}
			],
			"name": "dealerHandValue",
			"outputs": [
				{
					"internalType": "uint256",
					"name": "",
					"type": "uint256"
				}
			],
			"stateMutability": "view",
			"type": "function"
		},
		{
			"inputs": [],
			"name": "dealerStands",
			"outputs": [
				{
					"internalType": "uint256",
					"name": "",
					"type": "uint256"
				}
			],
			"stateMutability": "view",
			"type": "function"
		},
		{
			"inputs": [
				{
					"internalType": "uint256",
					"name": "",
					"type": "uint256"
				},
				{
					"internalType": "uint256",
					"name": "",
					"type": "uint256"
				}
			],
			"name": "dealersCards",
			"outputs": [
				{
					"internalType": "uint256",
					"name": "",
					"type": "uint256"
				}
			],
			"stateMutability": "view",
			"type": "function"
		},
		{
			"inputs": [],
			"name": "finalDealerCount",
			"outputs": [
				{
					"internalType": "uint256",
					"name": "",
					"type": "uint256"
				}
			],
			"stateMutability": "view",
			"type": "function"
		},
		{
			"inputs": [],
			"name": "finalPlayerCount",
			"outputs": [
				{
					"internalType": "uint256",
					"name": "",
					"type": "uint256"
				}
			],
			"stateMutability": "view",
			"type": "function"
		},
		{
			"inputs": [
				{
					"internalType": "uint256",
					"name": "house_or_player",
					"type": "uint256"
				}
			],
			"name": "fundContract",
			"outputs": [],
			"stateMutability": "payable",
			"type": "function"
		},
		{
			"inputs": [],
			"name": "gameInProgress",
			"outputs": [
				{
					"internalType": "uint256",
					"name": "",
					"type": "uint256"
				}
			],
			"stateMutability": "view",
			"type": "function"
		},
		{
			"inputs": [],
			"name": "hitDealer",
			"outputs": [],
			"stateMutability": "nonpayable",
			"type": "function"
		},
		{
			"inputs": [],
			"name": "hitPlayer",
			"outputs": [],
			"stateMutability": "nonpayable",
			"type": "function"
		},
		{
			"inputs": [],
			"name": "houseBalance",
			"outputs": [
				{
					"internalType": "uint256",
					"name": "",
					"type": "uint256"
				}
			],
			"stateMutability": "view",
			"type": "function"
		},
		{
			"inputs": [
				{
					"internalType": "uint256",
					"name": "_betAmount",
					"type": "uint256"
				}
			],
			"name": "placeBet",
			"outputs": [],
			"stateMutability": "nonpayable",
			"type": "function"
		},
		{
			"inputs": [],
			"name": "playerBalance",
			"outputs": [
				{
					"internalType": "uint256",
					"name": "",
					"type": "uint256"
				}
			],
			"stateMutability": "view",
			"type": "function"
		},
		{
			"inputs": [],
			"name": "playerBusted",
			"outputs": [
				{
					"internalType": "uint256",
					"name": "",
					"type": "uint256"
				}
			],
			"stateMutability": "view",
			"type": "function"
		},
		{
			"inputs": [],
			"name": "playerCardCount",
			"outputs": [
				{
					"internalType": "uint256",
					"name": "",
					"type": "uint256"
				}
			],
			"stateMutability": "view",
			"type": "function"
		},
		{
			"inputs": [
				{
					"internalType": "uint256",
					"name": "",
					"type": "uint256"
				},
				{
					"internalType": "uint256",
					"name": "",
					"type": "uint256"
				}
			],
			"name": "playerHandValue",
			"outputs": [
				{
					"internalType": "uint256",
					"name": "",
					"type": "uint256"
				}
			],
			"stateMutability": "view",
			"type": "function"
		},
		{
			"inputs": [],
			"name": "playerStand",
			"outputs": [],
			"stateMutability": "nonpayable",
			"type": "function"
		},
		{
			"inputs": [],
			"name": "playerStands",
			"outputs": [
				{
					"internalType": "uint256",
					"name": "",
					"type": "uint256"
				}
			],
			"stateMutability": "view",
			"type": "function"
		},
		{
			"inputs": [
				{
					"internalType": "uint256",
					"name": "amount",
					"type": "uint256"
				}
			],
			"name": "playerWithdraw",
			"outputs": [],
			"stateMutability": "payable",
			"type": "function"
		},
		{
			"inputs": [
				{
					"internalType": "uint256",
					"name": "",
					"type": "uint256"
				},
				{
					"internalType": "uint256",
					"name": "",
					"type": "uint256"
				}
			],
			"name": "playersCards",
			"outputs": [
				{
					"internalType": "uint256",
					"name": "",
					"type": "uint256"
				}
			],
			"stateMutability": "view",
			"type": "function"
		}
	]
}