{
	"data": {
		"bytecode": {
			"linkReferences": {},
			"object": "60806040526000600155600060025560006003556000600455600060055560006006556000600755600060585560006059556000605a556000605b556000605c556000605d556000605e556000605f5560006060556000606160006101000a81548173ffffffffffffffffffffffffffffffffffffffff021916908373ffffffffffffffffffffffffffffffffffffffff1602179055506000606260006101000a81548173ffffffffffffffffffffffffffffffffffffffff021916908373ffffffffffffffffffffffffffffffffffffffff1602179055503480156100e457600080fd5b50614c46806100f46000396000f3fe6080604052600436106101815760003560e01c80638914d63b116100d1578063c2855a591161008a578063cdc7ea5111610064578063cdc7ea5114610510578063d0017a0c1461053b578063d24257c014610566578063dae10ed51461059157610181565b8063c2855a59146104b7578063c5c3cd78146104ce578063c9f09d38146104f957610181565b80638914d63b146103a55780638bbb236f146103d0578063908a09791461040d578063a10926d614610438578063a7e1f6a214610463578063bdbe451b1461047a57610181565b80633c3248d51161013e578063553df02111610118578063553df0211461031c5780635629365b14610333578063651f066a1461034f57806367084eb31461037a57610181565b80633c3248d5146102895780633fb64e75146102b457806353a218c9146102df57610181565b806310fe7c481461018657806313bf01ed146101af57806316dd37dd146101da5780632626ab0814610217578063325eb3f5146102425780633519a2f81461026d575b600080fd5b34801561019257600080fd5b506101ad60048036038101906101a89190613f46565b6105a8565b005b3480156101bb57600080fd5b506101c4610786565b6040516101d19190613f82565b60405180910390f35b3480156101e657600080fd5b5061020160048036038101906101fc9190613f9d565b61078c565b60405161020e9190613f82565b60405180910390f35b34801561022357600080fd5b5061022c6107ba565b6040516102399190613f82565b60405180910390f35b34801561024e57600080fd5b506102576107bf565b6040516102649190613f82565b60405180910390f35b61028760048036038101906102829190613f46565b6107c5565b005b34801561029557600080fd5b5061029e610cf4565b6040516102ab9190613f82565b60405180910390f35b3480156102c057600080fd5b506102c9610cfa565b6040516102d69190613f82565b60405180910390f35b3480156102eb57600080fd5b5061030660048036038101906103019190613f9d565b610d00565b6040516103139190613f82565b60405180910390f35b34801561032857600080fd5b50610331610d2e565b005b61034d60048036038101906103489190613f46565b61121e565b005b34801561035b57600080fd5b5061036461143c565b6040516103719190613f82565b60405180910390f35b34801561038657600080fd5b5061038f611442565b60405161039c9190613f82565b60405180910390f35b3480156103b157600080fd5b506103ba611448565b6040516103c79190613f82565b60405180910390f35b3480156103dc57600080fd5b506103f760048036038101906103f29190613f9d565b61144e565b6040516104049190613f82565b60405180910390f35b34801561041957600080fd5b5061042261147c565b60405161042f9190613f82565b60405180910390f35b34801561044457600080fd5b5061044d611482565b60405161045a9190613f82565b60405180910390f35b34801561046f57600080fd5b50610478611488565b005b34801561048657600080fd5b506104a1600480360381019061049c9190613f9d565b6115a1565b6040516104ae9190613f82565b60405180910390f35b3480156104c357600080fd5b506104cc6115cf565b005b3480156104da57600080fd5b506104e36118ff565b6040516104f09190613f82565b60405180910390f35b34801561050557600080fd5b5061050e611905565b005b34801561051c57600080fd5b506105256119fc565b6040516105329190613f82565b60405180910390f35b34801561054757600080fd5b50610550611a02565b60405161055d9190613f82565b60405180910390f35b34801561057257600080fd5b5061057b611a0e565b6040516105889190613f82565b60405180910390f35b34801561059d57600080fd5b506105a6611a14565b005b80600181101580156105c25750670de0b6b3a76400008111155b6105cb57600080fd5b600354811115610610576040517f08c379a000000000000000000000000000000000000000000000000000000000815260040161060790614060565b60405180910390fd5b606160009054906101000a900473ffffffffffffffffffffffffffffffffffffffff1673ffffffffffffffffffffffffffffffffffffffff163373ffffffffffffffffffffffffffffffffffffffff16146106a0576040517f08c379a0000000000000000000000000000000000000000000000000000000008152600401610697906140cc565b60405180910390fd5b6000600454146106e5576040517f08c379a00000000000000000000000000000000000000000000000000000000081526004016106dc90614138565b60405180910390fd5b60008054906101000a900460ff1615610733576040517f08c379a000000000000000000000000000000000000000000000000000000000815260040161072a906141a4565b60405180910390fd5b60016000806101000a81548160ff0219169083151502179055508160035461075b91906141f3565b6003819055508160048190555060008060006101000a81548160ff0219169083151502179055505050565b605d5481565b6048826002811061079c57600080fd5b6002020181600281106107ae57600080fd5b01600091509150505481565b600181565b605a5481565b80600073ffffffffffffffffffffffffffffffffffffffff16606260009054906101000a900473ffffffffffffffffffffffffffffffffffffffff1673ffffffffffffffffffffffffffffffffffffffff1614806108715750600073ffffffffffffffffffffffffffffffffffffffff16606160009054906101000a900473ffffffffffffffffffffffffffffffffffffffff1673ffffffffffffffffffffffffffffffffffffffff16145b806108c95750606260009054906101000a900473ffffffffffffffffffffffffffffffffffffffff1673ffffffffffffffffffffffffffffffffffffffff163373ffffffffffffffffffffffffffffffffffffffff16145b806109215750606160009054906101000a900473ffffffffffffffffffffffffffffffffffffffff1673ffffffffffffffffffffffffffffffffffffffff163373ffffffffffffffffffffffffffffffffffffffff16145b610960576040517f08c379a000000000000000000000000000000000000000000000000000000000815260040161095790614299565b60405180910390fd5b600081148061096f5750600181145b6109ae576040517f08c379a00000000000000000000000000000000000000000000000000000000081526004016109a59061432b565b60405180910390fd5b60008203610b4f57606260009054906101000a900473ffffffffffffffffffffffffffffffffffffffff1673ffffffffffffffffffffffffffffffffffffffff163373ffffffffffffffffffffffffffffffffffffffff161480610a605750600073ffffffffffffffffffffffffffffffffffffffff16606260009054906101000a900473ffffffffffffffffffffffffffffffffffffffff1673ffffffffffffffffffffffffffffffffffffffff16145b8015610aba5750606160009054906101000a900473ffffffffffffffffffffffffffffffffffffffff1673ffffffffffffffffffffffffffffffffffffffff163373ffffffffffffffffffffffffffffffffffffffff1614155b610af9576040517f08c379a0000000000000000000000000000000000000000000000000000000008152600401610af0906143bd565b60405180910390fd5b33606260006101000a81548173ffffffffffffffffffffffffffffffffffffffff021916908373ffffffffffffffffffffffffffffffffffffffff16021790555034600254610b4891906143dd565b6002819055505b60018203610cf057606160009054906101000a900473ffffffffffffffffffffffffffffffffffffffff1673ffffffffffffffffffffffffffffffffffffffff163373ffffffffffffffffffffffffffffffffffffffff161480610c015750600073ffffffffffffffffffffffffffffffffffffffff16606160009054906101000a900473ffffffffffffffffffffffffffffffffffffffff1673ffffffffffffffffffffffffffffffffffffffff16145b8015610c5b5750606260009054906101000a900473ffffffffffffffffffffffffffffffffffffffff1673ffffffffffffffffffffffffffffffffffffffff163373ffffffffffffffffffffffffffffffffffffffff1614155b610c9a576040517f08c379a0000000000000000000000000000000000000000000000000000000008152600401610c9190614483565b60405180910390fd5b33606160006101000a81548173ffffffffffffffffffffffffffffffffffffffff021916908373ffffffffffffffffffffffffffffffffffffffff16021790555034600354610ce991906143dd565b6003819055505b5050565b605e5481565b60015481565b604c8260028110610d1057600080fd5b600202018160028110610d2257600080fd5b01600091509150505481565b60008054906101000a900460ff1615610d7c576040517f08c379a0000000000000000000000000000000000000000000000000000000008152600401610d73906141a4565b60405180910390fd5b60016000806101000a81548160ff021916908315150217905550600060045411610ddb576040517f08c379a0000000000000000000000000000000000000000000000000000000008152600401610dd290614515565b60405180910390fd5b600180819055506000605e819055506000605a819055506000605b819055506000605e819055506000605f819055506000605d819055506000605c8190555060006048600160028110610e3157610e30614535565b5b60020201600060028110610e4857610e47614535565b5b018190555060006048600160028110610e6457610e63614535565b5b60020201600160028110610e7b57610e7a614535565b5b01819055506000600190505b600f8111610fd857600060088260108110610ea557610ea4614535565b5b60020201600060028110610ebc57610ebb614535565b5b0181905550600060088260108110610ed757610ed6614535565b5b60020201600160028110610eee57610eed614535565b5b0181905550600060288260108110610f0957610f08614535565b5b60020201600060028110610f2057610f1f614535565b5b0181905550600060288260108110610f3b57610f3a614535565b5b60020201600160028110610f5257610f51614535565b5b01819055506004811015610fc557600060508260048110610f7657610f75614535565b5b60020201600060028110610f8d57610f8c614535565b5b0181905550600060508260048110610fa857610fa7614535565b5b60020201600160028110610fbf57610fbe614535565b5b01819055505b8080610fd090614564565b915050610e87565b50610fe36003611db1565b6110616050600480602002604051908101604052809291906000905b8282101561105857838260020201600280602002604051908101604052809291908260028015611044576020028201915b815481526020019060010190808311611030575b505050505081526020019060010190610fff565b5050505061206f565b6050906004611071929190613ddc565b506110d8605060016004811061108a57611089614535565b5b600202016000600281106110a1576110a0614535565b5b015460506001600481106110b8576110b7614535565b5b600202016001600281106110cf576110ce614535565b5b015460016123d1565b61113e60506002600481106110f0576110ef614535565b5b6002020160006002811061110757611106614535565b5b0154605060026004811061111e5761111d614535565b5b6002020160016002811061113557611134614535565b5b015460016124bc565b6111a4605060036004811061115657611155614535565b5b6002020160006002811061116d5761116c614535565b5b0154605060036004811061118457611183614535565b5b6002020160016002811061119b5761119a614535565b5b015460026123d1565b6111ac6125a7565b6111b461281c565b6111bc612a91565b6111c4613015565b601560486001600281106111db576111da614535565b5b600202016001600281106111f2576111f1614535565b5b015403611202576112016134cb565b5b60008060006101000a81548160ff021916908315150217905550565b80600060035411611264576040517f08c379a000000000000000000000000000000000000000000000000000000000815260040161125b9061461e565b60405180910390fd5b606160009054906101000a900473ffffffffffffffffffffffffffffffffffffffff1673ffffffffffffffffffffffffffffffffffffffff163373ffffffffffffffffffffffffffffffffffffffff16146112f4576040517f08c379a00000000000000000000000000000000000000000000000000000000081526004016112eb906146b0565b60405180910390fd5b600354811115611339576040517f08c379a000000000000000000000000000000000000000000000000000000000815260040161133090614742565b60405180910390fd5b60008054906101000a900460ff1615611387576040517f08c379a000000000000000000000000000000000000000000000000000000000815260040161137e906141a4565b60405180910390fd5b60016000806101000a81548160ff021916908315150217905550816003546113af91906141f3565b600381905550606160009054906101000a900473ffffffffffffffffffffffffffffffffffffffff1673ffffffffffffffffffffffffffffffffffffffff166108fc839081150290604051600060405180830381858888f1935050505015801561141d573d6000803e3d6000fd5b5060008060006101000a81548160ff0219169083151502179055505050565b60035481565b60025481565b60585481565b6028826010811061145e57600080fd5b60020201816002811061147057600080fd5b01600091509150505481565b60595481565b605f5481565b60018054146114cc576040517f08c379a00000000000000000000000000000000000000000000000000000000081526004016114c3906147ae565b60405180910390fd5b600260585414611511576040517f08c379a000000000000000000000000000000000000000000000000000000000815260040161150890614840565b60405180910390fd5b60026004546115209190614860565b6003541015611564576040517f08c379a000000000000000000000000000000000000000000000000000000000815260040161155b906148ee565b60405180910390fd5b60045460035461157491906141f3565b60038190555060026004546115899190614860565b600481905550611597611a14565b61159f611905565b565b600882601081106115b157600080fd5b6002020181600281106115c357600080fd5b01600091509150505481565b6011605d5410611614576040517f08c379a000000000000000000000000000000000000000000000000000000000815260040161160b90614980565b60405180910390fd5b6001605a54148061162757506001605e54145b61163057600080fd5b60006116b06028601080602002604051908101604052809291906000905b828210156116a757838260020201600280602002604051908101604052809291908260028015611693576020028201915b81548152602001906001019080831161167f575b50505050508152602001906001019061164e565b50505050613834565b90506116bc6001611db1565b6000600190505b600b811161187a575b60506001600481106116e1576116e0614535565b5b600202016000600281106116f8576116f7614535565b5b01546008826010811061170e5761170d614535565b5b6002020160006002811061172557611724614535565b5b015414801561178c5750605060016004811061174457611743614535565b5b6002020160016002811061175b5761175a614535565b5b01546008826010811061177157611770614535565b5b6002020160006002811061178857611787614535565b5b0154145b80611853575060506001600481106117a7576117a6614535565b5b600202016000600281106117be576117bd614535565b5b0154602882601081106117d4576117d3614535565b5b600202016000600281106117eb576117ea614535565b5b01541480156118525750605060016004811061180a57611809614535565b5b6002020160016002811061182157611820614535565b5b01546028826010811061183757611836614535565b5b6002020160016002811061184e5761184d614535565b5b0154145b5b15611867576118626001611db1565b6116cc565b808061187290614564565b9150506116c3565b506118ec605060016004811061189357611892614535565b5b600202016000600281106118aa576118a9614535565b5b015460506001600481106118c1576118c0614535565b5b600202016001600281106118d8576118d7614535565b5b01546001846118e791906143dd565b6124bc565b6118f461281c565b6118fc612a91565b50565b605b5481565b6000605e541461194a576040517f08c379a0000000000000000000000000000000000000000000000000000000008152600401611941906149ec565b60405180910390fd5b6000605a541461198f576040517f08c379a000000000000000000000000000000000000000000000000000000000815260040161198690614a58565b60405180910390fd5b60018054146119d3576040517f08c379a00000000000000000000000000000000000000000000000000000000081526004016119ca906147ae565b60405180910390fd5b6001605e819055506119e3613015565b5b60018054036119fa576119f56115cf565b6119e4565b565b605c5481565b670de0b6b3a764000081565b60045481565b6001805414611a58576040517f08c379a0000000000000000000000000000000000000000000000000000000008152600401611a4f906147ae565b60405180910390fd5b6000605a5414611a9d576040517f08c379a0000000000000000000000000000000000000000000000000000000008152600401611a9490614a58565b60405180910390fd5b6000605e5414611ae2576040517f08c379a0000000000000000000000000000000000000000000000000000000008152600401611ad9906149ec565b60405180910390fd5b6000611b626008601080602002604051908101604052809291906000905b82821015611b5957838260020201600280602002604051908101604052809291908260028015611b45576020028201915b815481526020019060010190808311611b31575b505050505081526020019060010190611b00565b50505050613834565b9050611b6e6001611db1565b6000600190505b600b8111611d2c575b6050600160048110611b9357611b92614535565b5b60020201600060028110611baa57611ba9614535565b5b015460088260108110611bc057611bbf614535565b5b60020201600060028110611bd757611bd6614535565b5b0154148015611c3e57506050600160048110611bf657611bf5614535565b5b60020201600160028110611c0d57611c0c614535565b5b015460088260108110611c2357611c22614535565b5b60020201600060028110611c3a57611c39614535565b5b0154145b80611d0557506050600160048110611c5957611c58614535565b5b60020201600060028110611c7057611c6f614535565b5b015460288260108110611c8657611c85614535565b5b60020201600060028110611c9d57611c9c614535565b5b0154148015611d0457506050600160048110611cbc57611cbb614535565b5b60020201600160028110611cd357611cd2614535565b5b015460288260108110611ce957611ce8614535565b5b60020201600160028110611d0057611cff614535565b5b0154145b5b15611d1957611d146001611db1565b611b7e565b8080611d2490614564565b915050611b75565b50611d9e6050600160048110611d4557611d44614535565b5b60020201600060028110611d5c57611d5b614535565b5b01546050600160048110611d7357611d72614535565b5b60020201600160028110611d8a57611d89614535565b5b0154600184611d9991906143dd565b6123d1565b611da66125a7565b611dae613015565b50565b600060405180602001604052806000815250905060006040518060200160405280600081525090506000806001905060005b8582116120675760006003905060006004905060006007819055506000600681905550611e0e6138ac565b600581905550611e1f600554613960565b9650611e2c828289613a2e565b9550611e3786613b43565b9250865194505b6001831080611e4d5750600d83115b8015611e645750600385611e6191906141f3565b82105b15611ef857600282611e7691906143dd565b9150600281611e8591906143dd565b9050611e92828289613a2e565b9550611e9d86613b43565b9250600385611eac91906141f3565b821115611ef3576003915060049050611ec36138ac565b600581905550611ed4600554613960565b9650611ee1828289613a2e565b9550611eec86613b43565b9250865194505b611e3e565b82600781905550600282611f0c91906143dd565b9150600281611f1b91906143dd565b9050611f28828289613a2e565b9550611f3386613b43565b92505b6001831080611f455750600483115b8015611f5c5750600385611f5991906141f3565b82105b15611fe457600182611f6e91906143dd565b9150819050611f7e828289613a2e565b9550611f8986613b43565b9250600385611f9891906141f3565b821115611fdf576004915060049050611faf6138ac565b600581905550611fc0600554613960565b9650611fcd828289613a2e565b9550611fd886613b43565b9250865194505b611f36565b826006819055506007546050856004811061200257612001614535565b5b6002020160006002811061201957612018614535565b5b01819055506006546050856004811061203557612034614535565b5b6002020160016002811061204c5761204b614535565b5b018190555060018461205e91906143dd565b93505050611de3565b505050505050565b612077613e2d565b5b8160026004811061208c5761208b614535565b5b60200201516000600281106120a4576120a3614535565b5b6020020151826001600481106120bd576120bc614535565b5b60200201516000600281106120d5576120d4614535565b5b60200201511480156121465750816002600481106120f6576120f5614535565b5b602002015160016002811061210e5761210d614535565b5b60200201518260016004811061212757612126614535565b5b602002015160016002811061213f5761213e614535565b5b6020020151145b15612220576121556001611db1565b605060016004811061216a57612169614535565b5b6002020160006002811061218157612180614535565b5b01548260026004811061219757612196614535565b5b60200201516000600281106121af576121ae614535565b5b60200201818152505060506001600481106121cd576121cc614535565b5b600202016001600281106121e4576121e3614535565b5b0154826002600481106121fa576121f9614535565b5b602002015160016002811061221257612211614535565b5b602002018181525050612078565b5b8160036004811061223557612234614535565b5b602002015160006002811061224d5761224c614535565b5b60200201518260026004811061226657612265614535565b5b602002015160006002811061227e5761227d614535565b5b60200201511480156122ef57508160036004811061229f5761229e614535565b5b60200201516001600281106122b7576122b6614535565b5b6020020151826002600481106122d0576122cf614535565b5b60200201516001600281106122e8576122e7614535565b5b6020020151145b156123c9576122fe6001611db1565b605060016004811061231357612312614535565b5b6002020160006002811061232a57612329614535565b5b0154826003600481106123405761233f614535565b5b602002015160006002811061235857612357614535565b5b602002018181525050605060016004811061237657612375614535565b5b6002020160016002811061238d5761238c614535565b5b0154826003600481106123a3576123a2614535565b5b60200201516001600281106123bb576123ba614535565b5b602002018181525050612221565b819050919050565b82600882601081106123e6576123e5614535565b5b600202016000600281106123fd576123fc614535565b5b0181905550816008826010811061241757612416614535565b5b6002020160016002811061242e5761242d614535565b5b01819055506124b16008601080602002604051908101604052809291906000905b828210156124a857838260020201600280602002604051908101604052809291908260028015612494576020028201915b815481526020019060010190808311612480575b50505050508152602001906001019061244f565b50505050613834565b605881905550505050565b82602882601081106124d1576124d0614535565b5b600202016000600281106124e8576124e7614535565b5b0181905550816028826010811061250257612501614535565b5b6002020160016002811061251957612518614535565b5b018190555061259c6028601080602002604051908101604052809291906000905b828210156125935783826002020160028060200260405190810160405280929190826002801561257f576020028201915b81548152602001906001019080831161256b575b50505050508152602001906001019061253a565b50505050613834565b605981905550505050565b6000806126286008601080602002604051908101604052809291906000905b8282101561261f5783826002020160028060200260405190810160405280929190826002801561260b576020028201915b8154815260200190600101908083116125f7575b5050505050815260200190600101906125c6565b50505050613834565b6058819055506000600190505b605854811161273f5760096008826010811061265457612653614535565b5b6002020160006002811061266b5761266a614535565b5b0154111561268357600a8361268091906143dd565b92505b600a6008826010811061269957612698614535565b5b600202016000600281106126b0576126af614535565b5b015410156126f357600881601081106126cc576126cb614535565b5b600202016000600281106126e3576126e2614535565b5b0154836126f091906143dd565b92505b60016008826010811061270957612708614535565b5b600202016000600281106127205761271f614535565b5b01540361272c57600191505b808061273790614564565b915050612635565b5081604860016002811061275657612755614535565b5b6002020160006002811061276d5761276c614535565b5b018190555081604860016002811061278857612787614535565b5b6002020160016002811061279f5761279e614535565b5b01819055506001810361281857600a60486001600281106127c3576127c2614535565b5b600202016001600281106127da576127d9614535565b5b01546127e691906143dd565b60486001600281106127fb576127fa614535565b5b6002020160016002811061281257612811614535565b5b01819055505b5050565b60008061289d6028601080602002604051908101604052809291906000905b8282101561289457838260020201600280602002604051908101604052809291908260028015612880576020028201915b81548152602001906001019080831161286c575b50505050508152602001906001019061283b565b50505050613834565b6059819055506000600190505b60595481116129b4576009602882601081106128c9576128c8614535565b5b600202016000600281106128e0576128df614535565b5b015411156128f857600a836128f591906143dd565b92505b600a6028826010811061290e5761290d614535565b5b6002020160006002811061292557612924614535565b5b01541015612968576028816010811061294157612940614535565b5b6002020160006002811061295857612957614535565b5b01548361296591906143dd565b92505b60016028826010811061297e5761297d614535565b5b6002020160006002811061299557612994614535565b5b0154036129a157600191505b80806129ac90614564565b9150506128aa565b5081604c6001600281106129cb576129ca614535565b5b600202016000600281106129e2576129e1614535565b5b018190555081604c6001600281106129fd576129fc614535565b5b60020201600160028110612a1457612a13614535565b5b018190555060018103612a8d57600a604c600160028110612a3857612a37614535565b5b60020201600160028110612a4f57612a4e614535565b5b0154612a5b91906143dd565b604c600160028110612a7057612a6f614535565b5b60020201600160028110612a8757612a86614535565b5b01819055505b5050565b6015604c600160028110612aa857612aa7614535565b5b60020201600060028110612abf57612abe614535565b5b015411158015612afc57506015604c600160028110612ae157612ae0614535565b5b60020201600160028110612af857612af7614535565b5b0154115b15612b3657604c600160028110612b1657612b15614535565b5b60020201600060028110612b2d57612b2c614535565b5b0154605d819055505b6015604c600160028110612b4d57612b4c614535565b5b60020201600060028110612b6457612b63614535565b5b0154118015612ba1575060156048600160028110612b8557612b84614535565b5b60020201600160028110612b9c57612b9b614535565b5b015411155b15612bdb57604c600160028110612bbb57612bba614535565b5b60020201600160028110612bd257612bd1614535565b5b0154605d819055505b6015604c600160028110612bf257612bf1614535565b5b60020201600060028110612c0957612c08614535565b5b015411158015612c4757506015604c600160028110612c2b57612c2a614535565b5b60020201600160028110612c4257612c41614535565b5b015411155b15612d7a57604c600160028110612c6157612c60614535565b5b60020201600160028110612c7857612c77614535565b5b0154604c600160028110612c8f57612c8e614535565b5b60020201600060028110612ca657612ca5614535565b5b01541115612ce357604c600160028110612cc357612cc2614535565b5b60020201600060028110612cda57612cd9614535565b5b0154605d819055505b604c600160028110612cf857612cf7614535565b5b60020201600160028110612d0f57612d0e614535565b5b0154604c600160028110612d2657612d25614535565b5b60020201600060028110612d3d57612d3c614535565b5b015411612d7957604c600160028110612d5957612d58614535565b5b60020201600160028110612d7057612d6f614535565b5b0154605d819055505b5b6010604c600160028110612d9157612d90614535565b5b60020201600060028110612da857612da7614535565b5b01541180612de357506010604c600160028110612dc857612dc7614535565b5b60020201600160028110612ddf57612dde614535565b5b0154115b15613013576015604c600160028110612dff57612dfe614535565b5b60020201600060028110612e1657612e15614535565b5b0154118015612e5257506015604c600160028110612e3757612e36614535565b5b60020201600160028110612e4e57612e4d614535565b5b0154115b15612fef576001605b819055506000600181905550604c600160028110612e7c57612e7b614535565b5b60020201600160028110612e9357612e92614535565b5b0154604c600160028110612eaa57612ea9614535565b5b60020201600060028110612ec157612ec0614535565b5b015411612efd57604c600160028110612edd57612edc614535565b5b60020201600060028110612ef457612ef3614535565b5b0154605d819055505b604c600160028110612f1257612f11614535565b5b60020201600160028110612f2957612f28614535565b5b0154604c600160028110612f4057612f3f614535565b5b60020201600060028110612f5757612f56614535565b5b01541115612f9457604c600160028110612f7457612f73614535565b5b60020201600160028110612f8b57612f8a614535565b5b0154605d819055505b6000605a54148015612fa857506001605e54145b15612fee576002600454612fbc9190614860565b600354612fc991906143dd565b600381905550600454600254612fdf91906141f3565b60028190555060006004819055505b5b6001605b54146130125760006001819055506001605f81905550613011613bdb565b5b5b565b6015604860016002811061302c5761302b614535565b5b6002020160006002811061304357613042614535565b5b015411801561307f57506015604860016002811061306457613063614535565b5b6002020160016002811061307b5761307a614535565b5b0154115b156131e0576001605a81905550600060018190555060486001600281106130a9576130a8614535565b5b600202016001600281106130c0576130bf614535565b5b015460486001600281106130d7576130d6614535565b5b600202016000600281106130ee576130ed614535565b5b01541161312a57604860016002811061310a57613109614535565b5b6002020160006002811061312157613120614535565b5b0154605c819055505b604860016002811061313f5761313e614535565b5b6002020160016002811061315657613155614535565b5b0154604860016002811061316d5761316c614535565b5b6002020160006002811061318457613183614535565b5b015411156131c15760486001600281106131a1576131a0614535565b5b600202016001600281106131b8576131b7614535565b5b0154605c819055505b6004546002546131d191906143dd565b60028190555060006004819055505b601560486001600281106131f7576131f6614535565b5b6002020160006002811061320e5761320d614535565b5b01541115801561324b5750601560486001600281106132305761322f614535565b5b6002020160016002811061324757613246614535565b5b0154115b1561328557604860016002811061326557613264614535565b5b6002020160006002811061327c5761327b614535565b5b0154605c819055505b6015604860016002811061329c5761329b614535565b5b600202016000600281106132b3576132b2614535565b5b01541180156132f05750601560486001600281106132d4576132d3614535565b5b600202016001600281106132eb576132ea614535565b5b015411155b1561332a57604860016002811061330a57613309614535565b5b6002020160016002811061332157613320614535565b5b0154605c819055505b6015604860016002811061334157613340614535565b5b6002020160006002811061335857613357614535565b5b01541115801561339657506015604860016002811061337a57613379614535565b5b6002020160016002811061339157613390614535565b5b015411155b156134c95760486001600281106133b0576133af614535565b5b600202016001600281106133c7576133c6614535565b5b015460486001600281106133de576133dd614535565b5b600202016000600281106133f5576133f4614535565b5b0154111561343257604860016002811061341257613411614535565b5b6002020160006002811061342957613428614535565b5b0154605c819055505b604860016002811061344757613446614535565b5b6002020160016002811061345e5761345d614535565b5b0154604860016002811061347557613474614535565b5b6002020160006002811061348c5761348b614535565b5b0154116134c85760486001600281106134a8576134a7614535565b5b600202016001600281106134bf576134be614535565b5b0154605c819055505b5b565b6000600181905550600160286001601081106134ea576134e9614535565b5b6002020160006002811061350157613500614535565b5b0154148061353c5750600a604c60016002811061352157613520614535565b5b6002020160006002811061353857613537614535565b5b0154145b156138325761354b6001611db1565b6000600190505b60018111613706575b60506001600481106135705761356f614535565b5b6002020160006002811061358757613586614535565b5b01546008826010811061359d5761359c614535565b5b600202016000600281106135b4576135b3614535565b5b0154148061361a575060506001600481106135d2576135d1614535565b5b600202016000600281106135e9576135e8614535565b5b0154602882601081106135ff576135fe614535565b5b6002020160006002811061361657613615614535565b5b0154145b156136f357605060016004811061363457613633614535565b5b6002020160016002811061364b5761364a614535565b5b01546008826010811061366157613660614535565b5b6002020160016002811061367857613677614535565b5b015414806136de5750605060016004811061369657613695614535565b5b600202016001600281106136ad576136ac614535565b5b0154602882601081106136c3576136c2614535565b5b600202016001600281106136da576136d9614535565b5b0154145b156136ee576136ed6001611db1565b5b61355b565b80806136fe90614564565b915050613552565b5061376d605060016004811061371f5761371e614535565b5b6002020160006002811061373657613735614535565b5b0154605060016004811061374d5761374c614535565b5b6002020160016002811061376457613763614535565b5b015460026124bc565b61377561281c565b61377d612a91565b6015604c60016002811061379457613793614535565b5b600202016001600281106137ab576137aa614535565b5b0154036137bf576137ba613c69565b613831565b600260036004546137d09190614860565b6137da9190614aa7565b6004546003546137ea91906143dd565b6137f491906143dd565b6003819055506002600360045461380b9190614860565b6138159190614aa7565b60025461382291906141f3565b60028190555060006004819055505b5b565b6000806000905060005b60108210156138a257600084836010811061385c5761385b614535565b5b602002015160006002811061387457613873614535565b5b60200201511461388e5760018161388b91906143dd565b90505b60018261389b91906143dd565b915061383e565b8092505050919050565b6000606060008154809291906138c190614564565b91905055507f028f5c28f5c28f5c28f5c28f5c28f5c28f5c28f5c28f5c28f5c28f5c28f5c28f60036060546138f69190614860565b4361390191906143dd565b3360605460405160200161391793929190614b73565b6040516020818303038152906040528051906020012060001c61393a9190614bb0565b6005819055506060600081548092919061395390614564565b9190505550600554905090565b60606000600161396f84613c89565b01905060008167ffffffffffffffff81111561398e5761398d614be1565b5b6040519080825280601f01601f1916602001820160405280156139c05781602001600182028036833780820191505090505b509050600082602001820190505b600115613a23578080600190039150507f3031323334353637383961626364656600000000000000000000000000000000600a86061a8153600a8581613a1757613a16614a78565b5b049450600085036139ce575b819350505050919050565b6060600060018585613a4091906141f3565b613a4a91906143dd565b67ffffffffffffffff811115613a6357613a62614be1565b5b6040519080825280601f01601f191660200182016040528015613a955781602001600182028036833780820191505090505b50905060005b8585613aa791906141f3565b8111613b37578360018783613abc91906143dd565b613ac691906141f3565b81518110613ad757613ad6614535565b5b602001015160f81c60f81b828281518110613af557613af4614535565b5b60200101907effffffffffffffffffffffffffffffffffffffffffffffffffffffffffffff1916908160001a9053508080613b2f90614564565b915050613a9b565b50809150509392505050565b6000808290506000805b8251811015613bd0576000838281518110613b6b57613b6a614535565b5b602001015160f81c60f81b60f81c60ff16905060308110158015613b90575060398111155b15613bbc57603081613ba291906141f3565b600a84613baf9190614860565b613bb991906143dd565b92505b508080613bc890614564565b915050613b4d565b508092505050919050565b605c54605d541115613c0657600454600254613bf791906143dd565b60028190555060006004819055505b605d54605c541115613c53576002600454613c219190614860565b600354613c2e91906143dd565b600381905550600454600254613c4491906141f3565b60028190555060006004819055505b605c54605d5403613c6757613c66613c69565b5b565b600454600354613c7991906143dd565b6003819055506000600481905550565b600080600090507a184f03e93ff9f4daa797ed6e38ed64bf6a1f0100000000000000008310613ce7577a184f03e93ff9f4daa797ed6e38ed64bf6a1f0100000000000000008381613cdd57613cdc614a78565b5b0492506040810190505b6d04ee2d6d415b85acef81000000008310613d24576d04ee2d6d415b85acef81000000008381613d1a57613d19614a78565b5b0492506020810190505b662386f26fc100008310613d5357662386f26fc100008381613d4957613d48614a78565b5b0492506010810190505b6305f5e1008310613d7c576305f5e1008381613d7257613d71614a78565b5b0492506008810190505b6127108310613da1576127108381613d9757613d96614a78565b5b0492506004810190505b60648310613dc45760648381613dba57613db9614a78565b5b0492506002810190505b600a8310613dd3576001810190505b80915050919050565b8260046002028101928215613e1c579160200282015b82811115613e1b57825182906002613e0b929190613e5a565b5091602001919060020190613df2565b5b509050613e299190613e9a565b5090565b60405180608001604052806004905b613e44613ebe565b815260200190600190039081613e3c5790505090565b8260028101928215613e89579160200282015b82811115613e88578251825591602001919060010190613e6d565b5b509050613e969190613ee0565b5090565b5b80821115613eba5760008181613eb19190613efd565b50600201613e9b565b5090565b6040518060400160405280600290602082028036833780820191505090505090565b5b80821115613ef9576000816000905550600101613ee1565b5090565b506000815560010160009055565b600080fd5b6000819050919050565b613f2381613f10565b8114613f2e57600080fd5b50565b600081359050613f4081613f1a565b92915050565b600060208284031215613f5c57613f5b613f0b565b5b6000613f6a84828501613f31565b91505092915050565b613f7c81613f10565b82525050565b6000602082019050613f976000830184613f73565b92915050565b60008060408385031215613fb457613fb3613f0b565b5b6000613fc285828601613f31565b9250506020613fd385828601613f31565b9150509250929050565b600082825260208201905092915050565b7f42657420616d6f756e74206973206d6f7265207468616e20706c61796572206260008201527f616c616e63650000000000000000000000000000000000000000000000000000602082015250565b600061404a602683613fdd565b915061405582613fee565b604082019050919050565b600060208201905081810360008301526140798161403d565b9050919050565b7f4f6e6c7920706c617965722063616e20706c6163652062657400000000000000600082015250565b60006140b6601983613fdd565b91506140c182614080565b602082019050919050565b600060208201905081810360008301526140e5816140a9565b9050919050565b7f4265742068617320616c7265616479206265656e20706c616365640000000000600082015250565b6000614122601b83613fdd565b915061412d826140ec565b602082019050919050565b6000602082019050818103600083015261415181614115565b9050919050565b7f5265656e7472616e6379206e6f7420616c6c6f77656400000000000000000000600082015250565b600061418e601683613fdd565b915061419982614158565b602082019050919050565b600060208201905081810360008301526141bd81614181565b9050919050565b7f4e487b7100000000000000000000000000000000000000000000000000000000600052601160045260246000fd5b60006141fe82613f10565b915061420983613f10565b9250828203905081811115614221576142206141c4565b5b92915050565b7f526567697374726174696f6e2061646472657373206973206e6f742076616c6960008201527f6400000000000000000000000000000000000000000000000000000000000000602082015250565b6000614283602183613fdd565b915061428e82614227565b604082019050919050565b600060208201905081810360008301526142b281614276565b9050919050565b7f506c61796572206d75737420626520686f757365283029206f7220706c61796560008201527f7228312900000000000000000000000000000000000000000000000000000000602082015250565b6000614315602483613fdd565b9150614320826142b9565b604082019050919050565b6000602082019050818103600083015261434481614308565b9050919050565b7f53656e6465722061646472657373206d75737420626520686f75736557616c6c60008201527f6574000000000000000000000000000000000000000000000000000000000000602082015250565b60006143a7602283613fdd565b91506143b28261434b565b604082019050919050565b600060208201905081810360008301526143d68161439a565b9050919050565b60006143e882613f10565b91506143f383613f10565b925082820190508082111561440b5761440a6141c4565b5b92915050565b7f53656e6465722061646472657373206d75737420626520706c6179657257616c60008201527f6c65740000000000000000000000000000000000000000000000000000000000602082015250565b600061446d602383613fdd565b915061447882614411565b604082019050919050565b6000602082019050818103600083015261449c81614460565b9050919050565b7f796f75206d75737420626574206265666f72652074686520636172647320617260008201527f65206465616c7400000000000000000000000000000000000000000000000000602082015250565b60006144ff602783613fdd565b915061450a826144a3565b604082019050919050565b6000602082019050818103600083015261452e816144f2565b9050919050565b7f4e487b7100000000000000000000000000000000000000000000000000000000600052603260045260246000fd5b600061456f82613f10565b91507fffffffffffffffffffffffffffffffffffffffffffffffffffffffffffffffff82036145a1576145a06141c4565b5b600182019050919050565b7f506c6179657220686173206e6f2062616c616e636520746f207769746864726160008201527f7700000000000000000000000000000000000000000000000000000000000000602082015250565b6000614608602183613fdd565b9150614613826145ac565b604082019050919050565b60006020820190508181036000830152614637816145fb565b9050919050565b7f4f6e6c7920706c617965722063616e2075736520746869732066756e6374696f60008201527f6e20776974686472617700000000000000000000000000000000000000000000602082015250565b600061469a602a83613fdd565b91506146a58261463e565b604082019050919050565b600060208201905081810360008301526146c98161468d565b9050919050565b7f596f75206172652072657175657374696e67206d6f7265207468616e2074686560008201527f20706c617965722077616c6c657420636f6e7461696e73000000000000000000602082015250565b600061472c603783613fdd565b9150614737826146d0565b604082019050919050565b6000602082019050818103600083015261475b8161471f565b9050919050565b7f47616d65206d75737420626520696e2070726f67726573730000000000000000600082015250565b6000614798601883613fdd565b91506147a382614762565b602082019050919050565b600060208201905081810360008301526147c78161478b565b9050919050565b7f596f752063616e206f6e6c7920646f75626c6520646f776e206f6e206669727360008201527f7420616374696f6e000000000000000000000000000000000000000000000000602082015250565b600061482a602883613fdd565b9150614835826147ce565b604082019050919050565b600060208201905081810360008301526148598161481d565b9050919050565b600061486b82613f10565b915061487683613f10565b925082820261488481613f10565b9150828204841483151761489b5761489a6141c4565b5b5092915050565b7f596f7520646f6e2774206861766520656e6f7567682066756e64732e00000000600082015250565b60006148d8601c83613fdd565b91506148e3826148a2565b602082019050919050565b60006020820190508181036000830152614907816148cb565b9050919050565b7f4465616c6572206d757374207374616e64206f6e20313720616e64206869676860008201527f6572000000000000000000000000000000000000000000000000000000000000602082015250565b600061496a602283613fdd565b91506149758261490e565b604082019050919050565b600060208201905081810360008301526149998161495d565b9050919050565b7f506c617965722068617320616c72656164792073746f6f640000000000000000600082015250565b60006149d6601883613fdd565b91506149e1826149a0565b602082019050919050565b60006020820190508181036000830152614a05816149c9565b9050919050565b7f596f7527766520616c7265616479206275737465640000000000000000000000600082015250565b6000614a42601583613fdd565b9150614a4d82614a0c565b602082019050919050565b60006020820190508181036000830152614a7181614a35565b9050919050565b7f4e487b7100000000000000000000000000000000000000000000000000000000600052601260045260246000fd5b6000614ab282613f10565b9150614abd83613f10565b925082614acd57614acc614a78565b5b828204905092915050565b6000819050919050565b614af3614aee82613f10565b614ad8565b82525050565b600073ffffffffffffffffffffffffffffffffffffffff82169050919050565b6000614b2482614af9565b9050919050565b60008160601b9050919050565b6000614b4382614b2b565b9050919050565b6000614b5582614b38565b9050919050565b614b6d614b6882614b19565b614b4a565b82525050565b6000614b7f8286614ae2565b602082019150614b8f8285614b5c565b601482019150614b9f8284614ae2565b602082019150819050949350505050565b6000614bbb82613f10565b9150614bc683613f10565b925082614bd657614bd5614a78565b5b828206905092915050565b7f4e487b7100000000000000000000000000000000000000000000000000000000600052604160045260246000fdfea2646970667358221220eee365ba50016c5be44ba2176284ce374b34666aece97dfa3204373cfd23572264736f6c63430008110033",
			"opcodes": "PUSH1 0x80 PUSH1 0x40 MSTORE PUSH1 0x0 PUSH1 0x1 SSTORE PUSH1 0x0 PUSH1 0x2 SSTORE PUSH1 0x0 PUSH1 0x3 SSTORE PUSH1 0x0 PUSH1 0x4 SSTORE PUSH1 0x0 PUSH1 0x5 SSTORE PUSH1 0x0 PUSH1 0x6 SSTORE PUSH1 0x0 PUSH1 0x7 SSTORE PUSH1 0x0 PUSH1 0x58 SSTORE PUSH1 0x0 PUSH1 0x59 SSTORE PUSH1 0x0 PUSH1 0x5A SSTORE PUSH1 0x0 PUSH1 0x5B SSTORE PUSH1 0x0 PUSH1 0x5C SSTORE PUSH1 0x0 PUSH1 0x5D SSTORE PUSH1 0x0 PUSH1 0x5E SSTORE PUSH1 0x0 PUSH1 0x5F SSTORE PUSH1 0x0 PUSH1 0x60 SSTORE PUSH1 0x0 PUSH1 0x61 PUSH1 0x0 PUSH2 0x100 EXP DUP2 SLOAD DUP2 PUSH20 0xFFFFFFFFFFFFFFFFFFFFFFFFFFFFFFFFFFFFFFFF MUL NOT AND SWAP1 DUP4 PUSH20 0xFFFFFFFFFFFFFFFFFFFFFFFFFFFFFFFFFFFFFFFF AND MUL OR SWAP1 SSTORE POP PUSH1 0x0 PUSH1 0x62 PUSH1 0x0 PUSH2 0x100 EXP DUP2 SLOAD DUP2 PUSH20 0xFFFFFFFFFFFFFFFFFFFFFFFFFFFFFFFFFFFFFFFF MUL NOT AND SWAP1 DUP4 PUSH20 0xFFFFFFFFFFFFFFFFFFFFFFFFFFFFFFFFFFFFFFFF AND MUL OR SWAP1 SSTORE POP CALLVALUE DUP1 ISZERO PUSH2 0xE4 JUMPI PUSH1 0x0 DUP1 REVERT JUMPDEST POP PUSH2 0x4C46 DUP1 PUSH2 0xF4 PUSH1 0x0 CODECOPY PUSH1 0x0 RETURN INVALID PUSH1 0x80 PUSH1 0x40 MSTORE PUSH1 0x4 CALLDATASIZE LT PUSH2 0x181 JUMPI PUSH1 0x0 CALLDATALOAD PUSH1 0xE0 SHR DUP1 PUSH4 0x8914D63B GT PUSH2 0xD1 JUMPI DUP1 PUSH4 0xC2855A59 GT PUSH2 0x8A JUMPI DUP1 PUSH4 0xCDC7EA51 GT PUSH2 0x64 JUMPI DUP1 PUSH4 0xCDC7EA51 EQ PUSH2 0x510 JUMPI DUP1 PUSH4 0xD0017A0C EQ PUSH2 0x53B JUMPI DUP1 PUSH4 0xD24257C0 EQ PUSH2 0x566 JUMPI DUP1 PUSH4 0xDAE10ED5 EQ PUSH2 0x591 JUMPI PUSH2 0x181 JUMP JUMPDEST DUP1 PUSH4 0xC2855A59 EQ PUSH2 0x4B7 JUMPI DUP1 PUSH4 0xC5C3CD78 EQ PUSH2 0x4CE JUMPI DUP1 PUSH4 0xC9F09D38 EQ PUSH2 0x4F9 JUMPI PUSH2 0x181 JUMP JUMPDEST DUP1 PUSH4 0x8914D63B EQ PUSH2 0x3A5 JUMPI DUP1 PUSH4 0x8BBB236F EQ PUSH2 0x3D0 JUMPI DUP1 PUSH4 0x908A0979 EQ PUSH2 0x40D JUMPI DUP1 PUSH4 0xA10926D6 EQ PUSH2 0x438 JUMPI DUP1 PUSH4 0xA7E1F6A2 EQ PUSH2 0x463 JUMPI DUP1 PUSH4 0xBDBE451B EQ PUSH2 0x47A JUMPI PUSH2 0x181 JUMP JUMPDEST DUP1 PUSH4 0x3C3248D5 GT PUSH2 0x13E JUMPI DUP1 PUSH4 0x553DF021 GT PUSH2 0x118 JUMPI DUP1 PUSH4 0x553DF021 EQ PUSH2 0x31C JUMPI DUP1 PUSH4 0x5629365B EQ PUSH2 0x333 JUMPI DUP1 PUSH4 0x651F066A EQ PUSH2 0x34F JUMPI DUP1 PUSH4 0x67084EB3 EQ PUSH2 0x37A JUMPI PUSH2 0x181 JUMP JUMPDEST DUP1 PUSH4 0x3C3248D5 EQ PUSH2 0x289 JUMPI DUP1 PUSH4 0x3FB64E75 EQ PUSH2 0x2B4 JUMPI DUP1 PUSH4 0x53A218C9 EQ PUSH2 0x2DF JUMPI PUSH2 0x181 JUMP JUMPDEST DUP1 PUSH4 0x10FE7C48 EQ PUSH2 0x186 JUMPI DUP1 PUSH4 0x13BF01ED EQ PUSH2 0x1AF JUMPI DUP1 PUSH4 0x16DD37DD EQ PUSH2 0x1DA JUMPI DUP1 PUSH4 0x2626AB08 EQ PUSH2 0x217 JUMPI DUP1 PUSH4 0x325EB3F5 EQ PUSH2 0x242 JUMPI DUP1 PUSH4 0x3519A2F8 EQ PUSH2 0x26D JUMPI JUMPDEST PUSH1 0x0 DUP1 REVERT JUMPDEST CALLVALUE DUP1 ISZERO PUSH2 0x192 JUMPI PUSH1 0x0 DUP1 REVERT JUMPDEST POP PUSH2 0x1AD PUSH1 0x4 DUP1 CALLDATASIZE SUB DUP2 ADD SWAP1 PUSH2 0x1A8 SWAP2 SWAP1 PUSH2 0x3F46 JUMP JUMPDEST PUSH2 0x5A8 JUMP JUMPDEST STOP JUMPDEST CALLVALUE DUP1 ISZERO PUSH2 0x1BB JUMPI PUSH1 0x0 DUP1 REVERT JUMPDEST POP PUSH2 0x1C4 PUSH2 0x786 JUMP JUMPDEST PUSH1 0x40 MLOAD PUSH2 0x1D1 SWAP2 SWAP1 PUSH2 0x3F82 JUMP JUMPDEST PUSH1 0x40 MLOAD DUP1 SWAP2 SUB SWAP1 RETURN JUMPDEST CALLVALUE DUP1 ISZERO PUSH2 0x1E6 JUMPI PUSH1 0x0 DUP1 REVERT JUMPDEST POP PUSH2 0x201 PUSH1 0x4 DUP1 CALLDATASIZE SUB DUP2 ADD SWAP1 PUSH2 0x1FC SWAP2 SWAP1 PUSH2 0x3F9D JUMP JUMPDEST PUSH2 0x78C JUMP JUMPDEST PUSH1 0x40 MLOAD PUSH2 0x20E SWAP2 SWAP1 PUSH2 0x3F82 JUMP JUMPDEST PUSH1 0x40 MLOAD DUP1 SWAP2 SUB SWAP1 RETURN JUMPDEST CALLVALUE DUP1 ISZERO PUSH2 0x223 JUMPI PUSH1 0x0 DUP1 REVERT JUMPDEST POP PUSH2 0x22C PUSH2 0x7BA JUMP JUMPDEST PUSH1 0x40 MLOAD PUSH2 0x239 SWAP2 SWAP1 PUSH2 0x3F82 JUMP JUMPDEST PUSH1 0x40 MLOAD DUP1 SWAP2 SUB SWAP1 RETURN JUMPDEST CALLVALUE DUP1 ISZERO PUSH2 0x24E JUMPI PUSH1 0x0 DUP1 REVERT JUMPDEST POP PUSH2 0x257 PUSH2 0x7BF JUMP JUMPDEST PUSH1 0x40 MLOAD PUSH2 0x264 SWAP2 SWAP1 PUSH2 0x3F82 JUMP JUMPDEST PUSH1 0x40 MLOAD DUP1 SWAP2 SUB SWAP1 RETURN JUMPDEST PUSH2 0x287 PUSH1 0x4 DUP1 CALLDATASIZE SUB DUP2 ADD SWAP1 PUSH2 0x282 SWAP2 SWAP1 PUSH2 0x3F46 JUMP JUMPDEST PUSH2 0x7C5 JUMP JUMPDEST STOP JUMPDEST CALLVALUE DUP1 ISZERO PUSH2 0x295 JUMPI PUSH1 0x0 DUP1 REVERT JUMPDEST POP PUSH2 0x29E PUSH2 0xCF4 JUMP JUMPDEST PUSH1 0x40 MLOAD PUSH2 0x2AB SWAP2 SWAP1 PUSH2 0x3F82 JUMP JUMPDEST PUSH1 0x40 MLOAD DUP1 SWAP2 SUB SWAP1 RETURN JUMPDEST CALLVALUE DUP1 ISZERO PUSH2 0x2C0 JUMPI PUSH1 0x0 DUP1 REVERT JUMPDEST POP PUSH2 0x2C9 PUSH2 0xCFA JUMP JUMPDEST PUSH1 0x40 MLOAD PUSH2 0x2D6 SWAP2 SWAP1 PUSH2 0x3F82 JUMP JUMPDEST PUSH1 0x40 MLOAD DUP1 SWAP2 SUB SWAP1 RETURN JUMPDEST CALLVALUE DUP1 ISZERO PUSH2 0x2EB JUMPI PUSH1 0x0 DUP1 REVERT JUMPDEST POP PUSH2 0x306 PUSH1 0x4 DUP1 CALLDATASIZE SUB DUP2 ADD SWAP1 PUSH2 0x301 SWAP2 SWAP1 PUSH2 0x3F9D JUMP JUMPDEST PUSH2 0xD00 JUMP JUMPDEST PUSH1 0x40 MLOAD PUSH2 0x313 SWAP2 SWAP1 PUSH2 0x3F82 JUMP JUMPDEST PUSH1 0x40 MLOAD DUP1 SWAP2 SUB SWAP1 RETURN JUMPDEST CALLVALUE DUP1 ISZERO PUSH2 0x328 JUMPI PUSH1 0x0 DUP1 REVERT JUMPDEST POP PUSH2 0x331 PUSH2 0xD2E JUMP JUMPDEST STOP JUMPDEST PUSH2 0x34D PUSH1 0x4 DUP1 CALLDATASIZE SUB DUP2 ADD SWAP1 PUSH2 0x348 SWAP2 SWAP1 PUSH2 0x3F46 JUMP JUMPDEST PUSH2 0x121E JUMP JUMPDEST STOP JUMPDEST CALLVALUE DUP1 ISZERO PUSH2 0x35B JUMPI PUSH1 0x0 DUP1 REVERT JUMPDEST POP PUSH2 0x364 PUSH2 0x143C JUMP JUMPDEST PUSH1 0x40 MLOAD PUSH2 0x371 SWAP2 SWAP1 PUSH2 0x3F82 JUMP JUMPDEST PUSH1 0x40 MLOAD DUP1 SWAP2 SUB SWAP1 RETURN JUMPDEST CALLVALUE DUP1 ISZERO PUSH2 0x386 JUMPI PUSH1 0x0 DUP1 REVERT JUMPDEST POP PUSH2 0x38F PUSH2 0x1442 JUMP JUMPDEST PUSH1 0x40 MLOAD PUSH2 0x39C SWAP2 SWAP1 PUSH2 0x3F82 JUMP JUMPDEST PUSH1 0x40 MLOAD DUP1 SWAP2 SUB SWAP1 RETURN JUMPDEST CALLVALUE DUP1 ISZERO PUSH2 0x3B1 JUMPI PUSH1 0x0 DUP1 REVERT JUMPDEST POP PUSH2 0x3BA PUSH2 0x1448 JUMP JUMPDEST PUSH1 0x40 MLOAD PUSH2 0x3C7 SWAP2 SWAP1 PUSH2 0x3F82 JUMP JUMPDEST PUSH1 0x40 MLOAD DUP1 SWAP2 SUB SWAP1 RETURN JUMPDEST CALLVALUE DUP1 ISZERO PUSH2 0x3DC JUMPI PUSH1 0x0 DUP1 REVERT JUMPDEST POP PUSH2 0x3F7 PUSH1 0x4 DUP1 CALLDATASIZE SUB DUP2 ADD SWAP1 PUSH2 0x3F2 SWAP2 SWAP1 PUSH2 0x3F9D JUMP JUMPDEST PUSH2 0x144E JUMP JUMPDEST PUSH1 0x40 MLOAD PUSH2 0x404 SWAP2 SWAP1 PUSH2 0x3F82 JUMP JUMPDEST PUSH1 0x40 MLOAD DUP1 SWAP2 SUB SWAP1 RETURN JUMPDEST CALLVALUE DUP1 ISZERO PUSH2 0x419 JUMPI PUSH1 0x0 DUP1 REVERT JUMPDEST POP PUSH2 0x422 PUSH2 0x147C JUMP JUMPDEST PUSH1 0x40 MLOAD PUSH2 0x42F SWAP2 SWAP1 PUSH2 0x3F82 JUMP JUMPDEST PUSH1 0x40 MLOAD DUP1 SWAP2 SUB SWAP1 RETURN JUMPDEST CALLVALUE DUP1 ISZERO PUSH2 0x444 JUMPI PUSH1 0x0 DUP1 REVERT JUMPDEST POP PUSH2 0x44D PUSH2 0x1482 JUMP JUMPDEST PUSH1 0x40 MLOAD PUSH2 0x45A SWAP2 SWAP1 PUSH2 0x3F82 JUMP JUMPDEST PUSH1 0x40 MLOAD DUP1 SWAP2 SUB SWAP1 RETURN JUMPDEST CALLVALUE DUP1 ISZERO PUSH2 0x46F JUMPI PUSH1 0x0 DUP1 REVERT JUMPDEST POP PUSH2 0x478 PUSH2 0x1488 JUMP JUMPDEST STOP JUMPDEST CALLVALUE DUP1 ISZERO PUSH2 0x486 JUMPI PUSH1 0x0 DUP1 REVERT JUMPDEST POP PUSH2 0x4A1 PUSH1 0x4 DUP1 CALLDATASIZE SUB DUP2 ADD SWAP1 PUSH2 0x49C SWAP2 SWAP1 PUSH2 0x3F9D JUMP JUMPDEST PUSH2 0x15A1 JUMP JUMPDEST PUSH1 0x40 MLOAD PUSH2 0x4AE SWAP2 SWAP1 PUSH2 0x3F82 JUMP JUMPDEST PUSH1 0x40 MLOAD DUP1 SWAP2 SUB SWAP1 RETURN JUMPDEST CALLVALUE DUP1 ISZERO PUSH2 0x4C3 JUMPI PUSH1 0x0 DUP1 REVERT JUMPDEST POP PUSH2 0x4CC PUSH2 0x15CF JUMP JUMPDEST STOP JUMPDEST CALLVALUE DUP1 ISZERO PUSH2 0x4DA JUMPI PUSH1 0x0 DUP1 REVERT JUMPDEST POP PUSH2 0x4E3 PUSH2 0x18FF JUMP JUMPDEST PUSH1 0x40 MLOAD PUSH2 0x4F0 SWAP2 SWAP1 PUSH2 0x3F82 JUMP JUMPDEST PUSH1 0x40 MLOAD DUP1 SWAP2 SUB SWAP1 RETURN JUMPDEST CALLVALUE DUP1 ISZERO PUSH2 0x505 JUMPI PUSH1 0x0 DUP1 REVERT JUMPDEST POP PUSH2 0x50E PUSH2 0x1905 JUMP JUMPDEST STOP JUMPDEST CALLVALUE DUP1 ISZERO PUSH2 0x51C JUMPI PUSH1 0x0 DUP1 REVERT JUMPDEST POP PUSH2 0x525 PUSH2 0x19FC JUMP JUMPDEST PUSH1 0x40 MLOAD PUSH2 0x532 SWAP2 SWAP1 PUSH2 0x3F82 JUMP JUMPDEST PUSH1 0x40 MLOAD DUP1 SWAP2 SUB SWAP1 RETURN JUMPDEST CALLVALUE DUP1 ISZERO PUSH2 0x547 JUMPI PUSH1 0x0 DUP1 REVERT JUMPDEST POP PUSH2 0x550 PUSH2 0x1A02 JUMP JUMPDEST PUSH1 0x40 MLOAD PUSH2 0x55D SWAP2 SWAP1 PUSH2 0x3F82 JUMP JUMPDEST PUSH1 0x40 MLOAD DUP1 SWAP2 SUB SWAP1 RETURN JUMPDEST CALLVALUE DUP1 ISZERO PUSH2 0x572 JUMPI PUSH1 0x0 DUP1 REVERT JUMPDEST POP PUSH2 0x57B PUSH2 0x1A0E JUMP JUMPDEST PUSH1 0x40 MLOAD PUSH2 0x588 SWAP2 SWAP1 PUSH2 0x3F82 JUMP JUMPDEST PUSH1 0x40 MLOAD DUP1 SWAP2 SUB SWAP1 RETURN JUMPDEST CALLVALUE DUP1 ISZERO PUSH2 0x59D JUMPI PUSH1 0x0 DUP1 REVERT JUMPDEST POP PUSH2 0x5A6 PUSH2 0x1A14 JUMP JUMPDEST STOP JUMPDEST DUP1 PUSH1 0x1 DUP2 LT ISZERO DUP1 ISZERO PUSH2 0x5C2 JUMPI POP PUSH8 0xDE0B6B3A7640000 DUP2 GT ISZERO JUMPDEST PUSH2 0x5CB JUMPI PUSH1 0x0 DUP1 REVERT JUMPDEST PUSH1 0x3 SLOAD DUP2 GT ISZERO PUSH2 0x610 JUMPI PUSH1 0x40 MLOAD PUSH32 0x8C379A000000000000000000000000000000000000000000000000000000000 DUP2 MSTORE PUSH1 0x4 ADD PUSH2 0x607 SWAP1 PUSH2 0x4060 JUMP JUMPDEST PUSH1 0x40 MLOAD DUP1 SWAP2 SUB SWAP1 REVERT JUMPDEST PUSH1 0x61 PUSH1 0x0 SWAP1 SLOAD SWAP1 PUSH2 0x100 EXP SWAP1 DIV PUSH20 0xFFFFFFFFFFFFFFFFFFFFFFFFFFFFFFFFFFFFFFFF AND PUSH20 0xFFFFFFFFFFFFFFFFFFFFFFFFFFFFFFFFFFFFFFFF AND CALLER PUSH20 0xFFFFFFFFFFFFFFFFFFFFFFFFFFFFFFFFFFFFFFFF AND EQ PUSH2 0x6A0 JUMPI PUSH1 0x40 MLOAD PUSH32 0x8C379A000000000000000000000000000000000000000000000000000000000 DUP2 MSTORE PUSH1 0x4 ADD PUSH2 0x697 SWAP1 PUSH2 0x40CC JUMP JUMPDEST PUSH1 0x40 MLOAD DUP1 SWAP2 SUB SWAP1 REVERT JUMPDEST PUSH1 0x0 PUSH1 0x4 SLOAD EQ PUSH2 0x6E5 JUMPI PUSH1 0x40 MLOAD PUSH32 0x8C379A000000000000000000000000000000000000000000000000000000000 DUP2 MSTORE PUSH1 0x4 ADD PUSH2 0x6DC SWAP1 PUSH2 0x4138 JUMP JUMPDEST PUSH1 0x40 MLOAD DUP1 SWAP2 SUB SWAP1 REVERT JUMPDEST PUSH1 0x0 DUP1 SLOAD SWAP1 PUSH2 0x100 EXP SWAP1 DIV PUSH1 0xFF AND ISZERO PUSH2 0x733 JUMPI PUSH1 0x40 MLOAD PUSH32 0x8C379A000000000000000000000000000000000000000000000000000000000 DUP2 MSTORE PUSH1 0x4 ADD PUSH2 0x72A SWAP1 PUSH2 0x41A4 JUMP JUMPDEST PUSH1 0x40 MLOAD DUP1 SWAP2 SUB SWAP1 REVERT JUMPDEST PUSH1 0x1 PUSH1 0x0 DUP1 PUSH2 0x100 EXP DUP2 SLOAD DUP2 PUSH1 0xFF MUL NOT AND SWAP1 DUP4 ISZERO ISZERO MUL OR SWAP1 SSTORE POP DUP2 PUSH1 0x3 SLOAD PUSH2 0x75B SWAP2 SWAP1 PUSH2 0x41F3 JUMP JUMPDEST PUSH1 0x3 DUP2 SWAP1 SSTORE POP DUP2 PUSH1 0x4 DUP2 SWAP1 SSTORE POP PUSH1 0x0 DUP1 PUSH1 0x0 PUSH2 0x100 EXP DUP2 SLOAD DUP2 PUSH1 0xFF MUL NOT AND SWAP1 DUP4 ISZERO ISZERO MUL OR SWAP1 SSTORE POP POP POP JUMP JUMPDEST PUSH1 0x5D SLOAD DUP2 JUMP JUMPDEST PUSH1 0x48 DUP3 PUSH1 0x2 DUP2 LT PUSH2 0x79C JUMPI PUSH1 0x0 DUP1 REVERT JUMPDEST PUSH1 0x2 MUL ADD DUP2 PUSH1 0x2 DUP2 LT PUSH2 0x7AE JUMPI PUSH1 0x0 DUP1 REVERT JUMPDEST ADD PUSH1 0x0 SWAP2 POP SWAP2 POP POP SLOAD DUP2 JUMP JUMPDEST PUSH1 0x1 DUP2 JUMP JUMPDEST PUSH1 0x5A SLOAD DUP2 JUMP JUMPDEST DUP1 PUSH1 0x0 PUSH20 0xFFFFFFFFFFFFFFFFFFFFFFFFFFFFFFFFFFFFFFFF AND PUSH1 0x62 PUSH1 0x0 SWAP1 SLOAD SWAP1 PUSH2 0x100 EXP SWAP1 DIV PUSH20 0xFFFFFFFFFFFFFFFFFFFFFFFFFFFFFFFFFFFFFFFF AND PUSH20 0xFFFFFFFFFFFFFFFFFFFFFFFFFFFFFFFFFFFFFFFF AND EQ DUP1 PUSH2 0x871 JUMPI POP PUSH1 0x0 PUSH20 0xFFFFFFFFFFFFFFFFFFFFFFFFFFFFFFFFFFFFFFFF AND PUSH1 0x61 PUSH1 0x0 SWAP1 SLOAD SWAP1 PUSH2 0x100 EXP SWAP1 DIV PUSH20 0xFFFFFFFFFFFFFFFFFFFFFFFFFFFFFFFFFFFFFFFF AND PUSH20 0xFFFFFFFFFFFFFFFFFFFFFFFFFFFFFFFFFFFFFFFF AND EQ JUMPDEST DUP1 PUSH2 0x8C9 JUMPI POP PUSH1 0x62 PUSH1 0x0 SWAP1 SLOAD SWAP1 PUSH2 0x100 EXP SWAP1 DIV PUSH20 0xFFFFFFFFFFFFFFFFFFFFFFFFFFFFFFFFFFFFFFFF AND PUSH20 0xFFFFFFFFFFFFFFFFFFFFFFFFFFFFFFFFFFFFFFFF AND CALLER PUSH20 0xFFFFFFFFFFFFFFFFFFFFFFFFFFFFFFFFFFFFFFFF AND EQ JUMPDEST DUP1 PUSH2 0x921 JUMPI POP PUSH1 0x61 PUSH1 0x0 SWAP1 SLOAD SWAP1 PUSH2 0x100 EXP SWAP1 DIV PUSH20 0xFFFFFFFFFFFFFFFFFFFFFFFFFFFFFFFFFFFFFFFF AND PUSH20 0xFFFFFFFFFFFFFFFFFFFFFFFFFFFFFFFFFFFFFFFF AND CALLER PUSH20 0xFFFFFFFFFFFFFFFFFFFFFFFFFFFFFFFFFFFFFFFF AND EQ JUMPDEST PUSH2 0x960 JUMPI PUSH1 0x40 MLOAD PUSH32 0x8C379A000000000000000000000000000000000000000000000000000000000 DUP2 MSTORE PUSH1 0x4 ADD PUSH2 0x957 SWAP1 PUSH2 0x4299 JUMP JUMPDEST PUSH1 0x40 MLOAD DUP1 SWAP2 SUB SWAP1 REVERT JUMPDEST PUSH1 0x0 DUP2 EQ DUP1 PUSH2 0x96F JUMPI POP PUSH1 0x1 DUP2 EQ JUMPDEST PUSH2 0x9AE JUMPI PUSH1 0x40 MLOAD PUSH32 0x8C379A000000000000000000000000000000000000000000000000000000000 DUP2 MSTORE PUSH1 0x4 ADD PUSH2 0x9A5 SWAP1 PUSH2 0x432B JUMP JUMPDEST PUSH1 0x40 MLOAD DUP1 SWAP2 SUB SWAP1 REVERT JUMPDEST PUSH1 0x0 DUP3 SUB PUSH2 0xB4F JUMPI PUSH1 0x62 PUSH1 0x0 SWAP1 SLOAD SWAP1 PUSH2 0x100 EXP SWAP1 DIV PUSH20 0xFFFFFFFFFFFFFFFFFFFFFFFFFFFFFFFFFFFFFFFF AND PUSH20 0xFFFFFFFFFFFFFFFFFFFFFFFFFFFFFFFFFFFFFFFF AND CALLER PUSH20 0xFFFFFFFFFFFFFFFFFFFFFFFFFFFFFFFFFFFFFFFF AND EQ DUP1 PUSH2 0xA60 JUMPI POP PUSH1 0x0 PUSH20 0xFFFFFFFFFFFFFFFFFFFFFFFFFFFFFFFFFFFFFFFF AND PUSH1 0x62 PUSH1 0x0 SWAP1 SLOAD SWAP1 PUSH2 0x100 EXP SWAP1 DIV PUSH20 0xFFFFFFFFFFFFFFFFFFFFFFFFFFFFFFFFFFFFFFFF AND PUSH20 0xFFFFFFFFFFFFFFFFFFFFFFFFFFFFFFFFFFFFFFFF AND EQ JUMPDEST DUP1 ISZERO PUSH2 0xABA JUMPI POP PUSH1 0x61 PUSH1 0x0 SWAP1 SLOAD SWAP1 PUSH2 0x100 EXP SWAP1 DIV PUSH20 0xFFFFFFFFFFFFFFFFFFFFFFFFFFFFFFFFFFFFFFFF AND PUSH20 0xFFFFFFFFFFFFFFFFFFFFFFFFFFFFFFFFFFFFFFFF AND CALLER PUSH20 0xFFFFFFFFFFFFFFFFFFFFFFFFFFFFFFFFFFFFFFFF AND EQ ISZERO JUMPDEST PUSH2 0xAF9 JUMPI PUSH1 0x40 MLOAD PUSH32 0x8C379A000000000000000000000000000000000000000000000000000000000 DUP2 MSTORE PUSH1 0x4 ADD PUSH2 0xAF0 SWAP1 PUSH2 0x43BD JUMP JUMPDEST PUSH1 0x40 MLOAD DUP1 SWAP2 SUB SWAP1 REVERT JUMPDEST CALLER PUSH1 0x62 PUSH1 0x0 PUSH2 0x100 EXP DUP2 SLOAD DUP2 PUSH20 0xFFFFFFFFFFFFFFFFFFFFFFFFFFFFFFFFFFFFFFFF MUL NOT AND SWAP1 DUP4 PUSH20 0xFFFFFFFFFFFFFFFFFFFFFFFFFFFFFFFFFFFFFFFF AND MUL OR SWAP1 SSTORE POP CALLVALUE PUSH1 0x2 SLOAD PUSH2 0xB48 SWAP2 SWAP1 PUSH2 0x43DD JUMP JUMPDEST PUSH1 0x2 DUP2 SWAP1 SSTORE POP JUMPDEST PUSH1 0x1 DUP3 SUB PUSH2 0xCF0 JUMPI PUSH1 0x61 PUSH1 0x0 SWAP1 SLOAD SWAP1 PUSH2 0x100 EXP SWAP1 DIV PUSH20 0xFFFFFFFFFFFFFFFFFFFFFFFFFFFFFFFFFFFFFFFF AND PUSH20 0xFFFFFFFFFFFFFFFFFFFFFFFFFFFFFFFFFFFFFFFF AND CALLER PUSH20 0xFFFFFFFFFFFFFFFFFFFFFFFFFFFFFFFFFFFFFFFF AND EQ DUP1 PUSH2 0xC01 JUMPI POP PUSH1 0x0 PUSH20 0xFFFFFFFFFFFFFFFFFFFFFFFFFFFFFFFFFFFFFFFF AND PUSH1 0x61 PUSH1 0x0 SWAP1 SLOAD SWAP1 PUSH2 0x100 EXP SWAP1 DIV PUSH20 0xFFFFFFFFFFFFFFFFFFFFFFFFFFFFFFFFFFFFFFFF AND PUSH20 0xFFFFFFFFFFFFFFFFFFFFFFFFFFFFFFFFFFFFFFFF AND EQ JUMPDEST DUP1 ISZERO PUSH2 0xC5B JUMPI POP PUSH1 0x62 PUSH1 0x0 SWAP1 SLOAD SWAP1 PUSH2 0x100 EXP SWAP1 DIV PUSH20 0xFFFFFFFFFFFFFFFFFFFFFFFFFFFFFFFFFFFFFFFF AND PUSH20 0xFFFFFFFFFFFFFFFFFFFFFFFFFFFFFFFFFFFFFFFF AND CALLER PUSH20 0xFFFFFFFFFFFFFFFFFFFFFFFFFFFFFFFFFFFFFFFF AND EQ ISZERO JUMPDEST PUSH2 0xC9A JUMPI PUSH1 0x40 MLOAD PUSH32 0x8C379A000000000000000000000000000000000000000000000000000000000 DUP2 MSTORE PUSH1 0x4 ADD PUSH2 0xC91 SWAP1 PUSH2 0x4483 JUMP JUMPDEST PUSH1 0x40 MLOAD DUP1 SWAP2 SUB SWAP1 REVERT JUMPDEST CALLER PUSH1 0x61 PUSH1 0x0 PUSH2 0x100 EXP DUP2 SLOAD DUP2 PUSH20 0xFFFFFFFFFFFFFFFFFFFFFFFFFFFFFFFFFFFFFFFF MUL NOT AND SWAP1 DUP4 PUSH20 0xFFFFFFFFFFFFFFFFFFFFFFFFFFFFFFFFFFFFFFFF AND MUL OR SWAP1 SSTORE POP CALLVALUE PUSH1 0x3 SLOAD PUSH2 0xCE9 SWAP2 SWAP1 PUSH2 0x43DD JUMP JUMPDEST PUSH1 0x3 DUP2 SWAP1 SSTORE POP JUMPDEST POP POP JUMP JUMPDEST PUSH1 0x5E SLOAD DUP2 JUMP JUMPDEST PUSH1 0x1 SLOAD DUP2 JUMP JUMPDEST PUSH1 0x4C DUP3 PUSH1 0x2 DUP2 LT PUSH2 0xD10 JUMPI PUSH1 0x0 DUP1 REVERT JUMPDEST PUSH1 0x2 MUL ADD DUP2 PUSH1 0x2 DUP2 LT PUSH2 0xD22 JUMPI PUSH1 0x0 DUP1 REVERT JUMPDEST ADD PUSH1 0x0 SWAP2 POP SWAP2 POP POP SLOAD DUP2 JUMP JUMPDEST PUSH1 0x0 DUP1 SLOAD SWAP1 PUSH2 0x100 EXP SWAP1 DIV PUSH1 0xFF AND ISZERO PUSH2 0xD7C JUMPI PUSH1 0x40 MLOAD PUSH32 0x8C379A000000000000000000000000000000000000000000000000000000000 DUP2 MSTORE PUSH1 0x4 ADD PUSH2 0xD73 SWAP1 PUSH2 0x41A4 JUMP JUMPDEST PUSH1 0x40 MLOAD DUP1 SWAP2 SUB SWAP1 REVERT JUMPDEST PUSH1 0x1 PUSH1 0x0 DUP1 PUSH2 0x100 EXP DUP2 SLOAD DUP2 PUSH1 0xFF MUL NOT AND SWAP1 DUP4 ISZERO ISZERO MUL OR SWAP1 SSTORE POP PUSH1 0x0 PUSH1 0x4 SLOAD GT PUSH2 0xDDB JUMPI PUSH1 0x40 MLOAD PUSH32 0x8C379A000000000000000000000000000000000000000000000000000000000 DUP2 MSTORE PUSH1 0x4 ADD PUSH2 0xDD2 SWAP1 PUSH2 0x4515 JUMP JUMPDEST PUSH1 0x40 MLOAD DUP1 SWAP2 SUB SWAP1 REVERT JUMPDEST PUSH1 0x1 DUP1 DUP2 SWAP1 SSTORE POP PUSH1 0x0 PUSH1 0x5E DUP2 SWAP1 SSTORE POP PUSH1 0x0 PUSH1 0x5A DUP2 SWAP1 SSTORE POP PUSH1 0x0 PUSH1 0x5B DUP2 SWAP1 SSTORE POP PUSH1 0x0 PUSH1 0x5E DUP2 SWAP1 SSTORE POP PUSH1 0x0 PUSH1 0x5F DUP2 SWAP1 SSTORE POP PUSH1 0x0 PUSH1 0x5D DUP2 SWAP1 SSTORE POP PUSH1 0x0 PUSH1 0x5C DUP2 SWAP1 SSTORE POP PUSH1 0x0 PUSH1 0x48 PUSH1 0x1 PUSH1 0x2 DUP2 LT PUSH2 0xE31 JUMPI PUSH2 0xE30 PUSH2 0x4535 JUMP JUMPDEST JUMPDEST PUSH1 0x2 MUL ADD PUSH1 0x0 PUSH1 0x2 DUP2 LT PUSH2 0xE48 JUMPI PUSH2 0xE47 PUSH2 0x4535 JUMP JUMPDEST JUMPDEST ADD DUP2 SWAP1 SSTORE POP PUSH1 0x0 PUSH1 0x48 PUSH1 0x1 PUSH1 0x2 DUP2 LT PUSH2 0xE64 JUMPI PUSH2 0xE63 PUSH2 0x4535 JUMP JUMPDEST JUMPDEST PUSH1 0x2 MUL ADD PUSH1 0x1 PUSH1 0x2 DUP2 LT PUSH2 0xE7B JUMPI PUSH2 0xE7A PUSH2 0x4535 JUMP JUMPDEST JUMPDEST ADD DUP2 SWAP1 SSTORE POP PUSH1 0x0 PUSH1 0x1 SWAP1 POP JUMPDEST PUSH1 0xF DUP2 GT PUSH2 0xFD8 JUMPI PUSH1 0x0 PUSH1 0x8 DUP3 PUSH1 0x10 DUP2 LT PUSH2 0xEA5 JUMPI PUSH2 0xEA4 PUSH2 0x4535 JUMP JUMPDEST JUMPDEST PUSH1 0x2 MUL ADD PUSH1 0x0 PUSH1 0x2 DUP2 LT PUSH2 0xEBC JUMPI PUSH2 0xEBB PUSH2 0x4535 JUMP JUMPDEST JUMPDEST ADD DUP2 SWAP1 SSTORE POP PUSH1 0x0 PUSH1 0x8 DUP3 PUSH1 0x10 DUP2 LT PUSH2 0xED7 JUMPI PUSH2 0xED6 PUSH2 0x4535 JUMP JUMPDEST JUMPDEST PUSH1 0x2 MUL ADD PUSH1 0x1 PUSH1 0x2 DUP2 LT PUSH2 0xEEE JUMPI PUSH2 0xEED PUSH2 0x4535 JUMP JUMPDEST JUMPDEST ADD DUP2 SWAP1 SSTORE POP PUSH1 0x0 PUSH1 0x28 DUP3 PUSH1 0x10 DUP2 LT PUSH2 0xF09 JUMPI PUSH2 0xF08 PUSH2 0x4535 JUMP JUMPDEST JUMPDEST PUSH1 0x2 MUL ADD PUSH1 0x0 PUSH1 0x2 DUP2 LT PUSH2 0xF20 JUMPI PUSH2 0xF1F PUSH2 0x4535 JUMP JUMPDEST JUMPDEST ADD DUP2 SWAP1 SSTORE POP PUSH1 0x0 PUSH1 0x28 DUP3 PUSH1 0x10 DUP2 LT PUSH2 0xF3B JUMPI PUSH2 0xF3A PUSH2 0x4535 JUMP JUMPDEST JUMPDEST PUSH1 0x2 MUL ADD PUSH1 0x1 PUSH1 0x2 DUP2 LT PUSH2 0xF52 JUMPI PUSH2 0xF51 PUSH2 0x4535 JUMP JUMPDEST JUMPDEST ADD DUP2 SWAP1 SSTORE POP PUSH1 0x4 DUP2 LT ISZERO PUSH2 0xFC5 JUMPI PUSH1 0x0 PUSH1 0x50 DUP3 PUSH1 0x4 DUP2 LT PUSH2 0xF76 JUMPI PUSH2 0xF75 PUSH2 0x4535 JUMP JUMPDEST JUMPDEST PUSH1 0x2 MUL ADD PUSH1 0x0 PUSH1 0x2 DUP2 LT PUSH2 0xF8D JUMPI PUSH2 0xF8C PUSH2 0x4535 JUMP JUMPDEST JUMPDEST ADD DUP2 SWAP1 SSTORE POP PUSH1 0x0 PUSH1 0x50 DUP3 PUSH1 0x4 DUP2 LT PUSH2 0xFA8 JUMPI PUSH2 0xFA7 PUSH2 0x4535 JUMP JUMPDEST JUMPDEST PUSH1 0x2 MUL ADD PUSH1 0x1 PUSH1 0x2 DUP2 LT PUSH2 0xFBF JUMPI PUSH2 0xFBE PUSH2 0x4535 JUMP JUMPDEST JUMPDEST ADD DUP2 SWAP1 SSTORE POP JUMPDEST DUP1 DUP1 PUSH2 0xFD0 SWAP1 PUSH2 0x4564 JUMP JUMPDEST SWAP2 POP POP PUSH2 0xE87 JUMP JUMPDEST POP PUSH2 0xFE3 PUSH1 0x3 PUSH2 0x1DB1 JUMP JUMPDEST PUSH2 0x1061 PUSH1 0x50 PUSH1 0x4 DUP1 PUSH1 0x20 MUL PUSH1 0x40 MLOAD SWAP1 DUP2 ADD PUSH1 0x40 MSTORE DUP1 SWAP3 SWAP2 SWAP1 PUSH1 0x0 SWAP1 JUMPDEST DUP3 DUP3 LT ISZERO PUSH2 0x1058 JUMPI DUP4 DUP3 PUSH1 0x2 MUL ADD PUSH1 0x2 DUP1 PUSH1 0x20 MUL PUSH1 0x40 MLOAD SWAP1 DUP2 ADD PUSH1 0x40 MSTORE DUP1 SWAP3 SWAP2 SWAP1 DUP3 PUSH1 0x2 DUP1 ISZERO PUSH2 0x1044 JUMPI PUSH1 0x20 MUL DUP3 ADD SWAP2 JUMPDEST DUP2 SLOAD DUP2 MSTORE PUSH1 0x20 ADD SWAP1 PUSH1 0x1 ADD SWAP1 DUP1 DUP4 GT PUSH2 0x1030 JUMPI JUMPDEST POP POP POP POP POP DUP2 MSTORE PUSH1 0x20 ADD SWAP1 PUSH1 0x1 ADD SWAP1 PUSH2 0xFFF JUMP JUMPDEST POP POP POP POP PUSH2 0x206F JUMP JUMPDEST PUSH1 0x50 SWAP1 PUSH1 0x4 PUSH2 0x1071 SWAP3 SWAP2 SWAP1 PUSH2 0x3DDC JUMP JUMPDEST POP PUSH2 0x10D8 PUSH1 0x50 PUSH1 0x1 PUSH1 0x4 DUP2 LT PUSH2 0x108A JUMPI PUSH2 0x1089 PUSH2 0x4535 JUMP JUMPDEST JUMPDEST PUSH1 0x2 MUL ADD PUSH1 0x0 PUSH1 0x2 DUP2 LT PUSH2 0x10A1 JUMPI PUSH2 0x10A0 PUSH2 0x4535 JUMP JUMPDEST JUMPDEST ADD SLOAD PUSH1 0x50 PUSH1 0x1 PUSH1 0x4 DUP2 LT PUSH2 0x10B8 JUMPI PUSH2 0x10B7 PUSH2 0x4535 JUMP JUMPDEST JUMPDEST PUSH1 0x2 MUL ADD PUSH1 0x1 PUSH1 0x2 DUP2 LT PUSH2 0x10CF JUMPI PUSH2 0x10CE PUSH2 0x4535 JUMP JUMPDEST JUMPDEST ADD SLOAD PUSH1 0x1 PUSH2 0x23D1 JUMP JUMPDEST PUSH2 0x113E PUSH1 0x50 PUSH1 0x2 PUSH1 0x4 DUP2 LT PUSH2 0x10F0 JUMPI PUSH2 0x10EF PUSH2 0x4535 JUMP JUMPDEST JUMPDEST PUSH1 0x2 MUL ADD PUSH1 0x0 PUSH1 0x2 DUP2 LT PUSH2 0x1107 JUMPI PUSH2 0x1106 PUSH2 0x4535 JUMP JUMPDEST JUMPDEST ADD SLOAD PUSH1 0x50 PUSH1 0x2 PUSH1 0x4 DUP2 LT PUSH2 0x111E JUMPI PUSH2 0x111D PUSH2 0x4535 JUMP JUMPDEST JUMPDEST PUSH1 0x2 MUL ADD PUSH1 0x1 PUSH1 0x2 DUP2 LT PUSH2 0x1135 JUMPI PUSH2 0x1134 PUSH2 0x4535 JUMP JUMPDEST JUMPDEST ADD SLOAD PUSH1 0x1 PUSH2 0x24BC JUMP JUMPDEST PUSH2 0x11A4 PUSH1 0x50 PUSH1 0x3 PUSH1 0x4 DUP2 LT PUSH2 0x1156 JUMPI PUSH2 0x1155 PUSH2 0x4535 JUMP JUMPDEST JUMPDEST PUSH1 0x2 MUL ADD PUSH1 0x0 PUSH1 0x2 DUP2 LT PUSH2 0x116D JUMPI PUSH2 0x116C PUSH2 0x4535 JUMP JUMPDEST JUMPDEST ADD SLOAD PUSH1 0x50 PUSH1 0x3 PUSH1 0x4 DUP2 LT PUSH2 0x1184 JUMPI PUSH2 0x1183 PUSH2 0x4535 JUMP JUMPDEST JUMPDEST PUSH1 0x2 MUL ADD PUSH1 0x1 PUSH1 0x2 DUP2 LT PUSH2 0x119B JUMPI PUSH2 0x119A PUSH2 0x4535 JUMP JUMPDEST JUMPDEST ADD SLOAD PUSH1 0x2 PUSH2 0x23D1 JUMP JUMPDEST PUSH2 0x11AC PUSH2 0x25A7 JUMP JUMPDEST PUSH2 0x11B4 PUSH2 0x281C JUMP JUMPDEST PUSH2 0x11BC PUSH2 0x2A91 JUMP JUMPDEST PUSH2 0x11C4 PUSH2 0x3015 JUMP JUMPDEST PUSH1 0x15 PUSH1 0x48 PUSH1 0x1 PUSH1 0x2 DUP2 LT PUSH2 0x11DB JUMPI PUSH2 0x11DA PUSH2 0x4535 JUMP JUMPDEST JUMPDEST PUSH1 0x2 MUL ADD PUSH1 0x1 PUSH1 0x2 DUP2 LT PUSH2 0x11F2 JUMPI PUSH2 0x11F1 PUSH2 0x4535 JUMP JUMPDEST JUMPDEST ADD SLOAD SUB PUSH2 0x1202 JUMPI PUSH2 0x1201 PUSH2 0x34CB JUMP JUMPDEST JUMPDEST PUSH1 0x0 DUP1 PUSH1 0x0 PUSH2 0x100 EXP DUP2 SLOAD DUP2 PUSH1 0xFF MUL NOT AND SWAP1 DUP4 ISZERO ISZERO MUL OR SWAP1 SSTORE POP JUMP JUMPDEST DUP1 PUSH1 0x0 PUSH1 0x3 SLOAD GT PUSH2 0x1264 JUMPI PUSH1 0x40 MLOAD PUSH32 0x8C379A000000000000000000000000000000000000000000000000000000000 DUP2 MSTORE PUSH1 0x4 ADD PUSH2 0x125B SWAP1 PUSH2 0x461E JUMP JUMPDEST PUSH1 0x40 MLOAD DUP1 SWAP2 SUB SWAP1 REVERT JUMPDEST PUSH1 0x61 PUSH1 0x0 SWAP1 SLOAD SWAP1 PUSH2 0x100 EXP SWAP1 DIV PUSH20 0xFFFFFFFFFFFFFFFFFFFFFFFFFFFFFFFFFFFFFFFF AND PUSH20 0xFFFFFFFFFFFFFFFFFFFFFFFFFFFFFFFFFFFFFFFF AND CALLER PUSH20 0xFFFFFFFFFFFFFFFFFFFFFFFFFFFFFFFFFFFFFFFF AND EQ PUSH2 0x12F4 JUMPI PUSH1 0x40 MLOAD PUSH32 0x8C379A000000000000000000000000000000000000000000000000000000000 DUP2 MSTORE PUSH1 0x4 ADD PUSH2 0x12EB SWAP1 PUSH2 0x46B0 JUMP JUMPDEST PUSH1 0x40 MLOAD DUP1 SWAP2 SUB SWAP1 REVERT JUMPDEST PUSH1 0x3 SLOAD DUP2 GT ISZERO PUSH2 0x1339 JUMPI PUSH1 0x40 MLOAD PUSH32 0x8C379A000000000000000000000000000000000000000000000000000000000 DUP2 MSTORE PUSH1 0x4 ADD PUSH2 0x1330 SWAP1 PUSH2 0x4742 JUMP JUMPDEST PUSH1 0x40 MLOAD DUP1 SWAP2 SUB SWAP1 REVERT JUMPDEST PUSH1 0x0 DUP1 SLOAD SWAP1 PUSH2 0x100 EXP SWAP1 DIV PUSH1 0xFF AND ISZERO PUSH2 0x1387 JUMPI PUSH1 0x40 MLOAD PUSH32 0x8C379A000000000000000000000000000000000000000000000000000000000 DUP2 MSTORE PUSH1 0x4 ADD PUSH2 0x137E SWAP1 PUSH2 0x41A4 JUMP JUMPDEST PUSH1 0x40 MLOAD DUP1 SWAP2 SUB SWAP1 REVERT JUMPDEST PUSH1 0x1 PUSH1 0x0 DUP1 PUSH2 0x100 EXP DUP2 SLOAD DUP2 PUSH1 0xFF MUL NOT AND SWAP1 DUP4 ISZERO ISZERO MUL OR SWAP1 SSTORE POP DUP2 PUSH1 0x3 SLOAD PUSH2 0x13AF SWAP2 SWAP1 PUSH2 0x41F3 JUMP JUMPDEST PUSH1 0x3 DUP2 SWAP1 SSTORE POP PUSH1 0x61 PUSH1 0x0 SWAP1 SLOAD SWAP1 PUSH2 0x100 EXP SWAP1 DIV PUSH20 0xFFFFFFFFFFFFFFFFFFFFFFFFFFFFFFFFFFFFFFFF AND PUSH20 0xFFFFFFFFFFFFFFFFFFFFFFFFFFFFFFFFFFFFFFFF AND PUSH2 0x8FC DUP4 SWAP1 DUP2 ISZERO MUL SWAP1 PUSH1 0x40 MLOAD PUSH1 0x0 PUSH1 0x40 MLOAD DUP1 DUP4 SUB DUP2 DUP6 DUP9 DUP9 CALL SWAP4 POP POP POP POP ISZERO DUP1 ISZERO PUSH2 0x141D JUMPI RETURNDATASIZE PUSH1 0x0 DUP1 RETURNDATACOPY RETURNDATASIZE PUSH1 0x0 REVERT JUMPDEST POP PUSH1 0x0 DUP1 PUSH1 0x0 PUSH2 0x100 EXP DUP2 SLOAD DUP2 PUSH1 0xFF MUL NOT AND SWAP1 DUP4 ISZERO ISZERO MUL OR SWAP1 SSTORE POP POP POP JUMP JUMPDEST PUSH1 0x3 SLOAD DUP2 JUMP JUMPDEST PUSH1 0x2 SLOAD DUP2 JUMP JUMPDEST PUSH1 0x58 SLOAD DUP2 JUMP JUMPDEST PUSH1 0x28 DUP3 PUSH1 0x10 DUP2 LT PUSH2 0x145E JUMPI PUSH1 0x0 DUP1 REVERT JUMPDEST PUSH1 0x2 MUL ADD DUP2 PUSH1 0x2 DUP2 LT PUSH2 0x1470 JUMPI PUSH1 0x0 DUP1 REVERT JUMPDEST ADD PUSH1 0x0 SWAP2 POP SWAP2 POP POP SLOAD DUP2 JUMP JUMPDEST PUSH1 0x59 SLOAD DUP2 JUMP JUMPDEST PUSH1 0x5F SLOAD DUP2 JUMP JUMPDEST PUSH1 0x1 DUP1 SLOAD EQ PUSH2 0x14CC JUMPI PUSH1 0x40 MLOAD PUSH32 0x8C379A000000000000000000000000000000000000000000000000000000000 DUP2 MSTORE PUSH1 0x4 ADD PUSH2 0x14C3 SWAP1 PUSH2 0x47AE JUMP JUMPDEST PUSH1 0x40 MLOAD DUP1 SWAP2 SUB SWAP1 REVERT JUMPDEST PUSH1 0x2 PUSH1 0x58 SLOAD EQ PUSH2 0x1511 JUMPI PUSH1 0x40 MLOAD PUSH32 0x8C379A000000000000000000000000000000000000000000000000000000000 DUP2 MSTORE PUSH1 0x4 ADD PUSH2 0x1508 SWAP1 PUSH2 0x4840 JUMP JUMPDEST PUSH1 0x40 MLOAD DUP1 SWAP2 SUB SWAP1 REVERT JUMPDEST PUSH1 0x2 PUSH1 0x4 SLOAD PUSH2 0x1520 SWAP2 SWAP1 PUSH2 0x4860 JUMP JUMPDEST PUSH1 0x3 SLOAD LT ISZERO PUSH2 0x1564 JUMPI PUSH1 0x40 MLOAD PUSH32 0x8C379A000000000000000000000000000000000000000000000000000000000 DUP2 MSTORE PUSH1 0x4 ADD PUSH2 0x155B SWAP1 PUSH2 0x48EE JUMP JUMPDEST PUSH1 0x40 MLOAD DUP1 SWAP2 SUB SWAP1 REVERT JUMPDEST PUSH1 0x4 SLOAD PUSH1 0x3 SLOAD PUSH2 0x1574 SWAP2 SWAP1 PUSH2 0x41F3 JUMP JUMPDEST PUSH1 0x3 DUP2 SWAP1 SSTORE POP PUSH1 0x2 PUSH1 0x4 SLOAD PUSH2 0x1589 SWAP2 SWAP1 PUSH2 0x4860 JUMP JUMPDEST PUSH1 0x4 DUP2 SWAP1 SSTORE POP PUSH2 0x1597 PUSH2 0x1A14 JUMP JUMPDEST PUSH2 0x159F PUSH2 0x1905 JUMP JUMPDEST JUMP JUMPDEST PUSH1 0x8 DUP3 PUSH1 0x10 DUP2 LT PUSH2 0x15B1 JUMPI PUSH1 0x0 DUP1 REVERT JUMPDEST PUSH1 0x2 MUL ADD DUP2 PUSH1 0x2 DUP2 LT PUSH2 0x15C3 JUMPI PUSH1 0x0 DUP1 REVERT JUMPDEST ADD PUSH1 0x0 SWAP2 POP SWAP2 POP POP SLOAD DUP2 JUMP JUMPDEST PUSH1 0x11 PUSH1 0x5D SLOAD LT PUSH2 0x1614 JUMPI PUSH1 0x40 MLOAD PUSH32 0x8C379A000000000000000000000000000000000000000000000000000000000 DUP2 MSTORE PUSH1 0x4 ADD PUSH2 0x160B SWAP1 PUSH2 0x4980 JUMP JUMPDEST PUSH1 0x40 MLOAD DUP1 SWAP2 SUB SWAP1 REVERT JUMPDEST PUSH1 0x1 PUSH1 0x5A SLOAD EQ DUP1 PUSH2 0x1627 JUMPI POP PUSH1 0x1 PUSH1 0x5E SLOAD EQ JUMPDEST PUSH2 0x1630 JUMPI PUSH1 0x0 DUP1 REVERT JUMPDEST PUSH1 0x0 PUSH2 0x16B0 PUSH1 0x28 PUSH1 0x10 DUP1 PUSH1 0x20 MUL PUSH1 0x40 MLOAD SWAP1 DUP2 ADD PUSH1 0x40 MSTORE DUP1 SWAP3 SWAP2 SWAP1 PUSH1 0x0 SWAP1 JUMPDEST DUP3 DUP3 LT ISZERO PUSH2 0x16A7 JUMPI DUP4 DUP3 PUSH1 0x2 MUL ADD PUSH1 0x2 DUP1 PUSH1 0x20 MUL PUSH1 0x40 MLOAD SWAP1 DUP2 ADD PUSH1 0x40 MSTORE DUP1 SWAP3 SWAP2 SWAP1 DUP3 PUSH1 0x2 DUP1 ISZERO PUSH2 0x1693 JUMPI PUSH1 0x20 MUL DUP3 ADD SWAP2 JUMPDEST DUP2 SLOAD DUP2 MSTORE PUSH1 0x20 ADD SWAP1 PUSH1 0x1 ADD SWAP1 DUP1 DUP4 GT PUSH2 0x167F JUMPI JUMPDEST POP POP POP POP POP DUP2 MSTORE PUSH1 0x20 ADD SWAP1 PUSH1 0x1 ADD SWAP1 PUSH2 0x164E JUMP JUMPDEST POP POP POP POP PUSH2 0x3834 JUMP JUMPDEST SWAP1 POP PUSH2 0x16BC PUSH1 0x1 PUSH2 0x1DB1 JUMP JUMPDEST PUSH1 0x0 PUSH1 0x1 SWAP1 POP JUMPDEST PUSH1 0xB DUP2 GT PUSH2 0x187A JUMPI JUMPDEST PUSH1 0x50 PUSH1 0x1 PUSH1 0x4 DUP2 LT PUSH2 0x16E1 JUMPI PUSH2 0x16E0 PUSH2 0x4535 JUMP JUMPDEST JUMPDEST PUSH1 0x2 MUL ADD PUSH1 0x0 PUSH1 0x2 DUP2 LT PUSH2 0x16F8 JUMPI PUSH2 0x16F7 PUSH2 0x4535 JUMP JUMPDEST JUMPDEST ADD SLOAD PUSH1 0x8 DUP3 PUSH1 0x10 DUP2 LT PUSH2 0x170E JUMPI PUSH2 0x170D PUSH2 0x4535 JUMP JUMPDEST JUMPDEST PUSH1 0x2 MUL ADD PUSH1 0x0 PUSH1 0x2 DUP2 LT PUSH2 0x1725 JUMPI PUSH2 0x1724 PUSH2 0x4535 JUMP JUMPDEST JUMPDEST ADD SLOAD EQ DUP1 ISZERO PUSH2 0x178C JUMPI POP PUSH1 0x50 PUSH1 0x1 PUSH1 0x4 DUP2 LT PUSH2 0x1744 JUMPI PUSH2 0x1743 PUSH2 0x4535 JUMP JUMPDEST JUMPDEST PUSH1 0x2 MUL ADD PUSH1 0x1 PUSH1 0x2 DUP2 LT PUSH2 0x175B JUMPI PUSH2 0x175A PUSH2 0x4535 JUMP JUMPDEST JUMPDEST ADD SLOAD PUSH1 0x8 DUP3 PUSH1 0x10 DUP2 LT PUSH2 0x1771 JUMPI PUSH2 0x1770 PUSH2 0x4535 JUMP JUMPDEST JUMPDEST PUSH1 0x2 MUL ADD PUSH1 0x0 PUSH1 0x2 DUP2 LT PUSH2 0x1788 JUMPI PUSH2 0x1787 PUSH2 0x4535 JUMP JUMPDEST JUMPDEST ADD SLOAD EQ JUMPDEST DUP1 PUSH2 0x1853 JUMPI POP PUSH1 0x50 PUSH1 0x1 PUSH1 0x4 DUP2 LT PUSH2 0x17A7 JUMPI PUSH2 0x17A6 PUSH2 0x4535 JUMP JUMPDEST JUMPDEST PUSH1 0x2 MUL ADD PUSH1 0x0 PUSH1 0x2 DUP2 LT PUSH2 0x17BE JUMPI PUSH2 0x17BD PUSH2 0x4535 JUMP JUMPDEST JUMPDEST ADD SLOAD PUSH1 0x28 DUP3 PUSH1 0x10 DUP2 LT PUSH2 0x17D4 JUMPI PUSH2 0x17D3 PUSH2 0x4535 JUMP JUMPDEST JUMPDEST PUSH1 0x2 MUL ADD PUSH1 0x0 PUSH1 0x2 DUP2 LT PUSH2 0x17EB JUMPI PUSH2 0x17EA PUSH2 0x4535 JUMP JUMPDEST JUMPDEST ADD SLOAD EQ DUP1 ISZERO PUSH2 0x1852 JUMPI POP PUSH1 0x50 PUSH1 0x1 PUSH1 0x4 DUP2 LT PUSH2 0x180A JUMPI PUSH2 0x1809 PUSH2 0x4535 JUMP JUMPDEST JUMPDEST PUSH1 0x2 MUL ADD PUSH1 0x1 PUSH1 0x2 DUP2 LT PUSH2 0x1821 JUMPI PUSH2 0x1820 PUSH2 0x4535 JUMP JUMPDEST JUMPDEST ADD SLOAD PUSH1 0x28 DUP3 PUSH1 0x10 DUP2 LT PUSH2 0x1837 JUMPI PUSH2 0x1836 PUSH2 0x4535 JUMP JUMPDEST JUMPDEST PUSH1 0x2 MUL ADD PUSH1 0x1 PUSH1 0x2 DUP2 LT PUSH2 0x184E JUMPI PUSH2 0x184D PUSH2 0x4535 JUMP JUMPDEST JUMPDEST ADD SLOAD EQ JUMPDEST JUMPDEST ISZERO PUSH2 0x1867 JUMPI PUSH2 0x1862 PUSH1 0x1 PUSH2 0x1DB1 JUMP JUMPDEST PUSH2 0x16CC JUMP JUMPDEST DUP1 DUP1 PUSH2 0x1872 SWAP1 PUSH2 0x4564 JUMP JUMPDEST SWAP2 POP POP PUSH2 0x16C3 JUMP JUMPDEST POP PUSH2 0x18EC PUSH1 0x50 PUSH1 0x1 PUSH1 0x4 DUP2 LT PUSH2 0x1893 JUMPI PUSH2 0x1892 PUSH2 0x4535 JUMP JUMPDEST JUMPDEST PUSH1 0x2 MUL ADD PUSH1 0x0 PUSH1 0x2 DUP2 LT PUSH2 0x18AA JUMPI PUSH2 0x18A9 PUSH2 0x4535 JUMP JUMPDEST JUMPDEST ADD SLOAD PUSH1 0x50 PUSH1 0x1 PUSH1 0x4 DUP2 LT PUSH2 0x18C1 JUMPI PUSH2 0x18C0 PUSH2 0x4535 JUMP JUMPDEST JUMPDEST PUSH1 0x2 MUL ADD PUSH1 0x1 PUSH1 0x2 DUP2 LT PUSH2 0x18D8 JUMPI PUSH2 0x18D7 PUSH2 0x4535 JUMP JUMPDEST JUMPDEST ADD SLOAD PUSH1 0x1 DUP5 PUSH2 0x18E7 SWAP2 SWAP1 PUSH2 0x43DD JUMP JUMPDEST PUSH2 0x24BC JUMP JUMPDEST PUSH2 0x18F4 PUSH2 0x281C JUMP JUMPDEST PUSH2 0x18FC PUSH2 0x2A91 JUMP JUMPDEST POP JUMP JUMPDEST PUSH1 0x5B SLOAD DUP2 JUMP JUMPDEST PUSH1 0x0 PUSH1 0x5E SLOAD EQ PUSH2 0x194A JUMPI PUSH1 0x40 MLOAD PUSH32 0x8C379A000000000000000000000000000000000000000000000000000000000 DUP2 MSTORE PUSH1 0x4 ADD PUSH2 0x1941 SWAP1 PUSH2 0x49EC JUMP JUMPDEST PUSH1 0x40 MLOAD DUP1 SWAP2 SUB SWAP1 REVERT JUMPDEST PUSH1 0x0 PUSH1 0x5A SLOAD EQ PUSH2 0x198F JUMPI PUSH1 0x40 MLOAD PUSH32 0x8C379A000000000000000000000000000000000000000000000000000000000 DUP2 MSTORE PUSH1 0x4 ADD PUSH2 0x1986 SWAP1 PUSH2 0x4A58 JUMP JUMPDEST PUSH1 0x40 MLOAD DUP1 SWAP2 SUB SWAP1 REVERT JUMPDEST PUSH1 0x1 DUP1 SLOAD EQ PUSH2 0x19D3 JUMPI PUSH1 0x40 MLOAD PUSH32 0x8C379A000000000000000000000000000000000000000000000000000000000 DUP2 MSTORE PUSH1 0x4 ADD PUSH2 0x19CA SWAP1 PUSH2 0x47AE JUMP JUMPDEST PUSH1 0x40 MLOAD DUP1 SWAP2 SUB SWAP1 REVERT JUMPDEST PUSH1 0x1 PUSH1 0x5E DUP2 SWAP1 SSTORE POP PUSH2 0x19E3 PUSH2 0x3015 JUMP JUMPDEST JUMPDEST PUSH1 0x1 DUP1 SLOAD SUB PUSH2 0x19FA JUMPI PUSH2 0x19F5 PUSH2 0x15CF JUMP JUMPDEST PUSH2 0x19E4 JUMP JUMPDEST JUMP JUMPDEST PUSH1 0x5C SLOAD DUP2 JUMP JUMPDEST PUSH8 0xDE0B6B3A7640000 DUP2 JUMP JUMPDEST PUSH1 0x4 SLOAD DUP2 JUMP JUMPDEST PUSH1 0x1 DUP1 SLOAD EQ PUSH2 0x1A58 JUMPI PUSH1 0x40 MLOAD PUSH32 0x8C379A000000000000000000000000000000000000000000000000000000000 DUP2 MSTORE PUSH1 0x4 ADD PUSH2 0x1A4F SWAP1 PUSH2 0x47AE JUMP JUMPDEST PUSH1 0x40 MLOAD DUP1 SWAP2 SUB SWAP1 REVERT JUMPDEST PUSH1 0x0 PUSH1 0x5A SLOAD EQ PUSH2 0x1A9D JUMPI PUSH1 0x40 MLOAD PUSH32 0x8C379A000000000000000000000000000000000000000000000000000000000 DUP2 MSTORE PUSH1 0x4 ADD PUSH2 0x1A94 SWAP1 PUSH2 0x4A58 JUMP JUMPDEST PUSH1 0x40 MLOAD DUP1 SWAP2 SUB SWAP1 REVERT JUMPDEST PUSH1 0x0 PUSH1 0x5E SLOAD EQ PUSH2 0x1AE2 JUMPI PUSH1 0x40 MLOAD PUSH32 0x8C379A000000000000000000000000000000000000000000000000000000000 DUP2 MSTORE PUSH1 0x4 ADD PUSH2 0x1AD9 SWAP1 PUSH2 0x49EC JUMP JUMPDEST PUSH1 0x40 MLOAD DUP1 SWAP2 SUB SWAP1 REVERT JUMPDEST PUSH1 0x0 PUSH2 0x1B62 PUSH1 0x8 PUSH1 0x10 DUP1 PUSH1 0x20 MUL PUSH1 0x40 MLOAD SWAP1 DUP2 ADD PUSH1 0x40 MSTORE DUP1 SWAP3 SWAP2 SWAP1 PUSH1 0x0 SWAP1 JUMPDEST DUP3 DUP3 LT ISZERO PUSH2 0x1B59 JUMPI DUP4 DUP3 PUSH1 0x2 MUL ADD PUSH1 0x2 DUP1 PUSH1 0x20 MUL PUSH1 0x40 MLOAD SWAP1 DUP2 ADD PUSH1 0x40 MSTORE DUP1 SWAP3 SWAP2 SWAP1 DUP3 PUSH1 0x2 DUP1 ISZERO PUSH2 0x1B45 JUMPI PUSH1 0x20 MUL DUP3 ADD SWAP2 JUMPDEST DUP2 SLOAD DUP2 MSTORE PUSH1 0x20 ADD SWAP1 PUSH1 0x1 ADD SWAP1 DUP1 DUP4 GT PUSH2 0x1B31 JUMPI JUMPDEST POP POP POP POP POP DUP2 MSTORE PUSH1 0x20 ADD SWAP1 PUSH1 0x1 ADD SWAP1 PUSH2 0x1B00 JUMP JUMPDEST POP POP POP POP PUSH2 0x3834 JUMP JUMPDEST SWAP1 POP PUSH2 0x1B6E PUSH1 0x1 PUSH2 0x1DB1 JUMP JUMPDEST PUSH1 0x0 PUSH1 0x1 SWAP1 POP JUMPDEST PUSH1 0xB DUP2 GT PUSH2 0x1D2C JUMPI JUMPDEST PUSH1 0x50 PUSH1 0x1 PUSH1 0x4 DUP2 LT PUSH2 0x1B93 JUMPI PUSH2 0x1B92 PUSH2 0x4535 JUMP JUMPDEST JUMPDEST PUSH1 0x2 MUL ADD PUSH1 0x0 PUSH1 0x2 DUP2 LT PUSH2 0x1BAA JUMPI PUSH2 0x1BA9 PUSH2 0x4535 JUMP JUMPDEST JUMPDEST ADD SLOAD PUSH1 0x8 DUP3 PUSH1 0x10 DUP2 LT PUSH2 0x1BC0 JUMPI PUSH2 0x1BBF PUSH2 0x4535 JUMP JUMPDEST JUMPDEST PUSH1 0x2 MUL ADD PUSH1 0x0 PUSH1 0x2 DUP2 LT PUSH2 0x1BD7 JUMPI PUSH2 0x1BD6 PUSH2 0x4535 JUMP JUMPDEST JUMPDEST ADD SLOAD EQ DUP1 ISZERO PUSH2 0x1C3E JUMPI POP PUSH1 0x50 PUSH1 0x1 PUSH1 0x4 DUP2 LT PUSH2 0x1BF6 JUMPI PUSH2 0x1BF5 PUSH2 0x4535 JUMP JUMPDEST JUMPDEST PUSH1 0x2 MUL ADD PUSH1 0x1 PUSH1 0x2 DUP2 LT PUSH2 0x1C0D JUMPI PUSH2 0x1C0C PUSH2 0x4535 JUMP JUMPDEST JUMPDEST ADD SLOAD PUSH1 0x8 DUP3 PUSH1 0x10 DUP2 LT PUSH2 0x1C23 JUMPI PUSH2 0x1C22 PUSH2 0x4535 JUMP JUMPDEST JUMPDEST PUSH1 0x2 MUL ADD PUSH1 0x0 PUSH1 0x2 DUP2 LT PUSH2 0x1C3A JUMPI PUSH2 0x1C39 PUSH2 0x4535 JUMP JUMPDEST JUMPDEST ADD SLOAD EQ JUMPDEST DUP1 PUSH2 0x1D05 JUMPI POP PUSH1 0x50 PUSH1 0x1 PUSH1 0x4 DUP2 LT PUSH2 0x1C59 JUMPI PUSH2 0x1C58 PUSH2 0x4535 JUMP JUMPDEST JUMPDEST PUSH1 0x2 MUL ADD PUSH1 0x0 PUSH1 0x2 DUP2 LT PUSH2 0x1C70 JUMPI PUSH2 0x1C6F PUSH2 0x4535 JUMP JUMPDEST JUMPDEST ADD SLOAD PUSH1 0x28 DUP3 PUSH1 0x10 DUP2 LT PUSH2 0x1C86 JUMPI PUSH2 0x1C85 PUSH2 0x4535 JUMP JUMPDEST JUMPDEST PUSH1 0x2 MUL ADD PUSH1 0x0 PUSH1 0x2 DUP2 LT PUSH2 0x1C9D JUMPI PUSH2 0x1C9C PUSH2 0x4535 JUMP JUMPDEST JUMPDEST ADD SLOAD EQ DUP1 ISZERO PUSH2 0x1D04 JUMPI POP PUSH1 0x50 PUSH1 0x1 PUSH1 0x4 DUP2 LT PUSH2 0x1CBC JUMPI PUSH2 0x1CBB PUSH2 0x4535 JUMP JUMPDEST JUMPDEST PUSH1 0x2 MUL ADD PUSH1 0x1 PUSH1 0x2 DUP2 LT PUSH2 0x1CD3 JUMPI PUSH2 0x1CD2 PUSH2 0x4535 JUMP JUMPDEST JUMPDEST ADD SLOAD PUSH1 0x28 DUP3 PUSH1 0x10 DUP2 LT PUSH2 0x1CE9 JUMPI PUSH2 0x1CE8 PUSH2 0x4535 JUMP JUMPDEST JUMPDEST PUSH1 0x2 MUL ADD PUSH1 0x1 PUSH1 0x2 DUP2 LT PUSH2 0x1D00 JUMPI PUSH2 0x1CFF PUSH2 0x4535 JUMP JUMPDEST JUMPDEST ADD SLOAD EQ JUMPDEST JUMPDEST ISZERO PUSH2 0x1D19 JUMPI PUSH2 0x1D14 PUSH1 0x1 PUSH2 0x1DB1 JUMP JUMPDEST PUSH2 0x1B7E JUMP JUMPDEST DUP1 DUP1 PUSH2 0x1D24 SWAP1 PUSH2 0x4564 JUMP JUMPDEST SWAP2 POP POP PUSH2 0x1B75 JUMP JUMPDEST POP PUSH2 0x1D9E PUSH1 0x50 PUSH1 0x1 PUSH1 0x4 DUP2 LT PUSH2 0x1D45 JUMPI PUSH2 0x1D44 PUSH2 0x4535 JUMP JUMPDEST JUMPDEST PUSH1 0x2 MUL ADD PUSH1 0x0 PUSH1 0x2 DUP2 LT PUSH2 0x1D5C JUMPI PUSH2 0x1D5B PUSH2 0x4535 JUMP JUMPDEST JUMPDEST ADD SLOAD PUSH1 0x50 PUSH1 0x1 PUSH1 0x4 DUP2 LT PUSH2 0x1D73 JUMPI PUSH2 0x1D72 PUSH2 0x4535 JUMP JUMPDEST JUMPDEST PUSH1 0x2 MUL ADD PUSH1 0x1 PUSH1 0x2 DUP2 LT PUSH2 0x1D8A JUMPI PUSH2 0x1D89 PUSH2 0x4535 JUMP JUMPDEST JUMPDEST ADD SLOAD PUSH1 0x1 DUP5 PUSH2 0x1D99 SWAP2 SWAP1 PUSH2 0x43DD JUMP JUMPDEST PUSH2 0x23D1 JUMP JUMPDEST PUSH2 0x1DA6 PUSH2 0x25A7 JUMP JUMPDEST PUSH2 0x1DAE PUSH2 0x3015 JUMP JUMPDEST POP JUMP JUMPDEST PUSH1 0x0 PUSH1 0x40 MLOAD DUP1 PUSH1 0x20 ADD PUSH1 0x40 MSTORE DUP1 PUSH1 0x0 DUP2 MSTORE POP SWAP1 POP PUSH1 0x0 PUSH1 0x40 MLOAD DUP1 PUSH1 0x20 ADD PUSH1 0x40 MSTORE DUP1 PUSH1 0x0 DUP2 MSTORE POP SWAP1 POP PUSH1 0x0 DUP1 PUSH1 0x1 SWAP1 POP PUSH1 0x0 JUMPDEST DUP6 DUP3 GT PUSH2 0x2067 JUMPI PUSH1 0x0 PUSH1 0x3 SWAP1 POP PUSH1 0x0 PUSH1 0x4 SWAP1 POP PUSH1 0x0 PUSH1 0x7 DUP2 SWAP1 SSTORE POP PUSH1 0x0 PUSH1 0x6 DUP2 SWAP1 SSTORE POP PUSH2 0x1E0E PUSH2 0x38AC JUMP JUMPDEST PUSH1 0x5 DUP2 SWAP1 SSTORE POP PUSH2 0x1E1F PUSH1 0x5 SLOAD PUSH2 0x3960 JUMP JUMPDEST SWAP7 POP PUSH2 0x1E2C DUP3 DUP3 DUP10 PUSH2 0x3A2E JUMP JUMPDEST SWAP6 POP PUSH2 0x1E37 DUP7 PUSH2 0x3B43 JUMP JUMPDEST SWAP3 POP DUP7 MLOAD SWAP5 POP JUMPDEST PUSH1 0x1 DUP4 LT DUP1 PUSH2 0x1E4D JUMPI POP PUSH1 0xD DUP4 GT JUMPDEST DUP1 ISZERO PUSH2 0x1E64 JUMPI POP PUSH1 0x3 DUP6 PUSH2 0x1E61 SWAP2 SWAP1 PUSH2 0x41F3 JUMP JUMPDEST DUP3 LT JUMPDEST ISZERO PUSH2 0x1EF8 JUMPI PUSH1 0x2 DUP3 PUSH2 0x1E76 SWAP2 SWAP1 PUSH2 0x43DD JUMP JUMPDEST SWAP2 POP PUSH1 0x2 DUP2 PUSH2 0x1E85 SWAP2 SWAP1 PUSH2 0x43DD JUMP JUMPDEST SWAP1 POP PUSH2 0x1E92 DUP3 DUP3 DUP10 PUSH2 0x3A2E JUMP JUMPDEST SWAP6 POP PUSH2 0x1E9D DUP7 PUSH2 0x3B43 JUMP JUMPDEST SWAP3 POP PUSH1 0x3 DUP6 PUSH2 0x1EAC SWAP2 SWAP1 PUSH2 0x41F3 JUMP JUMPDEST DUP3 GT ISZERO PUSH2 0x1EF3 JUMPI PUSH1 0x3 SWAP2 POP PUSH1 0x4 SWAP1 POP PUSH2 0x1EC3 PUSH2 0x38AC JUMP JUMPDEST PUSH1 0x5 DUP2 SWAP1 SSTORE POP PUSH2 0x1ED4 PUSH1 0x5 SLOAD PUSH2 0x3960 JUMP JUMPDEST SWAP7 POP PUSH2 0x1EE1 DUP3 DUP3 DUP10 PUSH2 0x3A2E JUMP JUMPDEST SWAP6 POP PUSH2 0x1EEC DUP7 PUSH2 0x3B43 JUMP JUMPDEST SWAP3 POP DUP7 MLOAD SWAP5 POP JUMPDEST PUSH2 0x1E3E JUMP JUMPDEST DUP3 PUSH1 0x7 DUP2 SWAP1 SSTORE POP PUSH1 0x2 DUP3 PUSH2 0x1F0C SWAP2 SWAP1 PUSH2 0x43DD JUMP JUMPDEST SWAP2 POP PUSH1 0x2 DUP2 PUSH2 0x1F1B SWAP2 SWAP1 PUSH2 0x43DD JUMP JUMPDEST SWAP1 POP PUSH2 0x1F28 DUP3 DUP3 DUP10 PUSH2 0x3A2E JUMP JUMPDEST SWAP6 POP PUSH2 0x1F33 DUP7 PUSH2 0x3B43 JUMP JUMPDEST SWAP3 POP JUMPDEST PUSH1 0x1 DUP4 LT DUP1 PUSH2 0x1F45 JUMPI POP PUSH1 0x4 DUP4 GT JUMPDEST DUP1 ISZERO PUSH2 0x1F5C JUMPI POP PUSH1 0x3 DUP6 PUSH2 0x1F59 SWAP2 SWAP1 PUSH2 0x41F3 JUMP JUMPDEST DUP3 LT JUMPDEST ISZERO PUSH2 0x1FE4 JUMPI PUSH1 0x1 DUP3 PUSH2 0x1F6E SWAP2 SWAP1 PUSH2 0x43DD JUMP JUMPDEST SWAP2 POP DUP2 SWAP1 POP PUSH2 0x1F7E DUP3 DUP3 DUP10 PUSH2 0x3A2E JUMP JUMPDEST SWAP6 POP PUSH2 0x1F89 DUP7 PUSH2 0x3B43 JUMP JUMPDEST SWAP3 POP PUSH1 0x3 DUP6 PUSH2 0x1F98 SWAP2 SWAP1 PUSH2 0x41F3 JUMP JUMPDEST DUP3 GT ISZERO PUSH2 0x1FDF JUMPI PUSH1 0x4 SWAP2 POP PUSH1 0x4 SWAP1 POP PUSH2 0x1FAF PUSH2 0x38AC JUMP JUMPDEST PUSH1 0x5 DUP2 SWAP1 SSTORE POP PUSH2 0x1FC0 PUSH1 0x5 SLOAD PUSH2 0x3960 JUMP JUMPDEST SWAP7 POP PUSH2 0x1FCD DUP3 DUP3 DUP10 PUSH2 0x3A2E JUMP JUMPDEST SWAP6 POP PUSH2 0x1FD8 DUP7 PUSH2 0x3B43 JUMP JUMPDEST SWAP3 POP DUP7 MLOAD SWAP5 POP JUMPDEST PUSH2 0x1F36 JUMP JUMPDEST DUP3 PUSH1 0x6 DUP2 SWAP1 SSTORE POP PUSH1 0x7 SLOAD PUSH1 0x50 DUP6 PUSH1 0x4 DUP2 LT PUSH2 0x2002 JUMPI PUSH2 0x2001 PUSH2 0x4535 JUMP JUMPDEST JUMPDEST PUSH1 0x2 MUL ADD PUSH1 0x0 PUSH1 0x2 DUP2 LT PUSH2 0x2019 JUMPI PUSH2 0x2018 PUSH2 0x4535 JUMP JUMPDEST JUMPDEST ADD DUP2 SWAP1 SSTORE POP PUSH1 0x6 SLOAD PUSH1 0x50 DUP6 PUSH1 0x4 DUP2 LT PUSH2 0x2035 JUMPI PUSH2 0x2034 PUSH2 0x4535 JUMP JUMPDEST JUMPDEST PUSH1 0x2 MUL ADD PUSH1 0x1 PUSH1 0x2 DUP2 LT PUSH2 0x204C JUMPI PUSH2 0x204B PUSH2 0x4535 JUMP JUMPDEST JUMPDEST ADD DUP2 SWAP1 SSTORE POP PUSH1 0x1 DUP5 PUSH2 0x205E SWAP2 SWAP1 PUSH2 0x43DD JUMP JUMPDEST SWAP4 POP POP POP PUSH2 0x1DE3 JUMP JUMPDEST POP POP POP POP POP POP JUMP JUMPDEST PUSH2 0x2077 PUSH2 0x3E2D JUMP JUMPDEST JUMPDEST DUP2 PUSH1 0x2 PUSH1 0x4 DUP2 LT PUSH2 0x208C JUMPI PUSH2 0x208B PUSH2 0x4535 JUMP JUMPDEST JUMPDEST PUSH1 0x20 MUL ADD MLOAD PUSH1 0x0 PUSH1 0x2 DUP2 LT PUSH2 0x20A4 JUMPI PUSH2 0x20A3 PUSH2 0x4535 JUMP JUMPDEST JUMPDEST PUSH1 0x20 MUL ADD MLOAD DUP3 PUSH1 0x1 PUSH1 0x4 DUP2 LT PUSH2 0x20BD JUMPI PUSH2 0x20BC PUSH2 0x4535 JUMP JUMPDEST JUMPDEST PUSH1 0x20 MUL ADD MLOAD PUSH1 0x0 PUSH1 0x2 DUP2 LT PUSH2 0x20D5 JUMPI PUSH2 0x20D4 PUSH2 0x4535 JUMP JUMPDEST JUMPDEST PUSH1 0x20 MUL ADD MLOAD EQ DUP1 ISZERO PUSH2 0x2146 JUMPI POP DUP2 PUSH1 0x2 PUSH1 0x4 DUP2 LT PUSH2 0x20F6 JUMPI PUSH2 0x20F5 PUSH2 0x4535 JUMP JUMPDEST JUMPDEST PUSH1 0x20 MUL ADD MLOAD PUSH1 0x1 PUSH1 0x2 DUP2 LT PUSH2 0x210E JUMPI PUSH2 0x210D PUSH2 0x4535 JUMP JUMPDEST JUMPDEST PUSH1 0x20 MUL ADD MLOAD DUP3 PUSH1 0x1 PUSH1 0x4 DUP2 LT PUSH2 0x2127 JUMPI PUSH2 0x2126 PUSH2 0x4535 JUMP JUMPDEST JUMPDEST PUSH1 0x20 MUL ADD MLOAD PUSH1 0x1 PUSH1 0x2 DUP2 LT PUSH2 0x213F JUMPI PUSH2 0x213E PUSH2 0x4535 JUMP JUMPDEST JUMPDEST PUSH1 0x20 MUL ADD MLOAD EQ JUMPDEST ISZERO PUSH2 0x2220 JUMPI PUSH2 0x2155 PUSH1 0x1 PUSH2 0x1DB1 JUMP JUMPDEST PUSH1 0x50 PUSH1 0x1 PUSH1 0x4 DUP2 LT PUSH2 0x216A JUMPI PUSH2 0x2169 PUSH2 0x4535 JUMP JUMPDEST JUMPDEST PUSH1 0x2 MUL ADD PUSH1 0x0 PUSH1 0x2 DUP2 LT PUSH2 0x2181 JUMPI PUSH2 0x2180 PUSH2 0x4535 JUMP JUMPDEST JUMPDEST ADD SLOAD DUP3 PUSH1 0x2 PUSH1 0x4 DUP2 LT PUSH2 0x2197 JUMPI PUSH2 0x2196 PUSH2 0x4535 JUMP JUMPDEST JUMPDEST PUSH1 0x20 MUL ADD MLOAD PUSH1 0x0 PUSH1 0x2 DUP2 LT PUSH2 0x21AF JUMPI PUSH2 0x21AE PUSH2 0x4535 JUMP JUMPDEST JUMPDEST PUSH1 0x20 MUL ADD DUP2 DUP2 MSTORE POP POP PUSH1 0x50 PUSH1 0x1 PUSH1 0x4 DUP2 LT PUSH2 0x21CD JUMPI PUSH2 0x21CC PUSH2 0x4535 JUMP JUMPDEST JUMPDEST PUSH1 0x2 MUL ADD PUSH1 0x1 PUSH1 0x2 DUP2 LT PUSH2 0x21E4 JUMPI PUSH2 0x21E3 PUSH2 0x4535 JUMP JUMPDEST JUMPDEST ADD SLOAD DUP3 PUSH1 0x2 PUSH1 0x4 DUP2 LT PUSH2 0x21FA JUMPI PUSH2 0x21F9 PUSH2 0x4535 JUMP JUMPDEST JUMPDEST PUSH1 0x20 MUL ADD MLOAD PUSH1 0x1 PUSH1 0x2 DUP2 LT PUSH2 0x2212 JUMPI PUSH2 0x2211 PUSH2 0x4535 JUMP JUMPDEST JUMPDEST PUSH1 0x20 MUL ADD DUP2 DUP2 MSTORE POP POP PUSH2 0x2078 JUMP JUMPDEST JUMPDEST DUP2 PUSH1 0x3 PUSH1 0x4 DUP2 LT PUSH2 0x2235 JUMPI PUSH2 0x2234 PUSH2 0x4535 JUMP JUMPDEST JUMPDEST PUSH1 0x20 MUL ADD MLOAD PUSH1 0x0 PUSH1 0x2 DUP2 LT PUSH2 0x224D JUMPI PUSH2 0x224C PUSH2 0x4535 JUMP JUMPDEST JUMPDEST PUSH1 0x20 MUL ADD MLOAD DUP3 PUSH1 0x2 PUSH1 0x4 DUP2 LT PUSH2 0x2266 JUMPI PUSH2 0x2265 PUSH2 0x4535 JUMP JUMPDEST JUMPDEST PUSH1 0x20 MUL ADD MLOAD PUSH1 0x0 PUSH1 0x2 DUP2 LT PUSH2 0x227E JUMPI PUSH2 0x227D PUSH2 0x4535 JUMP JUMPDEST JUMPDEST PUSH1 0x20 MUL ADD MLOAD EQ DUP1 ISZERO PUSH2 0x22EF JUMPI POP DUP2 PUSH1 0x3 PUSH1 0x4 DUP2 LT PUSH2 0x229F JUMPI PUSH2 0x229E PUSH2 0x4535 JUMP JUMPDEST JUMPDEST PUSH1 0x20 MUL ADD MLOAD PUSH1 0x1 PUSH1 0x2 DUP2 LT PUSH2 0x22B7 JUMPI PUSH2 0x22B6 PUSH2 0x4535 JUMP JUMPDEST JUMPDEST PUSH1 0x20 MUL ADD MLOAD DUP3 PUSH1 0x2 PUSH1 0x4 DUP2 LT PUSH2 0x22D0 JUMPI PUSH2 0x22CF PUSH2 0x4535 JUMP JUMPDEST JUMPDEST PUSH1 0x20 MUL ADD MLOAD PUSH1 0x1 PUSH1 0x2 DUP2 LT PUSH2 0x22E8 JUMPI PUSH2 0x22E7 PUSH2 0x4535 JUMP JUMPDEST JUMPDEST PUSH1 0x20 MUL ADD MLOAD EQ JUMPDEST ISZERO PUSH2 0x23C9 JUMPI PUSH2 0x22FE PUSH1 0x1 PUSH2 0x1DB1 JUMP JUMPDEST PUSH1 0x50 PUSH1 0x1 PUSH1 0x4 DUP2 LT PUSH2 0x2313 JUMPI PUSH2 0x2312 PUSH2 0x4535 JUMP JUMPDEST JUMPDEST PUSH1 0x2 MUL ADD PUSH1 0x0 PUSH1 0x2 DUP2 LT PUSH2 0x232A JUMPI PUSH2 0x2329 PUSH2 0x4535 JUMP JUMPDEST JUMPDEST ADD SLOAD DUP3 PUSH1 0x3 PUSH1 0x4 DUP2 LT PUSH2 0x2340 JUMPI PUSH2 0x233F PUSH2 0x4535 JUMP JUMPDEST JUMPDEST PUSH1 0x20 MUL ADD MLOAD PUSH1 0x0 PUSH1 0x2 DUP2 LT PUSH2 0x2358 JUMPI PUSH2 0x2357 PUSH2 0x4535 JUMP JUMPDEST JUMPDEST PUSH1 0x20 MUL ADD DUP2 DUP2 MSTORE POP POP PUSH1 0x50 PUSH1 0x1 PUSH1 0x4 DUP2 LT PUSH2 0x2376 JUMPI PUSH2 0x2375 PUSH2 0x4535 JUMP JUMPDEST JUMPDEST PUSH1 0x2 MUL ADD PUSH1 0x1 PUSH1 0x2 DUP2 LT PUSH2 0x238D JUMPI PUSH2 0x238C PUSH2 0x4535 JUMP JUMPDEST JUMPDEST ADD SLOAD DUP3 PUSH1 0x3 PUSH1 0x4 DUP2 LT PUSH2 0x23A3 JUMPI PUSH2 0x23A2 PUSH2 0x4535 JUMP JUMPDEST JUMPDEST PUSH1 0x20 MUL ADD MLOAD PUSH1 0x1 PUSH1 0x2 DUP2 LT PUSH2 0x23BB JUMPI PUSH2 0x23BA PUSH2 0x4535 JUMP JUMPDEST JUMPDEST PUSH1 0x20 MUL ADD DUP2 DUP2 MSTORE POP POP PUSH2 0x2221 JUMP JUMPDEST DUP2 SWAP1 POP SWAP2 SWAP1 POP JUMP JUMPDEST DUP3 PUSH1 0x8 DUP3 PUSH1 0x10 DUP2 LT PUSH2 0x23E6 JUMPI PUSH2 0x23E5 PUSH2 0x4535 JUMP JUMPDEST JUMPDEST PUSH1 0x2 MUL ADD PUSH1 0x0 PUSH1 0x2 DUP2 LT PUSH2 0x23FD JUMPI PUSH2 0x23FC PUSH2 0x4535 JUMP JUMPDEST JUMPDEST ADD DUP2 SWAP1 SSTORE POP DUP2 PUSH1 0x8 DUP3 PUSH1 0x10 DUP2 LT PUSH2 0x2417 JUMPI PUSH2 0x2416 PUSH2 0x4535 JUMP JUMPDEST JUMPDEST PUSH1 0x2 MUL ADD PUSH1 0x1 PUSH1 0x2 DUP2 LT PUSH2 0x242E JUMPI PUSH2 0x242D PUSH2 0x4535 JUMP JUMPDEST JUMPDEST ADD DUP2 SWAP1 SSTORE POP PUSH2 0x24B1 PUSH1 0x8 PUSH1 0x10 DUP1 PUSH1 0x20 MUL PUSH1 0x40 MLOAD SWAP1 DUP2 ADD PUSH1 0x40 MSTORE DUP1 SWAP3 SWAP2 SWAP1 PUSH1 0x0 SWAP1 JUMPDEST DUP3 DUP3 LT ISZERO PUSH2 0x24A8 JUMPI DUP4 DUP3 PUSH1 0x2 MUL ADD PUSH1 0x2 DUP1 PUSH1 0x20 MUL PUSH1 0x40 MLOAD SWAP1 DUP2 ADD PUSH1 0x40 MSTORE DUP1 SWAP3 SWAP2 SWAP1 DUP3 PUSH1 0x2 DUP1 ISZERO PUSH2 0x2494 JUMPI PUSH1 0x20 MUL DUP3 ADD SWAP2 JUMPDEST DUP2 SLOAD DUP2 MSTORE PUSH1 0x20 ADD SWAP1 PUSH1 0x1 ADD SWAP1 DUP1 DUP4 GT PUSH2 0x2480 JUMPI JUMPDEST POP POP POP POP POP DUP2 MSTORE PUSH1 0x20 ADD SWAP1 PUSH1 0x1 ADD SWAP1 PUSH2 0x244F JUMP JUMPDEST POP POP POP POP PUSH2 0x3834 JUMP JUMPDEST PUSH1 0x58 DUP2 SWAP1 SSTORE POP POP POP POP JUMP JUMPDEST DUP3 PUSH1 0x28 DUP3 PUSH1 0x10 DUP2 LT PUSH2 0x24D1 JUMPI PUSH2 0x24D0 PUSH2 0x4535 JUMP JUMPDEST JUMPDEST PUSH1 0x2 MUL ADD PUSH1 0x0 PUSH1 0x2 DUP2 LT PUSH2 0x24E8 JUMPI PUSH2 0x24E7 PUSH2 0x4535 JUMP JUMPDEST JUMPDEST ADD DUP2 SWAP1 SSTORE POP DUP2 PUSH1 0x28 DUP3 PUSH1 0x10 DUP2 LT PUSH2 0x2502 JUMPI PUSH2 0x2501 PUSH2 0x4535 JUMP JUMPDEST JUMPDEST PUSH1 0x2 MUL ADD PUSH1 0x1 PUSH1 0x2 DUP2 LT PUSH2 0x2519 JUMPI PUSH2 0x2518 PUSH2 0x4535 JUMP JUMPDEST JUMPDEST ADD DUP2 SWAP1 SSTORE POP PUSH2 0x259C PUSH1 0x28 PUSH1 0x10 DUP1 PUSH1 0x20 MUL PUSH1 0x40 MLOAD SWAP1 DUP2 ADD PUSH1 0x40 MSTORE DUP1 SWAP3 SWAP2 SWAP1 PUSH1 0x0 SWAP1 JUMPDEST DUP3 DUP3 LT ISZERO PUSH2 0x2593 JUMPI DUP4 DUP3 PUSH1 0x2 MUL ADD PUSH1 0x2 DUP1 PUSH1 0x20 MUL PUSH1 0x40 MLOAD SWAP1 DUP2 ADD PUSH1 0x40 MSTORE DUP1 SWAP3 SWAP2 SWAP1 DUP3 PUSH1 0x2 DUP1 ISZERO PUSH2 0x257F JUMPI PUSH1 0x20 MUL DUP3 ADD SWAP2 JUMPDEST DUP2 SLOAD DUP2 MSTORE PUSH1 0x20 ADD SWAP1 PUSH1 0x1 ADD SWAP1 DUP1 DUP4 GT PUSH2 0x256B JUMPI JUMPDEST POP POP POP POP POP DUP2 MSTORE PUSH1 0x20 ADD SWAP1 PUSH1 0x1 ADD SWAP1 PUSH2 0x253A JUMP JUMPDEST POP POP POP POP PUSH2 0x3834 JUMP JUMPDEST PUSH1 0x59 DUP2 SWAP1 SSTORE POP POP POP POP JUMP JUMPDEST PUSH1 0x0 DUP1 PUSH2 0x2628 PUSH1 0x8 PUSH1 0x10 DUP1 PUSH1 0x20 MUL PUSH1 0x40 MLOAD SWAP1 DUP2 ADD PUSH1 0x40 MSTORE DUP1 SWAP3 SWAP2 SWAP1 PUSH1 0x0 SWAP1 JUMPDEST DUP3 DUP3 LT ISZERO PUSH2 0x261F JUMPI DUP4 DUP3 PUSH1 0x2 MUL ADD PUSH1 0x2 DUP1 PUSH1 0x20 MUL PUSH1 0x40 MLOAD SWAP1 DUP2 ADD PUSH1 0x40 MSTORE DUP1 SWAP3 SWAP2 SWAP1 DUP3 PUSH1 0x2 DUP1 ISZERO PUSH2 0x260B JUMPI PUSH1 0x20 MUL DUP3 ADD SWAP2 JUMPDEST DUP2 SLOAD DUP2 MSTORE PUSH1 0x20 ADD SWAP1 PUSH1 0x1 ADD SWAP1 DUP1 DUP4 GT PUSH2 0x25F7 JUMPI JUMPDEST POP POP POP POP POP DUP2 MSTORE PUSH1 0x20 ADD SWAP1 PUSH1 0x1 ADD SWAP1 PUSH2 0x25C6 JUMP JUMPDEST POP POP POP POP PUSH2 0x3834 JUMP JUMPDEST PUSH1 0x58 DUP2 SWAP1 SSTORE POP PUSH1 0x0 PUSH1 0x1 SWAP1 POP JUMPDEST PUSH1 0x58 SLOAD DUP2 GT PUSH2 0x273F JUMPI PUSH1 0x9 PUSH1 0x8 DUP3 PUSH1 0x10 DUP2 LT PUSH2 0x2654 JUMPI PUSH2 0x2653 PUSH2 0x4535 JUMP JUMPDEST JUMPDEST PUSH1 0x2 MUL ADD PUSH1 0x0 PUSH1 0x2 DUP2 LT PUSH2 0x266B JUMPI PUSH2 0x266A PUSH2 0x4535 JUMP JUMPDEST JUMPDEST ADD SLOAD GT ISZERO PUSH2 0x2683 JUMPI PUSH1 0xA DUP4 PUSH2 0x2680 SWAP2 SWAP1 PUSH2 0x43DD JUMP JUMPDEST SWAP3 POP JUMPDEST PUSH1 0xA PUSH1 0x8 DUP3 PUSH1 0x10 DUP2 LT PUSH2 0x2699 JUMPI PUSH2 0x2698 PUSH2 0x4535 JUMP JUMPDEST JUMPDEST PUSH1 0x2 MUL ADD PUSH1 0x0 PUSH1 0x2 DUP2 LT PUSH2 0x26B0 JUMPI PUSH2 0x26AF PUSH2 0x4535 JUMP JUMPDEST JUMPDEST ADD SLOAD LT ISZERO PUSH2 0x26F3 JUMPI PUSH1 0x8 DUP2 PUSH1 0x10 DUP2 LT PUSH2 0x26CC JUMPI PUSH2 0x26CB PUSH2 0x4535 JUMP JUMPDEST JUMPDEST PUSH1 0x2 MUL ADD PUSH1 0x0 PUSH1 0x2 DUP2 LT PUSH2 0x26E3 JUMPI PUSH2 0x26E2 PUSH2 0x4535 JUMP JUMPDEST JUMPDEST ADD SLOAD DUP4 PUSH2 0x26F0 SWAP2 SWAP1 PUSH2 0x43DD JUMP JUMPDEST SWAP3 POP JUMPDEST PUSH1 0x1 PUSH1 0x8 DUP3 PUSH1 0x10 DUP2 LT PUSH2 0x2709 JUMPI PUSH2 0x2708 PUSH2 0x4535 JUMP JUMPDEST JUMPDEST PUSH1 0x2 MUL ADD PUSH1 0x0 PUSH1 0x2 DUP2 LT PUSH2 0x2720 JUMPI PUSH2 0x271F PUSH2 0x4535 JUMP JUMPDEST JUMPDEST ADD SLOAD SUB PUSH2 0x272C JUMPI PUSH1 0x1 SWAP2 POP JUMPDEST DUP1 DUP1 PUSH2 0x2737 SWAP1 PUSH2 0x4564 JUMP JUMPDEST SWAP2 POP POP PUSH2 0x2635 JUMP JUMPDEST POP DUP2 PUSH1 0x48 PUSH1 0x1 PUSH1 0x2 DUP2 LT PUSH2 0x2756 JUMPI PUSH2 0x2755 PUSH2 0x4535 JUMP JUMPDEST JUMPDEST PUSH1 0x2 MUL ADD PUSH1 0x0 PUSH1 0x2 DUP2 LT PUSH2 0x276D JUMPI PUSH2 0x276C PUSH2 0x4535 JUMP JUMPDEST JUMPDEST ADD DUP2 SWAP1 SSTORE POP DUP2 PUSH1 0x48 PUSH1 0x1 PUSH1 0x2 DUP2 LT PUSH2 0x2788 JUMPI PUSH2 0x2787 PUSH2 0x4535 JUMP JUMPDEST JUMPDEST PUSH1 0x2 MUL ADD PUSH1 0x1 PUSH1 0x2 DUP2 LT PUSH2 0x279F JUMPI PUSH2 0x279E PUSH2 0x4535 JUMP JUMPDEST JUMPDEST ADD DUP2 SWAP1 SSTORE POP PUSH1 0x1 DUP2 SUB PUSH2 0x2818 JUMPI PUSH1 0xA PUSH1 0x48 PUSH1 0x1 PUSH1 0x2 DUP2 LT PUSH2 0x27C3 JUMPI PUSH2 0x27C2 PUSH2 0x4535 JUMP JUMPDEST JUMPDEST PUSH1 0x2 MUL ADD PUSH1 0x1 PUSH1 0x2 DUP2 LT PUSH2 0x27DA JUMPI PUSH2 0x27D9 PUSH2 0x4535 JUMP JUMPDEST JUMPDEST ADD SLOAD PUSH2 0x27E6 SWAP2 SWAP1 PUSH2 0x43DD JUMP JUMPDEST PUSH1 0x48 PUSH1 0x1 PUSH1 0x2 DUP2 LT PUSH2 0x27FB JUMPI PUSH2 0x27FA PUSH2 0x4535 JUMP JUMPDEST JUMPDEST PUSH1 0x2 MUL ADD PUSH1 0x1 PUSH1 0x2 DUP2 LT PUSH2 0x2812 JUMPI PUSH2 0x2811 PUSH2 0x4535 JUMP JUMPDEST JUMPDEST ADD DUP2 SWAP1 SSTORE POP JUMPDEST POP POP JUMP JUMPDEST PUSH1 0x0 DUP1 PUSH2 0x289D PUSH1 0x28 PUSH1 0x10 DUP1 PUSH1 0x20 MUL PUSH1 0x40 MLOAD SWAP1 DUP2 ADD PUSH1 0x40 MSTORE DUP1 SWAP3 SWAP2 SWAP1 PUSH1 0x0 SWAP1 JUMPDEST DUP3 DUP3 LT ISZERO PUSH2 0x2894 JUMPI DUP4 DUP3 PUSH1 0x2 MUL ADD PUSH1 0x2 DUP1 PUSH1 0x20 MUL PUSH1 0x40 MLOAD SWAP1 DUP2 ADD PUSH1 0x40 MSTORE DUP1 SWAP3 SWAP2 SWAP1 DUP3 PUSH1 0x2 DUP1 ISZERO PUSH2 0x2880 JUMPI PUSH1 0x20 MUL DUP3 ADD SWAP2 JUMPDEST DUP2 SLOAD DUP2 MSTORE PUSH1 0x20 ADD SWAP1 PUSH1 0x1 ADD SWAP1 DUP1 DUP4 GT PUSH2 0x286C JUMPI JUMPDEST POP POP POP POP POP DUP2 MSTORE PUSH1 0x20 ADD SWAP1 PUSH1 0x1 ADD SWAP1 PUSH2 0x283B JUMP JUMPDEST POP POP POP POP PUSH2 0x3834 JUMP JUMPDEST PUSH1 0x59 DUP2 SWAP1 SSTORE POP PUSH1 0x0 PUSH1 0x1 SWAP1 POP JUMPDEST PUSH1 0x59 SLOAD DUP2 GT PUSH2 0x29B4 JUMPI PUSH1 0x9 PUSH1 0x28 DUP3 PUSH1 0x10 DUP2 LT PUSH2 0x28C9 JUMPI PUSH2 0x28C8 PUSH2 0x4535 JUMP JUMPDEST JUMPDEST PUSH1 0x2 MUL ADD PUSH1 0x0 PUSH1 0x2 DUP2 LT PUSH2 0x28E0 JUMPI PUSH2 0x28DF PUSH2 0x4535 JUMP JUMPDEST JUMPDEST ADD SLOAD GT ISZERO PUSH2 0x28F8 JUMPI PUSH1 0xA DUP4 PUSH2 0x28F5 SWAP2 SWAP1 PUSH2 0x43DD JUMP JUMPDEST SWAP3 POP JUMPDEST PUSH1 0xA PUSH1 0x28 DUP3 PUSH1 0x10 DUP2 LT PUSH2 0x290E JUMPI PUSH2 0x290D PUSH2 0x4535 JUMP JUMPDEST JUMPDEST PUSH1 0x2 MUL ADD PUSH1 0x0 PUSH1 0x2 DUP2 LT PUSH2 0x2925 JUMPI PUSH2 0x2924 PUSH2 0x4535 JUMP JUMPDEST JUMPDEST ADD SLOAD LT ISZERO PUSH2 0x2968 JUMPI PUSH1 0x28 DUP2 PUSH1 0x10 DUP2 LT PUSH2 0x2941 JUMPI PUSH2 0x2940 PUSH2 0x4535 JUMP JUMPDEST JUMPDEST PUSH1 0x2 MUL ADD PUSH1 0x0 PUSH1 0x2 DUP2 LT PUSH2 0x2958 JUMPI PUSH2 0x2957 PUSH2 0x4535 JUMP JUMPDEST JUMPDEST ADD SLOAD DUP4 PUSH2 0x2965 SWAP2 SWAP1 PUSH2 0x43DD JUMP JUMPDEST SWAP3 POP JUMPDEST PUSH1 0x1 PUSH1 0x28 DUP3 PUSH1 0x10 DUP2 LT PUSH2 0x297E JUMPI PUSH2 0x297D PUSH2 0x4535 JUMP JUMPDEST JUMPDEST PUSH1 0x2 MUL ADD PUSH1 0x0 PUSH1 0x2 DUP2 LT PUSH2 0x2995 JUMPI PUSH2 0x2994 PUSH2 0x4535 JUMP JUMPDEST JUMPDEST ADD SLOAD SUB PUSH2 0x29A1 JUMPI PUSH1 0x1 SWAP2 POP JUMPDEST DUP1 DUP1 PUSH2 0x29AC SWAP1 PUSH2 0x4564 JUMP JUMPDEST SWAP2 POP POP PUSH2 0x28AA JUMP JUMPDEST POP DUP2 PUSH1 0x4C PUSH1 0x1 PUSH1 0x2 DUP2 LT PUSH2 0x29CB JUMPI PUSH2 0x29CA PUSH2 0x4535 JUMP JUMPDEST JUMPDEST PUSH1 0x2 MUL ADD PUSH1 0x0 PUSH1 0x2 DUP2 LT PUSH2 0x29E2 JUMPI PUSH2 0x29E1 PUSH2 0x4535 JUMP JUMPDEST JUMPDEST ADD DUP2 SWAP1 SSTORE POP DUP2 PUSH1 0x4C PUSH1 0x1 PUSH1 0x2 DUP2 LT PUSH2 0x29FD JUMPI PUSH2 0x29FC PUSH2 0x4535 JUMP JUMPDEST JUMPDEST PUSH1 0x2 MUL ADD PUSH1 0x1 PUSH1 0x2 DUP2 LT PUSH2 0x2A14 JUMPI PUSH2 0x2A13 PUSH2 0x4535 JUMP JUMPDEST JUMPDEST ADD DUP2 SWAP1 SSTORE POP PUSH1 0x1 DUP2 SUB PUSH2 0x2A8D JUMPI PUSH1 0xA PUSH1 0x4C PUSH1 0x1 PUSH1 0x2 DUP2 LT PUSH2 0x2A38 JUMPI PUSH2 0x2A37 PUSH2 0x4535 JUMP JUMPDEST JUMPDEST PUSH1 0x2 MUL ADD PUSH1 0x1 PUSH1 0x2 DUP2 LT PUSH2 0x2A4F JUMPI PUSH2 0x2A4E PUSH2 0x4535 JUMP JUMPDEST JUMPDEST ADD SLOAD PUSH2 0x2A5B SWAP2 SWAP1 PUSH2 0x43DD JUMP JUMPDEST PUSH1 0x4C PUSH1 0x1 PUSH1 0x2 DUP2 LT PUSH2 0x2A70 JUMPI PUSH2 0x2A6F PUSH2 0x4535 JUMP JUMPDEST JUMPDEST PUSH1 0x2 MUL ADD PUSH1 0x1 PUSH1 0x2 DUP2 LT PUSH2 0x2A87 JUMPI PUSH2 0x2A86 PUSH2 0x4535 JUMP JUMPDEST JUMPDEST ADD DUP2 SWAP1 SSTORE POP JUMPDEST POP POP JUMP JUMPDEST PUSH1 0x15 PUSH1 0x4C PUSH1 0x1 PUSH1 0x2 DUP2 LT PUSH2 0x2AA8 JUMPI PUSH2 0x2AA7 PUSH2 0x4535 JUMP JUMPDEST JUMPDEST PUSH1 0x2 MUL ADD PUSH1 0x0 PUSH1 0x2 DUP2 LT PUSH2 0x2ABF JUMPI PUSH2 0x2ABE PUSH2 0x4535 JUMP JUMPDEST JUMPDEST ADD SLOAD GT ISZERO DUP1 ISZERO PUSH2 0x2AFC JUMPI POP PUSH1 0x15 PUSH1 0x4C PUSH1 0x1 PUSH1 0x2 DUP2 LT PUSH2 0x2AE1 JUMPI PUSH2 0x2AE0 PUSH2 0x4535 JUMP JUMPDEST JUMPDEST PUSH1 0x2 MUL ADD PUSH1 0x1 PUSH1 0x2 DUP2 LT PUSH2 0x2AF8 JUMPI PUSH2 0x2AF7 PUSH2 0x4535 JUMP JUMPDEST JUMPDEST ADD SLOAD GT JUMPDEST ISZERO PUSH2 0x2B36 JUMPI PUSH1 0x4C PUSH1 0x1 PUSH1 0x2 DUP2 LT PUSH2 0x2B16 JUMPI PUSH2 0x2B15 PUSH2 0x4535 JUMP JUMPDEST JUMPDEST PUSH1 0x2 MUL ADD PUSH1 0x0 PUSH1 0x2 DUP2 LT PUSH2 0x2B2D JUMPI PUSH2 0x2B2C PUSH2 0x4535 JUMP JUMPDEST JUMPDEST ADD SLOAD PUSH1 0x5D DUP2 SWAP1 SSTORE POP JUMPDEST PUSH1 0x15 PUSH1 0x4C PUSH1 0x1 PUSH1 0x2 DUP2 LT PUSH2 0x2B4D JUMPI PUSH2 0x2B4C PUSH2 0x4535 JUMP JUMPDEST JUMPDEST PUSH1 0x2 MUL ADD PUSH1 0x0 PUSH1 0x2 DUP2 LT PUSH2 0x2B64 JUMPI PUSH2 0x2B63 PUSH2 0x4535 JUMP JUMPDEST JUMPDEST ADD SLOAD GT DUP1 ISZERO PUSH2 0x2BA1 JUMPI POP PUSH1 0x15 PUSH1 0x48 PUSH1 0x1 PUSH1 0x2 DUP2 LT PUSH2 0x2B85 JUMPI PUSH2 0x2B84 PUSH2 0x4535 JUMP JUMPDEST JUMPDEST PUSH1 0x2 MUL ADD PUSH1 0x1 PUSH1 0x2 DUP2 LT PUSH2 0x2B9C JUMPI PUSH2 0x2B9B PUSH2 0x4535 JUMP JUMPDEST JUMPDEST ADD SLOAD GT ISZERO JUMPDEST ISZERO PUSH2 0x2BDB JUMPI PUSH1 0x4C PUSH1 0x1 PUSH1 0x2 DUP2 LT PUSH2 0x2BBB JUMPI PUSH2 0x2BBA PUSH2 0x4535 JUMP JUMPDEST JUMPDEST PUSH1 0x2 MUL ADD PUSH1 0x1 PUSH1 0x2 DUP2 LT PUSH2 0x2BD2 JUMPI PUSH2 0x2BD1 PUSH2 0x4535 JUMP JUMPDEST JUMPDEST ADD SLOAD PUSH1 0x5D DUP2 SWAP1 SSTORE POP JUMPDEST PUSH1 0x15 PUSH1 0x4C PUSH1 0x1 PUSH1 0x2 DUP2 LT PUSH2 0x2BF2 JUMPI PUSH2 0x2BF1 PUSH2 0x4535 JUMP JUMPDEST JUMPDEST PUSH1 0x2 MUL ADD PUSH1 0x0 PUSH1 0x2 DUP2 LT PUSH2 0x2C09 JUMPI PUSH2 0x2C08 PUSH2 0x4535 JUMP JUMPDEST JUMPDEST ADD SLOAD GT ISZERO DUP1 ISZERO PUSH2 0x2C47 JUMPI POP PUSH1 0x15 PUSH1 0x4C PUSH1 0x1 PUSH1 0x2 DUP2 LT PUSH2 0x2C2B JUMPI PUSH2 0x2C2A PUSH2 0x4535 JUMP JUMPDEST JUMPDEST PUSH1 0x2 MUL ADD PUSH1 0x1 PUSH1 0x2 DUP2 LT PUSH2 0x2C42 JUMPI PUSH2 0x2C41 PUSH2 0x4535 JUMP JUMPDEST JUMPDEST ADD SLOAD GT ISZERO JUMPDEST ISZERO PUSH2 0x2D7A JUMPI PUSH1 0x4C PUSH1 0x1 PUSH1 0x2 DUP2 LT PUSH2 0x2C61 JUMPI PUSH2 0x2C60 PUSH2 0x4535 JUMP JUMPDEST JUMPDEST PUSH1 0x2 MUL ADD PUSH1 0x1 PUSH1 0x2 DUP2 LT PUSH2 0x2C78 JUMPI PUSH2 0x2C77 PUSH2 0x4535 JUMP JUMPDEST JUMPDEST ADD SLOAD PUSH1 0x4C PUSH1 0x1 PUSH1 0x2 DUP2 LT PUSH2 0x2C8F JUMPI PUSH2 0x2C8E PUSH2 0x4535 JUMP JUMPDEST JUMPDEST PUSH1 0x2 MUL ADD PUSH1 0x0 PUSH1 0x2 DUP2 LT PUSH2 0x2CA6 JUMPI PUSH2 0x2CA5 PUSH2 0x4535 JUMP JUMPDEST JUMPDEST ADD SLOAD GT ISZERO PUSH2 0x2CE3 JUMPI PUSH1 0x4C PUSH1 0x1 PUSH1 0x2 DUP2 LT PUSH2 0x2CC3 JUMPI PUSH2 0x2CC2 PUSH2 0x4535 JUMP JUMPDEST JUMPDEST PUSH1 0x2 MUL ADD PUSH1 0x0 PUSH1 0x2 DUP2 LT PUSH2 0x2CDA JUMPI PUSH2 0x2CD9 PUSH2 0x4535 JUMP JUMPDEST JUMPDEST ADD SLOAD PUSH1 0x5D DUP2 SWAP1 SSTORE POP JUMPDEST PUSH1 0x4C PUSH1 0x1 PUSH1 0x2 DUP2 LT PUSH2 0x2CF8 JUMPI PUSH2 0x2CF7 PUSH2 0x4535 JUMP JUMPDEST JUMPDEST PUSH1 0x2 MUL ADD PUSH1 0x1 PUSH1 0x2 DUP2 LT PUSH2 0x2D0F JUMPI PUSH2 0x2D0E PUSH2 0x4535 JUMP JUMPDEST JUMPDEST ADD SLOAD PUSH1 0x4C PUSH1 0x1 PUSH1 0x2 DUP2 LT PUSH2 0x2D26 JUMPI PUSH2 0x2D25 PUSH2 0x4535 JUMP JUMPDEST JUMPDEST PUSH1 0x2 MUL ADD PUSH1 0x0 PUSH1 0x2 DUP2 LT PUSH2 0x2D3D JUMPI PUSH2 0x2D3C PUSH2 0x4535 JUMP JUMPDEST JUMPDEST ADD SLOAD GT PUSH2 0x2D79 JUMPI PUSH1 0x4C PUSH1 0x1 PUSH1 0x2 DUP2 LT PUSH2 0x2D59 JUMPI PUSH2 0x2D58 PUSH2 0x4535 JUMP JUMPDEST JUMPDEST PUSH1 0x2 MUL ADD PUSH1 0x1 PUSH1 0x2 DUP2 LT PUSH2 0x2D70 JUMPI PUSH2 0x2D6F PUSH2 0x4535 JUMP JUMPDEST JUMPDEST ADD SLOAD PUSH1 0x5D DUP2 SWAP1 SSTORE POP JUMPDEST JUMPDEST PUSH1 0x10 PUSH1 0x4C PUSH1 0x1 PUSH1 0x2 DUP2 LT PUSH2 0x2D91 JUMPI PUSH2 0x2D90 PUSH2 0x4535 JUMP JUMPDEST JUMPDEST PUSH1 0x2 MUL ADD PUSH1 0x0 PUSH1 0x2 DUP2 LT PUSH2 0x2DA8 JUMPI PUSH2 0x2DA7 PUSH2 0x4535 JUMP JUMPDEST JUMPDEST ADD SLOAD GT DUP1 PUSH2 0x2DE3 JUMPI POP PUSH1 0x10 PUSH1 0x4C PUSH1 0x1 PUSH1 0x2 DUP2 LT PUSH2 0x2DC8 JUMPI PUSH2 0x2DC7 PUSH2 0x4535 JUMP JUMPDEST JUMPDEST PUSH1 0x2 MUL ADD PUSH1 0x1 PUSH1 0x2 DUP2 LT PUSH2 0x2DDF JUMPI PUSH2 0x2DDE PUSH2 0x4535 JUMP JUMPDEST JUMPDEST ADD SLOAD GT JUMPDEST ISZERO PUSH2 0x3013 JUMPI PUSH1 0x15 PUSH1 0x4C PUSH1 0x1 PUSH1 0x2 DUP2 LT PUSH2 0x2DFF JUMPI PUSH2 0x2DFE PUSH2 0x4535 JUMP JUMPDEST JUMPDEST PUSH1 0x2 MUL ADD PUSH1 0x0 PUSH1 0x2 DUP2 LT PUSH2 0x2E16 JUMPI PUSH2 0x2E15 PUSH2 0x4535 JUMP JUMPDEST JUMPDEST ADD SLOAD GT DUP1 ISZERO PUSH2 0x2E52 JUMPI POP PUSH1 0x15 PUSH1 0x4C PUSH1 0x1 PUSH1 0x2 DUP2 LT PUSH2 0x2E37 JUMPI PUSH2 0x2E36 PUSH2 0x4535 JUMP JUMPDEST JUMPDEST PUSH1 0x2 MUL ADD PUSH1 0x1 PUSH1 0x2 DUP2 LT PUSH2 0x2E4E JUMPI PUSH2 0x2E4D PUSH2 0x4535 JUMP JUMPDEST JUMPDEST ADD SLOAD GT JUMPDEST ISZERO PUSH2 0x2FEF JUMPI PUSH1 0x1 PUSH1 0x5B DUP2 SWAP1 SSTORE POP PUSH1 0x0 PUSH1 0x1 DUP2 SWAP1 SSTORE POP PUSH1 0x4C PUSH1 0x1 PUSH1 0x2 DUP2 LT PUSH2 0x2E7C JUMPI PUSH2 0x2E7B PUSH2 0x4535 JUMP JUMPDEST JUMPDEST PUSH1 0x2 MUL ADD PUSH1 0x1 PUSH1 0x2 DUP2 LT PUSH2 0x2E93 JUMPI PUSH2 0x2E92 PUSH2 0x4535 JUMP JUMPDEST JUMPDEST ADD SLOAD PUSH1 0x4C PUSH1 0x1 PUSH1 0x2 DUP2 LT PUSH2 0x2EAA JUMPI PUSH2 0x2EA9 PUSH2 0x4535 JUMP JUMPDEST JUMPDEST PUSH1 0x2 MUL ADD PUSH1 0x0 PUSH1 0x2 DUP2 LT PUSH2 0x2EC1 JUMPI PUSH2 0x2EC0 PUSH2 0x4535 JUMP JUMPDEST JUMPDEST ADD SLOAD GT PUSH2 0x2EFD JUMPI PUSH1 0x4C PUSH1 0x1 PUSH1 0x2 DUP2 LT PUSH2 0x2EDD JUMPI PUSH2 0x2EDC PUSH2 0x4535 JUMP JUMPDEST JUMPDEST PUSH1 0x2 MUL ADD PUSH1 0x0 PUSH1 0x2 DUP2 LT PUSH2 0x2EF4 JUMPI PUSH2 0x2EF3 PUSH2 0x4535 JUMP JUMPDEST JUMPDEST ADD SLOAD PUSH1 0x5D DUP2 SWAP1 SSTORE POP JUMPDEST PUSH1 0x4C PUSH1 0x1 PUSH1 0x2 DUP2 LT PUSH2 0x2F12 JUMPI PUSH2 0x2F11 PUSH2 0x4535 JUMP JUMPDEST JUMPDEST PUSH1 0x2 MUL ADD PUSH1 0x1 PUSH1 0x2 DUP2 LT PUSH2 0x2F29 JUMPI PUSH2 0x2F28 PUSH2 0x4535 JUMP JUMPDEST JUMPDEST ADD SLOAD PUSH1 0x4C PUSH1 0x1 PUSH1 0x2 DUP2 LT PUSH2 0x2F40 JUMPI PUSH2 0x2F3F PUSH2 0x4535 JUMP JUMPDEST JUMPDEST PUSH1 0x2 MUL ADD PUSH1 0x0 PUSH1 0x2 DUP2 LT PUSH2 0x2F57 JUMPI PUSH2 0x2F56 PUSH2 0x4535 JUMP JUMPDEST JUMPDEST ADD SLOAD GT ISZERO PUSH2 0x2F94 JUMPI PUSH1 0x4C PUSH1 0x1 PUSH1 0x2 DUP2 LT PUSH2 0x2F74 JUMPI PUSH2 0x2F73 PUSH2 0x4535 JUMP JUMPDEST JUMPDEST PUSH1 0x2 MUL ADD PUSH1 0x1 PUSH1 0x2 DUP2 LT PUSH2 0x2F8B JUMPI PUSH2 0x2F8A PUSH2 0x4535 JUMP JUMPDEST JUMPDEST ADD SLOAD PUSH1 0x5D DUP2 SWAP1 SSTORE POP JUMPDEST PUSH1 0x0 PUSH1 0x5A SLOAD EQ DUP1 ISZERO PUSH2 0x2FA8 JUMPI POP PUSH1 0x1 PUSH1 0x5E SLOAD EQ JUMPDEST ISZERO PUSH2 0x2FEE JUMPI PUSH1 0x2 PUSH1 0x4 SLOAD PUSH2 0x2FBC SWAP2 SWAP1 PUSH2 0x4860 JUMP JUMPDEST PUSH1 0x3 SLOAD PUSH2 0x2FC9 SWAP2 SWAP1 PUSH2 0x43DD JUMP JUMPDEST PUSH1 0x3 DUP2 SWAP1 SSTORE POP PUSH1 0x4 SLOAD PUSH1 0x2 SLOAD PUSH2 0x2FDF SWAP2 SWAP1 PUSH2 0x41F3 JUMP JUMPDEST PUSH1 0x2 DUP2 SWAP1 SSTORE POP PUSH1 0x0 PUSH1 0x4 DUP2 SWAP1 SSTORE POP JUMPDEST JUMPDEST PUSH1 0x1 PUSH1 0x5B SLOAD EQ PUSH2 0x3012 JUMPI PUSH1 0x0 PUSH1 0x1 DUP2 SWAP1 SSTORE POP PUSH1 0x1 PUSH1 0x5F DUP2 SWAP1 SSTORE POP PUSH2 0x3011 PUSH2 0x3BDB JUMP JUMPDEST JUMPDEST JUMPDEST JUMP JUMPDEST PUSH1 0x15 PUSH1 0x48 PUSH1 0x1 PUSH1 0x2 DUP2 LT PUSH2 0x302C JUMPI PUSH2 0x302B PUSH2 0x4535 JUMP JUMPDEST JUMPDEST PUSH1 0x2 MUL ADD PUSH1 0x0 PUSH1 0x2 DUP2 LT PUSH2 0x3043 JUMPI PUSH2 0x3042 PUSH2 0x4535 JUMP JUMPDEST JUMPDEST ADD SLOAD GT DUP1 ISZERO PUSH2 0x307F JUMPI POP PUSH1 0x15 PUSH1 0x48 PUSH1 0x1 PUSH1 0x2 DUP2 LT PUSH2 0x3064 JUMPI PUSH2 0x3063 PUSH2 0x4535 JUMP JUMPDEST JUMPDEST PUSH1 0x2 MUL ADD PUSH1 0x1 PUSH1 0x2 DUP2 LT PUSH2 0x307B JUMPI PUSH2 0x307A PUSH2 0x4535 JUMP JUMPDEST JUMPDEST ADD SLOAD GT JUMPDEST ISZERO PUSH2 0x31E0 JUMPI PUSH1 0x1 PUSH1 0x5A DUP2 SWAP1 SSTORE POP PUSH1 0x0 PUSH1 0x1 DUP2 SWAP1 SSTORE POP PUSH1 0x48 PUSH1 0x1 PUSH1 0x2 DUP2 LT PUSH2 0x30A9 JUMPI PUSH2 0x30A8 PUSH2 0x4535 JUMP JUMPDEST JUMPDEST PUSH1 0x2 MUL ADD PUSH1 0x1 PUSH1 0x2 DUP2 LT PUSH2 0x30C0 JUMPI PUSH2 0x30BF PUSH2 0x4535 JUMP JUMPDEST JUMPDEST ADD SLOAD PUSH1 0x48 PUSH1 0x1 PUSH1 0x2 DUP2 LT PUSH2 0x30D7 JUMPI PUSH2 0x30D6 PUSH2 0x4535 JUMP JUMPDEST JUMPDEST PUSH1 0x2 MUL ADD PUSH1 0x0 PUSH1 0x2 DUP2 LT PUSH2 0x30EE JUMPI PUSH2 0x30ED PUSH2 0x4535 JUMP JUMPDEST JUMPDEST ADD SLOAD GT PUSH2 0x312A JUMPI PUSH1 0x48 PUSH1 0x1 PUSH1 0x2 DUP2 LT PUSH2 0x310A JUMPI PUSH2 0x3109 PUSH2 0x4535 JUMP JUMPDEST JUMPDEST PUSH1 0x2 MUL ADD PUSH1 0x0 PUSH1 0x2 DUP2 LT PUSH2 0x3121 JUMPI PUSH2 0x3120 PUSH2 0x4535 JUMP JUMPDEST JUMPDEST ADD SLOAD PUSH1 0x5C DUP2 SWAP1 SSTORE POP JUMPDEST PUSH1 0x48 PUSH1 0x1 PUSH1 0x2 DUP2 LT PUSH2 0x313F JUMPI PUSH2 0x313E PUSH2 0x4535 JUMP JUMPDEST JUMPDEST PUSH1 0x2 MUL ADD PUSH1 0x1 PUSH1 0x2 DUP2 LT PUSH2 0x3156 JUMPI PUSH2 0x3155 PUSH2 0x4535 JUMP JUMPDEST JUMPDEST ADD SLOAD PUSH1 0x48 PUSH1 0x1 PUSH1 0x2 DUP2 LT PUSH2 0x316D JUMPI PUSH2 0x316C PUSH2 0x4535 JUMP JUMPDEST JUMPDEST PUSH1 0x2 MUL ADD PUSH1 0x0 PUSH1 0x2 DUP2 LT PUSH2 0x3184 JUMPI PUSH2 0x3183 PUSH2 0x4535 JUMP JUMPDEST JUMPDEST ADD SLOAD GT ISZERO PUSH2 0x31C1 JUMPI PUSH1 0x48 PUSH1 0x1 PUSH1 0x2 DUP2 LT PUSH2 0x31A1 JUMPI PUSH2 0x31A0 PUSH2 0x4535 JUMP JUMPDEST JUMPDEST PUSH1 0x2 MUL ADD PUSH1 0x1 PUSH1 0x2 DUP2 LT PUSH2 0x31B8 JUMPI PUSH2 0x31B7 PUSH2 0x4535 JUMP JUMPDEST JUMPDEST ADD SLOAD PUSH1 0x5C DUP2 SWAP1 SSTORE POP JUMPDEST PUSH1 0x4 SLOAD PUSH1 0x2 SLOAD PUSH2 0x31D1 SWAP2 SWAP1 PUSH2 0x43DD JUMP JUMPDEST PUSH1 0x2 DUP2 SWAP1 SSTORE POP PUSH1 0x0 PUSH1 0x4 DUP2 SWAP1 SSTORE POP JUMPDEST PUSH1 0x15 PUSH1 0x48 PUSH1 0x1 PUSH1 0x2 DUP2 LT PUSH2 0x31F7 JUMPI PUSH2 0x31F6 PUSH2 0x4535 JUMP JUMPDEST JUMPDEST PUSH1 0x2 MUL ADD PUSH1 0x0 PUSH1 0x2 DUP2 LT PUSH2 0x320E JUMPI PUSH2 0x320D PUSH2 0x4535 JUMP JUMPDEST JUMPDEST ADD SLOAD GT ISZERO DUP1 ISZERO PUSH2 0x324B JUMPI POP PUSH1 0x15 PUSH1 0x48 PUSH1 0x1 PUSH1 0x2 DUP2 LT PUSH2 0x3230 JUMPI PUSH2 0x322F PUSH2 0x4535 JUMP JUMPDEST JUMPDEST PUSH1 0x2 MUL ADD PUSH1 0x1 PUSH1 0x2 DUP2 LT PUSH2 0x3247 JUMPI PUSH2 0x3246 PUSH2 0x4535 JUMP JUMPDEST JUMPDEST ADD SLOAD GT JUMPDEST ISZERO PUSH2 0x3285 JUMPI PUSH1 0x48 PUSH1 0x1 PUSH1 0x2 DUP2 LT PUSH2 0x3265 JUMPI PUSH2 0x3264 PUSH2 0x4535 JUMP JUMPDEST JUMPDEST PUSH1 0x2 MUL ADD PUSH1 0x0 PUSH1 0x2 DUP2 LT PUSH2 0x327C JUMPI PUSH2 0x327B PUSH2 0x4535 JUMP JUMPDEST JUMPDEST ADD SLOAD PUSH1 0x5C DUP2 SWAP1 SSTORE POP JUMPDEST PUSH1 0x15 PUSH1 0x48 PUSH1 0x1 PUSH1 0x2 DUP2 LT PUSH2 0x329C JUMPI PUSH2 0x329B PUSH2 0x4535 JUMP JUMPDEST JUMPDEST PUSH1 0x2 MUL ADD PUSH1 0x0 PUSH1 0x2 DUP2 LT PUSH2 0x32B3 JUMPI PUSH2 0x32B2 PUSH2 0x4535 JUMP JUMPDEST JUMPDEST ADD SLOAD GT DUP1 ISZERO PUSH2 0x32F0 JUMPI POP PUSH1 0x15 PUSH1 0x48 PUSH1 0x1 PUSH1 0x2 DUP2 LT PUSH2 0x32D4 JUMPI PUSH2 0x32D3 PUSH2 0x4535 JUMP JUMPDEST JUMPDEST PUSH1 0x2 MUL ADD PUSH1 0x1 PUSH1 0x2 DUP2 LT PUSH2 0x32EB JUMPI PUSH2 0x32EA PUSH2 0x4535 JUMP JUMPDEST JUMPDEST ADD SLOAD GT ISZERO JUMPDEST ISZERO PUSH2 0x332A JUMPI PUSH1 0x48 PUSH1 0x1 PUSH1 0x2 DUP2 LT PUSH2 0x330A JUMPI PUSH2 0x3309 PUSH2 0x4535 JUMP JUMPDEST JUMPDEST PUSH1 0x2 MUL ADD PUSH1 0x1 PUSH1 0x2 DUP2 LT PUSH2 0x3321 JUMPI PUSH2 0x3320 PUSH2 0x4535 JUMP JUMPDEST JUMPDEST ADD SLOAD PUSH1 0x5C DUP2 SWAP1 SSTORE POP JUMPDEST PUSH1 0x15 PUSH1 0x48 PUSH1 0x1 PUSH1 0x2 DUP2 LT PUSH2 0x3341 JUMPI PUSH2 0x3340 PUSH2 0x4535 JUMP JUMPDEST JUMPDEST PUSH1 0x2 MUL ADD PUSH1 0x0 PUSH1 0x2 DUP2 LT PUSH2 0x3358 JUMPI PUSH2 0x3357 PUSH2 0x4535 JUMP JUMPDEST JUMPDEST ADD SLOAD GT ISZERO DUP1 ISZERO PUSH2 0x3396 JUMPI POP PUSH1 0x15 PUSH1 0x48 PUSH1 0x1 PUSH1 0x2 DUP2 LT PUSH2 0x337A JUMPI PUSH2 0x3379 PUSH2 0x4535 JUMP JUMPDEST JUMPDEST PUSH1 0x2 MUL ADD PUSH1 0x1 PUSH1 0x2 DUP2 LT PUSH2 0x3391 JUMPI PUSH2 0x3390 PUSH2 0x4535 JUMP JUMPDEST JUMPDEST ADD SLOAD GT ISZERO JUMPDEST ISZERO PUSH2 0x34C9 JUMPI PUSH1 0x48 PUSH1 0x1 PUSH1 0x2 DUP2 LT PUSH2 0x33B0 JUMPI PUSH2 0x33AF PUSH2 0x4535 JUMP JUMPDEST JUMPDEST PUSH1 0x2 MUL ADD PUSH1 0x1 PUSH1 0x2 DUP2 LT PUSH2 0x33C7 JUMPI PUSH2 0x33C6 PUSH2 0x4535 JUMP JUMPDEST JUMPDEST ADD SLOAD PUSH1 0x48 PUSH1 0x1 PUSH1 0x2 DUP2 LT PUSH2 0x33DE JUMPI PUSH2 0x33DD PUSH2 0x4535 JUMP JUMPDEST JUMPDEST PUSH1 0x2 MUL ADD PUSH1 0x0 PUSH1 0x2 DUP2 LT PUSH2 0x33F5 JUMPI PUSH2 0x33F4 PUSH2 0x4535 JUMP JUMPDEST JUMPDEST ADD SLOAD GT ISZERO PUSH2 0x3432 JUMPI PUSH1 0x48 PUSH1 0x1 PUSH1 0x2 DUP2 LT PUSH2 0x3412 JUMPI PUSH2 0x3411 PUSH2 0x4535 JUMP JUMPDEST JUMPDEST PUSH1 0x2 MUL ADD PUSH1 0x0 PUSH1 0x2 DUP2 LT PUSH2 0x3429 JUMPI PUSH2 0x3428 PUSH2 0x4535 JUMP JUMPDEST JUMPDEST ADD SLOAD PUSH1 0x5C DUP2 SWAP1 SSTORE POP JUMPDEST PUSH1 0x48 PUSH1 0x1 PUSH1 0x2 DUP2 LT PUSH2 0x3447 JUMPI PUSH2 0x3446 PUSH2 0x4535 JUMP JUMPDEST JUMPDEST PUSH1 0x2 MUL ADD PUSH1 0x1 PUSH1 0x2 DUP2 LT PUSH2 0x345E JUMPI PUSH2 0x345D PUSH2 0x4535 JUMP JUMPDEST JUMPDEST ADD SLOAD PUSH1 0x48 PUSH1 0x1 PUSH1 0x2 DUP2 LT PUSH2 0x3475 JUMPI PUSH2 0x3474 PUSH2 0x4535 JUMP JUMPDEST JUMPDEST PUSH1 0x2 MUL ADD PUSH1 0x0 PUSH1 0x2 DUP2 LT PUSH2 0x348C JUMPI PUSH2 0x348B PUSH2 0x4535 JUMP JUMPDEST JUMPDEST ADD SLOAD GT PUSH2 0x34C8 JUMPI PUSH1 0x48 PUSH1 0x1 PUSH1 0x2 DUP2 LT PUSH2 0x34A8 JUMPI PUSH2 0x34A7 PUSH2 0x4535 JUMP JUMPDEST JUMPDEST PUSH1 0x2 MUL ADD PUSH1 0x1 PUSH1 0x2 DUP2 LT PUSH2 0x34BF JUMPI PUSH2 0x34BE PUSH2 0x4535 JUMP JUMPDEST JUMPDEST ADD SLOAD PUSH1 0x5C DUP2 SWAP1 SSTORE POP JUMPDEST JUMPDEST JUMP JUMPDEST PUSH1 0x0 PUSH1 0x1 DUP2 SWAP1 SSTORE POP PUSH1 0x1 PUSH1 0x28 PUSH1 0x1 PUSH1 0x10 DUP2 LT PUSH2 0x34EA JUMPI PUSH2 0x34E9 PUSH2 0x4535 JUMP JUMPDEST JUMPDEST PUSH1 0x2 MUL ADD PUSH1 0x0 PUSH1 0x2 DUP2 LT PUSH2 0x3501 JUMPI PUSH2 0x3500 PUSH2 0x4535 JUMP JUMPDEST JUMPDEST ADD SLOAD EQ DUP1 PUSH2 0x353C JUMPI POP PUSH1 0xA PUSH1 0x4C PUSH1 0x1 PUSH1 0x2 DUP2 LT PUSH2 0x3521 JUMPI PUSH2 0x3520 PUSH2 0x4535 JUMP JUMPDEST JUMPDEST PUSH1 0x2 MUL ADD PUSH1 0x0 PUSH1 0x2 DUP2 LT PUSH2 0x3538 JUMPI PUSH2 0x3537 PUSH2 0x4535 JUMP JUMPDEST JUMPDEST ADD SLOAD EQ JUMPDEST ISZERO PUSH2 0x3832 JUMPI PUSH2 0x354B PUSH1 0x1 PUSH2 0x1DB1 JUMP JUMPDEST PUSH1 0x0 PUSH1 0x1 SWAP1 POP JUMPDEST PUSH1 0x1 DUP2 GT PUSH2 0x3706 JUMPI JUMPDEST PUSH1 0x50 PUSH1 0x1 PUSH1 0x4 DUP2 LT PUSH2 0x3570 JUMPI PUSH2 0x356F PUSH2 0x4535 JUMP JUMPDEST JUMPDEST PUSH1 0x2 MUL ADD PUSH1 0x0 PUSH1 0x2 DUP2 LT PUSH2 0x3587 JUMPI PUSH2 0x3586 PUSH2 0x4535 JUMP JUMPDEST JUMPDEST ADD SLOAD PUSH1 0x8 DUP3 PUSH1 0x10 DUP2 LT PUSH2 0x359D JUMPI PUSH2 0x359C PUSH2 0x4535 JUMP JUMPDEST JUMPDEST PUSH1 0x2 MUL ADD PUSH1 0x0 PUSH1 0x2 DUP2 LT PUSH2 0x35B4 JUMPI PUSH2 0x35B3 PUSH2 0x4535 JUMP JUMPDEST JUMPDEST ADD SLOAD EQ DUP1 PUSH2 0x361A JUMPI POP PUSH1 0x50 PUSH1 0x1 PUSH1 0x4 DUP2 LT PUSH2 0x35D2 JUMPI PUSH2 0x35D1 PUSH2 0x4535 JUMP JUMPDEST JUMPDEST PUSH1 0x2 MUL ADD PUSH1 0x0 PUSH1 0x2 DUP2 LT PUSH2 0x35E9 JUMPI PUSH2 0x35E8 PUSH2 0x4535 JUMP JUMPDEST JUMPDEST ADD SLOAD PUSH1 0x28 DUP3 PUSH1 0x10 DUP2 LT PUSH2 0x35FF JUMPI PUSH2 0x35FE PUSH2 0x4535 JUMP JUMPDEST JUMPDEST PUSH1 0x2 MUL ADD PUSH1 0x0 PUSH1 0x2 DUP2 LT PUSH2 0x3616 JUMPI PUSH2 0x3615 PUSH2 0x4535 JUMP JUMPDEST JUMPDEST ADD SLOAD EQ JUMPDEST ISZERO PUSH2 0x36F3 JUMPI PUSH1 0x50 PUSH1 0x1 PUSH1 0x4 DUP2 LT PUSH2 0x3634 JUMPI PUSH2 0x3633 PUSH2 0x4535 JUMP JUMPDEST JUMPDEST PUSH1 0x2 MUL ADD PUSH1 0x1 PUSH1 0x2 DUP2 LT PUSH2 0x364B JUMPI PUSH2 0x364A PUSH2 0x4535 JUMP JUMPDEST JUMPDEST ADD SLOAD PUSH1 0x8 DUP3 PUSH1 0x10 DUP2 LT PUSH2 0x3661 JUMPI PUSH2 0x3660 PUSH2 0x4535 JUMP JUMPDEST JUMPDEST PUSH1 0x2 MUL ADD PUSH1 0x1 PUSH1 0x2 DUP2 LT PUSH2 0x3678 JUMPI PUSH2 0x3677 PUSH2 0x4535 JUMP JUMPDEST JUMPDEST ADD SLOAD EQ DUP1 PUSH2 0x36DE JUMPI POP PUSH1 0x50 PUSH1 0x1 PUSH1 0x4 DUP2 LT PUSH2 0x3696 JUMPI PUSH2 0x3695 PUSH2 0x4535 JUMP JUMPDEST JUMPDEST PUSH1 0x2 MUL ADD PUSH1 0x1 PUSH1 0x2 DUP2 LT PUSH2 0x36AD JUMPI PUSH2 0x36AC PUSH2 0x4535 JUMP JUMPDEST JUMPDEST ADD SLOAD PUSH1 0x28 DUP3 PUSH1 0x10 DUP2 LT PUSH2 0x36C3 JUMPI PUSH2 0x36C2 PUSH2 0x4535 JUMP JUMPDEST JUMPDEST PUSH1 0x2 MUL ADD PUSH1 0x1 PUSH1 0x2 DUP2 LT PUSH2 0x36DA JUMPI PUSH2 0x36D9 PUSH2 0x4535 JUMP JUMPDEST JUMPDEST ADD SLOAD EQ JUMPDEST ISZERO PUSH2 0x36EE JUMPI PUSH2 0x36ED PUSH1 0x1 PUSH2 0x1DB1 JUMP JUMPDEST JUMPDEST PUSH2 0x355B JUMP JUMPDEST DUP1 DUP1 PUSH2 0x36FE SWAP1 PUSH2 0x4564 JUMP JUMPDEST SWAP2 POP POP PUSH2 0x3552 JUMP JUMPDEST POP PUSH2 0x376D PUSH1 0x50 PUSH1 0x1 PUSH1 0x4 DUP2 LT PUSH2 0x371F JUMPI PUSH2 0x371E PUSH2 0x4535 JUMP JUMPDEST JUMPDEST PUSH1 0x2 MUL ADD PUSH1 0x0 PUSH1 0x2 DUP2 LT PUSH2 0x3736 JUMPI PUSH2 0x3735 PUSH2 0x4535 JUMP JUMPDEST JUMPDEST ADD SLOAD PUSH1 0x50 PUSH1 0x1 PUSH1 0x4 DUP2 LT PUSH2 0x374D JUMPI PUSH2 0x374C PUSH2 0x4535 JUMP JUMPDEST JUMPDEST PUSH1 0x2 MUL ADD PUSH1 0x1 PUSH1 0x2 DUP2 LT PUSH2 0x3764 JUMPI PUSH2 0x3763 PUSH2 0x4535 JUMP JUMPDEST JUMPDEST ADD SLOAD PUSH1 0x2 PUSH2 0x24BC JUMP JUMPDEST PUSH2 0x3775 PUSH2 0x281C JUMP JUMPDEST PUSH2 0x377D PUSH2 0x2A91 JUMP JUMPDEST PUSH1 0x15 PUSH1 0x4C PUSH1 0x1 PUSH1 0x2 DUP2 LT PUSH2 0x3794 JUMPI PUSH2 0x3793 PUSH2 0x4535 JUMP JUMPDEST JUMPDEST PUSH1 0x2 MUL ADD PUSH1 0x1 PUSH1 0x2 DUP2 LT PUSH2 0x37AB JUMPI PUSH2 0x37AA PUSH2 0x4535 JUMP JUMPDEST JUMPDEST ADD SLOAD SUB PUSH2 0x37BF JUMPI PUSH2 0x37BA PUSH2 0x3C69 JUMP JUMPDEST PUSH2 0x3831 JUMP JUMPDEST PUSH1 0x2 PUSH1 0x3 PUSH1 0x4 SLOAD PUSH2 0x37D0 SWAP2 SWAP1 PUSH2 0x4860 JUMP JUMPDEST PUSH2 0x37DA SWAP2 SWAP1 PUSH2 0x4AA7 JUMP JUMPDEST PUSH1 0x4 SLOAD PUSH1 0x3 SLOAD PUSH2 0x37EA SWAP2 SWAP1 PUSH2 0x43DD JUMP JUMPDEST PUSH2 0x37F4 SWAP2 SWAP1 PUSH2 0x43DD JUMP JUMPDEST PUSH1 0x3 DUP2 SWAP1 SSTORE POP PUSH1 0x2 PUSH1 0x3 PUSH1 0x4 SLOAD PUSH2 0x380B SWAP2 SWAP1 PUSH2 0x4860 JUMP JUMPDEST PUSH2 0x3815 SWAP2 SWAP1 PUSH2 0x4AA7 JUMP JUMPDEST PUSH1 0x2 SLOAD PUSH2 0x3822 SWAP2 SWAP1 PUSH2 0x41F3 JUMP JUMPDEST PUSH1 0x2 DUP2 SWAP1 SSTORE POP PUSH1 0x0 PUSH1 0x4 DUP2 SWAP1 SSTORE POP JUMPDEST JUMPDEST JUMP JUMPDEST PUSH1 0x0 DUP1 PUSH1 0x0 SWAP1 POP PUSH1 0x0 JUMPDEST PUSH1 0x10 DUP3 LT ISZERO PUSH2 0x38A2 JUMPI PUSH1 0x0 DUP5 DUP4 PUSH1 0x10 DUP2 LT PUSH2 0x385C JUMPI PUSH2 0x385B PUSH2 0x4535 JUMP JUMPDEST JUMPDEST PUSH1 0x20 MUL ADD MLOAD PUSH1 0x0 PUSH1 0x2 DUP2 LT PUSH2 0x3874 JUMPI PUSH2 0x3873 PUSH2 0x4535 JUMP JUMPDEST JUMPDEST PUSH1 0x20 MUL ADD MLOAD EQ PUSH2 0x388E JUMPI PUSH1 0x1 DUP2 PUSH2 0x388B SWAP2 SWAP1 PUSH2 0x43DD JUMP JUMPDEST SWAP1 POP JUMPDEST PUSH1 0x1 DUP3 PUSH2 0x389B SWAP2 SWAP1 PUSH2 0x43DD JUMP JUMPDEST SWAP2 POP PUSH2 0x383E JUMP JUMPDEST DUP1 SWAP3 POP POP POP SWAP2 SWAP1 POP JUMP JUMPDEST PUSH1 0x0 PUSH1 0x60 PUSH1 0x0 DUP2 SLOAD DUP1 SWAP3 SWAP2 SWAP1 PUSH2 0x38C1 SWAP1 PUSH2 0x4564 JUMP JUMPDEST SWAP2 SWAP1 POP SSTORE POP PUSH32 0x28F5C28F5C28F5C28F5C28F5C28F5C28F5C28F5C28F5C28F5C28F5C28F5C28F PUSH1 0x3 PUSH1 0x60 SLOAD PUSH2 0x38F6 SWAP2 SWAP1 PUSH2 0x4860 JUMP JUMPDEST NUMBER PUSH2 0x3901 SWAP2 SWAP1 PUSH2 0x43DD JUMP JUMPDEST CALLER PUSH1 0x60 SLOAD PUSH1 0x40 MLOAD PUSH1 0x20 ADD PUSH2 0x3917 SWAP4 SWAP3 SWAP2 SWAP1 PUSH2 0x4B73 JUMP JUMPDEST PUSH1 0x40 MLOAD PUSH1 0x20 DUP2 DUP4 SUB SUB DUP2 MSTORE SWAP1 PUSH1 0x40 MSTORE DUP1 MLOAD SWAP1 PUSH1 0x20 ADD KECCAK256 PUSH1 0x0 SHR PUSH2 0x393A SWAP2 SWAP1 PUSH2 0x4BB0 JUMP JUMPDEST PUSH1 0x5 DUP2 SWAP1 SSTORE POP PUSH1 0x60 PUSH1 0x0 DUP2 SLOAD DUP1 SWAP3 SWAP2 SWAP1 PUSH2 0x3953 SWAP1 PUSH2 0x4564 JUMP JUMPDEST SWAP2 SWAP1 POP SSTORE POP PUSH1 0x5 SLOAD SWAP1 POP SWAP1 JUMP JUMPDEST PUSH1 0x60 PUSH1 0x0 PUSH1 0x1 PUSH2 0x396F DUP5 PUSH2 0x3C89 JUMP JUMPDEST ADD SWAP1 POP PUSH1 0x0 DUP2 PUSH8 0xFFFFFFFFFFFFFFFF DUP2 GT ISZERO PUSH2 0x398E JUMPI PUSH2 0x398D PUSH2 0x4BE1 JUMP JUMPDEST JUMPDEST PUSH1 0x40 MLOAD SWAP1 DUP1 DUP3 MSTORE DUP1 PUSH1 0x1F ADD PUSH1 0x1F NOT AND PUSH1 0x20 ADD DUP3 ADD PUSH1 0x40 MSTORE DUP1 ISZERO PUSH2 0x39C0 JUMPI DUP2 PUSH1 0x20 ADD PUSH1 0x1 DUP3 MUL DUP1 CALLDATASIZE DUP4 CALLDATACOPY DUP1 DUP3 ADD SWAP2 POP POP SWAP1 POP JUMPDEST POP SWAP1 POP PUSH1 0x0 DUP3 PUSH1 0x20 ADD DUP3 ADD SWAP1 POP JUMPDEST PUSH1 0x1 ISZERO PUSH2 0x3A23 JUMPI DUP1 DUP1 PUSH1 0x1 SWAP1 SUB SWAP2 POP POP PUSH32 0x3031323334353637383961626364656600000000000000000000000000000000 PUSH1 0xA DUP7 MOD BYTE DUP2 MSTORE8 PUSH1 0xA DUP6 DUP2 PUSH2 0x3A17 JUMPI PUSH2 0x3A16 PUSH2 0x4A78 JUMP JUMPDEST JUMPDEST DIV SWAP5 POP PUSH1 0x0 DUP6 SUB PUSH2 0x39CE JUMPI JUMPDEST DUP2 SWAP4 POP POP POP POP SWAP2 SWAP1 POP JUMP JUMPDEST PUSH1 0x60 PUSH1 0x0 PUSH1 0x1 DUP6 DUP6 PUSH2 0x3A40 SWAP2 SWAP1 PUSH2 0x41F3 JUMP JUMPDEST PUSH2 0x3A4A SWAP2 SWAP1 PUSH2 0x43DD JUMP JUMPDEST PUSH8 0xFFFFFFFFFFFFFFFF DUP2 GT ISZERO PUSH2 0x3A63 JUMPI PUSH2 0x3A62 PUSH2 0x4BE1 JUMP JUMPDEST JUMPDEST PUSH1 0x40 MLOAD SWAP1 DUP1 DUP3 MSTORE DUP1 PUSH1 0x1F ADD PUSH1 0x1F NOT AND PUSH1 0x20 ADD DUP3 ADD PUSH1 0x40 MSTORE DUP1 ISZERO PUSH2 0x3A95 JUMPI DUP2 PUSH1 0x20 ADD PUSH1 0x1 DUP3 MUL DUP1 CALLDATASIZE DUP4 CALLDATACOPY DUP1 DUP3 ADD SWAP2 POP POP SWAP1 POP JUMPDEST POP SWAP1 POP PUSH1 0x0 JUMPDEST DUP6 DUP6 PUSH2 0x3AA7 SWAP2 SWAP1 PUSH2 0x41F3 JUMP JUMPDEST DUP2 GT PUSH2 0x3B37 JUMPI DUP4 PUSH1 0x1 DUP8 DUP4 PUSH2 0x3ABC SWAP2 SWAP1 PUSH2 0x43DD JUMP JUMPDEST PUSH2 0x3AC6 SWAP2 SWAP1 PUSH2 0x41F3 JUMP JUMPDEST DUP2 MLOAD DUP2 LT PUSH2 0x3AD7 JUMPI PUSH2 0x3AD6 PUSH2 0x4535 JUMP JUMPDEST JUMPDEST PUSH1 0x20 ADD ADD MLOAD PUSH1 0xF8 SHR PUSH1 0xF8 SHL DUP3 DUP3 DUP2 MLOAD DUP2 LT PUSH2 0x3AF5 JUMPI PUSH2 0x3AF4 PUSH2 0x4535 JUMP JUMPDEST JUMPDEST PUSH1 0x20 ADD ADD SWAP1 PUSH31 0xFFFFFFFFFFFFFFFFFFFFFFFFFFFFFFFFFFFFFFFFFFFFFFFFFFFFFFFFFFFFFF NOT AND SWAP1 DUP2 PUSH1 0x0 BYTE SWAP1 MSTORE8 POP DUP1 DUP1 PUSH2 0x3B2F SWAP1 PUSH2 0x4564 JUMP JUMPDEST SWAP2 POP POP PUSH2 0x3A9B JUMP JUMPDEST POP DUP1 SWAP2 POP POP SWAP4 SWAP3 POP POP POP JUMP JUMPDEST PUSH1 0x0 DUP1 DUP3 SWAP1 POP PUSH1 0x0 DUP1 JUMPDEST DUP3 MLOAD DUP2 LT ISZERO PUSH2 0x3BD0 JUMPI PUSH1 0x0 DUP4 DUP3 DUP2 MLOAD DUP2 LT PUSH2 0x3B6B JUMPI PUSH2 0x3B6A PUSH2 0x4535 JUMP JUMPDEST JUMPDEST PUSH1 0x20 ADD ADD MLOAD PUSH1 0xF8 SHR PUSH1 0xF8 SHL PUSH1 0xF8 SHR PUSH1 0xFF AND SWAP1 POP PUSH1 0x30 DUP2 LT ISZERO DUP1 ISZERO PUSH2 0x3B90 JUMPI POP PUSH1 0x39 DUP2 GT ISZERO JUMPDEST ISZERO PUSH2 0x3BBC JUMPI PUSH1 0x30 DUP2 PUSH2 0x3BA2 SWAP2 SWAP1 PUSH2 0x41F3 JUMP JUMPDEST PUSH1 0xA DUP5 PUSH2 0x3BAF SWAP2 SWAP1 PUSH2 0x4860 JUMP JUMPDEST PUSH2 0x3BB9 SWAP2 SWAP1 PUSH2 0x43DD JUMP JUMPDEST SWAP3 POP JUMPDEST POP DUP1 DUP1 PUSH2 0x3BC8 SWAP1 PUSH2 0x4564 JUMP JUMPDEST SWAP2 POP POP PUSH2 0x3B4D JUMP JUMPDEST POP DUP1 SWAP3 POP POP POP SWAP2 SWAP1 POP JUMP JUMPDEST PUSH1 0x5C SLOAD PUSH1 0x5D SLOAD GT ISZERO PUSH2 0x3C06 JUMPI PUSH1 0x4 SLOAD PUSH1 0x2 SLOAD PUSH2 0x3BF7 SWAP2 SWAP1 PUSH2 0x43DD JUMP JUMPDEST PUSH1 0x2 DUP2 SWAP1 SSTORE POP PUSH1 0x0 PUSH1 0x4 DUP2 SWAP1 SSTORE POP JUMPDEST PUSH1 0x5D SLOAD PUSH1 0x5C SLOAD GT ISZERO PUSH2 0x3C53 JUMPI PUSH1 0x2 PUSH1 0x4 SLOAD PUSH2 0x3C21 SWAP2 SWAP1 PUSH2 0x4860 JUMP JUMPDEST PUSH1 0x3 SLOAD PUSH2 0x3C2E SWAP2 SWAP1 PUSH2 0x43DD JUMP JUMPDEST PUSH1 0x3 DUP2 SWAP1 SSTORE POP PUSH1 0x4 SLOAD PUSH1 0x2 SLOAD PUSH2 0x3C44 SWAP2 SWAP1 PUSH2 0x41F3 JUMP JUMPDEST PUSH1 0x2 DUP2 SWAP1 SSTORE POP PUSH1 0x0 PUSH1 0x4 DUP2 SWAP1 SSTORE POP JUMPDEST PUSH1 0x5C SLOAD PUSH1 0x5D SLOAD SUB PUSH2 0x3C67 JUMPI PUSH2 0x3C66 PUSH2 0x3C69 JUMP JUMPDEST JUMPDEST JUMP JUMPDEST PUSH1 0x4 SLOAD PUSH1 0x3 SLOAD PUSH2 0x3C79 SWAP2 SWAP1 PUSH2 0x43DD JUMP JUMPDEST PUSH1 0x3 DUP2 SWAP1 SSTORE POP PUSH1 0x0 PUSH1 0x4 DUP2 SWAP1 SSTORE POP JUMP JUMPDEST PUSH1 0x0 DUP1 PUSH1 0x0 SWAP1 POP PUSH27 0x184F03E93FF9F4DAA797ED6E38ED64BF6A1F010000000000000000 DUP4 LT PUSH2 0x3CE7 JUMPI PUSH27 0x184F03E93FF9F4DAA797ED6E38ED64BF6A1F010000000000000000 DUP4 DUP2 PUSH2 0x3CDD JUMPI PUSH2 0x3CDC PUSH2 0x4A78 JUMP JUMPDEST JUMPDEST DIV SWAP3 POP PUSH1 0x40 DUP2 ADD SWAP1 POP JUMPDEST PUSH14 0x4EE2D6D415B85ACEF8100000000 DUP4 LT PUSH2 0x3D24 JUMPI PUSH14 0x4EE2D6D415B85ACEF8100000000 DUP4 DUP2 PUSH2 0x3D1A JUMPI PUSH2 0x3D19 PUSH2 0x4A78 JUMP JUMPDEST JUMPDEST DIV SWAP3 POP PUSH1 0x20 DUP2 ADD SWAP1 POP JUMPDEST PUSH7 0x2386F26FC10000 DUP4 LT PUSH2 0x3D53 JUMPI PUSH7 0x2386F26FC10000 DUP4 DUP2 PUSH2 0x3D49 JUMPI PUSH2 0x3D48 PUSH2 0x4A78 JUMP JUMPDEST JUMPDEST DIV SWAP3 POP PUSH1 0x10 DUP2 ADD SWAP1 POP JUMPDEST PUSH4 0x5F5E100 DUP4 LT PUSH2 0x3D7C JUMPI PUSH4 0x5F5E100 DUP4 DUP2 PUSH2 0x3D72 JUMPI PUSH2 0x3D71 PUSH2 0x4A78 JUMP JUMPDEST JUMPDEST DIV SWAP3 POP PUSH1 0x8 DUP2 ADD SWAP1 POP JUMPDEST PUSH2 0x2710 DUP4 LT PUSH2 0x3DA1 JUMPI PUSH2 0x2710 DUP4 DUP2 PUSH2 0x3D97 JUMPI PUSH2 0x3D96 PUSH2 0x4A78 JUMP JUMPDEST JUMPDEST DIV SWAP3 POP PUSH1 0x4 DUP2 ADD SWAP1 POP JUMPDEST PUSH1 0x64 DUP4 LT PUSH2 0x3DC4 JUMPI PUSH1 0x64 DUP4 DUP2 PUSH2 0x3DBA JUMPI PUSH2 0x3DB9 PUSH2 0x4A78 JUMP JUMPDEST JUMPDEST DIV SWAP3 POP PUSH1 0x2 DUP2 ADD SWAP1 POP JUMPDEST PUSH1 0xA DUP4 LT PUSH2 0x3DD3 JUMPI PUSH1 0x1 DUP2 ADD SWAP1 POP JUMPDEST DUP1 SWAP2 POP POP SWAP2 SWAP1 POP JUMP JUMPDEST DUP3 PUSH1 0x4 PUSH1 0x2 MUL DUP2 ADD SWAP3 DUP3 ISZERO PUSH2 0x3E1C JUMPI SWAP2 PUSH1 0x20 MUL DUP3 ADD JUMPDEST DUP3 DUP2 GT ISZERO PUSH2 0x3E1B JUMPI DUP3 MLOAD DUP3 SWAP1 PUSH1 0x2 PUSH2 0x3E0B SWAP3 SWAP2 SWAP1 PUSH2 0x3E5A JUMP JUMPDEST POP SWAP2 PUSH1 0x20 ADD SWAP2 SWAP1 PUSH1 0x2 ADD SWAP1 PUSH2 0x3DF2 JUMP JUMPDEST JUMPDEST POP SWAP1 POP PUSH2 0x3E29 SWAP2 SWAP1 PUSH2 0x3E9A JUMP JUMPDEST POP SWAP1 JUMP JUMPDEST PUSH1 0x40 MLOAD DUP1 PUSH1 0x80 ADD PUSH1 0x40 MSTORE DUP1 PUSH1 0x4 SWAP1 JUMPDEST PUSH2 0x3E44 PUSH2 0x3EBE JUMP JUMPDEST DUP2 MSTORE PUSH1 0x20 ADD SWAP1 PUSH1 0x1 SWAP1 SUB SWAP1 DUP2 PUSH2 0x3E3C JUMPI SWAP1 POP POP SWAP1 JUMP JUMPDEST DUP3 PUSH1 0x2 DUP2 ADD SWAP3 DUP3 ISZERO PUSH2 0x3E89 JUMPI SWAP2 PUSH1 0x20 MUL DUP3 ADD JUMPDEST DUP3 DUP2 GT ISZERO PUSH2 0x3E88 JUMPI DUP3 MLOAD DUP3 SSTORE SWAP2 PUSH1 0x20 ADD SWAP2 SWAP1 PUSH1 0x1 ADD SWAP1 PUSH2 0x3E6D JUMP JUMPDEST JUMPDEST POP SWAP1 POP PUSH2 0x3E96 SWAP2 SWAP1 PUSH2 0x3EE0 JUMP JUMPDEST POP SWAP1 JUMP JUMPDEST JUMPDEST DUP1 DUP3 GT ISZERO PUSH2 0x3EBA JUMPI PUSH1 0x0 DUP2 DUP2 PUSH2 0x3EB1 SWAP2 SWAP1 PUSH2 0x3EFD JUMP JUMPDEST POP PUSH1 0x2 ADD PUSH2 0x3E9B JUMP JUMPDEST POP SWAP1 JUMP JUMPDEST PUSH1 0x40 MLOAD DUP1 PUSH1 0x40 ADD PUSH1 0x40 MSTORE DUP1 PUSH1 0x2 SWAP1 PUSH1 0x20 DUP3 MUL DUP1 CALLDATASIZE DUP4 CALLDATACOPY DUP1 DUP3 ADD SWAP2 POP POP SWAP1 POP POP SWAP1 JUMP JUMPDEST JUMPDEST DUP1 DUP3 GT ISZERO PUSH2 0x3EF9 JUMPI PUSH1 0x0 DUP2 PUSH1 0x0 SWAP1 SSTORE POP PUSH1 0x1 ADD PUSH2 0x3EE1 JUMP JUMPDEST POP SWAP1 JUMP JUMPDEST POP PUSH1 0x0 DUP2 SSTORE PUSH1 0x1 ADD PUSH1 0x0 SWAP1 SSTORE JUMP JUMPDEST PUSH1 0x0 DUP1 REVERT JUMPDEST PUSH1 0x0 DUP2 SWAP1 POP SWAP2 SWAP1 POP JUMP JUMPDEST PUSH2 0x3F23 DUP2 PUSH2 0x3F10 JUMP JUMPDEST DUP2 EQ PUSH2 0x3F2E JUMPI PUSH1 0x0 DUP1 REVERT JUMPDEST POP JUMP JUMPDEST PUSH1 0x0 DUP2 CALLDATALOAD SWAP1 POP PUSH2 0x3F40 DUP2 PUSH2 0x3F1A JUMP JUMPDEST SWAP3 SWAP2 POP POP JUMP JUMPDEST PUSH1 0x0 PUSH1 0x20 DUP3 DUP5 SUB SLT ISZERO PUSH2 0x3F5C JUMPI PUSH2 0x3F5B PUSH2 0x3F0B JUMP JUMPDEST JUMPDEST PUSH1 0x0 PUSH2 0x3F6A DUP5 DUP3 DUP6 ADD PUSH2 0x3F31 JUMP JUMPDEST SWAP2 POP POP SWAP3 SWAP2 POP POP JUMP JUMPDEST PUSH2 0x3F7C DUP2 PUSH2 0x3F10 JUMP JUMPDEST DUP3 MSTORE POP POP JUMP JUMPDEST PUSH1 0x0 PUSH1 0x20 DUP3 ADD SWAP1 POP PUSH2 0x3F97 PUSH1 0x0 DUP4 ADD DUP5 PUSH2 0x3F73 JUMP JUMPDEST SWAP3 SWAP2 POP POP JUMP JUMPDEST PUSH1 0x0 DUP1 PUSH1 0x40 DUP4 DUP6 SUB SLT ISZERO PUSH2 0x3FB4 JUMPI PUSH2 0x3FB3 PUSH2 0x3F0B JUMP JUMPDEST JUMPDEST PUSH1 0x0 PUSH2 0x3FC2 DUP6 DUP3 DUP7 ADD PUSH2 0x3F31 JUMP JUMPDEST SWAP3 POP POP PUSH1 0x20 PUSH2 0x3FD3 DUP6 DUP3 DUP7 ADD PUSH2 0x3F31 JUMP JUMPDEST SWAP2 POP POP SWAP3 POP SWAP3 SWAP1 POP JUMP JUMPDEST PUSH1 0x0 DUP3 DUP3 MSTORE PUSH1 0x20 DUP3 ADD SWAP1 POP SWAP3 SWAP2 POP POP JUMP JUMPDEST PUSH32 0x42657420616D6F756E74206973206D6F7265207468616E20706C617965722062 PUSH1 0x0 DUP3 ADD MSTORE PUSH32 0x616C616E63650000000000000000000000000000000000000000000000000000 PUSH1 0x20 DUP3 ADD MSTORE POP JUMP JUMPDEST PUSH1 0x0 PUSH2 0x404A PUSH1 0x26 DUP4 PUSH2 0x3FDD JUMP JUMPDEST SWAP2 POP PUSH2 0x4055 DUP3 PUSH2 0x3FEE JUMP JUMPDEST PUSH1 0x40 DUP3 ADD SWAP1 POP SWAP2 SWAP1 POP JUMP JUMPDEST PUSH1 0x0 PUSH1 0x20 DUP3 ADD SWAP1 POP DUP2 DUP2 SUB PUSH1 0x0 DUP4 ADD MSTORE PUSH2 0x4079 DUP2 PUSH2 0x403D JUMP JUMPDEST SWAP1 POP SWAP2 SWAP1 POP JUMP JUMPDEST PUSH32 0x4F6E6C7920706C617965722063616E20706C6163652062657400000000000000 PUSH1 0x0 DUP3 ADD MSTORE POP JUMP JUMPDEST PUSH1 0x0 PUSH2 0x40B6 PUSH1 0x19 DUP4 PUSH2 0x3FDD JUMP JUMPDEST SWAP2 POP PUSH2 0x40C1 DUP3 PUSH2 0x4080 JUMP JUMPDEST PUSH1 0x20 DUP3 ADD SWAP1 POP SWAP2 SWAP1 POP JUMP JUMPDEST PUSH1 0x0 PUSH1 0x20 DUP3 ADD SWAP1 POP DUP2 DUP2 SUB PUSH1 0x0 DUP4 ADD MSTORE PUSH2 0x40E5 DUP2 PUSH2 0x40A9 JUMP JUMPDEST SWAP1 POP SWAP2 SWAP1 POP JUMP JUMPDEST PUSH32 0x4265742068617320616C7265616479206265656E20706C616365640000000000 PUSH1 0x0 DUP3 ADD MSTORE POP JUMP JUMPDEST PUSH1 0x0 PUSH2 0x4122 PUSH1 0x1B DUP4 PUSH2 0x3FDD JUMP JUMPDEST SWAP2 POP PUSH2 0x412D DUP3 PUSH2 0x40EC JUMP JUMPDEST PUSH1 0x20 DUP3 ADD SWAP1 POP SWAP2 SWAP1 POP JUMP JUMPDEST PUSH1 0x0 PUSH1 0x20 DUP3 ADD SWAP1 POP DUP2 DUP2 SUB PUSH1 0x0 DUP4 ADD MSTORE PUSH2 0x4151 DUP2 PUSH2 0x4115 JUMP JUMPDEST SWAP1 POP SWAP2 SWAP1 POP JUMP JUMPDEST PUSH32 0x5265656E7472616E6379206E6F7420616C6C6F77656400000000000000000000 PUSH1 0x0 DUP3 ADD MSTORE POP JUMP JUMPDEST PUSH1 0x0 PUSH2 0x418E PUSH1 0x16 DUP4 PUSH2 0x3FDD JUMP JUMPDEST SWAP2 POP PUSH2 0x4199 DUP3 PUSH2 0x4158 JUMP JUMPDEST PUSH1 0x20 DUP3 ADD SWAP1 POP SWAP2 SWAP1 POP JUMP JUMPDEST PUSH1 0x0 PUSH1 0x20 DUP3 ADD SWAP1 POP DUP2 DUP2 SUB PUSH1 0x0 DUP4 ADD MSTORE PUSH2 0x41BD DUP2 PUSH2 0x4181 JUMP JUMPDEST SWAP1 POP SWAP2 SWAP1 POP JUMP JUMPDEST PUSH32 0x4E487B7100000000000000000000000000000000000000000000000000000000 PUSH1 0x0 MSTORE PUSH1 0x11 PUSH1 0x4 MSTORE PUSH1 0x24 PUSH1 0x0 REVERT JUMPDEST PUSH1 0x0 PUSH2 0x41FE DUP3 PUSH2 0x3F10 JUMP JUMPDEST SWAP2 POP PUSH2 0x4209 DUP4 PUSH2 0x3F10 JUMP JUMPDEST SWAP3 POP DUP3 DUP3 SUB SWAP1 POP DUP2 DUP2 GT ISZERO PUSH2 0x4221 JUMPI PUSH2 0x4220 PUSH2 0x41C4 JUMP JUMPDEST JUMPDEST SWAP3 SWAP2 POP POP JUMP JUMPDEST PUSH32 0x526567697374726174696F6E2061646472657373206973206E6F742076616C69 PUSH1 0x0 DUP3 ADD MSTORE PUSH32 0x6400000000000000000000000000000000000000000000000000000000000000 PUSH1 0x20 DUP3 ADD MSTORE POP JUMP JUMPDEST PUSH1 0x0 PUSH2 0x4283 PUSH1 0x21 DUP4 PUSH2 0x3FDD JUMP JUMPDEST SWAP2 POP PUSH2 0x428E DUP3 PUSH2 0x4227 JUMP JUMPDEST PUSH1 0x40 DUP3 ADD SWAP1 POP SWAP2 SWAP1 POP JUMP JUMPDEST PUSH1 0x0 PUSH1 0x20 DUP3 ADD SWAP1 POP DUP2 DUP2 SUB PUSH1 0x0 DUP4 ADD MSTORE PUSH2 0x42B2 DUP2 PUSH2 0x4276 JUMP JUMPDEST SWAP1 POP SWAP2 SWAP1 POP JUMP JUMPDEST PUSH32 0x506C61796572206D75737420626520686F757365283029206F7220706C617965 PUSH1 0x0 DUP3 ADD MSTORE PUSH32 0x7228312900000000000000000000000000000000000000000000000000000000 PUSH1 0x20 DUP3 ADD MSTORE POP JUMP JUMPDEST PUSH1 0x0 PUSH2 0x4315 PUSH1 0x24 DUP4 PUSH2 0x3FDD JUMP JUMPDEST SWAP2 POP PUSH2 0x4320 DUP3 PUSH2 0x42B9 JUMP JUMPDEST PUSH1 0x40 DUP3 ADD SWAP1 POP SWAP2 SWAP1 POP JUMP JUMPDEST PUSH1 0x0 PUSH1 0x20 DUP3 ADD SWAP1 POP DUP2 DUP2 SUB PUSH1 0x0 DUP4 ADD MSTORE PUSH2 0x4344 DUP2 PUSH2 0x4308 JUMP JUMPDEST SWAP1 POP SWAP2 SWAP1 POP JUMP JUMPDEST PUSH32 0x53656E6465722061646472657373206D75737420626520686F75736557616C6C PUSH1 0x0 DUP3 ADD MSTORE PUSH32 0x6574000000000000000000000000000000000000000000000000000000000000 PUSH1 0x20 DUP3 ADD MSTORE POP JUMP JUMPDEST PUSH1 0x0 PUSH2 0x43A7 PUSH1 0x22 DUP4 PUSH2 0x3FDD JUMP JUMPDEST SWAP2 POP PUSH2 0x43B2 DUP3 PUSH2 0x434B JUMP JUMPDEST PUSH1 0x40 DUP3 ADD SWAP1 POP SWAP2 SWAP1 POP JUMP JUMPDEST PUSH1 0x0 PUSH1 0x20 DUP3 ADD SWAP1 POP DUP2 DUP2 SUB PUSH1 0x0 DUP4 ADD MSTORE PUSH2 0x43D6 DUP2 PUSH2 0x439A JUMP JUMPDEST SWAP1 POP SWAP2 SWAP1 POP JUMP JUMPDEST PUSH1 0x0 PUSH2 0x43E8 DUP3 PUSH2 0x3F10 JUMP JUMPDEST SWAP2 POP PUSH2 0x43F3 DUP4 PUSH2 0x3F10 JUMP JUMPDEST SWAP3 POP DUP3 DUP3 ADD SWAP1 POP DUP1 DUP3 GT ISZERO PUSH2 0x440B JUMPI PUSH2 0x440A PUSH2 0x41C4 JUMP JUMPDEST JUMPDEST SWAP3 SWAP2 POP POP JUMP JUMPDEST PUSH32 0x53656E6465722061646472657373206D75737420626520706C6179657257616C PUSH1 0x0 DUP3 ADD MSTORE PUSH32 0x6C65740000000000000000000000000000000000000000000000000000000000 PUSH1 0x20 DUP3 ADD MSTORE POP JUMP JUMPDEST PUSH1 0x0 PUSH2 0x446D PUSH1 0x23 DUP4 PUSH2 0x3FDD JUMP JUMPDEST SWAP2 POP PUSH2 0x4478 DUP3 PUSH2 0x4411 JUMP JUMPDEST PUSH1 0x40 DUP3 ADD SWAP1 POP SWAP2 SWAP1 POP JUMP JUMPDEST PUSH1 0x0 PUSH1 0x20 DUP3 ADD SWAP1 POP DUP2 DUP2 SUB PUSH1 0x0 DUP4 ADD MSTORE PUSH2 0x449C DUP2 PUSH2 0x4460 JUMP JUMPDEST SWAP1 POP SWAP2 SWAP1 POP JUMP JUMPDEST PUSH32 0x796F75206D75737420626574206265666F726520746865206361726473206172 PUSH1 0x0 DUP3 ADD MSTORE PUSH32 0x65206465616C7400000000000000000000000000000000000000000000000000 PUSH1 0x20 DUP3 ADD MSTORE POP JUMP JUMPDEST PUSH1 0x0 PUSH2 0x44FF PUSH1 0x27 DUP4 PUSH2 0x3FDD JUMP JUMPDEST SWAP2 POP PUSH2 0x450A DUP3 PUSH2 0x44A3 JUMP JUMPDEST PUSH1 0x40 DUP3 ADD SWAP1 POP SWAP2 SWAP1 POP JUMP JUMPDEST PUSH1 0x0 PUSH1 0x20 DUP3 ADD SWAP1 POP DUP2 DUP2 SUB PUSH1 0x0 DUP4 ADD MSTORE PUSH2 0x452E DUP2 PUSH2 0x44F2 JUMP JUMPDEST SWAP1 POP SWAP2 SWAP1 POP JUMP JUMPDEST PUSH32 0x4E487B7100000000000000000000000000000000000000000000000000000000 PUSH1 0x0 MSTORE PUSH1 0x32 PUSH1 0x4 MSTORE PUSH1 0x24 PUSH1 0x0 REVERT JUMPDEST PUSH1 0x0 PUSH2 0x456F DUP3 PUSH2 0x3F10 JUMP JUMPDEST SWAP2 POP PUSH32 0xFFFFFFFFFFFFFFFFFFFFFFFFFFFFFFFFFFFFFFFFFFFFFFFFFFFFFFFFFFFFFFFF DUP3 SUB PUSH2 0x45A1 JUMPI PUSH2 0x45A0 PUSH2 0x41C4 JUMP JUMPDEST JUMPDEST PUSH1 0x1 DUP3 ADD SWAP1 POP SWAP2 SWAP1 POP JUMP JUMPDEST PUSH32 0x506C6179657220686173206E6F2062616C616E636520746F2077697468647261 PUSH1 0x0 DUP3 ADD MSTORE PUSH32 0x7700000000000000000000000000000000000000000000000000000000000000 PUSH1 0x20 DUP3 ADD MSTORE POP JUMP JUMPDEST PUSH1 0x0 PUSH2 0x4608 PUSH1 0x21 DUP4 PUSH2 0x3FDD JUMP JUMPDEST SWAP2 POP PUSH2 0x4613 DUP3 PUSH2 0x45AC JUMP JUMPDEST PUSH1 0x40 DUP3 ADD SWAP1 POP SWAP2 SWAP1 POP JUMP JUMPDEST PUSH1 0x0 PUSH1 0x20 DUP3 ADD SWAP1 POP DUP2 DUP2 SUB PUSH1 0x0 DUP4 ADD MSTORE PUSH2 0x4637 DUP2 PUSH2 0x45FB JUMP JUMPDEST SWAP1 POP SWAP2 SWAP1 POP JUMP JUMPDEST PUSH32 0x4F6E6C7920706C617965722063616E2075736520746869732066756E6374696F PUSH1 0x0 DUP3 ADD MSTORE PUSH32 0x6E20776974686472617700000000000000000000000000000000000000000000 PUSH1 0x20 DUP3 ADD MSTORE POP JUMP JUMPDEST PUSH1 0x0 PUSH2 0x469A PUSH1 0x2A DUP4 PUSH2 0x3FDD JUMP JUMPDEST SWAP2 POP PUSH2 0x46A5 DUP3 PUSH2 0x463E JUMP JUMPDEST PUSH1 0x40 DUP3 ADD SWAP1 POP SWAP2 SWAP1 POP JUMP JUMPDEST PUSH1 0x0 PUSH1 0x20 DUP3 ADD SWAP1 POP DUP2 DUP2 SUB PUSH1 0x0 DUP4 ADD MSTORE PUSH2 0x46C9 DUP2 PUSH2 0x468D JUMP JUMPDEST SWAP1 POP SWAP2 SWAP1 POP JUMP JUMPDEST PUSH32 0x596F75206172652072657175657374696E67206D6F7265207468616E20746865 PUSH1 0x0 DUP3 ADD MSTORE PUSH32 0x20706C617965722077616C6C657420636F6E7461696E73000000000000000000 PUSH1 0x20 DUP3 ADD MSTORE POP JUMP JUMPDEST PUSH1 0x0 PUSH2 0x472C PUSH1 0x37 DUP4 PUSH2 0x3FDD JUMP JUMPDEST SWAP2 POP PUSH2 0x4737 DUP3 PUSH2 0x46D0 JUMP JUMPDEST PUSH1 0x40 DUP3 ADD SWAP1 POP SWAP2 SWAP1 POP JUMP JUMPDEST PUSH1 0x0 PUSH1 0x20 DUP3 ADD SWAP1 POP DUP2 DUP2 SUB PUSH1 0x0 DUP4 ADD MSTORE PUSH2 0x475B DUP2 PUSH2 0x471F JUMP JUMPDEST SWAP1 POP SWAP2 SWAP1 POP JUMP JUMPDEST PUSH32 0x47616D65206D75737420626520696E2070726F67726573730000000000000000 PUSH1 0x0 DUP3 ADD MSTORE POP JUMP JUMPDEST PUSH1 0x0 PUSH2 0x4798 PUSH1 0x18 DUP4 PUSH2 0x3FDD JUMP JUMPDEST SWAP2 POP PUSH2 0x47A3 DUP3 PUSH2 0x4762 JUMP JUMPDEST PUSH1 0x20 DUP3 ADD SWAP1 POP SWAP2 SWAP1 POP JUMP JUMPDEST PUSH1 0x0 PUSH1 0x20 DUP3 ADD SWAP1 POP DUP2 DUP2 SUB PUSH1 0x0 DUP4 ADD MSTORE PUSH2 0x47C7 DUP2 PUSH2 0x478B JUMP JUMPDEST SWAP1 POP SWAP2 SWAP1 POP JUMP JUMPDEST PUSH32 0x596F752063616E206F6E6C7920646F75626C6520646F776E206F6E2066697273 PUSH1 0x0 DUP3 ADD MSTORE PUSH32 0x7420616374696F6E000000000000000000000000000000000000000000000000 PUSH1 0x20 DUP3 ADD MSTORE POP JUMP JUMPDEST PUSH1 0x0 PUSH2 0x482A PUSH1 0x28 DUP4 PUSH2 0x3FDD JUMP JUMPDEST SWAP2 POP PUSH2 0x4835 DUP3 PUSH2 0x47CE JUMP JUMPDEST PUSH1 0x40 DUP3 ADD SWAP1 POP SWAP2 SWAP1 POP JUMP JUMPDEST PUSH1 0x0 PUSH1 0x20 DUP3 ADD SWAP1 POP DUP2 DUP2 SUB PUSH1 0x0 DUP4 ADD MSTORE PUSH2 0x4859 DUP2 PUSH2 0x481D JUMP JUMPDEST SWAP1 POP SWAP2 SWAP1 POP JUMP JUMPDEST PUSH1 0x0 PUSH2 0x486B DUP3 PUSH2 0x3F10 JUMP JUMPDEST SWAP2 POP PUSH2 0x4876 DUP4 PUSH2 0x3F10 JUMP JUMPDEST SWAP3 POP DUP3 DUP3 MUL PUSH2 0x4884 DUP2 PUSH2 0x3F10 JUMP JUMPDEST SWAP2 POP DUP3 DUP3 DIV DUP5 EQ DUP4 ISZERO OR PUSH2 0x489B JUMPI PUSH2 0x489A PUSH2 0x41C4 JUMP JUMPDEST JUMPDEST POP SWAP3 SWAP2 POP POP JUMP JUMPDEST PUSH32 0x596F7520646F6E2774206861766520656E6F7567682066756E64732E00000000 PUSH1 0x0 DUP3 ADD MSTORE POP JUMP JUMPDEST PUSH1 0x0 PUSH2 0x48D8 PUSH1 0x1C DUP4 PUSH2 0x3FDD JUMP JUMPDEST SWAP2 POP PUSH2 0x48E3 DUP3 PUSH2 0x48A2 JUMP JUMPDEST PUSH1 0x20 DUP3 ADD SWAP1 POP SWAP2 SWAP1 POP JUMP JUMPDEST PUSH1 0x0 PUSH1 0x20 DUP3 ADD SWAP1 POP DUP2 DUP2 SUB PUSH1 0x0 DUP4 ADD MSTORE PUSH2 0x4907 DUP2 PUSH2 0x48CB JUMP JUMPDEST SWAP1 POP SWAP2 SWAP1 POP JUMP JUMPDEST PUSH32 0x4465616C6572206D757374207374616E64206F6E20313720616E642068696768 PUSH1 0x0 DUP3 ADD MSTORE PUSH32 0x6572000000000000000000000000000000000000000000000000000000000000 PUSH1 0x20 DUP3 ADD MSTORE POP JUMP JUMPDEST PUSH1 0x0 PUSH2 0x496A PUSH1 0x22 DUP4 PUSH2 0x3FDD JUMP JUMPDEST SWAP2 POP PUSH2 0x4975 DUP3 PUSH2 0x490E JUMP JUMPDEST PUSH1 0x40 DUP3 ADD SWAP1 POP SWAP2 SWAP1 POP JUMP JUMPDEST PUSH1 0x0 PUSH1 0x20 DUP3 ADD SWAP1 POP DUP2 DUP2 SUB PUSH1 0x0 DUP4 ADD MSTORE PUSH2 0x4999 DUP2 PUSH2 0x495D JUMP JUMPDEST SWAP1 POP SWAP2 SWAP1 POP JUMP JUMPDEST PUSH32 0x506C617965722068617320616C72656164792073746F6F640000000000000000 PUSH1 0x0 DUP3 ADD MSTORE POP JUMP JUMPDEST PUSH1 0x0 PUSH2 0x49D6 PUSH1 0x18 DUP4 PUSH2 0x3FDD JUMP JUMPDEST SWAP2 POP PUSH2 0x49E1 DUP3 PUSH2 0x49A0 JUMP JUMPDEST PUSH1 0x20 DUP3 ADD SWAP1 POP SWAP2 SWAP1 POP JUMP JUMPDEST PUSH1 0x0 PUSH1 0x20 DUP3 ADD SWAP1 POP DUP2 DUP2 SUB PUSH1 0x0 DUP4 ADD MSTORE PUSH2 0x4A05 DUP2 PUSH2 0x49C9 JUMP JUMPDEST SWAP1 POP SWAP2 SWAP1 POP JUMP JUMPDEST PUSH32 0x596F7527766520616C7265616479206275737465640000000000000000000000 PUSH1 0x0 DUP3 ADD MSTORE POP JUMP JUMPDEST PUSH1 0x0 PUSH2 0x4A42 PUSH1 0x15 DUP4 PUSH2 0x3FDD JUMP JUMPDEST SWAP2 POP PUSH2 0x4A4D DUP3 PUSH2 0x4A0C JUMP JUMPDEST PUSH1 0x20 DUP3 ADD SWAP1 POP SWAP2 SWAP1 POP JUMP JUMPDEST PUSH1 0x0 PUSH1 0x20 DUP3 ADD SWAP1 POP DUP2 DUP2 SUB PUSH1 0x0 DUP4 ADD MSTORE PUSH2 0x4A71 DUP2 PUSH2 0x4A35 JUMP JUMPDEST SWAP1 POP SWAP2 SWAP1 POP JUMP JUMPDEST PUSH32 0x4E487B7100000000000000000000000000000000000000000000000000000000 PUSH1 0x0 MSTORE PUSH1 0x12 PUSH1 0x4 MSTORE PUSH1 0x24 PUSH1 0x0 REVERT JUMPDEST PUSH1 0x0 PUSH2 0x4AB2 DUP3 PUSH2 0x3F10 JUMP JUMPDEST SWAP2 POP PUSH2 0x4ABD DUP4 PUSH2 0x3F10 JUMP JUMPDEST SWAP3 POP DUP3 PUSH2 0x4ACD JUMPI PUSH2 0x4ACC PUSH2 0x4A78 JUMP JUMPDEST JUMPDEST DUP3 DUP3 DIV SWAP1 POP SWAP3 SWAP2 POP POP JUMP JUMPDEST PUSH1 0x0 DUP2 SWAP1 POP SWAP2 SWAP1 POP JUMP JUMPDEST PUSH2 0x4AF3 PUSH2 0x4AEE DUP3 PUSH2 0x3F10 JUMP JUMPDEST PUSH2 0x4AD8 JUMP JUMPDEST DUP3 MSTORE POP POP JUMP JUMPDEST PUSH1 0x0 PUSH20 0xFFFFFFFFFFFFFFFFFFFFFFFFFFFFFFFFFFFFFFFF DUP3 AND SWAP1 POP SWAP2 SWAP1 POP JUMP JUMPDEST PUSH1 0x0 PUSH2 0x4B24 DUP3 PUSH2 0x4AF9 JUMP JUMPDEST SWAP1 POP SWAP2 SWAP1 POP JUMP JUMPDEST PUSH1 0x0 DUP2 PUSH1 0x60 SHL SWAP1 POP SWAP2 SWAP1 POP JUMP JUMPDEST PUSH1 0x0 PUSH2 0x4B43 DUP3 PUSH2 0x4B2B JUMP JUMPDEST SWAP1 POP SWAP2 SWAP1 POP JUMP JUMPDEST PUSH1 0x0 PUSH2 0x4B55 DUP3 PUSH2 0x4B38 JUMP JUMPDEST SWAP1 POP SWAP2 SWAP1 POP JUMP JUMPDEST PUSH2 0x4B6D PUSH2 0x4B68 DUP3 PUSH2 0x4B19 JUMP JUMPDEST PUSH2 0x4B4A JUMP JUMPDEST DUP3 MSTORE POP POP JUMP JUMPDEST PUSH1 0x0 PUSH2 0x4B7F DUP3 DUP7 PUSH2 0x4AE2 JUMP JUMPDEST PUSH1 0x20 DUP3 ADD SWAP2 POP PUSH2 0x4B8F DUP3 DUP6 PUSH2 0x4B5C JUMP JUMPDEST PUSH1 0x14 DUP3 ADD SWAP2 POP PUSH2 0x4B9F DUP3 DUP5 PUSH2 0x4AE2 JUMP JUMPDEST PUSH1 0x20 DUP3 ADD SWAP2 POP DUP2 SWAP1 POP SWAP5 SWAP4 POP POP POP POP JUMP JUMPDEST PUSH1 0x0 PUSH2 0x4BBB DUP3 PUSH2 0x3F10 JUMP JUMPDEST SWAP2 POP PUSH2 0x4BC6 DUP4 PUSH2 0x3F10 JUMP JUMPDEST SWAP3 POP DUP3 PUSH2 0x4BD6 JUMPI PUSH2 0x4BD5 PUSH2 0x4A78 JUMP JUMPDEST JUMPDEST DUP3 DUP3 MOD SWAP1 POP SWAP3 SWAP2 POP POP JUMP JUMPDEST PUSH32 0x4E487B7100000000000000000000000000000000000000000000000000000000 PUSH1 0x0 MSTORE PUSH1 0x41 PUSH1 0x4 MSTORE PUSH1 0x24 PUSH1 0x0 REVERT INVALID LOG2 PUSH5 0x6970667358 0x22 SLT KECCAK256 0xEE 0xE3 PUSH6 0xBA50016C5BE4 0x4B LOG2 OR PUSH3 0x84CE37 0x4B CALLVALUE PUSH7 0x6AECE97DFA3204 CALLDATACOPY EXTCODECOPY REVERT 0x23 JUMPI 0x22 PUSH5 0x736F6C6343 STOP ADDMOD GT STOP CALLER "
		},
		"gasEstimates": {
			"creation": {
				"codeDepositCost": "3905200",
				"executionCost": "133076",
				"totalCost": "4038276"
			},
			"external": {
				"BET_MAX()": "395",
				"BET_MIN()": "419",
				"betAmount()": "2517",
				"deal()": "infinite",
				"dealerBusted()": "2496",
				"dealerCardCount()": "2496",
				"dealerHandValue(uint256,uint256)": "infinite",
				"dealerStands()": "2518",
				"dealersCards(uint256,uint256)": "infinite",
				"doubleDown()": "infinite",
				"finalDealerCount()": "2475",
				"finalPlayerCount()": "2473",
				"fundContract(uint256)": "infinite",
				"gameInProgress()": "2497",
				"hitDealer()": "infinite",
				"hitPlayer()": "infinite",
				"houseBalance()": "2540",
				"placeBet(uint256)": "infinite",
				"playerBalance()": "2518",
				"playerBusted()": "2541",
				"playerCardCount()": "2452",
				"playerHandValue(uint256,uint256)": "infinite",
				"playerStand()": "infinite",
				"playerStands()": "2475",
				"playerWithdraw(uint256)": "infinite",
				"playersCards(uint256,uint256)": "infinite"
			},
			"internal": {
				"dealerStand()": "infinite",
				"evaluateDealerHand()": "infinite",
				"evaluatePlayerHand()": "infinite",
				"evaluateWinner()": "infinite",
				"gameIsPushed()": "infinite",
				"getCards(uint256)": "infinite",
				"getRandom()": "infinite",
				"getSlice(uint256,uint256,string memory)": "infinite",
				"numCardsInArray(uint256[2] memory[16] memory)": "infinite",
				"playerHasBlackJack()": "infinite",
				"pushToDealer(uint256,uint256,uint256)": "infinite",
				"pushToPlayer(uint256,uint256,uint256)": "infinite",
				"replaceDuplicates(uint256[2] memory[4] memory)": "infinite",
				"stringToUint(string memory)": "infinite",
				"sumDealersCards()": "infinite",
				"sumPlayersCards()": "infinite"
			}
		},
		"methodIdentifiers": {
			"BET_MAX()": "d0017a0c",
			"BET_MIN()": "2626ab08",
			"betAmount()": "d24257c0",
			"deal()": "553df021",
			"dealerBusted()": "c5c3cd78",
			"dealerCardCount()": "908a0979",
			"dealerHandValue(uint256,uint256)": "53a218c9",
			"dealerStands()": "a10926d6",
			"dealersCards(uint256,uint256)": "8bbb236f",
			"doubleDown()": "a7e1f6a2",
			"finalDealerCount()": "13bf01ed",
			"finalPlayerCount()": "cdc7ea51",
			"fundContract(uint256)": "3519a2f8",
			"gameInProgress()": "3fb64e75",
			"hitDealer()": "c2855a59",
			"hitPlayer()": "dae10ed5",
			"houseBalance()": "67084eb3",
			"placeBet(uint256)": "10fe7c48",
			"playerBalance()": "651f066a",
			"playerBusted()": "325eb3f5",
			"playerCardCount()": "8914d63b",
			"playerHandValue(uint256,uint256)": "16dd37dd",
			"playerStand()": "c9f09d38",
			"playerStands()": "3c3248d5",
			"playerWithdraw(uint256)": "5629365b",
			"playersCards(uint256,uint256)": "bdbe451b"
		}
	},
	"abi": [
		{
			"inputs": [],
			"name": "BET_MAX",
			"outputs": [
				{
					"internalType": "uint256",
					"name": "",
					"type": "uint256"
				}
			],
			"stateMutability": "view",
			"type": "function"
		},
		{
			"inputs": [],
			"name": "BET_MIN",
			"outputs": [
				{
					"internalType": "uint256",
					"name": "",
					"type": "uint256"
				}
			],
			"stateMutability": "view",
			"type": "function"
		},
		{
			"inputs": [],
			"name": "betAmount",
			"outputs": [
				{
					"internalType": "uint256",
					"name": "",
					"type": "uint256"
				}
			],
			"stateMutability": "view",
			"type": "function"
		},
		{
			"inputs": [],
			"name": "deal",
			"outputs": [],
			"stateMutability": "nonpayable",
			"type": "function"
		},
		{
			"inputs": [],
			"name": "dealerBusted",
			"outputs": [
				{
					"internalType": "uint256",
					"name": "",
					"type": "uint256"
				}
			],
			"stateMutability": "view",
			"type": "function"
		},
		{
			"inputs": [],
			"name": "dealerCardCount",
			"outputs": [
				{
					"internalType": "uint256",
					"name": "",
					"type": "uint256"
				}
			],
			"stateMutability": "view",
			"type": "function"
		},
		{
			"inputs": [
				{
					"internalType": "uint256",
					"name": "",
					"type": "uint256"
				},
				{
					"internalType": "uint256",
					"name": "",
					"type": "uint256"
				}
			],
			"name": "dealerHandValue",
			"outputs": [
				{
					"internalType": "uint256",
					"name": "",
					"type": "uint256"
				}
			],
			"stateMutability": "view",
			"type": "function"
		},
		{
			"inputs": [],
			"name": "dealerStands",
			"outputs": [
				{
					"internalType": "uint256",
					"name": "",
					"type": "uint256"
				}
			],
			"stateMutability": "view",
			"type": "function"
		},
		{
			"inputs": [
				{
					"internalType": "uint256",
					"name": "",
					"type": "uint256"
				},
				{
					"internalType": "uint256",
					"name": "",
					"type": "uint256"
				}
			],
			"name": "dealersCards",
			"outputs": [
				{
					"internalType": "uint256",
					"name": "",
					"type": "uint256"
				}
			],
			"stateMutability": "view",
			"type": "function"
		},
		{
			"inputs": [],
			"name": "doubleDown",
			"outputs": [],
			"stateMutability": "nonpayable",
			"type": "function"
		},
		{
			"inputs": [],
			"name": "finalDealerCount",
			"outputs": [
				{
					"internalType": "uint256",
					"name": "",
					"type": "uint256"
				}
			],
			"stateMutability": "view",
			"type": "function"
		},
		{
			"inputs": [],
			"name": "finalPlayerCount",
			"outputs": [
				{
					"internalType": "uint256",
					"name": "",
					"type": "uint256"
				}
			],
			"stateMutability": "view",
			"type": "function"
		},
		{
			"inputs": [
				{
					"internalType": "uint256",
					"name": "house_or_player",
					"type": "uint256"
				}
			],
			"name": "fundContract",
			"outputs": [],
			"stateMutability": "payable",
			"type": "function"
		},
		{
			"inputs": [],
			"name": "gameInProgress",
			"outputs": [
				{
					"internalType": "uint256",
					"name": "",
					"type": "uint256"
				}
			],
			"stateMutability": "view",
			"type": "function"
		},
		{
			"inputs": [],
			"name": "hitDealer",
			"outputs": [],
			"stateMutability": "nonpayable",
			"type": "function"
		},
		{
			"inputs": [],
			"name": "hitPlayer",
			"outputs": [],
			"stateMutability": "nonpayable",
			"type": "function"
		},
		{
			"inputs": [],
			"name": "houseBalance",
			"outputs": [
				{
					"internalType": "uint256",
					"name": "",
					"type": "uint256"
				}
			],
			"stateMutability": "view",
			"type": "function"
		},
		{
			"inputs": [
				{
					"internalType": "uint256",
					"name": "_betAmount",
					"type": "uint256"
				}
			],
			"name": "placeBet",
			"outputs": [],
			"stateMutability": "nonpayable",
			"type": "function"
		},
		{
			"inputs": [],
			"name": "playerBalance",
			"outputs": [
				{
					"internalType": "uint256",
					"name": "",
					"type": "uint256"
				}
			],
			"stateMutability": "view",
			"type": "function"
		},
		{
			"inputs": [],
			"name": "playerBusted",
			"outputs": [
				{
					"internalType": "uint256",
					"name": "",
					"type": "uint256"
				}
			],
			"stateMutability": "view",
			"type": "function"
		},
		{
			"inputs": [],
			"name": "playerCardCount",
			"outputs": [
				{
					"internalType": "uint256",
					"name": "",
					"type": "uint256"
				}
			],
			"stateMutability": "view",
			"type": "function"
		},
		{
			"inputs": [
				{
					"internalType": "uint256",
					"name": "",
					"type": "uint256"
				},
				{
					"internalType": "uint256",
					"name": "",
					"type": "uint256"
				}
			],
			"name": "playerHandValue",
			"outputs": [
				{
					"internalType": "uint256",
					"name": "",
					"type": "uint256"
				}
			],
			"stateMutability": "view",
			"type": "function"
		},
		{
			"inputs": [],
			"name": "playerStand",
			"outputs": [],
			"stateMutability": "nonpayable",
			"type": "function"
		},
		{
			"inputs": [],
			"name": "playerStands",
			"outputs": [
				{
					"internalType": "uint256",
					"name": "",
					"type": "uint256"
				}
			],
			"stateMutability": "view",
			"type": "function"
		},
		{
			"inputs": [
				{
					"internalType": "uint256",
					"name": "amount",
					"type": "uint256"
				}
			],
			"name": "playerWithdraw",
			"outputs": [],
			"stateMutability": "payable",
			"type": "function"
		},
		{
			"inputs": [
				{
					"internalType": "uint256",
					"name": "",
					"type": "uint256"
				},
				{
					"internalType": "uint256",
					"name": "",
					"type": "uint256"
				}
			],
			"name": "playersCards",
			"outputs": [
				{
					"internalType": "uint256",
					"name": "",
					"type": "uint256"
				}
			],
			"stateMutability": "view",
			"type": "function"
		}
	]
}