{
	"data": {
		"bytecode": {
			"linkReferences": {},
			"object": "60806040526000600155600060025560006003556000600455600060055560006006556000600755600060585560006059556000605a556000605b556000605c556000605d556000605e556000605f5560006060556000606160006101000a81548173ffffffffffffffffffffffffffffffffffffffff021916908373ffffffffffffffffffffffffffffffffffffffff1602179055506000606260006101000a81548173ffffffffffffffffffffffffffffffffffffffff021916908373ffffffffffffffffffffffffffffffffffffffff1602179055503480156100e457600080fd5b506142cf806100f46000396000f3fe60806040526004361061014b5760003560e01c806367084eb3116100b6578063c5c3cd781161006f578063c5c3cd781461045d578063c9f09d3814610488578063cdc7ea511461049f578063d0017a0c146104ca578063d24257c0146104f5578063dae10ed5146105205761014b565b806367084eb3146103375780638914d63b146103625780638bbb236f1461038d578063908a0979146103ca578063a10926d6146103f5578063bdbe451b146104205761014b565b80633c3248d5116101085780633c3248d5146102465780633fb64e751461027157806353a218c91461029c578063553df021146102d95780635629365b146102f0578063651f066a1461030c5761014b565b806310fe7c481461015057806313bf01ed1461016c57806316dd37dd146101975780632626ab08146101d4578063325eb3f5146101ff5780633519a2f81461022a575b600080fd5b61016a6004803603810190610165919061388e565b610537565b005b34801561017857600080fd5b506101816106d4565b60405161018e91906138ca565b60405180910390f35b3480156101a357600080fd5b506101be60048036038101906101b991906138e5565b6106da565b6040516101cb91906138ca565b60405180910390f35b3480156101e057600080fd5b506101e9610708565b6040516101f691906138ca565b60405180910390f35b34801561020b57600080fd5b5061021461070d565b60405161022191906138ca565b60405180910390f35b610244600480360381019061023f919061388e565b610713565b005b34801561025257600080fd5b5061025b610c42565b60405161026891906138ca565b60405180910390f35b34801561027d57600080fd5b50610286610c48565b60405161029391906138ca565b60405180910390f35b3480156102a857600080fd5b506102c360048036038101906102be91906138e5565b610c4e565b6040516102d091906138ca565b60405180910390f35b3480156102e557600080fd5b506102ee610c7c565b005b61030a6004803603810190610305919061388e565b611127565b005b34801561031857600080fd5b50610321611345565b60405161032e91906138ca565b60405180910390f35b34801561034357600080fd5b5061034c61134b565b60405161035991906138ca565b60405180910390f35b34801561036e57600080fd5b50610377611351565b60405161038491906138ca565b60405180910390f35b34801561039957600080fd5b506103b460048036038101906103af91906138e5565b611357565b6040516103c191906138ca565b60405180910390f35b3480156103d657600080fd5b506103df611385565b6040516103ec91906138ca565b60405180910390f35b34801561040157600080fd5b5061040a61138b565b60405161041791906138ca565b60405180910390f35b34801561042c57600080fd5b50610447600480360381019061044291906138e5565b611391565b60405161045491906138ca565b60405180910390f35b34801561046957600080fd5b506104726113bf565b60405161047f91906138ca565b60405180910390f35b34801561049457600080fd5b5061049d6113c5565b005b3480156104ab57600080fd5b506104b46114a5565b6040516104c191906138ca565b60405180910390f35b3480156104d657600080fd5b506104df6114ab565b6040516104ec91906138ca565b60405180910390f35b34801561050157600080fd5b5061050a6114b7565b60405161051791906138ca565b60405180910390f35b34801561052c57600080fd5b506105356114bd565b005b600454600134101580156105535750670de0b6b3a76400003411155b61055c57600080fd5b60035460045411156105a3576040517f08c379a000000000000000000000000000000000000000000000000000000000815260040161059a906139a8565b60405180910390fd5b606160009054906101000a900473ffffffffffffffffffffffffffffffffffffffff1673ffffffffffffffffffffffffffffffffffffffff163373ffffffffffffffffffffffffffffffffffffffff1614610633576040517f08c379a000000000000000000000000000000000000000000000000000000000815260040161062a90613a14565b60405180910390fd5b60008054906101000a900460ff1615610681576040517f08c379a000000000000000000000000000000000000000000000000000000000815260040161067890613a80565b60405180910390fd5b60016000806101000a81548160ff021916908315150217905550816003546106a99190613acf565b6003819055508160048190555060008060006101000a81548160ff0219169083151502179055505050565b605d5481565b604882600281106106ea57600080fd5b6002020181600281106106fc57600080fd5b01600091509150505481565b600181565b605a5481565b80600073ffffffffffffffffffffffffffffffffffffffff16606260009054906101000a900473ffffffffffffffffffffffffffffffffffffffff1673ffffffffffffffffffffffffffffffffffffffff1614806107bf5750600073ffffffffffffffffffffffffffffffffffffffff16606160009054906101000a900473ffffffffffffffffffffffffffffffffffffffff1673ffffffffffffffffffffffffffffffffffffffff16145b806108175750606260009054906101000a900473ffffffffffffffffffffffffffffffffffffffff1673ffffffffffffffffffffffffffffffffffffffff163373ffffffffffffffffffffffffffffffffffffffff16145b8061086f5750606160009054906101000a900473ffffffffffffffffffffffffffffffffffffffff1673ffffffffffffffffffffffffffffffffffffffff163373ffffffffffffffffffffffffffffffffffffffff16145b6108ae576040517f08c379a00000000000000000000000000000000000000000000000000000000081526004016108a590613b75565b60405180910390fd5b60008114806108bd5750600181145b6108fc576040517f08c379a00000000000000000000000000000000000000000000000000000000081526004016108f390613c07565b60405180910390fd5b60008203610a9d57606260009054906101000a900473ffffffffffffffffffffffffffffffffffffffff1673ffffffffffffffffffffffffffffffffffffffff163373ffffffffffffffffffffffffffffffffffffffff1614806109ae5750600073ffffffffffffffffffffffffffffffffffffffff16606260009054906101000a900473ffffffffffffffffffffffffffffffffffffffff1673ffffffffffffffffffffffffffffffffffffffff16145b8015610a085750606160009054906101000a900473ffffffffffffffffffffffffffffffffffffffff1673ffffffffffffffffffffffffffffffffffffffff163373ffffffffffffffffffffffffffffffffffffffff1614155b610a47576040517f08c379a0000000000000000000000000000000000000000000000000000000008152600401610a3e90613c99565b60405180910390fd5b33606260006101000a81548173ffffffffffffffffffffffffffffffffffffffff021916908373ffffffffffffffffffffffffffffffffffffffff16021790555034600254610a969190613cb9565b6002819055505b60018203610c3e57606160009054906101000a900473ffffffffffffffffffffffffffffffffffffffff1673ffffffffffffffffffffffffffffffffffffffff163373ffffffffffffffffffffffffffffffffffffffff161480610b4f5750600073ffffffffffffffffffffffffffffffffffffffff16606160009054906101000a900473ffffffffffffffffffffffffffffffffffffffff1673ffffffffffffffffffffffffffffffffffffffff16145b8015610ba95750606260009054906101000a900473ffffffffffffffffffffffffffffffffffffffff1673ffffffffffffffffffffffffffffffffffffffff163373ffffffffffffffffffffffffffffffffffffffff1614155b610be8576040517f08c379a0000000000000000000000000000000000000000000000000000000008152600401610bdf90613d5f565b60405180910390fd5b33606160006101000a81548173ffffffffffffffffffffffffffffffffffffffff021916908373ffffffffffffffffffffffffffffffffffffffff16021790555034600354610c379190613cb9565b6003819055505b5050565b605e5481565b60015481565b604c8260028110610c5e57600080fd5b600202018160028110610c7057600080fd5b01600091509150505481565b60008054906101000a900460ff1615610cca576040517f08c379a0000000000000000000000000000000000000000000000000000000008152600401610cc190613a80565b60405180910390fd5b60016000806101000a81548160ff021916908315150217905550600180819055506000605e819055506000605a819055506000605b819055506000605e819055506000605f819055506000605d819055506000605c8190555060006048600160028110610d3a57610d39613d7f565b5b60020201600060028110610d5157610d50613d7f565b5b018190555060006048600160028110610d6d57610d6c613d7f565b5b60020201600160028110610d8457610d83613d7f565b5b01819055506000600190505b600f8111610ee157600060088260108110610dae57610dad613d7f565b5b60020201600060028110610dc557610dc4613d7f565b5b0181905550600060088260108110610de057610ddf613d7f565b5b60020201600160028110610df757610df6613d7f565b5b0181905550600060288260108110610e1257610e11613d7f565b5b60020201600060028110610e2957610e28613d7f565b5b0181905550600060288260108110610e4457610e43613d7f565b5b60020201600160028110610e5b57610e5a613d7f565b5b01819055506004811015610ece57600060508260048110610e7f57610e7e613d7f565b5b60020201600060028110610e9657610e95613d7f565b5b0181905550600060508260048110610eb157610eb0613d7f565b5b60020201600160028110610ec857610ec7613d7f565b5b01819055505b8080610ed990613dae565b915050610d90565b50610eec600361185a565b610f6a6050600480602002604051908101604052809291906000905b82821015610f6157838260020201600280602002604051908101604052809291908260028015610f4d576020028201915b815481526020019060010190808311610f39575b505050505081526020019060010190610f08565b50505050611b18565b6050906004610f7a929190613724565b50610fe16050600160048110610f9357610f92613d7f565b5b60020201600060028110610faa57610fa9613d7f565b5b01546050600160048110610fc157610fc0613d7f565b5b60020201600160028110610fd857610fd7613d7f565b5b01546001611e7a565b6110476050600260048110610ff957610ff8613d7f565b5b600202016000600281106110105761100f613d7f565b5b0154605060026004811061102757611026613d7f565b5b6002020160016002811061103e5761103d613d7f565b5b01546001611f65565b6110ad605060036004811061105f5761105e613d7f565b5b6002020160006002811061107657611075613d7f565b5b0154605060036004811061108d5761108c613d7f565b5b600202016001600281106110a4576110a3613d7f565b5b01546002611e7a565b6110b5612050565b6110bd6122c5565b6110c561253a565b6110cd612ace565b601560486001600281106110e4576110e3613d7f565b5b600202016001600281106110fb576110fa613d7f565b5b01540361110b5761110a612f66565b5b60008060006101000a81548160ff021916908315150217905550565b8060006003541161116d576040517f08c379a000000000000000000000000000000000000000000000000000000000815260040161116490613e68565b60405180910390fd5b606160009054906101000a900473ffffffffffffffffffffffffffffffffffffffff1673ffffffffffffffffffffffffffffffffffffffff163373ffffffffffffffffffffffffffffffffffffffff16146111fd576040517f08c379a00000000000000000000000000000000000000000000000000000000081526004016111f490613efa565b60405180910390fd5b600354811115611242576040517f08c379a000000000000000000000000000000000000000000000000000000000815260040161123990613f8c565b60405180910390fd5b60008054906101000a900460ff1615611290576040517f08c379a000000000000000000000000000000000000000000000000000000000815260040161128790613a80565b60405180910390fd5b60016000806101000a81548160ff021916908315150217905550816003546112b89190613acf565b600381905550606160009054906101000a900473ffffffffffffffffffffffffffffffffffffffff1673ffffffffffffffffffffffffffffffffffffffff166108fc839081150290604051600060405180830381858888f19350505050158015611326573d6000803e3d6000fd5b5060008060006101000a81548160ff0219169083151502179055505050565b60035481565b60025481565b60585481565b6028826010811061136757600080fd5b60020201816002811061137957600080fd5b01600091509150505481565b60595481565b605f5481565b600882601081106113a157600080fd5b6002020181600281106113b357600080fd5b01600091509150505481565b605b5481565b6000605e541461140a576040517f08c379a000000000000000000000000000000000000000000000000000000000815260040161140190613ff8565b60405180910390fd5b6000605a541461144f576040517f08c379a000000000000000000000000000000000000000000000000000000000815260040161144690614064565b60405180910390fd5b6001805414611493576040517f08c379a000000000000000000000000000000000000000000000000000000000815260040161148a906140d0565b60405180910390fd5b6001605e819055506114a3612ace565b565b605c5481565b670de0b6b3a764000081565b60045481565b6001805414611501576040517f08c379a00000000000000000000000000000000000000000000000000000000081526004016114f8906140d0565b60405180910390fd5b6000605a5414611546576040517f08c379a000000000000000000000000000000000000000000000000000000000815260040161153d90614064565b60405180910390fd5b6000605e541461158b576040517f08c379a000000000000000000000000000000000000000000000000000000000815260040161158290613ff8565b60405180910390fd5b600061160b6008601080602002604051908101604052809291906000905b82821015611602578382600202016002806020026040519081016040528092919082600280156115ee576020028201915b8154815260200190600101908083116115da575b5050505050815260200190600101906115a9565b50505050613220565b9050611617600161185a565b6000600190505b600b81116117d5575b605060016004811061163c5761163b613d7f565b5b6002020160006002811061165357611652613d7f565b5b01546008826010811061166957611668613d7f565b5b600202016000600281106116805761167f613d7f565b5b01541480156116e75750605060016004811061169f5761169e613d7f565b5b600202016001600281106116b6576116b5613d7f565b5b0154600882601081106116cc576116cb613d7f565b5b600202016000600281106116e3576116e2613d7f565b5b0154145b806117ae5750605060016004811061170257611701613d7f565b5b6002020160006002811061171957611718613d7f565b5b01546028826010811061172f5761172e613d7f565b5b6002020160006002811061174657611745613d7f565b5b01541480156117ad5750605060016004811061176557611764613d7f565b5b6002020160016002811061177c5761177b613d7f565b5b01546028826010811061179257611791613d7f565b5b600202016001600281106117a9576117a8613d7f565b5b0154145b5b156117c2576117bd600161185a565b611627565b80806117cd90613dae565b91505061161e565b5061184760506001600481106117ee576117ed613d7f565b5b6002020160006002811061180557611804613d7f565b5b0154605060016004811061181c5761181b613d7f565b5b6002020160016002811061183357611832613d7f565b5b01546001846118429190613cb9565b611e7a565b61184f612050565b611857612ace565b50565b600060405180602001604052806000815250905060006040518060200160405280600081525090506000806001905060005b858211611b1057600060039050600060049050600060078190555060006006819055506118b7613298565b6005819055506118c860055461334c565b96506118d582828961341a565b95506118e08661352f565b9250865194505b60018310806118f65750600d83115b801561190d575060038561190a9190613acf565b82105b156119a15760028261191f9190613cb9565b915060028161192e9190613cb9565b905061193b82828961341a565b95506119468661352f565b92506003856119559190613acf565b82111561199c57600391506004905061196c613298565b60058190555061197d60055461334c565b965061198a82828961341a565b95506119958661352f565b9250865194505b6118e7565b826007819055506002826119b59190613cb9565b91506002816119c49190613cb9565b90506119d182828961341a565b95506119dc8661352f565b92505b60018310806119ee5750600483115b8015611a055750600385611a029190613acf565b82105b15611a8d57600182611a179190613cb9565b9150819050611a2782828961341a565b9550611a328661352f565b9250600385611a419190613acf565b821115611a88576004915060049050611a58613298565b600581905550611a6960055461334c565b9650611a7682828961341a565b9550611a818661352f565b9250865194505b6119df565b8260068190555060075460508560048110611aab57611aaa613d7f565b5b60020201600060028110611ac257611ac1613d7f565b5b018190555060065460508560048110611ade57611add613d7f565b5b60020201600160028110611af557611af4613d7f565b5b0181905550600184611b079190613cb9565b9350505061188c565b505050505050565b611b20613775565b5b81600260048110611b3557611b34613d7f565b5b6020020151600060028110611b4d57611b4c613d7f565b5b602002015182600160048110611b6657611b65613d7f565b5b6020020151600060028110611b7e57611b7d613d7f565b5b6020020151148015611bef575081600260048110611b9f57611b9e613d7f565b5b6020020151600160028110611bb757611bb6613d7f565b5b602002015182600160048110611bd057611bcf613d7f565b5b6020020151600160028110611be857611be7613d7f565b5b6020020151145b15611cc957611bfe600161185a565b6050600260048110611c1357611c12613d7f565b5b60020201600060028110611c2a57611c29613d7f565b5b015482600160048110611c4057611c3f613d7f565b5b6020020151600060028110611c5857611c57613d7f565b5b6020020181815250506050600160048110611c7657611c75613d7f565b5b60020201600160028110611c8d57611c8c613d7f565b5b015482600260048110611ca357611ca2613d7f565b5b6020020151600160028110611cbb57611cba613d7f565b5b602002018181525050611b21565b5b81600360048110611cde57611cdd613d7f565b5b6020020151600060028110611cf657611cf5613d7f565b5b602002015182600260048110611d0f57611d0e613d7f565b5b6020020151600060028110611d2757611d26613d7f565b5b6020020151148015611d98575081600360048110611d4857611d47613d7f565b5b6020020151600160028110611d6057611d5f613d7f565b5b602002015182600260048110611d7957611d78613d7f565b5b6020020151600160028110611d9157611d90613d7f565b5b6020020151145b15611e7257611da7600161185a565b6050600160048110611dbc57611dbb613d7f565b5b60020201600060028110611dd357611dd2613d7f565b5b015482600360048110611de957611de8613d7f565b5b6020020151600060028110611e0157611e00613d7f565b5b6020020181815250506050600160048110611e1f57611e1e613d7f565b5b60020201600160028110611e3657611e35613d7f565b5b015482600360048110611e4c57611e4b613d7f565b5b6020020151600160028110611e6457611e63613d7f565b5b602002018181525050611cca565b819050919050565b8260088260108110611e8f57611e8e613d7f565b5b60020201600060028110611ea657611ea5613d7f565b5b01819055508160088260108110611ec057611ebf613d7f565b5b60020201600160028110611ed757611ed6613d7f565b5b0181905550611f5a6008601080602002604051908101604052809291906000905b82821015611f5157838260020201600280602002604051908101604052809291908260028015611f3d576020028201915b815481526020019060010190808311611f29575b505050505081526020019060010190611ef8565b50505050613220565b605881905550505050565b8260288260108110611f7a57611f79613d7f565b5b60020201600060028110611f9157611f90613d7f565b5b01819055508160288260108110611fab57611faa613d7f565b5b60020201600160028110611fc257611fc1613d7f565b5b01819055506120456028601080602002604051908101604052809291906000905b8282101561203c57838260020201600280602002604051908101604052809291908260028015612028576020028201915b815481526020019060010190808311612014575b505050505081526020019060010190611fe3565b50505050613220565b605981905550505050565b6000806120d16008601080602002604051908101604052809291906000905b828210156120c8578382600202016002806020026040519081016040528092919082600280156120b4576020028201915b8154815260200190600101908083116120a0575b50505050508152602001906001019061206f565b50505050613220565b6058819055506000600190505b60585481116121e8576009600882601081106120fd576120fc613d7f565b5b6002020160006002811061211457612113613d7f565b5b0154111561212c57600a836121299190613cb9565b92505b600a6008826010811061214257612141613d7f565b5b6002020160006002811061215957612158613d7f565b5b0154101561219c576008816010811061217557612174613d7f565b5b6002020160006002811061218c5761218b613d7f565b5b0154836121999190613cb9565b92505b6001600882601081106121b2576121b1613d7f565b5b600202016000600281106121c9576121c8613d7f565b5b0154036121d557600191505b80806121e090613dae565b9150506120de565b508160486001600281106121ff576121fe613d7f565b5b6002020160006002811061221657612215613d7f565b5b018190555081604860016002811061223157612230613d7f565b5b6002020160016002811061224857612247613d7f565b5b0181905550600181036122c157600a604860016002811061226c5761226b613d7f565b5b6002020160016002811061228357612282613d7f565b5b015461228f9190613cb9565b60486001600281106122a4576122a3613d7f565b5b600202016001600281106122bb576122ba613d7f565b5b01819055505b5050565b6000806123466028601080602002604051908101604052809291906000905b8282101561233d57838260020201600280602002604051908101604052809291908260028015612329576020028201915b815481526020019060010190808311612315575b5050505050815260200190600101906122e4565b50505050613220565b6059819055506000600190505b605954811161245d5760096028826010811061237257612371613d7f565b5b6002020160006002811061238957612388613d7f565b5b015411156123a157600a8361239e9190613cb9565b92505b600a602882601081106123b7576123b6613d7f565b5b600202016000600281106123ce576123cd613d7f565b5b0154101561241157602881601081106123ea576123e9613d7f565b5b6002020160006002811061240157612400613d7f565b5b01548361240e9190613cb9565b92505b60016028826010811061242757612426613d7f565b5b6002020160006002811061243e5761243d613d7f565b5b01540361244a57600191505b808061245590613dae565b915050612353565b5081604c60016002811061247457612473613d7f565b5b6002020160006002811061248b5761248a613d7f565b5b018190555081604c6001600281106124a6576124a5613d7f565b5b600202016001600281106124bd576124bc613d7f565b5b01819055506001810361253657600a604c6001600281106124e1576124e0613d7f565b5b600202016001600281106124f8576124f7613d7f565b5b01546125049190613cb9565b604c60016002811061251957612518613d7f565b5b600202016001600281106125305761252f613d7f565b5b01819055505b5050565b6015604c60016002811061255157612550613d7f565b5b6002020160006002811061256857612567613d7f565b5b01541180156125a457506015604c60016002811061258957612588613d7f565b5b600202016001600281106125a05761259f613d7f565b5b0154115b156126e7576001605b819055506000600181905550604c6001600281106125ce576125cd613d7f565b5b600202016001600281106125e5576125e4613d7f565b5b0154604c6001600281106125fc576125fb613d7f565b5b6002020160006002811061261357612612613d7f565b5b01541161264f57604c60016002811061262f5761262e613d7f565b5b6002020160006002811061264657612645613d7f565b5b0154605d819055505b604c60016002811061266457612663613d7f565b5b6002020160016002811061267b5761267a613d7f565b5b0154604c60016002811061269257612691613d7f565b5b600202016000600281106126a9576126a8613d7f565b5b015411156126e657604c6001600281106126c6576126c5613d7f565b5b600202016001600281106126dd576126dc613d7f565b5b0154605d819055505b5b6015604c6001600281106126fe576126fd613d7f565b5b6002020160006002811061271557612714613d7f565b5b01541115801561275257506015604c60016002811061273757612736613d7f565b5b6002020160016002811061274e5761274d613d7f565b5b0154115b1561278c57604c60016002811061276c5761276b613d7f565b5b6002020160006002811061278357612782613d7f565b5b0154605d819055505b6015604c6001600281106127a3576127a2613d7f565b5b600202016000600281106127ba576127b9613d7f565b5b01541180156127f75750601560486001600281106127db576127da613d7f565b5b600202016001600281106127f2576127f1613d7f565b5b015411155b1561283157604c60016002811061281157612810613d7f565b5b6002020160016002811061282857612827613d7f565b5b0154605d819055505b6015604c60016002811061284857612847613d7f565b5b6002020160006002811061285f5761285e613d7f565b5b01541115801561289d57506015604c60016002811061288157612880613d7f565b5b6002020160016002811061289857612897613d7f565b5b015411155b156129d057604c6001600281106128b7576128b6613d7f565b5b600202016001600281106128ce576128cd613d7f565b5b0154604c6001600281106128e5576128e4613d7f565b5b600202016000600281106128fc576128fb613d7f565b5b0154111561293957604c60016002811061291957612918613d7f565b5b600202016000600281106129305761292f613d7f565b5b0154605d819055505b604c60016002811061294e5761294d613d7f565b5b6002020160016002811061296557612964613d7f565b5b0154604c60016002811061297c5761297b613d7f565b5b6002020160006002811061299357612992613d7f565b5b0154116129cf57604c6001600281106129af576129ae613d7f565b5b600202016001600281106129c6576129c5613d7f565b5b0154605d819055505b5b6010604c6001600281106129e7576129e6613d7f565b5b600202016000600281106129fe576129fd613d7f565b5b01541180612a3957506010604c600160028110612a1e57612a1d613d7f565b5b60020201600160028110612a3557612a34613d7f565b5b0154115b15612acc5760006001819055506015604c600160028110612a5d57612a5c613d7f565b5b60020201600060028110612a7457612a73613d7f565b5b0154118015612ab057506015604c600160028110612a9557612a94613d7f565b5b60020201600160028110612aac57612aab613d7f565b5b0154115b15612ac2576001605b81905550612acb565b6001605f819055505b5b565b60156048600160028110612ae557612ae4613d7f565b5b60020201600060028110612afc57612afb613d7f565b5b0154118015612b38575060156048600160028110612b1d57612b1c613d7f565b5b60020201600160028110612b3457612b33613d7f565b5b0154115b15612c7b576001605a8190555060006001819055506048600160028110612b6257612b61613d7f565b5b60020201600160028110612b7957612b78613d7f565b5b01546048600160028110612b9057612b8f613d7f565b5b60020201600060028110612ba757612ba6613d7f565b5b015411612be3576048600160028110612bc357612bc2613d7f565b5b60020201600060028110612bda57612bd9613d7f565b5b0154605c819055505b6048600160028110612bf857612bf7613d7f565b5b60020201600160028110612c0f57612c0e613d7f565b5b01546048600160028110612c2657612c25613d7f565b5b60020201600060028110612c3d57612c3c613d7f565b5b01541115612c7a576048600160028110612c5a57612c59613d7f565b5b60020201600160028110612c7157612c70613d7f565b5b0154605c819055505b5b60156048600160028110612c9257612c91613d7f565b5b60020201600060028110612ca957612ca8613d7f565b5b015411158015612ce6575060156048600160028110612ccb57612cca613d7f565b5b60020201600160028110612ce257612ce1613d7f565b5b0154115b15612d20576048600160028110612d0057612cff613d7f565b5b60020201600060028110612d1757612d16613d7f565b5b0154605c819055505b60156048600160028110612d3757612d36613d7f565b5b60020201600060028110612d4e57612d4d613d7f565b5b0154118015612d8b575060156048600160028110612d6f57612d6e613d7f565b5b60020201600160028110612d8657612d85613d7f565b5b015411155b15612dc5576048600160028110612da557612da4613d7f565b5b60020201600160028110612dbc57612dbb613d7f565b5b0154605c819055505b60156048600160028110612ddc57612ddb613d7f565b5b60020201600060028110612df357612df2613d7f565b5b015411158015612e31575060156048600160028110612e1557612e14613d7f565b5b60020201600160028110612e2c57612e2b613d7f565b5b015411155b15612f64576048600160028110612e4b57612e4a613d7f565b5b60020201600160028110612e6257612e61613d7f565b5b01546048600160028110612e7957612e78613d7f565b5b60020201600060028110612e9057612e8f613d7f565b5b01541115612ecd576048600160028110612ead57612eac613d7f565b5b60020201600060028110612ec457612ec3613d7f565b5b0154605c819055505b6048600160028110612ee257612ee1613d7f565b5b60020201600160028110612ef957612ef8613d7f565b5b01546048600160028110612f1057612f0f613d7f565b5b60020201600060028110612f2757612f26613d7f565b5b015411612f63576048600160028110612f4357612f42613d7f565b5b60020201600160028110612f5a57612f59613d7f565b5b0154605c819055505b5b565b600060018190555060016028600160108110612f8557612f84613d7f565b5b60020201600060028110612f9c57612f9b613d7f565b5b01540361321e57612fad600161185a565b6000600190505b60018111613168575b6050600160048110612fd257612fd1613d7f565b5b60020201600060028110612fe957612fe8613d7f565b5b015460088260108110612fff57612ffe613d7f565b5b6002020160006002811061301657613015613d7f565b5b0154148061307c5750605060016004811061303457613033613d7f565b5b6002020160006002811061304b5761304a613d7f565b5b01546028826010811061306157613060613d7f565b5b6002020160006002811061307857613077613d7f565b5b0154145b1561315557605060016004811061309657613095613d7f565b5b600202016001600281106130ad576130ac613d7f565b5b0154600882601081106130c3576130c2613d7f565b5b600202016001600281106130da576130d9613d7f565b5b01541480613140575060506001600481106130f8576130f7613d7f565b5b6002020160016002811061310f5761310e613d7f565b5b01546028826010811061312557613124613d7f565b5b6002020160016002811061313c5761313b613d7f565b5b0154145b156131505761314f600161185a565b5b612fbd565b808061316090613dae565b915050612fb4565b506131cf605060016004811061318157613180613d7f565b5b6002020160006002811061319857613197613d7f565b5b015460506001600481106131af576131ae613d7f565b5b600202016001600281106131c6576131c5613d7f565b5b01546002611f65565b6131d76122c5565b6131df61253a565b6015604c6001600281106131f6576131f5613d7f565b5b6002020160016002811061320d5761320c613d7f565b5b01540361321d5761321c6135c7565b5b5b565b6000806000905060005b601082101561328e57600084836010811061324857613247613d7f565b5b60200201516000600281106132605761325f613d7f565b5b60200201511461327a576001816132779190613cb9565b90505b6001826132879190613cb9565b915061322a565b8092505050919050565b6000606060008154809291906132ad90613dae565b91905055507f028f5c28f5c28f5c28f5c28f5c28f5c28f5c28f5c28f5c28f5c28f5c28f5c28f60036060546132e291906140f0565b436132ed9190613cb9565b33606054604051602001613303939291906141cd565b6040516020818303038152906040528051906020012060001c6133269190614239565b6005819055506060600081548092919061333f90613dae565b9190505550600554905090565b60606000600161335b846135d1565b01905060008167ffffffffffffffff81111561337a5761337961426a565b5b6040519080825280601f01601f1916602001820160405280156133ac5781602001600182028036833780820191505090505b509050600082602001820190505b60011561340f578080600190039150507f3031323334353637383961626364656600000000000000000000000000000000600a86061a8153600a85816134035761340261420a565b5b049450600085036133ba575b819350505050919050565b606060006001858561342c9190613acf565b6134369190613cb9565b67ffffffffffffffff81111561344f5761344e61426a565b5b6040519080825280601f01601f1916602001820160405280156134815781602001600182028036833780820191505090505b50905060005b85856134939190613acf565b81116135235783600187836134a89190613cb9565b6134b29190613acf565b815181106134c3576134c2613d7f565b5b602001015160f81c60f81b8282815181106134e1576134e0613d7f565b5b60200101907effffffffffffffffffffffffffffffffffffffffffffffffffffffffffffff1916908160001a905350808061351b90613dae565b915050613487565b50809150509392505050565b6000808290506000805b82518110156135bc57600083828151811061355757613556613d7f565b5b602001015160f81c60f81b60f81c60ff1690506030811015801561357c575060398111155b156135a85760308161358e9190613acf565b600a8461359b91906140f0565b6135a59190613cb9565b92505b5080806135b490613dae565b915050613539565b508092505050919050565b6000600181905550565b600080600090507a184f03e93ff9f4daa797ed6e38ed64bf6a1f010000000000000000831061362f577a184f03e93ff9f4daa797ed6e38ed64bf6a1f01000000000000000083816136255761362461420a565b5b0492506040810190505b6d04ee2d6d415b85acef8100000000831061366c576d04ee2d6d415b85acef810000000083816136625761366161420a565b5b0492506020810190505b662386f26fc10000831061369b57662386f26fc1000083816136915761369061420a565b5b0492506010810190505b6305f5e10083106136c4576305f5e10083816136ba576136b961420a565b5b0492506008810190505b61271083106136e95761271083816136df576136de61420a565b5b0492506004810190505b6064831061370c57606483816137025761370161420a565b5b0492506002810190505b600a831061371b576001810190505b80915050919050565b8260046002028101928215613764579160200282015b82811115613763578251829060026137539291906137a2565b509160200191906002019061373a565b5b50905061377191906137e2565b5090565b60405180608001604052806004905b61378c613806565b8152602001906001900390816137845790505090565b82600281019282156137d1579160200282015b828111156137d05782518255916020019190600101906137b5565b5b5090506137de9190613828565b5090565b5b8082111561380257600081816137f99190613845565b506002016137e3565b5090565b6040518060400160405280600290602082028036833780820191505090505090565b5b80821115613841576000816000905550600101613829565b5090565b506000815560010160009055565b600080fd5b6000819050919050565b61386b81613858565b811461387657600080fd5b50565b60008135905061388881613862565b92915050565b6000602082840312156138a4576138a3613853565b5b60006138b284828501613879565b91505092915050565b6138c481613858565b82525050565b60006020820190506138df60008301846138bb565b92915050565b600080604083850312156138fc576138fb613853565b5b600061390a85828601613879565b925050602061391b85828601613879565b9150509250929050565b600082825260208201905092915050565b7f42657420616d6f756e74206973206d6f7265207468616e2067616d652062616c60008201527f616e636500000000000000000000000000000000000000000000000000000000602082015250565b6000613992602483613925565b915061399d82613936565b604082019050919050565b600060208201905081810360008301526139c181613985565b9050919050565b7f4f6e6c7920706c617965722063616e20706c6163652062657400000000000000600082015250565b60006139fe601983613925565b9150613a09826139c8565b602082019050919050565b60006020820190508181036000830152613a2d816139f1565b9050919050565b7f5265656e7472616e6379206e6f7420616c6c6f77656400000000000000000000600082015250565b6000613a6a601683613925565b9150613a7582613a34565b602082019050919050565b60006020820190508181036000830152613a9981613a5d565b9050919050565b7f4e487b7100000000000000000000000000000000000000000000000000000000600052601160045260246000fd5b6000613ada82613858565b9150613ae583613858565b9250828203905081811115613afd57613afc613aa0565b5b92915050565b7f526567697374726174696f6e2061646472657373206973206e6f742076616c6960008201527f6400000000000000000000000000000000000000000000000000000000000000602082015250565b6000613b5f602183613925565b9150613b6a82613b03565b604082019050919050565b60006020820190508181036000830152613b8e81613b52565b9050919050565b7f506c61796572206d75737420626520686f757365283029206f7220706c61796560008201527f7228312900000000000000000000000000000000000000000000000000000000602082015250565b6000613bf1602483613925565b9150613bfc82613b95565b604082019050919050565b60006020820190508181036000830152613c2081613be4565b9050919050565b7f53656e6465722061646472657373206d75737420626520686f75736557616c6c60008201527f6574000000000000000000000000000000000000000000000000000000000000602082015250565b6000613c83602283613925565b9150613c8e82613c27565b604082019050919050565b60006020820190508181036000830152613cb281613c76565b9050919050565b6000613cc482613858565b9150613ccf83613858565b9250828201905080821115613ce757613ce6613aa0565b5b92915050565b7f53656e6465722061646472657373206d75737420626520706c6179657257616c60008201527f6c65740000000000000000000000000000000000000000000000000000000000602082015250565b6000613d49602383613925565b9150613d5482613ced565b604082019050919050565b60006020820190508181036000830152613d7881613d3c565b9050919050565b7f4e487b7100000000000000000000000000000000000000000000000000000000600052603260045260246000fd5b6000613db982613858565b91507fffffffffffffffffffffffffffffffffffffffffffffffffffffffffffffffff8203613deb57613dea613aa0565b5b600182019050919050565b7f506c6179657220686173206e6f2062616c616e636520746f207769746864726160008201527f7700000000000000000000000000000000000000000000000000000000000000602082015250565b6000613e52602183613925565b9150613e5d82613df6565b604082019050919050565b60006020820190508181036000830152613e8181613e45565b9050919050565b7f4f6e6c7920706c617965722063616e2075736520746869732066756e6374696f60008201527f6e20776974686472617700000000000000000000000000000000000000000000602082015250565b6000613ee4602a83613925565b9150613eef82613e88565b604082019050919050565b60006020820190508181036000830152613f1381613ed7565b9050919050565b7f596f75206172652072657175657374696e67206d6f7265207468616e2074686560008201527f20706c617965722077616c6c657420636f6e7461696e73000000000000000000602082015250565b6000613f76603783613925565b9150613f8182613f1a565b604082019050919050565b60006020820190508181036000830152613fa581613f69565b9050919050565b7f506c617965722068617320616c72656164792073746f6f640000000000000000600082015250565b6000613fe2601883613925565b9150613fed82613fac565b602082019050919050565b6000602082019050818103600083015261401181613fd5565b9050919050565b7f596f7527766520616c7265616479206275737465640000000000000000000000600082015250565b600061404e601583613925565b915061405982614018565b602082019050919050565b6000602082019050818103600083015261407d81614041565b9050919050565b7f47616d65206d75737420626520696e2070726f67726573730000000000000000600082015250565b60006140ba601883613925565b91506140c582614084565b602082019050919050565b600060208201905081810360008301526140e9816140ad565b9050919050565b60006140fb82613858565b915061410683613858565b925082820261411481613858565b9150828204841483151761412b5761412a613aa0565b5b5092915050565b6000819050919050565b61414d61414882613858565b614132565b82525050565b600073ffffffffffffffffffffffffffffffffffffffff82169050919050565b600061417e82614153565b9050919050565b60008160601b9050919050565b600061419d82614185565b9050919050565b60006141af82614192565b9050919050565b6141c76141c282614173565b6141a4565b82525050565b60006141d9828661413c565b6020820191506141e982856141b6565b6014820191506141f9828461413c565b602082019150819050949350505050565b7f4e487b7100000000000000000000000000000000000000000000000000000000600052601260045260246000fd5b600061424482613858565b915061424f83613858565b92508261425f5761425e61420a565b5b828206905092915050565b7f4e487b7100000000000000000000000000000000000000000000000000000000600052604160045260246000fdfea2646970667358221220151372284a7d6eacdf8e460d5ee73b404579cd6e950daddb1296ee5fdb7813e464736f6c63430008110033",
			"opcodes": "PUSH1 0x80 PUSH1 0x40 MSTORE PUSH1 0x0 PUSH1 0x1 SSTORE PUSH1 0x0 PUSH1 0x2 SSTORE PUSH1 0x0 PUSH1 0x3 SSTORE PUSH1 0x0 PUSH1 0x4 SSTORE PUSH1 0x0 PUSH1 0x5 SSTORE PUSH1 0x0 PUSH1 0x6 SSTORE PUSH1 0x0 PUSH1 0x7 SSTORE PUSH1 0x0 PUSH1 0x58 SSTORE PUSH1 0x0 PUSH1 0x59 SSTORE PUSH1 0x0 PUSH1 0x5A SSTORE PUSH1 0x0 PUSH1 0x5B SSTORE PUSH1 0x0 PUSH1 0x5C SSTORE PUSH1 0x0 PUSH1 0x5D SSTORE PUSH1 0x0 PUSH1 0x5E SSTORE PUSH1 0x0 PUSH1 0x5F SSTORE PUSH1 0x0 PUSH1 0x60 SSTORE PUSH1 0x0 PUSH1 0x61 PUSH1 0x0 PUSH2 0x100 EXP DUP2 SLOAD DUP2 PUSH20 0xFFFFFFFFFFFFFFFFFFFFFFFFFFFFFFFFFFFFFFFF MUL NOT AND SWAP1 DUP4 PUSH20 0xFFFFFFFFFFFFFFFFFFFFFFFFFFFFFFFFFFFFFFFF AND MUL OR SWAP1 SSTORE POP PUSH1 0x0 PUSH1 0x62 PUSH1 0x0 PUSH2 0x100 EXP DUP2 SLOAD DUP2 PUSH20 0xFFFFFFFFFFFFFFFFFFFFFFFFFFFFFFFFFFFFFFFF MUL NOT AND SWAP1 DUP4 PUSH20 0xFFFFFFFFFFFFFFFFFFFFFFFFFFFFFFFFFFFFFFFF AND MUL OR SWAP1 SSTORE POP CALLVALUE DUP1 ISZERO PUSH2 0xE4 JUMPI PUSH1 0x0 DUP1 REVERT JUMPDEST POP PUSH2 0x42CF DUP1 PUSH2 0xF4 PUSH1 0x0 CODECOPY PUSH1 0x0 RETURN INVALID PUSH1 0x80 PUSH1 0x40 MSTORE PUSH1 0x4 CALLDATASIZE LT PUSH2 0x14B JUMPI PUSH1 0x0 CALLDATALOAD PUSH1 0xE0 SHR DUP1 PUSH4 0x67084EB3 GT PUSH2 0xB6 JUMPI DUP1 PUSH4 0xC5C3CD78 GT PUSH2 0x6F JUMPI DUP1 PUSH4 0xC5C3CD78 EQ PUSH2 0x45D JUMPI DUP1 PUSH4 0xC9F09D38 EQ PUSH2 0x488 JUMPI DUP1 PUSH4 0xCDC7EA51 EQ PUSH2 0x49F JUMPI DUP1 PUSH4 0xD0017A0C EQ PUSH2 0x4CA JUMPI DUP1 PUSH4 0xD24257C0 EQ PUSH2 0x4F5 JUMPI DUP1 PUSH4 0xDAE10ED5 EQ PUSH2 0x520 JUMPI PUSH2 0x14B JUMP JUMPDEST DUP1 PUSH4 0x67084EB3 EQ PUSH2 0x337 JUMPI DUP1 PUSH4 0x8914D63B EQ PUSH2 0x362 JUMPI DUP1 PUSH4 0x8BBB236F EQ PUSH2 0x38D JUMPI DUP1 PUSH4 0x908A0979 EQ PUSH2 0x3CA JUMPI DUP1 PUSH4 0xA10926D6 EQ PUSH2 0x3F5 JUMPI DUP1 PUSH4 0xBDBE451B EQ PUSH2 0x420 JUMPI PUSH2 0x14B JUMP JUMPDEST DUP1 PUSH4 0x3C3248D5 GT PUSH2 0x108 JUMPI DUP1 PUSH4 0x3C3248D5 EQ PUSH2 0x246 JUMPI DUP1 PUSH4 0x3FB64E75 EQ PUSH2 0x271 JUMPI DUP1 PUSH4 0x53A218C9 EQ PUSH2 0x29C JUMPI DUP1 PUSH4 0x553DF021 EQ PUSH2 0x2D9 JUMPI DUP1 PUSH4 0x5629365B EQ PUSH2 0x2F0 JUMPI DUP1 PUSH4 0x651F066A EQ PUSH2 0x30C JUMPI PUSH2 0x14B JUMP JUMPDEST DUP1 PUSH4 0x10FE7C48 EQ PUSH2 0x150 JUMPI DUP1 PUSH4 0x13BF01ED EQ PUSH2 0x16C JUMPI DUP1 PUSH4 0x16DD37DD EQ PUSH2 0x197 JUMPI DUP1 PUSH4 0x2626AB08 EQ PUSH2 0x1D4 JUMPI DUP1 PUSH4 0x325EB3F5 EQ PUSH2 0x1FF JUMPI DUP1 PUSH4 0x3519A2F8 EQ PUSH2 0x22A JUMPI JUMPDEST PUSH1 0x0 DUP1 REVERT JUMPDEST PUSH2 0x16A PUSH1 0x4 DUP1 CALLDATASIZE SUB DUP2 ADD SWAP1 PUSH2 0x165 SWAP2 SWAP1 PUSH2 0x388E JUMP JUMPDEST PUSH2 0x537 JUMP JUMPDEST STOP JUMPDEST CALLVALUE DUP1 ISZERO PUSH2 0x178 JUMPI PUSH1 0x0 DUP1 REVERT JUMPDEST POP PUSH2 0x181 PUSH2 0x6D4 JUMP JUMPDEST PUSH1 0x40 MLOAD PUSH2 0x18E SWAP2 SWAP1 PUSH2 0x38CA JUMP JUMPDEST PUSH1 0x40 MLOAD DUP1 SWAP2 SUB SWAP1 RETURN JUMPDEST CALLVALUE DUP1 ISZERO PUSH2 0x1A3 JUMPI PUSH1 0x0 DUP1 REVERT JUMPDEST POP PUSH2 0x1BE PUSH1 0x4 DUP1 CALLDATASIZE SUB DUP2 ADD SWAP1 PUSH2 0x1B9 SWAP2 SWAP1 PUSH2 0x38E5 JUMP JUMPDEST PUSH2 0x6DA JUMP JUMPDEST PUSH1 0x40 MLOAD PUSH2 0x1CB SWAP2 SWAP1 PUSH2 0x38CA JUMP JUMPDEST PUSH1 0x40 MLOAD DUP1 SWAP2 SUB SWAP1 RETURN JUMPDEST CALLVALUE DUP1 ISZERO PUSH2 0x1E0 JUMPI PUSH1 0x0 DUP1 REVERT JUMPDEST POP PUSH2 0x1E9 PUSH2 0x708 JUMP JUMPDEST PUSH1 0x40 MLOAD PUSH2 0x1F6 SWAP2 SWAP1 PUSH2 0x38CA JUMP JUMPDEST PUSH1 0x40 MLOAD DUP1 SWAP2 SUB SWAP1 RETURN JUMPDEST CALLVALUE DUP1 ISZERO PUSH2 0x20B JUMPI PUSH1 0x0 DUP1 REVERT JUMPDEST POP PUSH2 0x214 PUSH2 0x70D JUMP JUMPDEST PUSH1 0x40 MLOAD PUSH2 0x221 SWAP2 SWAP1 PUSH2 0x38CA JUMP JUMPDEST PUSH1 0x40 MLOAD DUP1 SWAP2 SUB SWAP1 RETURN JUMPDEST PUSH2 0x244 PUSH1 0x4 DUP1 CALLDATASIZE SUB DUP2 ADD SWAP1 PUSH2 0x23F SWAP2 SWAP1 PUSH2 0x388E JUMP JUMPDEST PUSH2 0x713 JUMP JUMPDEST STOP JUMPDEST CALLVALUE DUP1 ISZERO PUSH2 0x252 JUMPI PUSH1 0x0 DUP1 REVERT JUMPDEST POP PUSH2 0x25B PUSH2 0xC42 JUMP JUMPDEST PUSH1 0x40 MLOAD PUSH2 0x268 SWAP2 SWAP1 PUSH2 0x38CA JUMP JUMPDEST PUSH1 0x40 MLOAD DUP1 SWAP2 SUB SWAP1 RETURN JUMPDEST CALLVALUE DUP1 ISZERO PUSH2 0x27D JUMPI PUSH1 0x0 DUP1 REVERT JUMPDEST POP PUSH2 0x286 PUSH2 0xC48 JUMP JUMPDEST PUSH1 0x40 MLOAD PUSH2 0x293 SWAP2 SWAP1 PUSH2 0x38CA JUMP JUMPDEST PUSH1 0x40 MLOAD DUP1 SWAP2 SUB SWAP1 RETURN JUMPDEST CALLVALUE DUP1 ISZERO PUSH2 0x2A8 JUMPI PUSH1 0x0 DUP1 REVERT JUMPDEST POP PUSH2 0x2C3 PUSH1 0x4 DUP1 CALLDATASIZE SUB DUP2 ADD SWAP1 PUSH2 0x2BE SWAP2 SWAP1 PUSH2 0x38E5 JUMP JUMPDEST PUSH2 0xC4E JUMP JUMPDEST PUSH1 0x40 MLOAD PUSH2 0x2D0 SWAP2 SWAP1 PUSH2 0x38CA JUMP JUMPDEST PUSH1 0x40 MLOAD DUP1 SWAP2 SUB SWAP1 RETURN JUMPDEST CALLVALUE DUP1 ISZERO PUSH2 0x2E5 JUMPI PUSH1 0x0 DUP1 REVERT JUMPDEST POP PUSH2 0x2EE PUSH2 0xC7C JUMP JUMPDEST STOP JUMPDEST PUSH2 0x30A PUSH1 0x4 DUP1 CALLDATASIZE SUB DUP2 ADD SWAP1 PUSH2 0x305 SWAP2 SWAP1 PUSH2 0x388E JUMP JUMPDEST PUSH2 0x1127 JUMP JUMPDEST STOP JUMPDEST CALLVALUE DUP1 ISZERO PUSH2 0x318 JUMPI PUSH1 0x0 DUP1 REVERT JUMPDEST POP PUSH2 0x321 PUSH2 0x1345 JUMP JUMPDEST PUSH1 0x40 MLOAD PUSH2 0x32E SWAP2 SWAP1 PUSH2 0x38CA JUMP JUMPDEST PUSH1 0x40 MLOAD DUP1 SWAP2 SUB SWAP1 RETURN JUMPDEST CALLVALUE DUP1 ISZERO PUSH2 0x343 JUMPI PUSH1 0x0 DUP1 REVERT JUMPDEST POP PUSH2 0x34C PUSH2 0x134B JUMP JUMPDEST PUSH1 0x40 MLOAD PUSH2 0x359 SWAP2 SWAP1 PUSH2 0x38CA JUMP JUMPDEST PUSH1 0x40 MLOAD DUP1 SWAP2 SUB SWAP1 RETURN JUMPDEST CALLVALUE DUP1 ISZERO PUSH2 0x36E JUMPI PUSH1 0x0 DUP1 REVERT JUMPDEST POP PUSH2 0x377 PUSH2 0x1351 JUMP JUMPDEST PUSH1 0x40 MLOAD PUSH2 0x384 SWAP2 SWAP1 PUSH2 0x38CA JUMP JUMPDEST PUSH1 0x40 MLOAD DUP1 SWAP2 SUB SWAP1 RETURN JUMPDEST CALLVALUE DUP1 ISZERO PUSH2 0x399 JUMPI PUSH1 0x0 DUP1 REVERT JUMPDEST POP PUSH2 0x3B4 PUSH1 0x4 DUP1 CALLDATASIZE SUB DUP2 ADD SWAP1 PUSH2 0x3AF SWAP2 SWAP1 PUSH2 0x38E5 JUMP JUMPDEST PUSH2 0x1357 JUMP JUMPDEST PUSH1 0x40 MLOAD PUSH2 0x3C1 SWAP2 SWAP1 PUSH2 0x38CA JUMP JUMPDEST PUSH1 0x40 MLOAD DUP1 SWAP2 SUB SWAP1 RETURN JUMPDEST CALLVALUE DUP1 ISZERO PUSH2 0x3D6 JUMPI PUSH1 0x0 DUP1 REVERT JUMPDEST POP PUSH2 0x3DF PUSH2 0x1385 JUMP JUMPDEST PUSH1 0x40 MLOAD PUSH2 0x3EC SWAP2 SWAP1 PUSH2 0x38CA JUMP JUMPDEST PUSH1 0x40 MLOAD DUP1 SWAP2 SUB SWAP1 RETURN JUMPDEST CALLVALUE DUP1 ISZERO PUSH2 0x401 JUMPI PUSH1 0x0 DUP1 REVERT JUMPDEST POP PUSH2 0x40A PUSH2 0x138B JUMP JUMPDEST PUSH1 0x40 MLOAD PUSH2 0x417 SWAP2 SWAP1 PUSH2 0x38CA JUMP JUMPDEST PUSH1 0x40 MLOAD DUP1 SWAP2 SUB SWAP1 RETURN JUMPDEST CALLVALUE DUP1 ISZERO PUSH2 0x42C JUMPI PUSH1 0x0 DUP1 REVERT JUMPDEST POP PUSH2 0x447 PUSH1 0x4 DUP1 CALLDATASIZE SUB DUP2 ADD SWAP1 PUSH2 0x442 SWAP2 SWAP1 PUSH2 0x38E5 JUMP JUMPDEST PUSH2 0x1391 JUMP JUMPDEST PUSH1 0x40 MLOAD PUSH2 0x454 SWAP2 SWAP1 PUSH2 0x38CA JUMP JUMPDEST PUSH1 0x40 MLOAD DUP1 SWAP2 SUB SWAP1 RETURN JUMPDEST CALLVALUE DUP1 ISZERO PUSH2 0x469 JUMPI PUSH1 0x0 DUP1 REVERT JUMPDEST POP PUSH2 0x472 PUSH2 0x13BF JUMP JUMPDEST PUSH1 0x40 MLOAD PUSH2 0x47F SWAP2 SWAP1 PUSH2 0x38CA JUMP JUMPDEST PUSH1 0x40 MLOAD DUP1 SWAP2 SUB SWAP1 RETURN JUMPDEST CALLVALUE DUP1 ISZERO PUSH2 0x494 JUMPI PUSH1 0x0 DUP1 REVERT JUMPDEST POP PUSH2 0x49D PUSH2 0x13C5 JUMP JUMPDEST STOP JUMPDEST CALLVALUE DUP1 ISZERO PUSH2 0x4AB JUMPI PUSH1 0x0 DUP1 REVERT JUMPDEST POP PUSH2 0x4B4 PUSH2 0x14A5 JUMP JUMPDEST PUSH1 0x40 MLOAD PUSH2 0x4C1 SWAP2 SWAP1 PUSH2 0x38CA JUMP JUMPDEST PUSH1 0x40 MLOAD DUP1 SWAP2 SUB SWAP1 RETURN JUMPDEST CALLVALUE DUP1 ISZERO PUSH2 0x4D6 JUMPI PUSH1 0x0 DUP1 REVERT JUMPDEST POP PUSH2 0x4DF PUSH2 0x14AB JUMP JUMPDEST PUSH1 0x40 MLOAD PUSH2 0x4EC SWAP2 SWAP1 PUSH2 0x38CA JUMP JUMPDEST PUSH1 0x40 MLOAD DUP1 SWAP2 SUB SWAP1 RETURN JUMPDEST CALLVALUE DUP1 ISZERO PUSH2 0x501 JUMPI PUSH1 0x0 DUP1 REVERT JUMPDEST POP PUSH2 0x50A PUSH2 0x14B7 JUMP JUMPDEST PUSH1 0x40 MLOAD PUSH2 0x517 SWAP2 SWAP1 PUSH2 0x38CA JUMP JUMPDEST PUSH1 0x40 MLOAD DUP1 SWAP2 SUB SWAP1 RETURN JUMPDEST CALLVALUE DUP1 ISZERO PUSH2 0x52C JUMPI PUSH1 0x0 DUP1 REVERT JUMPDEST POP PUSH2 0x535 PUSH2 0x14BD JUMP JUMPDEST STOP JUMPDEST PUSH1 0x4 SLOAD PUSH1 0x1 CALLVALUE LT ISZERO DUP1 ISZERO PUSH2 0x553 JUMPI POP PUSH8 0xDE0B6B3A7640000 CALLVALUE GT ISZERO JUMPDEST PUSH2 0x55C JUMPI PUSH1 0x0 DUP1 REVERT JUMPDEST PUSH1 0x3 SLOAD PUSH1 0x4 SLOAD GT ISZERO PUSH2 0x5A3 JUMPI PUSH1 0x40 MLOAD PUSH32 0x8C379A000000000000000000000000000000000000000000000000000000000 DUP2 MSTORE PUSH1 0x4 ADD PUSH2 0x59A SWAP1 PUSH2 0x39A8 JUMP JUMPDEST PUSH1 0x40 MLOAD DUP1 SWAP2 SUB SWAP1 REVERT JUMPDEST PUSH1 0x61 PUSH1 0x0 SWAP1 SLOAD SWAP1 PUSH2 0x100 EXP SWAP1 DIV PUSH20 0xFFFFFFFFFFFFFFFFFFFFFFFFFFFFFFFFFFFFFFFF AND PUSH20 0xFFFFFFFFFFFFFFFFFFFFFFFFFFFFFFFFFFFFFFFF AND CALLER PUSH20 0xFFFFFFFFFFFFFFFFFFFFFFFFFFFFFFFFFFFFFFFF AND EQ PUSH2 0x633 JUMPI PUSH1 0x40 MLOAD PUSH32 0x8C379A000000000000000000000000000000000000000000000000000000000 DUP2 MSTORE PUSH1 0x4 ADD PUSH2 0x62A SWAP1 PUSH2 0x3A14 JUMP JUMPDEST PUSH1 0x40 MLOAD DUP1 SWAP2 SUB SWAP1 REVERT JUMPDEST PUSH1 0x0 DUP1 SLOAD SWAP1 PUSH2 0x100 EXP SWAP1 DIV PUSH1 0xFF AND ISZERO PUSH2 0x681 JUMPI PUSH1 0x40 MLOAD PUSH32 0x8C379A000000000000000000000000000000000000000000000000000000000 DUP2 MSTORE PUSH1 0x4 ADD PUSH2 0x678 SWAP1 PUSH2 0x3A80 JUMP JUMPDEST PUSH1 0x40 MLOAD DUP1 SWAP2 SUB SWAP1 REVERT JUMPDEST PUSH1 0x1 PUSH1 0x0 DUP1 PUSH2 0x100 EXP DUP2 SLOAD DUP2 PUSH1 0xFF MUL NOT AND SWAP1 DUP4 ISZERO ISZERO MUL OR SWAP1 SSTORE POP DUP2 PUSH1 0x3 SLOAD PUSH2 0x6A9 SWAP2 SWAP1 PUSH2 0x3ACF JUMP JUMPDEST PUSH1 0x3 DUP2 SWAP1 SSTORE POP DUP2 PUSH1 0x4 DUP2 SWAP1 SSTORE POP PUSH1 0x0 DUP1 PUSH1 0x0 PUSH2 0x100 EXP DUP2 SLOAD DUP2 PUSH1 0xFF MUL NOT AND SWAP1 DUP4 ISZERO ISZERO MUL OR SWAP1 SSTORE POP POP POP JUMP JUMPDEST PUSH1 0x5D SLOAD DUP2 JUMP JUMPDEST PUSH1 0x48 DUP3 PUSH1 0x2 DUP2 LT PUSH2 0x6EA JUMPI PUSH1 0x0 DUP1 REVERT JUMPDEST PUSH1 0x2 MUL ADD DUP2 PUSH1 0x2 DUP2 LT PUSH2 0x6FC JUMPI PUSH1 0x0 DUP1 REVERT JUMPDEST ADD PUSH1 0x0 SWAP2 POP SWAP2 POP POP SLOAD DUP2 JUMP JUMPDEST PUSH1 0x1 DUP2 JUMP JUMPDEST PUSH1 0x5A SLOAD DUP2 JUMP JUMPDEST DUP1 PUSH1 0x0 PUSH20 0xFFFFFFFFFFFFFFFFFFFFFFFFFFFFFFFFFFFFFFFF AND PUSH1 0x62 PUSH1 0x0 SWAP1 SLOAD SWAP1 PUSH2 0x100 EXP SWAP1 DIV PUSH20 0xFFFFFFFFFFFFFFFFFFFFFFFFFFFFFFFFFFFFFFFF AND PUSH20 0xFFFFFFFFFFFFFFFFFFFFFFFFFFFFFFFFFFFFFFFF AND EQ DUP1 PUSH2 0x7BF JUMPI POP PUSH1 0x0 PUSH20 0xFFFFFFFFFFFFFFFFFFFFFFFFFFFFFFFFFFFFFFFF AND PUSH1 0x61 PUSH1 0x0 SWAP1 SLOAD SWAP1 PUSH2 0x100 EXP SWAP1 DIV PUSH20 0xFFFFFFFFFFFFFFFFFFFFFFFFFFFFFFFFFFFFFFFF AND PUSH20 0xFFFFFFFFFFFFFFFFFFFFFFFFFFFFFFFFFFFFFFFF AND EQ JUMPDEST DUP1 PUSH2 0x817 JUMPI POP PUSH1 0x62 PUSH1 0x0 SWAP1 SLOAD SWAP1 PUSH2 0x100 EXP SWAP1 DIV PUSH20 0xFFFFFFFFFFFFFFFFFFFFFFFFFFFFFFFFFFFFFFFF AND PUSH20 0xFFFFFFFFFFFFFFFFFFFFFFFFFFFFFFFFFFFFFFFF AND CALLER PUSH20 0xFFFFFFFFFFFFFFFFFFFFFFFFFFFFFFFFFFFFFFFF AND EQ JUMPDEST DUP1 PUSH2 0x86F JUMPI POP PUSH1 0x61 PUSH1 0x0 SWAP1 SLOAD SWAP1 PUSH2 0x100 EXP SWAP1 DIV PUSH20 0xFFFFFFFFFFFFFFFFFFFFFFFFFFFFFFFFFFFFFFFF AND PUSH20 0xFFFFFFFFFFFFFFFFFFFFFFFFFFFFFFFFFFFFFFFF AND CALLER PUSH20 0xFFFFFFFFFFFFFFFFFFFFFFFFFFFFFFFFFFFFFFFF AND EQ JUMPDEST PUSH2 0x8AE JUMPI PUSH1 0x40 MLOAD PUSH32 0x8C379A000000000000000000000000000000000000000000000000000000000 DUP2 MSTORE PUSH1 0x4 ADD PUSH2 0x8A5 SWAP1 PUSH2 0x3B75 JUMP JUMPDEST PUSH1 0x40 MLOAD DUP1 SWAP2 SUB SWAP1 REVERT JUMPDEST PUSH1 0x0 DUP2 EQ DUP1 PUSH2 0x8BD JUMPI POP PUSH1 0x1 DUP2 EQ JUMPDEST PUSH2 0x8FC JUMPI PUSH1 0x40 MLOAD PUSH32 0x8C379A000000000000000000000000000000000000000000000000000000000 DUP2 MSTORE PUSH1 0x4 ADD PUSH2 0x8F3 SWAP1 PUSH2 0x3C07 JUMP JUMPDEST PUSH1 0x40 MLOAD DUP1 SWAP2 SUB SWAP1 REVERT JUMPDEST PUSH1 0x0 DUP3 SUB PUSH2 0xA9D JUMPI PUSH1 0x62 PUSH1 0x0 SWAP1 SLOAD SWAP1 PUSH2 0x100 EXP SWAP1 DIV PUSH20 0xFFFFFFFFFFFFFFFFFFFFFFFFFFFFFFFFFFFFFFFF AND PUSH20 0xFFFFFFFFFFFFFFFFFFFFFFFFFFFFFFFFFFFFFFFF AND CALLER PUSH20 0xFFFFFFFFFFFFFFFFFFFFFFFFFFFFFFFFFFFFFFFF AND EQ DUP1 PUSH2 0x9AE JUMPI POP PUSH1 0x0 PUSH20 0xFFFFFFFFFFFFFFFFFFFFFFFFFFFFFFFFFFFFFFFF AND PUSH1 0x62 PUSH1 0x0 SWAP1 SLOAD SWAP1 PUSH2 0x100 EXP SWAP1 DIV PUSH20 0xFFFFFFFFFFFFFFFFFFFFFFFFFFFFFFFFFFFFFFFF AND PUSH20 0xFFFFFFFFFFFFFFFFFFFFFFFFFFFFFFFFFFFFFFFF AND EQ JUMPDEST DUP1 ISZERO PUSH2 0xA08 JUMPI POP PUSH1 0x61 PUSH1 0x0 SWAP1 SLOAD SWAP1 PUSH2 0x100 EXP SWAP1 DIV PUSH20 0xFFFFFFFFFFFFFFFFFFFFFFFFFFFFFFFFFFFFFFFF AND PUSH20 0xFFFFFFFFFFFFFFFFFFFFFFFFFFFFFFFFFFFFFFFF AND CALLER PUSH20 0xFFFFFFFFFFFFFFFFFFFFFFFFFFFFFFFFFFFFFFFF AND EQ ISZERO JUMPDEST PUSH2 0xA47 JUMPI PUSH1 0x40 MLOAD PUSH32 0x8C379A000000000000000000000000000000000000000000000000000000000 DUP2 MSTORE PUSH1 0x4 ADD PUSH2 0xA3E SWAP1 PUSH2 0x3C99 JUMP JUMPDEST PUSH1 0x40 MLOAD DUP1 SWAP2 SUB SWAP1 REVERT JUMPDEST CALLER PUSH1 0x62 PUSH1 0x0 PUSH2 0x100 EXP DUP2 SLOAD DUP2 PUSH20 0xFFFFFFFFFFFFFFFFFFFFFFFFFFFFFFFFFFFFFFFF MUL NOT AND SWAP1 DUP4 PUSH20 0xFFFFFFFFFFFFFFFFFFFFFFFFFFFFFFFFFFFFFFFF AND MUL OR SWAP1 SSTORE POP CALLVALUE PUSH1 0x2 SLOAD PUSH2 0xA96 SWAP2 SWAP1 PUSH2 0x3CB9 JUMP JUMPDEST PUSH1 0x2 DUP2 SWAP1 SSTORE POP JUMPDEST PUSH1 0x1 DUP3 SUB PUSH2 0xC3E JUMPI PUSH1 0x61 PUSH1 0x0 SWAP1 SLOAD SWAP1 PUSH2 0x100 EXP SWAP1 DIV PUSH20 0xFFFFFFFFFFFFFFFFFFFFFFFFFFFFFFFFFFFFFFFF AND PUSH20 0xFFFFFFFFFFFFFFFFFFFFFFFFFFFFFFFFFFFFFFFF AND CALLER PUSH20 0xFFFFFFFFFFFFFFFFFFFFFFFFFFFFFFFFFFFFFFFF AND EQ DUP1 PUSH2 0xB4F JUMPI POP PUSH1 0x0 PUSH20 0xFFFFFFFFFFFFFFFFFFFFFFFFFFFFFFFFFFFFFFFF AND PUSH1 0x61 PUSH1 0x0 SWAP1 SLOAD SWAP1 PUSH2 0x100 EXP SWAP1 DIV PUSH20 0xFFFFFFFFFFFFFFFFFFFFFFFFFFFFFFFFFFFFFFFF AND PUSH20 0xFFFFFFFFFFFFFFFFFFFFFFFFFFFFFFFFFFFFFFFF AND EQ JUMPDEST DUP1 ISZERO PUSH2 0xBA9 JUMPI POP PUSH1 0x62 PUSH1 0x0 SWAP1 SLOAD SWAP1 PUSH2 0x100 EXP SWAP1 DIV PUSH20 0xFFFFFFFFFFFFFFFFFFFFFFFFFFFFFFFFFFFFFFFF AND PUSH20 0xFFFFFFFFFFFFFFFFFFFFFFFFFFFFFFFFFFFFFFFF AND CALLER PUSH20 0xFFFFFFFFFFFFFFFFFFFFFFFFFFFFFFFFFFFFFFFF AND EQ ISZERO JUMPDEST PUSH2 0xBE8 JUMPI PUSH1 0x40 MLOAD PUSH32 0x8C379A000000000000000000000000000000000000000000000000000000000 DUP2 MSTORE PUSH1 0x4 ADD PUSH2 0xBDF SWAP1 PUSH2 0x3D5F JUMP JUMPDEST PUSH1 0x40 MLOAD DUP1 SWAP2 SUB SWAP1 REVERT JUMPDEST CALLER PUSH1 0x61 PUSH1 0x0 PUSH2 0x100 EXP DUP2 SLOAD DUP2 PUSH20 0xFFFFFFFFFFFFFFFFFFFFFFFFFFFFFFFFFFFFFFFF MUL NOT AND SWAP1 DUP4 PUSH20 0xFFFFFFFFFFFFFFFFFFFFFFFFFFFFFFFFFFFFFFFF AND MUL OR SWAP1 SSTORE POP CALLVALUE PUSH1 0x3 SLOAD PUSH2 0xC37 SWAP2 SWAP1 PUSH2 0x3CB9 JUMP JUMPDEST PUSH1 0x3 DUP2 SWAP1 SSTORE POP JUMPDEST POP POP JUMP JUMPDEST PUSH1 0x5E SLOAD DUP2 JUMP JUMPDEST PUSH1 0x1 SLOAD DUP2 JUMP JUMPDEST PUSH1 0x4C DUP3 PUSH1 0x2 DUP2 LT PUSH2 0xC5E JUMPI PUSH1 0x0 DUP1 REVERT JUMPDEST PUSH1 0x2 MUL ADD DUP2 PUSH1 0x2 DUP2 LT PUSH2 0xC70 JUMPI PUSH1 0x0 DUP1 REVERT JUMPDEST ADD PUSH1 0x0 SWAP2 POP SWAP2 POP POP SLOAD DUP2 JUMP JUMPDEST PUSH1 0x0 DUP1 SLOAD SWAP1 PUSH2 0x100 EXP SWAP1 DIV PUSH1 0xFF AND ISZERO PUSH2 0xCCA JUMPI PUSH1 0x40 MLOAD PUSH32 0x8C379A000000000000000000000000000000000000000000000000000000000 DUP2 MSTORE PUSH1 0x4 ADD PUSH2 0xCC1 SWAP1 PUSH2 0x3A80 JUMP JUMPDEST PUSH1 0x40 MLOAD DUP1 SWAP2 SUB SWAP1 REVERT JUMPDEST PUSH1 0x1 PUSH1 0x0 DUP1 PUSH2 0x100 EXP DUP2 SLOAD DUP2 PUSH1 0xFF MUL NOT AND SWAP1 DUP4 ISZERO ISZERO MUL OR SWAP1 SSTORE POP PUSH1 0x1 DUP1 DUP2 SWAP1 SSTORE POP PUSH1 0x0 PUSH1 0x5E DUP2 SWAP1 SSTORE POP PUSH1 0x0 PUSH1 0x5A DUP2 SWAP1 SSTORE POP PUSH1 0x0 PUSH1 0x5B DUP2 SWAP1 SSTORE POP PUSH1 0x0 PUSH1 0x5E DUP2 SWAP1 SSTORE POP PUSH1 0x0 PUSH1 0x5F DUP2 SWAP1 SSTORE POP PUSH1 0x0 PUSH1 0x5D DUP2 SWAP1 SSTORE POP PUSH1 0x0 PUSH1 0x5C DUP2 SWAP1 SSTORE POP PUSH1 0x0 PUSH1 0x48 PUSH1 0x1 PUSH1 0x2 DUP2 LT PUSH2 0xD3A JUMPI PUSH2 0xD39 PUSH2 0x3D7F JUMP JUMPDEST JUMPDEST PUSH1 0x2 MUL ADD PUSH1 0x0 PUSH1 0x2 DUP2 LT PUSH2 0xD51 JUMPI PUSH2 0xD50 PUSH2 0x3D7F JUMP JUMPDEST JUMPDEST ADD DUP2 SWAP1 SSTORE POP PUSH1 0x0 PUSH1 0x48 PUSH1 0x1 PUSH1 0x2 DUP2 LT PUSH2 0xD6D JUMPI PUSH2 0xD6C PUSH2 0x3D7F JUMP JUMPDEST JUMPDEST PUSH1 0x2 MUL ADD PUSH1 0x1 PUSH1 0x2 DUP2 LT PUSH2 0xD84 JUMPI PUSH2 0xD83 PUSH2 0x3D7F JUMP JUMPDEST JUMPDEST ADD DUP2 SWAP1 SSTORE POP PUSH1 0x0 PUSH1 0x1 SWAP1 POP JUMPDEST PUSH1 0xF DUP2 GT PUSH2 0xEE1 JUMPI PUSH1 0x0 PUSH1 0x8 DUP3 PUSH1 0x10 DUP2 LT PUSH2 0xDAE JUMPI PUSH2 0xDAD PUSH2 0x3D7F JUMP JUMPDEST JUMPDEST PUSH1 0x2 MUL ADD PUSH1 0x0 PUSH1 0x2 DUP2 LT PUSH2 0xDC5 JUMPI PUSH2 0xDC4 PUSH2 0x3D7F JUMP JUMPDEST JUMPDEST ADD DUP2 SWAP1 SSTORE POP PUSH1 0x0 PUSH1 0x8 DUP3 PUSH1 0x10 DUP2 LT PUSH2 0xDE0 JUMPI PUSH2 0xDDF PUSH2 0x3D7F JUMP JUMPDEST JUMPDEST PUSH1 0x2 MUL ADD PUSH1 0x1 PUSH1 0x2 DUP2 LT PUSH2 0xDF7 JUMPI PUSH2 0xDF6 PUSH2 0x3D7F JUMP JUMPDEST JUMPDEST ADD DUP2 SWAP1 SSTORE POP PUSH1 0x0 PUSH1 0x28 DUP3 PUSH1 0x10 DUP2 LT PUSH2 0xE12 JUMPI PUSH2 0xE11 PUSH2 0x3D7F JUMP JUMPDEST JUMPDEST PUSH1 0x2 MUL ADD PUSH1 0x0 PUSH1 0x2 DUP2 LT PUSH2 0xE29 JUMPI PUSH2 0xE28 PUSH2 0x3D7F JUMP JUMPDEST JUMPDEST ADD DUP2 SWAP1 SSTORE POP PUSH1 0x0 PUSH1 0x28 DUP3 PUSH1 0x10 DUP2 LT PUSH2 0xE44 JUMPI PUSH2 0xE43 PUSH2 0x3D7F JUMP JUMPDEST JUMPDEST PUSH1 0x2 MUL ADD PUSH1 0x1 PUSH1 0x2 DUP2 LT PUSH2 0xE5B JUMPI PUSH2 0xE5A PUSH2 0x3D7F JUMP JUMPDEST JUMPDEST ADD DUP2 SWAP1 SSTORE POP PUSH1 0x4 DUP2 LT ISZERO PUSH2 0xECE JUMPI PUSH1 0x0 PUSH1 0x50 DUP3 PUSH1 0x4 DUP2 LT PUSH2 0xE7F JUMPI PUSH2 0xE7E PUSH2 0x3D7F JUMP JUMPDEST JUMPDEST PUSH1 0x2 MUL ADD PUSH1 0x0 PUSH1 0x2 DUP2 LT PUSH2 0xE96 JUMPI PUSH2 0xE95 PUSH2 0x3D7F JUMP JUMPDEST JUMPDEST ADD DUP2 SWAP1 SSTORE POP PUSH1 0x0 PUSH1 0x50 DUP3 PUSH1 0x4 DUP2 LT PUSH2 0xEB1 JUMPI PUSH2 0xEB0 PUSH2 0x3D7F JUMP JUMPDEST JUMPDEST PUSH1 0x2 MUL ADD PUSH1 0x1 PUSH1 0x2 DUP2 LT PUSH2 0xEC8 JUMPI PUSH2 0xEC7 PUSH2 0x3D7F JUMP JUMPDEST JUMPDEST ADD DUP2 SWAP1 SSTORE POP JUMPDEST DUP1 DUP1 PUSH2 0xED9 SWAP1 PUSH2 0x3DAE JUMP JUMPDEST SWAP2 POP POP PUSH2 0xD90 JUMP JUMPDEST POP PUSH2 0xEEC PUSH1 0x3 PUSH2 0x185A JUMP JUMPDEST PUSH2 0xF6A PUSH1 0x50 PUSH1 0x4 DUP1 PUSH1 0x20 MUL PUSH1 0x40 MLOAD SWAP1 DUP2 ADD PUSH1 0x40 MSTORE DUP1 SWAP3 SWAP2 SWAP1 PUSH1 0x0 SWAP1 JUMPDEST DUP3 DUP3 LT ISZERO PUSH2 0xF61 JUMPI DUP4 DUP3 PUSH1 0x2 MUL ADD PUSH1 0x2 DUP1 PUSH1 0x20 MUL PUSH1 0x40 MLOAD SWAP1 DUP2 ADD PUSH1 0x40 MSTORE DUP1 SWAP3 SWAP2 SWAP1 DUP3 PUSH1 0x2 DUP1 ISZERO PUSH2 0xF4D JUMPI PUSH1 0x20 MUL DUP3 ADD SWAP2 JUMPDEST DUP2 SLOAD DUP2 MSTORE PUSH1 0x20 ADD SWAP1 PUSH1 0x1 ADD SWAP1 DUP1 DUP4 GT PUSH2 0xF39 JUMPI JUMPDEST POP POP POP POP POP DUP2 MSTORE PUSH1 0x20 ADD SWAP1 PUSH1 0x1 ADD SWAP1 PUSH2 0xF08 JUMP JUMPDEST POP POP POP POP PUSH2 0x1B18 JUMP JUMPDEST PUSH1 0x50 SWAP1 PUSH1 0x4 PUSH2 0xF7A SWAP3 SWAP2 SWAP1 PUSH2 0x3724 JUMP JUMPDEST POP PUSH2 0xFE1 PUSH1 0x50 PUSH1 0x1 PUSH1 0x4 DUP2 LT PUSH2 0xF93 JUMPI PUSH2 0xF92 PUSH2 0x3D7F JUMP JUMPDEST JUMPDEST PUSH1 0x2 MUL ADD PUSH1 0x0 PUSH1 0x2 DUP2 LT PUSH2 0xFAA JUMPI PUSH2 0xFA9 PUSH2 0x3D7F JUMP JUMPDEST JUMPDEST ADD SLOAD PUSH1 0x50 PUSH1 0x1 PUSH1 0x4 DUP2 LT PUSH2 0xFC1 JUMPI PUSH2 0xFC0 PUSH2 0x3D7F JUMP JUMPDEST JUMPDEST PUSH1 0x2 MUL ADD PUSH1 0x1 PUSH1 0x2 DUP2 LT PUSH2 0xFD8 JUMPI PUSH2 0xFD7 PUSH2 0x3D7F JUMP JUMPDEST JUMPDEST ADD SLOAD PUSH1 0x1 PUSH2 0x1E7A JUMP JUMPDEST PUSH2 0x1047 PUSH1 0x50 PUSH1 0x2 PUSH1 0x4 DUP2 LT PUSH2 0xFF9 JUMPI PUSH2 0xFF8 PUSH2 0x3D7F JUMP JUMPDEST JUMPDEST PUSH1 0x2 MUL ADD PUSH1 0x0 PUSH1 0x2 DUP2 LT PUSH2 0x1010 JUMPI PUSH2 0x100F PUSH2 0x3D7F JUMP JUMPDEST JUMPDEST ADD SLOAD PUSH1 0x50 PUSH1 0x2 PUSH1 0x4 DUP2 LT PUSH2 0x1027 JUMPI PUSH2 0x1026 PUSH2 0x3D7F JUMP JUMPDEST JUMPDEST PUSH1 0x2 MUL ADD PUSH1 0x1 PUSH1 0x2 DUP2 LT PUSH2 0x103E JUMPI PUSH2 0x103D PUSH2 0x3D7F JUMP JUMPDEST JUMPDEST ADD SLOAD PUSH1 0x1 PUSH2 0x1F65 JUMP JUMPDEST PUSH2 0x10AD PUSH1 0x50 PUSH1 0x3 PUSH1 0x4 DUP2 LT PUSH2 0x105F JUMPI PUSH2 0x105E PUSH2 0x3D7F JUMP JUMPDEST JUMPDEST PUSH1 0x2 MUL ADD PUSH1 0x0 PUSH1 0x2 DUP2 LT PUSH2 0x1076 JUMPI PUSH2 0x1075 PUSH2 0x3D7F JUMP JUMPDEST JUMPDEST ADD SLOAD PUSH1 0x50 PUSH1 0x3 PUSH1 0x4 DUP2 LT PUSH2 0x108D JUMPI PUSH2 0x108C PUSH2 0x3D7F JUMP JUMPDEST JUMPDEST PUSH1 0x2 MUL ADD PUSH1 0x1 PUSH1 0x2 DUP2 LT PUSH2 0x10A4 JUMPI PUSH2 0x10A3 PUSH2 0x3D7F JUMP JUMPDEST JUMPDEST ADD SLOAD PUSH1 0x2 PUSH2 0x1E7A JUMP JUMPDEST PUSH2 0x10B5 PUSH2 0x2050 JUMP JUMPDEST PUSH2 0x10BD PUSH2 0x22C5 JUMP JUMPDEST PUSH2 0x10C5 PUSH2 0x253A JUMP JUMPDEST PUSH2 0x10CD PUSH2 0x2ACE JUMP JUMPDEST PUSH1 0x15 PUSH1 0x48 PUSH1 0x1 PUSH1 0x2 DUP2 LT PUSH2 0x10E4 JUMPI PUSH2 0x10E3 PUSH2 0x3D7F JUMP JUMPDEST JUMPDEST PUSH1 0x2 MUL ADD PUSH1 0x1 PUSH1 0x2 DUP2 LT PUSH2 0x10FB JUMPI PUSH2 0x10FA PUSH2 0x3D7F JUMP JUMPDEST JUMPDEST ADD SLOAD SUB PUSH2 0x110B JUMPI PUSH2 0x110A PUSH2 0x2F66 JUMP JUMPDEST JUMPDEST PUSH1 0x0 DUP1 PUSH1 0x0 PUSH2 0x100 EXP DUP2 SLOAD DUP2 PUSH1 0xFF MUL NOT AND SWAP1 DUP4 ISZERO ISZERO MUL OR SWAP1 SSTORE POP JUMP JUMPDEST DUP1 PUSH1 0x0 PUSH1 0x3 SLOAD GT PUSH2 0x116D JUMPI PUSH1 0x40 MLOAD PUSH32 0x8C379A000000000000000000000000000000000000000000000000000000000 DUP2 MSTORE PUSH1 0x4 ADD PUSH2 0x1164 SWAP1 PUSH2 0x3E68 JUMP JUMPDEST PUSH1 0x40 MLOAD DUP1 SWAP2 SUB SWAP1 REVERT JUMPDEST PUSH1 0x61 PUSH1 0x0 SWAP1 SLOAD SWAP1 PUSH2 0x100 EXP SWAP1 DIV PUSH20 0xFFFFFFFFFFFFFFFFFFFFFFFFFFFFFFFFFFFFFFFF AND PUSH20 0xFFFFFFFFFFFFFFFFFFFFFFFFFFFFFFFFFFFFFFFF AND CALLER PUSH20 0xFFFFFFFFFFFFFFFFFFFFFFFFFFFFFFFFFFFFFFFF AND EQ PUSH2 0x11FD JUMPI PUSH1 0x40 MLOAD PUSH32 0x8C379A000000000000000000000000000000000000000000000000000000000 DUP2 MSTORE PUSH1 0x4 ADD PUSH2 0x11F4 SWAP1 PUSH2 0x3EFA JUMP JUMPDEST PUSH1 0x40 MLOAD DUP1 SWAP2 SUB SWAP1 REVERT JUMPDEST PUSH1 0x3 SLOAD DUP2 GT ISZERO PUSH2 0x1242 JUMPI PUSH1 0x40 MLOAD PUSH32 0x8C379A000000000000000000000000000000000000000000000000000000000 DUP2 MSTORE PUSH1 0x4 ADD PUSH2 0x1239 SWAP1 PUSH2 0x3F8C JUMP JUMPDEST PUSH1 0x40 MLOAD DUP1 SWAP2 SUB SWAP1 REVERT JUMPDEST PUSH1 0x0 DUP1 SLOAD SWAP1 PUSH2 0x100 EXP SWAP1 DIV PUSH1 0xFF AND ISZERO PUSH2 0x1290 JUMPI PUSH1 0x40 MLOAD PUSH32 0x8C379A000000000000000000000000000000000000000000000000000000000 DUP2 MSTORE PUSH1 0x4 ADD PUSH2 0x1287 SWAP1 PUSH2 0x3A80 JUMP JUMPDEST PUSH1 0x40 MLOAD DUP1 SWAP2 SUB SWAP1 REVERT JUMPDEST PUSH1 0x1 PUSH1 0x0 DUP1 PUSH2 0x100 EXP DUP2 SLOAD DUP2 PUSH1 0xFF MUL NOT AND SWAP1 DUP4 ISZERO ISZERO MUL OR SWAP1 SSTORE POP DUP2 PUSH1 0x3 SLOAD PUSH2 0x12B8 SWAP2 SWAP1 PUSH2 0x3ACF JUMP JUMPDEST PUSH1 0x3 DUP2 SWAP1 SSTORE POP PUSH1 0x61 PUSH1 0x0 SWAP1 SLOAD SWAP1 PUSH2 0x100 EXP SWAP1 DIV PUSH20 0xFFFFFFFFFFFFFFFFFFFFFFFFFFFFFFFFFFFFFFFF AND PUSH20 0xFFFFFFFFFFFFFFFFFFFFFFFFFFFFFFFFFFFFFFFF AND PUSH2 0x8FC DUP4 SWAP1 DUP2 ISZERO MUL SWAP1 PUSH1 0x40 MLOAD PUSH1 0x0 PUSH1 0x40 MLOAD DUP1 DUP4 SUB DUP2 DUP6 DUP9 DUP9 CALL SWAP4 POP POP POP POP ISZERO DUP1 ISZERO PUSH2 0x1326 JUMPI RETURNDATASIZE PUSH1 0x0 DUP1 RETURNDATACOPY RETURNDATASIZE PUSH1 0x0 REVERT JUMPDEST POP PUSH1 0x0 DUP1 PUSH1 0x0 PUSH2 0x100 EXP DUP2 SLOAD DUP2 PUSH1 0xFF MUL NOT AND SWAP1 DUP4 ISZERO ISZERO MUL OR SWAP1 SSTORE POP POP POP JUMP JUMPDEST PUSH1 0x3 SLOAD DUP2 JUMP JUMPDEST PUSH1 0x2 SLOAD DUP2 JUMP JUMPDEST PUSH1 0x58 SLOAD DUP2 JUMP JUMPDEST PUSH1 0x28 DUP3 PUSH1 0x10 DUP2 LT PUSH2 0x1367 JUMPI PUSH1 0x0 DUP1 REVERT JUMPDEST PUSH1 0x2 MUL ADD DUP2 PUSH1 0x2 DUP2 LT PUSH2 0x1379 JUMPI PUSH1 0x0 DUP1 REVERT JUMPDEST ADD PUSH1 0x0 SWAP2 POP SWAP2 POP POP SLOAD DUP2 JUMP JUMPDEST PUSH1 0x59 SLOAD DUP2 JUMP JUMPDEST PUSH1 0x5F SLOAD DUP2 JUMP JUMPDEST PUSH1 0x8 DUP3 PUSH1 0x10 DUP2 LT PUSH2 0x13A1 JUMPI PUSH1 0x0 DUP1 REVERT JUMPDEST PUSH1 0x2 MUL ADD DUP2 PUSH1 0x2 DUP2 LT PUSH2 0x13B3 JUMPI PUSH1 0x0 DUP1 REVERT JUMPDEST ADD PUSH1 0x0 SWAP2 POP SWAP2 POP POP SLOAD DUP2 JUMP JUMPDEST PUSH1 0x5B SLOAD DUP2 JUMP JUMPDEST PUSH1 0x0 PUSH1 0x5E SLOAD EQ PUSH2 0x140A JUMPI PUSH1 0x40 MLOAD PUSH32 0x8C379A000000000000000000000000000000000000000000000000000000000 DUP2 MSTORE PUSH1 0x4 ADD PUSH2 0x1401 SWAP1 PUSH2 0x3FF8 JUMP JUMPDEST PUSH1 0x40 MLOAD DUP1 SWAP2 SUB SWAP1 REVERT JUMPDEST PUSH1 0x0 PUSH1 0x5A SLOAD EQ PUSH2 0x144F JUMPI PUSH1 0x40 MLOAD PUSH32 0x8C379A000000000000000000000000000000000000000000000000000000000 DUP2 MSTORE PUSH1 0x4 ADD PUSH2 0x1446 SWAP1 PUSH2 0x4064 JUMP JUMPDEST PUSH1 0x40 MLOAD DUP1 SWAP2 SUB SWAP1 REVERT JUMPDEST PUSH1 0x1 DUP1 SLOAD EQ PUSH2 0x1493 JUMPI PUSH1 0x40 MLOAD PUSH32 0x8C379A000000000000000000000000000000000000000000000000000000000 DUP2 MSTORE PUSH1 0x4 ADD PUSH2 0x148A SWAP1 PUSH2 0x40D0 JUMP JUMPDEST PUSH1 0x40 MLOAD DUP1 SWAP2 SUB SWAP1 REVERT JUMPDEST PUSH1 0x1 PUSH1 0x5E DUP2 SWAP1 SSTORE POP PUSH2 0x14A3 PUSH2 0x2ACE JUMP JUMPDEST JUMP JUMPDEST PUSH1 0x5C SLOAD DUP2 JUMP JUMPDEST PUSH8 0xDE0B6B3A7640000 DUP2 JUMP JUMPDEST PUSH1 0x4 SLOAD DUP2 JUMP JUMPDEST PUSH1 0x1 DUP1 SLOAD EQ PUSH2 0x1501 JUMPI PUSH1 0x40 MLOAD PUSH32 0x8C379A000000000000000000000000000000000000000000000000000000000 DUP2 MSTORE PUSH1 0x4 ADD PUSH2 0x14F8 SWAP1 PUSH2 0x40D0 JUMP JUMPDEST PUSH1 0x40 MLOAD DUP1 SWAP2 SUB SWAP1 REVERT JUMPDEST PUSH1 0x0 PUSH1 0x5A SLOAD EQ PUSH2 0x1546 JUMPI PUSH1 0x40 MLOAD PUSH32 0x8C379A000000000000000000000000000000000000000000000000000000000 DUP2 MSTORE PUSH1 0x4 ADD PUSH2 0x153D SWAP1 PUSH2 0x4064 JUMP JUMPDEST PUSH1 0x40 MLOAD DUP1 SWAP2 SUB SWAP1 REVERT JUMPDEST PUSH1 0x0 PUSH1 0x5E SLOAD EQ PUSH2 0x158B JUMPI PUSH1 0x40 MLOAD PUSH32 0x8C379A000000000000000000000000000000000000000000000000000000000 DUP2 MSTORE PUSH1 0x4 ADD PUSH2 0x1582 SWAP1 PUSH2 0x3FF8 JUMP JUMPDEST PUSH1 0x40 MLOAD DUP1 SWAP2 SUB SWAP1 REVERT JUMPDEST PUSH1 0x0 PUSH2 0x160B PUSH1 0x8 PUSH1 0x10 DUP1 PUSH1 0x20 MUL PUSH1 0x40 MLOAD SWAP1 DUP2 ADD PUSH1 0x40 MSTORE DUP1 SWAP3 SWAP2 SWAP1 PUSH1 0x0 SWAP1 JUMPDEST DUP3 DUP3 LT ISZERO PUSH2 0x1602 JUMPI DUP4 DUP3 PUSH1 0x2 MUL ADD PUSH1 0x2 DUP1 PUSH1 0x20 MUL PUSH1 0x40 MLOAD SWAP1 DUP2 ADD PUSH1 0x40 MSTORE DUP1 SWAP3 SWAP2 SWAP1 DUP3 PUSH1 0x2 DUP1 ISZERO PUSH2 0x15EE JUMPI PUSH1 0x20 MUL DUP3 ADD SWAP2 JUMPDEST DUP2 SLOAD DUP2 MSTORE PUSH1 0x20 ADD SWAP1 PUSH1 0x1 ADD SWAP1 DUP1 DUP4 GT PUSH2 0x15DA JUMPI JUMPDEST POP POP POP POP POP DUP2 MSTORE PUSH1 0x20 ADD SWAP1 PUSH1 0x1 ADD SWAP1 PUSH2 0x15A9 JUMP JUMPDEST POP POP POP POP PUSH2 0x3220 JUMP JUMPDEST SWAP1 POP PUSH2 0x1617 PUSH1 0x1 PUSH2 0x185A JUMP JUMPDEST PUSH1 0x0 PUSH1 0x1 SWAP1 POP JUMPDEST PUSH1 0xB DUP2 GT PUSH2 0x17D5 JUMPI JUMPDEST PUSH1 0x50 PUSH1 0x1 PUSH1 0x4 DUP2 LT PUSH2 0x163C JUMPI PUSH2 0x163B PUSH2 0x3D7F JUMP JUMPDEST JUMPDEST PUSH1 0x2 MUL ADD PUSH1 0x0 PUSH1 0x2 DUP2 LT PUSH2 0x1653 JUMPI PUSH2 0x1652 PUSH2 0x3D7F JUMP JUMPDEST JUMPDEST ADD SLOAD PUSH1 0x8 DUP3 PUSH1 0x10 DUP2 LT PUSH2 0x1669 JUMPI PUSH2 0x1668 PUSH2 0x3D7F JUMP JUMPDEST JUMPDEST PUSH1 0x2 MUL ADD PUSH1 0x0 PUSH1 0x2 DUP2 LT PUSH2 0x1680 JUMPI PUSH2 0x167F PUSH2 0x3D7F JUMP JUMPDEST JUMPDEST ADD SLOAD EQ DUP1 ISZERO PUSH2 0x16E7 JUMPI POP PUSH1 0x50 PUSH1 0x1 PUSH1 0x4 DUP2 LT PUSH2 0x169F JUMPI PUSH2 0x169E PUSH2 0x3D7F JUMP JUMPDEST JUMPDEST PUSH1 0x2 MUL ADD PUSH1 0x1 PUSH1 0x2 DUP2 LT PUSH2 0x16B6 JUMPI PUSH2 0x16B5 PUSH2 0x3D7F JUMP JUMPDEST JUMPDEST ADD SLOAD PUSH1 0x8 DUP3 PUSH1 0x10 DUP2 LT PUSH2 0x16CC JUMPI PUSH2 0x16CB PUSH2 0x3D7F JUMP JUMPDEST JUMPDEST PUSH1 0x2 MUL ADD PUSH1 0x0 PUSH1 0x2 DUP2 LT PUSH2 0x16E3 JUMPI PUSH2 0x16E2 PUSH2 0x3D7F JUMP JUMPDEST JUMPDEST ADD SLOAD EQ JUMPDEST DUP1 PUSH2 0x17AE JUMPI POP PUSH1 0x50 PUSH1 0x1 PUSH1 0x4 DUP2 LT PUSH2 0x1702 JUMPI PUSH2 0x1701 PUSH2 0x3D7F JUMP JUMPDEST JUMPDEST PUSH1 0x2 MUL ADD PUSH1 0x0 PUSH1 0x2 DUP2 LT PUSH2 0x1719 JUMPI PUSH2 0x1718 PUSH2 0x3D7F JUMP JUMPDEST JUMPDEST ADD SLOAD PUSH1 0x28 DUP3 PUSH1 0x10 DUP2 LT PUSH2 0x172F JUMPI PUSH2 0x172E PUSH2 0x3D7F JUMP JUMPDEST JUMPDEST PUSH1 0x2 MUL ADD PUSH1 0x0 PUSH1 0x2 DUP2 LT PUSH2 0x1746 JUMPI PUSH2 0x1745 PUSH2 0x3D7F JUMP JUMPDEST JUMPDEST ADD SLOAD EQ DUP1 ISZERO PUSH2 0x17AD JUMPI POP PUSH1 0x50 PUSH1 0x1 PUSH1 0x4 DUP2 LT PUSH2 0x1765 JUMPI PUSH2 0x1764 PUSH2 0x3D7F JUMP JUMPDEST JUMPDEST PUSH1 0x2 MUL ADD PUSH1 0x1 PUSH1 0x2 DUP2 LT PUSH2 0x177C JUMPI PUSH2 0x177B PUSH2 0x3D7F JUMP JUMPDEST JUMPDEST ADD SLOAD PUSH1 0x28 DUP3 PUSH1 0x10 DUP2 LT PUSH2 0x1792 JUMPI PUSH2 0x1791 PUSH2 0x3D7F JUMP JUMPDEST JUMPDEST PUSH1 0x2 MUL ADD PUSH1 0x1 PUSH1 0x2 DUP2 LT PUSH2 0x17A9 JUMPI PUSH2 0x17A8 PUSH2 0x3D7F JUMP JUMPDEST JUMPDEST ADD SLOAD EQ JUMPDEST JUMPDEST ISZERO PUSH2 0x17C2 JUMPI PUSH2 0x17BD PUSH1 0x1 PUSH2 0x185A JUMP JUMPDEST PUSH2 0x1627 JUMP JUMPDEST DUP1 DUP1 PUSH2 0x17CD SWAP1 PUSH2 0x3DAE JUMP JUMPDEST SWAP2 POP POP PUSH2 0x161E JUMP JUMPDEST POP PUSH2 0x1847 PUSH1 0x50 PUSH1 0x1 PUSH1 0x4 DUP2 LT PUSH2 0x17EE JUMPI PUSH2 0x17ED PUSH2 0x3D7F JUMP JUMPDEST JUMPDEST PUSH1 0x2 MUL ADD PUSH1 0x0 PUSH1 0x2 DUP2 LT PUSH2 0x1805 JUMPI PUSH2 0x1804 PUSH2 0x3D7F JUMP JUMPDEST JUMPDEST ADD SLOAD PUSH1 0x50 PUSH1 0x1 PUSH1 0x4 DUP2 LT PUSH2 0x181C JUMPI PUSH2 0x181B PUSH2 0x3D7F JUMP JUMPDEST JUMPDEST PUSH1 0x2 MUL ADD PUSH1 0x1 PUSH1 0x2 DUP2 LT PUSH2 0x1833 JUMPI PUSH2 0x1832 PUSH2 0x3D7F JUMP JUMPDEST JUMPDEST ADD SLOAD PUSH1 0x1 DUP5 PUSH2 0x1842 SWAP2 SWAP1 PUSH2 0x3CB9 JUMP JUMPDEST PUSH2 0x1E7A JUMP JUMPDEST PUSH2 0x184F PUSH2 0x2050 JUMP JUMPDEST PUSH2 0x1857 PUSH2 0x2ACE JUMP JUMPDEST POP JUMP JUMPDEST PUSH1 0x0 PUSH1 0x40 MLOAD DUP1 PUSH1 0x20 ADD PUSH1 0x40 MSTORE DUP1 PUSH1 0x0 DUP2 MSTORE POP SWAP1 POP PUSH1 0x0 PUSH1 0x40 MLOAD DUP1 PUSH1 0x20 ADD PUSH1 0x40 MSTORE DUP1 PUSH1 0x0 DUP2 MSTORE POP SWAP1 POP PUSH1 0x0 DUP1 PUSH1 0x1 SWAP1 POP PUSH1 0x0 JUMPDEST DUP6 DUP3 GT PUSH2 0x1B10 JUMPI PUSH1 0x0 PUSH1 0x3 SWAP1 POP PUSH1 0x0 PUSH1 0x4 SWAP1 POP PUSH1 0x0 PUSH1 0x7 DUP2 SWAP1 SSTORE POP PUSH1 0x0 PUSH1 0x6 DUP2 SWAP1 SSTORE POP PUSH2 0x18B7 PUSH2 0x3298 JUMP JUMPDEST PUSH1 0x5 DUP2 SWAP1 SSTORE POP PUSH2 0x18C8 PUSH1 0x5 SLOAD PUSH2 0x334C JUMP JUMPDEST SWAP7 POP PUSH2 0x18D5 DUP3 DUP3 DUP10 PUSH2 0x341A JUMP JUMPDEST SWAP6 POP PUSH2 0x18E0 DUP7 PUSH2 0x352F JUMP JUMPDEST SWAP3 POP DUP7 MLOAD SWAP5 POP JUMPDEST PUSH1 0x1 DUP4 LT DUP1 PUSH2 0x18F6 JUMPI POP PUSH1 0xD DUP4 GT JUMPDEST DUP1 ISZERO PUSH2 0x190D JUMPI POP PUSH1 0x3 DUP6 PUSH2 0x190A SWAP2 SWAP1 PUSH2 0x3ACF JUMP JUMPDEST DUP3 LT JUMPDEST ISZERO PUSH2 0x19A1 JUMPI PUSH1 0x2 DUP3 PUSH2 0x191F SWAP2 SWAP1 PUSH2 0x3CB9 JUMP JUMPDEST SWAP2 POP PUSH1 0x2 DUP2 PUSH2 0x192E SWAP2 SWAP1 PUSH2 0x3CB9 JUMP JUMPDEST SWAP1 POP PUSH2 0x193B DUP3 DUP3 DUP10 PUSH2 0x341A JUMP JUMPDEST SWAP6 POP PUSH2 0x1946 DUP7 PUSH2 0x352F JUMP JUMPDEST SWAP3 POP PUSH1 0x3 DUP6 PUSH2 0x1955 SWAP2 SWAP1 PUSH2 0x3ACF JUMP JUMPDEST DUP3 GT ISZERO PUSH2 0x199C JUMPI PUSH1 0x3 SWAP2 POP PUSH1 0x4 SWAP1 POP PUSH2 0x196C PUSH2 0x3298 JUMP JUMPDEST PUSH1 0x5 DUP2 SWAP1 SSTORE POP PUSH2 0x197D PUSH1 0x5 SLOAD PUSH2 0x334C JUMP JUMPDEST SWAP7 POP PUSH2 0x198A DUP3 DUP3 DUP10 PUSH2 0x341A JUMP JUMPDEST SWAP6 POP PUSH2 0x1995 DUP7 PUSH2 0x352F JUMP JUMPDEST SWAP3 POP DUP7 MLOAD SWAP5 POP JUMPDEST PUSH2 0x18E7 JUMP JUMPDEST DUP3 PUSH1 0x7 DUP2 SWAP1 SSTORE POP PUSH1 0x2 DUP3 PUSH2 0x19B5 SWAP2 SWAP1 PUSH2 0x3CB9 JUMP JUMPDEST SWAP2 POP PUSH1 0x2 DUP2 PUSH2 0x19C4 SWAP2 SWAP1 PUSH2 0x3CB9 JUMP JUMPDEST SWAP1 POP PUSH2 0x19D1 DUP3 DUP3 DUP10 PUSH2 0x341A JUMP JUMPDEST SWAP6 POP PUSH2 0x19DC DUP7 PUSH2 0x352F JUMP JUMPDEST SWAP3 POP JUMPDEST PUSH1 0x1 DUP4 LT DUP1 PUSH2 0x19EE JUMPI POP PUSH1 0x4 DUP4 GT JUMPDEST DUP1 ISZERO PUSH2 0x1A05 JUMPI POP PUSH1 0x3 DUP6 PUSH2 0x1A02 SWAP2 SWAP1 PUSH2 0x3ACF JUMP JUMPDEST DUP3 LT JUMPDEST ISZERO PUSH2 0x1A8D JUMPI PUSH1 0x1 DUP3 PUSH2 0x1A17 SWAP2 SWAP1 PUSH2 0x3CB9 JUMP JUMPDEST SWAP2 POP DUP2 SWAP1 POP PUSH2 0x1A27 DUP3 DUP3 DUP10 PUSH2 0x341A JUMP JUMPDEST SWAP6 POP PUSH2 0x1A32 DUP7 PUSH2 0x352F JUMP JUMPDEST SWAP3 POP PUSH1 0x3 DUP6 PUSH2 0x1A41 SWAP2 SWAP1 PUSH2 0x3ACF JUMP JUMPDEST DUP3 GT ISZERO PUSH2 0x1A88 JUMPI PUSH1 0x4 SWAP2 POP PUSH1 0x4 SWAP1 POP PUSH2 0x1A58 PUSH2 0x3298 JUMP JUMPDEST PUSH1 0x5 DUP2 SWAP1 SSTORE POP PUSH2 0x1A69 PUSH1 0x5 SLOAD PUSH2 0x334C JUMP JUMPDEST SWAP7 POP PUSH2 0x1A76 DUP3 DUP3 DUP10 PUSH2 0x341A JUMP JUMPDEST SWAP6 POP PUSH2 0x1A81 DUP7 PUSH2 0x352F JUMP JUMPDEST SWAP3 POP DUP7 MLOAD SWAP5 POP JUMPDEST PUSH2 0x19DF JUMP JUMPDEST DUP3 PUSH1 0x6 DUP2 SWAP1 SSTORE POP PUSH1 0x7 SLOAD PUSH1 0x50 DUP6 PUSH1 0x4 DUP2 LT PUSH2 0x1AAB JUMPI PUSH2 0x1AAA PUSH2 0x3D7F JUMP JUMPDEST JUMPDEST PUSH1 0x2 MUL ADD PUSH1 0x0 PUSH1 0x2 DUP2 LT PUSH2 0x1AC2 JUMPI PUSH2 0x1AC1 PUSH2 0x3D7F JUMP JUMPDEST JUMPDEST ADD DUP2 SWAP1 SSTORE POP PUSH1 0x6 SLOAD PUSH1 0x50 DUP6 PUSH1 0x4 DUP2 LT PUSH2 0x1ADE JUMPI PUSH2 0x1ADD PUSH2 0x3D7F JUMP JUMPDEST JUMPDEST PUSH1 0x2 MUL ADD PUSH1 0x1 PUSH1 0x2 DUP2 LT PUSH2 0x1AF5 JUMPI PUSH2 0x1AF4 PUSH2 0x3D7F JUMP JUMPDEST JUMPDEST ADD DUP2 SWAP1 SSTORE POP PUSH1 0x1 DUP5 PUSH2 0x1B07 SWAP2 SWAP1 PUSH2 0x3CB9 JUMP JUMPDEST SWAP4 POP POP POP PUSH2 0x188C JUMP JUMPDEST POP POP POP POP POP POP JUMP JUMPDEST PUSH2 0x1B20 PUSH2 0x3775 JUMP JUMPDEST JUMPDEST DUP2 PUSH1 0x2 PUSH1 0x4 DUP2 LT PUSH2 0x1B35 JUMPI PUSH2 0x1B34 PUSH2 0x3D7F JUMP JUMPDEST JUMPDEST PUSH1 0x20 MUL ADD MLOAD PUSH1 0x0 PUSH1 0x2 DUP2 LT PUSH2 0x1B4D JUMPI PUSH2 0x1B4C PUSH2 0x3D7F JUMP JUMPDEST JUMPDEST PUSH1 0x20 MUL ADD MLOAD DUP3 PUSH1 0x1 PUSH1 0x4 DUP2 LT PUSH2 0x1B66 JUMPI PUSH2 0x1B65 PUSH2 0x3D7F JUMP JUMPDEST JUMPDEST PUSH1 0x20 MUL ADD MLOAD PUSH1 0x0 PUSH1 0x2 DUP2 LT PUSH2 0x1B7E JUMPI PUSH2 0x1B7D PUSH2 0x3D7F JUMP JUMPDEST JUMPDEST PUSH1 0x20 MUL ADD MLOAD EQ DUP1 ISZERO PUSH2 0x1BEF JUMPI POP DUP2 PUSH1 0x2 PUSH1 0x4 DUP2 LT PUSH2 0x1B9F JUMPI PUSH2 0x1B9E PUSH2 0x3D7F JUMP JUMPDEST JUMPDEST PUSH1 0x20 MUL ADD MLOAD PUSH1 0x1 PUSH1 0x2 DUP2 LT PUSH2 0x1BB7 JUMPI PUSH2 0x1BB6 PUSH2 0x3D7F JUMP JUMPDEST JUMPDEST PUSH1 0x20 MUL ADD MLOAD DUP3 PUSH1 0x1 PUSH1 0x4 DUP2 LT PUSH2 0x1BD0 JUMPI PUSH2 0x1BCF PUSH2 0x3D7F JUMP JUMPDEST JUMPDEST PUSH1 0x20 MUL ADD MLOAD PUSH1 0x1 PUSH1 0x2 DUP2 LT PUSH2 0x1BE8 JUMPI PUSH2 0x1BE7 PUSH2 0x3D7F JUMP JUMPDEST JUMPDEST PUSH1 0x20 MUL ADD MLOAD EQ JUMPDEST ISZERO PUSH2 0x1CC9 JUMPI PUSH2 0x1BFE PUSH1 0x1 PUSH2 0x185A JUMP JUMPDEST PUSH1 0x50 PUSH1 0x2 PUSH1 0x4 DUP2 LT PUSH2 0x1C13 JUMPI PUSH2 0x1C12 PUSH2 0x3D7F JUMP JUMPDEST JUMPDEST PUSH1 0x2 MUL ADD PUSH1 0x0 PUSH1 0x2 DUP2 LT PUSH2 0x1C2A JUMPI PUSH2 0x1C29 PUSH2 0x3D7F JUMP JUMPDEST JUMPDEST ADD SLOAD DUP3 PUSH1 0x1 PUSH1 0x4 DUP2 LT PUSH2 0x1C40 JUMPI PUSH2 0x1C3F PUSH2 0x3D7F JUMP JUMPDEST JUMPDEST PUSH1 0x20 MUL ADD MLOAD PUSH1 0x0 PUSH1 0x2 DUP2 LT PUSH2 0x1C58 JUMPI PUSH2 0x1C57 PUSH2 0x3D7F JUMP JUMPDEST JUMPDEST PUSH1 0x20 MUL ADD DUP2 DUP2 MSTORE POP POP PUSH1 0x50 PUSH1 0x1 PUSH1 0x4 DUP2 LT PUSH2 0x1C76 JUMPI PUSH2 0x1C75 PUSH2 0x3D7F JUMP JUMPDEST JUMPDEST PUSH1 0x2 MUL ADD PUSH1 0x1 PUSH1 0x2 DUP2 LT PUSH2 0x1C8D JUMPI PUSH2 0x1C8C PUSH2 0x3D7F JUMP JUMPDEST JUMPDEST ADD SLOAD DUP3 PUSH1 0x2 PUSH1 0x4 DUP2 LT PUSH2 0x1CA3 JUMPI PUSH2 0x1CA2 PUSH2 0x3D7F JUMP JUMPDEST JUMPDEST PUSH1 0x20 MUL ADD MLOAD PUSH1 0x1 PUSH1 0x2 DUP2 LT PUSH2 0x1CBB JUMPI PUSH2 0x1CBA PUSH2 0x3D7F JUMP JUMPDEST JUMPDEST PUSH1 0x20 MUL ADD DUP2 DUP2 MSTORE POP POP PUSH2 0x1B21 JUMP JUMPDEST JUMPDEST DUP2 PUSH1 0x3 PUSH1 0x4 DUP2 LT PUSH2 0x1CDE JUMPI PUSH2 0x1CDD PUSH2 0x3D7F JUMP JUMPDEST JUMPDEST PUSH1 0x20 MUL ADD MLOAD PUSH1 0x0 PUSH1 0x2 DUP2 LT PUSH2 0x1CF6 JUMPI PUSH2 0x1CF5 PUSH2 0x3D7F JUMP JUMPDEST JUMPDEST PUSH1 0x20 MUL ADD MLOAD DUP3 PUSH1 0x2 PUSH1 0x4 DUP2 LT PUSH2 0x1D0F JUMPI PUSH2 0x1D0E PUSH2 0x3D7F JUMP JUMPDEST JUMPDEST PUSH1 0x20 MUL ADD MLOAD PUSH1 0x0 PUSH1 0x2 DUP2 LT PUSH2 0x1D27 JUMPI PUSH2 0x1D26 PUSH2 0x3D7F JUMP JUMPDEST JUMPDEST PUSH1 0x20 MUL ADD MLOAD EQ DUP1 ISZERO PUSH2 0x1D98 JUMPI POP DUP2 PUSH1 0x3 PUSH1 0x4 DUP2 LT PUSH2 0x1D48 JUMPI PUSH2 0x1D47 PUSH2 0x3D7F JUMP JUMPDEST JUMPDEST PUSH1 0x20 MUL ADD MLOAD PUSH1 0x1 PUSH1 0x2 DUP2 LT PUSH2 0x1D60 JUMPI PUSH2 0x1D5F PUSH2 0x3D7F JUMP JUMPDEST JUMPDEST PUSH1 0x20 MUL ADD MLOAD DUP3 PUSH1 0x2 PUSH1 0x4 DUP2 LT PUSH2 0x1D79 JUMPI PUSH2 0x1D78 PUSH2 0x3D7F JUMP JUMPDEST JUMPDEST PUSH1 0x20 MUL ADD MLOAD PUSH1 0x1 PUSH1 0x2 DUP2 LT PUSH2 0x1D91 JUMPI PUSH2 0x1D90 PUSH2 0x3D7F JUMP JUMPDEST JUMPDEST PUSH1 0x20 MUL ADD MLOAD EQ JUMPDEST ISZERO PUSH2 0x1E72 JUMPI PUSH2 0x1DA7 PUSH1 0x1 PUSH2 0x185A JUMP JUMPDEST PUSH1 0x50 PUSH1 0x1 PUSH1 0x4 DUP2 LT PUSH2 0x1DBC JUMPI PUSH2 0x1DBB PUSH2 0x3D7F JUMP JUMPDEST JUMPDEST PUSH1 0x2 MUL ADD PUSH1 0x0 PUSH1 0x2 DUP2 LT PUSH2 0x1DD3 JUMPI PUSH2 0x1DD2 PUSH2 0x3D7F JUMP JUMPDEST JUMPDEST ADD SLOAD DUP3 PUSH1 0x3 PUSH1 0x4 DUP2 LT PUSH2 0x1DE9 JUMPI PUSH2 0x1DE8 PUSH2 0x3D7F JUMP JUMPDEST JUMPDEST PUSH1 0x20 MUL ADD MLOAD PUSH1 0x0 PUSH1 0x2 DUP2 LT PUSH2 0x1E01 JUMPI PUSH2 0x1E00 PUSH2 0x3D7F JUMP JUMPDEST JUMPDEST PUSH1 0x20 MUL ADD DUP2 DUP2 MSTORE POP POP PUSH1 0x50 PUSH1 0x1 PUSH1 0x4 DUP2 LT PUSH2 0x1E1F JUMPI PUSH2 0x1E1E PUSH2 0x3D7F JUMP JUMPDEST JUMPDEST PUSH1 0x2 MUL ADD PUSH1 0x1 PUSH1 0x2 DUP2 LT PUSH2 0x1E36 JUMPI PUSH2 0x1E35 PUSH2 0x3D7F JUMP JUMPDEST JUMPDEST ADD SLOAD DUP3 PUSH1 0x3 PUSH1 0x4 DUP2 LT PUSH2 0x1E4C JUMPI PUSH2 0x1E4B PUSH2 0x3D7F JUMP JUMPDEST JUMPDEST PUSH1 0x20 MUL ADD MLOAD PUSH1 0x1 PUSH1 0x2 DUP2 LT PUSH2 0x1E64 JUMPI PUSH2 0x1E63 PUSH2 0x3D7F JUMP JUMPDEST JUMPDEST PUSH1 0x20 MUL ADD DUP2 DUP2 MSTORE POP POP PUSH2 0x1CCA JUMP JUMPDEST DUP2 SWAP1 POP SWAP2 SWAP1 POP JUMP JUMPDEST DUP3 PUSH1 0x8 DUP3 PUSH1 0x10 DUP2 LT PUSH2 0x1E8F JUMPI PUSH2 0x1E8E PUSH2 0x3D7F JUMP JUMPDEST JUMPDEST PUSH1 0x2 MUL ADD PUSH1 0x0 PUSH1 0x2 DUP2 LT PUSH2 0x1EA6 JUMPI PUSH2 0x1EA5 PUSH2 0x3D7F JUMP JUMPDEST JUMPDEST ADD DUP2 SWAP1 SSTORE POP DUP2 PUSH1 0x8 DUP3 PUSH1 0x10 DUP2 LT PUSH2 0x1EC0 JUMPI PUSH2 0x1EBF PUSH2 0x3D7F JUMP JUMPDEST JUMPDEST PUSH1 0x2 MUL ADD PUSH1 0x1 PUSH1 0x2 DUP2 LT PUSH2 0x1ED7 JUMPI PUSH2 0x1ED6 PUSH2 0x3D7F JUMP JUMPDEST JUMPDEST ADD DUP2 SWAP1 SSTORE POP PUSH2 0x1F5A PUSH1 0x8 PUSH1 0x10 DUP1 PUSH1 0x20 MUL PUSH1 0x40 MLOAD SWAP1 DUP2 ADD PUSH1 0x40 MSTORE DUP1 SWAP3 SWAP2 SWAP1 PUSH1 0x0 SWAP1 JUMPDEST DUP3 DUP3 LT ISZERO PUSH2 0x1F51 JUMPI DUP4 DUP3 PUSH1 0x2 MUL ADD PUSH1 0x2 DUP1 PUSH1 0x20 MUL PUSH1 0x40 MLOAD SWAP1 DUP2 ADD PUSH1 0x40 MSTORE DUP1 SWAP3 SWAP2 SWAP1 DUP3 PUSH1 0x2 DUP1 ISZERO PUSH2 0x1F3D JUMPI PUSH1 0x20 MUL DUP3 ADD SWAP2 JUMPDEST DUP2 SLOAD DUP2 MSTORE PUSH1 0x20 ADD SWAP1 PUSH1 0x1 ADD SWAP1 DUP1 DUP4 GT PUSH2 0x1F29 JUMPI JUMPDEST POP POP POP POP POP DUP2 MSTORE PUSH1 0x20 ADD SWAP1 PUSH1 0x1 ADD SWAP1 PUSH2 0x1EF8 JUMP JUMPDEST POP POP POP POP PUSH2 0x3220 JUMP JUMPDEST PUSH1 0x58 DUP2 SWAP1 SSTORE POP POP POP POP JUMP JUMPDEST DUP3 PUSH1 0x28 DUP3 PUSH1 0x10 DUP2 LT PUSH2 0x1F7A JUMPI PUSH2 0x1F79 PUSH2 0x3D7F JUMP JUMPDEST JUMPDEST PUSH1 0x2 MUL ADD PUSH1 0x0 PUSH1 0x2 DUP2 LT PUSH2 0x1F91 JUMPI PUSH2 0x1F90 PUSH2 0x3D7F JUMP JUMPDEST JUMPDEST ADD DUP2 SWAP1 SSTORE POP DUP2 PUSH1 0x28 DUP3 PUSH1 0x10 DUP2 LT PUSH2 0x1FAB JUMPI PUSH2 0x1FAA PUSH2 0x3D7F JUMP JUMPDEST JUMPDEST PUSH1 0x2 MUL ADD PUSH1 0x1 PUSH1 0x2 DUP2 LT PUSH2 0x1FC2 JUMPI PUSH2 0x1FC1 PUSH2 0x3D7F JUMP JUMPDEST JUMPDEST ADD DUP2 SWAP1 SSTORE POP PUSH2 0x2045 PUSH1 0x28 PUSH1 0x10 DUP1 PUSH1 0x20 MUL PUSH1 0x40 MLOAD SWAP1 DUP2 ADD PUSH1 0x40 MSTORE DUP1 SWAP3 SWAP2 SWAP1 PUSH1 0x0 SWAP1 JUMPDEST DUP3 DUP3 LT ISZERO PUSH2 0x203C JUMPI DUP4 DUP3 PUSH1 0x2 MUL ADD PUSH1 0x2 DUP1 PUSH1 0x20 MUL PUSH1 0x40 MLOAD SWAP1 DUP2 ADD PUSH1 0x40 MSTORE DUP1 SWAP3 SWAP2 SWAP1 DUP3 PUSH1 0x2 DUP1 ISZERO PUSH2 0x2028 JUMPI PUSH1 0x20 MUL DUP3 ADD SWAP2 JUMPDEST DUP2 SLOAD DUP2 MSTORE PUSH1 0x20 ADD SWAP1 PUSH1 0x1 ADD SWAP1 DUP1 DUP4 GT PUSH2 0x2014 JUMPI JUMPDEST POP POP POP POP POP DUP2 MSTORE PUSH1 0x20 ADD SWAP1 PUSH1 0x1 ADD SWAP1 PUSH2 0x1FE3 JUMP JUMPDEST POP POP POP POP PUSH2 0x3220 JUMP JUMPDEST PUSH1 0x59 DUP2 SWAP1 SSTORE POP POP POP POP JUMP JUMPDEST PUSH1 0x0 DUP1 PUSH2 0x20D1 PUSH1 0x8 PUSH1 0x10 DUP1 PUSH1 0x20 MUL PUSH1 0x40 MLOAD SWAP1 DUP2 ADD PUSH1 0x40 MSTORE DUP1 SWAP3 SWAP2 SWAP1 PUSH1 0x0 SWAP1 JUMPDEST DUP3 DUP3 LT ISZERO PUSH2 0x20C8 JUMPI DUP4 DUP3 PUSH1 0x2 MUL ADD PUSH1 0x2 DUP1 PUSH1 0x20 MUL PUSH1 0x40 MLOAD SWAP1 DUP2 ADD PUSH1 0x40 MSTORE DUP1 SWAP3 SWAP2 SWAP1 DUP3 PUSH1 0x2 DUP1 ISZERO PUSH2 0x20B4 JUMPI PUSH1 0x20 MUL DUP3 ADD SWAP2 JUMPDEST DUP2 SLOAD DUP2 MSTORE PUSH1 0x20 ADD SWAP1 PUSH1 0x1 ADD SWAP1 DUP1 DUP4 GT PUSH2 0x20A0 JUMPI JUMPDEST POP POP POP POP POP DUP2 MSTORE PUSH1 0x20 ADD SWAP1 PUSH1 0x1 ADD SWAP1 PUSH2 0x206F JUMP JUMPDEST POP POP POP POP PUSH2 0x3220 JUMP JUMPDEST PUSH1 0x58 DUP2 SWAP1 SSTORE POP PUSH1 0x0 PUSH1 0x1 SWAP1 POP JUMPDEST PUSH1 0x58 SLOAD DUP2 GT PUSH2 0x21E8 JUMPI PUSH1 0x9 PUSH1 0x8 DUP3 PUSH1 0x10 DUP2 LT PUSH2 0x20FD JUMPI PUSH2 0x20FC PUSH2 0x3D7F JUMP JUMPDEST JUMPDEST PUSH1 0x2 MUL ADD PUSH1 0x0 PUSH1 0x2 DUP2 LT PUSH2 0x2114 JUMPI PUSH2 0x2113 PUSH2 0x3D7F JUMP JUMPDEST JUMPDEST ADD SLOAD GT ISZERO PUSH2 0x212C JUMPI PUSH1 0xA DUP4 PUSH2 0x2129 SWAP2 SWAP1 PUSH2 0x3CB9 JUMP JUMPDEST SWAP3 POP JUMPDEST PUSH1 0xA PUSH1 0x8 DUP3 PUSH1 0x10 DUP2 LT PUSH2 0x2142 JUMPI PUSH2 0x2141 PUSH2 0x3D7F JUMP JUMPDEST JUMPDEST PUSH1 0x2 MUL ADD PUSH1 0x0 PUSH1 0x2 DUP2 LT PUSH2 0x2159 JUMPI PUSH2 0x2158 PUSH2 0x3D7F JUMP JUMPDEST JUMPDEST ADD SLOAD LT ISZERO PUSH2 0x219C JUMPI PUSH1 0x8 DUP2 PUSH1 0x10 DUP2 LT PUSH2 0x2175 JUMPI PUSH2 0x2174 PUSH2 0x3D7F JUMP JUMPDEST JUMPDEST PUSH1 0x2 MUL ADD PUSH1 0x0 PUSH1 0x2 DUP2 LT PUSH2 0x218C JUMPI PUSH2 0x218B PUSH2 0x3D7F JUMP JUMPDEST JUMPDEST ADD SLOAD DUP4 PUSH2 0x2199 SWAP2 SWAP1 PUSH2 0x3CB9 JUMP JUMPDEST SWAP3 POP JUMPDEST PUSH1 0x1 PUSH1 0x8 DUP3 PUSH1 0x10 DUP2 LT PUSH2 0x21B2 JUMPI PUSH2 0x21B1 PUSH2 0x3D7F JUMP JUMPDEST JUMPDEST PUSH1 0x2 MUL ADD PUSH1 0x0 PUSH1 0x2 DUP2 LT PUSH2 0x21C9 JUMPI PUSH2 0x21C8 PUSH2 0x3D7F JUMP JUMPDEST JUMPDEST ADD SLOAD SUB PUSH2 0x21D5 JUMPI PUSH1 0x1 SWAP2 POP JUMPDEST DUP1 DUP1 PUSH2 0x21E0 SWAP1 PUSH2 0x3DAE JUMP JUMPDEST SWAP2 POP POP PUSH2 0x20DE JUMP JUMPDEST POP DUP2 PUSH1 0x48 PUSH1 0x1 PUSH1 0x2 DUP2 LT PUSH2 0x21FF JUMPI PUSH2 0x21FE PUSH2 0x3D7F JUMP JUMPDEST JUMPDEST PUSH1 0x2 MUL ADD PUSH1 0x0 PUSH1 0x2 DUP2 LT PUSH2 0x2216 JUMPI PUSH2 0x2215 PUSH2 0x3D7F JUMP JUMPDEST JUMPDEST ADD DUP2 SWAP1 SSTORE POP DUP2 PUSH1 0x48 PUSH1 0x1 PUSH1 0x2 DUP2 LT PUSH2 0x2231 JUMPI PUSH2 0x2230 PUSH2 0x3D7F JUMP JUMPDEST JUMPDEST PUSH1 0x2 MUL ADD PUSH1 0x1 PUSH1 0x2 DUP2 LT PUSH2 0x2248 JUMPI PUSH2 0x2247 PUSH2 0x3D7F JUMP JUMPDEST JUMPDEST ADD DUP2 SWAP1 SSTORE POP PUSH1 0x1 DUP2 SUB PUSH2 0x22C1 JUMPI PUSH1 0xA PUSH1 0x48 PUSH1 0x1 PUSH1 0x2 DUP2 LT PUSH2 0x226C JUMPI PUSH2 0x226B PUSH2 0x3D7F JUMP JUMPDEST JUMPDEST PUSH1 0x2 MUL ADD PUSH1 0x1 PUSH1 0x2 DUP2 LT PUSH2 0x2283 JUMPI PUSH2 0x2282 PUSH2 0x3D7F JUMP JUMPDEST JUMPDEST ADD SLOAD PUSH2 0x228F SWAP2 SWAP1 PUSH2 0x3CB9 JUMP JUMPDEST PUSH1 0x48 PUSH1 0x1 PUSH1 0x2 DUP2 LT PUSH2 0x22A4 JUMPI PUSH2 0x22A3 PUSH2 0x3D7F JUMP JUMPDEST JUMPDEST PUSH1 0x2 MUL ADD PUSH1 0x1 PUSH1 0x2 DUP2 LT PUSH2 0x22BB JUMPI PUSH2 0x22BA PUSH2 0x3D7F JUMP JUMPDEST JUMPDEST ADD DUP2 SWAP1 SSTORE POP JUMPDEST POP POP JUMP JUMPDEST PUSH1 0x0 DUP1 PUSH2 0x2346 PUSH1 0x28 PUSH1 0x10 DUP1 PUSH1 0x20 MUL PUSH1 0x40 MLOAD SWAP1 DUP2 ADD PUSH1 0x40 MSTORE DUP1 SWAP3 SWAP2 SWAP1 PUSH1 0x0 SWAP1 JUMPDEST DUP3 DUP3 LT ISZERO PUSH2 0x233D JUMPI DUP4 DUP3 PUSH1 0x2 MUL ADD PUSH1 0x2 DUP1 PUSH1 0x20 MUL PUSH1 0x40 MLOAD SWAP1 DUP2 ADD PUSH1 0x40 MSTORE DUP1 SWAP3 SWAP2 SWAP1 DUP3 PUSH1 0x2 DUP1 ISZERO PUSH2 0x2329 JUMPI PUSH1 0x20 MUL DUP3 ADD SWAP2 JUMPDEST DUP2 SLOAD DUP2 MSTORE PUSH1 0x20 ADD SWAP1 PUSH1 0x1 ADD SWAP1 DUP1 DUP4 GT PUSH2 0x2315 JUMPI JUMPDEST POP POP POP POP POP DUP2 MSTORE PUSH1 0x20 ADD SWAP1 PUSH1 0x1 ADD SWAP1 PUSH2 0x22E4 JUMP JUMPDEST POP POP POP POP PUSH2 0x3220 JUMP JUMPDEST PUSH1 0x59 DUP2 SWAP1 SSTORE POP PUSH1 0x0 PUSH1 0x1 SWAP1 POP JUMPDEST PUSH1 0x59 SLOAD DUP2 GT PUSH2 0x245D JUMPI PUSH1 0x9 PUSH1 0x28 DUP3 PUSH1 0x10 DUP2 LT PUSH2 0x2372 JUMPI PUSH2 0x2371 PUSH2 0x3D7F JUMP JUMPDEST JUMPDEST PUSH1 0x2 MUL ADD PUSH1 0x0 PUSH1 0x2 DUP2 LT PUSH2 0x2389 JUMPI PUSH2 0x2388 PUSH2 0x3D7F JUMP JUMPDEST JUMPDEST ADD SLOAD GT ISZERO PUSH2 0x23A1 JUMPI PUSH1 0xA DUP4 PUSH2 0x239E SWAP2 SWAP1 PUSH2 0x3CB9 JUMP JUMPDEST SWAP3 POP JUMPDEST PUSH1 0xA PUSH1 0x28 DUP3 PUSH1 0x10 DUP2 LT PUSH2 0x23B7 JUMPI PUSH2 0x23B6 PUSH2 0x3D7F JUMP JUMPDEST JUMPDEST PUSH1 0x2 MUL ADD PUSH1 0x0 PUSH1 0x2 DUP2 LT PUSH2 0x23CE JUMPI PUSH2 0x23CD PUSH2 0x3D7F JUMP JUMPDEST JUMPDEST ADD SLOAD LT ISZERO PUSH2 0x2411 JUMPI PUSH1 0x28 DUP2 PUSH1 0x10 DUP2 LT PUSH2 0x23EA JUMPI PUSH2 0x23E9 PUSH2 0x3D7F JUMP JUMPDEST JUMPDEST PUSH1 0x2 MUL ADD PUSH1 0x0 PUSH1 0x2 DUP2 LT PUSH2 0x2401 JUMPI PUSH2 0x2400 PUSH2 0x3D7F JUMP JUMPDEST JUMPDEST ADD SLOAD DUP4 PUSH2 0x240E SWAP2 SWAP1 PUSH2 0x3CB9 JUMP JUMPDEST SWAP3 POP JUMPDEST PUSH1 0x1 PUSH1 0x28 DUP3 PUSH1 0x10 DUP2 LT PUSH2 0x2427 JUMPI PUSH2 0x2426 PUSH2 0x3D7F JUMP JUMPDEST JUMPDEST PUSH1 0x2 MUL ADD PUSH1 0x0 PUSH1 0x2 DUP2 LT PUSH2 0x243E JUMPI PUSH2 0x243D PUSH2 0x3D7F JUMP JUMPDEST JUMPDEST ADD SLOAD SUB PUSH2 0x244A JUMPI PUSH1 0x1 SWAP2 POP JUMPDEST DUP1 DUP1 PUSH2 0x2455 SWAP1 PUSH2 0x3DAE JUMP JUMPDEST SWAP2 POP POP PUSH2 0x2353 JUMP JUMPDEST POP DUP2 PUSH1 0x4C PUSH1 0x1 PUSH1 0x2 DUP2 LT PUSH2 0x2474 JUMPI PUSH2 0x2473 PUSH2 0x3D7F JUMP JUMPDEST JUMPDEST PUSH1 0x2 MUL ADD PUSH1 0x0 PUSH1 0x2 DUP2 LT PUSH2 0x248B JUMPI PUSH2 0x248A PUSH2 0x3D7F JUMP JUMPDEST JUMPDEST ADD DUP2 SWAP1 SSTORE POP DUP2 PUSH1 0x4C PUSH1 0x1 PUSH1 0x2 DUP2 LT PUSH2 0x24A6 JUMPI PUSH2 0x24A5 PUSH2 0x3D7F JUMP JUMPDEST JUMPDEST PUSH1 0x2 MUL ADD PUSH1 0x1 PUSH1 0x2 DUP2 LT PUSH2 0x24BD JUMPI PUSH2 0x24BC PUSH2 0x3D7F JUMP JUMPDEST JUMPDEST ADD DUP2 SWAP1 SSTORE POP PUSH1 0x1 DUP2 SUB PUSH2 0x2536 JUMPI PUSH1 0xA PUSH1 0x4C PUSH1 0x1 PUSH1 0x2 DUP2 LT PUSH2 0x24E1 JUMPI PUSH2 0x24E0 PUSH2 0x3D7F JUMP JUMPDEST JUMPDEST PUSH1 0x2 MUL ADD PUSH1 0x1 PUSH1 0x2 DUP2 LT PUSH2 0x24F8 JUMPI PUSH2 0x24F7 PUSH2 0x3D7F JUMP JUMPDEST JUMPDEST ADD SLOAD PUSH2 0x2504 SWAP2 SWAP1 PUSH2 0x3CB9 JUMP JUMPDEST PUSH1 0x4C PUSH1 0x1 PUSH1 0x2 DUP2 LT PUSH2 0x2519 JUMPI PUSH2 0x2518 PUSH2 0x3D7F JUMP JUMPDEST JUMPDEST PUSH1 0x2 MUL ADD PUSH1 0x1 PUSH1 0x2 DUP2 LT PUSH2 0x2530 JUMPI PUSH2 0x252F PUSH2 0x3D7F JUMP JUMPDEST JUMPDEST ADD DUP2 SWAP1 SSTORE POP JUMPDEST POP POP JUMP JUMPDEST PUSH1 0x15 PUSH1 0x4C PUSH1 0x1 PUSH1 0x2 DUP2 LT PUSH2 0x2551 JUMPI PUSH2 0x2550 PUSH2 0x3D7F JUMP JUMPDEST JUMPDEST PUSH1 0x2 MUL ADD PUSH1 0x0 PUSH1 0x2 DUP2 LT PUSH2 0x2568 JUMPI PUSH2 0x2567 PUSH2 0x3D7F JUMP JUMPDEST JUMPDEST ADD SLOAD GT DUP1 ISZERO PUSH2 0x25A4 JUMPI POP PUSH1 0x15 PUSH1 0x4C PUSH1 0x1 PUSH1 0x2 DUP2 LT PUSH2 0x2589 JUMPI PUSH2 0x2588 PUSH2 0x3D7F JUMP JUMPDEST JUMPDEST PUSH1 0x2 MUL ADD PUSH1 0x1 PUSH1 0x2 DUP2 LT PUSH2 0x25A0 JUMPI PUSH2 0x259F PUSH2 0x3D7F JUMP JUMPDEST JUMPDEST ADD SLOAD GT JUMPDEST ISZERO PUSH2 0x26E7 JUMPI PUSH1 0x1 PUSH1 0x5B DUP2 SWAP1 SSTORE POP PUSH1 0x0 PUSH1 0x1 DUP2 SWAP1 SSTORE POP PUSH1 0x4C PUSH1 0x1 PUSH1 0x2 DUP2 LT PUSH2 0x25CE JUMPI PUSH2 0x25CD PUSH2 0x3D7F JUMP JUMPDEST JUMPDEST PUSH1 0x2 MUL ADD PUSH1 0x1 PUSH1 0x2 DUP2 LT PUSH2 0x25E5 JUMPI PUSH2 0x25E4 PUSH2 0x3D7F JUMP JUMPDEST JUMPDEST ADD SLOAD PUSH1 0x4C PUSH1 0x1 PUSH1 0x2 DUP2 LT PUSH2 0x25FC JUMPI PUSH2 0x25FB PUSH2 0x3D7F JUMP JUMPDEST JUMPDEST PUSH1 0x2 MUL ADD PUSH1 0x0 PUSH1 0x2 DUP2 LT PUSH2 0x2613 JUMPI PUSH2 0x2612 PUSH2 0x3D7F JUMP JUMPDEST JUMPDEST ADD SLOAD GT PUSH2 0x264F JUMPI PUSH1 0x4C PUSH1 0x1 PUSH1 0x2 DUP2 LT PUSH2 0x262F JUMPI PUSH2 0x262E PUSH2 0x3D7F JUMP JUMPDEST JUMPDEST PUSH1 0x2 MUL ADD PUSH1 0x0 PUSH1 0x2 DUP2 LT PUSH2 0x2646 JUMPI PUSH2 0x2645 PUSH2 0x3D7F JUMP JUMPDEST JUMPDEST ADD SLOAD PUSH1 0x5D DUP2 SWAP1 SSTORE POP JUMPDEST PUSH1 0x4C PUSH1 0x1 PUSH1 0x2 DUP2 LT PUSH2 0x2664 JUMPI PUSH2 0x2663 PUSH2 0x3D7F JUMP JUMPDEST JUMPDEST PUSH1 0x2 MUL ADD PUSH1 0x1 PUSH1 0x2 DUP2 LT PUSH2 0x267B JUMPI PUSH2 0x267A PUSH2 0x3D7F JUMP JUMPDEST JUMPDEST ADD SLOAD PUSH1 0x4C PUSH1 0x1 PUSH1 0x2 DUP2 LT PUSH2 0x2692 JUMPI PUSH2 0x2691 PUSH2 0x3D7F JUMP JUMPDEST JUMPDEST PUSH1 0x2 MUL ADD PUSH1 0x0 PUSH1 0x2 DUP2 LT PUSH2 0x26A9 JUMPI PUSH2 0x26A8 PUSH2 0x3D7F JUMP JUMPDEST JUMPDEST ADD SLOAD GT ISZERO PUSH2 0x26E6 JUMPI PUSH1 0x4C PUSH1 0x1 PUSH1 0x2 DUP2 LT PUSH2 0x26C6 JUMPI PUSH2 0x26C5 PUSH2 0x3D7F JUMP JUMPDEST JUMPDEST PUSH1 0x2 MUL ADD PUSH1 0x1 PUSH1 0x2 DUP2 LT PUSH2 0x26DD JUMPI PUSH2 0x26DC PUSH2 0x3D7F JUMP JUMPDEST JUMPDEST ADD SLOAD PUSH1 0x5D DUP2 SWAP1 SSTORE POP JUMPDEST JUMPDEST PUSH1 0x15 PUSH1 0x4C PUSH1 0x1 PUSH1 0x2 DUP2 LT PUSH2 0x26FE JUMPI PUSH2 0x26FD PUSH2 0x3D7F JUMP JUMPDEST JUMPDEST PUSH1 0x2 MUL ADD PUSH1 0x0 PUSH1 0x2 DUP2 LT PUSH2 0x2715 JUMPI PUSH2 0x2714 PUSH2 0x3D7F JUMP JUMPDEST JUMPDEST ADD SLOAD GT ISZERO DUP1 ISZERO PUSH2 0x2752 JUMPI POP PUSH1 0x15 PUSH1 0x4C PUSH1 0x1 PUSH1 0x2 DUP2 LT PUSH2 0x2737 JUMPI PUSH2 0x2736 PUSH2 0x3D7F JUMP JUMPDEST JUMPDEST PUSH1 0x2 MUL ADD PUSH1 0x1 PUSH1 0x2 DUP2 LT PUSH2 0x274E JUMPI PUSH2 0x274D PUSH2 0x3D7F JUMP JUMPDEST JUMPDEST ADD SLOAD GT JUMPDEST ISZERO PUSH2 0x278C JUMPI PUSH1 0x4C PUSH1 0x1 PUSH1 0x2 DUP2 LT PUSH2 0x276C JUMPI PUSH2 0x276B PUSH2 0x3D7F JUMP JUMPDEST JUMPDEST PUSH1 0x2 MUL ADD PUSH1 0x0 PUSH1 0x2 DUP2 LT PUSH2 0x2783 JUMPI PUSH2 0x2782 PUSH2 0x3D7F JUMP JUMPDEST JUMPDEST ADD SLOAD PUSH1 0x5D DUP2 SWAP1 SSTORE POP JUMPDEST PUSH1 0x15 PUSH1 0x4C PUSH1 0x1 PUSH1 0x2 DUP2 LT PUSH2 0x27A3 JUMPI PUSH2 0x27A2 PUSH2 0x3D7F JUMP JUMPDEST JUMPDEST PUSH1 0x2 MUL ADD PUSH1 0x0 PUSH1 0x2 DUP2 LT PUSH2 0x27BA JUMPI PUSH2 0x27B9 PUSH2 0x3D7F JUMP JUMPDEST JUMPDEST ADD SLOAD GT DUP1 ISZERO PUSH2 0x27F7 JUMPI POP PUSH1 0x15 PUSH1 0x48 PUSH1 0x1 PUSH1 0x2 DUP2 LT PUSH2 0x27DB JUMPI PUSH2 0x27DA PUSH2 0x3D7F JUMP JUMPDEST JUMPDEST PUSH1 0x2 MUL ADD PUSH1 0x1 PUSH1 0x2 DUP2 LT PUSH2 0x27F2 JUMPI PUSH2 0x27F1 PUSH2 0x3D7F JUMP JUMPDEST JUMPDEST ADD SLOAD GT ISZERO JUMPDEST ISZERO PUSH2 0x2831 JUMPI PUSH1 0x4C PUSH1 0x1 PUSH1 0x2 DUP2 LT PUSH2 0x2811 JUMPI PUSH2 0x2810 PUSH2 0x3D7F JUMP JUMPDEST JUMPDEST PUSH1 0x2 MUL ADD PUSH1 0x1 PUSH1 0x2 DUP2 LT PUSH2 0x2828 JUMPI PUSH2 0x2827 PUSH2 0x3D7F JUMP JUMPDEST JUMPDEST ADD SLOAD PUSH1 0x5D DUP2 SWAP1 SSTORE POP JUMPDEST PUSH1 0x15 PUSH1 0x4C PUSH1 0x1 PUSH1 0x2 DUP2 LT PUSH2 0x2848 JUMPI PUSH2 0x2847 PUSH2 0x3D7F JUMP JUMPDEST JUMPDEST PUSH1 0x2 MUL ADD PUSH1 0x0 PUSH1 0x2 DUP2 LT PUSH2 0x285F JUMPI PUSH2 0x285E PUSH2 0x3D7F JUMP JUMPDEST JUMPDEST ADD SLOAD GT ISZERO DUP1 ISZERO PUSH2 0x289D JUMPI POP PUSH1 0x15 PUSH1 0x4C PUSH1 0x1 PUSH1 0x2 DUP2 LT PUSH2 0x2881 JUMPI PUSH2 0x2880 PUSH2 0x3D7F JUMP JUMPDEST JUMPDEST PUSH1 0x2 MUL ADD PUSH1 0x1 PUSH1 0x2 DUP2 LT PUSH2 0x2898 JUMPI PUSH2 0x2897 PUSH2 0x3D7F JUMP JUMPDEST JUMPDEST ADD SLOAD GT ISZERO JUMPDEST ISZERO PUSH2 0x29D0 JUMPI PUSH1 0x4C PUSH1 0x1 PUSH1 0x2 DUP2 LT PUSH2 0x28B7 JUMPI PUSH2 0x28B6 PUSH2 0x3D7F JUMP JUMPDEST JUMPDEST PUSH1 0x2 MUL ADD PUSH1 0x1 PUSH1 0x2 DUP2 LT PUSH2 0x28CE JUMPI PUSH2 0x28CD PUSH2 0x3D7F JUMP JUMPDEST JUMPDEST ADD SLOAD PUSH1 0x4C PUSH1 0x1 PUSH1 0x2 DUP2 LT PUSH2 0x28E5 JUMPI PUSH2 0x28E4 PUSH2 0x3D7F JUMP JUMPDEST JUMPDEST PUSH1 0x2 MUL ADD PUSH1 0x0 PUSH1 0x2 DUP2 LT PUSH2 0x28FC JUMPI PUSH2 0x28FB PUSH2 0x3D7F JUMP JUMPDEST JUMPDEST ADD SLOAD GT ISZERO PUSH2 0x2939 JUMPI PUSH1 0x4C PUSH1 0x1 PUSH1 0x2 DUP2 LT PUSH2 0x2919 JUMPI PUSH2 0x2918 PUSH2 0x3D7F JUMP JUMPDEST JUMPDEST PUSH1 0x2 MUL ADD PUSH1 0x0 PUSH1 0x2 DUP2 LT PUSH2 0x2930 JUMPI PUSH2 0x292F PUSH2 0x3D7F JUMP JUMPDEST JUMPDEST ADD SLOAD PUSH1 0x5D DUP2 SWAP1 SSTORE POP JUMPDEST PUSH1 0x4C PUSH1 0x1 PUSH1 0x2 DUP2 LT PUSH2 0x294E JUMPI PUSH2 0x294D PUSH2 0x3D7F JUMP JUMPDEST JUMPDEST PUSH1 0x2 MUL ADD PUSH1 0x1 PUSH1 0x2 DUP2 LT PUSH2 0x2965 JUMPI PUSH2 0x2964 PUSH2 0x3D7F JUMP JUMPDEST JUMPDEST ADD SLOAD PUSH1 0x4C PUSH1 0x1 PUSH1 0x2 DUP2 LT PUSH2 0x297C JUMPI PUSH2 0x297B PUSH2 0x3D7F JUMP JUMPDEST JUMPDEST PUSH1 0x2 MUL ADD PUSH1 0x0 PUSH1 0x2 DUP2 LT PUSH2 0x2993 JUMPI PUSH2 0x2992 PUSH2 0x3D7F JUMP JUMPDEST JUMPDEST ADD SLOAD GT PUSH2 0x29CF JUMPI PUSH1 0x4C PUSH1 0x1 PUSH1 0x2 DUP2 LT PUSH2 0x29AF JUMPI PUSH2 0x29AE PUSH2 0x3D7F JUMP JUMPDEST JUMPDEST PUSH1 0x2 MUL ADD PUSH1 0x1 PUSH1 0x2 DUP2 LT PUSH2 0x29C6 JUMPI PUSH2 0x29C5 PUSH2 0x3D7F JUMP JUMPDEST JUMPDEST ADD SLOAD PUSH1 0x5D DUP2 SWAP1 SSTORE POP JUMPDEST JUMPDEST PUSH1 0x10 PUSH1 0x4C PUSH1 0x1 PUSH1 0x2 DUP2 LT PUSH2 0x29E7 JUMPI PUSH2 0x29E6 PUSH2 0x3D7F JUMP JUMPDEST JUMPDEST PUSH1 0x2 MUL ADD PUSH1 0x0 PUSH1 0x2 DUP2 LT PUSH2 0x29FE JUMPI PUSH2 0x29FD PUSH2 0x3D7F JUMP JUMPDEST JUMPDEST ADD SLOAD GT DUP1 PUSH2 0x2A39 JUMPI POP PUSH1 0x10 PUSH1 0x4C PUSH1 0x1 PUSH1 0x2 DUP2 LT PUSH2 0x2A1E JUMPI PUSH2 0x2A1D PUSH2 0x3D7F JUMP JUMPDEST JUMPDEST PUSH1 0x2 MUL ADD PUSH1 0x1 PUSH1 0x2 DUP2 LT PUSH2 0x2A35 JUMPI PUSH2 0x2A34 PUSH2 0x3D7F JUMP JUMPDEST JUMPDEST ADD SLOAD GT JUMPDEST ISZERO PUSH2 0x2ACC JUMPI PUSH1 0x0 PUSH1 0x1 DUP2 SWAP1 SSTORE POP PUSH1 0x15 PUSH1 0x4C PUSH1 0x1 PUSH1 0x2 DUP2 LT PUSH2 0x2A5D JUMPI PUSH2 0x2A5C PUSH2 0x3D7F JUMP JUMPDEST JUMPDEST PUSH1 0x2 MUL ADD PUSH1 0x0 PUSH1 0x2 DUP2 LT PUSH2 0x2A74 JUMPI PUSH2 0x2A73 PUSH2 0x3D7F JUMP JUMPDEST JUMPDEST ADD SLOAD GT DUP1 ISZERO PUSH2 0x2AB0 JUMPI POP PUSH1 0x15 PUSH1 0x4C PUSH1 0x1 PUSH1 0x2 DUP2 LT PUSH2 0x2A95 JUMPI PUSH2 0x2A94 PUSH2 0x3D7F JUMP JUMPDEST JUMPDEST PUSH1 0x2 MUL ADD PUSH1 0x1 PUSH1 0x2 DUP2 LT PUSH2 0x2AAC JUMPI PUSH2 0x2AAB PUSH2 0x3D7F JUMP JUMPDEST JUMPDEST ADD SLOAD GT JUMPDEST ISZERO PUSH2 0x2AC2 JUMPI PUSH1 0x1 PUSH1 0x5B DUP2 SWAP1 SSTORE POP PUSH2 0x2ACB JUMP JUMPDEST PUSH1 0x1 PUSH1 0x5F DUP2 SWAP1 SSTORE POP JUMPDEST JUMPDEST JUMP JUMPDEST PUSH1 0x15 PUSH1 0x48 PUSH1 0x1 PUSH1 0x2 DUP2 LT PUSH2 0x2AE5 JUMPI PUSH2 0x2AE4 PUSH2 0x3D7F JUMP JUMPDEST JUMPDEST PUSH1 0x2 MUL ADD PUSH1 0x0 PUSH1 0x2 DUP2 LT PUSH2 0x2AFC JUMPI PUSH2 0x2AFB PUSH2 0x3D7F JUMP JUMPDEST JUMPDEST ADD SLOAD GT DUP1 ISZERO PUSH2 0x2B38 JUMPI POP PUSH1 0x15 PUSH1 0x48 PUSH1 0x1 PUSH1 0x2 DUP2 LT PUSH2 0x2B1D JUMPI PUSH2 0x2B1C PUSH2 0x3D7F JUMP JUMPDEST JUMPDEST PUSH1 0x2 MUL ADD PUSH1 0x1 PUSH1 0x2 DUP2 LT PUSH2 0x2B34 JUMPI PUSH2 0x2B33 PUSH2 0x3D7F JUMP JUMPDEST JUMPDEST ADD SLOAD GT JUMPDEST ISZERO PUSH2 0x2C7B JUMPI PUSH1 0x1 PUSH1 0x5A DUP2 SWAP1 SSTORE POP PUSH1 0x0 PUSH1 0x1 DUP2 SWAP1 SSTORE POP PUSH1 0x48 PUSH1 0x1 PUSH1 0x2 DUP2 LT PUSH2 0x2B62 JUMPI PUSH2 0x2B61 PUSH2 0x3D7F JUMP JUMPDEST JUMPDEST PUSH1 0x2 MUL ADD PUSH1 0x1 PUSH1 0x2 DUP2 LT PUSH2 0x2B79 JUMPI PUSH2 0x2B78 PUSH2 0x3D7F JUMP JUMPDEST JUMPDEST ADD SLOAD PUSH1 0x48 PUSH1 0x1 PUSH1 0x2 DUP2 LT PUSH2 0x2B90 JUMPI PUSH2 0x2B8F PUSH2 0x3D7F JUMP JUMPDEST JUMPDEST PUSH1 0x2 MUL ADD PUSH1 0x0 PUSH1 0x2 DUP2 LT PUSH2 0x2BA7 JUMPI PUSH2 0x2BA6 PUSH2 0x3D7F JUMP JUMPDEST JUMPDEST ADD SLOAD GT PUSH2 0x2BE3 JUMPI PUSH1 0x48 PUSH1 0x1 PUSH1 0x2 DUP2 LT PUSH2 0x2BC3 JUMPI PUSH2 0x2BC2 PUSH2 0x3D7F JUMP JUMPDEST JUMPDEST PUSH1 0x2 MUL ADD PUSH1 0x0 PUSH1 0x2 DUP2 LT PUSH2 0x2BDA JUMPI PUSH2 0x2BD9 PUSH2 0x3D7F JUMP JUMPDEST JUMPDEST ADD SLOAD PUSH1 0x5C DUP2 SWAP1 SSTORE POP JUMPDEST PUSH1 0x48 PUSH1 0x1 PUSH1 0x2 DUP2 LT PUSH2 0x2BF8 JUMPI PUSH2 0x2BF7 PUSH2 0x3D7F JUMP JUMPDEST JUMPDEST PUSH1 0x2 MUL ADD PUSH1 0x1 PUSH1 0x2 DUP2 LT PUSH2 0x2C0F JUMPI PUSH2 0x2C0E PUSH2 0x3D7F JUMP JUMPDEST JUMPDEST ADD SLOAD PUSH1 0x48 PUSH1 0x1 PUSH1 0x2 DUP2 LT PUSH2 0x2C26 JUMPI PUSH2 0x2C25 PUSH2 0x3D7F JUMP JUMPDEST JUMPDEST PUSH1 0x2 MUL ADD PUSH1 0x0 PUSH1 0x2 DUP2 LT PUSH2 0x2C3D JUMPI PUSH2 0x2C3C PUSH2 0x3D7F JUMP JUMPDEST JUMPDEST ADD SLOAD GT ISZERO PUSH2 0x2C7A JUMPI PUSH1 0x48 PUSH1 0x1 PUSH1 0x2 DUP2 LT PUSH2 0x2C5A JUMPI PUSH2 0x2C59 PUSH2 0x3D7F JUMP JUMPDEST JUMPDEST PUSH1 0x2 MUL ADD PUSH1 0x1 PUSH1 0x2 DUP2 LT PUSH2 0x2C71 JUMPI PUSH2 0x2C70 PUSH2 0x3D7F JUMP JUMPDEST JUMPDEST ADD SLOAD PUSH1 0x5C DUP2 SWAP1 SSTORE POP JUMPDEST JUMPDEST PUSH1 0x15 PUSH1 0x48 PUSH1 0x1 PUSH1 0x2 DUP2 LT PUSH2 0x2C92 JUMPI PUSH2 0x2C91 PUSH2 0x3D7F JUMP JUMPDEST JUMPDEST PUSH1 0x2 MUL ADD PUSH1 0x0 PUSH1 0x2 DUP2 LT PUSH2 0x2CA9 JUMPI PUSH2 0x2CA8 PUSH2 0x3D7F JUMP JUMPDEST JUMPDEST ADD SLOAD GT ISZERO DUP1 ISZERO PUSH2 0x2CE6 JUMPI POP PUSH1 0x15 PUSH1 0x48 PUSH1 0x1 PUSH1 0x2 DUP2 LT PUSH2 0x2CCB JUMPI PUSH2 0x2CCA PUSH2 0x3D7F JUMP JUMPDEST JUMPDEST PUSH1 0x2 MUL ADD PUSH1 0x1 PUSH1 0x2 DUP2 LT PUSH2 0x2CE2 JUMPI PUSH2 0x2CE1 PUSH2 0x3D7F JUMP JUMPDEST JUMPDEST ADD SLOAD GT JUMPDEST ISZERO PUSH2 0x2D20 JUMPI PUSH1 0x48 PUSH1 0x1 PUSH1 0x2 DUP2 LT PUSH2 0x2D00 JUMPI PUSH2 0x2CFF PUSH2 0x3D7F JUMP JUMPDEST JUMPDEST PUSH1 0x2 MUL ADD PUSH1 0x0 PUSH1 0x2 DUP2 LT PUSH2 0x2D17 JUMPI PUSH2 0x2D16 PUSH2 0x3D7F JUMP JUMPDEST JUMPDEST ADD SLOAD PUSH1 0x5C DUP2 SWAP1 SSTORE POP JUMPDEST PUSH1 0x15 PUSH1 0x48 PUSH1 0x1 PUSH1 0x2 DUP2 LT PUSH2 0x2D37 JUMPI PUSH2 0x2D36 PUSH2 0x3D7F JUMP JUMPDEST JUMPDEST PUSH1 0x2 MUL ADD PUSH1 0x0 PUSH1 0x2 DUP2 LT PUSH2 0x2D4E JUMPI PUSH2 0x2D4D PUSH2 0x3D7F JUMP JUMPDEST JUMPDEST ADD SLOAD GT DUP1 ISZERO PUSH2 0x2D8B JUMPI POP PUSH1 0x15 PUSH1 0x48 PUSH1 0x1 PUSH1 0x2 DUP2 LT PUSH2 0x2D6F JUMPI PUSH2 0x2D6E PUSH2 0x3D7F JUMP JUMPDEST JUMPDEST PUSH1 0x2 MUL ADD PUSH1 0x1 PUSH1 0x2 DUP2 LT PUSH2 0x2D86 JUMPI PUSH2 0x2D85 PUSH2 0x3D7F JUMP JUMPDEST JUMPDEST ADD SLOAD GT ISZERO JUMPDEST ISZERO PUSH2 0x2DC5 JUMPI PUSH1 0x48 PUSH1 0x1 PUSH1 0x2 DUP2 LT PUSH2 0x2DA5 JUMPI PUSH2 0x2DA4 PUSH2 0x3D7F JUMP JUMPDEST JUMPDEST PUSH1 0x2 MUL ADD PUSH1 0x1 PUSH1 0x2 DUP2 LT PUSH2 0x2DBC JUMPI PUSH2 0x2DBB PUSH2 0x3D7F JUMP JUMPDEST JUMPDEST ADD SLOAD PUSH1 0x5C DUP2 SWAP1 SSTORE POP JUMPDEST PUSH1 0x15 PUSH1 0x48 PUSH1 0x1 PUSH1 0x2 DUP2 LT PUSH2 0x2DDC JUMPI PUSH2 0x2DDB PUSH2 0x3D7F JUMP JUMPDEST JUMPDEST PUSH1 0x2 MUL ADD PUSH1 0x0 PUSH1 0x2 DUP2 LT PUSH2 0x2DF3 JUMPI PUSH2 0x2DF2 PUSH2 0x3D7F JUMP JUMPDEST JUMPDEST ADD SLOAD GT ISZERO DUP1 ISZERO PUSH2 0x2E31 JUMPI POP PUSH1 0x15 PUSH1 0x48 PUSH1 0x1 PUSH1 0x2 DUP2 LT PUSH2 0x2E15 JUMPI PUSH2 0x2E14 PUSH2 0x3D7F JUMP JUMPDEST JUMPDEST PUSH1 0x2 MUL ADD PUSH1 0x1 PUSH1 0x2 DUP2 LT PUSH2 0x2E2C JUMPI PUSH2 0x2E2B PUSH2 0x3D7F JUMP JUMPDEST JUMPDEST ADD SLOAD GT ISZERO JUMPDEST ISZERO PUSH2 0x2F64 JUMPI PUSH1 0x48 PUSH1 0x1 PUSH1 0x2 DUP2 LT PUSH2 0x2E4B JUMPI PUSH2 0x2E4A PUSH2 0x3D7F JUMP JUMPDEST JUMPDEST PUSH1 0x2 MUL ADD PUSH1 0x1 PUSH1 0x2 DUP2 LT PUSH2 0x2E62 JUMPI PUSH2 0x2E61 PUSH2 0x3D7F JUMP JUMPDEST JUMPDEST ADD SLOAD PUSH1 0x48 PUSH1 0x1 PUSH1 0x2 DUP2 LT PUSH2 0x2E79 JUMPI PUSH2 0x2E78 PUSH2 0x3D7F JUMP JUMPDEST JUMPDEST PUSH1 0x2 MUL ADD PUSH1 0x0 PUSH1 0x2 DUP2 LT PUSH2 0x2E90 JUMPI PUSH2 0x2E8F PUSH2 0x3D7F JUMP JUMPDEST JUMPDEST ADD SLOAD GT ISZERO PUSH2 0x2ECD JUMPI PUSH1 0x48 PUSH1 0x1 PUSH1 0x2 DUP2 LT PUSH2 0x2EAD JUMPI PUSH2 0x2EAC PUSH2 0x3D7F JUMP JUMPDEST JUMPDEST PUSH1 0x2 MUL ADD PUSH1 0x0 PUSH1 0x2 DUP2 LT PUSH2 0x2EC4 JUMPI PUSH2 0x2EC3 PUSH2 0x3D7F JUMP JUMPDEST JUMPDEST ADD SLOAD PUSH1 0x5C DUP2 SWAP1 SSTORE POP JUMPDEST PUSH1 0x48 PUSH1 0x1 PUSH1 0x2 DUP2 LT PUSH2 0x2EE2 JUMPI PUSH2 0x2EE1 PUSH2 0x3D7F JUMP JUMPDEST JUMPDEST PUSH1 0x2 MUL ADD PUSH1 0x1 PUSH1 0x2 DUP2 LT PUSH2 0x2EF9 JUMPI PUSH2 0x2EF8 PUSH2 0x3D7F JUMP JUMPDEST JUMPDEST ADD SLOAD PUSH1 0x48 PUSH1 0x1 PUSH1 0x2 DUP2 LT PUSH2 0x2F10 JUMPI PUSH2 0x2F0F PUSH2 0x3D7F JUMP JUMPDEST JUMPDEST PUSH1 0x2 MUL ADD PUSH1 0x0 PUSH1 0x2 DUP2 LT PUSH2 0x2F27 JUMPI PUSH2 0x2F26 PUSH2 0x3D7F JUMP JUMPDEST JUMPDEST ADD SLOAD GT PUSH2 0x2F63 JUMPI PUSH1 0x48 PUSH1 0x1 PUSH1 0x2 DUP2 LT PUSH2 0x2F43 JUMPI PUSH2 0x2F42 PUSH2 0x3D7F JUMP JUMPDEST JUMPDEST PUSH1 0x2 MUL ADD PUSH1 0x1 PUSH1 0x2 DUP2 LT PUSH2 0x2F5A JUMPI PUSH2 0x2F59 PUSH2 0x3D7F JUMP JUMPDEST JUMPDEST ADD SLOAD PUSH1 0x5C DUP2 SWAP1 SSTORE POP JUMPDEST JUMPDEST JUMP JUMPDEST PUSH1 0x0 PUSH1 0x1 DUP2 SWAP1 SSTORE POP PUSH1 0x1 PUSH1 0x28 PUSH1 0x1 PUSH1 0x10 DUP2 LT PUSH2 0x2F85 JUMPI PUSH2 0x2F84 PUSH2 0x3D7F JUMP JUMPDEST JUMPDEST PUSH1 0x2 MUL ADD PUSH1 0x0 PUSH1 0x2 DUP2 LT PUSH2 0x2F9C JUMPI PUSH2 0x2F9B PUSH2 0x3D7F JUMP JUMPDEST JUMPDEST ADD SLOAD SUB PUSH2 0x321E JUMPI PUSH2 0x2FAD PUSH1 0x1 PUSH2 0x185A JUMP JUMPDEST PUSH1 0x0 PUSH1 0x1 SWAP1 POP JUMPDEST PUSH1 0x1 DUP2 GT PUSH2 0x3168 JUMPI JUMPDEST PUSH1 0x50 PUSH1 0x1 PUSH1 0x4 DUP2 LT PUSH2 0x2FD2 JUMPI PUSH2 0x2FD1 PUSH2 0x3D7F JUMP JUMPDEST JUMPDEST PUSH1 0x2 MUL ADD PUSH1 0x0 PUSH1 0x2 DUP2 LT PUSH2 0x2FE9 JUMPI PUSH2 0x2FE8 PUSH2 0x3D7F JUMP JUMPDEST JUMPDEST ADD SLOAD PUSH1 0x8 DUP3 PUSH1 0x10 DUP2 LT PUSH2 0x2FFF JUMPI PUSH2 0x2FFE PUSH2 0x3D7F JUMP JUMPDEST JUMPDEST PUSH1 0x2 MUL ADD PUSH1 0x0 PUSH1 0x2 DUP2 LT PUSH2 0x3016 JUMPI PUSH2 0x3015 PUSH2 0x3D7F JUMP JUMPDEST JUMPDEST ADD SLOAD EQ DUP1 PUSH2 0x307C JUMPI POP PUSH1 0x50 PUSH1 0x1 PUSH1 0x4 DUP2 LT PUSH2 0x3034 JUMPI PUSH2 0x3033 PUSH2 0x3D7F JUMP JUMPDEST JUMPDEST PUSH1 0x2 MUL ADD PUSH1 0x0 PUSH1 0x2 DUP2 LT PUSH2 0x304B JUMPI PUSH2 0x304A PUSH2 0x3D7F JUMP JUMPDEST JUMPDEST ADD SLOAD PUSH1 0x28 DUP3 PUSH1 0x10 DUP2 LT PUSH2 0x3061 JUMPI PUSH2 0x3060 PUSH2 0x3D7F JUMP JUMPDEST JUMPDEST PUSH1 0x2 MUL ADD PUSH1 0x0 PUSH1 0x2 DUP2 LT PUSH2 0x3078 JUMPI PUSH2 0x3077 PUSH2 0x3D7F JUMP JUMPDEST JUMPDEST ADD SLOAD EQ JUMPDEST ISZERO PUSH2 0x3155 JUMPI PUSH1 0x50 PUSH1 0x1 PUSH1 0x4 DUP2 LT PUSH2 0x3096 JUMPI PUSH2 0x3095 PUSH2 0x3D7F JUMP JUMPDEST JUMPDEST PUSH1 0x2 MUL ADD PUSH1 0x1 PUSH1 0x2 DUP2 LT PUSH2 0x30AD JUMPI PUSH2 0x30AC PUSH2 0x3D7F JUMP JUMPDEST JUMPDEST ADD SLOAD PUSH1 0x8 DUP3 PUSH1 0x10 DUP2 LT PUSH2 0x30C3 JUMPI PUSH2 0x30C2 PUSH2 0x3D7F JUMP JUMPDEST JUMPDEST PUSH1 0x2 MUL ADD PUSH1 0x1 PUSH1 0x2 DUP2 LT PUSH2 0x30DA JUMPI PUSH2 0x30D9 PUSH2 0x3D7F JUMP JUMPDEST JUMPDEST ADD SLOAD EQ DUP1 PUSH2 0x3140 JUMPI POP PUSH1 0x50 PUSH1 0x1 PUSH1 0x4 DUP2 LT PUSH2 0x30F8 JUMPI PUSH2 0x30F7 PUSH2 0x3D7F JUMP JUMPDEST JUMPDEST PUSH1 0x2 MUL ADD PUSH1 0x1 PUSH1 0x2 DUP2 LT PUSH2 0x310F JUMPI PUSH2 0x310E PUSH2 0x3D7F JUMP JUMPDEST JUMPDEST ADD SLOAD PUSH1 0x28 DUP3 PUSH1 0x10 DUP2 LT PUSH2 0x3125 JUMPI PUSH2 0x3124 PUSH2 0x3D7F JUMP JUMPDEST JUMPDEST PUSH1 0x2 MUL ADD PUSH1 0x1 PUSH1 0x2 DUP2 LT PUSH2 0x313C JUMPI PUSH2 0x313B PUSH2 0x3D7F JUMP JUMPDEST JUMPDEST ADD SLOAD EQ JUMPDEST ISZERO PUSH2 0x3150 JUMPI PUSH2 0x314F PUSH1 0x1 PUSH2 0x185A JUMP JUMPDEST JUMPDEST PUSH2 0x2FBD JUMP JUMPDEST DUP1 DUP1 PUSH2 0x3160 SWAP1 PUSH2 0x3DAE JUMP JUMPDEST SWAP2 POP POP PUSH2 0x2FB4 JUMP JUMPDEST POP PUSH2 0x31CF PUSH1 0x50 PUSH1 0x1 PUSH1 0x4 DUP2 LT PUSH2 0x3181 JUMPI PUSH2 0x3180 PUSH2 0x3D7F JUMP JUMPDEST JUMPDEST PUSH1 0x2 MUL ADD PUSH1 0x0 PUSH1 0x2 DUP2 LT PUSH2 0x3198 JUMPI PUSH2 0x3197 PUSH2 0x3D7F JUMP JUMPDEST JUMPDEST ADD SLOAD PUSH1 0x50 PUSH1 0x1 PUSH1 0x4 DUP2 LT PUSH2 0x31AF JUMPI PUSH2 0x31AE PUSH2 0x3D7F JUMP JUMPDEST JUMPDEST PUSH1 0x2 MUL ADD PUSH1 0x1 PUSH1 0x2 DUP2 LT PUSH2 0x31C6 JUMPI PUSH2 0x31C5 PUSH2 0x3D7F JUMP JUMPDEST JUMPDEST ADD SLOAD PUSH1 0x2 PUSH2 0x1F65 JUMP JUMPDEST PUSH2 0x31D7 PUSH2 0x22C5 JUMP JUMPDEST PUSH2 0x31DF PUSH2 0x253A JUMP JUMPDEST PUSH1 0x15 PUSH1 0x4C PUSH1 0x1 PUSH1 0x2 DUP2 LT PUSH2 0x31F6 JUMPI PUSH2 0x31F5 PUSH2 0x3D7F JUMP JUMPDEST JUMPDEST PUSH1 0x2 MUL ADD PUSH1 0x1 PUSH1 0x2 DUP2 LT PUSH2 0x320D JUMPI PUSH2 0x320C PUSH2 0x3D7F JUMP JUMPDEST JUMPDEST ADD SLOAD SUB PUSH2 0x321D JUMPI PUSH2 0x321C PUSH2 0x35C7 JUMP JUMPDEST JUMPDEST JUMPDEST JUMP JUMPDEST PUSH1 0x0 DUP1 PUSH1 0x0 SWAP1 POP PUSH1 0x0 JUMPDEST PUSH1 0x10 DUP3 LT ISZERO PUSH2 0x328E JUMPI PUSH1 0x0 DUP5 DUP4 PUSH1 0x10 DUP2 LT PUSH2 0x3248 JUMPI PUSH2 0x3247 PUSH2 0x3D7F JUMP JUMPDEST JUMPDEST PUSH1 0x20 MUL ADD MLOAD PUSH1 0x0 PUSH1 0x2 DUP2 LT PUSH2 0x3260 JUMPI PUSH2 0x325F PUSH2 0x3D7F JUMP JUMPDEST JUMPDEST PUSH1 0x20 MUL ADD MLOAD EQ PUSH2 0x327A JUMPI PUSH1 0x1 DUP2 PUSH2 0x3277 SWAP2 SWAP1 PUSH2 0x3CB9 JUMP JUMPDEST SWAP1 POP JUMPDEST PUSH1 0x1 DUP3 PUSH2 0x3287 SWAP2 SWAP1 PUSH2 0x3CB9 JUMP JUMPDEST SWAP2 POP PUSH2 0x322A JUMP JUMPDEST DUP1 SWAP3 POP POP POP SWAP2 SWAP1 POP JUMP JUMPDEST PUSH1 0x0 PUSH1 0x60 PUSH1 0x0 DUP2 SLOAD DUP1 SWAP3 SWAP2 SWAP1 PUSH2 0x32AD SWAP1 PUSH2 0x3DAE JUMP JUMPDEST SWAP2 SWAP1 POP SSTORE POP PUSH32 0x28F5C28F5C28F5C28F5C28F5C28F5C28F5C28F5C28F5C28F5C28F5C28F5C28F PUSH1 0x3 PUSH1 0x60 SLOAD PUSH2 0x32E2 SWAP2 SWAP1 PUSH2 0x40F0 JUMP JUMPDEST NUMBER PUSH2 0x32ED SWAP2 SWAP1 PUSH2 0x3CB9 JUMP JUMPDEST CALLER PUSH1 0x60 SLOAD PUSH1 0x40 MLOAD PUSH1 0x20 ADD PUSH2 0x3303 SWAP4 SWAP3 SWAP2 SWAP1 PUSH2 0x41CD JUMP JUMPDEST PUSH1 0x40 MLOAD PUSH1 0x20 DUP2 DUP4 SUB SUB DUP2 MSTORE SWAP1 PUSH1 0x40 MSTORE DUP1 MLOAD SWAP1 PUSH1 0x20 ADD KECCAK256 PUSH1 0x0 SHR PUSH2 0x3326 SWAP2 SWAP1 PUSH2 0x4239 JUMP JUMPDEST PUSH1 0x5 DUP2 SWAP1 SSTORE POP PUSH1 0x60 PUSH1 0x0 DUP2 SLOAD DUP1 SWAP3 SWAP2 SWAP1 PUSH2 0x333F SWAP1 PUSH2 0x3DAE JUMP JUMPDEST SWAP2 SWAP1 POP SSTORE POP PUSH1 0x5 SLOAD SWAP1 POP SWAP1 JUMP JUMPDEST PUSH1 0x60 PUSH1 0x0 PUSH1 0x1 PUSH2 0x335B DUP5 PUSH2 0x35D1 JUMP JUMPDEST ADD SWAP1 POP PUSH1 0x0 DUP2 PUSH8 0xFFFFFFFFFFFFFFFF DUP2 GT ISZERO PUSH2 0x337A JUMPI PUSH2 0x3379 PUSH2 0x426A JUMP JUMPDEST JUMPDEST PUSH1 0x40 MLOAD SWAP1 DUP1 DUP3 MSTORE DUP1 PUSH1 0x1F ADD PUSH1 0x1F NOT AND PUSH1 0x20 ADD DUP3 ADD PUSH1 0x40 MSTORE DUP1 ISZERO PUSH2 0x33AC JUMPI DUP2 PUSH1 0x20 ADD PUSH1 0x1 DUP3 MUL DUP1 CALLDATASIZE DUP4 CALLDATACOPY DUP1 DUP3 ADD SWAP2 POP POP SWAP1 POP JUMPDEST POP SWAP1 POP PUSH1 0x0 DUP3 PUSH1 0x20 ADD DUP3 ADD SWAP1 POP JUMPDEST PUSH1 0x1 ISZERO PUSH2 0x340F JUMPI DUP1 DUP1 PUSH1 0x1 SWAP1 SUB SWAP2 POP POP PUSH32 0x3031323334353637383961626364656600000000000000000000000000000000 PUSH1 0xA DUP7 MOD BYTE DUP2 MSTORE8 PUSH1 0xA DUP6 DUP2 PUSH2 0x3403 JUMPI PUSH2 0x3402 PUSH2 0x420A JUMP JUMPDEST JUMPDEST DIV SWAP5 POP PUSH1 0x0 DUP6 SUB PUSH2 0x33BA JUMPI JUMPDEST DUP2 SWAP4 POP POP POP POP SWAP2 SWAP1 POP JUMP JUMPDEST PUSH1 0x60 PUSH1 0x0 PUSH1 0x1 DUP6 DUP6 PUSH2 0x342C SWAP2 SWAP1 PUSH2 0x3ACF JUMP JUMPDEST PUSH2 0x3436 SWAP2 SWAP1 PUSH2 0x3CB9 JUMP JUMPDEST PUSH8 0xFFFFFFFFFFFFFFFF DUP2 GT ISZERO PUSH2 0x344F JUMPI PUSH2 0x344E PUSH2 0x426A JUMP JUMPDEST JUMPDEST PUSH1 0x40 MLOAD SWAP1 DUP1 DUP3 MSTORE DUP1 PUSH1 0x1F ADD PUSH1 0x1F NOT AND PUSH1 0x20 ADD DUP3 ADD PUSH1 0x40 MSTORE DUP1 ISZERO PUSH2 0x3481 JUMPI DUP2 PUSH1 0x20 ADD PUSH1 0x1 DUP3 MUL DUP1 CALLDATASIZE DUP4 CALLDATACOPY DUP1 DUP3 ADD SWAP2 POP POP SWAP1 POP JUMPDEST POP SWAP1 POP PUSH1 0x0 JUMPDEST DUP6 DUP6 PUSH2 0x3493 SWAP2 SWAP1 PUSH2 0x3ACF JUMP JUMPDEST DUP2 GT PUSH2 0x3523 JUMPI DUP4 PUSH1 0x1 DUP8 DUP4 PUSH2 0x34A8 SWAP2 SWAP1 PUSH2 0x3CB9 JUMP JUMPDEST PUSH2 0x34B2 SWAP2 SWAP1 PUSH2 0x3ACF JUMP JUMPDEST DUP2 MLOAD DUP2 LT PUSH2 0x34C3 JUMPI PUSH2 0x34C2 PUSH2 0x3D7F JUMP JUMPDEST JUMPDEST PUSH1 0x20 ADD ADD MLOAD PUSH1 0xF8 SHR PUSH1 0xF8 SHL DUP3 DUP3 DUP2 MLOAD DUP2 LT PUSH2 0x34E1 JUMPI PUSH2 0x34E0 PUSH2 0x3D7F JUMP JUMPDEST JUMPDEST PUSH1 0x20 ADD ADD SWAP1 PUSH31 0xFFFFFFFFFFFFFFFFFFFFFFFFFFFFFFFFFFFFFFFFFFFFFFFFFFFFFFFFFFFFFF NOT AND SWAP1 DUP2 PUSH1 0x0 BYTE SWAP1 MSTORE8 POP DUP1 DUP1 PUSH2 0x351B SWAP1 PUSH2 0x3DAE JUMP JUMPDEST SWAP2 POP POP PUSH2 0x3487 JUMP JUMPDEST POP DUP1 SWAP2 POP POP SWAP4 SWAP3 POP POP POP JUMP JUMPDEST PUSH1 0x0 DUP1 DUP3 SWAP1 POP PUSH1 0x0 DUP1 JUMPDEST DUP3 MLOAD DUP2 LT ISZERO PUSH2 0x35BC JUMPI PUSH1 0x0 DUP4 DUP3 DUP2 MLOAD DUP2 LT PUSH2 0x3557 JUMPI PUSH2 0x3556 PUSH2 0x3D7F JUMP JUMPDEST JUMPDEST PUSH1 0x20 ADD ADD MLOAD PUSH1 0xF8 SHR PUSH1 0xF8 SHL PUSH1 0xF8 SHR PUSH1 0xFF AND SWAP1 POP PUSH1 0x30 DUP2 LT ISZERO DUP1 ISZERO PUSH2 0x357C JUMPI POP PUSH1 0x39 DUP2 GT ISZERO JUMPDEST ISZERO PUSH2 0x35A8 JUMPI PUSH1 0x30 DUP2 PUSH2 0x358E SWAP2 SWAP1 PUSH2 0x3ACF JUMP JUMPDEST PUSH1 0xA DUP5 PUSH2 0x359B SWAP2 SWAP1 PUSH2 0x40F0 JUMP JUMPDEST PUSH2 0x35A5 SWAP2 SWAP1 PUSH2 0x3CB9 JUMP JUMPDEST SWAP3 POP JUMPDEST POP DUP1 DUP1 PUSH2 0x35B4 SWAP1 PUSH2 0x3DAE JUMP JUMPDEST SWAP2 POP POP PUSH2 0x3539 JUMP JUMPDEST POP DUP1 SWAP3 POP POP POP SWAP2 SWAP1 POP JUMP JUMPDEST PUSH1 0x0 PUSH1 0x1 DUP2 SWAP1 SSTORE POP JUMP JUMPDEST PUSH1 0x0 DUP1 PUSH1 0x0 SWAP1 POP PUSH27 0x184F03E93FF9F4DAA797ED6E38ED64BF6A1F010000000000000000 DUP4 LT PUSH2 0x362F JUMPI PUSH27 0x184F03E93FF9F4DAA797ED6E38ED64BF6A1F010000000000000000 DUP4 DUP2 PUSH2 0x3625 JUMPI PUSH2 0x3624 PUSH2 0x420A JUMP JUMPDEST JUMPDEST DIV SWAP3 POP PUSH1 0x40 DUP2 ADD SWAP1 POP JUMPDEST PUSH14 0x4EE2D6D415B85ACEF8100000000 DUP4 LT PUSH2 0x366C JUMPI PUSH14 0x4EE2D6D415B85ACEF8100000000 DUP4 DUP2 PUSH2 0x3662 JUMPI PUSH2 0x3661 PUSH2 0x420A JUMP JUMPDEST JUMPDEST DIV SWAP3 POP PUSH1 0x20 DUP2 ADD SWAP1 POP JUMPDEST PUSH7 0x2386F26FC10000 DUP4 LT PUSH2 0x369B JUMPI PUSH7 0x2386F26FC10000 DUP4 DUP2 PUSH2 0x3691 JUMPI PUSH2 0x3690 PUSH2 0x420A JUMP JUMPDEST JUMPDEST DIV SWAP3 POP PUSH1 0x10 DUP2 ADD SWAP1 POP JUMPDEST PUSH4 0x5F5E100 DUP4 LT PUSH2 0x36C4 JUMPI PUSH4 0x5F5E100 DUP4 DUP2 PUSH2 0x36BA JUMPI PUSH2 0x36B9 PUSH2 0x420A JUMP JUMPDEST JUMPDEST DIV SWAP3 POP PUSH1 0x8 DUP2 ADD SWAP1 POP JUMPDEST PUSH2 0x2710 DUP4 LT PUSH2 0x36E9 JUMPI PUSH2 0x2710 DUP4 DUP2 PUSH2 0x36DF JUMPI PUSH2 0x36DE PUSH2 0x420A JUMP JUMPDEST JUMPDEST DIV SWAP3 POP PUSH1 0x4 DUP2 ADD SWAP1 POP JUMPDEST PUSH1 0x64 DUP4 LT PUSH2 0x370C JUMPI PUSH1 0x64 DUP4 DUP2 PUSH2 0x3702 JUMPI PUSH2 0x3701 PUSH2 0x420A JUMP JUMPDEST JUMPDEST DIV SWAP3 POP PUSH1 0x2 DUP2 ADD SWAP1 POP JUMPDEST PUSH1 0xA DUP4 LT PUSH2 0x371B JUMPI PUSH1 0x1 DUP2 ADD SWAP1 POP JUMPDEST DUP1 SWAP2 POP POP SWAP2 SWAP1 POP JUMP JUMPDEST DUP3 PUSH1 0x4 PUSH1 0x2 MUL DUP2 ADD SWAP3 DUP3 ISZERO PUSH2 0x3764 JUMPI SWAP2 PUSH1 0x20 MUL DUP3 ADD JUMPDEST DUP3 DUP2 GT ISZERO PUSH2 0x3763 JUMPI DUP3 MLOAD DUP3 SWAP1 PUSH1 0x2 PUSH2 0x3753 SWAP3 SWAP2 SWAP1 PUSH2 0x37A2 JUMP JUMPDEST POP SWAP2 PUSH1 0x20 ADD SWAP2 SWAP1 PUSH1 0x2 ADD SWAP1 PUSH2 0x373A JUMP JUMPDEST JUMPDEST POP SWAP1 POP PUSH2 0x3771 SWAP2 SWAP1 PUSH2 0x37E2 JUMP JUMPDEST POP SWAP1 JUMP JUMPDEST PUSH1 0x40 MLOAD DUP1 PUSH1 0x80 ADD PUSH1 0x40 MSTORE DUP1 PUSH1 0x4 SWAP1 JUMPDEST PUSH2 0x378C PUSH2 0x3806 JUMP JUMPDEST DUP2 MSTORE PUSH1 0x20 ADD SWAP1 PUSH1 0x1 SWAP1 SUB SWAP1 DUP2 PUSH2 0x3784 JUMPI SWAP1 POP POP SWAP1 JUMP JUMPDEST DUP3 PUSH1 0x2 DUP2 ADD SWAP3 DUP3 ISZERO PUSH2 0x37D1 JUMPI SWAP2 PUSH1 0x20 MUL DUP3 ADD JUMPDEST DUP3 DUP2 GT ISZERO PUSH2 0x37D0 JUMPI DUP3 MLOAD DUP3 SSTORE SWAP2 PUSH1 0x20 ADD SWAP2 SWAP1 PUSH1 0x1 ADD SWAP1 PUSH2 0x37B5 JUMP JUMPDEST JUMPDEST POP SWAP1 POP PUSH2 0x37DE SWAP2 SWAP1 PUSH2 0x3828 JUMP JUMPDEST POP SWAP1 JUMP JUMPDEST JUMPDEST DUP1 DUP3 GT ISZERO PUSH2 0x3802 JUMPI PUSH1 0x0 DUP2 DUP2 PUSH2 0x37F9 SWAP2 SWAP1 PUSH2 0x3845 JUMP JUMPDEST POP PUSH1 0x2 ADD PUSH2 0x37E3 JUMP JUMPDEST POP SWAP1 JUMP JUMPDEST PUSH1 0x40 MLOAD DUP1 PUSH1 0x40 ADD PUSH1 0x40 MSTORE DUP1 PUSH1 0x2 SWAP1 PUSH1 0x20 DUP3 MUL DUP1 CALLDATASIZE DUP4 CALLDATACOPY DUP1 DUP3 ADD SWAP2 POP POP SWAP1 POP POP SWAP1 JUMP JUMPDEST JUMPDEST DUP1 DUP3 GT ISZERO PUSH2 0x3841 JUMPI PUSH1 0x0 DUP2 PUSH1 0x0 SWAP1 SSTORE POP PUSH1 0x1 ADD PUSH2 0x3829 JUMP JUMPDEST POP SWAP1 JUMP JUMPDEST POP PUSH1 0x0 DUP2 SSTORE PUSH1 0x1 ADD PUSH1 0x0 SWAP1 SSTORE JUMP JUMPDEST PUSH1 0x0 DUP1 REVERT JUMPDEST PUSH1 0x0 DUP2 SWAP1 POP SWAP2 SWAP1 POP JUMP JUMPDEST PUSH2 0x386B DUP2 PUSH2 0x3858 JUMP JUMPDEST DUP2 EQ PUSH2 0x3876 JUMPI PUSH1 0x0 DUP1 REVERT JUMPDEST POP JUMP JUMPDEST PUSH1 0x0 DUP2 CALLDATALOAD SWAP1 POP PUSH2 0x3888 DUP2 PUSH2 0x3862 JUMP JUMPDEST SWAP3 SWAP2 POP POP JUMP JUMPDEST PUSH1 0x0 PUSH1 0x20 DUP3 DUP5 SUB SLT ISZERO PUSH2 0x38A4 JUMPI PUSH2 0x38A3 PUSH2 0x3853 JUMP JUMPDEST JUMPDEST PUSH1 0x0 PUSH2 0x38B2 DUP5 DUP3 DUP6 ADD PUSH2 0x3879 JUMP JUMPDEST SWAP2 POP POP SWAP3 SWAP2 POP POP JUMP JUMPDEST PUSH2 0x38C4 DUP2 PUSH2 0x3858 JUMP JUMPDEST DUP3 MSTORE POP POP JUMP JUMPDEST PUSH1 0x0 PUSH1 0x20 DUP3 ADD SWAP1 POP PUSH2 0x38DF PUSH1 0x0 DUP4 ADD DUP5 PUSH2 0x38BB JUMP JUMPDEST SWAP3 SWAP2 POP POP JUMP JUMPDEST PUSH1 0x0 DUP1 PUSH1 0x40 DUP4 DUP6 SUB SLT ISZERO PUSH2 0x38FC JUMPI PUSH2 0x38FB PUSH2 0x3853 JUMP JUMPDEST JUMPDEST PUSH1 0x0 PUSH2 0x390A DUP6 DUP3 DUP7 ADD PUSH2 0x3879 JUMP JUMPDEST SWAP3 POP POP PUSH1 0x20 PUSH2 0x391B DUP6 DUP3 DUP7 ADD PUSH2 0x3879 JUMP JUMPDEST SWAP2 POP POP SWAP3 POP SWAP3 SWAP1 POP JUMP JUMPDEST PUSH1 0x0 DUP3 DUP3 MSTORE PUSH1 0x20 DUP3 ADD SWAP1 POP SWAP3 SWAP2 POP POP JUMP JUMPDEST PUSH32 0x42657420616D6F756E74206973206D6F7265207468616E2067616D652062616C PUSH1 0x0 DUP3 ADD MSTORE PUSH32 0x616E636500000000000000000000000000000000000000000000000000000000 PUSH1 0x20 DUP3 ADD MSTORE POP JUMP JUMPDEST PUSH1 0x0 PUSH2 0x3992 PUSH1 0x24 DUP4 PUSH2 0x3925 JUMP JUMPDEST SWAP2 POP PUSH2 0x399D DUP3 PUSH2 0x3936 JUMP JUMPDEST PUSH1 0x40 DUP3 ADD SWAP1 POP SWAP2 SWAP1 POP JUMP JUMPDEST PUSH1 0x0 PUSH1 0x20 DUP3 ADD SWAP1 POP DUP2 DUP2 SUB PUSH1 0x0 DUP4 ADD MSTORE PUSH2 0x39C1 DUP2 PUSH2 0x3985 JUMP JUMPDEST SWAP1 POP SWAP2 SWAP1 POP JUMP JUMPDEST PUSH32 0x4F6E6C7920706C617965722063616E20706C6163652062657400000000000000 PUSH1 0x0 DUP3 ADD MSTORE POP JUMP JUMPDEST PUSH1 0x0 PUSH2 0x39FE PUSH1 0x19 DUP4 PUSH2 0x3925 JUMP JUMPDEST SWAP2 POP PUSH2 0x3A09 DUP3 PUSH2 0x39C8 JUMP JUMPDEST PUSH1 0x20 DUP3 ADD SWAP1 POP SWAP2 SWAP1 POP JUMP JUMPDEST PUSH1 0x0 PUSH1 0x20 DUP3 ADD SWAP1 POP DUP2 DUP2 SUB PUSH1 0x0 DUP4 ADD MSTORE PUSH2 0x3A2D DUP2 PUSH2 0x39F1 JUMP JUMPDEST SWAP1 POP SWAP2 SWAP1 POP JUMP JUMPDEST PUSH32 0x5265656E7472616E6379206E6F7420616C6C6F77656400000000000000000000 PUSH1 0x0 DUP3 ADD MSTORE POP JUMP JUMPDEST PUSH1 0x0 PUSH2 0x3A6A PUSH1 0x16 DUP4 PUSH2 0x3925 JUMP JUMPDEST SWAP2 POP PUSH2 0x3A75 DUP3 PUSH2 0x3A34 JUMP JUMPDEST PUSH1 0x20 DUP3 ADD SWAP1 POP SWAP2 SWAP1 POP JUMP JUMPDEST PUSH1 0x0 PUSH1 0x20 DUP3 ADD SWAP1 POP DUP2 DUP2 SUB PUSH1 0x0 DUP4 ADD MSTORE PUSH2 0x3A99 DUP2 PUSH2 0x3A5D JUMP JUMPDEST SWAP1 POP SWAP2 SWAP1 POP JUMP JUMPDEST PUSH32 0x4E487B7100000000000000000000000000000000000000000000000000000000 PUSH1 0x0 MSTORE PUSH1 0x11 PUSH1 0x4 MSTORE PUSH1 0x24 PUSH1 0x0 REVERT JUMPDEST PUSH1 0x0 PUSH2 0x3ADA DUP3 PUSH2 0x3858 JUMP JUMPDEST SWAP2 POP PUSH2 0x3AE5 DUP4 PUSH2 0x3858 JUMP JUMPDEST SWAP3 POP DUP3 DUP3 SUB SWAP1 POP DUP2 DUP2 GT ISZERO PUSH2 0x3AFD JUMPI PUSH2 0x3AFC PUSH2 0x3AA0 JUMP JUMPDEST JUMPDEST SWAP3 SWAP2 POP POP JUMP JUMPDEST PUSH32 0x526567697374726174696F6E2061646472657373206973206E6F742076616C69 PUSH1 0x0 DUP3 ADD MSTORE PUSH32 0x6400000000000000000000000000000000000000000000000000000000000000 PUSH1 0x20 DUP3 ADD MSTORE POP JUMP JUMPDEST PUSH1 0x0 PUSH2 0x3B5F PUSH1 0x21 DUP4 PUSH2 0x3925 JUMP JUMPDEST SWAP2 POP PUSH2 0x3B6A DUP3 PUSH2 0x3B03 JUMP JUMPDEST PUSH1 0x40 DUP3 ADD SWAP1 POP SWAP2 SWAP1 POP JUMP JUMPDEST PUSH1 0x0 PUSH1 0x20 DUP3 ADD SWAP1 POP DUP2 DUP2 SUB PUSH1 0x0 DUP4 ADD MSTORE PUSH2 0x3B8E DUP2 PUSH2 0x3B52 JUMP JUMPDEST SWAP1 POP SWAP2 SWAP1 POP JUMP JUMPDEST PUSH32 0x506C61796572206D75737420626520686F757365283029206F7220706C617965 PUSH1 0x0 DUP3 ADD MSTORE PUSH32 0x7228312900000000000000000000000000000000000000000000000000000000 PUSH1 0x20 DUP3 ADD MSTORE POP JUMP JUMPDEST PUSH1 0x0 PUSH2 0x3BF1 PUSH1 0x24 DUP4 PUSH2 0x3925 JUMP JUMPDEST SWAP2 POP PUSH2 0x3BFC DUP3 PUSH2 0x3B95 JUMP JUMPDEST PUSH1 0x40 DUP3 ADD SWAP1 POP SWAP2 SWAP1 POP JUMP JUMPDEST PUSH1 0x0 PUSH1 0x20 DUP3 ADD SWAP1 POP DUP2 DUP2 SUB PUSH1 0x0 DUP4 ADD MSTORE PUSH2 0x3C20 DUP2 PUSH2 0x3BE4 JUMP JUMPDEST SWAP1 POP SWAP2 SWAP1 POP JUMP JUMPDEST PUSH32 0x53656E6465722061646472657373206D75737420626520686F75736557616C6C PUSH1 0x0 DUP3 ADD MSTORE PUSH32 0x6574000000000000000000000000000000000000000000000000000000000000 PUSH1 0x20 DUP3 ADD MSTORE POP JUMP JUMPDEST PUSH1 0x0 PUSH2 0x3C83 PUSH1 0x22 DUP4 PUSH2 0x3925 JUMP JUMPDEST SWAP2 POP PUSH2 0x3C8E DUP3 PUSH2 0x3C27 JUMP JUMPDEST PUSH1 0x40 DUP3 ADD SWAP1 POP SWAP2 SWAP1 POP JUMP JUMPDEST PUSH1 0x0 PUSH1 0x20 DUP3 ADD SWAP1 POP DUP2 DUP2 SUB PUSH1 0x0 DUP4 ADD MSTORE PUSH2 0x3CB2 DUP2 PUSH2 0x3C76 JUMP JUMPDEST SWAP1 POP SWAP2 SWAP1 POP JUMP JUMPDEST PUSH1 0x0 PUSH2 0x3CC4 DUP3 PUSH2 0x3858 JUMP JUMPDEST SWAP2 POP PUSH2 0x3CCF DUP4 PUSH2 0x3858 JUMP JUMPDEST SWAP3 POP DUP3 DUP3 ADD SWAP1 POP DUP1 DUP3 GT ISZERO PUSH2 0x3CE7 JUMPI PUSH2 0x3CE6 PUSH2 0x3AA0 JUMP JUMPDEST JUMPDEST SWAP3 SWAP2 POP POP JUMP JUMPDEST PUSH32 0x53656E6465722061646472657373206D75737420626520706C6179657257616C PUSH1 0x0 DUP3 ADD MSTORE PUSH32 0x6C65740000000000000000000000000000000000000000000000000000000000 PUSH1 0x20 DUP3 ADD MSTORE POP JUMP JUMPDEST PUSH1 0x0 PUSH2 0x3D49 PUSH1 0x23 DUP4 PUSH2 0x3925 JUMP JUMPDEST SWAP2 POP PUSH2 0x3D54 DUP3 PUSH2 0x3CED JUMP JUMPDEST PUSH1 0x40 DUP3 ADD SWAP1 POP SWAP2 SWAP1 POP JUMP JUMPDEST PUSH1 0x0 PUSH1 0x20 DUP3 ADD SWAP1 POP DUP2 DUP2 SUB PUSH1 0x0 DUP4 ADD MSTORE PUSH2 0x3D78 DUP2 PUSH2 0x3D3C JUMP JUMPDEST SWAP1 POP SWAP2 SWAP1 POP JUMP JUMPDEST PUSH32 0x4E487B7100000000000000000000000000000000000000000000000000000000 PUSH1 0x0 MSTORE PUSH1 0x32 PUSH1 0x4 MSTORE PUSH1 0x24 PUSH1 0x0 REVERT JUMPDEST PUSH1 0x0 PUSH2 0x3DB9 DUP3 PUSH2 0x3858 JUMP JUMPDEST SWAP2 POP PUSH32 0xFFFFFFFFFFFFFFFFFFFFFFFFFFFFFFFFFFFFFFFFFFFFFFFFFFFFFFFFFFFFFFFF DUP3 SUB PUSH2 0x3DEB JUMPI PUSH2 0x3DEA PUSH2 0x3AA0 JUMP JUMPDEST JUMPDEST PUSH1 0x1 DUP3 ADD SWAP1 POP SWAP2 SWAP1 POP JUMP JUMPDEST PUSH32 0x506C6179657220686173206E6F2062616C616E636520746F2077697468647261 PUSH1 0x0 DUP3 ADD MSTORE PUSH32 0x7700000000000000000000000000000000000000000000000000000000000000 PUSH1 0x20 DUP3 ADD MSTORE POP JUMP JUMPDEST PUSH1 0x0 PUSH2 0x3E52 PUSH1 0x21 DUP4 PUSH2 0x3925 JUMP JUMPDEST SWAP2 POP PUSH2 0x3E5D DUP3 PUSH2 0x3DF6 JUMP JUMPDEST PUSH1 0x40 DUP3 ADD SWAP1 POP SWAP2 SWAP1 POP JUMP JUMPDEST PUSH1 0x0 PUSH1 0x20 DUP3 ADD SWAP1 POP DUP2 DUP2 SUB PUSH1 0x0 DUP4 ADD MSTORE PUSH2 0x3E81 DUP2 PUSH2 0x3E45 JUMP JUMPDEST SWAP1 POP SWAP2 SWAP1 POP JUMP JUMPDEST PUSH32 0x4F6E6C7920706C617965722063616E2075736520746869732066756E6374696F PUSH1 0x0 DUP3 ADD MSTORE PUSH32 0x6E20776974686472617700000000000000000000000000000000000000000000 PUSH1 0x20 DUP3 ADD MSTORE POP JUMP JUMPDEST PUSH1 0x0 PUSH2 0x3EE4 PUSH1 0x2A DUP4 PUSH2 0x3925 JUMP JUMPDEST SWAP2 POP PUSH2 0x3EEF DUP3 PUSH2 0x3E88 JUMP JUMPDEST PUSH1 0x40 DUP3 ADD SWAP1 POP SWAP2 SWAP1 POP JUMP JUMPDEST PUSH1 0x0 PUSH1 0x20 DUP3 ADD SWAP1 POP DUP2 DUP2 SUB PUSH1 0x0 DUP4 ADD MSTORE PUSH2 0x3F13 DUP2 PUSH2 0x3ED7 JUMP JUMPDEST SWAP1 POP SWAP2 SWAP1 POP JUMP JUMPDEST PUSH32 0x596F75206172652072657175657374696E67206D6F7265207468616E20746865 PUSH1 0x0 DUP3 ADD MSTORE PUSH32 0x20706C617965722077616C6C657420636F6E7461696E73000000000000000000 PUSH1 0x20 DUP3 ADD MSTORE POP JUMP JUMPDEST PUSH1 0x0 PUSH2 0x3F76 PUSH1 0x37 DUP4 PUSH2 0x3925 JUMP JUMPDEST SWAP2 POP PUSH2 0x3F81 DUP3 PUSH2 0x3F1A JUMP JUMPDEST PUSH1 0x40 DUP3 ADD SWAP1 POP SWAP2 SWAP1 POP JUMP JUMPDEST PUSH1 0x0 PUSH1 0x20 DUP3 ADD SWAP1 POP DUP2 DUP2 SUB PUSH1 0x0 DUP4 ADD MSTORE PUSH2 0x3FA5 DUP2 PUSH2 0x3F69 JUMP JUMPDEST SWAP1 POP SWAP2 SWAP1 POP JUMP JUMPDEST PUSH32 0x506C617965722068617320616C72656164792073746F6F640000000000000000 PUSH1 0x0 DUP3 ADD MSTORE POP JUMP JUMPDEST PUSH1 0x0 PUSH2 0x3FE2 PUSH1 0x18 DUP4 PUSH2 0x3925 JUMP JUMPDEST SWAP2 POP PUSH2 0x3FED DUP3 PUSH2 0x3FAC JUMP JUMPDEST PUSH1 0x20 DUP3 ADD SWAP1 POP SWAP2 SWAP1 POP JUMP JUMPDEST PUSH1 0x0 PUSH1 0x20 DUP3 ADD SWAP1 POP DUP2 DUP2 SUB PUSH1 0x0 DUP4 ADD MSTORE PUSH2 0x4011 DUP2 PUSH2 0x3FD5 JUMP JUMPDEST SWAP1 POP SWAP2 SWAP1 POP JUMP JUMPDEST PUSH32 0x596F7527766520616C7265616479206275737465640000000000000000000000 PUSH1 0x0 DUP3 ADD MSTORE POP JUMP JUMPDEST PUSH1 0x0 PUSH2 0x404E PUSH1 0x15 DUP4 PUSH2 0x3925 JUMP JUMPDEST SWAP2 POP PUSH2 0x4059 DUP3 PUSH2 0x4018 JUMP JUMPDEST PUSH1 0x20 DUP3 ADD SWAP1 POP SWAP2 SWAP1 POP JUMP JUMPDEST PUSH1 0x0 PUSH1 0x20 DUP3 ADD SWAP1 POP DUP2 DUP2 SUB PUSH1 0x0 DUP4 ADD MSTORE PUSH2 0x407D DUP2 PUSH2 0x4041 JUMP JUMPDEST SWAP1 POP SWAP2 SWAP1 POP JUMP JUMPDEST PUSH32 0x47616D65206D75737420626520696E2070726F67726573730000000000000000 PUSH1 0x0 DUP3 ADD MSTORE POP JUMP JUMPDEST PUSH1 0x0 PUSH2 0x40BA PUSH1 0x18 DUP4 PUSH2 0x3925 JUMP JUMPDEST SWAP2 POP PUSH2 0x40C5 DUP3 PUSH2 0x4084 JUMP JUMPDEST PUSH1 0x20 DUP3 ADD SWAP1 POP SWAP2 SWAP1 POP JUMP JUMPDEST PUSH1 0x0 PUSH1 0x20 DUP3 ADD SWAP1 POP DUP2 DUP2 SUB PUSH1 0x0 DUP4 ADD MSTORE PUSH2 0x40E9 DUP2 PUSH2 0x40AD JUMP JUMPDEST SWAP1 POP SWAP2 SWAP1 POP JUMP JUMPDEST PUSH1 0x0 PUSH2 0x40FB DUP3 PUSH2 0x3858 JUMP JUMPDEST SWAP2 POP PUSH2 0x4106 DUP4 PUSH2 0x3858 JUMP JUMPDEST SWAP3 POP DUP3 DUP3 MUL PUSH2 0x4114 DUP2 PUSH2 0x3858 JUMP JUMPDEST SWAP2 POP DUP3 DUP3 DIV DUP5 EQ DUP4 ISZERO OR PUSH2 0x412B JUMPI PUSH2 0x412A PUSH2 0x3AA0 JUMP JUMPDEST JUMPDEST POP SWAP3 SWAP2 POP POP JUMP JUMPDEST PUSH1 0x0 DUP2 SWAP1 POP SWAP2 SWAP1 POP JUMP JUMPDEST PUSH2 0x414D PUSH2 0x4148 DUP3 PUSH2 0x3858 JUMP JUMPDEST PUSH2 0x4132 JUMP JUMPDEST DUP3 MSTORE POP POP JUMP JUMPDEST PUSH1 0x0 PUSH20 0xFFFFFFFFFFFFFFFFFFFFFFFFFFFFFFFFFFFFFFFF DUP3 AND SWAP1 POP SWAP2 SWAP1 POP JUMP JUMPDEST PUSH1 0x0 PUSH2 0x417E DUP3 PUSH2 0x4153 JUMP JUMPDEST SWAP1 POP SWAP2 SWAP1 POP JUMP JUMPDEST PUSH1 0x0 DUP2 PUSH1 0x60 SHL SWAP1 POP SWAP2 SWAP1 POP JUMP JUMPDEST PUSH1 0x0 PUSH2 0x419D DUP3 PUSH2 0x4185 JUMP JUMPDEST SWAP1 POP SWAP2 SWAP1 POP JUMP JUMPDEST PUSH1 0x0 PUSH2 0x41AF DUP3 PUSH2 0x4192 JUMP JUMPDEST SWAP1 POP SWAP2 SWAP1 POP JUMP JUMPDEST PUSH2 0x41C7 PUSH2 0x41C2 DUP3 PUSH2 0x4173 JUMP JUMPDEST PUSH2 0x41A4 JUMP JUMPDEST DUP3 MSTORE POP POP JUMP JUMPDEST PUSH1 0x0 PUSH2 0x41D9 DUP3 DUP7 PUSH2 0x413C JUMP JUMPDEST PUSH1 0x20 DUP3 ADD SWAP2 POP PUSH2 0x41E9 DUP3 DUP6 PUSH2 0x41B6 JUMP JUMPDEST PUSH1 0x14 DUP3 ADD SWAP2 POP PUSH2 0x41F9 DUP3 DUP5 PUSH2 0x413C JUMP JUMPDEST PUSH1 0x20 DUP3 ADD SWAP2 POP DUP2 SWAP1 POP SWAP5 SWAP4 POP POP POP POP JUMP JUMPDEST PUSH32 0x4E487B7100000000000000000000000000000000000000000000000000000000 PUSH1 0x0 MSTORE PUSH1 0x12 PUSH1 0x4 MSTORE PUSH1 0x24 PUSH1 0x0 REVERT JUMPDEST PUSH1 0x0 PUSH2 0x4244 DUP3 PUSH2 0x3858 JUMP JUMPDEST SWAP2 POP PUSH2 0x424F DUP4 PUSH2 0x3858 JUMP JUMPDEST SWAP3 POP DUP3 PUSH2 0x425F JUMPI PUSH2 0x425E PUSH2 0x420A JUMP JUMPDEST JUMPDEST DUP3 DUP3 MOD SWAP1 POP SWAP3 SWAP2 POP POP JUMP JUMPDEST PUSH32 0x4E487B7100000000000000000000000000000000000000000000000000000000 PUSH1 0x0 MSTORE PUSH1 0x41 PUSH1 0x4 MSTORE PUSH1 0x24 PUSH1 0x0 REVERT INVALID LOG2 PUSH5 0x6970667358 0x22 SLT KECCAK256 ISZERO SGT PUSH19 0x284A7D6EACDF8E460D5EE73B404579CD6E950D 0xAD 0xDB SLT SWAP7 0xEE 0x5F 0xDB PUSH25 0x13E464736F6C63430008110033000000000000000000000000 "
		},
		"gasEstimates": {
			"creation": {
				"codeDepositCost": "3420600",
				"executionCost": "132450",
				"totalCost": "3553050"
			},
			"external": {
				"BET_MAX()": "417",
				"BET_MIN()": "419",
				"betAmount()": "2539",
				"deal()": "infinite",
				"dealerBusted()": "2451",
				"dealerCardCount()": "2518",
				"dealerHandValue(uint256,uint256)": "infinite",
				"dealerStands()": "2540",
				"dealersCards(uint256,uint256)": "infinite",
				"finalDealerCount()": "2475",
				"finalPlayerCount()": "2495",
				"fundContract(uint256)": "infinite",
				"gameInProgress()": "2474",
				"hitPlayer()": "infinite",
				"houseBalance()": "2452",
				"placeBet(uint256)": "infinite",
				"playerBalance()": "2562",
				"playerBusted()": "2541",
				"playerCardCount()": "2474",
				"playerHandValue(uint256,uint256)": "infinite",
				"playerStand()": "236497",
				"playerStands()": "2452",
				"playerWithdraw(uint256)": "infinite",
				"playersCards(uint256,uint256)": "infinite"
			},
			"internal": {
				"dealerStand()": "infinite",
				"evaluateDealerHand()": "243715",
				"evaluatePlayerHand()": "207811",
				"gameIsPushed()": "5023",
				"getCards(uint256)": "infinite",
				"getRandom()": "infinite",
				"getSlice(uint256,uint256,string memory)": "infinite",
				"hitDealer()": "infinite",
				"numCardsInArray(uint256[2] memory[16] memory)": "infinite",
				"playerHasBlackJack()": "infinite",
				"pushToDealer(uint256,uint256,uint256)": "infinite",
				"pushToPlayer(uint256,uint256,uint256)": "infinite",
				"replaceDuplicates(uint256[2] memory[4] memory)": "infinite",
				"stringToUint(string memory)": "infinite",
				"sumDealersCards()": "infinite",
				"sumPlayersCards()": "infinite"
			}
		},
		"methodIdentifiers": {
			"BET_MAX()": "d0017a0c",
			"BET_MIN()": "2626ab08",
			"betAmount()": "d24257c0",
			"deal()": "553df021",
			"dealerBusted()": "c5c3cd78",
			"dealerCardCount()": "908a0979",
			"dealerHandValue(uint256,uint256)": "53a218c9",
			"dealerStands()": "a10926d6",
			"dealersCards(uint256,uint256)": "8bbb236f",
			"finalDealerCount()": "13bf01ed",
			"finalPlayerCount()": "cdc7ea51",
			"fundContract(uint256)": "3519a2f8",
			"gameInProgress()": "3fb64e75",
			"hitPlayer()": "dae10ed5",
			"houseBalance()": "67084eb3",
			"placeBet(uint256)": "10fe7c48",
			"playerBalance()": "651f066a",
			"playerBusted()": "325eb3f5",
			"playerCardCount()": "8914d63b",
			"playerHandValue(uint256,uint256)": "16dd37dd",
			"playerStand()": "c9f09d38",
			"playerStands()": "3c3248d5",
			"playerWithdraw(uint256)": "5629365b",
			"playersCards(uint256,uint256)": "bdbe451b"
		}
	},
	"abi": [
		{
			"inputs": [],
			"name": "BET_MAX",
			"outputs": [
				{
					"internalType": "uint256",
					"name": "",
					"type": "uint256"
				}
			],
			"stateMutability": "view",
			"type": "function"
		},
		{
			"inputs": [],
			"name": "BET_MIN",
			"outputs": [
				{
					"internalType": "uint256",
					"name": "",
					"type": "uint256"
				}
			],
			"stateMutability": "view",
			"type": "function"
		},
		{
			"inputs": [],
			"name": "betAmount",
			"outputs": [
				{
					"internalType": "uint256",
					"name": "",
					"type": "uint256"
				}
			],
			"stateMutability": "view",
			"type": "function"
		},
		{
			"inputs": [],
			"name": "deal",
			"outputs": [],
			"stateMutability": "nonpayable",
			"type": "function"
		},
		{
			"inputs": [],
			"name": "dealerBusted",
			"outputs": [
				{
					"internalType": "uint256",
					"name": "",
					"type": "uint256"
				}
			],
			"stateMutability": "view",
			"type": "function"
		},
		{
			"inputs": [],
			"name": "dealerCardCount",
			"outputs": [
				{
					"internalType": "uint256",
					"name": "",
					"type": "uint256"
				}
			],
			"stateMutability": "view",
			"type": "function"
		},
		{
			"inputs": [
				{
					"internalType": "uint256",
					"name": "",
					"type": "uint256"
				},
				{
					"internalType": "uint256",
					"name": "",
					"type": "uint256"
				}
			],
			"name": "dealerHandValue",
			"outputs": [
				{
					"internalType": "uint256",
					"name": "",
					"type": "uint256"
				}
			],
			"stateMutability": "view",
			"type": "function"
		},
		{
			"inputs": [],
			"name": "dealerStands",
			"outputs": [
				{
					"internalType": "uint256",
					"name": "",
					"type": "uint256"
				}
			],
			"stateMutability": "view",
			"type": "function"
		},
		{
			"inputs": [
				{
					"internalType": "uint256",
					"name": "",
					"type": "uint256"
				},
				{
					"internalType": "uint256",
					"name": "",
					"type": "uint256"
				}
			],
			"name": "dealersCards",
			"outputs": [
				{
					"internalType": "uint256",
					"name": "",
					"type": "uint256"
				}
			],
			"stateMutability": "view",
			"type": "function"
		},
		{
			"inputs": [],
			"name": "finalDealerCount",
			"outputs": [
				{
					"internalType": "uint256",
					"name": "",
					"type": "uint256"
				}
			],
			"stateMutability": "view",
			"type": "function"
		},
		{
			"inputs": [],
			"name": "finalPlayerCount",
			"outputs": [
				{
					"internalType": "uint256",
					"name": "",
					"type": "uint256"
				}
			],
			"stateMutability": "view",
			"type": "function"
		},
		{
			"inputs": [
				{
					"internalType": "uint256",
					"name": "house_or_player",
					"type": "uint256"
				}
			],
			"name": "fundContract",
			"outputs": [],
			"stateMutability": "payable",
			"type": "function"
		},
		{
			"inputs": [],
			"name": "gameInProgress",
			"outputs": [
				{
					"internalType": "uint256",
					"name": "",
					"type": "uint256"
				}
			],
			"stateMutability": "view",
			"type": "function"
		},
		{
			"inputs": [],
			"name": "hitPlayer",
			"outputs": [],
			"stateMutability": "nonpayable",
			"type": "function"
		},
		{
			"inputs": [],
			"name": "houseBalance",
			"outputs": [
				{
					"internalType": "uint256",
					"name": "",
					"type": "uint256"
				}
			],
			"stateMutability": "view",
			"type": "function"
		},
		{
			"inputs": [
				{
					"internalType": "uint256",
					"name": "_betAmount",
					"type": "uint256"
				}
			],
			"name": "placeBet",
			"outputs": [],
			"stateMutability": "payable",
			"type": "function"
		},
		{
			"inputs": [],
			"name": "playerBalance",
			"outputs": [
				{
					"internalType": "uint256",
					"name": "",
					"type": "uint256"
				}
			],
			"stateMutability": "view",
			"type": "function"
		},
		{
			"inputs": [],
			"name": "playerBusted",
			"outputs": [
				{
					"internalType": "uint256",
					"name": "",
					"type": "uint256"
				}
			],
			"stateMutability": "view",
			"type": "function"
		},
		{
			"inputs": [],
			"name": "playerCardCount",
			"outputs": [
				{
					"internalType": "uint256",
					"name": "",
					"type": "uint256"
				}
			],
			"stateMutability": "view",
			"type": "function"
		},
		{
			"inputs": [
				{
					"internalType": "uint256",
					"name": "",
					"type": "uint256"
				},
				{
					"internalType": "uint256",
					"name": "",
					"type": "uint256"
				}
			],
			"name": "playerHandValue",
			"outputs": [
				{
					"internalType": "uint256",
					"name": "",
					"type": "uint256"
				}
			],
			"stateMutability": "view",
			"type": "function"
		},
		{
			"inputs": [],
			"name": "playerStand",
			"outputs": [],
			"stateMutability": "nonpayable",
			"type": "function"
		},
		{
			"inputs": [],
			"name": "playerStands",
			"outputs": [
				{
					"internalType": "uint256",
					"name": "",
					"type": "uint256"
				}
			],
			"stateMutability": "view",
			"type": "function"
		},
		{
			"inputs": [
				{
					"internalType": "uint256",
					"name": "amount",
					"type": "uint256"
				}
			],
			"name": "playerWithdraw",
			"outputs": [],
			"stateMutability": "payable",
			"type": "function"
		},
		{
			"inputs": [
				{
					"internalType": "uint256",
					"name": "",
					"type": "uint256"
				},
				{
					"internalType": "uint256",
					"name": "",
					"type": "uint256"
				}
			],
			"name": "playersCards",
			"outputs": [
				{
					"internalType": "uint256",
					"name": "",
					"type": "uint256"
				}
			],
			"stateMutability": "view",
			"type": "function"
		}
	]
}