{
	"data": {
		"bytecode": {
			"linkReferences": {},
			"object": "6080604052600060015560006002556000600355600060045560006005556000600655600060075560006050556000605155600060525560006053556000605c556000605d556000605e556000605f5560405180602001604052806000815250606090816200006f9190620003a8565b506040518060200160405280600081525060619081620000909190620003a8565b5060006063556000606460006101000a81548173ffffffffffffffffffffffffffffffffffffffff021916908373ffffffffffffffffffffffffffffffffffffffff1602179055506000606560006101000a81548173ffffffffffffffffffffffffffffffffffffffff021916908373ffffffffffffffffffffffffffffffffffffffff1602179055503480156200012757600080fd5b506200048f565b600081519050919050565b7f4e487b7100000000000000000000000000000000000000000000000000000000600052604160045260246000fd5b7f4e487b7100000000000000000000000000000000000000000000000000000000600052602260045260246000fd5b60006002820490506001821680620001b057607f821691505b602082108103620001c657620001c562000168565b5b50919050565b60008190508160005260206000209050919050565b60006020601f8301049050919050565b600082821b905092915050565b600060088302620002307fffffffffffffffffffffffffffffffffffffffffffffffffffffffffffffffff82620001f1565b6200023c8683620001f1565b95508019841693508086168417925050509392505050565b6000819050919050565b6000819050919050565b600062000289620002836200027d8462000254565b6200025e565b62000254565b9050919050565b6000819050919050565b620002a58362000268565b620002bd620002b48262000290565b848454620001fe565b825550505050565b600090565b620002d4620002c5565b620002e18184846200029a565b505050565b5b818110156200030957620002fd600082620002ca565b600181019050620002e7565b5050565b601f82111562000358576200032281620001cc565b6200032d84620001e1565b810160208510156200033d578190505b620003556200034c85620001e1565b830182620002e6565b50505b505050565b600082821c905092915050565b60006200037d600019846008026200035d565b1980831691505092915050565b60006200039883836200036a565b9150826002028217905092915050565b620003b3826200012e565b67ffffffffffffffff811115620003cf57620003ce62000139565b5b620003db825462000197565b620003e88282856200030d565b600060209050601f8311600181146200042057600084156200040b578287015190505b6200041785826200038a565b86555062000487565b601f1984166200043086620001cc565b60005b828110156200045a5784890151825560018201915060208501945060208101905062000433565b868310156200047a578489015162000476601f8916826200036a565b8355505b6001600288020188555050505b505050505050565b614f04806200049f6000396000f3fe6080604052600436106101b75760003560e01c80637b0d3625116100ec578063c315db2c1161008a578063cdc7ea5111610064578063cdc7ea51146105b3578063d0017a0c146105de578063d24257c014610609578063dae10ed514610634576101b7565b8063c315db2c1461055a578063c5c3cd7814610571578063c9f09d381461059c576101b7565b8063908a0979116100c6578063908a0979146104b0578063a10926d6146104db578063bdbe451b14610506578063c2855a5914610543576101b7565b80637b0d36251461040b5780638914d63b146104485780638bbb236f14610473576101b7565b80633c3248d511610159578063553df02111610133578063553df021146103825780635629365b14610399578063651f066a146103b557806367084eb3146103e0576101b7565b80633c3248d5146102ef5780633fb64e751461031a57806353a218c914610345576101b7565b80632626ab08116101955780632626ab08146102405780632fcb69921461026b578063325eb3f5146102a85780633519a2f8146102d3576101b7565b806310fe7c48146101bc57806313bf01ed146101d857806316dd37dd14610203575b600080fd5b6101d660048036038101906101d19190613e14565b61064b565b005b3480156101e457600080fd5b506101ed6107e8565b6040516101fa9190613e50565b60405180910390f35b34801561020f57600080fd5b5061022a60048036038101906102259190613e6b565b6107ee565b6040516102379190613e50565b60405180910390f35b34801561024c57600080fd5b5061025561081c565b6040516102629190613e50565b60405180910390f35b34801561027757600080fd5b50610292600480360381019061028d9190613e6b565b610821565b60405161029f9190613e50565b60405180910390f35b3480156102b457600080fd5b506102bd61084f565b6040516102ca9190613e50565b60405180910390f35b6102ed60048036038101906102e89190613e14565b610855565b005b3480156102fb57600080fd5b50610304610d84565b6040516103119190613e50565b60405180910390f35b34801561032657600080fd5b5061032f610d8a565b60405161033c9190613e50565b60405180910390f35b34801561035157600080fd5b5061036c60048036038101906103679190613e6b565b610d90565b6040516103799190613e50565b60405180910390f35b34801561038e57600080fd5b50610397610dbe565b005b6103b360048036038101906103ae9190613e14565b61126a565b005b3480156103c157600080fd5b506103ca611488565b6040516103d79190613e50565b60405180910390f35b3480156103ec57600080fd5b506103f561148e565b6040516104029190613e50565b60405180910390f35b34801561041757600080fd5b50610432600480360381019061042d91906140a3565b611494565b60405161043f9190614218565b60405180910390f35b34801561045457600080fd5b5061045d6117f6565b60405161046a9190613e50565b60405180910390f35b34801561047f57600080fd5b5061049a60048036038101906104959190613e6b565b6117fc565b6040516104a79190613e50565b60405180910390f35b3480156104bc57600080fd5b506104c561182a565b6040516104d29190613e50565b60405180910390f35b3480156104e757600080fd5b506104f0611830565b6040516104fd9190613e50565b60405180910390f35b34801561051257600080fd5b5061052d60048036038101906105289190613e6b565b611836565b60405161053a9190613e50565b60405180910390f35b34801561054f57600080fd5b50610558611864565b005b34801561056657600080fd5b5061056f611b2f565b005b34801561057d57600080fd5b50610586611b8e565b6040516105939190613e50565b60405180910390f35b3480156105a857600080fd5b506105b1611b94565b005b3480156105bf57600080fd5b506105c8611beb565b6040516105d59190613e50565b60405180910390f35b3480156105ea57600080fd5b506105f3611bf1565b6040516106009190613e50565b60405180910390f35b34801561061557600080fd5b5061061e611bfd565b60405161062b9190613e50565b60405180910390f35b34801561064057600080fd5b50610649611c03565b005b600454600134101580156106675750678ac7230489e800003411155b61067057600080fd5b60035460045411156106b7576040517f08c379a00000000000000000000000000000000000000000000000000000000081526004016106ae906142b7565b60405180910390fd5b606460009054906101000a900473ffffffffffffffffffffffffffffffffffffffff1673ffffffffffffffffffffffffffffffffffffffff163373ffffffffffffffffffffffffffffffffffffffff1614610747576040517f08c379a000000000000000000000000000000000000000000000000000000000815260040161073e90614323565b60405180910390fd5b60008054906101000a900460ff1615610795576040517f08c379a000000000000000000000000000000000000000000000000000000000815260040161078c9061438f565b60405180910390fd5b60016000806101000a81548160ff021916908315150217905550816003546107bd91906143de565b6003819055508160048190555060008060006101000a81548160ff0219169083151502179055505050565b605d5481565b605482600281106107fe57600080fd5b60020201816002811061081057600080fd5b01600091509150505481565b600181565b6048826004811061083157600080fd5b60020201816002811061084357600080fd5b01600091509150505481565b60525481565b80600073ffffffffffffffffffffffffffffffffffffffff16606560009054906101000a900473ffffffffffffffffffffffffffffffffffffffff1673ffffffffffffffffffffffffffffffffffffffff1614806109015750600073ffffffffffffffffffffffffffffffffffffffff16606460009054906101000a900473ffffffffffffffffffffffffffffffffffffffff1673ffffffffffffffffffffffffffffffffffffffff16145b806109595750606560009054906101000a900473ffffffffffffffffffffffffffffffffffffffff1673ffffffffffffffffffffffffffffffffffffffff163373ffffffffffffffffffffffffffffffffffffffff16145b806109b15750606460009054906101000a900473ffffffffffffffffffffffffffffffffffffffff1673ffffffffffffffffffffffffffffffffffffffff163373ffffffffffffffffffffffffffffffffffffffff16145b6109f0576040517f08c379a00000000000000000000000000000000000000000000000000000000081526004016109e790614484565b60405180910390fd5b60008114806109ff5750600181145b610a3e576040517f08c379a0000000000000000000000000000000000000000000000000000000008152600401610a3590614516565b60405180910390fd5b60008203610bdf57606560009054906101000a900473ffffffffffffffffffffffffffffffffffffffff1673ffffffffffffffffffffffffffffffffffffffff163373ffffffffffffffffffffffffffffffffffffffff161480610af05750600073ffffffffffffffffffffffffffffffffffffffff16606560009054906101000a900473ffffffffffffffffffffffffffffffffffffffff1673ffffffffffffffffffffffffffffffffffffffff16145b8015610b4a5750606460009054906101000a900473ffffffffffffffffffffffffffffffffffffffff1673ffffffffffffffffffffffffffffffffffffffff163373ffffffffffffffffffffffffffffffffffffffff1614155b610b89576040517f08c379a0000000000000000000000000000000000000000000000000000000008152600401610b80906145a8565b60405180910390fd5b33606560006101000a81548173ffffffffffffffffffffffffffffffffffffffff021916908373ffffffffffffffffffffffffffffffffffffffff16021790555034600254610bd891906145c8565b6002819055505b60018203610d8057606460009054906101000a900473ffffffffffffffffffffffffffffffffffffffff1673ffffffffffffffffffffffffffffffffffffffff163373ffffffffffffffffffffffffffffffffffffffff161480610c915750600073ffffffffffffffffffffffffffffffffffffffff16606460009054906101000a900473ffffffffffffffffffffffffffffffffffffffff1673ffffffffffffffffffffffffffffffffffffffff16145b8015610ceb5750606560009054906101000a900473ffffffffffffffffffffffffffffffffffffffff1673ffffffffffffffffffffffffffffffffffffffff163373ffffffffffffffffffffffffffffffffffffffff1614155b610d2a576040517f08c379a0000000000000000000000000000000000000000000000000000000008152600401610d219061466e565b60405180910390fd5b33606460006101000a81548173ffffffffffffffffffffffffffffffffffffffff021916908373ffffffffffffffffffffffffffffffffffffffff16021790555034600354610d7991906145c8565b6003819055505b5050565b605e5481565b60015481565b60588260028110610da057600080fd5b600202018160028110610db257600080fd5b01600091509150505481565b60008054906101000a900460ff1615610e0c576040517f08c379a0000000000000000000000000000000000000000000000000000000008152600401610e039061438f565b60405180910390fd5b60016000806101000a81548160ff021916908315150217905550600180819055506000605e81905550600060528190555060006053819055506000605e819055506000605f819055506000605d819055506000605c8190555060006054600160028110610e7c57610e7b61468e565b5b60020201600060028110610e9357610e9261468e565b5b018190555060006054600160028110610eaf57610eae61468e565b5b60020201600160028110610ec657610ec561468e565b5b01819055506000600190505b601081101561102457600060088260108110610ef157610ef061468e565b5b60020201600060028110610f0857610f0761468e565b5b0181905550600060088260108110610f2357610f2261468e565b5b60020201600160028110610f3a57610f3961468e565b5b0181905550600060288260108110610f5557610f5461468e565b5b60020201600060028110610f6c57610f6b61468e565b5b0181905550600060288260108110610f8757610f8661468e565b5b60020201600160028110610f9e57610f9d61468e565b5b0181905550600481101561101157600060488260048110610fc257610fc161468e565b5b60020201600060028110610fd957610fd861468e565b5b0181905550600060488260048110610ff457610ff361468e565b5b6002020160016002811061100b5761100a61468e565b5b01819055505b808061101c906146bd565b915050610ed2565b5061102f6003611f9c565b6110ad6048600480602002604051908101604052809291906000905b828210156110a457838260020201600280602002604051908101604052809291908260028015611090576020028201915b81548152602001906001019080831161107c575b50505050508152602001906001019061104b565b50505050611494565b60489060046110bd929190613ca0565b5061112460486001600481106110d6576110d561468e565b5b600202016000600281106110ed576110ec61468e565b5b015460486001600481106111045761110361468e565b5b6002020160016002811061111b5761111a61468e565b5b015460016127ac565b61118a604860026004811061113c5761113b61468e565b5b600202016000600281106111535761115261468e565b5b0154604860026004811061116a5761116961468e565b5b600202016001600281106111815761118061468e565b5b01546001612897565b6111f060486003600481106111a2576111a161468e565b5b600202016000600281106111b9576111b861468e565b5b015460486003600481106111d0576111cf61468e565b5b600202016001600281106111e7576111e661468e565b5b015460026127ac565b6111f8612982565b611200612bf7565b611208612e6c565b611210613304565b601560546001600281106112275761122661468e565b5b6002020160016002811061123e5761123d61468e565b5b01540361124e5761124d61379c565b5b60008060006101000a81548160ff021916908315150217905550565b806000600354116112b0576040517f08c379a00000000000000000000000000000000000000000000000000000000081526004016112a790614777565b60405180910390fd5b606460009054906101000a900473ffffffffffffffffffffffffffffffffffffffff1673ffffffffffffffffffffffffffffffffffffffff163373ffffffffffffffffffffffffffffffffffffffff1614611340576040517f08c379a000000000000000000000000000000000000000000000000000000000815260040161133790614809565b60405180910390fd5b600354811115611385576040517f08c379a000000000000000000000000000000000000000000000000000000000815260040161137c9061489b565b60405180910390fd5b60008054906101000a900460ff16156113d3576040517f08c379a00000000000000000000000000000000000000000000000000000000081526004016113ca9061438f565b60405180910390fd5b60016000806101000a81548160ff021916908315150217905550816003546113fb91906143de565b600381905550606460009054906101000a900473ffffffffffffffffffffffffffffffffffffffff1673ffffffffffffffffffffffffffffffffffffffff166108fc839081150290604051600060405180830381858888f19350505050158015611469573d6000803e3d6000fd5b5060008060006101000a81548160ff0219169083151502179055505050565b60035481565b60025481565b61149c613cf1565b5b816002600481106114b1576114b061468e565b5b60200201516000600281106114c9576114c861468e565b5b6020020151826001600481106114e2576114e161468e565b5b60200201516000600281106114fa576114f961468e565b5b602002015114801561156b57508160026004811061151b5761151a61468e565b5b60200201516001600281106115335761153261468e565b5b60200201518260016004811061154c5761154b61468e565b5b60200201516001600281106115645761156361468e565b5b6020020151145b156116455761157a6001611f9c565b604860026004811061158f5761158e61468e565b5b600202016000600281106115a6576115a561468e565b5b0154826001600481106115bc576115bb61468e565b5b60200201516000600281106115d4576115d361468e565b5b60200201818152505060486001600481106115f2576115f161468e565b5b600202016001600281106116095761160861468e565b5b01548260026004811061161f5761161e61468e565b5b60200201516001600281106116375761163661468e565b5b60200201818152505061149d565b5b8160036004811061165a5761165961468e565b5b60200201516000600281106116725761167161468e565b5b60200201518260026004811061168b5761168a61468e565b5b60200201516000600281106116a3576116a261468e565b5b60200201511480156117145750816003600481106116c4576116c361468e565b5b60200201516001600281106116dc576116db61468e565b5b6020020151826002600481106116f5576116f461468e565b5b602002015160016002811061170d5761170c61468e565b5b6020020151145b156117ee576117236001611f9c565b60486001600481106117385761173761468e565b5b6002020160006002811061174f5761174e61468e565b5b0154826003600481106117655761176461468e565b5b602002015160006002811061177d5761177c61468e565b5b602002018181525050604860016004811061179b5761179a61468e565b5b600202016001600281106117b2576117b161468e565b5b0154826003600481106117c8576117c761468e565b5b60200201516001600281106117e0576117df61468e565b5b602002018181525050611646565b819050919050565b60505481565b6028826010811061180c57600080fd5b60020201816002811061181e57600080fd5b01600091509150505481565b60515481565b605f5481565b6008826010811061184657600080fd5b60020201816002811061185857600080fd5b01600091509150505481565b60006118e46028601080602002604051908101604052809291906000905b828210156118db578382600202016002806020026040519081016040528092919082600280156118c7576020028201915b8154815260200190600101908083116118b3575b505050505081526020019060010190611882565b505050506137a6565b90506118f06001611f9c565b6000600190505b818111611aaa575b60486001600481106119145761191361468e565b5b6002020160006002811061192b5761192a61468e565b5b0154600882601081106119415761194061468e565b5b600202016000600281106119585761195761468e565b5b015414806119be575060486001600481106119765761197561468e565b5b6002020160006002811061198d5761198c61468e565b5b0154602882601081106119a3576119a261468e565b5b600202016000600281106119ba576119b961468e565b5b0154145b15611a975760486001600481106119d8576119d761468e565b5b600202016001600281106119ef576119ee61468e565b5b015460088260108110611a0557611a0461468e565b5b60020201600160028110611a1c57611a1b61468e565b5b01541480611a8257506048600160048110611a3a57611a3961468e565b5b60020201600160028110611a5157611a5061468e565b5b015460288260108110611a6757611a6661468e565b5b60020201600160028110611a7e57611a7d61468e565b5b0154145b15611a9257611a916001611f9c565b5b6118ff565b8080611aa2906146bd565b9150506118f7565b50611b1c6048600160048110611ac357611ac261468e565b5b60020201600060028110611ada57611ad961468e565b5b01546048600160048110611af157611af061468e565b5b60020201600160028110611b0857611b0761468e565b5b0154600184611b1791906145c8565b612897565b611b24612bf7565b611b2c612e6c565b50565b6000605f5414611b74576040517f08c379a0000000000000000000000000000000000000000000000000000000008152600401611b6b90614907565b60405180910390fd5b6001605f81905550611b84612e6c565b6000600181905550565b60535481565b6000605e5414611bd9576040517f08c379a0000000000000000000000000000000000000000000000000000000008152600401611bd090614973565b60405180910390fd5b6001605e81905550611be9613304565b565b605c5481565b678ac7230489e8000081565b60045481565b6001805414611c47576040517f08c379a0000000000000000000000000000000000000000000000000000000008152600401611c3e906149df565b60405180910390fd5b600060525414611c8c576040517f08c379a0000000000000000000000000000000000000000000000000000000008152600401611c8390614a4b565b60405180910390fd5b6000605e5414611cd1576040517f08c379a0000000000000000000000000000000000000000000000000000000008152600401611cc890614973565b60405180910390fd5b6000611d516008601080602002604051908101604052809291906000905b82821015611d4857838260020201600280602002604051908101604052809291908260028015611d34576020028201915b815481526020019060010190808311611d20575b505050505081526020019060010190611cef565b505050506137a6565b9050611d5d6001611f9c565b6000600190505b818111611f17575b6048600160048110611d8157611d8061468e565b5b60020201600060028110611d9857611d9761468e565b5b015460088260108110611dae57611dad61468e565b5b60020201600060028110611dc557611dc461468e565b5b01541480611e2b57506048600160048110611de357611de261468e565b5b60020201600060028110611dfa57611df961468e565b5b015460288260108110611e1057611e0f61468e565b5b60020201600060028110611e2757611e2661468e565b5b0154145b15611f04576048600160048110611e4557611e4461468e565b5b60020201600160028110611e5c57611e5b61468e565b5b015460088260108110611e7257611e7161468e565b5b60020201600160028110611e8957611e8861468e565b5b01541480611eef57506048600160048110611ea757611ea661468e565b5b60020201600160028110611ebe57611ebd61468e565b5b015460288260108110611ed457611ed361468e565b5b60020201600160028110611eeb57611eea61468e565b5b0154145b15611eff57611efe6001611f9c565b5b611d6c565b8080611f0f906146bd565b915050611d64565b50611f896048600160048110611f3057611f2f61468e565b5b60020201600060028110611f4757611f4661468e565b5b01546048600160048110611f5e57611f5d61468e565b5b60020201600160028110611f7557611f7461468e565b5b0154600184611f8491906145c8565b6127ac565b611f91612982565b611f99613304565b50565b6000600190505b8181116127a85760006003905060006004905060006007819055506000600681905550611fce61381e565b600581905550611fdf6005546138d2565b60609081611fed9190614c82565b5061208382826060805461200090614aa5565b80601f016020809104026020016040519081016040528092919081815260200182805461202c90614aa5565b80156120795780601f1061204e57610100808354040283529160200191612079565b820191906000526020600020905b81548152906001019060200180831161205c57829003601f168201915b50505050506139a0565b606190816120919190614c82565b50612125606180546120a290614aa5565b80601f01602080910402602001604051908101604052809291908181526020018280546120ce90614aa5565b801561211b5780601f106120f05761010080835404028352916020019161211b565b820191906000526020600020905b8154815290600101906020018083116120fe57829003601f168201915b5050505050613ab5565b6005819055506060805461213890614aa5565b90506062819055505b600160055410806121545750600d600554115b156124525760028261216691906145c8565b915060028161217591906145c8565b905061220c82826060805461218990614aa5565b80601f01602080910402602001604051908101604052809291908181526020018280546121b590614aa5565b80156122025780601f106121d757610100808354040283529160200191612202565b820191906000526020600020905b8154815290600101906020018083116121e557829003601f168201915b50505050506139a0565b6061908161221a9190614c82565b506122ae6061805461222b90614aa5565b80601f016020809104026020016040519081016040528092919081815260200182805461225790614aa5565b80156122a45780601f10612279576101008083540402835291602001916122a4565b820191906000526020600020905b81548152906001019060200180831161228757829003601f168201915b5050505050613ab5565b60058190555060036062546122c391906143de565b82111561244d5760039150600490506122da61381e565b6005819055506122eb6005546138d2565b606090816122f99190614c82565b5061238f82826060805461230c90614aa5565b80601f016020809104026020016040519081016040528092919081815260200182805461233890614aa5565b80156123855780601f1061235a57610100808354040283529160200191612385565b820191906000526020600020905b81548152906001019060200180831161236857829003601f168201915b50505050506139a0565b6061908161239d9190614c82565b50612431606180546123ae90614aa5565b80601f01602080910402602001604051908101604052809291908181526020018280546123da90614aa5565b80156124275780601f106123fc57610100808354040283529160200191612427565b820191906000526020600020905b81548152906001019060200180831161240a57829003601f168201915b5050505050613ab5565b6005819055506060805461244490614aa5565b90506062819055505b612141565b60055460078190555060028261246891906145c8565b915060028161247791906145c8565b905061250e82826060805461248b90614aa5565b80601f01602080910402602001604051908101604052809291908181526020018280546124b790614aa5565b80156125045780601f106124d957610100808354040283529160200191612504565b820191906000526020600020905b8154815290600101906020018083116124e757829003601f168201915b50505050506139a0565b6061908161251c9190614c82565b506125b06061805461252d90614aa5565b80601f016020809104026020016040519081016040528092919081815260200182805461255990614aa5565b80156125a65780601f1061257b576101008083540402835291602001916125a6565b820191906000526020600020905b81548152906001019060200180831161258957829003601f168201915b5050505050613ab5565b6005819055505b600160055410806125ca57506004600554115b15612723576001826125dc91906145c8565b91508190506126768282606080546125f390614aa5565b80601f016020809104026020016040519081016040528092919081815260200182805461261f90614aa5565b801561266c5780601f106126415761010080835404028352916020019161266c565b820191906000526020600020905b81548152906001019060200180831161264f57829003601f168201915b50505050506139a0565b606190816126849190614c82565b506127186061805461269590614aa5565b80601f01602080910402602001604051908101604052809291908181526020018280546126c190614aa5565b801561270e5780601f106126e35761010080835404028352916020019161270e565b820191906000526020600020905b8154815290600101906020018083116126f157829003601f168201915b5050505050613ab5565b6005819055506125b7565b600554600681905550600754604884600481106127435761274261468e565b5b6002020160006002811061275a5761275961468e565b5b0181905550600654604884600481106127765761277561468e565b5b6002020160016002811061278d5761278c61468e565b5b018190555060018361279f91906145c8565b92505050611fa3565b5050565b82600882601081106127c1576127c061468e565b5b600202016000600281106127d8576127d761468e565b5b018190555081600882601081106127f2576127f161468e565b5b600202016001600281106128095761280861468e565b5b018190555061288c6008601080602002604051908101604052809291906000905b828210156128835783826002020160028060200260405190810160405280929190826002801561286f576020028201915b81548152602001906001019080831161285b575b50505050508152602001906001019061282a565b505050506137a6565b605081905550505050565b82602882601081106128ac576128ab61468e565b5b600202016000600281106128c3576128c261468e565b5b018190555081602882601081106128dd576128dc61468e565b5b600202016001600281106128f4576128f361468e565b5b01819055506129776028601080602002604051908101604052809291906000905b8282101561296e5783826002020160028060200260405190810160405280929190826002801561295a576020028201915b815481526020019060010190808311612946575b505050505081526020019060010190612915565b505050506137a6565b605181905550505050565b600080612a036008601080602002604051908101604052809291906000905b828210156129fa578382600202016002806020026040519081016040528092919082600280156129e6576020028201915b8154815260200190600101908083116129d2575b5050505050815260200190600101906129a1565b505050506137a6565b6050819055506000600190505b6050548111612b1a57600960088260108110612a2f57612a2e61468e565b5b60020201600060028110612a4657612a4561468e565b5b01541115612a5e57600a83612a5b91906145c8565b92505b600a60088260108110612a7457612a7361468e565b5b60020201600060028110612a8b57612a8a61468e565b5b01541015612ace5760088160108110612aa757612aa661468e565b5b60020201600060028110612abe57612abd61468e565b5b015483612acb91906145c8565b92505b600160088260108110612ae457612ae361468e565b5b60020201600060028110612afb57612afa61468e565b5b015403612b0757600191505b8080612b12906146bd565b915050612a10565b50816054600160028110612b3157612b3061468e565b5b60020201600060028110612b4857612b4761468e565b5b0181905550816054600160028110612b6357612b6261468e565b5b60020201600160028110612b7a57612b7961468e565b5b018190555060018103612bf357600a6054600160028110612b9e57612b9d61468e565b5b60020201600160028110612bb557612bb461468e565b5b0154612bc191906145c8565b6054600160028110612bd657612bd561468e565b5b60020201600160028110612bed57612bec61468e565b5b01819055505b5050565b600080612c786028601080602002604051908101604052809291906000905b82821015612c6f57838260020201600280602002604051908101604052809291908260028015612c5b576020028201915b815481526020019060010190808311612c47575b505050505081526020019060010190612c16565b505050506137a6565b6051819055506000600190505b6051548111612d8f57600960288260108110612ca457612ca361468e565b5b60020201600060028110612cbb57612cba61468e565b5b01541115612cd357600a83612cd091906145c8565b92505b600a60288260108110612ce957612ce861468e565b5b60020201600060028110612d0057612cff61468e565b5b01541015612d435760288160108110612d1c57612d1b61468e565b5b60020201600060028110612d3357612d3261468e565b5b015483612d4091906145c8565b92505b600160288260108110612d5957612d5861468e565b5b60020201600060028110612d7057612d6f61468e565b5b015403612d7c57600191505b8080612d87906146bd565b915050612c85565b50816058600160028110612da657612da561468e565b5b60020201600060028110612dbd57612dbc61468e565b5b0181905550816058600160028110612dd857612dd761468e565b5b60020201600160028110612def57612dee61468e565b5b018190555060018103612e6857600a6058600160028110612e1357612e1261468e565b5b60020201600160028110612e2a57612e2961468e565b5b0154612e3691906145c8565b6058600160028110612e4b57612e4a61468e565b5b60020201600160028110612e6257612e6161468e565b5b01819055505b5050565b60156058600160028110612e8357612e8261468e565b5b60020201600060028110612e9a57612e9961468e565b5b0154118015612ed6575060156058600160028110612ebb57612eba61468e565b5b60020201600160028110612ed257612ed161468e565b5b0154115b1561301957600160538190555060006001819055506058600160028110612f0057612eff61468e565b5b60020201600160028110612f1757612f1661468e565b5b01546058600160028110612f2e57612f2d61468e565b5b60020201600060028110612f4557612f4461468e565b5b015411612f81576058600160028110612f6157612f6061468e565b5b60020201600060028110612f7857612f7761468e565b5b0154605d819055505b6058600160028110612f9657612f9561468e565b5b60020201600160028110612fad57612fac61468e565b5b01546058600160028110612fc457612fc361468e565b5b60020201600060028110612fdb57612fda61468e565b5b01541115613018576058600160028110612ff857612ff761468e565b5b6002020160016002811061300f5761300e61468e565b5b0154605d819055505b5b601560586001600281106130305761302f61468e565b5b600202016000600281106130475761304661468e565b5b0154111580156130845750601560586001600281106130695761306861468e565b5b600202016001600281106130805761307f61468e565b5b0154115b156130be57605860016002811061309e5761309d61468e565b5b600202016000600281106130b5576130b461468e565b5b0154605d819055505b601560586001600281106130d5576130d461468e565b5b600202016000600281106130ec576130eb61468e565b5b015411801561312957506015605460016002811061310d5761310c61468e565b5b600202016001600281106131245761312361468e565b5b015411155b156131635760586001600281106131435761314261468e565b5b6002020160016002811061315a5761315961468e565b5b0154605d819055505b6015605860016002811061317a5761317961468e565b5b600202016000600281106131915761319061468e565b5b0154111580156131cf5750601560586001600281106131b3576131b261468e565b5b600202016001600281106131ca576131c961468e565b5b015411155b156133025760586001600281106131e9576131e861468e565b5b60020201600160028110613200576131ff61468e565b5b015460586001600281106132175761321661468e565b5b6002020160006002811061322e5761322d61468e565b5b0154111561326b57605860016002811061324b5761324a61468e565b5b600202016000600281106132625761326161468e565b5b0154605d819055505b60586001600281106132805761327f61468e565b5b600202016001600281106132975761329661468e565b5b015460586001600281106132ae576132ad61468e565b5b600202016000600281106132c5576132c461468e565b5b0154116133015760586001600281106132e1576132e061468e565b5b600202016001600281106132f8576132f761468e565b5b0154605d819055505b5b565b6015605460016002811061331b5761331a61468e565b5b600202016000600281106133325761333161468e565b5b015411801561336e5750601560546001600281106133535761335261468e565b5b6002020160016002811061336a5761336961468e565b5b0154115b156134b1576001605281905550600060018190555060546001600281106133985761339761468e565b5b600202016001600281106133af576133ae61468e565b5b015460546001600281106133c6576133c561468e565b5b600202016000600281106133dd576133dc61468e565b5b0154116134195760546001600281106133f9576133f861468e565b5b600202016000600281106134105761340f61468e565b5b0154605c819055505b605460016002811061342e5761342d61468e565b5b600202016001600281106134455761344461468e565b5b0154605460016002811061345c5761345b61468e565b5b600202016000600281106134735761347261468e565b5b015411156134b05760546001600281106134905761348f61468e565b5b600202016001600281106134a7576134a661468e565b5b0154605c819055505b5b601560546001600281106134c8576134c761468e565b5b600202016000600281106134df576134de61468e565b5b01541115801561351c5750601560546001600281106135015761350061468e565b5b600202016001600281106135185761351761468e565b5b0154115b156135565760546001600281106135365761353561468e565b5b6002020160006002811061354d5761354c61468e565b5b0154605c819055505b6015605460016002811061356d5761356c61468e565b5b600202016000600281106135845761358361468e565b5b01541180156135c15750601560546001600281106135a5576135a461468e565b5b600202016001600281106135bc576135bb61468e565b5b015411155b156135fb5760546001600281106135db576135da61468e565b5b600202016001600281106135f2576135f161468e565b5b0154605c819055505b601560546001600281106136125761361161468e565b5b600202016000600281106136295761362861468e565b5b01541115801561366757506015605460016002811061364b5761364a61468e565b5b600202016001600281106136625761366161468e565b5b015411155b1561379a5760546001600281106136815761368061468e565b5b600202016001600281106136985761369761468e565b5b015460546001600281106136af576136ae61468e565b5b600202016000600281106136c6576136c561468e565b5b015411156137035760546001600281106136e3576136e261468e565b5b600202016000600281106136fa576136f961468e565b5b0154605c819055505b60546001600281106137185761371761468e565b5b6002020160016002811061372f5761372e61468e565b5b015460546001600281106137465761374561468e565b5b6002020160006002811061375d5761375c61468e565b5b0154116137995760546001600281106137795761377861468e565b5b600202016001600281106137905761378f61468e565b5b0154605c819055505b5b565b6000600181905550565b6000806000905060005b60108210156138145760008483601081106137ce576137cd61468e565b5b60200201516000600281106137e6576137e561468e565b5b602002015114613800576001816137fd91906145c8565b90505b60018261380d91906145c8565b91506137b0565b8092505050919050565b600060636000815480929190613833906146bd565b91905055507f028f5c28f5c28f5c28f5c28f5c28f5c28f5c28f5c28f5c28f5c28f5c28f5c28f60036063546138689190614d54565b4361387391906145c8565b3360635460405160200161388993929190614e31565b6040516020818303038152906040528051906020012060001c6138ac9190614e9d565b600581905550606360008154809291906138c5906146bd565b9190505550600554905090565b6060600060016138e184613b4d565b01905060008167ffffffffffffffff811115613900576138ff613ec1565b5b6040519080825280601f01601f1916602001820160405280156139325781602001600182028036833780820191505090505b509050600082602001820190505b600115613995578080600190039150507f3031323334353637383961626364656600000000000000000000000000000000600a86061a8153600a858161398957613988614e6e565b5b04945060008503613940575b819350505050919050565b60606000600185856139b291906143de565b6139bc91906145c8565b67ffffffffffffffff8111156139d5576139d4613ec1565b5b6040519080825280601f01601f191660200182016040528015613a075781602001600182028036833780820191505090505b50905060005b8585613a1991906143de565b8111613aa9578360018783613a2e91906145c8565b613a3891906143de565b81518110613a4957613a4861468e565b5b602001015160f81c60f81b828281518110613a6757613a6661468e565b5b60200101907effffffffffffffffffffffffffffffffffffffffffffffffffffffffffffff1916908160001a9053508080613aa1906146bd565b915050613a0d565b50809150509392505050565b6000808290506000805b8251811015613b42576000838281518110613add57613adc61468e565b5b602001015160f81c60f81b60f81c60ff16905060308110158015613b02575060398111155b15613b2e57603081613b1491906143de565b600a84613b219190614d54565b613b2b91906145c8565b92505b508080613b3a906146bd565b915050613abf565b508092505050919050565b600080600090507a184f03e93ff9f4daa797ed6e38ed64bf6a1f0100000000000000008310613bab577a184f03e93ff9f4daa797ed6e38ed64bf6a1f0100000000000000008381613ba157613ba0614e6e565b5b0492506040810190505b6d04ee2d6d415b85acef81000000008310613be8576d04ee2d6d415b85acef81000000008381613bde57613bdd614e6e565b5b0492506020810190505b662386f26fc100008310613c1757662386f26fc100008381613c0d57613c0c614e6e565b5b0492506010810190505b6305f5e1008310613c40576305f5e1008381613c3657613c35614e6e565b5b0492506008810190505b6127108310613c65576127108381613c5b57613c5a614e6e565b5b0492506004810190505b60648310613c885760648381613c7e57613c7d614e6e565b5b0492506002810190505b600a8310613c97576001810190505b80915050919050565b8260046002028101928215613ce0579160200282015b82811115613cdf57825182906002613ccf929190613d1e565b5091602001919060020190613cb6565b5b509050613ced9190613d5e565b5090565b60405180608001604052806004905b613d08613d82565b815260200190600190039081613d005790505090565b8260028101928215613d4d579160200282015b82811115613d4c578251825591602001919060010190613d31565b5b509050613d5a9190613da4565b5090565b5b80821115613d7e5760008181613d759190613dc1565b50600201613d5f565b5090565b6040518060400160405280600290602082028036833780820191505090505090565b5b80821115613dbd576000816000905550600101613da5565b5090565b506000815560010160009055565b6000604051905090565b600080fd5b6000819050919050565b613df181613dde565b8114613dfc57600080fd5b50565b600081359050613e0e81613de8565b92915050565b600060208284031215613e2a57613e29613dd9565b5b6000613e3884828501613dff565b91505092915050565b613e4a81613dde565b82525050565b6000602082019050613e656000830184613e41565b92915050565b60008060408385031215613e8257613e81613dd9565b5b6000613e9085828601613dff565b9250506020613ea185828601613dff565b9150509250929050565b600080fd5b6000601f19601f8301169050919050565b7f4e487b7100000000000000000000000000000000000000000000000000000000600052604160045260246000fd5b613ef982613eb0565b810181811067ffffffffffffffff82111715613f1857613f17613ec1565b5b80604052505050565b6000613f2b613dcf565b9050613f378282613ef0565b919050565b600067ffffffffffffffff821115613f5757613f56613ec1565b5b602082029050919050565b600080fd5b600067ffffffffffffffff821115613f8257613f81613ec1565b5b602082029050919050565b6000613fa0613f9b84613f67565b613f21565b90508060208402830185811115613fba57613fb9613f62565b5b835b81811015613fe35780613fcf8882613dff565b845260208401935050602081019050613fbc565b5050509392505050565b600082601f83011261400257614001613eab565b5b600261400f848285613f8d565b91505092915050565b600061402b61402684613f3c565b613f21565b9050806040840283018581111561404557614044613f62565b5b835b8181101561406e578061405a8882613fed565b845260208401935050604081019050614047565b5050509392505050565b600082601f83011261408d5761408c613eab565b5b600461409a848285614018565b91505092915050565b600061010082840312156140ba576140b9613dd9565b5b60006140c884828501614078565b91505092915050565b600060049050919050565b600081905092915050565b6000819050919050565b600060029050919050565b600081905092915050565b6000819050919050565b61411a81613dde565b82525050565b600061412c8383614111565b60208301905092915050565b6000602082019050919050565b61414e816140f1565b61415881846140fc565b925061416382614107565b8060005b8381101561419457815161417b8782614120565b965061418683614138565b925050600181019050614167565b505050505050565b60006141a88383614145565b60408301905092915050565b6000602082019050919050565b6141ca816140d1565b6141d481846140dc565b92506141df826140e7565b8060005b838110156142105781516141f7878261419c565b9650614202836141b4565b9250506001810190506141e3565b505050505050565b60006101008201905061422e60008301846141c1565b92915050565b600082825260208201905092915050565b7f42657420616d6f756e74206973206d6f7265207468616e2067616d652062616c60008201527f616e636500000000000000000000000000000000000000000000000000000000602082015250565b60006142a1602483614234565b91506142ac82614245565b604082019050919050565b600060208201905081810360008301526142d081614294565b9050919050565b7f4f6e6c7920706c617965722063616e20706c6163652062657400000000000000600082015250565b600061430d601983614234565b9150614318826142d7565b602082019050919050565b6000602082019050818103600083015261433c81614300565b9050919050565b7f5265656e7472616e6379206e6f7420616c6c6f77656400000000000000000000600082015250565b6000614379601683614234565b915061438482614343565b602082019050919050565b600060208201905081810360008301526143a88161436c565b9050919050565b7f4e487b7100000000000000000000000000000000000000000000000000000000600052601160045260246000fd5b60006143e982613dde565b91506143f483613dde565b925082820390508181111561440c5761440b6143af565b5b92915050565b7f526567697374726174696f6e2061646472657373206973206e6f742076616c6960008201527f6400000000000000000000000000000000000000000000000000000000000000602082015250565b600061446e602183614234565b915061447982614412565b604082019050919050565b6000602082019050818103600083015261449d81614461565b9050919050565b7f506c61796572206d75737420626520686f757365283029206f7220706c61796560008201527f7228312900000000000000000000000000000000000000000000000000000000602082015250565b6000614500602483614234565b915061450b826144a4565b604082019050919050565b6000602082019050818103600083015261452f816144f3565b9050919050565b7f53656e6465722061646472657373206d75737420626520686f75736557616c6c60008201527f6574000000000000000000000000000000000000000000000000000000000000602082015250565b6000614592602283614234565b915061459d82614536565b604082019050919050565b600060208201905081810360008301526145c181614585565b9050919050565b60006145d382613dde565b91506145de83613dde565b92508282019050808211156145f6576145f56143af565b5b92915050565b7f53656e6465722061646472657373206d75737420626520706c6179657257616c60008201527f6c65740000000000000000000000000000000000000000000000000000000000602082015250565b6000614658602383614234565b9150614663826145fc565b604082019050919050565b600060208201905081810360008301526146878161464b565b9050919050565b7f4e487b7100000000000000000000000000000000000000000000000000000000600052603260045260246000fd5b60006146c882613dde565b91507fffffffffffffffffffffffffffffffffffffffffffffffffffffffffffffffff82036146fa576146f96143af565b5b600182019050919050565b7f506c6179657220686173206e6f2062616c616e636520746f207769746864726160008201527f7700000000000000000000000000000000000000000000000000000000000000602082015250565b6000614761602183614234565b915061476c82614705565b604082019050919050565b6000602082019050818103600083015261479081614754565b9050919050565b7f4f6e6c7920706c617965722063616e2075736520746869732066756e6374696f60008201527f6e20776974686472617700000000000000000000000000000000000000000000602082015250565b60006147f3602a83614234565b91506147fe82614797565b604082019050919050565b60006020820190508181036000830152614822816147e6565b9050919050565b7f596f75206172652072657175657374696e67206d6f7265207468616e2074686560008201527f20706c617965722077616c6c657420636f6e7461696e73000000000000000000602082015250565b6000614885603783614234565b915061489082614829565b604082019050919050565b600060208201905081810360008301526148b481614878565b9050919050565b7f4465616c65722068617320616c72656164792073746f6f640000000000000000600082015250565b60006148f1601883614234565b91506148fc826148bb565b602082019050919050565b60006020820190508181036000830152614920816148e4565b9050919050565b7f506c617965722068617320616c72656164792073746f6f640000000000000000600082015250565b600061495d601883614234565b915061496882614927565b602082019050919050565b6000602082019050818103600083015261498c81614950565b9050919050565b7f47616d65206d75737420626520696e2070726f67726573730000000000000000600082015250565b60006149c9601883614234565b91506149d482614993565b602082019050919050565b600060208201905081810360008301526149f8816149bc565b9050919050565b7f596f7527766520616c7265616479206275737465640000000000000000000000600082015250565b6000614a35601583614234565b9150614a40826149ff565b602082019050919050565b60006020820190508181036000830152614a6481614a28565b9050919050565b600081519050919050565b7f4e487b7100000000000000000000000000000000000000000000000000000000600052602260045260246000fd5b60006002820490506001821680614abd57607f821691505b602082108103614ad057614acf614a76565b5b50919050565b60008190508160005260206000209050919050565b60006020601f8301049050919050565b600082821b905092915050565b600060088302614b387fffffffffffffffffffffffffffffffffffffffffffffffffffffffffffffffff82614afb565b614b428683614afb565b95508019841693508086168417925050509392505050565b6000819050919050565b6000614b7f614b7a614b7584613dde565b614b5a565b613dde565b9050919050565b6000819050919050565b614b9983614b64565b614bad614ba582614b86565b848454614b08565b825550505050565b600090565b614bc2614bb5565b614bcd818484614b90565b505050565b5b81811015614bf157614be6600082614bba565b600181019050614bd3565b5050565b601f821115614c3657614c0781614ad6565b614c1084614aeb565b81016020851015614c1f578190505b614c33614c2b85614aeb565b830182614bd2565b50505b505050565b600082821c905092915050565b6000614c5960001984600802614c3b565b1980831691505092915050565b6000614c728383614c48565b9150826002028217905092915050565b614c8b82614a6b565b67ffffffffffffffff811115614ca457614ca3613ec1565b5b614cae8254614aa5565b614cb9828285614bf5565b600060209050601f831160018114614cec5760008415614cda578287015190505b614ce48582614c66565b865550614d4c565b601f198416614cfa86614ad6565b60005b82811015614d2257848901518255600182019150602085019450602081019050614cfd565b86831015614d3f5784890151614d3b601f891682614c48565b8355505b6001600288020188555050505b505050505050565b6000614d5f82613dde565b9150614d6a83613dde565b9250828202614d7881613dde565b91508282048414831517614d8f57614d8e6143af565b5b5092915050565b6000819050919050565b614db1614dac82613dde565b614d96565b82525050565b600073ffffffffffffffffffffffffffffffffffffffff82169050919050565b6000614de282614db7565b9050919050565b60008160601b9050919050565b6000614e0182614de9565b9050919050565b6000614e1382614df6565b9050919050565b614e2b614e2682614dd7565b614e08565b82525050565b6000614e3d8286614da0565b602082019150614e4d8285614e1a565b601482019150614e5d8284614da0565b602082019150819050949350505050565b7f4e487b7100000000000000000000000000000000000000000000000000000000600052601260045260246000fd5b6000614ea882613dde565b9150614eb383613dde565b925082614ec357614ec2614e6e565b5b82820690509291505056fea264697066735822122081e3707ea8596ebffecaa3d1cdf2d0c723a721b4465b959929f27eb818f9a9db64736f6c63430008110033",
			"opcodes": "PUSH1 0x80 PUSH1 0x40 MSTORE PUSH1 0x0 PUSH1 0x1 SSTORE PUSH1 0x0 PUSH1 0x2 SSTORE PUSH1 0x0 PUSH1 0x3 SSTORE PUSH1 0x0 PUSH1 0x4 SSTORE PUSH1 0x0 PUSH1 0x5 SSTORE PUSH1 0x0 PUSH1 0x6 SSTORE PUSH1 0x0 PUSH1 0x7 SSTORE PUSH1 0x0 PUSH1 0x50 SSTORE PUSH1 0x0 PUSH1 0x51 SSTORE PUSH1 0x0 PUSH1 0x52 SSTORE PUSH1 0x0 PUSH1 0x53 SSTORE PUSH1 0x0 PUSH1 0x5C SSTORE PUSH1 0x0 PUSH1 0x5D SSTORE PUSH1 0x0 PUSH1 0x5E SSTORE PUSH1 0x0 PUSH1 0x5F SSTORE PUSH1 0x40 MLOAD DUP1 PUSH1 0x20 ADD PUSH1 0x40 MSTORE DUP1 PUSH1 0x0 DUP2 MSTORE POP PUSH1 0x60 SWAP1 DUP2 PUSH3 0x6F SWAP2 SWAP1 PUSH3 0x3A8 JUMP JUMPDEST POP PUSH1 0x40 MLOAD DUP1 PUSH1 0x20 ADD PUSH1 0x40 MSTORE DUP1 PUSH1 0x0 DUP2 MSTORE POP PUSH1 0x61 SWAP1 DUP2 PUSH3 0x90 SWAP2 SWAP1 PUSH3 0x3A8 JUMP JUMPDEST POP PUSH1 0x0 PUSH1 0x63 SSTORE PUSH1 0x0 PUSH1 0x64 PUSH1 0x0 PUSH2 0x100 EXP DUP2 SLOAD DUP2 PUSH20 0xFFFFFFFFFFFFFFFFFFFFFFFFFFFFFFFFFFFFFFFF MUL NOT AND SWAP1 DUP4 PUSH20 0xFFFFFFFFFFFFFFFFFFFFFFFFFFFFFFFFFFFFFFFF AND MUL OR SWAP1 SSTORE POP PUSH1 0x0 PUSH1 0x65 PUSH1 0x0 PUSH2 0x100 EXP DUP2 SLOAD DUP2 PUSH20 0xFFFFFFFFFFFFFFFFFFFFFFFFFFFFFFFFFFFFFFFF MUL NOT AND SWAP1 DUP4 PUSH20 0xFFFFFFFFFFFFFFFFFFFFFFFFFFFFFFFFFFFFFFFF AND MUL OR SWAP1 SSTORE POP CALLVALUE DUP1 ISZERO PUSH3 0x127 JUMPI PUSH1 0x0 DUP1 REVERT JUMPDEST POP PUSH3 0x48F JUMP JUMPDEST PUSH1 0x0 DUP2 MLOAD SWAP1 POP SWAP2 SWAP1 POP JUMP JUMPDEST PUSH32 0x4E487B7100000000000000000000000000000000000000000000000000000000 PUSH1 0x0 MSTORE PUSH1 0x41 PUSH1 0x4 MSTORE PUSH1 0x24 PUSH1 0x0 REVERT JUMPDEST PUSH32 0x4E487B7100000000000000000000000000000000000000000000000000000000 PUSH1 0x0 MSTORE PUSH1 0x22 PUSH1 0x4 MSTORE PUSH1 0x24 PUSH1 0x0 REVERT JUMPDEST PUSH1 0x0 PUSH1 0x2 DUP3 DIV SWAP1 POP PUSH1 0x1 DUP3 AND DUP1 PUSH3 0x1B0 JUMPI PUSH1 0x7F DUP3 AND SWAP2 POP JUMPDEST PUSH1 0x20 DUP3 LT DUP2 SUB PUSH3 0x1C6 JUMPI PUSH3 0x1C5 PUSH3 0x168 JUMP JUMPDEST JUMPDEST POP SWAP2 SWAP1 POP JUMP JUMPDEST PUSH1 0x0 DUP2 SWAP1 POP DUP2 PUSH1 0x0 MSTORE PUSH1 0x20 PUSH1 0x0 KECCAK256 SWAP1 POP SWAP2 SWAP1 POP JUMP JUMPDEST PUSH1 0x0 PUSH1 0x20 PUSH1 0x1F DUP4 ADD DIV SWAP1 POP SWAP2 SWAP1 POP JUMP JUMPDEST PUSH1 0x0 DUP3 DUP3 SHL SWAP1 POP SWAP3 SWAP2 POP POP JUMP JUMPDEST PUSH1 0x0 PUSH1 0x8 DUP4 MUL PUSH3 0x230 PUSH32 0xFFFFFFFFFFFFFFFFFFFFFFFFFFFFFFFFFFFFFFFFFFFFFFFFFFFFFFFFFFFFFFFF DUP3 PUSH3 0x1F1 JUMP JUMPDEST PUSH3 0x23C DUP7 DUP4 PUSH3 0x1F1 JUMP JUMPDEST SWAP6 POP DUP1 NOT DUP5 AND SWAP4 POP DUP1 DUP7 AND DUP5 OR SWAP3 POP POP POP SWAP4 SWAP3 POP POP POP JUMP JUMPDEST PUSH1 0x0 DUP2 SWAP1 POP SWAP2 SWAP1 POP JUMP JUMPDEST PUSH1 0x0 DUP2 SWAP1 POP SWAP2 SWAP1 POP JUMP JUMPDEST PUSH1 0x0 PUSH3 0x289 PUSH3 0x283 PUSH3 0x27D DUP5 PUSH3 0x254 JUMP JUMPDEST PUSH3 0x25E JUMP JUMPDEST PUSH3 0x254 JUMP JUMPDEST SWAP1 POP SWAP2 SWAP1 POP JUMP JUMPDEST PUSH1 0x0 DUP2 SWAP1 POP SWAP2 SWAP1 POP JUMP JUMPDEST PUSH3 0x2A5 DUP4 PUSH3 0x268 JUMP JUMPDEST PUSH3 0x2BD PUSH3 0x2B4 DUP3 PUSH3 0x290 JUMP JUMPDEST DUP5 DUP5 SLOAD PUSH3 0x1FE JUMP JUMPDEST DUP3 SSTORE POP POP POP POP JUMP JUMPDEST PUSH1 0x0 SWAP1 JUMP JUMPDEST PUSH3 0x2D4 PUSH3 0x2C5 JUMP JUMPDEST PUSH3 0x2E1 DUP2 DUP5 DUP5 PUSH3 0x29A JUMP JUMPDEST POP POP POP JUMP JUMPDEST JUMPDEST DUP2 DUP2 LT ISZERO PUSH3 0x309 JUMPI PUSH3 0x2FD PUSH1 0x0 DUP3 PUSH3 0x2CA JUMP JUMPDEST PUSH1 0x1 DUP2 ADD SWAP1 POP PUSH3 0x2E7 JUMP JUMPDEST POP POP JUMP JUMPDEST PUSH1 0x1F DUP3 GT ISZERO PUSH3 0x358 JUMPI PUSH3 0x322 DUP2 PUSH3 0x1CC JUMP JUMPDEST PUSH3 0x32D DUP5 PUSH3 0x1E1 JUMP JUMPDEST DUP2 ADD PUSH1 0x20 DUP6 LT ISZERO PUSH3 0x33D JUMPI DUP2 SWAP1 POP JUMPDEST PUSH3 0x355 PUSH3 0x34C DUP6 PUSH3 0x1E1 JUMP JUMPDEST DUP4 ADD DUP3 PUSH3 0x2E6 JUMP JUMPDEST POP POP JUMPDEST POP POP POP JUMP JUMPDEST PUSH1 0x0 DUP3 DUP3 SHR SWAP1 POP SWAP3 SWAP2 POP POP JUMP JUMPDEST PUSH1 0x0 PUSH3 0x37D PUSH1 0x0 NOT DUP5 PUSH1 0x8 MUL PUSH3 0x35D JUMP JUMPDEST NOT DUP1 DUP4 AND SWAP2 POP POP SWAP3 SWAP2 POP POP JUMP JUMPDEST PUSH1 0x0 PUSH3 0x398 DUP4 DUP4 PUSH3 0x36A JUMP JUMPDEST SWAP2 POP DUP3 PUSH1 0x2 MUL DUP3 OR SWAP1 POP SWAP3 SWAP2 POP POP JUMP JUMPDEST PUSH3 0x3B3 DUP3 PUSH3 0x12E JUMP JUMPDEST PUSH8 0xFFFFFFFFFFFFFFFF DUP2 GT ISZERO PUSH3 0x3CF JUMPI PUSH3 0x3CE PUSH3 0x139 JUMP JUMPDEST JUMPDEST PUSH3 0x3DB DUP3 SLOAD PUSH3 0x197 JUMP JUMPDEST PUSH3 0x3E8 DUP3 DUP3 DUP6 PUSH3 0x30D JUMP JUMPDEST PUSH1 0x0 PUSH1 0x20 SWAP1 POP PUSH1 0x1F DUP4 GT PUSH1 0x1 DUP2 EQ PUSH3 0x420 JUMPI PUSH1 0x0 DUP5 ISZERO PUSH3 0x40B JUMPI DUP3 DUP8 ADD MLOAD SWAP1 POP JUMPDEST PUSH3 0x417 DUP6 DUP3 PUSH3 0x38A JUMP JUMPDEST DUP7 SSTORE POP PUSH3 0x487 JUMP JUMPDEST PUSH1 0x1F NOT DUP5 AND PUSH3 0x430 DUP7 PUSH3 0x1CC JUMP JUMPDEST PUSH1 0x0 JUMPDEST DUP3 DUP2 LT ISZERO PUSH3 0x45A JUMPI DUP5 DUP10 ADD MLOAD DUP3 SSTORE PUSH1 0x1 DUP3 ADD SWAP2 POP PUSH1 0x20 DUP6 ADD SWAP5 POP PUSH1 0x20 DUP2 ADD SWAP1 POP PUSH3 0x433 JUMP JUMPDEST DUP7 DUP4 LT ISZERO PUSH3 0x47A JUMPI DUP5 DUP10 ADD MLOAD PUSH3 0x476 PUSH1 0x1F DUP10 AND DUP3 PUSH3 0x36A JUMP JUMPDEST DUP4 SSTORE POP JUMPDEST PUSH1 0x1 PUSH1 0x2 DUP9 MUL ADD DUP9 SSTORE POP POP POP JUMPDEST POP POP POP POP POP POP JUMP JUMPDEST PUSH2 0x4F04 DUP1 PUSH3 0x49F PUSH1 0x0 CODECOPY PUSH1 0x0 RETURN INVALID PUSH1 0x80 PUSH1 0x40 MSTORE PUSH1 0x4 CALLDATASIZE LT PUSH2 0x1B7 JUMPI PUSH1 0x0 CALLDATALOAD PUSH1 0xE0 SHR DUP1 PUSH4 0x7B0D3625 GT PUSH2 0xEC JUMPI DUP1 PUSH4 0xC315DB2C GT PUSH2 0x8A JUMPI DUP1 PUSH4 0xCDC7EA51 GT PUSH2 0x64 JUMPI DUP1 PUSH4 0xCDC7EA51 EQ PUSH2 0x5B3 JUMPI DUP1 PUSH4 0xD0017A0C EQ PUSH2 0x5DE JUMPI DUP1 PUSH4 0xD24257C0 EQ PUSH2 0x609 JUMPI DUP1 PUSH4 0xDAE10ED5 EQ PUSH2 0x634 JUMPI PUSH2 0x1B7 JUMP JUMPDEST DUP1 PUSH4 0xC315DB2C EQ PUSH2 0x55A JUMPI DUP1 PUSH4 0xC5C3CD78 EQ PUSH2 0x571 JUMPI DUP1 PUSH4 0xC9F09D38 EQ PUSH2 0x59C JUMPI PUSH2 0x1B7 JUMP JUMPDEST DUP1 PUSH4 0x908A0979 GT PUSH2 0xC6 JUMPI DUP1 PUSH4 0x908A0979 EQ PUSH2 0x4B0 JUMPI DUP1 PUSH4 0xA10926D6 EQ PUSH2 0x4DB JUMPI DUP1 PUSH4 0xBDBE451B EQ PUSH2 0x506 JUMPI DUP1 PUSH4 0xC2855A59 EQ PUSH2 0x543 JUMPI PUSH2 0x1B7 JUMP JUMPDEST DUP1 PUSH4 0x7B0D3625 EQ PUSH2 0x40B JUMPI DUP1 PUSH4 0x8914D63B EQ PUSH2 0x448 JUMPI DUP1 PUSH4 0x8BBB236F EQ PUSH2 0x473 JUMPI PUSH2 0x1B7 JUMP JUMPDEST DUP1 PUSH4 0x3C3248D5 GT PUSH2 0x159 JUMPI DUP1 PUSH4 0x553DF021 GT PUSH2 0x133 JUMPI DUP1 PUSH4 0x553DF021 EQ PUSH2 0x382 JUMPI DUP1 PUSH4 0x5629365B EQ PUSH2 0x399 JUMPI DUP1 PUSH4 0x651F066A EQ PUSH2 0x3B5 JUMPI DUP1 PUSH4 0x67084EB3 EQ PUSH2 0x3E0 JUMPI PUSH2 0x1B7 JUMP JUMPDEST DUP1 PUSH4 0x3C3248D5 EQ PUSH2 0x2EF JUMPI DUP1 PUSH4 0x3FB64E75 EQ PUSH2 0x31A JUMPI DUP1 PUSH4 0x53A218C9 EQ PUSH2 0x345 JUMPI PUSH2 0x1B7 JUMP JUMPDEST DUP1 PUSH4 0x2626AB08 GT PUSH2 0x195 JUMPI DUP1 PUSH4 0x2626AB08 EQ PUSH2 0x240 JUMPI DUP1 PUSH4 0x2FCB6992 EQ PUSH2 0x26B JUMPI DUP1 PUSH4 0x325EB3F5 EQ PUSH2 0x2A8 JUMPI DUP1 PUSH4 0x3519A2F8 EQ PUSH2 0x2D3 JUMPI PUSH2 0x1B7 JUMP JUMPDEST DUP1 PUSH4 0x10FE7C48 EQ PUSH2 0x1BC JUMPI DUP1 PUSH4 0x13BF01ED EQ PUSH2 0x1D8 JUMPI DUP1 PUSH4 0x16DD37DD EQ PUSH2 0x203 JUMPI JUMPDEST PUSH1 0x0 DUP1 REVERT JUMPDEST PUSH2 0x1D6 PUSH1 0x4 DUP1 CALLDATASIZE SUB DUP2 ADD SWAP1 PUSH2 0x1D1 SWAP2 SWAP1 PUSH2 0x3E14 JUMP JUMPDEST PUSH2 0x64B JUMP JUMPDEST STOP JUMPDEST CALLVALUE DUP1 ISZERO PUSH2 0x1E4 JUMPI PUSH1 0x0 DUP1 REVERT JUMPDEST POP PUSH2 0x1ED PUSH2 0x7E8 JUMP JUMPDEST PUSH1 0x40 MLOAD PUSH2 0x1FA SWAP2 SWAP1 PUSH2 0x3E50 JUMP JUMPDEST PUSH1 0x40 MLOAD DUP1 SWAP2 SUB SWAP1 RETURN JUMPDEST CALLVALUE DUP1 ISZERO PUSH2 0x20F JUMPI PUSH1 0x0 DUP1 REVERT JUMPDEST POP PUSH2 0x22A PUSH1 0x4 DUP1 CALLDATASIZE SUB DUP2 ADD SWAP1 PUSH2 0x225 SWAP2 SWAP1 PUSH2 0x3E6B JUMP JUMPDEST PUSH2 0x7EE JUMP JUMPDEST PUSH1 0x40 MLOAD PUSH2 0x237 SWAP2 SWAP1 PUSH2 0x3E50 JUMP JUMPDEST PUSH1 0x40 MLOAD DUP1 SWAP2 SUB SWAP1 RETURN JUMPDEST CALLVALUE DUP1 ISZERO PUSH2 0x24C JUMPI PUSH1 0x0 DUP1 REVERT JUMPDEST POP PUSH2 0x255 PUSH2 0x81C JUMP JUMPDEST PUSH1 0x40 MLOAD PUSH2 0x262 SWAP2 SWAP1 PUSH2 0x3E50 JUMP JUMPDEST PUSH1 0x40 MLOAD DUP1 SWAP2 SUB SWAP1 RETURN JUMPDEST CALLVALUE DUP1 ISZERO PUSH2 0x277 JUMPI PUSH1 0x0 DUP1 REVERT JUMPDEST POP PUSH2 0x292 PUSH1 0x4 DUP1 CALLDATASIZE SUB DUP2 ADD SWAP1 PUSH2 0x28D SWAP2 SWAP1 PUSH2 0x3E6B JUMP JUMPDEST PUSH2 0x821 JUMP JUMPDEST PUSH1 0x40 MLOAD PUSH2 0x29F SWAP2 SWAP1 PUSH2 0x3E50 JUMP JUMPDEST PUSH1 0x40 MLOAD DUP1 SWAP2 SUB SWAP1 RETURN JUMPDEST CALLVALUE DUP1 ISZERO PUSH2 0x2B4 JUMPI PUSH1 0x0 DUP1 REVERT JUMPDEST POP PUSH2 0x2BD PUSH2 0x84F JUMP JUMPDEST PUSH1 0x40 MLOAD PUSH2 0x2CA SWAP2 SWAP1 PUSH2 0x3E50 JUMP JUMPDEST PUSH1 0x40 MLOAD DUP1 SWAP2 SUB SWAP1 RETURN JUMPDEST PUSH2 0x2ED PUSH1 0x4 DUP1 CALLDATASIZE SUB DUP2 ADD SWAP1 PUSH2 0x2E8 SWAP2 SWAP1 PUSH2 0x3E14 JUMP JUMPDEST PUSH2 0x855 JUMP JUMPDEST STOP JUMPDEST CALLVALUE DUP1 ISZERO PUSH2 0x2FB JUMPI PUSH1 0x0 DUP1 REVERT JUMPDEST POP PUSH2 0x304 PUSH2 0xD84 JUMP JUMPDEST PUSH1 0x40 MLOAD PUSH2 0x311 SWAP2 SWAP1 PUSH2 0x3E50 JUMP JUMPDEST PUSH1 0x40 MLOAD DUP1 SWAP2 SUB SWAP1 RETURN JUMPDEST CALLVALUE DUP1 ISZERO PUSH2 0x326 JUMPI PUSH1 0x0 DUP1 REVERT JUMPDEST POP PUSH2 0x32F PUSH2 0xD8A JUMP JUMPDEST PUSH1 0x40 MLOAD PUSH2 0x33C SWAP2 SWAP1 PUSH2 0x3E50 JUMP JUMPDEST PUSH1 0x40 MLOAD DUP1 SWAP2 SUB SWAP1 RETURN JUMPDEST CALLVALUE DUP1 ISZERO PUSH2 0x351 JUMPI PUSH1 0x0 DUP1 REVERT JUMPDEST POP PUSH2 0x36C PUSH1 0x4 DUP1 CALLDATASIZE SUB DUP2 ADD SWAP1 PUSH2 0x367 SWAP2 SWAP1 PUSH2 0x3E6B JUMP JUMPDEST PUSH2 0xD90 JUMP JUMPDEST PUSH1 0x40 MLOAD PUSH2 0x379 SWAP2 SWAP1 PUSH2 0x3E50 JUMP JUMPDEST PUSH1 0x40 MLOAD DUP1 SWAP2 SUB SWAP1 RETURN JUMPDEST CALLVALUE DUP1 ISZERO PUSH2 0x38E JUMPI PUSH1 0x0 DUP1 REVERT JUMPDEST POP PUSH2 0x397 PUSH2 0xDBE JUMP JUMPDEST STOP JUMPDEST PUSH2 0x3B3 PUSH1 0x4 DUP1 CALLDATASIZE SUB DUP2 ADD SWAP1 PUSH2 0x3AE SWAP2 SWAP1 PUSH2 0x3E14 JUMP JUMPDEST PUSH2 0x126A JUMP JUMPDEST STOP JUMPDEST CALLVALUE DUP1 ISZERO PUSH2 0x3C1 JUMPI PUSH1 0x0 DUP1 REVERT JUMPDEST POP PUSH2 0x3CA PUSH2 0x1488 JUMP JUMPDEST PUSH1 0x40 MLOAD PUSH2 0x3D7 SWAP2 SWAP1 PUSH2 0x3E50 JUMP JUMPDEST PUSH1 0x40 MLOAD DUP1 SWAP2 SUB SWAP1 RETURN JUMPDEST CALLVALUE DUP1 ISZERO PUSH2 0x3EC JUMPI PUSH1 0x0 DUP1 REVERT JUMPDEST POP PUSH2 0x3F5 PUSH2 0x148E JUMP JUMPDEST PUSH1 0x40 MLOAD PUSH2 0x402 SWAP2 SWAP1 PUSH2 0x3E50 JUMP JUMPDEST PUSH1 0x40 MLOAD DUP1 SWAP2 SUB SWAP1 RETURN JUMPDEST CALLVALUE DUP1 ISZERO PUSH2 0x417 JUMPI PUSH1 0x0 DUP1 REVERT JUMPDEST POP PUSH2 0x432 PUSH1 0x4 DUP1 CALLDATASIZE SUB DUP2 ADD SWAP1 PUSH2 0x42D SWAP2 SWAP1 PUSH2 0x40A3 JUMP JUMPDEST PUSH2 0x1494 JUMP JUMPDEST PUSH1 0x40 MLOAD PUSH2 0x43F SWAP2 SWAP1 PUSH2 0x4218 JUMP JUMPDEST PUSH1 0x40 MLOAD DUP1 SWAP2 SUB SWAP1 RETURN JUMPDEST CALLVALUE DUP1 ISZERO PUSH2 0x454 JUMPI PUSH1 0x0 DUP1 REVERT JUMPDEST POP PUSH2 0x45D PUSH2 0x17F6 JUMP JUMPDEST PUSH1 0x40 MLOAD PUSH2 0x46A SWAP2 SWAP1 PUSH2 0x3E50 JUMP JUMPDEST PUSH1 0x40 MLOAD DUP1 SWAP2 SUB SWAP1 RETURN JUMPDEST CALLVALUE DUP1 ISZERO PUSH2 0x47F JUMPI PUSH1 0x0 DUP1 REVERT JUMPDEST POP PUSH2 0x49A PUSH1 0x4 DUP1 CALLDATASIZE SUB DUP2 ADD SWAP1 PUSH2 0x495 SWAP2 SWAP1 PUSH2 0x3E6B JUMP JUMPDEST PUSH2 0x17FC JUMP JUMPDEST PUSH1 0x40 MLOAD PUSH2 0x4A7 SWAP2 SWAP1 PUSH2 0x3E50 JUMP JUMPDEST PUSH1 0x40 MLOAD DUP1 SWAP2 SUB SWAP1 RETURN JUMPDEST CALLVALUE DUP1 ISZERO PUSH2 0x4BC JUMPI PUSH1 0x0 DUP1 REVERT JUMPDEST POP PUSH2 0x4C5 PUSH2 0x182A JUMP JUMPDEST PUSH1 0x40 MLOAD PUSH2 0x4D2 SWAP2 SWAP1 PUSH2 0x3E50 JUMP JUMPDEST PUSH1 0x40 MLOAD DUP1 SWAP2 SUB SWAP1 RETURN JUMPDEST CALLVALUE DUP1 ISZERO PUSH2 0x4E7 JUMPI PUSH1 0x0 DUP1 REVERT JUMPDEST POP PUSH2 0x4F0 PUSH2 0x1830 JUMP JUMPDEST PUSH1 0x40 MLOAD PUSH2 0x4FD SWAP2 SWAP1 PUSH2 0x3E50 JUMP JUMPDEST PUSH1 0x40 MLOAD DUP1 SWAP2 SUB SWAP1 RETURN JUMPDEST CALLVALUE DUP1 ISZERO PUSH2 0x512 JUMPI PUSH1 0x0 DUP1 REVERT JUMPDEST POP PUSH2 0x52D PUSH1 0x4 DUP1 CALLDATASIZE SUB DUP2 ADD SWAP1 PUSH2 0x528 SWAP2 SWAP1 PUSH2 0x3E6B JUMP JUMPDEST PUSH2 0x1836 JUMP JUMPDEST PUSH1 0x40 MLOAD PUSH2 0x53A SWAP2 SWAP1 PUSH2 0x3E50 JUMP JUMPDEST PUSH1 0x40 MLOAD DUP1 SWAP2 SUB SWAP1 RETURN JUMPDEST CALLVALUE DUP1 ISZERO PUSH2 0x54F JUMPI PUSH1 0x0 DUP1 REVERT JUMPDEST POP PUSH2 0x558 PUSH2 0x1864 JUMP JUMPDEST STOP JUMPDEST CALLVALUE DUP1 ISZERO PUSH2 0x566 JUMPI PUSH1 0x0 DUP1 REVERT JUMPDEST POP PUSH2 0x56F PUSH2 0x1B2F JUMP JUMPDEST STOP JUMPDEST CALLVALUE DUP1 ISZERO PUSH2 0x57D JUMPI PUSH1 0x0 DUP1 REVERT JUMPDEST POP PUSH2 0x586 PUSH2 0x1B8E JUMP JUMPDEST PUSH1 0x40 MLOAD PUSH2 0x593 SWAP2 SWAP1 PUSH2 0x3E50 JUMP JUMPDEST PUSH1 0x40 MLOAD DUP1 SWAP2 SUB SWAP1 RETURN JUMPDEST CALLVALUE DUP1 ISZERO PUSH2 0x5A8 JUMPI PUSH1 0x0 DUP1 REVERT JUMPDEST POP PUSH2 0x5B1 PUSH2 0x1B94 JUMP JUMPDEST STOP JUMPDEST CALLVALUE DUP1 ISZERO PUSH2 0x5BF JUMPI PUSH1 0x0 DUP1 REVERT JUMPDEST POP PUSH2 0x5C8 PUSH2 0x1BEB JUMP JUMPDEST PUSH1 0x40 MLOAD PUSH2 0x5D5 SWAP2 SWAP1 PUSH2 0x3E50 JUMP JUMPDEST PUSH1 0x40 MLOAD DUP1 SWAP2 SUB SWAP1 RETURN JUMPDEST CALLVALUE DUP1 ISZERO PUSH2 0x5EA JUMPI PUSH1 0x0 DUP1 REVERT JUMPDEST POP PUSH2 0x5F3 PUSH2 0x1BF1 JUMP JUMPDEST PUSH1 0x40 MLOAD PUSH2 0x600 SWAP2 SWAP1 PUSH2 0x3E50 JUMP JUMPDEST PUSH1 0x40 MLOAD DUP1 SWAP2 SUB SWAP1 RETURN JUMPDEST CALLVALUE DUP1 ISZERO PUSH2 0x615 JUMPI PUSH1 0x0 DUP1 REVERT JUMPDEST POP PUSH2 0x61E PUSH2 0x1BFD JUMP JUMPDEST PUSH1 0x40 MLOAD PUSH2 0x62B SWAP2 SWAP1 PUSH2 0x3E50 JUMP JUMPDEST PUSH1 0x40 MLOAD DUP1 SWAP2 SUB SWAP1 RETURN JUMPDEST CALLVALUE DUP1 ISZERO PUSH2 0x640 JUMPI PUSH1 0x0 DUP1 REVERT JUMPDEST POP PUSH2 0x649 PUSH2 0x1C03 JUMP JUMPDEST STOP JUMPDEST PUSH1 0x4 SLOAD PUSH1 0x1 CALLVALUE LT ISZERO DUP1 ISZERO PUSH2 0x667 JUMPI POP PUSH8 0x8AC7230489E80000 CALLVALUE GT ISZERO JUMPDEST PUSH2 0x670 JUMPI PUSH1 0x0 DUP1 REVERT JUMPDEST PUSH1 0x3 SLOAD PUSH1 0x4 SLOAD GT ISZERO PUSH2 0x6B7 JUMPI PUSH1 0x40 MLOAD PUSH32 0x8C379A000000000000000000000000000000000000000000000000000000000 DUP2 MSTORE PUSH1 0x4 ADD PUSH2 0x6AE SWAP1 PUSH2 0x42B7 JUMP JUMPDEST PUSH1 0x40 MLOAD DUP1 SWAP2 SUB SWAP1 REVERT JUMPDEST PUSH1 0x64 PUSH1 0x0 SWAP1 SLOAD SWAP1 PUSH2 0x100 EXP SWAP1 DIV PUSH20 0xFFFFFFFFFFFFFFFFFFFFFFFFFFFFFFFFFFFFFFFF AND PUSH20 0xFFFFFFFFFFFFFFFFFFFFFFFFFFFFFFFFFFFFFFFF AND CALLER PUSH20 0xFFFFFFFFFFFFFFFFFFFFFFFFFFFFFFFFFFFFFFFF AND EQ PUSH2 0x747 JUMPI PUSH1 0x40 MLOAD PUSH32 0x8C379A000000000000000000000000000000000000000000000000000000000 DUP2 MSTORE PUSH1 0x4 ADD PUSH2 0x73E SWAP1 PUSH2 0x4323 JUMP JUMPDEST PUSH1 0x40 MLOAD DUP1 SWAP2 SUB SWAP1 REVERT JUMPDEST PUSH1 0x0 DUP1 SLOAD SWAP1 PUSH2 0x100 EXP SWAP1 DIV PUSH1 0xFF AND ISZERO PUSH2 0x795 JUMPI PUSH1 0x40 MLOAD PUSH32 0x8C379A000000000000000000000000000000000000000000000000000000000 DUP2 MSTORE PUSH1 0x4 ADD PUSH2 0x78C SWAP1 PUSH2 0x438F JUMP JUMPDEST PUSH1 0x40 MLOAD DUP1 SWAP2 SUB SWAP1 REVERT JUMPDEST PUSH1 0x1 PUSH1 0x0 DUP1 PUSH2 0x100 EXP DUP2 SLOAD DUP2 PUSH1 0xFF MUL NOT AND SWAP1 DUP4 ISZERO ISZERO MUL OR SWAP1 SSTORE POP DUP2 PUSH1 0x3 SLOAD PUSH2 0x7BD SWAP2 SWAP1 PUSH2 0x43DE JUMP JUMPDEST PUSH1 0x3 DUP2 SWAP1 SSTORE POP DUP2 PUSH1 0x4 DUP2 SWAP1 SSTORE POP PUSH1 0x0 DUP1 PUSH1 0x0 PUSH2 0x100 EXP DUP2 SLOAD DUP2 PUSH1 0xFF MUL NOT AND SWAP1 DUP4 ISZERO ISZERO MUL OR SWAP1 SSTORE POP POP POP JUMP JUMPDEST PUSH1 0x5D SLOAD DUP2 JUMP JUMPDEST PUSH1 0x54 DUP3 PUSH1 0x2 DUP2 LT PUSH2 0x7FE JUMPI PUSH1 0x0 DUP1 REVERT JUMPDEST PUSH1 0x2 MUL ADD DUP2 PUSH1 0x2 DUP2 LT PUSH2 0x810 JUMPI PUSH1 0x0 DUP1 REVERT JUMPDEST ADD PUSH1 0x0 SWAP2 POP SWAP2 POP POP SLOAD DUP2 JUMP JUMPDEST PUSH1 0x1 DUP2 JUMP JUMPDEST PUSH1 0x48 DUP3 PUSH1 0x4 DUP2 LT PUSH2 0x831 JUMPI PUSH1 0x0 DUP1 REVERT JUMPDEST PUSH1 0x2 MUL ADD DUP2 PUSH1 0x2 DUP2 LT PUSH2 0x843 JUMPI PUSH1 0x0 DUP1 REVERT JUMPDEST ADD PUSH1 0x0 SWAP2 POP SWAP2 POP POP SLOAD DUP2 JUMP JUMPDEST PUSH1 0x52 SLOAD DUP2 JUMP JUMPDEST DUP1 PUSH1 0x0 PUSH20 0xFFFFFFFFFFFFFFFFFFFFFFFFFFFFFFFFFFFFFFFF AND PUSH1 0x65 PUSH1 0x0 SWAP1 SLOAD SWAP1 PUSH2 0x100 EXP SWAP1 DIV PUSH20 0xFFFFFFFFFFFFFFFFFFFFFFFFFFFFFFFFFFFFFFFF AND PUSH20 0xFFFFFFFFFFFFFFFFFFFFFFFFFFFFFFFFFFFFFFFF AND EQ DUP1 PUSH2 0x901 JUMPI POP PUSH1 0x0 PUSH20 0xFFFFFFFFFFFFFFFFFFFFFFFFFFFFFFFFFFFFFFFF AND PUSH1 0x64 PUSH1 0x0 SWAP1 SLOAD SWAP1 PUSH2 0x100 EXP SWAP1 DIV PUSH20 0xFFFFFFFFFFFFFFFFFFFFFFFFFFFFFFFFFFFFFFFF AND PUSH20 0xFFFFFFFFFFFFFFFFFFFFFFFFFFFFFFFFFFFFFFFF AND EQ JUMPDEST DUP1 PUSH2 0x959 JUMPI POP PUSH1 0x65 PUSH1 0x0 SWAP1 SLOAD SWAP1 PUSH2 0x100 EXP SWAP1 DIV PUSH20 0xFFFFFFFFFFFFFFFFFFFFFFFFFFFFFFFFFFFFFFFF AND PUSH20 0xFFFFFFFFFFFFFFFFFFFFFFFFFFFFFFFFFFFFFFFF AND CALLER PUSH20 0xFFFFFFFFFFFFFFFFFFFFFFFFFFFFFFFFFFFFFFFF AND EQ JUMPDEST DUP1 PUSH2 0x9B1 JUMPI POP PUSH1 0x64 PUSH1 0x0 SWAP1 SLOAD SWAP1 PUSH2 0x100 EXP SWAP1 DIV PUSH20 0xFFFFFFFFFFFFFFFFFFFFFFFFFFFFFFFFFFFFFFFF AND PUSH20 0xFFFFFFFFFFFFFFFFFFFFFFFFFFFFFFFFFFFFFFFF AND CALLER PUSH20 0xFFFFFFFFFFFFFFFFFFFFFFFFFFFFFFFFFFFFFFFF AND EQ JUMPDEST PUSH2 0x9F0 JUMPI PUSH1 0x40 MLOAD PUSH32 0x8C379A000000000000000000000000000000000000000000000000000000000 DUP2 MSTORE PUSH1 0x4 ADD PUSH2 0x9E7 SWAP1 PUSH2 0x4484 JUMP JUMPDEST PUSH1 0x40 MLOAD DUP1 SWAP2 SUB SWAP1 REVERT JUMPDEST PUSH1 0x0 DUP2 EQ DUP1 PUSH2 0x9FF JUMPI POP PUSH1 0x1 DUP2 EQ JUMPDEST PUSH2 0xA3E JUMPI PUSH1 0x40 MLOAD PUSH32 0x8C379A000000000000000000000000000000000000000000000000000000000 DUP2 MSTORE PUSH1 0x4 ADD PUSH2 0xA35 SWAP1 PUSH2 0x4516 JUMP JUMPDEST PUSH1 0x40 MLOAD DUP1 SWAP2 SUB SWAP1 REVERT JUMPDEST PUSH1 0x0 DUP3 SUB PUSH2 0xBDF JUMPI PUSH1 0x65 PUSH1 0x0 SWAP1 SLOAD SWAP1 PUSH2 0x100 EXP SWAP1 DIV PUSH20 0xFFFFFFFFFFFFFFFFFFFFFFFFFFFFFFFFFFFFFFFF AND PUSH20 0xFFFFFFFFFFFFFFFFFFFFFFFFFFFFFFFFFFFFFFFF AND CALLER PUSH20 0xFFFFFFFFFFFFFFFFFFFFFFFFFFFFFFFFFFFFFFFF AND EQ DUP1 PUSH2 0xAF0 JUMPI POP PUSH1 0x0 PUSH20 0xFFFFFFFFFFFFFFFFFFFFFFFFFFFFFFFFFFFFFFFF AND PUSH1 0x65 PUSH1 0x0 SWAP1 SLOAD SWAP1 PUSH2 0x100 EXP SWAP1 DIV PUSH20 0xFFFFFFFFFFFFFFFFFFFFFFFFFFFFFFFFFFFFFFFF AND PUSH20 0xFFFFFFFFFFFFFFFFFFFFFFFFFFFFFFFFFFFFFFFF AND EQ JUMPDEST DUP1 ISZERO PUSH2 0xB4A JUMPI POP PUSH1 0x64 PUSH1 0x0 SWAP1 SLOAD SWAP1 PUSH2 0x100 EXP SWAP1 DIV PUSH20 0xFFFFFFFFFFFFFFFFFFFFFFFFFFFFFFFFFFFFFFFF AND PUSH20 0xFFFFFFFFFFFFFFFFFFFFFFFFFFFFFFFFFFFFFFFF AND CALLER PUSH20 0xFFFFFFFFFFFFFFFFFFFFFFFFFFFFFFFFFFFFFFFF AND EQ ISZERO JUMPDEST PUSH2 0xB89 JUMPI PUSH1 0x40 MLOAD PUSH32 0x8C379A000000000000000000000000000000000000000000000000000000000 DUP2 MSTORE PUSH1 0x4 ADD PUSH2 0xB80 SWAP1 PUSH2 0x45A8 JUMP JUMPDEST PUSH1 0x40 MLOAD DUP1 SWAP2 SUB SWAP1 REVERT JUMPDEST CALLER PUSH1 0x65 PUSH1 0x0 PUSH2 0x100 EXP DUP2 SLOAD DUP2 PUSH20 0xFFFFFFFFFFFFFFFFFFFFFFFFFFFFFFFFFFFFFFFF MUL NOT AND SWAP1 DUP4 PUSH20 0xFFFFFFFFFFFFFFFFFFFFFFFFFFFFFFFFFFFFFFFF AND MUL OR SWAP1 SSTORE POP CALLVALUE PUSH1 0x2 SLOAD PUSH2 0xBD8 SWAP2 SWAP1 PUSH2 0x45C8 JUMP JUMPDEST PUSH1 0x2 DUP2 SWAP1 SSTORE POP JUMPDEST PUSH1 0x1 DUP3 SUB PUSH2 0xD80 JUMPI PUSH1 0x64 PUSH1 0x0 SWAP1 SLOAD SWAP1 PUSH2 0x100 EXP SWAP1 DIV PUSH20 0xFFFFFFFFFFFFFFFFFFFFFFFFFFFFFFFFFFFFFFFF AND PUSH20 0xFFFFFFFFFFFFFFFFFFFFFFFFFFFFFFFFFFFFFFFF AND CALLER PUSH20 0xFFFFFFFFFFFFFFFFFFFFFFFFFFFFFFFFFFFFFFFF AND EQ DUP1 PUSH2 0xC91 JUMPI POP PUSH1 0x0 PUSH20 0xFFFFFFFFFFFFFFFFFFFFFFFFFFFFFFFFFFFFFFFF AND PUSH1 0x64 PUSH1 0x0 SWAP1 SLOAD SWAP1 PUSH2 0x100 EXP SWAP1 DIV PUSH20 0xFFFFFFFFFFFFFFFFFFFFFFFFFFFFFFFFFFFFFFFF AND PUSH20 0xFFFFFFFFFFFFFFFFFFFFFFFFFFFFFFFFFFFFFFFF AND EQ JUMPDEST DUP1 ISZERO PUSH2 0xCEB JUMPI POP PUSH1 0x65 PUSH1 0x0 SWAP1 SLOAD SWAP1 PUSH2 0x100 EXP SWAP1 DIV PUSH20 0xFFFFFFFFFFFFFFFFFFFFFFFFFFFFFFFFFFFFFFFF AND PUSH20 0xFFFFFFFFFFFFFFFFFFFFFFFFFFFFFFFFFFFFFFFF AND CALLER PUSH20 0xFFFFFFFFFFFFFFFFFFFFFFFFFFFFFFFFFFFFFFFF AND EQ ISZERO JUMPDEST PUSH2 0xD2A JUMPI PUSH1 0x40 MLOAD PUSH32 0x8C379A000000000000000000000000000000000000000000000000000000000 DUP2 MSTORE PUSH1 0x4 ADD PUSH2 0xD21 SWAP1 PUSH2 0x466E JUMP JUMPDEST PUSH1 0x40 MLOAD DUP1 SWAP2 SUB SWAP1 REVERT JUMPDEST CALLER PUSH1 0x64 PUSH1 0x0 PUSH2 0x100 EXP DUP2 SLOAD DUP2 PUSH20 0xFFFFFFFFFFFFFFFFFFFFFFFFFFFFFFFFFFFFFFFF MUL NOT AND SWAP1 DUP4 PUSH20 0xFFFFFFFFFFFFFFFFFFFFFFFFFFFFFFFFFFFFFFFF AND MUL OR SWAP1 SSTORE POP CALLVALUE PUSH1 0x3 SLOAD PUSH2 0xD79 SWAP2 SWAP1 PUSH2 0x45C8 JUMP JUMPDEST PUSH1 0x3 DUP2 SWAP1 SSTORE POP JUMPDEST POP POP JUMP JUMPDEST PUSH1 0x5E SLOAD DUP2 JUMP JUMPDEST PUSH1 0x1 SLOAD DUP2 JUMP JUMPDEST PUSH1 0x58 DUP3 PUSH1 0x2 DUP2 LT PUSH2 0xDA0 JUMPI PUSH1 0x0 DUP1 REVERT JUMPDEST PUSH1 0x2 MUL ADD DUP2 PUSH1 0x2 DUP2 LT PUSH2 0xDB2 JUMPI PUSH1 0x0 DUP1 REVERT JUMPDEST ADD PUSH1 0x0 SWAP2 POP SWAP2 POP POP SLOAD DUP2 JUMP JUMPDEST PUSH1 0x0 DUP1 SLOAD SWAP1 PUSH2 0x100 EXP SWAP1 DIV PUSH1 0xFF AND ISZERO PUSH2 0xE0C JUMPI PUSH1 0x40 MLOAD PUSH32 0x8C379A000000000000000000000000000000000000000000000000000000000 DUP2 MSTORE PUSH1 0x4 ADD PUSH2 0xE03 SWAP1 PUSH2 0x438F JUMP JUMPDEST PUSH1 0x40 MLOAD DUP1 SWAP2 SUB SWAP1 REVERT JUMPDEST PUSH1 0x1 PUSH1 0x0 DUP1 PUSH2 0x100 EXP DUP2 SLOAD DUP2 PUSH1 0xFF MUL NOT AND SWAP1 DUP4 ISZERO ISZERO MUL OR SWAP1 SSTORE POP PUSH1 0x1 DUP1 DUP2 SWAP1 SSTORE POP PUSH1 0x0 PUSH1 0x5E DUP2 SWAP1 SSTORE POP PUSH1 0x0 PUSH1 0x52 DUP2 SWAP1 SSTORE POP PUSH1 0x0 PUSH1 0x53 DUP2 SWAP1 SSTORE POP PUSH1 0x0 PUSH1 0x5E DUP2 SWAP1 SSTORE POP PUSH1 0x0 PUSH1 0x5F DUP2 SWAP1 SSTORE POP PUSH1 0x0 PUSH1 0x5D DUP2 SWAP1 SSTORE POP PUSH1 0x0 PUSH1 0x5C DUP2 SWAP1 SSTORE POP PUSH1 0x0 PUSH1 0x54 PUSH1 0x1 PUSH1 0x2 DUP2 LT PUSH2 0xE7C JUMPI PUSH2 0xE7B PUSH2 0x468E JUMP JUMPDEST JUMPDEST PUSH1 0x2 MUL ADD PUSH1 0x0 PUSH1 0x2 DUP2 LT PUSH2 0xE93 JUMPI PUSH2 0xE92 PUSH2 0x468E JUMP JUMPDEST JUMPDEST ADD DUP2 SWAP1 SSTORE POP PUSH1 0x0 PUSH1 0x54 PUSH1 0x1 PUSH1 0x2 DUP2 LT PUSH2 0xEAF JUMPI PUSH2 0xEAE PUSH2 0x468E JUMP JUMPDEST JUMPDEST PUSH1 0x2 MUL ADD PUSH1 0x1 PUSH1 0x2 DUP2 LT PUSH2 0xEC6 JUMPI PUSH2 0xEC5 PUSH2 0x468E JUMP JUMPDEST JUMPDEST ADD DUP2 SWAP1 SSTORE POP PUSH1 0x0 PUSH1 0x1 SWAP1 POP JUMPDEST PUSH1 0x10 DUP2 LT ISZERO PUSH2 0x1024 JUMPI PUSH1 0x0 PUSH1 0x8 DUP3 PUSH1 0x10 DUP2 LT PUSH2 0xEF1 JUMPI PUSH2 0xEF0 PUSH2 0x468E JUMP JUMPDEST JUMPDEST PUSH1 0x2 MUL ADD PUSH1 0x0 PUSH1 0x2 DUP2 LT PUSH2 0xF08 JUMPI PUSH2 0xF07 PUSH2 0x468E JUMP JUMPDEST JUMPDEST ADD DUP2 SWAP1 SSTORE POP PUSH1 0x0 PUSH1 0x8 DUP3 PUSH1 0x10 DUP2 LT PUSH2 0xF23 JUMPI PUSH2 0xF22 PUSH2 0x468E JUMP JUMPDEST JUMPDEST PUSH1 0x2 MUL ADD PUSH1 0x1 PUSH1 0x2 DUP2 LT PUSH2 0xF3A JUMPI PUSH2 0xF39 PUSH2 0x468E JUMP JUMPDEST JUMPDEST ADD DUP2 SWAP1 SSTORE POP PUSH1 0x0 PUSH1 0x28 DUP3 PUSH1 0x10 DUP2 LT PUSH2 0xF55 JUMPI PUSH2 0xF54 PUSH2 0x468E JUMP JUMPDEST JUMPDEST PUSH1 0x2 MUL ADD PUSH1 0x0 PUSH1 0x2 DUP2 LT PUSH2 0xF6C JUMPI PUSH2 0xF6B PUSH2 0x468E JUMP JUMPDEST JUMPDEST ADD DUP2 SWAP1 SSTORE POP PUSH1 0x0 PUSH1 0x28 DUP3 PUSH1 0x10 DUP2 LT PUSH2 0xF87 JUMPI PUSH2 0xF86 PUSH2 0x468E JUMP JUMPDEST JUMPDEST PUSH1 0x2 MUL ADD PUSH1 0x1 PUSH1 0x2 DUP2 LT PUSH2 0xF9E JUMPI PUSH2 0xF9D PUSH2 0x468E JUMP JUMPDEST JUMPDEST ADD DUP2 SWAP1 SSTORE POP PUSH1 0x4 DUP2 LT ISZERO PUSH2 0x1011 JUMPI PUSH1 0x0 PUSH1 0x48 DUP3 PUSH1 0x4 DUP2 LT PUSH2 0xFC2 JUMPI PUSH2 0xFC1 PUSH2 0x468E JUMP JUMPDEST JUMPDEST PUSH1 0x2 MUL ADD PUSH1 0x0 PUSH1 0x2 DUP2 LT PUSH2 0xFD9 JUMPI PUSH2 0xFD8 PUSH2 0x468E JUMP JUMPDEST JUMPDEST ADD DUP2 SWAP1 SSTORE POP PUSH1 0x0 PUSH1 0x48 DUP3 PUSH1 0x4 DUP2 LT PUSH2 0xFF4 JUMPI PUSH2 0xFF3 PUSH2 0x468E JUMP JUMPDEST JUMPDEST PUSH1 0x2 MUL ADD PUSH1 0x1 PUSH1 0x2 DUP2 LT PUSH2 0x100B JUMPI PUSH2 0x100A PUSH2 0x468E JUMP JUMPDEST JUMPDEST ADD DUP2 SWAP1 SSTORE POP JUMPDEST DUP1 DUP1 PUSH2 0x101C SWAP1 PUSH2 0x46BD JUMP JUMPDEST SWAP2 POP POP PUSH2 0xED2 JUMP JUMPDEST POP PUSH2 0x102F PUSH1 0x3 PUSH2 0x1F9C JUMP JUMPDEST PUSH2 0x10AD PUSH1 0x48 PUSH1 0x4 DUP1 PUSH1 0x20 MUL PUSH1 0x40 MLOAD SWAP1 DUP2 ADD PUSH1 0x40 MSTORE DUP1 SWAP3 SWAP2 SWAP1 PUSH1 0x0 SWAP1 JUMPDEST DUP3 DUP3 LT ISZERO PUSH2 0x10A4 JUMPI DUP4 DUP3 PUSH1 0x2 MUL ADD PUSH1 0x2 DUP1 PUSH1 0x20 MUL PUSH1 0x40 MLOAD SWAP1 DUP2 ADD PUSH1 0x40 MSTORE DUP1 SWAP3 SWAP2 SWAP1 DUP3 PUSH1 0x2 DUP1 ISZERO PUSH2 0x1090 JUMPI PUSH1 0x20 MUL DUP3 ADD SWAP2 JUMPDEST DUP2 SLOAD DUP2 MSTORE PUSH1 0x20 ADD SWAP1 PUSH1 0x1 ADD SWAP1 DUP1 DUP4 GT PUSH2 0x107C JUMPI JUMPDEST POP POP POP POP POP DUP2 MSTORE PUSH1 0x20 ADD SWAP1 PUSH1 0x1 ADD SWAP1 PUSH2 0x104B JUMP JUMPDEST POP POP POP POP PUSH2 0x1494 JUMP JUMPDEST PUSH1 0x48 SWAP1 PUSH1 0x4 PUSH2 0x10BD SWAP3 SWAP2 SWAP1 PUSH2 0x3CA0 JUMP JUMPDEST POP PUSH2 0x1124 PUSH1 0x48 PUSH1 0x1 PUSH1 0x4 DUP2 LT PUSH2 0x10D6 JUMPI PUSH2 0x10D5 PUSH2 0x468E JUMP JUMPDEST JUMPDEST PUSH1 0x2 MUL ADD PUSH1 0x0 PUSH1 0x2 DUP2 LT PUSH2 0x10ED JUMPI PUSH2 0x10EC PUSH2 0x468E JUMP JUMPDEST JUMPDEST ADD SLOAD PUSH1 0x48 PUSH1 0x1 PUSH1 0x4 DUP2 LT PUSH2 0x1104 JUMPI PUSH2 0x1103 PUSH2 0x468E JUMP JUMPDEST JUMPDEST PUSH1 0x2 MUL ADD PUSH1 0x1 PUSH1 0x2 DUP2 LT PUSH2 0x111B JUMPI PUSH2 0x111A PUSH2 0x468E JUMP JUMPDEST JUMPDEST ADD SLOAD PUSH1 0x1 PUSH2 0x27AC JUMP JUMPDEST PUSH2 0x118A PUSH1 0x48 PUSH1 0x2 PUSH1 0x4 DUP2 LT PUSH2 0x113C JUMPI PUSH2 0x113B PUSH2 0x468E JUMP JUMPDEST JUMPDEST PUSH1 0x2 MUL ADD PUSH1 0x0 PUSH1 0x2 DUP2 LT PUSH2 0x1153 JUMPI PUSH2 0x1152 PUSH2 0x468E JUMP JUMPDEST JUMPDEST ADD SLOAD PUSH1 0x48 PUSH1 0x2 PUSH1 0x4 DUP2 LT PUSH2 0x116A JUMPI PUSH2 0x1169 PUSH2 0x468E JUMP JUMPDEST JUMPDEST PUSH1 0x2 MUL ADD PUSH1 0x1 PUSH1 0x2 DUP2 LT PUSH2 0x1181 JUMPI PUSH2 0x1180 PUSH2 0x468E JUMP JUMPDEST JUMPDEST ADD SLOAD PUSH1 0x1 PUSH2 0x2897 JUMP JUMPDEST PUSH2 0x11F0 PUSH1 0x48 PUSH1 0x3 PUSH1 0x4 DUP2 LT PUSH2 0x11A2 JUMPI PUSH2 0x11A1 PUSH2 0x468E JUMP JUMPDEST JUMPDEST PUSH1 0x2 MUL ADD PUSH1 0x0 PUSH1 0x2 DUP2 LT PUSH2 0x11B9 JUMPI PUSH2 0x11B8 PUSH2 0x468E JUMP JUMPDEST JUMPDEST ADD SLOAD PUSH1 0x48 PUSH1 0x3 PUSH1 0x4 DUP2 LT PUSH2 0x11D0 JUMPI PUSH2 0x11CF PUSH2 0x468E JUMP JUMPDEST JUMPDEST PUSH1 0x2 MUL ADD PUSH1 0x1 PUSH1 0x2 DUP2 LT PUSH2 0x11E7 JUMPI PUSH2 0x11E6 PUSH2 0x468E JUMP JUMPDEST JUMPDEST ADD SLOAD PUSH1 0x2 PUSH2 0x27AC JUMP JUMPDEST PUSH2 0x11F8 PUSH2 0x2982 JUMP JUMPDEST PUSH2 0x1200 PUSH2 0x2BF7 JUMP JUMPDEST PUSH2 0x1208 PUSH2 0x2E6C JUMP JUMPDEST PUSH2 0x1210 PUSH2 0x3304 JUMP JUMPDEST PUSH1 0x15 PUSH1 0x54 PUSH1 0x1 PUSH1 0x2 DUP2 LT PUSH2 0x1227 JUMPI PUSH2 0x1226 PUSH2 0x468E JUMP JUMPDEST JUMPDEST PUSH1 0x2 MUL ADD PUSH1 0x1 PUSH1 0x2 DUP2 LT PUSH2 0x123E JUMPI PUSH2 0x123D PUSH2 0x468E JUMP JUMPDEST JUMPDEST ADD SLOAD SUB PUSH2 0x124E JUMPI PUSH2 0x124D PUSH2 0x379C JUMP JUMPDEST JUMPDEST PUSH1 0x0 DUP1 PUSH1 0x0 PUSH2 0x100 EXP DUP2 SLOAD DUP2 PUSH1 0xFF MUL NOT AND SWAP1 DUP4 ISZERO ISZERO MUL OR SWAP1 SSTORE POP JUMP JUMPDEST DUP1 PUSH1 0x0 PUSH1 0x3 SLOAD GT PUSH2 0x12B0 JUMPI PUSH1 0x40 MLOAD PUSH32 0x8C379A000000000000000000000000000000000000000000000000000000000 DUP2 MSTORE PUSH1 0x4 ADD PUSH2 0x12A7 SWAP1 PUSH2 0x4777 JUMP JUMPDEST PUSH1 0x40 MLOAD DUP1 SWAP2 SUB SWAP1 REVERT JUMPDEST PUSH1 0x64 PUSH1 0x0 SWAP1 SLOAD SWAP1 PUSH2 0x100 EXP SWAP1 DIV PUSH20 0xFFFFFFFFFFFFFFFFFFFFFFFFFFFFFFFFFFFFFFFF AND PUSH20 0xFFFFFFFFFFFFFFFFFFFFFFFFFFFFFFFFFFFFFFFF AND CALLER PUSH20 0xFFFFFFFFFFFFFFFFFFFFFFFFFFFFFFFFFFFFFFFF AND EQ PUSH2 0x1340 JUMPI PUSH1 0x40 MLOAD PUSH32 0x8C379A000000000000000000000000000000000000000000000000000000000 DUP2 MSTORE PUSH1 0x4 ADD PUSH2 0x1337 SWAP1 PUSH2 0x4809 JUMP JUMPDEST PUSH1 0x40 MLOAD DUP1 SWAP2 SUB SWAP1 REVERT JUMPDEST PUSH1 0x3 SLOAD DUP2 GT ISZERO PUSH2 0x1385 JUMPI PUSH1 0x40 MLOAD PUSH32 0x8C379A000000000000000000000000000000000000000000000000000000000 DUP2 MSTORE PUSH1 0x4 ADD PUSH2 0x137C SWAP1 PUSH2 0x489B JUMP JUMPDEST PUSH1 0x40 MLOAD DUP1 SWAP2 SUB SWAP1 REVERT JUMPDEST PUSH1 0x0 DUP1 SLOAD SWAP1 PUSH2 0x100 EXP SWAP1 DIV PUSH1 0xFF AND ISZERO PUSH2 0x13D3 JUMPI PUSH1 0x40 MLOAD PUSH32 0x8C379A000000000000000000000000000000000000000000000000000000000 DUP2 MSTORE PUSH1 0x4 ADD PUSH2 0x13CA SWAP1 PUSH2 0x438F JUMP JUMPDEST PUSH1 0x40 MLOAD DUP1 SWAP2 SUB SWAP1 REVERT JUMPDEST PUSH1 0x1 PUSH1 0x0 DUP1 PUSH2 0x100 EXP DUP2 SLOAD DUP2 PUSH1 0xFF MUL NOT AND SWAP1 DUP4 ISZERO ISZERO MUL OR SWAP1 SSTORE POP DUP2 PUSH1 0x3 SLOAD PUSH2 0x13FB SWAP2 SWAP1 PUSH2 0x43DE JUMP JUMPDEST PUSH1 0x3 DUP2 SWAP1 SSTORE POP PUSH1 0x64 PUSH1 0x0 SWAP1 SLOAD SWAP1 PUSH2 0x100 EXP SWAP1 DIV PUSH20 0xFFFFFFFFFFFFFFFFFFFFFFFFFFFFFFFFFFFFFFFF AND PUSH20 0xFFFFFFFFFFFFFFFFFFFFFFFFFFFFFFFFFFFFFFFF AND PUSH2 0x8FC DUP4 SWAP1 DUP2 ISZERO MUL SWAP1 PUSH1 0x40 MLOAD PUSH1 0x0 PUSH1 0x40 MLOAD DUP1 DUP4 SUB DUP2 DUP6 DUP9 DUP9 CALL SWAP4 POP POP POP POP ISZERO DUP1 ISZERO PUSH2 0x1469 JUMPI RETURNDATASIZE PUSH1 0x0 DUP1 RETURNDATACOPY RETURNDATASIZE PUSH1 0x0 REVERT JUMPDEST POP PUSH1 0x0 DUP1 PUSH1 0x0 PUSH2 0x100 EXP DUP2 SLOAD DUP2 PUSH1 0xFF MUL NOT AND SWAP1 DUP4 ISZERO ISZERO MUL OR SWAP1 SSTORE POP POP POP JUMP JUMPDEST PUSH1 0x3 SLOAD DUP2 JUMP JUMPDEST PUSH1 0x2 SLOAD DUP2 JUMP JUMPDEST PUSH2 0x149C PUSH2 0x3CF1 JUMP JUMPDEST JUMPDEST DUP2 PUSH1 0x2 PUSH1 0x4 DUP2 LT PUSH2 0x14B1 JUMPI PUSH2 0x14B0 PUSH2 0x468E JUMP JUMPDEST JUMPDEST PUSH1 0x20 MUL ADD MLOAD PUSH1 0x0 PUSH1 0x2 DUP2 LT PUSH2 0x14C9 JUMPI PUSH2 0x14C8 PUSH2 0x468E JUMP JUMPDEST JUMPDEST PUSH1 0x20 MUL ADD MLOAD DUP3 PUSH1 0x1 PUSH1 0x4 DUP2 LT PUSH2 0x14E2 JUMPI PUSH2 0x14E1 PUSH2 0x468E JUMP JUMPDEST JUMPDEST PUSH1 0x20 MUL ADD MLOAD PUSH1 0x0 PUSH1 0x2 DUP2 LT PUSH2 0x14FA JUMPI PUSH2 0x14F9 PUSH2 0x468E JUMP JUMPDEST JUMPDEST PUSH1 0x20 MUL ADD MLOAD EQ DUP1 ISZERO PUSH2 0x156B JUMPI POP DUP2 PUSH1 0x2 PUSH1 0x4 DUP2 LT PUSH2 0x151B JUMPI PUSH2 0x151A PUSH2 0x468E JUMP JUMPDEST JUMPDEST PUSH1 0x20 MUL ADD MLOAD PUSH1 0x1 PUSH1 0x2 DUP2 LT PUSH2 0x1533 JUMPI PUSH2 0x1532 PUSH2 0x468E JUMP JUMPDEST JUMPDEST PUSH1 0x20 MUL ADD MLOAD DUP3 PUSH1 0x1 PUSH1 0x4 DUP2 LT PUSH2 0x154C JUMPI PUSH2 0x154B PUSH2 0x468E JUMP JUMPDEST JUMPDEST PUSH1 0x20 MUL ADD MLOAD PUSH1 0x1 PUSH1 0x2 DUP2 LT PUSH2 0x1564 JUMPI PUSH2 0x1563 PUSH2 0x468E JUMP JUMPDEST JUMPDEST PUSH1 0x20 MUL ADD MLOAD EQ JUMPDEST ISZERO PUSH2 0x1645 JUMPI PUSH2 0x157A PUSH1 0x1 PUSH2 0x1F9C JUMP JUMPDEST PUSH1 0x48 PUSH1 0x2 PUSH1 0x4 DUP2 LT PUSH2 0x158F JUMPI PUSH2 0x158E PUSH2 0x468E JUMP JUMPDEST JUMPDEST PUSH1 0x2 MUL ADD PUSH1 0x0 PUSH1 0x2 DUP2 LT PUSH2 0x15A6 JUMPI PUSH2 0x15A5 PUSH2 0x468E JUMP JUMPDEST JUMPDEST ADD SLOAD DUP3 PUSH1 0x1 PUSH1 0x4 DUP2 LT PUSH2 0x15BC JUMPI PUSH2 0x15BB PUSH2 0x468E JUMP JUMPDEST JUMPDEST PUSH1 0x20 MUL ADD MLOAD PUSH1 0x0 PUSH1 0x2 DUP2 LT PUSH2 0x15D4 JUMPI PUSH2 0x15D3 PUSH2 0x468E JUMP JUMPDEST JUMPDEST PUSH1 0x20 MUL ADD DUP2 DUP2 MSTORE POP POP PUSH1 0x48 PUSH1 0x1 PUSH1 0x4 DUP2 LT PUSH2 0x15F2 JUMPI PUSH2 0x15F1 PUSH2 0x468E JUMP JUMPDEST JUMPDEST PUSH1 0x2 MUL ADD PUSH1 0x1 PUSH1 0x2 DUP2 LT PUSH2 0x1609 JUMPI PUSH2 0x1608 PUSH2 0x468E JUMP JUMPDEST JUMPDEST ADD SLOAD DUP3 PUSH1 0x2 PUSH1 0x4 DUP2 LT PUSH2 0x161F JUMPI PUSH2 0x161E PUSH2 0x468E JUMP JUMPDEST JUMPDEST PUSH1 0x20 MUL ADD MLOAD PUSH1 0x1 PUSH1 0x2 DUP2 LT PUSH2 0x1637 JUMPI PUSH2 0x1636 PUSH2 0x468E JUMP JUMPDEST JUMPDEST PUSH1 0x20 MUL ADD DUP2 DUP2 MSTORE POP POP PUSH2 0x149D JUMP JUMPDEST JUMPDEST DUP2 PUSH1 0x3 PUSH1 0x4 DUP2 LT PUSH2 0x165A JUMPI PUSH2 0x1659 PUSH2 0x468E JUMP JUMPDEST JUMPDEST PUSH1 0x20 MUL ADD MLOAD PUSH1 0x0 PUSH1 0x2 DUP2 LT PUSH2 0x1672 JUMPI PUSH2 0x1671 PUSH2 0x468E JUMP JUMPDEST JUMPDEST PUSH1 0x20 MUL ADD MLOAD DUP3 PUSH1 0x2 PUSH1 0x4 DUP2 LT PUSH2 0x168B JUMPI PUSH2 0x168A PUSH2 0x468E JUMP JUMPDEST JUMPDEST PUSH1 0x20 MUL ADD MLOAD PUSH1 0x0 PUSH1 0x2 DUP2 LT PUSH2 0x16A3 JUMPI PUSH2 0x16A2 PUSH2 0x468E JUMP JUMPDEST JUMPDEST PUSH1 0x20 MUL ADD MLOAD EQ DUP1 ISZERO PUSH2 0x1714 JUMPI POP DUP2 PUSH1 0x3 PUSH1 0x4 DUP2 LT PUSH2 0x16C4 JUMPI PUSH2 0x16C3 PUSH2 0x468E JUMP JUMPDEST JUMPDEST PUSH1 0x20 MUL ADD MLOAD PUSH1 0x1 PUSH1 0x2 DUP2 LT PUSH2 0x16DC JUMPI PUSH2 0x16DB PUSH2 0x468E JUMP JUMPDEST JUMPDEST PUSH1 0x20 MUL ADD MLOAD DUP3 PUSH1 0x2 PUSH1 0x4 DUP2 LT PUSH2 0x16F5 JUMPI PUSH2 0x16F4 PUSH2 0x468E JUMP JUMPDEST JUMPDEST PUSH1 0x20 MUL ADD MLOAD PUSH1 0x1 PUSH1 0x2 DUP2 LT PUSH2 0x170D JUMPI PUSH2 0x170C PUSH2 0x468E JUMP JUMPDEST JUMPDEST PUSH1 0x20 MUL ADD MLOAD EQ JUMPDEST ISZERO PUSH2 0x17EE JUMPI PUSH2 0x1723 PUSH1 0x1 PUSH2 0x1F9C JUMP JUMPDEST PUSH1 0x48 PUSH1 0x1 PUSH1 0x4 DUP2 LT PUSH2 0x1738 JUMPI PUSH2 0x1737 PUSH2 0x468E JUMP JUMPDEST JUMPDEST PUSH1 0x2 MUL ADD PUSH1 0x0 PUSH1 0x2 DUP2 LT PUSH2 0x174F JUMPI PUSH2 0x174E PUSH2 0x468E JUMP JUMPDEST JUMPDEST ADD SLOAD DUP3 PUSH1 0x3 PUSH1 0x4 DUP2 LT PUSH2 0x1765 JUMPI PUSH2 0x1764 PUSH2 0x468E JUMP JUMPDEST JUMPDEST PUSH1 0x20 MUL ADD MLOAD PUSH1 0x0 PUSH1 0x2 DUP2 LT PUSH2 0x177D JUMPI PUSH2 0x177C PUSH2 0x468E JUMP JUMPDEST JUMPDEST PUSH1 0x20 MUL ADD DUP2 DUP2 MSTORE POP POP PUSH1 0x48 PUSH1 0x1 PUSH1 0x4 DUP2 LT PUSH2 0x179B JUMPI PUSH2 0x179A PUSH2 0x468E JUMP JUMPDEST JUMPDEST PUSH1 0x2 MUL ADD PUSH1 0x1 PUSH1 0x2 DUP2 LT PUSH2 0x17B2 JUMPI PUSH2 0x17B1 PUSH2 0x468E JUMP JUMPDEST JUMPDEST ADD SLOAD DUP3 PUSH1 0x3 PUSH1 0x4 DUP2 LT PUSH2 0x17C8 JUMPI PUSH2 0x17C7 PUSH2 0x468E JUMP JUMPDEST JUMPDEST PUSH1 0x20 MUL ADD MLOAD PUSH1 0x1 PUSH1 0x2 DUP2 LT PUSH2 0x17E0 JUMPI PUSH2 0x17DF PUSH2 0x468E JUMP JUMPDEST JUMPDEST PUSH1 0x20 MUL ADD DUP2 DUP2 MSTORE POP POP PUSH2 0x1646 JUMP JUMPDEST DUP2 SWAP1 POP SWAP2 SWAP1 POP JUMP JUMPDEST PUSH1 0x50 SLOAD DUP2 JUMP JUMPDEST PUSH1 0x28 DUP3 PUSH1 0x10 DUP2 LT PUSH2 0x180C JUMPI PUSH1 0x0 DUP1 REVERT JUMPDEST PUSH1 0x2 MUL ADD DUP2 PUSH1 0x2 DUP2 LT PUSH2 0x181E JUMPI PUSH1 0x0 DUP1 REVERT JUMPDEST ADD PUSH1 0x0 SWAP2 POP SWAP2 POP POP SLOAD DUP2 JUMP JUMPDEST PUSH1 0x51 SLOAD DUP2 JUMP JUMPDEST PUSH1 0x5F SLOAD DUP2 JUMP JUMPDEST PUSH1 0x8 DUP3 PUSH1 0x10 DUP2 LT PUSH2 0x1846 JUMPI PUSH1 0x0 DUP1 REVERT JUMPDEST PUSH1 0x2 MUL ADD DUP2 PUSH1 0x2 DUP2 LT PUSH2 0x1858 JUMPI PUSH1 0x0 DUP1 REVERT JUMPDEST ADD PUSH1 0x0 SWAP2 POP SWAP2 POP POP SLOAD DUP2 JUMP JUMPDEST PUSH1 0x0 PUSH2 0x18E4 PUSH1 0x28 PUSH1 0x10 DUP1 PUSH1 0x20 MUL PUSH1 0x40 MLOAD SWAP1 DUP2 ADD PUSH1 0x40 MSTORE DUP1 SWAP3 SWAP2 SWAP1 PUSH1 0x0 SWAP1 JUMPDEST DUP3 DUP3 LT ISZERO PUSH2 0x18DB JUMPI DUP4 DUP3 PUSH1 0x2 MUL ADD PUSH1 0x2 DUP1 PUSH1 0x20 MUL PUSH1 0x40 MLOAD SWAP1 DUP2 ADD PUSH1 0x40 MSTORE DUP1 SWAP3 SWAP2 SWAP1 DUP3 PUSH1 0x2 DUP1 ISZERO PUSH2 0x18C7 JUMPI PUSH1 0x20 MUL DUP3 ADD SWAP2 JUMPDEST DUP2 SLOAD DUP2 MSTORE PUSH1 0x20 ADD SWAP1 PUSH1 0x1 ADD SWAP1 DUP1 DUP4 GT PUSH2 0x18B3 JUMPI JUMPDEST POP POP POP POP POP DUP2 MSTORE PUSH1 0x20 ADD SWAP1 PUSH1 0x1 ADD SWAP1 PUSH2 0x1882 JUMP JUMPDEST POP POP POP POP PUSH2 0x37A6 JUMP JUMPDEST SWAP1 POP PUSH2 0x18F0 PUSH1 0x1 PUSH2 0x1F9C JUMP JUMPDEST PUSH1 0x0 PUSH1 0x1 SWAP1 POP JUMPDEST DUP2 DUP2 GT PUSH2 0x1AAA JUMPI JUMPDEST PUSH1 0x48 PUSH1 0x1 PUSH1 0x4 DUP2 LT PUSH2 0x1914 JUMPI PUSH2 0x1913 PUSH2 0x468E JUMP JUMPDEST JUMPDEST PUSH1 0x2 MUL ADD PUSH1 0x0 PUSH1 0x2 DUP2 LT PUSH2 0x192B JUMPI PUSH2 0x192A PUSH2 0x468E JUMP JUMPDEST JUMPDEST ADD SLOAD PUSH1 0x8 DUP3 PUSH1 0x10 DUP2 LT PUSH2 0x1941 JUMPI PUSH2 0x1940 PUSH2 0x468E JUMP JUMPDEST JUMPDEST PUSH1 0x2 MUL ADD PUSH1 0x0 PUSH1 0x2 DUP2 LT PUSH2 0x1958 JUMPI PUSH2 0x1957 PUSH2 0x468E JUMP JUMPDEST JUMPDEST ADD SLOAD EQ DUP1 PUSH2 0x19BE JUMPI POP PUSH1 0x48 PUSH1 0x1 PUSH1 0x4 DUP2 LT PUSH2 0x1976 JUMPI PUSH2 0x1975 PUSH2 0x468E JUMP JUMPDEST JUMPDEST PUSH1 0x2 MUL ADD PUSH1 0x0 PUSH1 0x2 DUP2 LT PUSH2 0x198D JUMPI PUSH2 0x198C PUSH2 0x468E JUMP JUMPDEST JUMPDEST ADD SLOAD PUSH1 0x28 DUP3 PUSH1 0x10 DUP2 LT PUSH2 0x19A3 JUMPI PUSH2 0x19A2 PUSH2 0x468E JUMP JUMPDEST JUMPDEST PUSH1 0x2 MUL ADD PUSH1 0x0 PUSH1 0x2 DUP2 LT PUSH2 0x19BA JUMPI PUSH2 0x19B9 PUSH2 0x468E JUMP JUMPDEST JUMPDEST ADD SLOAD EQ JUMPDEST ISZERO PUSH2 0x1A97 JUMPI PUSH1 0x48 PUSH1 0x1 PUSH1 0x4 DUP2 LT PUSH2 0x19D8 JUMPI PUSH2 0x19D7 PUSH2 0x468E JUMP JUMPDEST JUMPDEST PUSH1 0x2 MUL ADD PUSH1 0x1 PUSH1 0x2 DUP2 LT PUSH2 0x19EF JUMPI PUSH2 0x19EE PUSH2 0x468E JUMP JUMPDEST JUMPDEST ADD SLOAD PUSH1 0x8 DUP3 PUSH1 0x10 DUP2 LT PUSH2 0x1A05 JUMPI PUSH2 0x1A04 PUSH2 0x468E JUMP JUMPDEST JUMPDEST PUSH1 0x2 MUL ADD PUSH1 0x1 PUSH1 0x2 DUP2 LT PUSH2 0x1A1C JUMPI PUSH2 0x1A1B PUSH2 0x468E JUMP JUMPDEST JUMPDEST ADD SLOAD EQ DUP1 PUSH2 0x1A82 JUMPI POP PUSH1 0x48 PUSH1 0x1 PUSH1 0x4 DUP2 LT PUSH2 0x1A3A JUMPI PUSH2 0x1A39 PUSH2 0x468E JUMP JUMPDEST JUMPDEST PUSH1 0x2 MUL ADD PUSH1 0x1 PUSH1 0x2 DUP2 LT PUSH2 0x1A51 JUMPI PUSH2 0x1A50 PUSH2 0x468E JUMP JUMPDEST JUMPDEST ADD SLOAD PUSH1 0x28 DUP3 PUSH1 0x10 DUP2 LT PUSH2 0x1A67 JUMPI PUSH2 0x1A66 PUSH2 0x468E JUMP JUMPDEST JUMPDEST PUSH1 0x2 MUL ADD PUSH1 0x1 PUSH1 0x2 DUP2 LT PUSH2 0x1A7E JUMPI PUSH2 0x1A7D PUSH2 0x468E JUMP JUMPDEST JUMPDEST ADD SLOAD EQ JUMPDEST ISZERO PUSH2 0x1A92 JUMPI PUSH2 0x1A91 PUSH1 0x1 PUSH2 0x1F9C JUMP JUMPDEST JUMPDEST PUSH2 0x18FF JUMP JUMPDEST DUP1 DUP1 PUSH2 0x1AA2 SWAP1 PUSH2 0x46BD JUMP JUMPDEST SWAP2 POP POP PUSH2 0x18F7 JUMP JUMPDEST POP PUSH2 0x1B1C PUSH1 0x48 PUSH1 0x1 PUSH1 0x4 DUP2 LT PUSH2 0x1AC3 JUMPI PUSH2 0x1AC2 PUSH2 0x468E JUMP JUMPDEST JUMPDEST PUSH1 0x2 MUL ADD PUSH1 0x0 PUSH1 0x2 DUP2 LT PUSH2 0x1ADA JUMPI PUSH2 0x1AD9 PUSH2 0x468E JUMP JUMPDEST JUMPDEST ADD SLOAD PUSH1 0x48 PUSH1 0x1 PUSH1 0x4 DUP2 LT PUSH2 0x1AF1 JUMPI PUSH2 0x1AF0 PUSH2 0x468E JUMP JUMPDEST JUMPDEST PUSH1 0x2 MUL ADD PUSH1 0x1 PUSH1 0x2 DUP2 LT PUSH2 0x1B08 JUMPI PUSH2 0x1B07 PUSH2 0x468E JUMP JUMPDEST JUMPDEST ADD SLOAD PUSH1 0x1 DUP5 PUSH2 0x1B17 SWAP2 SWAP1 PUSH2 0x45C8 JUMP JUMPDEST PUSH2 0x2897 JUMP JUMPDEST PUSH2 0x1B24 PUSH2 0x2BF7 JUMP JUMPDEST PUSH2 0x1B2C PUSH2 0x2E6C JUMP JUMPDEST POP JUMP JUMPDEST PUSH1 0x0 PUSH1 0x5F SLOAD EQ PUSH2 0x1B74 JUMPI PUSH1 0x40 MLOAD PUSH32 0x8C379A000000000000000000000000000000000000000000000000000000000 DUP2 MSTORE PUSH1 0x4 ADD PUSH2 0x1B6B SWAP1 PUSH2 0x4907 JUMP JUMPDEST PUSH1 0x40 MLOAD DUP1 SWAP2 SUB SWAP1 REVERT JUMPDEST PUSH1 0x1 PUSH1 0x5F DUP2 SWAP1 SSTORE POP PUSH2 0x1B84 PUSH2 0x2E6C JUMP JUMPDEST PUSH1 0x0 PUSH1 0x1 DUP2 SWAP1 SSTORE POP JUMP JUMPDEST PUSH1 0x53 SLOAD DUP2 JUMP JUMPDEST PUSH1 0x0 PUSH1 0x5E SLOAD EQ PUSH2 0x1BD9 JUMPI PUSH1 0x40 MLOAD PUSH32 0x8C379A000000000000000000000000000000000000000000000000000000000 DUP2 MSTORE PUSH1 0x4 ADD PUSH2 0x1BD0 SWAP1 PUSH2 0x4973 JUMP JUMPDEST PUSH1 0x40 MLOAD DUP1 SWAP2 SUB SWAP1 REVERT JUMPDEST PUSH1 0x1 PUSH1 0x5E DUP2 SWAP1 SSTORE POP PUSH2 0x1BE9 PUSH2 0x3304 JUMP JUMPDEST JUMP JUMPDEST PUSH1 0x5C SLOAD DUP2 JUMP JUMPDEST PUSH8 0x8AC7230489E80000 DUP2 JUMP JUMPDEST PUSH1 0x4 SLOAD DUP2 JUMP JUMPDEST PUSH1 0x1 DUP1 SLOAD EQ PUSH2 0x1C47 JUMPI PUSH1 0x40 MLOAD PUSH32 0x8C379A000000000000000000000000000000000000000000000000000000000 DUP2 MSTORE PUSH1 0x4 ADD PUSH2 0x1C3E SWAP1 PUSH2 0x49DF JUMP JUMPDEST PUSH1 0x40 MLOAD DUP1 SWAP2 SUB SWAP1 REVERT JUMPDEST PUSH1 0x0 PUSH1 0x52 SLOAD EQ PUSH2 0x1C8C JUMPI PUSH1 0x40 MLOAD PUSH32 0x8C379A000000000000000000000000000000000000000000000000000000000 DUP2 MSTORE PUSH1 0x4 ADD PUSH2 0x1C83 SWAP1 PUSH2 0x4A4B JUMP JUMPDEST PUSH1 0x40 MLOAD DUP1 SWAP2 SUB SWAP1 REVERT JUMPDEST PUSH1 0x0 PUSH1 0x5E SLOAD EQ PUSH2 0x1CD1 JUMPI PUSH1 0x40 MLOAD PUSH32 0x8C379A000000000000000000000000000000000000000000000000000000000 DUP2 MSTORE PUSH1 0x4 ADD PUSH2 0x1CC8 SWAP1 PUSH2 0x4973 JUMP JUMPDEST PUSH1 0x40 MLOAD DUP1 SWAP2 SUB SWAP1 REVERT JUMPDEST PUSH1 0x0 PUSH2 0x1D51 PUSH1 0x8 PUSH1 0x10 DUP1 PUSH1 0x20 MUL PUSH1 0x40 MLOAD SWAP1 DUP2 ADD PUSH1 0x40 MSTORE DUP1 SWAP3 SWAP2 SWAP1 PUSH1 0x0 SWAP1 JUMPDEST DUP3 DUP3 LT ISZERO PUSH2 0x1D48 JUMPI DUP4 DUP3 PUSH1 0x2 MUL ADD PUSH1 0x2 DUP1 PUSH1 0x20 MUL PUSH1 0x40 MLOAD SWAP1 DUP2 ADD PUSH1 0x40 MSTORE DUP1 SWAP3 SWAP2 SWAP1 DUP3 PUSH1 0x2 DUP1 ISZERO PUSH2 0x1D34 JUMPI PUSH1 0x20 MUL DUP3 ADD SWAP2 JUMPDEST DUP2 SLOAD DUP2 MSTORE PUSH1 0x20 ADD SWAP1 PUSH1 0x1 ADD SWAP1 DUP1 DUP4 GT PUSH2 0x1D20 JUMPI JUMPDEST POP POP POP POP POP DUP2 MSTORE PUSH1 0x20 ADD SWAP1 PUSH1 0x1 ADD SWAP1 PUSH2 0x1CEF JUMP JUMPDEST POP POP POP POP PUSH2 0x37A6 JUMP JUMPDEST SWAP1 POP PUSH2 0x1D5D PUSH1 0x1 PUSH2 0x1F9C JUMP JUMPDEST PUSH1 0x0 PUSH1 0x1 SWAP1 POP JUMPDEST DUP2 DUP2 GT PUSH2 0x1F17 JUMPI JUMPDEST PUSH1 0x48 PUSH1 0x1 PUSH1 0x4 DUP2 LT PUSH2 0x1D81 JUMPI PUSH2 0x1D80 PUSH2 0x468E JUMP JUMPDEST JUMPDEST PUSH1 0x2 MUL ADD PUSH1 0x0 PUSH1 0x2 DUP2 LT PUSH2 0x1D98 JUMPI PUSH2 0x1D97 PUSH2 0x468E JUMP JUMPDEST JUMPDEST ADD SLOAD PUSH1 0x8 DUP3 PUSH1 0x10 DUP2 LT PUSH2 0x1DAE JUMPI PUSH2 0x1DAD PUSH2 0x468E JUMP JUMPDEST JUMPDEST PUSH1 0x2 MUL ADD PUSH1 0x0 PUSH1 0x2 DUP2 LT PUSH2 0x1DC5 JUMPI PUSH2 0x1DC4 PUSH2 0x468E JUMP JUMPDEST JUMPDEST ADD SLOAD EQ DUP1 PUSH2 0x1E2B JUMPI POP PUSH1 0x48 PUSH1 0x1 PUSH1 0x4 DUP2 LT PUSH2 0x1DE3 JUMPI PUSH2 0x1DE2 PUSH2 0x468E JUMP JUMPDEST JUMPDEST PUSH1 0x2 MUL ADD PUSH1 0x0 PUSH1 0x2 DUP2 LT PUSH2 0x1DFA JUMPI PUSH2 0x1DF9 PUSH2 0x468E JUMP JUMPDEST JUMPDEST ADD SLOAD PUSH1 0x28 DUP3 PUSH1 0x10 DUP2 LT PUSH2 0x1E10 JUMPI PUSH2 0x1E0F PUSH2 0x468E JUMP JUMPDEST JUMPDEST PUSH1 0x2 MUL ADD PUSH1 0x0 PUSH1 0x2 DUP2 LT PUSH2 0x1E27 JUMPI PUSH2 0x1E26 PUSH2 0x468E JUMP JUMPDEST JUMPDEST ADD SLOAD EQ JUMPDEST ISZERO PUSH2 0x1F04 JUMPI PUSH1 0x48 PUSH1 0x1 PUSH1 0x4 DUP2 LT PUSH2 0x1E45 JUMPI PUSH2 0x1E44 PUSH2 0x468E JUMP JUMPDEST JUMPDEST PUSH1 0x2 MUL ADD PUSH1 0x1 PUSH1 0x2 DUP2 LT PUSH2 0x1E5C JUMPI PUSH2 0x1E5B PUSH2 0x468E JUMP JUMPDEST JUMPDEST ADD SLOAD PUSH1 0x8 DUP3 PUSH1 0x10 DUP2 LT PUSH2 0x1E72 JUMPI PUSH2 0x1E71 PUSH2 0x468E JUMP JUMPDEST JUMPDEST PUSH1 0x2 MUL ADD PUSH1 0x1 PUSH1 0x2 DUP2 LT PUSH2 0x1E89 JUMPI PUSH2 0x1E88 PUSH2 0x468E JUMP JUMPDEST JUMPDEST ADD SLOAD EQ DUP1 PUSH2 0x1EEF JUMPI POP PUSH1 0x48 PUSH1 0x1 PUSH1 0x4 DUP2 LT PUSH2 0x1EA7 JUMPI PUSH2 0x1EA6 PUSH2 0x468E JUMP JUMPDEST JUMPDEST PUSH1 0x2 MUL ADD PUSH1 0x1 PUSH1 0x2 DUP2 LT PUSH2 0x1EBE JUMPI PUSH2 0x1EBD PUSH2 0x468E JUMP JUMPDEST JUMPDEST ADD SLOAD PUSH1 0x28 DUP3 PUSH1 0x10 DUP2 LT PUSH2 0x1ED4 JUMPI PUSH2 0x1ED3 PUSH2 0x468E JUMP JUMPDEST JUMPDEST PUSH1 0x2 MUL ADD PUSH1 0x1 PUSH1 0x2 DUP2 LT PUSH2 0x1EEB JUMPI PUSH2 0x1EEA PUSH2 0x468E JUMP JUMPDEST JUMPDEST ADD SLOAD EQ JUMPDEST ISZERO PUSH2 0x1EFF JUMPI PUSH2 0x1EFE PUSH1 0x1 PUSH2 0x1F9C JUMP JUMPDEST JUMPDEST PUSH2 0x1D6C JUMP JUMPDEST DUP1 DUP1 PUSH2 0x1F0F SWAP1 PUSH2 0x46BD JUMP JUMPDEST SWAP2 POP POP PUSH2 0x1D64 JUMP JUMPDEST POP PUSH2 0x1F89 PUSH1 0x48 PUSH1 0x1 PUSH1 0x4 DUP2 LT PUSH2 0x1F30 JUMPI PUSH2 0x1F2F PUSH2 0x468E JUMP JUMPDEST JUMPDEST PUSH1 0x2 MUL ADD PUSH1 0x0 PUSH1 0x2 DUP2 LT PUSH2 0x1F47 JUMPI PUSH2 0x1F46 PUSH2 0x468E JUMP JUMPDEST JUMPDEST ADD SLOAD PUSH1 0x48 PUSH1 0x1 PUSH1 0x4 DUP2 LT PUSH2 0x1F5E JUMPI PUSH2 0x1F5D PUSH2 0x468E JUMP JUMPDEST JUMPDEST PUSH1 0x2 MUL ADD PUSH1 0x1 PUSH1 0x2 DUP2 LT PUSH2 0x1F75 JUMPI PUSH2 0x1F74 PUSH2 0x468E JUMP JUMPDEST JUMPDEST ADD SLOAD PUSH1 0x1 DUP5 PUSH2 0x1F84 SWAP2 SWAP1 PUSH2 0x45C8 JUMP JUMPDEST PUSH2 0x27AC JUMP JUMPDEST PUSH2 0x1F91 PUSH2 0x2982 JUMP JUMPDEST PUSH2 0x1F99 PUSH2 0x3304 JUMP JUMPDEST POP JUMP JUMPDEST PUSH1 0x0 PUSH1 0x1 SWAP1 POP JUMPDEST DUP2 DUP2 GT PUSH2 0x27A8 JUMPI PUSH1 0x0 PUSH1 0x3 SWAP1 POP PUSH1 0x0 PUSH1 0x4 SWAP1 POP PUSH1 0x0 PUSH1 0x7 DUP2 SWAP1 SSTORE POP PUSH1 0x0 PUSH1 0x6 DUP2 SWAP1 SSTORE POP PUSH2 0x1FCE PUSH2 0x381E JUMP JUMPDEST PUSH1 0x5 DUP2 SWAP1 SSTORE POP PUSH2 0x1FDF PUSH1 0x5 SLOAD PUSH2 0x38D2 JUMP JUMPDEST PUSH1 0x60 SWAP1 DUP2 PUSH2 0x1FED SWAP2 SWAP1 PUSH2 0x4C82 JUMP JUMPDEST POP PUSH2 0x2083 DUP3 DUP3 PUSH1 0x60 DUP1 SLOAD PUSH2 0x2000 SWAP1 PUSH2 0x4AA5 JUMP JUMPDEST DUP1 PUSH1 0x1F ADD PUSH1 0x20 DUP1 SWAP2 DIV MUL PUSH1 0x20 ADD PUSH1 0x40 MLOAD SWAP1 DUP2 ADD PUSH1 0x40 MSTORE DUP1 SWAP3 SWAP2 SWAP1 DUP2 DUP2 MSTORE PUSH1 0x20 ADD DUP3 DUP1 SLOAD PUSH2 0x202C SWAP1 PUSH2 0x4AA5 JUMP JUMPDEST DUP1 ISZERO PUSH2 0x2079 JUMPI DUP1 PUSH1 0x1F LT PUSH2 0x204E JUMPI PUSH2 0x100 DUP1 DUP4 SLOAD DIV MUL DUP4 MSTORE SWAP2 PUSH1 0x20 ADD SWAP2 PUSH2 0x2079 JUMP JUMPDEST DUP3 ADD SWAP2 SWAP1 PUSH1 0x0 MSTORE PUSH1 0x20 PUSH1 0x0 KECCAK256 SWAP1 JUMPDEST DUP2 SLOAD DUP2 MSTORE SWAP1 PUSH1 0x1 ADD SWAP1 PUSH1 0x20 ADD DUP1 DUP4 GT PUSH2 0x205C JUMPI DUP3 SWAP1 SUB PUSH1 0x1F AND DUP3 ADD SWAP2 JUMPDEST POP POP POP POP POP PUSH2 0x39A0 JUMP JUMPDEST PUSH1 0x61 SWAP1 DUP2 PUSH2 0x2091 SWAP2 SWAP1 PUSH2 0x4C82 JUMP JUMPDEST POP PUSH2 0x2125 PUSH1 0x61 DUP1 SLOAD PUSH2 0x20A2 SWAP1 PUSH2 0x4AA5 JUMP JUMPDEST DUP1 PUSH1 0x1F ADD PUSH1 0x20 DUP1 SWAP2 DIV MUL PUSH1 0x20 ADD PUSH1 0x40 MLOAD SWAP1 DUP2 ADD PUSH1 0x40 MSTORE DUP1 SWAP3 SWAP2 SWAP1 DUP2 DUP2 MSTORE PUSH1 0x20 ADD DUP3 DUP1 SLOAD PUSH2 0x20CE SWAP1 PUSH2 0x4AA5 JUMP JUMPDEST DUP1 ISZERO PUSH2 0x211B JUMPI DUP1 PUSH1 0x1F LT PUSH2 0x20F0 JUMPI PUSH2 0x100 DUP1 DUP4 SLOAD DIV MUL DUP4 MSTORE SWAP2 PUSH1 0x20 ADD SWAP2 PUSH2 0x211B JUMP JUMPDEST DUP3 ADD SWAP2 SWAP1 PUSH1 0x0 MSTORE PUSH1 0x20 PUSH1 0x0 KECCAK256 SWAP1 JUMPDEST DUP2 SLOAD DUP2 MSTORE SWAP1 PUSH1 0x1 ADD SWAP1 PUSH1 0x20 ADD DUP1 DUP4 GT PUSH2 0x20FE JUMPI DUP3 SWAP1 SUB PUSH1 0x1F AND DUP3 ADD SWAP2 JUMPDEST POP POP POP POP POP PUSH2 0x3AB5 JUMP JUMPDEST PUSH1 0x5 DUP2 SWAP1 SSTORE POP PUSH1 0x60 DUP1 SLOAD PUSH2 0x2138 SWAP1 PUSH2 0x4AA5 JUMP JUMPDEST SWAP1 POP PUSH1 0x62 DUP2 SWAP1 SSTORE POP JUMPDEST PUSH1 0x1 PUSH1 0x5 SLOAD LT DUP1 PUSH2 0x2154 JUMPI POP PUSH1 0xD PUSH1 0x5 SLOAD GT JUMPDEST ISZERO PUSH2 0x2452 JUMPI PUSH1 0x2 DUP3 PUSH2 0x2166 SWAP2 SWAP1 PUSH2 0x45C8 JUMP JUMPDEST SWAP2 POP PUSH1 0x2 DUP2 PUSH2 0x2175 SWAP2 SWAP1 PUSH2 0x45C8 JUMP JUMPDEST SWAP1 POP PUSH2 0x220C DUP3 DUP3 PUSH1 0x60 DUP1 SLOAD PUSH2 0x2189 SWAP1 PUSH2 0x4AA5 JUMP JUMPDEST DUP1 PUSH1 0x1F ADD PUSH1 0x20 DUP1 SWAP2 DIV MUL PUSH1 0x20 ADD PUSH1 0x40 MLOAD SWAP1 DUP2 ADD PUSH1 0x40 MSTORE DUP1 SWAP3 SWAP2 SWAP1 DUP2 DUP2 MSTORE PUSH1 0x20 ADD DUP3 DUP1 SLOAD PUSH2 0x21B5 SWAP1 PUSH2 0x4AA5 JUMP JUMPDEST DUP1 ISZERO PUSH2 0x2202 JUMPI DUP1 PUSH1 0x1F LT PUSH2 0x21D7 JUMPI PUSH2 0x100 DUP1 DUP4 SLOAD DIV MUL DUP4 MSTORE SWAP2 PUSH1 0x20 ADD SWAP2 PUSH2 0x2202 JUMP JUMPDEST DUP3 ADD SWAP2 SWAP1 PUSH1 0x0 MSTORE PUSH1 0x20 PUSH1 0x0 KECCAK256 SWAP1 JUMPDEST DUP2 SLOAD DUP2 MSTORE SWAP1 PUSH1 0x1 ADD SWAP1 PUSH1 0x20 ADD DUP1 DUP4 GT PUSH2 0x21E5 JUMPI DUP3 SWAP1 SUB PUSH1 0x1F AND DUP3 ADD SWAP2 JUMPDEST POP POP POP POP POP PUSH2 0x39A0 JUMP JUMPDEST PUSH1 0x61 SWAP1 DUP2 PUSH2 0x221A SWAP2 SWAP1 PUSH2 0x4C82 JUMP JUMPDEST POP PUSH2 0x22AE PUSH1 0x61 DUP1 SLOAD PUSH2 0x222B SWAP1 PUSH2 0x4AA5 JUMP JUMPDEST DUP1 PUSH1 0x1F ADD PUSH1 0x20 DUP1 SWAP2 DIV MUL PUSH1 0x20 ADD PUSH1 0x40 MLOAD SWAP1 DUP2 ADD PUSH1 0x40 MSTORE DUP1 SWAP3 SWAP2 SWAP1 DUP2 DUP2 MSTORE PUSH1 0x20 ADD DUP3 DUP1 SLOAD PUSH2 0x2257 SWAP1 PUSH2 0x4AA5 JUMP JUMPDEST DUP1 ISZERO PUSH2 0x22A4 JUMPI DUP1 PUSH1 0x1F LT PUSH2 0x2279 JUMPI PUSH2 0x100 DUP1 DUP4 SLOAD DIV MUL DUP4 MSTORE SWAP2 PUSH1 0x20 ADD SWAP2 PUSH2 0x22A4 JUMP JUMPDEST DUP3 ADD SWAP2 SWAP1 PUSH1 0x0 MSTORE PUSH1 0x20 PUSH1 0x0 KECCAK256 SWAP1 JUMPDEST DUP2 SLOAD DUP2 MSTORE SWAP1 PUSH1 0x1 ADD SWAP1 PUSH1 0x20 ADD DUP1 DUP4 GT PUSH2 0x2287 JUMPI DUP3 SWAP1 SUB PUSH1 0x1F AND DUP3 ADD SWAP2 JUMPDEST POP POP POP POP POP PUSH2 0x3AB5 JUMP JUMPDEST PUSH1 0x5 DUP2 SWAP1 SSTORE POP PUSH1 0x3 PUSH1 0x62 SLOAD PUSH2 0x22C3 SWAP2 SWAP1 PUSH2 0x43DE JUMP JUMPDEST DUP3 GT ISZERO PUSH2 0x244D JUMPI PUSH1 0x3 SWAP2 POP PUSH1 0x4 SWAP1 POP PUSH2 0x22DA PUSH2 0x381E JUMP JUMPDEST PUSH1 0x5 DUP2 SWAP1 SSTORE POP PUSH2 0x22EB PUSH1 0x5 SLOAD PUSH2 0x38D2 JUMP JUMPDEST PUSH1 0x60 SWAP1 DUP2 PUSH2 0x22F9 SWAP2 SWAP1 PUSH2 0x4C82 JUMP JUMPDEST POP PUSH2 0x238F DUP3 DUP3 PUSH1 0x60 DUP1 SLOAD PUSH2 0x230C SWAP1 PUSH2 0x4AA5 JUMP JUMPDEST DUP1 PUSH1 0x1F ADD PUSH1 0x20 DUP1 SWAP2 DIV MUL PUSH1 0x20 ADD PUSH1 0x40 MLOAD SWAP1 DUP2 ADD PUSH1 0x40 MSTORE DUP1 SWAP3 SWAP2 SWAP1 DUP2 DUP2 MSTORE PUSH1 0x20 ADD DUP3 DUP1 SLOAD PUSH2 0x2338 SWAP1 PUSH2 0x4AA5 JUMP JUMPDEST DUP1 ISZERO PUSH2 0x2385 JUMPI DUP1 PUSH1 0x1F LT PUSH2 0x235A JUMPI PUSH2 0x100 DUP1 DUP4 SLOAD DIV MUL DUP4 MSTORE SWAP2 PUSH1 0x20 ADD SWAP2 PUSH2 0x2385 JUMP JUMPDEST DUP3 ADD SWAP2 SWAP1 PUSH1 0x0 MSTORE PUSH1 0x20 PUSH1 0x0 KECCAK256 SWAP1 JUMPDEST DUP2 SLOAD DUP2 MSTORE SWAP1 PUSH1 0x1 ADD SWAP1 PUSH1 0x20 ADD DUP1 DUP4 GT PUSH2 0x2368 JUMPI DUP3 SWAP1 SUB PUSH1 0x1F AND DUP3 ADD SWAP2 JUMPDEST POP POP POP POP POP PUSH2 0x39A0 JUMP JUMPDEST PUSH1 0x61 SWAP1 DUP2 PUSH2 0x239D SWAP2 SWAP1 PUSH2 0x4C82 JUMP JUMPDEST POP PUSH2 0x2431 PUSH1 0x61 DUP1 SLOAD PUSH2 0x23AE SWAP1 PUSH2 0x4AA5 JUMP JUMPDEST DUP1 PUSH1 0x1F ADD PUSH1 0x20 DUP1 SWAP2 DIV MUL PUSH1 0x20 ADD PUSH1 0x40 MLOAD SWAP1 DUP2 ADD PUSH1 0x40 MSTORE DUP1 SWAP3 SWAP2 SWAP1 DUP2 DUP2 MSTORE PUSH1 0x20 ADD DUP3 DUP1 SLOAD PUSH2 0x23DA SWAP1 PUSH2 0x4AA5 JUMP JUMPDEST DUP1 ISZERO PUSH2 0x2427 JUMPI DUP1 PUSH1 0x1F LT PUSH2 0x23FC JUMPI PUSH2 0x100 DUP1 DUP4 SLOAD DIV MUL DUP4 MSTORE SWAP2 PUSH1 0x20 ADD SWAP2 PUSH2 0x2427 JUMP JUMPDEST DUP3 ADD SWAP2 SWAP1 PUSH1 0x0 MSTORE PUSH1 0x20 PUSH1 0x0 KECCAK256 SWAP1 JUMPDEST DUP2 SLOAD DUP2 MSTORE SWAP1 PUSH1 0x1 ADD SWAP1 PUSH1 0x20 ADD DUP1 DUP4 GT PUSH2 0x240A JUMPI DUP3 SWAP1 SUB PUSH1 0x1F AND DUP3 ADD SWAP2 JUMPDEST POP POP POP POP POP PUSH2 0x3AB5 JUMP JUMPDEST PUSH1 0x5 DUP2 SWAP1 SSTORE POP PUSH1 0x60 DUP1 SLOAD PUSH2 0x2444 SWAP1 PUSH2 0x4AA5 JUMP JUMPDEST SWAP1 POP PUSH1 0x62 DUP2 SWAP1 SSTORE POP JUMPDEST PUSH2 0x2141 JUMP JUMPDEST PUSH1 0x5 SLOAD PUSH1 0x7 DUP2 SWAP1 SSTORE POP PUSH1 0x2 DUP3 PUSH2 0x2468 SWAP2 SWAP1 PUSH2 0x45C8 JUMP JUMPDEST SWAP2 POP PUSH1 0x2 DUP2 PUSH2 0x2477 SWAP2 SWAP1 PUSH2 0x45C8 JUMP JUMPDEST SWAP1 POP PUSH2 0x250E DUP3 DUP3 PUSH1 0x60 DUP1 SLOAD PUSH2 0x248B SWAP1 PUSH2 0x4AA5 JUMP JUMPDEST DUP1 PUSH1 0x1F ADD PUSH1 0x20 DUP1 SWAP2 DIV MUL PUSH1 0x20 ADD PUSH1 0x40 MLOAD SWAP1 DUP2 ADD PUSH1 0x40 MSTORE DUP1 SWAP3 SWAP2 SWAP1 DUP2 DUP2 MSTORE PUSH1 0x20 ADD DUP3 DUP1 SLOAD PUSH2 0x24B7 SWAP1 PUSH2 0x4AA5 JUMP JUMPDEST DUP1 ISZERO PUSH2 0x2504 JUMPI DUP1 PUSH1 0x1F LT PUSH2 0x24D9 JUMPI PUSH2 0x100 DUP1 DUP4 SLOAD DIV MUL DUP4 MSTORE SWAP2 PUSH1 0x20 ADD SWAP2 PUSH2 0x2504 JUMP JUMPDEST DUP3 ADD SWAP2 SWAP1 PUSH1 0x0 MSTORE PUSH1 0x20 PUSH1 0x0 KECCAK256 SWAP1 JUMPDEST DUP2 SLOAD DUP2 MSTORE SWAP1 PUSH1 0x1 ADD SWAP1 PUSH1 0x20 ADD DUP1 DUP4 GT PUSH2 0x24E7 JUMPI DUP3 SWAP1 SUB PUSH1 0x1F AND DUP3 ADD SWAP2 JUMPDEST POP POP POP POP POP PUSH2 0x39A0 JUMP JUMPDEST PUSH1 0x61 SWAP1 DUP2 PUSH2 0x251C SWAP2 SWAP1 PUSH2 0x4C82 JUMP JUMPDEST POP PUSH2 0x25B0 PUSH1 0x61 DUP1 SLOAD PUSH2 0x252D SWAP1 PUSH2 0x4AA5 JUMP JUMPDEST DUP1 PUSH1 0x1F ADD PUSH1 0x20 DUP1 SWAP2 DIV MUL PUSH1 0x20 ADD PUSH1 0x40 MLOAD SWAP1 DUP2 ADD PUSH1 0x40 MSTORE DUP1 SWAP3 SWAP2 SWAP1 DUP2 DUP2 MSTORE PUSH1 0x20 ADD DUP3 DUP1 SLOAD PUSH2 0x2559 SWAP1 PUSH2 0x4AA5 JUMP JUMPDEST DUP1 ISZERO PUSH2 0x25A6 JUMPI DUP1 PUSH1 0x1F LT PUSH2 0x257B JUMPI PUSH2 0x100 DUP1 DUP4 SLOAD DIV MUL DUP4 MSTORE SWAP2 PUSH1 0x20 ADD SWAP2 PUSH2 0x25A6 JUMP JUMPDEST DUP3 ADD SWAP2 SWAP1 PUSH1 0x0 MSTORE PUSH1 0x20 PUSH1 0x0 KECCAK256 SWAP1 JUMPDEST DUP2 SLOAD DUP2 MSTORE SWAP1 PUSH1 0x1 ADD SWAP1 PUSH1 0x20 ADD DUP1 DUP4 GT PUSH2 0x2589 JUMPI DUP3 SWAP1 SUB PUSH1 0x1F AND DUP3 ADD SWAP2 JUMPDEST POP POP POP POP POP PUSH2 0x3AB5 JUMP JUMPDEST PUSH1 0x5 DUP2 SWAP1 SSTORE POP JUMPDEST PUSH1 0x1 PUSH1 0x5 SLOAD LT DUP1 PUSH2 0x25CA JUMPI POP PUSH1 0x4 PUSH1 0x5 SLOAD GT JUMPDEST ISZERO PUSH2 0x2723 JUMPI PUSH1 0x1 DUP3 PUSH2 0x25DC SWAP2 SWAP1 PUSH2 0x45C8 JUMP JUMPDEST SWAP2 POP DUP2 SWAP1 POP PUSH2 0x2676 DUP3 DUP3 PUSH1 0x60 DUP1 SLOAD PUSH2 0x25F3 SWAP1 PUSH2 0x4AA5 JUMP JUMPDEST DUP1 PUSH1 0x1F ADD PUSH1 0x20 DUP1 SWAP2 DIV MUL PUSH1 0x20 ADD PUSH1 0x40 MLOAD SWAP1 DUP2 ADD PUSH1 0x40 MSTORE DUP1 SWAP3 SWAP2 SWAP1 DUP2 DUP2 MSTORE PUSH1 0x20 ADD DUP3 DUP1 SLOAD PUSH2 0x261F SWAP1 PUSH2 0x4AA5 JUMP JUMPDEST DUP1 ISZERO PUSH2 0x266C JUMPI DUP1 PUSH1 0x1F LT PUSH2 0x2641 JUMPI PUSH2 0x100 DUP1 DUP4 SLOAD DIV MUL DUP4 MSTORE SWAP2 PUSH1 0x20 ADD SWAP2 PUSH2 0x266C JUMP JUMPDEST DUP3 ADD SWAP2 SWAP1 PUSH1 0x0 MSTORE PUSH1 0x20 PUSH1 0x0 KECCAK256 SWAP1 JUMPDEST DUP2 SLOAD DUP2 MSTORE SWAP1 PUSH1 0x1 ADD SWAP1 PUSH1 0x20 ADD DUP1 DUP4 GT PUSH2 0x264F JUMPI DUP3 SWAP1 SUB PUSH1 0x1F AND DUP3 ADD SWAP2 JUMPDEST POP POP POP POP POP PUSH2 0x39A0 JUMP JUMPDEST PUSH1 0x61 SWAP1 DUP2 PUSH2 0x2684 SWAP2 SWAP1 PUSH2 0x4C82 JUMP JUMPDEST POP PUSH2 0x2718 PUSH1 0x61 DUP1 SLOAD PUSH2 0x2695 SWAP1 PUSH2 0x4AA5 JUMP JUMPDEST DUP1 PUSH1 0x1F ADD PUSH1 0x20 DUP1 SWAP2 DIV MUL PUSH1 0x20 ADD PUSH1 0x40 MLOAD SWAP1 DUP2 ADD PUSH1 0x40 MSTORE DUP1 SWAP3 SWAP2 SWAP1 DUP2 DUP2 MSTORE PUSH1 0x20 ADD DUP3 DUP1 SLOAD PUSH2 0x26C1 SWAP1 PUSH2 0x4AA5 JUMP JUMPDEST DUP1 ISZERO PUSH2 0x270E JUMPI DUP1 PUSH1 0x1F LT PUSH2 0x26E3 JUMPI PUSH2 0x100 DUP1 DUP4 SLOAD DIV MUL DUP4 MSTORE SWAP2 PUSH1 0x20 ADD SWAP2 PUSH2 0x270E JUMP JUMPDEST DUP3 ADD SWAP2 SWAP1 PUSH1 0x0 MSTORE PUSH1 0x20 PUSH1 0x0 KECCAK256 SWAP1 JUMPDEST DUP2 SLOAD DUP2 MSTORE SWAP1 PUSH1 0x1 ADD SWAP1 PUSH1 0x20 ADD DUP1 DUP4 GT PUSH2 0x26F1 JUMPI DUP3 SWAP1 SUB PUSH1 0x1F AND DUP3 ADD SWAP2 JUMPDEST POP POP POP POP POP PUSH2 0x3AB5 JUMP JUMPDEST PUSH1 0x5 DUP2 SWAP1 SSTORE POP PUSH2 0x25B7 JUMP JUMPDEST PUSH1 0x5 SLOAD PUSH1 0x6 DUP2 SWAP1 SSTORE POP PUSH1 0x7 SLOAD PUSH1 0x48 DUP5 PUSH1 0x4 DUP2 LT PUSH2 0x2743 JUMPI PUSH2 0x2742 PUSH2 0x468E JUMP JUMPDEST JUMPDEST PUSH1 0x2 MUL ADD PUSH1 0x0 PUSH1 0x2 DUP2 LT PUSH2 0x275A JUMPI PUSH2 0x2759 PUSH2 0x468E JUMP JUMPDEST JUMPDEST ADD DUP2 SWAP1 SSTORE POP PUSH1 0x6 SLOAD PUSH1 0x48 DUP5 PUSH1 0x4 DUP2 LT PUSH2 0x2776 JUMPI PUSH2 0x2775 PUSH2 0x468E JUMP JUMPDEST JUMPDEST PUSH1 0x2 MUL ADD PUSH1 0x1 PUSH1 0x2 DUP2 LT PUSH2 0x278D JUMPI PUSH2 0x278C PUSH2 0x468E JUMP JUMPDEST JUMPDEST ADD DUP2 SWAP1 SSTORE POP PUSH1 0x1 DUP4 PUSH2 0x279F SWAP2 SWAP1 PUSH2 0x45C8 JUMP JUMPDEST SWAP3 POP POP POP PUSH2 0x1FA3 JUMP JUMPDEST POP POP JUMP JUMPDEST DUP3 PUSH1 0x8 DUP3 PUSH1 0x10 DUP2 LT PUSH2 0x27C1 JUMPI PUSH2 0x27C0 PUSH2 0x468E JUMP JUMPDEST JUMPDEST PUSH1 0x2 MUL ADD PUSH1 0x0 PUSH1 0x2 DUP2 LT PUSH2 0x27D8 JUMPI PUSH2 0x27D7 PUSH2 0x468E JUMP JUMPDEST JUMPDEST ADD DUP2 SWAP1 SSTORE POP DUP2 PUSH1 0x8 DUP3 PUSH1 0x10 DUP2 LT PUSH2 0x27F2 JUMPI PUSH2 0x27F1 PUSH2 0x468E JUMP JUMPDEST JUMPDEST PUSH1 0x2 MUL ADD PUSH1 0x1 PUSH1 0x2 DUP2 LT PUSH2 0x2809 JUMPI PUSH2 0x2808 PUSH2 0x468E JUMP JUMPDEST JUMPDEST ADD DUP2 SWAP1 SSTORE POP PUSH2 0x288C PUSH1 0x8 PUSH1 0x10 DUP1 PUSH1 0x20 MUL PUSH1 0x40 MLOAD SWAP1 DUP2 ADD PUSH1 0x40 MSTORE DUP1 SWAP3 SWAP2 SWAP1 PUSH1 0x0 SWAP1 JUMPDEST DUP3 DUP3 LT ISZERO PUSH2 0x2883 JUMPI DUP4 DUP3 PUSH1 0x2 MUL ADD PUSH1 0x2 DUP1 PUSH1 0x20 MUL PUSH1 0x40 MLOAD SWAP1 DUP2 ADD PUSH1 0x40 MSTORE DUP1 SWAP3 SWAP2 SWAP1 DUP3 PUSH1 0x2 DUP1 ISZERO PUSH2 0x286F JUMPI PUSH1 0x20 MUL DUP3 ADD SWAP2 JUMPDEST DUP2 SLOAD DUP2 MSTORE PUSH1 0x20 ADD SWAP1 PUSH1 0x1 ADD SWAP1 DUP1 DUP4 GT PUSH2 0x285B JUMPI JUMPDEST POP POP POP POP POP DUP2 MSTORE PUSH1 0x20 ADD SWAP1 PUSH1 0x1 ADD SWAP1 PUSH2 0x282A JUMP JUMPDEST POP POP POP POP PUSH2 0x37A6 JUMP JUMPDEST PUSH1 0x50 DUP2 SWAP1 SSTORE POP POP POP POP JUMP JUMPDEST DUP3 PUSH1 0x28 DUP3 PUSH1 0x10 DUP2 LT PUSH2 0x28AC JUMPI PUSH2 0x28AB PUSH2 0x468E JUMP JUMPDEST JUMPDEST PUSH1 0x2 MUL ADD PUSH1 0x0 PUSH1 0x2 DUP2 LT PUSH2 0x28C3 JUMPI PUSH2 0x28C2 PUSH2 0x468E JUMP JUMPDEST JUMPDEST ADD DUP2 SWAP1 SSTORE POP DUP2 PUSH1 0x28 DUP3 PUSH1 0x10 DUP2 LT PUSH2 0x28DD JUMPI PUSH2 0x28DC PUSH2 0x468E JUMP JUMPDEST JUMPDEST PUSH1 0x2 MUL ADD PUSH1 0x1 PUSH1 0x2 DUP2 LT PUSH2 0x28F4 JUMPI PUSH2 0x28F3 PUSH2 0x468E JUMP JUMPDEST JUMPDEST ADD DUP2 SWAP1 SSTORE POP PUSH2 0x2977 PUSH1 0x28 PUSH1 0x10 DUP1 PUSH1 0x20 MUL PUSH1 0x40 MLOAD SWAP1 DUP2 ADD PUSH1 0x40 MSTORE DUP1 SWAP3 SWAP2 SWAP1 PUSH1 0x0 SWAP1 JUMPDEST DUP3 DUP3 LT ISZERO PUSH2 0x296E JUMPI DUP4 DUP3 PUSH1 0x2 MUL ADD PUSH1 0x2 DUP1 PUSH1 0x20 MUL PUSH1 0x40 MLOAD SWAP1 DUP2 ADD PUSH1 0x40 MSTORE DUP1 SWAP3 SWAP2 SWAP1 DUP3 PUSH1 0x2 DUP1 ISZERO PUSH2 0x295A JUMPI PUSH1 0x20 MUL DUP3 ADD SWAP2 JUMPDEST DUP2 SLOAD DUP2 MSTORE PUSH1 0x20 ADD SWAP1 PUSH1 0x1 ADD SWAP1 DUP1 DUP4 GT PUSH2 0x2946 JUMPI JUMPDEST POP POP POP POP POP DUP2 MSTORE PUSH1 0x20 ADD SWAP1 PUSH1 0x1 ADD SWAP1 PUSH2 0x2915 JUMP JUMPDEST POP POP POP POP PUSH2 0x37A6 JUMP JUMPDEST PUSH1 0x51 DUP2 SWAP1 SSTORE POP POP POP POP JUMP JUMPDEST PUSH1 0x0 DUP1 PUSH2 0x2A03 PUSH1 0x8 PUSH1 0x10 DUP1 PUSH1 0x20 MUL PUSH1 0x40 MLOAD SWAP1 DUP2 ADD PUSH1 0x40 MSTORE DUP1 SWAP3 SWAP2 SWAP1 PUSH1 0x0 SWAP1 JUMPDEST DUP3 DUP3 LT ISZERO PUSH2 0x29FA JUMPI DUP4 DUP3 PUSH1 0x2 MUL ADD PUSH1 0x2 DUP1 PUSH1 0x20 MUL PUSH1 0x40 MLOAD SWAP1 DUP2 ADD PUSH1 0x40 MSTORE DUP1 SWAP3 SWAP2 SWAP1 DUP3 PUSH1 0x2 DUP1 ISZERO PUSH2 0x29E6 JUMPI PUSH1 0x20 MUL DUP3 ADD SWAP2 JUMPDEST DUP2 SLOAD DUP2 MSTORE PUSH1 0x20 ADD SWAP1 PUSH1 0x1 ADD SWAP1 DUP1 DUP4 GT PUSH2 0x29D2 JUMPI JUMPDEST POP POP POP POP POP DUP2 MSTORE PUSH1 0x20 ADD SWAP1 PUSH1 0x1 ADD SWAP1 PUSH2 0x29A1 JUMP JUMPDEST POP POP POP POP PUSH2 0x37A6 JUMP JUMPDEST PUSH1 0x50 DUP2 SWAP1 SSTORE POP PUSH1 0x0 PUSH1 0x1 SWAP1 POP JUMPDEST PUSH1 0x50 SLOAD DUP2 GT PUSH2 0x2B1A JUMPI PUSH1 0x9 PUSH1 0x8 DUP3 PUSH1 0x10 DUP2 LT PUSH2 0x2A2F JUMPI PUSH2 0x2A2E PUSH2 0x468E JUMP JUMPDEST JUMPDEST PUSH1 0x2 MUL ADD PUSH1 0x0 PUSH1 0x2 DUP2 LT PUSH2 0x2A46 JUMPI PUSH2 0x2A45 PUSH2 0x468E JUMP JUMPDEST JUMPDEST ADD SLOAD GT ISZERO PUSH2 0x2A5E JUMPI PUSH1 0xA DUP4 PUSH2 0x2A5B SWAP2 SWAP1 PUSH2 0x45C8 JUMP JUMPDEST SWAP3 POP JUMPDEST PUSH1 0xA PUSH1 0x8 DUP3 PUSH1 0x10 DUP2 LT PUSH2 0x2A74 JUMPI PUSH2 0x2A73 PUSH2 0x468E JUMP JUMPDEST JUMPDEST PUSH1 0x2 MUL ADD PUSH1 0x0 PUSH1 0x2 DUP2 LT PUSH2 0x2A8B JUMPI PUSH2 0x2A8A PUSH2 0x468E JUMP JUMPDEST JUMPDEST ADD SLOAD LT ISZERO PUSH2 0x2ACE JUMPI PUSH1 0x8 DUP2 PUSH1 0x10 DUP2 LT PUSH2 0x2AA7 JUMPI PUSH2 0x2AA6 PUSH2 0x468E JUMP JUMPDEST JUMPDEST PUSH1 0x2 MUL ADD PUSH1 0x0 PUSH1 0x2 DUP2 LT PUSH2 0x2ABE JUMPI PUSH2 0x2ABD PUSH2 0x468E JUMP JUMPDEST JUMPDEST ADD SLOAD DUP4 PUSH2 0x2ACB SWAP2 SWAP1 PUSH2 0x45C8 JUMP JUMPDEST SWAP3 POP JUMPDEST PUSH1 0x1 PUSH1 0x8 DUP3 PUSH1 0x10 DUP2 LT PUSH2 0x2AE4 JUMPI PUSH2 0x2AE3 PUSH2 0x468E JUMP JUMPDEST JUMPDEST PUSH1 0x2 MUL ADD PUSH1 0x0 PUSH1 0x2 DUP2 LT PUSH2 0x2AFB JUMPI PUSH2 0x2AFA PUSH2 0x468E JUMP JUMPDEST JUMPDEST ADD SLOAD SUB PUSH2 0x2B07 JUMPI PUSH1 0x1 SWAP2 POP JUMPDEST DUP1 DUP1 PUSH2 0x2B12 SWAP1 PUSH2 0x46BD JUMP JUMPDEST SWAP2 POP POP PUSH2 0x2A10 JUMP JUMPDEST POP DUP2 PUSH1 0x54 PUSH1 0x1 PUSH1 0x2 DUP2 LT PUSH2 0x2B31 JUMPI PUSH2 0x2B30 PUSH2 0x468E JUMP JUMPDEST JUMPDEST PUSH1 0x2 MUL ADD PUSH1 0x0 PUSH1 0x2 DUP2 LT PUSH2 0x2B48 JUMPI PUSH2 0x2B47 PUSH2 0x468E JUMP JUMPDEST JUMPDEST ADD DUP2 SWAP1 SSTORE POP DUP2 PUSH1 0x54 PUSH1 0x1 PUSH1 0x2 DUP2 LT PUSH2 0x2B63 JUMPI PUSH2 0x2B62 PUSH2 0x468E JUMP JUMPDEST JUMPDEST PUSH1 0x2 MUL ADD PUSH1 0x1 PUSH1 0x2 DUP2 LT PUSH2 0x2B7A JUMPI PUSH2 0x2B79 PUSH2 0x468E JUMP JUMPDEST JUMPDEST ADD DUP2 SWAP1 SSTORE POP PUSH1 0x1 DUP2 SUB PUSH2 0x2BF3 JUMPI PUSH1 0xA PUSH1 0x54 PUSH1 0x1 PUSH1 0x2 DUP2 LT PUSH2 0x2B9E JUMPI PUSH2 0x2B9D PUSH2 0x468E JUMP JUMPDEST JUMPDEST PUSH1 0x2 MUL ADD PUSH1 0x1 PUSH1 0x2 DUP2 LT PUSH2 0x2BB5 JUMPI PUSH2 0x2BB4 PUSH2 0x468E JUMP JUMPDEST JUMPDEST ADD SLOAD PUSH2 0x2BC1 SWAP2 SWAP1 PUSH2 0x45C8 JUMP JUMPDEST PUSH1 0x54 PUSH1 0x1 PUSH1 0x2 DUP2 LT PUSH2 0x2BD6 JUMPI PUSH2 0x2BD5 PUSH2 0x468E JUMP JUMPDEST JUMPDEST PUSH1 0x2 MUL ADD PUSH1 0x1 PUSH1 0x2 DUP2 LT PUSH2 0x2BED JUMPI PUSH2 0x2BEC PUSH2 0x468E JUMP JUMPDEST JUMPDEST ADD DUP2 SWAP1 SSTORE POP JUMPDEST POP POP JUMP JUMPDEST PUSH1 0x0 DUP1 PUSH2 0x2C78 PUSH1 0x28 PUSH1 0x10 DUP1 PUSH1 0x20 MUL PUSH1 0x40 MLOAD SWAP1 DUP2 ADD PUSH1 0x40 MSTORE DUP1 SWAP3 SWAP2 SWAP1 PUSH1 0x0 SWAP1 JUMPDEST DUP3 DUP3 LT ISZERO PUSH2 0x2C6F JUMPI DUP4 DUP3 PUSH1 0x2 MUL ADD PUSH1 0x2 DUP1 PUSH1 0x20 MUL PUSH1 0x40 MLOAD SWAP1 DUP2 ADD PUSH1 0x40 MSTORE DUP1 SWAP3 SWAP2 SWAP1 DUP3 PUSH1 0x2 DUP1 ISZERO PUSH2 0x2C5B JUMPI PUSH1 0x20 MUL DUP3 ADD SWAP2 JUMPDEST DUP2 SLOAD DUP2 MSTORE PUSH1 0x20 ADD SWAP1 PUSH1 0x1 ADD SWAP1 DUP1 DUP4 GT PUSH2 0x2C47 JUMPI JUMPDEST POP POP POP POP POP DUP2 MSTORE PUSH1 0x20 ADD SWAP1 PUSH1 0x1 ADD SWAP1 PUSH2 0x2C16 JUMP JUMPDEST POP POP POP POP PUSH2 0x37A6 JUMP JUMPDEST PUSH1 0x51 DUP2 SWAP1 SSTORE POP PUSH1 0x0 PUSH1 0x1 SWAP1 POP JUMPDEST PUSH1 0x51 SLOAD DUP2 GT PUSH2 0x2D8F JUMPI PUSH1 0x9 PUSH1 0x28 DUP3 PUSH1 0x10 DUP2 LT PUSH2 0x2CA4 JUMPI PUSH2 0x2CA3 PUSH2 0x468E JUMP JUMPDEST JUMPDEST PUSH1 0x2 MUL ADD PUSH1 0x0 PUSH1 0x2 DUP2 LT PUSH2 0x2CBB JUMPI PUSH2 0x2CBA PUSH2 0x468E JUMP JUMPDEST JUMPDEST ADD SLOAD GT ISZERO PUSH2 0x2CD3 JUMPI PUSH1 0xA DUP4 PUSH2 0x2CD0 SWAP2 SWAP1 PUSH2 0x45C8 JUMP JUMPDEST SWAP3 POP JUMPDEST PUSH1 0xA PUSH1 0x28 DUP3 PUSH1 0x10 DUP2 LT PUSH2 0x2CE9 JUMPI PUSH2 0x2CE8 PUSH2 0x468E JUMP JUMPDEST JUMPDEST PUSH1 0x2 MUL ADD PUSH1 0x0 PUSH1 0x2 DUP2 LT PUSH2 0x2D00 JUMPI PUSH2 0x2CFF PUSH2 0x468E JUMP JUMPDEST JUMPDEST ADD SLOAD LT ISZERO PUSH2 0x2D43 JUMPI PUSH1 0x28 DUP2 PUSH1 0x10 DUP2 LT PUSH2 0x2D1C JUMPI PUSH2 0x2D1B PUSH2 0x468E JUMP JUMPDEST JUMPDEST PUSH1 0x2 MUL ADD PUSH1 0x0 PUSH1 0x2 DUP2 LT PUSH2 0x2D33 JUMPI PUSH2 0x2D32 PUSH2 0x468E JUMP JUMPDEST JUMPDEST ADD SLOAD DUP4 PUSH2 0x2D40 SWAP2 SWAP1 PUSH2 0x45C8 JUMP JUMPDEST SWAP3 POP JUMPDEST PUSH1 0x1 PUSH1 0x28 DUP3 PUSH1 0x10 DUP2 LT PUSH2 0x2D59 JUMPI PUSH2 0x2D58 PUSH2 0x468E JUMP JUMPDEST JUMPDEST PUSH1 0x2 MUL ADD PUSH1 0x0 PUSH1 0x2 DUP2 LT PUSH2 0x2D70 JUMPI PUSH2 0x2D6F PUSH2 0x468E JUMP JUMPDEST JUMPDEST ADD SLOAD SUB PUSH2 0x2D7C JUMPI PUSH1 0x1 SWAP2 POP JUMPDEST DUP1 DUP1 PUSH2 0x2D87 SWAP1 PUSH2 0x46BD JUMP JUMPDEST SWAP2 POP POP PUSH2 0x2C85 JUMP JUMPDEST POP DUP2 PUSH1 0x58 PUSH1 0x1 PUSH1 0x2 DUP2 LT PUSH2 0x2DA6 JUMPI PUSH2 0x2DA5 PUSH2 0x468E JUMP JUMPDEST JUMPDEST PUSH1 0x2 MUL ADD PUSH1 0x0 PUSH1 0x2 DUP2 LT PUSH2 0x2DBD JUMPI PUSH2 0x2DBC PUSH2 0x468E JUMP JUMPDEST JUMPDEST ADD DUP2 SWAP1 SSTORE POP DUP2 PUSH1 0x58 PUSH1 0x1 PUSH1 0x2 DUP2 LT PUSH2 0x2DD8 JUMPI PUSH2 0x2DD7 PUSH2 0x468E JUMP JUMPDEST JUMPDEST PUSH1 0x2 MUL ADD PUSH1 0x1 PUSH1 0x2 DUP2 LT PUSH2 0x2DEF JUMPI PUSH2 0x2DEE PUSH2 0x468E JUMP JUMPDEST JUMPDEST ADD DUP2 SWAP1 SSTORE POP PUSH1 0x1 DUP2 SUB PUSH2 0x2E68 JUMPI PUSH1 0xA PUSH1 0x58 PUSH1 0x1 PUSH1 0x2 DUP2 LT PUSH2 0x2E13 JUMPI PUSH2 0x2E12 PUSH2 0x468E JUMP JUMPDEST JUMPDEST PUSH1 0x2 MUL ADD PUSH1 0x1 PUSH1 0x2 DUP2 LT PUSH2 0x2E2A JUMPI PUSH2 0x2E29 PUSH2 0x468E JUMP JUMPDEST JUMPDEST ADD SLOAD PUSH2 0x2E36 SWAP2 SWAP1 PUSH2 0x45C8 JUMP JUMPDEST PUSH1 0x58 PUSH1 0x1 PUSH1 0x2 DUP2 LT PUSH2 0x2E4B JUMPI PUSH2 0x2E4A PUSH2 0x468E JUMP JUMPDEST JUMPDEST PUSH1 0x2 MUL ADD PUSH1 0x1 PUSH1 0x2 DUP2 LT PUSH2 0x2E62 JUMPI PUSH2 0x2E61 PUSH2 0x468E JUMP JUMPDEST JUMPDEST ADD DUP2 SWAP1 SSTORE POP JUMPDEST POP POP JUMP JUMPDEST PUSH1 0x15 PUSH1 0x58 PUSH1 0x1 PUSH1 0x2 DUP2 LT PUSH2 0x2E83 JUMPI PUSH2 0x2E82 PUSH2 0x468E JUMP JUMPDEST JUMPDEST PUSH1 0x2 MUL ADD PUSH1 0x0 PUSH1 0x2 DUP2 LT PUSH2 0x2E9A JUMPI PUSH2 0x2E99 PUSH2 0x468E JUMP JUMPDEST JUMPDEST ADD SLOAD GT DUP1 ISZERO PUSH2 0x2ED6 JUMPI POP PUSH1 0x15 PUSH1 0x58 PUSH1 0x1 PUSH1 0x2 DUP2 LT PUSH2 0x2EBB JUMPI PUSH2 0x2EBA PUSH2 0x468E JUMP JUMPDEST JUMPDEST PUSH1 0x2 MUL ADD PUSH1 0x1 PUSH1 0x2 DUP2 LT PUSH2 0x2ED2 JUMPI PUSH2 0x2ED1 PUSH2 0x468E JUMP JUMPDEST JUMPDEST ADD SLOAD GT JUMPDEST ISZERO PUSH2 0x3019 JUMPI PUSH1 0x1 PUSH1 0x53 DUP2 SWAP1 SSTORE POP PUSH1 0x0 PUSH1 0x1 DUP2 SWAP1 SSTORE POP PUSH1 0x58 PUSH1 0x1 PUSH1 0x2 DUP2 LT PUSH2 0x2F00 JUMPI PUSH2 0x2EFF PUSH2 0x468E JUMP JUMPDEST JUMPDEST PUSH1 0x2 MUL ADD PUSH1 0x1 PUSH1 0x2 DUP2 LT PUSH2 0x2F17 JUMPI PUSH2 0x2F16 PUSH2 0x468E JUMP JUMPDEST JUMPDEST ADD SLOAD PUSH1 0x58 PUSH1 0x1 PUSH1 0x2 DUP2 LT PUSH2 0x2F2E JUMPI PUSH2 0x2F2D PUSH2 0x468E JUMP JUMPDEST JUMPDEST PUSH1 0x2 MUL ADD PUSH1 0x0 PUSH1 0x2 DUP2 LT PUSH2 0x2F45 JUMPI PUSH2 0x2F44 PUSH2 0x468E JUMP JUMPDEST JUMPDEST ADD SLOAD GT PUSH2 0x2F81 JUMPI PUSH1 0x58 PUSH1 0x1 PUSH1 0x2 DUP2 LT PUSH2 0x2F61 JUMPI PUSH2 0x2F60 PUSH2 0x468E JUMP JUMPDEST JUMPDEST PUSH1 0x2 MUL ADD PUSH1 0x0 PUSH1 0x2 DUP2 LT PUSH2 0x2F78 JUMPI PUSH2 0x2F77 PUSH2 0x468E JUMP JUMPDEST JUMPDEST ADD SLOAD PUSH1 0x5D DUP2 SWAP1 SSTORE POP JUMPDEST PUSH1 0x58 PUSH1 0x1 PUSH1 0x2 DUP2 LT PUSH2 0x2F96 JUMPI PUSH2 0x2F95 PUSH2 0x468E JUMP JUMPDEST JUMPDEST PUSH1 0x2 MUL ADD PUSH1 0x1 PUSH1 0x2 DUP2 LT PUSH2 0x2FAD JUMPI PUSH2 0x2FAC PUSH2 0x468E JUMP JUMPDEST JUMPDEST ADD SLOAD PUSH1 0x58 PUSH1 0x1 PUSH1 0x2 DUP2 LT PUSH2 0x2FC4 JUMPI PUSH2 0x2FC3 PUSH2 0x468E JUMP JUMPDEST JUMPDEST PUSH1 0x2 MUL ADD PUSH1 0x0 PUSH1 0x2 DUP2 LT PUSH2 0x2FDB JUMPI PUSH2 0x2FDA PUSH2 0x468E JUMP JUMPDEST JUMPDEST ADD SLOAD GT ISZERO PUSH2 0x3018 JUMPI PUSH1 0x58 PUSH1 0x1 PUSH1 0x2 DUP2 LT PUSH2 0x2FF8 JUMPI PUSH2 0x2FF7 PUSH2 0x468E JUMP JUMPDEST JUMPDEST PUSH1 0x2 MUL ADD PUSH1 0x1 PUSH1 0x2 DUP2 LT PUSH2 0x300F JUMPI PUSH2 0x300E PUSH2 0x468E JUMP JUMPDEST JUMPDEST ADD SLOAD PUSH1 0x5D DUP2 SWAP1 SSTORE POP JUMPDEST JUMPDEST PUSH1 0x15 PUSH1 0x58 PUSH1 0x1 PUSH1 0x2 DUP2 LT PUSH2 0x3030 JUMPI PUSH2 0x302F PUSH2 0x468E JUMP JUMPDEST JUMPDEST PUSH1 0x2 MUL ADD PUSH1 0x0 PUSH1 0x2 DUP2 LT PUSH2 0x3047 JUMPI PUSH2 0x3046 PUSH2 0x468E JUMP JUMPDEST JUMPDEST ADD SLOAD GT ISZERO DUP1 ISZERO PUSH2 0x3084 JUMPI POP PUSH1 0x15 PUSH1 0x58 PUSH1 0x1 PUSH1 0x2 DUP2 LT PUSH2 0x3069 JUMPI PUSH2 0x3068 PUSH2 0x468E JUMP JUMPDEST JUMPDEST PUSH1 0x2 MUL ADD PUSH1 0x1 PUSH1 0x2 DUP2 LT PUSH2 0x3080 JUMPI PUSH2 0x307F PUSH2 0x468E JUMP JUMPDEST JUMPDEST ADD SLOAD GT JUMPDEST ISZERO PUSH2 0x30BE JUMPI PUSH1 0x58 PUSH1 0x1 PUSH1 0x2 DUP2 LT PUSH2 0x309E JUMPI PUSH2 0x309D PUSH2 0x468E JUMP JUMPDEST JUMPDEST PUSH1 0x2 MUL ADD PUSH1 0x0 PUSH1 0x2 DUP2 LT PUSH2 0x30B5 JUMPI PUSH2 0x30B4 PUSH2 0x468E JUMP JUMPDEST JUMPDEST ADD SLOAD PUSH1 0x5D DUP2 SWAP1 SSTORE POP JUMPDEST PUSH1 0x15 PUSH1 0x58 PUSH1 0x1 PUSH1 0x2 DUP2 LT PUSH2 0x30D5 JUMPI PUSH2 0x30D4 PUSH2 0x468E JUMP JUMPDEST JUMPDEST PUSH1 0x2 MUL ADD PUSH1 0x0 PUSH1 0x2 DUP2 LT PUSH2 0x30EC JUMPI PUSH2 0x30EB PUSH2 0x468E JUMP JUMPDEST JUMPDEST ADD SLOAD GT DUP1 ISZERO PUSH2 0x3129 JUMPI POP PUSH1 0x15 PUSH1 0x54 PUSH1 0x1 PUSH1 0x2 DUP2 LT PUSH2 0x310D JUMPI PUSH2 0x310C PUSH2 0x468E JUMP JUMPDEST JUMPDEST PUSH1 0x2 MUL ADD PUSH1 0x1 PUSH1 0x2 DUP2 LT PUSH2 0x3124 JUMPI PUSH2 0x3123 PUSH2 0x468E JUMP JUMPDEST JUMPDEST ADD SLOAD GT ISZERO JUMPDEST ISZERO PUSH2 0x3163 JUMPI PUSH1 0x58 PUSH1 0x1 PUSH1 0x2 DUP2 LT PUSH2 0x3143 JUMPI PUSH2 0x3142 PUSH2 0x468E JUMP JUMPDEST JUMPDEST PUSH1 0x2 MUL ADD PUSH1 0x1 PUSH1 0x2 DUP2 LT PUSH2 0x315A JUMPI PUSH2 0x3159 PUSH2 0x468E JUMP JUMPDEST JUMPDEST ADD SLOAD PUSH1 0x5D DUP2 SWAP1 SSTORE POP JUMPDEST PUSH1 0x15 PUSH1 0x58 PUSH1 0x1 PUSH1 0x2 DUP2 LT PUSH2 0x317A JUMPI PUSH2 0x3179 PUSH2 0x468E JUMP JUMPDEST JUMPDEST PUSH1 0x2 MUL ADD PUSH1 0x0 PUSH1 0x2 DUP2 LT PUSH2 0x3191 JUMPI PUSH2 0x3190 PUSH2 0x468E JUMP JUMPDEST JUMPDEST ADD SLOAD GT ISZERO DUP1 ISZERO PUSH2 0x31CF JUMPI POP PUSH1 0x15 PUSH1 0x58 PUSH1 0x1 PUSH1 0x2 DUP2 LT PUSH2 0x31B3 JUMPI PUSH2 0x31B2 PUSH2 0x468E JUMP JUMPDEST JUMPDEST PUSH1 0x2 MUL ADD PUSH1 0x1 PUSH1 0x2 DUP2 LT PUSH2 0x31CA JUMPI PUSH2 0x31C9 PUSH2 0x468E JUMP JUMPDEST JUMPDEST ADD SLOAD GT ISZERO JUMPDEST ISZERO PUSH2 0x3302 JUMPI PUSH1 0x58 PUSH1 0x1 PUSH1 0x2 DUP2 LT PUSH2 0x31E9 JUMPI PUSH2 0x31E8 PUSH2 0x468E JUMP JUMPDEST JUMPDEST PUSH1 0x2 MUL ADD PUSH1 0x1 PUSH1 0x2 DUP2 LT PUSH2 0x3200 JUMPI PUSH2 0x31FF PUSH2 0x468E JUMP JUMPDEST JUMPDEST ADD SLOAD PUSH1 0x58 PUSH1 0x1 PUSH1 0x2 DUP2 LT PUSH2 0x3217 JUMPI PUSH2 0x3216 PUSH2 0x468E JUMP JUMPDEST JUMPDEST PUSH1 0x2 MUL ADD PUSH1 0x0 PUSH1 0x2 DUP2 LT PUSH2 0x322E JUMPI PUSH2 0x322D PUSH2 0x468E JUMP JUMPDEST JUMPDEST ADD SLOAD GT ISZERO PUSH2 0x326B JUMPI PUSH1 0x58 PUSH1 0x1 PUSH1 0x2 DUP2 LT PUSH2 0x324B JUMPI PUSH2 0x324A PUSH2 0x468E JUMP JUMPDEST JUMPDEST PUSH1 0x2 MUL ADD PUSH1 0x0 PUSH1 0x2 DUP2 LT PUSH2 0x3262 JUMPI PUSH2 0x3261 PUSH2 0x468E JUMP JUMPDEST JUMPDEST ADD SLOAD PUSH1 0x5D DUP2 SWAP1 SSTORE POP JUMPDEST PUSH1 0x58 PUSH1 0x1 PUSH1 0x2 DUP2 LT PUSH2 0x3280 JUMPI PUSH2 0x327F PUSH2 0x468E JUMP JUMPDEST JUMPDEST PUSH1 0x2 MUL ADD PUSH1 0x1 PUSH1 0x2 DUP2 LT PUSH2 0x3297 JUMPI PUSH2 0x3296 PUSH2 0x468E JUMP JUMPDEST JUMPDEST ADD SLOAD PUSH1 0x58 PUSH1 0x1 PUSH1 0x2 DUP2 LT PUSH2 0x32AE JUMPI PUSH2 0x32AD PUSH2 0x468E JUMP JUMPDEST JUMPDEST PUSH1 0x2 MUL ADD PUSH1 0x0 PUSH1 0x2 DUP2 LT PUSH2 0x32C5 JUMPI PUSH2 0x32C4 PUSH2 0x468E JUMP JUMPDEST JUMPDEST ADD SLOAD GT PUSH2 0x3301 JUMPI PUSH1 0x58 PUSH1 0x1 PUSH1 0x2 DUP2 LT PUSH2 0x32E1 JUMPI PUSH2 0x32E0 PUSH2 0x468E JUMP JUMPDEST JUMPDEST PUSH1 0x2 MUL ADD PUSH1 0x1 PUSH1 0x2 DUP2 LT PUSH2 0x32F8 JUMPI PUSH2 0x32F7 PUSH2 0x468E JUMP JUMPDEST JUMPDEST ADD SLOAD PUSH1 0x5D DUP2 SWAP1 SSTORE POP JUMPDEST JUMPDEST JUMP JUMPDEST PUSH1 0x15 PUSH1 0x54 PUSH1 0x1 PUSH1 0x2 DUP2 LT PUSH2 0x331B JUMPI PUSH2 0x331A PUSH2 0x468E JUMP JUMPDEST JUMPDEST PUSH1 0x2 MUL ADD PUSH1 0x0 PUSH1 0x2 DUP2 LT PUSH2 0x3332 JUMPI PUSH2 0x3331 PUSH2 0x468E JUMP JUMPDEST JUMPDEST ADD SLOAD GT DUP1 ISZERO PUSH2 0x336E JUMPI POP PUSH1 0x15 PUSH1 0x54 PUSH1 0x1 PUSH1 0x2 DUP2 LT PUSH2 0x3353 JUMPI PUSH2 0x3352 PUSH2 0x468E JUMP JUMPDEST JUMPDEST PUSH1 0x2 MUL ADD PUSH1 0x1 PUSH1 0x2 DUP2 LT PUSH2 0x336A JUMPI PUSH2 0x3369 PUSH2 0x468E JUMP JUMPDEST JUMPDEST ADD SLOAD GT JUMPDEST ISZERO PUSH2 0x34B1 JUMPI PUSH1 0x1 PUSH1 0x52 DUP2 SWAP1 SSTORE POP PUSH1 0x0 PUSH1 0x1 DUP2 SWAP1 SSTORE POP PUSH1 0x54 PUSH1 0x1 PUSH1 0x2 DUP2 LT PUSH2 0x3398 JUMPI PUSH2 0x3397 PUSH2 0x468E JUMP JUMPDEST JUMPDEST PUSH1 0x2 MUL ADD PUSH1 0x1 PUSH1 0x2 DUP2 LT PUSH2 0x33AF JUMPI PUSH2 0x33AE PUSH2 0x468E JUMP JUMPDEST JUMPDEST ADD SLOAD PUSH1 0x54 PUSH1 0x1 PUSH1 0x2 DUP2 LT PUSH2 0x33C6 JUMPI PUSH2 0x33C5 PUSH2 0x468E JUMP JUMPDEST JUMPDEST PUSH1 0x2 MUL ADD PUSH1 0x0 PUSH1 0x2 DUP2 LT PUSH2 0x33DD JUMPI PUSH2 0x33DC PUSH2 0x468E JUMP JUMPDEST JUMPDEST ADD SLOAD GT PUSH2 0x3419 JUMPI PUSH1 0x54 PUSH1 0x1 PUSH1 0x2 DUP2 LT PUSH2 0x33F9 JUMPI PUSH2 0x33F8 PUSH2 0x468E JUMP JUMPDEST JUMPDEST PUSH1 0x2 MUL ADD PUSH1 0x0 PUSH1 0x2 DUP2 LT PUSH2 0x3410 JUMPI PUSH2 0x340F PUSH2 0x468E JUMP JUMPDEST JUMPDEST ADD SLOAD PUSH1 0x5C DUP2 SWAP1 SSTORE POP JUMPDEST PUSH1 0x54 PUSH1 0x1 PUSH1 0x2 DUP2 LT PUSH2 0x342E JUMPI PUSH2 0x342D PUSH2 0x468E JUMP JUMPDEST JUMPDEST PUSH1 0x2 MUL ADD PUSH1 0x1 PUSH1 0x2 DUP2 LT PUSH2 0x3445 JUMPI PUSH2 0x3444 PUSH2 0x468E JUMP JUMPDEST JUMPDEST ADD SLOAD PUSH1 0x54 PUSH1 0x1 PUSH1 0x2 DUP2 LT PUSH2 0x345C JUMPI PUSH2 0x345B PUSH2 0x468E JUMP JUMPDEST JUMPDEST PUSH1 0x2 MUL ADD PUSH1 0x0 PUSH1 0x2 DUP2 LT PUSH2 0x3473 JUMPI PUSH2 0x3472 PUSH2 0x468E JUMP JUMPDEST JUMPDEST ADD SLOAD GT ISZERO PUSH2 0x34B0 JUMPI PUSH1 0x54 PUSH1 0x1 PUSH1 0x2 DUP2 LT PUSH2 0x3490 JUMPI PUSH2 0x348F PUSH2 0x468E JUMP JUMPDEST JUMPDEST PUSH1 0x2 MUL ADD PUSH1 0x1 PUSH1 0x2 DUP2 LT PUSH2 0x34A7 JUMPI PUSH2 0x34A6 PUSH2 0x468E JUMP JUMPDEST JUMPDEST ADD SLOAD PUSH1 0x5C DUP2 SWAP1 SSTORE POP JUMPDEST JUMPDEST PUSH1 0x15 PUSH1 0x54 PUSH1 0x1 PUSH1 0x2 DUP2 LT PUSH2 0x34C8 JUMPI PUSH2 0x34C7 PUSH2 0x468E JUMP JUMPDEST JUMPDEST PUSH1 0x2 MUL ADD PUSH1 0x0 PUSH1 0x2 DUP2 LT PUSH2 0x34DF JUMPI PUSH2 0x34DE PUSH2 0x468E JUMP JUMPDEST JUMPDEST ADD SLOAD GT ISZERO DUP1 ISZERO PUSH2 0x351C JUMPI POP PUSH1 0x15 PUSH1 0x54 PUSH1 0x1 PUSH1 0x2 DUP2 LT PUSH2 0x3501 JUMPI PUSH2 0x3500 PUSH2 0x468E JUMP JUMPDEST JUMPDEST PUSH1 0x2 MUL ADD PUSH1 0x1 PUSH1 0x2 DUP2 LT PUSH2 0x3518 JUMPI PUSH2 0x3517 PUSH2 0x468E JUMP JUMPDEST JUMPDEST ADD SLOAD GT JUMPDEST ISZERO PUSH2 0x3556 JUMPI PUSH1 0x54 PUSH1 0x1 PUSH1 0x2 DUP2 LT PUSH2 0x3536 JUMPI PUSH2 0x3535 PUSH2 0x468E JUMP JUMPDEST JUMPDEST PUSH1 0x2 MUL ADD PUSH1 0x0 PUSH1 0x2 DUP2 LT PUSH2 0x354D JUMPI PUSH2 0x354C PUSH2 0x468E JUMP JUMPDEST JUMPDEST ADD SLOAD PUSH1 0x5C DUP2 SWAP1 SSTORE POP JUMPDEST PUSH1 0x15 PUSH1 0x54 PUSH1 0x1 PUSH1 0x2 DUP2 LT PUSH2 0x356D JUMPI PUSH2 0x356C PUSH2 0x468E JUMP JUMPDEST JUMPDEST PUSH1 0x2 MUL ADD PUSH1 0x0 PUSH1 0x2 DUP2 LT PUSH2 0x3584 JUMPI PUSH2 0x3583 PUSH2 0x468E JUMP JUMPDEST JUMPDEST ADD SLOAD GT DUP1 ISZERO PUSH2 0x35C1 JUMPI POP PUSH1 0x15 PUSH1 0x54 PUSH1 0x1 PUSH1 0x2 DUP2 LT PUSH2 0x35A5 JUMPI PUSH2 0x35A4 PUSH2 0x468E JUMP JUMPDEST JUMPDEST PUSH1 0x2 MUL ADD PUSH1 0x1 PUSH1 0x2 DUP2 LT PUSH2 0x35BC JUMPI PUSH2 0x35BB PUSH2 0x468E JUMP JUMPDEST JUMPDEST ADD SLOAD GT ISZERO JUMPDEST ISZERO PUSH2 0x35FB JUMPI PUSH1 0x54 PUSH1 0x1 PUSH1 0x2 DUP2 LT PUSH2 0x35DB JUMPI PUSH2 0x35DA PUSH2 0x468E JUMP JUMPDEST JUMPDEST PUSH1 0x2 MUL ADD PUSH1 0x1 PUSH1 0x2 DUP2 LT PUSH2 0x35F2 JUMPI PUSH2 0x35F1 PUSH2 0x468E JUMP JUMPDEST JUMPDEST ADD SLOAD PUSH1 0x5C DUP2 SWAP1 SSTORE POP JUMPDEST PUSH1 0x15 PUSH1 0x54 PUSH1 0x1 PUSH1 0x2 DUP2 LT PUSH2 0x3612 JUMPI PUSH2 0x3611 PUSH2 0x468E JUMP JUMPDEST JUMPDEST PUSH1 0x2 MUL ADD PUSH1 0x0 PUSH1 0x2 DUP2 LT PUSH2 0x3629 JUMPI PUSH2 0x3628 PUSH2 0x468E JUMP JUMPDEST JUMPDEST ADD SLOAD GT ISZERO DUP1 ISZERO PUSH2 0x3667 JUMPI POP PUSH1 0x15 PUSH1 0x54 PUSH1 0x1 PUSH1 0x2 DUP2 LT PUSH2 0x364B JUMPI PUSH2 0x364A PUSH2 0x468E JUMP JUMPDEST JUMPDEST PUSH1 0x2 MUL ADD PUSH1 0x1 PUSH1 0x2 DUP2 LT PUSH2 0x3662 JUMPI PUSH2 0x3661 PUSH2 0x468E JUMP JUMPDEST JUMPDEST ADD SLOAD GT ISZERO JUMPDEST ISZERO PUSH2 0x379A JUMPI PUSH1 0x54 PUSH1 0x1 PUSH1 0x2 DUP2 LT PUSH2 0x3681 JUMPI PUSH2 0x3680 PUSH2 0x468E JUMP JUMPDEST JUMPDEST PUSH1 0x2 MUL ADD PUSH1 0x1 PUSH1 0x2 DUP2 LT PUSH2 0x3698 JUMPI PUSH2 0x3697 PUSH2 0x468E JUMP JUMPDEST JUMPDEST ADD SLOAD PUSH1 0x54 PUSH1 0x1 PUSH1 0x2 DUP2 LT PUSH2 0x36AF JUMPI PUSH2 0x36AE PUSH2 0x468E JUMP JUMPDEST JUMPDEST PUSH1 0x2 MUL ADD PUSH1 0x0 PUSH1 0x2 DUP2 LT PUSH2 0x36C6 JUMPI PUSH2 0x36C5 PUSH2 0x468E JUMP JUMPDEST JUMPDEST ADD SLOAD GT ISZERO PUSH2 0x3703 JUMPI PUSH1 0x54 PUSH1 0x1 PUSH1 0x2 DUP2 LT PUSH2 0x36E3 JUMPI PUSH2 0x36E2 PUSH2 0x468E JUMP JUMPDEST JUMPDEST PUSH1 0x2 MUL ADD PUSH1 0x0 PUSH1 0x2 DUP2 LT PUSH2 0x36FA JUMPI PUSH2 0x36F9 PUSH2 0x468E JUMP JUMPDEST JUMPDEST ADD SLOAD PUSH1 0x5C DUP2 SWAP1 SSTORE POP JUMPDEST PUSH1 0x54 PUSH1 0x1 PUSH1 0x2 DUP2 LT PUSH2 0x3718 JUMPI PUSH2 0x3717 PUSH2 0x468E JUMP JUMPDEST JUMPDEST PUSH1 0x2 MUL ADD PUSH1 0x1 PUSH1 0x2 DUP2 LT PUSH2 0x372F JUMPI PUSH2 0x372E PUSH2 0x468E JUMP JUMPDEST JUMPDEST ADD SLOAD PUSH1 0x54 PUSH1 0x1 PUSH1 0x2 DUP2 LT PUSH2 0x3746 JUMPI PUSH2 0x3745 PUSH2 0x468E JUMP JUMPDEST JUMPDEST PUSH1 0x2 MUL ADD PUSH1 0x0 PUSH1 0x2 DUP2 LT PUSH2 0x375D JUMPI PUSH2 0x375C PUSH2 0x468E JUMP JUMPDEST JUMPDEST ADD SLOAD GT PUSH2 0x3799 JUMPI PUSH1 0x54 PUSH1 0x1 PUSH1 0x2 DUP2 LT PUSH2 0x3779 JUMPI PUSH2 0x3778 PUSH2 0x468E JUMP JUMPDEST JUMPDEST PUSH1 0x2 MUL ADD PUSH1 0x1 PUSH1 0x2 DUP2 LT PUSH2 0x3790 JUMPI PUSH2 0x378F PUSH2 0x468E JUMP JUMPDEST JUMPDEST ADD SLOAD PUSH1 0x5C DUP2 SWAP1 SSTORE POP JUMPDEST JUMPDEST JUMP JUMPDEST PUSH1 0x0 PUSH1 0x1 DUP2 SWAP1 SSTORE POP JUMP JUMPDEST PUSH1 0x0 DUP1 PUSH1 0x0 SWAP1 POP PUSH1 0x0 JUMPDEST PUSH1 0x10 DUP3 LT ISZERO PUSH2 0x3814 JUMPI PUSH1 0x0 DUP5 DUP4 PUSH1 0x10 DUP2 LT PUSH2 0x37CE JUMPI PUSH2 0x37CD PUSH2 0x468E JUMP JUMPDEST JUMPDEST PUSH1 0x20 MUL ADD MLOAD PUSH1 0x0 PUSH1 0x2 DUP2 LT PUSH2 0x37E6 JUMPI PUSH2 0x37E5 PUSH2 0x468E JUMP JUMPDEST JUMPDEST PUSH1 0x20 MUL ADD MLOAD EQ PUSH2 0x3800 JUMPI PUSH1 0x1 DUP2 PUSH2 0x37FD SWAP2 SWAP1 PUSH2 0x45C8 JUMP JUMPDEST SWAP1 POP JUMPDEST PUSH1 0x1 DUP3 PUSH2 0x380D SWAP2 SWAP1 PUSH2 0x45C8 JUMP JUMPDEST SWAP2 POP PUSH2 0x37B0 JUMP JUMPDEST DUP1 SWAP3 POP POP POP SWAP2 SWAP1 POP JUMP JUMPDEST PUSH1 0x0 PUSH1 0x63 PUSH1 0x0 DUP2 SLOAD DUP1 SWAP3 SWAP2 SWAP1 PUSH2 0x3833 SWAP1 PUSH2 0x46BD JUMP JUMPDEST SWAP2 SWAP1 POP SSTORE POP PUSH32 0x28F5C28F5C28F5C28F5C28F5C28F5C28F5C28F5C28F5C28F5C28F5C28F5C28F PUSH1 0x3 PUSH1 0x63 SLOAD PUSH2 0x3868 SWAP2 SWAP1 PUSH2 0x4D54 JUMP JUMPDEST NUMBER PUSH2 0x3873 SWAP2 SWAP1 PUSH2 0x45C8 JUMP JUMPDEST CALLER PUSH1 0x63 SLOAD PUSH1 0x40 MLOAD PUSH1 0x20 ADD PUSH2 0x3889 SWAP4 SWAP3 SWAP2 SWAP1 PUSH2 0x4E31 JUMP JUMPDEST PUSH1 0x40 MLOAD PUSH1 0x20 DUP2 DUP4 SUB SUB DUP2 MSTORE SWAP1 PUSH1 0x40 MSTORE DUP1 MLOAD SWAP1 PUSH1 0x20 ADD KECCAK256 PUSH1 0x0 SHR PUSH2 0x38AC SWAP2 SWAP1 PUSH2 0x4E9D JUMP JUMPDEST PUSH1 0x5 DUP2 SWAP1 SSTORE POP PUSH1 0x63 PUSH1 0x0 DUP2 SLOAD DUP1 SWAP3 SWAP2 SWAP1 PUSH2 0x38C5 SWAP1 PUSH2 0x46BD JUMP JUMPDEST SWAP2 SWAP1 POP SSTORE POP PUSH1 0x5 SLOAD SWAP1 POP SWAP1 JUMP JUMPDEST PUSH1 0x60 PUSH1 0x0 PUSH1 0x1 PUSH2 0x38E1 DUP5 PUSH2 0x3B4D JUMP JUMPDEST ADD SWAP1 POP PUSH1 0x0 DUP2 PUSH8 0xFFFFFFFFFFFFFFFF DUP2 GT ISZERO PUSH2 0x3900 JUMPI PUSH2 0x38FF PUSH2 0x3EC1 JUMP JUMPDEST JUMPDEST PUSH1 0x40 MLOAD SWAP1 DUP1 DUP3 MSTORE DUP1 PUSH1 0x1F ADD PUSH1 0x1F NOT AND PUSH1 0x20 ADD DUP3 ADD PUSH1 0x40 MSTORE DUP1 ISZERO PUSH2 0x3932 JUMPI DUP2 PUSH1 0x20 ADD PUSH1 0x1 DUP3 MUL DUP1 CALLDATASIZE DUP4 CALLDATACOPY DUP1 DUP3 ADD SWAP2 POP POP SWAP1 POP JUMPDEST POP SWAP1 POP PUSH1 0x0 DUP3 PUSH1 0x20 ADD DUP3 ADD SWAP1 POP JUMPDEST PUSH1 0x1 ISZERO PUSH2 0x3995 JUMPI DUP1 DUP1 PUSH1 0x1 SWAP1 SUB SWAP2 POP POP PUSH32 0x3031323334353637383961626364656600000000000000000000000000000000 PUSH1 0xA DUP7 MOD BYTE DUP2 MSTORE8 PUSH1 0xA DUP6 DUP2 PUSH2 0x3989 JUMPI PUSH2 0x3988 PUSH2 0x4E6E JUMP JUMPDEST JUMPDEST DIV SWAP5 POP PUSH1 0x0 DUP6 SUB PUSH2 0x3940 JUMPI JUMPDEST DUP2 SWAP4 POP POP POP POP SWAP2 SWAP1 POP JUMP JUMPDEST PUSH1 0x60 PUSH1 0x0 PUSH1 0x1 DUP6 DUP6 PUSH2 0x39B2 SWAP2 SWAP1 PUSH2 0x43DE JUMP JUMPDEST PUSH2 0x39BC SWAP2 SWAP1 PUSH2 0x45C8 JUMP JUMPDEST PUSH8 0xFFFFFFFFFFFFFFFF DUP2 GT ISZERO PUSH2 0x39D5 JUMPI PUSH2 0x39D4 PUSH2 0x3EC1 JUMP JUMPDEST JUMPDEST PUSH1 0x40 MLOAD SWAP1 DUP1 DUP3 MSTORE DUP1 PUSH1 0x1F ADD PUSH1 0x1F NOT AND PUSH1 0x20 ADD DUP3 ADD PUSH1 0x40 MSTORE DUP1 ISZERO PUSH2 0x3A07 JUMPI DUP2 PUSH1 0x20 ADD PUSH1 0x1 DUP3 MUL DUP1 CALLDATASIZE DUP4 CALLDATACOPY DUP1 DUP3 ADD SWAP2 POP POP SWAP1 POP JUMPDEST POP SWAP1 POP PUSH1 0x0 JUMPDEST DUP6 DUP6 PUSH2 0x3A19 SWAP2 SWAP1 PUSH2 0x43DE JUMP JUMPDEST DUP2 GT PUSH2 0x3AA9 JUMPI DUP4 PUSH1 0x1 DUP8 DUP4 PUSH2 0x3A2E SWAP2 SWAP1 PUSH2 0x45C8 JUMP JUMPDEST PUSH2 0x3A38 SWAP2 SWAP1 PUSH2 0x43DE JUMP JUMPDEST DUP2 MLOAD DUP2 LT PUSH2 0x3A49 JUMPI PUSH2 0x3A48 PUSH2 0x468E JUMP JUMPDEST JUMPDEST PUSH1 0x20 ADD ADD MLOAD PUSH1 0xF8 SHR PUSH1 0xF8 SHL DUP3 DUP3 DUP2 MLOAD DUP2 LT PUSH2 0x3A67 JUMPI PUSH2 0x3A66 PUSH2 0x468E JUMP JUMPDEST JUMPDEST PUSH1 0x20 ADD ADD SWAP1 PUSH31 0xFFFFFFFFFFFFFFFFFFFFFFFFFFFFFFFFFFFFFFFFFFFFFFFFFFFFFFFFFFFFFF NOT AND SWAP1 DUP2 PUSH1 0x0 BYTE SWAP1 MSTORE8 POP DUP1 DUP1 PUSH2 0x3AA1 SWAP1 PUSH2 0x46BD JUMP JUMPDEST SWAP2 POP POP PUSH2 0x3A0D JUMP JUMPDEST POP DUP1 SWAP2 POP POP SWAP4 SWAP3 POP POP POP JUMP JUMPDEST PUSH1 0x0 DUP1 DUP3 SWAP1 POP PUSH1 0x0 DUP1 JUMPDEST DUP3 MLOAD DUP2 LT ISZERO PUSH2 0x3B42 JUMPI PUSH1 0x0 DUP4 DUP3 DUP2 MLOAD DUP2 LT PUSH2 0x3ADD JUMPI PUSH2 0x3ADC PUSH2 0x468E JUMP JUMPDEST JUMPDEST PUSH1 0x20 ADD ADD MLOAD PUSH1 0xF8 SHR PUSH1 0xF8 SHL PUSH1 0xF8 SHR PUSH1 0xFF AND SWAP1 POP PUSH1 0x30 DUP2 LT ISZERO DUP1 ISZERO PUSH2 0x3B02 JUMPI POP PUSH1 0x39 DUP2 GT ISZERO JUMPDEST ISZERO PUSH2 0x3B2E JUMPI PUSH1 0x30 DUP2 PUSH2 0x3B14 SWAP2 SWAP1 PUSH2 0x43DE JUMP JUMPDEST PUSH1 0xA DUP5 PUSH2 0x3B21 SWAP2 SWAP1 PUSH2 0x4D54 JUMP JUMPDEST PUSH2 0x3B2B SWAP2 SWAP1 PUSH2 0x45C8 JUMP JUMPDEST SWAP3 POP JUMPDEST POP DUP1 DUP1 PUSH2 0x3B3A SWAP1 PUSH2 0x46BD JUMP JUMPDEST SWAP2 POP POP PUSH2 0x3ABF JUMP JUMPDEST POP DUP1 SWAP3 POP POP POP SWAP2 SWAP1 POP JUMP JUMPDEST PUSH1 0x0 DUP1 PUSH1 0x0 SWAP1 POP PUSH27 0x184F03E93FF9F4DAA797ED6E38ED64BF6A1F010000000000000000 DUP4 LT PUSH2 0x3BAB JUMPI PUSH27 0x184F03E93FF9F4DAA797ED6E38ED64BF6A1F010000000000000000 DUP4 DUP2 PUSH2 0x3BA1 JUMPI PUSH2 0x3BA0 PUSH2 0x4E6E JUMP JUMPDEST JUMPDEST DIV SWAP3 POP PUSH1 0x40 DUP2 ADD SWAP1 POP JUMPDEST PUSH14 0x4EE2D6D415B85ACEF8100000000 DUP4 LT PUSH2 0x3BE8 JUMPI PUSH14 0x4EE2D6D415B85ACEF8100000000 DUP4 DUP2 PUSH2 0x3BDE JUMPI PUSH2 0x3BDD PUSH2 0x4E6E JUMP JUMPDEST JUMPDEST DIV SWAP3 POP PUSH1 0x20 DUP2 ADD SWAP1 POP JUMPDEST PUSH7 0x2386F26FC10000 DUP4 LT PUSH2 0x3C17 JUMPI PUSH7 0x2386F26FC10000 DUP4 DUP2 PUSH2 0x3C0D JUMPI PUSH2 0x3C0C PUSH2 0x4E6E JUMP JUMPDEST JUMPDEST DIV SWAP3 POP PUSH1 0x10 DUP2 ADD SWAP1 POP JUMPDEST PUSH4 0x5F5E100 DUP4 LT PUSH2 0x3C40 JUMPI PUSH4 0x5F5E100 DUP4 DUP2 PUSH2 0x3C36 JUMPI PUSH2 0x3C35 PUSH2 0x4E6E JUMP JUMPDEST JUMPDEST DIV SWAP3 POP PUSH1 0x8 DUP2 ADD SWAP1 POP JUMPDEST PUSH2 0x2710 DUP4 LT PUSH2 0x3C65 JUMPI PUSH2 0x2710 DUP4 DUP2 PUSH2 0x3C5B JUMPI PUSH2 0x3C5A PUSH2 0x4E6E JUMP JUMPDEST JUMPDEST DIV SWAP3 POP PUSH1 0x4 DUP2 ADD SWAP1 POP JUMPDEST PUSH1 0x64 DUP4 LT PUSH2 0x3C88 JUMPI PUSH1 0x64 DUP4 DUP2 PUSH2 0x3C7E JUMPI PUSH2 0x3C7D PUSH2 0x4E6E JUMP JUMPDEST JUMPDEST DIV SWAP3 POP PUSH1 0x2 DUP2 ADD SWAP1 POP JUMPDEST PUSH1 0xA DUP4 LT PUSH2 0x3C97 JUMPI PUSH1 0x1 DUP2 ADD SWAP1 POP JUMPDEST DUP1 SWAP2 POP POP SWAP2 SWAP1 POP JUMP JUMPDEST DUP3 PUSH1 0x4 PUSH1 0x2 MUL DUP2 ADD SWAP3 DUP3 ISZERO PUSH2 0x3CE0 JUMPI SWAP2 PUSH1 0x20 MUL DUP3 ADD JUMPDEST DUP3 DUP2 GT ISZERO PUSH2 0x3CDF JUMPI DUP3 MLOAD DUP3 SWAP1 PUSH1 0x2 PUSH2 0x3CCF SWAP3 SWAP2 SWAP1 PUSH2 0x3D1E JUMP JUMPDEST POP SWAP2 PUSH1 0x20 ADD SWAP2 SWAP1 PUSH1 0x2 ADD SWAP1 PUSH2 0x3CB6 JUMP JUMPDEST JUMPDEST POP SWAP1 POP PUSH2 0x3CED SWAP2 SWAP1 PUSH2 0x3D5E JUMP JUMPDEST POP SWAP1 JUMP JUMPDEST PUSH1 0x40 MLOAD DUP1 PUSH1 0x80 ADD PUSH1 0x40 MSTORE DUP1 PUSH1 0x4 SWAP1 JUMPDEST PUSH2 0x3D08 PUSH2 0x3D82 JUMP JUMPDEST DUP2 MSTORE PUSH1 0x20 ADD SWAP1 PUSH1 0x1 SWAP1 SUB SWAP1 DUP2 PUSH2 0x3D00 JUMPI SWAP1 POP POP SWAP1 JUMP JUMPDEST DUP3 PUSH1 0x2 DUP2 ADD SWAP3 DUP3 ISZERO PUSH2 0x3D4D JUMPI SWAP2 PUSH1 0x20 MUL DUP3 ADD JUMPDEST DUP3 DUP2 GT ISZERO PUSH2 0x3D4C JUMPI DUP3 MLOAD DUP3 SSTORE SWAP2 PUSH1 0x20 ADD SWAP2 SWAP1 PUSH1 0x1 ADD SWAP1 PUSH2 0x3D31 JUMP JUMPDEST JUMPDEST POP SWAP1 POP PUSH2 0x3D5A SWAP2 SWAP1 PUSH2 0x3DA4 JUMP JUMPDEST POP SWAP1 JUMP JUMPDEST JUMPDEST DUP1 DUP3 GT ISZERO PUSH2 0x3D7E JUMPI PUSH1 0x0 DUP2 DUP2 PUSH2 0x3D75 SWAP2 SWAP1 PUSH2 0x3DC1 JUMP JUMPDEST POP PUSH1 0x2 ADD PUSH2 0x3D5F JUMP JUMPDEST POP SWAP1 JUMP JUMPDEST PUSH1 0x40 MLOAD DUP1 PUSH1 0x40 ADD PUSH1 0x40 MSTORE DUP1 PUSH1 0x2 SWAP1 PUSH1 0x20 DUP3 MUL DUP1 CALLDATASIZE DUP4 CALLDATACOPY DUP1 DUP3 ADD SWAP2 POP POP SWAP1 POP POP SWAP1 JUMP JUMPDEST JUMPDEST DUP1 DUP3 GT ISZERO PUSH2 0x3DBD JUMPI PUSH1 0x0 DUP2 PUSH1 0x0 SWAP1 SSTORE POP PUSH1 0x1 ADD PUSH2 0x3DA5 JUMP JUMPDEST POP SWAP1 JUMP JUMPDEST POP PUSH1 0x0 DUP2 SSTORE PUSH1 0x1 ADD PUSH1 0x0 SWAP1 SSTORE JUMP JUMPDEST PUSH1 0x0 PUSH1 0x40 MLOAD SWAP1 POP SWAP1 JUMP JUMPDEST PUSH1 0x0 DUP1 REVERT JUMPDEST PUSH1 0x0 DUP2 SWAP1 POP SWAP2 SWAP1 POP JUMP JUMPDEST PUSH2 0x3DF1 DUP2 PUSH2 0x3DDE JUMP JUMPDEST DUP2 EQ PUSH2 0x3DFC JUMPI PUSH1 0x0 DUP1 REVERT JUMPDEST POP JUMP JUMPDEST PUSH1 0x0 DUP2 CALLDATALOAD SWAP1 POP PUSH2 0x3E0E DUP2 PUSH2 0x3DE8 JUMP JUMPDEST SWAP3 SWAP2 POP POP JUMP JUMPDEST PUSH1 0x0 PUSH1 0x20 DUP3 DUP5 SUB SLT ISZERO PUSH2 0x3E2A JUMPI PUSH2 0x3E29 PUSH2 0x3DD9 JUMP JUMPDEST JUMPDEST PUSH1 0x0 PUSH2 0x3E38 DUP5 DUP3 DUP6 ADD PUSH2 0x3DFF JUMP JUMPDEST SWAP2 POP POP SWAP3 SWAP2 POP POP JUMP JUMPDEST PUSH2 0x3E4A DUP2 PUSH2 0x3DDE JUMP JUMPDEST DUP3 MSTORE POP POP JUMP JUMPDEST PUSH1 0x0 PUSH1 0x20 DUP3 ADD SWAP1 POP PUSH2 0x3E65 PUSH1 0x0 DUP4 ADD DUP5 PUSH2 0x3E41 JUMP JUMPDEST SWAP3 SWAP2 POP POP JUMP JUMPDEST PUSH1 0x0 DUP1 PUSH1 0x40 DUP4 DUP6 SUB SLT ISZERO PUSH2 0x3E82 JUMPI PUSH2 0x3E81 PUSH2 0x3DD9 JUMP JUMPDEST JUMPDEST PUSH1 0x0 PUSH2 0x3E90 DUP6 DUP3 DUP7 ADD PUSH2 0x3DFF JUMP JUMPDEST SWAP3 POP POP PUSH1 0x20 PUSH2 0x3EA1 DUP6 DUP3 DUP7 ADD PUSH2 0x3DFF JUMP JUMPDEST SWAP2 POP POP SWAP3 POP SWAP3 SWAP1 POP JUMP JUMPDEST PUSH1 0x0 DUP1 REVERT JUMPDEST PUSH1 0x0 PUSH1 0x1F NOT PUSH1 0x1F DUP4 ADD AND SWAP1 POP SWAP2 SWAP1 POP JUMP JUMPDEST PUSH32 0x4E487B7100000000000000000000000000000000000000000000000000000000 PUSH1 0x0 MSTORE PUSH1 0x41 PUSH1 0x4 MSTORE PUSH1 0x24 PUSH1 0x0 REVERT JUMPDEST PUSH2 0x3EF9 DUP3 PUSH2 0x3EB0 JUMP JUMPDEST DUP2 ADD DUP2 DUP2 LT PUSH8 0xFFFFFFFFFFFFFFFF DUP3 GT OR ISZERO PUSH2 0x3F18 JUMPI PUSH2 0x3F17 PUSH2 0x3EC1 JUMP JUMPDEST JUMPDEST DUP1 PUSH1 0x40 MSTORE POP POP POP JUMP JUMPDEST PUSH1 0x0 PUSH2 0x3F2B PUSH2 0x3DCF JUMP JUMPDEST SWAP1 POP PUSH2 0x3F37 DUP3 DUP3 PUSH2 0x3EF0 JUMP JUMPDEST SWAP2 SWAP1 POP JUMP JUMPDEST PUSH1 0x0 PUSH8 0xFFFFFFFFFFFFFFFF DUP3 GT ISZERO PUSH2 0x3F57 JUMPI PUSH2 0x3F56 PUSH2 0x3EC1 JUMP JUMPDEST JUMPDEST PUSH1 0x20 DUP3 MUL SWAP1 POP SWAP2 SWAP1 POP JUMP JUMPDEST PUSH1 0x0 DUP1 REVERT JUMPDEST PUSH1 0x0 PUSH8 0xFFFFFFFFFFFFFFFF DUP3 GT ISZERO PUSH2 0x3F82 JUMPI PUSH2 0x3F81 PUSH2 0x3EC1 JUMP JUMPDEST JUMPDEST PUSH1 0x20 DUP3 MUL SWAP1 POP SWAP2 SWAP1 POP JUMP JUMPDEST PUSH1 0x0 PUSH2 0x3FA0 PUSH2 0x3F9B DUP5 PUSH2 0x3F67 JUMP JUMPDEST PUSH2 0x3F21 JUMP JUMPDEST SWAP1 POP DUP1 PUSH1 0x20 DUP5 MUL DUP4 ADD DUP6 DUP2 GT ISZERO PUSH2 0x3FBA JUMPI PUSH2 0x3FB9 PUSH2 0x3F62 JUMP JUMPDEST JUMPDEST DUP4 JUMPDEST DUP2 DUP2 LT ISZERO PUSH2 0x3FE3 JUMPI DUP1 PUSH2 0x3FCF DUP9 DUP3 PUSH2 0x3DFF JUMP JUMPDEST DUP5 MSTORE PUSH1 0x20 DUP5 ADD SWAP4 POP POP PUSH1 0x20 DUP2 ADD SWAP1 POP PUSH2 0x3FBC JUMP JUMPDEST POP POP POP SWAP4 SWAP3 POP POP POP JUMP JUMPDEST PUSH1 0x0 DUP3 PUSH1 0x1F DUP4 ADD SLT PUSH2 0x4002 JUMPI PUSH2 0x4001 PUSH2 0x3EAB JUMP JUMPDEST JUMPDEST PUSH1 0x2 PUSH2 0x400F DUP5 DUP3 DUP6 PUSH2 0x3F8D JUMP JUMPDEST SWAP2 POP POP SWAP3 SWAP2 POP POP JUMP JUMPDEST PUSH1 0x0 PUSH2 0x402B PUSH2 0x4026 DUP5 PUSH2 0x3F3C JUMP JUMPDEST PUSH2 0x3F21 JUMP JUMPDEST SWAP1 POP DUP1 PUSH1 0x40 DUP5 MUL DUP4 ADD DUP6 DUP2 GT ISZERO PUSH2 0x4045 JUMPI PUSH2 0x4044 PUSH2 0x3F62 JUMP JUMPDEST JUMPDEST DUP4 JUMPDEST DUP2 DUP2 LT ISZERO PUSH2 0x406E JUMPI DUP1 PUSH2 0x405A DUP9 DUP3 PUSH2 0x3FED JUMP JUMPDEST DUP5 MSTORE PUSH1 0x20 DUP5 ADD SWAP4 POP POP PUSH1 0x40 DUP2 ADD SWAP1 POP PUSH2 0x4047 JUMP JUMPDEST POP POP POP SWAP4 SWAP3 POP POP POP JUMP JUMPDEST PUSH1 0x0 DUP3 PUSH1 0x1F DUP4 ADD SLT PUSH2 0x408D JUMPI PUSH2 0x408C PUSH2 0x3EAB JUMP JUMPDEST JUMPDEST PUSH1 0x4 PUSH2 0x409A DUP5 DUP3 DUP6 PUSH2 0x4018 JUMP JUMPDEST SWAP2 POP POP SWAP3 SWAP2 POP POP JUMP JUMPDEST PUSH1 0x0 PUSH2 0x100 DUP3 DUP5 SUB SLT ISZERO PUSH2 0x40BA JUMPI PUSH2 0x40B9 PUSH2 0x3DD9 JUMP JUMPDEST JUMPDEST PUSH1 0x0 PUSH2 0x40C8 DUP5 DUP3 DUP6 ADD PUSH2 0x4078 JUMP JUMPDEST SWAP2 POP POP SWAP3 SWAP2 POP POP JUMP JUMPDEST PUSH1 0x0 PUSH1 0x4 SWAP1 POP SWAP2 SWAP1 POP JUMP JUMPDEST PUSH1 0x0 DUP2 SWAP1 POP SWAP3 SWAP2 POP POP JUMP JUMPDEST PUSH1 0x0 DUP2 SWAP1 POP SWAP2 SWAP1 POP JUMP JUMPDEST PUSH1 0x0 PUSH1 0x2 SWAP1 POP SWAP2 SWAP1 POP JUMP JUMPDEST PUSH1 0x0 DUP2 SWAP1 POP SWAP3 SWAP2 POP POP JUMP JUMPDEST PUSH1 0x0 DUP2 SWAP1 POP SWAP2 SWAP1 POP JUMP JUMPDEST PUSH2 0x411A DUP2 PUSH2 0x3DDE JUMP JUMPDEST DUP3 MSTORE POP POP JUMP JUMPDEST PUSH1 0x0 PUSH2 0x412C DUP4 DUP4 PUSH2 0x4111 JUMP JUMPDEST PUSH1 0x20 DUP4 ADD SWAP1 POP SWAP3 SWAP2 POP POP JUMP JUMPDEST PUSH1 0x0 PUSH1 0x20 DUP3 ADD SWAP1 POP SWAP2 SWAP1 POP JUMP JUMPDEST PUSH2 0x414E DUP2 PUSH2 0x40F1 JUMP JUMPDEST PUSH2 0x4158 DUP2 DUP5 PUSH2 0x40FC JUMP JUMPDEST SWAP3 POP PUSH2 0x4163 DUP3 PUSH2 0x4107 JUMP JUMPDEST DUP1 PUSH1 0x0 JUMPDEST DUP4 DUP2 LT ISZERO PUSH2 0x4194 JUMPI DUP2 MLOAD PUSH2 0x417B DUP8 DUP3 PUSH2 0x4120 JUMP JUMPDEST SWAP7 POP PUSH2 0x4186 DUP4 PUSH2 0x4138 JUMP JUMPDEST SWAP3 POP POP PUSH1 0x1 DUP2 ADD SWAP1 POP PUSH2 0x4167 JUMP JUMPDEST POP POP POP POP POP POP JUMP JUMPDEST PUSH1 0x0 PUSH2 0x41A8 DUP4 DUP4 PUSH2 0x4145 JUMP JUMPDEST PUSH1 0x40 DUP4 ADD SWAP1 POP SWAP3 SWAP2 POP POP JUMP JUMPDEST PUSH1 0x0 PUSH1 0x20 DUP3 ADD SWAP1 POP SWAP2 SWAP1 POP JUMP JUMPDEST PUSH2 0x41CA DUP2 PUSH2 0x40D1 JUMP JUMPDEST PUSH2 0x41D4 DUP2 DUP5 PUSH2 0x40DC JUMP JUMPDEST SWAP3 POP PUSH2 0x41DF DUP3 PUSH2 0x40E7 JUMP JUMPDEST DUP1 PUSH1 0x0 JUMPDEST DUP4 DUP2 LT ISZERO PUSH2 0x4210 JUMPI DUP2 MLOAD PUSH2 0x41F7 DUP8 DUP3 PUSH2 0x419C JUMP JUMPDEST SWAP7 POP PUSH2 0x4202 DUP4 PUSH2 0x41B4 JUMP JUMPDEST SWAP3 POP POP PUSH1 0x1 DUP2 ADD SWAP1 POP PUSH2 0x41E3 JUMP JUMPDEST POP POP POP POP POP POP JUMP JUMPDEST PUSH1 0x0 PUSH2 0x100 DUP3 ADD SWAP1 POP PUSH2 0x422E PUSH1 0x0 DUP4 ADD DUP5 PUSH2 0x41C1 JUMP JUMPDEST SWAP3 SWAP2 POP POP JUMP JUMPDEST PUSH1 0x0 DUP3 DUP3 MSTORE PUSH1 0x20 DUP3 ADD SWAP1 POP SWAP3 SWAP2 POP POP JUMP JUMPDEST PUSH32 0x42657420616D6F756E74206973206D6F7265207468616E2067616D652062616C PUSH1 0x0 DUP3 ADD MSTORE PUSH32 0x616E636500000000000000000000000000000000000000000000000000000000 PUSH1 0x20 DUP3 ADD MSTORE POP JUMP JUMPDEST PUSH1 0x0 PUSH2 0x42A1 PUSH1 0x24 DUP4 PUSH2 0x4234 JUMP JUMPDEST SWAP2 POP PUSH2 0x42AC DUP3 PUSH2 0x4245 JUMP JUMPDEST PUSH1 0x40 DUP3 ADD SWAP1 POP SWAP2 SWAP1 POP JUMP JUMPDEST PUSH1 0x0 PUSH1 0x20 DUP3 ADD SWAP1 POP DUP2 DUP2 SUB PUSH1 0x0 DUP4 ADD MSTORE PUSH2 0x42D0 DUP2 PUSH2 0x4294 JUMP JUMPDEST SWAP1 POP SWAP2 SWAP1 POP JUMP JUMPDEST PUSH32 0x4F6E6C7920706C617965722063616E20706C6163652062657400000000000000 PUSH1 0x0 DUP3 ADD MSTORE POP JUMP JUMPDEST PUSH1 0x0 PUSH2 0x430D PUSH1 0x19 DUP4 PUSH2 0x4234 JUMP JUMPDEST SWAP2 POP PUSH2 0x4318 DUP3 PUSH2 0x42D7 JUMP JUMPDEST PUSH1 0x20 DUP3 ADD SWAP1 POP SWAP2 SWAP1 POP JUMP JUMPDEST PUSH1 0x0 PUSH1 0x20 DUP3 ADD SWAP1 POP DUP2 DUP2 SUB PUSH1 0x0 DUP4 ADD MSTORE PUSH2 0x433C DUP2 PUSH2 0x4300 JUMP JUMPDEST SWAP1 POP SWAP2 SWAP1 POP JUMP JUMPDEST PUSH32 0x5265656E7472616E6379206E6F7420616C6C6F77656400000000000000000000 PUSH1 0x0 DUP3 ADD MSTORE POP JUMP JUMPDEST PUSH1 0x0 PUSH2 0x4379 PUSH1 0x16 DUP4 PUSH2 0x4234 JUMP JUMPDEST SWAP2 POP PUSH2 0x4384 DUP3 PUSH2 0x4343 JUMP JUMPDEST PUSH1 0x20 DUP3 ADD SWAP1 POP SWAP2 SWAP1 POP JUMP JUMPDEST PUSH1 0x0 PUSH1 0x20 DUP3 ADD SWAP1 POP DUP2 DUP2 SUB PUSH1 0x0 DUP4 ADD MSTORE PUSH2 0x43A8 DUP2 PUSH2 0x436C JUMP JUMPDEST SWAP1 POP SWAP2 SWAP1 POP JUMP JUMPDEST PUSH32 0x4E487B7100000000000000000000000000000000000000000000000000000000 PUSH1 0x0 MSTORE PUSH1 0x11 PUSH1 0x4 MSTORE PUSH1 0x24 PUSH1 0x0 REVERT JUMPDEST PUSH1 0x0 PUSH2 0x43E9 DUP3 PUSH2 0x3DDE JUMP JUMPDEST SWAP2 POP PUSH2 0x43F4 DUP4 PUSH2 0x3DDE JUMP JUMPDEST SWAP3 POP DUP3 DUP3 SUB SWAP1 POP DUP2 DUP2 GT ISZERO PUSH2 0x440C JUMPI PUSH2 0x440B PUSH2 0x43AF JUMP JUMPDEST JUMPDEST SWAP3 SWAP2 POP POP JUMP JUMPDEST PUSH32 0x526567697374726174696F6E2061646472657373206973206E6F742076616C69 PUSH1 0x0 DUP3 ADD MSTORE PUSH32 0x6400000000000000000000000000000000000000000000000000000000000000 PUSH1 0x20 DUP3 ADD MSTORE POP JUMP JUMPDEST PUSH1 0x0 PUSH2 0x446E PUSH1 0x21 DUP4 PUSH2 0x4234 JUMP JUMPDEST SWAP2 POP PUSH2 0x4479 DUP3 PUSH2 0x4412 JUMP JUMPDEST PUSH1 0x40 DUP3 ADD SWAP1 POP SWAP2 SWAP1 POP JUMP JUMPDEST PUSH1 0x0 PUSH1 0x20 DUP3 ADD SWAP1 POP DUP2 DUP2 SUB PUSH1 0x0 DUP4 ADD MSTORE PUSH2 0x449D DUP2 PUSH2 0x4461 JUMP JUMPDEST SWAP1 POP SWAP2 SWAP1 POP JUMP JUMPDEST PUSH32 0x506C61796572206D75737420626520686F757365283029206F7220706C617965 PUSH1 0x0 DUP3 ADD MSTORE PUSH32 0x7228312900000000000000000000000000000000000000000000000000000000 PUSH1 0x20 DUP3 ADD MSTORE POP JUMP JUMPDEST PUSH1 0x0 PUSH2 0x4500 PUSH1 0x24 DUP4 PUSH2 0x4234 JUMP JUMPDEST SWAP2 POP PUSH2 0x450B DUP3 PUSH2 0x44A4 JUMP JUMPDEST PUSH1 0x40 DUP3 ADD SWAP1 POP SWAP2 SWAP1 POP JUMP JUMPDEST PUSH1 0x0 PUSH1 0x20 DUP3 ADD SWAP1 POP DUP2 DUP2 SUB PUSH1 0x0 DUP4 ADD MSTORE PUSH2 0x452F DUP2 PUSH2 0x44F3 JUMP JUMPDEST SWAP1 POP SWAP2 SWAP1 POP JUMP JUMPDEST PUSH32 0x53656E6465722061646472657373206D75737420626520686F75736557616C6C PUSH1 0x0 DUP3 ADD MSTORE PUSH32 0x6574000000000000000000000000000000000000000000000000000000000000 PUSH1 0x20 DUP3 ADD MSTORE POP JUMP JUMPDEST PUSH1 0x0 PUSH2 0x4592 PUSH1 0x22 DUP4 PUSH2 0x4234 JUMP JUMPDEST SWAP2 POP PUSH2 0x459D DUP3 PUSH2 0x4536 JUMP JUMPDEST PUSH1 0x40 DUP3 ADD SWAP1 POP SWAP2 SWAP1 POP JUMP JUMPDEST PUSH1 0x0 PUSH1 0x20 DUP3 ADD SWAP1 POP DUP2 DUP2 SUB PUSH1 0x0 DUP4 ADD MSTORE PUSH2 0x45C1 DUP2 PUSH2 0x4585 JUMP JUMPDEST SWAP1 POP SWAP2 SWAP1 POP JUMP JUMPDEST PUSH1 0x0 PUSH2 0x45D3 DUP3 PUSH2 0x3DDE JUMP JUMPDEST SWAP2 POP PUSH2 0x45DE DUP4 PUSH2 0x3DDE JUMP JUMPDEST SWAP3 POP DUP3 DUP3 ADD SWAP1 POP DUP1 DUP3 GT ISZERO PUSH2 0x45F6 JUMPI PUSH2 0x45F5 PUSH2 0x43AF JUMP JUMPDEST JUMPDEST SWAP3 SWAP2 POP POP JUMP JUMPDEST PUSH32 0x53656E6465722061646472657373206D75737420626520706C6179657257616C PUSH1 0x0 DUP3 ADD MSTORE PUSH32 0x6C65740000000000000000000000000000000000000000000000000000000000 PUSH1 0x20 DUP3 ADD MSTORE POP JUMP JUMPDEST PUSH1 0x0 PUSH2 0x4658 PUSH1 0x23 DUP4 PUSH2 0x4234 JUMP JUMPDEST SWAP2 POP PUSH2 0x4663 DUP3 PUSH2 0x45FC JUMP JUMPDEST PUSH1 0x40 DUP3 ADD SWAP1 POP SWAP2 SWAP1 POP JUMP JUMPDEST PUSH1 0x0 PUSH1 0x20 DUP3 ADD SWAP1 POP DUP2 DUP2 SUB PUSH1 0x0 DUP4 ADD MSTORE PUSH2 0x4687 DUP2 PUSH2 0x464B JUMP JUMPDEST SWAP1 POP SWAP2 SWAP1 POP JUMP JUMPDEST PUSH32 0x4E487B7100000000000000000000000000000000000000000000000000000000 PUSH1 0x0 MSTORE PUSH1 0x32 PUSH1 0x4 MSTORE PUSH1 0x24 PUSH1 0x0 REVERT JUMPDEST PUSH1 0x0 PUSH2 0x46C8 DUP3 PUSH2 0x3DDE JUMP JUMPDEST SWAP2 POP PUSH32 0xFFFFFFFFFFFFFFFFFFFFFFFFFFFFFFFFFFFFFFFFFFFFFFFFFFFFFFFFFFFFFFFF DUP3 SUB PUSH2 0x46FA JUMPI PUSH2 0x46F9 PUSH2 0x43AF JUMP JUMPDEST JUMPDEST PUSH1 0x1 DUP3 ADD SWAP1 POP SWAP2 SWAP1 POP JUMP JUMPDEST PUSH32 0x506C6179657220686173206E6F2062616C616E636520746F2077697468647261 PUSH1 0x0 DUP3 ADD MSTORE PUSH32 0x7700000000000000000000000000000000000000000000000000000000000000 PUSH1 0x20 DUP3 ADD MSTORE POP JUMP JUMPDEST PUSH1 0x0 PUSH2 0x4761 PUSH1 0x21 DUP4 PUSH2 0x4234 JUMP JUMPDEST SWAP2 POP PUSH2 0x476C DUP3 PUSH2 0x4705 JUMP JUMPDEST PUSH1 0x40 DUP3 ADD SWAP1 POP SWAP2 SWAP1 POP JUMP JUMPDEST PUSH1 0x0 PUSH1 0x20 DUP3 ADD SWAP1 POP DUP2 DUP2 SUB PUSH1 0x0 DUP4 ADD MSTORE PUSH2 0x4790 DUP2 PUSH2 0x4754 JUMP JUMPDEST SWAP1 POP SWAP2 SWAP1 POP JUMP JUMPDEST PUSH32 0x4F6E6C7920706C617965722063616E2075736520746869732066756E6374696F PUSH1 0x0 DUP3 ADD MSTORE PUSH32 0x6E20776974686472617700000000000000000000000000000000000000000000 PUSH1 0x20 DUP3 ADD MSTORE POP JUMP JUMPDEST PUSH1 0x0 PUSH2 0x47F3 PUSH1 0x2A DUP4 PUSH2 0x4234 JUMP JUMPDEST SWAP2 POP PUSH2 0x47FE DUP3 PUSH2 0x4797 JUMP JUMPDEST PUSH1 0x40 DUP3 ADD SWAP1 POP SWAP2 SWAP1 POP JUMP JUMPDEST PUSH1 0x0 PUSH1 0x20 DUP3 ADD SWAP1 POP DUP2 DUP2 SUB PUSH1 0x0 DUP4 ADD MSTORE PUSH2 0x4822 DUP2 PUSH2 0x47E6 JUMP JUMPDEST SWAP1 POP SWAP2 SWAP1 POP JUMP JUMPDEST PUSH32 0x596F75206172652072657175657374696E67206D6F7265207468616E20746865 PUSH1 0x0 DUP3 ADD MSTORE PUSH32 0x20706C617965722077616C6C657420636F6E7461696E73000000000000000000 PUSH1 0x20 DUP3 ADD MSTORE POP JUMP JUMPDEST PUSH1 0x0 PUSH2 0x4885 PUSH1 0x37 DUP4 PUSH2 0x4234 JUMP JUMPDEST SWAP2 POP PUSH2 0x4890 DUP3 PUSH2 0x4829 JUMP JUMPDEST PUSH1 0x40 DUP3 ADD SWAP1 POP SWAP2 SWAP1 POP JUMP JUMPDEST PUSH1 0x0 PUSH1 0x20 DUP3 ADD SWAP1 POP DUP2 DUP2 SUB PUSH1 0x0 DUP4 ADD MSTORE PUSH2 0x48B4 DUP2 PUSH2 0x4878 JUMP JUMPDEST SWAP1 POP SWAP2 SWAP1 POP JUMP JUMPDEST PUSH32 0x4465616C65722068617320616C72656164792073746F6F640000000000000000 PUSH1 0x0 DUP3 ADD MSTORE POP JUMP JUMPDEST PUSH1 0x0 PUSH2 0x48F1 PUSH1 0x18 DUP4 PUSH2 0x4234 JUMP JUMPDEST SWAP2 POP PUSH2 0x48FC DUP3 PUSH2 0x48BB JUMP JUMPDEST PUSH1 0x20 DUP3 ADD SWAP1 POP SWAP2 SWAP1 POP JUMP JUMPDEST PUSH1 0x0 PUSH1 0x20 DUP3 ADD SWAP1 POP DUP2 DUP2 SUB PUSH1 0x0 DUP4 ADD MSTORE PUSH2 0x4920 DUP2 PUSH2 0x48E4 JUMP JUMPDEST SWAP1 POP SWAP2 SWAP1 POP JUMP JUMPDEST PUSH32 0x506C617965722068617320616C72656164792073746F6F640000000000000000 PUSH1 0x0 DUP3 ADD MSTORE POP JUMP JUMPDEST PUSH1 0x0 PUSH2 0x495D PUSH1 0x18 DUP4 PUSH2 0x4234 JUMP JUMPDEST SWAP2 POP PUSH2 0x4968 DUP3 PUSH2 0x4927 JUMP JUMPDEST PUSH1 0x20 DUP3 ADD SWAP1 POP SWAP2 SWAP1 POP JUMP JUMPDEST PUSH1 0x0 PUSH1 0x20 DUP3 ADD SWAP1 POP DUP2 DUP2 SUB PUSH1 0x0 DUP4 ADD MSTORE PUSH2 0x498C DUP2 PUSH2 0x4950 JUMP JUMPDEST SWAP1 POP SWAP2 SWAP1 POP JUMP JUMPDEST PUSH32 0x47616D65206D75737420626520696E2070726F67726573730000000000000000 PUSH1 0x0 DUP3 ADD MSTORE POP JUMP JUMPDEST PUSH1 0x0 PUSH2 0x49C9 PUSH1 0x18 DUP4 PUSH2 0x4234 JUMP JUMPDEST SWAP2 POP PUSH2 0x49D4 DUP3 PUSH2 0x4993 JUMP JUMPDEST PUSH1 0x20 DUP3 ADD SWAP1 POP SWAP2 SWAP1 POP JUMP JUMPDEST PUSH1 0x0 PUSH1 0x20 DUP3 ADD SWAP1 POP DUP2 DUP2 SUB PUSH1 0x0 DUP4 ADD MSTORE PUSH2 0x49F8 DUP2 PUSH2 0x49BC JUMP JUMPDEST SWAP1 POP SWAP2 SWAP1 POP JUMP JUMPDEST PUSH32 0x596F7527766520616C7265616479206275737465640000000000000000000000 PUSH1 0x0 DUP3 ADD MSTORE POP JUMP JUMPDEST PUSH1 0x0 PUSH2 0x4A35 PUSH1 0x15 DUP4 PUSH2 0x4234 JUMP JUMPDEST SWAP2 POP PUSH2 0x4A40 DUP3 PUSH2 0x49FF JUMP JUMPDEST PUSH1 0x20 DUP3 ADD SWAP1 POP SWAP2 SWAP1 POP JUMP JUMPDEST PUSH1 0x0 PUSH1 0x20 DUP3 ADD SWAP1 POP DUP2 DUP2 SUB PUSH1 0x0 DUP4 ADD MSTORE PUSH2 0x4A64 DUP2 PUSH2 0x4A28 JUMP JUMPDEST SWAP1 POP SWAP2 SWAP1 POP JUMP JUMPDEST PUSH1 0x0 DUP2 MLOAD SWAP1 POP SWAP2 SWAP1 POP JUMP JUMPDEST PUSH32 0x4E487B7100000000000000000000000000000000000000000000000000000000 PUSH1 0x0 MSTORE PUSH1 0x22 PUSH1 0x4 MSTORE PUSH1 0x24 PUSH1 0x0 REVERT JUMPDEST PUSH1 0x0 PUSH1 0x2 DUP3 DIV SWAP1 POP PUSH1 0x1 DUP3 AND DUP1 PUSH2 0x4ABD JUMPI PUSH1 0x7F DUP3 AND SWAP2 POP JUMPDEST PUSH1 0x20 DUP3 LT DUP2 SUB PUSH2 0x4AD0 JUMPI PUSH2 0x4ACF PUSH2 0x4A76 JUMP JUMPDEST JUMPDEST POP SWAP2 SWAP1 POP JUMP JUMPDEST PUSH1 0x0 DUP2 SWAP1 POP DUP2 PUSH1 0x0 MSTORE PUSH1 0x20 PUSH1 0x0 KECCAK256 SWAP1 POP SWAP2 SWAP1 POP JUMP JUMPDEST PUSH1 0x0 PUSH1 0x20 PUSH1 0x1F DUP4 ADD DIV SWAP1 POP SWAP2 SWAP1 POP JUMP JUMPDEST PUSH1 0x0 DUP3 DUP3 SHL SWAP1 POP SWAP3 SWAP2 POP POP JUMP JUMPDEST PUSH1 0x0 PUSH1 0x8 DUP4 MUL PUSH2 0x4B38 PUSH32 0xFFFFFFFFFFFFFFFFFFFFFFFFFFFFFFFFFFFFFFFFFFFFFFFFFFFFFFFFFFFFFFFF DUP3 PUSH2 0x4AFB JUMP JUMPDEST PUSH2 0x4B42 DUP7 DUP4 PUSH2 0x4AFB JUMP JUMPDEST SWAP6 POP DUP1 NOT DUP5 AND SWAP4 POP DUP1 DUP7 AND DUP5 OR SWAP3 POP POP POP SWAP4 SWAP3 POP POP POP JUMP JUMPDEST PUSH1 0x0 DUP2 SWAP1 POP SWAP2 SWAP1 POP JUMP JUMPDEST PUSH1 0x0 PUSH2 0x4B7F PUSH2 0x4B7A PUSH2 0x4B75 DUP5 PUSH2 0x3DDE JUMP JUMPDEST PUSH2 0x4B5A JUMP JUMPDEST PUSH2 0x3DDE JUMP JUMPDEST SWAP1 POP SWAP2 SWAP1 POP JUMP JUMPDEST PUSH1 0x0 DUP2 SWAP1 POP SWAP2 SWAP1 POP JUMP JUMPDEST PUSH2 0x4B99 DUP4 PUSH2 0x4B64 JUMP JUMPDEST PUSH2 0x4BAD PUSH2 0x4BA5 DUP3 PUSH2 0x4B86 JUMP JUMPDEST DUP5 DUP5 SLOAD PUSH2 0x4B08 JUMP JUMPDEST DUP3 SSTORE POP POP POP POP JUMP JUMPDEST PUSH1 0x0 SWAP1 JUMP JUMPDEST PUSH2 0x4BC2 PUSH2 0x4BB5 JUMP JUMPDEST PUSH2 0x4BCD DUP2 DUP5 DUP5 PUSH2 0x4B90 JUMP JUMPDEST POP POP POP JUMP JUMPDEST JUMPDEST DUP2 DUP2 LT ISZERO PUSH2 0x4BF1 JUMPI PUSH2 0x4BE6 PUSH1 0x0 DUP3 PUSH2 0x4BBA JUMP JUMPDEST PUSH1 0x1 DUP2 ADD SWAP1 POP PUSH2 0x4BD3 JUMP JUMPDEST POP POP JUMP JUMPDEST PUSH1 0x1F DUP3 GT ISZERO PUSH2 0x4C36 JUMPI PUSH2 0x4C07 DUP2 PUSH2 0x4AD6 JUMP JUMPDEST PUSH2 0x4C10 DUP5 PUSH2 0x4AEB JUMP JUMPDEST DUP2 ADD PUSH1 0x20 DUP6 LT ISZERO PUSH2 0x4C1F JUMPI DUP2 SWAP1 POP JUMPDEST PUSH2 0x4C33 PUSH2 0x4C2B DUP6 PUSH2 0x4AEB JUMP JUMPDEST DUP4 ADD DUP3 PUSH2 0x4BD2 JUMP JUMPDEST POP POP JUMPDEST POP POP POP JUMP JUMPDEST PUSH1 0x0 DUP3 DUP3 SHR SWAP1 POP SWAP3 SWAP2 POP POP JUMP JUMPDEST PUSH1 0x0 PUSH2 0x4C59 PUSH1 0x0 NOT DUP5 PUSH1 0x8 MUL PUSH2 0x4C3B JUMP JUMPDEST NOT DUP1 DUP4 AND SWAP2 POP POP SWAP3 SWAP2 POP POP JUMP JUMPDEST PUSH1 0x0 PUSH2 0x4C72 DUP4 DUP4 PUSH2 0x4C48 JUMP JUMPDEST SWAP2 POP DUP3 PUSH1 0x2 MUL DUP3 OR SWAP1 POP SWAP3 SWAP2 POP POP JUMP JUMPDEST PUSH2 0x4C8B DUP3 PUSH2 0x4A6B JUMP JUMPDEST PUSH8 0xFFFFFFFFFFFFFFFF DUP2 GT ISZERO PUSH2 0x4CA4 JUMPI PUSH2 0x4CA3 PUSH2 0x3EC1 JUMP JUMPDEST JUMPDEST PUSH2 0x4CAE DUP3 SLOAD PUSH2 0x4AA5 JUMP JUMPDEST PUSH2 0x4CB9 DUP3 DUP3 DUP6 PUSH2 0x4BF5 JUMP JUMPDEST PUSH1 0x0 PUSH1 0x20 SWAP1 POP PUSH1 0x1F DUP4 GT PUSH1 0x1 DUP2 EQ PUSH2 0x4CEC JUMPI PUSH1 0x0 DUP5 ISZERO PUSH2 0x4CDA JUMPI DUP3 DUP8 ADD MLOAD SWAP1 POP JUMPDEST PUSH2 0x4CE4 DUP6 DUP3 PUSH2 0x4C66 JUMP JUMPDEST DUP7 SSTORE POP PUSH2 0x4D4C JUMP JUMPDEST PUSH1 0x1F NOT DUP5 AND PUSH2 0x4CFA DUP7 PUSH2 0x4AD6 JUMP JUMPDEST PUSH1 0x0 JUMPDEST DUP3 DUP2 LT ISZERO PUSH2 0x4D22 JUMPI DUP5 DUP10 ADD MLOAD DUP3 SSTORE PUSH1 0x1 DUP3 ADD SWAP2 POP PUSH1 0x20 DUP6 ADD SWAP5 POP PUSH1 0x20 DUP2 ADD SWAP1 POP PUSH2 0x4CFD JUMP JUMPDEST DUP7 DUP4 LT ISZERO PUSH2 0x4D3F JUMPI DUP5 DUP10 ADD MLOAD PUSH2 0x4D3B PUSH1 0x1F DUP10 AND DUP3 PUSH2 0x4C48 JUMP JUMPDEST DUP4 SSTORE POP JUMPDEST PUSH1 0x1 PUSH1 0x2 DUP9 MUL ADD DUP9 SSTORE POP POP POP JUMPDEST POP POP POP POP POP POP JUMP JUMPDEST PUSH1 0x0 PUSH2 0x4D5F DUP3 PUSH2 0x3DDE JUMP JUMPDEST SWAP2 POP PUSH2 0x4D6A DUP4 PUSH2 0x3DDE JUMP JUMPDEST SWAP3 POP DUP3 DUP3 MUL PUSH2 0x4D78 DUP2 PUSH2 0x3DDE JUMP JUMPDEST SWAP2 POP DUP3 DUP3 DIV DUP5 EQ DUP4 ISZERO OR PUSH2 0x4D8F JUMPI PUSH2 0x4D8E PUSH2 0x43AF JUMP JUMPDEST JUMPDEST POP SWAP3 SWAP2 POP POP JUMP JUMPDEST PUSH1 0x0 DUP2 SWAP1 POP SWAP2 SWAP1 POP JUMP JUMPDEST PUSH2 0x4DB1 PUSH2 0x4DAC DUP3 PUSH2 0x3DDE JUMP JUMPDEST PUSH2 0x4D96 JUMP JUMPDEST DUP3 MSTORE POP POP JUMP JUMPDEST PUSH1 0x0 PUSH20 0xFFFFFFFFFFFFFFFFFFFFFFFFFFFFFFFFFFFFFFFF DUP3 AND SWAP1 POP SWAP2 SWAP1 POP JUMP JUMPDEST PUSH1 0x0 PUSH2 0x4DE2 DUP3 PUSH2 0x4DB7 JUMP JUMPDEST SWAP1 POP SWAP2 SWAP1 POP JUMP JUMPDEST PUSH1 0x0 DUP2 PUSH1 0x60 SHL SWAP1 POP SWAP2 SWAP1 POP JUMP JUMPDEST PUSH1 0x0 PUSH2 0x4E01 DUP3 PUSH2 0x4DE9 JUMP JUMPDEST SWAP1 POP SWAP2 SWAP1 POP JUMP JUMPDEST PUSH1 0x0 PUSH2 0x4E13 DUP3 PUSH2 0x4DF6 JUMP JUMPDEST SWAP1 POP SWAP2 SWAP1 POP JUMP JUMPDEST PUSH2 0x4E2B PUSH2 0x4E26 DUP3 PUSH2 0x4DD7 JUMP JUMPDEST PUSH2 0x4E08 JUMP JUMPDEST DUP3 MSTORE POP POP JUMP JUMPDEST PUSH1 0x0 PUSH2 0x4E3D DUP3 DUP7 PUSH2 0x4DA0 JUMP JUMPDEST PUSH1 0x20 DUP3 ADD SWAP2 POP PUSH2 0x4E4D DUP3 DUP6 PUSH2 0x4E1A JUMP JUMPDEST PUSH1 0x14 DUP3 ADD SWAP2 POP PUSH2 0x4E5D DUP3 DUP5 PUSH2 0x4DA0 JUMP JUMPDEST PUSH1 0x20 DUP3 ADD SWAP2 POP DUP2 SWAP1 POP SWAP5 SWAP4 POP POP POP POP JUMP JUMPDEST PUSH32 0x4E487B7100000000000000000000000000000000000000000000000000000000 PUSH1 0x0 MSTORE PUSH1 0x12 PUSH1 0x4 MSTORE PUSH1 0x24 PUSH1 0x0 REVERT JUMPDEST PUSH1 0x0 PUSH2 0x4EA8 DUP3 PUSH2 0x3DDE JUMP JUMPDEST SWAP2 POP PUSH2 0x4EB3 DUP4 PUSH2 0x3DDE JUMP JUMPDEST SWAP3 POP DUP3 PUSH2 0x4EC3 JUMPI PUSH2 0x4EC2 PUSH2 0x4E6E JUMP JUMPDEST JUMPDEST DUP3 DUP3 MOD SWAP1 POP SWAP3 SWAP2 POP POP JUMP INVALID LOG2 PUSH5 0x6970667358 0x22 SLT KECCAK256 DUP2 0xE3 PUSH17 0x7EA8596EBFFECAA3D1CDF2D0C723A721B4 CHAINID JUMPDEST SWAP6 SWAP10 0x29 CALLCODE PUSH31 0xB818F9A9DB64736F6C63430008110033000000000000000000000000000000 "
		},
		"gasEstimates": {
			"creation": {
				"codeDepositCost": "4045600",
				"executionCost": "infinite",
				"totalCost": "infinite"
			},
			"external": {
				"BET_MAX()": "395",
				"BET_MIN()": "375",
				"betAmount()": "2517",
				"deal()": "infinite",
				"dealerBusted()": "2496",
				"dealerCardCount()": "2474",
				"dealerHandValue(uint256,uint256)": "infinite",
				"dealerStand()": "237266",
				"dealerStands()": "2496",
				"dealersCards(uint256,uint256)": "infinite",
				"dealtCards(uint256,uint256)": "infinite",
				"finalDealerCount()": "2498",
				"finalPlayerCount()": "2473",
				"fundContract(uint256)": "infinite",
				"gameInProgress()": "2497",
				"hitDealer()": "infinite",
				"hitPlayer()": "infinite",
				"houseBalance()": "2540",
				"placeBet(uint256)": "infinite",
				"playerBalance()": "2518",
				"playerBusted()": "2519",
				"playerCardCount()": "2497",
				"playerHandValue(uint256,uint256)": "infinite",
				"playerStand()": "232296",
				"playerStands()": "2475",
				"playerWithdraw(uint256)": "infinite",
				"playersCards(uint256,uint256)": "infinite",
				"replaceDuplicates(uint256[2][4])": "infinite"
			},
			"internal": {
				"evaluateDealerHand()": "207811",
				"evaluatePlayerHand()": "207811",
				"getCards(uint256)": "infinite",
				"getRandom()": "infinite",
				"getSlice(uint256,uint256,string memory)": "infinite",
				"numCardsInArray(uint256[2] memory[16] memory)": "infinite",
				"playerHasBlackJack()": "5023",
				"pushToDealer(uint256,uint256,uint256)": "infinite",
				"pushToPlayer(uint256,uint256,uint256)": "infinite",
				"stringToUint(string memory)": "infinite",
				"sumDealersCards()": "infinite",
				"sumPlayersCards()": "infinite"
			}
		},
		"methodIdentifiers": {
			"BET_MAX()": "d0017a0c",
			"BET_MIN()": "2626ab08",
			"betAmount()": "d24257c0",
			"deal()": "553df021",
			"dealerBusted()": "c5c3cd78",
			"dealerCardCount()": "908a0979",
			"dealerHandValue(uint256,uint256)": "53a218c9",
			"dealerStand()": "c315db2c",
			"dealerStands()": "a10926d6",
			"dealersCards(uint256,uint256)": "8bbb236f",
			"dealtCards(uint256,uint256)": "2fcb6992",
			"finalDealerCount()": "13bf01ed",
			"finalPlayerCount()": "cdc7ea51",
			"fundContract(uint256)": "3519a2f8",
			"gameInProgress()": "3fb64e75",
			"hitDealer()": "c2855a59",
			"hitPlayer()": "dae10ed5",
			"houseBalance()": "67084eb3",
			"placeBet(uint256)": "10fe7c48",
			"playerBalance()": "651f066a",
			"playerBusted()": "325eb3f5",
			"playerCardCount()": "8914d63b",
			"playerHandValue(uint256,uint256)": "16dd37dd",
			"playerStand()": "c9f09d38",
			"playerStands()": "3c3248d5",
			"playerWithdraw(uint256)": "5629365b",
			"playersCards(uint256,uint256)": "bdbe451b",
			"replaceDuplicates(uint256[2][4])": "7b0d3625"
		}
	},
	"abi": [
		{
			"inputs": [],
			"name": "BET_MAX",
			"outputs": [
				{
					"internalType": "uint256",
					"name": "",
					"type": "uint256"
				}
			],
			"stateMutability": "view",
			"type": "function"
		},
		{
			"inputs": [],
			"name": "BET_MIN",
			"outputs": [
				{
					"internalType": "uint256",
					"name": "",
					"type": "uint256"
				}
			],
			"stateMutability": "view",
			"type": "function"
		},
		{
			"inputs": [],
			"name": "betAmount",
			"outputs": [
				{
					"internalType": "uint256",
					"name": "",
					"type": "uint256"
				}
			],
			"stateMutability": "view",
			"type": "function"
		},
		{
			"inputs": [],
			"name": "deal",
			"outputs": [],
			"stateMutability": "nonpayable",
			"type": "function"
		},
		{
			"inputs": [],
			"name": "dealerBusted",
			"outputs": [
				{
					"internalType": "uint256",
					"name": "",
					"type": "uint256"
				}
			],
			"stateMutability": "view",
			"type": "function"
		},
		{
			"inputs": [],
			"name": "dealerCardCount",
			"outputs": [
				{
					"internalType": "uint256",
					"name": "",
					"type": "uint256"
				}
			],
			"stateMutability": "view",
			"type": "function"
		},
		{
			"inputs": [
				{
					"internalType": "uint256",
					"name": "",
					"type": "uint256"
				},
				{
					"internalType": "uint256",
					"name": "",
					"type": "uint256"
				}
			],
			"name": "dealerHandValue",
			"outputs": [
				{
					"internalType": "uint256",
					"name": "",
					"type": "uint256"
				}
			],
			"stateMutability": "view",
			"type": "function"
		},
		{
			"inputs": [],
			"name": "dealerStand",
			"outputs": [],
			"stateMutability": "nonpayable",
			"type": "function"
		},
		{
			"inputs": [],
			"name": "dealerStands",
			"outputs": [
				{
					"internalType": "uint256",
					"name": "",
					"type": "uint256"
				}
			],
			"stateMutability": "view",
			"type": "function"
		},
		{
			"inputs": [
				{
					"internalType": "uint256",
					"name": "",
					"type": "uint256"
				},
				{
					"internalType": "uint256",
					"name": "",
					"type": "uint256"
				}
			],
			"name": "dealersCards",
			"outputs": [
				{
					"internalType": "uint256",
					"name": "",
					"type": "uint256"
				}
			],
			"stateMutability": "view",
			"type": "function"
		},
		{
			"inputs": [
				{
					"internalType": "uint256",
					"name": "",
					"type": "uint256"
				},
				{
					"internalType": "uint256",
					"name": "",
					"type": "uint256"
				}
			],
			"name": "dealtCards",
			"outputs": [
				{
					"internalType": "uint256",
					"name": "",
					"type": "uint256"
				}
			],
			"stateMutability": "view",
			"type": "function"
		},
		{
			"inputs": [],
			"name": "finalDealerCount",
			"outputs": [
				{
					"internalType": "uint256",
					"name": "",
					"type": "uint256"
				}
			],
			"stateMutability": "view",
			"type": "function"
		},
		{
			"inputs": [],
			"name": "finalPlayerCount",
			"outputs": [
				{
					"internalType": "uint256",
					"name": "",
					"type": "uint256"
				}
			],
			"stateMutability": "view",
			"type": "function"
		},
		{
			"inputs": [
				{
					"internalType": "uint256",
					"name": "house_or_player",
					"type": "uint256"
				}
			],
			"name": "fundContract",
			"outputs": [],
			"stateMutability": "payable",
			"type": "function"
		},
		{
			"inputs": [],
			"name": "gameInProgress",
			"outputs": [
				{
					"internalType": "uint256",
					"name": "",
					"type": "uint256"
				}
			],
			"stateMutability": "view",
			"type": "function"
		},
		{
			"inputs": [],
			"name": "hitDealer",
			"outputs": [],
			"stateMutability": "nonpayable",
			"type": "function"
		},
		{
			"inputs": [],
			"name": "hitPlayer",
			"outputs": [],
			"stateMutability": "nonpayable",
			"type": "function"
		},
		{
			"inputs": [],
			"name": "houseBalance",
			"outputs": [
				{
					"internalType": "uint256",
					"name": "",
					"type": "uint256"
				}
			],
			"stateMutability": "view",
			"type": "function"
		},
		{
			"inputs": [
				{
					"internalType": "uint256",
					"name": "_betAmount",
					"type": "uint256"
				}
			],
			"name": "placeBet",
			"outputs": [],
			"stateMutability": "payable",
			"type": "function"
		},
		{
			"inputs": [],
			"name": "playerBalance",
			"outputs": [
				{
					"internalType": "uint256",
					"name": "",
					"type": "uint256"
				}
			],
			"stateMutability": "view",
			"type": "function"
		},
		{
			"inputs": [],
			"name": "playerBusted",
			"outputs": [
				{
					"internalType": "uint256",
					"name": "",
					"type": "uint256"
				}
			],
			"stateMutability": "view",
			"type": "function"
		},
		{
			"inputs": [],
			"name": "playerCardCount",
			"outputs": [
				{
					"internalType": "uint256",
					"name": "",
					"type": "uint256"
				}
			],
			"stateMutability": "view",
			"type": "function"
		},
		{
			"inputs": [
				{
					"internalType": "uint256",
					"name": "",
					"type": "uint256"
				},
				{
					"internalType": "uint256",
					"name": "",
					"type": "uint256"
				}
			],
			"name": "playerHandValue",
			"outputs": [
				{
					"internalType": "uint256",
					"name": "",
					"type": "uint256"
				}
			],
			"stateMutability": "view",
			"type": "function"
		},
		{
			"inputs": [],
			"name": "playerStand",
			"outputs": [],
			"stateMutability": "nonpayable",
			"type": "function"
		},
		{
			"inputs": [],
			"name": "playerStands",
			"outputs": [
				{
					"internalType": "uint256",
					"name": "",
					"type": "uint256"
				}
			],
			"stateMutability": "view",
			"type": "function"
		},
		{
			"inputs": [
				{
					"internalType": "uint256",
					"name": "amount",
					"type": "uint256"
				}
			],
			"name": "playerWithdraw",
			"outputs": [],
			"stateMutability": "payable",
			"type": "function"
		},
		{
			"inputs": [
				{
					"internalType": "uint256",
					"name": "",
					"type": "uint256"
				},
				{
					"internalType": "uint256",
					"name": "",
					"type": "uint256"
				}
			],
			"name": "playersCards",
			"outputs": [
				{
					"internalType": "uint256",
					"name": "",
					"type": "uint256"
				}
			],
			"stateMutability": "view",
			"type": "function"
		},
		{
			"inputs": [
				{
					"internalType": "uint256[2][4]",
					"name": "array",
					"type": "uint256[2][4]"
				}
			],
			"name": "replaceDuplicates",
			"outputs": [
				{
					"internalType": "uint256[2][4]",
					"name": "",
					"type": "uint256[2][4]"
				}
			],
			"stateMutability": "nonpayable",
			"type": "function"
		}
	]
}