{
	"data": {
		"bytecode": {
			"linkReferences": {},
			"object": "6080604052600060015560006002556000600355600060045560006005556000600655600060075560006050556000605155600060525560006053556000605c556000605d556000605e556000605f5560405180602001604052806000815250606090816200006f9190620003a8565b506040518060200160405280600081525060619081620000909190620003a8565b5060006063556000606460006101000a81548173ffffffffffffffffffffffffffffffffffffffff021916908373ffffffffffffffffffffffffffffffffffffffff1602179055506000606560006101000a81548173ffffffffffffffffffffffffffffffffffffffff021916908373ffffffffffffffffffffffffffffffffffffffff1602179055503480156200012757600080fd5b506200048f565b600081519050919050565b7f4e487b7100000000000000000000000000000000000000000000000000000000600052604160045260246000fd5b7f4e487b7100000000000000000000000000000000000000000000000000000000600052602260045260246000fd5b60006002820490506001821680620001b057607f821691505b602082108103620001c657620001c562000168565b5b50919050565b60008190508160005260206000209050919050565b60006020601f8301049050919050565b600082821b905092915050565b600060088302620002307fffffffffffffffffffffffffffffffffffffffffffffffffffffffffffffffff82620001f1565b6200023c8683620001f1565b95508019841693508086168417925050509392505050565b6000819050919050565b6000819050919050565b600062000289620002836200027d8462000254565b6200025e565b62000254565b9050919050565b6000819050919050565b620002a58362000268565b620002bd620002b48262000290565b848454620001fe565b825550505050565b600090565b620002d4620002c5565b620002e18184846200029a565b505050565b5b818110156200030957620002fd600082620002ca565b600181019050620002e7565b5050565b601f82111562000358576200032281620001cc565b6200032d84620001e1565b810160208510156200033d578190505b620003556200034c85620001e1565b830182620002e6565b50505b505050565b600082821c905092915050565b60006200037d600019846008026200035d565b1980831691505092915050565b60006200039883836200036a565b9150826002028217905092915050565b620003b3826200012e565b67ffffffffffffffff811115620003cf57620003ce62000139565b5b620003db825462000197565b620003e88282856200030d565b600060209050601f8311600181146200042057600084156200040b578287015190505b6200041785826200038a565b86555062000487565b601f1984166200043086620001cc565b60005b828110156200045a5784890151825560018201915060208501945060208101905062000433565b868310156200047a578489015162000476601f8916826200036a565b8355505b6001600288020188555050505b505050505050565b614ac8806200049f6000396000f3fe60806040526004361061019c5760003560e01c806367084eb3116100ec578063c2855a591161008a578063cdc7ea5111610064578063cdc7ea5114610581578063d0017a0c146105ac578063d24257c0146105d7578063dae10ed5146106025761019c565b8063c2855a5914610528578063c5c3cd781461053f578063c9f09d381461056a5761019c565b80638bbb236f116100c65780638bbb236f14610458578063908a097914610495578063a10926d6146104c0578063bdbe451b146104eb5761019c565b806367084eb3146103c55780637b0d3625146103f05780638914d63b1461042d5761019c565b80633519a2f81161015957806353a218c91161013357806353a218c91461032a578063553df021146103675780635629365b1461037e578063651f066a1461039a5761019c565b80633519a2f8146102b85780633c3248d5146102d45780633fb64e75146102ff5761019c565b806310fe7c48146101a157806313bf01ed146101bd57806316dd37dd146101e85780632626ab08146102255780632fcb699214610250578063325eb3f51461028d575b600080fd5b6101bb60048036038101906101b69190613a44565b610619565b005b3480156101c957600080fd5b506101d26107b6565b6040516101df9190613a80565b60405180910390f35b3480156101f457600080fd5b5061020f600480360381019061020a9190613a9b565b6107bc565b60405161021c9190613a80565b60405180910390f35b34801561023157600080fd5b5061023a6107ea565b6040516102479190613a80565b60405180910390f35b34801561025c57600080fd5b5061027760048036038101906102729190613a9b565b6107ef565b6040516102849190613a80565b60405180910390f35b34801561029957600080fd5b506102a261081d565b6040516102af9190613a80565b60405180910390f35b6102d260048036038101906102cd9190613a44565b610823565b005b3480156102e057600080fd5b506102e9610d52565b6040516102f69190613a80565b60405180910390f35b34801561030b57600080fd5b50610314610d58565b6040516103219190613a80565b60405180910390f35b34801561033657600080fd5b50610351600480360381019061034c9190613a9b565b610d5e565b60405161035e9190613a80565b60405180910390f35b34801561037357600080fd5b5061037c610d8c565b005b61039860048036038101906103939190613a44565b6111f2565b005b3480156103a657600080fd5b506103af611410565b6040516103bc9190613a80565b60405180910390f35b3480156103d157600080fd5b506103da611416565b6040516103e79190613a80565b60405180910390f35b3480156103fc57600080fd5b5061041760048036038101906104129190613cd3565b61141c565b6040516104249190613e48565b60405180910390f35b34801561043957600080fd5b5061044261177e565b60405161044f9190613a80565b60405180910390f35b34801561046457600080fd5b5061047f600480360381019061047a9190613a9b565b611784565b60405161048c9190613a80565b60405180910390f35b3480156104a157600080fd5b506104aa6117b2565b6040516104b79190613a80565b60405180910390f35b3480156104cc57600080fd5b506104d56117b8565b6040516104e29190613a80565b60405180910390f35b3480156104f757600080fd5b50610512600480360381019061050d9190613a9b565b6117be565b60405161051f9190613a80565b60405180910390f35b34801561053457600080fd5b5061053d6117ec565b005b34801561054b57600080fd5b50610554611ab4565b6040516105619190613a80565b60405180910390f35b34801561057657600080fd5b5061057f611aba565b005b34801561058d57600080fd5b50610596611b11565b6040516105a39190613a80565b60405180910390f35b3480156105b857600080fd5b506105c1611b17565b6040516105ce9190613a80565b60405180910390f35b3480156105e357600080fd5b506105ec611b23565b6040516105f99190613a80565b60405180910390f35b34801561060e57600080fd5b50610617611b29565b005b600454600134101580156106355750678ac7230489e800003411155b61063e57600080fd5b6003546004541115610685576040517f08c379a000000000000000000000000000000000000000000000000000000000815260040161067c90613ee7565b60405180910390fd5b606460009054906101000a900473ffffffffffffffffffffffffffffffffffffffff1673ffffffffffffffffffffffffffffffffffffffff163373ffffffffffffffffffffffffffffffffffffffff1614610715576040517f08c379a000000000000000000000000000000000000000000000000000000000815260040161070c90613f53565b60405180910390fd5b60008054906101000a900460ff1615610763576040517f08c379a000000000000000000000000000000000000000000000000000000000815260040161075a90613fbf565b60405180910390fd5b60016000806101000a81548160ff0219169083151502179055508160035461078b919061400e565b6003819055508160048190555060008060006101000a81548160ff0219169083151502179055505050565b605d5481565b605482600281106107cc57600080fd5b6002020181600281106107de57600080fd5b01600091509150505481565b600181565b604882600481106107ff57600080fd5b60020201816002811061081157600080fd5b01600091509150505481565b60525481565b80600073ffffffffffffffffffffffffffffffffffffffff16606560009054906101000a900473ffffffffffffffffffffffffffffffffffffffff1673ffffffffffffffffffffffffffffffffffffffff1614806108cf5750600073ffffffffffffffffffffffffffffffffffffffff16606460009054906101000a900473ffffffffffffffffffffffffffffffffffffffff1673ffffffffffffffffffffffffffffffffffffffff16145b806109275750606560009054906101000a900473ffffffffffffffffffffffffffffffffffffffff1673ffffffffffffffffffffffffffffffffffffffff163373ffffffffffffffffffffffffffffffffffffffff16145b8061097f5750606460009054906101000a900473ffffffffffffffffffffffffffffffffffffffff1673ffffffffffffffffffffffffffffffffffffffff163373ffffffffffffffffffffffffffffffffffffffff16145b6109be576040517f08c379a00000000000000000000000000000000000000000000000000000000081526004016109b5906140b4565b60405180910390fd5b60008114806109cd5750600181145b610a0c576040517f08c379a0000000000000000000000000000000000000000000000000000000008152600401610a0390614146565b60405180910390fd5b60008203610bad57606560009054906101000a900473ffffffffffffffffffffffffffffffffffffffff1673ffffffffffffffffffffffffffffffffffffffff163373ffffffffffffffffffffffffffffffffffffffff161480610abe5750600073ffffffffffffffffffffffffffffffffffffffff16606560009054906101000a900473ffffffffffffffffffffffffffffffffffffffff1673ffffffffffffffffffffffffffffffffffffffff16145b8015610b185750606460009054906101000a900473ffffffffffffffffffffffffffffffffffffffff1673ffffffffffffffffffffffffffffffffffffffff163373ffffffffffffffffffffffffffffffffffffffff1614155b610b57576040517f08c379a0000000000000000000000000000000000000000000000000000000008152600401610b4e906141d8565b60405180910390fd5b33606560006101000a81548173ffffffffffffffffffffffffffffffffffffffff021916908373ffffffffffffffffffffffffffffffffffffffff16021790555034600254610ba691906141f8565b6002819055505b60018203610d4e57606460009054906101000a900473ffffffffffffffffffffffffffffffffffffffff1673ffffffffffffffffffffffffffffffffffffffff163373ffffffffffffffffffffffffffffffffffffffff161480610c5f5750600073ffffffffffffffffffffffffffffffffffffffff16606460009054906101000a900473ffffffffffffffffffffffffffffffffffffffff1673ffffffffffffffffffffffffffffffffffffffff16145b8015610cb95750606560009054906101000a900473ffffffffffffffffffffffffffffffffffffffff1673ffffffffffffffffffffffffffffffffffffffff163373ffffffffffffffffffffffffffffffffffffffff1614155b610cf8576040517f08c379a0000000000000000000000000000000000000000000000000000000008152600401610cef9061429e565b60405180910390fd5b33606460006101000a81548173ffffffffffffffffffffffffffffffffffffffff021916908373ffffffffffffffffffffffffffffffffffffffff16021790555034600354610d4791906141f8565b6003819055505b5050565b605e5481565b60015481565b60588260028110610d6e57600080fd5b600202018160028110610d8057600080fd5b01600091509150505481565b60008054906101000a900460ff1615610dda576040517f08c379a0000000000000000000000000000000000000000000000000000000008152600401610dd190613fbf565b60405180910390fd5b60016000806101000a81548160ff021916908315150217905550600180819055506000605e81905550600060528190555060006053819055506000605e819055506000605d819055506000605c8190555060006054600160028110610e4257610e416142be565b5b60020201600060028110610e5957610e586142be565b5b018190555060006054600160028110610e7557610e746142be565b5b60020201600160028110610e8c57610e8b6142be565b5b01819055506000600190505b6010811015610fea57600060088260108110610eb757610eb66142be565b5b60020201600060028110610ece57610ecd6142be565b5b0181905550600060088260108110610ee957610ee86142be565b5b60020201600160028110610f0057610eff6142be565b5b0181905550600060288260108110610f1b57610f1a6142be565b5b60020201600060028110610f3257610f316142be565b5b0181905550600060288260108110610f4d57610f4c6142be565b5b60020201600160028110610f6457610f636142be565b5b01819055506004811015610fd757600060488260048110610f8857610f876142be565b5b60020201600060028110610f9f57610f9e6142be565b5b0181905550600060488260048110610fba57610fb96142be565b5b60020201600160028110610fd157610fd06142be565b5b01819055505b8080610fe2906142ed565b915050610e98565b50610ff56003611ebf565b6110736048600480602002604051908101604052809291906000905b8282101561106a57838260020201600280602002604051908101604052809291908260028015611056576020028201915b815481526020019060010190808311611042575b505050505081526020019060010190611011565b5050505061141c565b60489060046110839291906138d0565b506110ea604860016004811061109c5761109b6142be565b5b600202016000600281106110b3576110b26142be565b5b015460486001600481106110ca576110c96142be565b5b600202016001600281106110e1576110e06142be565b5b015460016126cf565b6111506048600260048110611102576111016142be565b5b60020201600060028110611119576111186142be565b5b015460486002600481106111305761112f6142be565b5b60020201600160028110611147576111466142be565b5b015460016127ba565b6111b66048600360048110611168576111676142be565b5b6002020160006002811061117f5761117e6142be565b5b01546048600360048110611196576111956142be565b5b600202016001600281106111ad576111ac6142be565b5b015460026126cf565b6111be6128a5565b6111c6612b1a565b6111ce612d8f565b6111d6612f3e565b60008060006101000a81548160ff021916908315150217905550565b80600060035411611238576040517f08c379a000000000000000000000000000000000000000000000000000000000815260040161122f906143a7565b60405180910390fd5b606460009054906101000a900473ffffffffffffffffffffffffffffffffffffffff1673ffffffffffffffffffffffffffffffffffffffff163373ffffffffffffffffffffffffffffffffffffffff16146112c8576040517f08c379a00000000000000000000000000000000000000000000000000000000081526004016112bf90614439565b60405180910390fd5b60035481111561130d576040517f08c379a0000000000000000000000000000000000000000000000000000000008152600401611304906144cb565b60405180910390fd5b60008054906101000a900460ff161561135b576040517f08c379a000000000000000000000000000000000000000000000000000000000815260040161135290613fbf565b60405180910390fd5b60016000806101000a81548160ff02191690831515021790555081600354611383919061400e565b600381905550606460009054906101000a900473ffffffffffffffffffffffffffffffffffffffff1673ffffffffffffffffffffffffffffffffffffffff166108fc839081150290604051600060405180830381858888f193505050501580156113f1573d6000803e3d6000fd5b5060008060006101000a81548160ff0219169083151502179055505050565b60035481565b60025481565b611424613921565b5b81600260048110611439576114386142be565b5b6020020151600060028110611451576114506142be565b5b60200201518260016004811061146a576114696142be565b5b6020020151600060028110611482576114816142be565b5b60200201511480156114f35750816002600481106114a3576114a26142be565b5b60200201516001600281106114bb576114ba6142be565b5b6020020151826001600481106114d4576114d36142be565b5b60200201516001600281106114ec576114eb6142be565b5b6020020151145b156115cd576115026001611ebf565b6048600260048110611517576115166142be565b5b6002020160006002811061152e5761152d6142be565b5b015482600160048110611544576115436142be565b5b602002015160006002811061155c5761155b6142be565b5b602002018181525050604860016004811061157a576115796142be565b5b60020201600160028110611591576115906142be565b5b0154826002600481106115a7576115a66142be565b5b60200201516001600281106115bf576115be6142be565b5b602002018181525050611425565b5b816003600481106115e2576115e16142be565b5b60200201516000600281106115fa576115f96142be565b5b602002015182600260048110611613576116126142be565b5b602002015160006002811061162b5761162a6142be565b5b602002015114801561169c57508160036004811061164c5761164b6142be565b5b6020020151600160028110611664576116636142be565b5b60200201518260026004811061167d5761167c6142be565b5b6020020151600160028110611695576116946142be565b5b6020020151145b15611776576116ab6001611ebf565b60486001600481106116c0576116bf6142be565b5b600202016000600281106116d7576116d66142be565b5b0154826003600481106116ed576116ec6142be565b5b6020020151600060028110611705576117046142be565b5b6020020181815250506048600160048110611723576117226142be565b5b6002020160016002811061173a576117396142be565b5b0154826003600481106117505761174f6142be565b5b6020020151600160028110611768576117676142be565b5b6020020181815250506115ce565b819050919050565b60505481565b6028826010811061179457600080fd5b6002020181600281106117a657600080fd5b01600091509150505481565b60515481565b605f5481565b600882601081106117ce57600080fd5b6002020181600281106117e057600080fd5b01600091509150505481565b600061186c6028601080602002604051908101604052809291906000905b828210156118635783826002020160028060200260405190810160405280929190826002801561184f576020028201915b81548152602001906001019080831161183b575b50505050508152602001906001019061180a565b505050506133d6565b90506118786001611ebf565b60005b81811015611a2f575b6048600160048110611899576118986142be565b5b600202016000600281106118b0576118af6142be565b5b0154600882601081106118c6576118c56142be565b5b600202016000600281106118dd576118dc6142be565b5b01541480611943575060486001600481106118fb576118fa6142be565b5b60020201600060028110611912576119116142be565b5b015460288260108110611928576119276142be565b5b6002020160006002811061193f5761193e6142be565b5b0154145b15611a1c57604860016004811061195d5761195c6142be565b5b60020201600160028110611974576119736142be565b5b01546008826010811061198a576119896142be565b5b600202016001600281106119a1576119a06142be565b5b01541480611a07575060486001600481106119bf576119be6142be565b5b600202016001600281106119d6576119d56142be565b5b0154602882601081106119ec576119eb6142be565b5b60020201600160028110611a0357611a026142be565b5b0154145b15611a1757611a166001611ebf565b5b611884565b8080611a27906142ed565b91505061187b565b50611aa16048600160048110611a4857611a476142be565b5b60020201600060028110611a5f57611a5e6142be565b5b01546048600160048110611a7657611a756142be565b5b60020201600160028110611a8d57611a8c6142be565b5b0154600184611a9c91906141f8565b6127ba565b611aa9612b1a565b611ab1612d8f565b50565b60535481565b6000605e5414611aff576040517f08c379a0000000000000000000000000000000000000000000000000000000008152600401611af690614537565b60405180910390fd5b6001605e81905550611b0f612f3e565b565b605c5481565b678ac7230489e8000081565b60045481565b6001805414611b6d576040517f08c379a0000000000000000000000000000000000000000000000000000000008152600401611b64906145a3565b60405180910390fd5b600060525414611bb2576040517f08c379a0000000000000000000000000000000000000000000000000000000008152600401611ba99061460f565b60405180910390fd5b6000605e5414611bf7576040517f08c379a0000000000000000000000000000000000000000000000000000000008152600401611bee90614537565b60405180910390fd5b6000611c776008601080602002604051908101604052809291906000905b82821015611c6e57838260020201600280602002604051908101604052809291908260028015611c5a576020028201915b815481526020019060010190808311611c46575b505050505081526020019060010190611c15565b505050506133d6565b9050611c836001611ebf565b60005b81811015611e3a575b6048600160048110611ca457611ca36142be565b5b60020201600060028110611cbb57611cba6142be565b5b015460088260108110611cd157611cd06142be565b5b60020201600060028110611ce857611ce76142be565b5b01541480611d4e57506048600160048110611d0657611d056142be565b5b60020201600060028110611d1d57611d1c6142be565b5b015460288260108110611d3357611d326142be565b5b60020201600060028110611d4a57611d496142be565b5b0154145b15611e27576048600160048110611d6857611d676142be565b5b60020201600160028110611d7f57611d7e6142be565b5b015460088260108110611d9557611d946142be565b5b60020201600160028110611dac57611dab6142be565b5b01541480611e1257506048600160048110611dca57611dc96142be565b5b60020201600160028110611de157611de06142be565b5b015460288260108110611df757611df66142be565b5b60020201600160028110611e0e57611e0d6142be565b5b0154145b15611e2257611e216001611ebf565b5b611c8f565b8080611e32906142ed565b915050611c86565b50611eac6048600160048110611e5357611e526142be565b5b60020201600060028110611e6a57611e696142be565b5b01546048600160048110611e8157611e806142be565b5b60020201600160028110611e9857611e976142be565b5b0154600184611ea791906141f8565b6126cf565b611eb46128a5565b611ebc612f3e565b50565b6000600190505b8181116126cb5760006003905060006004905060006007819055506000600681905550611ef161344e565b600581905550611f02600554613502565b60609081611f109190614846565b50611fa6828260608054611f2390614669565b80601f0160208091040260200160405190810160405280929190818152602001828054611f4f90614669565b8015611f9c5780601f10611f7157610100808354040283529160200191611f9c565b820191906000526020600020905b815481529060010190602001808311611f7f57829003601f168201915b50505050506135d0565b60619081611fb49190614846565b5061204860618054611fc590614669565b80601f0160208091040260200160405190810160405280929190818152602001828054611ff190614669565b801561203e5780601f106120135761010080835404028352916020019161203e565b820191906000526020600020905b81548152906001019060200180831161202157829003601f168201915b50505050506136e5565b6005819055506060805461205b90614669565b90506062819055505b600160055410806120775750600d600554115b156123755760028261208991906141f8565b915060028161209891906141f8565b905061212f8282606080546120ac90614669565b80601f01602080910402602001604051908101604052809291908181526020018280546120d890614669565b80156121255780601f106120fa57610100808354040283529160200191612125565b820191906000526020600020905b81548152906001019060200180831161210857829003601f168201915b50505050506135d0565b6061908161213d9190614846565b506121d16061805461214e90614669565b80601f016020809104026020016040519081016040528092919081815260200182805461217a90614669565b80156121c75780601f1061219c576101008083540402835291602001916121c7565b820191906000526020600020905b8154815290600101906020018083116121aa57829003601f168201915b50505050506136e5565b60058190555060036062546121e6919061400e565b8211156123705760039150600490506121fd61344e565b60058190555061220e600554613502565b6060908161221c9190614846565b506122b282826060805461222f90614669565b80601f016020809104026020016040519081016040528092919081815260200182805461225b90614669565b80156122a85780601f1061227d576101008083540402835291602001916122a8565b820191906000526020600020905b81548152906001019060200180831161228b57829003601f168201915b50505050506135d0565b606190816122c09190614846565b50612354606180546122d190614669565b80601f01602080910402602001604051908101604052809291908181526020018280546122fd90614669565b801561234a5780601f1061231f5761010080835404028352916020019161234a565b820191906000526020600020905b81548152906001019060200180831161232d57829003601f168201915b50505050506136e5565b6005819055506060805461236790614669565b90506062819055505b612064565b60055460078190555060028261238b91906141f8565b915060028161239a91906141f8565b90506124318282606080546123ae90614669565b80601f01602080910402602001604051908101604052809291908181526020018280546123da90614669565b80156124275780601f106123fc57610100808354040283529160200191612427565b820191906000526020600020905b81548152906001019060200180831161240a57829003601f168201915b50505050506135d0565b6061908161243f9190614846565b506124d36061805461245090614669565b80601f016020809104026020016040519081016040528092919081815260200182805461247c90614669565b80156124c95780601f1061249e576101008083540402835291602001916124c9565b820191906000526020600020905b8154815290600101906020018083116124ac57829003601f168201915b50505050506136e5565b6005819055505b600160055410806124ed57506004600554115b15612646576001826124ff91906141f8565b915081905061259982826060805461251690614669565b80601f016020809104026020016040519081016040528092919081815260200182805461254290614669565b801561258f5780601f106125645761010080835404028352916020019161258f565b820191906000526020600020905b81548152906001019060200180831161257257829003601f168201915b50505050506135d0565b606190816125a79190614846565b5061263b606180546125b890614669565b80601f01602080910402602001604051908101604052809291908181526020018280546125e490614669565b80156126315780601f1061260657610100808354040283529160200191612631565b820191906000526020600020905b81548152906001019060200180831161261457829003601f168201915b50505050506136e5565b6005819055506124da565b60055460068190555060075460488460048110612666576126656142be565b5b6002020160006002811061267d5761267c6142be565b5b018190555060065460488460048110612699576126986142be565b5b600202016001600281106126b0576126af6142be565b5b01819055506001836126c291906141f8565b92505050611ec6565b5050565b82600882601081106126e4576126e36142be565b5b600202016000600281106126fb576126fa6142be565b5b01819055508160088260108110612715576127146142be565b5b6002020160016002811061272c5761272b6142be565b5b01819055506127af6008601080602002604051908101604052809291906000905b828210156127a657838260020201600280602002604051908101604052809291908260028015612792576020028201915b81548152602001906001019080831161277e575b50505050508152602001906001019061274d565b505050506133d6565b605081905550505050565b82602882601081106127cf576127ce6142be565b5b600202016000600281106127e6576127e56142be565b5b01819055508160288260108110612800576127ff6142be565b5b60020201600160028110612817576128166142be565b5b018190555061289a6028601080602002604051908101604052809291906000905b828210156128915783826002020160028060200260405190810160405280929190826002801561287d576020028201915b815481526020019060010190808311612869575b505050505081526020019060010190612838565b505050506133d6565b605181905550505050565b6000806129266008601080602002604051908101604052809291906000905b8282101561291d57838260020201600280602002604051908101604052809291908260028015612909576020028201915b8154815260200190600101908083116128f5575b5050505050815260200190600101906128c4565b505050506133d6565b6050819055506000600190505b6050548111612a3d57600960088260108110612952576129516142be565b5b60020201600060028110612969576129686142be565b5b0154111561298157600a8361297e91906141f8565b92505b600a60088260108110612997576129966142be565b5b600202016000600281106129ae576129ad6142be565b5b015410156129f157600881601081106129ca576129c96142be565b5b600202016000600281106129e1576129e06142be565b5b0154836129ee91906141f8565b92505b600160088260108110612a0757612a066142be565b5b60020201600060028110612a1e57612a1d6142be565b5b015403612a2a57600191505b8080612a35906142ed565b915050612933565b50816054600160028110612a5457612a536142be565b5b60020201600060028110612a6b57612a6a6142be565b5b0181905550816054600160028110612a8657612a856142be565b5b60020201600160028110612a9d57612a9c6142be565b5b018190555060018103612b1657600a6054600160028110612ac157612ac06142be565b5b60020201600160028110612ad857612ad76142be565b5b0154612ae491906141f8565b6054600160028110612af957612af86142be565b5b60020201600160028110612b1057612b0f6142be565b5b01819055505b5050565b600080612b9b6028601080602002604051908101604052809291906000905b82821015612b9257838260020201600280602002604051908101604052809291908260028015612b7e576020028201915b815481526020019060010190808311612b6a575b505050505081526020019060010190612b39565b505050506133d6565b6051819055506000600190505b6051548111612cb257600960288260108110612bc757612bc66142be565b5b60020201600060028110612bde57612bdd6142be565b5b01541115612bf657600a83612bf391906141f8565b92505b600a60288260108110612c0c57612c0b6142be565b5b60020201600060028110612c2357612c226142be565b5b01541015612c665760288160108110612c3f57612c3e6142be565b5b60020201600060028110612c5657612c556142be565b5b015483612c6391906141f8565b92505b600160288260108110612c7c57612c7b6142be565b5b60020201600060028110612c9357612c926142be565b5b015403612c9f57600191505b8080612caa906142ed565b915050612ba8565b50816058600160028110612cc957612cc86142be565b5b60020201600060028110612ce057612cdf6142be565b5b0181905550816058600160028110612cfb57612cfa6142be565b5b60020201600160028110612d1257612d116142be565b5b018190555060018103612d8b57600a6058600160028110612d3657612d356142be565b5b60020201600160028110612d4d57612d4c6142be565b5b0154612d5991906141f8565b6058600160028110612d6e57612d6d6142be565b5b60020201600160028110612d8557612d846142be565b5b01819055505b5050565b60156058600160028110612da657612da56142be565b5b60020201600060028110612dbd57612dbc6142be565b5b0154118015612df9575060156058600160028110612dde57612ddd6142be565b5b60020201600160028110612df557612df46142be565b5b0154115b15612f3c57600160538190555060006001819055506058600160028110612e2357612e226142be565b5b60020201600160028110612e3a57612e396142be565b5b01546058600160028110612e5157612e506142be565b5b60020201600060028110612e6857612e676142be565b5b015411612ea4576058600160028110612e8457612e836142be565b5b60020201600060028110612e9b57612e9a6142be565b5b0154605d819055505b6058600160028110612eb957612eb86142be565b5b60020201600160028110612ed057612ecf6142be565b5b01546058600160028110612ee757612ee66142be565b5b60020201600060028110612efe57612efd6142be565b5b01541115612f3b576058600160028110612f1b57612f1a6142be565b5b60020201600160028110612f3257612f316142be565b5b0154605d819055505b5b565b60156054600160028110612f5557612f546142be565b5b60020201600060028110612f6c57612f6b6142be565b5b0154118015612fa8575060156054600160028110612f8d57612f8c6142be565b5b60020201600160028110612fa457612fa36142be565b5b0154115b156130eb57600160528190555060006001819055506054600160028110612fd257612fd16142be565b5b60020201600160028110612fe957612fe86142be565b5b0154605460016002811061300057612fff6142be565b5b60020201600060028110613017576130166142be565b5b015411613053576054600160028110613033576130326142be565b5b6002020160006002811061304a576130496142be565b5b0154605c819055505b6054600160028110613068576130676142be565b5b6002020160016002811061307f5761307e6142be565b5b01546054600160028110613096576130956142be565b5b600202016000600281106130ad576130ac6142be565b5b015411156130ea5760546001600281106130ca576130c96142be565b5b600202016001600281106130e1576130e06142be565b5b0154605c819055505b5b60156054600160028110613102576131016142be565b5b60020201600060028110613119576131186142be565b5b01541115801561315657506015605460016002811061313b5761313a6142be565b5b60020201600160028110613152576131516142be565b5b0154115b156131905760546001600281106131705761316f6142be565b5b60020201600060028110613187576131866142be565b5b0154605c819055505b601560546001600281106131a7576131a66142be565b5b600202016000600281106131be576131bd6142be565b5b01541180156131fb5750601560546001600281106131df576131de6142be565b5b600202016001600281106131f6576131f56142be565b5b015411155b15613235576054600160028110613215576132146142be565b5b6002020160016002811061322c5761322b6142be565b5b0154605c819055505b6015605460016002811061324c5761324b6142be565b5b60020201600060028110613263576132626142be565b5b0154111580156132a1575060156054600160028110613285576132846142be565b5b6002020160016002811061329c5761329b6142be565b5b015411155b156133d45760546001600281106132bb576132ba6142be565b5b600202016001600281106132d2576132d16142be565b5b015460546001600281106132e9576132e86142be565b5b60020201600060028110613300576132ff6142be565b5b0154111561333d57605460016002811061331d5761331c6142be565b5b60020201600060028110613334576133336142be565b5b0154605c819055505b6054600160028110613352576133516142be565b5b60020201600160028110613369576133686142be565b5b015460546001600281106133805761337f6142be565b5b60020201600060028110613397576133966142be565b5b0154116133d35760546001600281106133b3576133b26142be565b5b600202016001600281106133ca576133c96142be565b5b0154605c819055505b5b565b6000806000905060005b60108210156134445760008483601081106133fe576133fd6142be565b5b6020020151600060028110613416576134156142be565b5b6020020151146134305760018161342d91906141f8565b90505b60018261343d91906141f8565b91506133e0565b8092505050919050565b600060636000815480929190613463906142ed565b91905055507f028f5c28f5c28f5c28f5c28f5c28f5c28f5c28f5c28f5c28f5c28f5c28f5c28f60036063546134989190614918565b436134a391906141f8565b336063546040516020016134b9939291906149f5565b6040516020818303038152906040528051906020012060001c6134dc9190614a61565b600581905550606360008154809291906134f5906142ed565b9190505550600554905090565b6060600060016135118461377d565b01905060008167ffffffffffffffff8111156135305761352f613af1565b5b6040519080825280601f01601f1916602001820160405280156135625781602001600182028036833780820191505090505b509050600082602001820190505b6001156135c5578080600190039150507f3031323334353637383961626364656600000000000000000000000000000000600a86061a8153600a85816135b9576135b8614a32565b5b04945060008503613570575b819350505050919050565b60606000600185856135e2919061400e565b6135ec91906141f8565b67ffffffffffffffff81111561360557613604613af1565b5b6040519080825280601f01601f1916602001820160405280156136375781602001600182028036833780820191505090505b50905060005b8585613649919061400e565b81116136d957836001878361365e91906141f8565b613668919061400e565b81518110613679576136786142be565b5b602001015160f81c60f81b828281518110613697576136966142be565b5b60200101907effffffffffffffffffffffffffffffffffffffffffffffffffffffffffffff1916908160001a90535080806136d1906142ed565b91505061363d565b50809150509392505050565b6000808290506000805b825181101561377257600083828151811061370d5761370c6142be565b5b602001015160f81c60f81b60f81c60ff16905060308110158015613732575060398111155b1561375e57603081613744919061400e565b600a846137519190614918565b61375b91906141f8565b92505b50808061376a906142ed565b9150506136ef565b508092505050919050565b600080600090507a184f03e93ff9f4daa797ed6e38ed64bf6a1f01000000000000000083106137db577a184f03e93ff9f4daa797ed6e38ed64bf6a1f01000000000000000083816137d1576137d0614a32565b5b0492506040810190505b6d04ee2d6d415b85acef81000000008310613818576d04ee2d6d415b85acef8100000000838161380e5761380d614a32565b5b0492506020810190505b662386f26fc10000831061384757662386f26fc10000838161383d5761383c614a32565b5b0492506010810190505b6305f5e1008310613870576305f5e100838161386657613865614a32565b5b0492506008810190505b612710831061389557612710838161388b5761388a614a32565b5b0492506004810190505b606483106138b857606483816138ae576138ad614a32565b5b0492506002810190505b600a83106138c7576001810190505b80915050919050565b8260046002028101928215613910579160200282015b8281111561390f578251829060026138ff92919061394e565b50916020019190600201906138e6565b5b50905061391d919061398e565b5090565b60405180608001604052806004905b6139386139b2565b8152602001906001900390816139305790505090565b826002810192821561397d579160200282015b8281111561397c578251825591602001919060010190613961565b5b50905061398a91906139d4565b5090565b5b808211156139ae57600081816139a591906139f1565b5060020161398f565b5090565b6040518060400160405280600290602082028036833780820191505090505090565b5b808211156139ed5760008160009055506001016139d5565b5090565b506000815560010160009055565b6000604051905090565b600080fd5b6000819050919050565b613a2181613a0e565b8114613a2c57600080fd5b50565b600081359050613a3e81613a18565b92915050565b600060208284031215613a5a57613a59613a09565b5b6000613a6884828501613a2f565b91505092915050565b613a7a81613a0e565b82525050565b6000602082019050613a956000830184613a71565b92915050565b60008060408385031215613ab257613ab1613a09565b5b6000613ac085828601613a2f565b9250506020613ad185828601613a2f565b9150509250929050565b600080fd5b6000601f19601f8301169050919050565b7f4e487b7100000000000000000000000000000000000000000000000000000000600052604160045260246000fd5b613b2982613ae0565b810181811067ffffffffffffffff82111715613b4857613b47613af1565b5b80604052505050565b6000613b5b6139ff565b9050613b678282613b20565b919050565b600067ffffffffffffffff821115613b8757613b86613af1565b5b602082029050919050565b600080fd5b600067ffffffffffffffff821115613bb257613bb1613af1565b5b602082029050919050565b6000613bd0613bcb84613b97565b613b51565b90508060208402830185811115613bea57613be9613b92565b5b835b81811015613c135780613bff8882613a2f565b845260208401935050602081019050613bec565b5050509392505050565b600082601f830112613c3257613c31613adb565b5b6002613c3f848285613bbd565b91505092915050565b6000613c5b613c5684613b6c565b613b51565b90508060408402830185811115613c7557613c74613b92565b5b835b81811015613c9e5780613c8a8882613c1d565b845260208401935050604081019050613c77565b5050509392505050565b600082601f830112613cbd57613cbc613adb565b5b6004613cca848285613c48565b91505092915050565b60006101008284031215613cea57613ce9613a09565b5b6000613cf884828501613ca8565b91505092915050565b600060049050919050565b600081905092915050565b6000819050919050565b600060029050919050565b600081905092915050565b6000819050919050565b613d4a81613a0e565b82525050565b6000613d5c8383613d41565b60208301905092915050565b6000602082019050919050565b613d7e81613d21565b613d888184613d2c565b9250613d9382613d37565b8060005b83811015613dc4578151613dab8782613d50565b9650613db683613d68565b925050600181019050613d97565b505050505050565b6000613dd88383613d75565b60408301905092915050565b6000602082019050919050565b613dfa81613d01565b613e048184613d0c565b9250613e0f82613d17565b8060005b83811015613e40578151613e278782613dcc565b9650613e3283613de4565b925050600181019050613e13565b505050505050565b600061010082019050613e5e6000830184613df1565b92915050565b600082825260208201905092915050565b7f42657420616d6f756e74206973206d6f7265207468616e2067616d652062616c60008201527f616e636500000000000000000000000000000000000000000000000000000000602082015250565b6000613ed1602483613e64565b9150613edc82613e75565b604082019050919050565b60006020820190508181036000830152613f0081613ec4565b9050919050565b7f4f6e6c7920706c617965722063616e20706c6163652062657400000000000000600082015250565b6000613f3d601983613e64565b9150613f4882613f07565b602082019050919050565b60006020820190508181036000830152613f6c81613f30565b9050919050565b7f5265656e7472616e6379206e6f7420616c6c6f77656400000000000000000000600082015250565b6000613fa9601683613e64565b9150613fb482613f73565b602082019050919050565b60006020820190508181036000830152613fd881613f9c565b9050919050565b7f4e487b7100000000000000000000000000000000000000000000000000000000600052601160045260246000fd5b600061401982613a0e565b915061402483613a0e565b925082820390508181111561403c5761403b613fdf565b5b92915050565b7f526567697374726174696f6e2061646472657373206973206e6f742076616c6960008201527f6400000000000000000000000000000000000000000000000000000000000000602082015250565b600061409e602183613e64565b91506140a982614042565b604082019050919050565b600060208201905081810360008301526140cd81614091565b9050919050565b7f506c61796572206d75737420626520686f757365283029206f7220706c61796560008201527f7228312900000000000000000000000000000000000000000000000000000000602082015250565b6000614130602483613e64565b915061413b826140d4565b604082019050919050565b6000602082019050818103600083015261415f81614123565b9050919050565b7f53656e6465722061646472657373206d75737420626520686f75736557616c6c60008201527f6574000000000000000000000000000000000000000000000000000000000000602082015250565b60006141c2602283613e64565b91506141cd82614166565b604082019050919050565b600060208201905081810360008301526141f1816141b5565b9050919050565b600061420382613a0e565b915061420e83613a0e565b925082820190508082111561422657614225613fdf565b5b92915050565b7f53656e6465722061646472657373206d75737420626520706c6179657257616c60008201527f6c65740000000000000000000000000000000000000000000000000000000000602082015250565b6000614288602383613e64565b91506142938261422c565b604082019050919050565b600060208201905081810360008301526142b78161427b565b9050919050565b7f4e487b7100000000000000000000000000000000000000000000000000000000600052603260045260246000fd5b60006142f882613a0e565b91507fffffffffffffffffffffffffffffffffffffffffffffffffffffffffffffffff820361432a57614329613fdf565b5b600182019050919050565b7f506c6179657220686173206e6f2062616c616e636520746f207769746864726160008201527f7700000000000000000000000000000000000000000000000000000000000000602082015250565b6000614391602183613e64565b915061439c82614335565b604082019050919050565b600060208201905081810360008301526143c081614384565b9050919050565b7f4f6e6c7920706c617965722063616e2075736520746869732066756e6374696f60008201527f6e20776974686472617700000000000000000000000000000000000000000000602082015250565b6000614423602a83613e64565b915061442e826143c7565b604082019050919050565b6000602082019050818103600083015261445281614416565b9050919050565b7f596f75206172652072657175657374696e67206d6f7265207468616e2074686560008201527f20706c617965722077616c6c657420636f6e7461696e73000000000000000000602082015250565b60006144b5603783613e64565b91506144c082614459565b604082019050919050565b600060208201905081810360008301526144e4816144a8565b9050919050565b7f506c617965722068617320616c72656164792073746f6f640000000000000000600082015250565b6000614521601883613e64565b915061452c826144eb565b602082019050919050565b6000602082019050818103600083015261455081614514565b9050919050565b7f47616d65206d75737420626520696e2070726f67726573730000000000000000600082015250565b600061458d601883613e64565b915061459882614557565b602082019050919050565b600060208201905081810360008301526145bc81614580565b9050919050565b7f596f7527766520616c7265616479206275737465640000000000000000000000600082015250565b60006145f9601583613e64565b9150614604826145c3565b602082019050919050565b60006020820190508181036000830152614628816145ec565b9050919050565b600081519050919050565b7f4e487b7100000000000000000000000000000000000000000000000000000000600052602260045260246000fd5b6000600282049050600182168061468157607f821691505b6020821081036146945761469361463a565b5b50919050565b60008190508160005260206000209050919050565b60006020601f8301049050919050565b600082821b905092915050565b6000600883026146fc7fffffffffffffffffffffffffffffffffffffffffffffffffffffffffffffffff826146bf565b61470686836146bf565b95508019841693508086168417925050509392505050565b6000819050919050565b600061474361473e61473984613a0e565b61471e565b613a0e565b9050919050565b6000819050919050565b61475d83614728565b6147716147698261474a565b8484546146cc565b825550505050565b600090565b614786614779565b614791818484614754565b505050565b5b818110156147b5576147aa60008261477e565b600181019050614797565b5050565b601f8211156147fa576147cb8161469a565b6147d4846146af565b810160208510156147e3578190505b6147f76147ef856146af565b830182614796565b50505b505050565b600082821c905092915050565b600061481d600019846008026147ff565b1980831691505092915050565b6000614836838361480c565b9150826002028217905092915050565b61484f8261462f565b67ffffffffffffffff81111561486857614867613af1565b5b6148728254614669565b61487d8282856147b9565b600060209050601f8311600181146148b0576000841561489e578287015190505b6148a8858261482a565b865550614910565b601f1984166148be8661469a565b60005b828110156148e6578489015182556001820191506020850194506020810190506148c1565b8683101561490357848901516148ff601f89168261480c565b8355505b6001600288020188555050505b505050505050565b600061492382613a0e565b915061492e83613a0e565b925082820261493c81613a0e565b9150828204841483151761495357614952613fdf565b5b5092915050565b6000819050919050565b61497561497082613a0e565b61495a565b82525050565b600073ffffffffffffffffffffffffffffffffffffffff82169050919050565b60006149a68261497b565b9050919050565b60008160601b9050919050565b60006149c5826149ad565b9050919050565b60006149d7826149ba565b9050919050565b6149ef6149ea8261499b565b6149cc565b82525050565b6000614a018286614964565b602082019150614a1182856149de565b601482019150614a218284614964565b602082019150819050949350505050565b7f4e487b7100000000000000000000000000000000000000000000000000000000600052601260045260246000fd5b6000614a6c82613a0e565b9150614a7783613a0e565b925082614a8757614a86614a32565b5b82820690509291505056fea2646970667358221220275b2980d871ebe7272f75cc087ac6bf5c5b0c1ea825759d3865e71639d58e8564736f6c63430008110033",
			"opcodes": "PUSH1 0x80 PUSH1 0x40 MSTORE PUSH1 0x0 PUSH1 0x1 SSTORE PUSH1 0x0 PUSH1 0x2 SSTORE PUSH1 0x0 PUSH1 0x3 SSTORE PUSH1 0x0 PUSH1 0x4 SSTORE PUSH1 0x0 PUSH1 0x5 SSTORE PUSH1 0x0 PUSH1 0x6 SSTORE PUSH1 0x0 PUSH1 0x7 SSTORE PUSH1 0x0 PUSH1 0x50 SSTORE PUSH1 0x0 PUSH1 0x51 SSTORE PUSH1 0x0 PUSH1 0x52 SSTORE PUSH1 0x0 PUSH1 0x53 SSTORE PUSH1 0x0 PUSH1 0x5C SSTORE PUSH1 0x0 PUSH1 0x5D SSTORE PUSH1 0x0 PUSH1 0x5E SSTORE PUSH1 0x0 PUSH1 0x5F SSTORE PUSH1 0x40 MLOAD DUP1 PUSH1 0x20 ADD PUSH1 0x40 MSTORE DUP1 PUSH1 0x0 DUP2 MSTORE POP PUSH1 0x60 SWAP1 DUP2 PUSH3 0x6F SWAP2 SWAP1 PUSH3 0x3A8 JUMP JUMPDEST POP PUSH1 0x40 MLOAD DUP1 PUSH1 0x20 ADD PUSH1 0x40 MSTORE DUP1 PUSH1 0x0 DUP2 MSTORE POP PUSH1 0x61 SWAP1 DUP2 PUSH3 0x90 SWAP2 SWAP1 PUSH3 0x3A8 JUMP JUMPDEST POP PUSH1 0x0 PUSH1 0x63 SSTORE PUSH1 0x0 PUSH1 0x64 PUSH1 0x0 PUSH2 0x100 EXP DUP2 SLOAD DUP2 PUSH20 0xFFFFFFFFFFFFFFFFFFFFFFFFFFFFFFFFFFFFFFFF MUL NOT AND SWAP1 DUP4 PUSH20 0xFFFFFFFFFFFFFFFFFFFFFFFFFFFFFFFFFFFFFFFF AND MUL OR SWAP1 SSTORE POP PUSH1 0x0 PUSH1 0x65 PUSH1 0x0 PUSH2 0x100 EXP DUP2 SLOAD DUP2 PUSH20 0xFFFFFFFFFFFFFFFFFFFFFFFFFFFFFFFFFFFFFFFF MUL NOT AND SWAP1 DUP4 PUSH20 0xFFFFFFFFFFFFFFFFFFFFFFFFFFFFFFFFFFFFFFFF AND MUL OR SWAP1 SSTORE POP CALLVALUE DUP1 ISZERO PUSH3 0x127 JUMPI PUSH1 0x0 DUP1 REVERT JUMPDEST POP PUSH3 0x48F JUMP JUMPDEST PUSH1 0x0 DUP2 MLOAD SWAP1 POP SWAP2 SWAP1 POP JUMP JUMPDEST PUSH32 0x4E487B7100000000000000000000000000000000000000000000000000000000 PUSH1 0x0 MSTORE PUSH1 0x41 PUSH1 0x4 MSTORE PUSH1 0x24 PUSH1 0x0 REVERT JUMPDEST PUSH32 0x4E487B7100000000000000000000000000000000000000000000000000000000 PUSH1 0x0 MSTORE PUSH1 0x22 PUSH1 0x4 MSTORE PUSH1 0x24 PUSH1 0x0 REVERT JUMPDEST PUSH1 0x0 PUSH1 0x2 DUP3 DIV SWAP1 POP PUSH1 0x1 DUP3 AND DUP1 PUSH3 0x1B0 JUMPI PUSH1 0x7F DUP3 AND SWAP2 POP JUMPDEST PUSH1 0x20 DUP3 LT DUP2 SUB PUSH3 0x1C6 JUMPI PUSH3 0x1C5 PUSH3 0x168 JUMP JUMPDEST JUMPDEST POP SWAP2 SWAP1 POP JUMP JUMPDEST PUSH1 0x0 DUP2 SWAP1 POP DUP2 PUSH1 0x0 MSTORE PUSH1 0x20 PUSH1 0x0 KECCAK256 SWAP1 POP SWAP2 SWAP1 POP JUMP JUMPDEST PUSH1 0x0 PUSH1 0x20 PUSH1 0x1F DUP4 ADD DIV SWAP1 POP SWAP2 SWAP1 POP JUMP JUMPDEST PUSH1 0x0 DUP3 DUP3 SHL SWAP1 POP SWAP3 SWAP2 POP POP JUMP JUMPDEST PUSH1 0x0 PUSH1 0x8 DUP4 MUL PUSH3 0x230 PUSH32 0xFFFFFFFFFFFFFFFFFFFFFFFFFFFFFFFFFFFFFFFFFFFFFFFFFFFFFFFFFFFFFFFF DUP3 PUSH3 0x1F1 JUMP JUMPDEST PUSH3 0x23C DUP7 DUP4 PUSH3 0x1F1 JUMP JUMPDEST SWAP6 POP DUP1 NOT DUP5 AND SWAP4 POP DUP1 DUP7 AND DUP5 OR SWAP3 POP POP POP SWAP4 SWAP3 POP POP POP JUMP JUMPDEST PUSH1 0x0 DUP2 SWAP1 POP SWAP2 SWAP1 POP JUMP JUMPDEST PUSH1 0x0 DUP2 SWAP1 POP SWAP2 SWAP1 POP JUMP JUMPDEST PUSH1 0x0 PUSH3 0x289 PUSH3 0x283 PUSH3 0x27D DUP5 PUSH3 0x254 JUMP JUMPDEST PUSH3 0x25E JUMP JUMPDEST PUSH3 0x254 JUMP JUMPDEST SWAP1 POP SWAP2 SWAP1 POP JUMP JUMPDEST PUSH1 0x0 DUP2 SWAP1 POP SWAP2 SWAP1 POP JUMP JUMPDEST PUSH3 0x2A5 DUP4 PUSH3 0x268 JUMP JUMPDEST PUSH3 0x2BD PUSH3 0x2B4 DUP3 PUSH3 0x290 JUMP JUMPDEST DUP5 DUP5 SLOAD PUSH3 0x1FE JUMP JUMPDEST DUP3 SSTORE POP POP POP POP JUMP JUMPDEST PUSH1 0x0 SWAP1 JUMP JUMPDEST PUSH3 0x2D4 PUSH3 0x2C5 JUMP JUMPDEST PUSH3 0x2E1 DUP2 DUP5 DUP5 PUSH3 0x29A JUMP JUMPDEST POP POP POP JUMP JUMPDEST JUMPDEST DUP2 DUP2 LT ISZERO PUSH3 0x309 JUMPI PUSH3 0x2FD PUSH1 0x0 DUP3 PUSH3 0x2CA JUMP JUMPDEST PUSH1 0x1 DUP2 ADD SWAP1 POP PUSH3 0x2E7 JUMP JUMPDEST POP POP JUMP JUMPDEST PUSH1 0x1F DUP3 GT ISZERO PUSH3 0x358 JUMPI PUSH3 0x322 DUP2 PUSH3 0x1CC JUMP JUMPDEST PUSH3 0x32D DUP5 PUSH3 0x1E1 JUMP JUMPDEST DUP2 ADD PUSH1 0x20 DUP6 LT ISZERO PUSH3 0x33D JUMPI DUP2 SWAP1 POP JUMPDEST PUSH3 0x355 PUSH3 0x34C DUP6 PUSH3 0x1E1 JUMP JUMPDEST DUP4 ADD DUP3 PUSH3 0x2E6 JUMP JUMPDEST POP POP JUMPDEST POP POP POP JUMP JUMPDEST PUSH1 0x0 DUP3 DUP3 SHR SWAP1 POP SWAP3 SWAP2 POP POP JUMP JUMPDEST PUSH1 0x0 PUSH3 0x37D PUSH1 0x0 NOT DUP5 PUSH1 0x8 MUL PUSH3 0x35D JUMP JUMPDEST NOT DUP1 DUP4 AND SWAP2 POP POP SWAP3 SWAP2 POP POP JUMP JUMPDEST PUSH1 0x0 PUSH3 0x398 DUP4 DUP4 PUSH3 0x36A JUMP JUMPDEST SWAP2 POP DUP3 PUSH1 0x2 MUL DUP3 OR SWAP1 POP SWAP3 SWAP2 POP POP JUMP JUMPDEST PUSH3 0x3B3 DUP3 PUSH3 0x12E JUMP JUMPDEST PUSH8 0xFFFFFFFFFFFFFFFF DUP2 GT ISZERO PUSH3 0x3CF JUMPI PUSH3 0x3CE PUSH3 0x139 JUMP JUMPDEST JUMPDEST PUSH3 0x3DB DUP3 SLOAD PUSH3 0x197 JUMP JUMPDEST PUSH3 0x3E8 DUP3 DUP3 DUP6 PUSH3 0x30D JUMP JUMPDEST PUSH1 0x0 PUSH1 0x20 SWAP1 POP PUSH1 0x1F DUP4 GT PUSH1 0x1 DUP2 EQ PUSH3 0x420 JUMPI PUSH1 0x0 DUP5 ISZERO PUSH3 0x40B JUMPI DUP3 DUP8 ADD MLOAD SWAP1 POP JUMPDEST PUSH3 0x417 DUP6 DUP3 PUSH3 0x38A JUMP JUMPDEST DUP7 SSTORE POP PUSH3 0x487 JUMP JUMPDEST PUSH1 0x1F NOT DUP5 AND PUSH3 0x430 DUP7 PUSH3 0x1CC JUMP JUMPDEST PUSH1 0x0 JUMPDEST DUP3 DUP2 LT ISZERO PUSH3 0x45A JUMPI DUP5 DUP10 ADD MLOAD DUP3 SSTORE PUSH1 0x1 DUP3 ADD SWAP2 POP PUSH1 0x20 DUP6 ADD SWAP5 POP PUSH1 0x20 DUP2 ADD SWAP1 POP PUSH3 0x433 JUMP JUMPDEST DUP7 DUP4 LT ISZERO PUSH3 0x47A JUMPI DUP5 DUP10 ADD MLOAD PUSH3 0x476 PUSH1 0x1F DUP10 AND DUP3 PUSH3 0x36A JUMP JUMPDEST DUP4 SSTORE POP JUMPDEST PUSH1 0x1 PUSH1 0x2 DUP9 MUL ADD DUP9 SSTORE POP POP POP JUMPDEST POP POP POP POP POP POP JUMP JUMPDEST PUSH2 0x4AC8 DUP1 PUSH3 0x49F PUSH1 0x0 CODECOPY PUSH1 0x0 RETURN INVALID PUSH1 0x80 PUSH1 0x40 MSTORE PUSH1 0x4 CALLDATASIZE LT PUSH2 0x19C JUMPI PUSH1 0x0 CALLDATALOAD PUSH1 0xE0 SHR DUP1 PUSH4 0x67084EB3 GT PUSH2 0xEC JUMPI DUP1 PUSH4 0xC2855A59 GT PUSH2 0x8A JUMPI DUP1 PUSH4 0xCDC7EA51 GT PUSH2 0x64 JUMPI DUP1 PUSH4 0xCDC7EA51 EQ PUSH2 0x581 JUMPI DUP1 PUSH4 0xD0017A0C EQ PUSH2 0x5AC JUMPI DUP1 PUSH4 0xD24257C0 EQ PUSH2 0x5D7 JUMPI DUP1 PUSH4 0xDAE10ED5 EQ PUSH2 0x602 JUMPI PUSH2 0x19C JUMP JUMPDEST DUP1 PUSH4 0xC2855A59 EQ PUSH2 0x528 JUMPI DUP1 PUSH4 0xC5C3CD78 EQ PUSH2 0x53F JUMPI DUP1 PUSH4 0xC9F09D38 EQ PUSH2 0x56A JUMPI PUSH2 0x19C JUMP JUMPDEST DUP1 PUSH4 0x8BBB236F GT PUSH2 0xC6 JUMPI DUP1 PUSH4 0x8BBB236F EQ PUSH2 0x458 JUMPI DUP1 PUSH4 0x908A0979 EQ PUSH2 0x495 JUMPI DUP1 PUSH4 0xA10926D6 EQ PUSH2 0x4C0 JUMPI DUP1 PUSH4 0xBDBE451B EQ PUSH2 0x4EB JUMPI PUSH2 0x19C JUMP JUMPDEST DUP1 PUSH4 0x67084EB3 EQ PUSH2 0x3C5 JUMPI DUP1 PUSH4 0x7B0D3625 EQ PUSH2 0x3F0 JUMPI DUP1 PUSH4 0x8914D63B EQ PUSH2 0x42D JUMPI PUSH2 0x19C JUMP JUMPDEST DUP1 PUSH4 0x3519A2F8 GT PUSH2 0x159 JUMPI DUP1 PUSH4 0x53A218C9 GT PUSH2 0x133 JUMPI DUP1 PUSH4 0x53A218C9 EQ PUSH2 0x32A JUMPI DUP1 PUSH4 0x553DF021 EQ PUSH2 0x367 JUMPI DUP1 PUSH4 0x5629365B EQ PUSH2 0x37E JUMPI DUP1 PUSH4 0x651F066A EQ PUSH2 0x39A JUMPI PUSH2 0x19C JUMP JUMPDEST DUP1 PUSH4 0x3519A2F8 EQ PUSH2 0x2B8 JUMPI DUP1 PUSH4 0x3C3248D5 EQ PUSH2 0x2D4 JUMPI DUP1 PUSH4 0x3FB64E75 EQ PUSH2 0x2FF JUMPI PUSH2 0x19C JUMP JUMPDEST DUP1 PUSH4 0x10FE7C48 EQ PUSH2 0x1A1 JUMPI DUP1 PUSH4 0x13BF01ED EQ PUSH2 0x1BD JUMPI DUP1 PUSH4 0x16DD37DD EQ PUSH2 0x1E8 JUMPI DUP1 PUSH4 0x2626AB08 EQ PUSH2 0x225 JUMPI DUP1 PUSH4 0x2FCB6992 EQ PUSH2 0x250 JUMPI DUP1 PUSH4 0x325EB3F5 EQ PUSH2 0x28D JUMPI JUMPDEST PUSH1 0x0 DUP1 REVERT JUMPDEST PUSH2 0x1BB PUSH1 0x4 DUP1 CALLDATASIZE SUB DUP2 ADD SWAP1 PUSH2 0x1B6 SWAP2 SWAP1 PUSH2 0x3A44 JUMP JUMPDEST PUSH2 0x619 JUMP JUMPDEST STOP JUMPDEST CALLVALUE DUP1 ISZERO PUSH2 0x1C9 JUMPI PUSH1 0x0 DUP1 REVERT JUMPDEST POP PUSH2 0x1D2 PUSH2 0x7B6 JUMP JUMPDEST PUSH1 0x40 MLOAD PUSH2 0x1DF SWAP2 SWAP1 PUSH2 0x3A80 JUMP JUMPDEST PUSH1 0x40 MLOAD DUP1 SWAP2 SUB SWAP1 RETURN JUMPDEST CALLVALUE DUP1 ISZERO PUSH2 0x1F4 JUMPI PUSH1 0x0 DUP1 REVERT JUMPDEST POP PUSH2 0x20F PUSH1 0x4 DUP1 CALLDATASIZE SUB DUP2 ADD SWAP1 PUSH2 0x20A SWAP2 SWAP1 PUSH2 0x3A9B JUMP JUMPDEST PUSH2 0x7BC JUMP JUMPDEST PUSH1 0x40 MLOAD PUSH2 0x21C SWAP2 SWAP1 PUSH2 0x3A80 JUMP JUMPDEST PUSH1 0x40 MLOAD DUP1 SWAP2 SUB SWAP1 RETURN JUMPDEST CALLVALUE DUP1 ISZERO PUSH2 0x231 JUMPI PUSH1 0x0 DUP1 REVERT JUMPDEST POP PUSH2 0x23A PUSH2 0x7EA JUMP JUMPDEST PUSH1 0x40 MLOAD PUSH2 0x247 SWAP2 SWAP1 PUSH2 0x3A80 JUMP JUMPDEST PUSH1 0x40 MLOAD DUP1 SWAP2 SUB SWAP1 RETURN JUMPDEST CALLVALUE DUP1 ISZERO PUSH2 0x25C JUMPI PUSH1 0x0 DUP1 REVERT JUMPDEST POP PUSH2 0x277 PUSH1 0x4 DUP1 CALLDATASIZE SUB DUP2 ADD SWAP1 PUSH2 0x272 SWAP2 SWAP1 PUSH2 0x3A9B JUMP JUMPDEST PUSH2 0x7EF JUMP JUMPDEST PUSH1 0x40 MLOAD PUSH2 0x284 SWAP2 SWAP1 PUSH2 0x3A80 JUMP JUMPDEST PUSH1 0x40 MLOAD DUP1 SWAP2 SUB SWAP1 RETURN JUMPDEST CALLVALUE DUP1 ISZERO PUSH2 0x299 JUMPI PUSH1 0x0 DUP1 REVERT JUMPDEST POP PUSH2 0x2A2 PUSH2 0x81D JUMP JUMPDEST PUSH1 0x40 MLOAD PUSH2 0x2AF SWAP2 SWAP1 PUSH2 0x3A80 JUMP JUMPDEST PUSH1 0x40 MLOAD DUP1 SWAP2 SUB SWAP1 RETURN JUMPDEST PUSH2 0x2D2 PUSH1 0x4 DUP1 CALLDATASIZE SUB DUP2 ADD SWAP1 PUSH2 0x2CD SWAP2 SWAP1 PUSH2 0x3A44 JUMP JUMPDEST PUSH2 0x823 JUMP JUMPDEST STOP JUMPDEST CALLVALUE DUP1 ISZERO PUSH2 0x2E0 JUMPI PUSH1 0x0 DUP1 REVERT JUMPDEST POP PUSH2 0x2E9 PUSH2 0xD52 JUMP JUMPDEST PUSH1 0x40 MLOAD PUSH2 0x2F6 SWAP2 SWAP1 PUSH2 0x3A80 JUMP JUMPDEST PUSH1 0x40 MLOAD DUP1 SWAP2 SUB SWAP1 RETURN JUMPDEST CALLVALUE DUP1 ISZERO PUSH2 0x30B JUMPI PUSH1 0x0 DUP1 REVERT JUMPDEST POP PUSH2 0x314 PUSH2 0xD58 JUMP JUMPDEST PUSH1 0x40 MLOAD PUSH2 0x321 SWAP2 SWAP1 PUSH2 0x3A80 JUMP JUMPDEST PUSH1 0x40 MLOAD DUP1 SWAP2 SUB SWAP1 RETURN JUMPDEST CALLVALUE DUP1 ISZERO PUSH2 0x336 JUMPI PUSH1 0x0 DUP1 REVERT JUMPDEST POP PUSH2 0x351 PUSH1 0x4 DUP1 CALLDATASIZE SUB DUP2 ADD SWAP1 PUSH2 0x34C SWAP2 SWAP1 PUSH2 0x3A9B JUMP JUMPDEST PUSH2 0xD5E JUMP JUMPDEST PUSH1 0x40 MLOAD PUSH2 0x35E SWAP2 SWAP1 PUSH2 0x3A80 JUMP JUMPDEST PUSH1 0x40 MLOAD DUP1 SWAP2 SUB SWAP1 RETURN JUMPDEST CALLVALUE DUP1 ISZERO PUSH2 0x373 JUMPI PUSH1 0x0 DUP1 REVERT JUMPDEST POP PUSH2 0x37C PUSH2 0xD8C JUMP JUMPDEST STOP JUMPDEST PUSH2 0x398 PUSH1 0x4 DUP1 CALLDATASIZE SUB DUP2 ADD SWAP1 PUSH2 0x393 SWAP2 SWAP1 PUSH2 0x3A44 JUMP JUMPDEST PUSH2 0x11F2 JUMP JUMPDEST STOP JUMPDEST CALLVALUE DUP1 ISZERO PUSH2 0x3A6 JUMPI PUSH1 0x0 DUP1 REVERT JUMPDEST POP PUSH2 0x3AF PUSH2 0x1410 JUMP JUMPDEST PUSH1 0x40 MLOAD PUSH2 0x3BC SWAP2 SWAP1 PUSH2 0x3A80 JUMP JUMPDEST PUSH1 0x40 MLOAD DUP1 SWAP2 SUB SWAP1 RETURN JUMPDEST CALLVALUE DUP1 ISZERO PUSH2 0x3D1 JUMPI PUSH1 0x0 DUP1 REVERT JUMPDEST POP PUSH2 0x3DA PUSH2 0x1416 JUMP JUMPDEST PUSH1 0x40 MLOAD PUSH2 0x3E7 SWAP2 SWAP1 PUSH2 0x3A80 JUMP JUMPDEST PUSH1 0x40 MLOAD DUP1 SWAP2 SUB SWAP1 RETURN JUMPDEST CALLVALUE DUP1 ISZERO PUSH2 0x3FC JUMPI PUSH1 0x0 DUP1 REVERT JUMPDEST POP PUSH2 0x417 PUSH1 0x4 DUP1 CALLDATASIZE SUB DUP2 ADD SWAP1 PUSH2 0x412 SWAP2 SWAP1 PUSH2 0x3CD3 JUMP JUMPDEST PUSH2 0x141C JUMP JUMPDEST PUSH1 0x40 MLOAD PUSH2 0x424 SWAP2 SWAP1 PUSH2 0x3E48 JUMP JUMPDEST PUSH1 0x40 MLOAD DUP1 SWAP2 SUB SWAP1 RETURN JUMPDEST CALLVALUE DUP1 ISZERO PUSH2 0x439 JUMPI PUSH1 0x0 DUP1 REVERT JUMPDEST POP PUSH2 0x442 PUSH2 0x177E JUMP JUMPDEST PUSH1 0x40 MLOAD PUSH2 0x44F SWAP2 SWAP1 PUSH2 0x3A80 JUMP JUMPDEST PUSH1 0x40 MLOAD DUP1 SWAP2 SUB SWAP1 RETURN JUMPDEST CALLVALUE DUP1 ISZERO PUSH2 0x464 JUMPI PUSH1 0x0 DUP1 REVERT JUMPDEST POP PUSH2 0x47F PUSH1 0x4 DUP1 CALLDATASIZE SUB DUP2 ADD SWAP1 PUSH2 0x47A SWAP2 SWAP1 PUSH2 0x3A9B JUMP JUMPDEST PUSH2 0x1784 JUMP JUMPDEST PUSH1 0x40 MLOAD PUSH2 0x48C SWAP2 SWAP1 PUSH2 0x3A80 JUMP JUMPDEST PUSH1 0x40 MLOAD DUP1 SWAP2 SUB SWAP1 RETURN JUMPDEST CALLVALUE DUP1 ISZERO PUSH2 0x4A1 JUMPI PUSH1 0x0 DUP1 REVERT JUMPDEST POP PUSH2 0x4AA PUSH2 0x17B2 JUMP JUMPDEST PUSH1 0x40 MLOAD PUSH2 0x4B7 SWAP2 SWAP1 PUSH2 0x3A80 JUMP JUMPDEST PUSH1 0x40 MLOAD DUP1 SWAP2 SUB SWAP1 RETURN JUMPDEST CALLVALUE DUP1 ISZERO PUSH2 0x4CC JUMPI PUSH1 0x0 DUP1 REVERT JUMPDEST POP PUSH2 0x4D5 PUSH2 0x17B8 JUMP JUMPDEST PUSH1 0x40 MLOAD PUSH2 0x4E2 SWAP2 SWAP1 PUSH2 0x3A80 JUMP JUMPDEST PUSH1 0x40 MLOAD DUP1 SWAP2 SUB SWAP1 RETURN JUMPDEST CALLVALUE DUP1 ISZERO PUSH2 0x4F7 JUMPI PUSH1 0x0 DUP1 REVERT JUMPDEST POP PUSH2 0x512 PUSH1 0x4 DUP1 CALLDATASIZE SUB DUP2 ADD SWAP1 PUSH2 0x50D SWAP2 SWAP1 PUSH2 0x3A9B JUMP JUMPDEST PUSH2 0x17BE JUMP JUMPDEST PUSH1 0x40 MLOAD PUSH2 0x51F SWAP2 SWAP1 PUSH2 0x3A80 JUMP JUMPDEST PUSH1 0x40 MLOAD DUP1 SWAP2 SUB SWAP1 RETURN JUMPDEST CALLVALUE DUP1 ISZERO PUSH2 0x534 JUMPI PUSH1 0x0 DUP1 REVERT JUMPDEST POP PUSH2 0x53D PUSH2 0x17EC JUMP JUMPDEST STOP JUMPDEST CALLVALUE DUP1 ISZERO PUSH2 0x54B JUMPI PUSH1 0x0 DUP1 REVERT JUMPDEST POP PUSH2 0x554 PUSH2 0x1AB4 JUMP JUMPDEST PUSH1 0x40 MLOAD PUSH2 0x561 SWAP2 SWAP1 PUSH2 0x3A80 JUMP JUMPDEST PUSH1 0x40 MLOAD DUP1 SWAP2 SUB SWAP1 RETURN JUMPDEST CALLVALUE DUP1 ISZERO PUSH2 0x576 JUMPI PUSH1 0x0 DUP1 REVERT JUMPDEST POP PUSH2 0x57F PUSH2 0x1ABA JUMP JUMPDEST STOP JUMPDEST CALLVALUE DUP1 ISZERO PUSH2 0x58D JUMPI PUSH1 0x0 DUP1 REVERT JUMPDEST POP PUSH2 0x596 PUSH2 0x1B11 JUMP JUMPDEST PUSH1 0x40 MLOAD PUSH2 0x5A3 SWAP2 SWAP1 PUSH2 0x3A80 JUMP JUMPDEST PUSH1 0x40 MLOAD DUP1 SWAP2 SUB SWAP1 RETURN JUMPDEST CALLVALUE DUP1 ISZERO PUSH2 0x5B8 JUMPI PUSH1 0x0 DUP1 REVERT JUMPDEST POP PUSH2 0x5C1 PUSH2 0x1B17 JUMP JUMPDEST PUSH1 0x40 MLOAD PUSH2 0x5CE SWAP2 SWAP1 PUSH2 0x3A80 JUMP JUMPDEST PUSH1 0x40 MLOAD DUP1 SWAP2 SUB SWAP1 RETURN JUMPDEST CALLVALUE DUP1 ISZERO PUSH2 0x5E3 JUMPI PUSH1 0x0 DUP1 REVERT JUMPDEST POP PUSH2 0x5EC PUSH2 0x1B23 JUMP JUMPDEST PUSH1 0x40 MLOAD PUSH2 0x5F9 SWAP2 SWAP1 PUSH2 0x3A80 JUMP JUMPDEST PUSH1 0x40 MLOAD DUP1 SWAP2 SUB SWAP1 RETURN JUMPDEST CALLVALUE DUP1 ISZERO PUSH2 0x60E JUMPI PUSH1 0x0 DUP1 REVERT JUMPDEST POP PUSH2 0x617 PUSH2 0x1B29 JUMP JUMPDEST STOP JUMPDEST PUSH1 0x4 SLOAD PUSH1 0x1 CALLVALUE LT ISZERO DUP1 ISZERO PUSH2 0x635 JUMPI POP PUSH8 0x8AC7230489E80000 CALLVALUE GT ISZERO JUMPDEST PUSH2 0x63E JUMPI PUSH1 0x0 DUP1 REVERT JUMPDEST PUSH1 0x3 SLOAD PUSH1 0x4 SLOAD GT ISZERO PUSH2 0x685 JUMPI PUSH1 0x40 MLOAD PUSH32 0x8C379A000000000000000000000000000000000000000000000000000000000 DUP2 MSTORE PUSH1 0x4 ADD PUSH2 0x67C SWAP1 PUSH2 0x3EE7 JUMP JUMPDEST PUSH1 0x40 MLOAD DUP1 SWAP2 SUB SWAP1 REVERT JUMPDEST PUSH1 0x64 PUSH1 0x0 SWAP1 SLOAD SWAP1 PUSH2 0x100 EXP SWAP1 DIV PUSH20 0xFFFFFFFFFFFFFFFFFFFFFFFFFFFFFFFFFFFFFFFF AND PUSH20 0xFFFFFFFFFFFFFFFFFFFFFFFFFFFFFFFFFFFFFFFF AND CALLER PUSH20 0xFFFFFFFFFFFFFFFFFFFFFFFFFFFFFFFFFFFFFFFF AND EQ PUSH2 0x715 JUMPI PUSH1 0x40 MLOAD PUSH32 0x8C379A000000000000000000000000000000000000000000000000000000000 DUP2 MSTORE PUSH1 0x4 ADD PUSH2 0x70C SWAP1 PUSH2 0x3F53 JUMP JUMPDEST PUSH1 0x40 MLOAD DUP1 SWAP2 SUB SWAP1 REVERT JUMPDEST PUSH1 0x0 DUP1 SLOAD SWAP1 PUSH2 0x100 EXP SWAP1 DIV PUSH1 0xFF AND ISZERO PUSH2 0x763 JUMPI PUSH1 0x40 MLOAD PUSH32 0x8C379A000000000000000000000000000000000000000000000000000000000 DUP2 MSTORE PUSH1 0x4 ADD PUSH2 0x75A SWAP1 PUSH2 0x3FBF JUMP JUMPDEST PUSH1 0x40 MLOAD DUP1 SWAP2 SUB SWAP1 REVERT JUMPDEST PUSH1 0x1 PUSH1 0x0 DUP1 PUSH2 0x100 EXP DUP2 SLOAD DUP2 PUSH1 0xFF MUL NOT AND SWAP1 DUP4 ISZERO ISZERO MUL OR SWAP1 SSTORE POP DUP2 PUSH1 0x3 SLOAD PUSH2 0x78B SWAP2 SWAP1 PUSH2 0x400E JUMP JUMPDEST PUSH1 0x3 DUP2 SWAP1 SSTORE POP DUP2 PUSH1 0x4 DUP2 SWAP1 SSTORE POP PUSH1 0x0 DUP1 PUSH1 0x0 PUSH2 0x100 EXP DUP2 SLOAD DUP2 PUSH1 0xFF MUL NOT AND SWAP1 DUP4 ISZERO ISZERO MUL OR SWAP1 SSTORE POP POP POP JUMP JUMPDEST PUSH1 0x5D SLOAD DUP2 JUMP JUMPDEST PUSH1 0x54 DUP3 PUSH1 0x2 DUP2 LT PUSH2 0x7CC JUMPI PUSH1 0x0 DUP1 REVERT JUMPDEST PUSH1 0x2 MUL ADD DUP2 PUSH1 0x2 DUP2 LT PUSH2 0x7DE JUMPI PUSH1 0x0 DUP1 REVERT JUMPDEST ADD PUSH1 0x0 SWAP2 POP SWAP2 POP POP SLOAD DUP2 JUMP JUMPDEST PUSH1 0x1 DUP2 JUMP JUMPDEST PUSH1 0x48 DUP3 PUSH1 0x4 DUP2 LT PUSH2 0x7FF JUMPI PUSH1 0x0 DUP1 REVERT JUMPDEST PUSH1 0x2 MUL ADD DUP2 PUSH1 0x2 DUP2 LT PUSH2 0x811 JUMPI PUSH1 0x0 DUP1 REVERT JUMPDEST ADD PUSH1 0x0 SWAP2 POP SWAP2 POP POP SLOAD DUP2 JUMP JUMPDEST PUSH1 0x52 SLOAD DUP2 JUMP JUMPDEST DUP1 PUSH1 0x0 PUSH20 0xFFFFFFFFFFFFFFFFFFFFFFFFFFFFFFFFFFFFFFFF AND PUSH1 0x65 PUSH1 0x0 SWAP1 SLOAD SWAP1 PUSH2 0x100 EXP SWAP1 DIV PUSH20 0xFFFFFFFFFFFFFFFFFFFFFFFFFFFFFFFFFFFFFFFF AND PUSH20 0xFFFFFFFFFFFFFFFFFFFFFFFFFFFFFFFFFFFFFFFF AND EQ DUP1 PUSH2 0x8CF JUMPI POP PUSH1 0x0 PUSH20 0xFFFFFFFFFFFFFFFFFFFFFFFFFFFFFFFFFFFFFFFF AND PUSH1 0x64 PUSH1 0x0 SWAP1 SLOAD SWAP1 PUSH2 0x100 EXP SWAP1 DIV PUSH20 0xFFFFFFFFFFFFFFFFFFFFFFFFFFFFFFFFFFFFFFFF AND PUSH20 0xFFFFFFFFFFFFFFFFFFFFFFFFFFFFFFFFFFFFFFFF AND EQ JUMPDEST DUP1 PUSH2 0x927 JUMPI POP PUSH1 0x65 PUSH1 0x0 SWAP1 SLOAD SWAP1 PUSH2 0x100 EXP SWAP1 DIV PUSH20 0xFFFFFFFFFFFFFFFFFFFFFFFFFFFFFFFFFFFFFFFF AND PUSH20 0xFFFFFFFFFFFFFFFFFFFFFFFFFFFFFFFFFFFFFFFF AND CALLER PUSH20 0xFFFFFFFFFFFFFFFFFFFFFFFFFFFFFFFFFFFFFFFF AND EQ JUMPDEST DUP1 PUSH2 0x97F JUMPI POP PUSH1 0x64 PUSH1 0x0 SWAP1 SLOAD SWAP1 PUSH2 0x100 EXP SWAP1 DIV PUSH20 0xFFFFFFFFFFFFFFFFFFFFFFFFFFFFFFFFFFFFFFFF AND PUSH20 0xFFFFFFFFFFFFFFFFFFFFFFFFFFFFFFFFFFFFFFFF AND CALLER PUSH20 0xFFFFFFFFFFFFFFFFFFFFFFFFFFFFFFFFFFFFFFFF AND EQ JUMPDEST PUSH2 0x9BE JUMPI PUSH1 0x40 MLOAD PUSH32 0x8C379A000000000000000000000000000000000000000000000000000000000 DUP2 MSTORE PUSH1 0x4 ADD PUSH2 0x9B5 SWAP1 PUSH2 0x40B4 JUMP JUMPDEST PUSH1 0x40 MLOAD DUP1 SWAP2 SUB SWAP1 REVERT JUMPDEST PUSH1 0x0 DUP2 EQ DUP1 PUSH2 0x9CD JUMPI POP PUSH1 0x1 DUP2 EQ JUMPDEST PUSH2 0xA0C JUMPI PUSH1 0x40 MLOAD PUSH32 0x8C379A000000000000000000000000000000000000000000000000000000000 DUP2 MSTORE PUSH1 0x4 ADD PUSH2 0xA03 SWAP1 PUSH2 0x4146 JUMP JUMPDEST PUSH1 0x40 MLOAD DUP1 SWAP2 SUB SWAP1 REVERT JUMPDEST PUSH1 0x0 DUP3 SUB PUSH2 0xBAD JUMPI PUSH1 0x65 PUSH1 0x0 SWAP1 SLOAD SWAP1 PUSH2 0x100 EXP SWAP1 DIV PUSH20 0xFFFFFFFFFFFFFFFFFFFFFFFFFFFFFFFFFFFFFFFF AND PUSH20 0xFFFFFFFFFFFFFFFFFFFFFFFFFFFFFFFFFFFFFFFF AND CALLER PUSH20 0xFFFFFFFFFFFFFFFFFFFFFFFFFFFFFFFFFFFFFFFF AND EQ DUP1 PUSH2 0xABE JUMPI POP PUSH1 0x0 PUSH20 0xFFFFFFFFFFFFFFFFFFFFFFFFFFFFFFFFFFFFFFFF AND PUSH1 0x65 PUSH1 0x0 SWAP1 SLOAD SWAP1 PUSH2 0x100 EXP SWAP1 DIV PUSH20 0xFFFFFFFFFFFFFFFFFFFFFFFFFFFFFFFFFFFFFFFF AND PUSH20 0xFFFFFFFFFFFFFFFFFFFFFFFFFFFFFFFFFFFFFFFF AND EQ JUMPDEST DUP1 ISZERO PUSH2 0xB18 JUMPI POP PUSH1 0x64 PUSH1 0x0 SWAP1 SLOAD SWAP1 PUSH2 0x100 EXP SWAP1 DIV PUSH20 0xFFFFFFFFFFFFFFFFFFFFFFFFFFFFFFFFFFFFFFFF AND PUSH20 0xFFFFFFFFFFFFFFFFFFFFFFFFFFFFFFFFFFFFFFFF AND CALLER PUSH20 0xFFFFFFFFFFFFFFFFFFFFFFFFFFFFFFFFFFFFFFFF AND EQ ISZERO JUMPDEST PUSH2 0xB57 JUMPI PUSH1 0x40 MLOAD PUSH32 0x8C379A000000000000000000000000000000000000000000000000000000000 DUP2 MSTORE PUSH1 0x4 ADD PUSH2 0xB4E SWAP1 PUSH2 0x41D8 JUMP JUMPDEST PUSH1 0x40 MLOAD DUP1 SWAP2 SUB SWAP1 REVERT JUMPDEST CALLER PUSH1 0x65 PUSH1 0x0 PUSH2 0x100 EXP DUP2 SLOAD DUP2 PUSH20 0xFFFFFFFFFFFFFFFFFFFFFFFFFFFFFFFFFFFFFFFF MUL NOT AND SWAP1 DUP4 PUSH20 0xFFFFFFFFFFFFFFFFFFFFFFFFFFFFFFFFFFFFFFFF AND MUL OR SWAP1 SSTORE POP CALLVALUE PUSH1 0x2 SLOAD PUSH2 0xBA6 SWAP2 SWAP1 PUSH2 0x41F8 JUMP JUMPDEST PUSH1 0x2 DUP2 SWAP1 SSTORE POP JUMPDEST PUSH1 0x1 DUP3 SUB PUSH2 0xD4E JUMPI PUSH1 0x64 PUSH1 0x0 SWAP1 SLOAD SWAP1 PUSH2 0x100 EXP SWAP1 DIV PUSH20 0xFFFFFFFFFFFFFFFFFFFFFFFFFFFFFFFFFFFFFFFF AND PUSH20 0xFFFFFFFFFFFFFFFFFFFFFFFFFFFFFFFFFFFFFFFF AND CALLER PUSH20 0xFFFFFFFFFFFFFFFFFFFFFFFFFFFFFFFFFFFFFFFF AND EQ DUP1 PUSH2 0xC5F JUMPI POP PUSH1 0x0 PUSH20 0xFFFFFFFFFFFFFFFFFFFFFFFFFFFFFFFFFFFFFFFF AND PUSH1 0x64 PUSH1 0x0 SWAP1 SLOAD SWAP1 PUSH2 0x100 EXP SWAP1 DIV PUSH20 0xFFFFFFFFFFFFFFFFFFFFFFFFFFFFFFFFFFFFFFFF AND PUSH20 0xFFFFFFFFFFFFFFFFFFFFFFFFFFFFFFFFFFFFFFFF AND EQ JUMPDEST DUP1 ISZERO PUSH2 0xCB9 JUMPI POP PUSH1 0x65 PUSH1 0x0 SWAP1 SLOAD SWAP1 PUSH2 0x100 EXP SWAP1 DIV PUSH20 0xFFFFFFFFFFFFFFFFFFFFFFFFFFFFFFFFFFFFFFFF AND PUSH20 0xFFFFFFFFFFFFFFFFFFFFFFFFFFFFFFFFFFFFFFFF AND CALLER PUSH20 0xFFFFFFFFFFFFFFFFFFFFFFFFFFFFFFFFFFFFFFFF AND EQ ISZERO JUMPDEST PUSH2 0xCF8 JUMPI PUSH1 0x40 MLOAD PUSH32 0x8C379A000000000000000000000000000000000000000000000000000000000 DUP2 MSTORE PUSH1 0x4 ADD PUSH2 0xCEF SWAP1 PUSH2 0x429E JUMP JUMPDEST PUSH1 0x40 MLOAD DUP1 SWAP2 SUB SWAP1 REVERT JUMPDEST CALLER PUSH1 0x64 PUSH1 0x0 PUSH2 0x100 EXP DUP2 SLOAD DUP2 PUSH20 0xFFFFFFFFFFFFFFFFFFFFFFFFFFFFFFFFFFFFFFFF MUL NOT AND SWAP1 DUP4 PUSH20 0xFFFFFFFFFFFFFFFFFFFFFFFFFFFFFFFFFFFFFFFF AND MUL OR SWAP1 SSTORE POP CALLVALUE PUSH1 0x3 SLOAD PUSH2 0xD47 SWAP2 SWAP1 PUSH2 0x41F8 JUMP JUMPDEST PUSH1 0x3 DUP2 SWAP1 SSTORE POP JUMPDEST POP POP JUMP JUMPDEST PUSH1 0x5E SLOAD DUP2 JUMP JUMPDEST PUSH1 0x1 SLOAD DUP2 JUMP JUMPDEST PUSH1 0x58 DUP3 PUSH1 0x2 DUP2 LT PUSH2 0xD6E JUMPI PUSH1 0x0 DUP1 REVERT JUMPDEST PUSH1 0x2 MUL ADD DUP2 PUSH1 0x2 DUP2 LT PUSH2 0xD80 JUMPI PUSH1 0x0 DUP1 REVERT JUMPDEST ADD PUSH1 0x0 SWAP2 POP SWAP2 POP POP SLOAD DUP2 JUMP JUMPDEST PUSH1 0x0 DUP1 SLOAD SWAP1 PUSH2 0x100 EXP SWAP1 DIV PUSH1 0xFF AND ISZERO PUSH2 0xDDA JUMPI PUSH1 0x40 MLOAD PUSH32 0x8C379A000000000000000000000000000000000000000000000000000000000 DUP2 MSTORE PUSH1 0x4 ADD PUSH2 0xDD1 SWAP1 PUSH2 0x3FBF JUMP JUMPDEST PUSH1 0x40 MLOAD DUP1 SWAP2 SUB SWAP1 REVERT JUMPDEST PUSH1 0x1 PUSH1 0x0 DUP1 PUSH2 0x100 EXP DUP2 SLOAD DUP2 PUSH1 0xFF MUL NOT AND SWAP1 DUP4 ISZERO ISZERO MUL OR SWAP1 SSTORE POP PUSH1 0x1 DUP1 DUP2 SWAP1 SSTORE POP PUSH1 0x0 PUSH1 0x5E DUP2 SWAP1 SSTORE POP PUSH1 0x0 PUSH1 0x52 DUP2 SWAP1 SSTORE POP PUSH1 0x0 PUSH1 0x53 DUP2 SWAP1 SSTORE POP PUSH1 0x0 PUSH1 0x5E DUP2 SWAP1 SSTORE POP PUSH1 0x0 PUSH1 0x5D DUP2 SWAP1 SSTORE POP PUSH1 0x0 PUSH1 0x5C DUP2 SWAP1 SSTORE POP PUSH1 0x0 PUSH1 0x54 PUSH1 0x1 PUSH1 0x2 DUP2 LT PUSH2 0xE42 JUMPI PUSH2 0xE41 PUSH2 0x42BE JUMP JUMPDEST JUMPDEST PUSH1 0x2 MUL ADD PUSH1 0x0 PUSH1 0x2 DUP2 LT PUSH2 0xE59 JUMPI PUSH2 0xE58 PUSH2 0x42BE JUMP JUMPDEST JUMPDEST ADD DUP2 SWAP1 SSTORE POP PUSH1 0x0 PUSH1 0x54 PUSH1 0x1 PUSH1 0x2 DUP2 LT PUSH2 0xE75 JUMPI PUSH2 0xE74 PUSH2 0x42BE JUMP JUMPDEST JUMPDEST PUSH1 0x2 MUL ADD PUSH1 0x1 PUSH1 0x2 DUP2 LT PUSH2 0xE8C JUMPI PUSH2 0xE8B PUSH2 0x42BE JUMP JUMPDEST JUMPDEST ADD DUP2 SWAP1 SSTORE POP PUSH1 0x0 PUSH1 0x1 SWAP1 POP JUMPDEST PUSH1 0x10 DUP2 LT ISZERO PUSH2 0xFEA JUMPI PUSH1 0x0 PUSH1 0x8 DUP3 PUSH1 0x10 DUP2 LT PUSH2 0xEB7 JUMPI PUSH2 0xEB6 PUSH2 0x42BE JUMP JUMPDEST JUMPDEST PUSH1 0x2 MUL ADD PUSH1 0x0 PUSH1 0x2 DUP2 LT PUSH2 0xECE JUMPI PUSH2 0xECD PUSH2 0x42BE JUMP JUMPDEST JUMPDEST ADD DUP2 SWAP1 SSTORE POP PUSH1 0x0 PUSH1 0x8 DUP3 PUSH1 0x10 DUP2 LT PUSH2 0xEE9 JUMPI PUSH2 0xEE8 PUSH2 0x42BE JUMP JUMPDEST JUMPDEST PUSH1 0x2 MUL ADD PUSH1 0x1 PUSH1 0x2 DUP2 LT PUSH2 0xF00 JUMPI PUSH2 0xEFF PUSH2 0x42BE JUMP JUMPDEST JUMPDEST ADD DUP2 SWAP1 SSTORE POP PUSH1 0x0 PUSH1 0x28 DUP3 PUSH1 0x10 DUP2 LT PUSH2 0xF1B JUMPI PUSH2 0xF1A PUSH2 0x42BE JUMP JUMPDEST JUMPDEST PUSH1 0x2 MUL ADD PUSH1 0x0 PUSH1 0x2 DUP2 LT PUSH2 0xF32 JUMPI PUSH2 0xF31 PUSH2 0x42BE JUMP JUMPDEST JUMPDEST ADD DUP2 SWAP1 SSTORE POP PUSH1 0x0 PUSH1 0x28 DUP3 PUSH1 0x10 DUP2 LT PUSH2 0xF4D JUMPI PUSH2 0xF4C PUSH2 0x42BE JUMP JUMPDEST JUMPDEST PUSH1 0x2 MUL ADD PUSH1 0x1 PUSH1 0x2 DUP2 LT PUSH2 0xF64 JUMPI PUSH2 0xF63 PUSH2 0x42BE JUMP JUMPDEST JUMPDEST ADD DUP2 SWAP1 SSTORE POP PUSH1 0x4 DUP2 LT ISZERO PUSH2 0xFD7 JUMPI PUSH1 0x0 PUSH1 0x48 DUP3 PUSH1 0x4 DUP2 LT PUSH2 0xF88 JUMPI PUSH2 0xF87 PUSH2 0x42BE JUMP JUMPDEST JUMPDEST PUSH1 0x2 MUL ADD PUSH1 0x0 PUSH1 0x2 DUP2 LT PUSH2 0xF9F JUMPI PUSH2 0xF9E PUSH2 0x42BE JUMP JUMPDEST JUMPDEST ADD DUP2 SWAP1 SSTORE POP PUSH1 0x0 PUSH1 0x48 DUP3 PUSH1 0x4 DUP2 LT PUSH2 0xFBA JUMPI PUSH2 0xFB9 PUSH2 0x42BE JUMP JUMPDEST JUMPDEST PUSH1 0x2 MUL ADD PUSH1 0x1 PUSH1 0x2 DUP2 LT PUSH2 0xFD1 JUMPI PUSH2 0xFD0 PUSH2 0x42BE JUMP JUMPDEST JUMPDEST ADD DUP2 SWAP1 SSTORE POP JUMPDEST DUP1 DUP1 PUSH2 0xFE2 SWAP1 PUSH2 0x42ED JUMP JUMPDEST SWAP2 POP POP PUSH2 0xE98 JUMP JUMPDEST POP PUSH2 0xFF5 PUSH1 0x3 PUSH2 0x1EBF JUMP JUMPDEST PUSH2 0x1073 PUSH1 0x48 PUSH1 0x4 DUP1 PUSH1 0x20 MUL PUSH1 0x40 MLOAD SWAP1 DUP2 ADD PUSH1 0x40 MSTORE DUP1 SWAP3 SWAP2 SWAP1 PUSH1 0x0 SWAP1 JUMPDEST DUP3 DUP3 LT ISZERO PUSH2 0x106A JUMPI DUP4 DUP3 PUSH1 0x2 MUL ADD PUSH1 0x2 DUP1 PUSH1 0x20 MUL PUSH1 0x40 MLOAD SWAP1 DUP2 ADD PUSH1 0x40 MSTORE DUP1 SWAP3 SWAP2 SWAP1 DUP3 PUSH1 0x2 DUP1 ISZERO PUSH2 0x1056 JUMPI PUSH1 0x20 MUL DUP3 ADD SWAP2 JUMPDEST DUP2 SLOAD DUP2 MSTORE PUSH1 0x20 ADD SWAP1 PUSH1 0x1 ADD SWAP1 DUP1 DUP4 GT PUSH2 0x1042 JUMPI JUMPDEST POP POP POP POP POP DUP2 MSTORE PUSH1 0x20 ADD SWAP1 PUSH1 0x1 ADD SWAP1 PUSH2 0x1011 JUMP JUMPDEST POP POP POP POP PUSH2 0x141C JUMP JUMPDEST PUSH1 0x48 SWAP1 PUSH1 0x4 PUSH2 0x1083 SWAP3 SWAP2 SWAP1 PUSH2 0x38D0 JUMP JUMPDEST POP PUSH2 0x10EA PUSH1 0x48 PUSH1 0x1 PUSH1 0x4 DUP2 LT PUSH2 0x109C JUMPI PUSH2 0x109B PUSH2 0x42BE JUMP JUMPDEST JUMPDEST PUSH1 0x2 MUL ADD PUSH1 0x0 PUSH1 0x2 DUP2 LT PUSH2 0x10B3 JUMPI PUSH2 0x10B2 PUSH2 0x42BE JUMP JUMPDEST JUMPDEST ADD SLOAD PUSH1 0x48 PUSH1 0x1 PUSH1 0x4 DUP2 LT PUSH2 0x10CA JUMPI PUSH2 0x10C9 PUSH2 0x42BE JUMP JUMPDEST JUMPDEST PUSH1 0x2 MUL ADD PUSH1 0x1 PUSH1 0x2 DUP2 LT PUSH2 0x10E1 JUMPI PUSH2 0x10E0 PUSH2 0x42BE JUMP JUMPDEST JUMPDEST ADD SLOAD PUSH1 0x1 PUSH2 0x26CF JUMP JUMPDEST PUSH2 0x1150 PUSH1 0x48 PUSH1 0x2 PUSH1 0x4 DUP2 LT PUSH2 0x1102 JUMPI PUSH2 0x1101 PUSH2 0x42BE JUMP JUMPDEST JUMPDEST PUSH1 0x2 MUL ADD PUSH1 0x0 PUSH1 0x2 DUP2 LT PUSH2 0x1119 JUMPI PUSH2 0x1118 PUSH2 0x42BE JUMP JUMPDEST JUMPDEST ADD SLOAD PUSH1 0x48 PUSH1 0x2 PUSH1 0x4 DUP2 LT PUSH2 0x1130 JUMPI PUSH2 0x112F PUSH2 0x42BE JUMP JUMPDEST JUMPDEST PUSH1 0x2 MUL ADD PUSH1 0x1 PUSH1 0x2 DUP2 LT PUSH2 0x1147 JUMPI PUSH2 0x1146 PUSH2 0x42BE JUMP JUMPDEST JUMPDEST ADD SLOAD PUSH1 0x1 PUSH2 0x27BA JUMP JUMPDEST PUSH2 0x11B6 PUSH1 0x48 PUSH1 0x3 PUSH1 0x4 DUP2 LT PUSH2 0x1168 JUMPI PUSH2 0x1167 PUSH2 0x42BE JUMP JUMPDEST JUMPDEST PUSH1 0x2 MUL ADD PUSH1 0x0 PUSH1 0x2 DUP2 LT PUSH2 0x117F JUMPI PUSH2 0x117E PUSH2 0x42BE JUMP JUMPDEST JUMPDEST ADD SLOAD PUSH1 0x48 PUSH1 0x3 PUSH1 0x4 DUP2 LT PUSH2 0x1196 JUMPI PUSH2 0x1195 PUSH2 0x42BE JUMP JUMPDEST JUMPDEST PUSH1 0x2 MUL ADD PUSH1 0x1 PUSH1 0x2 DUP2 LT PUSH2 0x11AD JUMPI PUSH2 0x11AC PUSH2 0x42BE JUMP JUMPDEST JUMPDEST ADD SLOAD PUSH1 0x2 PUSH2 0x26CF JUMP JUMPDEST PUSH2 0x11BE PUSH2 0x28A5 JUMP JUMPDEST PUSH2 0x11C6 PUSH2 0x2B1A JUMP JUMPDEST PUSH2 0x11CE PUSH2 0x2D8F JUMP JUMPDEST PUSH2 0x11D6 PUSH2 0x2F3E JUMP JUMPDEST PUSH1 0x0 DUP1 PUSH1 0x0 PUSH2 0x100 EXP DUP2 SLOAD DUP2 PUSH1 0xFF MUL NOT AND SWAP1 DUP4 ISZERO ISZERO MUL OR SWAP1 SSTORE POP JUMP JUMPDEST DUP1 PUSH1 0x0 PUSH1 0x3 SLOAD GT PUSH2 0x1238 JUMPI PUSH1 0x40 MLOAD PUSH32 0x8C379A000000000000000000000000000000000000000000000000000000000 DUP2 MSTORE PUSH1 0x4 ADD PUSH2 0x122F SWAP1 PUSH2 0x43A7 JUMP JUMPDEST PUSH1 0x40 MLOAD DUP1 SWAP2 SUB SWAP1 REVERT JUMPDEST PUSH1 0x64 PUSH1 0x0 SWAP1 SLOAD SWAP1 PUSH2 0x100 EXP SWAP1 DIV PUSH20 0xFFFFFFFFFFFFFFFFFFFFFFFFFFFFFFFFFFFFFFFF AND PUSH20 0xFFFFFFFFFFFFFFFFFFFFFFFFFFFFFFFFFFFFFFFF AND CALLER PUSH20 0xFFFFFFFFFFFFFFFFFFFFFFFFFFFFFFFFFFFFFFFF AND EQ PUSH2 0x12C8 JUMPI PUSH1 0x40 MLOAD PUSH32 0x8C379A000000000000000000000000000000000000000000000000000000000 DUP2 MSTORE PUSH1 0x4 ADD PUSH2 0x12BF SWAP1 PUSH2 0x4439 JUMP JUMPDEST PUSH1 0x40 MLOAD DUP1 SWAP2 SUB SWAP1 REVERT JUMPDEST PUSH1 0x3 SLOAD DUP2 GT ISZERO PUSH2 0x130D JUMPI PUSH1 0x40 MLOAD PUSH32 0x8C379A000000000000000000000000000000000000000000000000000000000 DUP2 MSTORE PUSH1 0x4 ADD PUSH2 0x1304 SWAP1 PUSH2 0x44CB JUMP JUMPDEST PUSH1 0x40 MLOAD DUP1 SWAP2 SUB SWAP1 REVERT JUMPDEST PUSH1 0x0 DUP1 SLOAD SWAP1 PUSH2 0x100 EXP SWAP1 DIV PUSH1 0xFF AND ISZERO PUSH2 0x135B JUMPI PUSH1 0x40 MLOAD PUSH32 0x8C379A000000000000000000000000000000000000000000000000000000000 DUP2 MSTORE PUSH1 0x4 ADD PUSH2 0x1352 SWAP1 PUSH2 0x3FBF JUMP JUMPDEST PUSH1 0x40 MLOAD DUP1 SWAP2 SUB SWAP1 REVERT JUMPDEST PUSH1 0x1 PUSH1 0x0 DUP1 PUSH2 0x100 EXP DUP2 SLOAD DUP2 PUSH1 0xFF MUL NOT AND SWAP1 DUP4 ISZERO ISZERO MUL OR SWAP1 SSTORE POP DUP2 PUSH1 0x3 SLOAD PUSH2 0x1383 SWAP2 SWAP1 PUSH2 0x400E JUMP JUMPDEST PUSH1 0x3 DUP2 SWAP1 SSTORE POP PUSH1 0x64 PUSH1 0x0 SWAP1 SLOAD SWAP1 PUSH2 0x100 EXP SWAP1 DIV PUSH20 0xFFFFFFFFFFFFFFFFFFFFFFFFFFFFFFFFFFFFFFFF AND PUSH20 0xFFFFFFFFFFFFFFFFFFFFFFFFFFFFFFFFFFFFFFFF AND PUSH2 0x8FC DUP4 SWAP1 DUP2 ISZERO MUL SWAP1 PUSH1 0x40 MLOAD PUSH1 0x0 PUSH1 0x40 MLOAD DUP1 DUP4 SUB DUP2 DUP6 DUP9 DUP9 CALL SWAP4 POP POP POP POP ISZERO DUP1 ISZERO PUSH2 0x13F1 JUMPI RETURNDATASIZE PUSH1 0x0 DUP1 RETURNDATACOPY RETURNDATASIZE PUSH1 0x0 REVERT JUMPDEST POP PUSH1 0x0 DUP1 PUSH1 0x0 PUSH2 0x100 EXP DUP2 SLOAD DUP2 PUSH1 0xFF MUL NOT AND SWAP1 DUP4 ISZERO ISZERO MUL OR SWAP1 SSTORE POP POP POP JUMP JUMPDEST PUSH1 0x3 SLOAD DUP2 JUMP JUMPDEST PUSH1 0x2 SLOAD DUP2 JUMP JUMPDEST PUSH2 0x1424 PUSH2 0x3921 JUMP JUMPDEST JUMPDEST DUP2 PUSH1 0x2 PUSH1 0x4 DUP2 LT PUSH2 0x1439 JUMPI PUSH2 0x1438 PUSH2 0x42BE JUMP JUMPDEST JUMPDEST PUSH1 0x20 MUL ADD MLOAD PUSH1 0x0 PUSH1 0x2 DUP2 LT PUSH2 0x1451 JUMPI PUSH2 0x1450 PUSH2 0x42BE JUMP JUMPDEST JUMPDEST PUSH1 0x20 MUL ADD MLOAD DUP3 PUSH1 0x1 PUSH1 0x4 DUP2 LT PUSH2 0x146A JUMPI PUSH2 0x1469 PUSH2 0x42BE JUMP JUMPDEST JUMPDEST PUSH1 0x20 MUL ADD MLOAD PUSH1 0x0 PUSH1 0x2 DUP2 LT PUSH2 0x1482 JUMPI PUSH2 0x1481 PUSH2 0x42BE JUMP JUMPDEST JUMPDEST PUSH1 0x20 MUL ADD MLOAD EQ DUP1 ISZERO PUSH2 0x14F3 JUMPI POP DUP2 PUSH1 0x2 PUSH1 0x4 DUP2 LT PUSH2 0x14A3 JUMPI PUSH2 0x14A2 PUSH2 0x42BE JUMP JUMPDEST JUMPDEST PUSH1 0x20 MUL ADD MLOAD PUSH1 0x1 PUSH1 0x2 DUP2 LT PUSH2 0x14BB JUMPI PUSH2 0x14BA PUSH2 0x42BE JUMP JUMPDEST JUMPDEST PUSH1 0x20 MUL ADD MLOAD DUP3 PUSH1 0x1 PUSH1 0x4 DUP2 LT PUSH2 0x14D4 JUMPI PUSH2 0x14D3 PUSH2 0x42BE JUMP JUMPDEST JUMPDEST PUSH1 0x20 MUL ADD MLOAD PUSH1 0x1 PUSH1 0x2 DUP2 LT PUSH2 0x14EC JUMPI PUSH2 0x14EB PUSH2 0x42BE JUMP JUMPDEST JUMPDEST PUSH1 0x20 MUL ADD MLOAD EQ JUMPDEST ISZERO PUSH2 0x15CD JUMPI PUSH2 0x1502 PUSH1 0x1 PUSH2 0x1EBF JUMP JUMPDEST PUSH1 0x48 PUSH1 0x2 PUSH1 0x4 DUP2 LT PUSH2 0x1517 JUMPI PUSH2 0x1516 PUSH2 0x42BE JUMP JUMPDEST JUMPDEST PUSH1 0x2 MUL ADD PUSH1 0x0 PUSH1 0x2 DUP2 LT PUSH2 0x152E JUMPI PUSH2 0x152D PUSH2 0x42BE JUMP JUMPDEST JUMPDEST ADD SLOAD DUP3 PUSH1 0x1 PUSH1 0x4 DUP2 LT PUSH2 0x1544 JUMPI PUSH2 0x1543 PUSH2 0x42BE JUMP JUMPDEST JUMPDEST PUSH1 0x20 MUL ADD MLOAD PUSH1 0x0 PUSH1 0x2 DUP2 LT PUSH2 0x155C JUMPI PUSH2 0x155B PUSH2 0x42BE JUMP JUMPDEST JUMPDEST PUSH1 0x20 MUL ADD DUP2 DUP2 MSTORE POP POP PUSH1 0x48 PUSH1 0x1 PUSH1 0x4 DUP2 LT PUSH2 0x157A JUMPI PUSH2 0x1579 PUSH2 0x42BE JUMP JUMPDEST JUMPDEST PUSH1 0x2 MUL ADD PUSH1 0x1 PUSH1 0x2 DUP2 LT PUSH2 0x1591 JUMPI PUSH2 0x1590 PUSH2 0x42BE JUMP JUMPDEST JUMPDEST ADD SLOAD DUP3 PUSH1 0x2 PUSH1 0x4 DUP2 LT PUSH2 0x15A7 JUMPI PUSH2 0x15A6 PUSH2 0x42BE JUMP JUMPDEST JUMPDEST PUSH1 0x20 MUL ADD MLOAD PUSH1 0x1 PUSH1 0x2 DUP2 LT PUSH2 0x15BF JUMPI PUSH2 0x15BE PUSH2 0x42BE JUMP JUMPDEST JUMPDEST PUSH1 0x20 MUL ADD DUP2 DUP2 MSTORE POP POP PUSH2 0x1425 JUMP JUMPDEST JUMPDEST DUP2 PUSH1 0x3 PUSH1 0x4 DUP2 LT PUSH2 0x15E2 JUMPI PUSH2 0x15E1 PUSH2 0x42BE JUMP JUMPDEST JUMPDEST PUSH1 0x20 MUL ADD MLOAD PUSH1 0x0 PUSH1 0x2 DUP2 LT PUSH2 0x15FA JUMPI PUSH2 0x15F9 PUSH2 0x42BE JUMP JUMPDEST JUMPDEST PUSH1 0x20 MUL ADD MLOAD DUP3 PUSH1 0x2 PUSH1 0x4 DUP2 LT PUSH2 0x1613 JUMPI PUSH2 0x1612 PUSH2 0x42BE JUMP JUMPDEST JUMPDEST PUSH1 0x20 MUL ADD MLOAD PUSH1 0x0 PUSH1 0x2 DUP2 LT PUSH2 0x162B JUMPI PUSH2 0x162A PUSH2 0x42BE JUMP JUMPDEST JUMPDEST PUSH1 0x20 MUL ADD MLOAD EQ DUP1 ISZERO PUSH2 0x169C JUMPI POP DUP2 PUSH1 0x3 PUSH1 0x4 DUP2 LT PUSH2 0x164C JUMPI PUSH2 0x164B PUSH2 0x42BE JUMP JUMPDEST JUMPDEST PUSH1 0x20 MUL ADD MLOAD PUSH1 0x1 PUSH1 0x2 DUP2 LT PUSH2 0x1664 JUMPI PUSH2 0x1663 PUSH2 0x42BE JUMP JUMPDEST JUMPDEST PUSH1 0x20 MUL ADD MLOAD DUP3 PUSH1 0x2 PUSH1 0x4 DUP2 LT PUSH2 0x167D JUMPI PUSH2 0x167C PUSH2 0x42BE JUMP JUMPDEST JUMPDEST PUSH1 0x20 MUL ADD MLOAD PUSH1 0x1 PUSH1 0x2 DUP2 LT PUSH2 0x1695 JUMPI PUSH2 0x1694 PUSH2 0x42BE JUMP JUMPDEST JUMPDEST PUSH1 0x20 MUL ADD MLOAD EQ JUMPDEST ISZERO PUSH2 0x1776 JUMPI PUSH2 0x16AB PUSH1 0x1 PUSH2 0x1EBF JUMP JUMPDEST PUSH1 0x48 PUSH1 0x1 PUSH1 0x4 DUP2 LT PUSH2 0x16C0 JUMPI PUSH2 0x16BF PUSH2 0x42BE JUMP JUMPDEST JUMPDEST PUSH1 0x2 MUL ADD PUSH1 0x0 PUSH1 0x2 DUP2 LT PUSH2 0x16D7 JUMPI PUSH2 0x16D6 PUSH2 0x42BE JUMP JUMPDEST JUMPDEST ADD SLOAD DUP3 PUSH1 0x3 PUSH1 0x4 DUP2 LT PUSH2 0x16ED JUMPI PUSH2 0x16EC PUSH2 0x42BE JUMP JUMPDEST JUMPDEST PUSH1 0x20 MUL ADD MLOAD PUSH1 0x0 PUSH1 0x2 DUP2 LT PUSH2 0x1705 JUMPI PUSH2 0x1704 PUSH2 0x42BE JUMP JUMPDEST JUMPDEST PUSH1 0x20 MUL ADD DUP2 DUP2 MSTORE POP POP PUSH1 0x48 PUSH1 0x1 PUSH1 0x4 DUP2 LT PUSH2 0x1723 JUMPI PUSH2 0x1722 PUSH2 0x42BE JUMP JUMPDEST JUMPDEST PUSH1 0x2 MUL ADD PUSH1 0x1 PUSH1 0x2 DUP2 LT PUSH2 0x173A JUMPI PUSH2 0x1739 PUSH2 0x42BE JUMP JUMPDEST JUMPDEST ADD SLOAD DUP3 PUSH1 0x3 PUSH1 0x4 DUP2 LT PUSH2 0x1750 JUMPI PUSH2 0x174F PUSH2 0x42BE JUMP JUMPDEST JUMPDEST PUSH1 0x20 MUL ADD MLOAD PUSH1 0x1 PUSH1 0x2 DUP2 LT PUSH2 0x1768 JUMPI PUSH2 0x1767 PUSH2 0x42BE JUMP JUMPDEST JUMPDEST PUSH1 0x20 MUL ADD DUP2 DUP2 MSTORE POP POP PUSH2 0x15CE JUMP JUMPDEST DUP2 SWAP1 POP SWAP2 SWAP1 POP JUMP JUMPDEST PUSH1 0x50 SLOAD DUP2 JUMP JUMPDEST PUSH1 0x28 DUP3 PUSH1 0x10 DUP2 LT PUSH2 0x1794 JUMPI PUSH1 0x0 DUP1 REVERT JUMPDEST PUSH1 0x2 MUL ADD DUP2 PUSH1 0x2 DUP2 LT PUSH2 0x17A6 JUMPI PUSH1 0x0 DUP1 REVERT JUMPDEST ADD PUSH1 0x0 SWAP2 POP SWAP2 POP POP SLOAD DUP2 JUMP JUMPDEST PUSH1 0x51 SLOAD DUP2 JUMP JUMPDEST PUSH1 0x5F SLOAD DUP2 JUMP JUMPDEST PUSH1 0x8 DUP3 PUSH1 0x10 DUP2 LT PUSH2 0x17CE JUMPI PUSH1 0x0 DUP1 REVERT JUMPDEST PUSH1 0x2 MUL ADD DUP2 PUSH1 0x2 DUP2 LT PUSH2 0x17E0 JUMPI PUSH1 0x0 DUP1 REVERT JUMPDEST ADD PUSH1 0x0 SWAP2 POP SWAP2 POP POP SLOAD DUP2 JUMP JUMPDEST PUSH1 0x0 PUSH2 0x186C PUSH1 0x28 PUSH1 0x10 DUP1 PUSH1 0x20 MUL PUSH1 0x40 MLOAD SWAP1 DUP2 ADD PUSH1 0x40 MSTORE DUP1 SWAP3 SWAP2 SWAP1 PUSH1 0x0 SWAP1 JUMPDEST DUP3 DUP3 LT ISZERO PUSH2 0x1863 JUMPI DUP4 DUP3 PUSH1 0x2 MUL ADD PUSH1 0x2 DUP1 PUSH1 0x20 MUL PUSH1 0x40 MLOAD SWAP1 DUP2 ADD PUSH1 0x40 MSTORE DUP1 SWAP3 SWAP2 SWAP1 DUP3 PUSH1 0x2 DUP1 ISZERO PUSH2 0x184F JUMPI PUSH1 0x20 MUL DUP3 ADD SWAP2 JUMPDEST DUP2 SLOAD DUP2 MSTORE PUSH1 0x20 ADD SWAP1 PUSH1 0x1 ADD SWAP1 DUP1 DUP4 GT PUSH2 0x183B JUMPI JUMPDEST POP POP POP POP POP DUP2 MSTORE PUSH1 0x20 ADD SWAP1 PUSH1 0x1 ADD SWAP1 PUSH2 0x180A JUMP JUMPDEST POP POP POP POP PUSH2 0x33D6 JUMP JUMPDEST SWAP1 POP PUSH2 0x1878 PUSH1 0x1 PUSH2 0x1EBF JUMP JUMPDEST PUSH1 0x0 JUMPDEST DUP2 DUP2 LT ISZERO PUSH2 0x1A2F JUMPI JUMPDEST PUSH1 0x48 PUSH1 0x1 PUSH1 0x4 DUP2 LT PUSH2 0x1899 JUMPI PUSH2 0x1898 PUSH2 0x42BE JUMP JUMPDEST JUMPDEST PUSH1 0x2 MUL ADD PUSH1 0x0 PUSH1 0x2 DUP2 LT PUSH2 0x18B0 JUMPI PUSH2 0x18AF PUSH2 0x42BE JUMP JUMPDEST JUMPDEST ADD SLOAD PUSH1 0x8 DUP3 PUSH1 0x10 DUP2 LT PUSH2 0x18C6 JUMPI PUSH2 0x18C5 PUSH2 0x42BE JUMP JUMPDEST JUMPDEST PUSH1 0x2 MUL ADD PUSH1 0x0 PUSH1 0x2 DUP2 LT PUSH2 0x18DD JUMPI PUSH2 0x18DC PUSH2 0x42BE JUMP JUMPDEST JUMPDEST ADD SLOAD EQ DUP1 PUSH2 0x1943 JUMPI POP PUSH1 0x48 PUSH1 0x1 PUSH1 0x4 DUP2 LT PUSH2 0x18FB JUMPI PUSH2 0x18FA PUSH2 0x42BE JUMP JUMPDEST JUMPDEST PUSH1 0x2 MUL ADD PUSH1 0x0 PUSH1 0x2 DUP2 LT PUSH2 0x1912 JUMPI PUSH2 0x1911 PUSH2 0x42BE JUMP JUMPDEST JUMPDEST ADD SLOAD PUSH1 0x28 DUP3 PUSH1 0x10 DUP2 LT PUSH2 0x1928 JUMPI PUSH2 0x1927 PUSH2 0x42BE JUMP JUMPDEST JUMPDEST PUSH1 0x2 MUL ADD PUSH1 0x0 PUSH1 0x2 DUP2 LT PUSH2 0x193F JUMPI PUSH2 0x193E PUSH2 0x42BE JUMP JUMPDEST JUMPDEST ADD SLOAD EQ JUMPDEST ISZERO PUSH2 0x1A1C JUMPI PUSH1 0x48 PUSH1 0x1 PUSH1 0x4 DUP2 LT PUSH2 0x195D JUMPI PUSH2 0x195C PUSH2 0x42BE JUMP JUMPDEST JUMPDEST PUSH1 0x2 MUL ADD PUSH1 0x1 PUSH1 0x2 DUP2 LT PUSH2 0x1974 JUMPI PUSH2 0x1973 PUSH2 0x42BE JUMP JUMPDEST JUMPDEST ADD SLOAD PUSH1 0x8 DUP3 PUSH1 0x10 DUP2 LT PUSH2 0x198A JUMPI PUSH2 0x1989 PUSH2 0x42BE JUMP JUMPDEST JUMPDEST PUSH1 0x2 MUL ADD PUSH1 0x1 PUSH1 0x2 DUP2 LT PUSH2 0x19A1 JUMPI PUSH2 0x19A0 PUSH2 0x42BE JUMP JUMPDEST JUMPDEST ADD SLOAD EQ DUP1 PUSH2 0x1A07 JUMPI POP PUSH1 0x48 PUSH1 0x1 PUSH1 0x4 DUP2 LT PUSH2 0x19BF JUMPI PUSH2 0x19BE PUSH2 0x42BE JUMP JUMPDEST JUMPDEST PUSH1 0x2 MUL ADD PUSH1 0x1 PUSH1 0x2 DUP2 LT PUSH2 0x19D6 JUMPI PUSH2 0x19D5 PUSH2 0x42BE JUMP JUMPDEST JUMPDEST ADD SLOAD PUSH1 0x28 DUP3 PUSH1 0x10 DUP2 LT PUSH2 0x19EC JUMPI PUSH2 0x19EB PUSH2 0x42BE JUMP JUMPDEST JUMPDEST PUSH1 0x2 MUL ADD PUSH1 0x1 PUSH1 0x2 DUP2 LT PUSH2 0x1A03 JUMPI PUSH2 0x1A02 PUSH2 0x42BE JUMP JUMPDEST JUMPDEST ADD SLOAD EQ JUMPDEST ISZERO PUSH2 0x1A17 JUMPI PUSH2 0x1A16 PUSH1 0x1 PUSH2 0x1EBF JUMP JUMPDEST JUMPDEST PUSH2 0x1884 JUMP JUMPDEST DUP1 DUP1 PUSH2 0x1A27 SWAP1 PUSH2 0x42ED JUMP JUMPDEST SWAP2 POP POP PUSH2 0x187B JUMP JUMPDEST POP PUSH2 0x1AA1 PUSH1 0x48 PUSH1 0x1 PUSH1 0x4 DUP2 LT PUSH2 0x1A48 JUMPI PUSH2 0x1A47 PUSH2 0x42BE JUMP JUMPDEST JUMPDEST PUSH1 0x2 MUL ADD PUSH1 0x0 PUSH1 0x2 DUP2 LT PUSH2 0x1A5F JUMPI PUSH2 0x1A5E PUSH2 0x42BE JUMP JUMPDEST JUMPDEST ADD SLOAD PUSH1 0x48 PUSH1 0x1 PUSH1 0x4 DUP2 LT PUSH2 0x1A76 JUMPI PUSH2 0x1A75 PUSH2 0x42BE JUMP JUMPDEST JUMPDEST PUSH1 0x2 MUL ADD PUSH1 0x1 PUSH1 0x2 DUP2 LT PUSH2 0x1A8D JUMPI PUSH2 0x1A8C PUSH2 0x42BE JUMP JUMPDEST JUMPDEST ADD SLOAD PUSH1 0x1 DUP5 PUSH2 0x1A9C SWAP2 SWAP1 PUSH2 0x41F8 JUMP JUMPDEST PUSH2 0x27BA JUMP JUMPDEST PUSH2 0x1AA9 PUSH2 0x2B1A JUMP JUMPDEST PUSH2 0x1AB1 PUSH2 0x2D8F JUMP JUMPDEST POP JUMP JUMPDEST PUSH1 0x53 SLOAD DUP2 JUMP JUMPDEST PUSH1 0x0 PUSH1 0x5E SLOAD EQ PUSH2 0x1AFF JUMPI PUSH1 0x40 MLOAD PUSH32 0x8C379A000000000000000000000000000000000000000000000000000000000 DUP2 MSTORE PUSH1 0x4 ADD PUSH2 0x1AF6 SWAP1 PUSH2 0x4537 JUMP JUMPDEST PUSH1 0x40 MLOAD DUP1 SWAP2 SUB SWAP1 REVERT JUMPDEST PUSH1 0x1 PUSH1 0x5E DUP2 SWAP1 SSTORE POP PUSH2 0x1B0F PUSH2 0x2F3E JUMP JUMPDEST JUMP JUMPDEST PUSH1 0x5C SLOAD DUP2 JUMP JUMPDEST PUSH8 0x8AC7230489E80000 DUP2 JUMP JUMPDEST PUSH1 0x4 SLOAD DUP2 JUMP JUMPDEST PUSH1 0x1 DUP1 SLOAD EQ PUSH2 0x1B6D JUMPI PUSH1 0x40 MLOAD PUSH32 0x8C379A000000000000000000000000000000000000000000000000000000000 DUP2 MSTORE PUSH1 0x4 ADD PUSH2 0x1B64 SWAP1 PUSH2 0x45A3 JUMP JUMPDEST PUSH1 0x40 MLOAD DUP1 SWAP2 SUB SWAP1 REVERT JUMPDEST PUSH1 0x0 PUSH1 0x52 SLOAD EQ PUSH2 0x1BB2 JUMPI PUSH1 0x40 MLOAD PUSH32 0x8C379A000000000000000000000000000000000000000000000000000000000 DUP2 MSTORE PUSH1 0x4 ADD PUSH2 0x1BA9 SWAP1 PUSH2 0x460F JUMP JUMPDEST PUSH1 0x40 MLOAD DUP1 SWAP2 SUB SWAP1 REVERT JUMPDEST PUSH1 0x0 PUSH1 0x5E SLOAD EQ PUSH2 0x1BF7 JUMPI PUSH1 0x40 MLOAD PUSH32 0x8C379A000000000000000000000000000000000000000000000000000000000 DUP2 MSTORE PUSH1 0x4 ADD PUSH2 0x1BEE SWAP1 PUSH2 0x4537 JUMP JUMPDEST PUSH1 0x40 MLOAD DUP1 SWAP2 SUB SWAP1 REVERT JUMPDEST PUSH1 0x0 PUSH2 0x1C77 PUSH1 0x8 PUSH1 0x10 DUP1 PUSH1 0x20 MUL PUSH1 0x40 MLOAD SWAP1 DUP2 ADD PUSH1 0x40 MSTORE DUP1 SWAP3 SWAP2 SWAP1 PUSH1 0x0 SWAP1 JUMPDEST DUP3 DUP3 LT ISZERO PUSH2 0x1C6E JUMPI DUP4 DUP3 PUSH1 0x2 MUL ADD PUSH1 0x2 DUP1 PUSH1 0x20 MUL PUSH1 0x40 MLOAD SWAP1 DUP2 ADD PUSH1 0x40 MSTORE DUP1 SWAP3 SWAP2 SWAP1 DUP3 PUSH1 0x2 DUP1 ISZERO PUSH2 0x1C5A JUMPI PUSH1 0x20 MUL DUP3 ADD SWAP2 JUMPDEST DUP2 SLOAD DUP2 MSTORE PUSH1 0x20 ADD SWAP1 PUSH1 0x1 ADD SWAP1 DUP1 DUP4 GT PUSH2 0x1C46 JUMPI JUMPDEST POP POP POP POP POP DUP2 MSTORE PUSH1 0x20 ADD SWAP1 PUSH1 0x1 ADD SWAP1 PUSH2 0x1C15 JUMP JUMPDEST POP POP POP POP PUSH2 0x33D6 JUMP JUMPDEST SWAP1 POP PUSH2 0x1C83 PUSH1 0x1 PUSH2 0x1EBF JUMP JUMPDEST PUSH1 0x0 JUMPDEST DUP2 DUP2 LT ISZERO PUSH2 0x1E3A JUMPI JUMPDEST PUSH1 0x48 PUSH1 0x1 PUSH1 0x4 DUP2 LT PUSH2 0x1CA4 JUMPI PUSH2 0x1CA3 PUSH2 0x42BE JUMP JUMPDEST JUMPDEST PUSH1 0x2 MUL ADD PUSH1 0x0 PUSH1 0x2 DUP2 LT PUSH2 0x1CBB JUMPI PUSH2 0x1CBA PUSH2 0x42BE JUMP JUMPDEST JUMPDEST ADD SLOAD PUSH1 0x8 DUP3 PUSH1 0x10 DUP2 LT PUSH2 0x1CD1 JUMPI PUSH2 0x1CD0 PUSH2 0x42BE JUMP JUMPDEST JUMPDEST PUSH1 0x2 MUL ADD PUSH1 0x0 PUSH1 0x2 DUP2 LT PUSH2 0x1CE8 JUMPI PUSH2 0x1CE7 PUSH2 0x42BE JUMP JUMPDEST JUMPDEST ADD SLOAD EQ DUP1 PUSH2 0x1D4E JUMPI POP PUSH1 0x48 PUSH1 0x1 PUSH1 0x4 DUP2 LT PUSH2 0x1D06 JUMPI PUSH2 0x1D05 PUSH2 0x42BE JUMP JUMPDEST JUMPDEST PUSH1 0x2 MUL ADD PUSH1 0x0 PUSH1 0x2 DUP2 LT PUSH2 0x1D1D JUMPI PUSH2 0x1D1C PUSH2 0x42BE JUMP JUMPDEST JUMPDEST ADD SLOAD PUSH1 0x28 DUP3 PUSH1 0x10 DUP2 LT PUSH2 0x1D33 JUMPI PUSH2 0x1D32 PUSH2 0x42BE JUMP JUMPDEST JUMPDEST PUSH1 0x2 MUL ADD PUSH1 0x0 PUSH1 0x2 DUP2 LT PUSH2 0x1D4A JUMPI PUSH2 0x1D49 PUSH2 0x42BE JUMP JUMPDEST JUMPDEST ADD SLOAD EQ JUMPDEST ISZERO PUSH2 0x1E27 JUMPI PUSH1 0x48 PUSH1 0x1 PUSH1 0x4 DUP2 LT PUSH2 0x1D68 JUMPI PUSH2 0x1D67 PUSH2 0x42BE JUMP JUMPDEST JUMPDEST PUSH1 0x2 MUL ADD PUSH1 0x1 PUSH1 0x2 DUP2 LT PUSH2 0x1D7F JUMPI PUSH2 0x1D7E PUSH2 0x42BE JUMP JUMPDEST JUMPDEST ADD SLOAD PUSH1 0x8 DUP3 PUSH1 0x10 DUP2 LT PUSH2 0x1D95 JUMPI PUSH2 0x1D94 PUSH2 0x42BE JUMP JUMPDEST JUMPDEST PUSH1 0x2 MUL ADD PUSH1 0x1 PUSH1 0x2 DUP2 LT PUSH2 0x1DAC JUMPI PUSH2 0x1DAB PUSH2 0x42BE JUMP JUMPDEST JUMPDEST ADD SLOAD EQ DUP1 PUSH2 0x1E12 JUMPI POP PUSH1 0x48 PUSH1 0x1 PUSH1 0x4 DUP2 LT PUSH2 0x1DCA JUMPI PUSH2 0x1DC9 PUSH2 0x42BE JUMP JUMPDEST JUMPDEST PUSH1 0x2 MUL ADD PUSH1 0x1 PUSH1 0x2 DUP2 LT PUSH2 0x1DE1 JUMPI PUSH2 0x1DE0 PUSH2 0x42BE JUMP JUMPDEST JUMPDEST ADD SLOAD PUSH1 0x28 DUP3 PUSH1 0x10 DUP2 LT PUSH2 0x1DF7 JUMPI PUSH2 0x1DF6 PUSH2 0x42BE JUMP JUMPDEST JUMPDEST PUSH1 0x2 MUL ADD PUSH1 0x1 PUSH1 0x2 DUP2 LT PUSH2 0x1E0E JUMPI PUSH2 0x1E0D PUSH2 0x42BE JUMP JUMPDEST JUMPDEST ADD SLOAD EQ JUMPDEST ISZERO PUSH2 0x1E22 JUMPI PUSH2 0x1E21 PUSH1 0x1 PUSH2 0x1EBF JUMP JUMPDEST JUMPDEST PUSH2 0x1C8F JUMP JUMPDEST DUP1 DUP1 PUSH2 0x1E32 SWAP1 PUSH2 0x42ED JUMP JUMPDEST SWAP2 POP POP PUSH2 0x1C86 JUMP JUMPDEST POP PUSH2 0x1EAC PUSH1 0x48 PUSH1 0x1 PUSH1 0x4 DUP2 LT PUSH2 0x1E53 JUMPI PUSH2 0x1E52 PUSH2 0x42BE JUMP JUMPDEST JUMPDEST PUSH1 0x2 MUL ADD PUSH1 0x0 PUSH1 0x2 DUP2 LT PUSH2 0x1E6A JUMPI PUSH2 0x1E69 PUSH2 0x42BE JUMP JUMPDEST JUMPDEST ADD SLOAD PUSH1 0x48 PUSH1 0x1 PUSH1 0x4 DUP2 LT PUSH2 0x1E81 JUMPI PUSH2 0x1E80 PUSH2 0x42BE JUMP JUMPDEST JUMPDEST PUSH1 0x2 MUL ADD PUSH1 0x1 PUSH1 0x2 DUP2 LT PUSH2 0x1E98 JUMPI PUSH2 0x1E97 PUSH2 0x42BE JUMP JUMPDEST JUMPDEST ADD SLOAD PUSH1 0x1 DUP5 PUSH2 0x1EA7 SWAP2 SWAP1 PUSH2 0x41F8 JUMP JUMPDEST PUSH2 0x26CF JUMP JUMPDEST PUSH2 0x1EB4 PUSH2 0x28A5 JUMP JUMPDEST PUSH2 0x1EBC PUSH2 0x2F3E JUMP JUMPDEST POP JUMP JUMPDEST PUSH1 0x0 PUSH1 0x1 SWAP1 POP JUMPDEST DUP2 DUP2 GT PUSH2 0x26CB JUMPI PUSH1 0x0 PUSH1 0x3 SWAP1 POP PUSH1 0x0 PUSH1 0x4 SWAP1 POP PUSH1 0x0 PUSH1 0x7 DUP2 SWAP1 SSTORE POP PUSH1 0x0 PUSH1 0x6 DUP2 SWAP1 SSTORE POP PUSH2 0x1EF1 PUSH2 0x344E JUMP JUMPDEST PUSH1 0x5 DUP2 SWAP1 SSTORE POP PUSH2 0x1F02 PUSH1 0x5 SLOAD PUSH2 0x3502 JUMP JUMPDEST PUSH1 0x60 SWAP1 DUP2 PUSH2 0x1F10 SWAP2 SWAP1 PUSH2 0x4846 JUMP JUMPDEST POP PUSH2 0x1FA6 DUP3 DUP3 PUSH1 0x60 DUP1 SLOAD PUSH2 0x1F23 SWAP1 PUSH2 0x4669 JUMP JUMPDEST DUP1 PUSH1 0x1F ADD PUSH1 0x20 DUP1 SWAP2 DIV MUL PUSH1 0x20 ADD PUSH1 0x40 MLOAD SWAP1 DUP2 ADD PUSH1 0x40 MSTORE DUP1 SWAP3 SWAP2 SWAP1 DUP2 DUP2 MSTORE PUSH1 0x20 ADD DUP3 DUP1 SLOAD PUSH2 0x1F4F SWAP1 PUSH2 0x4669 JUMP JUMPDEST DUP1 ISZERO PUSH2 0x1F9C JUMPI DUP1 PUSH1 0x1F LT PUSH2 0x1F71 JUMPI PUSH2 0x100 DUP1 DUP4 SLOAD DIV MUL DUP4 MSTORE SWAP2 PUSH1 0x20 ADD SWAP2 PUSH2 0x1F9C JUMP JUMPDEST DUP3 ADD SWAP2 SWAP1 PUSH1 0x0 MSTORE PUSH1 0x20 PUSH1 0x0 KECCAK256 SWAP1 JUMPDEST DUP2 SLOAD DUP2 MSTORE SWAP1 PUSH1 0x1 ADD SWAP1 PUSH1 0x20 ADD DUP1 DUP4 GT PUSH2 0x1F7F JUMPI DUP3 SWAP1 SUB PUSH1 0x1F AND DUP3 ADD SWAP2 JUMPDEST POP POP POP POP POP PUSH2 0x35D0 JUMP JUMPDEST PUSH1 0x61 SWAP1 DUP2 PUSH2 0x1FB4 SWAP2 SWAP1 PUSH2 0x4846 JUMP JUMPDEST POP PUSH2 0x2048 PUSH1 0x61 DUP1 SLOAD PUSH2 0x1FC5 SWAP1 PUSH2 0x4669 JUMP JUMPDEST DUP1 PUSH1 0x1F ADD PUSH1 0x20 DUP1 SWAP2 DIV MUL PUSH1 0x20 ADD PUSH1 0x40 MLOAD SWAP1 DUP2 ADD PUSH1 0x40 MSTORE DUP1 SWAP3 SWAP2 SWAP1 DUP2 DUP2 MSTORE PUSH1 0x20 ADD DUP3 DUP1 SLOAD PUSH2 0x1FF1 SWAP1 PUSH2 0x4669 JUMP JUMPDEST DUP1 ISZERO PUSH2 0x203E JUMPI DUP1 PUSH1 0x1F LT PUSH2 0x2013 JUMPI PUSH2 0x100 DUP1 DUP4 SLOAD DIV MUL DUP4 MSTORE SWAP2 PUSH1 0x20 ADD SWAP2 PUSH2 0x203E JUMP JUMPDEST DUP3 ADD SWAP2 SWAP1 PUSH1 0x0 MSTORE PUSH1 0x20 PUSH1 0x0 KECCAK256 SWAP1 JUMPDEST DUP2 SLOAD DUP2 MSTORE SWAP1 PUSH1 0x1 ADD SWAP1 PUSH1 0x20 ADD DUP1 DUP4 GT PUSH2 0x2021 JUMPI DUP3 SWAP1 SUB PUSH1 0x1F AND DUP3 ADD SWAP2 JUMPDEST POP POP POP POP POP PUSH2 0x36E5 JUMP JUMPDEST PUSH1 0x5 DUP2 SWAP1 SSTORE POP PUSH1 0x60 DUP1 SLOAD PUSH2 0x205B SWAP1 PUSH2 0x4669 JUMP JUMPDEST SWAP1 POP PUSH1 0x62 DUP2 SWAP1 SSTORE POP JUMPDEST PUSH1 0x1 PUSH1 0x5 SLOAD LT DUP1 PUSH2 0x2077 JUMPI POP PUSH1 0xD PUSH1 0x5 SLOAD GT JUMPDEST ISZERO PUSH2 0x2375 JUMPI PUSH1 0x2 DUP3 PUSH2 0x2089 SWAP2 SWAP1 PUSH2 0x41F8 JUMP JUMPDEST SWAP2 POP PUSH1 0x2 DUP2 PUSH2 0x2098 SWAP2 SWAP1 PUSH2 0x41F8 JUMP JUMPDEST SWAP1 POP PUSH2 0x212F DUP3 DUP3 PUSH1 0x60 DUP1 SLOAD PUSH2 0x20AC SWAP1 PUSH2 0x4669 JUMP JUMPDEST DUP1 PUSH1 0x1F ADD PUSH1 0x20 DUP1 SWAP2 DIV MUL PUSH1 0x20 ADD PUSH1 0x40 MLOAD SWAP1 DUP2 ADD PUSH1 0x40 MSTORE DUP1 SWAP3 SWAP2 SWAP1 DUP2 DUP2 MSTORE PUSH1 0x20 ADD DUP3 DUP1 SLOAD PUSH2 0x20D8 SWAP1 PUSH2 0x4669 JUMP JUMPDEST DUP1 ISZERO PUSH2 0x2125 JUMPI DUP1 PUSH1 0x1F LT PUSH2 0x20FA JUMPI PUSH2 0x100 DUP1 DUP4 SLOAD DIV MUL DUP4 MSTORE SWAP2 PUSH1 0x20 ADD SWAP2 PUSH2 0x2125 JUMP JUMPDEST DUP3 ADD SWAP2 SWAP1 PUSH1 0x0 MSTORE PUSH1 0x20 PUSH1 0x0 KECCAK256 SWAP1 JUMPDEST DUP2 SLOAD DUP2 MSTORE SWAP1 PUSH1 0x1 ADD SWAP1 PUSH1 0x20 ADD DUP1 DUP4 GT PUSH2 0x2108 JUMPI DUP3 SWAP1 SUB PUSH1 0x1F AND DUP3 ADD SWAP2 JUMPDEST POP POP POP POP POP PUSH2 0x35D0 JUMP JUMPDEST PUSH1 0x61 SWAP1 DUP2 PUSH2 0x213D SWAP2 SWAP1 PUSH2 0x4846 JUMP JUMPDEST POP PUSH2 0x21D1 PUSH1 0x61 DUP1 SLOAD PUSH2 0x214E SWAP1 PUSH2 0x4669 JUMP JUMPDEST DUP1 PUSH1 0x1F ADD PUSH1 0x20 DUP1 SWAP2 DIV MUL PUSH1 0x20 ADD PUSH1 0x40 MLOAD SWAP1 DUP2 ADD PUSH1 0x40 MSTORE DUP1 SWAP3 SWAP2 SWAP1 DUP2 DUP2 MSTORE PUSH1 0x20 ADD DUP3 DUP1 SLOAD PUSH2 0x217A SWAP1 PUSH2 0x4669 JUMP JUMPDEST DUP1 ISZERO PUSH2 0x21C7 JUMPI DUP1 PUSH1 0x1F LT PUSH2 0x219C JUMPI PUSH2 0x100 DUP1 DUP4 SLOAD DIV MUL DUP4 MSTORE SWAP2 PUSH1 0x20 ADD SWAP2 PUSH2 0x21C7 JUMP JUMPDEST DUP3 ADD SWAP2 SWAP1 PUSH1 0x0 MSTORE PUSH1 0x20 PUSH1 0x0 KECCAK256 SWAP1 JUMPDEST DUP2 SLOAD DUP2 MSTORE SWAP1 PUSH1 0x1 ADD SWAP1 PUSH1 0x20 ADD DUP1 DUP4 GT PUSH2 0x21AA JUMPI DUP3 SWAP1 SUB PUSH1 0x1F AND DUP3 ADD SWAP2 JUMPDEST POP POP POP POP POP PUSH2 0x36E5 JUMP JUMPDEST PUSH1 0x5 DUP2 SWAP1 SSTORE POP PUSH1 0x3 PUSH1 0x62 SLOAD PUSH2 0x21E6 SWAP2 SWAP1 PUSH2 0x400E JUMP JUMPDEST DUP3 GT ISZERO PUSH2 0x2370 JUMPI PUSH1 0x3 SWAP2 POP PUSH1 0x4 SWAP1 POP PUSH2 0x21FD PUSH2 0x344E JUMP JUMPDEST PUSH1 0x5 DUP2 SWAP1 SSTORE POP PUSH2 0x220E PUSH1 0x5 SLOAD PUSH2 0x3502 JUMP JUMPDEST PUSH1 0x60 SWAP1 DUP2 PUSH2 0x221C SWAP2 SWAP1 PUSH2 0x4846 JUMP JUMPDEST POP PUSH2 0x22B2 DUP3 DUP3 PUSH1 0x60 DUP1 SLOAD PUSH2 0x222F SWAP1 PUSH2 0x4669 JUMP JUMPDEST DUP1 PUSH1 0x1F ADD PUSH1 0x20 DUP1 SWAP2 DIV MUL PUSH1 0x20 ADD PUSH1 0x40 MLOAD SWAP1 DUP2 ADD PUSH1 0x40 MSTORE DUP1 SWAP3 SWAP2 SWAP1 DUP2 DUP2 MSTORE PUSH1 0x20 ADD DUP3 DUP1 SLOAD PUSH2 0x225B SWAP1 PUSH2 0x4669 JUMP JUMPDEST DUP1 ISZERO PUSH2 0x22A8 JUMPI DUP1 PUSH1 0x1F LT PUSH2 0x227D JUMPI PUSH2 0x100 DUP1 DUP4 SLOAD DIV MUL DUP4 MSTORE SWAP2 PUSH1 0x20 ADD SWAP2 PUSH2 0x22A8 JUMP JUMPDEST DUP3 ADD SWAP2 SWAP1 PUSH1 0x0 MSTORE PUSH1 0x20 PUSH1 0x0 KECCAK256 SWAP1 JUMPDEST DUP2 SLOAD DUP2 MSTORE SWAP1 PUSH1 0x1 ADD SWAP1 PUSH1 0x20 ADD DUP1 DUP4 GT PUSH2 0x228B JUMPI DUP3 SWAP1 SUB PUSH1 0x1F AND DUP3 ADD SWAP2 JUMPDEST POP POP POP POP POP PUSH2 0x35D0 JUMP JUMPDEST PUSH1 0x61 SWAP1 DUP2 PUSH2 0x22C0 SWAP2 SWAP1 PUSH2 0x4846 JUMP JUMPDEST POP PUSH2 0x2354 PUSH1 0x61 DUP1 SLOAD PUSH2 0x22D1 SWAP1 PUSH2 0x4669 JUMP JUMPDEST DUP1 PUSH1 0x1F ADD PUSH1 0x20 DUP1 SWAP2 DIV MUL PUSH1 0x20 ADD PUSH1 0x40 MLOAD SWAP1 DUP2 ADD PUSH1 0x40 MSTORE DUP1 SWAP3 SWAP2 SWAP1 DUP2 DUP2 MSTORE PUSH1 0x20 ADD DUP3 DUP1 SLOAD PUSH2 0x22FD SWAP1 PUSH2 0x4669 JUMP JUMPDEST DUP1 ISZERO PUSH2 0x234A JUMPI DUP1 PUSH1 0x1F LT PUSH2 0x231F JUMPI PUSH2 0x100 DUP1 DUP4 SLOAD DIV MUL DUP4 MSTORE SWAP2 PUSH1 0x20 ADD SWAP2 PUSH2 0x234A JUMP JUMPDEST DUP3 ADD SWAP2 SWAP1 PUSH1 0x0 MSTORE PUSH1 0x20 PUSH1 0x0 KECCAK256 SWAP1 JUMPDEST DUP2 SLOAD DUP2 MSTORE SWAP1 PUSH1 0x1 ADD SWAP1 PUSH1 0x20 ADD DUP1 DUP4 GT PUSH2 0x232D JUMPI DUP3 SWAP1 SUB PUSH1 0x1F AND DUP3 ADD SWAP2 JUMPDEST POP POP POP POP POP PUSH2 0x36E5 JUMP JUMPDEST PUSH1 0x5 DUP2 SWAP1 SSTORE POP PUSH1 0x60 DUP1 SLOAD PUSH2 0x2367 SWAP1 PUSH2 0x4669 JUMP JUMPDEST SWAP1 POP PUSH1 0x62 DUP2 SWAP1 SSTORE POP JUMPDEST PUSH2 0x2064 JUMP JUMPDEST PUSH1 0x5 SLOAD PUSH1 0x7 DUP2 SWAP1 SSTORE POP PUSH1 0x2 DUP3 PUSH2 0x238B SWAP2 SWAP1 PUSH2 0x41F8 JUMP JUMPDEST SWAP2 POP PUSH1 0x2 DUP2 PUSH2 0x239A SWAP2 SWAP1 PUSH2 0x41F8 JUMP JUMPDEST SWAP1 POP PUSH2 0x2431 DUP3 DUP3 PUSH1 0x60 DUP1 SLOAD PUSH2 0x23AE SWAP1 PUSH2 0x4669 JUMP JUMPDEST DUP1 PUSH1 0x1F ADD PUSH1 0x20 DUP1 SWAP2 DIV MUL PUSH1 0x20 ADD PUSH1 0x40 MLOAD SWAP1 DUP2 ADD PUSH1 0x40 MSTORE DUP1 SWAP3 SWAP2 SWAP1 DUP2 DUP2 MSTORE PUSH1 0x20 ADD DUP3 DUP1 SLOAD PUSH2 0x23DA SWAP1 PUSH2 0x4669 JUMP JUMPDEST DUP1 ISZERO PUSH2 0x2427 JUMPI DUP1 PUSH1 0x1F LT PUSH2 0x23FC JUMPI PUSH2 0x100 DUP1 DUP4 SLOAD DIV MUL DUP4 MSTORE SWAP2 PUSH1 0x20 ADD SWAP2 PUSH2 0x2427 JUMP JUMPDEST DUP3 ADD SWAP2 SWAP1 PUSH1 0x0 MSTORE PUSH1 0x20 PUSH1 0x0 KECCAK256 SWAP1 JUMPDEST DUP2 SLOAD DUP2 MSTORE SWAP1 PUSH1 0x1 ADD SWAP1 PUSH1 0x20 ADD DUP1 DUP4 GT PUSH2 0x240A JUMPI DUP3 SWAP1 SUB PUSH1 0x1F AND DUP3 ADD SWAP2 JUMPDEST POP POP POP POP POP PUSH2 0x35D0 JUMP JUMPDEST PUSH1 0x61 SWAP1 DUP2 PUSH2 0x243F SWAP2 SWAP1 PUSH2 0x4846 JUMP JUMPDEST POP PUSH2 0x24D3 PUSH1 0x61 DUP1 SLOAD PUSH2 0x2450 SWAP1 PUSH2 0x4669 JUMP JUMPDEST DUP1 PUSH1 0x1F ADD PUSH1 0x20 DUP1 SWAP2 DIV MUL PUSH1 0x20 ADD PUSH1 0x40 MLOAD SWAP1 DUP2 ADD PUSH1 0x40 MSTORE DUP1 SWAP3 SWAP2 SWAP1 DUP2 DUP2 MSTORE PUSH1 0x20 ADD DUP3 DUP1 SLOAD PUSH2 0x247C SWAP1 PUSH2 0x4669 JUMP JUMPDEST DUP1 ISZERO PUSH2 0x24C9 JUMPI DUP1 PUSH1 0x1F LT PUSH2 0x249E JUMPI PUSH2 0x100 DUP1 DUP4 SLOAD DIV MUL DUP4 MSTORE SWAP2 PUSH1 0x20 ADD SWAP2 PUSH2 0x24C9 JUMP JUMPDEST DUP3 ADD SWAP2 SWAP1 PUSH1 0x0 MSTORE PUSH1 0x20 PUSH1 0x0 KECCAK256 SWAP1 JUMPDEST DUP2 SLOAD DUP2 MSTORE SWAP1 PUSH1 0x1 ADD SWAP1 PUSH1 0x20 ADD DUP1 DUP4 GT PUSH2 0x24AC JUMPI DUP3 SWAP1 SUB PUSH1 0x1F AND DUP3 ADD SWAP2 JUMPDEST POP POP POP POP POP PUSH2 0x36E5 JUMP JUMPDEST PUSH1 0x5 DUP2 SWAP1 SSTORE POP JUMPDEST PUSH1 0x1 PUSH1 0x5 SLOAD LT DUP1 PUSH2 0x24ED JUMPI POP PUSH1 0x4 PUSH1 0x5 SLOAD GT JUMPDEST ISZERO PUSH2 0x2646 JUMPI PUSH1 0x1 DUP3 PUSH2 0x24FF SWAP2 SWAP1 PUSH2 0x41F8 JUMP JUMPDEST SWAP2 POP DUP2 SWAP1 POP PUSH2 0x2599 DUP3 DUP3 PUSH1 0x60 DUP1 SLOAD PUSH2 0x2516 SWAP1 PUSH2 0x4669 JUMP JUMPDEST DUP1 PUSH1 0x1F ADD PUSH1 0x20 DUP1 SWAP2 DIV MUL PUSH1 0x20 ADD PUSH1 0x40 MLOAD SWAP1 DUP2 ADD PUSH1 0x40 MSTORE DUP1 SWAP3 SWAP2 SWAP1 DUP2 DUP2 MSTORE PUSH1 0x20 ADD DUP3 DUP1 SLOAD PUSH2 0x2542 SWAP1 PUSH2 0x4669 JUMP JUMPDEST DUP1 ISZERO PUSH2 0x258F JUMPI DUP1 PUSH1 0x1F LT PUSH2 0x2564 JUMPI PUSH2 0x100 DUP1 DUP4 SLOAD DIV MUL DUP4 MSTORE SWAP2 PUSH1 0x20 ADD SWAP2 PUSH2 0x258F JUMP JUMPDEST DUP3 ADD SWAP2 SWAP1 PUSH1 0x0 MSTORE PUSH1 0x20 PUSH1 0x0 KECCAK256 SWAP1 JUMPDEST DUP2 SLOAD DUP2 MSTORE SWAP1 PUSH1 0x1 ADD SWAP1 PUSH1 0x20 ADD DUP1 DUP4 GT PUSH2 0x2572 JUMPI DUP3 SWAP1 SUB PUSH1 0x1F AND DUP3 ADD SWAP2 JUMPDEST POP POP POP POP POP PUSH2 0x35D0 JUMP JUMPDEST PUSH1 0x61 SWAP1 DUP2 PUSH2 0x25A7 SWAP2 SWAP1 PUSH2 0x4846 JUMP JUMPDEST POP PUSH2 0x263B PUSH1 0x61 DUP1 SLOAD PUSH2 0x25B8 SWAP1 PUSH2 0x4669 JUMP JUMPDEST DUP1 PUSH1 0x1F ADD PUSH1 0x20 DUP1 SWAP2 DIV MUL PUSH1 0x20 ADD PUSH1 0x40 MLOAD SWAP1 DUP2 ADD PUSH1 0x40 MSTORE DUP1 SWAP3 SWAP2 SWAP1 DUP2 DUP2 MSTORE PUSH1 0x20 ADD DUP3 DUP1 SLOAD PUSH2 0x25E4 SWAP1 PUSH2 0x4669 JUMP JUMPDEST DUP1 ISZERO PUSH2 0x2631 JUMPI DUP1 PUSH1 0x1F LT PUSH2 0x2606 JUMPI PUSH2 0x100 DUP1 DUP4 SLOAD DIV MUL DUP4 MSTORE SWAP2 PUSH1 0x20 ADD SWAP2 PUSH2 0x2631 JUMP JUMPDEST DUP3 ADD SWAP2 SWAP1 PUSH1 0x0 MSTORE PUSH1 0x20 PUSH1 0x0 KECCAK256 SWAP1 JUMPDEST DUP2 SLOAD DUP2 MSTORE SWAP1 PUSH1 0x1 ADD SWAP1 PUSH1 0x20 ADD DUP1 DUP4 GT PUSH2 0x2614 JUMPI DUP3 SWAP1 SUB PUSH1 0x1F AND DUP3 ADD SWAP2 JUMPDEST POP POP POP POP POP PUSH2 0x36E5 JUMP JUMPDEST PUSH1 0x5 DUP2 SWAP1 SSTORE POP PUSH2 0x24DA JUMP JUMPDEST PUSH1 0x5 SLOAD PUSH1 0x6 DUP2 SWAP1 SSTORE POP PUSH1 0x7 SLOAD PUSH1 0x48 DUP5 PUSH1 0x4 DUP2 LT PUSH2 0x2666 JUMPI PUSH2 0x2665 PUSH2 0x42BE JUMP JUMPDEST JUMPDEST PUSH1 0x2 MUL ADD PUSH1 0x0 PUSH1 0x2 DUP2 LT PUSH2 0x267D JUMPI PUSH2 0x267C PUSH2 0x42BE JUMP JUMPDEST JUMPDEST ADD DUP2 SWAP1 SSTORE POP PUSH1 0x6 SLOAD PUSH1 0x48 DUP5 PUSH1 0x4 DUP2 LT PUSH2 0x2699 JUMPI PUSH2 0x2698 PUSH2 0x42BE JUMP JUMPDEST JUMPDEST PUSH1 0x2 MUL ADD PUSH1 0x1 PUSH1 0x2 DUP2 LT PUSH2 0x26B0 JUMPI PUSH2 0x26AF PUSH2 0x42BE JUMP JUMPDEST JUMPDEST ADD DUP2 SWAP1 SSTORE POP PUSH1 0x1 DUP4 PUSH2 0x26C2 SWAP2 SWAP1 PUSH2 0x41F8 JUMP JUMPDEST SWAP3 POP POP POP PUSH2 0x1EC6 JUMP JUMPDEST POP POP JUMP JUMPDEST DUP3 PUSH1 0x8 DUP3 PUSH1 0x10 DUP2 LT PUSH2 0x26E4 JUMPI PUSH2 0x26E3 PUSH2 0x42BE JUMP JUMPDEST JUMPDEST PUSH1 0x2 MUL ADD PUSH1 0x0 PUSH1 0x2 DUP2 LT PUSH2 0x26FB JUMPI PUSH2 0x26FA PUSH2 0x42BE JUMP JUMPDEST JUMPDEST ADD DUP2 SWAP1 SSTORE POP DUP2 PUSH1 0x8 DUP3 PUSH1 0x10 DUP2 LT PUSH2 0x2715 JUMPI PUSH2 0x2714 PUSH2 0x42BE JUMP JUMPDEST JUMPDEST PUSH1 0x2 MUL ADD PUSH1 0x1 PUSH1 0x2 DUP2 LT PUSH2 0x272C JUMPI PUSH2 0x272B PUSH2 0x42BE JUMP JUMPDEST JUMPDEST ADD DUP2 SWAP1 SSTORE POP PUSH2 0x27AF PUSH1 0x8 PUSH1 0x10 DUP1 PUSH1 0x20 MUL PUSH1 0x40 MLOAD SWAP1 DUP2 ADD PUSH1 0x40 MSTORE DUP1 SWAP3 SWAP2 SWAP1 PUSH1 0x0 SWAP1 JUMPDEST DUP3 DUP3 LT ISZERO PUSH2 0x27A6 JUMPI DUP4 DUP3 PUSH1 0x2 MUL ADD PUSH1 0x2 DUP1 PUSH1 0x20 MUL PUSH1 0x40 MLOAD SWAP1 DUP2 ADD PUSH1 0x40 MSTORE DUP1 SWAP3 SWAP2 SWAP1 DUP3 PUSH1 0x2 DUP1 ISZERO PUSH2 0x2792 JUMPI PUSH1 0x20 MUL DUP3 ADD SWAP2 JUMPDEST DUP2 SLOAD DUP2 MSTORE PUSH1 0x20 ADD SWAP1 PUSH1 0x1 ADD SWAP1 DUP1 DUP4 GT PUSH2 0x277E JUMPI JUMPDEST POP POP POP POP POP DUP2 MSTORE PUSH1 0x20 ADD SWAP1 PUSH1 0x1 ADD SWAP1 PUSH2 0x274D JUMP JUMPDEST POP POP POP POP PUSH2 0x33D6 JUMP JUMPDEST PUSH1 0x50 DUP2 SWAP1 SSTORE POP POP POP POP JUMP JUMPDEST DUP3 PUSH1 0x28 DUP3 PUSH1 0x10 DUP2 LT PUSH2 0x27CF JUMPI PUSH2 0x27CE PUSH2 0x42BE JUMP JUMPDEST JUMPDEST PUSH1 0x2 MUL ADD PUSH1 0x0 PUSH1 0x2 DUP2 LT PUSH2 0x27E6 JUMPI PUSH2 0x27E5 PUSH2 0x42BE JUMP JUMPDEST JUMPDEST ADD DUP2 SWAP1 SSTORE POP DUP2 PUSH1 0x28 DUP3 PUSH1 0x10 DUP2 LT PUSH2 0x2800 JUMPI PUSH2 0x27FF PUSH2 0x42BE JUMP JUMPDEST JUMPDEST PUSH1 0x2 MUL ADD PUSH1 0x1 PUSH1 0x2 DUP2 LT PUSH2 0x2817 JUMPI PUSH2 0x2816 PUSH2 0x42BE JUMP JUMPDEST JUMPDEST ADD DUP2 SWAP1 SSTORE POP PUSH2 0x289A PUSH1 0x28 PUSH1 0x10 DUP1 PUSH1 0x20 MUL PUSH1 0x40 MLOAD SWAP1 DUP2 ADD PUSH1 0x40 MSTORE DUP1 SWAP3 SWAP2 SWAP1 PUSH1 0x0 SWAP1 JUMPDEST DUP3 DUP3 LT ISZERO PUSH2 0x2891 JUMPI DUP4 DUP3 PUSH1 0x2 MUL ADD PUSH1 0x2 DUP1 PUSH1 0x20 MUL PUSH1 0x40 MLOAD SWAP1 DUP2 ADD PUSH1 0x40 MSTORE DUP1 SWAP3 SWAP2 SWAP1 DUP3 PUSH1 0x2 DUP1 ISZERO PUSH2 0x287D JUMPI PUSH1 0x20 MUL DUP3 ADD SWAP2 JUMPDEST DUP2 SLOAD DUP2 MSTORE PUSH1 0x20 ADD SWAP1 PUSH1 0x1 ADD SWAP1 DUP1 DUP4 GT PUSH2 0x2869 JUMPI JUMPDEST POP POP POP POP POP DUP2 MSTORE PUSH1 0x20 ADD SWAP1 PUSH1 0x1 ADD SWAP1 PUSH2 0x2838 JUMP JUMPDEST POP POP POP POP PUSH2 0x33D6 JUMP JUMPDEST PUSH1 0x51 DUP2 SWAP1 SSTORE POP POP POP POP JUMP JUMPDEST PUSH1 0x0 DUP1 PUSH2 0x2926 PUSH1 0x8 PUSH1 0x10 DUP1 PUSH1 0x20 MUL PUSH1 0x40 MLOAD SWAP1 DUP2 ADD PUSH1 0x40 MSTORE DUP1 SWAP3 SWAP2 SWAP1 PUSH1 0x0 SWAP1 JUMPDEST DUP3 DUP3 LT ISZERO PUSH2 0x291D JUMPI DUP4 DUP3 PUSH1 0x2 MUL ADD PUSH1 0x2 DUP1 PUSH1 0x20 MUL PUSH1 0x40 MLOAD SWAP1 DUP2 ADD PUSH1 0x40 MSTORE DUP1 SWAP3 SWAP2 SWAP1 DUP3 PUSH1 0x2 DUP1 ISZERO PUSH2 0x2909 JUMPI PUSH1 0x20 MUL DUP3 ADD SWAP2 JUMPDEST DUP2 SLOAD DUP2 MSTORE PUSH1 0x20 ADD SWAP1 PUSH1 0x1 ADD SWAP1 DUP1 DUP4 GT PUSH2 0x28F5 JUMPI JUMPDEST POP POP POP POP POP DUP2 MSTORE PUSH1 0x20 ADD SWAP1 PUSH1 0x1 ADD SWAP1 PUSH2 0x28C4 JUMP JUMPDEST POP POP POP POP PUSH2 0x33D6 JUMP JUMPDEST PUSH1 0x50 DUP2 SWAP1 SSTORE POP PUSH1 0x0 PUSH1 0x1 SWAP1 POP JUMPDEST PUSH1 0x50 SLOAD DUP2 GT PUSH2 0x2A3D JUMPI PUSH1 0x9 PUSH1 0x8 DUP3 PUSH1 0x10 DUP2 LT PUSH2 0x2952 JUMPI PUSH2 0x2951 PUSH2 0x42BE JUMP JUMPDEST JUMPDEST PUSH1 0x2 MUL ADD PUSH1 0x0 PUSH1 0x2 DUP2 LT PUSH2 0x2969 JUMPI PUSH2 0x2968 PUSH2 0x42BE JUMP JUMPDEST JUMPDEST ADD SLOAD GT ISZERO PUSH2 0x2981 JUMPI PUSH1 0xA DUP4 PUSH2 0x297E SWAP2 SWAP1 PUSH2 0x41F8 JUMP JUMPDEST SWAP3 POP JUMPDEST PUSH1 0xA PUSH1 0x8 DUP3 PUSH1 0x10 DUP2 LT PUSH2 0x2997 JUMPI PUSH2 0x2996 PUSH2 0x42BE JUMP JUMPDEST JUMPDEST PUSH1 0x2 MUL ADD PUSH1 0x0 PUSH1 0x2 DUP2 LT PUSH2 0x29AE JUMPI PUSH2 0x29AD PUSH2 0x42BE JUMP JUMPDEST JUMPDEST ADD SLOAD LT ISZERO PUSH2 0x29F1 JUMPI PUSH1 0x8 DUP2 PUSH1 0x10 DUP2 LT PUSH2 0x29CA JUMPI PUSH2 0x29C9 PUSH2 0x42BE JUMP JUMPDEST JUMPDEST PUSH1 0x2 MUL ADD PUSH1 0x0 PUSH1 0x2 DUP2 LT PUSH2 0x29E1 JUMPI PUSH2 0x29E0 PUSH2 0x42BE JUMP JUMPDEST JUMPDEST ADD SLOAD DUP4 PUSH2 0x29EE SWAP2 SWAP1 PUSH2 0x41F8 JUMP JUMPDEST SWAP3 POP JUMPDEST PUSH1 0x1 PUSH1 0x8 DUP3 PUSH1 0x10 DUP2 LT PUSH2 0x2A07 JUMPI PUSH2 0x2A06 PUSH2 0x42BE JUMP JUMPDEST JUMPDEST PUSH1 0x2 MUL ADD PUSH1 0x0 PUSH1 0x2 DUP2 LT PUSH2 0x2A1E JUMPI PUSH2 0x2A1D PUSH2 0x42BE JUMP JUMPDEST JUMPDEST ADD SLOAD SUB PUSH2 0x2A2A JUMPI PUSH1 0x1 SWAP2 POP JUMPDEST DUP1 DUP1 PUSH2 0x2A35 SWAP1 PUSH2 0x42ED JUMP JUMPDEST SWAP2 POP POP PUSH2 0x2933 JUMP JUMPDEST POP DUP2 PUSH1 0x54 PUSH1 0x1 PUSH1 0x2 DUP2 LT PUSH2 0x2A54 JUMPI PUSH2 0x2A53 PUSH2 0x42BE JUMP JUMPDEST JUMPDEST PUSH1 0x2 MUL ADD PUSH1 0x0 PUSH1 0x2 DUP2 LT PUSH2 0x2A6B JUMPI PUSH2 0x2A6A PUSH2 0x42BE JUMP JUMPDEST JUMPDEST ADD DUP2 SWAP1 SSTORE POP DUP2 PUSH1 0x54 PUSH1 0x1 PUSH1 0x2 DUP2 LT PUSH2 0x2A86 JUMPI PUSH2 0x2A85 PUSH2 0x42BE JUMP JUMPDEST JUMPDEST PUSH1 0x2 MUL ADD PUSH1 0x1 PUSH1 0x2 DUP2 LT PUSH2 0x2A9D JUMPI PUSH2 0x2A9C PUSH2 0x42BE JUMP JUMPDEST JUMPDEST ADD DUP2 SWAP1 SSTORE POP PUSH1 0x1 DUP2 SUB PUSH2 0x2B16 JUMPI PUSH1 0xA PUSH1 0x54 PUSH1 0x1 PUSH1 0x2 DUP2 LT PUSH2 0x2AC1 JUMPI PUSH2 0x2AC0 PUSH2 0x42BE JUMP JUMPDEST JUMPDEST PUSH1 0x2 MUL ADD PUSH1 0x1 PUSH1 0x2 DUP2 LT PUSH2 0x2AD8 JUMPI PUSH2 0x2AD7 PUSH2 0x42BE JUMP JUMPDEST JUMPDEST ADD SLOAD PUSH2 0x2AE4 SWAP2 SWAP1 PUSH2 0x41F8 JUMP JUMPDEST PUSH1 0x54 PUSH1 0x1 PUSH1 0x2 DUP2 LT PUSH2 0x2AF9 JUMPI PUSH2 0x2AF8 PUSH2 0x42BE JUMP JUMPDEST JUMPDEST PUSH1 0x2 MUL ADD PUSH1 0x1 PUSH1 0x2 DUP2 LT PUSH2 0x2B10 JUMPI PUSH2 0x2B0F PUSH2 0x42BE JUMP JUMPDEST JUMPDEST ADD DUP2 SWAP1 SSTORE POP JUMPDEST POP POP JUMP JUMPDEST PUSH1 0x0 DUP1 PUSH2 0x2B9B PUSH1 0x28 PUSH1 0x10 DUP1 PUSH1 0x20 MUL PUSH1 0x40 MLOAD SWAP1 DUP2 ADD PUSH1 0x40 MSTORE DUP1 SWAP3 SWAP2 SWAP1 PUSH1 0x0 SWAP1 JUMPDEST DUP3 DUP3 LT ISZERO PUSH2 0x2B92 JUMPI DUP4 DUP3 PUSH1 0x2 MUL ADD PUSH1 0x2 DUP1 PUSH1 0x20 MUL PUSH1 0x40 MLOAD SWAP1 DUP2 ADD PUSH1 0x40 MSTORE DUP1 SWAP3 SWAP2 SWAP1 DUP3 PUSH1 0x2 DUP1 ISZERO PUSH2 0x2B7E JUMPI PUSH1 0x20 MUL DUP3 ADD SWAP2 JUMPDEST DUP2 SLOAD DUP2 MSTORE PUSH1 0x20 ADD SWAP1 PUSH1 0x1 ADD SWAP1 DUP1 DUP4 GT PUSH2 0x2B6A JUMPI JUMPDEST POP POP POP POP POP DUP2 MSTORE PUSH1 0x20 ADD SWAP1 PUSH1 0x1 ADD SWAP1 PUSH2 0x2B39 JUMP JUMPDEST POP POP POP POP PUSH2 0x33D6 JUMP JUMPDEST PUSH1 0x51 DUP2 SWAP1 SSTORE POP PUSH1 0x0 PUSH1 0x1 SWAP1 POP JUMPDEST PUSH1 0x51 SLOAD DUP2 GT PUSH2 0x2CB2 JUMPI PUSH1 0x9 PUSH1 0x28 DUP3 PUSH1 0x10 DUP2 LT PUSH2 0x2BC7 JUMPI PUSH2 0x2BC6 PUSH2 0x42BE JUMP JUMPDEST JUMPDEST PUSH1 0x2 MUL ADD PUSH1 0x0 PUSH1 0x2 DUP2 LT PUSH2 0x2BDE JUMPI PUSH2 0x2BDD PUSH2 0x42BE JUMP JUMPDEST JUMPDEST ADD SLOAD GT ISZERO PUSH2 0x2BF6 JUMPI PUSH1 0xA DUP4 PUSH2 0x2BF3 SWAP2 SWAP1 PUSH2 0x41F8 JUMP JUMPDEST SWAP3 POP JUMPDEST PUSH1 0xA PUSH1 0x28 DUP3 PUSH1 0x10 DUP2 LT PUSH2 0x2C0C JUMPI PUSH2 0x2C0B PUSH2 0x42BE JUMP JUMPDEST JUMPDEST PUSH1 0x2 MUL ADD PUSH1 0x0 PUSH1 0x2 DUP2 LT PUSH2 0x2C23 JUMPI PUSH2 0x2C22 PUSH2 0x42BE JUMP JUMPDEST JUMPDEST ADD SLOAD LT ISZERO PUSH2 0x2C66 JUMPI PUSH1 0x28 DUP2 PUSH1 0x10 DUP2 LT PUSH2 0x2C3F JUMPI PUSH2 0x2C3E PUSH2 0x42BE JUMP JUMPDEST JUMPDEST PUSH1 0x2 MUL ADD PUSH1 0x0 PUSH1 0x2 DUP2 LT PUSH2 0x2C56 JUMPI PUSH2 0x2C55 PUSH2 0x42BE JUMP JUMPDEST JUMPDEST ADD SLOAD DUP4 PUSH2 0x2C63 SWAP2 SWAP1 PUSH2 0x41F8 JUMP JUMPDEST SWAP3 POP JUMPDEST PUSH1 0x1 PUSH1 0x28 DUP3 PUSH1 0x10 DUP2 LT PUSH2 0x2C7C JUMPI PUSH2 0x2C7B PUSH2 0x42BE JUMP JUMPDEST JUMPDEST PUSH1 0x2 MUL ADD PUSH1 0x0 PUSH1 0x2 DUP2 LT PUSH2 0x2C93 JUMPI PUSH2 0x2C92 PUSH2 0x42BE JUMP JUMPDEST JUMPDEST ADD SLOAD SUB PUSH2 0x2C9F JUMPI PUSH1 0x1 SWAP2 POP JUMPDEST DUP1 DUP1 PUSH2 0x2CAA SWAP1 PUSH2 0x42ED JUMP JUMPDEST SWAP2 POP POP PUSH2 0x2BA8 JUMP JUMPDEST POP DUP2 PUSH1 0x58 PUSH1 0x1 PUSH1 0x2 DUP2 LT PUSH2 0x2CC9 JUMPI PUSH2 0x2CC8 PUSH2 0x42BE JUMP JUMPDEST JUMPDEST PUSH1 0x2 MUL ADD PUSH1 0x0 PUSH1 0x2 DUP2 LT PUSH2 0x2CE0 JUMPI PUSH2 0x2CDF PUSH2 0x42BE JUMP JUMPDEST JUMPDEST ADD DUP2 SWAP1 SSTORE POP DUP2 PUSH1 0x58 PUSH1 0x1 PUSH1 0x2 DUP2 LT PUSH2 0x2CFB JUMPI PUSH2 0x2CFA PUSH2 0x42BE JUMP JUMPDEST JUMPDEST PUSH1 0x2 MUL ADD PUSH1 0x1 PUSH1 0x2 DUP2 LT PUSH2 0x2D12 JUMPI PUSH2 0x2D11 PUSH2 0x42BE JUMP JUMPDEST JUMPDEST ADD DUP2 SWAP1 SSTORE POP PUSH1 0x1 DUP2 SUB PUSH2 0x2D8B JUMPI PUSH1 0xA PUSH1 0x58 PUSH1 0x1 PUSH1 0x2 DUP2 LT PUSH2 0x2D36 JUMPI PUSH2 0x2D35 PUSH2 0x42BE JUMP JUMPDEST JUMPDEST PUSH1 0x2 MUL ADD PUSH1 0x1 PUSH1 0x2 DUP2 LT PUSH2 0x2D4D JUMPI PUSH2 0x2D4C PUSH2 0x42BE JUMP JUMPDEST JUMPDEST ADD SLOAD PUSH2 0x2D59 SWAP2 SWAP1 PUSH2 0x41F8 JUMP JUMPDEST PUSH1 0x58 PUSH1 0x1 PUSH1 0x2 DUP2 LT PUSH2 0x2D6E JUMPI PUSH2 0x2D6D PUSH2 0x42BE JUMP JUMPDEST JUMPDEST PUSH1 0x2 MUL ADD PUSH1 0x1 PUSH1 0x2 DUP2 LT PUSH2 0x2D85 JUMPI PUSH2 0x2D84 PUSH2 0x42BE JUMP JUMPDEST JUMPDEST ADD DUP2 SWAP1 SSTORE POP JUMPDEST POP POP JUMP JUMPDEST PUSH1 0x15 PUSH1 0x58 PUSH1 0x1 PUSH1 0x2 DUP2 LT PUSH2 0x2DA6 JUMPI PUSH2 0x2DA5 PUSH2 0x42BE JUMP JUMPDEST JUMPDEST PUSH1 0x2 MUL ADD PUSH1 0x0 PUSH1 0x2 DUP2 LT PUSH2 0x2DBD JUMPI PUSH2 0x2DBC PUSH2 0x42BE JUMP JUMPDEST JUMPDEST ADD SLOAD GT DUP1 ISZERO PUSH2 0x2DF9 JUMPI POP PUSH1 0x15 PUSH1 0x58 PUSH1 0x1 PUSH1 0x2 DUP2 LT PUSH2 0x2DDE JUMPI PUSH2 0x2DDD PUSH2 0x42BE JUMP JUMPDEST JUMPDEST PUSH1 0x2 MUL ADD PUSH1 0x1 PUSH1 0x2 DUP2 LT PUSH2 0x2DF5 JUMPI PUSH2 0x2DF4 PUSH2 0x42BE JUMP JUMPDEST JUMPDEST ADD SLOAD GT JUMPDEST ISZERO PUSH2 0x2F3C JUMPI PUSH1 0x1 PUSH1 0x53 DUP2 SWAP1 SSTORE POP PUSH1 0x0 PUSH1 0x1 DUP2 SWAP1 SSTORE POP PUSH1 0x58 PUSH1 0x1 PUSH1 0x2 DUP2 LT PUSH2 0x2E23 JUMPI PUSH2 0x2E22 PUSH2 0x42BE JUMP JUMPDEST JUMPDEST PUSH1 0x2 MUL ADD PUSH1 0x1 PUSH1 0x2 DUP2 LT PUSH2 0x2E3A JUMPI PUSH2 0x2E39 PUSH2 0x42BE JUMP JUMPDEST JUMPDEST ADD SLOAD PUSH1 0x58 PUSH1 0x1 PUSH1 0x2 DUP2 LT PUSH2 0x2E51 JUMPI PUSH2 0x2E50 PUSH2 0x42BE JUMP JUMPDEST JUMPDEST PUSH1 0x2 MUL ADD PUSH1 0x0 PUSH1 0x2 DUP2 LT PUSH2 0x2E68 JUMPI PUSH2 0x2E67 PUSH2 0x42BE JUMP JUMPDEST JUMPDEST ADD SLOAD GT PUSH2 0x2EA4 JUMPI PUSH1 0x58 PUSH1 0x1 PUSH1 0x2 DUP2 LT PUSH2 0x2E84 JUMPI PUSH2 0x2E83 PUSH2 0x42BE JUMP JUMPDEST JUMPDEST PUSH1 0x2 MUL ADD PUSH1 0x0 PUSH1 0x2 DUP2 LT PUSH2 0x2E9B JUMPI PUSH2 0x2E9A PUSH2 0x42BE JUMP JUMPDEST JUMPDEST ADD SLOAD PUSH1 0x5D DUP2 SWAP1 SSTORE POP JUMPDEST PUSH1 0x58 PUSH1 0x1 PUSH1 0x2 DUP2 LT PUSH2 0x2EB9 JUMPI PUSH2 0x2EB8 PUSH2 0x42BE JUMP JUMPDEST JUMPDEST PUSH1 0x2 MUL ADD PUSH1 0x1 PUSH1 0x2 DUP2 LT PUSH2 0x2ED0 JUMPI PUSH2 0x2ECF PUSH2 0x42BE JUMP JUMPDEST JUMPDEST ADD SLOAD PUSH1 0x58 PUSH1 0x1 PUSH1 0x2 DUP2 LT PUSH2 0x2EE7 JUMPI PUSH2 0x2EE6 PUSH2 0x42BE JUMP JUMPDEST JUMPDEST PUSH1 0x2 MUL ADD PUSH1 0x0 PUSH1 0x2 DUP2 LT PUSH2 0x2EFE JUMPI PUSH2 0x2EFD PUSH2 0x42BE JUMP JUMPDEST JUMPDEST ADD SLOAD GT ISZERO PUSH2 0x2F3B JUMPI PUSH1 0x58 PUSH1 0x1 PUSH1 0x2 DUP2 LT PUSH2 0x2F1B JUMPI PUSH2 0x2F1A PUSH2 0x42BE JUMP JUMPDEST JUMPDEST PUSH1 0x2 MUL ADD PUSH1 0x1 PUSH1 0x2 DUP2 LT PUSH2 0x2F32 JUMPI PUSH2 0x2F31 PUSH2 0x42BE JUMP JUMPDEST JUMPDEST ADD SLOAD PUSH1 0x5D DUP2 SWAP1 SSTORE POP JUMPDEST JUMPDEST JUMP JUMPDEST PUSH1 0x15 PUSH1 0x54 PUSH1 0x1 PUSH1 0x2 DUP2 LT PUSH2 0x2F55 JUMPI PUSH2 0x2F54 PUSH2 0x42BE JUMP JUMPDEST JUMPDEST PUSH1 0x2 MUL ADD PUSH1 0x0 PUSH1 0x2 DUP2 LT PUSH2 0x2F6C JUMPI PUSH2 0x2F6B PUSH2 0x42BE JUMP JUMPDEST JUMPDEST ADD SLOAD GT DUP1 ISZERO PUSH2 0x2FA8 JUMPI POP PUSH1 0x15 PUSH1 0x54 PUSH1 0x1 PUSH1 0x2 DUP2 LT PUSH2 0x2F8D JUMPI PUSH2 0x2F8C PUSH2 0x42BE JUMP JUMPDEST JUMPDEST PUSH1 0x2 MUL ADD PUSH1 0x1 PUSH1 0x2 DUP2 LT PUSH2 0x2FA4 JUMPI PUSH2 0x2FA3 PUSH2 0x42BE JUMP JUMPDEST JUMPDEST ADD SLOAD GT JUMPDEST ISZERO PUSH2 0x30EB JUMPI PUSH1 0x1 PUSH1 0x52 DUP2 SWAP1 SSTORE POP PUSH1 0x0 PUSH1 0x1 DUP2 SWAP1 SSTORE POP PUSH1 0x54 PUSH1 0x1 PUSH1 0x2 DUP2 LT PUSH2 0x2FD2 JUMPI PUSH2 0x2FD1 PUSH2 0x42BE JUMP JUMPDEST JUMPDEST PUSH1 0x2 MUL ADD PUSH1 0x1 PUSH1 0x2 DUP2 LT PUSH2 0x2FE9 JUMPI PUSH2 0x2FE8 PUSH2 0x42BE JUMP JUMPDEST JUMPDEST ADD SLOAD PUSH1 0x54 PUSH1 0x1 PUSH1 0x2 DUP2 LT PUSH2 0x3000 JUMPI PUSH2 0x2FFF PUSH2 0x42BE JUMP JUMPDEST JUMPDEST PUSH1 0x2 MUL ADD PUSH1 0x0 PUSH1 0x2 DUP2 LT PUSH2 0x3017 JUMPI PUSH2 0x3016 PUSH2 0x42BE JUMP JUMPDEST JUMPDEST ADD SLOAD GT PUSH2 0x3053 JUMPI PUSH1 0x54 PUSH1 0x1 PUSH1 0x2 DUP2 LT PUSH2 0x3033 JUMPI PUSH2 0x3032 PUSH2 0x42BE JUMP JUMPDEST JUMPDEST PUSH1 0x2 MUL ADD PUSH1 0x0 PUSH1 0x2 DUP2 LT PUSH2 0x304A JUMPI PUSH2 0x3049 PUSH2 0x42BE JUMP JUMPDEST JUMPDEST ADD SLOAD PUSH1 0x5C DUP2 SWAP1 SSTORE POP JUMPDEST PUSH1 0x54 PUSH1 0x1 PUSH1 0x2 DUP2 LT PUSH2 0x3068 JUMPI PUSH2 0x3067 PUSH2 0x42BE JUMP JUMPDEST JUMPDEST PUSH1 0x2 MUL ADD PUSH1 0x1 PUSH1 0x2 DUP2 LT PUSH2 0x307F JUMPI PUSH2 0x307E PUSH2 0x42BE JUMP JUMPDEST JUMPDEST ADD SLOAD PUSH1 0x54 PUSH1 0x1 PUSH1 0x2 DUP2 LT PUSH2 0x3096 JUMPI PUSH2 0x3095 PUSH2 0x42BE JUMP JUMPDEST JUMPDEST PUSH1 0x2 MUL ADD PUSH1 0x0 PUSH1 0x2 DUP2 LT PUSH2 0x30AD JUMPI PUSH2 0x30AC PUSH2 0x42BE JUMP JUMPDEST JUMPDEST ADD SLOAD GT ISZERO PUSH2 0x30EA JUMPI PUSH1 0x54 PUSH1 0x1 PUSH1 0x2 DUP2 LT PUSH2 0x30CA JUMPI PUSH2 0x30C9 PUSH2 0x42BE JUMP JUMPDEST JUMPDEST PUSH1 0x2 MUL ADD PUSH1 0x1 PUSH1 0x2 DUP2 LT PUSH2 0x30E1 JUMPI PUSH2 0x30E0 PUSH2 0x42BE JUMP JUMPDEST JUMPDEST ADD SLOAD PUSH1 0x5C DUP2 SWAP1 SSTORE POP JUMPDEST JUMPDEST PUSH1 0x15 PUSH1 0x54 PUSH1 0x1 PUSH1 0x2 DUP2 LT PUSH2 0x3102 JUMPI PUSH2 0x3101 PUSH2 0x42BE JUMP JUMPDEST JUMPDEST PUSH1 0x2 MUL ADD PUSH1 0x0 PUSH1 0x2 DUP2 LT PUSH2 0x3119 JUMPI PUSH2 0x3118 PUSH2 0x42BE JUMP JUMPDEST JUMPDEST ADD SLOAD GT ISZERO DUP1 ISZERO PUSH2 0x3156 JUMPI POP PUSH1 0x15 PUSH1 0x54 PUSH1 0x1 PUSH1 0x2 DUP2 LT PUSH2 0x313B JUMPI PUSH2 0x313A PUSH2 0x42BE JUMP JUMPDEST JUMPDEST PUSH1 0x2 MUL ADD PUSH1 0x1 PUSH1 0x2 DUP2 LT PUSH2 0x3152 JUMPI PUSH2 0x3151 PUSH2 0x42BE JUMP JUMPDEST JUMPDEST ADD SLOAD GT JUMPDEST ISZERO PUSH2 0x3190 JUMPI PUSH1 0x54 PUSH1 0x1 PUSH1 0x2 DUP2 LT PUSH2 0x3170 JUMPI PUSH2 0x316F PUSH2 0x42BE JUMP JUMPDEST JUMPDEST PUSH1 0x2 MUL ADD PUSH1 0x0 PUSH1 0x2 DUP2 LT PUSH2 0x3187 JUMPI PUSH2 0x3186 PUSH2 0x42BE JUMP JUMPDEST JUMPDEST ADD SLOAD PUSH1 0x5C DUP2 SWAP1 SSTORE POP JUMPDEST PUSH1 0x15 PUSH1 0x54 PUSH1 0x1 PUSH1 0x2 DUP2 LT PUSH2 0x31A7 JUMPI PUSH2 0x31A6 PUSH2 0x42BE JUMP JUMPDEST JUMPDEST PUSH1 0x2 MUL ADD PUSH1 0x0 PUSH1 0x2 DUP2 LT PUSH2 0x31BE JUMPI PUSH2 0x31BD PUSH2 0x42BE JUMP JUMPDEST JUMPDEST ADD SLOAD GT DUP1 ISZERO PUSH2 0x31FB JUMPI POP PUSH1 0x15 PUSH1 0x54 PUSH1 0x1 PUSH1 0x2 DUP2 LT PUSH2 0x31DF JUMPI PUSH2 0x31DE PUSH2 0x42BE JUMP JUMPDEST JUMPDEST PUSH1 0x2 MUL ADD PUSH1 0x1 PUSH1 0x2 DUP2 LT PUSH2 0x31F6 JUMPI PUSH2 0x31F5 PUSH2 0x42BE JUMP JUMPDEST JUMPDEST ADD SLOAD GT ISZERO JUMPDEST ISZERO PUSH2 0x3235 JUMPI PUSH1 0x54 PUSH1 0x1 PUSH1 0x2 DUP2 LT PUSH2 0x3215 JUMPI PUSH2 0x3214 PUSH2 0x42BE JUMP JUMPDEST JUMPDEST PUSH1 0x2 MUL ADD PUSH1 0x1 PUSH1 0x2 DUP2 LT PUSH2 0x322C JUMPI PUSH2 0x322B PUSH2 0x42BE JUMP JUMPDEST JUMPDEST ADD SLOAD PUSH1 0x5C DUP2 SWAP1 SSTORE POP JUMPDEST PUSH1 0x15 PUSH1 0x54 PUSH1 0x1 PUSH1 0x2 DUP2 LT PUSH2 0x324C JUMPI PUSH2 0x324B PUSH2 0x42BE JUMP JUMPDEST JUMPDEST PUSH1 0x2 MUL ADD PUSH1 0x0 PUSH1 0x2 DUP2 LT PUSH2 0x3263 JUMPI PUSH2 0x3262 PUSH2 0x42BE JUMP JUMPDEST JUMPDEST ADD SLOAD GT ISZERO DUP1 ISZERO PUSH2 0x32A1 JUMPI POP PUSH1 0x15 PUSH1 0x54 PUSH1 0x1 PUSH1 0x2 DUP2 LT PUSH2 0x3285 JUMPI PUSH2 0x3284 PUSH2 0x42BE JUMP JUMPDEST JUMPDEST PUSH1 0x2 MUL ADD PUSH1 0x1 PUSH1 0x2 DUP2 LT PUSH2 0x329C JUMPI PUSH2 0x329B PUSH2 0x42BE JUMP JUMPDEST JUMPDEST ADD SLOAD GT ISZERO JUMPDEST ISZERO PUSH2 0x33D4 JUMPI PUSH1 0x54 PUSH1 0x1 PUSH1 0x2 DUP2 LT PUSH2 0x32BB JUMPI PUSH2 0x32BA PUSH2 0x42BE JUMP JUMPDEST JUMPDEST PUSH1 0x2 MUL ADD PUSH1 0x1 PUSH1 0x2 DUP2 LT PUSH2 0x32D2 JUMPI PUSH2 0x32D1 PUSH2 0x42BE JUMP JUMPDEST JUMPDEST ADD SLOAD PUSH1 0x54 PUSH1 0x1 PUSH1 0x2 DUP2 LT PUSH2 0x32E9 JUMPI PUSH2 0x32E8 PUSH2 0x42BE JUMP JUMPDEST JUMPDEST PUSH1 0x2 MUL ADD PUSH1 0x0 PUSH1 0x2 DUP2 LT PUSH2 0x3300 JUMPI PUSH2 0x32FF PUSH2 0x42BE JUMP JUMPDEST JUMPDEST ADD SLOAD GT ISZERO PUSH2 0x333D JUMPI PUSH1 0x54 PUSH1 0x1 PUSH1 0x2 DUP2 LT PUSH2 0x331D JUMPI PUSH2 0x331C PUSH2 0x42BE JUMP JUMPDEST JUMPDEST PUSH1 0x2 MUL ADD PUSH1 0x0 PUSH1 0x2 DUP2 LT PUSH2 0x3334 JUMPI PUSH2 0x3333 PUSH2 0x42BE JUMP JUMPDEST JUMPDEST ADD SLOAD PUSH1 0x5C DUP2 SWAP1 SSTORE POP JUMPDEST PUSH1 0x54 PUSH1 0x1 PUSH1 0x2 DUP2 LT PUSH2 0x3352 JUMPI PUSH2 0x3351 PUSH2 0x42BE JUMP JUMPDEST JUMPDEST PUSH1 0x2 MUL ADD PUSH1 0x1 PUSH1 0x2 DUP2 LT PUSH2 0x3369 JUMPI PUSH2 0x3368 PUSH2 0x42BE JUMP JUMPDEST JUMPDEST ADD SLOAD PUSH1 0x54 PUSH1 0x1 PUSH1 0x2 DUP2 LT PUSH2 0x3380 JUMPI PUSH2 0x337F PUSH2 0x42BE JUMP JUMPDEST JUMPDEST PUSH1 0x2 MUL ADD PUSH1 0x0 PUSH1 0x2 DUP2 LT PUSH2 0x3397 JUMPI PUSH2 0x3396 PUSH2 0x42BE JUMP JUMPDEST JUMPDEST ADD SLOAD GT PUSH2 0x33D3 JUMPI PUSH1 0x54 PUSH1 0x1 PUSH1 0x2 DUP2 LT PUSH2 0x33B3 JUMPI PUSH2 0x33B2 PUSH2 0x42BE JUMP JUMPDEST JUMPDEST PUSH1 0x2 MUL ADD PUSH1 0x1 PUSH1 0x2 DUP2 LT PUSH2 0x33CA JUMPI PUSH2 0x33C9 PUSH2 0x42BE JUMP JUMPDEST JUMPDEST ADD SLOAD PUSH1 0x5C DUP2 SWAP1 SSTORE POP JUMPDEST JUMPDEST JUMP JUMPDEST PUSH1 0x0 DUP1 PUSH1 0x0 SWAP1 POP PUSH1 0x0 JUMPDEST PUSH1 0x10 DUP3 LT ISZERO PUSH2 0x3444 JUMPI PUSH1 0x0 DUP5 DUP4 PUSH1 0x10 DUP2 LT PUSH2 0x33FE JUMPI PUSH2 0x33FD PUSH2 0x42BE JUMP JUMPDEST JUMPDEST PUSH1 0x20 MUL ADD MLOAD PUSH1 0x0 PUSH1 0x2 DUP2 LT PUSH2 0x3416 JUMPI PUSH2 0x3415 PUSH2 0x42BE JUMP JUMPDEST JUMPDEST PUSH1 0x20 MUL ADD MLOAD EQ PUSH2 0x3430 JUMPI PUSH1 0x1 DUP2 PUSH2 0x342D SWAP2 SWAP1 PUSH2 0x41F8 JUMP JUMPDEST SWAP1 POP JUMPDEST PUSH1 0x1 DUP3 PUSH2 0x343D SWAP2 SWAP1 PUSH2 0x41F8 JUMP JUMPDEST SWAP2 POP PUSH2 0x33E0 JUMP JUMPDEST DUP1 SWAP3 POP POP POP SWAP2 SWAP1 POP JUMP JUMPDEST PUSH1 0x0 PUSH1 0x63 PUSH1 0x0 DUP2 SLOAD DUP1 SWAP3 SWAP2 SWAP1 PUSH2 0x3463 SWAP1 PUSH2 0x42ED JUMP JUMPDEST SWAP2 SWAP1 POP SSTORE POP PUSH32 0x28F5C28F5C28F5C28F5C28F5C28F5C28F5C28F5C28F5C28F5C28F5C28F5C28F PUSH1 0x3 PUSH1 0x63 SLOAD PUSH2 0x3498 SWAP2 SWAP1 PUSH2 0x4918 JUMP JUMPDEST NUMBER PUSH2 0x34A3 SWAP2 SWAP1 PUSH2 0x41F8 JUMP JUMPDEST CALLER PUSH1 0x63 SLOAD PUSH1 0x40 MLOAD PUSH1 0x20 ADD PUSH2 0x34B9 SWAP4 SWAP3 SWAP2 SWAP1 PUSH2 0x49F5 JUMP JUMPDEST PUSH1 0x40 MLOAD PUSH1 0x20 DUP2 DUP4 SUB SUB DUP2 MSTORE SWAP1 PUSH1 0x40 MSTORE DUP1 MLOAD SWAP1 PUSH1 0x20 ADD KECCAK256 PUSH1 0x0 SHR PUSH2 0x34DC SWAP2 SWAP1 PUSH2 0x4A61 JUMP JUMPDEST PUSH1 0x5 DUP2 SWAP1 SSTORE POP PUSH1 0x63 PUSH1 0x0 DUP2 SLOAD DUP1 SWAP3 SWAP2 SWAP1 PUSH2 0x34F5 SWAP1 PUSH2 0x42ED JUMP JUMPDEST SWAP2 SWAP1 POP SSTORE POP PUSH1 0x5 SLOAD SWAP1 POP SWAP1 JUMP JUMPDEST PUSH1 0x60 PUSH1 0x0 PUSH1 0x1 PUSH2 0x3511 DUP5 PUSH2 0x377D JUMP JUMPDEST ADD SWAP1 POP PUSH1 0x0 DUP2 PUSH8 0xFFFFFFFFFFFFFFFF DUP2 GT ISZERO PUSH2 0x3530 JUMPI PUSH2 0x352F PUSH2 0x3AF1 JUMP JUMPDEST JUMPDEST PUSH1 0x40 MLOAD SWAP1 DUP1 DUP3 MSTORE DUP1 PUSH1 0x1F ADD PUSH1 0x1F NOT AND PUSH1 0x20 ADD DUP3 ADD PUSH1 0x40 MSTORE DUP1 ISZERO PUSH2 0x3562 JUMPI DUP2 PUSH1 0x20 ADD PUSH1 0x1 DUP3 MUL DUP1 CALLDATASIZE DUP4 CALLDATACOPY DUP1 DUP3 ADD SWAP2 POP POP SWAP1 POP JUMPDEST POP SWAP1 POP PUSH1 0x0 DUP3 PUSH1 0x20 ADD DUP3 ADD SWAP1 POP JUMPDEST PUSH1 0x1 ISZERO PUSH2 0x35C5 JUMPI DUP1 DUP1 PUSH1 0x1 SWAP1 SUB SWAP2 POP POP PUSH32 0x3031323334353637383961626364656600000000000000000000000000000000 PUSH1 0xA DUP7 MOD BYTE DUP2 MSTORE8 PUSH1 0xA DUP6 DUP2 PUSH2 0x35B9 JUMPI PUSH2 0x35B8 PUSH2 0x4A32 JUMP JUMPDEST JUMPDEST DIV SWAP5 POP PUSH1 0x0 DUP6 SUB PUSH2 0x3570 JUMPI JUMPDEST DUP2 SWAP4 POP POP POP POP SWAP2 SWAP1 POP JUMP JUMPDEST PUSH1 0x60 PUSH1 0x0 PUSH1 0x1 DUP6 DUP6 PUSH2 0x35E2 SWAP2 SWAP1 PUSH2 0x400E JUMP JUMPDEST PUSH2 0x35EC SWAP2 SWAP1 PUSH2 0x41F8 JUMP JUMPDEST PUSH8 0xFFFFFFFFFFFFFFFF DUP2 GT ISZERO PUSH2 0x3605 JUMPI PUSH2 0x3604 PUSH2 0x3AF1 JUMP JUMPDEST JUMPDEST PUSH1 0x40 MLOAD SWAP1 DUP1 DUP3 MSTORE DUP1 PUSH1 0x1F ADD PUSH1 0x1F NOT AND PUSH1 0x20 ADD DUP3 ADD PUSH1 0x40 MSTORE DUP1 ISZERO PUSH2 0x3637 JUMPI DUP2 PUSH1 0x20 ADD PUSH1 0x1 DUP3 MUL DUP1 CALLDATASIZE DUP4 CALLDATACOPY DUP1 DUP3 ADD SWAP2 POP POP SWAP1 POP JUMPDEST POP SWAP1 POP PUSH1 0x0 JUMPDEST DUP6 DUP6 PUSH2 0x3649 SWAP2 SWAP1 PUSH2 0x400E JUMP JUMPDEST DUP2 GT PUSH2 0x36D9 JUMPI DUP4 PUSH1 0x1 DUP8 DUP4 PUSH2 0x365E SWAP2 SWAP1 PUSH2 0x41F8 JUMP JUMPDEST PUSH2 0x3668 SWAP2 SWAP1 PUSH2 0x400E JUMP JUMPDEST DUP2 MLOAD DUP2 LT PUSH2 0x3679 JUMPI PUSH2 0x3678 PUSH2 0x42BE JUMP JUMPDEST JUMPDEST PUSH1 0x20 ADD ADD MLOAD PUSH1 0xF8 SHR PUSH1 0xF8 SHL DUP3 DUP3 DUP2 MLOAD DUP2 LT PUSH2 0x3697 JUMPI PUSH2 0x3696 PUSH2 0x42BE JUMP JUMPDEST JUMPDEST PUSH1 0x20 ADD ADD SWAP1 PUSH31 0xFFFFFFFFFFFFFFFFFFFFFFFFFFFFFFFFFFFFFFFFFFFFFFFFFFFFFFFFFFFFFF NOT AND SWAP1 DUP2 PUSH1 0x0 BYTE SWAP1 MSTORE8 POP DUP1 DUP1 PUSH2 0x36D1 SWAP1 PUSH2 0x42ED JUMP JUMPDEST SWAP2 POP POP PUSH2 0x363D JUMP JUMPDEST POP DUP1 SWAP2 POP POP SWAP4 SWAP3 POP POP POP JUMP JUMPDEST PUSH1 0x0 DUP1 DUP3 SWAP1 POP PUSH1 0x0 DUP1 JUMPDEST DUP3 MLOAD DUP2 LT ISZERO PUSH2 0x3772 JUMPI PUSH1 0x0 DUP4 DUP3 DUP2 MLOAD DUP2 LT PUSH2 0x370D JUMPI PUSH2 0x370C PUSH2 0x42BE JUMP JUMPDEST JUMPDEST PUSH1 0x20 ADD ADD MLOAD PUSH1 0xF8 SHR PUSH1 0xF8 SHL PUSH1 0xF8 SHR PUSH1 0xFF AND SWAP1 POP PUSH1 0x30 DUP2 LT ISZERO DUP1 ISZERO PUSH2 0x3732 JUMPI POP PUSH1 0x39 DUP2 GT ISZERO JUMPDEST ISZERO PUSH2 0x375E JUMPI PUSH1 0x30 DUP2 PUSH2 0x3744 SWAP2 SWAP1 PUSH2 0x400E JUMP JUMPDEST PUSH1 0xA DUP5 PUSH2 0x3751 SWAP2 SWAP1 PUSH2 0x4918 JUMP JUMPDEST PUSH2 0x375B SWAP2 SWAP1 PUSH2 0x41F8 JUMP JUMPDEST SWAP3 POP JUMPDEST POP DUP1 DUP1 PUSH2 0x376A SWAP1 PUSH2 0x42ED JUMP JUMPDEST SWAP2 POP POP PUSH2 0x36EF JUMP JUMPDEST POP DUP1 SWAP3 POP POP POP SWAP2 SWAP1 POP JUMP JUMPDEST PUSH1 0x0 DUP1 PUSH1 0x0 SWAP1 POP PUSH27 0x184F03E93FF9F4DAA797ED6E38ED64BF6A1F010000000000000000 DUP4 LT PUSH2 0x37DB JUMPI PUSH27 0x184F03E93FF9F4DAA797ED6E38ED64BF6A1F010000000000000000 DUP4 DUP2 PUSH2 0x37D1 JUMPI PUSH2 0x37D0 PUSH2 0x4A32 JUMP JUMPDEST JUMPDEST DIV SWAP3 POP PUSH1 0x40 DUP2 ADD SWAP1 POP JUMPDEST PUSH14 0x4EE2D6D415B85ACEF8100000000 DUP4 LT PUSH2 0x3818 JUMPI PUSH14 0x4EE2D6D415B85ACEF8100000000 DUP4 DUP2 PUSH2 0x380E JUMPI PUSH2 0x380D PUSH2 0x4A32 JUMP JUMPDEST JUMPDEST DIV SWAP3 POP PUSH1 0x20 DUP2 ADD SWAP1 POP JUMPDEST PUSH7 0x2386F26FC10000 DUP4 LT PUSH2 0x3847 JUMPI PUSH7 0x2386F26FC10000 DUP4 DUP2 PUSH2 0x383D JUMPI PUSH2 0x383C PUSH2 0x4A32 JUMP JUMPDEST JUMPDEST DIV SWAP3 POP PUSH1 0x10 DUP2 ADD SWAP1 POP JUMPDEST PUSH4 0x5F5E100 DUP4 LT PUSH2 0x3870 JUMPI PUSH4 0x5F5E100 DUP4 DUP2 PUSH2 0x3866 JUMPI PUSH2 0x3865 PUSH2 0x4A32 JUMP JUMPDEST JUMPDEST DIV SWAP3 POP PUSH1 0x8 DUP2 ADD SWAP1 POP JUMPDEST PUSH2 0x2710 DUP4 LT PUSH2 0x3895 JUMPI PUSH2 0x2710 DUP4 DUP2 PUSH2 0x388B JUMPI PUSH2 0x388A PUSH2 0x4A32 JUMP JUMPDEST JUMPDEST DIV SWAP3 POP PUSH1 0x4 DUP2 ADD SWAP1 POP JUMPDEST PUSH1 0x64 DUP4 LT PUSH2 0x38B8 JUMPI PUSH1 0x64 DUP4 DUP2 PUSH2 0x38AE JUMPI PUSH2 0x38AD PUSH2 0x4A32 JUMP JUMPDEST JUMPDEST DIV SWAP3 POP PUSH1 0x2 DUP2 ADD SWAP1 POP JUMPDEST PUSH1 0xA DUP4 LT PUSH2 0x38C7 JUMPI PUSH1 0x1 DUP2 ADD SWAP1 POP JUMPDEST DUP1 SWAP2 POP POP SWAP2 SWAP1 POP JUMP JUMPDEST DUP3 PUSH1 0x4 PUSH1 0x2 MUL DUP2 ADD SWAP3 DUP3 ISZERO PUSH2 0x3910 JUMPI SWAP2 PUSH1 0x20 MUL DUP3 ADD JUMPDEST DUP3 DUP2 GT ISZERO PUSH2 0x390F JUMPI DUP3 MLOAD DUP3 SWAP1 PUSH1 0x2 PUSH2 0x38FF SWAP3 SWAP2 SWAP1 PUSH2 0x394E JUMP JUMPDEST POP SWAP2 PUSH1 0x20 ADD SWAP2 SWAP1 PUSH1 0x2 ADD SWAP1 PUSH2 0x38E6 JUMP JUMPDEST JUMPDEST POP SWAP1 POP PUSH2 0x391D SWAP2 SWAP1 PUSH2 0x398E JUMP JUMPDEST POP SWAP1 JUMP JUMPDEST PUSH1 0x40 MLOAD DUP1 PUSH1 0x80 ADD PUSH1 0x40 MSTORE DUP1 PUSH1 0x4 SWAP1 JUMPDEST PUSH2 0x3938 PUSH2 0x39B2 JUMP JUMPDEST DUP2 MSTORE PUSH1 0x20 ADD SWAP1 PUSH1 0x1 SWAP1 SUB SWAP1 DUP2 PUSH2 0x3930 JUMPI SWAP1 POP POP SWAP1 JUMP JUMPDEST DUP3 PUSH1 0x2 DUP2 ADD SWAP3 DUP3 ISZERO PUSH2 0x397D JUMPI SWAP2 PUSH1 0x20 MUL DUP3 ADD JUMPDEST DUP3 DUP2 GT ISZERO PUSH2 0x397C JUMPI DUP3 MLOAD DUP3 SSTORE SWAP2 PUSH1 0x20 ADD SWAP2 SWAP1 PUSH1 0x1 ADD SWAP1 PUSH2 0x3961 JUMP JUMPDEST JUMPDEST POP SWAP1 POP PUSH2 0x398A SWAP2 SWAP1 PUSH2 0x39D4 JUMP JUMPDEST POP SWAP1 JUMP JUMPDEST JUMPDEST DUP1 DUP3 GT ISZERO PUSH2 0x39AE JUMPI PUSH1 0x0 DUP2 DUP2 PUSH2 0x39A5 SWAP2 SWAP1 PUSH2 0x39F1 JUMP JUMPDEST POP PUSH1 0x2 ADD PUSH2 0x398F JUMP JUMPDEST POP SWAP1 JUMP JUMPDEST PUSH1 0x40 MLOAD DUP1 PUSH1 0x40 ADD PUSH1 0x40 MSTORE DUP1 PUSH1 0x2 SWAP1 PUSH1 0x20 DUP3 MUL DUP1 CALLDATASIZE DUP4 CALLDATACOPY DUP1 DUP3 ADD SWAP2 POP POP SWAP1 POP POP SWAP1 JUMP JUMPDEST JUMPDEST DUP1 DUP3 GT ISZERO PUSH2 0x39ED JUMPI PUSH1 0x0 DUP2 PUSH1 0x0 SWAP1 SSTORE POP PUSH1 0x1 ADD PUSH2 0x39D5 JUMP JUMPDEST POP SWAP1 JUMP JUMPDEST POP PUSH1 0x0 DUP2 SSTORE PUSH1 0x1 ADD PUSH1 0x0 SWAP1 SSTORE JUMP JUMPDEST PUSH1 0x0 PUSH1 0x40 MLOAD SWAP1 POP SWAP1 JUMP JUMPDEST PUSH1 0x0 DUP1 REVERT JUMPDEST PUSH1 0x0 DUP2 SWAP1 POP SWAP2 SWAP1 POP JUMP JUMPDEST PUSH2 0x3A21 DUP2 PUSH2 0x3A0E JUMP JUMPDEST DUP2 EQ PUSH2 0x3A2C JUMPI PUSH1 0x0 DUP1 REVERT JUMPDEST POP JUMP JUMPDEST PUSH1 0x0 DUP2 CALLDATALOAD SWAP1 POP PUSH2 0x3A3E DUP2 PUSH2 0x3A18 JUMP JUMPDEST SWAP3 SWAP2 POP POP JUMP JUMPDEST PUSH1 0x0 PUSH1 0x20 DUP3 DUP5 SUB SLT ISZERO PUSH2 0x3A5A JUMPI PUSH2 0x3A59 PUSH2 0x3A09 JUMP JUMPDEST JUMPDEST PUSH1 0x0 PUSH2 0x3A68 DUP5 DUP3 DUP6 ADD PUSH2 0x3A2F JUMP JUMPDEST SWAP2 POP POP SWAP3 SWAP2 POP POP JUMP JUMPDEST PUSH2 0x3A7A DUP2 PUSH2 0x3A0E JUMP JUMPDEST DUP3 MSTORE POP POP JUMP JUMPDEST PUSH1 0x0 PUSH1 0x20 DUP3 ADD SWAP1 POP PUSH2 0x3A95 PUSH1 0x0 DUP4 ADD DUP5 PUSH2 0x3A71 JUMP JUMPDEST SWAP3 SWAP2 POP POP JUMP JUMPDEST PUSH1 0x0 DUP1 PUSH1 0x40 DUP4 DUP6 SUB SLT ISZERO PUSH2 0x3AB2 JUMPI PUSH2 0x3AB1 PUSH2 0x3A09 JUMP JUMPDEST JUMPDEST PUSH1 0x0 PUSH2 0x3AC0 DUP6 DUP3 DUP7 ADD PUSH2 0x3A2F JUMP JUMPDEST SWAP3 POP POP PUSH1 0x20 PUSH2 0x3AD1 DUP6 DUP3 DUP7 ADD PUSH2 0x3A2F JUMP JUMPDEST SWAP2 POP POP SWAP3 POP SWAP3 SWAP1 POP JUMP JUMPDEST PUSH1 0x0 DUP1 REVERT JUMPDEST PUSH1 0x0 PUSH1 0x1F NOT PUSH1 0x1F DUP4 ADD AND SWAP1 POP SWAP2 SWAP1 POP JUMP JUMPDEST PUSH32 0x4E487B7100000000000000000000000000000000000000000000000000000000 PUSH1 0x0 MSTORE PUSH1 0x41 PUSH1 0x4 MSTORE PUSH1 0x24 PUSH1 0x0 REVERT JUMPDEST PUSH2 0x3B29 DUP3 PUSH2 0x3AE0 JUMP JUMPDEST DUP2 ADD DUP2 DUP2 LT PUSH8 0xFFFFFFFFFFFFFFFF DUP3 GT OR ISZERO PUSH2 0x3B48 JUMPI PUSH2 0x3B47 PUSH2 0x3AF1 JUMP JUMPDEST JUMPDEST DUP1 PUSH1 0x40 MSTORE POP POP POP JUMP JUMPDEST PUSH1 0x0 PUSH2 0x3B5B PUSH2 0x39FF JUMP JUMPDEST SWAP1 POP PUSH2 0x3B67 DUP3 DUP3 PUSH2 0x3B20 JUMP JUMPDEST SWAP2 SWAP1 POP JUMP JUMPDEST PUSH1 0x0 PUSH8 0xFFFFFFFFFFFFFFFF DUP3 GT ISZERO PUSH2 0x3B87 JUMPI PUSH2 0x3B86 PUSH2 0x3AF1 JUMP JUMPDEST JUMPDEST PUSH1 0x20 DUP3 MUL SWAP1 POP SWAP2 SWAP1 POP JUMP JUMPDEST PUSH1 0x0 DUP1 REVERT JUMPDEST PUSH1 0x0 PUSH8 0xFFFFFFFFFFFFFFFF DUP3 GT ISZERO PUSH2 0x3BB2 JUMPI PUSH2 0x3BB1 PUSH2 0x3AF1 JUMP JUMPDEST JUMPDEST PUSH1 0x20 DUP3 MUL SWAP1 POP SWAP2 SWAP1 POP JUMP JUMPDEST PUSH1 0x0 PUSH2 0x3BD0 PUSH2 0x3BCB DUP5 PUSH2 0x3B97 JUMP JUMPDEST PUSH2 0x3B51 JUMP JUMPDEST SWAP1 POP DUP1 PUSH1 0x20 DUP5 MUL DUP4 ADD DUP6 DUP2 GT ISZERO PUSH2 0x3BEA JUMPI PUSH2 0x3BE9 PUSH2 0x3B92 JUMP JUMPDEST JUMPDEST DUP4 JUMPDEST DUP2 DUP2 LT ISZERO PUSH2 0x3C13 JUMPI DUP1 PUSH2 0x3BFF DUP9 DUP3 PUSH2 0x3A2F JUMP JUMPDEST DUP5 MSTORE PUSH1 0x20 DUP5 ADD SWAP4 POP POP PUSH1 0x20 DUP2 ADD SWAP1 POP PUSH2 0x3BEC JUMP JUMPDEST POP POP POP SWAP4 SWAP3 POP POP POP JUMP JUMPDEST PUSH1 0x0 DUP3 PUSH1 0x1F DUP4 ADD SLT PUSH2 0x3C32 JUMPI PUSH2 0x3C31 PUSH2 0x3ADB JUMP JUMPDEST JUMPDEST PUSH1 0x2 PUSH2 0x3C3F DUP5 DUP3 DUP6 PUSH2 0x3BBD JUMP JUMPDEST SWAP2 POP POP SWAP3 SWAP2 POP POP JUMP JUMPDEST PUSH1 0x0 PUSH2 0x3C5B PUSH2 0x3C56 DUP5 PUSH2 0x3B6C JUMP JUMPDEST PUSH2 0x3B51 JUMP JUMPDEST SWAP1 POP DUP1 PUSH1 0x40 DUP5 MUL DUP4 ADD DUP6 DUP2 GT ISZERO PUSH2 0x3C75 JUMPI PUSH2 0x3C74 PUSH2 0x3B92 JUMP JUMPDEST JUMPDEST DUP4 JUMPDEST DUP2 DUP2 LT ISZERO PUSH2 0x3C9E JUMPI DUP1 PUSH2 0x3C8A DUP9 DUP3 PUSH2 0x3C1D JUMP JUMPDEST DUP5 MSTORE PUSH1 0x20 DUP5 ADD SWAP4 POP POP PUSH1 0x40 DUP2 ADD SWAP1 POP PUSH2 0x3C77 JUMP JUMPDEST POP POP POP SWAP4 SWAP3 POP POP POP JUMP JUMPDEST PUSH1 0x0 DUP3 PUSH1 0x1F DUP4 ADD SLT PUSH2 0x3CBD JUMPI PUSH2 0x3CBC PUSH2 0x3ADB JUMP JUMPDEST JUMPDEST PUSH1 0x4 PUSH2 0x3CCA DUP5 DUP3 DUP6 PUSH2 0x3C48 JUMP JUMPDEST SWAP2 POP POP SWAP3 SWAP2 POP POP JUMP JUMPDEST PUSH1 0x0 PUSH2 0x100 DUP3 DUP5 SUB SLT ISZERO PUSH2 0x3CEA JUMPI PUSH2 0x3CE9 PUSH2 0x3A09 JUMP JUMPDEST JUMPDEST PUSH1 0x0 PUSH2 0x3CF8 DUP5 DUP3 DUP6 ADD PUSH2 0x3CA8 JUMP JUMPDEST SWAP2 POP POP SWAP3 SWAP2 POP POP JUMP JUMPDEST PUSH1 0x0 PUSH1 0x4 SWAP1 POP SWAP2 SWAP1 POP JUMP JUMPDEST PUSH1 0x0 DUP2 SWAP1 POP SWAP3 SWAP2 POP POP JUMP JUMPDEST PUSH1 0x0 DUP2 SWAP1 POP SWAP2 SWAP1 POP JUMP JUMPDEST PUSH1 0x0 PUSH1 0x2 SWAP1 POP SWAP2 SWAP1 POP JUMP JUMPDEST PUSH1 0x0 DUP2 SWAP1 POP SWAP3 SWAP2 POP POP JUMP JUMPDEST PUSH1 0x0 DUP2 SWAP1 POP SWAP2 SWAP1 POP JUMP JUMPDEST PUSH2 0x3D4A DUP2 PUSH2 0x3A0E JUMP JUMPDEST DUP3 MSTORE POP POP JUMP JUMPDEST PUSH1 0x0 PUSH2 0x3D5C DUP4 DUP4 PUSH2 0x3D41 JUMP JUMPDEST PUSH1 0x20 DUP4 ADD SWAP1 POP SWAP3 SWAP2 POP POP JUMP JUMPDEST PUSH1 0x0 PUSH1 0x20 DUP3 ADD SWAP1 POP SWAP2 SWAP1 POP JUMP JUMPDEST PUSH2 0x3D7E DUP2 PUSH2 0x3D21 JUMP JUMPDEST PUSH2 0x3D88 DUP2 DUP5 PUSH2 0x3D2C JUMP JUMPDEST SWAP3 POP PUSH2 0x3D93 DUP3 PUSH2 0x3D37 JUMP JUMPDEST DUP1 PUSH1 0x0 JUMPDEST DUP4 DUP2 LT ISZERO PUSH2 0x3DC4 JUMPI DUP2 MLOAD PUSH2 0x3DAB DUP8 DUP3 PUSH2 0x3D50 JUMP JUMPDEST SWAP7 POP PUSH2 0x3DB6 DUP4 PUSH2 0x3D68 JUMP JUMPDEST SWAP3 POP POP PUSH1 0x1 DUP2 ADD SWAP1 POP PUSH2 0x3D97 JUMP JUMPDEST POP POP POP POP POP POP JUMP JUMPDEST PUSH1 0x0 PUSH2 0x3DD8 DUP4 DUP4 PUSH2 0x3D75 JUMP JUMPDEST PUSH1 0x40 DUP4 ADD SWAP1 POP SWAP3 SWAP2 POP POP JUMP JUMPDEST PUSH1 0x0 PUSH1 0x20 DUP3 ADD SWAP1 POP SWAP2 SWAP1 POP JUMP JUMPDEST PUSH2 0x3DFA DUP2 PUSH2 0x3D01 JUMP JUMPDEST PUSH2 0x3E04 DUP2 DUP5 PUSH2 0x3D0C JUMP JUMPDEST SWAP3 POP PUSH2 0x3E0F DUP3 PUSH2 0x3D17 JUMP JUMPDEST DUP1 PUSH1 0x0 JUMPDEST DUP4 DUP2 LT ISZERO PUSH2 0x3E40 JUMPI DUP2 MLOAD PUSH2 0x3E27 DUP8 DUP3 PUSH2 0x3DCC JUMP JUMPDEST SWAP7 POP PUSH2 0x3E32 DUP4 PUSH2 0x3DE4 JUMP JUMPDEST SWAP3 POP POP PUSH1 0x1 DUP2 ADD SWAP1 POP PUSH2 0x3E13 JUMP JUMPDEST POP POP POP POP POP POP JUMP JUMPDEST PUSH1 0x0 PUSH2 0x100 DUP3 ADD SWAP1 POP PUSH2 0x3E5E PUSH1 0x0 DUP4 ADD DUP5 PUSH2 0x3DF1 JUMP JUMPDEST SWAP3 SWAP2 POP POP JUMP JUMPDEST PUSH1 0x0 DUP3 DUP3 MSTORE PUSH1 0x20 DUP3 ADD SWAP1 POP SWAP3 SWAP2 POP POP JUMP JUMPDEST PUSH32 0x42657420616D6F756E74206973206D6F7265207468616E2067616D652062616C PUSH1 0x0 DUP3 ADD MSTORE PUSH32 0x616E636500000000000000000000000000000000000000000000000000000000 PUSH1 0x20 DUP3 ADD MSTORE POP JUMP JUMPDEST PUSH1 0x0 PUSH2 0x3ED1 PUSH1 0x24 DUP4 PUSH2 0x3E64 JUMP JUMPDEST SWAP2 POP PUSH2 0x3EDC DUP3 PUSH2 0x3E75 JUMP JUMPDEST PUSH1 0x40 DUP3 ADD SWAP1 POP SWAP2 SWAP1 POP JUMP JUMPDEST PUSH1 0x0 PUSH1 0x20 DUP3 ADD SWAP1 POP DUP2 DUP2 SUB PUSH1 0x0 DUP4 ADD MSTORE PUSH2 0x3F00 DUP2 PUSH2 0x3EC4 JUMP JUMPDEST SWAP1 POP SWAP2 SWAP1 POP JUMP JUMPDEST PUSH32 0x4F6E6C7920706C617965722063616E20706C6163652062657400000000000000 PUSH1 0x0 DUP3 ADD MSTORE POP JUMP JUMPDEST PUSH1 0x0 PUSH2 0x3F3D PUSH1 0x19 DUP4 PUSH2 0x3E64 JUMP JUMPDEST SWAP2 POP PUSH2 0x3F48 DUP3 PUSH2 0x3F07 JUMP JUMPDEST PUSH1 0x20 DUP3 ADD SWAP1 POP SWAP2 SWAP1 POP JUMP JUMPDEST PUSH1 0x0 PUSH1 0x20 DUP3 ADD SWAP1 POP DUP2 DUP2 SUB PUSH1 0x0 DUP4 ADD MSTORE PUSH2 0x3F6C DUP2 PUSH2 0x3F30 JUMP JUMPDEST SWAP1 POP SWAP2 SWAP1 POP JUMP JUMPDEST PUSH32 0x5265656E7472616E6379206E6F7420616C6C6F77656400000000000000000000 PUSH1 0x0 DUP3 ADD MSTORE POP JUMP JUMPDEST PUSH1 0x0 PUSH2 0x3FA9 PUSH1 0x16 DUP4 PUSH2 0x3E64 JUMP JUMPDEST SWAP2 POP PUSH2 0x3FB4 DUP3 PUSH2 0x3F73 JUMP JUMPDEST PUSH1 0x20 DUP3 ADD SWAP1 POP SWAP2 SWAP1 POP JUMP JUMPDEST PUSH1 0x0 PUSH1 0x20 DUP3 ADD SWAP1 POP DUP2 DUP2 SUB PUSH1 0x0 DUP4 ADD MSTORE PUSH2 0x3FD8 DUP2 PUSH2 0x3F9C JUMP JUMPDEST SWAP1 POP SWAP2 SWAP1 POP JUMP JUMPDEST PUSH32 0x4E487B7100000000000000000000000000000000000000000000000000000000 PUSH1 0x0 MSTORE PUSH1 0x11 PUSH1 0x4 MSTORE PUSH1 0x24 PUSH1 0x0 REVERT JUMPDEST PUSH1 0x0 PUSH2 0x4019 DUP3 PUSH2 0x3A0E JUMP JUMPDEST SWAP2 POP PUSH2 0x4024 DUP4 PUSH2 0x3A0E JUMP JUMPDEST SWAP3 POP DUP3 DUP3 SUB SWAP1 POP DUP2 DUP2 GT ISZERO PUSH2 0x403C JUMPI PUSH2 0x403B PUSH2 0x3FDF JUMP JUMPDEST JUMPDEST SWAP3 SWAP2 POP POP JUMP JUMPDEST PUSH32 0x526567697374726174696F6E2061646472657373206973206E6F742076616C69 PUSH1 0x0 DUP3 ADD MSTORE PUSH32 0x6400000000000000000000000000000000000000000000000000000000000000 PUSH1 0x20 DUP3 ADD MSTORE POP JUMP JUMPDEST PUSH1 0x0 PUSH2 0x409E PUSH1 0x21 DUP4 PUSH2 0x3E64 JUMP JUMPDEST SWAP2 POP PUSH2 0x40A9 DUP3 PUSH2 0x4042 JUMP JUMPDEST PUSH1 0x40 DUP3 ADD SWAP1 POP SWAP2 SWAP1 POP JUMP JUMPDEST PUSH1 0x0 PUSH1 0x20 DUP3 ADD SWAP1 POP DUP2 DUP2 SUB PUSH1 0x0 DUP4 ADD MSTORE PUSH2 0x40CD DUP2 PUSH2 0x4091 JUMP JUMPDEST SWAP1 POP SWAP2 SWAP1 POP JUMP JUMPDEST PUSH32 0x506C61796572206D75737420626520686F757365283029206F7220706C617965 PUSH1 0x0 DUP3 ADD MSTORE PUSH32 0x7228312900000000000000000000000000000000000000000000000000000000 PUSH1 0x20 DUP3 ADD MSTORE POP JUMP JUMPDEST PUSH1 0x0 PUSH2 0x4130 PUSH1 0x24 DUP4 PUSH2 0x3E64 JUMP JUMPDEST SWAP2 POP PUSH2 0x413B DUP3 PUSH2 0x40D4 JUMP JUMPDEST PUSH1 0x40 DUP3 ADD SWAP1 POP SWAP2 SWAP1 POP JUMP JUMPDEST PUSH1 0x0 PUSH1 0x20 DUP3 ADD SWAP1 POP DUP2 DUP2 SUB PUSH1 0x0 DUP4 ADD MSTORE PUSH2 0x415F DUP2 PUSH2 0x4123 JUMP JUMPDEST SWAP1 POP SWAP2 SWAP1 POP JUMP JUMPDEST PUSH32 0x53656E6465722061646472657373206D75737420626520686F75736557616C6C PUSH1 0x0 DUP3 ADD MSTORE PUSH32 0x6574000000000000000000000000000000000000000000000000000000000000 PUSH1 0x20 DUP3 ADD MSTORE POP JUMP JUMPDEST PUSH1 0x0 PUSH2 0x41C2 PUSH1 0x22 DUP4 PUSH2 0x3E64 JUMP JUMPDEST SWAP2 POP PUSH2 0x41CD DUP3 PUSH2 0x4166 JUMP JUMPDEST PUSH1 0x40 DUP3 ADD SWAP1 POP SWAP2 SWAP1 POP JUMP JUMPDEST PUSH1 0x0 PUSH1 0x20 DUP3 ADD SWAP1 POP DUP2 DUP2 SUB PUSH1 0x0 DUP4 ADD MSTORE PUSH2 0x41F1 DUP2 PUSH2 0x41B5 JUMP JUMPDEST SWAP1 POP SWAP2 SWAP1 POP JUMP JUMPDEST PUSH1 0x0 PUSH2 0x4203 DUP3 PUSH2 0x3A0E JUMP JUMPDEST SWAP2 POP PUSH2 0x420E DUP4 PUSH2 0x3A0E JUMP JUMPDEST SWAP3 POP DUP3 DUP3 ADD SWAP1 POP DUP1 DUP3 GT ISZERO PUSH2 0x4226 JUMPI PUSH2 0x4225 PUSH2 0x3FDF JUMP JUMPDEST JUMPDEST SWAP3 SWAP2 POP POP JUMP JUMPDEST PUSH32 0x53656E6465722061646472657373206D75737420626520706C6179657257616C PUSH1 0x0 DUP3 ADD MSTORE PUSH32 0x6C65740000000000000000000000000000000000000000000000000000000000 PUSH1 0x20 DUP3 ADD MSTORE POP JUMP JUMPDEST PUSH1 0x0 PUSH2 0x4288 PUSH1 0x23 DUP4 PUSH2 0x3E64 JUMP JUMPDEST SWAP2 POP PUSH2 0x4293 DUP3 PUSH2 0x422C JUMP JUMPDEST PUSH1 0x40 DUP3 ADD SWAP1 POP SWAP2 SWAP1 POP JUMP JUMPDEST PUSH1 0x0 PUSH1 0x20 DUP3 ADD SWAP1 POP DUP2 DUP2 SUB PUSH1 0x0 DUP4 ADD MSTORE PUSH2 0x42B7 DUP2 PUSH2 0x427B JUMP JUMPDEST SWAP1 POP SWAP2 SWAP1 POP JUMP JUMPDEST PUSH32 0x4E487B7100000000000000000000000000000000000000000000000000000000 PUSH1 0x0 MSTORE PUSH1 0x32 PUSH1 0x4 MSTORE PUSH1 0x24 PUSH1 0x0 REVERT JUMPDEST PUSH1 0x0 PUSH2 0x42F8 DUP3 PUSH2 0x3A0E JUMP JUMPDEST SWAP2 POP PUSH32 0xFFFFFFFFFFFFFFFFFFFFFFFFFFFFFFFFFFFFFFFFFFFFFFFFFFFFFFFFFFFFFFFF DUP3 SUB PUSH2 0x432A JUMPI PUSH2 0x4329 PUSH2 0x3FDF JUMP JUMPDEST JUMPDEST PUSH1 0x1 DUP3 ADD SWAP1 POP SWAP2 SWAP1 POP JUMP JUMPDEST PUSH32 0x506C6179657220686173206E6F2062616C616E636520746F2077697468647261 PUSH1 0x0 DUP3 ADD MSTORE PUSH32 0x7700000000000000000000000000000000000000000000000000000000000000 PUSH1 0x20 DUP3 ADD MSTORE POP JUMP JUMPDEST PUSH1 0x0 PUSH2 0x4391 PUSH1 0x21 DUP4 PUSH2 0x3E64 JUMP JUMPDEST SWAP2 POP PUSH2 0x439C DUP3 PUSH2 0x4335 JUMP JUMPDEST PUSH1 0x40 DUP3 ADD SWAP1 POP SWAP2 SWAP1 POP JUMP JUMPDEST PUSH1 0x0 PUSH1 0x20 DUP3 ADD SWAP1 POP DUP2 DUP2 SUB PUSH1 0x0 DUP4 ADD MSTORE PUSH2 0x43C0 DUP2 PUSH2 0x4384 JUMP JUMPDEST SWAP1 POP SWAP2 SWAP1 POP JUMP JUMPDEST PUSH32 0x4F6E6C7920706C617965722063616E2075736520746869732066756E6374696F PUSH1 0x0 DUP3 ADD MSTORE PUSH32 0x6E20776974686472617700000000000000000000000000000000000000000000 PUSH1 0x20 DUP3 ADD MSTORE POP JUMP JUMPDEST PUSH1 0x0 PUSH2 0x4423 PUSH1 0x2A DUP4 PUSH2 0x3E64 JUMP JUMPDEST SWAP2 POP PUSH2 0x442E DUP3 PUSH2 0x43C7 JUMP JUMPDEST PUSH1 0x40 DUP3 ADD SWAP1 POP SWAP2 SWAP1 POP JUMP JUMPDEST PUSH1 0x0 PUSH1 0x20 DUP3 ADD SWAP1 POP DUP2 DUP2 SUB PUSH1 0x0 DUP4 ADD MSTORE PUSH2 0x4452 DUP2 PUSH2 0x4416 JUMP JUMPDEST SWAP1 POP SWAP2 SWAP1 POP JUMP JUMPDEST PUSH32 0x596F75206172652072657175657374696E67206D6F7265207468616E20746865 PUSH1 0x0 DUP3 ADD MSTORE PUSH32 0x20706C617965722077616C6C657420636F6E7461696E73000000000000000000 PUSH1 0x20 DUP3 ADD MSTORE POP JUMP JUMPDEST PUSH1 0x0 PUSH2 0x44B5 PUSH1 0x37 DUP4 PUSH2 0x3E64 JUMP JUMPDEST SWAP2 POP PUSH2 0x44C0 DUP3 PUSH2 0x4459 JUMP JUMPDEST PUSH1 0x40 DUP3 ADD SWAP1 POP SWAP2 SWAP1 POP JUMP JUMPDEST PUSH1 0x0 PUSH1 0x20 DUP3 ADD SWAP1 POP DUP2 DUP2 SUB PUSH1 0x0 DUP4 ADD MSTORE PUSH2 0x44E4 DUP2 PUSH2 0x44A8 JUMP JUMPDEST SWAP1 POP SWAP2 SWAP1 POP JUMP JUMPDEST PUSH32 0x506C617965722068617320616C72656164792073746F6F640000000000000000 PUSH1 0x0 DUP3 ADD MSTORE POP JUMP JUMPDEST PUSH1 0x0 PUSH2 0x4521 PUSH1 0x18 DUP4 PUSH2 0x3E64 JUMP JUMPDEST SWAP2 POP PUSH2 0x452C DUP3 PUSH2 0x44EB JUMP JUMPDEST PUSH1 0x20 DUP3 ADD SWAP1 POP SWAP2 SWAP1 POP JUMP JUMPDEST PUSH1 0x0 PUSH1 0x20 DUP3 ADD SWAP1 POP DUP2 DUP2 SUB PUSH1 0x0 DUP4 ADD MSTORE PUSH2 0x4550 DUP2 PUSH2 0x4514 JUMP JUMPDEST SWAP1 POP SWAP2 SWAP1 POP JUMP JUMPDEST PUSH32 0x47616D65206D75737420626520696E2070726F67726573730000000000000000 PUSH1 0x0 DUP3 ADD MSTORE POP JUMP JUMPDEST PUSH1 0x0 PUSH2 0x458D PUSH1 0x18 DUP4 PUSH2 0x3E64 JUMP JUMPDEST SWAP2 POP PUSH2 0x4598 DUP3 PUSH2 0x4557 JUMP JUMPDEST PUSH1 0x20 DUP3 ADD SWAP1 POP SWAP2 SWAP1 POP JUMP JUMPDEST PUSH1 0x0 PUSH1 0x20 DUP3 ADD SWAP1 POP DUP2 DUP2 SUB PUSH1 0x0 DUP4 ADD MSTORE PUSH2 0x45BC DUP2 PUSH2 0x4580 JUMP JUMPDEST SWAP1 POP SWAP2 SWAP1 POP JUMP JUMPDEST PUSH32 0x596F7527766520616C7265616479206275737465640000000000000000000000 PUSH1 0x0 DUP3 ADD MSTORE POP JUMP JUMPDEST PUSH1 0x0 PUSH2 0x45F9 PUSH1 0x15 DUP4 PUSH2 0x3E64 JUMP JUMPDEST SWAP2 POP PUSH2 0x4604 DUP3 PUSH2 0x45C3 JUMP JUMPDEST PUSH1 0x20 DUP3 ADD SWAP1 POP SWAP2 SWAP1 POP JUMP JUMPDEST PUSH1 0x0 PUSH1 0x20 DUP3 ADD SWAP1 POP DUP2 DUP2 SUB PUSH1 0x0 DUP4 ADD MSTORE PUSH2 0x4628 DUP2 PUSH2 0x45EC JUMP JUMPDEST SWAP1 POP SWAP2 SWAP1 POP JUMP JUMPDEST PUSH1 0x0 DUP2 MLOAD SWAP1 POP SWAP2 SWAP1 POP JUMP JUMPDEST PUSH32 0x4E487B7100000000000000000000000000000000000000000000000000000000 PUSH1 0x0 MSTORE PUSH1 0x22 PUSH1 0x4 MSTORE PUSH1 0x24 PUSH1 0x0 REVERT JUMPDEST PUSH1 0x0 PUSH1 0x2 DUP3 DIV SWAP1 POP PUSH1 0x1 DUP3 AND DUP1 PUSH2 0x4681 JUMPI PUSH1 0x7F DUP3 AND SWAP2 POP JUMPDEST PUSH1 0x20 DUP3 LT DUP2 SUB PUSH2 0x4694 JUMPI PUSH2 0x4693 PUSH2 0x463A JUMP JUMPDEST JUMPDEST POP SWAP2 SWAP1 POP JUMP JUMPDEST PUSH1 0x0 DUP2 SWAP1 POP DUP2 PUSH1 0x0 MSTORE PUSH1 0x20 PUSH1 0x0 KECCAK256 SWAP1 POP SWAP2 SWAP1 POP JUMP JUMPDEST PUSH1 0x0 PUSH1 0x20 PUSH1 0x1F DUP4 ADD DIV SWAP1 POP SWAP2 SWAP1 POP JUMP JUMPDEST PUSH1 0x0 DUP3 DUP3 SHL SWAP1 POP SWAP3 SWAP2 POP POP JUMP JUMPDEST PUSH1 0x0 PUSH1 0x8 DUP4 MUL PUSH2 0x46FC PUSH32 0xFFFFFFFFFFFFFFFFFFFFFFFFFFFFFFFFFFFFFFFFFFFFFFFFFFFFFFFFFFFFFFFF DUP3 PUSH2 0x46BF JUMP JUMPDEST PUSH2 0x4706 DUP7 DUP4 PUSH2 0x46BF JUMP JUMPDEST SWAP6 POP DUP1 NOT DUP5 AND SWAP4 POP DUP1 DUP7 AND DUP5 OR SWAP3 POP POP POP SWAP4 SWAP3 POP POP POP JUMP JUMPDEST PUSH1 0x0 DUP2 SWAP1 POP SWAP2 SWAP1 POP JUMP JUMPDEST PUSH1 0x0 PUSH2 0x4743 PUSH2 0x473E PUSH2 0x4739 DUP5 PUSH2 0x3A0E JUMP JUMPDEST PUSH2 0x471E JUMP JUMPDEST PUSH2 0x3A0E JUMP JUMPDEST SWAP1 POP SWAP2 SWAP1 POP JUMP JUMPDEST PUSH1 0x0 DUP2 SWAP1 POP SWAP2 SWAP1 POP JUMP JUMPDEST PUSH2 0x475D DUP4 PUSH2 0x4728 JUMP JUMPDEST PUSH2 0x4771 PUSH2 0x4769 DUP3 PUSH2 0x474A JUMP JUMPDEST DUP5 DUP5 SLOAD PUSH2 0x46CC JUMP JUMPDEST DUP3 SSTORE POP POP POP POP JUMP JUMPDEST PUSH1 0x0 SWAP1 JUMP JUMPDEST PUSH2 0x4786 PUSH2 0x4779 JUMP JUMPDEST PUSH2 0x4791 DUP2 DUP5 DUP5 PUSH2 0x4754 JUMP JUMPDEST POP POP POP JUMP JUMPDEST JUMPDEST DUP2 DUP2 LT ISZERO PUSH2 0x47B5 JUMPI PUSH2 0x47AA PUSH1 0x0 DUP3 PUSH2 0x477E JUMP JUMPDEST PUSH1 0x1 DUP2 ADD SWAP1 POP PUSH2 0x4797 JUMP JUMPDEST POP POP JUMP JUMPDEST PUSH1 0x1F DUP3 GT ISZERO PUSH2 0x47FA JUMPI PUSH2 0x47CB DUP2 PUSH2 0x469A JUMP JUMPDEST PUSH2 0x47D4 DUP5 PUSH2 0x46AF JUMP JUMPDEST DUP2 ADD PUSH1 0x20 DUP6 LT ISZERO PUSH2 0x47E3 JUMPI DUP2 SWAP1 POP JUMPDEST PUSH2 0x47F7 PUSH2 0x47EF DUP6 PUSH2 0x46AF JUMP JUMPDEST DUP4 ADD DUP3 PUSH2 0x4796 JUMP JUMPDEST POP POP JUMPDEST POP POP POP JUMP JUMPDEST PUSH1 0x0 DUP3 DUP3 SHR SWAP1 POP SWAP3 SWAP2 POP POP JUMP JUMPDEST PUSH1 0x0 PUSH2 0x481D PUSH1 0x0 NOT DUP5 PUSH1 0x8 MUL PUSH2 0x47FF JUMP JUMPDEST NOT DUP1 DUP4 AND SWAP2 POP POP SWAP3 SWAP2 POP POP JUMP JUMPDEST PUSH1 0x0 PUSH2 0x4836 DUP4 DUP4 PUSH2 0x480C JUMP JUMPDEST SWAP2 POP DUP3 PUSH1 0x2 MUL DUP3 OR SWAP1 POP SWAP3 SWAP2 POP POP JUMP JUMPDEST PUSH2 0x484F DUP3 PUSH2 0x462F JUMP JUMPDEST PUSH8 0xFFFFFFFFFFFFFFFF DUP2 GT ISZERO PUSH2 0x4868 JUMPI PUSH2 0x4867 PUSH2 0x3AF1 JUMP JUMPDEST JUMPDEST PUSH2 0x4872 DUP3 SLOAD PUSH2 0x4669 JUMP JUMPDEST PUSH2 0x487D DUP3 DUP3 DUP6 PUSH2 0x47B9 JUMP JUMPDEST PUSH1 0x0 PUSH1 0x20 SWAP1 POP PUSH1 0x1F DUP4 GT PUSH1 0x1 DUP2 EQ PUSH2 0x48B0 JUMPI PUSH1 0x0 DUP5 ISZERO PUSH2 0x489E JUMPI DUP3 DUP8 ADD MLOAD SWAP1 POP JUMPDEST PUSH2 0x48A8 DUP6 DUP3 PUSH2 0x482A JUMP JUMPDEST DUP7 SSTORE POP PUSH2 0x4910 JUMP JUMPDEST PUSH1 0x1F NOT DUP5 AND PUSH2 0x48BE DUP7 PUSH2 0x469A JUMP JUMPDEST PUSH1 0x0 JUMPDEST DUP3 DUP2 LT ISZERO PUSH2 0x48E6 JUMPI DUP5 DUP10 ADD MLOAD DUP3 SSTORE PUSH1 0x1 DUP3 ADD SWAP2 POP PUSH1 0x20 DUP6 ADD SWAP5 POP PUSH1 0x20 DUP2 ADD SWAP1 POP PUSH2 0x48C1 JUMP JUMPDEST DUP7 DUP4 LT ISZERO PUSH2 0x4903 JUMPI DUP5 DUP10 ADD MLOAD PUSH2 0x48FF PUSH1 0x1F DUP10 AND DUP3 PUSH2 0x480C JUMP JUMPDEST DUP4 SSTORE POP JUMPDEST PUSH1 0x1 PUSH1 0x2 DUP9 MUL ADD DUP9 SSTORE POP POP POP JUMPDEST POP POP POP POP POP POP JUMP JUMPDEST PUSH1 0x0 PUSH2 0x4923 DUP3 PUSH2 0x3A0E JUMP JUMPDEST SWAP2 POP PUSH2 0x492E DUP4 PUSH2 0x3A0E JUMP JUMPDEST SWAP3 POP DUP3 DUP3 MUL PUSH2 0x493C DUP2 PUSH2 0x3A0E JUMP JUMPDEST SWAP2 POP DUP3 DUP3 DIV DUP5 EQ DUP4 ISZERO OR PUSH2 0x4953 JUMPI PUSH2 0x4952 PUSH2 0x3FDF JUMP JUMPDEST JUMPDEST POP SWAP3 SWAP2 POP POP JUMP JUMPDEST PUSH1 0x0 DUP2 SWAP1 POP SWAP2 SWAP1 POP JUMP JUMPDEST PUSH2 0x4975 PUSH2 0x4970 DUP3 PUSH2 0x3A0E JUMP JUMPDEST PUSH2 0x495A JUMP JUMPDEST DUP3 MSTORE POP POP JUMP JUMPDEST PUSH1 0x0 PUSH20 0xFFFFFFFFFFFFFFFFFFFFFFFFFFFFFFFFFFFFFFFF DUP3 AND SWAP1 POP SWAP2 SWAP1 POP JUMP JUMPDEST PUSH1 0x0 PUSH2 0x49A6 DUP3 PUSH2 0x497B JUMP JUMPDEST SWAP1 POP SWAP2 SWAP1 POP JUMP JUMPDEST PUSH1 0x0 DUP2 PUSH1 0x60 SHL SWAP1 POP SWAP2 SWAP1 POP JUMP JUMPDEST PUSH1 0x0 PUSH2 0x49C5 DUP3 PUSH2 0x49AD JUMP JUMPDEST SWAP1 POP SWAP2 SWAP1 POP JUMP JUMPDEST PUSH1 0x0 PUSH2 0x49D7 DUP3 PUSH2 0x49BA JUMP JUMPDEST SWAP1 POP SWAP2 SWAP1 POP JUMP JUMPDEST PUSH2 0x49EF PUSH2 0x49EA DUP3 PUSH2 0x499B JUMP JUMPDEST PUSH2 0x49CC JUMP JUMPDEST DUP3 MSTORE POP POP JUMP JUMPDEST PUSH1 0x0 PUSH2 0x4A01 DUP3 DUP7 PUSH2 0x4964 JUMP JUMPDEST PUSH1 0x20 DUP3 ADD SWAP2 POP PUSH2 0x4A11 DUP3 DUP6 PUSH2 0x49DE JUMP JUMPDEST PUSH1 0x14 DUP3 ADD SWAP2 POP PUSH2 0x4A21 DUP3 DUP5 PUSH2 0x4964 JUMP JUMPDEST PUSH1 0x20 DUP3 ADD SWAP2 POP DUP2 SWAP1 POP SWAP5 SWAP4 POP POP POP POP JUMP JUMPDEST PUSH32 0x4E487B7100000000000000000000000000000000000000000000000000000000 PUSH1 0x0 MSTORE PUSH1 0x12 PUSH1 0x4 MSTORE PUSH1 0x24 PUSH1 0x0 REVERT JUMPDEST PUSH1 0x0 PUSH2 0x4A6C DUP3 PUSH2 0x3A0E JUMP JUMPDEST SWAP2 POP PUSH2 0x4A77 DUP4 PUSH2 0x3A0E JUMP JUMPDEST SWAP3 POP DUP3 PUSH2 0x4A87 JUMPI PUSH2 0x4A86 PUSH2 0x4A32 JUMP JUMPDEST JUMPDEST DUP3 DUP3 MOD SWAP1 POP SWAP3 SWAP2 POP POP JUMP INVALID LOG2 PUSH5 0x6970667358 0x22 SLT KECCAK256 0x27 JUMPDEST 0x29 DUP1 0xD8 PUSH18 0xEBE7272F75CC087AC6BF5C5B0C1EA825759D CODESIZE PUSH6 0xE71639D58E85 PUSH5 0x736F6C6343 STOP ADDMOD GT STOP CALLER "
		},
		"gasEstimates": {
			"creation": {
				"codeDepositCost": "3828800",
				"executionCost": "infinite",
				"totalCost": "infinite"
			},
			"external": {
				"BET_MAX()": "395",
				"BET_MIN()": "419",
				"betAmount()": "2517",
				"deal()": "infinite",
				"dealerBusted()": "2496",
				"dealerCardCount()": "2496",
				"dealerHandValue(uint256,uint256)": "infinite",
				"dealerStands()": "2518",
				"dealersCards(uint256,uint256)": "infinite",
				"dealtCards(uint256,uint256)": "infinite",
				"finalDealerCount()": "2475",
				"finalPlayerCount()": "2473",
				"fundContract(uint256)": "infinite",
				"gameInProgress()": "2519",
				"hitDealer()": "infinite",
				"hitPlayer()": "infinite",
				"houseBalance()": "2475",
				"placeBet(uint256)": "infinite",
				"playerBalance()": "2540",
				"playerBusted()": "2563",
				"playerCardCount()": "2519",
				"playerHandValue(uint256,uint256)": "infinite",
				"playerStand()": "232296",
				"playerStands()": "2497",
				"playerWithdraw(uint256)": "infinite",
				"playersCards(uint256,uint256)": "infinite",
				"replaceDuplicates(uint256[2][4])": "infinite"
			},
			"internal": {
				"evaluateDealerHand()": "88799",
				"evaluatePlayerHand()": "207811",
				"getCards(uint256)": "infinite",
				"getRandom()": "infinite",
				"getSlice(uint256,uint256,string memory)": "infinite",
				"numCardsInArray(uint256[2] memory[16] memory)": "infinite",
				"pushToDealer(uint256,uint256,uint256)": "infinite",
				"pushToPlayer(uint256,uint256,uint256)": "infinite",
				"stringToUint(string memory)": "infinite",
				"sumDealersCards()": "infinite",
				"sumPlayersCards()": "infinite"
			}
		},
		"methodIdentifiers": {
			"BET_MAX()": "d0017a0c",
			"BET_MIN()": "2626ab08",
			"betAmount()": "d24257c0",
			"deal()": "553df021",
			"dealerBusted()": "c5c3cd78",
			"dealerCardCount()": "908a0979",
			"dealerHandValue(uint256,uint256)": "53a218c9",
			"dealerStands()": "a10926d6",
			"dealersCards(uint256,uint256)": "8bbb236f",
			"dealtCards(uint256,uint256)": "2fcb6992",
			"finalDealerCount()": "13bf01ed",
			"finalPlayerCount()": "cdc7ea51",
			"fundContract(uint256)": "3519a2f8",
			"gameInProgress()": "3fb64e75",
			"hitDealer()": "c2855a59",
			"hitPlayer()": "dae10ed5",
			"houseBalance()": "67084eb3",
			"placeBet(uint256)": "10fe7c48",
			"playerBalance()": "651f066a",
			"playerBusted()": "325eb3f5",
			"playerCardCount()": "8914d63b",
			"playerHandValue(uint256,uint256)": "16dd37dd",
			"playerStand()": "c9f09d38",
			"playerStands()": "3c3248d5",
			"playerWithdraw(uint256)": "5629365b",
			"playersCards(uint256,uint256)": "bdbe451b",
			"replaceDuplicates(uint256[2][4])": "7b0d3625"
		}
	},
	"abi": [
		{
			"inputs": [],
			"name": "BET_MAX",
			"outputs": [
				{
					"internalType": "uint256",
					"name": "",
					"type": "uint256"
				}
			],
			"stateMutability": "view",
			"type": "function"
		},
		{
			"inputs": [],
			"name": "BET_MIN",
			"outputs": [
				{
					"internalType": "uint256",
					"name": "",
					"type": "uint256"
				}
			],
			"stateMutability": "view",
			"type": "function"
		},
		{
			"inputs": [],
			"name": "betAmount",
			"outputs": [
				{
					"internalType": "uint256",
					"name": "",
					"type": "uint256"
				}
			],
			"stateMutability": "view",
			"type": "function"
		},
		{
			"inputs": [],
			"name": "deal",
			"outputs": [],
			"stateMutability": "nonpayable",
			"type": "function"
		},
		{
			"inputs": [],
			"name": "dealerBusted",
			"outputs": [
				{
					"internalType": "uint256",
					"name": "",
					"type": "uint256"
				}
			],
			"stateMutability": "view",
			"type": "function"
		},
		{
			"inputs": [],
			"name": "dealerCardCount",
			"outputs": [
				{
					"internalType": "uint256",
					"name": "",
					"type": "uint256"
				}
			],
			"stateMutability": "view",
			"type": "function"
		},
		{
			"inputs": [
				{
					"internalType": "uint256",
					"name": "",
					"type": "uint256"
				},
				{
					"internalType": "uint256",
					"name": "",
					"type": "uint256"
				}
			],
			"name": "dealerHandValue",
			"outputs": [
				{
					"internalType": "uint256",
					"name": "",
					"type": "uint256"
				}
			],
			"stateMutability": "view",
			"type": "function"
		},
		{
			"inputs": [],
			"name": "dealerStands",
			"outputs": [
				{
					"internalType": "uint256",
					"name": "",
					"type": "uint256"
				}
			],
			"stateMutability": "view",
			"type": "function"
		},
		{
			"inputs": [
				{
					"internalType": "uint256",
					"name": "",
					"type": "uint256"
				},
				{
					"internalType": "uint256",
					"name": "",
					"type": "uint256"
				}
			],
			"name": "dealersCards",
			"outputs": [
				{
					"internalType": "uint256",
					"name": "",
					"type": "uint256"
				}
			],
			"stateMutability": "view",
			"type": "function"
		},
		{
			"inputs": [
				{
					"internalType": "uint256",
					"name": "",
					"type": "uint256"
				},
				{
					"internalType": "uint256",
					"name": "",
					"type": "uint256"
				}
			],
			"name": "dealtCards",
			"outputs": [
				{
					"internalType": "uint256",
					"name": "",
					"type": "uint256"
				}
			],
			"stateMutability": "view",
			"type": "function"
		},
		{
			"inputs": [],
			"name": "finalDealerCount",
			"outputs": [
				{
					"internalType": "uint256",
					"name": "",
					"type": "uint256"
				}
			],
			"stateMutability": "view",
			"type": "function"
		},
		{
			"inputs": [],
			"name": "finalPlayerCount",
			"outputs": [
				{
					"internalType": "uint256",
					"name": "",
					"type": "uint256"
				}
			],
			"stateMutability": "view",
			"type": "function"
		},
		{
			"inputs": [
				{
					"internalType": "uint256",
					"name": "house_or_player",
					"type": "uint256"
				}
			],
			"name": "fundContract",
			"outputs": [],
			"stateMutability": "payable",
			"type": "function"
		},
		{
			"inputs": [],
			"name": "gameInProgress",
			"outputs": [
				{
					"internalType": "uint256",
					"name": "",
					"type": "uint256"
				}
			],
			"stateMutability": "view",
			"type": "function"
		},
		{
			"inputs": [],
			"name": "hitDealer",
			"outputs": [],
			"stateMutability": "nonpayable",
			"type": "function"
		},
		{
			"inputs": [],
			"name": "hitPlayer",
			"outputs": [],
			"stateMutability": "nonpayable",
			"type": "function"
		},
		{
			"inputs": [],
			"name": "houseBalance",
			"outputs": [
				{
					"internalType": "uint256",
					"name": "",
					"type": "uint256"
				}
			],
			"stateMutability": "view",
			"type": "function"
		},
		{
			"inputs": [
				{
					"internalType": "uint256",
					"name": "_betAmount",
					"type": "uint256"
				}
			],
			"name": "placeBet",
			"outputs": [],
			"stateMutability": "payable",
			"type": "function"
		},
		{
			"inputs": [],
			"name": "playerBalance",
			"outputs": [
				{
					"internalType": "uint256",
					"name": "",
					"type": "uint256"
				}
			],
			"stateMutability": "view",
			"type": "function"
		},
		{
			"inputs": [],
			"name": "playerBusted",
			"outputs": [
				{
					"internalType": "uint256",
					"name": "",
					"type": "uint256"
				}
			],
			"stateMutability": "view",
			"type": "function"
		},
		{
			"inputs": [],
			"name": "playerCardCount",
			"outputs": [
				{
					"internalType": "uint256",
					"name": "",
					"type": "uint256"
				}
			],
			"stateMutability": "view",
			"type": "function"
		},
		{
			"inputs": [
				{
					"internalType": "uint256",
					"name": "",
					"type": "uint256"
				},
				{
					"internalType": "uint256",
					"name": "",
					"type": "uint256"
				}
			],
			"name": "playerHandValue",
			"outputs": [
				{
					"internalType": "uint256",
					"name": "",
					"type": "uint256"
				}
			],
			"stateMutability": "view",
			"type": "function"
		},
		{
			"inputs": [],
			"name": "playerStand",
			"outputs": [],
			"stateMutability": "nonpayable",
			"type": "function"
		},
		{
			"inputs": [],
			"name": "playerStands",
			"outputs": [
				{
					"internalType": "uint256",
					"name": "",
					"type": "uint256"
				}
			],
			"stateMutability": "view",
			"type": "function"
		},
		{
			"inputs": [
				{
					"internalType": "uint256",
					"name": "amount",
					"type": "uint256"
				}
			],
			"name": "playerWithdraw",
			"outputs": [],
			"stateMutability": "payable",
			"type": "function"
		},
		{
			"inputs": [
				{
					"internalType": "uint256",
					"name": "",
					"type": "uint256"
				},
				{
					"internalType": "uint256",
					"name": "",
					"type": "uint256"
				}
			],
			"name": "playersCards",
			"outputs": [
				{
					"internalType": "uint256",
					"name": "",
					"type": "uint256"
				}
			],
			"stateMutability": "view",
			"type": "function"
		},
		{
			"inputs": [
				{
					"internalType": "uint256[2][4]",
					"name": "array",
					"type": "uint256[2][4]"
				}
			],
			"name": "replaceDuplicates",
			"outputs": [
				{
					"internalType": "uint256[2][4]",
					"name": "",
					"type": "uint256[2][4]"
				}
			],
			"stateMutability": "nonpayable",
			"type": "function"
		}
	]
}