{
	"data": {
		"bytecode": {
			"linkReferences": {},
			"object": "60806040526000600155600060025560006003556000600455600060055560006006556000600755600060585560006059556000605a556000605b556000605c556000605d556000605e556000605f5560006060556000606160006101000a81548173ffffffffffffffffffffffffffffffffffffffff021916908373ffffffffffffffffffffffffffffffffffffffff1602179055506000606260006101000a81548173ffffffffffffffffffffffffffffffffffffffff021916908373ffffffffffffffffffffffffffffffffffffffff1602179055503480156100e457600080fd5b50614cbe806100f46000396000f3fe6080604052600436106101815760003560e01c80638914d63b116100d1578063c2855a591161008a578063cdc7ea5111610064578063cdc7ea5114610510578063d0017a0c1461053b578063d24257c014610566578063dae10ed51461059157610181565b8063c2855a59146104b7578063c5c3cd78146104ce578063c9f09d38146104f957610181565b80638914d63b146103a55780638bbb236f146103d0578063908a09791461040d578063a10926d614610438578063a7e1f6a214610463578063bdbe451b1461047a57610181565b80633c3248d51161013e578063553df02111610118578063553df0211461031c5780635629365b14610333578063651f066a1461034f57806367084eb31461037a57610181565b80633c3248d5146102895780633fb64e75146102b457806353a218c9146102df57610181565b806310fe7c481461018657806313bf01ed146101af57806316dd37dd146101da5780632626ab0814610217578063325eb3f5146102425780633519a2f81461026d575b600080fd5b34801561019257600080fd5b506101ad60048036038101906101a89190613f5d565b6105a8565b005b3480156101bb57600080fd5b506101c4610786565b6040516101d191906144fa565b60405180910390f35b3480156101e657600080fd5b5061020160048036038101906101fc9190613f8a565b61078c565b60405161020e91906144fa565b60405180910390f35b34801561022357600080fd5b5061022c6107ba565b60405161023991906144fa565b60405180910390f35b34801561024e57600080fd5b506102576107bf565b60405161026491906144fa565b60405180910390f35b61028760048036038101906102829190613f5d565b6107c5565b005b34801561029557600080fd5b5061029e610cf6565b6040516102ab91906144fa565b60405180910390f35b3480156102c057600080fd5b506102c9610cfc565b6040516102d691906144fa565b60405180910390f35b3480156102eb57600080fd5b5061030660048036038101906103019190613f8a565b610d02565b60405161031391906144fa565b60405180910390f35b34801561032857600080fd5b50610331610d30565b005b61034d60048036038101906103489190613f5d565b611221565b005b34801561035b57600080fd5b5061036461143f565b60405161037191906144fa565b60405180910390f35b34801561038657600080fd5b5061038f611445565b60405161039c91906144fa565b60405180910390f35b3480156103b157600080fd5b506103ba61144b565b6040516103c791906144fa565b60405180910390f35b3480156103dc57600080fd5b506103f760048036038101906103f29190613f8a565b611451565b60405161040491906144fa565b60405180910390f35b34801561041957600080fd5b5061042261147f565b60405161042f91906144fa565b60405180910390f35b34801561044457600080fd5b5061044d611485565b60405161045a91906144fa565b60405180910390f35b34801561046f57600080fd5b5061047861148b565b005b34801561048657600080fd5b506104a1600480360381019061049c9190613f8a565b6115a4565b6040516104ae91906144fa565b60405180910390f35b3480156104c357600080fd5b506104cc6115d2565b005b3480156104da57600080fd5b506104e3611902565b6040516104f091906144fa565b60405180910390f35b34801561050557600080fd5b5061050e611908565b005b34801561051c57600080fd5b50610525611a00565b60405161053291906144fa565b60405180910390f35b34801561054757600080fd5b50610550611a06565b60405161055d91906144fa565b60405180910390f35b34801561057257600080fd5b5061057b611a12565b60405161058891906144fa565b60405180910390f35b34801561059d57600080fd5b506105a6611a18565b005b80600181101580156105c25750670de0b6b3a76400008111155b6105cb57600080fd5b600354811115610610576040517f08c379a0000000000000000000000000000000000000000000000000000000008152600401610607906142fa565b60405180910390fd5b606160009054906101000a900473ffffffffffffffffffffffffffffffffffffffff1673ffffffffffffffffffffffffffffffffffffffff163373ffffffffffffffffffffffffffffffffffffffff16146106a0576040517f08c379a00000000000000000000000000000000000000000000000000000000081526004016106979061431a565b60405180910390fd5b6000600454146106e5576040517f08c379a00000000000000000000000000000000000000000000000000000000081526004016106dc906144ba565b60405180910390fd5b60008054906101000a900460ff1615610733576040517f08c379a000000000000000000000000000000000000000000000000000000000815260040161072a9061435a565b60405180910390fd5b60016000806101000a81548160ff0219169083151502179055508160035461075b9190614607565b6003819055508160048190555060008060006101000a81548160ff0219169083151502179055505050565b605d5481565b6048826002811061079c57600080fd5b6002020181600281106107ae57600080fd5b01600091509150505481565b600181565b605a5481565b80600073ffffffffffffffffffffffffffffffffffffffff16606260009054906101000a900473ffffffffffffffffffffffffffffffffffffffff1673ffffffffffffffffffffffffffffffffffffffff1614806108715750600073ffffffffffffffffffffffffffffffffffffffff16606160009054906101000a900473ffffffffffffffffffffffffffffffffffffffff1673ffffffffffffffffffffffffffffffffffffffff16145b806108c95750606260009054906101000a900473ffffffffffffffffffffffffffffffffffffffff1673ffffffffffffffffffffffffffffffffffffffff163373ffffffffffffffffffffffffffffffffffffffff16145b806109215750606160009054906101000a900473ffffffffffffffffffffffffffffffffffffffff1673ffffffffffffffffffffffffffffffffffffffff163373ffffffffffffffffffffffffffffffffffffffff16145b610960576040517f08c379a0000000000000000000000000000000000000000000000000000000008152600401610957906143ba565b60405180910390fd5b600081148061096f5750600181145b6109ae576040517f08c379a00000000000000000000000000000000000000000000000000000000081526004016109a59061437a565b60405180910390fd5b6000821415610b5057606260009054906101000a900473ffffffffffffffffffffffffffffffffffffffff1673ffffffffffffffffffffffffffffffffffffffff163373ffffffffffffffffffffffffffffffffffffffff161480610a615750600073ffffffffffffffffffffffffffffffffffffffff16606260009054906101000a900473ffffffffffffffffffffffffffffffffffffffff1673ffffffffffffffffffffffffffffffffffffffff16145b8015610abb5750606160009054906101000a900473ffffffffffffffffffffffffffffffffffffffff1673ffffffffffffffffffffffffffffffffffffffff163373ffffffffffffffffffffffffffffffffffffffff1614155b610afa576040517f08c379a0000000000000000000000000000000000000000000000000000000008152600401610af1906143da565b60405180910390fd5b33606260006101000a81548173ffffffffffffffffffffffffffffffffffffffff021916908373ffffffffffffffffffffffffffffffffffffffff16021790555034600254610b499190614526565b6002819055505b6001821415610cf257606160009054906101000a900473ffffffffffffffffffffffffffffffffffffffff1673ffffffffffffffffffffffffffffffffffffffff163373ffffffffffffffffffffffffffffffffffffffff161480610c035750600073ffffffffffffffffffffffffffffffffffffffff16606160009054906101000a900473ffffffffffffffffffffffffffffffffffffffff1673ffffffffffffffffffffffffffffffffffffffff16145b8015610c5d5750606260009054906101000a900473ffffffffffffffffffffffffffffffffffffffff1673ffffffffffffffffffffffffffffffffffffffff163373ffffffffffffffffffffffffffffffffffffffff1614155b610c9c576040517f08c379a0000000000000000000000000000000000000000000000000000000008152600401610c939061433a565b60405180910390fd5b33606160006101000a81548173ffffffffffffffffffffffffffffffffffffffff021916908373ffffffffffffffffffffffffffffffffffffffff16021790555034600354610ceb9190614526565b6003819055505b5050565b605e5481565b60015481565b604c8260028110610d1257600080fd5b600202018160028110610d2457600080fd5b01600091509150505481565b60008054906101000a900460ff1615610d7e576040517f08c379a0000000000000000000000000000000000000000000000000000000008152600401610d759061435a565b60405180910390fd5b60016000806101000a81548160ff021916908315150217905550600060045411610ddd576040517f08c379a0000000000000000000000000000000000000000000000000000000008152600401610dd4906143fa565b60405180910390fd5b600180819055506000605e819055506000605a819055506000605b819055506000605e819055506000605f819055506000605d819055506000605c8190555060006048600160028110610e3357610e3261477d565b5b60020201600060028110610e4a57610e4961477d565b5b018190555060006048600160028110610e6657610e6561477d565b5b60020201600160028110610e7d57610e7c61477d565b5b01819055506000600190505b600f8111610fda57600060088260108110610ea757610ea661477d565b5b60020201600060028110610ebe57610ebd61477d565b5b0181905550600060088260108110610ed957610ed861477d565b5b60020201600160028110610ef057610eef61477d565b5b0181905550600060288260108110610f0b57610f0a61477d565b5b60020201600060028110610f2257610f2161477d565b5b0181905550600060288260108110610f3d57610f3c61477d565b5b60020201600160028110610f5457610f5361477d565b5b01819055506004811015610fc757600060508260048110610f7857610f7761477d565b5b60020201600060028110610f8f57610f8e61477d565b5b0181905550600060508260048110610faa57610fa961477d565b5b60020201600160028110610fc157610fc061477d565b5b01819055505b8080610fd290614677565b915050610e89565b50610fe56003611db5565b6110636050600480602002604051908101604052809291906000905b8282101561105a57838260020201600280602002604051908101604052809291908260028015611046576020028201915b815481526020019060010190808311611032575b505050505081526020019060010190611001565b50505050612073565b6050906004611073929190613e19565b506110da605060016004811061108c5761108b61477d565b5b600202016000600281106110a3576110a261477d565b5b015460506001600481106110ba576110b961477d565b5b600202016001600281106110d1576110d061477d565b5b015460016123d5565b61114060506002600481106110f2576110f161477d565b5b600202016000600281106111095761110861477d565b5b015460506002600481106111205761111f61477d565b5b600202016001600281106111375761113661477d565b5b015460016124c0565b6111a660506003600481106111585761115761477d565b5b6002020160006002811061116f5761116e61477d565b5b015460506003600481106111865761118561477d565b5b6002020160016002811061119d5761119c61477d565b5b015460026123d5565b6111ae6125ab565b6111b6612822565b6111be612a99565b6111c661301d565b601560486001600281106111dd576111dc61477d565b5b600202016001600281106111f4576111f361477d565b5b01541415611205576112046134d3565b5b60008060006101000a81548160ff021916908315150217905550565b80600060035411611267576040517f08c379a000000000000000000000000000000000000000000000000000000000815260040161125e9061443a565b60405180910390fd5b606160009054906101000a900473ffffffffffffffffffffffffffffffffffffffff1673ffffffffffffffffffffffffffffffffffffffff163373ffffffffffffffffffffffffffffffffffffffff16146112f7576040517f08c379a00000000000000000000000000000000000000000000000000000000081526004016112ee906144da565b60405180910390fd5b60035481111561133c576040517f08c379a00000000000000000000000000000000000000000000000000000000081526004016113339061445a565b60405180910390fd5b60008054906101000a900460ff161561138a576040517f08c379a00000000000000000000000000000000000000000000000000000000081526004016113819061435a565b60405180910390fd5b60016000806101000a81548160ff021916908315150217905550816003546113b29190614607565b600381905550606160009054906101000a900473ffffffffffffffffffffffffffffffffffffffff1673ffffffffffffffffffffffffffffffffffffffff166108fc839081150290604051600060405180830381858888f19350505050158015611420573d6000803e3d6000fd5b5060008060006101000a81548160ff0219169083151502179055505050565b60035481565b60025481565b60585481565b6028826010811061146157600080fd5b60020201816002811061147357600080fd5b01600091509150505481565b60595481565b605f5481565b60018054146114cf576040517f08c379a00000000000000000000000000000000000000000000000000000000081526004016114c69061441a565b60405180910390fd5b600260585414611514576040517f08c379a000000000000000000000000000000000000000000000000000000000815260040161150b906142ba565b60405180910390fd5b600260045461152391906145ad565b6003541015611567576040517f08c379a000000000000000000000000000000000000000000000000000000000815260040161155e9061447a565b60405180910390fd5b6004546003546115779190614607565b600381905550600260045461158c91906145ad565b60048190555061159a611a18565b6115a2611908565b565b600882601081106115b457600080fd5b6002020181600281106115c657600080fd5b01600091509150505481565b6011605d5410611617576040517f08c379a000000000000000000000000000000000000000000000000000000000815260040161160e906142da565b60405180910390fd5b6001605a54148061162a57506001605e54145b61163357600080fd5b60006116b36028601080602002604051908101604052809291906000905b828210156116aa57838260020201600280602002604051908101604052809291908260028015611696576020028201915b815481526020019060010190808311611682575b505050505081526020019060010190611651565b50505050613866565b90506116bf6001611db5565b6000600190505b600b811161187d575b60506001600481106116e4576116e361477d565b5b600202016000600281106116fb576116fa61477d565b5b0154600882601081106117115761171061477d565b5b600202016000600281106117285761172761477d565b5b015414801561178f575060506001600481106117475761174661477d565b5b6002020160016002811061175e5761175d61477d565b5b0154600882601081106117745761177361477d565b5b6002020160006002811061178b5761178a61477d565b5b0154145b80611856575060506001600481106117aa576117a961477d565b5b600202016000600281106117c1576117c061477d565b5b0154602882601081106117d7576117d661477d565b5b600202016000600281106117ee576117ed61477d565b5b01541480156118555750605060016004811061180d5761180c61477d565b5b600202016001600281106118245761182361477d565b5b01546028826010811061183a5761183961477d565b5b600202016001600281106118515761185061477d565b5b0154145b5b1561186a576118656001611db5565b6116cf565b808061187590614677565b9150506116c6565b506118ef60506001600481106118965761189561477d565b5b600202016000600281106118ad576118ac61477d565b5b015460506001600481106118c4576118c361477d565b5b600202016001600281106118db576118da61477d565b5b01546001846118ea9190614526565b6124c0565b6118f7612822565b6118ff612a99565b50565b605b5481565b6000605e541461194d576040517f08c379a00000000000000000000000000000000000000000000000000000000081526004016119449061449a565b60405180910390fd5b6000605a5414611992576040517f08c379a00000000000000000000000000000000000000000000000000000000081526004016119899061439a565b60405180910390fd5b60018054146119d6576040517f08c379a00000000000000000000000000000000000000000000000000000000081526004016119cd9061441a565b60405180910390fd5b6001605e819055506119e661301d565b5b6001805414156119fe576119f96115d2565b6119e7565b565b605c5481565b670de0b6b3a764000081565b60045481565b6001805414611a5c576040517f08c379a0000000000000000000000000000000000000000000000000000000008152600401611a539061441a565b60405180910390fd5b6000605a5414611aa1576040517f08c379a0000000000000000000000000000000000000000000000000000000008152600401611a989061439a565b60405180910390fd5b6000605e5414611ae6576040517f08c379a0000000000000000000000000000000000000000000000000000000008152600401611add9061449a565b60405180910390fd5b6000611b666008601080602002604051908101604052809291906000905b82821015611b5d57838260020201600280602002604051908101604052809291908260028015611b49576020028201915b815481526020019060010190808311611b35575b505050505081526020019060010190611b04565b50505050613866565b9050611b726001611db5565b6000600190505b600b8111611d30575b6050600160048110611b9757611b9661477d565b5b60020201600060028110611bae57611bad61477d565b5b015460088260108110611bc457611bc361477d565b5b60020201600060028110611bdb57611bda61477d565b5b0154148015611c4257506050600160048110611bfa57611bf961477d565b5b60020201600160028110611c1157611c1061477d565b5b015460088260108110611c2757611c2661477d565b5b60020201600060028110611c3e57611c3d61477d565b5b0154145b80611d0957506050600160048110611c5d57611c5c61477d565b5b60020201600060028110611c7457611c7361477d565b5b015460288260108110611c8a57611c8961477d565b5b60020201600060028110611ca157611ca061477d565b5b0154148015611d0857506050600160048110611cc057611cbf61477d565b5b60020201600160028110611cd757611cd661477d565b5b015460288260108110611ced57611cec61477d565b5b60020201600160028110611d0457611d0361477d565b5b0154145b5b15611d1d57611d186001611db5565b611b82565b8080611d2890614677565b915050611b79565b50611da26050600160048110611d4957611d4861477d565b5b60020201600060028110611d6057611d5f61477d565b5b01546050600160048110611d7757611d7661477d565b5b60020201600160028110611d8e57611d8d61477d565b5b0154600184611d9d9190614526565b6123d5565b611daa6125ab565b611db261301d565b50565b600060405180602001604052806000815250905060006040518060200160405280600081525090506000806001905060005b85821161206b5760006003905060006004905060006007819055506000600681905550611e126138de565b600581905550611e23600554613992565b9650611e30828289613a6a565b9550611e3b86613b7f565b9250865194505b6001831080611e515750600d83115b8015611e685750600385611e659190614607565b82105b15611efc57600282611e7a9190614526565b9150600281611e899190614526565b9050611e96828289613a6a565b9550611ea186613b7f565b9250600385611eb09190614607565b821115611ef7576003915060049050611ec76138de565b600581905550611ed8600554613992565b9650611ee5828289613a6a565b9550611ef086613b7f565b9250865194505b611e42565b82600781905550600282611f109190614526565b9150600281611f1f9190614526565b9050611f2c828289613a6a565b9550611f3786613b7f565b92505b6001831080611f495750600483115b8015611f605750600385611f5d9190614607565b82105b15611fe857600182611f729190614526565b9150819050611f82828289613a6a565b9550611f8d86613b7f565b9250600385611f9c9190614607565b821115611fe3576004915060049050611fb36138de565b600581905550611fc4600554613992565b9650611fd1828289613a6a565b9550611fdc86613b7f565b9250865194505b611f3a565b82600681905550600754605085600481106120065761200561477d565b5b6002020160006002811061201d5761201c61477d565b5b0181905550600654605085600481106120395761203861477d565b5b600202016001600281106120505761204f61477d565b5b01819055506001846120629190614526565b93505050611de7565b505050505050565b61207b613e6a565b5b816002600481106120905761208f61477d565b5b60200201516000600281106120a8576120a761477d565b5b6020020151826001600481106120c1576120c061477d565b5b60200201516000600281106120d9576120d861477d565b5b602002015114801561214a5750816002600481106120fa576120f961477d565b5b60200201516001600281106121125761211161477d565b5b60200201518260016004811061212b5761212a61477d565b5b60200201516001600281106121435761214261477d565b5b6020020151145b15612224576121596001611db5565b605060016004811061216e5761216d61477d565b5b600202016000600281106121855761218461477d565b5b01548260026004811061219b5761219a61477d565b5b60200201516000600281106121b3576121b261477d565b5b60200201818152505060506001600481106121d1576121d061477d565b5b600202016001600281106121e8576121e761477d565b5b0154826002600481106121fe576121fd61477d565b5b60200201516001600281106122165761221561477d565b5b60200201818152505061207c565b5b816003600481106122395761223861477d565b5b60200201516000600281106122515761225061477d565b5b60200201518260026004811061226a5761226961477d565b5b60200201516000600281106122825761228161477d565b5b60200201511480156122f35750816003600481106122a3576122a261477d565b5b60200201516001600281106122bb576122ba61477d565b5b6020020151826002600481106122d4576122d361477d565b5b60200201516001600281106122ec576122eb61477d565b5b6020020151145b156123cd576123026001611db5565b60506001600481106123175761231661477d565b5b6002020160006002811061232e5761232d61477d565b5b0154826003600481106123445761234361477d565b5b602002015160006002811061235c5761235b61477d565b5b602002018181525050605060016004811061237a5761237961477d565b5b600202016001600281106123915761239061477d565b5b0154826003600481106123a7576123a661477d565b5b60200201516001600281106123bf576123be61477d565b5b602002018181525050612225565b819050919050565b82600882601081106123ea576123e961477d565b5b600202016000600281106124015761240061477d565b5b0181905550816008826010811061241b5761241a61477d565b5b600202016001600281106124325761243161477d565b5b01819055506124b56008601080602002604051908101604052809291906000905b828210156124ac57838260020201600280602002604051908101604052809291908260028015612498576020028201915b815481526020019060010190808311612484575b505050505081526020019060010190612453565b50505050613866565b605881905550505050565b82602882601081106124d5576124d461477d565b5b600202016000600281106124ec576124eb61477d565b5b018190555081602882601081106125065761250561477d565b5b6002020160016002811061251d5761251c61477d565b5b01819055506125a06028601080602002604051908101604052809291906000905b8282101561259757838260020201600280602002604051908101604052809291908260028015612583576020028201915b81548152602001906001019080831161256f575b50505050508152602001906001019061253e565b50505050613866565b605981905550505050565b60008061262c6008601080602002604051908101604052809291906000905b828210156126235783826002020160028060200260405190810160405280929190826002801561260f576020028201915b8154815260200190600101908083116125fb575b5050505050815260200190600101906125ca565b50505050613866565b6058819055506000600190505b6058548111612744576009600882601081106126585761265761477d565b5b6002020160006002811061266f5761266e61477d565b5b0154111561268757600a836126849190614526565b92505b600a6008826010811061269d5761269c61477d565b5b600202016000600281106126b4576126b361477d565b5b015410156126f757600881601081106126d0576126cf61477d565b5b600202016000600281106126e7576126e661477d565b5b0154836126f49190614526565b92505b60016008826010811061270d5761270c61477d565b5b600202016000600281106127245761272361477d565b5b0154141561273157600191505b808061273c90614677565b915050612639565b5081604860016002811061275b5761275a61477d565b5b600202016000600281106127725761277161477d565b5b018190555081604860016002811061278d5761278c61477d565b5b600202016001600281106127a4576127a361477d565b5b0181905550600181141561281e57600a60486001600281106127c9576127c861477d565b5b600202016001600281106127e0576127df61477d565b5b01546127ec9190614526565b60486001600281106128015761280061477d565b5b600202016001600281106128185761281761477d565b5b01819055505b5050565b6000806128a36028601080602002604051908101604052809291906000905b8282101561289a57838260020201600280602002604051908101604052809291908260028015612886576020028201915b815481526020019060010190808311612872575b505050505081526020019060010190612841565b50505050613866565b6059819055506000600190505b60595481116129bb576009602882601081106128cf576128ce61477d565b5b600202016000600281106128e6576128e561477d565b5b015411156128fe57600a836128fb9190614526565b92505b600a602882601081106129145761291361477d565b5b6002020160006002811061292b5761292a61477d565b5b0154101561296e57602881601081106129475761294661477d565b5b6002020160006002811061295e5761295d61477d565b5b01548361296b9190614526565b92505b6001602882601081106129845761298361477d565b5b6002020160006002811061299b5761299a61477d565b5b015414156129a857600191505b80806129b390614677565b9150506128b0565b5081604c6001600281106129d2576129d161477d565b5b600202016000600281106129e9576129e861477d565b5b018190555081604c600160028110612a0457612a0361477d565b5b60020201600160028110612a1b57612a1a61477d565b5b01819055506001811415612a9557600a604c600160028110612a4057612a3f61477d565b5b60020201600160028110612a5757612a5661477d565b5b0154612a639190614526565b604c600160028110612a7857612a7761477d565b5b60020201600160028110612a8f57612a8e61477d565b5b01819055505b5050565b6015604c600160028110612ab057612aaf61477d565b5b60020201600060028110612ac757612ac661477d565b5b015411158015612b0457506015604c600160028110612ae957612ae861477d565b5b60020201600160028110612b0057612aff61477d565b5b0154115b15612b3e57604c600160028110612b1e57612b1d61477d565b5b60020201600060028110612b3557612b3461477d565b5b0154605d819055505b6015604c600160028110612b5557612b5461477d565b5b60020201600060028110612b6c57612b6b61477d565b5b0154118015612ba9575060156048600160028110612b8d57612b8c61477d565b5b60020201600160028110612ba457612ba361477d565b5b015411155b15612be357604c600160028110612bc357612bc261477d565b5b60020201600160028110612bda57612bd961477d565b5b0154605d819055505b6015604c600160028110612bfa57612bf961477d565b5b60020201600060028110612c1157612c1061477d565b5b015411158015612c4f57506015604c600160028110612c3357612c3261477d565b5b60020201600160028110612c4a57612c4961477d565b5b015411155b15612d8257604c600160028110612c6957612c6861477d565b5b60020201600160028110612c8057612c7f61477d565b5b0154604c600160028110612c9757612c9661477d565b5b60020201600060028110612cae57612cad61477d565b5b01541115612ceb57604c600160028110612ccb57612cca61477d565b5b60020201600060028110612ce257612ce161477d565b5b0154605d819055505b604c600160028110612d0057612cff61477d565b5b60020201600160028110612d1757612d1661477d565b5b0154604c600160028110612d2e57612d2d61477d565b5b60020201600060028110612d4557612d4461477d565b5b015411612d8157604c600160028110612d6157612d6061477d565b5b60020201600160028110612d7857612d7761477d565b5b0154605d819055505b5b6010604c600160028110612d9957612d9861477d565b5b60020201600060028110612db057612daf61477d565b5b01541180612deb57506010604c600160028110612dd057612dcf61477d565b5b60020201600160028110612de757612de661477d565b5b0154115b1561301b576015604c600160028110612e0757612e0661477d565b5b60020201600060028110612e1e57612e1d61477d565b5b0154118015612e5a57506015604c600160028110612e3f57612e3e61477d565b5b60020201600160028110612e5657612e5561477d565b5b0154115b15612ff7576001605b819055506000600181905550604c600160028110612e8457612e8361477d565b5b60020201600160028110612e9b57612e9a61477d565b5b0154604c600160028110612eb257612eb161477d565b5b60020201600060028110612ec957612ec861477d565b5b015411612f0557604c600160028110612ee557612ee461477d565b5b60020201600060028110612efc57612efb61477d565b5b0154605d819055505b604c600160028110612f1a57612f1961477d565b5b60020201600160028110612f3157612f3061477d565b5b0154604c600160028110612f4857612f4761477d565b5b60020201600060028110612f5f57612f5e61477d565b5b01541115612f9c57604c600160028110612f7c57612f7b61477d565b5b60020201600160028110612f9357612f9261477d565b5b0154605d819055505b6000605a54148015612fb057506001605e54145b15612ff6576002600454612fc491906145ad565b600354612fd19190614526565b600381905550600454600254612fe79190614607565b60028190555060006004819055505b5b6001605b541461301a5760006001819055506001605f81905550613019613c17565b5b5b565b601560486001600281106130345761303361477d565b5b6002020160006002811061304b5761304a61477d565b5b015411801561308757506015604860016002811061306c5761306b61477d565b5b600202016001600281106130835761308261477d565b5b0154115b156131e8576001605a81905550600060018190555060486001600281106130b1576130b061477d565b5b600202016001600281106130c8576130c761477d565b5b015460486001600281106130df576130de61477d565b5b600202016000600281106130f6576130f561477d565b5b0154116131325760486001600281106131125761311161477d565b5b600202016000600281106131295761312861477d565b5b0154605c819055505b60486001600281106131475761314661477d565b5b6002020160016002811061315e5761315d61477d565b5b015460486001600281106131755761317461477d565b5b6002020160006002811061318c5761318b61477d565b5b015411156131c95760486001600281106131a9576131a861477d565b5b600202016001600281106131c0576131bf61477d565b5b0154605c819055505b6004546002546131d99190614526565b60028190555060006004819055505b601560486001600281106131ff576131fe61477d565b5b600202016000600281106132165761321561477d565b5b0154111580156132535750601560486001600281106132385761323761477d565b5b6002020160016002811061324f5761324e61477d565b5b0154115b1561328d57604860016002811061326d5761326c61477d565b5b600202016000600281106132845761328361477d565b5b0154605c819055505b601560486001600281106132a4576132a361477d565b5b600202016000600281106132bb576132ba61477d565b5b01541180156132f85750601560486001600281106132dc576132db61477d565b5b600202016001600281106132f3576132f261477d565b5b015411155b156133325760486001600281106133125761331161477d565b5b600202016001600281106133295761332861477d565b5b0154605c819055505b601560486001600281106133495761334861477d565b5b600202016000600281106133605761335f61477d565b5b01541115801561339e5750601560486001600281106133825761338161477d565b5b600202016001600281106133995761339861477d565b5b015411155b156134d15760486001600281106133b8576133b761477d565b5b600202016001600281106133cf576133ce61477d565b5b015460486001600281106133e6576133e561477d565b5b600202016000600281106133fd576133fc61477d565b5b0154111561343a57604860016002811061341a5761341961477d565b5b600202016000600281106134315761343061477d565b5b0154605c819055505b604860016002811061344f5761344e61477d565b5b600202016001600281106134665761346561477d565b5b0154604860016002811061347d5761347c61477d565b5b600202016000600281106134945761349361477d565b5b0154116134d05760486001600281106134b0576134af61477d565b5b600202016001600281106134c7576134c661477d565b5b0154605c819055505b5b565b600160286001601081106134ea576134e961477d565b5b600202016000600281106135015761350061477d565b5b0154148061353c5750600a604c6001600281106135215761352061477d565b5b600202016000600281106135385761353761477d565b5b0154145b156138645761354b6001611db5565b6000600190505b60018111613706575b60506001600481106135705761356f61477d565b5b600202016000600281106135875761358661477d565b5b01546008826010811061359d5761359c61477d565b5b600202016000600281106135b4576135b361477d565b5b0154148061361a575060506001600481106135d2576135d161477d565b5b600202016000600281106135e9576135e861477d565b5b0154602882601081106135ff576135fe61477d565b5b600202016000600281106136165761361561477d565b5b0154145b156136f35760506001600481106136345761363361477d565b5b6002020160016002811061364b5761364a61477d565b5b0154600882601081106136615761366061477d565b5b600202016001600281106136785761367761477d565b5b015414806136de575060506001600481106136965761369561477d565b5b600202016001600281106136ad576136ac61477d565b5b0154602882601081106136c3576136c261477d565b5b600202016001600281106136da576136d961477d565b5b0154145b156136ee576136ed6001611db5565b5b61355b565b80806136fe90614677565b915050613552565b5061376d605060016004811061371f5761371e61477d565b5b600202016000600281106137365761373561477d565b5b0154605060016004811061374d5761374c61477d565b5b600202016001600281106137645761376361477d565b5b015460026124c0565b613775612822565b61377d612a99565b6015604c6001600281106137945761379361477d565b5b600202016001600281106137ab576137aa61477d565b5b015414156137bc576137bb613ca6565b5b6015604c6001600281106137d3576137d261477d565b5b600202016001600281106137ea576137e961477d565b5b015414613863576002600360045461380291906145ad565b61380c919061457c565b60045460035461381c9190614526565b6138269190614526565b6003819055506002600360045461383d91906145ad565b613847919061457c565b6002546138549190614607565b60028190555060006004819055505b5b565b6000806000905060005b60108210156138d457600084836010811061388e5761388d61477d565b5b60200201516000600281106138a6576138a561477d565b5b6020020151146138c0576001816138bd9190614526565b90505b6001826138cd9190614526565b9150613870565b8092505050919050565b6000606060008154809291906138f390614677565b91905055507f028f5c28f5c28f5c28f5c28f5c28f5c28f5c28f5c28f5c28f5c28f5c28f5c28f600360605461392891906145ad565b436139339190614526565b336060546040516020016139499392919061427d565b6040516020818303038152906040528051906020012060001c61396c91906146ee565b6005819055506060600081548092919061398590614677565b9190505550600554905090565b6060600060016139a184613cc6565b01905060008167ffffffffffffffff8111156139c0576139bf6147ac565b5b6040519080825280601f01601f1916602001820160405280156139f25781602001600182028036833780820191505090505b509050600082602001820190505b600115613a5f578080600190039150507f3031323334353637383961626364656600000000000000000000000000000000600a86061a8153600a8581613a4957613a4861474e565b5b0494506000851415613a5a57613a5f565b613a00565b819350505050919050565b6060600060018585613a7c9190614607565b613a869190614526565b67ffffffffffffffff811115613a9f57613a9e6147ac565b5b6040519080825280601f01601f191660200182016040528015613ad15781602001600182028036833780820191505090505b50905060005b8585613ae39190614607565b8111613b73578360018783613af89190614526565b613b029190614607565b81518110613b1357613b1261477d565b5b602001015160f81c60f81b828281518110613b3157613b3061477d565b5b60200101907effffffffffffffffffffffffffffffffffffffffffffffffffffffffffffff1916908160001a9053508080613b6b90614677565b915050613ad7565b50809150509392505050565b6000808290506000805b8251811015613c0c576000838281518110613ba757613ba661477d565b5b602001015160f81c60f81b60f81c60ff16905060308110158015613bcc575060398111155b15613bf857603081613bde9190614607565b600a84613beb91906145ad565b613bf59190614526565b92505b508080613c0490614677565b915050613b89565b508092505050919050565b605c54605d541115613c4257600454600254613c339190614526565b60028190555060006004819055505b605d54605c541115613c8f576002600454613c5d91906145ad565b600354613c6a9190614526565b600381905550600454600254613c809190614607565b60028190555060006004819055505b605c54605d541415613ca457613ca3613ca6565b5b565b600454600354613cb69190614526565b6003819055506000600481905550565b600080600090507a184f03e93ff9f4daa797ed6e38ed64bf6a1f0100000000000000008310613d24577a184f03e93ff9f4daa797ed6e38ed64bf6a1f0100000000000000008381613d1a57613d1961474e565b5b0492506040810190505b6d04ee2d6d415b85acef81000000008310613d61576d04ee2d6d415b85acef81000000008381613d5757613d5661474e565b5b0492506020810190505b662386f26fc100008310613d9057662386f26fc100008381613d8657613d8561474e565b5b0492506010810190505b6305f5e1008310613db9576305f5e1008381613daf57613dae61474e565b5b0492506008810190505b6127108310613dde576127108381613dd457613dd361474e565b5b0492506004810190505b60648310613e015760648381613df757613df661474e565b5b0492506002810190505b600a8310613e10576001810190505b80915050919050565b8260046002028101928215613e59579160200282015b82811115613e5857825182906002613e48929190613e97565b5091602001919060020190613e2f565b5b509050613e669190613ed7565b5090565b60405180608001604052806004905b613e81613efb565b815260200190600190039081613e795790505090565b8260028101928215613ec6579160200282015b82811115613ec5578251825591602001919060010190613eaa565b5b509050613ed39190613f1d565b5090565b5b80821115613ef75760008181613eee9190613f3a565b50600201613ed8565b5090565b6040518060400160405280600290602082028036833780820191505090505090565b5b80821115613f36576000816000905550600101613f1e565b5090565b506000815560010160009055565b600081359050613f5781614c71565b92915050565b600060208284031215613f7357613f726147db565b5b6000613f8184828501613f48565b91505092915050565b60008060408385031215613fa157613fa06147db565b5b6000613faf85828601613f48565b9250506020613fc085828601613f48565b9150509250929050565b613fdb613fd68261463b565b6146c0565b82525050565b6000613fee602883614515565b9150613ff9826147ed565b604082019050919050565b6000614011602283614515565b915061401c8261483c565b604082019050919050565b6000614034602683614515565b915061403f8261488b565b604082019050919050565b6000614057601983614515565b9150614062826148da565b602082019050919050565b600061407a602383614515565b915061408582614903565b604082019050919050565b600061409d601683614515565b91506140a882614952565b602082019050919050565b60006140c0602483614515565b91506140cb8261497b565b604082019050919050565b60006140e3601583614515565b91506140ee826149ca565b602082019050919050565b6000614106602183614515565b9150614111826149f3565b604082019050919050565b6000614129602283614515565b915061413482614a42565b604082019050919050565b600061414c602783614515565b915061415782614a91565b604082019050919050565b600061416f601883614515565b915061417a82614ae0565b602082019050919050565b6000614192602183614515565b915061419d82614b09565b604082019050919050565b60006141b5603783614515565b91506141c082614b58565b604082019050919050565b60006141d8601c83614515565b91506141e382614ba7565b602082019050919050565b60006141fb601883614515565b915061420682614bd0565b602082019050919050565b600061421e601b83614515565b915061422982614bf9565b602082019050919050565b6000614241602a83614515565b915061424c82614c22565b604082019050919050565b6142608161466d565b82525050565b6142776142728261466d565b6146e4565b82525050565b60006142898286614266565b6020820191506142998285613fca565b6014820191506142a98284614266565b602082019150819050949350505050565b600060208201905081810360008301526142d381613fe1565b9050919050565b600060208201905081810360008301526142f381614004565b9050919050565b6000602082019050818103600083015261431381614027565b9050919050565b600060208201905081810360008301526143338161404a565b9050919050565b600060208201905081810360008301526143538161406d565b9050919050565b6000602082019050818103600083015261437381614090565b9050919050565b60006020820190508181036000830152614393816140b3565b9050919050565b600060208201905081810360008301526143b3816140d6565b9050919050565b600060208201905081810360008301526143d3816140f9565b9050919050565b600060208201905081810360008301526143f38161411c565b9050919050565b600060208201905081810360008301526144138161413f565b9050919050565b6000602082019050818103600083015261443381614162565b9050919050565b6000602082019050818103600083015261445381614185565b9050919050565b60006020820190508181036000830152614473816141a8565b9050919050565b60006020820190508181036000830152614493816141cb565b9050919050565b600060208201905081810360008301526144b3816141ee565b9050919050565b600060208201905081810360008301526144d381614211565b9050919050565b600060208201905081810360008301526144f381614234565b9050919050565b600060208201905061450f6000830184614257565b92915050565b600082825260208201905092915050565b60006145318261466d565b915061453c8361466d565b9250827fffffffffffffffffffffffffffffffffffffffffffffffffffffffffffffffff038211156145715761457061471f565b5b828201905092915050565b60006145878261466d565b91506145928361466d565b9250826145a2576145a161474e565b5b828204905092915050565b60006145b88261466d565b91506145c38361466d565b9250817fffffffffffffffffffffffffffffffffffffffffffffffffffffffffffffffff04831182151516156145fc576145fb61471f565b5b828202905092915050565b60006146128261466d565b915061461d8361466d565b9250828210156146305761462f61471f565b5b828203905092915050565b60006146468261464d565b9050919050565b600073ffffffffffffffffffffffffffffffffffffffff82169050919050565b6000819050919050565b60006146828261466d565b91507fffffffffffffffffffffffffffffffffffffffffffffffffffffffffffffffff8214156146b5576146b461471f565b5b600182019050919050565b60006146cb826146d2565b9050919050565b60006146dd826147e0565b9050919050565b6000819050919050565b60006146f98261466d565b91506147048361466d565b9250826147145761471361474e565b5b828206905092915050565b7f4e487b7100000000000000000000000000000000000000000000000000000000600052601160045260246000fd5b7f4e487b7100000000000000000000000000000000000000000000000000000000600052601260045260246000fd5b7f4e487b7100000000000000000000000000000000000000000000000000000000600052603260045260246000fd5b7f4e487b7100000000000000000000000000000000000000000000000000000000600052604160045260246000fd5b600080fd5b60008160601b9050919050565b7f596f752063616e206f6e6c7920646f75626c6520646f776e206f6e206669727360008201527f7420616374696f6e000000000000000000000000000000000000000000000000602082015250565b7f4465616c6572206d757374207374616e64206f6e20313720616e64206869676860008201527f6572000000000000000000000000000000000000000000000000000000000000602082015250565b7f42657420616d6f756e74206973206d6f7265207468616e20706c61796572206260008201527f616c616e63650000000000000000000000000000000000000000000000000000602082015250565b7f4f6e6c7920706c617965722063616e20706c6163652062657400000000000000600082015250565b7f53656e6465722061646472657373206d75737420626520706c6179657257616c60008201527f6c65740000000000000000000000000000000000000000000000000000000000602082015250565b7f5265656e7472616e6379206e6f7420616c6c6f77656400000000000000000000600082015250565b7f506c61796572206d75737420626520686f757365283029206f7220706c61796560008201527f7228312900000000000000000000000000000000000000000000000000000000602082015250565b7f596f7527766520616c7265616479206275737465640000000000000000000000600082015250565b7f526567697374726174696f6e2061646472657373206973206e6f742076616c6960008201527f6400000000000000000000000000000000000000000000000000000000000000602082015250565b7f53656e6465722061646472657373206d75737420626520686f75736557616c6c60008201527f6574000000000000000000000000000000000000000000000000000000000000602082015250565b7f796f75206d75737420626574206265666f72652074686520636172647320617260008201527f65206465616c7400000000000000000000000000000000000000000000000000602082015250565b7f47616d65206d75737420626520696e2070726f67726573730000000000000000600082015250565b7f506c6179657220686173206e6f2062616c616e636520746f207769746864726160008201527f7700000000000000000000000000000000000000000000000000000000000000602082015250565b7f596f75206172652072657175657374696e67206d6f7265207468616e2074686560008201527f20706c617965722077616c6c657420636f6e7461696e73000000000000000000602082015250565b7f596f7520646f6e2774206861766520656e6f7567682066756e64732e00000000600082015250565b7f506c617965722068617320616c72656164792073746f6f640000000000000000600082015250565b7f4265742068617320616c7265616479206265656e20706c616365640000000000600082015250565b7f4f6e6c7920706c617965722063616e2075736520746869732066756e6374696f60008201527f6e20776974686472617700000000000000000000000000000000000000000000602082015250565b614c7a8161466d565b8114614c8557600080fd5b5056fea26469706673582212206fcec923e5cd6a6352468cff293ceb2b6bbcff8519d584c458521f2efac52c8864736f6c63430008070033",
			"opcodes": "PUSH1 0x80 PUSH1 0x40 MSTORE PUSH1 0x0 PUSH1 0x1 SSTORE PUSH1 0x0 PUSH1 0x2 SSTORE PUSH1 0x0 PUSH1 0x3 SSTORE PUSH1 0x0 PUSH1 0x4 SSTORE PUSH1 0x0 PUSH1 0x5 SSTORE PUSH1 0x0 PUSH1 0x6 SSTORE PUSH1 0x0 PUSH1 0x7 SSTORE PUSH1 0x0 PUSH1 0x58 SSTORE PUSH1 0x0 PUSH1 0x59 SSTORE PUSH1 0x0 PUSH1 0x5A SSTORE PUSH1 0x0 PUSH1 0x5B SSTORE PUSH1 0x0 PUSH1 0x5C SSTORE PUSH1 0x0 PUSH1 0x5D SSTORE PUSH1 0x0 PUSH1 0x5E SSTORE PUSH1 0x0 PUSH1 0x5F SSTORE PUSH1 0x0 PUSH1 0x60 SSTORE PUSH1 0x0 PUSH1 0x61 PUSH1 0x0 PUSH2 0x100 EXP DUP2 SLOAD DUP2 PUSH20 0xFFFFFFFFFFFFFFFFFFFFFFFFFFFFFFFFFFFFFFFF MUL NOT AND SWAP1 DUP4 PUSH20 0xFFFFFFFFFFFFFFFFFFFFFFFFFFFFFFFFFFFFFFFF AND MUL OR SWAP1 SSTORE POP PUSH1 0x0 PUSH1 0x62 PUSH1 0x0 PUSH2 0x100 EXP DUP2 SLOAD DUP2 PUSH20 0xFFFFFFFFFFFFFFFFFFFFFFFFFFFFFFFFFFFFFFFF MUL NOT AND SWAP1 DUP4 PUSH20 0xFFFFFFFFFFFFFFFFFFFFFFFFFFFFFFFFFFFFFFFF AND MUL OR SWAP1 SSTORE POP CALLVALUE DUP1 ISZERO PUSH2 0xE4 JUMPI PUSH1 0x0 DUP1 REVERT JUMPDEST POP PUSH2 0x4CBE DUP1 PUSH2 0xF4 PUSH1 0x0 CODECOPY PUSH1 0x0 RETURN INVALID PUSH1 0x80 PUSH1 0x40 MSTORE PUSH1 0x4 CALLDATASIZE LT PUSH2 0x181 JUMPI PUSH1 0x0 CALLDATALOAD PUSH1 0xE0 SHR DUP1 PUSH4 0x8914D63B GT PUSH2 0xD1 JUMPI DUP1 PUSH4 0xC2855A59 GT PUSH2 0x8A JUMPI DUP1 PUSH4 0xCDC7EA51 GT PUSH2 0x64 JUMPI DUP1 PUSH4 0xCDC7EA51 EQ PUSH2 0x510 JUMPI DUP1 PUSH4 0xD0017A0C EQ PUSH2 0x53B JUMPI DUP1 PUSH4 0xD24257C0 EQ PUSH2 0x566 JUMPI DUP1 PUSH4 0xDAE10ED5 EQ PUSH2 0x591 JUMPI PUSH2 0x181 JUMP JUMPDEST DUP1 PUSH4 0xC2855A59 EQ PUSH2 0x4B7 JUMPI DUP1 PUSH4 0xC5C3CD78 EQ PUSH2 0x4CE JUMPI DUP1 PUSH4 0xC9F09D38 EQ PUSH2 0x4F9 JUMPI PUSH2 0x181 JUMP JUMPDEST DUP1 PUSH4 0x8914D63B EQ PUSH2 0x3A5 JUMPI DUP1 PUSH4 0x8BBB236F EQ PUSH2 0x3D0 JUMPI DUP1 PUSH4 0x908A0979 EQ PUSH2 0x40D JUMPI DUP1 PUSH4 0xA10926D6 EQ PUSH2 0x438 JUMPI DUP1 PUSH4 0xA7E1F6A2 EQ PUSH2 0x463 JUMPI DUP1 PUSH4 0xBDBE451B EQ PUSH2 0x47A JUMPI PUSH2 0x181 JUMP JUMPDEST DUP1 PUSH4 0x3C3248D5 GT PUSH2 0x13E JUMPI DUP1 PUSH4 0x553DF021 GT PUSH2 0x118 JUMPI DUP1 PUSH4 0x553DF021 EQ PUSH2 0x31C JUMPI DUP1 PUSH4 0x5629365B EQ PUSH2 0x333 JUMPI DUP1 PUSH4 0x651F066A EQ PUSH2 0x34F JUMPI DUP1 PUSH4 0x67084EB3 EQ PUSH2 0x37A JUMPI PUSH2 0x181 JUMP JUMPDEST DUP1 PUSH4 0x3C3248D5 EQ PUSH2 0x289 JUMPI DUP1 PUSH4 0x3FB64E75 EQ PUSH2 0x2B4 JUMPI DUP1 PUSH4 0x53A218C9 EQ PUSH2 0x2DF JUMPI PUSH2 0x181 JUMP JUMPDEST DUP1 PUSH4 0x10FE7C48 EQ PUSH2 0x186 JUMPI DUP1 PUSH4 0x13BF01ED EQ PUSH2 0x1AF JUMPI DUP1 PUSH4 0x16DD37DD EQ PUSH2 0x1DA JUMPI DUP1 PUSH4 0x2626AB08 EQ PUSH2 0x217 JUMPI DUP1 PUSH4 0x325EB3F5 EQ PUSH2 0x242 JUMPI DUP1 PUSH4 0x3519A2F8 EQ PUSH2 0x26D JUMPI JUMPDEST PUSH1 0x0 DUP1 REVERT JUMPDEST CALLVALUE DUP1 ISZERO PUSH2 0x192 JUMPI PUSH1 0x0 DUP1 REVERT JUMPDEST POP PUSH2 0x1AD PUSH1 0x4 DUP1 CALLDATASIZE SUB DUP2 ADD SWAP1 PUSH2 0x1A8 SWAP2 SWAP1 PUSH2 0x3F5D JUMP JUMPDEST PUSH2 0x5A8 JUMP JUMPDEST STOP JUMPDEST CALLVALUE DUP1 ISZERO PUSH2 0x1BB JUMPI PUSH1 0x0 DUP1 REVERT JUMPDEST POP PUSH2 0x1C4 PUSH2 0x786 JUMP JUMPDEST PUSH1 0x40 MLOAD PUSH2 0x1D1 SWAP2 SWAP1 PUSH2 0x44FA JUMP JUMPDEST PUSH1 0x40 MLOAD DUP1 SWAP2 SUB SWAP1 RETURN JUMPDEST CALLVALUE DUP1 ISZERO PUSH2 0x1E6 JUMPI PUSH1 0x0 DUP1 REVERT JUMPDEST POP PUSH2 0x201 PUSH1 0x4 DUP1 CALLDATASIZE SUB DUP2 ADD SWAP1 PUSH2 0x1FC SWAP2 SWAP1 PUSH2 0x3F8A JUMP JUMPDEST PUSH2 0x78C JUMP JUMPDEST PUSH1 0x40 MLOAD PUSH2 0x20E SWAP2 SWAP1 PUSH2 0x44FA JUMP JUMPDEST PUSH1 0x40 MLOAD DUP1 SWAP2 SUB SWAP1 RETURN JUMPDEST CALLVALUE DUP1 ISZERO PUSH2 0x223 JUMPI PUSH1 0x0 DUP1 REVERT JUMPDEST POP PUSH2 0x22C PUSH2 0x7BA JUMP JUMPDEST PUSH1 0x40 MLOAD PUSH2 0x239 SWAP2 SWAP1 PUSH2 0x44FA JUMP JUMPDEST PUSH1 0x40 MLOAD DUP1 SWAP2 SUB SWAP1 RETURN JUMPDEST CALLVALUE DUP1 ISZERO PUSH2 0x24E JUMPI PUSH1 0x0 DUP1 REVERT JUMPDEST POP PUSH2 0x257 PUSH2 0x7BF JUMP JUMPDEST PUSH1 0x40 MLOAD PUSH2 0x264 SWAP2 SWAP1 PUSH2 0x44FA JUMP JUMPDEST PUSH1 0x40 MLOAD DUP1 SWAP2 SUB SWAP1 RETURN JUMPDEST PUSH2 0x287 PUSH1 0x4 DUP1 CALLDATASIZE SUB DUP2 ADD SWAP1 PUSH2 0x282 SWAP2 SWAP1 PUSH2 0x3F5D JUMP JUMPDEST PUSH2 0x7C5 JUMP JUMPDEST STOP JUMPDEST CALLVALUE DUP1 ISZERO PUSH2 0x295 JUMPI PUSH1 0x0 DUP1 REVERT JUMPDEST POP PUSH2 0x29E PUSH2 0xCF6 JUMP JUMPDEST PUSH1 0x40 MLOAD PUSH2 0x2AB SWAP2 SWAP1 PUSH2 0x44FA JUMP JUMPDEST PUSH1 0x40 MLOAD DUP1 SWAP2 SUB SWAP1 RETURN JUMPDEST CALLVALUE DUP1 ISZERO PUSH2 0x2C0 JUMPI PUSH1 0x0 DUP1 REVERT JUMPDEST POP PUSH2 0x2C9 PUSH2 0xCFC JUMP JUMPDEST PUSH1 0x40 MLOAD PUSH2 0x2D6 SWAP2 SWAP1 PUSH2 0x44FA JUMP JUMPDEST PUSH1 0x40 MLOAD DUP1 SWAP2 SUB SWAP1 RETURN JUMPDEST CALLVALUE DUP1 ISZERO PUSH2 0x2EB JUMPI PUSH1 0x0 DUP1 REVERT JUMPDEST POP PUSH2 0x306 PUSH1 0x4 DUP1 CALLDATASIZE SUB DUP2 ADD SWAP1 PUSH2 0x301 SWAP2 SWAP1 PUSH2 0x3F8A JUMP JUMPDEST PUSH2 0xD02 JUMP JUMPDEST PUSH1 0x40 MLOAD PUSH2 0x313 SWAP2 SWAP1 PUSH2 0x44FA JUMP JUMPDEST PUSH1 0x40 MLOAD DUP1 SWAP2 SUB SWAP1 RETURN JUMPDEST CALLVALUE DUP1 ISZERO PUSH2 0x328 JUMPI PUSH1 0x0 DUP1 REVERT JUMPDEST POP PUSH2 0x331 PUSH2 0xD30 JUMP JUMPDEST STOP JUMPDEST PUSH2 0x34D PUSH1 0x4 DUP1 CALLDATASIZE SUB DUP2 ADD SWAP1 PUSH2 0x348 SWAP2 SWAP1 PUSH2 0x3F5D JUMP JUMPDEST PUSH2 0x1221 JUMP JUMPDEST STOP JUMPDEST CALLVALUE DUP1 ISZERO PUSH2 0x35B JUMPI PUSH1 0x0 DUP1 REVERT JUMPDEST POP PUSH2 0x364 PUSH2 0x143F JUMP JUMPDEST PUSH1 0x40 MLOAD PUSH2 0x371 SWAP2 SWAP1 PUSH2 0x44FA JUMP JUMPDEST PUSH1 0x40 MLOAD DUP1 SWAP2 SUB SWAP1 RETURN JUMPDEST CALLVALUE DUP1 ISZERO PUSH2 0x386 JUMPI PUSH1 0x0 DUP1 REVERT JUMPDEST POP PUSH2 0x38F PUSH2 0x1445 JUMP JUMPDEST PUSH1 0x40 MLOAD PUSH2 0x39C SWAP2 SWAP1 PUSH2 0x44FA JUMP JUMPDEST PUSH1 0x40 MLOAD DUP1 SWAP2 SUB SWAP1 RETURN JUMPDEST CALLVALUE DUP1 ISZERO PUSH2 0x3B1 JUMPI PUSH1 0x0 DUP1 REVERT JUMPDEST POP PUSH2 0x3BA PUSH2 0x144B JUMP JUMPDEST PUSH1 0x40 MLOAD PUSH2 0x3C7 SWAP2 SWAP1 PUSH2 0x44FA JUMP JUMPDEST PUSH1 0x40 MLOAD DUP1 SWAP2 SUB SWAP1 RETURN JUMPDEST CALLVALUE DUP1 ISZERO PUSH2 0x3DC JUMPI PUSH1 0x0 DUP1 REVERT JUMPDEST POP PUSH2 0x3F7 PUSH1 0x4 DUP1 CALLDATASIZE SUB DUP2 ADD SWAP1 PUSH2 0x3F2 SWAP2 SWAP1 PUSH2 0x3F8A JUMP JUMPDEST PUSH2 0x1451 JUMP JUMPDEST PUSH1 0x40 MLOAD PUSH2 0x404 SWAP2 SWAP1 PUSH2 0x44FA JUMP JUMPDEST PUSH1 0x40 MLOAD DUP1 SWAP2 SUB SWAP1 RETURN JUMPDEST CALLVALUE DUP1 ISZERO PUSH2 0x419 JUMPI PUSH1 0x0 DUP1 REVERT JUMPDEST POP PUSH2 0x422 PUSH2 0x147F JUMP JUMPDEST PUSH1 0x40 MLOAD PUSH2 0x42F SWAP2 SWAP1 PUSH2 0x44FA JUMP JUMPDEST PUSH1 0x40 MLOAD DUP1 SWAP2 SUB SWAP1 RETURN JUMPDEST CALLVALUE DUP1 ISZERO PUSH2 0x444 JUMPI PUSH1 0x0 DUP1 REVERT JUMPDEST POP PUSH2 0x44D PUSH2 0x1485 JUMP JUMPDEST PUSH1 0x40 MLOAD PUSH2 0x45A SWAP2 SWAP1 PUSH2 0x44FA JUMP JUMPDEST PUSH1 0x40 MLOAD DUP1 SWAP2 SUB SWAP1 RETURN JUMPDEST CALLVALUE DUP1 ISZERO PUSH2 0x46F JUMPI PUSH1 0x0 DUP1 REVERT JUMPDEST POP PUSH2 0x478 PUSH2 0x148B JUMP JUMPDEST STOP JUMPDEST CALLVALUE DUP1 ISZERO PUSH2 0x486 JUMPI PUSH1 0x0 DUP1 REVERT JUMPDEST POP PUSH2 0x4A1 PUSH1 0x4 DUP1 CALLDATASIZE SUB DUP2 ADD SWAP1 PUSH2 0x49C SWAP2 SWAP1 PUSH2 0x3F8A JUMP JUMPDEST PUSH2 0x15A4 JUMP JUMPDEST PUSH1 0x40 MLOAD PUSH2 0x4AE SWAP2 SWAP1 PUSH2 0x44FA JUMP JUMPDEST PUSH1 0x40 MLOAD DUP1 SWAP2 SUB SWAP1 RETURN JUMPDEST CALLVALUE DUP1 ISZERO PUSH2 0x4C3 JUMPI PUSH1 0x0 DUP1 REVERT JUMPDEST POP PUSH2 0x4CC PUSH2 0x15D2 JUMP JUMPDEST STOP JUMPDEST CALLVALUE DUP1 ISZERO PUSH2 0x4DA JUMPI PUSH1 0x0 DUP1 REVERT JUMPDEST POP PUSH2 0x4E3 PUSH2 0x1902 JUMP JUMPDEST PUSH1 0x40 MLOAD PUSH2 0x4F0 SWAP2 SWAP1 PUSH2 0x44FA JUMP JUMPDEST PUSH1 0x40 MLOAD DUP1 SWAP2 SUB SWAP1 RETURN JUMPDEST CALLVALUE DUP1 ISZERO PUSH2 0x505 JUMPI PUSH1 0x0 DUP1 REVERT JUMPDEST POP PUSH2 0x50E PUSH2 0x1908 JUMP JUMPDEST STOP JUMPDEST CALLVALUE DUP1 ISZERO PUSH2 0x51C JUMPI PUSH1 0x0 DUP1 REVERT JUMPDEST POP PUSH2 0x525 PUSH2 0x1A00 JUMP JUMPDEST PUSH1 0x40 MLOAD PUSH2 0x532 SWAP2 SWAP1 PUSH2 0x44FA JUMP JUMPDEST PUSH1 0x40 MLOAD DUP1 SWAP2 SUB SWAP1 RETURN JUMPDEST CALLVALUE DUP1 ISZERO PUSH2 0x547 JUMPI PUSH1 0x0 DUP1 REVERT JUMPDEST POP PUSH2 0x550 PUSH2 0x1A06 JUMP JUMPDEST PUSH1 0x40 MLOAD PUSH2 0x55D SWAP2 SWAP1 PUSH2 0x44FA JUMP JUMPDEST PUSH1 0x40 MLOAD DUP1 SWAP2 SUB SWAP1 RETURN JUMPDEST CALLVALUE DUP1 ISZERO PUSH2 0x572 JUMPI PUSH1 0x0 DUP1 REVERT JUMPDEST POP PUSH2 0x57B PUSH2 0x1A12 JUMP JUMPDEST PUSH1 0x40 MLOAD PUSH2 0x588 SWAP2 SWAP1 PUSH2 0x44FA JUMP JUMPDEST PUSH1 0x40 MLOAD DUP1 SWAP2 SUB SWAP1 RETURN JUMPDEST CALLVALUE DUP1 ISZERO PUSH2 0x59D JUMPI PUSH1 0x0 DUP1 REVERT JUMPDEST POP PUSH2 0x5A6 PUSH2 0x1A18 JUMP JUMPDEST STOP JUMPDEST DUP1 PUSH1 0x1 DUP2 LT ISZERO DUP1 ISZERO PUSH2 0x5C2 JUMPI POP PUSH8 0xDE0B6B3A7640000 DUP2 GT ISZERO JUMPDEST PUSH2 0x5CB JUMPI PUSH1 0x0 DUP1 REVERT JUMPDEST PUSH1 0x3 SLOAD DUP2 GT ISZERO PUSH2 0x610 JUMPI PUSH1 0x40 MLOAD PUSH32 0x8C379A000000000000000000000000000000000000000000000000000000000 DUP2 MSTORE PUSH1 0x4 ADD PUSH2 0x607 SWAP1 PUSH2 0x42FA JUMP JUMPDEST PUSH1 0x40 MLOAD DUP1 SWAP2 SUB SWAP1 REVERT JUMPDEST PUSH1 0x61 PUSH1 0x0 SWAP1 SLOAD SWAP1 PUSH2 0x100 EXP SWAP1 DIV PUSH20 0xFFFFFFFFFFFFFFFFFFFFFFFFFFFFFFFFFFFFFFFF AND PUSH20 0xFFFFFFFFFFFFFFFFFFFFFFFFFFFFFFFFFFFFFFFF AND CALLER PUSH20 0xFFFFFFFFFFFFFFFFFFFFFFFFFFFFFFFFFFFFFFFF AND EQ PUSH2 0x6A0 JUMPI PUSH1 0x40 MLOAD PUSH32 0x8C379A000000000000000000000000000000000000000000000000000000000 DUP2 MSTORE PUSH1 0x4 ADD PUSH2 0x697 SWAP1 PUSH2 0x431A JUMP JUMPDEST PUSH1 0x40 MLOAD DUP1 SWAP2 SUB SWAP1 REVERT JUMPDEST PUSH1 0x0 PUSH1 0x4 SLOAD EQ PUSH2 0x6E5 JUMPI PUSH1 0x40 MLOAD PUSH32 0x8C379A000000000000000000000000000000000000000000000000000000000 DUP2 MSTORE PUSH1 0x4 ADD PUSH2 0x6DC SWAP1 PUSH2 0x44BA JUMP JUMPDEST PUSH1 0x40 MLOAD DUP1 SWAP2 SUB SWAP1 REVERT JUMPDEST PUSH1 0x0 DUP1 SLOAD SWAP1 PUSH2 0x100 EXP SWAP1 DIV PUSH1 0xFF AND ISZERO PUSH2 0x733 JUMPI PUSH1 0x40 MLOAD PUSH32 0x8C379A000000000000000000000000000000000000000000000000000000000 DUP2 MSTORE PUSH1 0x4 ADD PUSH2 0x72A SWAP1 PUSH2 0x435A JUMP JUMPDEST PUSH1 0x40 MLOAD DUP1 SWAP2 SUB SWAP1 REVERT JUMPDEST PUSH1 0x1 PUSH1 0x0 DUP1 PUSH2 0x100 EXP DUP2 SLOAD DUP2 PUSH1 0xFF MUL NOT AND SWAP1 DUP4 ISZERO ISZERO MUL OR SWAP1 SSTORE POP DUP2 PUSH1 0x3 SLOAD PUSH2 0x75B SWAP2 SWAP1 PUSH2 0x4607 JUMP JUMPDEST PUSH1 0x3 DUP2 SWAP1 SSTORE POP DUP2 PUSH1 0x4 DUP2 SWAP1 SSTORE POP PUSH1 0x0 DUP1 PUSH1 0x0 PUSH2 0x100 EXP DUP2 SLOAD DUP2 PUSH1 0xFF MUL NOT AND SWAP1 DUP4 ISZERO ISZERO MUL OR SWAP1 SSTORE POP POP POP JUMP JUMPDEST PUSH1 0x5D SLOAD DUP2 JUMP JUMPDEST PUSH1 0x48 DUP3 PUSH1 0x2 DUP2 LT PUSH2 0x79C JUMPI PUSH1 0x0 DUP1 REVERT JUMPDEST PUSH1 0x2 MUL ADD DUP2 PUSH1 0x2 DUP2 LT PUSH2 0x7AE JUMPI PUSH1 0x0 DUP1 REVERT JUMPDEST ADD PUSH1 0x0 SWAP2 POP SWAP2 POP POP SLOAD DUP2 JUMP JUMPDEST PUSH1 0x1 DUP2 JUMP JUMPDEST PUSH1 0x5A SLOAD DUP2 JUMP JUMPDEST DUP1 PUSH1 0x0 PUSH20 0xFFFFFFFFFFFFFFFFFFFFFFFFFFFFFFFFFFFFFFFF AND PUSH1 0x62 PUSH1 0x0 SWAP1 SLOAD SWAP1 PUSH2 0x100 EXP SWAP1 DIV PUSH20 0xFFFFFFFFFFFFFFFFFFFFFFFFFFFFFFFFFFFFFFFF AND PUSH20 0xFFFFFFFFFFFFFFFFFFFFFFFFFFFFFFFFFFFFFFFF AND EQ DUP1 PUSH2 0x871 JUMPI POP PUSH1 0x0 PUSH20 0xFFFFFFFFFFFFFFFFFFFFFFFFFFFFFFFFFFFFFFFF AND PUSH1 0x61 PUSH1 0x0 SWAP1 SLOAD SWAP1 PUSH2 0x100 EXP SWAP1 DIV PUSH20 0xFFFFFFFFFFFFFFFFFFFFFFFFFFFFFFFFFFFFFFFF AND PUSH20 0xFFFFFFFFFFFFFFFFFFFFFFFFFFFFFFFFFFFFFFFF AND EQ JUMPDEST DUP1 PUSH2 0x8C9 JUMPI POP PUSH1 0x62 PUSH1 0x0 SWAP1 SLOAD SWAP1 PUSH2 0x100 EXP SWAP1 DIV PUSH20 0xFFFFFFFFFFFFFFFFFFFFFFFFFFFFFFFFFFFFFFFF AND PUSH20 0xFFFFFFFFFFFFFFFFFFFFFFFFFFFFFFFFFFFFFFFF AND CALLER PUSH20 0xFFFFFFFFFFFFFFFFFFFFFFFFFFFFFFFFFFFFFFFF AND EQ JUMPDEST DUP1 PUSH2 0x921 JUMPI POP PUSH1 0x61 PUSH1 0x0 SWAP1 SLOAD SWAP1 PUSH2 0x100 EXP SWAP1 DIV PUSH20 0xFFFFFFFFFFFFFFFFFFFFFFFFFFFFFFFFFFFFFFFF AND PUSH20 0xFFFFFFFFFFFFFFFFFFFFFFFFFFFFFFFFFFFFFFFF AND CALLER PUSH20 0xFFFFFFFFFFFFFFFFFFFFFFFFFFFFFFFFFFFFFFFF AND EQ JUMPDEST PUSH2 0x960 JUMPI PUSH1 0x40 MLOAD PUSH32 0x8C379A000000000000000000000000000000000000000000000000000000000 DUP2 MSTORE PUSH1 0x4 ADD PUSH2 0x957 SWAP1 PUSH2 0x43BA JUMP JUMPDEST PUSH1 0x40 MLOAD DUP1 SWAP2 SUB SWAP1 REVERT JUMPDEST PUSH1 0x0 DUP2 EQ DUP1 PUSH2 0x96F JUMPI POP PUSH1 0x1 DUP2 EQ JUMPDEST PUSH2 0x9AE JUMPI PUSH1 0x40 MLOAD PUSH32 0x8C379A000000000000000000000000000000000000000000000000000000000 DUP2 MSTORE PUSH1 0x4 ADD PUSH2 0x9A5 SWAP1 PUSH2 0x437A JUMP JUMPDEST PUSH1 0x40 MLOAD DUP1 SWAP2 SUB SWAP1 REVERT JUMPDEST PUSH1 0x0 DUP3 EQ ISZERO PUSH2 0xB50 JUMPI PUSH1 0x62 PUSH1 0x0 SWAP1 SLOAD SWAP1 PUSH2 0x100 EXP SWAP1 DIV PUSH20 0xFFFFFFFFFFFFFFFFFFFFFFFFFFFFFFFFFFFFFFFF AND PUSH20 0xFFFFFFFFFFFFFFFFFFFFFFFFFFFFFFFFFFFFFFFF AND CALLER PUSH20 0xFFFFFFFFFFFFFFFFFFFFFFFFFFFFFFFFFFFFFFFF AND EQ DUP1 PUSH2 0xA61 JUMPI POP PUSH1 0x0 PUSH20 0xFFFFFFFFFFFFFFFFFFFFFFFFFFFFFFFFFFFFFFFF AND PUSH1 0x62 PUSH1 0x0 SWAP1 SLOAD SWAP1 PUSH2 0x100 EXP SWAP1 DIV PUSH20 0xFFFFFFFFFFFFFFFFFFFFFFFFFFFFFFFFFFFFFFFF AND PUSH20 0xFFFFFFFFFFFFFFFFFFFFFFFFFFFFFFFFFFFFFFFF AND EQ JUMPDEST DUP1 ISZERO PUSH2 0xABB JUMPI POP PUSH1 0x61 PUSH1 0x0 SWAP1 SLOAD SWAP1 PUSH2 0x100 EXP SWAP1 DIV PUSH20 0xFFFFFFFFFFFFFFFFFFFFFFFFFFFFFFFFFFFFFFFF AND PUSH20 0xFFFFFFFFFFFFFFFFFFFFFFFFFFFFFFFFFFFFFFFF AND CALLER PUSH20 0xFFFFFFFFFFFFFFFFFFFFFFFFFFFFFFFFFFFFFFFF AND EQ ISZERO JUMPDEST PUSH2 0xAFA JUMPI PUSH1 0x40 MLOAD PUSH32 0x8C379A000000000000000000000000000000000000000000000000000000000 DUP2 MSTORE PUSH1 0x4 ADD PUSH2 0xAF1 SWAP1 PUSH2 0x43DA JUMP JUMPDEST PUSH1 0x40 MLOAD DUP1 SWAP2 SUB SWAP1 REVERT JUMPDEST CALLER PUSH1 0x62 PUSH1 0x0 PUSH2 0x100 EXP DUP2 SLOAD DUP2 PUSH20 0xFFFFFFFFFFFFFFFFFFFFFFFFFFFFFFFFFFFFFFFF MUL NOT AND SWAP1 DUP4 PUSH20 0xFFFFFFFFFFFFFFFFFFFFFFFFFFFFFFFFFFFFFFFF AND MUL OR SWAP1 SSTORE POP CALLVALUE PUSH1 0x2 SLOAD PUSH2 0xB49 SWAP2 SWAP1 PUSH2 0x4526 JUMP JUMPDEST PUSH1 0x2 DUP2 SWAP1 SSTORE POP JUMPDEST PUSH1 0x1 DUP3 EQ ISZERO PUSH2 0xCF2 JUMPI PUSH1 0x61 PUSH1 0x0 SWAP1 SLOAD SWAP1 PUSH2 0x100 EXP SWAP1 DIV PUSH20 0xFFFFFFFFFFFFFFFFFFFFFFFFFFFFFFFFFFFFFFFF AND PUSH20 0xFFFFFFFFFFFFFFFFFFFFFFFFFFFFFFFFFFFFFFFF AND CALLER PUSH20 0xFFFFFFFFFFFFFFFFFFFFFFFFFFFFFFFFFFFFFFFF AND EQ DUP1 PUSH2 0xC03 JUMPI POP PUSH1 0x0 PUSH20 0xFFFFFFFFFFFFFFFFFFFFFFFFFFFFFFFFFFFFFFFF AND PUSH1 0x61 PUSH1 0x0 SWAP1 SLOAD SWAP1 PUSH2 0x100 EXP SWAP1 DIV PUSH20 0xFFFFFFFFFFFFFFFFFFFFFFFFFFFFFFFFFFFFFFFF AND PUSH20 0xFFFFFFFFFFFFFFFFFFFFFFFFFFFFFFFFFFFFFFFF AND EQ JUMPDEST DUP1 ISZERO PUSH2 0xC5D JUMPI POP PUSH1 0x62 PUSH1 0x0 SWAP1 SLOAD SWAP1 PUSH2 0x100 EXP SWAP1 DIV PUSH20 0xFFFFFFFFFFFFFFFFFFFFFFFFFFFFFFFFFFFFFFFF AND PUSH20 0xFFFFFFFFFFFFFFFFFFFFFFFFFFFFFFFFFFFFFFFF AND CALLER PUSH20 0xFFFFFFFFFFFFFFFFFFFFFFFFFFFFFFFFFFFFFFFF AND EQ ISZERO JUMPDEST PUSH2 0xC9C JUMPI PUSH1 0x40 MLOAD PUSH32 0x8C379A000000000000000000000000000000000000000000000000000000000 DUP2 MSTORE PUSH1 0x4 ADD PUSH2 0xC93 SWAP1 PUSH2 0x433A JUMP JUMPDEST PUSH1 0x40 MLOAD DUP1 SWAP2 SUB SWAP1 REVERT JUMPDEST CALLER PUSH1 0x61 PUSH1 0x0 PUSH2 0x100 EXP DUP2 SLOAD DUP2 PUSH20 0xFFFFFFFFFFFFFFFFFFFFFFFFFFFFFFFFFFFFFFFF MUL NOT AND SWAP1 DUP4 PUSH20 0xFFFFFFFFFFFFFFFFFFFFFFFFFFFFFFFFFFFFFFFF AND MUL OR SWAP1 SSTORE POP CALLVALUE PUSH1 0x3 SLOAD PUSH2 0xCEB SWAP2 SWAP1 PUSH2 0x4526 JUMP JUMPDEST PUSH1 0x3 DUP2 SWAP1 SSTORE POP JUMPDEST POP POP JUMP JUMPDEST PUSH1 0x5E SLOAD DUP2 JUMP JUMPDEST PUSH1 0x1 SLOAD DUP2 JUMP JUMPDEST PUSH1 0x4C DUP3 PUSH1 0x2 DUP2 LT PUSH2 0xD12 JUMPI PUSH1 0x0 DUP1 REVERT JUMPDEST PUSH1 0x2 MUL ADD DUP2 PUSH1 0x2 DUP2 LT PUSH2 0xD24 JUMPI PUSH1 0x0 DUP1 REVERT JUMPDEST ADD PUSH1 0x0 SWAP2 POP SWAP2 POP POP SLOAD DUP2 JUMP JUMPDEST PUSH1 0x0 DUP1 SLOAD SWAP1 PUSH2 0x100 EXP SWAP1 DIV PUSH1 0xFF AND ISZERO PUSH2 0xD7E JUMPI PUSH1 0x40 MLOAD PUSH32 0x8C379A000000000000000000000000000000000000000000000000000000000 DUP2 MSTORE PUSH1 0x4 ADD PUSH2 0xD75 SWAP1 PUSH2 0x435A JUMP JUMPDEST PUSH1 0x40 MLOAD DUP1 SWAP2 SUB SWAP1 REVERT JUMPDEST PUSH1 0x1 PUSH1 0x0 DUP1 PUSH2 0x100 EXP DUP2 SLOAD DUP2 PUSH1 0xFF MUL NOT AND SWAP1 DUP4 ISZERO ISZERO MUL OR SWAP1 SSTORE POP PUSH1 0x0 PUSH1 0x4 SLOAD GT PUSH2 0xDDD JUMPI PUSH1 0x40 MLOAD PUSH32 0x8C379A000000000000000000000000000000000000000000000000000000000 DUP2 MSTORE PUSH1 0x4 ADD PUSH2 0xDD4 SWAP1 PUSH2 0x43FA JUMP JUMPDEST PUSH1 0x40 MLOAD DUP1 SWAP2 SUB SWAP1 REVERT JUMPDEST PUSH1 0x1 DUP1 DUP2 SWAP1 SSTORE POP PUSH1 0x0 PUSH1 0x5E DUP2 SWAP1 SSTORE POP PUSH1 0x0 PUSH1 0x5A DUP2 SWAP1 SSTORE POP PUSH1 0x0 PUSH1 0x5B DUP2 SWAP1 SSTORE POP PUSH1 0x0 PUSH1 0x5E DUP2 SWAP1 SSTORE POP PUSH1 0x0 PUSH1 0x5F DUP2 SWAP1 SSTORE POP PUSH1 0x0 PUSH1 0x5D DUP2 SWAP1 SSTORE POP PUSH1 0x0 PUSH1 0x5C DUP2 SWAP1 SSTORE POP PUSH1 0x0 PUSH1 0x48 PUSH1 0x1 PUSH1 0x2 DUP2 LT PUSH2 0xE33 JUMPI PUSH2 0xE32 PUSH2 0x477D JUMP JUMPDEST JUMPDEST PUSH1 0x2 MUL ADD PUSH1 0x0 PUSH1 0x2 DUP2 LT PUSH2 0xE4A JUMPI PUSH2 0xE49 PUSH2 0x477D JUMP JUMPDEST JUMPDEST ADD DUP2 SWAP1 SSTORE POP PUSH1 0x0 PUSH1 0x48 PUSH1 0x1 PUSH1 0x2 DUP2 LT PUSH2 0xE66 JUMPI PUSH2 0xE65 PUSH2 0x477D JUMP JUMPDEST JUMPDEST PUSH1 0x2 MUL ADD PUSH1 0x1 PUSH1 0x2 DUP2 LT PUSH2 0xE7D JUMPI PUSH2 0xE7C PUSH2 0x477D JUMP JUMPDEST JUMPDEST ADD DUP2 SWAP1 SSTORE POP PUSH1 0x0 PUSH1 0x1 SWAP1 POP JUMPDEST PUSH1 0xF DUP2 GT PUSH2 0xFDA JUMPI PUSH1 0x0 PUSH1 0x8 DUP3 PUSH1 0x10 DUP2 LT PUSH2 0xEA7 JUMPI PUSH2 0xEA6 PUSH2 0x477D JUMP JUMPDEST JUMPDEST PUSH1 0x2 MUL ADD PUSH1 0x0 PUSH1 0x2 DUP2 LT PUSH2 0xEBE JUMPI PUSH2 0xEBD PUSH2 0x477D JUMP JUMPDEST JUMPDEST ADD DUP2 SWAP1 SSTORE POP PUSH1 0x0 PUSH1 0x8 DUP3 PUSH1 0x10 DUP2 LT PUSH2 0xED9 JUMPI PUSH2 0xED8 PUSH2 0x477D JUMP JUMPDEST JUMPDEST PUSH1 0x2 MUL ADD PUSH1 0x1 PUSH1 0x2 DUP2 LT PUSH2 0xEF0 JUMPI PUSH2 0xEEF PUSH2 0x477D JUMP JUMPDEST JUMPDEST ADD DUP2 SWAP1 SSTORE POP PUSH1 0x0 PUSH1 0x28 DUP3 PUSH1 0x10 DUP2 LT PUSH2 0xF0B JUMPI PUSH2 0xF0A PUSH2 0x477D JUMP JUMPDEST JUMPDEST PUSH1 0x2 MUL ADD PUSH1 0x0 PUSH1 0x2 DUP2 LT PUSH2 0xF22 JUMPI PUSH2 0xF21 PUSH2 0x477D JUMP JUMPDEST JUMPDEST ADD DUP2 SWAP1 SSTORE POP PUSH1 0x0 PUSH1 0x28 DUP3 PUSH1 0x10 DUP2 LT PUSH2 0xF3D JUMPI PUSH2 0xF3C PUSH2 0x477D JUMP JUMPDEST JUMPDEST PUSH1 0x2 MUL ADD PUSH1 0x1 PUSH1 0x2 DUP2 LT PUSH2 0xF54 JUMPI PUSH2 0xF53 PUSH2 0x477D JUMP JUMPDEST JUMPDEST ADD DUP2 SWAP1 SSTORE POP PUSH1 0x4 DUP2 LT ISZERO PUSH2 0xFC7 JUMPI PUSH1 0x0 PUSH1 0x50 DUP3 PUSH1 0x4 DUP2 LT PUSH2 0xF78 JUMPI PUSH2 0xF77 PUSH2 0x477D JUMP JUMPDEST JUMPDEST PUSH1 0x2 MUL ADD PUSH1 0x0 PUSH1 0x2 DUP2 LT PUSH2 0xF8F JUMPI PUSH2 0xF8E PUSH2 0x477D JUMP JUMPDEST JUMPDEST ADD DUP2 SWAP1 SSTORE POP PUSH1 0x0 PUSH1 0x50 DUP3 PUSH1 0x4 DUP2 LT PUSH2 0xFAA JUMPI PUSH2 0xFA9 PUSH2 0x477D JUMP JUMPDEST JUMPDEST PUSH1 0x2 MUL ADD PUSH1 0x1 PUSH1 0x2 DUP2 LT PUSH2 0xFC1 JUMPI PUSH2 0xFC0 PUSH2 0x477D JUMP JUMPDEST JUMPDEST ADD DUP2 SWAP1 SSTORE POP JUMPDEST DUP1 DUP1 PUSH2 0xFD2 SWAP1 PUSH2 0x4677 JUMP JUMPDEST SWAP2 POP POP PUSH2 0xE89 JUMP JUMPDEST POP PUSH2 0xFE5 PUSH1 0x3 PUSH2 0x1DB5 JUMP JUMPDEST PUSH2 0x1063 PUSH1 0x50 PUSH1 0x4 DUP1 PUSH1 0x20 MUL PUSH1 0x40 MLOAD SWAP1 DUP2 ADD PUSH1 0x40 MSTORE DUP1 SWAP3 SWAP2 SWAP1 PUSH1 0x0 SWAP1 JUMPDEST DUP3 DUP3 LT ISZERO PUSH2 0x105A JUMPI DUP4 DUP3 PUSH1 0x2 MUL ADD PUSH1 0x2 DUP1 PUSH1 0x20 MUL PUSH1 0x40 MLOAD SWAP1 DUP2 ADD PUSH1 0x40 MSTORE DUP1 SWAP3 SWAP2 SWAP1 DUP3 PUSH1 0x2 DUP1 ISZERO PUSH2 0x1046 JUMPI PUSH1 0x20 MUL DUP3 ADD SWAP2 JUMPDEST DUP2 SLOAD DUP2 MSTORE PUSH1 0x20 ADD SWAP1 PUSH1 0x1 ADD SWAP1 DUP1 DUP4 GT PUSH2 0x1032 JUMPI JUMPDEST POP POP POP POP POP DUP2 MSTORE PUSH1 0x20 ADD SWAP1 PUSH1 0x1 ADD SWAP1 PUSH2 0x1001 JUMP JUMPDEST POP POP POP POP PUSH2 0x2073 JUMP JUMPDEST PUSH1 0x50 SWAP1 PUSH1 0x4 PUSH2 0x1073 SWAP3 SWAP2 SWAP1 PUSH2 0x3E19 JUMP JUMPDEST POP PUSH2 0x10DA PUSH1 0x50 PUSH1 0x1 PUSH1 0x4 DUP2 LT PUSH2 0x108C JUMPI PUSH2 0x108B PUSH2 0x477D JUMP JUMPDEST JUMPDEST PUSH1 0x2 MUL ADD PUSH1 0x0 PUSH1 0x2 DUP2 LT PUSH2 0x10A3 JUMPI PUSH2 0x10A2 PUSH2 0x477D JUMP JUMPDEST JUMPDEST ADD SLOAD PUSH1 0x50 PUSH1 0x1 PUSH1 0x4 DUP2 LT PUSH2 0x10BA JUMPI PUSH2 0x10B9 PUSH2 0x477D JUMP JUMPDEST JUMPDEST PUSH1 0x2 MUL ADD PUSH1 0x1 PUSH1 0x2 DUP2 LT PUSH2 0x10D1 JUMPI PUSH2 0x10D0 PUSH2 0x477D JUMP JUMPDEST JUMPDEST ADD SLOAD PUSH1 0x1 PUSH2 0x23D5 JUMP JUMPDEST PUSH2 0x1140 PUSH1 0x50 PUSH1 0x2 PUSH1 0x4 DUP2 LT PUSH2 0x10F2 JUMPI PUSH2 0x10F1 PUSH2 0x477D JUMP JUMPDEST JUMPDEST PUSH1 0x2 MUL ADD PUSH1 0x0 PUSH1 0x2 DUP2 LT PUSH2 0x1109 JUMPI PUSH2 0x1108 PUSH2 0x477D JUMP JUMPDEST JUMPDEST ADD SLOAD PUSH1 0x50 PUSH1 0x2 PUSH1 0x4 DUP2 LT PUSH2 0x1120 JUMPI PUSH2 0x111F PUSH2 0x477D JUMP JUMPDEST JUMPDEST PUSH1 0x2 MUL ADD PUSH1 0x1 PUSH1 0x2 DUP2 LT PUSH2 0x1137 JUMPI PUSH2 0x1136 PUSH2 0x477D JUMP JUMPDEST JUMPDEST ADD SLOAD PUSH1 0x1 PUSH2 0x24C0 JUMP JUMPDEST PUSH2 0x11A6 PUSH1 0x50 PUSH1 0x3 PUSH1 0x4 DUP2 LT PUSH2 0x1158 JUMPI PUSH2 0x1157 PUSH2 0x477D JUMP JUMPDEST JUMPDEST PUSH1 0x2 MUL ADD PUSH1 0x0 PUSH1 0x2 DUP2 LT PUSH2 0x116F JUMPI PUSH2 0x116E PUSH2 0x477D JUMP JUMPDEST JUMPDEST ADD SLOAD PUSH1 0x50 PUSH1 0x3 PUSH1 0x4 DUP2 LT PUSH2 0x1186 JUMPI PUSH2 0x1185 PUSH2 0x477D JUMP JUMPDEST JUMPDEST PUSH1 0x2 MUL ADD PUSH1 0x1 PUSH1 0x2 DUP2 LT PUSH2 0x119D JUMPI PUSH2 0x119C PUSH2 0x477D JUMP JUMPDEST JUMPDEST ADD SLOAD PUSH1 0x2 PUSH2 0x23D5 JUMP JUMPDEST PUSH2 0x11AE PUSH2 0x25AB JUMP JUMPDEST PUSH2 0x11B6 PUSH2 0x2822 JUMP JUMPDEST PUSH2 0x11BE PUSH2 0x2A99 JUMP JUMPDEST PUSH2 0x11C6 PUSH2 0x301D JUMP JUMPDEST PUSH1 0x15 PUSH1 0x48 PUSH1 0x1 PUSH1 0x2 DUP2 LT PUSH2 0x11DD JUMPI PUSH2 0x11DC PUSH2 0x477D JUMP JUMPDEST JUMPDEST PUSH1 0x2 MUL ADD PUSH1 0x1 PUSH1 0x2 DUP2 LT PUSH2 0x11F4 JUMPI PUSH2 0x11F3 PUSH2 0x477D JUMP JUMPDEST JUMPDEST ADD SLOAD EQ ISZERO PUSH2 0x1205 JUMPI PUSH2 0x1204 PUSH2 0x34D3 JUMP JUMPDEST JUMPDEST PUSH1 0x0 DUP1 PUSH1 0x0 PUSH2 0x100 EXP DUP2 SLOAD DUP2 PUSH1 0xFF MUL NOT AND SWAP1 DUP4 ISZERO ISZERO MUL OR SWAP1 SSTORE POP JUMP JUMPDEST DUP1 PUSH1 0x0 PUSH1 0x3 SLOAD GT PUSH2 0x1267 JUMPI PUSH1 0x40 MLOAD PUSH32 0x8C379A000000000000000000000000000000000000000000000000000000000 DUP2 MSTORE PUSH1 0x4 ADD PUSH2 0x125E SWAP1 PUSH2 0x443A JUMP JUMPDEST PUSH1 0x40 MLOAD DUP1 SWAP2 SUB SWAP1 REVERT JUMPDEST PUSH1 0x61 PUSH1 0x0 SWAP1 SLOAD SWAP1 PUSH2 0x100 EXP SWAP1 DIV PUSH20 0xFFFFFFFFFFFFFFFFFFFFFFFFFFFFFFFFFFFFFFFF AND PUSH20 0xFFFFFFFFFFFFFFFFFFFFFFFFFFFFFFFFFFFFFFFF AND CALLER PUSH20 0xFFFFFFFFFFFFFFFFFFFFFFFFFFFFFFFFFFFFFFFF AND EQ PUSH2 0x12F7 JUMPI PUSH1 0x40 MLOAD PUSH32 0x8C379A000000000000000000000000000000000000000000000000000000000 DUP2 MSTORE PUSH1 0x4 ADD PUSH2 0x12EE SWAP1 PUSH2 0x44DA JUMP JUMPDEST PUSH1 0x40 MLOAD DUP1 SWAP2 SUB SWAP1 REVERT JUMPDEST PUSH1 0x3 SLOAD DUP2 GT ISZERO PUSH2 0x133C JUMPI PUSH1 0x40 MLOAD PUSH32 0x8C379A000000000000000000000000000000000000000000000000000000000 DUP2 MSTORE PUSH1 0x4 ADD PUSH2 0x1333 SWAP1 PUSH2 0x445A JUMP JUMPDEST PUSH1 0x40 MLOAD DUP1 SWAP2 SUB SWAP1 REVERT JUMPDEST PUSH1 0x0 DUP1 SLOAD SWAP1 PUSH2 0x100 EXP SWAP1 DIV PUSH1 0xFF AND ISZERO PUSH2 0x138A JUMPI PUSH1 0x40 MLOAD PUSH32 0x8C379A000000000000000000000000000000000000000000000000000000000 DUP2 MSTORE PUSH1 0x4 ADD PUSH2 0x1381 SWAP1 PUSH2 0x435A JUMP JUMPDEST PUSH1 0x40 MLOAD DUP1 SWAP2 SUB SWAP1 REVERT JUMPDEST PUSH1 0x1 PUSH1 0x0 DUP1 PUSH2 0x100 EXP DUP2 SLOAD DUP2 PUSH1 0xFF MUL NOT AND SWAP1 DUP4 ISZERO ISZERO MUL OR SWAP1 SSTORE POP DUP2 PUSH1 0x3 SLOAD PUSH2 0x13B2 SWAP2 SWAP1 PUSH2 0x4607 JUMP JUMPDEST PUSH1 0x3 DUP2 SWAP1 SSTORE POP PUSH1 0x61 PUSH1 0x0 SWAP1 SLOAD SWAP1 PUSH2 0x100 EXP SWAP1 DIV PUSH20 0xFFFFFFFFFFFFFFFFFFFFFFFFFFFFFFFFFFFFFFFF AND PUSH20 0xFFFFFFFFFFFFFFFFFFFFFFFFFFFFFFFFFFFFFFFF AND PUSH2 0x8FC DUP4 SWAP1 DUP2 ISZERO MUL SWAP1 PUSH1 0x40 MLOAD PUSH1 0x0 PUSH1 0x40 MLOAD DUP1 DUP4 SUB DUP2 DUP6 DUP9 DUP9 CALL SWAP4 POP POP POP POP ISZERO DUP1 ISZERO PUSH2 0x1420 JUMPI RETURNDATASIZE PUSH1 0x0 DUP1 RETURNDATACOPY RETURNDATASIZE PUSH1 0x0 REVERT JUMPDEST POP PUSH1 0x0 DUP1 PUSH1 0x0 PUSH2 0x100 EXP DUP2 SLOAD DUP2 PUSH1 0xFF MUL NOT AND SWAP1 DUP4 ISZERO ISZERO MUL OR SWAP1 SSTORE POP POP POP JUMP JUMPDEST PUSH1 0x3 SLOAD DUP2 JUMP JUMPDEST PUSH1 0x2 SLOAD DUP2 JUMP JUMPDEST PUSH1 0x58 SLOAD DUP2 JUMP JUMPDEST PUSH1 0x28 DUP3 PUSH1 0x10 DUP2 LT PUSH2 0x1461 JUMPI PUSH1 0x0 DUP1 REVERT JUMPDEST PUSH1 0x2 MUL ADD DUP2 PUSH1 0x2 DUP2 LT PUSH2 0x1473 JUMPI PUSH1 0x0 DUP1 REVERT JUMPDEST ADD PUSH1 0x0 SWAP2 POP SWAP2 POP POP SLOAD DUP2 JUMP JUMPDEST PUSH1 0x59 SLOAD DUP2 JUMP JUMPDEST PUSH1 0x5F SLOAD DUP2 JUMP JUMPDEST PUSH1 0x1 DUP1 SLOAD EQ PUSH2 0x14CF JUMPI PUSH1 0x40 MLOAD PUSH32 0x8C379A000000000000000000000000000000000000000000000000000000000 DUP2 MSTORE PUSH1 0x4 ADD PUSH2 0x14C6 SWAP1 PUSH2 0x441A JUMP JUMPDEST PUSH1 0x40 MLOAD DUP1 SWAP2 SUB SWAP1 REVERT JUMPDEST PUSH1 0x2 PUSH1 0x58 SLOAD EQ PUSH2 0x1514 JUMPI PUSH1 0x40 MLOAD PUSH32 0x8C379A000000000000000000000000000000000000000000000000000000000 DUP2 MSTORE PUSH1 0x4 ADD PUSH2 0x150B SWAP1 PUSH2 0x42BA JUMP JUMPDEST PUSH1 0x40 MLOAD DUP1 SWAP2 SUB SWAP1 REVERT JUMPDEST PUSH1 0x2 PUSH1 0x4 SLOAD PUSH2 0x1523 SWAP2 SWAP1 PUSH2 0x45AD JUMP JUMPDEST PUSH1 0x3 SLOAD LT ISZERO PUSH2 0x1567 JUMPI PUSH1 0x40 MLOAD PUSH32 0x8C379A000000000000000000000000000000000000000000000000000000000 DUP2 MSTORE PUSH1 0x4 ADD PUSH2 0x155E SWAP1 PUSH2 0x447A JUMP JUMPDEST PUSH1 0x40 MLOAD DUP1 SWAP2 SUB SWAP1 REVERT JUMPDEST PUSH1 0x4 SLOAD PUSH1 0x3 SLOAD PUSH2 0x1577 SWAP2 SWAP1 PUSH2 0x4607 JUMP JUMPDEST PUSH1 0x3 DUP2 SWAP1 SSTORE POP PUSH1 0x2 PUSH1 0x4 SLOAD PUSH2 0x158C SWAP2 SWAP1 PUSH2 0x45AD JUMP JUMPDEST PUSH1 0x4 DUP2 SWAP1 SSTORE POP PUSH2 0x159A PUSH2 0x1A18 JUMP JUMPDEST PUSH2 0x15A2 PUSH2 0x1908 JUMP JUMPDEST JUMP JUMPDEST PUSH1 0x8 DUP3 PUSH1 0x10 DUP2 LT PUSH2 0x15B4 JUMPI PUSH1 0x0 DUP1 REVERT JUMPDEST PUSH1 0x2 MUL ADD DUP2 PUSH1 0x2 DUP2 LT PUSH2 0x15C6 JUMPI PUSH1 0x0 DUP1 REVERT JUMPDEST ADD PUSH1 0x0 SWAP2 POP SWAP2 POP POP SLOAD DUP2 JUMP JUMPDEST PUSH1 0x11 PUSH1 0x5D SLOAD LT PUSH2 0x1617 JUMPI PUSH1 0x40 MLOAD PUSH32 0x8C379A000000000000000000000000000000000000000000000000000000000 DUP2 MSTORE PUSH1 0x4 ADD PUSH2 0x160E SWAP1 PUSH2 0x42DA JUMP JUMPDEST PUSH1 0x40 MLOAD DUP1 SWAP2 SUB SWAP1 REVERT JUMPDEST PUSH1 0x1 PUSH1 0x5A SLOAD EQ DUP1 PUSH2 0x162A JUMPI POP PUSH1 0x1 PUSH1 0x5E SLOAD EQ JUMPDEST PUSH2 0x1633 JUMPI PUSH1 0x0 DUP1 REVERT JUMPDEST PUSH1 0x0 PUSH2 0x16B3 PUSH1 0x28 PUSH1 0x10 DUP1 PUSH1 0x20 MUL PUSH1 0x40 MLOAD SWAP1 DUP2 ADD PUSH1 0x40 MSTORE DUP1 SWAP3 SWAP2 SWAP1 PUSH1 0x0 SWAP1 JUMPDEST DUP3 DUP3 LT ISZERO PUSH2 0x16AA JUMPI DUP4 DUP3 PUSH1 0x2 MUL ADD PUSH1 0x2 DUP1 PUSH1 0x20 MUL PUSH1 0x40 MLOAD SWAP1 DUP2 ADD PUSH1 0x40 MSTORE DUP1 SWAP3 SWAP2 SWAP1 DUP3 PUSH1 0x2 DUP1 ISZERO PUSH2 0x1696 JUMPI PUSH1 0x20 MUL DUP3 ADD SWAP2 JUMPDEST DUP2 SLOAD DUP2 MSTORE PUSH1 0x20 ADD SWAP1 PUSH1 0x1 ADD SWAP1 DUP1 DUP4 GT PUSH2 0x1682 JUMPI JUMPDEST POP POP POP POP POP DUP2 MSTORE PUSH1 0x20 ADD SWAP1 PUSH1 0x1 ADD SWAP1 PUSH2 0x1651 JUMP JUMPDEST POP POP POP POP PUSH2 0x3866 JUMP JUMPDEST SWAP1 POP PUSH2 0x16BF PUSH1 0x1 PUSH2 0x1DB5 JUMP JUMPDEST PUSH1 0x0 PUSH1 0x1 SWAP1 POP JUMPDEST PUSH1 0xB DUP2 GT PUSH2 0x187D JUMPI JUMPDEST PUSH1 0x50 PUSH1 0x1 PUSH1 0x4 DUP2 LT PUSH2 0x16E4 JUMPI PUSH2 0x16E3 PUSH2 0x477D JUMP JUMPDEST JUMPDEST PUSH1 0x2 MUL ADD PUSH1 0x0 PUSH1 0x2 DUP2 LT PUSH2 0x16FB JUMPI PUSH2 0x16FA PUSH2 0x477D JUMP JUMPDEST JUMPDEST ADD SLOAD PUSH1 0x8 DUP3 PUSH1 0x10 DUP2 LT PUSH2 0x1711 JUMPI PUSH2 0x1710 PUSH2 0x477D JUMP JUMPDEST JUMPDEST PUSH1 0x2 MUL ADD PUSH1 0x0 PUSH1 0x2 DUP2 LT PUSH2 0x1728 JUMPI PUSH2 0x1727 PUSH2 0x477D JUMP JUMPDEST JUMPDEST ADD SLOAD EQ DUP1 ISZERO PUSH2 0x178F JUMPI POP PUSH1 0x50 PUSH1 0x1 PUSH1 0x4 DUP2 LT PUSH2 0x1747 JUMPI PUSH2 0x1746 PUSH2 0x477D JUMP JUMPDEST JUMPDEST PUSH1 0x2 MUL ADD PUSH1 0x1 PUSH1 0x2 DUP2 LT PUSH2 0x175E JUMPI PUSH2 0x175D PUSH2 0x477D JUMP JUMPDEST JUMPDEST ADD SLOAD PUSH1 0x8 DUP3 PUSH1 0x10 DUP2 LT PUSH2 0x1774 JUMPI PUSH2 0x1773 PUSH2 0x477D JUMP JUMPDEST JUMPDEST PUSH1 0x2 MUL ADD PUSH1 0x0 PUSH1 0x2 DUP2 LT PUSH2 0x178B JUMPI PUSH2 0x178A PUSH2 0x477D JUMP JUMPDEST JUMPDEST ADD SLOAD EQ JUMPDEST DUP1 PUSH2 0x1856 JUMPI POP PUSH1 0x50 PUSH1 0x1 PUSH1 0x4 DUP2 LT PUSH2 0x17AA JUMPI PUSH2 0x17A9 PUSH2 0x477D JUMP JUMPDEST JUMPDEST PUSH1 0x2 MUL ADD PUSH1 0x0 PUSH1 0x2 DUP2 LT PUSH2 0x17C1 JUMPI PUSH2 0x17C0 PUSH2 0x477D JUMP JUMPDEST JUMPDEST ADD SLOAD PUSH1 0x28 DUP3 PUSH1 0x10 DUP2 LT PUSH2 0x17D7 JUMPI PUSH2 0x17D6 PUSH2 0x477D JUMP JUMPDEST JUMPDEST PUSH1 0x2 MUL ADD PUSH1 0x0 PUSH1 0x2 DUP2 LT PUSH2 0x17EE JUMPI PUSH2 0x17ED PUSH2 0x477D JUMP JUMPDEST JUMPDEST ADD SLOAD EQ DUP1 ISZERO PUSH2 0x1855 JUMPI POP PUSH1 0x50 PUSH1 0x1 PUSH1 0x4 DUP2 LT PUSH2 0x180D JUMPI PUSH2 0x180C PUSH2 0x477D JUMP JUMPDEST JUMPDEST PUSH1 0x2 MUL ADD PUSH1 0x1 PUSH1 0x2 DUP2 LT PUSH2 0x1824 JUMPI PUSH2 0x1823 PUSH2 0x477D JUMP JUMPDEST JUMPDEST ADD SLOAD PUSH1 0x28 DUP3 PUSH1 0x10 DUP2 LT PUSH2 0x183A JUMPI PUSH2 0x1839 PUSH2 0x477D JUMP JUMPDEST JUMPDEST PUSH1 0x2 MUL ADD PUSH1 0x1 PUSH1 0x2 DUP2 LT PUSH2 0x1851 JUMPI PUSH2 0x1850 PUSH2 0x477D JUMP JUMPDEST JUMPDEST ADD SLOAD EQ JUMPDEST JUMPDEST ISZERO PUSH2 0x186A JUMPI PUSH2 0x1865 PUSH1 0x1 PUSH2 0x1DB5 JUMP JUMPDEST PUSH2 0x16CF JUMP JUMPDEST DUP1 DUP1 PUSH2 0x1875 SWAP1 PUSH2 0x4677 JUMP JUMPDEST SWAP2 POP POP PUSH2 0x16C6 JUMP JUMPDEST POP PUSH2 0x18EF PUSH1 0x50 PUSH1 0x1 PUSH1 0x4 DUP2 LT PUSH2 0x1896 JUMPI PUSH2 0x1895 PUSH2 0x477D JUMP JUMPDEST JUMPDEST PUSH1 0x2 MUL ADD PUSH1 0x0 PUSH1 0x2 DUP2 LT PUSH2 0x18AD JUMPI PUSH2 0x18AC PUSH2 0x477D JUMP JUMPDEST JUMPDEST ADD SLOAD PUSH1 0x50 PUSH1 0x1 PUSH1 0x4 DUP2 LT PUSH2 0x18C4 JUMPI PUSH2 0x18C3 PUSH2 0x477D JUMP JUMPDEST JUMPDEST PUSH1 0x2 MUL ADD PUSH1 0x1 PUSH1 0x2 DUP2 LT PUSH2 0x18DB JUMPI PUSH2 0x18DA PUSH2 0x477D JUMP JUMPDEST JUMPDEST ADD SLOAD PUSH1 0x1 DUP5 PUSH2 0x18EA SWAP2 SWAP1 PUSH2 0x4526 JUMP JUMPDEST PUSH2 0x24C0 JUMP JUMPDEST PUSH2 0x18F7 PUSH2 0x2822 JUMP JUMPDEST PUSH2 0x18FF PUSH2 0x2A99 JUMP JUMPDEST POP JUMP JUMPDEST PUSH1 0x5B SLOAD DUP2 JUMP JUMPDEST PUSH1 0x0 PUSH1 0x5E SLOAD EQ PUSH2 0x194D JUMPI PUSH1 0x40 MLOAD PUSH32 0x8C379A000000000000000000000000000000000000000000000000000000000 DUP2 MSTORE PUSH1 0x4 ADD PUSH2 0x1944 SWAP1 PUSH2 0x449A JUMP JUMPDEST PUSH1 0x40 MLOAD DUP1 SWAP2 SUB SWAP1 REVERT JUMPDEST PUSH1 0x0 PUSH1 0x5A SLOAD EQ PUSH2 0x1992 JUMPI PUSH1 0x40 MLOAD PUSH32 0x8C379A000000000000000000000000000000000000000000000000000000000 DUP2 MSTORE PUSH1 0x4 ADD PUSH2 0x1989 SWAP1 PUSH2 0x439A JUMP JUMPDEST PUSH1 0x40 MLOAD DUP1 SWAP2 SUB SWAP1 REVERT JUMPDEST PUSH1 0x1 DUP1 SLOAD EQ PUSH2 0x19D6 JUMPI PUSH1 0x40 MLOAD PUSH32 0x8C379A000000000000000000000000000000000000000000000000000000000 DUP2 MSTORE PUSH1 0x4 ADD PUSH2 0x19CD SWAP1 PUSH2 0x441A JUMP JUMPDEST PUSH1 0x40 MLOAD DUP1 SWAP2 SUB SWAP1 REVERT JUMPDEST PUSH1 0x1 PUSH1 0x5E DUP2 SWAP1 SSTORE POP PUSH2 0x19E6 PUSH2 0x301D JUMP JUMPDEST JUMPDEST PUSH1 0x1 DUP1 SLOAD EQ ISZERO PUSH2 0x19FE JUMPI PUSH2 0x19F9 PUSH2 0x15D2 JUMP JUMPDEST PUSH2 0x19E7 JUMP JUMPDEST JUMP JUMPDEST PUSH1 0x5C SLOAD DUP2 JUMP JUMPDEST PUSH8 0xDE0B6B3A7640000 DUP2 JUMP JUMPDEST PUSH1 0x4 SLOAD DUP2 JUMP JUMPDEST PUSH1 0x1 DUP1 SLOAD EQ PUSH2 0x1A5C JUMPI PUSH1 0x40 MLOAD PUSH32 0x8C379A000000000000000000000000000000000000000000000000000000000 DUP2 MSTORE PUSH1 0x4 ADD PUSH2 0x1A53 SWAP1 PUSH2 0x441A JUMP JUMPDEST PUSH1 0x40 MLOAD DUP1 SWAP2 SUB SWAP1 REVERT JUMPDEST PUSH1 0x0 PUSH1 0x5A SLOAD EQ PUSH2 0x1AA1 JUMPI PUSH1 0x40 MLOAD PUSH32 0x8C379A000000000000000000000000000000000000000000000000000000000 DUP2 MSTORE PUSH1 0x4 ADD PUSH2 0x1A98 SWAP1 PUSH2 0x439A JUMP JUMPDEST PUSH1 0x40 MLOAD DUP1 SWAP2 SUB SWAP1 REVERT JUMPDEST PUSH1 0x0 PUSH1 0x5E SLOAD EQ PUSH2 0x1AE6 JUMPI PUSH1 0x40 MLOAD PUSH32 0x8C379A000000000000000000000000000000000000000000000000000000000 DUP2 MSTORE PUSH1 0x4 ADD PUSH2 0x1ADD SWAP1 PUSH2 0x449A JUMP JUMPDEST PUSH1 0x40 MLOAD DUP1 SWAP2 SUB SWAP1 REVERT JUMPDEST PUSH1 0x0 PUSH2 0x1B66 PUSH1 0x8 PUSH1 0x10 DUP1 PUSH1 0x20 MUL PUSH1 0x40 MLOAD SWAP1 DUP2 ADD PUSH1 0x40 MSTORE DUP1 SWAP3 SWAP2 SWAP1 PUSH1 0x0 SWAP1 JUMPDEST DUP3 DUP3 LT ISZERO PUSH2 0x1B5D JUMPI DUP4 DUP3 PUSH1 0x2 MUL ADD PUSH1 0x2 DUP1 PUSH1 0x20 MUL PUSH1 0x40 MLOAD SWAP1 DUP2 ADD PUSH1 0x40 MSTORE DUP1 SWAP3 SWAP2 SWAP1 DUP3 PUSH1 0x2 DUP1 ISZERO PUSH2 0x1B49 JUMPI PUSH1 0x20 MUL DUP3 ADD SWAP2 JUMPDEST DUP2 SLOAD DUP2 MSTORE PUSH1 0x20 ADD SWAP1 PUSH1 0x1 ADD SWAP1 DUP1 DUP4 GT PUSH2 0x1B35 JUMPI JUMPDEST POP POP POP POP POP DUP2 MSTORE PUSH1 0x20 ADD SWAP1 PUSH1 0x1 ADD SWAP1 PUSH2 0x1B04 JUMP JUMPDEST POP POP POP POP PUSH2 0x3866 JUMP JUMPDEST SWAP1 POP PUSH2 0x1B72 PUSH1 0x1 PUSH2 0x1DB5 JUMP JUMPDEST PUSH1 0x0 PUSH1 0x1 SWAP1 POP JUMPDEST PUSH1 0xB DUP2 GT PUSH2 0x1D30 JUMPI JUMPDEST PUSH1 0x50 PUSH1 0x1 PUSH1 0x4 DUP2 LT PUSH2 0x1B97 JUMPI PUSH2 0x1B96 PUSH2 0x477D JUMP JUMPDEST JUMPDEST PUSH1 0x2 MUL ADD PUSH1 0x0 PUSH1 0x2 DUP2 LT PUSH2 0x1BAE JUMPI PUSH2 0x1BAD PUSH2 0x477D JUMP JUMPDEST JUMPDEST ADD SLOAD PUSH1 0x8 DUP3 PUSH1 0x10 DUP2 LT PUSH2 0x1BC4 JUMPI PUSH2 0x1BC3 PUSH2 0x477D JUMP JUMPDEST JUMPDEST PUSH1 0x2 MUL ADD PUSH1 0x0 PUSH1 0x2 DUP2 LT PUSH2 0x1BDB JUMPI PUSH2 0x1BDA PUSH2 0x477D JUMP JUMPDEST JUMPDEST ADD SLOAD EQ DUP1 ISZERO PUSH2 0x1C42 JUMPI POP PUSH1 0x50 PUSH1 0x1 PUSH1 0x4 DUP2 LT PUSH2 0x1BFA JUMPI PUSH2 0x1BF9 PUSH2 0x477D JUMP JUMPDEST JUMPDEST PUSH1 0x2 MUL ADD PUSH1 0x1 PUSH1 0x2 DUP2 LT PUSH2 0x1C11 JUMPI PUSH2 0x1C10 PUSH2 0x477D JUMP JUMPDEST JUMPDEST ADD SLOAD PUSH1 0x8 DUP3 PUSH1 0x10 DUP2 LT PUSH2 0x1C27 JUMPI PUSH2 0x1C26 PUSH2 0x477D JUMP JUMPDEST JUMPDEST PUSH1 0x2 MUL ADD PUSH1 0x0 PUSH1 0x2 DUP2 LT PUSH2 0x1C3E JUMPI PUSH2 0x1C3D PUSH2 0x477D JUMP JUMPDEST JUMPDEST ADD SLOAD EQ JUMPDEST DUP1 PUSH2 0x1D09 JUMPI POP PUSH1 0x50 PUSH1 0x1 PUSH1 0x4 DUP2 LT PUSH2 0x1C5D JUMPI PUSH2 0x1C5C PUSH2 0x477D JUMP JUMPDEST JUMPDEST PUSH1 0x2 MUL ADD PUSH1 0x0 PUSH1 0x2 DUP2 LT PUSH2 0x1C74 JUMPI PUSH2 0x1C73 PUSH2 0x477D JUMP JUMPDEST JUMPDEST ADD SLOAD PUSH1 0x28 DUP3 PUSH1 0x10 DUP2 LT PUSH2 0x1C8A JUMPI PUSH2 0x1C89 PUSH2 0x477D JUMP JUMPDEST JUMPDEST PUSH1 0x2 MUL ADD PUSH1 0x0 PUSH1 0x2 DUP2 LT PUSH2 0x1CA1 JUMPI PUSH2 0x1CA0 PUSH2 0x477D JUMP JUMPDEST JUMPDEST ADD SLOAD EQ DUP1 ISZERO PUSH2 0x1D08 JUMPI POP PUSH1 0x50 PUSH1 0x1 PUSH1 0x4 DUP2 LT PUSH2 0x1CC0 JUMPI PUSH2 0x1CBF PUSH2 0x477D JUMP JUMPDEST JUMPDEST PUSH1 0x2 MUL ADD PUSH1 0x1 PUSH1 0x2 DUP2 LT PUSH2 0x1CD7 JUMPI PUSH2 0x1CD6 PUSH2 0x477D JUMP JUMPDEST JUMPDEST ADD SLOAD PUSH1 0x28 DUP3 PUSH1 0x10 DUP2 LT PUSH2 0x1CED JUMPI PUSH2 0x1CEC PUSH2 0x477D JUMP JUMPDEST JUMPDEST PUSH1 0x2 MUL ADD PUSH1 0x1 PUSH1 0x2 DUP2 LT PUSH2 0x1D04 JUMPI PUSH2 0x1D03 PUSH2 0x477D JUMP JUMPDEST JUMPDEST ADD SLOAD EQ JUMPDEST JUMPDEST ISZERO PUSH2 0x1D1D JUMPI PUSH2 0x1D18 PUSH1 0x1 PUSH2 0x1DB5 JUMP JUMPDEST PUSH2 0x1B82 JUMP JUMPDEST DUP1 DUP1 PUSH2 0x1D28 SWAP1 PUSH2 0x4677 JUMP JUMPDEST SWAP2 POP POP PUSH2 0x1B79 JUMP JUMPDEST POP PUSH2 0x1DA2 PUSH1 0x50 PUSH1 0x1 PUSH1 0x4 DUP2 LT PUSH2 0x1D49 JUMPI PUSH2 0x1D48 PUSH2 0x477D JUMP JUMPDEST JUMPDEST PUSH1 0x2 MUL ADD PUSH1 0x0 PUSH1 0x2 DUP2 LT PUSH2 0x1D60 JUMPI PUSH2 0x1D5F PUSH2 0x477D JUMP JUMPDEST JUMPDEST ADD SLOAD PUSH1 0x50 PUSH1 0x1 PUSH1 0x4 DUP2 LT PUSH2 0x1D77 JUMPI PUSH2 0x1D76 PUSH2 0x477D JUMP JUMPDEST JUMPDEST PUSH1 0x2 MUL ADD PUSH1 0x1 PUSH1 0x2 DUP2 LT PUSH2 0x1D8E JUMPI PUSH2 0x1D8D PUSH2 0x477D JUMP JUMPDEST JUMPDEST ADD SLOAD PUSH1 0x1 DUP5 PUSH2 0x1D9D SWAP2 SWAP1 PUSH2 0x4526 JUMP JUMPDEST PUSH2 0x23D5 JUMP JUMPDEST PUSH2 0x1DAA PUSH2 0x25AB JUMP JUMPDEST PUSH2 0x1DB2 PUSH2 0x301D JUMP JUMPDEST POP JUMP JUMPDEST PUSH1 0x0 PUSH1 0x40 MLOAD DUP1 PUSH1 0x20 ADD PUSH1 0x40 MSTORE DUP1 PUSH1 0x0 DUP2 MSTORE POP SWAP1 POP PUSH1 0x0 PUSH1 0x40 MLOAD DUP1 PUSH1 0x20 ADD PUSH1 0x40 MSTORE DUP1 PUSH1 0x0 DUP2 MSTORE POP SWAP1 POP PUSH1 0x0 DUP1 PUSH1 0x1 SWAP1 POP PUSH1 0x0 JUMPDEST DUP6 DUP3 GT PUSH2 0x206B JUMPI PUSH1 0x0 PUSH1 0x3 SWAP1 POP PUSH1 0x0 PUSH1 0x4 SWAP1 POP PUSH1 0x0 PUSH1 0x7 DUP2 SWAP1 SSTORE POP PUSH1 0x0 PUSH1 0x6 DUP2 SWAP1 SSTORE POP PUSH2 0x1E12 PUSH2 0x38DE JUMP JUMPDEST PUSH1 0x5 DUP2 SWAP1 SSTORE POP PUSH2 0x1E23 PUSH1 0x5 SLOAD PUSH2 0x3992 JUMP JUMPDEST SWAP7 POP PUSH2 0x1E30 DUP3 DUP3 DUP10 PUSH2 0x3A6A JUMP JUMPDEST SWAP6 POP PUSH2 0x1E3B DUP7 PUSH2 0x3B7F JUMP JUMPDEST SWAP3 POP DUP7 MLOAD SWAP5 POP JUMPDEST PUSH1 0x1 DUP4 LT DUP1 PUSH2 0x1E51 JUMPI POP PUSH1 0xD DUP4 GT JUMPDEST DUP1 ISZERO PUSH2 0x1E68 JUMPI POP PUSH1 0x3 DUP6 PUSH2 0x1E65 SWAP2 SWAP1 PUSH2 0x4607 JUMP JUMPDEST DUP3 LT JUMPDEST ISZERO PUSH2 0x1EFC JUMPI PUSH1 0x2 DUP3 PUSH2 0x1E7A SWAP2 SWAP1 PUSH2 0x4526 JUMP JUMPDEST SWAP2 POP PUSH1 0x2 DUP2 PUSH2 0x1E89 SWAP2 SWAP1 PUSH2 0x4526 JUMP JUMPDEST SWAP1 POP PUSH2 0x1E96 DUP3 DUP3 DUP10 PUSH2 0x3A6A JUMP JUMPDEST SWAP6 POP PUSH2 0x1EA1 DUP7 PUSH2 0x3B7F JUMP JUMPDEST SWAP3 POP PUSH1 0x3 DUP6 PUSH2 0x1EB0 SWAP2 SWAP1 PUSH2 0x4607 JUMP JUMPDEST DUP3 GT ISZERO PUSH2 0x1EF7 JUMPI PUSH1 0x3 SWAP2 POP PUSH1 0x4 SWAP1 POP PUSH2 0x1EC7 PUSH2 0x38DE JUMP JUMPDEST PUSH1 0x5 DUP2 SWAP1 SSTORE POP PUSH2 0x1ED8 PUSH1 0x5 SLOAD PUSH2 0x3992 JUMP JUMPDEST SWAP7 POP PUSH2 0x1EE5 DUP3 DUP3 DUP10 PUSH2 0x3A6A JUMP JUMPDEST SWAP6 POP PUSH2 0x1EF0 DUP7 PUSH2 0x3B7F JUMP JUMPDEST SWAP3 POP DUP7 MLOAD SWAP5 POP JUMPDEST PUSH2 0x1E42 JUMP JUMPDEST DUP3 PUSH1 0x7 DUP2 SWAP1 SSTORE POP PUSH1 0x2 DUP3 PUSH2 0x1F10 SWAP2 SWAP1 PUSH2 0x4526 JUMP JUMPDEST SWAP2 POP PUSH1 0x2 DUP2 PUSH2 0x1F1F SWAP2 SWAP1 PUSH2 0x4526 JUMP JUMPDEST SWAP1 POP PUSH2 0x1F2C DUP3 DUP3 DUP10 PUSH2 0x3A6A JUMP JUMPDEST SWAP6 POP PUSH2 0x1F37 DUP7 PUSH2 0x3B7F JUMP JUMPDEST SWAP3 POP JUMPDEST PUSH1 0x1 DUP4 LT DUP1 PUSH2 0x1F49 JUMPI POP PUSH1 0x4 DUP4 GT JUMPDEST DUP1 ISZERO PUSH2 0x1F60 JUMPI POP PUSH1 0x3 DUP6 PUSH2 0x1F5D SWAP2 SWAP1 PUSH2 0x4607 JUMP JUMPDEST DUP3 LT JUMPDEST ISZERO PUSH2 0x1FE8 JUMPI PUSH1 0x1 DUP3 PUSH2 0x1F72 SWAP2 SWAP1 PUSH2 0x4526 JUMP JUMPDEST SWAP2 POP DUP2 SWAP1 POP PUSH2 0x1F82 DUP3 DUP3 DUP10 PUSH2 0x3A6A JUMP JUMPDEST SWAP6 POP PUSH2 0x1F8D DUP7 PUSH2 0x3B7F JUMP JUMPDEST SWAP3 POP PUSH1 0x3 DUP6 PUSH2 0x1F9C SWAP2 SWAP1 PUSH2 0x4607 JUMP JUMPDEST DUP3 GT ISZERO PUSH2 0x1FE3 JUMPI PUSH1 0x4 SWAP2 POP PUSH1 0x4 SWAP1 POP PUSH2 0x1FB3 PUSH2 0x38DE JUMP JUMPDEST PUSH1 0x5 DUP2 SWAP1 SSTORE POP PUSH2 0x1FC4 PUSH1 0x5 SLOAD PUSH2 0x3992 JUMP JUMPDEST SWAP7 POP PUSH2 0x1FD1 DUP3 DUP3 DUP10 PUSH2 0x3A6A JUMP JUMPDEST SWAP6 POP PUSH2 0x1FDC DUP7 PUSH2 0x3B7F JUMP JUMPDEST SWAP3 POP DUP7 MLOAD SWAP5 POP JUMPDEST PUSH2 0x1F3A JUMP JUMPDEST DUP3 PUSH1 0x6 DUP2 SWAP1 SSTORE POP PUSH1 0x7 SLOAD PUSH1 0x50 DUP6 PUSH1 0x4 DUP2 LT PUSH2 0x2006 JUMPI PUSH2 0x2005 PUSH2 0x477D JUMP JUMPDEST JUMPDEST PUSH1 0x2 MUL ADD PUSH1 0x0 PUSH1 0x2 DUP2 LT PUSH2 0x201D JUMPI PUSH2 0x201C PUSH2 0x477D JUMP JUMPDEST JUMPDEST ADD DUP2 SWAP1 SSTORE POP PUSH1 0x6 SLOAD PUSH1 0x50 DUP6 PUSH1 0x4 DUP2 LT PUSH2 0x2039 JUMPI PUSH2 0x2038 PUSH2 0x477D JUMP JUMPDEST JUMPDEST PUSH1 0x2 MUL ADD PUSH1 0x1 PUSH1 0x2 DUP2 LT PUSH2 0x2050 JUMPI PUSH2 0x204F PUSH2 0x477D JUMP JUMPDEST JUMPDEST ADD DUP2 SWAP1 SSTORE POP PUSH1 0x1 DUP5 PUSH2 0x2062 SWAP2 SWAP1 PUSH2 0x4526 JUMP JUMPDEST SWAP4 POP POP POP PUSH2 0x1DE7 JUMP JUMPDEST POP POP POP POP POP POP JUMP JUMPDEST PUSH2 0x207B PUSH2 0x3E6A JUMP JUMPDEST JUMPDEST DUP2 PUSH1 0x2 PUSH1 0x4 DUP2 LT PUSH2 0x2090 JUMPI PUSH2 0x208F PUSH2 0x477D JUMP JUMPDEST JUMPDEST PUSH1 0x20 MUL ADD MLOAD PUSH1 0x0 PUSH1 0x2 DUP2 LT PUSH2 0x20A8 JUMPI PUSH2 0x20A7 PUSH2 0x477D JUMP JUMPDEST JUMPDEST PUSH1 0x20 MUL ADD MLOAD DUP3 PUSH1 0x1 PUSH1 0x4 DUP2 LT PUSH2 0x20C1 JUMPI PUSH2 0x20C0 PUSH2 0x477D JUMP JUMPDEST JUMPDEST PUSH1 0x20 MUL ADD MLOAD PUSH1 0x0 PUSH1 0x2 DUP2 LT PUSH2 0x20D9 JUMPI PUSH2 0x20D8 PUSH2 0x477D JUMP JUMPDEST JUMPDEST PUSH1 0x20 MUL ADD MLOAD EQ DUP1 ISZERO PUSH2 0x214A JUMPI POP DUP2 PUSH1 0x2 PUSH1 0x4 DUP2 LT PUSH2 0x20FA JUMPI PUSH2 0x20F9 PUSH2 0x477D JUMP JUMPDEST JUMPDEST PUSH1 0x20 MUL ADD MLOAD PUSH1 0x1 PUSH1 0x2 DUP2 LT PUSH2 0x2112 JUMPI PUSH2 0x2111 PUSH2 0x477D JUMP JUMPDEST JUMPDEST PUSH1 0x20 MUL ADD MLOAD DUP3 PUSH1 0x1 PUSH1 0x4 DUP2 LT PUSH2 0x212B JUMPI PUSH2 0x212A PUSH2 0x477D JUMP JUMPDEST JUMPDEST PUSH1 0x20 MUL ADD MLOAD PUSH1 0x1 PUSH1 0x2 DUP2 LT PUSH2 0x2143 JUMPI PUSH2 0x2142 PUSH2 0x477D JUMP JUMPDEST JUMPDEST PUSH1 0x20 MUL ADD MLOAD EQ JUMPDEST ISZERO PUSH2 0x2224 JUMPI PUSH2 0x2159 PUSH1 0x1 PUSH2 0x1DB5 JUMP JUMPDEST PUSH1 0x50 PUSH1 0x1 PUSH1 0x4 DUP2 LT PUSH2 0x216E JUMPI PUSH2 0x216D PUSH2 0x477D JUMP JUMPDEST JUMPDEST PUSH1 0x2 MUL ADD PUSH1 0x0 PUSH1 0x2 DUP2 LT PUSH2 0x2185 JUMPI PUSH2 0x2184 PUSH2 0x477D JUMP JUMPDEST JUMPDEST ADD SLOAD DUP3 PUSH1 0x2 PUSH1 0x4 DUP2 LT PUSH2 0x219B JUMPI PUSH2 0x219A PUSH2 0x477D JUMP JUMPDEST JUMPDEST PUSH1 0x20 MUL ADD MLOAD PUSH1 0x0 PUSH1 0x2 DUP2 LT PUSH2 0x21B3 JUMPI PUSH2 0x21B2 PUSH2 0x477D JUMP JUMPDEST JUMPDEST PUSH1 0x20 MUL ADD DUP2 DUP2 MSTORE POP POP PUSH1 0x50 PUSH1 0x1 PUSH1 0x4 DUP2 LT PUSH2 0x21D1 JUMPI PUSH2 0x21D0 PUSH2 0x477D JUMP JUMPDEST JUMPDEST PUSH1 0x2 MUL ADD PUSH1 0x1 PUSH1 0x2 DUP2 LT PUSH2 0x21E8 JUMPI PUSH2 0x21E7 PUSH2 0x477D JUMP JUMPDEST JUMPDEST ADD SLOAD DUP3 PUSH1 0x2 PUSH1 0x4 DUP2 LT PUSH2 0x21FE JUMPI PUSH2 0x21FD PUSH2 0x477D JUMP JUMPDEST JUMPDEST PUSH1 0x20 MUL ADD MLOAD PUSH1 0x1 PUSH1 0x2 DUP2 LT PUSH2 0x2216 JUMPI PUSH2 0x2215 PUSH2 0x477D JUMP JUMPDEST JUMPDEST PUSH1 0x20 MUL ADD DUP2 DUP2 MSTORE POP POP PUSH2 0x207C JUMP JUMPDEST JUMPDEST DUP2 PUSH1 0x3 PUSH1 0x4 DUP2 LT PUSH2 0x2239 JUMPI PUSH2 0x2238 PUSH2 0x477D JUMP JUMPDEST JUMPDEST PUSH1 0x20 MUL ADD MLOAD PUSH1 0x0 PUSH1 0x2 DUP2 LT PUSH2 0x2251 JUMPI PUSH2 0x2250 PUSH2 0x477D JUMP JUMPDEST JUMPDEST PUSH1 0x20 MUL ADD MLOAD DUP3 PUSH1 0x2 PUSH1 0x4 DUP2 LT PUSH2 0x226A JUMPI PUSH2 0x2269 PUSH2 0x477D JUMP JUMPDEST JUMPDEST PUSH1 0x20 MUL ADD MLOAD PUSH1 0x0 PUSH1 0x2 DUP2 LT PUSH2 0x2282 JUMPI PUSH2 0x2281 PUSH2 0x477D JUMP JUMPDEST JUMPDEST PUSH1 0x20 MUL ADD MLOAD EQ DUP1 ISZERO PUSH2 0x22F3 JUMPI POP DUP2 PUSH1 0x3 PUSH1 0x4 DUP2 LT PUSH2 0x22A3 JUMPI PUSH2 0x22A2 PUSH2 0x477D JUMP JUMPDEST JUMPDEST PUSH1 0x20 MUL ADD MLOAD PUSH1 0x1 PUSH1 0x2 DUP2 LT PUSH2 0x22BB JUMPI PUSH2 0x22BA PUSH2 0x477D JUMP JUMPDEST JUMPDEST PUSH1 0x20 MUL ADD MLOAD DUP3 PUSH1 0x2 PUSH1 0x4 DUP2 LT PUSH2 0x22D4 JUMPI PUSH2 0x22D3 PUSH2 0x477D JUMP JUMPDEST JUMPDEST PUSH1 0x20 MUL ADD MLOAD PUSH1 0x1 PUSH1 0x2 DUP2 LT PUSH2 0x22EC JUMPI PUSH2 0x22EB PUSH2 0x477D JUMP JUMPDEST JUMPDEST PUSH1 0x20 MUL ADD MLOAD EQ JUMPDEST ISZERO PUSH2 0x23CD JUMPI PUSH2 0x2302 PUSH1 0x1 PUSH2 0x1DB5 JUMP JUMPDEST PUSH1 0x50 PUSH1 0x1 PUSH1 0x4 DUP2 LT PUSH2 0x2317 JUMPI PUSH2 0x2316 PUSH2 0x477D JUMP JUMPDEST JUMPDEST PUSH1 0x2 MUL ADD PUSH1 0x0 PUSH1 0x2 DUP2 LT PUSH2 0x232E JUMPI PUSH2 0x232D PUSH2 0x477D JUMP JUMPDEST JUMPDEST ADD SLOAD DUP3 PUSH1 0x3 PUSH1 0x4 DUP2 LT PUSH2 0x2344 JUMPI PUSH2 0x2343 PUSH2 0x477D JUMP JUMPDEST JUMPDEST PUSH1 0x20 MUL ADD MLOAD PUSH1 0x0 PUSH1 0x2 DUP2 LT PUSH2 0x235C JUMPI PUSH2 0x235B PUSH2 0x477D JUMP JUMPDEST JUMPDEST PUSH1 0x20 MUL ADD DUP2 DUP2 MSTORE POP POP PUSH1 0x50 PUSH1 0x1 PUSH1 0x4 DUP2 LT PUSH2 0x237A JUMPI PUSH2 0x2379 PUSH2 0x477D JUMP JUMPDEST JUMPDEST PUSH1 0x2 MUL ADD PUSH1 0x1 PUSH1 0x2 DUP2 LT PUSH2 0x2391 JUMPI PUSH2 0x2390 PUSH2 0x477D JUMP JUMPDEST JUMPDEST ADD SLOAD DUP3 PUSH1 0x3 PUSH1 0x4 DUP2 LT PUSH2 0x23A7 JUMPI PUSH2 0x23A6 PUSH2 0x477D JUMP JUMPDEST JUMPDEST PUSH1 0x20 MUL ADD MLOAD PUSH1 0x1 PUSH1 0x2 DUP2 LT PUSH2 0x23BF JUMPI PUSH2 0x23BE PUSH2 0x477D JUMP JUMPDEST JUMPDEST PUSH1 0x20 MUL ADD DUP2 DUP2 MSTORE POP POP PUSH2 0x2225 JUMP JUMPDEST DUP2 SWAP1 POP SWAP2 SWAP1 POP JUMP JUMPDEST DUP3 PUSH1 0x8 DUP3 PUSH1 0x10 DUP2 LT PUSH2 0x23EA JUMPI PUSH2 0x23E9 PUSH2 0x477D JUMP JUMPDEST JUMPDEST PUSH1 0x2 MUL ADD PUSH1 0x0 PUSH1 0x2 DUP2 LT PUSH2 0x2401 JUMPI PUSH2 0x2400 PUSH2 0x477D JUMP JUMPDEST JUMPDEST ADD DUP2 SWAP1 SSTORE POP DUP2 PUSH1 0x8 DUP3 PUSH1 0x10 DUP2 LT PUSH2 0x241B JUMPI PUSH2 0x241A PUSH2 0x477D JUMP JUMPDEST JUMPDEST PUSH1 0x2 MUL ADD PUSH1 0x1 PUSH1 0x2 DUP2 LT PUSH2 0x2432 JUMPI PUSH2 0x2431 PUSH2 0x477D JUMP JUMPDEST JUMPDEST ADD DUP2 SWAP1 SSTORE POP PUSH2 0x24B5 PUSH1 0x8 PUSH1 0x10 DUP1 PUSH1 0x20 MUL PUSH1 0x40 MLOAD SWAP1 DUP2 ADD PUSH1 0x40 MSTORE DUP1 SWAP3 SWAP2 SWAP1 PUSH1 0x0 SWAP1 JUMPDEST DUP3 DUP3 LT ISZERO PUSH2 0x24AC JUMPI DUP4 DUP3 PUSH1 0x2 MUL ADD PUSH1 0x2 DUP1 PUSH1 0x20 MUL PUSH1 0x40 MLOAD SWAP1 DUP2 ADD PUSH1 0x40 MSTORE DUP1 SWAP3 SWAP2 SWAP1 DUP3 PUSH1 0x2 DUP1 ISZERO PUSH2 0x2498 JUMPI PUSH1 0x20 MUL DUP3 ADD SWAP2 JUMPDEST DUP2 SLOAD DUP2 MSTORE PUSH1 0x20 ADD SWAP1 PUSH1 0x1 ADD SWAP1 DUP1 DUP4 GT PUSH2 0x2484 JUMPI JUMPDEST POP POP POP POP POP DUP2 MSTORE PUSH1 0x20 ADD SWAP1 PUSH1 0x1 ADD SWAP1 PUSH2 0x2453 JUMP JUMPDEST POP POP POP POP PUSH2 0x3866 JUMP JUMPDEST PUSH1 0x58 DUP2 SWAP1 SSTORE POP POP POP POP JUMP JUMPDEST DUP3 PUSH1 0x28 DUP3 PUSH1 0x10 DUP2 LT PUSH2 0x24D5 JUMPI PUSH2 0x24D4 PUSH2 0x477D JUMP JUMPDEST JUMPDEST PUSH1 0x2 MUL ADD PUSH1 0x0 PUSH1 0x2 DUP2 LT PUSH2 0x24EC JUMPI PUSH2 0x24EB PUSH2 0x477D JUMP JUMPDEST JUMPDEST ADD DUP2 SWAP1 SSTORE POP DUP2 PUSH1 0x28 DUP3 PUSH1 0x10 DUP2 LT PUSH2 0x2506 JUMPI PUSH2 0x2505 PUSH2 0x477D JUMP JUMPDEST JUMPDEST PUSH1 0x2 MUL ADD PUSH1 0x1 PUSH1 0x2 DUP2 LT PUSH2 0x251D JUMPI PUSH2 0x251C PUSH2 0x477D JUMP JUMPDEST JUMPDEST ADD DUP2 SWAP1 SSTORE POP PUSH2 0x25A0 PUSH1 0x28 PUSH1 0x10 DUP1 PUSH1 0x20 MUL PUSH1 0x40 MLOAD SWAP1 DUP2 ADD PUSH1 0x40 MSTORE DUP1 SWAP3 SWAP2 SWAP1 PUSH1 0x0 SWAP1 JUMPDEST DUP3 DUP3 LT ISZERO PUSH2 0x2597 JUMPI DUP4 DUP3 PUSH1 0x2 MUL ADD PUSH1 0x2 DUP1 PUSH1 0x20 MUL PUSH1 0x40 MLOAD SWAP1 DUP2 ADD PUSH1 0x40 MSTORE DUP1 SWAP3 SWAP2 SWAP1 DUP3 PUSH1 0x2 DUP1 ISZERO PUSH2 0x2583 JUMPI PUSH1 0x20 MUL DUP3 ADD SWAP2 JUMPDEST DUP2 SLOAD DUP2 MSTORE PUSH1 0x20 ADD SWAP1 PUSH1 0x1 ADD SWAP1 DUP1 DUP4 GT PUSH2 0x256F JUMPI JUMPDEST POP POP POP POP POP DUP2 MSTORE PUSH1 0x20 ADD SWAP1 PUSH1 0x1 ADD SWAP1 PUSH2 0x253E JUMP JUMPDEST POP POP POP POP PUSH2 0x3866 JUMP JUMPDEST PUSH1 0x59 DUP2 SWAP1 SSTORE POP POP POP POP JUMP JUMPDEST PUSH1 0x0 DUP1 PUSH2 0x262C PUSH1 0x8 PUSH1 0x10 DUP1 PUSH1 0x20 MUL PUSH1 0x40 MLOAD SWAP1 DUP2 ADD PUSH1 0x40 MSTORE DUP1 SWAP3 SWAP2 SWAP1 PUSH1 0x0 SWAP1 JUMPDEST DUP3 DUP3 LT ISZERO PUSH2 0x2623 JUMPI DUP4 DUP3 PUSH1 0x2 MUL ADD PUSH1 0x2 DUP1 PUSH1 0x20 MUL PUSH1 0x40 MLOAD SWAP1 DUP2 ADD PUSH1 0x40 MSTORE DUP1 SWAP3 SWAP2 SWAP1 DUP3 PUSH1 0x2 DUP1 ISZERO PUSH2 0x260F JUMPI PUSH1 0x20 MUL DUP3 ADD SWAP2 JUMPDEST DUP2 SLOAD DUP2 MSTORE PUSH1 0x20 ADD SWAP1 PUSH1 0x1 ADD SWAP1 DUP1 DUP4 GT PUSH2 0x25FB JUMPI JUMPDEST POP POP POP POP POP DUP2 MSTORE PUSH1 0x20 ADD SWAP1 PUSH1 0x1 ADD SWAP1 PUSH2 0x25CA JUMP JUMPDEST POP POP POP POP PUSH2 0x3866 JUMP JUMPDEST PUSH1 0x58 DUP2 SWAP1 SSTORE POP PUSH1 0x0 PUSH1 0x1 SWAP1 POP JUMPDEST PUSH1 0x58 SLOAD DUP2 GT PUSH2 0x2744 JUMPI PUSH1 0x9 PUSH1 0x8 DUP3 PUSH1 0x10 DUP2 LT PUSH2 0x2658 JUMPI PUSH2 0x2657 PUSH2 0x477D JUMP JUMPDEST JUMPDEST PUSH1 0x2 MUL ADD PUSH1 0x0 PUSH1 0x2 DUP2 LT PUSH2 0x266F JUMPI PUSH2 0x266E PUSH2 0x477D JUMP JUMPDEST JUMPDEST ADD SLOAD GT ISZERO PUSH2 0x2687 JUMPI PUSH1 0xA DUP4 PUSH2 0x2684 SWAP2 SWAP1 PUSH2 0x4526 JUMP JUMPDEST SWAP3 POP JUMPDEST PUSH1 0xA PUSH1 0x8 DUP3 PUSH1 0x10 DUP2 LT PUSH2 0x269D JUMPI PUSH2 0x269C PUSH2 0x477D JUMP JUMPDEST JUMPDEST PUSH1 0x2 MUL ADD PUSH1 0x0 PUSH1 0x2 DUP2 LT PUSH2 0x26B4 JUMPI PUSH2 0x26B3 PUSH2 0x477D JUMP JUMPDEST JUMPDEST ADD SLOAD LT ISZERO PUSH2 0x26F7 JUMPI PUSH1 0x8 DUP2 PUSH1 0x10 DUP2 LT PUSH2 0x26D0 JUMPI PUSH2 0x26CF PUSH2 0x477D JUMP JUMPDEST JUMPDEST PUSH1 0x2 MUL ADD PUSH1 0x0 PUSH1 0x2 DUP2 LT PUSH2 0x26E7 JUMPI PUSH2 0x26E6 PUSH2 0x477D JUMP JUMPDEST JUMPDEST ADD SLOAD DUP4 PUSH2 0x26F4 SWAP2 SWAP1 PUSH2 0x4526 JUMP JUMPDEST SWAP3 POP JUMPDEST PUSH1 0x1 PUSH1 0x8 DUP3 PUSH1 0x10 DUP2 LT PUSH2 0x270D JUMPI PUSH2 0x270C PUSH2 0x477D JUMP JUMPDEST JUMPDEST PUSH1 0x2 MUL ADD PUSH1 0x0 PUSH1 0x2 DUP2 LT PUSH2 0x2724 JUMPI PUSH2 0x2723 PUSH2 0x477D JUMP JUMPDEST JUMPDEST ADD SLOAD EQ ISZERO PUSH2 0x2731 JUMPI PUSH1 0x1 SWAP2 POP JUMPDEST DUP1 DUP1 PUSH2 0x273C SWAP1 PUSH2 0x4677 JUMP JUMPDEST SWAP2 POP POP PUSH2 0x2639 JUMP JUMPDEST POP DUP2 PUSH1 0x48 PUSH1 0x1 PUSH1 0x2 DUP2 LT PUSH2 0x275B JUMPI PUSH2 0x275A PUSH2 0x477D JUMP JUMPDEST JUMPDEST PUSH1 0x2 MUL ADD PUSH1 0x0 PUSH1 0x2 DUP2 LT PUSH2 0x2772 JUMPI PUSH2 0x2771 PUSH2 0x477D JUMP JUMPDEST JUMPDEST ADD DUP2 SWAP1 SSTORE POP DUP2 PUSH1 0x48 PUSH1 0x1 PUSH1 0x2 DUP2 LT PUSH2 0x278D JUMPI PUSH2 0x278C PUSH2 0x477D JUMP JUMPDEST JUMPDEST PUSH1 0x2 MUL ADD PUSH1 0x1 PUSH1 0x2 DUP2 LT PUSH2 0x27A4 JUMPI PUSH2 0x27A3 PUSH2 0x477D JUMP JUMPDEST JUMPDEST ADD DUP2 SWAP1 SSTORE POP PUSH1 0x1 DUP2 EQ ISZERO PUSH2 0x281E JUMPI PUSH1 0xA PUSH1 0x48 PUSH1 0x1 PUSH1 0x2 DUP2 LT PUSH2 0x27C9 JUMPI PUSH2 0x27C8 PUSH2 0x477D JUMP JUMPDEST JUMPDEST PUSH1 0x2 MUL ADD PUSH1 0x1 PUSH1 0x2 DUP2 LT PUSH2 0x27E0 JUMPI PUSH2 0x27DF PUSH2 0x477D JUMP JUMPDEST JUMPDEST ADD SLOAD PUSH2 0x27EC SWAP2 SWAP1 PUSH2 0x4526 JUMP JUMPDEST PUSH1 0x48 PUSH1 0x1 PUSH1 0x2 DUP2 LT PUSH2 0x2801 JUMPI PUSH2 0x2800 PUSH2 0x477D JUMP JUMPDEST JUMPDEST PUSH1 0x2 MUL ADD PUSH1 0x1 PUSH1 0x2 DUP2 LT PUSH2 0x2818 JUMPI PUSH2 0x2817 PUSH2 0x477D JUMP JUMPDEST JUMPDEST ADD DUP2 SWAP1 SSTORE POP JUMPDEST POP POP JUMP JUMPDEST PUSH1 0x0 DUP1 PUSH2 0x28A3 PUSH1 0x28 PUSH1 0x10 DUP1 PUSH1 0x20 MUL PUSH1 0x40 MLOAD SWAP1 DUP2 ADD PUSH1 0x40 MSTORE DUP1 SWAP3 SWAP2 SWAP1 PUSH1 0x0 SWAP1 JUMPDEST DUP3 DUP3 LT ISZERO PUSH2 0x289A JUMPI DUP4 DUP3 PUSH1 0x2 MUL ADD PUSH1 0x2 DUP1 PUSH1 0x20 MUL PUSH1 0x40 MLOAD SWAP1 DUP2 ADD PUSH1 0x40 MSTORE DUP1 SWAP3 SWAP2 SWAP1 DUP3 PUSH1 0x2 DUP1 ISZERO PUSH2 0x2886 JUMPI PUSH1 0x20 MUL DUP3 ADD SWAP2 JUMPDEST DUP2 SLOAD DUP2 MSTORE PUSH1 0x20 ADD SWAP1 PUSH1 0x1 ADD SWAP1 DUP1 DUP4 GT PUSH2 0x2872 JUMPI JUMPDEST POP POP POP POP POP DUP2 MSTORE PUSH1 0x20 ADD SWAP1 PUSH1 0x1 ADD SWAP1 PUSH2 0x2841 JUMP JUMPDEST POP POP POP POP PUSH2 0x3866 JUMP JUMPDEST PUSH1 0x59 DUP2 SWAP1 SSTORE POP PUSH1 0x0 PUSH1 0x1 SWAP1 POP JUMPDEST PUSH1 0x59 SLOAD DUP2 GT PUSH2 0x29BB JUMPI PUSH1 0x9 PUSH1 0x28 DUP3 PUSH1 0x10 DUP2 LT PUSH2 0x28CF JUMPI PUSH2 0x28CE PUSH2 0x477D JUMP JUMPDEST JUMPDEST PUSH1 0x2 MUL ADD PUSH1 0x0 PUSH1 0x2 DUP2 LT PUSH2 0x28E6 JUMPI PUSH2 0x28E5 PUSH2 0x477D JUMP JUMPDEST JUMPDEST ADD SLOAD GT ISZERO PUSH2 0x28FE JUMPI PUSH1 0xA DUP4 PUSH2 0x28FB SWAP2 SWAP1 PUSH2 0x4526 JUMP JUMPDEST SWAP3 POP JUMPDEST PUSH1 0xA PUSH1 0x28 DUP3 PUSH1 0x10 DUP2 LT PUSH2 0x2914 JUMPI PUSH2 0x2913 PUSH2 0x477D JUMP JUMPDEST JUMPDEST PUSH1 0x2 MUL ADD PUSH1 0x0 PUSH1 0x2 DUP2 LT PUSH2 0x292B JUMPI PUSH2 0x292A PUSH2 0x477D JUMP JUMPDEST JUMPDEST ADD SLOAD LT ISZERO PUSH2 0x296E JUMPI PUSH1 0x28 DUP2 PUSH1 0x10 DUP2 LT PUSH2 0x2947 JUMPI PUSH2 0x2946 PUSH2 0x477D JUMP JUMPDEST JUMPDEST PUSH1 0x2 MUL ADD PUSH1 0x0 PUSH1 0x2 DUP2 LT PUSH2 0x295E JUMPI PUSH2 0x295D PUSH2 0x477D JUMP JUMPDEST JUMPDEST ADD SLOAD DUP4 PUSH2 0x296B SWAP2 SWAP1 PUSH2 0x4526 JUMP JUMPDEST SWAP3 POP JUMPDEST PUSH1 0x1 PUSH1 0x28 DUP3 PUSH1 0x10 DUP2 LT PUSH2 0x2984 JUMPI PUSH2 0x2983 PUSH2 0x477D JUMP JUMPDEST JUMPDEST PUSH1 0x2 MUL ADD PUSH1 0x0 PUSH1 0x2 DUP2 LT PUSH2 0x299B JUMPI PUSH2 0x299A PUSH2 0x477D JUMP JUMPDEST JUMPDEST ADD SLOAD EQ ISZERO PUSH2 0x29A8 JUMPI PUSH1 0x1 SWAP2 POP JUMPDEST DUP1 DUP1 PUSH2 0x29B3 SWAP1 PUSH2 0x4677 JUMP JUMPDEST SWAP2 POP POP PUSH2 0x28B0 JUMP JUMPDEST POP DUP2 PUSH1 0x4C PUSH1 0x1 PUSH1 0x2 DUP2 LT PUSH2 0x29D2 JUMPI PUSH2 0x29D1 PUSH2 0x477D JUMP JUMPDEST JUMPDEST PUSH1 0x2 MUL ADD PUSH1 0x0 PUSH1 0x2 DUP2 LT PUSH2 0x29E9 JUMPI PUSH2 0x29E8 PUSH2 0x477D JUMP JUMPDEST JUMPDEST ADD DUP2 SWAP1 SSTORE POP DUP2 PUSH1 0x4C PUSH1 0x1 PUSH1 0x2 DUP2 LT PUSH2 0x2A04 JUMPI PUSH2 0x2A03 PUSH2 0x477D JUMP JUMPDEST JUMPDEST PUSH1 0x2 MUL ADD PUSH1 0x1 PUSH1 0x2 DUP2 LT PUSH2 0x2A1B JUMPI PUSH2 0x2A1A PUSH2 0x477D JUMP JUMPDEST JUMPDEST ADD DUP2 SWAP1 SSTORE POP PUSH1 0x1 DUP2 EQ ISZERO PUSH2 0x2A95 JUMPI PUSH1 0xA PUSH1 0x4C PUSH1 0x1 PUSH1 0x2 DUP2 LT PUSH2 0x2A40 JUMPI PUSH2 0x2A3F PUSH2 0x477D JUMP JUMPDEST JUMPDEST PUSH1 0x2 MUL ADD PUSH1 0x1 PUSH1 0x2 DUP2 LT PUSH2 0x2A57 JUMPI PUSH2 0x2A56 PUSH2 0x477D JUMP JUMPDEST JUMPDEST ADD SLOAD PUSH2 0x2A63 SWAP2 SWAP1 PUSH2 0x4526 JUMP JUMPDEST PUSH1 0x4C PUSH1 0x1 PUSH1 0x2 DUP2 LT PUSH2 0x2A78 JUMPI PUSH2 0x2A77 PUSH2 0x477D JUMP JUMPDEST JUMPDEST PUSH1 0x2 MUL ADD PUSH1 0x1 PUSH1 0x2 DUP2 LT PUSH2 0x2A8F JUMPI PUSH2 0x2A8E PUSH2 0x477D JUMP JUMPDEST JUMPDEST ADD DUP2 SWAP1 SSTORE POP JUMPDEST POP POP JUMP JUMPDEST PUSH1 0x15 PUSH1 0x4C PUSH1 0x1 PUSH1 0x2 DUP2 LT PUSH2 0x2AB0 JUMPI PUSH2 0x2AAF PUSH2 0x477D JUMP JUMPDEST JUMPDEST PUSH1 0x2 MUL ADD PUSH1 0x0 PUSH1 0x2 DUP2 LT PUSH2 0x2AC7 JUMPI PUSH2 0x2AC6 PUSH2 0x477D JUMP JUMPDEST JUMPDEST ADD SLOAD GT ISZERO DUP1 ISZERO PUSH2 0x2B04 JUMPI POP PUSH1 0x15 PUSH1 0x4C PUSH1 0x1 PUSH1 0x2 DUP2 LT PUSH2 0x2AE9 JUMPI PUSH2 0x2AE8 PUSH2 0x477D JUMP JUMPDEST JUMPDEST PUSH1 0x2 MUL ADD PUSH1 0x1 PUSH1 0x2 DUP2 LT PUSH2 0x2B00 JUMPI PUSH2 0x2AFF PUSH2 0x477D JUMP JUMPDEST JUMPDEST ADD SLOAD GT JUMPDEST ISZERO PUSH2 0x2B3E JUMPI PUSH1 0x4C PUSH1 0x1 PUSH1 0x2 DUP2 LT PUSH2 0x2B1E JUMPI PUSH2 0x2B1D PUSH2 0x477D JUMP JUMPDEST JUMPDEST PUSH1 0x2 MUL ADD PUSH1 0x0 PUSH1 0x2 DUP2 LT PUSH2 0x2B35 JUMPI PUSH2 0x2B34 PUSH2 0x477D JUMP JUMPDEST JUMPDEST ADD SLOAD PUSH1 0x5D DUP2 SWAP1 SSTORE POP JUMPDEST PUSH1 0x15 PUSH1 0x4C PUSH1 0x1 PUSH1 0x2 DUP2 LT PUSH2 0x2B55 JUMPI PUSH2 0x2B54 PUSH2 0x477D JUMP JUMPDEST JUMPDEST PUSH1 0x2 MUL ADD PUSH1 0x0 PUSH1 0x2 DUP2 LT PUSH2 0x2B6C JUMPI PUSH2 0x2B6B PUSH2 0x477D JUMP JUMPDEST JUMPDEST ADD SLOAD GT DUP1 ISZERO PUSH2 0x2BA9 JUMPI POP PUSH1 0x15 PUSH1 0x48 PUSH1 0x1 PUSH1 0x2 DUP2 LT PUSH2 0x2B8D JUMPI PUSH2 0x2B8C PUSH2 0x477D JUMP JUMPDEST JUMPDEST PUSH1 0x2 MUL ADD PUSH1 0x1 PUSH1 0x2 DUP2 LT PUSH2 0x2BA4 JUMPI PUSH2 0x2BA3 PUSH2 0x477D JUMP JUMPDEST JUMPDEST ADD SLOAD GT ISZERO JUMPDEST ISZERO PUSH2 0x2BE3 JUMPI PUSH1 0x4C PUSH1 0x1 PUSH1 0x2 DUP2 LT PUSH2 0x2BC3 JUMPI PUSH2 0x2BC2 PUSH2 0x477D JUMP JUMPDEST JUMPDEST PUSH1 0x2 MUL ADD PUSH1 0x1 PUSH1 0x2 DUP2 LT PUSH2 0x2BDA JUMPI PUSH2 0x2BD9 PUSH2 0x477D JUMP JUMPDEST JUMPDEST ADD SLOAD PUSH1 0x5D DUP2 SWAP1 SSTORE POP JUMPDEST PUSH1 0x15 PUSH1 0x4C PUSH1 0x1 PUSH1 0x2 DUP2 LT PUSH2 0x2BFA JUMPI PUSH2 0x2BF9 PUSH2 0x477D JUMP JUMPDEST JUMPDEST PUSH1 0x2 MUL ADD PUSH1 0x0 PUSH1 0x2 DUP2 LT PUSH2 0x2C11 JUMPI PUSH2 0x2C10 PUSH2 0x477D JUMP JUMPDEST JUMPDEST ADD SLOAD GT ISZERO DUP1 ISZERO PUSH2 0x2C4F JUMPI POP PUSH1 0x15 PUSH1 0x4C PUSH1 0x1 PUSH1 0x2 DUP2 LT PUSH2 0x2C33 JUMPI PUSH2 0x2C32 PUSH2 0x477D JUMP JUMPDEST JUMPDEST PUSH1 0x2 MUL ADD PUSH1 0x1 PUSH1 0x2 DUP2 LT PUSH2 0x2C4A JUMPI PUSH2 0x2C49 PUSH2 0x477D JUMP JUMPDEST JUMPDEST ADD SLOAD GT ISZERO JUMPDEST ISZERO PUSH2 0x2D82 JUMPI PUSH1 0x4C PUSH1 0x1 PUSH1 0x2 DUP2 LT PUSH2 0x2C69 JUMPI PUSH2 0x2C68 PUSH2 0x477D JUMP JUMPDEST JUMPDEST PUSH1 0x2 MUL ADD PUSH1 0x1 PUSH1 0x2 DUP2 LT PUSH2 0x2C80 JUMPI PUSH2 0x2C7F PUSH2 0x477D JUMP JUMPDEST JUMPDEST ADD SLOAD PUSH1 0x4C PUSH1 0x1 PUSH1 0x2 DUP2 LT PUSH2 0x2C97 JUMPI PUSH2 0x2C96 PUSH2 0x477D JUMP JUMPDEST JUMPDEST PUSH1 0x2 MUL ADD PUSH1 0x0 PUSH1 0x2 DUP2 LT PUSH2 0x2CAE JUMPI PUSH2 0x2CAD PUSH2 0x477D JUMP JUMPDEST JUMPDEST ADD SLOAD GT ISZERO PUSH2 0x2CEB JUMPI PUSH1 0x4C PUSH1 0x1 PUSH1 0x2 DUP2 LT PUSH2 0x2CCB JUMPI PUSH2 0x2CCA PUSH2 0x477D JUMP JUMPDEST JUMPDEST PUSH1 0x2 MUL ADD PUSH1 0x0 PUSH1 0x2 DUP2 LT PUSH2 0x2CE2 JUMPI PUSH2 0x2CE1 PUSH2 0x477D JUMP JUMPDEST JUMPDEST ADD SLOAD PUSH1 0x5D DUP2 SWAP1 SSTORE POP JUMPDEST PUSH1 0x4C PUSH1 0x1 PUSH1 0x2 DUP2 LT PUSH2 0x2D00 JUMPI PUSH2 0x2CFF PUSH2 0x477D JUMP JUMPDEST JUMPDEST PUSH1 0x2 MUL ADD PUSH1 0x1 PUSH1 0x2 DUP2 LT PUSH2 0x2D17 JUMPI PUSH2 0x2D16 PUSH2 0x477D JUMP JUMPDEST JUMPDEST ADD SLOAD PUSH1 0x4C PUSH1 0x1 PUSH1 0x2 DUP2 LT PUSH2 0x2D2E JUMPI PUSH2 0x2D2D PUSH2 0x477D JUMP JUMPDEST JUMPDEST PUSH1 0x2 MUL ADD PUSH1 0x0 PUSH1 0x2 DUP2 LT PUSH2 0x2D45 JUMPI PUSH2 0x2D44 PUSH2 0x477D JUMP JUMPDEST JUMPDEST ADD SLOAD GT PUSH2 0x2D81 JUMPI PUSH1 0x4C PUSH1 0x1 PUSH1 0x2 DUP2 LT PUSH2 0x2D61 JUMPI PUSH2 0x2D60 PUSH2 0x477D JUMP JUMPDEST JUMPDEST PUSH1 0x2 MUL ADD PUSH1 0x1 PUSH1 0x2 DUP2 LT PUSH2 0x2D78 JUMPI PUSH2 0x2D77 PUSH2 0x477D JUMP JUMPDEST JUMPDEST ADD SLOAD PUSH1 0x5D DUP2 SWAP1 SSTORE POP JUMPDEST JUMPDEST PUSH1 0x10 PUSH1 0x4C PUSH1 0x1 PUSH1 0x2 DUP2 LT PUSH2 0x2D99 JUMPI PUSH2 0x2D98 PUSH2 0x477D JUMP JUMPDEST JUMPDEST PUSH1 0x2 MUL ADD PUSH1 0x0 PUSH1 0x2 DUP2 LT PUSH2 0x2DB0 JUMPI PUSH2 0x2DAF PUSH2 0x477D JUMP JUMPDEST JUMPDEST ADD SLOAD GT DUP1 PUSH2 0x2DEB JUMPI POP PUSH1 0x10 PUSH1 0x4C PUSH1 0x1 PUSH1 0x2 DUP2 LT PUSH2 0x2DD0 JUMPI PUSH2 0x2DCF PUSH2 0x477D JUMP JUMPDEST JUMPDEST PUSH1 0x2 MUL ADD PUSH1 0x1 PUSH1 0x2 DUP2 LT PUSH2 0x2DE7 JUMPI PUSH2 0x2DE6 PUSH2 0x477D JUMP JUMPDEST JUMPDEST ADD SLOAD GT JUMPDEST ISZERO PUSH2 0x301B JUMPI PUSH1 0x15 PUSH1 0x4C PUSH1 0x1 PUSH1 0x2 DUP2 LT PUSH2 0x2E07 JUMPI PUSH2 0x2E06 PUSH2 0x477D JUMP JUMPDEST JUMPDEST PUSH1 0x2 MUL ADD PUSH1 0x0 PUSH1 0x2 DUP2 LT PUSH2 0x2E1E JUMPI PUSH2 0x2E1D PUSH2 0x477D JUMP JUMPDEST JUMPDEST ADD SLOAD GT DUP1 ISZERO PUSH2 0x2E5A JUMPI POP PUSH1 0x15 PUSH1 0x4C PUSH1 0x1 PUSH1 0x2 DUP2 LT PUSH2 0x2E3F JUMPI PUSH2 0x2E3E PUSH2 0x477D JUMP JUMPDEST JUMPDEST PUSH1 0x2 MUL ADD PUSH1 0x1 PUSH1 0x2 DUP2 LT PUSH2 0x2E56 JUMPI PUSH2 0x2E55 PUSH2 0x477D JUMP JUMPDEST JUMPDEST ADD SLOAD GT JUMPDEST ISZERO PUSH2 0x2FF7 JUMPI PUSH1 0x1 PUSH1 0x5B DUP2 SWAP1 SSTORE POP PUSH1 0x0 PUSH1 0x1 DUP2 SWAP1 SSTORE POP PUSH1 0x4C PUSH1 0x1 PUSH1 0x2 DUP2 LT PUSH2 0x2E84 JUMPI PUSH2 0x2E83 PUSH2 0x477D JUMP JUMPDEST JUMPDEST PUSH1 0x2 MUL ADD PUSH1 0x1 PUSH1 0x2 DUP2 LT PUSH2 0x2E9B JUMPI PUSH2 0x2E9A PUSH2 0x477D JUMP JUMPDEST JUMPDEST ADD SLOAD PUSH1 0x4C PUSH1 0x1 PUSH1 0x2 DUP2 LT PUSH2 0x2EB2 JUMPI PUSH2 0x2EB1 PUSH2 0x477D JUMP JUMPDEST JUMPDEST PUSH1 0x2 MUL ADD PUSH1 0x0 PUSH1 0x2 DUP2 LT PUSH2 0x2EC9 JUMPI PUSH2 0x2EC8 PUSH2 0x477D JUMP JUMPDEST JUMPDEST ADD SLOAD GT PUSH2 0x2F05 JUMPI PUSH1 0x4C PUSH1 0x1 PUSH1 0x2 DUP2 LT PUSH2 0x2EE5 JUMPI PUSH2 0x2EE4 PUSH2 0x477D JUMP JUMPDEST JUMPDEST PUSH1 0x2 MUL ADD PUSH1 0x0 PUSH1 0x2 DUP2 LT PUSH2 0x2EFC JUMPI PUSH2 0x2EFB PUSH2 0x477D JUMP JUMPDEST JUMPDEST ADD SLOAD PUSH1 0x5D DUP2 SWAP1 SSTORE POP JUMPDEST PUSH1 0x4C PUSH1 0x1 PUSH1 0x2 DUP2 LT PUSH2 0x2F1A JUMPI PUSH2 0x2F19 PUSH2 0x477D JUMP JUMPDEST JUMPDEST PUSH1 0x2 MUL ADD PUSH1 0x1 PUSH1 0x2 DUP2 LT PUSH2 0x2F31 JUMPI PUSH2 0x2F30 PUSH2 0x477D JUMP JUMPDEST JUMPDEST ADD SLOAD PUSH1 0x4C PUSH1 0x1 PUSH1 0x2 DUP2 LT PUSH2 0x2F48 JUMPI PUSH2 0x2F47 PUSH2 0x477D JUMP JUMPDEST JUMPDEST PUSH1 0x2 MUL ADD PUSH1 0x0 PUSH1 0x2 DUP2 LT PUSH2 0x2F5F JUMPI PUSH2 0x2F5E PUSH2 0x477D JUMP JUMPDEST JUMPDEST ADD SLOAD GT ISZERO PUSH2 0x2F9C JUMPI PUSH1 0x4C PUSH1 0x1 PUSH1 0x2 DUP2 LT PUSH2 0x2F7C JUMPI PUSH2 0x2F7B PUSH2 0x477D JUMP JUMPDEST JUMPDEST PUSH1 0x2 MUL ADD PUSH1 0x1 PUSH1 0x2 DUP2 LT PUSH2 0x2F93 JUMPI PUSH2 0x2F92 PUSH2 0x477D JUMP JUMPDEST JUMPDEST ADD SLOAD PUSH1 0x5D DUP2 SWAP1 SSTORE POP JUMPDEST PUSH1 0x0 PUSH1 0x5A SLOAD EQ DUP1 ISZERO PUSH2 0x2FB0 JUMPI POP PUSH1 0x1 PUSH1 0x5E SLOAD EQ JUMPDEST ISZERO PUSH2 0x2FF6 JUMPI PUSH1 0x2 PUSH1 0x4 SLOAD PUSH2 0x2FC4 SWAP2 SWAP1 PUSH2 0x45AD JUMP JUMPDEST PUSH1 0x3 SLOAD PUSH2 0x2FD1 SWAP2 SWAP1 PUSH2 0x4526 JUMP JUMPDEST PUSH1 0x3 DUP2 SWAP1 SSTORE POP PUSH1 0x4 SLOAD PUSH1 0x2 SLOAD PUSH2 0x2FE7 SWAP2 SWAP1 PUSH2 0x4607 JUMP JUMPDEST PUSH1 0x2 DUP2 SWAP1 SSTORE POP PUSH1 0x0 PUSH1 0x4 DUP2 SWAP1 SSTORE POP JUMPDEST JUMPDEST PUSH1 0x1 PUSH1 0x5B SLOAD EQ PUSH2 0x301A JUMPI PUSH1 0x0 PUSH1 0x1 DUP2 SWAP1 SSTORE POP PUSH1 0x1 PUSH1 0x5F DUP2 SWAP1 SSTORE POP PUSH2 0x3019 PUSH2 0x3C17 JUMP JUMPDEST JUMPDEST JUMPDEST JUMP JUMPDEST PUSH1 0x15 PUSH1 0x48 PUSH1 0x1 PUSH1 0x2 DUP2 LT PUSH2 0x3034 JUMPI PUSH2 0x3033 PUSH2 0x477D JUMP JUMPDEST JUMPDEST PUSH1 0x2 MUL ADD PUSH1 0x0 PUSH1 0x2 DUP2 LT PUSH2 0x304B JUMPI PUSH2 0x304A PUSH2 0x477D JUMP JUMPDEST JUMPDEST ADD SLOAD GT DUP1 ISZERO PUSH2 0x3087 JUMPI POP PUSH1 0x15 PUSH1 0x48 PUSH1 0x1 PUSH1 0x2 DUP2 LT PUSH2 0x306C JUMPI PUSH2 0x306B PUSH2 0x477D JUMP JUMPDEST JUMPDEST PUSH1 0x2 MUL ADD PUSH1 0x1 PUSH1 0x2 DUP2 LT PUSH2 0x3083 JUMPI PUSH2 0x3082 PUSH2 0x477D JUMP JUMPDEST JUMPDEST ADD SLOAD GT JUMPDEST ISZERO PUSH2 0x31E8 JUMPI PUSH1 0x1 PUSH1 0x5A DUP2 SWAP1 SSTORE POP PUSH1 0x0 PUSH1 0x1 DUP2 SWAP1 SSTORE POP PUSH1 0x48 PUSH1 0x1 PUSH1 0x2 DUP2 LT PUSH2 0x30B1 JUMPI PUSH2 0x30B0 PUSH2 0x477D JUMP JUMPDEST JUMPDEST PUSH1 0x2 MUL ADD PUSH1 0x1 PUSH1 0x2 DUP2 LT PUSH2 0x30C8 JUMPI PUSH2 0x30C7 PUSH2 0x477D JUMP JUMPDEST JUMPDEST ADD SLOAD PUSH1 0x48 PUSH1 0x1 PUSH1 0x2 DUP2 LT PUSH2 0x30DF JUMPI PUSH2 0x30DE PUSH2 0x477D JUMP JUMPDEST JUMPDEST PUSH1 0x2 MUL ADD PUSH1 0x0 PUSH1 0x2 DUP2 LT PUSH2 0x30F6 JUMPI PUSH2 0x30F5 PUSH2 0x477D JUMP JUMPDEST JUMPDEST ADD SLOAD GT PUSH2 0x3132 JUMPI PUSH1 0x48 PUSH1 0x1 PUSH1 0x2 DUP2 LT PUSH2 0x3112 JUMPI PUSH2 0x3111 PUSH2 0x477D JUMP JUMPDEST JUMPDEST PUSH1 0x2 MUL ADD PUSH1 0x0 PUSH1 0x2 DUP2 LT PUSH2 0x3129 JUMPI PUSH2 0x3128 PUSH2 0x477D JUMP JUMPDEST JUMPDEST ADD SLOAD PUSH1 0x5C DUP2 SWAP1 SSTORE POP JUMPDEST PUSH1 0x48 PUSH1 0x1 PUSH1 0x2 DUP2 LT PUSH2 0x3147 JUMPI PUSH2 0x3146 PUSH2 0x477D JUMP JUMPDEST JUMPDEST PUSH1 0x2 MUL ADD PUSH1 0x1 PUSH1 0x2 DUP2 LT PUSH2 0x315E JUMPI PUSH2 0x315D PUSH2 0x477D JUMP JUMPDEST JUMPDEST ADD SLOAD PUSH1 0x48 PUSH1 0x1 PUSH1 0x2 DUP2 LT PUSH2 0x3175 JUMPI PUSH2 0x3174 PUSH2 0x477D JUMP JUMPDEST JUMPDEST PUSH1 0x2 MUL ADD PUSH1 0x0 PUSH1 0x2 DUP2 LT PUSH2 0x318C JUMPI PUSH2 0x318B PUSH2 0x477D JUMP JUMPDEST JUMPDEST ADD SLOAD GT ISZERO PUSH2 0x31C9 JUMPI PUSH1 0x48 PUSH1 0x1 PUSH1 0x2 DUP2 LT PUSH2 0x31A9 JUMPI PUSH2 0x31A8 PUSH2 0x477D JUMP JUMPDEST JUMPDEST PUSH1 0x2 MUL ADD PUSH1 0x1 PUSH1 0x2 DUP2 LT PUSH2 0x31C0 JUMPI PUSH2 0x31BF PUSH2 0x477D JUMP JUMPDEST JUMPDEST ADD SLOAD PUSH1 0x5C DUP2 SWAP1 SSTORE POP JUMPDEST PUSH1 0x4 SLOAD PUSH1 0x2 SLOAD PUSH2 0x31D9 SWAP2 SWAP1 PUSH2 0x4526 JUMP JUMPDEST PUSH1 0x2 DUP2 SWAP1 SSTORE POP PUSH1 0x0 PUSH1 0x4 DUP2 SWAP1 SSTORE POP JUMPDEST PUSH1 0x15 PUSH1 0x48 PUSH1 0x1 PUSH1 0x2 DUP2 LT PUSH2 0x31FF JUMPI PUSH2 0x31FE PUSH2 0x477D JUMP JUMPDEST JUMPDEST PUSH1 0x2 MUL ADD PUSH1 0x0 PUSH1 0x2 DUP2 LT PUSH2 0x3216 JUMPI PUSH2 0x3215 PUSH2 0x477D JUMP JUMPDEST JUMPDEST ADD SLOAD GT ISZERO DUP1 ISZERO PUSH2 0x3253 JUMPI POP PUSH1 0x15 PUSH1 0x48 PUSH1 0x1 PUSH1 0x2 DUP2 LT PUSH2 0x3238 JUMPI PUSH2 0x3237 PUSH2 0x477D JUMP JUMPDEST JUMPDEST PUSH1 0x2 MUL ADD PUSH1 0x1 PUSH1 0x2 DUP2 LT PUSH2 0x324F JUMPI PUSH2 0x324E PUSH2 0x477D JUMP JUMPDEST JUMPDEST ADD SLOAD GT JUMPDEST ISZERO PUSH2 0x328D JUMPI PUSH1 0x48 PUSH1 0x1 PUSH1 0x2 DUP2 LT PUSH2 0x326D JUMPI PUSH2 0x326C PUSH2 0x477D JUMP JUMPDEST JUMPDEST PUSH1 0x2 MUL ADD PUSH1 0x0 PUSH1 0x2 DUP2 LT PUSH2 0x3284 JUMPI PUSH2 0x3283 PUSH2 0x477D JUMP JUMPDEST JUMPDEST ADD SLOAD PUSH1 0x5C DUP2 SWAP1 SSTORE POP JUMPDEST PUSH1 0x15 PUSH1 0x48 PUSH1 0x1 PUSH1 0x2 DUP2 LT PUSH2 0x32A4 JUMPI PUSH2 0x32A3 PUSH2 0x477D JUMP JUMPDEST JUMPDEST PUSH1 0x2 MUL ADD PUSH1 0x0 PUSH1 0x2 DUP2 LT PUSH2 0x32BB JUMPI PUSH2 0x32BA PUSH2 0x477D JUMP JUMPDEST JUMPDEST ADD SLOAD GT DUP1 ISZERO PUSH2 0x32F8 JUMPI POP PUSH1 0x15 PUSH1 0x48 PUSH1 0x1 PUSH1 0x2 DUP2 LT PUSH2 0x32DC JUMPI PUSH2 0x32DB PUSH2 0x477D JUMP JUMPDEST JUMPDEST PUSH1 0x2 MUL ADD PUSH1 0x1 PUSH1 0x2 DUP2 LT PUSH2 0x32F3 JUMPI PUSH2 0x32F2 PUSH2 0x477D JUMP JUMPDEST JUMPDEST ADD SLOAD GT ISZERO JUMPDEST ISZERO PUSH2 0x3332 JUMPI PUSH1 0x48 PUSH1 0x1 PUSH1 0x2 DUP2 LT PUSH2 0x3312 JUMPI PUSH2 0x3311 PUSH2 0x477D JUMP JUMPDEST JUMPDEST PUSH1 0x2 MUL ADD PUSH1 0x1 PUSH1 0x2 DUP2 LT PUSH2 0x3329 JUMPI PUSH2 0x3328 PUSH2 0x477D JUMP JUMPDEST JUMPDEST ADD SLOAD PUSH1 0x5C DUP2 SWAP1 SSTORE POP JUMPDEST PUSH1 0x15 PUSH1 0x48 PUSH1 0x1 PUSH1 0x2 DUP2 LT PUSH2 0x3349 JUMPI PUSH2 0x3348 PUSH2 0x477D JUMP JUMPDEST JUMPDEST PUSH1 0x2 MUL ADD PUSH1 0x0 PUSH1 0x2 DUP2 LT PUSH2 0x3360 JUMPI PUSH2 0x335F PUSH2 0x477D JUMP JUMPDEST JUMPDEST ADD SLOAD GT ISZERO DUP1 ISZERO PUSH2 0x339E JUMPI POP PUSH1 0x15 PUSH1 0x48 PUSH1 0x1 PUSH1 0x2 DUP2 LT PUSH2 0x3382 JUMPI PUSH2 0x3381 PUSH2 0x477D JUMP JUMPDEST JUMPDEST PUSH1 0x2 MUL ADD PUSH1 0x1 PUSH1 0x2 DUP2 LT PUSH2 0x3399 JUMPI PUSH2 0x3398 PUSH2 0x477D JUMP JUMPDEST JUMPDEST ADD SLOAD GT ISZERO JUMPDEST ISZERO PUSH2 0x34D1 JUMPI PUSH1 0x48 PUSH1 0x1 PUSH1 0x2 DUP2 LT PUSH2 0x33B8 JUMPI PUSH2 0x33B7 PUSH2 0x477D JUMP JUMPDEST JUMPDEST PUSH1 0x2 MUL ADD PUSH1 0x1 PUSH1 0x2 DUP2 LT PUSH2 0x33CF JUMPI PUSH2 0x33CE PUSH2 0x477D JUMP JUMPDEST JUMPDEST ADD SLOAD PUSH1 0x48 PUSH1 0x1 PUSH1 0x2 DUP2 LT PUSH2 0x33E6 JUMPI PUSH2 0x33E5 PUSH2 0x477D JUMP JUMPDEST JUMPDEST PUSH1 0x2 MUL ADD PUSH1 0x0 PUSH1 0x2 DUP2 LT PUSH2 0x33FD JUMPI PUSH2 0x33FC PUSH2 0x477D JUMP JUMPDEST JUMPDEST ADD SLOAD GT ISZERO PUSH2 0x343A JUMPI PUSH1 0x48 PUSH1 0x1 PUSH1 0x2 DUP2 LT PUSH2 0x341A JUMPI PUSH2 0x3419 PUSH2 0x477D JUMP JUMPDEST JUMPDEST PUSH1 0x2 MUL ADD PUSH1 0x0 PUSH1 0x2 DUP2 LT PUSH2 0x3431 JUMPI PUSH2 0x3430 PUSH2 0x477D JUMP JUMPDEST JUMPDEST ADD SLOAD PUSH1 0x5C DUP2 SWAP1 SSTORE POP JUMPDEST PUSH1 0x48 PUSH1 0x1 PUSH1 0x2 DUP2 LT PUSH2 0x344F JUMPI PUSH2 0x344E PUSH2 0x477D JUMP JUMPDEST JUMPDEST PUSH1 0x2 MUL ADD PUSH1 0x1 PUSH1 0x2 DUP2 LT PUSH2 0x3466 JUMPI PUSH2 0x3465 PUSH2 0x477D JUMP JUMPDEST JUMPDEST ADD SLOAD PUSH1 0x48 PUSH1 0x1 PUSH1 0x2 DUP2 LT PUSH2 0x347D JUMPI PUSH2 0x347C PUSH2 0x477D JUMP JUMPDEST JUMPDEST PUSH1 0x2 MUL ADD PUSH1 0x0 PUSH1 0x2 DUP2 LT PUSH2 0x3494 JUMPI PUSH2 0x3493 PUSH2 0x477D JUMP JUMPDEST JUMPDEST ADD SLOAD GT PUSH2 0x34D0 JUMPI PUSH1 0x48 PUSH1 0x1 PUSH1 0x2 DUP2 LT PUSH2 0x34B0 JUMPI PUSH2 0x34AF PUSH2 0x477D JUMP JUMPDEST JUMPDEST PUSH1 0x2 MUL ADD PUSH1 0x1 PUSH1 0x2 DUP2 LT PUSH2 0x34C7 JUMPI PUSH2 0x34C6 PUSH2 0x477D JUMP JUMPDEST JUMPDEST ADD SLOAD PUSH1 0x5C DUP2 SWAP1 SSTORE POP JUMPDEST JUMPDEST JUMP JUMPDEST PUSH1 0x1 PUSH1 0x28 PUSH1 0x1 PUSH1 0x10 DUP2 LT PUSH2 0x34EA JUMPI PUSH2 0x34E9 PUSH2 0x477D JUMP JUMPDEST JUMPDEST PUSH1 0x2 MUL ADD PUSH1 0x0 PUSH1 0x2 DUP2 LT PUSH2 0x3501 JUMPI PUSH2 0x3500 PUSH2 0x477D JUMP JUMPDEST JUMPDEST ADD SLOAD EQ DUP1 PUSH2 0x353C JUMPI POP PUSH1 0xA PUSH1 0x4C PUSH1 0x1 PUSH1 0x2 DUP2 LT PUSH2 0x3521 JUMPI PUSH2 0x3520 PUSH2 0x477D JUMP JUMPDEST JUMPDEST PUSH1 0x2 MUL ADD PUSH1 0x0 PUSH1 0x2 DUP2 LT PUSH2 0x3538 JUMPI PUSH2 0x3537 PUSH2 0x477D JUMP JUMPDEST JUMPDEST ADD SLOAD EQ JUMPDEST ISZERO PUSH2 0x3864 JUMPI PUSH2 0x354B PUSH1 0x1 PUSH2 0x1DB5 JUMP JUMPDEST PUSH1 0x0 PUSH1 0x1 SWAP1 POP JUMPDEST PUSH1 0x1 DUP2 GT PUSH2 0x3706 JUMPI JUMPDEST PUSH1 0x50 PUSH1 0x1 PUSH1 0x4 DUP2 LT PUSH2 0x3570 JUMPI PUSH2 0x356F PUSH2 0x477D JUMP JUMPDEST JUMPDEST PUSH1 0x2 MUL ADD PUSH1 0x0 PUSH1 0x2 DUP2 LT PUSH2 0x3587 JUMPI PUSH2 0x3586 PUSH2 0x477D JUMP JUMPDEST JUMPDEST ADD SLOAD PUSH1 0x8 DUP3 PUSH1 0x10 DUP2 LT PUSH2 0x359D JUMPI PUSH2 0x359C PUSH2 0x477D JUMP JUMPDEST JUMPDEST PUSH1 0x2 MUL ADD PUSH1 0x0 PUSH1 0x2 DUP2 LT PUSH2 0x35B4 JUMPI PUSH2 0x35B3 PUSH2 0x477D JUMP JUMPDEST JUMPDEST ADD SLOAD EQ DUP1 PUSH2 0x361A JUMPI POP PUSH1 0x50 PUSH1 0x1 PUSH1 0x4 DUP2 LT PUSH2 0x35D2 JUMPI PUSH2 0x35D1 PUSH2 0x477D JUMP JUMPDEST JUMPDEST PUSH1 0x2 MUL ADD PUSH1 0x0 PUSH1 0x2 DUP2 LT PUSH2 0x35E9 JUMPI PUSH2 0x35E8 PUSH2 0x477D JUMP JUMPDEST JUMPDEST ADD SLOAD PUSH1 0x28 DUP3 PUSH1 0x10 DUP2 LT PUSH2 0x35FF JUMPI PUSH2 0x35FE PUSH2 0x477D JUMP JUMPDEST JUMPDEST PUSH1 0x2 MUL ADD PUSH1 0x0 PUSH1 0x2 DUP2 LT PUSH2 0x3616 JUMPI PUSH2 0x3615 PUSH2 0x477D JUMP JUMPDEST JUMPDEST ADD SLOAD EQ JUMPDEST ISZERO PUSH2 0x36F3 JUMPI PUSH1 0x50 PUSH1 0x1 PUSH1 0x4 DUP2 LT PUSH2 0x3634 JUMPI PUSH2 0x3633 PUSH2 0x477D JUMP JUMPDEST JUMPDEST PUSH1 0x2 MUL ADD PUSH1 0x1 PUSH1 0x2 DUP2 LT PUSH2 0x364B JUMPI PUSH2 0x364A PUSH2 0x477D JUMP JUMPDEST JUMPDEST ADD SLOAD PUSH1 0x8 DUP3 PUSH1 0x10 DUP2 LT PUSH2 0x3661 JUMPI PUSH2 0x3660 PUSH2 0x477D JUMP JUMPDEST JUMPDEST PUSH1 0x2 MUL ADD PUSH1 0x1 PUSH1 0x2 DUP2 LT PUSH2 0x3678 JUMPI PUSH2 0x3677 PUSH2 0x477D JUMP JUMPDEST JUMPDEST ADD SLOAD EQ DUP1 PUSH2 0x36DE JUMPI POP PUSH1 0x50 PUSH1 0x1 PUSH1 0x4 DUP2 LT PUSH2 0x3696 JUMPI PUSH2 0x3695 PUSH2 0x477D JUMP JUMPDEST JUMPDEST PUSH1 0x2 MUL ADD PUSH1 0x1 PUSH1 0x2 DUP2 LT PUSH2 0x36AD JUMPI PUSH2 0x36AC PUSH2 0x477D JUMP JUMPDEST JUMPDEST ADD SLOAD PUSH1 0x28 DUP3 PUSH1 0x10 DUP2 LT PUSH2 0x36C3 JUMPI PUSH2 0x36C2 PUSH2 0x477D JUMP JUMPDEST JUMPDEST PUSH1 0x2 MUL ADD PUSH1 0x1 PUSH1 0x2 DUP2 LT PUSH2 0x36DA JUMPI PUSH2 0x36D9 PUSH2 0x477D JUMP JUMPDEST JUMPDEST ADD SLOAD EQ JUMPDEST ISZERO PUSH2 0x36EE JUMPI PUSH2 0x36ED PUSH1 0x1 PUSH2 0x1DB5 JUMP JUMPDEST JUMPDEST PUSH2 0x355B JUMP JUMPDEST DUP1 DUP1 PUSH2 0x36FE SWAP1 PUSH2 0x4677 JUMP JUMPDEST SWAP2 POP POP PUSH2 0x3552 JUMP JUMPDEST POP PUSH2 0x376D PUSH1 0x50 PUSH1 0x1 PUSH1 0x4 DUP2 LT PUSH2 0x371F JUMPI PUSH2 0x371E PUSH2 0x477D JUMP JUMPDEST JUMPDEST PUSH1 0x2 MUL ADD PUSH1 0x0 PUSH1 0x2 DUP2 LT PUSH2 0x3736 JUMPI PUSH2 0x3735 PUSH2 0x477D JUMP JUMPDEST JUMPDEST ADD SLOAD PUSH1 0x50 PUSH1 0x1 PUSH1 0x4 DUP2 LT PUSH2 0x374D JUMPI PUSH2 0x374C PUSH2 0x477D JUMP JUMPDEST JUMPDEST PUSH1 0x2 MUL ADD PUSH1 0x1 PUSH1 0x2 DUP2 LT PUSH2 0x3764 JUMPI PUSH2 0x3763 PUSH2 0x477D JUMP JUMPDEST JUMPDEST ADD SLOAD PUSH1 0x2 PUSH2 0x24C0 JUMP JUMPDEST PUSH2 0x3775 PUSH2 0x2822 JUMP JUMPDEST PUSH2 0x377D PUSH2 0x2A99 JUMP JUMPDEST PUSH1 0x15 PUSH1 0x4C PUSH1 0x1 PUSH1 0x2 DUP2 LT PUSH2 0x3794 JUMPI PUSH2 0x3793 PUSH2 0x477D JUMP JUMPDEST JUMPDEST PUSH1 0x2 MUL ADD PUSH1 0x1 PUSH1 0x2 DUP2 LT PUSH2 0x37AB JUMPI PUSH2 0x37AA PUSH2 0x477D JUMP JUMPDEST JUMPDEST ADD SLOAD EQ ISZERO PUSH2 0x37BC JUMPI PUSH2 0x37BB PUSH2 0x3CA6 JUMP JUMPDEST JUMPDEST PUSH1 0x15 PUSH1 0x4C PUSH1 0x1 PUSH1 0x2 DUP2 LT PUSH2 0x37D3 JUMPI PUSH2 0x37D2 PUSH2 0x477D JUMP JUMPDEST JUMPDEST PUSH1 0x2 MUL ADD PUSH1 0x1 PUSH1 0x2 DUP2 LT PUSH2 0x37EA JUMPI PUSH2 0x37E9 PUSH2 0x477D JUMP JUMPDEST JUMPDEST ADD SLOAD EQ PUSH2 0x3863 JUMPI PUSH1 0x2 PUSH1 0x3 PUSH1 0x4 SLOAD PUSH2 0x3802 SWAP2 SWAP1 PUSH2 0x45AD JUMP JUMPDEST PUSH2 0x380C SWAP2 SWAP1 PUSH2 0x457C JUMP JUMPDEST PUSH1 0x4 SLOAD PUSH1 0x3 SLOAD PUSH2 0x381C SWAP2 SWAP1 PUSH2 0x4526 JUMP JUMPDEST PUSH2 0x3826 SWAP2 SWAP1 PUSH2 0x4526 JUMP JUMPDEST PUSH1 0x3 DUP2 SWAP1 SSTORE POP PUSH1 0x2 PUSH1 0x3 PUSH1 0x4 SLOAD PUSH2 0x383D SWAP2 SWAP1 PUSH2 0x45AD JUMP JUMPDEST PUSH2 0x3847 SWAP2 SWAP1 PUSH2 0x457C JUMP JUMPDEST PUSH1 0x2 SLOAD PUSH2 0x3854 SWAP2 SWAP1 PUSH2 0x4607 JUMP JUMPDEST PUSH1 0x2 DUP2 SWAP1 SSTORE POP PUSH1 0x0 PUSH1 0x4 DUP2 SWAP1 SSTORE POP JUMPDEST JUMPDEST JUMP JUMPDEST PUSH1 0x0 DUP1 PUSH1 0x0 SWAP1 POP PUSH1 0x0 JUMPDEST PUSH1 0x10 DUP3 LT ISZERO PUSH2 0x38D4 JUMPI PUSH1 0x0 DUP5 DUP4 PUSH1 0x10 DUP2 LT PUSH2 0x388E JUMPI PUSH2 0x388D PUSH2 0x477D JUMP JUMPDEST JUMPDEST PUSH1 0x20 MUL ADD MLOAD PUSH1 0x0 PUSH1 0x2 DUP2 LT PUSH2 0x38A6 JUMPI PUSH2 0x38A5 PUSH2 0x477D JUMP JUMPDEST JUMPDEST PUSH1 0x20 MUL ADD MLOAD EQ PUSH2 0x38C0 JUMPI PUSH1 0x1 DUP2 PUSH2 0x38BD SWAP2 SWAP1 PUSH2 0x4526 JUMP JUMPDEST SWAP1 POP JUMPDEST PUSH1 0x1 DUP3 PUSH2 0x38CD SWAP2 SWAP1 PUSH2 0x4526 JUMP JUMPDEST SWAP2 POP PUSH2 0x3870 JUMP JUMPDEST DUP1 SWAP3 POP POP POP SWAP2 SWAP1 POP JUMP JUMPDEST PUSH1 0x0 PUSH1 0x60 PUSH1 0x0 DUP2 SLOAD DUP1 SWAP3 SWAP2 SWAP1 PUSH2 0x38F3 SWAP1 PUSH2 0x4677 JUMP JUMPDEST SWAP2 SWAP1 POP SSTORE POP PUSH32 0x28F5C28F5C28F5C28F5C28F5C28F5C28F5C28F5C28F5C28F5C28F5C28F5C28F PUSH1 0x3 PUSH1 0x60 SLOAD PUSH2 0x3928 SWAP2 SWAP1 PUSH2 0x45AD JUMP JUMPDEST NUMBER PUSH2 0x3933 SWAP2 SWAP1 PUSH2 0x4526 JUMP JUMPDEST CALLER PUSH1 0x60 SLOAD PUSH1 0x40 MLOAD PUSH1 0x20 ADD PUSH2 0x3949 SWAP4 SWAP3 SWAP2 SWAP1 PUSH2 0x427D JUMP JUMPDEST PUSH1 0x40 MLOAD PUSH1 0x20 DUP2 DUP4 SUB SUB DUP2 MSTORE SWAP1 PUSH1 0x40 MSTORE DUP1 MLOAD SWAP1 PUSH1 0x20 ADD KECCAK256 PUSH1 0x0 SHR PUSH2 0x396C SWAP2 SWAP1 PUSH2 0x46EE JUMP JUMPDEST PUSH1 0x5 DUP2 SWAP1 SSTORE POP PUSH1 0x60 PUSH1 0x0 DUP2 SLOAD DUP1 SWAP3 SWAP2 SWAP1 PUSH2 0x3985 SWAP1 PUSH2 0x4677 JUMP JUMPDEST SWAP2 SWAP1 POP SSTORE POP PUSH1 0x5 SLOAD SWAP1 POP SWAP1 JUMP JUMPDEST PUSH1 0x60 PUSH1 0x0 PUSH1 0x1 PUSH2 0x39A1 DUP5 PUSH2 0x3CC6 JUMP JUMPDEST ADD SWAP1 POP PUSH1 0x0 DUP2 PUSH8 0xFFFFFFFFFFFFFFFF DUP2 GT ISZERO PUSH2 0x39C0 JUMPI PUSH2 0x39BF PUSH2 0x47AC JUMP JUMPDEST JUMPDEST PUSH1 0x40 MLOAD SWAP1 DUP1 DUP3 MSTORE DUP1 PUSH1 0x1F ADD PUSH1 0x1F NOT AND PUSH1 0x20 ADD DUP3 ADD PUSH1 0x40 MSTORE DUP1 ISZERO PUSH2 0x39F2 JUMPI DUP2 PUSH1 0x20 ADD PUSH1 0x1 DUP3 MUL DUP1 CALLDATASIZE DUP4 CALLDATACOPY DUP1 DUP3 ADD SWAP2 POP POP SWAP1 POP JUMPDEST POP SWAP1 POP PUSH1 0x0 DUP3 PUSH1 0x20 ADD DUP3 ADD SWAP1 POP JUMPDEST PUSH1 0x1 ISZERO PUSH2 0x3A5F JUMPI DUP1 DUP1 PUSH1 0x1 SWAP1 SUB SWAP2 POP POP PUSH32 0x3031323334353637383961626364656600000000000000000000000000000000 PUSH1 0xA DUP7 MOD BYTE DUP2 MSTORE8 PUSH1 0xA DUP6 DUP2 PUSH2 0x3A49 JUMPI PUSH2 0x3A48 PUSH2 0x474E JUMP JUMPDEST JUMPDEST DIV SWAP5 POP PUSH1 0x0 DUP6 EQ ISZERO PUSH2 0x3A5A JUMPI PUSH2 0x3A5F JUMP JUMPDEST PUSH2 0x3A00 JUMP JUMPDEST DUP2 SWAP4 POP POP POP POP SWAP2 SWAP1 POP JUMP JUMPDEST PUSH1 0x60 PUSH1 0x0 PUSH1 0x1 DUP6 DUP6 PUSH2 0x3A7C SWAP2 SWAP1 PUSH2 0x4607 JUMP JUMPDEST PUSH2 0x3A86 SWAP2 SWAP1 PUSH2 0x4526 JUMP JUMPDEST PUSH8 0xFFFFFFFFFFFFFFFF DUP2 GT ISZERO PUSH2 0x3A9F JUMPI PUSH2 0x3A9E PUSH2 0x47AC JUMP JUMPDEST JUMPDEST PUSH1 0x40 MLOAD SWAP1 DUP1 DUP3 MSTORE DUP1 PUSH1 0x1F ADD PUSH1 0x1F NOT AND PUSH1 0x20 ADD DUP3 ADD PUSH1 0x40 MSTORE DUP1 ISZERO PUSH2 0x3AD1 JUMPI DUP2 PUSH1 0x20 ADD PUSH1 0x1 DUP3 MUL DUP1 CALLDATASIZE DUP4 CALLDATACOPY DUP1 DUP3 ADD SWAP2 POP POP SWAP1 POP JUMPDEST POP SWAP1 POP PUSH1 0x0 JUMPDEST DUP6 DUP6 PUSH2 0x3AE3 SWAP2 SWAP1 PUSH2 0x4607 JUMP JUMPDEST DUP2 GT PUSH2 0x3B73 JUMPI DUP4 PUSH1 0x1 DUP8 DUP4 PUSH2 0x3AF8 SWAP2 SWAP1 PUSH2 0x4526 JUMP JUMPDEST PUSH2 0x3B02 SWAP2 SWAP1 PUSH2 0x4607 JUMP JUMPDEST DUP2 MLOAD DUP2 LT PUSH2 0x3B13 JUMPI PUSH2 0x3B12 PUSH2 0x477D JUMP JUMPDEST JUMPDEST PUSH1 0x20 ADD ADD MLOAD PUSH1 0xF8 SHR PUSH1 0xF8 SHL DUP3 DUP3 DUP2 MLOAD DUP2 LT PUSH2 0x3B31 JUMPI PUSH2 0x3B30 PUSH2 0x477D JUMP JUMPDEST JUMPDEST PUSH1 0x20 ADD ADD SWAP1 PUSH31 0xFFFFFFFFFFFFFFFFFFFFFFFFFFFFFFFFFFFFFFFFFFFFFFFFFFFFFFFFFFFFFF NOT AND SWAP1 DUP2 PUSH1 0x0 BYTE SWAP1 MSTORE8 POP DUP1 DUP1 PUSH2 0x3B6B SWAP1 PUSH2 0x4677 JUMP JUMPDEST SWAP2 POP POP PUSH2 0x3AD7 JUMP JUMPDEST POP DUP1 SWAP2 POP POP SWAP4 SWAP3 POP POP POP JUMP JUMPDEST PUSH1 0x0 DUP1 DUP3 SWAP1 POP PUSH1 0x0 DUP1 JUMPDEST DUP3 MLOAD DUP2 LT ISZERO PUSH2 0x3C0C JUMPI PUSH1 0x0 DUP4 DUP3 DUP2 MLOAD DUP2 LT PUSH2 0x3BA7 JUMPI PUSH2 0x3BA6 PUSH2 0x477D JUMP JUMPDEST JUMPDEST PUSH1 0x20 ADD ADD MLOAD PUSH1 0xF8 SHR PUSH1 0xF8 SHL PUSH1 0xF8 SHR PUSH1 0xFF AND SWAP1 POP PUSH1 0x30 DUP2 LT ISZERO DUP1 ISZERO PUSH2 0x3BCC JUMPI POP PUSH1 0x39 DUP2 GT ISZERO JUMPDEST ISZERO PUSH2 0x3BF8 JUMPI PUSH1 0x30 DUP2 PUSH2 0x3BDE SWAP2 SWAP1 PUSH2 0x4607 JUMP JUMPDEST PUSH1 0xA DUP5 PUSH2 0x3BEB SWAP2 SWAP1 PUSH2 0x45AD JUMP JUMPDEST PUSH2 0x3BF5 SWAP2 SWAP1 PUSH2 0x4526 JUMP JUMPDEST SWAP3 POP JUMPDEST POP DUP1 DUP1 PUSH2 0x3C04 SWAP1 PUSH2 0x4677 JUMP JUMPDEST SWAP2 POP POP PUSH2 0x3B89 JUMP JUMPDEST POP DUP1 SWAP3 POP POP POP SWAP2 SWAP1 POP JUMP JUMPDEST PUSH1 0x5C SLOAD PUSH1 0x5D SLOAD GT ISZERO PUSH2 0x3C42 JUMPI PUSH1 0x4 SLOAD PUSH1 0x2 SLOAD PUSH2 0x3C33 SWAP2 SWAP1 PUSH2 0x4526 JUMP JUMPDEST PUSH1 0x2 DUP2 SWAP1 SSTORE POP PUSH1 0x0 PUSH1 0x4 DUP2 SWAP1 SSTORE POP JUMPDEST PUSH1 0x5D SLOAD PUSH1 0x5C SLOAD GT ISZERO PUSH2 0x3C8F JUMPI PUSH1 0x2 PUSH1 0x4 SLOAD PUSH2 0x3C5D SWAP2 SWAP1 PUSH2 0x45AD JUMP JUMPDEST PUSH1 0x3 SLOAD PUSH2 0x3C6A SWAP2 SWAP1 PUSH2 0x4526 JUMP JUMPDEST PUSH1 0x3 DUP2 SWAP1 SSTORE POP PUSH1 0x4 SLOAD PUSH1 0x2 SLOAD PUSH2 0x3C80 SWAP2 SWAP1 PUSH2 0x4607 JUMP JUMPDEST PUSH1 0x2 DUP2 SWAP1 SSTORE POP PUSH1 0x0 PUSH1 0x4 DUP2 SWAP1 SSTORE POP JUMPDEST PUSH1 0x5C SLOAD PUSH1 0x5D SLOAD EQ ISZERO PUSH2 0x3CA4 JUMPI PUSH2 0x3CA3 PUSH2 0x3CA6 JUMP JUMPDEST JUMPDEST JUMP JUMPDEST PUSH1 0x4 SLOAD PUSH1 0x3 SLOAD PUSH2 0x3CB6 SWAP2 SWAP1 PUSH2 0x4526 JUMP JUMPDEST PUSH1 0x3 DUP2 SWAP1 SSTORE POP PUSH1 0x0 PUSH1 0x4 DUP2 SWAP1 SSTORE POP JUMP JUMPDEST PUSH1 0x0 DUP1 PUSH1 0x0 SWAP1 POP PUSH27 0x184F03E93FF9F4DAA797ED6E38ED64BF6A1F010000000000000000 DUP4 LT PUSH2 0x3D24 JUMPI PUSH27 0x184F03E93FF9F4DAA797ED6E38ED64BF6A1F010000000000000000 DUP4 DUP2 PUSH2 0x3D1A JUMPI PUSH2 0x3D19 PUSH2 0x474E JUMP JUMPDEST JUMPDEST DIV SWAP3 POP PUSH1 0x40 DUP2 ADD SWAP1 POP JUMPDEST PUSH14 0x4EE2D6D415B85ACEF8100000000 DUP4 LT PUSH2 0x3D61 JUMPI PUSH14 0x4EE2D6D415B85ACEF8100000000 DUP4 DUP2 PUSH2 0x3D57 JUMPI PUSH2 0x3D56 PUSH2 0x474E JUMP JUMPDEST JUMPDEST DIV SWAP3 POP PUSH1 0x20 DUP2 ADD SWAP1 POP JUMPDEST PUSH7 0x2386F26FC10000 DUP4 LT PUSH2 0x3D90 JUMPI PUSH7 0x2386F26FC10000 DUP4 DUP2 PUSH2 0x3D86 JUMPI PUSH2 0x3D85 PUSH2 0x474E JUMP JUMPDEST JUMPDEST DIV SWAP3 POP PUSH1 0x10 DUP2 ADD SWAP1 POP JUMPDEST PUSH4 0x5F5E100 DUP4 LT PUSH2 0x3DB9 JUMPI PUSH4 0x5F5E100 DUP4 DUP2 PUSH2 0x3DAF JUMPI PUSH2 0x3DAE PUSH2 0x474E JUMP JUMPDEST JUMPDEST DIV SWAP3 POP PUSH1 0x8 DUP2 ADD SWAP1 POP JUMPDEST PUSH2 0x2710 DUP4 LT PUSH2 0x3DDE JUMPI PUSH2 0x2710 DUP4 DUP2 PUSH2 0x3DD4 JUMPI PUSH2 0x3DD3 PUSH2 0x474E JUMP JUMPDEST JUMPDEST DIV SWAP3 POP PUSH1 0x4 DUP2 ADD SWAP1 POP JUMPDEST PUSH1 0x64 DUP4 LT PUSH2 0x3E01 JUMPI PUSH1 0x64 DUP4 DUP2 PUSH2 0x3DF7 JUMPI PUSH2 0x3DF6 PUSH2 0x474E JUMP JUMPDEST JUMPDEST DIV SWAP3 POP PUSH1 0x2 DUP2 ADD SWAP1 POP JUMPDEST PUSH1 0xA DUP4 LT PUSH2 0x3E10 JUMPI PUSH1 0x1 DUP2 ADD SWAP1 POP JUMPDEST DUP1 SWAP2 POP POP SWAP2 SWAP1 POP JUMP JUMPDEST DUP3 PUSH1 0x4 PUSH1 0x2 MUL DUP2 ADD SWAP3 DUP3 ISZERO PUSH2 0x3E59 JUMPI SWAP2 PUSH1 0x20 MUL DUP3 ADD JUMPDEST DUP3 DUP2 GT ISZERO PUSH2 0x3E58 JUMPI DUP3 MLOAD DUP3 SWAP1 PUSH1 0x2 PUSH2 0x3E48 SWAP3 SWAP2 SWAP1 PUSH2 0x3E97 JUMP JUMPDEST POP SWAP2 PUSH1 0x20 ADD SWAP2 SWAP1 PUSH1 0x2 ADD SWAP1 PUSH2 0x3E2F JUMP JUMPDEST JUMPDEST POP SWAP1 POP PUSH2 0x3E66 SWAP2 SWAP1 PUSH2 0x3ED7 JUMP JUMPDEST POP SWAP1 JUMP JUMPDEST PUSH1 0x40 MLOAD DUP1 PUSH1 0x80 ADD PUSH1 0x40 MSTORE DUP1 PUSH1 0x4 SWAP1 JUMPDEST PUSH2 0x3E81 PUSH2 0x3EFB JUMP JUMPDEST DUP2 MSTORE PUSH1 0x20 ADD SWAP1 PUSH1 0x1 SWAP1 SUB SWAP1 DUP2 PUSH2 0x3E79 JUMPI SWAP1 POP POP SWAP1 JUMP JUMPDEST DUP3 PUSH1 0x2 DUP2 ADD SWAP3 DUP3 ISZERO PUSH2 0x3EC6 JUMPI SWAP2 PUSH1 0x20 MUL DUP3 ADD JUMPDEST DUP3 DUP2 GT ISZERO PUSH2 0x3EC5 JUMPI DUP3 MLOAD DUP3 SSTORE SWAP2 PUSH1 0x20 ADD SWAP2 SWAP1 PUSH1 0x1 ADD SWAP1 PUSH2 0x3EAA JUMP JUMPDEST JUMPDEST POP SWAP1 POP PUSH2 0x3ED3 SWAP2 SWAP1 PUSH2 0x3F1D JUMP JUMPDEST POP SWAP1 JUMP JUMPDEST JUMPDEST DUP1 DUP3 GT ISZERO PUSH2 0x3EF7 JUMPI PUSH1 0x0 DUP2 DUP2 PUSH2 0x3EEE SWAP2 SWAP1 PUSH2 0x3F3A JUMP JUMPDEST POP PUSH1 0x2 ADD PUSH2 0x3ED8 JUMP JUMPDEST POP SWAP1 JUMP JUMPDEST PUSH1 0x40 MLOAD DUP1 PUSH1 0x40 ADD PUSH1 0x40 MSTORE DUP1 PUSH1 0x2 SWAP1 PUSH1 0x20 DUP3 MUL DUP1 CALLDATASIZE DUP4 CALLDATACOPY DUP1 DUP3 ADD SWAP2 POP POP SWAP1 POP POP SWAP1 JUMP JUMPDEST JUMPDEST DUP1 DUP3 GT ISZERO PUSH2 0x3F36 JUMPI PUSH1 0x0 DUP2 PUSH1 0x0 SWAP1 SSTORE POP PUSH1 0x1 ADD PUSH2 0x3F1E JUMP JUMPDEST POP SWAP1 JUMP JUMPDEST POP PUSH1 0x0 DUP2 SSTORE PUSH1 0x1 ADD PUSH1 0x0 SWAP1 SSTORE JUMP JUMPDEST PUSH1 0x0 DUP2 CALLDATALOAD SWAP1 POP PUSH2 0x3F57 DUP2 PUSH2 0x4C71 JUMP JUMPDEST SWAP3 SWAP2 POP POP JUMP JUMPDEST PUSH1 0x0 PUSH1 0x20 DUP3 DUP5 SUB SLT ISZERO PUSH2 0x3F73 JUMPI PUSH2 0x3F72 PUSH2 0x47DB JUMP JUMPDEST JUMPDEST PUSH1 0x0 PUSH2 0x3F81 DUP5 DUP3 DUP6 ADD PUSH2 0x3F48 JUMP JUMPDEST SWAP2 POP POP SWAP3 SWAP2 POP POP JUMP JUMPDEST PUSH1 0x0 DUP1 PUSH1 0x40 DUP4 DUP6 SUB SLT ISZERO PUSH2 0x3FA1 JUMPI PUSH2 0x3FA0 PUSH2 0x47DB JUMP JUMPDEST JUMPDEST PUSH1 0x0 PUSH2 0x3FAF DUP6 DUP3 DUP7 ADD PUSH2 0x3F48 JUMP JUMPDEST SWAP3 POP POP PUSH1 0x20 PUSH2 0x3FC0 DUP6 DUP3 DUP7 ADD PUSH2 0x3F48 JUMP JUMPDEST SWAP2 POP POP SWAP3 POP SWAP3 SWAP1 POP JUMP JUMPDEST PUSH2 0x3FDB PUSH2 0x3FD6 DUP3 PUSH2 0x463B JUMP JUMPDEST PUSH2 0x46C0 JUMP JUMPDEST DUP3 MSTORE POP POP JUMP JUMPDEST PUSH1 0x0 PUSH2 0x3FEE PUSH1 0x28 DUP4 PUSH2 0x4515 JUMP JUMPDEST SWAP2 POP PUSH2 0x3FF9 DUP3 PUSH2 0x47ED JUMP JUMPDEST PUSH1 0x40 DUP3 ADD SWAP1 POP SWAP2 SWAP1 POP JUMP JUMPDEST PUSH1 0x0 PUSH2 0x4011 PUSH1 0x22 DUP4 PUSH2 0x4515 JUMP JUMPDEST SWAP2 POP PUSH2 0x401C DUP3 PUSH2 0x483C JUMP JUMPDEST PUSH1 0x40 DUP3 ADD SWAP1 POP SWAP2 SWAP1 POP JUMP JUMPDEST PUSH1 0x0 PUSH2 0x4034 PUSH1 0x26 DUP4 PUSH2 0x4515 JUMP JUMPDEST SWAP2 POP PUSH2 0x403F DUP3 PUSH2 0x488B JUMP JUMPDEST PUSH1 0x40 DUP3 ADD SWAP1 POP SWAP2 SWAP1 POP JUMP JUMPDEST PUSH1 0x0 PUSH2 0x4057 PUSH1 0x19 DUP4 PUSH2 0x4515 JUMP JUMPDEST SWAP2 POP PUSH2 0x4062 DUP3 PUSH2 0x48DA JUMP JUMPDEST PUSH1 0x20 DUP3 ADD SWAP1 POP SWAP2 SWAP1 POP JUMP JUMPDEST PUSH1 0x0 PUSH2 0x407A PUSH1 0x23 DUP4 PUSH2 0x4515 JUMP JUMPDEST SWAP2 POP PUSH2 0x4085 DUP3 PUSH2 0x4903 JUMP JUMPDEST PUSH1 0x40 DUP3 ADD SWAP1 POP SWAP2 SWAP1 POP JUMP JUMPDEST PUSH1 0x0 PUSH2 0x409D PUSH1 0x16 DUP4 PUSH2 0x4515 JUMP JUMPDEST SWAP2 POP PUSH2 0x40A8 DUP3 PUSH2 0x4952 JUMP JUMPDEST PUSH1 0x20 DUP3 ADD SWAP1 POP SWAP2 SWAP1 POP JUMP JUMPDEST PUSH1 0x0 PUSH2 0x40C0 PUSH1 0x24 DUP4 PUSH2 0x4515 JUMP JUMPDEST SWAP2 POP PUSH2 0x40CB DUP3 PUSH2 0x497B JUMP JUMPDEST PUSH1 0x40 DUP3 ADD SWAP1 POP SWAP2 SWAP1 POP JUMP JUMPDEST PUSH1 0x0 PUSH2 0x40E3 PUSH1 0x15 DUP4 PUSH2 0x4515 JUMP JUMPDEST SWAP2 POP PUSH2 0x40EE DUP3 PUSH2 0x49CA JUMP JUMPDEST PUSH1 0x20 DUP3 ADD SWAP1 POP SWAP2 SWAP1 POP JUMP JUMPDEST PUSH1 0x0 PUSH2 0x4106 PUSH1 0x21 DUP4 PUSH2 0x4515 JUMP JUMPDEST SWAP2 POP PUSH2 0x4111 DUP3 PUSH2 0x49F3 JUMP JUMPDEST PUSH1 0x40 DUP3 ADD SWAP1 POP SWAP2 SWAP1 POP JUMP JUMPDEST PUSH1 0x0 PUSH2 0x4129 PUSH1 0x22 DUP4 PUSH2 0x4515 JUMP JUMPDEST SWAP2 POP PUSH2 0x4134 DUP3 PUSH2 0x4A42 JUMP JUMPDEST PUSH1 0x40 DUP3 ADD SWAP1 POP SWAP2 SWAP1 POP JUMP JUMPDEST PUSH1 0x0 PUSH2 0x414C PUSH1 0x27 DUP4 PUSH2 0x4515 JUMP JUMPDEST SWAP2 POP PUSH2 0x4157 DUP3 PUSH2 0x4A91 JUMP JUMPDEST PUSH1 0x40 DUP3 ADD SWAP1 POP SWAP2 SWAP1 POP JUMP JUMPDEST PUSH1 0x0 PUSH2 0x416F PUSH1 0x18 DUP4 PUSH2 0x4515 JUMP JUMPDEST SWAP2 POP PUSH2 0x417A DUP3 PUSH2 0x4AE0 JUMP JUMPDEST PUSH1 0x20 DUP3 ADD SWAP1 POP SWAP2 SWAP1 POP JUMP JUMPDEST PUSH1 0x0 PUSH2 0x4192 PUSH1 0x21 DUP4 PUSH2 0x4515 JUMP JUMPDEST SWAP2 POP PUSH2 0x419D DUP3 PUSH2 0x4B09 JUMP JUMPDEST PUSH1 0x40 DUP3 ADD SWAP1 POP SWAP2 SWAP1 POP JUMP JUMPDEST PUSH1 0x0 PUSH2 0x41B5 PUSH1 0x37 DUP4 PUSH2 0x4515 JUMP JUMPDEST SWAP2 POP PUSH2 0x41C0 DUP3 PUSH2 0x4B58 JUMP JUMPDEST PUSH1 0x40 DUP3 ADD SWAP1 POP SWAP2 SWAP1 POP JUMP JUMPDEST PUSH1 0x0 PUSH2 0x41D8 PUSH1 0x1C DUP4 PUSH2 0x4515 JUMP JUMPDEST SWAP2 POP PUSH2 0x41E3 DUP3 PUSH2 0x4BA7 JUMP JUMPDEST PUSH1 0x20 DUP3 ADD SWAP1 POP SWAP2 SWAP1 POP JUMP JUMPDEST PUSH1 0x0 PUSH2 0x41FB PUSH1 0x18 DUP4 PUSH2 0x4515 JUMP JUMPDEST SWAP2 POP PUSH2 0x4206 DUP3 PUSH2 0x4BD0 JUMP JUMPDEST PUSH1 0x20 DUP3 ADD SWAP1 POP SWAP2 SWAP1 POP JUMP JUMPDEST PUSH1 0x0 PUSH2 0x421E PUSH1 0x1B DUP4 PUSH2 0x4515 JUMP JUMPDEST SWAP2 POP PUSH2 0x4229 DUP3 PUSH2 0x4BF9 JUMP JUMPDEST PUSH1 0x20 DUP3 ADD SWAP1 POP SWAP2 SWAP1 POP JUMP JUMPDEST PUSH1 0x0 PUSH2 0x4241 PUSH1 0x2A DUP4 PUSH2 0x4515 JUMP JUMPDEST SWAP2 POP PUSH2 0x424C DUP3 PUSH2 0x4C22 JUMP JUMPDEST PUSH1 0x40 DUP3 ADD SWAP1 POP SWAP2 SWAP1 POP JUMP JUMPDEST PUSH2 0x4260 DUP2 PUSH2 0x466D JUMP JUMPDEST DUP3 MSTORE POP POP JUMP JUMPDEST PUSH2 0x4277 PUSH2 0x4272 DUP3 PUSH2 0x466D JUMP JUMPDEST PUSH2 0x46E4 JUMP JUMPDEST DUP3 MSTORE POP POP JUMP JUMPDEST PUSH1 0x0 PUSH2 0x4289 DUP3 DUP7 PUSH2 0x4266 JUMP JUMPDEST PUSH1 0x20 DUP3 ADD SWAP2 POP PUSH2 0x4299 DUP3 DUP6 PUSH2 0x3FCA JUMP JUMPDEST PUSH1 0x14 DUP3 ADD SWAP2 POP PUSH2 0x42A9 DUP3 DUP5 PUSH2 0x4266 JUMP JUMPDEST PUSH1 0x20 DUP3 ADD SWAP2 POP DUP2 SWAP1 POP SWAP5 SWAP4 POP POP POP POP JUMP JUMPDEST PUSH1 0x0 PUSH1 0x20 DUP3 ADD SWAP1 POP DUP2 DUP2 SUB PUSH1 0x0 DUP4 ADD MSTORE PUSH2 0x42D3 DUP2 PUSH2 0x3FE1 JUMP JUMPDEST SWAP1 POP SWAP2 SWAP1 POP JUMP JUMPDEST PUSH1 0x0 PUSH1 0x20 DUP3 ADD SWAP1 POP DUP2 DUP2 SUB PUSH1 0x0 DUP4 ADD MSTORE PUSH2 0x42F3 DUP2 PUSH2 0x4004 JUMP JUMPDEST SWAP1 POP SWAP2 SWAP1 POP JUMP JUMPDEST PUSH1 0x0 PUSH1 0x20 DUP3 ADD SWAP1 POP DUP2 DUP2 SUB PUSH1 0x0 DUP4 ADD MSTORE PUSH2 0x4313 DUP2 PUSH2 0x4027 JUMP JUMPDEST SWAP1 POP SWAP2 SWAP1 POP JUMP JUMPDEST PUSH1 0x0 PUSH1 0x20 DUP3 ADD SWAP1 POP DUP2 DUP2 SUB PUSH1 0x0 DUP4 ADD MSTORE PUSH2 0x4333 DUP2 PUSH2 0x404A JUMP JUMPDEST SWAP1 POP SWAP2 SWAP1 POP JUMP JUMPDEST PUSH1 0x0 PUSH1 0x20 DUP3 ADD SWAP1 POP DUP2 DUP2 SUB PUSH1 0x0 DUP4 ADD MSTORE PUSH2 0x4353 DUP2 PUSH2 0x406D JUMP JUMPDEST SWAP1 POP SWAP2 SWAP1 POP JUMP JUMPDEST PUSH1 0x0 PUSH1 0x20 DUP3 ADD SWAP1 POP DUP2 DUP2 SUB PUSH1 0x0 DUP4 ADD MSTORE PUSH2 0x4373 DUP2 PUSH2 0x4090 JUMP JUMPDEST SWAP1 POP SWAP2 SWAP1 POP JUMP JUMPDEST PUSH1 0x0 PUSH1 0x20 DUP3 ADD SWAP1 POP DUP2 DUP2 SUB PUSH1 0x0 DUP4 ADD MSTORE PUSH2 0x4393 DUP2 PUSH2 0x40B3 JUMP JUMPDEST SWAP1 POP SWAP2 SWAP1 POP JUMP JUMPDEST PUSH1 0x0 PUSH1 0x20 DUP3 ADD SWAP1 POP DUP2 DUP2 SUB PUSH1 0x0 DUP4 ADD MSTORE PUSH2 0x43B3 DUP2 PUSH2 0x40D6 JUMP JUMPDEST SWAP1 POP SWAP2 SWAP1 POP JUMP JUMPDEST PUSH1 0x0 PUSH1 0x20 DUP3 ADD SWAP1 POP DUP2 DUP2 SUB PUSH1 0x0 DUP4 ADD MSTORE PUSH2 0x43D3 DUP2 PUSH2 0x40F9 JUMP JUMPDEST SWAP1 POP SWAP2 SWAP1 POP JUMP JUMPDEST PUSH1 0x0 PUSH1 0x20 DUP3 ADD SWAP1 POP DUP2 DUP2 SUB PUSH1 0x0 DUP4 ADD MSTORE PUSH2 0x43F3 DUP2 PUSH2 0x411C JUMP JUMPDEST SWAP1 POP SWAP2 SWAP1 POP JUMP JUMPDEST PUSH1 0x0 PUSH1 0x20 DUP3 ADD SWAP1 POP DUP2 DUP2 SUB PUSH1 0x0 DUP4 ADD MSTORE PUSH2 0x4413 DUP2 PUSH2 0x413F JUMP JUMPDEST SWAP1 POP SWAP2 SWAP1 POP JUMP JUMPDEST PUSH1 0x0 PUSH1 0x20 DUP3 ADD SWAP1 POP DUP2 DUP2 SUB PUSH1 0x0 DUP4 ADD MSTORE PUSH2 0x4433 DUP2 PUSH2 0x4162 JUMP JUMPDEST SWAP1 POP SWAP2 SWAP1 POP JUMP JUMPDEST PUSH1 0x0 PUSH1 0x20 DUP3 ADD SWAP1 POP DUP2 DUP2 SUB PUSH1 0x0 DUP4 ADD MSTORE PUSH2 0x4453 DUP2 PUSH2 0x4185 JUMP JUMPDEST SWAP1 POP SWAP2 SWAP1 POP JUMP JUMPDEST PUSH1 0x0 PUSH1 0x20 DUP3 ADD SWAP1 POP DUP2 DUP2 SUB PUSH1 0x0 DUP4 ADD MSTORE PUSH2 0x4473 DUP2 PUSH2 0x41A8 JUMP JUMPDEST SWAP1 POP SWAP2 SWAP1 POP JUMP JUMPDEST PUSH1 0x0 PUSH1 0x20 DUP3 ADD SWAP1 POP DUP2 DUP2 SUB PUSH1 0x0 DUP4 ADD MSTORE PUSH2 0x4493 DUP2 PUSH2 0x41CB JUMP JUMPDEST SWAP1 POP SWAP2 SWAP1 POP JUMP JUMPDEST PUSH1 0x0 PUSH1 0x20 DUP3 ADD SWAP1 POP DUP2 DUP2 SUB PUSH1 0x0 DUP4 ADD MSTORE PUSH2 0x44B3 DUP2 PUSH2 0x41EE JUMP JUMPDEST SWAP1 POP SWAP2 SWAP1 POP JUMP JUMPDEST PUSH1 0x0 PUSH1 0x20 DUP3 ADD SWAP1 POP DUP2 DUP2 SUB PUSH1 0x0 DUP4 ADD MSTORE PUSH2 0x44D3 DUP2 PUSH2 0x4211 JUMP JUMPDEST SWAP1 POP SWAP2 SWAP1 POP JUMP JUMPDEST PUSH1 0x0 PUSH1 0x20 DUP3 ADD SWAP1 POP DUP2 DUP2 SUB PUSH1 0x0 DUP4 ADD MSTORE PUSH2 0x44F3 DUP2 PUSH2 0x4234 JUMP JUMPDEST SWAP1 POP SWAP2 SWAP1 POP JUMP JUMPDEST PUSH1 0x0 PUSH1 0x20 DUP3 ADD SWAP1 POP PUSH2 0x450F PUSH1 0x0 DUP4 ADD DUP5 PUSH2 0x4257 JUMP JUMPDEST SWAP3 SWAP2 POP POP JUMP JUMPDEST PUSH1 0x0 DUP3 DUP3 MSTORE PUSH1 0x20 DUP3 ADD SWAP1 POP SWAP3 SWAP2 POP POP JUMP JUMPDEST PUSH1 0x0 PUSH2 0x4531 DUP3 PUSH2 0x466D JUMP JUMPDEST SWAP2 POP PUSH2 0x453C DUP4 PUSH2 0x466D JUMP JUMPDEST SWAP3 POP DUP3 PUSH32 0xFFFFFFFFFFFFFFFFFFFFFFFFFFFFFFFFFFFFFFFFFFFFFFFFFFFFFFFFFFFFFFFF SUB DUP3 GT ISZERO PUSH2 0x4571 JUMPI PUSH2 0x4570 PUSH2 0x471F JUMP JUMPDEST JUMPDEST DUP3 DUP3 ADD SWAP1 POP SWAP3 SWAP2 POP POP JUMP JUMPDEST PUSH1 0x0 PUSH2 0x4587 DUP3 PUSH2 0x466D JUMP JUMPDEST SWAP2 POP PUSH2 0x4592 DUP4 PUSH2 0x466D JUMP JUMPDEST SWAP3 POP DUP3 PUSH2 0x45A2 JUMPI PUSH2 0x45A1 PUSH2 0x474E JUMP JUMPDEST JUMPDEST DUP3 DUP3 DIV SWAP1 POP SWAP3 SWAP2 POP POP JUMP JUMPDEST PUSH1 0x0 PUSH2 0x45B8 DUP3 PUSH2 0x466D JUMP JUMPDEST SWAP2 POP PUSH2 0x45C3 DUP4 PUSH2 0x466D JUMP JUMPDEST SWAP3 POP DUP2 PUSH32 0xFFFFFFFFFFFFFFFFFFFFFFFFFFFFFFFFFFFFFFFFFFFFFFFFFFFFFFFFFFFFFFFF DIV DUP4 GT DUP3 ISZERO ISZERO AND ISZERO PUSH2 0x45FC JUMPI PUSH2 0x45FB PUSH2 0x471F JUMP JUMPDEST JUMPDEST DUP3 DUP3 MUL SWAP1 POP SWAP3 SWAP2 POP POP JUMP JUMPDEST PUSH1 0x0 PUSH2 0x4612 DUP3 PUSH2 0x466D JUMP JUMPDEST SWAP2 POP PUSH2 0x461D DUP4 PUSH2 0x466D JUMP JUMPDEST SWAP3 POP DUP3 DUP3 LT ISZERO PUSH2 0x4630 JUMPI PUSH2 0x462F PUSH2 0x471F JUMP JUMPDEST JUMPDEST DUP3 DUP3 SUB SWAP1 POP SWAP3 SWAP2 POP POP JUMP JUMPDEST PUSH1 0x0 PUSH2 0x4646 DUP3 PUSH2 0x464D JUMP JUMPDEST SWAP1 POP SWAP2 SWAP1 POP JUMP JUMPDEST PUSH1 0x0 PUSH20 0xFFFFFFFFFFFFFFFFFFFFFFFFFFFFFFFFFFFFFFFF DUP3 AND SWAP1 POP SWAP2 SWAP1 POP JUMP JUMPDEST PUSH1 0x0 DUP2 SWAP1 POP SWAP2 SWAP1 POP JUMP JUMPDEST PUSH1 0x0 PUSH2 0x4682 DUP3 PUSH2 0x466D JUMP JUMPDEST SWAP2 POP PUSH32 0xFFFFFFFFFFFFFFFFFFFFFFFFFFFFFFFFFFFFFFFFFFFFFFFFFFFFFFFFFFFFFFFF DUP3 EQ ISZERO PUSH2 0x46B5 JUMPI PUSH2 0x46B4 PUSH2 0x471F JUMP JUMPDEST JUMPDEST PUSH1 0x1 DUP3 ADD SWAP1 POP SWAP2 SWAP1 POP JUMP JUMPDEST PUSH1 0x0 PUSH2 0x46CB DUP3 PUSH2 0x46D2 JUMP JUMPDEST SWAP1 POP SWAP2 SWAP1 POP JUMP JUMPDEST PUSH1 0x0 PUSH2 0x46DD DUP3 PUSH2 0x47E0 JUMP JUMPDEST SWAP1 POP SWAP2 SWAP1 POP JUMP JUMPDEST PUSH1 0x0 DUP2 SWAP1 POP SWAP2 SWAP1 POP JUMP JUMPDEST PUSH1 0x0 PUSH2 0x46F9 DUP3 PUSH2 0x466D JUMP JUMPDEST SWAP2 POP PUSH2 0x4704 DUP4 PUSH2 0x466D JUMP JUMPDEST SWAP3 POP DUP3 PUSH2 0x4714 JUMPI PUSH2 0x4713 PUSH2 0x474E JUMP JUMPDEST JUMPDEST DUP3 DUP3 MOD SWAP1 POP SWAP3 SWAP2 POP POP JUMP JUMPDEST PUSH32 0x4E487B7100000000000000000000000000000000000000000000000000000000 PUSH1 0x0 MSTORE PUSH1 0x11 PUSH1 0x4 MSTORE PUSH1 0x24 PUSH1 0x0 REVERT JUMPDEST PUSH32 0x4E487B7100000000000000000000000000000000000000000000000000000000 PUSH1 0x0 MSTORE PUSH1 0x12 PUSH1 0x4 MSTORE PUSH1 0x24 PUSH1 0x0 REVERT JUMPDEST PUSH32 0x4E487B7100000000000000000000000000000000000000000000000000000000 PUSH1 0x0 MSTORE PUSH1 0x32 PUSH1 0x4 MSTORE PUSH1 0x24 PUSH1 0x0 REVERT JUMPDEST PUSH32 0x4E487B7100000000000000000000000000000000000000000000000000000000 PUSH1 0x0 MSTORE PUSH1 0x41 PUSH1 0x4 MSTORE PUSH1 0x24 PUSH1 0x0 REVERT JUMPDEST PUSH1 0x0 DUP1 REVERT JUMPDEST PUSH1 0x0 DUP2 PUSH1 0x60 SHL SWAP1 POP SWAP2 SWAP1 POP JUMP JUMPDEST PUSH32 0x596F752063616E206F6E6C7920646F75626C6520646F776E206F6E2066697273 PUSH1 0x0 DUP3 ADD MSTORE PUSH32 0x7420616374696F6E000000000000000000000000000000000000000000000000 PUSH1 0x20 DUP3 ADD MSTORE POP JUMP JUMPDEST PUSH32 0x4465616C6572206D757374207374616E64206F6E20313720616E642068696768 PUSH1 0x0 DUP3 ADD MSTORE PUSH32 0x6572000000000000000000000000000000000000000000000000000000000000 PUSH1 0x20 DUP3 ADD MSTORE POP JUMP JUMPDEST PUSH32 0x42657420616D6F756E74206973206D6F7265207468616E20706C617965722062 PUSH1 0x0 DUP3 ADD MSTORE PUSH32 0x616C616E63650000000000000000000000000000000000000000000000000000 PUSH1 0x20 DUP3 ADD MSTORE POP JUMP JUMPDEST PUSH32 0x4F6E6C7920706C617965722063616E20706C6163652062657400000000000000 PUSH1 0x0 DUP3 ADD MSTORE POP JUMP JUMPDEST PUSH32 0x53656E6465722061646472657373206D75737420626520706C6179657257616C PUSH1 0x0 DUP3 ADD MSTORE PUSH32 0x6C65740000000000000000000000000000000000000000000000000000000000 PUSH1 0x20 DUP3 ADD MSTORE POP JUMP JUMPDEST PUSH32 0x5265656E7472616E6379206E6F7420616C6C6F77656400000000000000000000 PUSH1 0x0 DUP3 ADD MSTORE POP JUMP JUMPDEST PUSH32 0x506C61796572206D75737420626520686F757365283029206F7220706C617965 PUSH1 0x0 DUP3 ADD MSTORE PUSH32 0x7228312900000000000000000000000000000000000000000000000000000000 PUSH1 0x20 DUP3 ADD MSTORE POP JUMP JUMPDEST PUSH32 0x596F7527766520616C7265616479206275737465640000000000000000000000 PUSH1 0x0 DUP3 ADD MSTORE POP JUMP JUMPDEST PUSH32 0x526567697374726174696F6E2061646472657373206973206E6F742076616C69 PUSH1 0x0 DUP3 ADD MSTORE PUSH32 0x6400000000000000000000000000000000000000000000000000000000000000 PUSH1 0x20 DUP3 ADD MSTORE POP JUMP JUMPDEST PUSH32 0x53656E6465722061646472657373206D75737420626520686F75736557616C6C PUSH1 0x0 DUP3 ADD MSTORE PUSH32 0x6574000000000000000000000000000000000000000000000000000000000000 PUSH1 0x20 DUP3 ADD MSTORE POP JUMP JUMPDEST PUSH32 0x796F75206D75737420626574206265666F726520746865206361726473206172 PUSH1 0x0 DUP3 ADD MSTORE PUSH32 0x65206465616C7400000000000000000000000000000000000000000000000000 PUSH1 0x20 DUP3 ADD MSTORE POP JUMP JUMPDEST PUSH32 0x47616D65206D75737420626520696E2070726F67726573730000000000000000 PUSH1 0x0 DUP3 ADD MSTORE POP JUMP JUMPDEST PUSH32 0x506C6179657220686173206E6F2062616C616E636520746F2077697468647261 PUSH1 0x0 DUP3 ADD MSTORE PUSH32 0x7700000000000000000000000000000000000000000000000000000000000000 PUSH1 0x20 DUP3 ADD MSTORE POP JUMP JUMPDEST PUSH32 0x596F75206172652072657175657374696E67206D6F7265207468616E20746865 PUSH1 0x0 DUP3 ADD MSTORE PUSH32 0x20706C617965722077616C6C657420636F6E7461696E73000000000000000000 PUSH1 0x20 DUP3 ADD MSTORE POP JUMP JUMPDEST PUSH32 0x596F7520646F6E2774206861766520656E6F7567682066756E64732E00000000 PUSH1 0x0 DUP3 ADD MSTORE POP JUMP JUMPDEST PUSH32 0x506C617965722068617320616C72656164792073746F6F640000000000000000 PUSH1 0x0 DUP3 ADD MSTORE POP JUMP JUMPDEST PUSH32 0x4265742068617320616C7265616479206265656E20706C616365640000000000 PUSH1 0x0 DUP3 ADD MSTORE POP JUMP JUMPDEST PUSH32 0x4F6E6C7920706C617965722063616E2075736520746869732066756E6374696F PUSH1 0x0 DUP3 ADD MSTORE PUSH32 0x6E20776974686472617700000000000000000000000000000000000000000000 PUSH1 0x20 DUP3 ADD MSTORE POP JUMP JUMPDEST PUSH2 0x4C7A DUP2 PUSH2 0x466D JUMP JUMPDEST DUP2 EQ PUSH2 0x4C85 JUMPI PUSH1 0x0 DUP1 REVERT JUMPDEST POP JUMP INVALID LOG2 PUSH5 0x6970667358 0x22 SLT KECCAK256 PUSH16 0xCEC923E5CD6A6352468CFF293CEB2B6B 0xBC SELFDESTRUCT DUP6 NOT 0xD5 DUP5 0xC4 PC MSTORE 0x1F 0x2E STATICCALL 0xC5 0x2C DUP9 PUSH5 0x736F6C6343 STOP ADDMOD SMOD STOP CALLER "
		},
		"gasEstimates": {
			"creation": {
				"codeDepositCost": "3929200",
				"executionCost": "133101",
				"totalCost": "4062301"
			},
			"external": {
				"BET_MAX()": "395",
				"BET_MIN()": "419",
				"betAmount()": "2517",
				"deal()": "infinite",
				"dealerBusted()": "2496",
				"dealerCardCount()": "2496",
				"dealerHandValue(uint256,uint256)": "infinite",
				"dealerStands()": "2518",
				"dealersCards(uint256,uint256)": "infinite",
				"doubleDown()": "infinite",
				"finalDealerCount()": "2475",
				"finalPlayerCount()": "2473",
				"fundContract(uint256)": "infinite",
				"gameInProgress()": "2497",
				"hitDealer()": "infinite",
				"hitPlayer()": "infinite",
				"houseBalance()": "2540",
				"placeBet(uint256)": "infinite",
				"playerBalance()": "2518",
				"playerBusted()": "2541",
				"playerCardCount()": "2452",
				"playerHandValue(uint256,uint256)": "infinite",
				"playerStand()": "infinite",
				"playerStands()": "2475",
				"playerWithdraw(uint256)": "infinite",
				"playersCards(uint256,uint256)": "infinite"
			},
			"internal": {
				"dealerStand()": "infinite",
				"evaluateDealerHand()": "infinite",
				"evaluatePlayerHand()": "infinite",
				"evaluateWinner()": "infinite",
				"gameIsPushed()": "infinite",
				"getCards(uint256)": "infinite",
				"getRandom()": "infinite",
				"getSlice(uint256,uint256,string memory)": "infinite",
				"numCardsInArray(uint256[2] memory[16] memory)": "infinite",
				"playerHasBlackJack()": "infinite",
				"pushToDealer(uint256,uint256,uint256)": "infinite",
				"pushToPlayer(uint256,uint256,uint256)": "infinite",
				"replaceDuplicates(uint256[2] memory[4] memory)": "infinite",
				"stringToUint(string memory)": "infinite",
				"sumDealersCards()": "infinite",
				"sumPlayersCards()": "infinite"
			}
		},
		"methodIdentifiers": {
			"BET_MAX()": "d0017a0c",
			"BET_MIN()": "2626ab08",
			"betAmount()": "d24257c0",
			"deal()": "553df021",
			"dealerBusted()": "c5c3cd78",
			"dealerCardCount()": "908a0979",
			"dealerHandValue(uint256,uint256)": "53a218c9",
			"dealerStands()": "a10926d6",
			"dealersCards(uint256,uint256)": "8bbb236f",
			"doubleDown()": "a7e1f6a2",
			"finalDealerCount()": "13bf01ed",
			"finalPlayerCount()": "cdc7ea51",
			"fundContract(uint256)": "3519a2f8",
			"gameInProgress()": "3fb64e75",
			"hitDealer()": "c2855a59",
			"hitPlayer()": "dae10ed5",
			"houseBalance()": "67084eb3",
			"placeBet(uint256)": "10fe7c48",
			"playerBalance()": "651f066a",
			"playerBusted()": "325eb3f5",
			"playerCardCount()": "8914d63b",
			"playerHandValue(uint256,uint256)": "16dd37dd",
			"playerStand()": "c9f09d38",
			"playerStands()": "3c3248d5",
			"playerWithdraw(uint256)": "5629365b",
			"playersCards(uint256,uint256)": "bdbe451b"
		}
	},
	"abi": [
		{
			"inputs": [],
			"name": "BET_MAX",
			"outputs": [
				{
					"internalType": "uint256",
					"name": "",
					"type": "uint256"
				}
			],
			"stateMutability": "view",
			"type": "function"
		},
		{
			"inputs": [],
			"name": "BET_MIN",
			"outputs": [
				{
					"internalType": "uint256",
					"name": "",
					"type": "uint256"
				}
			],
			"stateMutability": "view",
			"type": "function"
		},
		{
			"inputs": [],
			"name": "betAmount",
			"outputs": [
				{
					"internalType": "uint256",
					"name": "",
					"type": "uint256"
				}
			],
			"stateMutability": "view",
			"type": "function"
		},
		{
			"inputs": [],
			"name": "deal",
			"outputs": [],
			"stateMutability": "nonpayable",
			"type": "function"
		},
		{
			"inputs": [],
			"name": "dealerBusted",
			"outputs": [
				{
					"internalType": "uint256",
					"name": "",
					"type": "uint256"
				}
			],
			"stateMutability": "view",
			"type": "function"
		},
		{
			"inputs": [],
			"name": "dealerCardCount",
			"outputs": [
				{
					"internalType": "uint256",
					"name": "",
					"type": "uint256"
				}
			],
			"stateMutability": "view",
			"type": "function"
		},
		{
			"inputs": [
				{
					"internalType": "uint256",
					"name": "",
					"type": "uint256"
				},
				{
					"internalType": "uint256",
					"name": "",
					"type": "uint256"
				}
			],
			"name": "dealerHandValue",
			"outputs": [
				{
					"internalType": "uint256",
					"name": "",
					"type": "uint256"
				}
			],
			"stateMutability": "view",
			"type": "function"
		},
		{
			"inputs": [],
			"name": "dealerStands",
			"outputs": [
				{
					"internalType": "uint256",
					"name": "",
					"type": "uint256"
				}
			],
			"stateMutability": "view",
			"type": "function"
		},
		{
			"inputs": [
				{
					"internalType": "uint256",
					"name": "",
					"type": "uint256"
				},
				{
					"internalType": "uint256",
					"name": "",
					"type": "uint256"
				}
			],
			"name": "dealersCards",
			"outputs": [
				{
					"internalType": "uint256",
					"name": "",
					"type": "uint256"
				}
			],
			"stateMutability": "view",
			"type": "function"
		},
		{
			"inputs": [],
			"name": "doubleDown",
			"outputs": [],
			"stateMutability": "nonpayable",
			"type": "function"
		},
		{
			"inputs": [],
			"name": "finalDealerCount",
			"outputs": [
				{
					"internalType": "uint256",
					"name": "",
					"type": "uint256"
				}
			],
			"stateMutability": "view",
			"type": "function"
		},
		{
			"inputs": [],
			"name": "finalPlayerCount",
			"outputs": [
				{
					"internalType": "uint256",
					"name": "",
					"type": "uint256"
				}
			],
			"stateMutability": "view",
			"type": "function"
		},
		{
			"inputs": [
				{
					"internalType": "uint256",
					"name": "house_or_player",
					"type": "uint256"
				}
			],
			"name": "fundContract",
			"outputs": [],
			"stateMutability": "payable",
			"type": "function"
		},
		{
			"inputs": [],
			"name": "gameInProgress",
			"outputs": [
				{
					"internalType": "uint256",
					"name": "",
					"type": "uint256"
				}
			],
			"stateMutability": "view",
			"type": "function"
		},
		{
			"inputs": [],
			"name": "hitDealer",
			"outputs": [],
			"stateMutability": "nonpayable",
			"type": "function"
		},
		{
			"inputs": [],
			"name": "hitPlayer",
			"outputs": [],
			"stateMutability": "nonpayable",
			"type": "function"
		},
		{
			"inputs": [],
			"name": "houseBalance",
			"outputs": [
				{
					"internalType": "uint256",
					"name": "",
					"type": "uint256"
				}
			],
			"stateMutability": "view",
			"type": "function"
		},
		{
			"inputs": [
				{
					"internalType": "uint256",
					"name": "_betAmount",
					"type": "uint256"
				}
			],
			"name": "placeBet",
			"outputs": [],
			"stateMutability": "nonpayable",
			"type": "function"
		},
		{
			"inputs": [],
			"name": "playerBalance",
			"outputs": [
				{
					"internalType": "uint256",
					"name": "",
					"type": "uint256"
				}
			],
			"stateMutability": "view",
			"type": "function"
		},
		{
			"inputs": [],
			"name": "playerBusted",
			"outputs": [
				{
					"internalType": "uint256",
					"name": "",
					"type": "uint256"
				}
			],
			"stateMutability": "view",
			"type": "function"
		},
		{
			"inputs": [],
			"name": "playerCardCount",
			"outputs": [
				{
					"internalType": "uint256",
					"name": "",
					"type": "uint256"
				}
			],
			"stateMutability": "view",
			"type": "function"
		},
		{
			"inputs": [
				{
					"internalType": "uint256",
					"name": "",
					"type": "uint256"
				},
				{
					"internalType": "uint256",
					"name": "",
					"type": "uint256"
				}
			],
			"name": "playerHandValue",
			"outputs": [
				{
					"internalType": "uint256",
					"name": "",
					"type": "uint256"
				}
			],
			"stateMutability": "view",
			"type": "function"
		},
		{
			"inputs": [],
			"name": "playerStand",
			"outputs": [],
			"stateMutability": "nonpayable",
			"type": "function"
		},
		{
			"inputs": [],
			"name": "playerStands",
			"outputs": [
				{
					"internalType": "uint256",
					"name": "",
					"type": "uint256"
				}
			],
			"stateMutability": "view",
			"type": "function"
		},
		{
			"inputs": [
				{
					"internalType": "uint256",
					"name": "amount",
					"type": "uint256"
				}
			],
			"name": "playerWithdraw",
			"outputs": [],
			"stateMutability": "payable",
			"type": "function"
		},
		{
			"inputs": [
				{
					"internalType": "uint256",
					"name": "",
					"type": "uint256"
				},
				{
					"internalType": "uint256",
					"name": "",
					"type": "uint256"
				}
			],
			"name": "playersCards",
			"outputs": [
				{
					"internalType": "uint256",
					"name": "",
					"type": "uint256"
				}
			],
			"stateMutability": "view",
			"type": "function"
		}
	]
}