{
	"Group Projects/Group Project # 3_Rock_Paper_scissors/Project-3/Starter code/Coinflip game/test_game.sol": {
		"CoinFlip": {
			"abi": [
				{
					"constant": true,
					"inputs": [],
					"name": "BET_MAX",
					"outputs": [
						{
							"internalType": "uint256",
							"name": "",
							"type": "uint256"
						}
					],
					"payable": false,
					"stateMutability": "view",
					"type": "function"
				},
				{
					"constant": true,
					"inputs": [],
					"name": "BET_MIN",
					"outputs": [
						{
							"internalType": "uint256",
							"name": "",
							"type": "uint256"
						}
					],
					"payable": false,
					"stateMutability": "view",
					"type": "function"
				},
				{
					"constant": true,
					"inputs": [],
					"name": "getContractBalance",
					"outputs": [
						{
							"internalType": "uint256",
							"name": "",
							"type": "uint256"
						}
					],
					"payable": false,
					"stateMutability": "view",
					"type": "function"
				},
				{
					"constant": false,
					"inputs": [],
					"name": "getOutcome",
					"outputs": [
						{
							"internalType": "uint256",
							"name": "",
							"type": "uint256"
						}
					],
					"payable": false,
					"stateMutability": "nonpayable",
					"type": "function"
				},
				{
					"constant": true,
					"inputs": [],
					"name": "housePlayed",
					"outputs": [
						{
							"internalType": "uint256",
							"name": "",
							"type": "uint256"
						}
					],
					"payable": false,
					"stateMutability": "view",
					"type": "function"
				},
				{
					"constant": true,
					"inputs": [],
					"name": "initialBet",
					"outputs": [
						{
							"internalType": "uint256",
							"name": "",
							"type": "uint256"
						}
					],
					"payable": false,
					"stateMutability": "view",
					"type": "function"
				},
				{
					"constant": true,
					"inputs": [],
					"name": "outcome",
					"outputs": [
						{
							"internalType": "uint256",
							"name": "",
							"type": "uint256"
						}
					],
					"payable": false,
					"stateMutability": "view",
					"type": "function"
				},
				{
					"constant": true,
					"inputs": [],
					"name": "paid",
					"outputs": [
						{
							"internalType": "uint256",
							"name": "",
							"type": "uint256"
						}
					],
					"payable": false,
					"stateMutability": "view",
					"type": "function"
				},
				{
					"constant": true,
					"inputs": [],
					"name": "playerChoice",
					"outputs": [
						{
							"internalType": "uint256",
							"name": "",
							"type": "uint256"
						}
					],
					"payable": false,
					"stateMutability": "view",
					"type": "function"
				},
				{
					"constant": false,
					"inputs": [
						{
							"internalType": "uint256",
							"name": "choice",
							"type": "uint256"
						}
					],
					"name": "playerChooses",
					"outputs": [],
					"payable": false,
					"stateMutability": "nonpayable",
					"type": "function"
				},
				{
					"constant": true,
					"inputs": [],
					"name": "playerPlayed",
					"outputs": [
						{
							"internalType": "uint256",
							"name": "",
							"type": "uint256"
						}
					],
					"payable": false,
					"stateMutability": "view",
					"type": "function"
				},
				{
					"constant": true,
					"inputs": [],
					"name": "randomNum",
					"outputs": [
						{
							"internalType": "uint256",
							"name": "",
							"type": "uint256"
						}
					],
					"payable": false,
					"stateMutability": "view",
					"type": "function"
				},
				{
					"constant": false,
					"inputs": [],
					"name": "register",
					"outputs": [],
					"payable": true,
					"stateMutability": "payable",
					"type": "function"
				},
				{
					"constant": false,
					"inputs": [],
					"name": "reset_contract",
					"outputs": [],
					"payable": false,
					"stateMutability": "nonpayable",
					"type": "function"
				},
				{
					"constant": true,
					"inputs": [],
					"name": "whoAmI",
					"outputs": [
						{
							"internalType": "uint256",
							"name": "",
							"type": "uint256"
						}
					],
					"payable": false,
					"stateMutability": "view",
					"type": "function"
				}
			],
			"devdoc": {
				"methods": {}
			},
			"evm": {
				"assembly": "    /* \"Group Projects/Group Project # 3_Rock_Paper_scissors/Project-3/Starter code/Coinflip game/test_game.sol\":25:4582  contract CoinFlip {... */\n  mstore(0x40, 0x80)\n    /* \"Group Projects/Group Project # 3_Rock_Paper_scissors/Project-3/Starter code/Coinflip game/test_game.sol\":329:330  0 */\n  0x00\n    /* \"Group Projects/Group Project # 3_Rock_Paper_scissors/Project-3/Starter code/Coinflip game/test_game.sol\":303:330  uint public housePlayed = 0 */\n  0x03\n  sstore\n    /* \"Group Projects/Group Project # 3_Rock_Paper_scissors/Project-3/Starter code/Coinflip game/test_game.sol\":363:364  0 */\n  0x00\n    /* \"Group Projects/Group Project # 3_Rock_Paper_scissors/Project-3/Starter code/Coinflip game/test_game.sol\":336:364  uint public playerPlayed = 0 */\n  0x04\n  sstore\n    /* \"Group Projects/Group Project # 3_Rock_Paper_scissors/Project-3/Starter code/Coinflip game/test_game.sol\":397:398  0 */\n  0x00\n    /* \"Group Projects/Group Project # 3_Rock_Paper_scissors/Project-3/Starter code/Coinflip game/test_game.sol\":370:398  uint public playerChoice = 0 */\n  0x05\n  sstore\n    /* \"Group Projects/Group Project # 3_Rock_Paper_scissors/Project-3/Starter code/Coinflip game/test_game.sol\":431:432  0 */\n  0x00\n    /* \"Group Projects/Group Project # 3_Rock_Paper_scissors/Project-3/Starter code/Coinflip game/test_game.sol\":404:432  uint public paid         = 0 */\n  0x06\n  sstore\n    /* \"Group Projects/Group Project # 3_Rock_Paper_scissors/Project-3/Starter code/Coinflip game/test_game.sol\":25:4582  contract CoinFlip {... */\n  callvalue\n    /* \"--CODEGEN--\":8:17   */\n  dup1\n    /* \"--CODEGEN--\":5:7   */\n  iszero\n  tag_1\n  jumpi\n    /* \"--CODEGEN--\":30:31   */\n  0x00\n    /* \"--CODEGEN--\":27:28   */\n  dup1\n    /* \"--CODEGEN--\":20:32   */\n  revert\n    /* \"--CODEGEN--\":5:7   */\ntag_1:\n    /* \"Group Projects/Group Project # 3_Rock_Paper_scissors/Project-3/Starter code/Coinflip game/test_game.sol\":25:4582  contract CoinFlip {... */\n  pop\n  dataSize(sub_0)\n  dup1\n  dataOffset(sub_0)\n  0x00\n  codecopy\n  0x00\n  return\nstop\n\nsub_0: assembly {\n        /* \"Group Projects/Group Project # 3_Rock_Paper_scissors/Project-3/Starter code/Coinflip game/test_game.sol\":25:4582  contract CoinFlip {... */\n      mstore(0x40, 0x80)\n      jumpi(tag_1, lt(calldatasize, 0x04))\n      shr(0xe0, calldataload(0x00))\n      dup1\n      0x7e7e4b47\n      gt\n      tag_17\n      jumpi\n      dup1\n      0xda91254c\n      gt\n      tag_18\n      jumpi\n      dup1\n      0xda91254c\n      eq\n      tag_13\n      jumpi\n      dup1\n      0xe92788d6\n      eq\n      tag_14\n      jumpi\n      dup1\n      0xf630aa65\n      eq\n      tag_15\n      jumpi\n      dup1\n      0xfc98f42e\n      eq\n      tag_16\n      jumpi\n      jump(tag_1)\n    tag_18:\n      dup1\n      0x7e7e4b47\n      eq\n      tag_9\n      jumpi\n      dup1\n      0x8e687aed\n      eq\n      tag_10\n      jumpi\n      dup1\n      0xadef7cdd\n      eq\n      tag_11\n      jumpi\n      dup1\n      0xd0017a0c\n      eq\n      tag_12\n      jumpi\n      jump(tag_1)\n    tag_17:\n      dup1\n      0x27793f87\n      gt\n      tag_19\n      jumpi\n      dup1\n      0x27793f87\n      eq\n      tag_5\n      jumpi\n      dup1\n      0x295b4e17\n      eq\n      tag_6\n      jumpi\n      dup1\n      0x4e22fb5b\n      eq\n      tag_7\n      jumpi\n      dup1\n      0x6f9fb98a\n      eq\n      tag_8\n      jumpi\n      jump(tag_1)\n    tag_19:\n      dup1\n      0x1aa3a008\n      eq\n      tag_2\n      jumpi\n      dup1\n      0x1d73c64c\n      eq\n      tag_3\n      jumpi\n      dup1\n      0x2626ab08\n      eq\n      tag_4\n      jumpi\n    tag_1:\n      0x00\n      dup1\n      revert\n        /* \"Group Projects/Group Project # 3_Rock_Paper_scissors/Project-3/Starter code/Coinflip game/test_game.sol\":1122:1557  function register() public payable validBet notAlreadyRegistered {... */\n    tag_2:\n      tag_20\n      tag_21\n      jump\t// in\n    tag_20:\n      stop\n        /* \"Group Projects/Group Project # 3_Rock_Paper_scissors/Project-3/Starter code/Coinflip game/test_game.sol\":173:195  uint public initialBet */\n    tag_3:\n      callvalue\n        /* \"--CODEGEN--\":8:17   */\n      dup1\n        /* \"--CODEGEN--\":5:7   */\n      iszero\n      tag_22\n      jumpi\n        /* \"--CODEGEN--\":30:31   */\n      0x00\n        /* \"--CODEGEN--\":27:28   */\n      dup1\n        /* \"--CODEGEN--\":20:32   */\n      revert\n        /* \"--CODEGEN--\":5:7   */\n    tag_22:\n        /* \"Group Projects/Group Project # 3_Rock_Paper_scissors/Project-3/Starter code/Coinflip game/test_game.sol\":173:195  uint public initialBet */\n      pop\n      tag_23\n      tag_24\n      jump\t// in\n    tag_23:\n      mload(0x40)\n      dup1\n      dup3\n      dup2\n      mstore\n      0x20\n      add\n      swap2\n      pop\n      pop\n      mload(0x40)\n      dup1\n      swap2\n      sub\n      swap1\n      return\n        /* \"Group Projects/Group Project # 3_Rock_Paper_scissors/Project-3/Starter code/Coinflip game/test_game.sol\":50:93  uint constant public BET_MIN        = 1 wei */\n    tag_4:\n      callvalue\n        /* \"--CODEGEN--\":8:17   */\n      dup1\n        /* \"--CODEGEN--\":5:7   */\n      iszero\n      tag_25\n      jumpi\n        /* \"--CODEGEN--\":30:31   */\n      0x00\n        /* \"--CODEGEN--\":27:28   */\n      dup1\n        /* \"--CODEGEN--\":20:32   */\n      revert\n        /* \"--CODEGEN--\":5:7   */\n    tag_25:\n        /* \"Group Projects/Group Project # 3_Rock_Paper_scissors/Project-3/Starter code/Coinflip game/test_game.sol\":50:93  uint constant public BET_MIN        = 1 wei */\n      pop\n      tag_26\n      tag_27\n      jump\t// in\n    tag_26:\n      mload(0x40)\n      dup1\n      dup3\n      dup2\n      mstore\n      0x20\n      add\n      swap2\n      pop\n      pop\n      mload(0x40)\n      dup1\n      swap2\n      sub\n      swap1\n      return\n        /* \"Group Projects/Group Project # 3_Rock_Paper_scissors/Project-3/Starter code/Coinflip game/test_game.sol\":251:270  uint public outcome */\n    tag_5:\n      callvalue\n        /* \"--CODEGEN--\":8:17   */\n      dup1\n        /* \"--CODEGEN--\":5:7   */\n      iszero\n      tag_28\n      jumpi\n        /* \"--CODEGEN--\":30:31   */\n      0x00\n        /* \"--CODEGEN--\":27:28   */\n      dup1\n        /* \"--CODEGEN--\":20:32   */\n      revert\n        /* \"--CODEGEN--\":5:7   */\n    tag_28:\n        /* \"Group Projects/Group Project # 3_Rock_Paper_scissors/Project-3/Starter code/Coinflip game/test_game.sol\":251:270  uint public outcome */\n      pop\n      tag_29\n      tag_30\n      jump\t// in\n    tag_29:\n      mload(0x40)\n      dup1\n      dup3\n      dup2\n      mstore\n      0x20\n      add\n      swap2\n      pop\n      pop\n      mload(0x40)\n      dup1\n      swap2\n      sub\n      swap1\n      return\n        /* \"Group Projects/Group Project # 3_Rock_Paper_scissors/Project-3/Starter code/Coinflip game/test_game.sol\":404:432  uint public paid         = 0 */\n    tag_6:\n      callvalue\n        /* \"--CODEGEN--\":8:17   */\n      dup1\n        /* \"--CODEGEN--\":5:7   */\n      iszero\n      tag_31\n      jumpi\n        /* \"--CODEGEN--\":30:31   */\n      0x00\n        /* \"--CODEGEN--\":27:28   */\n      dup1\n        /* \"--CODEGEN--\":20:32   */\n      revert\n        /* \"--CODEGEN--\":5:7   */\n    tag_31:\n        /* \"Group Projects/Group Project # 3_Rock_Paper_scissors/Project-3/Starter code/Coinflip game/test_game.sol\":404:432  uint public paid         = 0 */\n      pop\n      tag_32\n      tag_33\n      jump\t// in\n    tag_32:\n      mload(0x40)\n      dup1\n      dup3\n      dup2\n      mstore\n      0x20\n      add\n      swap2\n      pop\n      pop\n      mload(0x40)\n      dup1\n      swap2\n      sub\n      swap1\n      return\n        /* \"Group Projects/Group Project # 3_Rock_Paper_scissors/Project-3/Starter code/Coinflip game/test_game.sol\":4353:4580  function reset_contract() public game_has_outcome {... */\n    tag_7:\n      callvalue\n        /* \"--CODEGEN--\":8:17   */\n      dup1\n        /* \"--CODEGEN--\":5:7   */\n      iszero\n      tag_34\n      jumpi\n        /* \"--CODEGEN--\":30:31   */\n      0x00\n        /* \"--CODEGEN--\":27:28   */\n      dup1\n        /* \"--CODEGEN--\":20:32   */\n      revert\n        /* \"--CODEGEN--\":5:7   */\n    tag_34:\n        /* \"Group Projects/Group Project # 3_Rock_Paper_scissors/Project-3/Starter code/Coinflip game/test_game.sol\":4353:4580  function reset_contract() public game_has_outcome {... */\n      pop\n      tag_35\n      tag_36\n      jump\t// in\n    tag_35:\n      stop\n        /* \"Group Projects/Group Project # 3_Rock_Paper_scissors/Project-3/Starter code/Coinflip game/test_game.sol\":3944:4046  function getContractBalance() public view returns (uint) {... */\n    tag_8:\n      callvalue\n        /* \"--CODEGEN--\":8:17   */\n      dup1\n        /* \"--CODEGEN--\":5:7   */\n      iszero\n      tag_37\n      jumpi\n        /* \"--CODEGEN--\":30:31   */\n      0x00\n        /* \"--CODEGEN--\":27:28   */\n      dup1\n        /* \"--CODEGEN--\":20:32   */\n      revert\n        /* \"--CODEGEN--\":5:7   */\n    tag_37:\n        /* \"Group Projects/Group Project # 3_Rock_Paper_scissors/Project-3/Starter code/Coinflip game/test_game.sol\":3944:4046  function getContractBalance() public view returns (uint) {... */\n      pop\n      tag_38\n      tag_39\n      jump\t// in\n    tag_38:\n      mload(0x40)\n      dup1\n      dup3\n      dup2\n      mstore\n      0x20\n      add\n      swap2\n      pop\n      pop\n      mload(0x40)\n      dup1\n      swap2\n      sub\n      swap1\n      return\n        /* \"Group Projects/Group Project # 3_Rock_Paper_scissors/Project-3/Starter code/Coinflip game/test_game.sol\":2388:3382  function getOutcome() public has_player_played returns (uint) {... */\n    tag_9:\n      callvalue\n        /* \"--CODEGEN--\":8:17   */\n      dup1\n        /* \"--CODEGEN--\":5:7   */\n      iszero\n      tag_40\n      jumpi\n        /* \"--CODEGEN--\":30:31   */\n      0x00\n        /* \"--CODEGEN--\":27:28   */\n      dup1\n        /* \"--CODEGEN--\":20:32   */\n      revert\n        /* \"--CODEGEN--\":5:7   */\n    tag_40:\n        /* \"Group Projects/Group Project # 3_Rock_Paper_scissors/Project-3/Starter code/Coinflip game/test_game.sol\":2388:3382  function getOutcome() public has_player_played returns (uint) {... */\n      pop\n      tag_41\n      tag_42\n      jump\t// in\n    tag_41:\n      mload(0x40)\n      dup1\n      dup3\n      dup2\n      mstore\n      0x20\n      add\n      swap2\n      pop\n      pop\n      mload(0x40)\n      dup1\n      swap2\n      sub\n      swap1\n      return\n        /* \"Group Projects/Group Project # 3_Rock_Paper_scissors/Project-3/Starter code/Coinflip game/test_game.sol\":336:364  uint public playerPlayed = 0 */\n    tag_10:\n      callvalue\n        /* \"--CODEGEN--\":8:17   */\n      dup1\n        /* \"--CODEGEN--\":5:7   */\n      iszero\n      tag_43\n      jumpi\n        /* \"--CODEGEN--\":30:31   */\n      0x00\n        /* \"--CODEGEN--\":27:28   */\n      dup1\n        /* \"--CODEGEN--\":20:32   */\n      revert\n        /* \"--CODEGEN--\":5:7   */\n    tag_43:\n        /* \"Group Projects/Group Project # 3_Rock_Paper_scissors/Project-3/Starter code/Coinflip game/test_game.sol\":336:364  uint public playerPlayed = 0 */\n      pop\n      tag_44\n      tag_45\n      jump\t// in\n    tag_44:\n      mload(0x40)\n      dup1\n      dup3\n      dup2\n      mstore\n      0x20\n      add\n      swap2\n      pop\n      pop\n      mload(0x40)\n      dup1\n      swap2\n      sub\n      swap1\n      return\n        /* \"Group Projects/Group Project # 3_Rock_Paper_scissors/Project-3/Starter code/Coinflip game/test_game.sol\":370:398  uint public playerChoice = 0 */\n    tag_11:\n      callvalue\n        /* \"--CODEGEN--\":8:17   */\n      dup1\n        /* \"--CODEGEN--\":5:7   */\n      iszero\n      tag_46\n      jumpi\n        /* \"--CODEGEN--\":30:31   */\n      0x00\n        /* \"--CODEGEN--\":27:28   */\n      dup1\n        /* \"--CODEGEN--\":20:32   */\n      revert\n        /* \"--CODEGEN--\":5:7   */\n    tag_46:\n        /* \"Group Projects/Group Project # 3_Rock_Paper_scissors/Project-3/Starter code/Coinflip game/test_game.sol\":370:398  uint public playerChoice = 0 */\n      pop\n      tag_47\n      tag_48\n      jump\t// in\n    tag_47:\n      mload(0x40)\n      dup1\n      dup3\n      dup2\n      mstore\n      0x20\n      add\n      swap2\n      pop\n      pop\n      mload(0x40)\n      dup1\n      swap2\n      sub\n      swap1\n      return\n        /* \"Group Projects/Group Project # 3_Rock_Paper_scissors/Project-3/Starter code/Coinflip game/test_game.sol\":121:167  uint constant public BET_MAX        = 10 ether */\n    tag_12:\n      callvalue\n        /* \"--CODEGEN--\":8:17   */\n      dup1\n        /* \"--CODEGEN--\":5:7   */\n      iszero\n      tag_49\n      jumpi\n        /* \"--CODEGEN--\":30:31   */\n      0x00\n        /* \"--CODEGEN--\":27:28   */\n      dup1\n        /* \"--CODEGEN--\":20:32   */\n      revert\n        /* \"--CODEGEN--\":5:7   */\n    tag_49:\n        /* \"Group Projects/Group Project # 3_Rock_Paper_scissors/Project-3/Starter code/Coinflip game/test_game.sol\":121:167  uint constant public BET_MAX        = 10 ether */\n      pop\n      tag_50\n      tag_51\n      jump\t// in\n    tag_50:\n      mload(0x40)\n      dup1\n      dup3\n      dup2\n      mstore\n      0x20\n      add\n      swap2\n      pop\n      pop\n      mload(0x40)\n      dup1\n      swap2\n      sub\n      swap1\n      return\n        /* \"Group Projects/Group Project # 3_Rock_Paper_scissors/Project-3/Starter code/Coinflip game/test_game.sol\":4078:4264  function whoAmI() public view returns (uint) {... */\n    tag_13:\n      callvalue\n        /* \"--CODEGEN--\":8:17   */\n      dup1\n        /* \"--CODEGEN--\":5:7   */\n      iszero\n      tag_52\n      jumpi\n        /* \"--CODEGEN--\":30:31   */\n      0x00\n        /* \"--CODEGEN--\":27:28   */\n      dup1\n        /* \"--CODEGEN--\":20:32   */\n      revert\n        /* \"--CODEGEN--\":5:7   */\n    tag_52:\n        /* \"Group Projects/Group Project # 3_Rock_Paper_scissors/Project-3/Starter code/Coinflip game/test_game.sol\":4078:4264  function whoAmI() public view returns (uint) {... */\n      pop\n      tag_53\n      tag_54\n      jump\t// in\n    tag_53:\n      mload(0x40)\n      dup1\n      dup3\n      dup2\n      mstore\n      0x20\n      add\n      swap2\n      pop\n      pop\n      mload(0x40)\n      dup1\n      swap2\n      sub\n      swap1\n      return\n        /* \"Group Projects/Group Project # 3_Rock_Paper_scissors/Project-3/Starter code/Coinflip game/test_game.sol\":2145:2287  function playerChooses(uint choice) public player_never_played is_caller_player is_legal_play(choice) {... */\n    tag_14:\n      callvalue\n        /* \"--CODEGEN--\":8:17   */\n      dup1\n        /* \"--CODEGEN--\":5:7   */\n      iszero\n      tag_55\n      jumpi\n        /* \"--CODEGEN--\":30:31   */\n      0x00\n        /* \"--CODEGEN--\":27:28   */\n      dup1\n        /* \"--CODEGEN--\":20:32   */\n      revert\n        /* \"--CODEGEN--\":5:7   */\n    tag_55:\n        /* \"Group Projects/Group Project # 3_Rock_Paper_scissors/Project-3/Starter code/Coinflip game/test_game.sol\":2145:2287  function playerChooses(uint choice) public player_never_played is_caller_player is_legal_play(choice) {... */\n      pop\n      tag_56\n      0x04\n      dup1\n      calldatasize\n      sub\n        /* \"--CODEGEN--\":13:15   */\n      0x20\n        /* \"--CODEGEN--\":8:11   */\n      dup2\n        /* \"--CODEGEN--\":5:16   */\n      lt\n        /* \"--CODEGEN--\":2:4   */\n      iszero\n      tag_57\n      jumpi\n        /* \"--CODEGEN--\":29:30   */\n      0x00\n        /* \"--CODEGEN--\":26:27   */\n      dup1\n        /* \"--CODEGEN--\":19:31   */\n      revert\n        /* \"--CODEGEN--\":2:4   */\n    tag_57:\n        /* \"Group Projects/Group Project # 3_Rock_Paper_scissors/Project-3/Starter code/Coinflip game/test_game.sol\":2145:2287  function playerChooses(uint choice) public player_never_played is_caller_player is_legal_play(choice) {... */\n      dup2\n      add\n      swap1\n      dup1\n      dup1\n      calldataload\n      swap1\n      0x20\n      add\n      swap1\n      swap3\n      swap2\n      swap1\n      pop\n      pop\n      pop\n      tag_58\n      jump\t// in\n    tag_56:\n      stop\n        /* \"Group Projects/Group Project # 3_Rock_Paper_scissors/Project-3/Starter code/Coinflip game/test_game.sol\":276:297  uint public randomNum */\n    tag_15:\n      callvalue\n        /* \"--CODEGEN--\":8:17   */\n      dup1\n        /* \"--CODEGEN--\":5:7   */\n      iszero\n      tag_59\n      jumpi\n        /* \"--CODEGEN--\":30:31   */\n      0x00\n        /* \"--CODEGEN--\":27:28   */\n      dup1\n        /* \"--CODEGEN--\":20:32   */\n      revert\n        /* \"--CODEGEN--\":5:7   */\n    tag_59:\n        /* \"Group Projects/Group Project # 3_Rock_Paper_scissors/Project-3/Starter code/Coinflip game/test_game.sol\":276:297  uint public randomNum */\n      pop\n      tag_60\n      tag_61\n      jump\t// in\n    tag_60:\n      mload(0x40)\n      dup1\n      dup3\n      dup2\n      mstore\n      0x20\n      add\n      swap2\n      pop\n      pop\n      mload(0x40)\n      dup1\n      swap2\n      sub\n      swap1\n      return\n        /* \"Group Projects/Group Project # 3_Rock_Paper_scissors/Project-3/Starter code/Coinflip game/test_game.sol\":303:330  uint public housePlayed = 0 */\n    tag_16:\n      callvalue\n        /* \"--CODEGEN--\":8:17   */\n      dup1\n        /* \"--CODEGEN--\":5:7   */\n      iszero\n      tag_62\n      jumpi\n        /* \"--CODEGEN--\":30:31   */\n      0x00\n        /* \"--CODEGEN--\":27:28   */\n      dup1\n        /* \"--CODEGEN--\":20:32   */\n      revert\n        /* \"--CODEGEN--\":5:7   */\n    tag_62:\n        /* \"Group Projects/Group Project # 3_Rock_Paper_scissors/Project-3/Starter code/Coinflip game/test_game.sol\":303:330  uint public housePlayed = 0 */\n      pop\n      tag_63\n      tag_64\n      jump\t// in\n    tag_63:\n      mload(0x40)\n      dup1\n      dup3\n      dup2\n      mstore\n      0x20\n      add\n      swap2\n      pop\n      pop\n      mload(0x40)\n      dup1\n      swap2\n      sub\n      swap1\n      return\n        /* \"Group Projects/Group Project # 3_Rock_Paper_scissors/Project-3/Starter code/Coinflip game/test_game.sol\":1122:1557  function register() public payable validBet notAlreadyRegistered {... */\n    tag_21:\n        /* \"Group Projects/Group Project # 3_Rock_Paper_scissors/Project-3/Starter code/Coinflip game/test_game.sol\":88:93  1 wei */\n      0x01\n        /* \"Group Projects/Group Project # 3_Rock_Paper_scissors/Project-3/Starter code/Coinflip game/test_game.sol\":871:880  msg.value */\n      callvalue\n        /* \"Group Projects/Group Project # 3_Rock_Paper_scissors/Project-3/Starter code/Coinflip game/test_game.sol\":871:891  msg.value >= BET_MIN */\n      lt\n      iszero\n        /* \"Group Projects/Group Project # 3_Rock_Paper_scissors/Project-3/Starter code/Coinflip game/test_game.sol\":863:892  require(msg.value >= BET_MIN) */\n      tag_66\n      jumpi\n      0x00\n      dup1\n      revert\n    tag_66:\n        /* \"Group Projects/Group Project # 3_Rock_Paper_scissors/Project-3/Starter code/Coinflip game/test_game.sol\":159:167  10 ether */\n      0x8ac7230489e80000\n        /* \"Group Projects/Group Project # 3_Rock_Paper_scissors/Project-3/Starter code/Coinflip game/test_game.sol\":910:919  msg.value */\n      callvalue\n        /* \"Group Projects/Group Project # 3_Rock_Paper_scissors/Project-3/Starter code/Coinflip game/test_game.sol\":910:930  msg.value <= BET_MAX */\n      gt\n      iszero\n        /* \"Group Projects/Group Project # 3_Rock_Paper_scissors/Project-3/Starter code/Coinflip game/test_game.sol\":902:931  require(msg.value <= BET_MAX) */\n      tag_67\n      jumpi\n      0x00\n      dup1\n      revert\n    tag_67:\n        /* \"Group Projects/Group Project # 3_Rock_Paper_scissors/Project-3/Starter code/Coinflip game/test_game.sol\":963:964  0 */\n      0x00\n        /* \"Group Projects/Group Project # 3_Rock_Paper_scissors/Project-3/Starter code/Coinflip game/test_game.sol\":949:959  initialBet */\n      dup1\n      sload\n        /* \"Group Projects/Group Project # 3_Rock_Paper_scissors/Project-3/Starter code/Coinflip game/test_game.sol\":949:964  initialBet == 0 */\n      eq\n        /* \"Group Projects/Group Project # 3_Rock_Paper_scissors/Project-3/Starter code/Coinflip game/test_game.sol\":949:991  initialBet == 0 || msg.value >= initialBet */\n      dup1\n      tag_68\n      jumpi\n      pop\n        /* \"Group Projects/Group Project # 3_Rock_Paper_scissors/Project-3/Starter code/Coinflip game/test_game.sol\":981:991  initialBet */\n      sload(0x00)\n        /* \"Group Projects/Group Project # 3_Rock_Paper_scissors/Project-3/Starter code/Coinflip game/test_game.sol\":968:977  msg.value */\n      callvalue\n        /* \"Group Projects/Group Project # 3_Rock_Paper_scissors/Project-3/Starter code/Coinflip game/test_game.sol\":968:991  msg.value >= initialBet */\n      lt\n      iszero\n        /* \"Group Projects/Group Project # 3_Rock_Paper_scissors/Project-3/Starter code/Coinflip game/test_game.sol\":949:991  initialBet == 0 || msg.value >= initialBet */\n    tag_68:\n        /* \"Group Projects/Group Project # 3_Rock_Paper_scissors/Project-3/Starter code/Coinflip game/test_game.sol\":941:992  require(initialBet == 0 || msg.value >= initialBet) */\n      tag_69\n      jumpi\n      0x00\n      dup1\n      revert\n    tag_69:\n        /* \"Group Projects/Group Project # 3_Rock_Paper_scissors/Project-3/Starter code/Coinflip game/test_game.sol\":1080:1087  playerA */\n      0x07\n      0x00\n      swap1\n      sload\n      swap1\n      0x0100\n      exp\n      swap1\n      div\n      0xffffffffffffffffffffffffffffffffffffffff\n      and\n        /* \"Group Projects/Group Project # 3_Rock_Paper_scissors/Project-3/Starter code/Coinflip game/test_game.sol\":1066:1087  msg.sender != playerA */\n      0xffffffffffffffffffffffffffffffffffffffff\n      and\n        /* \"Group Projects/Group Project # 3_Rock_Paper_scissors/Project-3/Starter code/Coinflip game/test_game.sol\":1066:1076  msg.sender */\n      caller\n        /* \"Group Projects/Group Project # 3_Rock_Paper_scissors/Project-3/Starter code/Coinflip game/test_game.sol\":1066:1087  msg.sender != playerA */\n      0xffffffffffffffffffffffffffffffffffffffff\n      and\n      eq\n      iszero\n        /* \"Group Projects/Group Project # 3_Rock_Paper_scissors/Project-3/Starter code/Coinflip game/test_game.sol\":1058:1088  require(msg.sender != playerA) */\n      tag_71\n      jumpi\n      0x00\n      dup1\n      revert\n    tag_71:\n        /* \"Group Projects/Group Project # 3_Rock_Paper_scissors/Project-3/Starter code/Coinflip game/test_game.sol\":1233:1236  0x0 */\n      0x00\n        /* \"Group Projects/Group Project # 3_Rock_Paper_scissors/Project-3/Starter code/Coinflip game/test_game.sol\":1210:1237  HouseWallet == address(0x0) */\n      0xffffffffffffffffffffffffffffffffffffffff\n      and\n        /* \"Group Projects/Group Project # 3_Rock_Paper_scissors/Project-3/Starter code/Coinflip game/test_game.sol\":1210:1221  HouseWallet */\n      0x08\n      0x00\n      swap1\n      sload\n      swap1\n      0x0100\n      exp\n      swap1\n      div\n      0xffffffffffffffffffffffffffffffffffffffff\n      and\n        /* \"Group Projects/Group Project # 3_Rock_Paper_scissors/Project-3/Starter code/Coinflip game/test_game.sol\":1210:1237  HouseWallet == address(0x0) */\n      0xffffffffffffffffffffffffffffffffffffffff\n      and\n      eq\n        /* \"Group Projects/Group Project # 3_Rock_Paper_scissors/Project-3/Starter code/Coinflip game/test_game.sol\":1206:1532  if (HouseWallet == address(0x0)) {... */\n      iszero\n      tag_73\n      jumpi\n        /* \"Group Projects/Group Project # 3_Rock_Paper_scissors/Project-3/Starter code/Coinflip game/test_game.sol\":1267:1277  msg.sender */\n      caller\n        /* \"Group Projects/Group Project # 3_Rock_Paper_scissors/Project-3/Starter code/Coinflip game/test_game.sol\":1253:1264  HouseWallet */\n      0x08\n      0x00\n        /* \"Group Projects/Group Project # 3_Rock_Paper_scissors/Project-3/Starter code/Coinflip game/test_game.sol\":1253:1277  HouseWallet = msg.sender */\n      0x0100\n      exp\n      dup2\n      sload\n      dup2\n      0xffffffffffffffffffffffffffffffffffffffff\n      mul\n      not\n      and\n      swap1\n      dup4\n      0xffffffffffffffffffffffffffffffffffffffff\n      and\n      mul\n      or\n      swap1\n      sstore\n      pop\n        /* \"Group Projects/Group Project # 3_Rock_Paper_scissors/Project-3/Starter code/Coinflip game/test_game.sol\":1305:1314  msg.value */\n      callvalue\n        /* \"Group Projects/Group Project # 3_Rock_Paper_scissors/Project-3/Starter code/Coinflip game/test_game.sol\":1291:1302  housePlayed */\n      0x03\n        /* \"Group Projects/Group Project # 3_Rock_Paper_scissors/Project-3/Starter code/Coinflip game/test_game.sol\":1291:1314  housePlayed = msg.value */\n      dup2\n      swap1\n      sstore\n      pop\n        /* \"Group Projects/Group Project # 3_Rock_Paper_scissors/Project-3/Starter code/Coinflip game/test_game.sol\":1206:1532  if (HouseWallet == address(0x0)) {... */\n      jump(tag_74)\n    tag_73:\n        /* \"Group Projects/Group Project # 3_Rock_Paper_scissors/Project-3/Starter code/Coinflip game/test_game.sol\":1365:1368  0x0 */\n      0x00\n        /* \"Group Projects/Group Project # 3_Rock_Paper_scissors/Project-3/Starter code/Coinflip game/test_game.sol\":1346:1369  playerA == address(0x0) */\n      0xffffffffffffffffffffffffffffffffffffffff\n      and\n        /* \"Group Projects/Group Project # 3_Rock_Paper_scissors/Project-3/Starter code/Coinflip game/test_game.sol\":1346:1353  playerA */\n      0x07\n      0x00\n      swap1\n      sload\n      swap1\n      0x0100\n      exp\n      swap1\n      div\n      0xffffffffffffffffffffffffffffffffffffffff\n      and\n        /* \"Group Projects/Group Project # 3_Rock_Paper_scissors/Project-3/Starter code/Coinflip game/test_game.sol\":1346:1369  playerA == address(0x0) */\n      0xffffffffffffffffffffffffffffffffffffffff\n      and\n      eq\n        /* \"Group Projects/Group Project # 3_Rock_Paper_scissors/Project-3/Starter code/Coinflip game/test_game.sol\":1346:1400  playerA == address(0x0) && HouseWallet != address(0x0) */\n      dup1\n      iszero\n      tag_75\n      jumpi\n      pop\n        /* \"Group Projects/Group Project # 3_Rock_Paper_scissors/Project-3/Starter code/Coinflip game/test_game.sol\":1396:1399  0x0 */\n      0x00\n        /* \"Group Projects/Group Project # 3_Rock_Paper_scissors/Project-3/Starter code/Coinflip game/test_game.sol\":1373:1400  HouseWallet != address(0x0) */\n      0xffffffffffffffffffffffffffffffffffffffff\n      and\n        /* \"Group Projects/Group Project # 3_Rock_Paper_scissors/Project-3/Starter code/Coinflip game/test_game.sol\":1373:1384  HouseWallet */\n      0x08\n      0x00\n      swap1\n      sload\n      swap1\n      0x0100\n      exp\n      swap1\n      div\n      0xffffffffffffffffffffffffffffffffffffffff\n      and\n        /* \"Group Projects/Group Project # 3_Rock_Paper_scissors/Project-3/Starter code/Coinflip game/test_game.sol\":1373:1400  HouseWallet != address(0x0) */\n      0xffffffffffffffffffffffffffffffffffffffff\n      and\n      eq\n      iszero\n        /* \"Group Projects/Group Project # 3_Rock_Paper_scissors/Project-3/Starter code/Coinflip game/test_game.sol\":1346:1400  playerA == address(0x0) && HouseWallet != address(0x0) */\n    tag_75:\n        /* \"Group Projects/Group Project # 3_Rock_Paper_scissors/Project-3/Starter code/Coinflip game/test_game.sol\":1341:1532  if ( playerA == address(0x0) && HouseWallet != address(0x0) ) {... */\n      iszero\n      tag_76\n      jumpi\n        /* \"Group Projects/Group Project # 3_Rock_Paper_scissors/Project-3/Starter code/Coinflip game/test_game.sol\":1430:1440  msg.sender */\n      caller\n        /* \"Group Projects/Group Project # 3_Rock_Paper_scissors/Project-3/Starter code/Coinflip game/test_game.sol\":1417:1424  playerA */\n      0x07\n      0x00\n        /* \"Group Projects/Group Project # 3_Rock_Paper_scissors/Project-3/Starter code/Coinflip game/test_game.sol\":1417:1440  playerA    = msg.sender */\n      0x0100\n      exp\n      dup2\n      sload\n      dup2\n      0xffffffffffffffffffffffffffffffffffffffff\n      mul\n      not\n      and\n      swap1\n      dup4\n      0xffffffffffffffffffffffffffffffffffffffff\n      and\n      mul\n      or\n      swap1\n      sstore\n      pop\n        /* \"Group Projects/Group Project # 3_Rock_Paper_scissors/Project-3/Starter code/Coinflip game/test_game.sol\":1467:1476  msg.value */\n      callvalue\n        /* \"Group Projects/Group Project # 3_Rock_Paper_scissors/Project-3/Starter code/Coinflip game/test_game.sol\":1454:1464  initialBet */\n      0x00\n        /* \"Group Projects/Group Project # 3_Rock_Paper_scissors/Project-3/Starter code/Coinflip game/test_game.sol\":1454:1476  initialBet = msg.value */\n      dup2\n      swap1\n      sstore\n      pop\n        /* \"Group Projects/Group Project # 3_Rock_Paper_scissors/Project-3/Starter code/Coinflip game/test_game.sol\":1505:1514  msg.value */\n      callvalue\n        /* \"Group Projects/Group Project # 3_Rock_Paper_scissors/Project-3/Starter code/Coinflip game/test_game.sol\":1490:1502  playerPlayed */\n      0x04\n        /* \"Group Projects/Group Project # 3_Rock_Paper_scissors/Project-3/Starter code/Coinflip game/test_game.sol\":1490:1514  playerPlayed = msg.value */\n      dup2\n      swap1\n      sstore\n      pop\n        /* \"Group Projects/Group Project # 3_Rock_Paper_scissors/Project-3/Starter code/Coinflip game/test_game.sol\":1341:1532  if ( playerA == address(0x0) && HouseWallet != address(0x0) ) {... */\n    tag_76:\n        /* \"Group Projects/Group Project # 3_Rock_Paper_scissors/Project-3/Starter code/Coinflip game/test_game.sol\":1206:1532  if (HouseWallet == address(0x0)) {... */\n    tag_74:\n        /* \"Group Projects/Group Project # 3_Rock_Paper_scissors/Project-3/Starter code/Coinflip game/test_game.sol\":1122:1557  function register() public payable validBet notAlreadyRegistered {... */\n      jump\t// out\n        /* \"Group Projects/Group Project # 3_Rock_Paper_scissors/Project-3/Starter code/Coinflip game/test_game.sol\":173:195  uint public initialBet */\n    tag_24:\n      sload(0x00)\n      dup2\n      jump\t// out\n        /* \"Group Projects/Group Project # 3_Rock_Paper_scissors/Project-3/Starter code/Coinflip game/test_game.sol\":50:93  uint constant public BET_MIN        = 1 wei */\n    tag_27:\n        /* \"Group Projects/Group Project # 3_Rock_Paper_scissors/Project-3/Starter code/Coinflip game/test_game.sol\":88:93  1 wei */\n      0x01\n        /* \"Group Projects/Group Project # 3_Rock_Paper_scissors/Project-3/Starter code/Coinflip game/test_game.sol\":50:93  uint constant public BET_MIN        = 1 wei */\n      dup2\n      jump\t// out\n        /* \"Group Projects/Group Project # 3_Rock_Paper_scissors/Project-3/Starter code/Coinflip game/test_game.sol\":251:270  uint public outcome */\n    tag_30:\n      sload(0x01)\n      dup2\n      jump\t// out\n        /* \"Group Projects/Group Project # 3_Rock_Paper_scissors/Project-3/Starter code/Coinflip game/test_game.sol\":404:432  uint public paid         = 0 */\n    tag_33:\n      sload(0x06)\n      dup2\n      jump\t// out\n        /* \"Group Projects/Group Project # 3_Rock_Paper_scissors/Project-3/Starter code/Coinflip game/test_game.sol\":4353:4580  function reset_contract() public game_has_outcome {... */\n    tag_36:\n        /* \"Group Projects/Group Project # 3_Rock_Paper_scissors/Project-3/Starter code/Coinflip game/test_game.sol\":4327:4328  0 */\n      0x00\n        /* \"Group Projects/Group Project # 3_Rock_Paper_scissors/Project-3/Starter code/Coinflip game/test_game.sol\":4317:4324  outcome */\n      sload(0x01)\n        /* \"Group Projects/Group Project # 3_Rock_Paper_scissors/Project-3/Starter code/Coinflip game/test_game.sol\":4317:4328  outcome > 0 */\n      gt\n        /* \"Group Projects/Group Project # 3_Rock_Paper_scissors/Project-3/Starter code/Coinflip game/test_game.sol\":4309:4329  require(outcome > 0) */\n      tag_78\n      jumpi\n      0x00\n      dup1\n      revert\n    tag_78:\n        /* \"Group Projects/Group Project # 3_Rock_Paper_scissors/Project-3/Starter code/Coinflip game/test_game.sol\":4432:4433  0 */\n      0x00\n        /* \"Group Projects/Group Project # 3_Rock_Paper_scissors/Project-3/Starter code/Coinflip game/test_game.sol\":4414:4424  initialBet */\n      dup1\n        /* \"Group Projects/Group Project # 3_Rock_Paper_scissors/Project-3/Starter code/Coinflip game/test_game.sol\":4414:4433  initialBet      = 0 */\n      dup2\n      swap1\n      sstore\n      pop\n        /* \"Group Projects/Group Project # 3_Rock_Paper_scissors/Project-3/Starter code/Coinflip game/test_game.sol\":4469:4472  0x0 */\n      0x00\n        /* \"Group Projects/Group Project # 3_Rock_Paper_scissors/Project-3/Starter code/Coinflip game/test_game.sol\":4443:4450  playerA */\n      0x07\n      0x00\n        /* \"Group Projects/Group Project # 3_Rock_Paper_scissors/Project-3/Starter code/Coinflip game/test_game.sol\":4443:4473  playerA         = address(0x0) */\n      0x0100\n      exp\n      dup2\n      sload\n      dup2\n      0xffffffffffffffffffffffffffffffffffffffff\n      mul\n      not\n      and\n      swap1\n      dup4\n      0xffffffffffffffffffffffffffffffffffffffff\n      and\n      mul\n      or\n      swap1\n      sstore\n      pop\n        /* \"Group Projects/Group Project # 3_Rock_Paper_scissors/Project-3/Starter code/Coinflip game/test_game.sol\":4509:4512  0x0 */\n      0x00\n        /* \"Group Projects/Group Project # 3_Rock_Paper_scissors/Project-3/Starter code/Coinflip game/test_game.sol\":4483:4494  HouseWallet */\n      0x08\n      0x00\n        /* \"Group Projects/Group Project # 3_Rock_Paper_scissors/Project-3/Starter code/Coinflip game/test_game.sol\":4483:4513  HouseWallet     = address(0x0) */\n      0x0100\n      exp\n      dup2\n      sload\n      dup2\n      0xffffffffffffffffffffffffffffffffffffffff\n      mul\n      not\n      and\n      swap1\n      dup4\n      0xffffffffffffffffffffffffffffffffffffffff\n      and\n      mul\n      or\n      swap1\n      sstore\n      pop\n        /* \"Group Projects/Group Project # 3_Rock_Paper_scissors/Project-3/Starter code/Coinflip game/test_game.sol\":4541:4542  0 */\n      0x00\n        /* \"Group Projects/Group Project # 3_Rock_Paper_scissors/Project-3/Starter code/Coinflip game/test_game.sol\":4523:4530  outcome */\n      0x01\n        /* \"Group Projects/Group Project # 3_Rock_Paper_scissors/Project-3/Starter code/Coinflip game/test_game.sol\":4523:4542  outcome         = 0 */\n      dup2\n      swap1\n      sstore\n      pop\n        /* \"Group Projects/Group Project # 3_Rock_Paper_scissors/Project-3/Starter code/Coinflip game/test_game.sol\":4570:4571  0 */\n      0x00\n        /* \"Group Projects/Group Project # 3_Rock_Paper_scissors/Project-3/Starter code/Coinflip game/test_game.sol\":4552:4556  paid */\n      0x06\n        /* \"Group Projects/Group Project # 3_Rock_Paper_scissors/Project-3/Starter code/Coinflip game/test_game.sol\":4552:4571  paid            = 0 */\n      dup2\n      swap1\n      sstore\n      pop\n        /* \"Group Projects/Group Project # 3_Rock_Paper_scissors/Project-3/Starter code/Coinflip game/test_game.sol\":4353:4580  function reset_contract() public game_has_outcome {... */\n      jump\t// out\n        /* \"Group Projects/Group Project # 3_Rock_Paper_scissors/Project-3/Starter code/Coinflip game/test_game.sol\":3944:4046  function getContractBalance() public view returns (uint) {... */\n    tag_39:\n        /* \"Group Projects/Group Project # 3_Rock_Paper_scissors/Project-3/Starter code/Coinflip game/test_game.sol\":3995:3999  uint */\n      0x00\n        /* \"Group Projects/Group Project # 3_Rock_Paper_scissors/Project-3/Starter code/Coinflip game/test_game.sol\":4018:4039  address(this).balance */\n      selfbalance\n        /* \"Group Projects/Group Project # 3_Rock_Paper_scissors/Project-3/Starter code/Coinflip game/test_game.sol\":4011:4039  return address(this).balance */\n      swap1\n      pop\n        /* \"Group Projects/Group Project # 3_Rock_Paper_scissors/Project-3/Starter code/Coinflip game/test_game.sol\":3944:4046  function getContractBalance() public view returns (uint) {... */\n      swap1\n      jump\t// out\n        /* \"Group Projects/Group Project # 3_Rock_Paper_scissors/Project-3/Starter code/Coinflip game/test_game.sol\":2388:3382  function getOutcome() public has_player_played returns (uint) {... */\n    tag_42:\n        /* \"Group Projects/Group Project # 3_Rock_Paper_scissors/Project-3/Starter code/Coinflip game/test_game.sol\":2444:2448  uint */\n      0x00\n        /* \"Group Projects/Group Project # 3_Rock_Paper_scissors/Project-3/Starter code/Coinflip game/test_game.sol\":2362:2363  0 */\n      dup1\n        /* \"Group Projects/Group Project # 3_Rock_Paper_scissors/Project-3/Starter code/Coinflip game/test_game.sol\":2347:2359  playerChoice */\n      sload(0x05)\n        /* \"Group Projects/Group Project # 3_Rock_Paper_scissors/Project-3/Starter code/Coinflip game/test_game.sol\":2347:2363  playerChoice > 0 */\n      gt\n        /* \"Group Projects/Group Project # 3_Rock_Paper_scissors/Project-3/Starter code/Coinflip game/test_game.sol\":2339:2364  require(playerChoice > 0) */\n      tag_82\n      jumpi\n      0x00\n      dup1\n      revert\n    tag_82:\n        /* \"Group Projects/Group Project # 3_Rock_Paper_scissors/Project-3/Starter code/Coinflip game/test_game.sol\":2520:2526  999999 */\n      0x0f423f\n        /* \"Group Projects/Group Project # 3_Rock_Paper_scissors/Project-3/Starter code/Coinflip game/test_game.sol\":2514:2515  1 */\n      0x01\n        /* \"Group Projects/Group Project # 3_Rock_Paper_scissors/Project-3/Starter code/Coinflip game/test_game.sol\":2501:2513  block.number */\n      number\n        /* \"Group Projects/Group Project # 3_Rock_Paper_scissors/Project-3/Starter code/Coinflip game/test_game.sol\":2501:2515  block.number-1 */\n      sub\n        /* \"Group Projects/Group Project # 3_Rock_Paper_scissors/Project-3/Starter code/Coinflip game/test_game.sol\":2491:2516  blockhash(block.number-1) */\n      blockhash\n        /* \"Group Projects/Group Project # 3_Rock_Paper_scissors/Project-3/Starter code/Coinflip game/test_game.sol\":2486:2517  uint(blockhash(block.number-1)) */\n      0x00\n      shr\n        /* \"Group Projects/Group Project # 3_Rock_Paper_scissors/Project-3/Starter code/Coinflip game/test_game.sol\":2486:2526  uint(blockhash(block.number-1)) % 999999 */\n      dup2\n      tag_84\n      jumpi\n      invalid\n    tag_84:\n      mod\n        /* \"Group Projects/Group Project # 3_Rock_Paper_scissors/Project-3/Starter code/Coinflip game/test_game.sol\":2474:2483  randomNum */\n      0x02\n        /* \"Group Projects/Group Project # 3_Rock_Paper_scissors/Project-3/Starter code/Coinflip game/test_game.sol\":2474:2526  randomNum = uint(blockhash(block.number-1)) % 999999 */\n      dup2\n      swap1\n      sstore\n      pop\n        /* \"Group Projects/Group Project # 3_Rock_Paper_scissors/Project-3/Starter code/Coinflip game/test_game.sol\":2567:2568  0 */\n      0x00\n        /* \"Group Projects/Group Project # 3_Rock_Paper_scissors/Project-3/Starter code/Coinflip game/test_game.sol\":2562:2563  2 */\n      0x02\n        /* \"Group Projects/Group Project # 3_Rock_Paper_scissors/Project-3/Starter code/Coinflip game/test_game.sol\":2550:2559  randomNum */\n      dup1\n      sload\n        /* \"Group Projects/Group Project # 3_Rock_Paper_scissors/Project-3/Starter code/Coinflip game/test_game.sol\":2550:2563  randomNum % 2 */\n      dup2\n      tag_85\n      jumpi\n      invalid\n    tag_85:\n      mod\n        /* \"Group Projects/Group Project # 3_Rock_Paper_scissors/Project-3/Starter code/Coinflip game/test_game.sol\":2550:2568  randomNum % 2 == 0 */\n      eq\n        /* \"Group Projects/Group Project # 3_Rock_Paper_scissors/Project-3/Starter code/Coinflip game/test_game.sol\":2546:2805  if (randomNum % 2 == 0) {... */\n      iszero\n      tag_86\n      jumpi\n        /* \"Group Projects/Group Project # 3_Rock_Paper_scissors/Project-3/Starter code/Coinflip game/test_game.sol\":2607:2608  2 */\n      0x02\n        /* \"Group Projects/Group Project # 3_Rock_Paper_scissors/Project-3/Starter code/Coinflip game/test_game.sol\":2597:2604  outcome */\n      0x01\n        /* \"Group Projects/Group Project # 3_Rock_Paper_scissors/Project-3/Starter code/Coinflip game/test_game.sol\":2597:2608  outcome = 2 */\n      dup2\n      swap1\n      sstore\n      pop\n        /* \"Group Projects/Group Project # 3_Rock_Paper_scissors/Project-3/Starter code/Coinflip game/test_game.sol\":2642:2643  2 */\n      0x02\n        /* \"Group Projects/Group Project # 3_Rock_Paper_scissors/Project-3/Starter code/Coinflip game/test_game.sol\":2626:2638  playerChoice */\n      sload(0x05)\n        /* \"Group Projects/Group Project # 3_Rock_Paper_scissors/Project-3/Starter code/Coinflip game/test_game.sol\":2626:2643  playerChoice == 2 */\n      eq\n        /* \"Group Projects/Group Project # 3_Rock_Paper_scissors/Project-3/Starter code/Coinflip game/test_game.sol\":2622:2794  if (playerChoice == 2) {... */\n      iszero\n      tag_87\n      jumpi\n        /* \"Group Projects/Group Project # 3_Rock_Paper_scissors/Project-3/Starter code/Coinflip game/test_game.sol\":2671:2672  1 */\n      0x01\n        /* \"Group Projects/Group Project # 3_Rock_Paper_scissors/Project-3/Starter code/Coinflip game/test_game.sol\":2664:2668  paid */\n      0x06\n        /* \"Group Projects/Group Project # 3_Rock_Paper_scissors/Project-3/Starter code/Coinflip game/test_game.sol\":2664:2672  paid = 1 */\n      dup2\n      swap1\n      sstore\n      pop\n        /* \"Group Projects/Group Project # 3_Rock_Paper_scissors/Project-3/Starter code/Coinflip game/test_game.sol\":2702:2709  playerA */\n      0x07\n      0x00\n      swap1\n      sload\n      swap1\n      0x0100\n      exp\n      swap1\n      div\n      0xffffffffffffffffffffffffffffffffffffffff\n      and\n        /* \"Group Projects/Group Project # 3_Rock_Paper_scissors/Project-3/Starter code/Coinflip game/test_game.sol\":2702:2718  playerA.transfer */\n      0xffffffffffffffffffffffffffffffffffffffff\n      and\n        /* \"Group Projects/Group Project # 3_Rock_Paper_scissors/Project-3/Starter code/Coinflip game/test_game.sol\":2702:2741  playerA.transfer(address(this).balance) */\n      0x08fc\n        /* \"Group Projects/Group Project # 3_Rock_Paper_scissors/Project-3/Starter code/Coinflip game/test_game.sol\":2719:2740  address(this).balance */\n      selfbalance\n        /* \"Group Projects/Group Project # 3_Rock_Paper_scissors/Project-3/Starter code/Coinflip game/test_game.sol\":2702:2741  playerA.transfer(address(this).balance) */\n      swap1\n      dup2\n      iszero\n      mul\n      swap1\n      mload(0x40)\n      0x00\n      mload(0x40)\n      dup1\n      dup4\n      sub\n      dup2\n      dup6\n      dup9\n      dup9\n      call\n      swap4\n      pop\n      pop\n      pop\n      pop\n      iszero\n        /* \"--CODEGEN--\":8:17   */\n      dup1\n        /* \"--CODEGEN--\":5:7   */\n      iszero\n      tag_88\n      jumpi\n        /* \"--CODEGEN--\":45:61   */\n      returndatasize\n        /* \"--CODEGEN--\":42:43   */\n      0x00\n        /* \"--CODEGEN--\":39:40   */\n      dup1\n        /* \"--CODEGEN--\":24:62   */\n      returndatacopy\n        /* \"--CODEGEN--\":77:93   */\n      returndatasize\n        /* \"--CODEGEN--\":74:75   */\n      0x00\n        /* \"--CODEGEN--\":67:94   */\n      revert\n        /* \"--CODEGEN--\":5:7   */\n    tag_88:\n        /* \"Group Projects/Group Project # 3_Rock_Paper_scissors/Project-3/Starter code/Coinflip game/test_game.sol\":2702:2741  playerA.transfer(address(this).balance) */\n      pop\n        /* \"Group Projects/Group Project # 3_Rock_Paper_scissors/Project-3/Starter code/Coinflip game/test_game.sol\":2759:2766  reset() */\n      tag_89\n        /* \"Group Projects/Group Project # 3_Rock_Paper_scissors/Project-3/Starter code/Coinflip game/test_game.sol\":2759:2764  reset */\n      tag_90\n        /* \"Group Projects/Group Project # 3_Rock_Paper_scissors/Project-3/Starter code/Coinflip game/test_game.sol\":2759:2766  reset() */\n      jump\t// in\n    tag_89:\n        /* \"Group Projects/Group Project # 3_Rock_Paper_scissors/Project-3/Starter code/Coinflip game/test_game.sol\":2622:2794  if (playerChoice == 2) {... */\n    tag_87:\n        /* \"Group Projects/Group Project # 3_Rock_Paper_scissors/Project-3/Starter code/Coinflip game/test_game.sol\":2546:2805  if (randomNum % 2 == 0) {... */\n    tag_86:\n        /* \"Group Projects/Group Project # 3_Rock_Paper_scissors/Project-3/Starter code/Coinflip game/test_game.sol\":2836:2837  1 */\n      0x01\n        /* \"Group Projects/Group Project # 3_Rock_Paper_scissors/Project-3/Starter code/Coinflip game/test_game.sol\":2831:2832  2 */\n      0x02\n        /* \"Group Projects/Group Project # 3_Rock_Paper_scissors/Project-3/Starter code/Coinflip game/test_game.sol\":2819:2828  randomNum */\n      dup1\n      sload\n        /* \"Group Projects/Group Project # 3_Rock_Paper_scissors/Project-3/Starter code/Coinflip game/test_game.sol\":2819:2832  randomNum % 2 */\n      dup2\n      tag_91\n      jumpi\n      invalid\n    tag_91:\n      mod\n        /* \"Group Projects/Group Project # 3_Rock_Paper_scissors/Project-3/Starter code/Coinflip game/test_game.sol\":2819:2837  randomNum % 2 == 1 */\n      eq\n        /* \"Group Projects/Group Project # 3_Rock_Paper_scissors/Project-3/Starter code/Coinflip game/test_game.sol\":2815:3134  if (randomNum % 2 == 1) {... */\n      iszero\n      tag_92\n      jumpi\n        /* \"Group Projects/Group Project # 3_Rock_Paper_scissors/Project-3/Starter code/Coinflip game/test_game.sol\":2864:2865  1 */\n      0x01\n        /* \"Group Projects/Group Project # 3_Rock_Paper_scissors/Project-3/Starter code/Coinflip game/test_game.sol\":2854:2861  outcome */\n      dup1\n        /* \"Group Projects/Group Project # 3_Rock_Paper_scissors/Project-3/Starter code/Coinflip game/test_game.sol\":2854:2865  outcome = 1 */\n      dup2\n      swap1\n      sstore\n      pop\n        /* \"Group Projects/Group Project # 3_Rock_Paper_scissors/Project-3/Starter code/Coinflip game/test_game.sol\":2899:2900  1 */\n      0x01\n        /* \"Group Projects/Group Project # 3_Rock_Paper_scissors/Project-3/Starter code/Coinflip game/test_game.sol\":2883:2895  playerChoice */\n      sload(0x05)\n        /* \"Group Projects/Group Project # 3_Rock_Paper_scissors/Project-3/Starter code/Coinflip game/test_game.sol\":2883:2900  playerChoice == 1 */\n      eq\n        /* \"Group Projects/Group Project # 3_Rock_Paper_scissors/Project-3/Starter code/Coinflip game/test_game.sol\":2879:3123  if (playerChoice == 1) {... */\n      iszero\n      tag_93\n      jumpi\n        /* \"Group Projects/Group Project # 3_Rock_Paper_scissors/Project-3/Starter code/Coinflip game/test_game.sol\":2928:2929  1 */\n      0x01\n        /* \"Group Projects/Group Project # 3_Rock_Paper_scissors/Project-3/Starter code/Coinflip game/test_game.sol\":2921:2925  paid */\n      0x06\n        /* \"Group Projects/Group Project # 3_Rock_Paper_scissors/Project-3/Starter code/Coinflip game/test_game.sol\":2921:2929  paid = 1 */\n      dup2\n      swap1\n      sstore\n      pop\n        /* \"Group Projects/Group Project # 3_Rock_Paper_scissors/Project-3/Starter code/Coinflip game/test_game.sol\":3031:3038  playerA */\n      0x07\n      0x00\n      swap1\n      sload\n      swap1\n      0x0100\n      exp\n      swap1\n      div\n      0xffffffffffffffffffffffffffffffffffffffff\n      and\n        /* \"Group Projects/Group Project # 3_Rock_Paper_scissors/Project-3/Starter code/Coinflip game/test_game.sol\":3031:3047  playerA.transfer */\n      0xffffffffffffffffffffffffffffffffffffffff\n      and\n        /* \"Group Projects/Group Project # 3_Rock_Paper_scissors/Project-3/Starter code/Coinflip game/test_game.sol\":3031:3070  playerA.transfer(address(this).balance) */\n      0x08fc\n        /* \"Group Projects/Group Project # 3_Rock_Paper_scissors/Project-3/Starter code/Coinflip game/test_game.sol\":3048:3069  address(this).balance */\n      selfbalance\n        /* \"Group Projects/Group Project # 3_Rock_Paper_scissors/Project-3/Starter code/Coinflip game/test_game.sol\":3031:3070  playerA.transfer(address(this).balance) */\n      swap1\n      dup2\n      iszero\n      mul\n      swap1\n      mload(0x40)\n      0x00\n      mload(0x40)\n      dup1\n      dup4\n      sub\n      dup2\n      dup6\n      dup9\n      dup9\n      call\n      swap4\n      pop\n      pop\n      pop\n      pop\n      iszero\n        /* \"--CODEGEN--\":8:17   */\n      dup1\n        /* \"--CODEGEN--\":5:7   */\n      iszero\n      tag_94\n      jumpi\n        /* \"--CODEGEN--\":45:61   */\n      returndatasize\n        /* \"--CODEGEN--\":42:43   */\n      0x00\n        /* \"--CODEGEN--\":39:40   */\n      dup1\n        /* \"--CODEGEN--\":24:62   */\n      returndatacopy\n        /* \"--CODEGEN--\":77:93   */\n      returndatasize\n        /* \"--CODEGEN--\":74:75   */\n      0x00\n        /* \"--CODEGEN--\":67:94   */\n      revert\n        /* \"--CODEGEN--\":5:7   */\n    tag_94:\n        /* \"Group Projects/Group Project # 3_Rock_Paper_scissors/Project-3/Starter code/Coinflip game/test_game.sol\":3031:3070  playerA.transfer(address(this).balance) */\n      pop\n        /* \"Group Projects/Group Project # 3_Rock_Paper_scissors/Project-3/Starter code/Coinflip game/test_game.sol\":3088:3095  reset() */\n      tag_95\n        /* \"Group Projects/Group Project # 3_Rock_Paper_scissors/Project-3/Starter code/Coinflip game/test_game.sol\":3088:3093  reset */\n      tag_90\n        /* \"Group Projects/Group Project # 3_Rock_Paper_scissors/Project-3/Starter code/Coinflip game/test_game.sol\":3088:3095  reset() */\n      jump\t// in\n    tag_95:\n        /* \"Group Projects/Group Project # 3_Rock_Paper_scissors/Project-3/Starter code/Coinflip game/test_game.sol\":2879:3123  if (playerChoice == 1) {... */\n    tag_93:\n        /* \"Group Projects/Group Project # 3_Rock_Paper_scissors/Project-3/Starter code/Coinflip game/test_game.sol\":2815:3134  if (randomNum % 2 == 1) {... */\n    tag_92:\n        /* \"Group Projects/Group Project # 3_Rock_Paper_scissors/Project-3/Starter code/Coinflip game/test_game.sol\":3168:3169  0 */\n      0x00\n        /* \"Group Projects/Group Project # 3_Rock_Paper_scissors/Project-3/Starter code/Coinflip game/test_game.sol\":3160:3164  paid */\n      sload(0x06)\n        /* \"Group Projects/Group Project # 3_Rock_Paper_scissors/Project-3/Starter code/Coinflip game/test_game.sol\":3160:3169  paid == 0 */\n      eq\n        /* \"Group Projects/Group Project # 3_Rock_Paper_scissors/Project-3/Starter code/Coinflip game/test_game.sol\":3156:3367  if (paid == 0) {... */\n      iszero\n      tag_96\n      jumpi\n        /* \"Group Projects/Group Project # 3_Rock_Paper_scissors/Project-3/Starter code/Coinflip game/test_game.sol\":3279:3290  HouseWallet */\n      0x08\n      0x00\n      swap1\n      sload\n      swap1\n      0x0100\n      exp\n      swap1\n      div\n      0xffffffffffffffffffffffffffffffffffffffff\n      and\n        /* \"Group Projects/Group Project # 3_Rock_Paper_scissors/Project-3/Starter code/Coinflip game/test_game.sol\":3279:3299  HouseWallet.transfer */\n      0xffffffffffffffffffffffffffffffffffffffff\n      and\n        /* \"Group Projects/Group Project # 3_Rock_Paper_scissors/Project-3/Starter code/Coinflip game/test_game.sol\":3279:3322  HouseWallet.transfer(address(this).balance) */\n      0x08fc\n        /* \"Group Projects/Group Project # 3_Rock_Paper_scissors/Project-3/Starter code/Coinflip game/test_game.sol\":3300:3321  address(this).balance */\n      selfbalance\n        /* \"Group Projects/Group Project # 3_Rock_Paper_scissors/Project-3/Starter code/Coinflip game/test_game.sol\":3279:3322  HouseWallet.transfer(address(this).balance) */\n      swap1\n      dup2\n      iszero\n      mul\n      swap1\n      mload(0x40)\n      0x00\n      mload(0x40)\n      dup1\n      dup4\n      sub\n      dup2\n      dup6\n      dup9\n      dup9\n      call\n      swap4\n      pop\n      pop\n      pop\n      pop\n      iszero\n        /* \"--CODEGEN--\":8:17   */\n      dup1\n        /* \"--CODEGEN--\":5:7   */\n      iszero\n      tag_97\n      jumpi\n        /* \"--CODEGEN--\":45:61   */\n      returndatasize\n        /* \"--CODEGEN--\":42:43   */\n      0x00\n        /* \"--CODEGEN--\":39:40   */\n      dup1\n        /* \"--CODEGEN--\":24:62   */\n      returndatacopy\n        /* \"--CODEGEN--\":77:93   */\n      returndatasize\n        /* \"--CODEGEN--\":74:75   */\n      0x00\n        /* \"--CODEGEN--\":67:94   */\n      revert\n        /* \"--CODEGEN--\":5:7   */\n    tag_97:\n        /* \"Group Projects/Group Project # 3_Rock_Paper_scissors/Project-3/Starter code/Coinflip game/test_game.sol\":3279:3322  HouseWallet.transfer(address(this).balance) */\n      pop\n        /* \"Group Projects/Group Project # 3_Rock_Paper_scissors/Project-3/Starter code/Coinflip game/test_game.sol\":3336:3343  reset() */\n      tag_98\n        /* \"Group Projects/Group Project # 3_Rock_Paper_scissors/Project-3/Starter code/Coinflip game/test_game.sol\":3336:3341  reset */\n      tag_90\n        /* \"Group Projects/Group Project # 3_Rock_Paper_scissors/Project-3/Starter code/Coinflip game/test_game.sol\":3336:3343  reset() */\n      jump\t// in\n    tag_98:\n        /* \"Group Projects/Group Project # 3_Rock_Paper_scissors/Project-3/Starter code/Coinflip game/test_game.sol\":3156:3367  if (paid == 0) {... */\n    tag_96:\n        /* \"Group Projects/Group Project # 3_Rock_Paper_scissors/Project-3/Starter code/Coinflip game/test_game.sol\":2388:3382  function getOutcome() public has_player_played returns (uint) {... */\n      swap1\n      jump\t// out\n        /* \"Group Projects/Group Project # 3_Rock_Paper_scissors/Project-3/Starter code/Coinflip game/test_game.sol\":336:364  uint public playerPlayed = 0 */\n    tag_45:\n      sload(0x04)\n      dup2\n      jump\t// out\n        /* \"Group Projects/Group Project # 3_Rock_Paper_scissors/Project-3/Starter code/Coinflip game/test_game.sol\":370:398  uint public playerChoice = 0 */\n    tag_48:\n      sload(0x05)\n      dup2\n      jump\t// out\n        /* \"Group Projects/Group Project # 3_Rock_Paper_scissors/Project-3/Starter code/Coinflip game/test_game.sol\":121:167  uint constant public BET_MAX        = 10 ether */\n    tag_51:\n        /* \"Group Projects/Group Project # 3_Rock_Paper_scissors/Project-3/Starter code/Coinflip game/test_game.sol\":159:167  10 ether */\n      0x8ac7230489e80000\n        /* \"Group Projects/Group Project # 3_Rock_Paper_scissors/Project-3/Starter code/Coinflip game/test_game.sol\":121:167  uint constant public BET_MAX        = 10 ether */\n      dup2\n      jump\t// out\n        /* \"Group Projects/Group Project # 3_Rock_Paper_scissors/Project-3/Starter code/Coinflip game/test_game.sol\":4078:4264  function whoAmI() public view returns (uint) {... */\n    tag_54:\n        /* \"Group Projects/Group Project # 3_Rock_Paper_scissors/Project-3/Starter code/Coinflip game/test_game.sol\":4117:4121  uint */\n      0x00\n        /* \"Group Projects/Group Project # 3_Rock_Paper_scissors/Project-3/Starter code/Coinflip game/test_game.sol\":4151:4158  playerA */\n      0x07\n      0x00\n      swap1\n      sload\n      swap1\n      0x0100\n      exp\n      swap1\n      div\n      0xffffffffffffffffffffffffffffffffffffffff\n      and\n        /* \"Group Projects/Group Project # 3_Rock_Paper_scissors/Project-3/Starter code/Coinflip game/test_game.sol\":4137:4158  msg.sender == playerA */\n      0xffffffffffffffffffffffffffffffffffffffff\n      and\n        /* \"Group Projects/Group Project # 3_Rock_Paper_scissors/Project-3/Starter code/Coinflip game/test_game.sol\":4137:4147  msg.sender */\n      caller\n        /* \"Group Projects/Group Project # 3_Rock_Paper_scissors/Project-3/Starter code/Coinflip game/test_game.sol\":4137:4158  msg.sender == playerA */\n      0xffffffffffffffffffffffffffffffffffffffff\n      and\n      eq\n        /* \"Group Projects/Group Project # 3_Rock_Paper_scissors/Project-3/Starter code/Coinflip game/test_game.sol\":4133:4193  if (msg.sender == playerA) {... */\n      iszero\n      tag_100\n      jumpi\n        /* \"Group Projects/Group Project # 3_Rock_Paper_scissors/Project-3/Starter code/Coinflip game/test_game.sol\":4181:4182  1 */\n      0x01\n        /* \"Group Projects/Group Project # 3_Rock_Paper_scissors/Project-3/Starter code/Coinflip game/test_game.sol\":4174:4182  return 1 */\n      swap1\n      pop\n      jump(tag_99)\n        /* \"Group Projects/Group Project # 3_Rock_Paper_scissors/Project-3/Starter code/Coinflip game/test_game.sol\":4133:4193  if (msg.sender == playerA) {... */\n    tag_100:\n        /* \"Group Projects/Group Project # 3_Rock_Paper_scissors/Project-3/Starter code/Coinflip game/test_game.sol\":4212:4223  HouseWallet */\n      0x08\n      0x00\n      swap1\n      sload\n      swap1\n      0x0100\n      exp\n      swap1\n      div\n      0xffffffffffffffffffffffffffffffffffffffff\n      and\n        /* \"Group Projects/Group Project # 3_Rock_Paper_scissors/Project-3/Starter code/Coinflip game/test_game.sol\":4198:4223  msg.sender == HouseWallet */\n      0xffffffffffffffffffffffffffffffffffffffff\n      and\n        /* \"Group Projects/Group Project # 3_Rock_Paper_scissors/Project-3/Starter code/Coinflip game/test_game.sol\":4198:4208  msg.sender */\n      caller\n        /* \"Group Projects/Group Project # 3_Rock_Paper_scissors/Project-3/Starter code/Coinflip game/test_game.sol\":4198:4223  msg.sender == HouseWallet */\n      0xffffffffffffffffffffffffffffffffffffffff\n      and\n      eq\n        /* \"Group Projects/Group Project # 3_Rock_Paper_scissors/Project-3/Starter code/Coinflip game/test_game.sol\":4194:4258  if (msg.sender == HouseWallet) {... */\n      iszero\n      tag_101\n      jumpi\n        /* \"Group Projects/Group Project # 3_Rock_Paper_scissors/Project-3/Starter code/Coinflip game/test_game.sol\":4246:4247  0 */\n      0x00\n        /* \"Group Projects/Group Project # 3_Rock_Paper_scissors/Project-3/Starter code/Coinflip game/test_game.sol\":4239:4247  return 0 */\n      swap1\n      pop\n      jump(tag_99)\n        /* \"Group Projects/Group Project # 3_Rock_Paper_scissors/Project-3/Starter code/Coinflip game/test_game.sol\":4194:4258  if (msg.sender == HouseWallet) {... */\n    tag_101:\n        /* \"Group Projects/Group Project # 3_Rock_Paper_scissors/Project-3/Starter code/Coinflip game/test_game.sol\":4078:4264  function whoAmI() public view returns (uint) {... */\n    tag_99:\n      swap1\n      jump\t// out\n        /* \"Group Projects/Group Project # 3_Rock_Paper_scissors/Project-3/Starter code/Coinflip game/test_game.sol\":2145:2287  function playerChooses(uint choice) public player_never_played is_caller_player is_legal_play(choice) {... */\n    tag_58:\n        /* \"Group Projects/Group Project # 3_Rock_Paper_scissors/Project-3/Starter code/Coinflip game/test_game.sol\":2119:2120  1 */\n      0x01\n        /* \"Group Projects/Group Project # 3_Rock_Paper_scissors/Project-3/Starter code/Coinflip game/test_game.sol\":2104:2116  playerChoice */\n      sload(0x05)\n        /* \"Group Projects/Group Project # 3_Rock_Paper_scissors/Project-3/Starter code/Coinflip game/test_game.sol\":2104:2120  playerChoice < 1 */\n      lt\n        /* \"Group Projects/Group Project # 3_Rock_Paper_scissors/Project-3/Starter code/Coinflip game/test_game.sol\":2096:2121  require(playerChoice < 1) */\n      tag_103\n      jumpi\n      0x00\n      dup1\n      revert\n    tag_103:\n        /* \"Group Projects/Group Project # 3_Rock_Paper_scissors/Project-3/Starter code/Coinflip game/test_game.sol\":1885:1892  playerA */\n      0x07\n      0x00\n      swap1\n      sload\n      swap1\n      0x0100\n      exp\n      swap1\n      div\n      0xffffffffffffffffffffffffffffffffffffffff\n      and\n        /* \"Group Projects/Group Project # 3_Rock_Paper_scissors/Project-3/Starter code/Coinflip game/test_game.sol\":1871:1892  msg.sender == playerA */\n      0xffffffffffffffffffffffffffffffffffffffff\n      and\n        /* \"Group Projects/Group Project # 3_Rock_Paper_scissors/Project-3/Starter code/Coinflip game/test_game.sol\":1871:1881  msg.sender */\n      caller\n        /* \"Group Projects/Group Project # 3_Rock_Paper_scissors/Project-3/Starter code/Coinflip game/test_game.sol\":1871:1892  msg.sender == playerA */\n      0xffffffffffffffffffffffffffffffffffffffff\n      and\n      eq\n        /* \"Group Projects/Group Project # 3_Rock_Paper_scissors/Project-3/Starter code/Coinflip game/test_game.sol\":1863:1893  require(msg.sender == playerA) */\n      tag_105\n      jumpi\n      0x00\n      dup1\n      revert\n    tag_105:\n        /* \"Group Projects/Group Project # 3_Rock_Paper_scissors/Project-3/Starter code/Coinflip game/test_game.sol\":2239:2245  choice */\n      dup1\n        /* \"Group Projects/Group Project # 3_Rock_Paper_scissors/Project-3/Starter code/Coinflip game/test_game.sol\":1989:1990  0 */\n      0x00\n        /* \"Group Projects/Group Project # 3_Rock_Paper_scissors/Project-3/Starter code/Coinflip game/test_game.sol\":1980:1986  choice */\n      dup2\n        /* \"Group Projects/Group Project # 3_Rock_Paper_scissors/Project-3/Starter code/Coinflip game/test_game.sol\":1980:1990  choice > 0 */\n      gt\n        /* \"Group Projects/Group Project # 3_Rock_Paper_scissors/Project-3/Starter code/Coinflip game/test_game.sol\":1972:1991  require(choice > 0) */\n      tag_107\n      jumpi\n      0x00\n      dup1\n      revert\n    tag_107:\n        /* \"Group Projects/Group Project # 3_Rock_Paper_scissors/Project-3/Starter code/Coinflip game/test_game.sol\":2018:2019  3 */\n      0x03\n        /* \"Group Projects/Group Project # 3_Rock_Paper_scissors/Project-3/Starter code/Coinflip game/test_game.sol\":2009:2015  choice */\n      dup2\n        /* \"Group Projects/Group Project # 3_Rock_Paper_scissors/Project-3/Starter code/Coinflip game/test_game.sol\":2009:2019  choice < 3 */\n      lt\n        /* \"Group Projects/Group Project # 3_Rock_Paper_scissors/Project-3/Starter code/Coinflip game/test_game.sol\":2001:2020  require(choice < 3) */\n      tag_108\n      jumpi\n      0x00\n      dup1\n      revert\n    tag_108:\n        /* \"Group Projects/Group Project # 3_Rock_Paper_scissors/Project-3/Starter code/Coinflip game/test_game.sol\":2273:2279  choice */\n      dup2\n        /* \"Group Projects/Group Project # 3_Rock_Paper_scissors/Project-3/Starter code/Coinflip game/test_game.sol\":2258:2270  playerChoice */\n      0x05\n        /* \"Group Projects/Group Project # 3_Rock_Paper_scissors/Project-3/Starter code/Coinflip game/test_game.sol\":2258:2279  playerChoice = choice */\n      dup2\n      swap1\n      sstore\n      pop\n        /* \"Group Projects/Group Project # 3_Rock_Paper_scissors/Project-3/Starter code/Coinflip game/test_game.sol\":1903:1904  _ */\n      pop\n        /* \"Group Projects/Group Project # 3_Rock_Paper_scissors/Project-3/Starter code/Coinflip game/test_game.sol\":2145:2287  function playerChooses(uint choice) public player_never_played is_caller_player is_legal_play(choice) {... */\n      pop\n      jump\t// out\n        /* \"Group Projects/Group Project # 3_Rock_Paper_scissors/Project-3/Starter code/Coinflip game/test_game.sol\":276:297  uint public randomNum */\n    tag_61:\n      sload(0x02)\n      dup2\n      jump\t// out\n        /* \"Group Projects/Group Project # 3_Rock_Paper_scissors/Project-3/Starter code/Coinflip game/test_game.sol\":303:330  uint public housePlayed = 0 */\n    tag_64:\n      sload(0x03)\n      dup2\n      jump\t// out\n        /* \"Group Projects/Group Project # 3_Rock_Paper_scissors/Project-3/Starter code/Coinflip game/test_game.sol\":3416:3661  function reset() private {... */\n    tag_90:\n        /* \"Group Projects/Group Project # 3_Rock_Paper_scissors/Project-3/Starter code/Coinflip game/test_game.sol\":3478:3479  0 */\n      0x00\n        /* \"Group Projects/Group Project # 3_Rock_Paper_scissors/Project-3/Starter code/Coinflip game/test_game.sol\":3460:3470  initialBet */\n      dup1\n        /* \"Group Projects/Group Project # 3_Rock_Paper_scissors/Project-3/Starter code/Coinflip game/test_game.sol\":3460:3479  initialBet      = 0 */\n      dup2\n      swap1\n      sstore\n      pop\n        /* \"Group Projects/Group Project # 3_Rock_Paper_scissors/Project-3/Starter code/Coinflip game/test_game.sol\":3515:3518  0x0 */\n      0x00\n        /* \"Group Projects/Group Project # 3_Rock_Paper_scissors/Project-3/Starter code/Coinflip game/test_game.sol\":3489:3496  playerA */\n      0x07\n      0x00\n        /* \"Group Projects/Group Project # 3_Rock_Paper_scissors/Project-3/Starter code/Coinflip game/test_game.sol\":3489:3519  playerA         = address(0x0) */\n      0x0100\n      exp\n      dup2\n      sload\n      dup2\n      0xffffffffffffffffffffffffffffffffffffffff\n      mul\n      not\n      and\n      swap1\n      dup4\n      0xffffffffffffffffffffffffffffffffffffffff\n      and\n      mul\n      or\n      swap1\n      sstore\n      pop\n        /* \"Group Projects/Group Project # 3_Rock_Paper_scissors/Project-3/Starter code/Coinflip game/test_game.sol\":3555:3558  0x0 */\n      0x00\n        /* \"Group Projects/Group Project # 3_Rock_Paper_scissors/Project-3/Starter code/Coinflip game/test_game.sol\":3529:3540  HouseWallet */\n      0x08\n      0x00\n        /* \"Group Projects/Group Project # 3_Rock_Paper_scissors/Project-3/Starter code/Coinflip game/test_game.sol\":3529:3559  HouseWallet     = address(0x0) */\n      0x0100\n      exp\n      dup2\n      sload\n      dup2\n      0xffffffffffffffffffffffffffffffffffffffff\n      mul\n      not\n      and\n      swap1\n      dup4\n      0xffffffffffffffffffffffffffffffffffffffff\n      and\n      mul\n      or\n      swap1\n      sstore\n      pop\n        /* \"Group Projects/Group Project # 3_Rock_Paper_scissors/Project-3/Starter code/Coinflip game/test_game.sol\":3587:3588  0 */\n      0x00\n        /* \"Group Projects/Group Project # 3_Rock_Paper_scissors/Project-3/Starter code/Coinflip game/test_game.sol\":3569:3580  housePlayed */\n      0x03\n        /* \"Group Projects/Group Project # 3_Rock_Paper_scissors/Project-3/Starter code/Coinflip game/test_game.sol\":3569:3588  housePlayed     = 0 */\n      dup2\n      swap1\n      sstore\n      pop\n        /* \"Group Projects/Group Project # 3_Rock_Paper_scissors/Project-3/Starter code/Coinflip game/test_game.sol\":3616:3617  0 */\n      0x00\n        /* \"Group Projects/Group Project # 3_Rock_Paper_scissors/Project-3/Starter code/Coinflip game/test_game.sol\":3598:3610  playerPlayed */\n      0x04\n        /* \"Group Projects/Group Project # 3_Rock_Paper_scissors/Project-3/Starter code/Coinflip game/test_game.sol\":3598:3617  playerPlayed    = 0 */\n      dup2\n      swap1\n      sstore\n      pop\n        /* \"Group Projects/Group Project # 3_Rock_Paper_scissors/Project-3/Starter code/Coinflip game/test_game.sol\":3645:3646  0 */\n      0x00\n        /* \"Group Projects/Group Project # 3_Rock_Paper_scissors/Project-3/Starter code/Coinflip game/test_game.sol\":3627:3639  playerChoice */\n      0x05\n        /* \"Group Projects/Group Project # 3_Rock_Paper_scissors/Project-3/Starter code/Coinflip game/test_game.sol\":3627:3646  playerChoice    = 0 */\n      dup2\n      swap1\n      sstore\n      pop\n        /* \"Group Projects/Group Project # 3_Rock_Paper_scissors/Project-3/Starter code/Coinflip game/test_game.sol\":3416:3661  function reset() private {... */\n      jump\t// out\n\n    auxdata: 0xa265627a7a72315820f52fcda2e762d1a2b65d3871624a691092aa3c818bfe13b10a03ca9b5a79625e64736f6c63430005110032\n}\n",
				"bytecode": {
					"linkReferences": {},
					"object": "6080604052600060035560006004556000600555600060065534801561002457600080fd5b50610a98806100346000396000f3fe6080604052600436106100e85760003560e01c80637e7e4b471161008a578063da91254c11610059578063da91254c14610291578063e92788d6146102bc578063f630aa65146102f7578063fc98f42e14610322576100e8565b80637e7e4b47146101e55780638e687aed14610210578063adef7cdd1461023b578063d0017a0c14610266576100e8565b806327793f87116100c657806327793f871461014d578063295b4e17146101785780634e22fb5b146101a35780636f9fb98a146101ba576100e8565b80631aa3a008146100ed5780631d73c64c146100f75780632626ab0814610122575b600080fd5b6100f561034d565b005b34801561010357600080fd5b5061010c61058f565b6040518082815260200191505060405180910390f35b34801561012e57600080fd5b50610137610595565b6040518082815260200191505060405180910390f35b34801561015957600080fd5b5061016261059a565b6040518082815260200191505060405180910390f35b34801561018457600080fd5b5061018d6105a0565b6040518082815260200191505060405180910390f35b3480156101af57600080fd5b506101b86105a6565b005b3480156101c657600080fd5b506101cf610652565b6040518082815260200191505060405180910390f35b3480156101f157600080fd5b506101fa61065a565b6040518082815260200191505060405180910390f35b34801561021c57600080fd5b50610225610847565b6040518082815260200191505060405180910390f35b34801561024757600080fd5b5061025061084d565b6040518082815260200191505060405180910390f35b34801561027257600080fd5b5061027b610853565b6040518082815260200191505060405180910390f35b34801561029d57600080fd5b506102a661085f565b6040518082815260200191505060405180910390f35b3480156102c857600080fd5b506102f5600480360360208110156102df57600080fd5b8101908080359060200190929190505050610923565b005b34801561030357600080fd5b5061030c6109b2565b6040518082815260200191505060405180910390f35b34801561032e57600080fd5b506103376109b8565b6040518082815260200191505060405180910390f35b600134101561035b57600080fd5b678ac7230489e8000034111561037057600080fd5b60008054148061038257506000543410155b61038b57600080fd5b600760009054906101000a900473ffffffffffffffffffffffffffffffffffffffff1673ffffffffffffffffffffffffffffffffffffffff163373ffffffffffffffffffffffffffffffffffffffff1614156103e657600080fd5b600073ffffffffffffffffffffffffffffffffffffffff16600860009054906101000a900473ffffffffffffffffffffffffffffffffffffffff1673ffffffffffffffffffffffffffffffffffffffff16141561048a5733600860006101000a81548173ffffffffffffffffffffffffffffffffffffffff021916908373ffffffffffffffffffffffffffffffffffffffff1602179055503460038190555061058d565b600073ffffffffffffffffffffffffffffffffffffffff16600760009054906101000a900473ffffffffffffffffffffffffffffffffffffffff1673ffffffffffffffffffffffffffffffffffffffff161480156105375750600073ffffffffffffffffffffffffffffffffffffffff16600860009054906101000a900473ffffffffffffffffffffffffffffffffffffffff1673ffffffffffffffffffffffffffffffffffffffff1614155b1561058c5733600760006101000a81548173ffffffffffffffffffffffffffffffffffffffff021916908373ffffffffffffffffffffffffffffffffffffffff16021790555034600081905550346004819055505b5b565b60005481565b600181565b60015481565b60065481565b6000600154116105b557600080fd5b600080819055506000600760006101000a81548173ffffffffffffffffffffffffffffffffffffffff021916908373ffffffffffffffffffffffffffffffffffffffff1602179055506000600860006101000a81548173ffffffffffffffffffffffffffffffffffffffff021916908373ffffffffffffffffffffffffffffffffffffffff16021790555060006001819055506000600681905550565b600047905090565b6000806005541161066a57600080fd5b620f423f600143034060001c8161067d57fe5b066002819055506000600280548161069157fe5b06141561072657600260018190555060026005541415610725576001600681905550600760009054906101000a900473ffffffffffffffffffffffffffffffffffffffff1673ffffffffffffffffffffffffffffffffffffffff166108fc479081150290604051600060405180830381858888f1935050505015801561071b573d6000803e3d6000fd5b506107246109be565b5b5b6001600280548161073357fe5b0614156107c75760018081905550600160055414156107c6576001600681905550600760009054906101000a900473ffffffffffffffffffffffffffffffffffffffff1673ffffffffffffffffffffffffffffffffffffffff166108fc479081150290604051600060405180830381858888f193505050501580156107bc573d6000803e3d6000fd5b506107c56109be565b5b5b6000600654141561084457600860009054906101000a900473ffffffffffffffffffffffffffffffffffffffff1673ffffffffffffffffffffffffffffffffffffffff166108fc479081150290604051600060405180830381858888f1935050505015801561083a573d6000803e3d6000fd5b506108436109be565b5b90565b60045481565b60055481565b678ac7230489e8000081565b6000600760009054906101000a900473ffffffffffffffffffffffffffffffffffffffff1673ffffffffffffffffffffffffffffffffffffffff163373ffffffffffffffffffffffffffffffffffffffff1614156108c05760019050610920565b600860009054906101000a900473ffffffffffffffffffffffffffffffffffffffff1673ffffffffffffffffffffffffffffffffffffffff163373ffffffffffffffffffffffffffffffffffffffff16141561091f5760009050610920565b5b90565b60016005541061093257600080fd5b600760009054906101000a900473ffffffffffffffffffffffffffffffffffffffff1673ffffffffffffffffffffffffffffffffffffffff163373ffffffffffffffffffffffffffffffffffffffff161461098c57600080fd5b806000811161099a57600080fd5b600381106109a757600080fd5b816005819055505050565b60025481565b60035481565b600080819055506000600760006101000a81548173ffffffffffffffffffffffffffffffffffffffff021916908373ffffffffffffffffffffffffffffffffffffffff1602179055506000600860006101000a81548173ffffffffffffffffffffffffffffffffffffffff021916908373ffffffffffffffffffffffffffffffffffffffff16021790555060006003819055506000600481905550600060058190555056fea265627a7a72315820f52fcda2e762d1a2b65d3871624a691092aa3c818bfe13b10a03ca9b5a79625e64736f6c63430005110032",
					"opcodes": "PUSH1 0x80 PUSH1 0x40 MSTORE PUSH1 0x0 PUSH1 0x3 SSTORE PUSH1 0x0 PUSH1 0x4 SSTORE PUSH1 0x0 PUSH1 0x5 SSTORE PUSH1 0x0 PUSH1 0x6 SSTORE CALLVALUE DUP1 ISZERO PUSH2 0x24 JUMPI PUSH1 0x0 DUP1 REVERT JUMPDEST POP PUSH2 0xA98 DUP1 PUSH2 0x34 PUSH1 0x0 CODECOPY PUSH1 0x0 RETURN INVALID PUSH1 0x80 PUSH1 0x40 MSTORE PUSH1 0x4 CALLDATASIZE LT PUSH2 0xE8 JUMPI PUSH1 0x0 CALLDATALOAD PUSH1 0xE0 SHR DUP1 PUSH4 0x7E7E4B47 GT PUSH2 0x8A JUMPI DUP1 PUSH4 0xDA91254C GT PUSH2 0x59 JUMPI DUP1 PUSH4 0xDA91254C EQ PUSH2 0x291 JUMPI DUP1 PUSH4 0xE92788D6 EQ PUSH2 0x2BC JUMPI DUP1 PUSH4 0xF630AA65 EQ PUSH2 0x2F7 JUMPI DUP1 PUSH4 0xFC98F42E EQ PUSH2 0x322 JUMPI PUSH2 0xE8 JUMP JUMPDEST DUP1 PUSH4 0x7E7E4B47 EQ PUSH2 0x1E5 JUMPI DUP1 PUSH4 0x8E687AED EQ PUSH2 0x210 JUMPI DUP1 PUSH4 0xADEF7CDD EQ PUSH2 0x23B JUMPI DUP1 PUSH4 0xD0017A0C EQ PUSH2 0x266 JUMPI PUSH2 0xE8 JUMP JUMPDEST DUP1 PUSH4 0x27793F87 GT PUSH2 0xC6 JUMPI DUP1 PUSH4 0x27793F87 EQ PUSH2 0x14D JUMPI DUP1 PUSH4 0x295B4E17 EQ PUSH2 0x178 JUMPI DUP1 PUSH4 0x4E22FB5B EQ PUSH2 0x1A3 JUMPI DUP1 PUSH4 0x6F9FB98A EQ PUSH2 0x1BA JUMPI PUSH2 0xE8 JUMP JUMPDEST DUP1 PUSH4 0x1AA3A008 EQ PUSH2 0xED JUMPI DUP1 PUSH4 0x1D73C64C EQ PUSH2 0xF7 JUMPI DUP1 PUSH4 0x2626AB08 EQ PUSH2 0x122 JUMPI JUMPDEST PUSH1 0x0 DUP1 REVERT JUMPDEST PUSH2 0xF5 PUSH2 0x34D JUMP JUMPDEST STOP JUMPDEST CALLVALUE DUP1 ISZERO PUSH2 0x103 JUMPI PUSH1 0x0 DUP1 REVERT JUMPDEST POP PUSH2 0x10C PUSH2 0x58F JUMP JUMPDEST PUSH1 0x40 MLOAD DUP1 DUP3 DUP2 MSTORE PUSH1 0x20 ADD SWAP2 POP POP PUSH1 0x40 MLOAD DUP1 SWAP2 SUB SWAP1 RETURN JUMPDEST CALLVALUE DUP1 ISZERO PUSH2 0x12E JUMPI PUSH1 0x0 DUP1 REVERT JUMPDEST POP PUSH2 0x137 PUSH2 0x595 JUMP JUMPDEST PUSH1 0x40 MLOAD DUP1 DUP3 DUP2 MSTORE PUSH1 0x20 ADD SWAP2 POP POP PUSH1 0x40 MLOAD DUP1 SWAP2 SUB SWAP1 RETURN JUMPDEST CALLVALUE DUP1 ISZERO PUSH2 0x159 JUMPI PUSH1 0x0 DUP1 REVERT JUMPDEST POP PUSH2 0x162 PUSH2 0x59A JUMP JUMPDEST PUSH1 0x40 MLOAD DUP1 DUP3 DUP2 MSTORE PUSH1 0x20 ADD SWAP2 POP POP PUSH1 0x40 MLOAD DUP1 SWAP2 SUB SWAP1 RETURN JUMPDEST CALLVALUE DUP1 ISZERO PUSH2 0x184 JUMPI PUSH1 0x0 DUP1 REVERT JUMPDEST POP PUSH2 0x18D PUSH2 0x5A0 JUMP JUMPDEST PUSH1 0x40 MLOAD DUP1 DUP3 DUP2 MSTORE PUSH1 0x20 ADD SWAP2 POP POP PUSH1 0x40 MLOAD DUP1 SWAP2 SUB SWAP1 RETURN JUMPDEST CALLVALUE DUP1 ISZERO PUSH2 0x1AF JUMPI PUSH1 0x0 DUP1 REVERT JUMPDEST POP PUSH2 0x1B8 PUSH2 0x5A6 JUMP JUMPDEST STOP JUMPDEST CALLVALUE DUP1 ISZERO PUSH2 0x1C6 JUMPI PUSH1 0x0 DUP1 REVERT JUMPDEST POP PUSH2 0x1CF PUSH2 0x652 JUMP JUMPDEST PUSH1 0x40 MLOAD DUP1 DUP3 DUP2 MSTORE PUSH1 0x20 ADD SWAP2 POP POP PUSH1 0x40 MLOAD DUP1 SWAP2 SUB SWAP1 RETURN JUMPDEST CALLVALUE DUP1 ISZERO PUSH2 0x1F1 JUMPI PUSH1 0x0 DUP1 REVERT JUMPDEST POP PUSH2 0x1FA PUSH2 0x65A JUMP JUMPDEST PUSH1 0x40 MLOAD DUP1 DUP3 DUP2 MSTORE PUSH1 0x20 ADD SWAP2 POP POP PUSH1 0x40 MLOAD DUP1 SWAP2 SUB SWAP1 RETURN JUMPDEST CALLVALUE DUP1 ISZERO PUSH2 0x21C JUMPI PUSH1 0x0 DUP1 REVERT JUMPDEST POP PUSH2 0x225 PUSH2 0x847 JUMP JUMPDEST PUSH1 0x40 MLOAD DUP1 DUP3 DUP2 MSTORE PUSH1 0x20 ADD SWAP2 POP POP PUSH1 0x40 MLOAD DUP1 SWAP2 SUB SWAP1 RETURN JUMPDEST CALLVALUE DUP1 ISZERO PUSH2 0x247 JUMPI PUSH1 0x0 DUP1 REVERT JUMPDEST POP PUSH2 0x250 PUSH2 0x84D JUMP JUMPDEST PUSH1 0x40 MLOAD DUP1 DUP3 DUP2 MSTORE PUSH1 0x20 ADD SWAP2 POP POP PUSH1 0x40 MLOAD DUP1 SWAP2 SUB SWAP1 RETURN JUMPDEST CALLVALUE DUP1 ISZERO PUSH2 0x272 JUMPI PUSH1 0x0 DUP1 REVERT JUMPDEST POP PUSH2 0x27B PUSH2 0x853 JUMP JUMPDEST PUSH1 0x40 MLOAD DUP1 DUP3 DUP2 MSTORE PUSH1 0x20 ADD SWAP2 POP POP PUSH1 0x40 MLOAD DUP1 SWAP2 SUB SWAP1 RETURN JUMPDEST CALLVALUE DUP1 ISZERO PUSH2 0x29D JUMPI PUSH1 0x0 DUP1 REVERT JUMPDEST POP PUSH2 0x2A6 PUSH2 0x85F JUMP JUMPDEST PUSH1 0x40 MLOAD DUP1 DUP3 DUP2 MSTORE PUSH1 0x20 ADD SWAP2 POP POP PUSH1 0x40 MLOAD DUP1 SWAP2 SUB SWAP1 RETURN JUMPDEST CALLVALUE DUP1 ISZERO PUSH2 0x2C8 JUMPI PUSH1 0x0 DUP1 REVERT JUMPDEST POP PUSH2 0x2F5 PUSH1 0x4 DUP1 CALLDATASIZE SUB PUSH1 0x20 DUP2 LT ISZERO PUSH2 0x2DF JUMPI PUSH1 0x0 DUP1 REVERT JUMPDEST DUP2 ADD SWAP1 DUP1 DUP1 CALLDATALOAD SWAP1 PUSH1 0x20 ADD SWAP1 SWAP3 SWAP2 SWAP1 POP POP POP PUSH2 0x923 JUMP JUMPDEST STOP JUMPDEST CALLVALUE DUP1 ISZERO PUSH2 0x303 JUMPI PUSH1 0x0 DUP1 REVERT JUMPDEST POP PUSH2 0x30C PUSH2 0x9B2 JUMP JUMPDEST PUSH1 0x40 MLOAD DUP1 DUP3 DUP2 MSTORE PUSH1 0x20 ADD SWAP2 POP POP PUSH1 0x40 MLOAD DUP1 SWAP2 SUB SWAP1 RETURN JUMPDEST CALLVALUE DUP1 ISZERO PUSH2 0x32E JUMPI PUSH1 0x0 DUP1 REVERT JUMPDEST POP PUSH2 0x337 PUSH2 0x9B8 JUMP JUMPDEST PUSH1 0x40 MLOAD DUP1 DUP3 DUP2 MSTORE PUSH1 0x20 ADD SWAP2 POP POP PUSH1 0x40 MLOAD DUP1 SWAP2 SUB SWAP1 RETURN JUMPDEST PUSH1 0x1 CALLVALUE LT ISZERO PUSH2 0x35B JUMPI PUSH1 0x0 DUP1 REVERT JUMPDEST PUSH8 0x8AC7230489E80000 CALLVALUE GT ISZERO PUSH2 0x370 JUMPI PUSH1 0x0 DUP1 REVERT JUMPDEST PUSH1 0x0 DUP1 SLOAD EQ DUP1 PUSH2 0x382 JUMPI POP PUSH1 0x0 SLOAD CALLVALUE LT ISZERO JUMPDEST PUSH2 0x38B JUMPI PUSH1 0x0 DUP1 REVERT JUMPDEST PUSH1 0x7 PUSH1 0x0 SWAP1 SLOAD SWAP1 PUSH2 0x100 EXP SWAP1 DIV PUSH20 0xFFFFFFFFFFFFFFFFFFFFFFFFFFFFFFFFFFFFFFFF AND PUSH20 0xFFFFFFFFFFFFFFFFFFFFFFFFFFFFFFFFFFFFFFFF AND CALLER PUSH20 0xFFFFFFFFFFFFFFFFFFFFFFFFFFFFFFFFFFFFFFFF AND EQ ISZERO PUSH2 0x3E6 JUMPI PUSH1 0x0 DUP1 REVERT JUMPDEST PUSH1 0x0 PUSH20 0xFFFFFFFFFFFFFFFFFFFFFFFFFFFFFFFFFFFFFFFF AND PUSH1 0x8 PUSH1 0x0 SWAP1 SLOAD SWAP1 PUSH2 0x100 EXP SWAP1 DIV PUSH20 0xFFFFFFFFFFFFFFFFFFFFFFFFFFFFFFFFFFFFFFFF AND PUSH20 0xFFFFFFFFFFFFFFFFFFFFFFFFFFFFFFFFFFFFFFFF AND EQ ISZERO PUSH2 0x48A JUMPI CALLER PUSH1 0x8 PUSH1 0x0 PUSH2 0x100 EXP DUP2 SLOAD DUP2 PUSH20 0xFFFFFFFFFFFFFFFFFFFFFFFFFFFFFFFFFFFFFFFF MUL NOT AND SWAP1 DUP4 PUSH20 0xFFFFFFFFFFFFFFFFFFFFFFFFFFFFFFFFFFFFFFFF AND MUL OR SWAP1 SSTORE POP CALLVALUE PUSH1 0x3 DUP2 SWAP1 SSTORE POP PUSH2 0x58D JUMP JUMPDEST PUSH1 0x0 PUSH20 0xFFFFFFFFFFFFFFFFFFFFFFFFFFFFFFFFFFFFFFFF AND PUSH1 0x7 PUSH1 0x0 SWAP1 SLOAD SWAP1 PUSH2 0x100 EXP SWAP1 DIV PUSH20 0xFFFFFFFFFFFFFFFFFFFFFFFFFFFFFFFFFFFFFFFF AND PUSH20 0xFFFFFFFFFFFFFFFFFFFFFFFFFFFFFFFFFFFFFFFF AND EQ DUP1 ISZERO PUSH2 0x537 JUMPI POP PUSH1 0x0 PUSH20 0xFFFFFFFFFFFFFFFFFFFFFFFFFFFFFFFFFFFFFFFF AND PUSH1 0x8 PUSH1 0x0 SWAP1 SLOAD SWAP1 PUSH2 0x100 EXP SWAP1 DIV PUSH20 0xFFFFFFFFFFFFFFFFFFFFFFFFFFFFFFFFFFFFFFFF AND PUSH20 0xFFFFFFFFFFFFFFFFFFFFFFFFFFFFFFFFFFFFFFFF AND EQ ISZERO JUMPDEST ISZERO PUSH2 0x58C JUMPI CALLER PUSH1 0x7 PUSH1 0x0 PUSH2 0x100 EXP DUP2 SLOAD DUP2 PUSH20 0xFFFFFFFFFFFFFFFFFFFFFFFFFFFFFFFFFFFFFFFF MUL NOT AND SWAP1 DUP4 PUSH20 0xFFFFFFFFFFFFFFFFFFFFFFFFFFFFFFFFFFFFFFFF AND MUL OR SWAP1 SSTORE POP CALLVALUE PUSH1 0x0 DUP2 SWAP1 SSTORE POP CALLVALUE PUSH1 0x4 DUP2 SWAP1 SSTORE POP JUMPDEST JUMPDEST JUMP JUMPDEST PUSH1 0x0 SLOAD DUP2 JUMP JUMPDEST PUSH1 0x1 DUP2 JUMP JUMPDEST PUSH1 0x1 SLOAD DUP2 JUMP JUMPDEST PUSH1 0x6 SLOAD DUP2 JUMP JUMPDEST PUSH1 0x0 PUSH1 0x1 SLOAD GT PUSH2 0x5B5 JUMPI PUSH1 0x0 DUP1 REVERT JUMPDEST PUSH1 0x0 DUP1 DUP2 SWAP1 SSTORE POP PUSH1 0x0 PUSH1 0x7 PUSH1 0x0 PUSH2 0x100 EXP DUP2 SLOAD DUP2 PUSH20 0xFFFFFFFFFFFFFFFFFFFFFFFFFFFFFFFFFFFFFFFF MUL NOT AND SWAP1 DUP4 PUSH20 0xFFFFFFFFFFFFFFFFFFFFFFFFFFFFFFFFFFFFFFFF AND MUL OR SWAP1 SSTORE POP PUSH1 0x0 PUSH1 0x8 PUSH1 0x0 PUSH2 0x100 EXP DUP2 SLOAD DUP2 PUSH20 0xFFFFFFFFFFFFFFFFFFFFFFFFFFFFFFFFFFFFFFFF MUL NOT AND SWAP1 DUP4 PUSH20 0xFFFFFFFFFFFFFFFFFFFFFFFFFFFFFFFFFFFFFFFF AND MUL OR SWAP1 SSTORE POP PUSH1 0x0 PUSH1 0x1 DUP2 SWAP1 SSTORE POP PUSH1 0x0 PUSH1 0x6 DUP2 SWAP1 SSTORE POP JUMP JUMPDEST PUSH1 0x0 SELFBALANCE SWAP1 POP SWAP1 JUMP JUMPDEST PUSH1 0x0 DUP1 PUSH1 0x5 SLOAD GT PUSH2 0x66A JUMPI PUSH1 0x0 DUP1 REVERT JUMPDEST PUSH3 0xF423F PUSH1 0x1 NUMBER SUB BLOCKHASH PUSH1 0x0 SHR DUP2 PUSH2 0x67D JUMPI INVALID JUMPDEST MOD PUSH1 0x2 DUP2 SWAP1 SSTORE POP PUSH1 0x0 PUSH1 0x2 DUP1 SLOAD DUP2 PUSH2 0x691 JUMPI INVALID JUMPDEST MOD EQ ISZERO PUSH2 0x726 JUMPI PUSH1 0x2 PUSH1 0x1 DUP2 SWAP1 SSTORE POP PUSH1 0x2 PUSH1 0x5 SLOAD EQ ISZERO PUSH2 0x725 JUMPI PUSH1 0x1 PUSH1 0x6 DUP2 SWAP1 SSTORE POP PUSH1 0x7 PUSH1 0x0 SWAP1 SLOAD SWAP1 PUSH2 0x100 EXP SWAP1 DIV PUSH20 0xFFFFFFFFFFFFFFFFFFFFFFFFFFFFFFFFFFFFFFFF AND PUSH20 0xFFFFFFFFFFFFFFFFFFFFFFFFFFFFFFFFFFFFFFFF AND PUSH2 0x8FC SELFBALANCE SWAP1 DUP2 ISZERO MUL SWAP1 PUSH1 0x40 MLOAD PUSH1 0x0 PUSH1 0x40 MLOAD DUP1 DUP4 SUB DUP2 DUP6 DUP9 DUP9 CALL SWAP4 POP POP POP POP ISZERO DUP1 ISZERO PUSH2 0x71B JUMPI RETURNDATASIZE PUSH1 0x0 DUP1 RETURNDATACOPY RETURNDATASIZE PUSH1 0x0 REVERT JUMPDEST POP PUSH2 0x724 PUSH2 0x9BE JUMP JUMPDEST JUMPDEST JUMPDEST PUSH1 0x1 PUSH1 0x2 DUP1 SLOAD DUP2 PUSH2 0x733 JUMPI INVALID JUMPDEST MOD EQ ISZERO PUSH2 0x7C7 JUMPI PUSH1 0x1 DUP1 DUP2 SWAP1 SSTORE POP PUSH1 0x1 PUSH1 0x5 SLOAD EQ ISZERO PUSH2 0x7C6 JUMPI PUSH1 0x1 PUSH1 0x6 DUP2 SWAP1 SSTORE POP PUSH1 0x7 PUSH1 0x0 SWAP1 SLOAD SWAP1 PUSH2 0x100 EXP SWAP1 DIV PUSH20 0xFFFFFFFFFFFFFFFFFFFFFFFFFFFFFFFFFFFFFFFF AND PUSH20 0xFFFFFFFFFFFFFFFFFFFFFFFFFFFFFFFFFFFFFFFF AND PUSH2 0x8FC SELFBALANCE SWAP1 DUP2 ISZERO MUL SWAP1 PUSH1 0x40 MLOAD PUSH1 0x0 PUSH1 0x40 MLOAD DUP1 DUP4 SUB DUP2 DUP6 DUP9 DUP9 CALL SWAP4 POP POP POP POP ISZERO DUP1 ISZERO PUSH2 0x7BC JUMPI RETURNDATASIZE PUSH1 0x0 DUP1 RETURNDATACOPY RETURNDATASIZE PUSH1 0x0 REVERT JUMPDEST POP PUSH2 0x7C5 PUSH2 0x9BE JUMP JUMPDEST JUMPDEST JUMPDEST PUSH1 0x0 PUSH1 0x6 SLOAD EQ ISZERO PUSH2 0x844 JUMPI PUSH1 0x8 PUSH1 0x0 SWAP1 SLOAD SWAP1 PUSH2 0x100 EXP SWAP1 DIV PUSH20 0xFFFFFFFFFFFFFFFFFFFFFFFFFFFFFFFFFFFFFFFF AND PUSH20 0xFFFFFFFFFFFFFFFFFFFFFFFFFFFFFFFFFFFFFFFF AND PUSH2 0x8FC SELFBALANCE SWAP1 DUP2 ISZERO MUL SWAP1 PUSH1 0x40 MLOAD PUSH1 0x0 PUSH1 0x40 MLOAD DUP1 DUP4 SUB DUP2 DUP6 DUP9 DUP9 CALL SWAP4 POP POP POP POP ISZERO DUP1 ISZERO PUSH2 0x83A JUMPI RETURNDATASIZE PUSH1 0x0 DUP1 RETURNDATACOPY RETURNDATASIZE PUSH1 0x0 REVERT JUMPDEST POP PUSH2 0x843 PUSH2 0x9BE JUMP JUMPDEST JUMPDEST SWAP1 JUMP JUMPDEST PUSH1 0x4 SLOAD DUP2 JUMP JUMPDEST PUSH1 0x5 SLOAD DUP2 JUMP JUMPDEST PUSH8 0x8AC7230489E80000 DUP2 JUMP JUMPDEST PUSH1 0x0 PUSH1 0x7 PUSH1 0x0 SWAP1 SLOAD SWAP1 PUSH2 0x100 EXP SWAP1 DIV PUSH20 0xFFFFFFFFFFFFFFFFFFFFFFFFFFFFFFFFFFFFFFFF AND PUSH20 0xFFFFFFFFFFFFFFFFFFFFFFFFFFFFFFFFFFFFFFFF AND CALLER PUSH20 0xFFFFFFFFFFFFFFFFFFFFFFFFFFFFFFFFFFFFFFFF AND EQ ISZERO PUSH2 0x8C0 JUMPI PUSH1 0x1 SWAP1 POP PUSH2 0x920 JUMP JUMPDEST PUSH1 0x8 PUSH1 0x0 SWAP1 SLOAD SWAP1 PUSH2 0x100 EXP SWAP1 DIV PUSH20 0xFFFFFFFFFFFFFFFFFFFFFFFFFFFFFFFFFFFFFFFF AND PUSH20 0xFFFFFFFFFFFFFFFFFFFFFFFFFFFFFFFFFFFFFFFF AND CALLER PUSH20 0xFFFFFFFFFFFFFFFFFFFFFFFFFFFFFFFFFFFFFFFF AND EQ ISZERO PUSH2 0x91F JUMPI PUSH1 0x0 SWAP1 POP PUSH2 0x920 JUMP JUMPDEST JUMPDEST SWAP1 JUMP JUMPDEST PUSH1 0x1 PUSH1 0x5 SLOAD LT PUSH2 0x932 JUMPI PUSH1 0x0 DUP1 REVERT JUMPDEST PUSH1 0x7 PUSH1 0x0 SWAP1 SLOAD SWAP1 PUSH2 0x100 EXP SWAP1 DIV PUSH20 0xFFFFFFFFFFFFFFFFFFFFFFFFFFFFFFFFFFFFFFFF AND PUSH20 0xFFFFFFFFFFFFFFFFFFFFFFFFFFFFFFFFFFFFFFFF AND CALLER PUSH20 0xFFFFFFFFFFFFFFFFFFFFFFFFFFFFFFFFFFFFFFFF AND EQ PUSH2 0x98C JUMPI PUSH1 0x0 DUP1 REVERT JUMPDEST DUP1 PUSH1 0x0 DUP2 GT PUSH2 0x99A JUMPI PUSH1 0x0 DUP1 REVERT JUMPDEST PUSH1 0x3 DUP2 LT PUSH2 0x9A7 JUMPI PUSH1 0x0 DUP1 REVERT JUMPDEST DUP2 PUSH1 0x5 DUP2 SWAP1 SSTORE POP POP POP JUMP JUMPDEST PUSH1 0x2 SLOAD DUP2 JUMP JUMPDEST PUSH1 0x3 SLOAD DUP2 JUMP JUMPDEST PUSH1 0x0 DUP1 DUP2 SWAP1 SSTORE POP PUSH1 0x0 PUSH1 0x7 PUSH1 0x0 PUSH2 0x100 EXP DUP2 SLOAD DUP2 PUSH20 0xFFFFFFFFFFFFFFFFFFFFFFFFFFFFFFFFFFFFFFFF MUL NOT AND SWAP1 DUP4 PUSH20 0xFFFFFFFFFFFFFFFFFFFFFFFFFFFFFFFFFFFFFFFF AND MUL OR SWAP1 SSTORE POP PUSH1 0x0 PUSH1 0x8 PUSH1 0x0 PUSH2 0x100 EXP DUP2 SLOAD DUP2 PUSH20 0xFFFFFFFFFFFFFFFFFFFFFFFFFFFFFFFFFFFFFFFF MUL NOT AND SWAP1 DUP4 PUSH20 0xFFFFFFFFFFFFFFFFFFFFFFFFFFFFFFFFFFFFFFFF AND MUL OR SWAP1 SSTORE POP PUSH1 0x0 PUSH1 0x3 DUP2 SWAP1 SSTORE POP PUSH1 0x0 PUSH1 0x4 DUP2 SWAP1 SSTORE POP PUSH1 0x0 PUSH1 0x5 DUP2 SWAP1 SSTORE POP JUMP INVALID LOG2 PUSH6 0x627A7A723158 KECCAK256 CREATE2 0x2F 0xCD LOG2 0xE7 PUSH3 0xD1A2B6 0x5D CODESIZE PUSH18 0x624A691092AA3C818BFE13B10A03CA9B5A79 PUSH3 0x5E6473 PUSH16 0x6C634300051100320000000000000000 "
				},
				"gasEstimates": {
					"creation": {
						"codeDepositCost": "542400",
						"executionCost": "20599",
						"totalCost": "562999"
					},
					"external": {
						"BET_MAX()": "294",
						"BET_MIN()": "273",
						"getContractBalance()": "304",
						"getOutcome()": "infinite",
						"housePlayed()": "1093",
						"initialBet()": "1051",
						"outcome()": "1028",
						"paid()": "1050",
						"playerChoice()": "1072",
						"playerChooses(uint256)": "22030",
						"playerPlayed()": "1050",
						"randomNum()": "1071",
						"register()": "66243",
						"reset_contract()": "57810",
						"whoAmI()": "1992"
					},
					"internal": {
						"reset()": "61799"
					}
				},
				"methodIdentifiers": {
					"BET_MAX()": "d0017a0c",
					"BET_MIN()": "2626ab08",
					"getContractBalance()": "6f9fb98a",
					"getOutcome()": "7e7e4b47",
					"housePlayed()": "fc98f42e",
					"initialBet()": "1d73c64c",
					"outcome()": "27793f87",
					"paid()": "295b4e17",
					"playerChoice()": "adef7cdd",
					"playerChooses(uint256)": "e92788d6",
					"playerPlayed()": "8e687aed",
					"randomNum()": "f630aa65",
					"register()": "1aa3a008",
					"reset_contract()": "4e22fb5b",
					"whoAmI()": "da91254c"
				}
			},
			"storageLayout": {
				"storage": [
					{
						"astId": 9,
						"contract": "Group Projects/Group Project # 3_Rock_Paper_scissors/Project-3/Starter code/Coinflip game/test_game.sol:CoinFlip",
						"label": "initialBet",
						"offset": 0,
						"slot": "0",
						"type": "t_uint256"
					},
					{
						"astId": 11,
						"contract": "Group Projects/Group Project # 3_Rock_Paper_scissors/Project-3/Starter code/Coinflip game/test_game.sol:CoinFlip",
						"label": "outcome",
						"offset": 0,
						"slot": "1",
						"type": "t_uint256"
					},
					{
						"astId": 13,
						"contract": "Group Projects/Group Project # 3_Rock_Paper_scissors/Project-3/Starter code/Coinflip game/test_game.sol:CoinFlip",
						"label": "randomNum",
						"offset": 0,
						"slot": "2",
						"type": "t_uint256"
					},
					{
						"astId": 16,
						"contract": "Group Projects/Group Project # 3_Rock_Paper_scissors/Project-3/Starter code/Coinflip game/test_game.sol:CoinFlip",
						"label": "housePlayed",
						"offset": 0,
						"slot": "3",
						"type": "t_uint256"
					},
					{
						"astId": 19,
						"contract": "Group Projects/Group Project # 3_Rock_Paper_scissors/Project-3/Starter code/Coinflip game/test_game.sol:CoinFlip",
						"label": "playerPlayed",
						"offset": 0,
						"slot": "4",
						"type": "t_uint256"
					},
					{
						"astId": 22,
						"contract": "Group Projects/Group Project # 3_Rock_Paper_scissors/Project-3/Starter code/Coinflip game/test_game.sol:CoinFlip",
						"label": "playerChoice",
						"offset": 0,
						"slot": "5",
						"type": "t_uint256"
					},
					{
						"astId": 25,
						"contract": "Group Projects/Group Project # 3_Rock_Paper_scissors/Project-3/Starter code/Coinflip game/test_game.sol:CoinFlip",
						"label": "paid",
						"offset": 0,
						"slot": "6",
						"type": "t_uint256"
					},
					{
						"astId": 27,
						"contract": "Group Projects/Group Project # 3_Rock_Paper_scissors/Project-3/Starter code/Coinflip game/test_game.sol:CoinFlip",
						"label": "playerA",
						"offset": 0,
						"slot": "7",
						"type": "t_address_payable"
					},
					{
						"astId": 29,
						"contract": "Group Projects/Group Project # 3_Rock_Paper_scissors/Project-3/Starter code/Coinflip game/test_game.sol:CoinFlip",
						"label": "HouseWallet",
						"offset": 0,
						"slot": "8",
						"type": "t_address_payable"
					}
				],
				"types": {
					"t_address_payable": {
						"encoding": "inplace",
						"label": "address payable",
						"numberOfBytes": "20"
					},
					"t_uint256": {
						"encoding": "inplace",
						"label": "uint256",
						"numberOfBytes": "32"
					}
				}
			},
			"userdoc": {
				"methods": {
					"getContractBalance()": {
						"notice": "***********************************************************************"
					}
				}
			}
		}
	}
}